{"bytecode":"60c06040526000600a556000600b556000600c556007600e556007600f553480156200002a57600080fd5b506040516200512b3803806200512b8339810160408190526200004d91620005b5565b604051806040016040528060078152602001662134ba31b7b4b760c91b8152506040518060600160405280602f8152602001620050fc602f913960648888888888888585896200009d81620001b8565b506003805460ff19169055620000b333620001d1565b6001600160a01b0391821660a05216608052620000d987670de0b6b3a76400006200063a565b600a819055600c55601980546001600160a01b0319166001600160a01b0383169081179091556000908152601c60209081526040909120601490819055859055601584905542601081905560115589516200013b91600991908c0190620004f2565b5050601680546001600160a01b0319908116600190811790925560178054821660021790556018805482166003179055601a805482166004179055600880546001600160a01b03949094169390911692909217909155620001ac97506107df9650945060059350506200022b915050565b505050505050620007f6565b8051620001cd906002906020840190620004f2565b5050565b600380546001600160a01b03838116610100818102610100600160a81b031985161790945560405193909204169182907f8be0079c531659141344cd1fd0a4f28419497f9722a3daafe3b4186f6b6457e090600090a35050565b6003546001600160a01b03610100909104163314620002915760405162461bcd60e51b815260206004820181905260248201527f4f776e61626c653a2063616c6c6572206973206e6f7420746865206f776e657260448201526064015b60405180910390fd5b60035460ff1615620002d95760405162461bcd60e51b815260206004820152601060248201526f14185d5cd8589b194e881c185d5cd95960821b604482015260640162000288565b6000620002f38484846200035b60201b62002a031760201c565b905060125460001462000353576012548110620003535760405162461bcd60e51b815260206004820152601f60248201527f4f6e6c79206261636b77617264206368616e676520697320616c6c6f77656400604482015260640162000288565b601255505050565b6000620151806200036e85858562000382565b6200037a91906200063a565b949350505050565b60006107b28410156200039457600080fd5b838383600062253d8c60046064600c620003b0600e886200065c565b620003bc9190620006a1565b620003ca88611324620006e1565b620003d69190620006e1565b620003e29190620006a1565b620003ef90600362000728565b620003fb9190620006a1565b600c806200040b600e886200065c565b620004179190620006a1565b6200042490600c62000728565b620004316002886200065c565b6200043d91906200065c565b6200044b9061016f62000728565b620004579190620006a1565b6004600c62000468600e896200065c565b620004749190620006a1565b62000482896112c0620006e1565b6200048e9190620006e1565b6200049c906105b562000728565b620004a89190620006a1565b620004b6617d4b876200065c565b620004c29190620006e1565b620004ce9190620006e1565b620004da91906200065c565b620004e691906200065c565b98975050505050505050565b8280546200050090620007b9565b90600052602060002090601f0160209004810192826200052457600085556200056f565b82601f106200053f57805160ff19168380011785556200056f565b828001600101855582156200056f579182015b828111156200056f57825182559160200191906001019062000552565b506200057d92915062000581565b5090565b5b808211156200057d576000815560010162000582565b80516001600160a01b0381168114620005b057600080fd5b919050565b60008060008060008060c08789031215620005cf57600080fd5b620005da8762000598565b9550620005ea6020880162000598565b94506040870151935060608701519250620006086080880162000598565b91506200061860a0880162000598565b90509295509295509295565b634e487b7160e01b600052601160045260246000fd5b600081600019048311821515161562000657576200065762000624565b500290565b60008083128015600160ff1b8501841216156200067d576200067d62000624565b6001600160ff1b03840183138116156200069b576200069b62000624565b50500390565b600082620006bf57634e487b7160e01b600052601260045260246000fd5b600160ff1b821460001984141615620006dc57620006dc62000624565b500590565b600080821280156001600160ff1b038490038513161562000706576200070662000624565b600160ff1b839003841281161562000722576200072262000624565b50500190565b60006001600160ff1b038184138284138082168684048611161562000751576200075162000624565b600160ff1b600087128281168783058912161562000773576200077362000624565b6000871292508782058712848416161562000792576200079262000624565b87850587128184161615620007ab57620007ab62000624565b505050929093029392505050565b600181811c90821680620007ce57607f821691505b60208210811415620007f057634e487b7160e01b600052602260045260246000fd5b50919050565b60805160a0516148d9620008236000396000818161219101526133e2015260006133b301526148d96000f3fe6080604052600436106103f95760003560e01c8063715018a611610213578063bdc7dd3a11610123578063e9cc3b54116100ab578063f2fde38b1161007a578063f2fde38b14610b7c578063f6e9119214610b9c578063f8a433ec14610bbc578063f9da6a1a14610bd1578063ffcb515614610be6576103f9565b8063e9cc3b5414610b32578063ec16f94714610b47578063ec3f1a3214610544578063f242432a14610b5c576103f9565b8063d8b4d6e3116100f2578063d8b4d6e314610a5e578063dbdad46414610a73578063dd2cec7f14610a93578063e5ada10c14610ac9578063e985e9c514610ae9576103f9565b8063bdc7dd3a146109fe578063c993717214610a13578063d50ac89214610a33578063d6b4c04114610a49576103f9565b80639e6db9d7116101a6578063ab32d59411610175578063ab32d5941461097e578063ac8daba014610993578063ae969cd2146109a9578063bafdf5bb146109c9578063bbb6e49d146109e9576103f9565b80639e6db9d714610908578063a22cb46514610928578063a5ee025714610948578063a9665b7a14610968576103f9565b806392b56abb116101e257806392b56abb146108bd57806393e51b64146108d257806394985ddd146108e857806396ff141f14610544576103f9565b8063715018a61461085057806371b7ab4c1461086557806389af787f1461087a5780638da5cb5b1461089a576103f9565b8063340d899a1161030e57806356f2520d116102a15780636cebb54e116102705780636cebb54e146107dc5780636db3cc46146107f15780636e21fc87146108065780636f78a4f71461083357806370e44c6a1461083b576103f9565b806356f2520d146107645780635c975abb146107845780635eae5b301461079c57806364e376b6146107bc576103f9565b8063503d3a81116102dd578063503d3a81146106e4578063503f558114610704578063516b466e14610724578063542d44ed14610744576103f9565b8063340d899a146106765780633f7111371461068c5780634e1273f4146106a15780634e3412b2146106ce576103f9565b806313887d95116103915780631f34bdca116103605780631f34bdca146105e05780632eb2c2d6146105f3578063303dd55314610613578063313d3e9214610629578063327285dc14610649576103f9565b806313887d95146105595780631528662c146105865780631aa98354146105a85780631c8108b1146105cb576103f9565b806306389ca1116103cd57806306389ca1146104bf5780630a6a001c146104f75780630e89341c1461051757806310ab09a314610544576103f9565b8062fdd58e1461042657806301ffc9a714610459578063037a2414146104895780630387da42146104a9575b306000908152601b6020526040902054610414903490613bf4565b306000908152601b6020526040902055005b34801561043257600080fd5b50610446610441366004613c23565b610bfb565b6040519081526020015b60405180910390f35b34801561046557600080fd5b50610479610474366004613c63565b610c92565b6040519015158152602001610450565b34801561049557600080fd5b506104466104a4366004613c80565b610ce4565b3480156104b557600080fd5b50610446600c5481565b3480156104cb57600080fd5b506104df6104da366004613c80565b610cf9565b6040516001600160a01b039091168152602001610450565b34801561050357600080fd5b50610446610512366004613cac565b610d28565b34801561052357600080fd5b50610537610532366004613cac565b610d49565b6040516104509190613d12565b34801561055057600080fd5b50610446600a81565b34801561056557600080fd5b50610446610574366004613d25565b601b6020526000908152604090205481565b34801561059257600080fd5b506105a66105a1366004613d4e565b610ddd565b005b3480156105b457600080fd5b506105bd610eca565b604051610450929190613dc0565b3480156105d757600080fd5b506105a6611035565b6105a66105ee366004613c80565b61106f565b3480156105ff57600080fd5b506105a661060e366004613f69565b61172f565b34801561061f57600080fd5b5061044660105481565b34801561063557600080fd5b50610479610644366004613cac565b6117bf565b34801561065557600080fd5b50610669610664366004613c80565b6117ed565b6040516104509190614012565b34801561068257600080fd5b5061044660145481565b34801561069857600080fd5b50600d54610446565b3480156106ad57600080fd5b506106c16106bc36600461405f565b611ab6565b6040516104509190614129565b3480156106da57600080fd5b50610446600a5481565b3480156106f057600080fd5b506105a66106ff36600461413c565b611bdf565b34801561071057600080fd5b506105a661071f366004613cac565b611d12565b34801561073057600080fd5b506105a661073f366004613c80565b611d6a565b34801561075057600080fd5b506019546104df906001600160a01b031681565b34801561077057600080fd5b5061053761077f366004613cac565b611e2f565b34801561079057600080fd5b5060035460ff16610479565b3480156107a857600080fd5b506105a66107b7366004613d25565b611ec9565b3480156107c857600080fd5b50601a546104df906001600160a01b031681565b3480156107e857600080fd5b50610537611f3e565b3480156107fd57600080fd5b50610446600181565b34801561081257600080fd5b50610446610821366004613d25565b601c6020526000908152604090205481565b6105a6611f4b565b34801561084757600080fd5b506105a6611fbe565b34801561085c57600080fd5b506105a66120a5565b34801561087157600080fd5b50610446600f81565b34801561088657600080fd5b506105a6610895366004614195565b6120df565b3480156108a657600080fd5b5060035461010090046001600160a01b03166104df565b3480156108c957600080fd5b50610537612179565b3480156108de57600080fd5b5061044660115481565b3480156108f457600080fd5b506105a661090336600461421c565b612186565b34801561091457600080fd5b506018546104df906001600160a01b031681565b34801561093457600080fd5b506105a6610943366004613d4e565b612208565b34801561095457600080fd5b506017546104df906001600160a01b031681565b34801561097457600080fd5b50610446600f5481565b34801561098a57600080fd5b50601354610446565b34801561099f57600080fd5b5061044660125481565b3480156109b557600080fd5b506104df6109c4366004613cac565b612213565b3480156109d557600080fd5b506105a66109e4366004613d4e565b61223d565b3480156109f557600080fd5b50610446600981565b348015610a0a57600080fd5b50610446601481565b348015610a1f57600080fd5b506105a6610a2e366004613d4e565b6122fd565b348015610a3f57600080fd5b50610446600e5481565b348015610a5557600080fd5b506105376123bd565b348015610a6a57600080fd5b50610446601981565b348015610a7f57600080fd5b506105a6610a8e366004613d25565b6123ca565b348015610a9f57600080fd5b506104df610aae366004613cac565b601d602052600090815260409020546001600160a01b031681565b348015610ad557600080fd5b506016546104df906001600160a01b031681565b348015610af557600080fd5b50610479610b0436600461423e565b6001600160a01b03918216600090815260016020908152604080832093909416825291909152205460ff1690565b348015610b3e57600080fd5b506105a66124d7565b348015610b5357600080fd5b506105a66125c4565b348015610b6857600080fd5b506105a6610b77366004614271565b612719565b348015610b8857600080fd5b506105a6610b97366004613d25565b6127a0565b348015610ba857600080fd5b506105a6610bb7366004613d4e565b612841565b348015610bc857600080fd5b50610446612901565b348015610bdd57600080fd5b506105376129be565b348015610bf257600080fd5b506105a66129cb565b60006001600160a01b038316610c6c5760405162461bcd60e51b815260206004820152602b60248201527f455243313135353a2062616c616e636520717565727920666f7220746865207a60448201526a65726f206164647265737360a81b60648201526084015b60405180910390fd5b506000908152602081815260408083206001600160a01b03949094168352929052205490565b60006001600160e01b03198216636cdb3d1360e11b1480610cc357506001600160e01b031982166303a24d0760e21b145b80610cde57506301ffc9a760e01b6001600160e01b03198316145b92915050565b6000610cf1848484612a03565b949350505050565b600080610d07858585612a03565b6000908152601d60205260409020546001600160a01b031695945050505050565b60138181548110610d3857600080fd5b600091825260209091200154905081565b606060028054610d58906142d5565b80601f0160208091040260200160405190810160405280929190818152602001828054610d84906142d5565b8015610dd15780601f10610da657610100808354040283529160200191610dd1565b820191906000526020600020905b815481529060010190602001808311610db457829003601f168201915b50505050509050919050565b6003546001600160a01b03610100909104163314610e0d5760405162461bcd60e51b8152600401610c6390614310565b8015610e5757601780546001600160a01b038481166001600160a01b031983168117909355166000818152601b602052604080822080549483529082209390935590815290555050565b601780546001600160a01b038481166001600160a01b031983161790925581166000818152601b60205260408082205460195490941682529020549091610e9d91613bf4565b6019546001600160a01b039081166000908152601b602052604080822093909355921682528120555b5050565b60608060006013805490506001600160401b03811115610eec57610eec613e20565b604051908082528060200260200182016040528015610f15578160200160208202803683370190505b506013549091506000906001600160401b03811115610f3657610f36613e20565b604051908082528060200260200182016040528015610f5f578160200160208202803683370190505b50905060005b60135481101561102b5760138181548110610f8257610f82614345565b9060005260206000200154838281518110610f9f57610f9f614345565b602002602001018181525050601d600060138381548110610fc257610fc2614345565b9060005260206000200154815260200190815260200160002060009054906101000a90046001600160a01b031682828151811061100157611001614345565b6001600160a01b0390921660209283029190910190910152806110238161435b565b915050610f65565b5090939092509050565b6003546001600160a01b036101009091041633146110655760405162461bcd60e51b8152600401610c6390614310565b61106d612a1e565b565b60035460ff16156110925760405162461bcd60e51b8152600401610c6390614376565b81158061109f5750600c82115b156110e45760405162461bcd60e51b81526020600482015260156024820152743bb937b7339036b7b73a341039b2b632b1ba34b7b760591b6044820152606401610c63565b8015806110f15750601f81115b156111345760405162461bcd60e51b81526020600482015260136024820152723bb937b733903230bc9039b2b632b1ba34b7b760691b6044820152606401610c63565b81600414806111435750816006145b8061114e5750816009145b80611159575081600b145b80156111655750601e81115b5081600214801561117a575061117a83612a93565b80156111865750601d81115b5081600214801561119d575061119b83612a93565b155b80156111a95750601c81115b5060006111b7848484612a03565b90506111c2816117bf565b6112465760405162461bcd60e51b815260206004820152604960248201527f54686973206461792043616e206e6f74206265206d696e74206174207468652060448201527f6d6f6d656e742c706c65617365207761697420756e74696c20746865206163746064820152683ab0b636103230bc9760b91b608482015260a401610c63565b6000818152601d60205260409020546001600160a01b0316156112ab5760405162461bcd60e51b815260206004820152601e60248201527f54686973206461792068617320616c7265616479206d656d6f72697a656400006044820152606401610c63565b336000908152601c6020526040812054156112f05750336000908152601c60205260409020546001906112df9082906143a0565b336000908152601c60205260409020555b8061161b576112fd612901565b34101561135a5760405162461bcd60e51b815260206004820152602560248201527f4e6f7420656e6f7567682066756e647320746f206d656d6f72697a6520746869604482015264732064617960d81b6064820152608401610c63565b60006064611369600f346143b7565b61137391906143ec565b600080516020614884833981519152546001600160a01b03166000908152601b60205260409020549091506113a9908290613bf4565b600080516020614884833981519152546001600160a01b03166000908152601b602052604081209190915560646113e1600a346143b7565b6113eb91906143ec565b601a546001600160a01b03166000908152601b6020526040902054909150611414908290613bf4565b601a546001600160a01b03166000908152601b6020526040812091909155606461143f6001346143b7565b61144991906143ec565b306000908152601b6020526040902054909150611467908290613bf4565b306000908152601b602052604090205560646114846019346143b7565b61148e91906143ec565b600b81905561149c90612acf565b600060646114ab6014346143b7565b6114b591906143ec565b6016546001600160a01b03166000908152601b60205260409020549091506114de908290613bf4565b6016546001600160a01b03166000908152601b60205260408120919091556064611509600a346143b7565b61151391906143ec565b6017546001600160a01b03166000908152601b602052604090205490915061153c908290613bf4565b6017546001600160a01b03166000908152601b60205260408120919091556064611567600a346143b7565b61157191906143ec565b6018546001600160a01b03166000908152601b602052604090205490915061159a908290613bf4565b6018546001600160a01b03166000908152601b602052604081209190915560646115c56009346143b7565b6115cf91906143ec565b6019546001600160a01b03166000908152601b60205260409020549091506115f8908290613bf4565b6019546001600160a01b03166000908152601b6020526040902055505050505050505b6116373383600160405180602001604052806000815250612c25565b60138054600181019091557f66de8ffda797e3de9c05e8fc57b3bf0ec28a930d40b0d285d93c06501cf6a090018290556000828152601d6020526040902080546001600160a01b0319163317905561168d612d35565b80156116db57604080518681526020810186905290810184905233907f8f7b867d4725f039d609ba3eb633beddbb7049d42956e84b2ef81601f159b4119060600160405180910390a2611728565b6116e3612d47565b604080518681526020810186905290810184905233907fa51e9b2ef1f037dee551eb226d6d1581c8fb0e0243820ebd1fbb41a13e6c2364906060015b60405180910390a25b5050505050565b6001600160a01b03851633148061174b575061174b8533610b04565b6117b25760405162461bcd60e51b815260206004820152603260248201527f455243313135353a207472616e736665722063616c6c6572206973206e6f74206044820152711bdddb995c881b9bdc88185c1c1c9bdd995960721b6064820152608401610c63565b6117288585858585612dcd565b60004282111580156117d357506012548210155b156117e057506001919050565b506000919050565b919050565b6117f5613ac9565b6000611802858585612a03565b6000818152601d60205260409020549091506001600160a01b03166118695760405162461bcd60e51b815260206004820152601f60248201527f546869732064617920646f6573206e6f74206d656d6f72697a656420796574006044820152606401610c63565b6040805160808101825260006060820181815282528251602081810185528282528084019190915283519081018452908152918101919091526118ab86612fb8565b8152600980546118ba906142d5565b80601f01602080910402602001604051908101604052809291908181526020018280546118e6906142d5565b80156119335780601f1061190857610100808354040283529160200191611933565b820191906000526020600020905b81548152906001019060200180831161191657829003601f168201915b50505050508160016003811061194b5761194b614345565b60200201819052506000601e60008481526020019081526020016000208054611973906142d5565b80601f016020809104026020016040519081016040528092919081815260200182805461199f906142d5565b80156119ec5780601f106119c1576101008083540402835291602001916119ec565b820191906000526020600020905b8154815290600101906020018083116119cf57829003601f168201915b505050505090508051600014611aac576000838152601e602052604090208054611a15906142d5565b80601f0160208091040260200160405190810160405280929190818152602001828054611a41906142d5565b8015611a8e5780601f10611a6357610100808354040283529160200191611a8e565b820191906000526020600020905b815481529060010190602001808311611a7157829003601f168201915b505050505082600260038110611aa657611aa6614345565b60200201525b5095945050505050565b60608151835114611b1b5760405162461bcd60e51b815260206004820152602960248201527f455243313135353a206163636f756e747320616e6420696473206c656e677468604482015268040dad2e6dac2e8c6d60bb1b6064820152608401610c63565b600083516001600160401b03811115611b3657611b36613e20565b604051908082528060200260200182016040528015611b5f578160200160208202803683370190505b50905060005b8451811015611bd757611baa858281518110611b8357611b83614345565b6020026020010151858381518110611b9d57611b9d614345565b6020026020010151610bfb565b828281518110611bbc57611bbc614345565b6020908102919091010152611bd08161435b565b9050611b65565b509392505050565b6000611bec858585612a03565b6000818152601d60205260409020549091506001600160a01b0316611c535760405162461bcd60e51b815260206004820152601f60248201527f546869732064617920646f6573206e6f74206d656d6f72697a656420796574006044820152606401610c63565b6000818152601d60205260409020546001600160a01b03163314611cb95760405162461bcd60e51b815260206004820152601760248201527f596f7520646f6e607420686176652074686973206461790000000000000000006044820152606401610c63565b6000818152601e602090815260409091208351611cd892850190613af0565b50336001600160a01b03167f2d51da4e9aae0a6ee06de087193c53fcc2ada79cd6d25b0d48990840471f05858360405161171f9190613d12565b6003546001600160a01b03610100909104163314611d425760405162461bcd60e51b8152600401610c6390614310565b60035460ff1615611d655760405162461bcd60e51b8152600401610c6390614376565b601455565b6003546001600160a01b03610100909104163314611d9a5760405162461bcd60e51b8152600401610c6390614310565b60035460ff1615611dbd5760405162461bcd60e51b8152600401610c6390614376565b6000611dca848484612a03565b9050601254600014611e27576012548110611e275760405162461bcd60e51b815260206004820152601f60248201527f4f6e6c79206261636b77617264206368616e676520697320616c6c6f776564006044820152606401610c63565b601255505050565b601e6020526000908152604090208054611e48906142d5565b80601f0160208091040260200160405190810160405280929190818152602001828054611e74906142d5565b8015611ec15780601f10611e9657610100808354040283529160200191611ec1565b820191906000526020600020905b815481529060010190602001808311611ea457829003601f168201915b505050505081565b6003546001600160a01b03610100909104163314611ef95760405162461bcd60e51b8152600401610c6390614310565b601980546001600160a01b039283166001600160a01b031982168117909255919091166000818152601b60205260408082208054948352908220939093559081529055565b60058054611e48906142d5565b6003546001600160a01b03610100909104163314611f7b5760405162461bcd60e51b8152600401610c6390614310565b306000908152601b602052604080822080549083905590519091339183156108fc0291849190818181858888f19350505050158015610ec6573d6000803e3d6000fd5b336000908152601b6020526040902054662386f26fc1000011156120365760405162461bcd60e51b815260206004820152602960248201527f596f7520646f6e60742068617665206d696e2062616c616e636520666f7220776044820152681a5d1a191c985dd85b60ba1b6064820152608401610c63565b336000818152601b602052604080822080549083905590519092839290917f2f174ca282119315c59efaf21147aef438581dabdeb498198ae28964373dd8bc9190a3604051339082156108fc029083906000818181858888f19350505050158015610ec6573d6000803e3d6000fd5b6003546001600160a01b036101009091041633146120d55760405162461bcd60e51b8152600401610c6390614310565b61106d60006130b5565b60008052601d602052600080516020614884833981519152546001600160a01b031633148061212f575060035461010090046001600160a01b03166001600160a01b0316336001600160a01b0316145b61213857600080fd5b825161214b906007906020860190613af0565b50815161215f906006906020850190613af0565b508051612173906005906020840190613af0565b50505050565b60098054611e48906142d5565b336001600160a01b037f000000000000000000000000000000000000000000000000000000000000000016146121fe5760405162461bcd60e51b815260206004820152601f60248201527f4f6e6c7920565246436f6f7264696e61746f722063616e2066756c66696c6c006044820152606401610c63565b610ec6828261310f565b610ec63383836132a0565b600d818154811061222357600080fd5b6000918252602090912001546001600160a01b0316905081565b6003546001600160a01b0361010090910416331461226d5760405162461bcd60e51b8152600401610c6390614310565b80156122b757601680546001600160a01b038481166001600160a01b031983168117909355166000818152601b602052604080822080549483529082209390935590815290555050565b601680546001600160a01b038481166001600160a01b031983161790925581166000818152601b60205260408082205460195490941682529020549091610e9d91613bf4565b6003546001600160a01b0361010090910416331461232d5760405162461bcd60e51b8152600401610c6390614310565b801561237757601a80546001600160a01b038481166001600160a01b031983168117909355166000818152601b602052604080822080549483529082209390935590815290555050565b601a80546001600160a01b038481166001600160a01b031983161790925581166000818152601b60205260408082205460195490941682529020549091610e9d91613bf4565b60078054611e48906142d5565b60008052601d602052600080516020614884833981519152546001600160a01b031633148061241a575060035461010090046001600160a01b03166001600160a01b0316336001600160a01b0316145b61242357600080fd5b600f5461243260115442613381565b10156124505760405162461bcd60e51b8152600401610c6390614400565b6001600160a01b0381166000908152601c6020526040902054156124b65760405162461bcd60e51b815260206004820181905260248201527f546869732061646472657373206861732061697264726f70207469636b6574736044820152606401610c63565b426011556001600160a01b03166000908152601c6020526040902060019055565b60035460ff16156124fa5760405162461bcd60e51b8152600401610c6390614376565b600e5461250960105442613381565b10156125275760405162461bcd60e51b8152600401610c6390614400565b600d546125765760405162461bcd60e51b815260206004820152601a60248201527f7468657265206973206e6f7420616e79207265676973746572730000000000006044820152606401610c63565b60006125866015546014546133af565b90507f41b48bb4a3fa87f36cd1b5550ef4af0e4c2568ea37629540b9209f5509b4a42f816040516125b991815260200190565b60405180910390a150565b60035460ff16156125e75760405162461bcd60e51b8152600401610c6390614376565b600160005b600d5481101561264557336001600160a01b0316600d828154811061261357612613614345565b6000918252602090912001546001600160a01b0316141561263357600091505b8061263d8161435b565b9150506125ec565b50806126aa5760405162461bcd60e51b815260206004820152602e60248201527f596f7520616c72656164792068617665206265656e207265676973746572656460448201526d20666f722074686973207765656b60901b6064820152608401610c63565b600d805460018101825560009182527fd7b6990105719101dabeb77144f2a3385c8033acd3af97e9423a695e81ad1eb50180546001600160a01b0319163390811790915560405190917fe0e462347257e042fb3036336d3f35ce831166d31e2cefc46d0d5046426d817591a250565b6001600160a01b03851633148061273557506127358533610b04565b6127935760405162461bcd60e51b815260206004820152602960248201527f455243313135353a2063616c6c6572206973206e6f74206f776e6572206e6f7260448201526808185c1c1c9bdd995960ba1b6064820152608401610c63565b611728858585858561352b565b6003546001600160a01b036101009091041633146127d05760405162461bcd60e51b8152600401610c6390614310565b6001600160a01b0381166128355760405162461bcd60e51b815260206004820152602660248201527f4f776e61626c653a206e6577206f776e657220697320746865207a65726f206160448201526564647265737360d01b6064820152608401610c63565b61283e816130b5565b50565b6003546001600160a01b036101009091041633146128715760405162461bcd60e51b8152600401610c6390614310565b80156128bb57601880546001600160a01b038481166001600160a01b031983168117909355166000818152601b602052604080822080549483529082209390935590815290555050565b601880546001600160a01b038481166001600160a01b031983161790925581166000818152601b60205260408082205460195490941682529020549091610e9d91613bf4565b600080600860009054906101000a90046001600160a01b03166001600160a01b031663feaf968c6040518163ffffffff1660e01b815260040160a060405180830381865afa158015612957573d6000803e3d6000fd5b505050506040513d601f19601f8201168201806040525081019061297b919061444a565b5050509150506000816402540be40061299491906143b7565b905080600c54670de0b6b3a76400006129ad91906143b7565b6129b791906143ec565b9250505090565b60068054611e48906142d5565b6003546001600160a01b036101009091041633146129fb5760405162461bcd60e51b8152600401610c6390614310565b61106d613648565b600062015180612a148585856136c2565b610cf191906143b7565b60035460ff1615612a415760405162461bcd60e51b8152600401610c6390614376565b6003805460ff191660011790557f62e78cea01bee320cd4e420270b5ea74000d11b0c9f74754ebdbfc544b05a258612a763390565b6040516001600160a01b03909116815260200160405180910390a1565b6000612aa060048361449a565b158015612ab65750612ab360648361449a565b15155b80610cde5750612ac86101908361449a565b1592915050565b6000612adc6005836143ec565b60135490915060051015612be05760005b6005811015612bdb576013805460009183612b096001846143a0565b612b1391906143a0565b81548110612b2357612b23614345565b9060005260206000200154612b38919061449a565b6000818152601d60209081526040808320546001600160a01b03168352601b909152902054909150612b6b908490613bf4565b6000828152601d6020818152604080842080546001600160a01b039081168652601b84528286209690965586855292909152905490519216917fec89f096ab194d04cc1a0689e9d8459793609da7ccddf64b4423e830b98743ec9190a25080612bd38161435b565b915050612aed565b505050565b6019546001600160a01b03166000908152601b6020526040902054612c06908390613bf4565b6019546001600160a01b03166000908152601b60205260409020555050565b6001600160a01b038416612c855760405162461bcd60e51b815260206004820152602160248201527f455243313135353a206d696e7420746f20746865207a65726f206164647265736044820152607360f81b6064820152608401610c63565b33612ca581600087612c96886137ff565b612c9f886137ff565b8761384a565b6000848152602081815260408083206001600160a01b038916845290915281208054859290612cd5908490613bf4565b909155505060408051858152602081018590526001600160a01b0380881692600092918516917fc3d58168c5ae7397731d063d5bbf3d657854427343f4c083240f7aacaa2d0f62910160405180910390a4611728816000878787876138b2565b6013546103e81161106d57601e600e55565b69152d02c7e14af6800000600c54101561106d57601354612d6b906105b49061449a565b612d8157600a54612d7d9060026143b7565b600a555b601354612d919061016d9061449a565b612da957600a54600c54612da59190613bf4565b600c555b69152d02c7e14af6800000600c54111561106d5769152d02c7e14af6800000600c55565b8151835114612e2f5760405162461bcd60e51b815260206004820152602860248201527f455243313135353a2069647320616e6420616d6f756e7473206c656e677468206044820152670dad2e6dac2e8c6d60c31b6064820152608401610c63565b6001600160a01b038416612e555760405162461bcd60e51b8152600401610c63906144ae565b33612e6481878787878761384a565b60005b8451811015612f4a576000858281518110612e8457612e84614345565b602002602001015190506000858381518110612ea257612ea2614345565b602090810291909101810151600084815280835260408082206001600160a01b038e168352909352919091205490915081811015612ef25760405162461bcd60e51b8152600401610c63906144f3565b6000838152602081815260408083206001600160a01b038e8116855292528083208585039055908b16825281208054849290612f2f908490613bf4565b9250508190555050505080612f439061435b565b9050612e67565b50846001600160a01b0316866001600160a01b0316826001600160a01b03167f4a39dc06d4c0dbc64b70af90fd698a233a518aa5d07e595d983b8c0526c8f7fb8787604051612f9a92919061453d565b60405180910390a4612fb0818787878787613a0e565b505050505050565b606081612fdc5750506040805180820190915260018152600360fc1b602082015290565b8160005b81156130065780612ff08161435b565b9150612fff9050600a836143ec565b9150612fe0565b6000816001600160401b0381111561302057613020613e20565b6040519080825280601f01601f19166020018201604052801561304a576020820181803683370190505b5090505b8415610cf15761305f6001836143a0565b915061306c600a8661449a565b613077906030613bf4565b60f81b81838151811061308c5761308c614345565b60200101906001600160f81b031916908160001a9053506130ae600a866143ec565b945061304e565b600380546001600160a01b03838116610100818102610100600160a81b031985161790945560405193909204169182907f8be0079c531659141344cd1fd0a4f28419497f9722a3daafe3b4186f6b6457e090600090a35050565b6000811161315f5760405162461bcd60e51b815260206004820152601a60248201527f72616e646f6d206e756d626572206973206e6f742076616c69640000000000006044820152606401610c63565b600e5461316e60105442613381565b101561318c5760405162461bcd60e51b8152600401610c6390614400565b42601055600d546000906131a0908361449a565b9050601c6000600d83815481106131b9576131b9614345565b60009182526020808320909101546001600160a01b031683528201929092526040019020546131e9906001613bf4565b601c6000600d848154811061320057613200614345565b60009182526020808320909101546001600160a01b03168352820192909252604001902055600d80548290811061323957613239614345565b600091825260209182902001546040518481526001600160a01b03909116917ff101adf3fbaf187819a99e49dd82fdbacc051e51337a2fe291907f90c263c1e2910160405180910390a2604080516000815260208101918290525161217391600d91613b74565b816001600160a01b0316836001600160a01b031614156133145760405162461bcd60e51b815260206004820152602960248201527f455243313135353a2073657474696e6720617070726f76616c20737461747573604482015268103337b91039b2b63360b91b6064820152608401610c63565b6001600160a01b03838116600081815260016020908152604080832094871680845294825291829020805460ff191686151590811790915591519182527f17307eab39ab6107e8899845ad3d59bd9653f200f220920489ca2b5937696c31910160405180910390a3505050565b60008183111561339057600080fd5b6201518061339e84846143a0565b6133a891906143ec565b9392505050565b60007f00000000000000000000000000000000000000000000000000000000000000006001600160a01b0316634000aea07f00000000000000000000000000000000000000000000000000000000000000008486600060405160200161341f929190918252602082015260400190565b6040516020818303038152906040526040518463ffffffff1660e01b815260040161344c9392919061456b565b6020604051808303816000875af115801561346b573d6000803e3d6000fd5b505050506040513d601f19601f8201168201806040525081019061348f9190614592565b50600083815260046020818152604080842054815180840189905280830186905230606082015260808082018390528351808303909101815260a0909101909252815191830191909120938790529190526134eb906001613bf4565b600085815260046020526040902055610cf18482604080516020808201949094528082019290925280518083038201815260609092019052805191012090565b6001600160a01b0384166135515760405162461bcd60e51b8152600401610c63906144ae565b33613561818787612c96886137ff565b6000848152602081815260408083206001600160a01b038a168452909152902054838110156135a25760405162461bcd60e51b8152600401610c63906144f3565b6000858152602081815260408083206001600160a01b038b81168552925280832087850390559088168252812080548692906135df908490613bf4565b909155505060408051868152602081018690526001600160a01b03808916928a821692918616917fc3d58168c5ae7397731d063d5bbf3d657854427343f4c083240f7aacaa2d0f62910160405180910390a461363f8288888888886138b2565b50505050505050565b60035460ff166136915760405162461bcd60e51b815260206004820152601460248201527314185d5cd8589b194e881b9bdd081c185d5cd95960621b6044820152606401610c63565b6003805460ff191690557f5db9ee0a495bf2e6ff9c91a7834c1ba4fdd244a5e8aa4e537bd38aeae4b073aa33612a76565b60006107b28410156136d357600080fd5b838383600062253d8c60046064600c6136ed600e886145af565b6136f791906145ee565b6137038861132461461c565b61370d919061461c565b61371791906145ee565b61372290600361465d565b61372c91906145ee565b600c8061373a600e886145af565b61374491906145ee565b61374f90600c61465d565b61375a6002886145af565b61376491906145af565b6137709061016f61465d565b61377a91906145ee565b6004600c613789600e896145af565b61379391906145ee565b61379f896112c061461c565b6137a9919061461c565b6137b5906105b561465d565b6137bf91906145ee565b6137cb617d4b876145af565b6137d5919061461c565b6137df919061461c565b6137e991906145af565b6137f391906145af565b98975050505050505050565b6040805160018082528183019092526060916000919060208083019080368337019050509050828160008151811061383957613839614345565b602090810291909101015292915050565b60035460ff1615612fb05760405162461bcd60e51b815260206004820152602c60248201527f455243313135355061757361626c653a20746f6b656e207472616e736665722060448201526b1dda1a5b19481c185d5cd95960a21b6064820152608401610c63565b6001600160a01b0384163b15612fb05760405163f23a6e6160e01b81526001600160a01b0385169063f23a6e61906138f690899089908890889088906004016146e2565b6020604051808303816000875af1925050508015613931575060408051601f3d908101601f1916820190925261392e91810190614727565b60015b6139de5761393d614744565b806308c379a014156139775750613952614760565b8061395d5750613979565b8060405162461bcd60e51b8152600401610c639190613d12565b505b60405162461bcd60e51b815260206004820152603460248201527f455243313135353a207472616e7366657220746f206e6f6e20455243313135356044820152732932b1b2b4bb32b91034b6b83632b6b2b73a32b960611b6064820152608401610c63565b6001600160e01b0319811663f23a6e6160e01b1461363f5760405162461bcd60e51b8152600401610c63906147e9565b6001600160a01b0384163b15612fb05760405163bc197c8160e01b81526001600160a01b0385169063bc197c8190613a529089908990889088908890600401614831565b6020604051808303816000875af1925050508015613a8d575060408051601f3d908101601f19168201909252613a8a91810190614727565b60015b613a995761393d614744565b6001600160e01b0319811663bc197c8160e01b1461363f5760405162461bcd60e51b8152600401610c63906147e9565b60405180606001604052806003905b6060815260200190600190039081613ad85790505090565b828054613afc906142d5565b90600052602060002090601f016020900481019282613b1e5760008555613b64565b82601f10613b3757805160ff1916838001178555613b64565b82800160010185558215613b64579182015b82811115613b64578251825591602001919060010190613b49565b50613b70929150613bc9565b5090565b828054828255906000526020600020908101928215613b64579160200282015b82811115613b6457825182546001600160a01b0319166001600160a01b03909116178255602090920191600190910190613b94565b5b80821115613b705760008155600101613bca565b634e487b7160e01b600052601160045260246000fd5b60008219821115613c0757613c07613bde565b500190565b80356001600160a01b03811681146117e857600080fd5b60008060408385031215613c3657600080fd5b613c3f83613c0c565b946020939093013593505050565b6001600160e01b03198116811461283e57600080fd5b600060208284031215613c7557600080fd5b81356133a881613c4d565b600080600060608486031215613c9557600080fd5b505081359360208301359350604090920135919050565b600060208284031215613cbe57600080fd5b5035919050565b6000815180845260005b81811015613ceb57602081850181015186830182015201613ccf565b81811115613cfd576000602083870101525b50601f01601f19169290920160200192915050565b6020815260006133a86020830184613cc5565b600060208284031215613d3757600080fd5b6133a882613c0c565b801515811461283e57600080fd5b60008060408385031215613d6157600080fd5b613d6a83613c0c565b91506020830135613d7a81613d40565b809150509250929050565b600081518084526020808501945080840160005b83811015613db557815187529582019590820190600101613d99565b509495945050505050565b604081526000613dd36040830185613d85565b82810360208481019190915284518083528582019282019060005b81811015613e135784516001600160a01b031683529383019391830191600101613dee565b5090979650505050505050565b634e487b7160e01b600052604160045260246000fd5b601f8201601f191681016001600160401b0381118282101715613e5b57613e5b613e20565b6040525050565b60006001600160401b03821115613e7b57613e7b613e20565b5060051b60200190565b600082601f830112613e9657600080fd5b81356020613ea382613e62565b604051613eb08282613e36565b83815260059390931b8501820192828101915086841115613ed057600080fd5b8286015b84811015613eeb5780358352918301918301613ed4565b509695505050505050565b600082601f830112613f0757600080fd5b81356001600160401b03811115613f2057613f20613e20565b604051613f37601f8301601f191660200182613e36565b818152846020838601011115613f4c57600080fd5b816020850160208301376000918101602001919091529392505050565b600080600080600060a08688031215613f8157600080fd5b613f8a86613c0c565b9450613f9860208701613c0c565b935060408601356001600160401b0380821115613fb457600080fd5b613fc089838a01613e85565b94506060880135915080821115613fd657600080fd5b613fe289838a01613e85565b93506080880135915080821115613ff857600080fd5b5061400588828901613ef6565b9150509295509295909350565b60208082526000906080830183820185845b600381101561405357601f19878503018352614041848351613cc5565b93509184019190840190600101614024565b50919695505050505050565b6000806040838503121561407257600080fd5b82356001600160401b038082111561408957600080fd5b818501915085601f83011261409d57600080fd5b813560206140aa82613e62565b6040516140b78282613e36565b83815260059390931b85018201928281019150898411156140d757600080fd5b948201945b838610156140fc576140ed86613c0c565b825294820194908201906140dc565b9650508601359250508082111561411257600080fd5b5061411f85828601613e85565b9150509250929050565b6020815260006133a86020830184613d85565b6000806000806080858703121561415257600080fd5b84359350602085013592506040850135915060608501356001600160401b0381111561417d57600080fd5b61418987828801613ef6565b91505092959194509250565b6000806000606084860312156141aa57600080fd5b83356001600160401b03808211156141c157600080fd5b6141cd87838801613ef6565b945060208601359150808211156141e357600080fd5b6141ef87838801613ef6565b9350604086013591508082111561420557600080fd5b5061421286828701613ef6565b9150509250925092565b6000806040838503121561422f57600080fd5b50508035926020909101359150565b6000806040838503121561425157600080fd5b61425a83613c0c565b915061426860208401613c0c565b90509250929050565b600080600080600060a0868803121561428957600080fd5b61429286613c0c565b94506142a060208701613c0c565b9350604086013592506060860135915060808601356001600160401b038111156142c957600080fd5b61400588828901613ef6565b600181811c908216806142e957607f821691505b6020821081141561430a57634e487b7160e01b600052602260045260246000fd5b50919050565b6020808252818101527f4f776e61626c653a2063616c6c6572206973206e6f7420746865206f776e6572604082015260600190565b634e487b7160e01b600052603260045260246000fd5b600060001982141561436f5761436f613bde565b5060010190565b60208082526010908201526f14185d5cd8589b194e881c185d5cd95960821b604082015260600190565b6000828210156143b2576143b2613bde565b500390565b60008160001904831182151516156143d1576143d1613bde565b500290565b634e487b7160e01b600052601260045260246000fd5b6000826143fb576143fb6143d6565b500490565b6020808252601690820152751b9bdd08195b9bdd59da081d1a5b59481c185cdcd95960521b604082015260600190565b805169ffffffffffffffffffff811681146117e857600080fd5b600080600080600060a0868803121561446257600080fd5b61446b86614430565b945060208601519350604086015192506060860151915061448e60808701614430565b90509295509295909350565b6000826144a9576144a96143d6565b500690565b60208082526025908201527f455243313135353a207472616e7366657220746f20746865207a65726f206164604082015264647265737360d81b606082015260800190565b6020808252602a908201527f455243313135353a20696e73756666696369656e742062616c616e636520666f60408201526939103a3930b739b332b960b11b606082015260800190565b6040815260006145506040830185613d85565b82810360208401526145628185613d85565b95945050505050565b60018060a01b03841681528260208201526060604082015260006145626060830184613cc5565b6000602082840312156145a457600080fd5b81516133a881613d40565b60008083128015600160ff1b8501841216156145cd576145cd613bde565b6001600160ff1b03840183138116156145e8576145e8613bde565b50500390565b6000826145fd576145fd6143d6565b600160ff1b82146000198414161561461757614617613bde565b500590565b600080821280156001600160ff1b038490038513161561463e5761463e613bde565b600160ff1b839003841281161561465757614657613bde565b50500190565b60006001600160ff1b038184138284138082168684048611161561468357614683613bde565b600160ff1b60008712828116878305891216156146a2576146a2613bde565b600087129250878205871284841616156146be576146be613bde565b878505871281841616156146d4576146d4613bde565b505050929093029392505050565b6001600160a01b03868116825285166020820152604081018490526060810183905260a06080820181905260009061471c90830184613cc5565b979650505050505050565b60006020828403121561473957600080fd5b81516133a881613c4d565b600060033d111561475d5760046000803e5060005160e01c5b90565b600060443d101561476e5790565b6040516003193d81016004833e81513d6001600160401b03816024840111818411171561479d57505050505090565b82850191508151818111156147b55750505050505090565b843d87010160208285010111156147cf5750505050505090565b6147de60208286010187613e36565b509095945050505050565b60208082526028908201527f455243313135353a204552433131353552656365697665722072656a656374656040820152676420746f6b656e7360c01b606082015260800190565b6001600160a01b0386811682528516602082015260a06040820181905260009061485d90830186613d85565b828103606084015261486f8186613d85565b905082810360808401526137f38185613cc556fe0a51588b1664495f089dd83d2d26f247920f94a57a4a09f20cf068efc8f82bd4a26469706673582212207fae03c6568aec622b231701a07159ccf7f9711ee64a56e859501e845243d78b64736f6c634300080b003368747470733a2f2f6d656d6f72697a65746869736461792e6769746875622e696f2f4254432f7b69647d2e6a736f6e","bytecodeSha1":"da39a3ee5e6b4b0d3255bfef95601890afd80709","type":"contract","abi":[{"inputs":[{"internalType":"address","name":"vrfCoordinator","type":"address"},{"internalType":"address","name":"linkToken","type":"address"},{"internalType":"uint256","name":"chainlinkFee","type":"uint256"},{"internalType":"bytes32","name":"keyHash","type":"bytes32"},{"internalType":"address","name":"priceFeedAddress","type":"address"},{"internalType":"address","name":"developersAddress","type":"address"}],"stateMutability":"nonpayable","type":"constructor","name":"constructor"},{"anonymous":false,"inputs":[{"indexed":true,"internalType":"address","name":"account","type":"address"},{"indexed":true,"internalType":"address","name":"operator","type":"address"},{"indexed":false,"internalType":"bool","name":"approved","type":"bool"}],"name":"ApprovalForAll","type":"event"},{"anonymous":false,"inputs":[{"indexed":true,"internalType":"address","name":"holder","type":"address"}],"name":"CommunitySelectedForMintPriceShareEvent","type":"event"},{"anonymous":false,"inputs":[{"indexed":false,"internalType":"uint256","name":"year","type":"uint256"},{"indexed":false,"internalType":"uint256","name":"month","type":"uint256"},{"indexed":false,"internalType":"uint256","name":"day","type":"uint256"},{"indexed":true,"internalType":"address","name":"holder","type":"address"}],"name":"GiftedEvent","type":"event"},{"anonymous":false,"inputs":[{"indexed":false,"internalType":"uint256","name":"year","type":"uint256"},{"indexed":false,"internalType":"uint256","name":"month","type":"uint256"},{"indexed":false,"internalType":"uint256","name":"day","type":"uint256"},{"indexed":true,"internalType":"address","name":"holder","type":"address"}],"name":"MemorizedEvent","type":"event"},{"anonymous":false,"inputs":[{"indexed":true,"internalType":"address","name":"previousOwner","type":"address"},{"indexed":true,"internalType":"address","name":"newOwner","type":"address"}],"name":"OwnershipTransferred","type":"event"},{"anonymous":false,"inputs":[{"indexed":false,"internalType":"address","name":"account","type":"address"}],"name":"Paused","type":"event"},{"anonymous":false,"inputs":[{"indexed":true,"internalType":"address","name":"_address","type":"address"},{"indexed":false,"internalType":"uint256","name":"randomness","type":"uint256"}],"name":"PeriodicGiftWinnerSelectedEvent","type":"event"},{"anonymous":false,"inputs":[{"indexed":true,"internalType":"address","name":"_address","type":"address"}],"name":"RegisterForPeriodiclyGiftEvent","type":"event"},{"anonymous":false,"inputs":[{"indexed":false,"internalType":"bytes32","name":"requestId","type":"bytes32"}],"name":"RequestedRandomnessEvent","type":"event"},{"anonymous":false,"inputs":[{"indexed":true,"internalType":"address","name":"holder","type":"address"},{"indexed":false,"internalType":"string","name":"memo","type":"string"}],"name":"SetMemoEvent","type":"event"},{"anonymous":false,"inputs":[{"indexed":true,"internalType":"address","name":"operator","type":"address"},{"indexed":true,"internalType":"address","name":"from","type":"address"},{"indexed":true,"internalType":"address","name":"to","type":"address"},{"indexed":false,"internalType":"uint256[]","name":"ids","type":"uint256[]"},{"indexed":false,"internalType":"uint256[]","name":"values","type":"uint256[]"}],"name":"TransferBatch","type":"event"},{"anonymous":false,"inputs":[{"indexed":true,"internalType":"address","name":"operator","type":"address"},{"indexed":true,"internalType":"address","name":"from","type":"address"},{"indexed":true,"internalType":"address","name":"to","type":"address"},{"indexed":false,"internalType":"uint256","name":"id","type":"uint256"},{"indexed":false,"internalType":"uint256","name":"value","type":"uint256"}],"name":"TransferSingle","type":"event"},{"anonymous":false,"inputs":[{"indexed":false,"internalType":"string","name":"value","type":"string"},{"indexed":true,"internalType":"uint256","name":"id","type":"uint256"}],"name":"URI","type":"event"},{"anonymous":false,"inputs":[{"indexed":false,"internalType":"address","name":"account","type":"address"}],"name":"Unpaused","type":"event"},{"anonymous":false,"inputs":[{"indexed":true,"internalType":"address","name":"_address","type":"address"},{"indexed":true,"internalType":"uint256","name":"_amount","type":"uint256"}],"name":"WithdrawalEvent","type":"event"},{"stateMutability":"payable","type":"fallback"},{"inputs":[],"name":"COMMUNITY_MINT_SHARE","outputs":[{"internalType":"uint256","name":"","type":"uint256"}],"stateMutability":"view","type":"function"},{"inputs":[],"name":"DEVELOPERS_TEAM_MINT_SHARE","outputs":[{"internalType":"uint256","name":"","type":"uint256"}],"stateMutability":"view","type":"function"},{"inputs":[],"name":"ELECTORAL_MINT_SHARE","outputs":[{"internalType":"uint256","name":"","type":"uint256"}],"stateMutability":"view","type":"function"},{"inputs":[],"name":"FIRST_INFLUENCER_MINT_SHARE","outputs":[{"internalType":"uint256","name":"","type":"uint256"}],"stateMutability":"view","type":"function"},{"inputs":[],"name":"FOUNDER_MINT_SHARE","outputs":[{"internalType":"uint256","name":"","type":"uint256"}],"stateMutability":"view","type":"function"},{"inputs":[{"internalType":"uint256","name":"year","type":"uint256"},{"internalType":"uint256","name":"month","type":"uint256"},{"internalType":"uint256","name":"day","type":"uint256"}],"name":"GetHolderOfTheDay","outputs":[{"internalType":"address","name":"","type":"address"}],"stateMutability":"view","type":"function"},{"inputs":[{"internalType":"uint256","name":"year","type":"uint256"},{"internalType":"uint256","name":"month","type":"uint256"},{"internalType":"uint256","name":"day","type":"uint256"}],"name":"GetIdByDate","outputs":[{"internalType":"uint256","name":"","type":"uint256"}],"stateMutability":"view","type":"function"},{"inputs":[],"name":"GetMemorizeFee","outputs":[{"internalType":"uint256","name":"","type":"uint256"}],"stateMutability":"view","type":"function"},{"inputs":[],"name":"GetMintedDaysLength","outputs":[{"internalType":"uint256","name":"","type":"uint256"}],"stateMutability":"view","type":"function"},{"inputs":[],"name":"GetPeriodicGiftRegistersLength","outputs":[{"internalType":"uint256","name":"","type":"uint256"}],"stateMutability":"view","type":"function"},{"inputs":[{"internalType":"uint256","name":"year","type":"uint256"},{"internalType":"uint256","name":"month","type":"uint256"},{"internalType":"uint256","name":"day","type":"uint256"}],"name":"GetSearchTerm","outputs":[{"internalType":"string[3]","name":"","type":"string[3]"}],"stateMutability":"view","type":"function"},{"inputs":[{"internalType":"uint256","name":"_dayNumber","type":"uint256"}],"name":"IsDayNumberValidForMinting","outputs":[{"internalType":"bool","name":"","type":"bool"}],"stateMutability":"view","type":"function"},{"inputs":[],"name":"MORALIS_COMMUNITY_MINT_SHARE","outputs":[{"internalType":"uint256","name":"","type":"uint256"}],"stateMutability":"view","type":"function"},{"inputs":[{"internalType":"uint256","name":"year","type":"uint256"},{"internalType":"uint256","name":"month","type":"uint256"},{"internalType":"uint256","name":"day","type":"uint256"}],"name":"Memorize","outputs":[],"stateMutability":"payable","type":"function"},{"inputs":[],"name":"MemorizedDays","outputs":[{"internalType":"uint256[]","name":"","type":"uint256[]"},{"internalType":"address[]","name":"","type":"address[]"}],"stateMutability":"view","type":"function"},{"inputs":[],"name":"PauseContract","outputs":[],"stateMutability":"nonpayable","type":"function"},{"inputs":[],"name":"RegisterForPeriodiclyGift","outputs":[],"stateMutability":"nonpayable","type":"function"},{"inputs":[],"name":"SECOND_INFLUENCER_MINT_SHARE","outputs":[{"internalType":"uint256","name":"","type":"uint256"}],"stateMutability":"view","type":"function"},{"inputs":[],"name":"SMARTCONTRACT_FEES_MINT_SHARE","outputs":[{"internalType":"uint256","name":"","type":"uint256"}],"stateMutability":"view","type":"function"},{"inputs":[],"name":"SelectPeriodicWinner","outputs":[],"stateMutability":"nonpayable","type":"function"},{"inputs":[{"internalType":"address","name":"targetAirdrop","type":"address"}],"name":"SendAirdrop","outputs":[],"stateMutability":"nonpayable","type":"function"},{"inputs":[{"internalType":"address","name":"addrs","type":"address"}],"name":"SetDeveloperTeamShareAddress","outputs":[],"stateMutability":"nonpayable","type":"function"},{"inputs":[{"internalType":"address","name":"addrs","type":"address"},{"internalType":"bool","name":"preserveBalance","type":"bool"}],"name":"SetFirstInfluencerAddress","outputs":[],"stateMutability":"nonpayable","type":"function"},{"inputs":[{"internalType":"address","name":"addrs","type":"address"},{"internalType":"bool","name":"preserveBalance","type":"bool"}],"name":"SetFounderAddress","outputs":[],"stateMutability":"nonpayable","type":"function"},{"inputs":[{"internalType":"uint256","name":"year","type":"uint256"},{"internalType":"uint256","name":"month","type":"uint256"},{"internalType":"uint256","name":"day","type":"uint256"},{"internalType":"string","name":"memo","type":"string"}],"name":"SetMemo","outputs":[],"stateMutability":"nonpayable","type":"function"},{"inputs":[{"internalType":"address","name":"addrs","type":"address"},{"internalType":"bool","name":"preserveBalance","type":"bool"}],"name":"SetMoralisTeamAddress","outputs":[],"stateMutability":"nonpayable","type":"function"},{"inputs":[{"internalType":"address","name":"addrs","type":"address"},{"internalType":"bool","name":"preserveBalance","type":"bool"}],"name":"SetSecondInfluencerAddress","outputs":[],"stateMutability":"nonpayable","type":"function"},{"inputs":[{"internalType":"uint256","name":"year","type":"uint256"},{"internalType":"uint256","name":"month","type":"uint256"},{"internalType":"uint256","name":"day","type":"uint256"}],"name":"SetStratDate","outputs":[],"stateMutability":"nonpayable","type":"function"},{"inputs":[],"name":"UnPauseContract","outputs":[],"stateMutability":"nonpayable","type":"function"},{"inputs":[{"internalType":"uint256","name":"fee","type":"uint256"}],"name":"UpdateChainlinkFee","outputs":[],"stateMutability":"nonpayable","type":"function"},{"inputs":[{"internalType":"string","name":"link","type":"string"},{"internalType":"string","name":"title","type":"string"},{"internalType":"string","name":"logoLink","type":"string"}],"name":"UpdateElectoral","outputs":[],"stateMutability":"nonpayable","type":"function"},{"inputs":[],"name":"Withdrawal","outputs":[],"stateMutability":"nonpayable","type":"function"},{"inputs":[],"name":"WithdrawalSmartContractFee","outputs":[],"stateMutability":"payable","type":"function"},{"inputs":[{"internalType":"address","name":"","type":"address"}],"name":"_airdrop","outputs":[{"internalType":"uint256","name":"","type":"uint256"}],"stateMutability":"view","type":"function"},{"inputs":[],"name":"_airdropPeriodInDays","outputs":[{"internalType":"uint256","name":"","type":"uint256"}],"stateMutability":"view","type":"function"},{"inputs":[],"name":"_assetName","outputs":[{"internalType":"string","name":"","type":"string"}],"stateMutability":"view","type":"function"},{"inputs":[],"name":"_chainlinkFee","outputs":[{"internalType":"uint256","name":"","type":"uint256"}],"stateMutability":"view","type":"function"},{"inputs":[],"name":"_developerTeamShareAddress","outputs":[{"internalType":"address","name":"","type":"address"}],"stateMutability":"view","type":"function"},{"inputs":[],"name":"_electoralAirdropPeriodInDays","outputs":[{"internalType":"uint256","name":"","type":"uint256"}],"stateMutability":"view","type":"function"},{"inputs":[],"name":"_electoralLink","outputs":[{"internalType":"string","name":"","type":"string"}],"stateMutability":"view","type":"function"},{"inputs":[],"name":"_electoralLogoAddress","outputs":[{"internalType":"string","name":"","type":"string"}],"stateMutability":"view","type":"function"},{"inputs":[],"name":"_electoralTitle","outputs":[{"internalType":"string","name":"","type":"string"}],"stateMutability":"view","type":"function"},{"inputs":[],"name":"_firstInfluencerAddress","outputs":[{"internalType":"address","name":"","type":"address"}],"stateMutability":"view","type":"function"},{"inputs":[],"name":"_founderShareAddress","outputs":[{"internalType":"address","name":"","type":"address"}],"stateMutability":"view","type":"function"},{"inputs":[{"internalType":"uint256","name":"","type":"uint256"}],"name":"_holders","outputs":[{"internalType":"address","name":"","type":"address"}],"stateMutability":"view","type":"function"},{"inputs":[],"name":"_lastAirdropPeriodWinnerSelectDate","outputs":[{"internalType":"uint256","name":"","type":"uint256"}],"stateMutability":"view","type":"function"},{"inputs":[],"name":"_lastElectoralAirdropDate","outputs":[{"internalType":"uint256","name":"","type":"uint256"}],"stateMutability":"view","type":"function"},{"inputs":[{"internalType":"uint256","name":"","type":"uint256"}],"name":"_memo","outputs":[{"internalType":"string","name":"","type":"string"}],"stateMutability":"view","type":"function"},{"inputs":[],"name":"_mintPrice","outputs":[{"internalType":"uint256","name":"","type":"uint256"}],"stateMutability":"view","type":"function"},{"inputs":[],"name":"_mintPriceStep","outputs":[{"internalType":"uint256","name":"","type":"uint256"}],"stateMutability":"view","type":"function"},{"inputs":[{"internalType":"uint256","name":"","type":"uint256"}],"name":"_mintedDays","outputs":[{"internalType":"uint256","name":"","type":"uint256"}],"stateMutability":"view","type":"function"},{"inputs":[],"name":"_moralisCommunityAddress","outputs":[{"internalType":"address","name":"","type":"address"}],"stateMutability":"view","type":"function"},{"inputs":[{"internalType":"uint256","name":"","type":"uint256"}],"name":"_periodicGiftRegisters","outputs":[{"internalType":"address","name":"","type":"address"}],"stateMutability":"view","type":"function"},{"inputs":[],"name":"_secondInfluencerAddress","outputs":[{"internalType":"address","name":"","type":"address"}],"stateMutability":"view","type":"function"},{"inputs":[],"name":"_startDate","outputs":[{"internalType":"uint256","name":"","type":"uint256"}],"stateMutability":"view","type":"function"},{"inputs":[{"internalType":"address","name":"","type":"address"}],"name":"_wallet","outputs":[{"internalType":"uint256","name":"","type":"uint256"}],"stateMutability":"view","type":"function"},{"inputs":[{"internalType":"address","name":"account","type":"address"},{"internalType":"uint256","name":"id","type":"uint256"}],"name":"balanceOf","outputs":[{"internalType":"uint256","name":"","type":"uint256"}],"stateMutability":"view","type":"function"},{"inputs":[{"internalType":"address[]","name":"accounts","type":"address[]"},{"internalType":"uint256[]","name":"ids","type":"uint256[]"}],"name":"balanceOfBatch","outputs":[{"internalType":"uint256[]","name":"","type":"uint256[]"}],"stateMutability":"view","type":"function"},{"inputs":[{"internalType":"address","name":"account","type":"address"},{"internalType":"address","name":"operator","type":"address"}],"name":"isApprovedForAll","outputs":[{"internalType":"bool","name":"","type":"bool"}],"stateMutability":"view","type":"function"},{"inputs":[],"name":"owner","outputs":[{"internalType":"address","name":"","type":"address"}],"stateMutability":"view","type":"function"},{"inputs":[],"name":"paused","outputs":[{"internalType":"bool","name":"","type":"bool"}],"stateMutability":"view","type":"function"},{"inputs":[{"internalType":"bytes32","name":"requestId","type":"bytes32"},{"internalType":"uint256","name":"randomness","type":"uint256"}],"name":"rawFulfillRandomness","outputs":[],"stateMutability":"nonpayable","type":"function"},{"inputs":[],"name":"renounceOwnership","outputs":[],"stateMutability":"nonpayable","type":"function"},{"inputs":[{"internalType":"address","name":"from","type":"address"},{"internalType":"address","name":"to","type":"address"},{"internalType":"uint256[]","name":"ids","type":"uint256[]"},{"internalType":"uint256[]","name":"amounts","type":"uint256[]"},{"internalType":"bytes","name":"data","type":"bytes"}],"name":"safeBatchTransferFrom","outputs":[],"stateMutability":"nonpayable","type":"function"},{"inputs":[{"internalType":"address","name":"from","type":"address"},{"internalType":"address","name":"to","type":"address"},{"internalType":"uint256","name":"id","type":"uint256"},{"internalType":"uint256","name":"amount","type":"uint256"},{"internalType":"bytes","name":"data","type":"bytes"}],"name":"safeTransferFrom","outputs":[],"stateMutability":"nonpayable","type":"function"},{"inputs":[{"internalType":"address","name":"operator","type":"address"},{"internalType":"bool","name":"approved","type":"bool"}],"name":"setApprovalForAll","outputs":[],"stateMutability":"nonpayable","type":"function"},{"inputs":[{"internalType":"bytes4","name":"interfaceId","type":"bytes4"}],"name":"supportsInterface","outputs":[{"internalType":"bool","name":"","type":"bool"}],"stateMutability":"view","type":"function"},{"inputs":[{"internalType":"address","name":"newOwner","type":"address"}],"name":"transferOwnership","outputs":[],"stateMutability":"nonpayable","type":"function"},{"inputs":[{"internalType":"uint256","name":"","type":"uint256"}],"name":"uri","outputs":[{"internalType":"string","name":"","type":"string"}],"stateMutability":"view","type":"function"}],"compiler":{"version":"0.8.11+commit.d7f03943","evm_version":"istanbul","optimizer":{"enabled":true,"runs":200}},"contractName":"MemorizeThisDayOnBTC","language":"Solidity","natspec":{"methods":{"balanceOf(address,uint256)":{"details":"See {IERC1155-balanceOf}. Requirements: - `account` cannot be the zero address."},"balanceOfBatch(address[],uint256[])":{"details":"See {IERC1155-balanceOfBatch}. Requirements: - `accounts` and `ids` must have the same length."},"isApprovedForAll(address,address)":{"details":"See {IERC1155-isApprovedForAll}."},"owner()":{"details":"Returns the address of the current owner."},"paused()":{"details":"Returns true if the contract is paused, and false otherwise."},"renounceOwnership()":{"details":"Leaves the contract without owner. It will not be possible to call `onlyOwner` functions anymore. Can only be called by the current owner. NOTE: Renouncing ownership will leave the contract without an owner, thereby removing any functionality that is only available to the owner."},"safeBatchTransferFrom(address,address,uint256[],uint256[],bytes)":{"details":"See {IERC1155-safeBatchTransferFrom}."},"safeTransferFrom(address,address,uint256,uint256,bytes)":{"details":"See {IERC1155-safeTransferFrom}."},"setApprovalForAll(address,bool)":{"details":"See {IERC1155-setApprovalForAll}."},"supportsInterface(bytes4)":{"details":"See {IERC165-supportsInterface}."},"transferOwnership(address)":{"details":"Transfers ownership of the contract to a new account (`newOwner`). Can only be called by the current owner."},"uri(uint256)":{"details":"See {IERC1155MetadataURI-uri}. This implementation returns the same URI for *all* token types. It relies on the token type ID substitution mechanism https://eips.ethereum.org/EIPS/eip-1155#metadata[defined in the EIP]. Clients calling this function must replace the `\\{id\\}` substring with the actual token type ID."}},"kind":"dev","version":1},"opcodes":"PUSH1 0x80 PUSH1 0x40 MSTORE PUSH1 0x4 CALLDATASIZE LT PUSH2 0x3F9 JUMPI PUSH1 0x0 CALLDATALOAD PUSH1 0xE0 SHR DUP1 PUSH4 0x715018A6 GT PUSH2 0x213 JUMPI DUP1 PUSH4 0xBDC7DD3A GT PUSH2 0x123 JUMPI DUP1 PUSH4 0xE9CC3B54 GT PUSH2 0xAB JUMPI DUP1 PUSH4 0xF2FDE38B GT PUSH2 0x7A JUMPI DUP1 PUSH4 0xF2FDE38B EQ PUSH2 0xB7C JUMPI DUP1 PUSH4 0xF6E91192 EQ PUSH2 0xB9C JUMPI DUP1 PUSH4 0xF8A433EC EQ PUSH2 0xBBC JUMPI DUP1 PUSH4 0xF9DA6A1A EQ PUSH2 0xBD1 JUMPI DUP1 PUSH4 0xFFCB5156 EQ PUSH2 0xBE6 JUMPI PUSH2 0x3F9 JUMP JUMPDEST DUP1 PUSH4 0xE9CC3B54 EQ PUSH2 0xB32 JUMPI DUP1 PUSH4 0xEC16F947 EQ PUSH2 0xB47 JUMPI DUP1 PUSH4 0xEC3F1A32 EQ PUSH2 0x544 JUMPI DUP1 PUSH4 0xF242432A EQ PUSH2 0xB5C JUMPI PUSH2 0x3F9 JUMP JUMPDEST DUP1 PUSH4 0xD8B4D6E3 GT PUSH2 0xF2 JUMPI DUP1 PUSH4 0xD8B4D6E3 EQ PUSH2 0xA5E JUMPI DUP1 PUSH4 0xDBDAD464 EQ PUSH2 0xA73 JUMPI DUP1 PUSH4 0xDD2CEC7F EQ PUSH2 0xA93 JUMPI DUP1 PUSH4 0xE5ADA10C EQ PUSH2 0xAC9 JUMPI DUP1 PUSH4 0xE985E9C5 EQ PUSH2 0xAE9 JUMPI PUSH2 0x3F9 JUMP JUMPDEST DUP1 PUSH4 0xBDC7DD3A EQ PUSH2 0x9FE JUMPI DUP1 PUSH4 0xC9937172 EQ PUSH2 0xA13 JUMPI DUP1 PUSH4 0xD50AC892 EQ PUSH2 0xA33 JUMPI DUP1 PUSH4 0xD6B4C041 EQ PUSH2 0xA49 JUMPI PUSH2 0x3F9 JUMP JUMPDEST DUP1 PUSH4 0x9E6DB9D7 GT PUSH2 0x1A6 JUMPI DUP1 PUSH4 0xAB32D594 GT PUSH2 0x175 JUMPI DUP1 PUSH4 0xAB32D594 EQ PUSH2 0x97E JUMPI DUP1 PUSH4 0xAC8DABA0 EQ PUSH2 0x993 JUMPI DUP1 PUSH4 0xAE969CD2 EQ PUSH2 0x9A9 JUMPI DUP1 PUSH4 0xBAFDF5BB EQ PUSH2 0x9C9 JUMPI DUP1 PUSH4 0xBBB6E49D EQ PUSH2 0x9E9 JUMPI PUSH2 0x3F9 JUMP JUMPDEST DUP1 PUSH4 0x9E6DB9D7 EQ PUSH2 0x908 JUMPI DUP1 PUSH4 0xA22CB465 EQ PUSH2 0x928 JUMPI DUP1 PUSH4 0xA5EE0257 EQ PUSH2 0x948 JUMPI DUP1 PUSH4 0xA9665B7A EQ PUSH2 0x968 JUMPI PUSH2 0x3F9 JUMP JUMPDEST DUP1 PUSH4 0x92B56ABB GT PUSH2 0x1E2 JUMPI DUP1 PUSH4 0x92B56ABB EQ PUSH2 0x8BD JUMPI DUP1 PUSH4 0x93E51B64 EQ PUSH2 0x8D2 JUMPI DUP1 PUSH4 0x94985DDD EQ PUSH2 0x8E8 JUMPI DUP1 PUSH4 0x96FF141F EQ PUSH2 0x544 JUMPI PUSH2 0x3F9 JUMP JUMPDEST DUP1 PUSH4 0x715018A6 EQ PUSH2 0x850 JUMPI DUP1 PUSH4 0x71B7AB4C EQ PUSH2 0x865 JUMPI DUP1 PUSH4 0x89AF787F EQ PUSH2 0x87A JUMPI DUP1 PUSH4 0x8DA5CB5B EQ PUSH2 0x89A JUMPI PUSH2 0x3F9 JUMP JUMPDEST DUP1 PUSH4 0x340D899A GT PUSH2 0x30E JUMPI DUP1 PUSH4 0x56F2520D GT PUSH2 0x2A1 JUMPI DUP1 PUSH4 0x6CEBB54E GT PUSH2 0x270 JUMPI DUP1 PUSH4 0x6CEBB54E EQ PUSH2 0x7DC JUMPI DUP1 PUSH4 0x6DB3CC46 EQ PUSH2 0x7F1 JUMPI DUP1 PUSH4 0x6E21FC87 EQ PUSH2 0x806 JUMPI DUP1 PUSH4 0x6F78A4F7 EQ PUSH2 0x833 JUMPI DUP1 PUSH4 0x70E44C6A EQ PUSH2 0x83B JUMPI PUSH2 0x3F9 JUMP JUMPDEST DUP1 PUSH4 0x56F2520D EQ PUSH2 0x764 JUMPI DUP1 PUSH4 0x5C975ABB EQ PUSH2 0x784 JUMPI DUP1 PUSH4 0x5EAE5B30 EQ PUSH2 0x79C JUMPI DUP1 PUSH4 0x64E376B6 EQ PUSH2 0x7BC JUMPI PUSH2 0x3F9 JUMP JUMPDEST DUP1 PUSH4 0x503D3A81 GT PUSH2 0x2DD JUMPI DUP1 PUSH4 0x503D3A81 EQ PUSH2 0x6E4 JUMPI DUP1 PUSH4 0x503F5581 EQ PUSH2 0x704 JUMPI DUP1 PUSH4 0x516B466E EQ PUSH2 0x724 JUMPI DUP1 PUSH4 0x542D44ED EQ PUSH2 0x744 JUMPI PUSH2 0x3F9 JUMP JUMPDEST DUP1 PUSH4 0x340D899A EQ PUSH2 0x676 JUMPI DUP1 PUSH4 0x3F711137 EQ PUSH2 0x68C JUMPI DUP1 PUSH4 0x4E1273F4 EQ PUSH2 0x6A1 JUMPI DUP1 PUSH4 0x4E3412B2 EQ PUSH2 0x6CE JUMPI PUSH2 0x3F9 JUMP JUMPDEST DUP1 PUSH4 0x13887D95 GT PUSH2 0x391 JUMPI DUP1 PUSH4 0x1F34BDCA GT PUSH2 0x360 JUMPI DUP1 PUSH4 0x1F34BDCA EQ PUSH2 0x5E0 JUMPI DUP1 PUSH4 0x2EB2C2D6 EQ PUSH2 0x5F3 JUMPI DUP1 PUSH4 0x303DD553 EQ PUSH2 0x613 JUMPI DUP1 PUSH4 0x313D3E92 EQ PUSH2 0x629 JUMPI DUP1 PUSH4 0x327285DC EQ PUSH2 0x649 JUMPI PUSH2 0x3F9 JUMP JUMPDEST DUP1 PUSH4 0x13887D95 EQ PUSH2 0x559 JUMPI DUP1 PUSH4 0x1528662C EQ PUSH2 0x586 JUMPI DUP1 PUSH4 0x1AA98354 EQ PUSH2 0x5A8 JUMPI DUP1 PUSH4 0x1C8108B1 EQ PUSH2 0x5CB JUMPI PUSH2 0x3F9 JUMP JUMPDEST DUP1 PUSH4 0x6389CA1 GT PUSH2 0x3CD JUMPI DUP1 PUSH4 0x6389CA1 EQ PUSH2 0x4BF JUMPI DUP1 PUSH4 0xA6A001C EQ PUSH2 0x4F7 JUMPI DUP1 PUSH4 0xE89341C EQ PUSH2 0x517 JUMPI DUP1 PUSH4 0x10AB09A3 EQ PUSH2 0x544 JUMPI PUSH2 0x3F9 JUMP JUMPDEST DUP1 PUSH3 0xFDD58E EQ PUSH2 0x426 JUMPI DUP1 PUSH4 0x1FFC9A7 EQ PUSH2 0x459 JUMPI DUP1 PUSH4 0x37A2414 EQ PUSH2 0x489 JUMPI DUP1 PUSH4 0x387DA42 EQ PUSH2 0x4A9 JUMPI JUMPDEST ADDRESS PUSH1 0x0 SWAP1 DUP2 MSTORE PUSH1 0x1B PUSH1 0x20 MSTORE PUSH1 0x40 SWAP1 KECCAK256 SLOAD PUSH2 0x414 SWAP1 CALLVALUE SWAP1 PUSH2 0x3BF4 JUMP JUMPDEST ADDRESS PUSH1 0x0 SWAP1 DUP2 MSTORE PUSH1 0x1B PUSH1 0x20 MSTORE PUSH1 0x40 SWAP1 KECCAK256 SSTORE STOP JUMPDEST CALLVALUE DUP1 ISZERO PUSH2 0x432 JUMPI PUSH1 0x0 DUP1 REVERT JUMPDEST POP PUSH2 0x446 PUSH2 0x441 CALLDATASIZE PUSH1 0x4 PUSH2 0x3C23 JUMP JUMPDEST PUSH2 0xBFB JUMP JUMPDEST PUSH1 0x40 MLOAD SWAP1 DUP2 MSTORE PUSH1 0x20 ADD JUMPDEST PUSH1 0x40 MLOAD DUP1 SWAP2 SUB SWAP1 RETURN JUMPDEST CALLVALUE DUP1 ISZERO PUSH2 0x465 JUMPI PUSH1 0x0 DUP1 REVERT JUMPDEST POP PUSH2 0x479 PUSH2 0x474 CALLDATASIZE PUSH1 0x4 PUSH2 0x3C63 JUMP JUMPDEST PUSH2 0xC92 JUMP JUMPDEST PUSH1 0x40 MLOAD SWAP1 ISZERO ISZERO DUP2 MSTORE PUSH1 0x20 ADD PUSH2 0x450 JUMP JUMPDEST CALLVALUE DUP1 ISZERO PUSH2 0x495 JUMPI PUSH1 0x0 DUP1 REVERT JUMPDEST POP PUSH2 0x446 PUSH2 0x4A4 CALLDATASIZE PUSH1 0x4 PUSH2 0x3C80 JUMP JUMPDEST PUSH2 0xCE4 JUMP JUMPDEST CALLVALUE DUP1 ISZERO PUSH2 0x4B5 JUMPI PUSH1 0x0 DUP1 REVERT JUMPDEST POP PUSH2 0x446 PUSH1 0xC SLOAD DUP2 JUMP JUMPDEST CALLVALUE DUP1 ISZERO PUSH2 0x4CB JUMPI PUSH1 0x0 DUP1 REVERT JUMPDEST POP PUSH2 0x4DF PUSH2 0x4DA CALLDATASIZE PUSH1 0x4 PUSH2 0x3C80 JUMP JUMPDEST PUSH2 0xCF9 JUMP JUMPDEST PUSH1 0x40 MLOAD PUSH1 0x1 PUSH1 0x1 PUSH1 0xA0 SHL SUB SWAP1 SWAP2 AND DUP2 MSTORE PUSH1 0x20 ADD PUSH2 0x450 JUMP JUMPDEST CALLVALUE DUP1 ISZERO PUSH2 0x503 JUMPI PUSH1 0x0 DUP1 REVERT JUMPDEST POP PUSH2 0x446 PUSH2 0x512 CALLDATASIZE PUSH1 0x4 PUSH2 0x3CAC JUMP JUMPDEST PUSH2 0xD28 JUMP JUMPDEST CALLVALUE DUP1 ISZERO PUSH2 0x523 JUMPI PUSH1 0x0 DUP1 REVERT JUMPDEST POP PUSH2 0x537 PUSH2 0x532 CALLDATASIZE PUSH1 0x4 PUSH2 0x3CAC JUMP JUMPDEST PUSH2 0xD49 JUMP JUMPDEST PUSH1 0x40 MLOAD PUSH2 0x450 SWAP2 SWAP1 PUSH2 0x3D12 JUMP JUMPDEST CALLVALUE DUP1 ISZERO PUSH2 0x550 JUMPI PUSH1 0x0 DUP1 REVERT JUMPDEST POP PUSH2 0x446 PUSH1 0xA DUP2 JUMP JUMPDEST CALLVALUE DUP1 ISZERO PUSH2 0x565 JUMPI PUSH1 0x0 DUP1 REVERT JUMPDEST POP PUSH2 0x446 PUSH2 0x574 CALLDATASIZE PUSH1 0x4 PUSH2 0x3D25 JUMP JUMPDEST PUSH1 0x1B PUSH1 0x20 MSTORE PUSH1 0x0 SWAP1 DUP2 MSTORE PUSH1 0x40 SWAP1 KECCAK256 SLOAD DUP2 JUMP JUMPDEST CALLVALUE DUP1 ISZERO PUSH2 0x592 JUMPI PUSH1 0x0 DUP1 REVERT JUMPDEST POP PUSH2 0x5A6 PUSH2 0x5A1 CALLDATASIZE PUSH1 0x4 PUSH2 0x3D4E JUMP JUMPDEST PUSH2 0xDDD JUMP JUMPDEST STOP JUMPDEST CALLVALUE DUP1 ISZERO PUSH2 0x5B4 JUMPI PUSH1 0x0 DUP1 REVERT JUMPDEST POP PUSH2 0x5BD PUSH2 0xECA JUMP JUMPDEST PUSH1 0x40 MLOAD PUSH2 0x450 SWAP3 SWAP2 SWAP1 PUSH2 0x3DC0 JUMP JUMPDEST CALLVALUE DUP1 ISZERO PUSH2 0x5D7 JUMPI PUSH1 0x0 DUP1 REVERT JUMPDEST POP PUSH2 0x5A6 PUSH2 0x1035 JUMP JUMPDEST PUSH2 0x5A6 PUSH2 0x5EE CALLDATASIZE PUSH1 0x4 PUSH2 0x3C80 JUMP JUMPDEST PUSH2 0x106F JUMP JUMPDEST CALLVALUE DUP1 ISZERO PUSH2 0x5FF JUMPI PUSH1 0x0 DUP1 REVERT JUMPDEST POP PUSH2 0x5A6 PUSH2 0x60E CALLDATASIZE PUSH1 0x4 PUSH2 0x3F69 JUMP JUMPDEST PUSH2 0x172F JUMP JUMPDEST CALLVALUE DUP1 ISZERO PUSH2 0x61F JUMPI PUSH1 0x0 DUP1 REVERT JUMPDEST POP PUSH2 0x446 PUSH1 0x10 SLOAD DUP2 JUMP JUMPDEST CALLVALUE DUP1 ISZERO PUSH2 0x635 JUMPI PUSH1 0x0 DUP1 REVERT JUMPDEST POP PUSH2 0x479 PUSH2 0x644 CALLDATASIZE PUSH1 0x4 PUSH2 0x3CAC JUMP JUMPDEST PUSH2 0x17BF JUMP JUMPDEST CALLVALUE DUP1 ISZERO PUSH2 0x655 JUMPI PUSH1 0x0 DUP1 REVERT JUMPDEST POP PUSH2 0x669 PUSH2 0x664 CALLDATASIZE PUSH1 0x4 PUSH2 0x3C80 JUMP JUMPDEST PUSH2 0x17ED JUMP JUMPDEST PUSH1 0x40 MLOAD PUSH2 0x450 SWAP2 SWAP1 PUSH2 0x4012 JUMP JUMPDEST CALLVALUE DUP1 ISZERO PUSH2 0x682 JUMPI PUSH1 0x0 DUP1 REVERT JUMPDEST POP PUSH2 0x446 PUSH1 0x14 SLOAD DUP2 JUMP JUMPDEST CALLVALUE DUP1 ISZERO PUSH2 0x698 JUMPI PUSH1 0x0 DUP1 REVERT JUMPDEST POP PUSH1 0xD SLOAD PUSH2 0x446 JUMP JUMPDEST CALLVALUE DUP1 ISZERO PUSH2 0x6AD JUMPI PUSH1 0x0 DUP1 REVERT JUMPDEST POP PUSH2 0x6C1 PUSH2 0x6BC CALLDATASIZE PUSH1 0x4 PUSH2 0x405F JUMP JUMPDEST PUSH2 0x1AB6 JUMP JUMPDEST PUSH1 0x40 MLOAD PUSH2 0x450 SWAP2 SWAP1 PUSH2 0x4129 JUMP JUMPDEST CALLVALUE DUP1 ISZERO PUSH2 0x6DA JUMPI PUSH1 0x0 DUP1 REVERT JUMPDEST POP PUSH2 0x446 PUSH1 0xA SLOAD DUP2 JUMP JUMPDEST CALLVALUE DUP1 ISZERO PUSH2 0x6F0 JUMPI PUSH1 0x0 DUP1 REVERT JUMPDEST POP PUSH2 0x5A6 PUSH2 0x6FF CALLDATASIZE PUSH1 0x4 PUSH2 0x413C JUMP JUMPDEST PUSH2 0x1BDF JUMP JUMPDEST CALLVALUE DUP1 ISZERO PUSH2 0x710 JUMPI PUSH1 0x0 DUP1 REVERT JUMPDEST POP PUSH2 0x5A6 PUSH2 0x71F CALLDATASIZE PUSH1 0x4 PUSH2 0x3CAC JUMP JUMPDEST PUSH2 0x1D12 JUMP JUMPDEST CALLVALUE DUP1 ISZERO PUSH2 0x730 JUMPI PUSH1 0x0 DUP1 REVERT JUMPDEST POP PUSH2 0x5A6 PUSH2 0x73F CALLDATASIZE PUSH1 0x4 PUSH2 0x3C80 JUMP JUMPDEST PUSH2 0x1D6A JUMP JUMPDEST CALLVALUE DUP1 ISZERO PUSH2 0x750 JUMPI PUSH1 0x0 DUP1 REVERT JUMPDEST POP PUSH1 0x19 SLOAD PUSH2 0x4DF SWAP1 PUSH1 0x1 PUSH1 0x1 PUSH1 0xA0 SHL SUB AND DUP2 JUMP JUMPDEST CALLVALUE DUP1 ISZERO PUSH2 0x770 JUMPI PUSH1 0x0 DUP1 REVERT JUMPDEST POP PUSH2 0x537 PUSH2 0x77F CALLDATASIZE PUSH1 0x4 PUSH2 0x3CAC JUMP JUMPDEST PUSH2 0x1E2F JUMP JUMPDEST CALLVALUE DUP1 ISZERO PUSH2 0x790 JUMPI PUSH1 0x0 DUP1 REVERT JUMPDEST POP PUSH1 0x3 SLOAD PUSH1 0xFF AND PUSH2 0x479 JUMP JUMPDEST CALLVALUE DUP1 ISZERO PUSH2 0x7A8 JUMPI PUSH1 0x0 DUP1 REVERT JUMPDEST POP PUSH2 0x5A6 PUSH2 0x7B7 CALLDATASIZE PUSH1 0x4 PUSH2 0x3D25 JUMP JUMPDEST PUSH2 0x1EC9 JUMP JUMPDEST CALLVALUE DUP1 ISZERO PUSH2 0x7C8 JUMPI PUSH1 0x0 DUP1 REVERT JUMPDEST POP PUSH1 0x1A SLOAD PUSH2 0x4DF SWAP1 PUSH1 0x1 PUSH1 0x1 PUSH1 0xA0 SHL SUB AND DUP2 JUMP JUMPDEST CALLVALUE DUP1 ISZERO PUSH2 0x7E8 JUMPI PUSH1 0x0 DUP1 REVERT JUMPDEST POP PUSH2 0x537 PUSH2 0x1F3E JUMP JUMPDEST CALLVALUE DUP1 ISZERO PUSH2 0x7FD JUMPI PUSH1 0x0 DUP1 REVERT JUMPDEST POP PUSH2 0x446 PUSH1 0x1 DUP2 JUMP JUMPDEST CALLVALUE DUP1 ISZERO PUSH2 0x812 JUMPI PUSH1 0x0 DUP1 REVERT JUMPDEST POP PUSH2 0x446 PUSH2 0x821 CALLDATASIZE PUSH1 0x4 PUSH2 0x3D25 JUMP JUMPDEST PUSH1 0x1C PUSH1 0x20 MSTORE PUSH1 0x0 SWAP1 DUP2 MSTORE PUSH1 0x40 SWAP1 KECCAK256 SLOAD DUP2 JUMP JUMPDEST PUSH2 0x5A6 PUSH2 0x1F4B JUMP JUMPDEST CALLVALUE DUP1 ISZERO PUSH2 0x847 JUMPI PUSH1 0x0 DUP1 REVERT JUMPDEST POP PUSH2 0x5A6 PUSH2 0x1FBE JUMP JUMPDEST CALLVALUE DUP1 ISZERO PUSH2 0x85C JUMPI PUSH1 0x0 DUP1 REVERT JUMPDEST POP PUSH2 0x5A6 PUSH2 0x20A5 JUMP JUMPDEST CALLVALUE DUP1 ISZERO PUSH2 0x871 JUMPI PUSH1 0x0 DUP1 REVERT JUMPDEST POP PUSH2 0x446 PUSH1 0xF DUP2 JUMP JUMPDEST CALLVALUE DUP1 ISZERO PUSH2 0x886 JUMPI PUSH1 0x0 DUP1 REVERT JUMPDEST POP PUSH2 0x5A6 PUSH2 0x895 CALLDATASIZE PUSH1 0x4 PUSH2 0x4195 JUMP JUMPDEST PUSH2 0x20DF JUMP JUMPDEST CALLVALUE DUP1 ISZERO PUSH2 0x8A6 JUMPI PUSH1 0x0 DUP1 REVERT JUMPDEST POP PUSH1 0x3 SLOAD PUSH2 0x100 SWAP1 DIV PUSH1 0x1 PUSH1 0x1 PUSH1 0xA0 SHL SUB AND PUSH2 0x4DF JUMP JUMPDEST CALLVALUE DUP1 ISZERO PUSH2 0x8C9 JUMPI PUSH1 0x0 DUP1 REVERT JUMPDEST POP PUSH2 0x537 PUSH2 0x2179 JUMP JUMPDEST CALLVALUE DUP1 ISZERO PUSH2 0x8DE JUMPI PUSH1 0x0 DUP1 REVERT JUMPDEST POP PUSH2 0x446 PUSH1 0x11 SLOAD DUP2 JUMP JUMPDEST CALLVALUE DUP1 ISZERO PUSH2 0x8F4 JUMPI PUSH1 0x0 DUP1 REVERT JUMPDEST POP PUSH2 0x5A6 PUSH2 0x903 CALLDATASIZE PUSH1 0x4 PUSH2 0x421C JUMP JUMPDEST PUSH2 0x2186 JUMP JUMPDEST CALLVALUE DUP1 ISZERO PUSH2 0x914 JUMPI PUSH1 0x0 DUP1 REVERT JUMPDEST POP PUSH1 0x18 SLOAD PUSH2 0x4DF SWAP1 PUSH1 0x1 PUSH1 0x1 PUSH1 0xA0 SHL SUB AND DUP2 JUMP JUMPDEST CALLVALUE DUP1 ISZERO PUSH2 0x934 JUMPI PUSH1 0x0 DUP1 REVERT JUMPDEST POP PUSH2 0x5A6 PUSH2 0x943 CALLDATASIZE PUSH1 0x4 PUSH2 0x3D4E JUMP JUMPDEST PUSH2 0x2208 JUMP JUMPDEST CALLVALUE DUP1 ISZERO PUSH2 0x954 JUMPI PUSH1 0x0 DUP1 REVERT JUMPDEST POP PUSH1 0x17 SLOAD PUSH2 0x4DF SWAP1 PUSH1 0x1 PUSH1 0x1 PUSH1 0xA0 SHL SUB AND DUP2 JUMP JUMPDEST CALLVALUE DUP1 ISZERO PUSH2 0x974 JUMPI PUSH1 0x0 DUP1 REVERT JUMPDEST POP PUSH2 0x446 PUSH1 0xF SLOAD DUP2 JUMP JUMPDEST CALLVALUE DUP1 ISZERO PUSH2 0x98A JUMPI PUSH1 0x0 DUP1 REVERT JUMPDEST POP PUSH1 0x13 SLOAD PUSH2 0x446 JUMP JUMPDEST CALLVALUE DUP1 ISZERO PUSH2 0x99F JUMPI PUSH1 0x0 DUP1 REVERT JUMPDEST POP PUSH2 0x446 PUSH1 0x12 SLOAD DUP2 JUMP JUMPDEST CALLVALUE DUP1 ISZERO PUSH2 0x9B5 JUMPI PUSH1 0x0 DUP1 REVERT JUMPDEST POP PUSH2 0x4DF PUSH2 0x9C4 CALLDATASIZE PUSH1 0x4 PUSH2 0x3CAC JUMP JUMPDEST PUSH2 0x2213 JUMP JUMPDEST CALLVALUE DUP1 ISZERO PUSH2 0x9D5 JUMPI PUSH1 0x0 DUP1 REVERT JUMPDEST POP PUSH2 0x5A6 PUSH2 0x9E4 CALLDATASIZE PUSH1 0x4 PUSH2 0x3D4E JUMP JUMPDEST PUSH2 0x223D JUMP JUMPDEST CALLVALUE DUP1 ISZERO PUSH2 0x9F5 JUMPI PUSH1 0x0 DUP1 REVERT JUMPDEST POP PUSH2 0x446 PUSH1 0x9 DUP2 JUMP JUMPDEST CALLVALUE DUP1 ISZERO PUSH2 0xA0A JUMPI PUSH1 0x0 DUP1 REVERT JUMPDEST POP PUSH2 0x446 PUSH1 0x14 DUP2 JUMP JUMPDEST CALLVALUE DUP1 ISZERO PUSH2 0xA1F JUMPI PUSH1 0x0 DUP1 REVERT JUMPDEST POP PUSH2 0x5A6 PUSH2 0xA2E CALLDATASIZE PUSH1 0x4 PUSH2 0x3D4E JUMP JUMPDEST PUSH2 0x22FD JUMP JUMPDEST CALLVALUE DUP1 ISZERO PUSH2 0xA3F JUMPI PUSH1 0x0 DUP1 REVERT JUMPDEST POP PUSH2 0x446 PUSH1 0xE SLOAD DUP2 JUMP JUMPDEST CALLVALUE DUP1 ISZERO PUSH2 0xA55 JUMPI PUSH1 0x0 DUP1 REVERT JUMPDEST POP PUSH2 0x537 PUSH2 0x23BD JUMP JUMPDEST CALLVALUE DUP1 ISZERO PUSH2 0xA6A JUMPI PUSH1 0x0 DUP1 REVERT JUMPDEST POP PUSH2 0x446 PUSH1 0x19 DUP2 JUMP JUMPDEST CALLVALUE DUP1 ISZERO PUSH2 0xA7F JUMPI PUSH1 0x0 DUP1 REVERT JUMPDEST POP PUSH2 0x5A6 PUSH2 0xA8E CALLDATASIZE PUSH1 0x4 PUSH2 0x3D25 JUMP JUMPDEST PUSH2 0x23CA JUMP JUMPDEST CALLVALUE DUP1 ISZERO PUSH2 0xA9F JUMPI PUSH1 0x0 DUP1 REVERT JUMPDEST POP PUSH2 0x4DF PUSH2 0xAAE CALLDATASIZE PUSH1 0x4 PUSH2 0x3CAC JUMP JUMPDEST PUSH1 0x1D PUSH1 0x20 MSTORE PUSH1 0x0 SWAP1 DUP2 MSTORE PUSH1 0x40 SWAP1 KECCAK256 SLOAD PUSH1 0x1 PUSH1 0x1 PUSH1 0xA0 SHL SUB AND DUP2 JUMP JUMPDEST CALLVALUE DUP1 ISZERO PUSH2 0xAD5 JUMPI PUSH1 0x0 DUP1 REVERT JUMPDEST POP PUSH1 0x16 SLOAD PUSH2 0x4DF SWAP1 PUSH1 0x1 PUSH1 0x1 PUSH1 0xA0 SHL SUB AND DUP2 JUMP JUMPDEST CALLVALUE DUP1 ISZERO PUSH2 0xAF5 JUMPI PUSH1 0x0 DUP1 REVERT JUMPDEST POP PUSH2 0x479 PUSH2 0xB04 CALLDATASIZE PUSH1 0x4 PUSH2 0x423E JUMP JUMPDEST PUSH1 0x1 PUSH1 0x1 PUSH1 0xA0 SHL SUB SWAP2 DUP3 AND PUSH1 0x0 SWAP1 DUP2 MSTORE PUSH1 0x1 PUSH1 0x20 SWAP1 DUP2 MSTORE PUSH1 0x40 DUP1 DUP4 KECCAK256 SWAP4 SWAP1 SWAP5 AND DUP3 MSTORE SWAP2 SWAP1 SWAP2 MSTORE KECCAK256 SLOAD PUSH1 0xFF AND SWAP1 JUMP JUMPDEST CALLVALUE DUP1 ISZERO PUSH2 0xB3E JUMPI PUSH1 0x0 DUP1 REVERT JUMPDEST POP PUSH2 0x5A6 PUSH2 0x24D7 JUMP JUMPDEST CALLVALUE DUP1 ISZERO PUSH2 0xB53 JUMPI PUSH1 0x0 DUP1 REVERT JUMPDEST POP PUSH2 0x5A6 PUSH2 0x25C4 JUMP JUMPDEST CALLVALUE DUP1 ISZERO PUSH2 0xB68 JUMPI PUSH1 0x0 DUP1 REVERT JUMPDEST POP PUSH2 0x5A6 PUSH2 0xB77 CALLDATASIZE PUSH1 0x4 PUSH2 0x4271 JUMP JUMPDEST PUSH2 0x2719 JUMP JUMPDEST CALLVALUE DUP1 ISZERO PUSH2 0xB88 JUMPI PUSH1 0x0 DUP1 REVERT JUMPDEST POP PUSH2 0x5A6 PUSH2 0xB97 CALLDATASIZE PUSH1 0x4 PUSH2 0x3D25 JUMP JUMPDEST PUSH2 0x27A0 JUMP JUMPDEST CALLVALUE DUP1 ISZERO PUSH2 0xBA8 JUMPI PUSH1 0x0 DUP1 REVERT JUMPDEST POP PUSH2 0x5A6 PUSH2 0xBB7 CALLDATASIZE PUSH1 0x4 PUSH2 0x3D4E JUMP JUMPDEST PUSH2 0x2841 JUMP JUMPDEST CALLVALUE DUP1 ISZERO PUSH2 0xBC8 JUMPI PUSH1 0x0 DUP1 REVERT JUMPDEST POP PUSH2 0x446 PUSH2 0x2901 JUMP JUMPDEST CALLVALUE DUP1 ISZERO PUSH2 0xBDD JUMPI PUSH1 0x0 DUP1 REVERT JUMPDEST POP PUSH2 0x537 PUSH2 0x29BE JUMP JUMPDEST CALLVALUE DUP1 ISZERO PUSH2 0xBF2 JUMPI PUSH1 0x0 DUP1 REVERT JUMPDEST POP PUSH2 0x5A6 PUSH2 0x29CB JUMP JUMPDEST PUSH1 0x0 PUSH1 0x1 PUSH1 0x1 PUSH1 0xA0 SHL SUB DUP4 AND PUSH2 0xC6C JUMPI PUSH1 0x40 MLOAD PUSH3 0x461BCD PUSH1 0xE5 SHL DUP2 MSTORE PUSH1 0x20 PUSH1 0x4 DUP3 ADD MSTORE PUSH1 0x2B PUSH1 0x24 DUP3 ADD MSTORE PUSH32 0x455243313135353A2062616C616E636520717565727920666F7220746865207A PUSH1 0x44 DUP3 ADD MSTORE PUSH11 0x65726F2061646472657373 PUSH1 0xA8 SHL PUSH1 0x64 DUP3 ADD MSTORE PUSH1 0x84 ADD JUMPDEST PUSH1 0x40 MLOAD DUP1 SWAP2 SUB SWAP1 REVERT JUMPDEST POP PUSH1 0x0 SWAP1 DUP2 MSTORE PUSH1 0x20 DUP2 DUP2 MSTORE PUSH1 0x40 DUP1 DUP4 KECCAK256 PUSH1 0x1 PUSH1 0x1 PUSH1 0xA0 SHL SUB SWAP5 SWAP1 SWAP5 AND DUP4 MSTORE SWAP3 SWAP1 MSTORE KECCAK256 SLOAD SWAP1 JUMP JUMPDEST PUSH1 0x0 PUSH1 0x1 PUSH1 0x1 PUSH1 0xE0 SHL SUB NOT DUP3 AND PUSH4 0x6CDB3D13 PUSH1 0xE1 SHL EQ DUP1 PUSH2 0xCC3 JUMPI POP PUSH1 0x1 PUSH1 0x1 PUSH1 0xE0 SHL SUB NOT DUP3 AND PUSH4 0x3A24D07 PUSH1 0xE2 SHL EQ JUMPDEST DUP1 PUSH2 0xCDE JUMPI POP PUSH4 0x1FFC9A7 PUSH1 0xE0 SHL PUSH1 0x1 PUSH1 0x1 PUSH1 0xE0 SHL SUB NOT DUP4 AND EQ JUMPDEST SWAP3 SWAP2 POP POP JUMP JUMPDEST PUSH1 0x0 PUSH2 0xCF1 DUP5 DUP5 DUP5 PUSH2 0x2A03 JUMP JUMPDEST SWAP5 SWAP4 POP POP POP POP JUMP JUMPDEST PUSH1 0x0 DUP1 PUSH2 0xD07 DUP6 DUP6 DUP6 PUSH2 0x2A03 JUMP JUMPDEST PUSH1 0x0 SWAP1 DUP2 MSTORE PUSH1 0x1D PUSH1 0x20 MSTORE PUSH1 0x40 SWAP1 KECCAK256 SLOAD PUSH1 0x1 PUSH1 0x1 PUSH1 0xA0 SHL SUB AND SWAP6 SWAP5 POP POP POP POP POP JUMP JUMPDEST PUSH1 0x13 DUP2 DUP2 SLOAD DUP2 LT PUSH2 0xD38 JUMPI PUSH1 0x0 DUP1 REVERT JUMPDEST PUSH1 0x0 SWAP2 DUP3 MSTORE PUSH1 0x20 SWAP1 SWAP2 KECCAK256 ADD SLOAD SWAP1 POP DUP2 JUMP JUMPDEST PUSH1 0x60 PUSH1 0x2 DUP1 SLOAD PUSH2 0xD58 SWAP1 PUSH2 0x42D5 JUMP JUMPDEST DUP1 PUSH1 0x1F ADD PUSH1 0x20 DUP1 SWAP2 DIV MUL PUSH1 0x20 ADD PUSH1 0x40 MLOAD SWAP1 DUP2 ADD PUSH1 0x40 MSTORE DUP1 SWAP3 SWAP2 SWAP1 DUP2 DUP2 MSTORE PUSH1 0x20 ADD DUP3 DUP1 SLOAD PUSH2 0xD84 SWAP1 PUSH2 0x42D5 JUMP JUMPDEST DUP1 ISZERO PUSH2 0xDD1 JUMPI DUP1 PUSH1 0x1F LT PUSH2 0xDA6 JUMPI PUSH2 0x100 DUP1 DUP4 SLOAD DIV MUL DUP4 MSTORE SWAP2 PUSH1 0x20 ADD SWAP2 PUSH2 0xDD1 JUMP JUMPDEST DUP3 ADD SWAP2 SWAP1 PUSH1 0x0 MSTORE PUSH1 0x20 PUSH1 0x0 KECCAK256 SWAP1 JUMPDEST DUP2 SLOAD DUP2 MSTORE SWAP1 PUSH1 0x1 ADD SWAP1 PUSH1 0x20 ADD DUP1 DUP4 GT PUSH2 0xDB4 JUMPI DUP3 SWAP1 SUB PUSH1 0x1F AND DUP3 ADD SWAP2 JUMPDEST POP POP POP POP POP SWAP1 POP SWAP2 SWAP1 POP JUMP JUMPDEST PUSH1 0x3 SLOAD PUSH1 0x1 PUSH1 0x1 PUSH1 0xA0 SHL SUB PUSH2 0x100 SWAP1 SWAP2 DIV AND CALLER EQ PUSH2 0xE0D JUMPI PUSH1 0x40 MLOAD PUSH3 0x461BCD PUSH1 0xE5 SHL DUP2 MSTORE PUSH1 0x4 ADD PUSH2 0xC63 SWAP1 PUSH2 0x4310 JUMP JUMPDEST DUP1 ISZERO PUSH2 0xE57 JUMPI PUSH1 0x17 DUP1 SLOAD PUSH1 0x1 PUSH1 0x1 PUSH1 0xA0 SHL SUB DUP5 DUP2 AND PUSH1 0x1 PUSH1 0x1 PUSH1 0xA0 SHL SUB NOT DUP4 AND DUP2 OR SWAP1 SWAP4 SSTORE AND PUSH1 0x0 DUP2 DUP2 MSTORE PUSH1 0x1B PUSH1 0x20 MSTORE PUSH1 0x40 DUP1 DUP3 KECCAK256 DUP1 SLOAD SWAP5 DUP4 MSTORE SWAP1 DUP3 KECCAK256 SWAP4 SWAP1 SWAP4 SSTORE SWAP1 DUP2 MSTORE SWAP1 SSTORE POP POP JUMP JUMPDEST PUSH1 0x17 DUP1 SLOAD PUSH1 0x1 PUSH1 0x1 PUSH1 0xA0 SHL SUB DUP5 DUP2 AND PUSH1 0x1 PUSH1 0x1 PUSH1 0xA0 SHL SUB NOT DUP4 AND OR SWAP1 SWAP3 SSTORE DUP2 AND PUSH1 0x0 DUP2 DUP2 MSTORE PUSH1 0x1B PUSH1 0x20 MSTORE PUSH1 0x40 DUP1 DUP3 KECCAK256 SLOAD PUSH1 0x19 SLOAD SWAP1 SWAP5 AND DUP3 MSTORE SWAP1 KECCAK256 SLOAD SWAP1 SWAP2 PUSH2 0xE9D SWAP2 PUSH2 0x3BF4 JUMP JUMPDEST PUSH1 0x19 SLOAD PUSH1 0x1 PUSH1 0x1 PUSH1 0xA0 SHL SUB SWAP1 DUP2 AND PUSH1 0x0 SWAP1 DUP2 MSTORE PUSH1 0x1B PUSH1 0x20 MSTORE PUSH1 0x40 DUP1 DUP3 KECCAK256 SWAP4 SWAP1 SWAP4 SSTORE SWAP3 AND DUP3 MSTORE DUP2 KECCAK256 SSTORE JUMPDEST POP POP JUMP JUMPDEST PUSH1 0x60 DUP1 PUSH1 0x0 PUSH1 0x13 DUP1 SLOAD SWAP1 POP PUSH1 0x1 PUSH1 0x1 PUSH1 0x40 SHL SUB DUP2 GT ISZERO PUSH2 0xEEC JUMPI PUSH2 0xEEC PUSH2 0x3E20 JUMP JUMPDEST PUSH1 0x40 MLOAD SWAP1 DUP1 DUP3 MSTORE DUP1 PUSH1 0x20 MUL PUSH1 0x20 ADD DUP3 ADD PUSH1 0x40 MSTORE DUP1 ISZERO PUSH2 0xF15 JUMPI DUP2 PUSH1 0x20 ADD PUSH1 0x20 DUP3 MUL DUP1 CALLDATASIZE DUP4 CALLDATACOPY ADD SWAP1 POP JUMPDEST POP PUSH1 0x13 SLOAD SWAP1 SWAP2 POP PUSH1 0x0 SWAP1 PUSH1 0x1 PUSH1 0x1 PUSH1 0x40 SHL SUB DUP2 GT ISZERO PUSH2 0xF36 JUMPI PUSH2 0xF36 PUSH2 0x3E20 JUMP JUMPDEST PUSH1 0x40 MLOAD SWAP1 DUP1 DUP3 MSTORE DUP1 PUSH1 0x20 MUL PUSH1 0x20 ADD DUP3 ADD PUSH1 0x40 MSTORE DUP1 ISZERO PUSH2 0xF5F JUMPI DUP2 PUSH1 0x20 ADD PUSH1 0x20 DUP3 MUL DUP1 CALLDATASIZE DUP4 CALLDATACOPY ADD SWAP1 POP JUMPDEST POP SWAP1 POP PUSH1 0x0 JUMPDEST PUSH1 0x13 SLOAD DUP2 LT ISZERO PUSH2 0x102B JUMPI PUSH1 0x13 DUP2 DUP2 SLOAD DUP2 LT PUSH2 0xF82 JUMPI PUSH2 0xF82 PUSH2 0x4345 JUMP JUMPDEST SWAP1 PUSH1 0x0 MSTORE PUSH1 0x20 PUSH1 0x0 KECCAK256 ADD SLOAD DUP4 DUP3 DUP2 MLOAD DUP2 LT PUSH2 0xF9F JUMPI PUSH2 0xF9F PUSH2 0x4345 JUMP JUMPDEST PUSH1 0x20 MUL PUSH1 0x20 ADD ADD DUP2 DUP2 MSTORE POP POP PUSH1 0x1D PUSH1 0x0 PUSH1 0x13 DUP4 DUP2 SLOAD DUP2 LT PUSH2 0xFC2 JUMPI PUSH2 0xFC2 PUSH2 0x4345 JUMP JUMPDEST SWAP1 PUSH1 0x0 MSTORE PUSH1 0x20 PUSH1 0x0 KECCAK256 ADD SLOAD DUP2 MSTORE PUSH1 0x20 ADD SWAP1 DUP2 MSTORE PUSH1 0x20 ADD PUSH1 0x0 KECCAK256 PUSH1 0x0 SWAP1 SLOAD SWAP1 PUSH2 0x100 EXP SWAP1 DIV PUSH1 0x1 PUSH1 0x1 PUSH1 0xA0 SHL SUB AND DUP3 DUP3 DUP2 MLOAD DUP2 LT PUSH2 0x1001 JUMPI PUSH2 0x1001 PUSH2 0x4345 JUMP JUMPDEST PUSH1 0x1 PUSH1 0x1 PUSH1 0xA0 SHL SUB SWAP1 SWAP3 AND PUSH1 0x20 SWAP3 DUP4 MUL SWAP2 SWAP1 SWAP2 ADD SWAP1 SWAP2 ADD MSTORE DUP1 PUSH2 0x1023 DUP2 PUSH2 0x435B JUMP JUMPDEST SWAP2 POP POP PUSH2 0xF65 JUMP JUMPDEST POP SWAP1 SWAP4 SWAP1 SWAP3 POP SWAP1 POP JUMP JUMPDEST PUSH1 0x3 SLOAD PUSH1 0x1 PUSH1 0x1 PUSH1 0xA0 SHL SUB PUSH2 0x100 SWAP1 SWAP2 DIV AND CALLER EQ PUSH2 0x1065 JUMPI PUSH1 0x40 MLOAD PUSH3 0x461BCD PUSH1 0xE5 SHL DUP2 MSTORE PUSH1 0x4 ADD PUSH2 0xC63 SWAP1 PUSH2 0x4310 JUMP JUMPDEST PUSH2 0x106D PUSH2 0x2A1E JUMP JUMPDEST JUMP JUMPDEST PUSH1 0x3 SLOAD PUSH1 0xFF AND ISZERO PUSH2 0x1092 JUMPI PUSH1 0x40 MLOAD PUSH3 0x461BCD PUSH1 0xE5 SHL DUP2 MSTORE PUSH1 0x4 ADD PUSH2 0xC63 SWAP1 PUSH2 0x4376 JUMP JUMPDEST DUP2 ISZERO DUP1 PUSH2 0x109F JUMPI POP PUSH1 0xC DUP3 GT JUMPDEST ISZERO PUSH2 0x10E4 JUMPI PUSH1 0x40 MLOAD PUSH3 0x461BCD PUSH1 0xE5 SHL DUP2 MSTORE PUSH1 0x20 PUSH1 0x4 DUP3 ADD MSTORE PUSH1 0x15 PUSH1 0x24 DUP3 ADD MSTORE PUSH21 0x3BB937B7339036B7B73A341039B2B632B1BA34B7B7 PUSH1 0x59 SHL PUSH1 0x44 DUP3 ADD MSTORE PUSH1 0x64 ADD PUSH2 0xC63 JUMP JUMPDEST DUP1 ISZERO DUP1 PUSH2 0x10F1 JUMPI POP PUSH1 0x1F DUP2 GT JUMPDEST ISZERO PUSH2 0x1134 JUMPI PUSH1 0x40 MLOAD PUSH3 0x461BCD PUSH1 0xE5 SHL DUP2 MSTORE PUSH1 0x20 PUSH1 0x4 DUP3 ADD MSTORE PUSH1 0x13 PUSH1 0x24 DUP3 ADD MSTORE PUSH19 0x3BB937B733903230BC9039B2B632B1BA34B7B7 PUSH1 0x69 SHL PUSH1 0x44 DUP3 ADD MSTORE PUSH1 0x64 ADD PUSH2 0xC63 JUMP JUMPDEST DUP2 PUSH1 0x4 EQ DUP1 PUSH2 0x1143 JUMPI POP DUP2 PUSH1 0x6 EQ JUMPDEST DUP1 PUSH2 0x114E JUMPI POP DUP2 PUSH1 0x9 EQ JUMPDEST DUP1 PUSH2 0x1159 JUMPI POP DUP2 PUSH1 0xB EQ JUMPDEST DUP1 ISZERO PUSH2 0x1165 JUMPI POP PUSH1 0x1E DUP2 GT JUMPDEST POP DUP2 PUSH1 0x2 EQ DUP1 ISZERO PUSH2 0x117A JUMPI POP PUSH2 0x117A DUP4 PUSH2 0x2A93 JUMP JUMPDEST DUP1 ISZERO PUSH2 0x1186 JUMPI POP PUSH1 0x1D DUP2 GT JUMPDEST POP DUP2 PUSH1 0x2 EQ DUP1 ISZERO PUSH2 0x119D JUMPI POP PUSH2 0x119B DUP4 PUSH2 0x2A93 JUMP JUMPDEST ISZERO JUMPDEST DUP1 ISZERO PUSH2 0x11A9 JUMPI POP PUSH1 0x1C DUP2 GT JUMPDEST POP PUSH1 0x0 PUSH2 0x11B7 DUP5 DUP5 DUP5 PUSH2 0x2A03 JUMP JUMPDEST SWAP1 POP PUSH2 0x11C2 DUP2 PUSH2 0x17BF JUMP JUMPDEST PUSH2 0x1246 JUMPI PUSH1 0x40 MLOAD PUSH3 0x461BCD PUSH1 0xE5 SHL DUP2 MSTORE PUSH1 0x20 PUSH1 0x4 DUP3 ADD MSTORE PUSH1 0x49 PUSH1 0x24 DUP3 ADD MSTORE PUSH32 0x54686973206461792043616E206E6F74206265206D696E742061742074686520 PUSH1 0x44 DUP3 ADD MSTORE PUSH32 0x6D6F6D656E742C706C65617365207761697420756E74696C2074686520616374 PUSH1 0x64 DUP3 ADD MSTORE PUSH9 0x3AB0B636103230BC97 PUSH1 0xB9 SHL PUSH1 0x84 DUP3 ADD MSTORE PUSH1 0xA4 ADD PUSH2 0xC63 JUMP JUMPDEST PUSH1 0x0 DUP2 DUP2 MSTORE PUSH1 0x1D PUSH1 0x20 MSTORE PUSH1 0x40 SWAP1 KECCAK256 SLOAD PUSH1 0x1 PUSH1 0x1 PUSH1 0xA0 SHL SUB AND ISZERO PUSH2 0x12AB JUMPI PUSH1 0x40 MLOAD PUSH3 0x461BCD PUSH1 0xE5 SHL DUP2 MSTORE PUSH1 0x20 PUSH1 0x4 DUP3 ADD MSTORE PUSH1 0x1E PUSH1 0x24 DUP3 ADD MSTORE PUSH32 0x54686973206461792068617320616C7265616479206D656D6F72697A65640000 PUSH1 0x44 DUP3 ADD MSTORE PUSH1 0x64 ADD PUSH2 0xC63 JUMP JUMPDEST CALLER PUSH1 0x0 SWAP1 DUP2 MSTORE PUSH1 0x1C PUSH1 0x20 MSTORE PUSH1 0x40 DUP2 KECCAK256 SLOAD ISZERO PUSH2 0x12F0 JUMPI POP CALLER PUSH1 0x0 SWAP1 DUP2 MSTORE PUSH1 0x1C PUSH1 0x20 MSTORE PUSH1 0x40 SWAP1 KECCAK256 SLOAD PUSH1 0x1 SWAP1 PUSH2 0x12DF SWAP1 DUP3 SWAP1 PUSH2 0x43A0 JUMP JUMPDEST CALLER PUSH1 0x0 SWAP1 DUP2 MSTORE PUSH1 0x1C PUSH1 0x20 MSTORE PUSH1 0x40 SWAP1 KECCAK256 SSTORE JUMPDEST DUP1 PUSH2 0x161B JUMPI PUSH2 0x12FD PUSH2 0x2901 JUMP JUMPDEST CALLVALUE LT ISZERO PUSH2 0x135A JUMPI PUSH1 0x40 MLOAD PUSH3 0x461BCD PUSH1 0xE5 SHL DUP2 MSTORE PUSH1 0x20 PUSH1 0x4 DUP3 ADD MSTORE PUSH1 0x25 PUSH1 0x24 DUP3 ADD MSTORE PUSH32 0x4E6F7420656E6F7567682066756E647320746F206D656D6F72697A6520746869 PUSH1 0x44 DUP3 ADD MSTORE PUSH5 0x7320646179 PUSH1 0xD8 SHL PUSH1 0x64 DUP3 ADD MSTORE PUSH1 0x84 ADD PUSH2 0xC63 JUMP JUMPDEST PUSH1 0x0 PUSH1 0x64 PUSH2 0x1369 PUSH1 0xF CALLVALUE PUSH2 0x43B7 JUMP JUMPDEST PUSH2 0x1373 SWAP2 SWAP1 PUSH2 0x43EC JUMP JUMPDEST PUSH1 0x0 DUP1 MLOAD PUSH1 0x20 PUSH2 0x4884 DUP4 CODECOPY DUP2 MLOAD SWAP2 MSTORE SLOAD PUSH1 0x1 PUSH1 0x1 PUSH1 0xA0 SHL SUB AND PUSH1 0x0 SWAP1 DUP2 MSTORE PUSH1 0x1B PUSH1 0x20 MSTORE PUSH1 0x40 SWAP1 KECCAK256 SLOAD SWAP1 SWAP2 POP PUSH2 0x13A9 SWAP1 DUP3 SWAP1 PUSH2 0x3BF4 JUMP JUMPDEST PUSH1 0x0 DUP1 MLOAD PUSH1 0x20 PUSH2 0x4884 DUP4 CODECOPY DUP2 MLOAD SWAP2 MSTORE SLOAD PUSH1 0x1 PUSH1 0x1 PUSH1 0xA0 SHL SUB AND PUSH1 0x0 SWAP1 DUP2 MSTORE PUSH1 0x1B PUSH1 0x20 MSTORE PUSH1 0x40 DUP2 KECCAK256 SWAP2 SWAP1 SWAP2 SSTORE PUSH1 0x64 PUSH2 0x13E1 PUSH1 0xA CALLVALUE PUSH2 0x43B7 JUMP JUMPDEST PUSH2 0x13EB SWAP2 SWAP1 PUSH2 0x43EC JUMP JUMPDEST PUSH1 0x1A SLOAD PUSH1 0x1 PUSH1 0x1 PUSH1 0xA0 SHL SUB AND PUSH1 0x0 SWAP1 DUP2 MSTORE PUSH1 0x1B PUSH1 0x20 MSTORE PUSH1 0x40 SWAP1 KECCAK256 SLOAD SWAP1 SWAP2 POP PUSH2 0x1414 SWAP1 DUP3 SWAP1 PUSH2 0x3BF4 JUMP JUMPDEST PUSH1 0x1A SLOAD PUSH1 0x1 PUSH1 0x1 PUSH1 0xA0 SHL SUB AND PUSH1 0x0 SWAP1 DUP2 MSTORE PUSH1 0x1B PUSH1 0x20 MSTORE PUSH1 0x40 DUP2 KECCAK256 SWAP2 SWAP1 SWAP2 SSTORE PUSH1 0x64 PUSH2 0x143F PUSH1 0x1 CALLVALUE PUSH2 0x43B7 JUMP JUMPDEST PUSH2 0x1449 SWAP2 SWAP1 PUSH2 0x43EC JUMP JUMPDEST ADDRESS PUSH1 0x0 SWAP1 DUP2 MSTORE PUSH1 0x1B PUSH1 0x20 MSTORE PUSH1 0x40 SWAP1 KECCAK256 SLOAD SWAP1 SWAP2 POP PUSH2 0x1467 SWAP1 DUP3 SWAP1 PUSH2 0x3BF4 JUMP JUMPDEST ADDRESS PUSH1 0x0 SWAP1 DUP2 MSTORE PUSH1 0x1B PUSH1 0x20 MSTORE PUSH1 0x40 SWAP1 KECCAK256 SSTORE PUSH1 0x64 PUSH2 0x1484 PUSH1 0x19 CALLVALUE PUSH2 0x43B7 JUMP JUMPDEST PUSH2 0x148E SWAP2 SWAP1 PUSH2 0x43EC JUMP JUMPDEST PUSH1 0xB DUP2 SWAP1 SSTORE PUSH2 0x149C SWAP1 PUSH2 0x2ACF JUMP JUMPDEST PUSH1 0x0 PUSH1 0x64 PUSH2 0x14AB PUSH1 0x14 CALLVALUE PUSH2 0x43B7 JUMP JUMPDEST PUSH2 0x14B5 SWAP2 SWAP1 PUSH2 0x43EC JUMP JUMPDEST PUSH1 0x16 SLOAD PUSH1 0x1 PUSH1 0x1 PUSH1 0xA0 SHL SUB AND PUSH1 0x0 SWAP1 DUP2 MSTORE PUSH1 0x1B PUSH1 0x20 MSTORE PUSH1 0x40 SWAP1 KECCAK256 SLOAD SWAP1 SWAP2 POP PUSH2 0x14DE SWAP1 DUP3 SWAP1 PUSH2 0x3BF4 JUMP JUMPDEST PUSH1 0x16 SLOAD PUSH1 0x1 PUSH1 0x1 PUSH1 0xA0 SHL SUB AND PUSH1 0x0 SWAP1 DUP2 MSTORE PUSH1 0x1B PUSH1 0x20 MSTORE PUSH1 0x40 DUP2 KECCAK256 SWAP2 SWAP1 SWAP2 SSTORE PUSH1 0x64 PUSH2 0x1509 PUSH1 0xA CALLVALUE PUSH2 0x43B7 JUMP JUMPDEST PUSH2 0x1513 SWAP2 SWAP1 PUSH2 0x43EC JUMP JUMPDEST PUSH1 0x17 SLOAD PUSH1 0x1 PUSH1 0x1 PUSH1 0xA0 SHL SUB AND PUSH1 0x0 SWAP1 DUP2 MSTORE PUSH1 0x1B PUSH1 0x20 MSTORE PUSH1 0x40 SWAP1 KECCAK256 SLOAD SWAP1 SWAP2 POP PUSH2 0x153C SWAP1 DUP3 SWAP1 PUSH2 0x3BF4 JUMP JUMPDEST PUSH1 0x17 SLOAD PUSH1 0x1 PUSH1 0x1 PUSH1 0xA0 SHL SUB AND PUSH1 0x0 SWAP1 DUP2 MSTORE PUSH1 0x1B PUSH1 0x20 MSTORE PUSH1 0x40 DUP2 KECCAK256 SWAP2 SWAP1 SWAP2 SSTORE PUSH1 0x64 PUSH2 0x1567 PUSH1 0xA CALLVALUE PUSH2 0x43B7 JUMP JUMPDEST PUSH2 0x1571 SWAP2 SWAP1 PUSH2 0x43EC JUMP JUMPDEST PUSH1 0x18 SLOAD PUSH1 0x1 PUSH1 0x1 PUSH1 0xA0 SHL SUB AND PUSH1 0x0 SWAP1 DUP2 MSTORE PUSH1 0x1B PUSH1 0x20 MSTORE PUSH1 0x40 SWAP1 KECCAK256 SLOAD SWAP1 SWAP2 POP PUSH2 0x159A SWAP1 DUP3 SWAP1 PUSH2 0x3BF4 JUMP JUMPDEST PUSH1 0x18 SLOAD PUSH1 0x1 PUSH1 0x1 PUSH1 0xA0 SHL SUB AND PUSH1 0x0 SWAP1 DUP2 MSTORE PUSH1 0x1B PUSH1 0x20 MSTORE PUSH1 0x40 DUP2 KECCAK256 SWAP2 SWAP1 SWAP2 SSTORE PUSH1 0x64 PUSH2 0x15C5 PUSH1 0x9 CALLVALUE PUSH2 0x43B7 JUMP JUMPDEST PUSH2 0x15CF SWAP2 SWAP1 PUSH2 0x43EC JUMP JUMPDEST PUSH1 0x19 SLOAD PUSH1 0x1 PUSH1 0x1 PUSH1 0xA0 SHL SUB AND PUSH1 0x0 SWAP1 DUP2 MSTORE PUSH1 0x1B PUSH1 0x20 MSTORE PUSH1 0x40 SWAP1 KECCAK256 SLOAD SWAP1 SWAP2 POP PUSH2 0x15F8 SWAP1 DUP3 SWAP1 PUSH2 0x3BF4 JUMP JUMPDEST PUSH1 0x19 SLOAD PUSH1 0x1 PUSH1 0x1 PUSH1 0xA0 SHL SUB AND PUSH1 0x0 SWAP1 DUP2 MSTORE PUSH1 0x1B PUSH1 0x20 MSTORE PUSH1 0x40 SWAP1 KECCAK256 SSTORE POP POP POP POP POP POP POP JUMPDEST PUSH2 0x1637 CALLER DUP4 PUSH1 0x1 PUSH1 0x40 MLOAD DUP1 PUSH1 0x20 ADD PUSH1 0x40 MSTORE DUP1 PUSH1 0x0 DUP2 MSTORE POP PUSH2 0x2C25 JUMP JUMPDEST PUSH1 0x13 DUP1 SLOAD PUSH1 0x1 DUP2 ADD SWAP1 SWAP2 SSTORE PUSH32 0x66DE8FFDA797E3DE9C05E8FC57B3BF0EC28A930D40B0D285D93C06501CF6A090 ADD DUP3 SWAP1 SSTORE PUSH1 0x0 DUP3 DUP2 MSTORE PUSH1 0x1D PUSH1 0x20 MSTORE PUSH1 0x40 SWAP1 KECCAK256 DUP1 SLOAD PUSH1 0x1 PUSH1 0x1 PUSH1 0xA0 SHL SUB NOT AND CALLER OR SWAP1 SSTORE PUSH2 0x168D PUSH2 0x2D35 JUMP JUMPDEST DUP1 ISZERO PUSH2 0x16DB JUMPI PUSH1 0x40 DUP1 MLOAD DUP7 DUP2 MSTORE PUSH1 0x20 DUP2 ADD DUP7 SWAP1 MSTORE SWAP1 DUP2 ADD DUP5 SWAP1 MSTORE CALLER SWAP1 PUSH32 0x8F7B867D4725F039D609BA3EB633BEDDBB7049D42956E84B2EF81601F159B411 SWAP1 PUSH1 0x60 ADD PUSH1 0x40 MLOAD DUP1 SWAP2 SUB SWAP1 LOG2 PUSH2 0x1728 JUMP JUMPDEST PUSH2 0x16E3 PUSH2 0x2D47 JUMP JUMPDEST PUSH1 0x40 DUP1 MLOAD DUP7 DUP2 MSTORE PUSH1 0x20 DUP2 ADD DUP7 SWAP1 MSTORE SWAP1 DUP2 ADD DUP5 SWAP1 MSTORE CALLER SWAP1 PUSH32 0xA51E9B2EF1F037DEE551EB226D6D1581C8FB0E0243820EBD1FBB41A13E6C2364 SWAP1 PUSH1 0x60 ADD JUMPDEST PUSH1 0x40 MLOAD DUP1 SWAP2 SUB SWAP1 LOG2 JUMPDEST POP POP POP POP POP JUMP JUMPDEST PUSH1 0x1 PUSH1 0x1 PUSH1 0xA0 SHL SUB DUP6 AND CALLER EQ DUP1 PUSH2 0x174B JUMPI POP PUSH2 0x174B DUP6 CALLER PUSH2 0xB04 JUMP JUMPDEST PUSH2 0x17B2 JUMPI PUSH1 0x40 MLOAD PUSH3 0x461BCD PUSH1 0xE5 SHL DUP2 MSTORE PUSH1 0x20 PUSH1 0x4 DUP3 ADD MSTORE PUSH1 0x32 PUSH1 0x24 DUP3 ADD MSTORE PUSH32 0x455243313135353A207472616E736665722063616C6C6572206973206E6F7420 PUSH1 0x44 DUP3 ADD MSTORE PUSH18 0x1BDDDB995C881B9BDC88185C1C1C9BDD9959 PUSH1 0x72 SHL PUSH1 0x64 DUP3 ADD MSTORE PUSH1 0x84 ADD PUSH2 0xC63 JUMP JUMPDEST PUSH2 0x1728 DUP6 DUP6 DUP6 DUP6 DUP6 PUSH2 0x2DCD JUMP JUMPDEST PUSH1 0x0 TIMESTAMP DUP3 GT ISZERO DUP1 ISZERO PUSH2 0x17D3 JUMPI POP PUSH1 0x12 SLOAD DUP3 LT ISZERO JUMPDEST ISZERO PUSH2 0x17E0 JUMPI POP PUSH1 0x1 SWAP2 SWAP1 POP JUMP JUMPDEST POP PUSH1 0x0 SWAP2 SWAP1 POP JUMP JUMPDEST SWAP2 SWAP1 POP JUMP JUMPDEST PUSH2 0x17F5 PUSH2 0x3AC9 JUMP JUMPDEST PUSH1 0x0 PUSH2 0x1802 DUP6 DUP6 DUP6 PUSH2 0x2A03 JUMP JUMPDEST PUSH1 0x0 DUP2 DUP2 MSTORE PUSH1 0x1D PUSH1 0x20 MSTORE PUSH1 0x40 SWAP1 KECCAK256 SLOAD SWAP1 SWAP2 POP PUSH1 0x1 PUSH1 0x1 PUSH1 0xA0 SHL SUB AND PUSH2 0x1869 JUMPI PUSH1 0x40 MLOAD PUSH3 0x461BCD PUSH1 0xE5 SHL DUP2 MSTORE PUSH1 0x20 PUSH1 0x4 DUP3 ADD MSTORE PUSH1 0x1F PUSH1 0x24 DUP3 ADD MSTORE PUSH32 0x546869732064617920646F6573206E6F74206D656D6F72697A65642079657400 PUSH1 0x44 DUP3 ADD MSTORE PUSH1 0x64 ADD PUSH2 0xC63 JUMP JUMPDEST PUSH1 0x40 DUP1 MLOAD PUSH1 0x80 DUP2 ADD DUP3 MSTORE PUSH1 0x0 PUSH1 0x60 DUP3 ADD DUP2 DUP2 MSTORE DUP3 MSTORE DUP3 MLOAD PUSH1 0x20 DUP2 DUP2 ADD DUP6 MSTORE DUP3 DUP3 MSTORE DUP1 DUP5 ADD SWAP2 SWAP1 SWAP2 MSTORE DUP4 MLOAD SWAP1 DUP2 ADD DUP5 MSTORE SWAP1 DUP2 MSTORE SWAP2 DUP2 ADD SWAP2 SWAP1 SWAP2 MSTORE PUSH2 0x18AB DUP7 PUSH2 0x2FB8 JUMP JUMPDEST DUP2 MSTORE PUSH1 0x9 DUP1 SLOAD PUSH2 0x18BA SWAP1 PUSH2 0x42D5 JUMP JUMPDEST DUP1 PUSH1 0x1F ADD PUSH1 0x20 DUP1 SWAP2 DIV MUL PUSH1 0x20 ADD PUSH1 0x40 MLOAD SWAP1 DUP2 ADD PUSH1 0x40 MSTORE DUP1 SWAP3 SWAP2 SWAP1 DUP2 DUP2 MSTORE PUSH1 0x20 ADD DUP3 DUP1 SLOAD PUSH2 0x18E6 SWAP1 PUSH2 0x42D5 JUMP JUMPDEST DUP1 ISZERO PUSH2 0x1933 JUMPI DUP1 PUSH1 0x1F LT PUSH2 0x1908 JUMPI PUSH2 0x100 DUP1 DUP4 SLOAD DIV MUL DUP4 MSTORE SWAP2 PUSH1 0x20 ADD SWAP2 PUSH2 0x1933 JUMP JUMPDEST DUP3 ADD SWAP2 SWAP1 PUSH1 0x0 MSTORE PUSH1 0x20 PUSH1 0x0 KECCAK256 SWAP1 JUMPDEST DUP2 SLOAD DUP2 MSTORE SWAP1 PUSH1 0x1 ADD SWAP1 PUSH1 0x20 ADD DUP1 DUP4 GT PUSH2 0x1916 JUMPI DUP3 SWAP1 SUB PUSH1 0x1F AND DUP3 ADD SWAP2 JUMPDEST POP POP POP POP POP DUP2 PUSH1 0x1 PUSH1 0x3 DUP2 LT PUSH2 0x194B JUMPI PUSH2 0x194B PUSH2 0x4345 JUMP JUMPDEST PUSH1 0x20 MUL ADD DUP2 SWAP1 MSTORE POP PUSH1 0x0 PUSH1 0x1E PUSH1 0x0 DUP5 DUP2 MSTORE PUSH1 0x20 ADD SWAP1 DUP2 MSTORE PUSH1 0x20 ADD PUSH1 0x0 KECCAK256 DUP1 SLOAD PUSH2 0x1973 SWAP1 PUSH2 0x42D5 JUMP JUMPDEST DUP1 PUSH1 0x1F ADD PUSH1 0x20 DUP1 SWAP2 DIV MUL PUSH1 0x20 ADD PUSH1 0x40 MLOAD SWAP1 DUP2 ADD PUSH1 0x40 MSTORE DUP1 SWAP3 SWAP2 SWAP1 DUP2 DUP2 MSTORE PUSH1 0x20 ADD DUP3 DUP1 SLOAD PUSH2 0x199F SWAP1 PUSH2 0x42D5 JUMP JUMPDEST DUP1 ISZERO PUSH2 0x19EC JUMPI DUP1 PUSH1 0x1F LT PUSH2 0x19C1 JUMPI PUSH2 0x100 DUP1 DUP4 SLOAD DIV MUL DUP4 MSTORE SWAP2 PUSH1 0x20 ADD SWAP2 PUSH2 0x19EC JUMP JUMPDEST DUP3 ADD SWAP2 SWAP1 PUSH1 0x0 MSTORE PUSH1 0x20 PUSH1 0x0 KECCAK256 SWAP1 JUMPDEST DUP2 SLOAD DUP2 MSTORE SWAP1 PUSH1 0x1 ADD SWAP1 PUSH1 0x20 ADD DUP1 DUP4 GT PUSH2 0x19CF JUMPI DUP3 SWAP1 SUB PUSH1 0x1F AND DUP3 ADD SWAP2 JUMPDEST POP POP POP POP POP SWAP1 POP DUP1 MLOAD PUSH1 0x0 EQ PUSH2 0x1AAC JUMPI PUSH1 0x0 DUP4 DUP2 MSTORE PUSH1 0x1E PUSH1 0x20 MSTORE PUSH1 0x40 SWAP1 KECCAK256 DUP1 SLOAD PUSH2 0x1A15 SWAP1 PUSH2 0x42D5 JUMP JUMPDEST DUP1 PUSH1 0x1F ADD PUSH1 0x20 DUP1 SWAP2 DIV MUL PUSH1 0x20 ADD PUSH1 0x40 MLOAD SWAP1 DUP2 ADD PUSH1 0x40 MSTORE DUP1 SWAP3 SWAP2 SWAP1 DUP2 DUP2 MSTORE PUSH1 0x20 ADD DUP3 DUP1 SLOAD PUSH2 0x1A41 SWAP1 PUSH2 0x42D5 JUMP JUMPDEST DUP1 ISZERO PUSH2 0x1A8E JUMPI DUP1 PUSH1 0x1F LT PUSH2 0x1A63 JUMPI PUSH2 0x100 DUP1 DUP4 SLOAD DIV MUL DUP4 MSTORE SWAP2 PUSH1 0x20 ADD SWAP2 PUSH2 0x1A8E JUMP JUMPDEST DUP3 ADD SWAP2 SWAP1 PUSH1 0x0 MSTORE PUSH1 0x20 PUSH1 0x0 KECCAK256 SWAP1 JUMPDEST DUP2 SLOAD DUP2 MSTORE SWAP1 PUSH1 0x1 ADD SWAP1 PUSH1 0x20 ADD DUP1 DUP4 GT PUSH2 0x1A71 JUMPI DUP3 SWAP1 SUB PUSH1 0x1F AND DUP3 ADD SWAP2 JUMPDEST POP POP POP POP POP DUP3 PUSH1 0x2 PUSH1 0x3 DUP2 LT PUSH2 0x1AA6 JUMPI PUSH2 0x1AA6 PUSH2 0x4345 JUMP JUMPDEST PUSH1 0x20 MUL ADD MSTORE JUMPDEST POP SWAP6 SWAP5 POP POP POP POP POP JUMP JUMPDEST PUSH1 0x60 DUP2 MLOAD DUP4 MLOAD EQ PUSH2 0x1B1B JUMPI PUSH1 0x40 MLOAD PUSH3 0x461BCD PUSH1 0xE5 SHL DUP2 MSTORE PUSH1 0x20 PUSH1 0x4 DUP3 ADD MSTORE PUSH1 0x29 PUSH1 0x24 DUP3 ADD MSTORE PUSH32 0x455243313135353A206163636F756E747320616E6420696473206C656E677468 PUSH1 0x44 DUP3 ADD MSTORE PUSH9 0x40DAD2E6DAC2E8C6D PUSH1 0xBB SHL PUSH1 0x64 DUP3 ADD MSTORE PUSH1 0x84 ADD PUSH2 0xC63 JUMP JUMPDEST PUSH1 0x0 DUP4 MLOAD PUSH1 0x1 PUSH1 0x1 PUSH1 0x40 SHL SUB DUP2 GT ISZERO PUSH2 0x1B36 JUMPI PUSH2 0x1B36 PUSH2 0x3E20 JUMP JUMPDEST PUSH1 0x40 MLOAD SWAP1 DUP1 DUP3 MSTORE DUP1 PUSH1 0x20 MUL PUSH1 0x20 ADD DUP3 ADD PUSH1 0x40 MSTORE DUP1 ISZERO PUSH2 0x1B5F JUMPI DUP2 PUSH1 0x20 ADD PUSH1 0x20 DUP3 MUL DUP1 CALLDATASIZE DUP4 CALLDATACOPY ADD SWAP1 POP JUMPDEST POP SWAP1 POP PUSH1 0x0 JUMPDEST DUP5 MLOAD DUP2 LT ISZERO PUSH2 0x1BD7 JUMPI PUSH2 0x1BAA DUP6 DUP3 DUP2 MLOAD DUP2 LT PUSH2 0x1B83 JUMPI PUSH2 0x1B83 PUSH2 0x4345 JUMP JUMPDEST PUSH1 0x20 MUL PUSH1 0x20 ADD ADD MLOAD DUP6 DUP4 DUP2 MLOAD DUP2 LT PUSH2 0x1B9D JUMPI PUSH2 0x1B9D PUSH2 0x4345 JUMP JUMPDEST PUSH1 0x20 MUL PUSH1 0x20 ADD ADD MLOAD PUSH2 0xBFB JUMP JUMPDEST DUP3 DUP3 DUP2 MLOAD DUP2 LT PUSH2 0x1BBC JUMPI PUSH2 0x1BBC PUSH2 0x4345 JUMP JUMPDEST PUSH1 0x20 SWAP1 DUP2 MUL SWAP2 SWAP1 SWAP2 ADD ADD MSTORE PUSH2 0x1BD0 DUP2 PUSH2 0x435B JUMP JUMPDEST SWAP1 POP PUSH2 0x1B65 JUMP JUMPDEST POP SWAP4 SWAP3 POP POP POP JUMP JUMPDEST PUSH1 0x0 PUSH2 0x1BEC DUP6 DUP6 DUP6 PUSH2 0x2A03 JUMP JUMPDEST PUSH1 0x0 DUP2 DUP2 MSTORE PUSH1 0x1D PUSH1 0x20 MSTORE PUSH1 0x40 SWAP1 KECCAK256 SLOAD SWAP1 SWAP2 POP PUSH1 0x1 PUSH1 0x1 PUSH1 0xA0 SHL SUB AND PUSH2 0x1C53 JUMPI PUSH1 0x40 MLOAD PUSH3 0x461BCD PUSH1 0xE5 SHL DUP2 MSTORE PUSH1 0x20 PUSH1 0x4 DUP3 ADD MSTORE PUSH1 0x1F PUSH1 0x24 DUP3 ADD MSTORE PUSH32 0x546869732064617920646F6573206E6F74206D656D6F72697A65642079657400 PUSH1 0x44 DUP3 ADD MSTORE PUSH1 0x64 ADD PUSH2 0xC63 JUMP JUMPDEST PUSH1 0x0 DUP2 DUP2 MSTORE PUSH1 0x1D PUSH1 0x20 MSTORE PUSH1 0x40 SWAP1 KECCAK256 SLOAD PUSH1 0x1 PUSH1 0x1 PUSH1 0xA0 SHL SUB AND CALLER EQ PUSH2 0x1CB9 JUMPI PUSH1 0x40 MLOAD PUSH3 0x461BCD PUSH1 0xE5 SHL DUP2 MSTORE PUSH1 0x20 PUSH1 0x4 DUP3 ADD MSTORE PUSH1 0x17 PUSH1 0x24 DUP3 ADD MSTORE PUSH32 0x596F7520646F6E60742068617665207468697320646179000000000000000000 PUSH1 0x44 DUP3 ADD MSTORE PUSH1 0x64 ADD PUSH2 0xC63 JUMP JUMPDEST PUSH1 0x0 DUP2 DUP2 MSTORE PUSH1 0x1E PUSH1 0x20 SWAP1 DUP2 MSTORE PUSH1 0x40 SWAP1 SWAP2 KECCAK256 DUP4 MLOAD PUSH2 0x1CD8 SWAP3 DUP6 ADD SWAP1 PUSH2 0x3AF0 JUMP JUMPDEST POP CALLER PUSH1 0x1 PUSH1 0x1 PUSH1 0xA0 SHL SUB AND PUSH32 0x2D51DA4E9AAE0A6EE06DE087193C53FCC2ADA79CD6D25B0D48990840471F0585 DUP4 PUSH1 0x40 MLOAD PUSH2 0x171F SWAP2 SWAP1 PUSH2 0x3D12 JUMP JUMPDEST PUSH1 0x3 SLOAD PUSH1 0x1 PUSH1 0x1 PUSH1 0xA0 SHL SUB PUSH2 0x100 SWAP1 SWAP2 DIV AND CALLER EQ PUSH2 0x1D42 JUMPI PUSH1 0x40 MLOAD PUSH3 0x461BCD PUSH1 0xE5 SHL DUP2 MSTORE PUSH1 0x4 ADD PUSH2 0xC63 SWAP1 PUSH2 0x4310 JUMP JUMPDEST PUSH1 0x3 SLOAD PUSH1 0xFF AND ISZERO PUSH2 0x1D65 JUMPI PUSH1 0x40 MLOAD PUSH3 0x461BCD PUSH1 0xE5 SHL DUP2 MSTORE PUSH1 0x4 ADD PUSH2 0xC63 SWAP1 PUSH2 0x4376 JUMP JUMPDEST PUSH1 0x14 SSTORE JUMP JUMPDEST PUSH1 0x3 SLOAD PUSH1 0x1 PUSH1 0x1 PUSH1 0xA0 SHL SUB PUSH2 0x100 SWAP1 SWAP2 DIV AND CALLER EQ PUSH2 0x1D9A JUMPI PUSH1 0x40 MLOAD PUSH3 0x461BCD PUSH1 0xE5 SHL DUP2 MSTORE PUSH1 0x4 ADD PUSH2 0xC63 SWAP1 PUSH2 0x4310 JUMP JUMPDEST PUSH1 0x3 SLOAD PUSH1 0xFF AND ISZERO PUSH2 0x1DBD JUMPI PUSH1 0x40 MLOAD PUSH3 0x461BCD PUSH1 0xE5 SHL DUP2 MSTORE PUSH1 0x4 ADD PUSH2 0xC63 SWAP1 PUSH2 0x4376 JUMP JUMPDEST PUSH1 0x0 PUSH2 0x1DCA DUP5 DUP5 DUP5 PUSH2 0x2A03 JUMP JUMPDEST SWAP1 POP PUSH1 0x12 SLOAD PUSH1 0x0 EQ PUSH2 0x1E27 JUMPI PUSH1 0x12 SLOAD DUP2 LT PUSH2 0x1E27 JUMPI PUSH1 0x40 MLOAD PUSH3 0x461BCD PUSH1 0xE5 SHL DUP2 MSTORE PUSH1 0x20 PUSH1 0x4 DUP3 ADD MSTORE PUSH1 0x1F PUSH1 0x24 DUP3 ADD MSTORE PUSH32 0x4F6E6C79206261636B77617264206368616E676520697320616C6C6F77656400 PUSH1 0x44 DUP3 ADD MSTORE PUSH1 0x64 ADD PUSH2 0xC63 JUMP JUMPDEST PUSH1 0x12 SSTORE POP POP POP JUMP JUMPDEST PUSH1 0x1E PUSH1 0x20 MSTORE PUSH1 0x0 SWAP1 DUP2 MSTORE PUSH1 0x40 SWAP1 KECCAK256 DUP1 SLOAD PUSH2 0x1E48 SWAP1 PUSH2 0x42D5 JUMP JUMPDEST DUP1 PUSH1 0x1F ADD PUSH1 0x20 DUP1 SWAP2 DIV MUL PUSH1 0x20 ADD PUSH1 0x40 MLOAD SWAP1 DUP2 ADD PUSH1 0x40 MSTORE DUP1 SWAP3 SWAP2 SWAP1 DUP2 DUP2 MSTORE PUSH1 0x20 ADD DUP3 DUP1 SLOAD PUSH2 0x1E74 SWAP1 PUSH2 0x42D5 JUMP JUMPDEST DUP1 ISZERO PUSH2 0x1EC1 JUMPI DUP1 PUSH1 0x1F LT PUSH2 0x1E96 JUMPI PUSH2 0x100 DUP1 DUP4 SLOAD DIV MUL DUP4 MSTORE SWAP2 PUSH1 0x20 ADD SWAP2 PUSH2 0x1EC1 JUMP JUMPDEST DUP3 ADD SWAP2 SWAP1 PUSH1 0x0 MSTORE PUSH1 0x20 PUSH1 0x0 KECCAK256 SWAP1 JUMPDEST DUP2 SLOAD DUP2 MSTORE SWAP1 PUSH1 0x1 ADD SWAP1 PUSH1 0x20 ADD DUP1 DUP4 GT PUSH2 0x1EA4 JUMPI DUP3 SWAP1 SUB PUSH1 0x1F AND DUP3 ADD SWAP2 JUMPDEST POP POP POP POP POP DUP2 JUMP JUMPDEST PUSH1 0x3 SLOAD PUSH1 0x1 PUSH1 0x1 PUSH1 0xA0 SHL SUB PUSH2 0x100 SWAP1 SWAP2 DIV AND CALLER EQ PUSH2 0x1EF9 JUMPI PUSH1 0x40 MLOAD PUSH3 0x461BCD PUSH1 0xE5 SHL DUP2 MSTORE PUSH1 0x4 ADD PUSH2 0xC63 SWAP1 PUSH2 0x4310 JUMP JUMPDEST PUSH1 0x19 DUP1 SLOAD PUSH1 0x1 PUSH1 0x1 PUSH1 0xA0 SHL SUB SWAP3 DUP4 AND PUSH1 0x1 PUSH1 0x1 PUSH1 0xA0 SHL SUB NOT DUP3 AND DUP2 OR SWAP1 SWAP3 SSTORE SWAP2 SWAP1 SWAP2 AND PUSH1 0x0 DUP2 DUP2 MSTORE PUSH1 0x1B PUSH1 0x20 MSTORE PUSH1 0x40 DUP1 DUP3 KECCAK256 DUP1 SLOAD SWAP5 DUP4 MSTORE SWAP1 DUP3 KECCAK256 SWAP4 SWAP1 SWAP4 SSTORE SWAP1 DUP2 MSTORE SWAP1 SSTORE JUMP JUMPDEST PUSH1 0x5 DUP1 SLOAD PUSH2 0x1E48 SWAP1 PUSH2 0x42D5 JUMP JUMPDEST PUSH1 0x3 SLOAD PUSH1 0x1 PUSH1 0x1 PUSH1 0xA0 SHL SUB PUSH2 0x100 SWAP1 SWAP2 DIV AND CALLER EQ PUSH2 0x1F7B JUMPI PUSH1 0x40 MLOAD PUSH3 0x461BCD PUSH1 0xE5 SHL DUP2 MSTORE PUSH1 0x4 ADD PUSH2 0xC63 SWAP1 PUSH2 0x4310 JUMP JUMPDEST ADDRESS PUSH1 0x0 SWAP1 DUP2 MSTORE PUSH1 0x1B PUSH1 0x20 MSTORE PUSH1 0x40 DUP1 DUP3 KECCAK256 DUP1 SLOAD SWAP1 DUP4 SWAP1 SSTORE SWAP1 MLOAD SWAP1 SWAP2 CALLER SWAP2 DUP4 ISZERO PUSH2 0x8FC MUL SWAP2 DUP5 SWAP2 SWAP1 DUP2 DUP2 DUP2 DUP6 DUP9 DUP9 CALL SWAP4 POP POP POP POP ISZERO DUP1 ISZERO PUSH2 0xEC6 JUMPI RETURNDATASIZE PUSH1 0x0 DUP1 RETURNDATACOPY RETURNDATASIZE PUSH1 0x0 REVERT JUMPDEST CALLER PUSH1 0x0 SWAP1 DUP2 MSTORE PUSH1 0x1B PUSH1 0x20 MSTORE PUSH1 0x40 SWAP1 KECCAK256 SLOAD PUSH7 0x2386F26FC10000 GT ISZERO PUSH2 0x2036 JUMPI PUSH1 0x40 MLOAD PUSH3 0x461BCD PUSH1 0xE5 SHL DUP2 MSTORE PUSH1 0x20 PUSH1 0x4 DUP3 ADD MSTORE PUSH1 0x29 PUSH1 0x24 DUP3 ADD MSTORE PUSH32 0x596F7520646F6E60742068617665206D696E2062616C616E636520666F722077 PUSH1 0x44 DUP3 ADD MSTORE PUSH9 0x1A5D1A191C985DD85B PUSH1 0xBA SHL PUSH1 0x64 DUP3 ADD MSTORE PUSH1 0x84 ADD PUSH2 0xC63 JUMP JUMPDEST CALLER PUSH1 0x0 DUP2 DUP2 MSTORE PUSH1 0x1B PUSH1 0x20 MSTORE PUSH1 0x40 DUP1 DUP3 KECCAK256 DUP1 SLOAD SWAP1 DUP4 SWAP1 SSTORE SWAP1 MLOAD SWAP1 SWAP3 DUP4 SWAP3 SWAP1 SWAP2 PUSH32 0x2F174CA282119315C59EFAF21147AEF438581DABDEB498198AE28964373DD8BC SWAP2 SWAP1 LOG3 PUSH1 0x40 MLOAD CALLER SWAP1 DUP3 ISZERO PUSH2 0x8FC MUL SWAP1 DUP4 SWAP1 PUSH1 0x0 DUP2 DUP2 DUP2 DUP6 DUP9 DUP9 CALL SWAP4 POP POP POP POP ISZERO DUP1 ISZERO PUSH2 0xEC6 JUMPI RETURNDATASIZE PUSH1 0x0 DUP1 RETURNDATACOPY RETURNDATASIZE PUSH1 0x0 REVERT JUMPDEST PUSH1 0x3 SLOAD PUSH1 0x1 PUSH1 0x1 PUSH1 0xA0 SHL SUB PUSH2 0x100 SWAP1 SWAP2 DIV AND CALLER EQ PUSH2 0x20D5 JUMPI PUSH1 0x40 MLOAD PUSH3 0x461BCD PUSH1 0xE5 SHL DUP2 MSTORE PUSH1 0x4 ADD PUSH2 0xC63 SWAP1 PUSH2 0x4310 JUMP JUMPDEST PUSH2 0x106D PUSH1 0x0 PUSH2 0x30B5 JUMP JUMPDEST PUSH1 0x0 DUP1 MSTORE PUSH1 0x1D PUSH1 0x20 MSTORE PUSH1 0x0 DUP1 MLOAD PUSH1 0x20 PUSH2 0x4884 DUP4 CODECOPY DUP2 MLOAD SWAP2 MSTORE SLOAD PUSH1 0x1 PUSH1 0x1 PUSH1 0xA0 SHL SUB AND CALLER EQ DUP1 PUSH2 0x212F JUMPI POP PUSH1 0x3 SLOAD PUSH2 0x100 SWAP1 DIV PUSH1 0x1 PUSH1 0x1 PUSH1 0xA0 SHL SUB AND PUSH1 0x1 PUSH1 0x1 PUSH1 0xA0 SHL SUB AND CALLER PUSH1 0x1 PUSH1 0x1 PUSH1 0xA0 SHL SUB AND EQ JUMPDEST PUSH2 0x2138 JUMPI PUSH1 0x0 DUP1 REVERT JUMPDEST DUP3 MLOAD PUSH2 0x214B SWAP1 PUSH1 0x7 SWAP1 PUSH1 0x20 DUP7 ADD SWAP1 PUSH2 0x3AF0 JUMP JUMPDEST POP DUP2 MLOAD PUSH2 0x215F SWAP1 PUSH1 0x6 SWAP1 PUSH1 0x20 DUP6 ADD SWAP1 PUSH2 0x3AF0 JUMP JUMPDEST POP DUP1 MLOAD PUSH2 0x2173 SWAP1 PUSH1 0x5 SWAP1 PUSH1 0x20 DUP5 ADD SWAP1 PUSH2 0x3AF0 JUMP JUMPDEST POP POP POP POP JUMP JUMPDEST PUSH1 0x9 DUP1 SLOAD PUSH2 0x1E48 SWAP1 PUSH2 0x42D5 JUMP JUMPDEST CALLER PUSH1 0x1 PUSH1 0x1 PUSH1 0xA0 SHL SUB PUSH32 0x0 AND EQ PUSH2 0x21FE JUMPI PUSH1 0x40 MLOAD PUSH3 0x461BCD PUSH1 0xE5 SHL DUP2 MSTORE PUSH1 0x20 PUSH1 0x4 DUP3 ADD MSTORE PUSH1 0x1F PUSH1 0x24 DUP3 ADD MSTORE PUSH32 0x4F6E6C7920565246436F6F7264696E61746F722063616E2066756C66696C6C00 PUSH1 0x44 DUP3 ADD MSTORE PUSH1 0x64 ADD PUSH2 0xC63 JUMP JUMPDEST PUSH2 0xEC6 DUP3 DUP3 PUSH2 0x310F JUMP JUMPDEST PUSH2 0xEC6 CALLER DUP4 DUP4 PUSH2 0x32A0 JUMP JUMPDEST PUSH1 0xD DUP2 DUP2 SLOAD DUP2 LT PUSH2 0x2223 JUMPI PUSH1 0x0 DUP1 REVERT JUMPDEST PUSH1 0x0 SWAP2 DUP3 MSTORE PUSH1 0x20 SWAP1 SWAP2 KECCAK256 ADD SLOAD PUSH1 0x1 PUSH1 0x1 PUSH1 0xA0 SHL SUB AND SWAP1 POP DUP2 JUMP JUMPDEST PUSH1 0x3 SLOAD PUSH1 0x1 PUSH1 0x1 PUSH1 0xA0 SHL SUB PUSH2 0x100 SWAP1 SWAP2 DIV AND CALLER EQ PUSH2 0x226D JUMPI PUSH1 0x40 MLOAD PUSH3 0x461BCD PUSH1 0xE5 SHL DUP2 MSTORE PUSH1 0x4 ADD PUSH2 0xC63 SWAP1 PUSH2 0x4310 JUMP JUMPDEST DUP1 ISZERO PUSH2 0x22B7 JUMPI PUSH1 0x16 DUP1 SLOAD PUSH1 0x1 PUSH1 0x1 PUSH1 0xA0 SHL SUB DUP5 DUP2 AND PUSH1 0x1 PUSH1 0x1 PUSH1 0xA0 SHL SUB NOT DUP4 AND DUP2 OR SWAP1 SWAP4 SSTORE AND PUSH1 0x0 DUP2 DUP2 MSTORE PUSH1 0x1B PUSH1 0x20 MSTORE PUSH1 0x40 DUP1 DUP3 KECCAK256 DUP1 SLOAD SWAP5 DUP4 MSTORE SWAP1 DUP3 KECCAK256 SWAP4 SWAP1 SWAP4 SSTORE SWAP1 DUP2 MSTORE SWAP1 SSTORE POP POP JUMP JUMPDEST PUSH1 0x16 DUP1 SLOAD PUSH1 0x1 PUSH1 0x1 PUSH1 0xA0 SHL SUB DUP5 DUP2 AND PUSH1 0x1 PUSH1 0x1 PUSH1 0xA0 SHL SUB NOT DUP4 AND OR SWAP1 SWAP3 SSTORE DUP2 AND PUSH1 0x0 DUP2 DUP2 MSTORE PUSH1 0x1B PUSH1 0x20 MSTORE PUSH1 0x40 DUP1 DUP3 KECCAK256 SLOAD PUSH1 0x19 SLOAD SWAP1 SWAP5 AND DUP3 MSTORE SWAP1 KECCAK256 SLOAD SWAP1 SWAP2 PUSH2 0xE9D SWAP2 PUSH2 0x3BF4 JUMP JUMPDEST PUSH1 0x3 SLOAD PUSH1 0x1 PUSH1 0x1 PUSH1 0xA0 SHL SUB PUSH2 0x100 SWAP1 SWAP2 DIV AND CALLER EQ PUSH2 0x232D JUMPI PUSH1 0x40 MLOAD PUSH3 0x461BCD PUSH1 0xE5 SHL DUP2 MSTORE PUSH1 0x4 ADD PUSH2 0xC63 SWAP1 PUSH2 0x4310 JUMP JUMPDEST DUP1 ISZERO PUSH2 0x2377 JUMPI PUSH1 0x1A DUP1 SLOAD PUSH1 0x1 PUSH1 0x1 PUSH1 0xA0 SHL SUB DUP5 DUP2 AND PUSH1 0x1 PUSH1 0x1 PUSH1 0xA0 SHL SUB NOT DUP4 AND DUP2 OR SWAP1 SWAP4 SSTORE AND PUSH1 0x0 DUP2 DUP2 MSTORE PUSH1 0x1B PUSH1 0x20 MSTORE PUSH1 0x40 DUP1 DUP3 KECCAK256 DUP1 SLOAD SWAP5 DUP4 MSTORE SWAP1 DUP3 KECCAK256 SWAP4 SWAP1 SWAP4 SSTORE SWAP1 DUP2 MSTORE SWAP1 SSTORE POP POP JUMP JUMPDEST PUSH1 0x1A DUP1 SLOAD PUSH1 0x1 PUSH1 0x1 PUSH1 0xA0 SHL SUB DUP5 DUP2 AND PUSH1 0x1 PUSH1 0x1 PUSH1 0xA0 SHL SUB NOT DUP4 AND OR SWAP1 SWAP3 SSTORE DUP2 AND PUSH1 0x0 DUP2 DUP2 MSTORE PUSH1 0x1B PUSH1 0x20 MSTORE PUSH1 0x40 DUP1 DUP3 KECCAK256 SLOAD PUSH1 0x19 SLOAD SWAP1 SWAP5 AND DUP3 MSTORE SWAP1 KECCAK256 SLOAD SWAP1 SWAP2 PUSH2 0xE9D SWAP2 PUSH2 0x3BF4 JUMP JUMPDEST PUSH1 0x7 DUP1 SLOAD PUSH2 0x1E48 SWAP1 PUSH2 0x42D5 JUMP JUMPDEST PUSH1 0x0 DUP1 MSTORE PUSH1 0x1D PUSH1 0x20 MSTORE PUSH1 0x0 DUP1 MLOAD PUSH1 0x20 PUSH2 0x4884 DUP4 CODECOPY DUP2 MLOAD SWAP2 MSTORE SLOAD PUSH1 0x1 PUSH1 0x1 PUSH1 0xA0 SHL SUB AND CALLER EQ DUP1 PUSH2 0x241A JUMPI POP PUSH1 0x3 SLOAD PUSH2 0x100 SWAP1 DIV PUSH1 0x1 PUSH1 0x1 PUSH1 0xA0 SHL SUB AND PUSH1 0x1 PUSH1 0x1 PUSH1 0xA0 SHL SUB AND CALLER PUSH1 0x1 PUSH1 0x1 PUSH1 0xA0 SHL SUB AND EQ JUMPDEST PUSH2 0x2423 JUMPI PUSH1 0x0 DUP1 REVERT JUMPDEST PUSH1 0xF SLOAD PUSH2 0x2432 PUSH1 0x11 SLOAD TIMESTAMP PUSH2 0x3381 JUMP JUMPDEST LT ISZERO PUSH2 0x2450 JUMPI PUSH1 0x40 MLOAD PUSH3 0x461BCD PUSH1 0xE5 SHL DUP2 MSTORE PUSH1 0x4 ADD PUSH2 0xC63 SWAP1 PUSH2 0x4400 JUMP JUMPDEST PUSH1 0x1 PUSH1 0x1 PUSH1 0xA0 SHL SUB DUP2 AND PUSH1 0x0 SWAP1 DUP2 MSTORE PUSH1 0x1C PUSH1 0x20 MSTORE PUSH1 0x40 SWAP1 KECCAK256 SLOAD ISZERO PUSH2 0x24B6 JUMPI PUSH1 0x40 MLOAD PUSH3 0x461BCD PUSH1 0xE5 SHL DUP2 MSTORE PUSH1 0x20 PUSH1 0x4 DUP3 ADD DUP2 SWAP1 MSTORE PUSH1 0x24 DUP3 ADD MSTORE PUSH32 0x546869732061646472657373206861732061697264726F70207469636B657473 PUSH1 0x44 DUP3 ADD MSTORE PUSH1 0x64 ADD PUSH2 0xC63 JUMP JUMPDEST TIMESTAMP PUSH1 0x11 SSTORE PUSH1 0x1 PUSH1 0x1 PUSH1 0xA0 SHL SUB AND PUSH1 0x0 SWAP1 DUP2 MSTORE PUSH1 0x1C PUSH1 0x20 MSTORE PUSH1 0x40 SWAP1 KECCAK256 PUSH1 0x1 SWAP1 SSTORE JUMP JUMPDEST PUSH1 0x3 SLOAD PUSH1 0xFF AND ISZERO PUSH2 0x24FA JUMPI PUSH1 0x40 MLOAD PUSH3 0x461BCD PUSH1 0xE5 SHL DUP2 MSTORE PUSH1 0x4 ADD PUSH2 0xC63 SWAP1 PUSH2 0x4376 JUMP JUMPDEST PUSH1 0xE SLOAD PUSH2 0x2509 PUSH1 0x10 SLOAD TIMESTAMP PUSH2 0x3381 JUMP JUMPDEST LT ISZERO PUSH2 0x2527 JUMPI PUSH1 0x40 MLOAD PUSH3 0x461BCD PUSH1 0xE5 SHL DUP2 MSTORE PUSH1 0x4 ADD PUSH2 0xC63 SWAP1 PUSH2 0x4400 JUMP JUMPDEST PUSH1 0xD SLOAD PUSH2 0x2576 JUMPI PUSH1 0x40 MLOAD PUSH3 0x461BCD PUSH1 0xE5 SHL DUP2 MSTORE PUSH1 0x20 PUSH1 0x4 DUP3 ADD MSTORE PUSH1 0x1A PUSH1 0x24 DUP3 ADD MSTORE PUSH32 0x7468657265206973206E6F7420616E7920726567697374657273000000000000 PUSH1 0x44 DUP3 ADD MSTORE PUSH1 0x64 ADD PUSH2 0xC63 JUMP JUMPDEST PUSH1 0x0 PUSH2 0x2586 PUSH1 0x15 SLOAD PUSH1 0x14 SLOAD PUSH2 0x33AF JUMP JUMPDEST SWAP1 POP PUSH32 0x41B48BB4A3FA87F36CD1B5550EF4AF0E4C2568EA37629540B9209F5509B4A42F DUP2 PUSH1 0x40 MLOAD PUSH2 0x25B9 SWAP2 DUP2 MSTORE PUSH1 0x20 ADD SWAP1 JUMP JUMPDEST PUSH1 0x40 MLOAD DUP1 SWAP2 SUB SWAP1 LOG1 POP JUMP JUMPDEST PUSH1 0x3 SLOAD PUSH1 0xFF AND ISZERO PUSH2 0x25E7 JUMPI PUSH1 0x40 MLOAD PUSH3 0x461BCD PUSH1 0xE5 SHL DUP2 MSTORE PUSH1 0x4 ADD PUSH2 0xC63 SWAP1 PUSH2 0x4376 JUMP JUMPDEST PUSH1 0x1 PUSH1 0x0 JUMPDEST PUSH1 0xD SLOAD DUP2 LT ISZERO PUSH2 0x2645 JUMPI CALLER PUSH1 0x1 PUSH1 0x1 PUSH1 0xA0 SHL SUB AND PUSH1 0xD DUP3 DUP2 SLOAD DUP2 LT PUSH2 0x2613 JUMPI PUSH2 0x2613 PUSH2 0x4345 JUMP JUMPDEST PUSH1 0x0 SWAP2 DUP3 MSTORE PUSH1 0x20 SWAP1 SWAP2 KECCAK256 ADD SLOAD PUSH1 0x1 PUSH1 0x1 PUSH1 0xA0 SHL SUB AND EQ ISZERO PUSH2 0x2633 JUMPI PUSH1 0x0 SWAP2 POP JUMPDEST DUP1 PUSH2 0x263D DUP2 PUSH2 0x435B JUMP JUMPDEST SWAP2 POP POP PUSH2 0x25EC JUMP JUMPDEST POP DUP1 PUSH2 0x26AA JUMPI PUSH1 0x40 MLOAD PUSH3 0x461BCD PUSH1 0xE5 SHL DUP2 MSTORE PUSH1 0x20 PUSH1 0x4 DUP3 ADD MSTORE PUSH1 0x2E PUSH1 0x24 DUP3 ADD MSTORE PUSH32 0x596F7520616C72656164792068617665206265656E2072656769737465726564 PUSH1 0x44 DUP3 ADD MSTORE PUSH14 0x20666F722074686973207765656B PUSH1 0x90 SHL PUSH1 0x64 DUP3 ADD MSTORE PUSH1 0x84 ADD PUSH2 0xC63 JUMP JUMPDEST PUSH1 0xD DUP1 SLOAD PUSH1 0x1 DUP2 ADD DUP3 SSTORE PUSH1 0x0 SWAP2 DUP3 MSTORE PUSH32 0xD7B6990105719101DABEB77144F2A3385C8033ACD3AF97E9423A695E81AD1EB5 ADD DUP1 SLOAD PUSH1 0x1 PUSH1 0x1 PUSH1 0xA0 SHL SUB NOT AND CALLER SWAP1 DUP2 OR SWAP1 SWAP2 SSTORE PUSH1 0x40 MLOAD SWAP1 SWAP2 PUSH32 0xE0E462347257E042FB3036336D3F35CE831166D31E2CEFC46D0D5046426D8175 SWAP2 LOG2 POP JUMP JUMPDEST PUSH1 0x1 PUSH1 0x1 PUSH1 0xA0 SHL SUB DUP6 AND CALLER EQ DUP1 PUSH2 0x2735 JUMPI POP PUSH2 0x2735 DUP6 CALLER PUSH2 0xB04 JUMP JUMPDEST PUSH2 0x2793 JUMPI PUSH1 0x40 MLOAD PUSH3 0x461BCD PUSH1 0xE5 SHL DUP2 MSTORE PUSH1 0x20 PUSH1 0x4 DUP3 ADD MSTORE PUSH1 0x29 PUSH1 0x24 DUP3 ADD MSTORE PUSH32 0x455243313135353A2063616C6C6572206973206E6F74206F776E6572206E6F72 PUSH1 0x44 DUP3 ADD MSTORE PUSH9 0x8185C1C1C9BDD9959 PUSH1 0xBA SHL PUSH1 0x64 DUP3 ADD MSTORE PUSH1 0x84 ADD PUSH2 0xC63 JUMP JUMPDEST PUSH2 0x1728 DUP6 DUP6 DUP6 DUP6 DUP6 PUSH2 0x352B JUMP JUMPDEST PUSH1 0x3 SLOAD PUSH1 0x1 PUSH1 0x1 PUSH1 0xA0 SHL SUB PUSH2 0x100 SWAP1 SWAP2 DIV AND CALLER EQ PUSH2 0x27D0 JUMPI PUSH1 0x40 MLOAD PUSH3 0x461BCD PUSH1 0xE5 SHL DUP2 MSTORE PUSH1 0x4 ADD PUSH2 0xC63 SWAP1 PUSH2 0x4310 JUMP JUMPDEST PUSH1 0x1 PUSH1 0x1 PUSH1 0xA0 SHL SUB DUP2 AND PUSH2 0x2835 JUMPI PUSH1 0x40 MLOAD PUSH3 0x461BCD PUSH1 0xE5 SHL DUP2 MSTORE PUSH1 0x20 PUSH1 0x4 DUP3 ADD MSTORE PUSH1 0x26 PUSH1 0x24 DUP3 ADD MSTORE PUSH32 0x4F776E61626C653A206E6577206F776E657220697320746865207A65726F2061 PUSH1 0x44 DUP3 ADD MSTORE PUSH6 0x646472657373 PUSH1 0xD0 SHL PUSH1 0x64 DUP3 ADD MSTORE PUSH1 0x84 ADD PUSH2 0xC63 JUMP JUMPDEST PUSH2 0x283E DUP2 PUSH2 0x30B5 JUMP JUMPDEST POP JUMP JUMPDEST PUSH1 0x3 SLOAD PUSH1 0x1 PUSH1 0x1 PUSH1 0xA0 SHL SUB PUSH2 0x100 SWAP1 SWAP2 DIV AND CALLER EQ PUSH2 0x2871 JUMPI PUSH1 0x40 MLOAD PUSH3 0x461BCD PUSH1 0xE5 SHL DUP2 MSTORE PUSH1 0x4 ADD PUSH2 0xC63 SWAP1 PUSH2 0x4310 JUMP JUMPDEST DUP1 ISZERO PUSH2 0x28BB JUMPI PUSH1 0x18 DUP1 SLOAD PUSH1 0x1 PUSH1 0x1 PUSH1 0xA0 SHL SUB DUP5 DUP2 AND PUSH1 0x1 PUSH1 0x1 PUSH1 0xA0 SHL SUB NOT DUP4 AND DUP2 OR SWAP1 SWAP4 SSTORE AND PUSH1 0x0 DUP2 DUP2 MSTORE PUSH1 0x1B PUSH1 0x20 MSTORE PUSH1 0x40 DUP1 DUP3 KECCAK256 DUP1 SLOAD SWAP5 DUP4 MSTORE SWAP1 DUP3 KECCAK256 SWAP4 SWAP1 SWAP4 SSTORE SWAP1 DUP2 MSTORE SWAP1 SSTORE POP POP JUMP JUMPDEST PUSH1 0x18 DUP1 SLOAD PUSH1 0x1 PUSH1 0x1 PUSH1 0xA0 SHL SUB DUP5 DUP2 AND PUSH1 0x1 PUSH1 0x1 PUSH1 0xA0 SHL SUB NOT DUP4 AND OR SWAP1 SWAP3 SSTORE DUP2 AND PUSH1 0x0 DUP2 DUP2 MSTORE PUSH1 0x1B PUSH1 0x20 MSTORE PUSH1 0x40 DUP1 DUP3 KECCAK256 SLOAD PUSH1 0x19 SLOAD SWAP1 SWAP5 AND DUP3 MSTORE SWAP1 KECCAK256 SLOAD SWAP1 SWAP2 PUSH2 0xE9D SWAP2 PUSH2 0x3BF4 JUMP JUMPDEST PUSH1 0x0 DUP1 PUSH1 0x8 PUSH1 0x0 SWAP1 SLOAD SWAP1 PUSH2 0x100 EXP SWAP1 DIV PUSH1 0x1 PUSH1 0x1 PUSH1 0xA0 SHL SUB AND PUSH1 0x1 PUSH1 0x1 PUSH1 0xA0 SHL SUB AND PUSH4 0xFEAF968C PUSH1 0x40 MLOAD DUP2 PUSH4 0xFFFFFFFF AND PUSH1 0xE0 SHL DUP2 MSTORE PUSH1 0x4 ADD PUSH1 0xA0 PUSH1 0x40 MLOAD DUP1 DUP4 SUB DUP2 DUP7 GAS STATICCALL ISZERO DUP1 ISZERO PUSH2 0x2957 JUMPI RETURNDATASIZE PUSH1 0x0 DUP1 RETURNDATACOPY RETURNDATASIZE PUSH1 0x0 REVERT JUMPDEST POP POP POP POP PUSH1 0x40 MLOAD RETURNDATASIZE PUSH1 0x1F NOT PUSH1 0x1F DUP3 ADD AND DUP3 ADD DUP1 PUSH1 0x40 MSTORE POP DUP2 ADD SWAP1 PUSH2 0x297B SWAP2 SWAP1 PUSH2 0x444A JUMP JUMPDEST POP POP POP SWAP2 POP POP PUSH1 0x0 DUP2 PUSH5 0x2540BE400 PUSH2 0x2994 SWAP2 SWAP1 PUSH2 0x43B7 JUMP JUMPDEST SWAP1 POP DUP1 PUSH1 0xC SLOAD PUSH8 0xDE0B6B3A7640000 PUSH2 0x29AD SWAP2 SWAP1 PUSH2 0x43B7 JUMP JUMPDEST PUSH2 0x29B7 SWAP2 SWAP1 PUSH2 0x43EC JUMP JUMPDEST SWAP3 POP POP POP SWAP1 JUMP JUMPDEST PUSH1 0x6 DUP1 SLOAD PUSH2 0x1E48 SWAP1 PUSH2 0x42D5 JUMP JUMPDEST PUSH1 0x3 SLOAD PUSH1 0x1 PUSH1 0x1 PUSH1 0xA0 SHL SUB PUSH2 0x100 SWAP1 SWAP2 DIV AND CALLER EQ PUSH2 0x29FB JUMPI PUSH1 0x40 MLOAD PUSH3 0x461BCD PUSH1 0xE5 SHL DUP2 MSTORE PUSH1 0x4 ADD PUSH2 0xC63 SWAP1 PUSH2 0x4310 JUMP JUMPDEST PUSH2 0x106D PUSH2 0x3648 JUMP JUMPDEST PUSH1 0x0 PUSH3 0x15180 PUSH2 0x2A14 DUP6 DUP6 DUP6 PUSH2 0x36C2 JUMP JUMPDEST PUSH2 0xCF1 SWAP2 SWAP1 PUSH2 0x43B7 JUMP JUMPDEST PUSH1 0x3 SLOAD PUSH1 0xFF AND ISZERO PUSH2 0x2A41 JUMPI PUSH1 0x40 MLOAD PUSH3 0x461BCD PUSH1 0xE5 SHL DUP2 MSTORE PUSH1 0x4 ADD PUSH2 0xC63 SWAP1 PUSH2 0x4376 JUMP JUMPDEST PUSH1 0x3 DUP1 SLOAD PUSH1 0xFF NOT AND PUSH1 0x1 OR SWAP1 SSTORE PUSH32 0x62E78CEA01BEE320CD4E420270B5EA74000D11B0C9F74754EBDBFC544B05A258 PUSH2 0x2A76 CALLER SWAP1 JUMP JUMPDEST PUSH1 0x40 MLOAD PUSH1 0x1 PUSH1 0x1 PUSH1 0xA0 SHL SUB SWAP1 SWAP2 AND DUP2 MSTORE PUSH1 0x20 ADD PUSH1 0x40 MLOAD DUP1 SWAP2 SUB SWAP1 LOG1 JUMP JUMPDEST PUSH1 0x0 PUSH2 0x2AA0 PUSH1 0x4 DUP4 PUSH2 0x449A JUMP JUMPDEST ISZERO DUP1 ISZERO PUSH2 0x2AB6 JUMPI POP PUSH2 0x2AB3 PUSH1 0x64 DUP4 PUSH2 0x449A JUMP JUMPDEST ISZERO ISZERO JUMPDEST DUP1 PUSH2 0xCDE JUMPI POP PUSH2 0x2AC8 PUSH2 0x190 DUP4 PUSH2 0x449A JUMP JUMPDEST ISZERO SWAP3 SWAP2 POP POP JUMP JUMPDEST PUSH1 0x0 PUSH2 0x2ADC PUSH1 0x5 DUP4 PUSH2 0x43EC JUMP JUMPDEST PUSH1 0x13 SLOAD SWAP1 SWAP2 POP PUSH1 0x5 LT ISZERO PUSH2 0x2BE0 JUMPI PUSH1 0x0 JUMPDEST PUSH1 0x5 DUP2 LT ISZERO PUSH2 0x2BDB JUMPI PUSH1 0x13 DUP1 SLOAD PUSH1 0x0 SWAP2 DUP4 PUSH2 0x2B09 PUSH1 0x1 DUP5 PUSH2 0x43A0 JUMP JUMPDEST PUSH2 0x2B13 SWAP2 SWAP1 PUSH2 0x43A0 JUMP JUMPDEST DUP2 SLOAD DUP2 LT PUSH2 0x2B23 JUMPI PUSH2 0x2B23 PUSH2 0x4345 JUMP JUMPDEST SWAP1 PUSH1 0x0 MSTORE PUSH1 0x20 PUSH1 0x0 KECCAK256 ADD SLOAD PUSH2 0x2B38 SWAP2 SWAP1 PUSH2 0x449A JUMP JUMPDEST PUSH1 0x0 DUP2 DUP2 MSTORE PUSH1 0x1D PUSH1 0x20 SWAP1 DUP2 MSTORE PUSH1 0x40 DUP1 DUP4 KECCAK256 SLOAD PUSH1 0x1 PUSH1 0x1 PUSH1 0xA0 SHL SUB AND DUP4 MSTORE PUSH1 0x1B SWAP1 SWAP2 MSTORE SWAP1 KECCAK256 SLOAD SWAP1 SWAP2 POP PUSH2 0x2B6B SWAP1 DUP5 SWAP1 PUSH2 0x3BF4 JUMP JUMPDEST PUSH1 0x0 DUP3 DUP2 MSTORE PUSH1 0x1D PUSH1 0x20 DUP2 DUP2 MSTORE PUSH1 0x40 DUP1 DUP5 KECCAK256 DUP1 SLOAD PUSH1 0x1 PUSH1 0x1 PUSH1 0xA0 SHL SUB SWAP1 DUP2 AND DUP7 MSTORE PUSH1 0x1B DUP5 MSTORE DUP3 DUP7 KECCAK256 SWAP7 SWAP1 SWAP7 SSTORE DUP7 DUP6 MSTORE SWAP3 SWAP1 SWAP2 MSTORE SWAP1 SLOAD SWAP1 MLOAD SWAP3 AND SWAP2 PUSH32 0xEC89F096AB194D04CC1A0689E9D8459793609DA7CCDDF64B4423E830B98743EC SWAP2 SWAP1 LOG2 POP DUP1 PUSH2 0x2BD3 DUP2 PUSH2 0x435B JUMP JUMPDEST SWAP2 POP POP PUSH2 0x2AED JUMP JUMPDEST POP POP POP JUMP JUMPDEST PUSH1 0x19 SLOAD PUSH1 0x1 PUSH1 0x1 PUSH1 0xA0 SHL SUB AND PUSH1 0x0 SWAP1 DUP2 MSTORE PUSH1 0x1B PUSH1 0x20 MSTORE PUSH1 0x40 SWAP1 KECCAK256 SLOAD PUSH2 0x2C06 SWAP1 DUP4 SWAP1 PUSH2 0x3BF4 JUMP JUMPDEST PUSH1 0x19 SLOAD PUSH1 0x1 PUSH1 0x1 PUSH1 0xA0 SHL SUB AND PUSH1 0x0 SWAP1 DUP2 MSTORE PUSH1 0x1B PUSH1 0x20 MSTORE PUSH1 0x40 SWAP1 KECCAK256 SSTORE POP POP JUMP JUMPDEST PUSH1 0x1 PUSH1 0x1 PUSH1 0xA0 SHL SUB DUP5 AND PUSH2 0x2C85 JUMPI PUSH1 0x40 MLOAD PUSH3 0x461BCD PUSH1 0xE5 SHL DUP2 MSTORE PUSH1 0x20 PUSH1 0x4 DUP3 ADD MSTORE PUSH1 0x21 PUSH1 0x24 DUP3 ADD MSTORE PUSH32 0x455243313135353A206D696E7420746F20746865207A65726F20616464726573 PUSH1 0x44 DUP3 ADD MSTORE PUSH1 0x73 PUSH1 0xF8 SHL PUSH1 0x64 DUP3 ADD MSTORE PUSH1 0x84 ADD PUSH2 0xC63 JUMP JUMPDEST CALLER PUSH2 0x2CA5 DUP2 PUSH1 0x0 DUP8 PUSH2 0x2C96 DUP9 PUSH2 0x37FF JUMP JUMPDEST PUSH2 0x2C9F DUP9 PUSH2 0x37FF JUMP JUMPDEST DUP8 PUSH2 0x384A JUMP JUMPDEST PUSH1 0x0 DUP5 DUP2 MSTORE PUSH1 0x20 DUP2 DUP2 MSTORE PUSH1 0x40 DUP1 DUP4 KECCAK256 PUSH1 0x1 PUSH1 0x1 PUSH1 0xA0 SHL SUB DUP10 AND DUP5 MSTORE SWAP1 SWAP2 MSTORE DUP2 KECCAK256 DUP1 SLOAD DUP6 SWAP3 SWAP1 PUSH2 0x2CD5 SWAP1 DUP5 SWAP1 PUSH2 0x3BF4 JUMP JUMPDEST SWAP1 SWAP2 SSTORE POP POP PUSH1 0x40 DUP1 MLOAD DUP6 DUP2 MSTORE PUSH1 0x20 DUP2 ADD DUP6 SWAP1 MSTORE PUSH1 0x1 PUSH1 0x1 PUSH1 0xA0 SHL SUB DUP1 DUP9 AND SWAP3 PUSH1 0x0 SWAP3 SWAP2 DUP6 AND SWAP2 PUSH32 0xC3D58168C5AE7397731D063D5BBF3D657854427343F4C083240F7AACAA2D0F62 SWAP2 ADD PUSH1 0x40 MLOAD DUP1 SWAP2 SUB SWAP1 LOG4 PUSH2 0x1728 DUP2 PUSH1 0x0 DUP8 DUP8 DUP8 DUP8 PUSH2 0x38B2 JUMP JUMPDEST PUSH1 0x13 SLOAD PUSH2 0x3E8 GT PUSH2 0x106D JUMPI PUSH1 0x1E PUSH1 0xE SSTORE JUMP JUMPDEST PUSH10 0x152D02C7E14AF6800000 PUSH1 0xC SLOAD LT ISZERO PUSH2 0x106D JUMPI PUSH1 0x13 SLOAD PUSH2 0x2D6B SWAP1 PUSH2 0x5B4 SWAP1 PUSH2 0x449A JUMP JUMPDEST PUSH2 0x2D81 JUMPI PUSH1 0xA SLOAD PUSH2 0x2D7D SWAP1 PUSH1 0x2 PUSH2 0x43B7 JUMP JUMPDEST PUSH1 0xA SSTORE JUMPDEST PUSH1 0x13 SLOAD PUSH2 0x2D91 SWAP1 PUSH2 0x16D SWAP1 PUSH2 0x449A JUMP JUMPDEST PUSH2 0x2DA9 JUMPI PUSH1 0xA SLOAD PUSH1 0xC SLOAD PUSH2 0x2DA5 SWAP2 SWAP1 PUSH2 0x3BF4 JUMP JUMPDEST PUSH1 0xC SSTORE JUMPDEST PUSH10 0x152D02C7E14AF6800000 PUSH1 0xC SLOAD GT ISZERO PUSH2 0x106D JUMPI PUSH10 0x152D02C7E14AF6800000 PUSH1 0xC SSTORE JUMP JUMPDEST DUP2 MLOAD DUP4 MLOAD EQ PUSH2 0x2E2F JUMPI PUSH1 0x40 MLOAD PUSH3 0x461BCD PUSH1 0xE5 SHL DUP2 MSTORE PUSH1 0x20 PUSH1 0x4 DUP3 ADD MSTORE PUSH1 0x28 PUSH1 0x24 DUP3 ADD MSTORE PUSH32 0x455243313135353A2069647320616E6420616D6F756E7473206C656E67746820 PUSH1 0x44 DUP3 ADD MSTORE PUSH8 0xDAD2E6DAC2E8C6D PUSH1 0xC3 SHL PUSH1 0x64 DUP3 ADD MSTORE PUSH1 0x84 ADD PUSH2 0xC63 JUMP JUMPDEST PUSH1 0x1 PUSH1 0x1 PUSH1 0xA0 SHL SUB DUP5 AND PUSH2 0x2E55 JUMPI PUSH1 0x40 MLOAD PUSH3 0x461BCD PUSH1 0xE5 SHL DUP2 MSTORE PUSH1 0x4 ADD PUSH2 0xC63 SWAP1 PUSH2 0x44AE JUMP JUMPDEST CALLER PUSH2 0x2E64 DUP2 DUP8 DUP8 DUP8 DUP8 DUP8 PUSH2 0x384A JUMP JUMPDEST PUSH1 0x0 JUMPDEST DUP5 MLOAD DUP2 LT ISZERO PUSH2 0x2F4A JUMPI PUSH1 0x0 DUP6 DUP3 DUP2 MLOAD DUP2 LT PUSH2 0x2E84 JUMPI PUSH2 0x2E84 PUSH2 0x4345 JUMP JUMPDEST PUSH1 0x20 MUL PUSH1 0x20 ADD ADD MLOAD SWAP1 POP PUSH1 0x0 DUP6 DUP4 DUP2 MLOAD DUP2 LT PUSH2 0x2EA2 JUMPI PUSH2 0x2EA2 PUSH2 0x4345 JUMP JUMPDEST PUSH1 0x20 SWAP1 DUP2 MUL SWAP2 SWAP1 SWAP2 ADD DUP2 ADD MLOAD PUSH1 0x0 DUP5 DUP2 MSTORE DUP1 DUP4 MSTORE PUSH1 0x40 DUP1 DUP3 KECCAK256 PUSH1 0x1 PUSH1 0x1 PUSH1 0xA0 SHL SUB DUP15 AND DUP4 MSTORE SWAP1 SWAP4 MSTORE SWAP2 SWAP1 SWAP2 KECCAK256 SLOAD SWAP1 SWAP2 POP DUP2 DUP2 LT ISZERO PUSH2 0x2EF2 JUMPI PUSH1 0x40 MLOAD PUSH3 0x461BCD PUSH1 0xE5 SHL DUP2 MSTORE PUSH1 0x4 ADD PUSH2 0xC63 SWAP1 PUSH2 0x44F3 JUMP JUMPDEST PUSH1 0x0 DUP4 DUP2 MSTORE PUSH1 0x20 DUP2 DUP2 MSTORE PUSH1 0x40 DUP1 DUP4 KECCAK256 PUSH1 0x1 PUSH1 0x1 PUSH1 0xA0 SHL SUB DUP15 DUP2 AND DUP6 MSTORE SWAP3 MSTORE DUP1 DUP4 KECCAK256 DUP6 DUP6 SUB SWAP1 SSTORE SWAP1 DUP12 AND DUP3 MSTORE DUP2 KECCAK256 DUP1 SLOAD DUP5 SWAP3 SWAP1 PUSH2 0x2F2F SWAP1 DUP5 SWAP1 PUSH2 0x3BF4 JUMP JUMPDEST SWAP3 POP POP DUP2 SWAP1 SSTORE POP POP POP POP DUP1 PUSH2 0x2F43 SWAP1 PUSH2 0x435B JUMP JUMPDEST SWAP1 POP PUSH2 0x2E67 JUMP JUMPDEST POP DUP5 PUSH1 0x1 PUSH1 0x1 PUSH1 0xA0 SHL SUB AND DUP7 PUSH1 0x1 PUSH1 0x1 PUSH1 0xA0 SHL SUB AND DUP3 PUSH1 0x1 PUSH1 0x1 PUSH1 0xA0 SHL SUB AND PUSH32 0x4A39DC06D4C0DBC64B70AF90FD698A233A518AA5D07E595D983B8C0526C8F7FB DUP8 DUP8 PUSH1 0x40 MLOAD PUSH2 0x2F9A SWAP3 SWAP2 SWAP1 PUSH2 0x453D JUMP JUMPDEST PUSH1 0x40 MLOAD DUP1 SWAP2 SUB SWAP1 LOG4 PUSH2 0x2FB0 DUP2 DUP8 DUP8 DUP8 DUP8 DUP8 PUSH2 0x3A0E JUMP JUMPDEST POP POP POP POP POP POP JUMP JUMPDEST PUSH1 0x60 DUP2 PUSH2 0x2FDC JUMPI POP POP PUSH1 0x40 DUP1 MLOAD DUP1 DUP3 ADD SWAP1 SWAP2 MSTORE PUSH1 0x1 DUP2 MSTORE PUSH1 0x3 PUSH1 0xFC SHL PUSH1 0x20 DUP3 ADD MSTORE SWAP1 JUMP JUMPDEST DUP2 PUSH1 0x0 JUMPDEST DUP2 ISZERO PUSH2 0x3006 JUMPI DUP1 PUSH2 0x2FF0 DUP2 PUSH2 0x435B JUMP JUMPDEST SWAP2 POP PUSH2 0x2FFF SWAP1 POP PUSH1 0xA DUP4 PUSH2 0x43EC JUMP JUMPDEST SWAP2 POP PUSH2 0x2FE0 JUMP JUMPDEST PUSH1 0x0 DUP2 PUSH1 0x1 PUSH1 0x1 PUSH1 0x40 SHL SUB DUP2 GT ISZERO PUSH2 0x3020 JUMPI PUSH2 0x3020 PUSH2 0x3E20 JUMP JUMPDEST PUSH1 0x40 MLOAD SWAP1 DUP1 DUP3 MSTORE DUP1 PUSH1 0x1F ADD PUSH1 0x1F NOT AND PUSH1 0x20 ADD DUP3 ADD PUSH1 0x40 MSTORE DUP1 ISZERO PUSH2 0x304A JUMPI PUSH1 0x20 DUP3 ADD DUP2 DUP1 CALLDATASIZE DUP4 CALLDATACOPY ADD SWAP1 POP JUMPDEST POP SWAP1 POP JUMPDEST DUP5 ISZERO PUSH2 0xCF1 JUMPI PUSH2 0x305F PUSH1 0x1 DUP4 PUSH2 0x43A0 JUMP JUMPDEST SWAP2 POP PUSH2 0x306C PUSH1 0xA DUP7 PUSH2 0x449A JUMP JUMPDEST PUSH2 0x3077 SWAP1 PUSH1 0x30 PUSH2 0x3BF4 JUMP JUMPDEST PUSH1 0xF8 SHL DUP2 DUP4 DUP2 MLOAD DUP2 LT PUSH2 0x308C JUMPI PUSH2 0x308C PUSH2 0x4345 JUMP JUMPDEST PUSH1 0x20 ADD ADD SWAP1 PUSH1 0x1 PUSH1 0x1 PUSH1 0xF8 SHL SUB NOT AND SWAP1 DUP2 PUSH1 0x0 BYTE SWAP1 MSTORE8 POP PUSH2 0x30AE PUSH1 0xA DUP7 PUSH2 0x43EC JUMP JUMPDEST SWAP5 POP PUSH2 0x304E JUMP JUMPDEST PUSH1 0x3 DUP1 SLOAD PUSH1 0x1 PUSH1 0x1 PUSH1 0xA0 SHL SUB DUP4 DUP2 AND PUSH2 0x100 DUP2 DUP2 MUL PUSH2 0x100 PUSH1 0x1 PUSH1 0xA8 SHL SUB NOT DUP6 AND OR SWAP1 SWAP5 SSTORE PUSH1 0x40 MLOAD SWAP4 SWAP1 SWAP3 DIV AND SWAP2 DUP3 SWAP1 PUSH32 0x8BE0079C531659141344CD1FD0A4F28419497F9722A3DAAFE3B4186F6B6457E0 SWAP1 PUSH1 0x0 SWAP1 LOG3 POP POP JUMP JUMPDEST PUSH1 0x0 DUP2 GT PUSH2 0x315F JUMPI PUSH1 0x40 MLOAD PUSH3 0x461BCD PUSH1 0xE5 SHL DUP2 MSTORE PUSH1 0x20 PUSH1 0x4 DUP3 ADD MSTORE PUSH1 0x1A PUSH1 0x24 DUP3 ADD MSTORE PUSH32 0x72616E646F6D206E756D626572206973206E6F742076616C6964000000000000 PUSH1 0x44 DUP3 ADD MSTORE PUSH1 0x64 ADD PUSH2 0xC63 JUMP JUMPDEST PUSH1 0xE SLOAD PUSH2 0x316E PUSH1 0x10 SLOAD TIMESTAMP PUSH2 0x3381 JUMP JUMPDEST LT ISZERO PUSH2 0x318C JUMPI PUSH1 0x40 MLOAD PUSH3 0x461BCD PUSH1 0xE5 SHL DUP2 MSTORE PUSH1 0x4 ADD PUSH2 0xC63 SWAP1 PUSH2 0x4400 JUMP JUMPDEST TIMESTAMP PUSH1 0x10 SSTORE PUSH1 0xD SLOAD PUSH1 0x0 SWAP1 PUSH2 0x31A0 SWAP1 DUP4 PUSH2 0x449A JUMP JUMPDEST SWAP1 POP PUSH1 0x1C PUSH1 0x0 PUSH1 0xD DUP4 DUP2 SLOAD DUP2 LT PUSH2 0x31B9 JUMPI PUSH2 0x31B9 PUSH2 0x4345 JUMP JUMPDEST PUSH1 0x0 SWAP2 DUP3 MSTORE PUSH1 0x20 DUP1 DUP4 KECCAK256 SWAP1 SWAP2 ADD SLOAD PUSH1 0x1 PUSH1 0x1 PUSH1 0xA0 SHL SUB AND DUP4 MSTORE DUP3 ADD SWAP3 SWAP1 SWAP3 MSTORE PUSH1 0x40 ADD SWAP1 KECCAK256 SLOAD PUSH2 0x31E9 SWAP1 PUSH1 0x1 PUSH2 0x3BF4 JUMP JUMPDEST PUSH1 0x1C PUSH1 0x0 PUSH1 0xD DUP5 DUP2 SLOAD DUP2 LT PUSH2 0x3200 JUMPI PUSH2 0x3200 PUSH2 0x4345 JUMP JUMPDEST PUSH1 0x0 SWAP2 DUP3 MSTORE PUSH1 0x20 DUP1 DUP4 KECCAK256 SWAP1 SWAP2 ADD SLOAD PUSH1 0x1 PUSH1 0x1 PUSH1 0xA0 SHL SUB AND DUP4 MSTORE DUP3 ADD SWAP3 SWAP1 SWAP3 MSTORE PUSH1 0x40 ADD SWAP1 KECCAK256 SSTORE PUSH1 0xD DUP1 SLOAD DUP3 SWAP1 DUP2 LT PUSH2 0x3239 JUMPI PUSH2 0x3239 PUSH2 0x4345 JUMP JUMPDEST PUSH1 0x0 SWAP2 DUP3 MSTORE PUSH1 0x20 SWAP2 DUP3 SWAP1 KECCAK256 ADD SLOAD PUSH1 0x40 MLOAD DUP5 DUP2 MSTORE PUSH1 0x1 PUSH1 0x1 PUSH1 0xA0 SHL SUB SWAP1 SWAP2 AND SWAP2 PUSH32 0xF101ADF3FBAF187819A99E49DD82FDBACC051E51337A2FE291907F90C263C1E2 SWAP2 ADD PUSH1 0x40 MLOAD DUP1 SWAP2 SUB SWAP1 LOG2 PUSH1 0x40 DUP1 MLOAD PUSH1 0x0 DUP2 MSTORE PUSH1 0x20 DUP2 ADD SWAP2 DUP3 SWAP1 MSTORE MLOAD PUSH2 0x2173 SWAP2 PUSH1 0xD SWAP2 PUSH2 0x3B74 JUMP JUMPDEST DUP2 PUSH1 0x1 PUSH1 0x1 PUSH1 0xA0 SHL SUB AND DUP4 PUSH1 0x1 PUSH1 0x1 PUSH1 0xA0 SHL SUB AND EQ ISZERO PUSH2 0x3314 JUMPI PUSH1 0x40 MLOAD PUSH3 0x461BCD PUSH1 0xE5 SHL DUP2 MSTORE PUSH1 0x20 PUSH1 0x4 DUP3 ADD MSTORE PUSH1 0x29 PUSH1 0x24 DUP3 ADD MSTORE PUSH32 0x455243313135353A2073657474696E6720617070726F76616C20737461747573 PUSH1 0x44 DUP3 ADD MSTORE PUSH9 0x103337B91039B2B633 PUSH1 0xB9 SHL PUSH1 0x64 DUP3 ADD MSTORE PUSH1 0x84 ADD PUSH2 0xC63 JUMP JUMPDEST PUSH1 0x1 PUSH1 0x1 PUSH1 0xA0 SHL SUB DUP4 DUP2 AND PUSH1 0x0 DUP2 DUP2 MSTORE PUSH1 0x1 PUSH1 0x20 SWAP1 DUP2 MSTORE PUSH1 0x40 DUP1 DUP4 KECCAK256 SWAP5 DUP8 AND DUP1 DUP5 MSTORE SWAP5 DUP3 MSTORE SWAP2 DUP3 SWAP1 KECCAK256 DUP1 SLOAD PUSH1 0xFF NOT AND DUP7 ISZERO ISZERO SWAP1 DUP2 OR SWAP1 SWAP2 SSTORE SWAP2 MLOAD SWAP2 DUP3 MSTORE PUSH32 0x17307EAB39AB6107E8899845AD3D59BD9653F200F220920489CA2B5937696C31 SWAP2 ADD PUSH1 0x40 MLOAD DUP1 SWAP2 SUB SWAP1 LOG3 POP POP POP JUMP JUMPDEST PUSH1 0x0 DUP2 DUP4 GT ISZERO PUSH2 0x3390 JUMPI PUSH1 0x0 DUP1 REVERT JUMPDEST PUSH3 0x15180 PUSH2 0x339E DUP5 DUP5 PUSH2 0x43A0 JUMP JUMPDEST PUSH2 0x33A8 SWAP2 SWAP1 PUSH2 0x43EC JUMP JUMPDEST SWAP4 SWAP3 POP POP POP JUMP JUMPDEST PUSH1 0x0 PUSH32 0x0 PUSH1 0x1 PUSH1 0x1 PUSH1 0xA0 SHL SUB AND PUSH4 0x4000AEA0 PUSH32 0x0 DUP5 DUP7 PUSH1 0x0 PUSH1 0x40 MLOAD PUSH1 0x20 ADD PUSH2 0x341F SWAP3 SWAP2 SWAP1 SWAP2 DUP3 MSTORE PUSH1 0x20 DUP3 ADD MSTORE PUSH1 0x40 ADD SWAP1 JUMP JUMPDEST PUSH1 0x40 MLOAD PUSH1 0x20 DUP2 DUP4 SUB SUB DUP2 MSTORE SWAP1 PUSH1 0x40 MSTORE PUSH1 0x40 MLOAD DUP5 PUSH4 0xFFFFFFFF AND PUSH1 0xE0 SHL DUP2 MSTORE PUSH1 0x4 ADD PUSH2 0x344C SWAP4 SWAP3 SWAP2 SWAP1 PUSH2 0x456B JUMP JUMPDEST PUSH1 0x20 PUSH1 0x40 MLOAD DUP1 DUP4 SUB DUP2 PUSH1 0x0 DUP8 GAS CALL ISZERO DUP1 ISZERO PUSH2 0x346B JUMPI RETURNDATASIZE PUSH1 0x0 DUP1 RETURNDATACOPY RETURNDATASIZE PUSH1 0x0 REVERT JUMPDEST POP POP POP POP PUSH1 0x40 MLOAD RETURNDATASIZE PUSH1 0x1F NOT PUSH1 0x1F DUP3 ADD AND DUP3 ADD DUP1 PUSH1 0x40 MSTORE POP DUP2 ADD SWAP1 PUSH2 0x348F SWAP2 SWAP1 PUSH2 0x4592 JUMP JUMPDEST POP PUSH1 0x0 DUP4 DUP2 MSTORE PUSH1 0x4 PUSH1 0x20 DUP2 DUP2 MSTORE PUSH1 0x40 DUP1 DUP5 KECCAK256 SLOAD DUP2 MLOAD DUP1 DUP5 ADD DUP10 SWAP1 MSTORE DUP1 DUP4 ADD DUP7 SWAP1 MSTORE ADDRESS PUSH1 0x60 DUP3 ADD MSTORE PUSH1 0x80 DUP1 DUP3 ADD DUP4 SWAP1 MSTORE DUP4 MLOAD DUP1 DUP4 SUB SWAP1 SWAP2 ADD DUP2 MSTORE PUSH1 0xA0 SWAP1 SWAP2 ADD SWAP1 SWAP3 MSTORE DUP2 MLOAD SWAP2 DUP4 ADD SWAP2 SWAP1 SWAP2 KECCAK256 SWAP4 DUP8 SWAP1 MSTORE SWAP2 SWAP1 MSTORE PUSH2 0x34EB SWAP1 PUSH1 0x1 PUSH2 0x3BF4 JUMP JUMPDEST PUSH1 0x0 DUP6 DUP2 MSTORE PUSH1 0x4 PUSH1 0x20 MSTORE PUSH1 0x40 SWAP1 KECCAK256 SSTORE PUSH2 0xCF1 DUP5 DUP3 PUSH1 0x40 DUP1 MLOAD PUSH1 0x20 DUP1 DUP3 ADD SWAP5 SWAP1 SWAP5 MSTORE DUP1 DUP3 ADD SWAP3 SWAP1 SWAP3 MSTORE DUP1 MLOAD DUP1 DUP4 SUB DUP3 ADD DUP2 MSTORE PUSH1 0x60 SWAP1 SWAP3 ADD SWAP1 MSTORE DUP1 MLOAD SWAP2 ADD KECCAK256 SWAP1 JUMP JUMPDEST PUSH1 0x1 PUSH1 0x1 PUSH1 0xA0 SHL SUB DUP5 AND PUSH2 0x3551 JUMPI PUSH1 0x40 MLOAD PUSH3 0x461BCD PUSH1 0xE5 SHL DUP2 MSTORE PUSH1 0x4 ADD PUSH2 0xC63 SWAP1 PUSH2 0x44AE JUMP JUMPDEST CALLER PUSH2 0x3561 DUP2 DUP8 DUP8 PUSH2 0x2C96 DUP9 PUSH2 0x37FF JUMP JUMPDEST PUSH1 0x0 DUP5 DUP2 MSTORE PUSH1 0x20 DUP2 DUP2 MSTORE PUSH1 0x40 DUP1 DUP4 KECCAK256 PUSH1 0x1 PUSH1 0x1 PUSH1 0xA0 SHL SUB DUP11 AND DUP5 MSTORE SWAP1 SWAP2 MSTORE SWAP1 KECCAK256 SLOAD DUP4 DUP2 LT ISZERO PUSH2 0x35A2 JUMPI PUSH1 0x40 MLOAD PUSH3 0x461BCD PUSH1 0xE5 SHL DUP2 MSTORE PUSH1 0x4 ADD PUSH2 0xC63 SWAP1 PUSH2 0x44F3 JUMP JUMPDEST PUSH1 0x0 DUP6 DUP2 MSTORE PUSH1 0x20 DUP2 DUP2 MSTORE PUSH1 0x40 DUP1 DUP4 KECCAK256 PUSH1 0x1 PUSH1 0x1 PUSH1 0xA0 SHL SUB DUP12 DUP2 AND DUP6 MSTORE SWAP3 MSTORE DUP1 DUP4 KECCAK256 DUP8 DUP6 SUB SWAP1 SSTORE SWAP1 DUP9 AND DUP3 MSTORE DUP2 KECCAK256 DUP1 SLOAD DUP7 SWAP3 SWAP1 PUSH2 0x35DF SWAP1 DUP5 SWAP1 PUSH2 0x3BF4 JUMP JUMPDEST SWAP1 SWAP2 SSTORE POP POP PUSH1 0x40 DUP1 MLOAD DUP7 DUP2 MSTORE PUSH1 0x20 DUP2 ADD DUP7 SWAP1 MSTORE PUSH1 0x1 PUSH1 0x1 PUSH1 0xA0 SHL SUB DUP1 DUP10 AND SWAP3 DUP11 DUP3 AND SWAP3 SWAP2 DUP7 AND SWAP2 PUSH32 0xC3D58168C5AE7397731D063D5BBF3D657854427343F4C083240F7AACAA2D0F62 SWAP2 ADD PUSH1 0x40 MLOAD DUP1 SWAP2 SUB SWAP1 LOG4 PUSH2 0x363F DUP3 DUP9 DUP9 DUP9 DUP9 DUP9 PUSH2 0x38B2 JUMP JUMPDEST POP POP POP POP POP POP POP JUMP JUMPDEST PUSH1 0x3 SLOAD PUSH1 0xFF AND PUSH2 0x3691 JUMPI PUSH1 0x40 MLOAD PUSH3 0x461BCD PUSH1 0xE5 SHL DUP2 MSTORE PUSH1 0x20 PUSH1 0x4 DUP3 ADD MSTORE PUSH1 0x14 PUSH1 0x24 DUP3 ADD MSTORE PUSH20 0x14185D5CD8589B194E881B9BDD081C185D5CD959 PUSH1 0x62 SHL PUSH1 0x44 DUP3 ADD MSTORE PUSH1 0x64 ADD PUSH2 0xC63 JUMP JUMPDEST PUSH1 0x3 DUP1 SLOAD PUSH1 0xFF NOT AND SWAP1 SSTORE PUSH32 0x5DB9EE0A495BF2E6FF9C91A7834C1BA4FDD244A5E8AA4E537BD38AEAE4B073AA CALLER PUSH2 0x2A76 JUMP JUMPDEST PUSH1 0x0 PUSH2 0x7B2 DUP5 LT ISZERO PUSH2 0x36D3 JUMPI PUSH1 0x0 DUP1 REVERT JUMPDEST DUP4 DUP4 DUP4 PUSH1 0x0 PUSH3 0x253D8C PUSH1 0x4 PUSH1 0x64 PUSH1 0xC PUSH2 0x36ED PUSH1 0xE DUP9 PUSH2 0x45AF JUMP JUMPDEST PUSH2 0x36F7 SWAP2 SWAP1 PUSH2 0x45EE JUMP JUMPDEST PUSH2 0x3703 DUP9 PUSH2 0x1324 PUSH2 0x461C JUMP JUMPDEST PUSH2 0x370D SWAP2 SWAP1 PUSH2 0x461C JUMP JUMPDEST PUSH2 0x3717 SWAP2 SWAP1 PUSH2 0x45EE JUMP JUMPDEST PUSH2 0x3722 SWAP1 PUSH1 0x3 PUSH2 0x465D JUMP JUMPDEST PUSH2 0x372C SWAP2 SWAP1 PUSH2 0x45EE JUMP JUMPDEST PUSH1 0xC DUP1 PUSH2 0x373A PUSH1 0xE DUP9 PUSH2 0x45AF JUMP JUMPDEST PUSH2 0x3744 SWAP2 SWAP1 PUSH2 0x45EE JUMP JUMPDEST PUSH2 0x374F SWAP1 PUSH1 0xC PUSH2 0x465D JUMP JUMPDEST PUSH2 0x375A PUSH1 0x2 DUP9 PUSH2 0x45AF JUMP JUMPDEST PUSH2 0x3764 SWAP2 SWAP1 PUSH2 0x45AF JUMP JUMPDEST PUSH2 0x3770 SWAP1 PUSH2 0x16F PUSH2 0x465D JUMP JUMPDEST PUSH2 0x377A SWAP2 SWAP1 PUSH2 0x45EE JUMP JUMPDEST PUSH1 0x4 PUSH1 0xC PUSH2 0x3789 PUSH1 0xE DUP10 PUSH2 0x45AF JUMP JUMPDEST PUSH2 0x3793 SWAP2 SWAP1 PUSH2 0x45EE JUMP JUMPDEST PUSH2 0x379F DUP10 PUSH2 0x12C0 PUSH2 0x461C JUMP JUMPDEST PUSH2 0x37A9 SWAP2 SWAP1 PUSH2 0x461C JUMP JUMPDEST PUSH2 0x37B5 SWAP1 PUSH2 0x5B5 PUSH2 0x465D JUMP JUMPDEST PUSH2 0x37BF SWAP2 SWAP1 PUSH2 0x45EE JUMP JUMPDEST PUSH2 0x37CB PUSH2 0x7D4B DUP8 PUSH2 0x45AF JUMP JUMPDEST PUSH2 0x37D5 SWAP2 SWAP1 PUSH2 0x461C JUMP JUMPDEST PUSH2 0x37DF SWAP2 SWAP1 PUSH2 0x461C JUMP JUMPDEST PUSH2 0x37E9 SWAP2 SWAP1 PUSH2 0x45AF JUMP JUMPDEST PUSH2 0x37F3 SWAP2 SWAP1 PUSH2 0x45AF JUMP JUMPDEST SWAP9 SWAP8 POP POP POP POP POP POP POP POP JUMP JUMPDEST PUSH1 0x40 DUP1 MLOAD PUSH1 0x1 DUP1 DUP3 MSTORE DUP2 DUP4 ADD SWAP1 SWAP3 MSTORE PUSH1 0x60 SWAP2 PUSH1 0x0 SWAP2 SWAP1 PUSH1 0x20 DUP1 DUP4 ADD SWAP1 DUP1 CALLDATASIZE DUP4 CALLDATACOPY ADD SWAP1 POP POP SWAP1 POP DUP3 DUP2 PUSH1 0x0 DUP2 MLOAD DUP2 LT PUSH2 0x3839 JUMPI PUSH2 0x3839 PUSH2 0x4345 JUMP JUMPDEST PUSH1 0x20 SWAP1 DUP2 MUL SWAP2 SWAP1 SWAP2 ADD ADD MSTORE SWAP3 SWAP2 POP POP JUMP JUMPDEST PUSH1 0x3 SLOAD PUSH1 0xFF AND ISZERO PUSH2 0x2FB0 JUMPI PUSH1 0x40 MLOAD PUSH3 0x461BCD PUSH1 0xE5 SHL DUP2 MSTORE PUSH1 0x20 PUSH1 0x4 DUP3 ADD MSTORE PUSH1 0x2C PUSH1 0x24 DUP3 ADD MSTORE PUSH32 0x455243313135355061757361626C653A20746F6B656E207472616E7366657220 PUSH1 0x44 DUP3 ADD MSTORE PUSH12 0x1DDA1A5B19481C185D5CD959 PUSH1 0xA2 SHL PUSH1 0x64 DUP3 ADD MSTORE PUSH1 0x84 ADD PUSH2 0xC63 JUMP JUMPDEST PUSH1 0x1 PUSH1 0x1 PUSH1 0xA0 SHL SUB DUP5 AND EXTCODESIZE ISZERO PUSH2 0x2FB0 JUMPI PUSH1 0x40 MLOAD PUSH4 0xF23A6E61 PUSH1 0xE0 SHL DUP2 MSTORE PUSH1 0x1 PUSH1 0x1 PUSH1 0xA0 SHL SUB DUP6 AND SWAP1 PUSH4 0xF23A6E61 SWAP1 PUSH2 0x38F6 SWAP1 DUP10 SWAP1 DUP10 SWAP1 DUP9 SWAP1 DUP9 SWAP1 DUP9 SWAP1 PUSH1 0x4 ADD PUSH2 0x46E2 JUMP JUMPDEST PUSH1 0x20 PUSH1 0x40 MLOAD DUP1 DUP4 SUB DUP2 PUSH1 0x0 DUP8 GAS CALL SWAP3 POP POP POP DUP1 ISZERO PUSH2 0x3931 JUMPI POP PUSH1 0x40 DUP1 MLOAD PUSH1 0x1F RETURNDATASIZE SWAP1 DUP2 ADD PUSH1 0x1F NOT AND DUP3 ADD SWAP1 SWAP3 MSTORE PUSH2 0x392E SWAP2 DUP2 ADD SWAP1 PUSH2 0x4727 JUMP JUMPDEST PUSH1 0x1 JUMPDEST PUSH2 0x39DE JUMPI PUSH2 0x393D PUSH2 0x4744 JUMP JUMPDEST DUP1 PUSH4 0x8C379A0 EQ ISZERO PUSH2 0x3977 JUMPI POP PUSH2 0x3952 PUSH2 0x4760 JUMP JUMPDEST DUP1 PUSH2 0x395D JUMPI POP PUSH2 0x3979 JUMP JUMPDEST DUP1 PUSH1 0x40 MLOAD PUSH3 0x461BCD PUSH1 0xE5 SHL DUP2 MSTORE PUSH1 0x4 ADD PUSH2 0xC63 SWAP2 SWAP1 PUSH2 0x3D12 JUMP JUMPDEST POP JUMPDEST PUSH1 0x40 MLOAD PUSH3 0x461BCD PUSH1 0xE5 SHL DUP2 MSTORE PUSH1 0x20 PUSH1 0x4 DUP3 ADD MSTORE PUSH1 0x34 PUSH1 0x24 DUP3 ADD MSTORE PUSH32 0x455243313135353A207472616E7366657220746F206E6F6E2045524331313535 PUSH1 0x44 DUP3 ADD MSTORE PUSH20 0x2932B1B2B4BB32B91034B6B83632B6B2B73A32B9 PUSH1 0x61 SHL PUSH1 0x64 DUP3 ADD MSTORE PUSH1 0x84 ADD PUSH2 0xC63 JUMP JUMPDEST PUSH1 0x1 PUSH1 0x1 PUSH1 0xE0 SHL SUB NOT DUP2 AND PUSH4 0xF23A6E61 PUSH1 0xE0 SHL EQ PUSH2 0x363F JUMPI PUSH1 0x40 MLOAD PUSH3 0x461BCD PUSH1 0xE5 SHL DUP2 MSTORE PUSH1 0x4 ADD PUSH2 0xC63 SWAP1 PUSH2 0x47E9 JUMP JUMPDEST PUSH1 0x1 PUSH1 0x1 PUSH1 0xA0 SHL SUB DUP5 AND EXTCODESIZE ISZERO PUSH2 0x2FB0 JUMPI PUSH1 0x40 MLOAD PUSH4 0xBC197C81 PUSH1 0xE0 SHL DUP2 MSTORE PUSH1 0x1 PUSH1 0x1 PUSH1 0xA0 SHL SUB DUP6 AND SWAP1 PUSH4 0xBC197C81 SWAP1 PUSH2 0x3A52 SWAP1 DUP10 SWAP1 DUP10 SWAP1 DUP9 SWAP1 DUP9 SWAP1 DUP9 SWAP1 PUSH1 0x4 ADD PUSH2 0x4831 JUMP JUMPDEST PUSH1 0x20 PUSH1 0x40 MLOAD DUP1 DUP4 SUB DUP2 PUSH1 0x0 DUP8 GAS CALL SWAP3 POP POP POP DUP1 ISZERO PUSH2 0x3A8D JUMPI POP PUSH1 0x40 DUP1 MLOAD PUSH1 0x1F RETURNDATASIZE SWAP1 DUP2 ADD PUSH1 0x1F NOT AND DUP3 ADD SWAP1 SWAP3 MSTORE PUSH2 0x3A8A SWAP2 DUP2 ADD SWAP1 PUSH2 0x4727 JUMP JUMPDEST PUSH1 0x1 JUMPDEST PUSH2 0x3A99 JUMPI PUSH2 0x393D PUSH2 0x4744 JUMP JUMPDEST PUSH1 0x1 PUSH1 0x1 PUSH1 0xE0 SHL SUB NOT DUP2 AND PUSH4 0xBC197C81 PUSH1 0xE0 SHL EQ PUSH2 0x363F JUMPI PUSH1 0x40 MLOAD PUSH3 0x461BCD PUSH1 0xE5 SHL DUP2 MSTORE PUSH1 0x4 ADD PUSH2 0xC63 SWAP1 PUSH2 0x47E9 JUMP JUMPDEST PUSH1 0x40 MLOAD DUP1 PUSH1 0x60 ADD PUSH1 0x40 MSTORE DUP1 PUSH1 0x3 SWAP1 JUMPDEST PUSH1 0x60 DUP2 MSTORE PUSH1 0x20 ADD SWAP1 PUSH1 0x1 SWAP1 SUB SWAP1 DUP2 PUSH2 0x3AD8 JUMPI SWAP1 POP POP SWAP1 JUMP JUMPDEST DUP3 DUP1 SLOAD PUSH2 0x3AFC SWAP1 PUSH2 0x42D5 JUMP JUMPDEST SWAP1 PUSH1 0x0 MSTORE PUSH1 0x20 PUSH1 0x0 KECCAK256 SWAP1 PUSH1 0x1F ADD PUSH1 0x20 SWAP1 DIV DUP2 ADD SWAP3 DUP3 PUSH2 0x3B1E JUMPI PUSH1 0x0 DUP6 SSTORE PUSH2 0x3B64 JUMP JUMPDEST DUP3 PUSH1 0x1F LT PUSH2 0x3B37 JUMPI DUP1 MLOAD PUSH1 0xFF NOT AND DUP4 DUP1 ADD OR DUP6 SSTORE PUSH2 0x3B64 JUMP JUMPDEST DUP3 DUP1 ADD PUSH1 0x1 ADD DUP6 SSTORE DUP3 ISZERO PUSH2 0x3B64 JUMPI SWAP2 DUP3 ADD JUMPDEST DUP3 DUP2 GT ISZERO PUSH2 0x3B64 JUMPI DUP3 MLOAD DUP3 SSTORE SWAP2 PUSH1 0x20 ADD SWAP2 SWAP1 PUSH1 0x1 ADD SWAP1 PUSH2 0x3B49 JUMP JUMPDEST POP PUSH2 0x3B70 SWAP3 SWAP2 POP PUSH2 0x3BC9 JUMP JUMPDEST POP SWAP1 JUMP JUMPDEST DUP3 DUP1 SLOAD DUP3 DUP3 SSTORE SWAP1 PUSH1 0x0 MSTORE PUSH1 0x20 PUSH1 0x0 KECCAK256 SWAP1 DUP2 ADD SWAP3 DUP3 ISZERO PUSH2 0x3B64 JUMPI SWAP2 PUSH1 0x20 MUL DUP3 ADD JUMPDEST DUP3 DUP2 GT ISZERO PUSH2 0x3B64 JUMPI DUP3 MLOAD DUP3 SLOAD PUSH1 0x1 PUSH1 0x1 PUSH1 0xA0 SHL SUB NOT AND PUSH1 0x1 PUSH1 0x1 PUSH1 0xA0 SHL SUB SWAP1 SWAP2 AND OR DUP3 SSTORE PUSH1 0x20 SWAP1 SWAP3 ADD SWAP2 PUSH1 0x1 SWAP1 SWAP2 ADD SWAP1 PUSH2 0x3B94 JUMP JUMPDEST JUMPDEST DUP1 DUP3 GT ISZERO PUSH2 0x3B70 JUMPI PUSH1 0x0 DUP2 SSTORE PUSH1 0x1 ADD PUSH2 0x3BCA JUMP JUMPDEST PUSH4 0x4E487B71 PUSH1 0xE0 SHL PUSH1 0x0 MSTORE PUSH1 0x11 PUSH1 0x4 MSTORE PUSH1 0x24 PUSH1 0x0 REVERT JUMPDEST PUSH1 0x0 DUP3 NOT DUP3 GT ISZERO PUSH2 0x3C07 JUMPI PUSH2 0x3C07 PUSH2 0x3BDE JUMP JUMPDEST POP ADD SWAP1 JUMP JUMPDEST DUP1 CALLDATALOAD PUSH1 0x1 PUSH1 0x1 PUSH1 0xA0 SHL SUB DUP2 AND DUP2 EQ PUSH2 0x17E8 JUMPI PUSH1 0x0 DUP1 REVERT JUMPDEST PUSH1 0x0 DUP1 PUSH1 0x40 DUP4 DUP6 SUB SLT ISZERO PUSH2 0x3C36 JUMPI PUSH1 0x0 DUP1 REVERT JUMPDEST PUSH2 0x3C3F DUP4 PUSH2 0x3C0C JUMP JUMPDEST SWAP5 PUSH1 0x20 SWAP4 SWAP1 SWAP4 ADD CALLDATALOAD SWAP4 POP POP POP JUMP JUMPDEST PUSH1 0x1 PUSH1 0x1 PUSH1 0xE0 SHL SUB NOT DUP2 AND DUP2 EQ PUSH2 0x283E JUMPI PUSH1 0x0 DUP1 REVERT JUMPDEST PUSH1 0x0 PUSH1 0x20 DUP3 DUP5 SUB SLT ISZERO PUSH2 0x3C75 JUMPI PUSH1 0x0 DUP1 REVERT JUMPDEST DUP2 CALLDATALOAD PUSH2 0x33A8 DUP2 PUSH2 0x3C4D JUMP JUMPDEST PUSH1 0x0 DUP1 PUSH1 0x0 PUSH1 0x60 DUP5 DUP7 SUB SLT ISZERO PUSH2 0x3C95 JUMPI PUSH1 0x0 DUP1 REVERT JUMPDEST POP POP DUP2 CALLDATALOAD SWAP4 PUSH1 0x20 DUP4 ADD CALLDATALOAD SWAP4 POP PUSH1 0x40 SWAP1 SWAP3 ADD CALLDATALOAD SWAP2 SWAP1 POP JUMP JUMPDEST PUSH1 0x0 PUSH1 0x20 DUP3 DUP5 SUB SLT ISZERO PUSH2 0x3CBE JUMPI PUSH1 0x0 DUP1 REVERT JUMPDEST POP CALLDATALOAD SWAP2 SWAP1 POP JUMP JUMPDEST PUSH1 0x0 DUP2 MLOAD DUP1 DUP5 MSTORE PUSH1 0x0 JUMPDEST DUP2 DUP2 LT ISZERO PUSH2 0x3CEB JUMPI PUSH1 0x20 DUP2 DUP6 ADD DUP2 ADD MLOAD DUP7 DUP4 ADD DUP3 ADD MSTORE ADD PUSH2 0x3CCF JUMP JUMPDEST DUP2 DUP2 GT ISZERO PUSH2 0x3CFD JUMPI PUSH1 0x0 PUSH1 0x20 DUP4 DUP8 ADD ADD MSTORE JUMPDEST POP PUSH1 0x1F ADD PUSH1 0x1F NOT AND SWAP3 SWAP1 SWAP3 ADD PUSH1 0x20 ADD SWAP3 SWAP2 POP POP JUMP JUMPDEST PUSH1 0x20 DUP2 MSTORE PUSH1 0x0 PUSH2 0x33A8 PUSH1 0x20 DUP4 ADD DUP5 PUSH2 0x3CC5 JUMP JUMPDEST PUSH1 0x0 PUSH1 0x20 DUP3 DUP5 SUB SLT ISZERO PUSH2 0x3D37 JUMPI PUSH1 0x0 DUP1 REVERT JUMPDEST PUSH2 0x33A8 DUP3 PUSH2 0x3C0C JUMP JUMPDEST DUP1 ISZERO ISZERO DUP2 EQ PUSH2 0x283E JUMPI PUSH1 0x0 DUP1 REVERT JUMPDEST PUSH1 0x0 DUP1 PUSH1 0x40 DUP4 DUP6 SUB SLT ISZERO PUSH2 0x3D61 JUMPI PUSH1 0x0 DUP1 REVERT JUMPDEST PUSH2 0x3D6A DUP4 PUSH2 0x3C0C JUMP JUMPDEST SWAP2 POP PUSH1 0x20 DUP4 ADD CALLDATALOAD PUSH2 0x3D7A DUP2 PUSH2 0x3D40 JUMP JUMPDEST DUP1 SWAP2 POP POP SWAP3 POP SWAP3 SWAP1 POP JUMP JUMPDEST PUSH1 0x0 DUP2 MLOAD DUP1 DUP5 MSTORE PUSH1 0x20 DUP1 DUP6 ADD SWAP5 POP DUP1 DUP5 ADD PUSH1 0x0 JUMPDEST DUP4 DUP2 LT ISZERO PUSH2 0x3DB5 JUMPI DUP2 MLOAD DUP8 MSTORE SWAP6 DUP3 ADD SWAP6 SWAP1 DUP3 ADD SWAP1 PUSH1 0x1 ADD PUSH2 0x3D99 JUMP JUMPDEST POP SWAP5 SWAP6 SWAP5 POP POP POP POP POP JUMP JUMPDEST PUSH1 0x40 DUP2 MSTORE PUSH1 0x0 PUSH2 0x3DD3 PUSH1 0x40 DUP4 ADD DUP6 PUSH2 0x3D85 JUMP JUMPDEST DUP3 DUP2 SUB PUSH1 0x20 DUP5 DUP2 ADD SWAP2 SWAP1 SWAP2 MSTORE DUP5 MLOAD DUP1 DUP4 MSTORE DUP6 DUP3 ADD SWAP3 DUP3 ADD SWAP1 PUSH1 0x0 JUMPDEST DUP2 DUP2 LT ISZERO PUSH2 0x3E13 JUMPI DUP5 MLOAD PUSH1 0x1 PUSH1 0x1 PUSH1 0xA0 SHL SUB AND DUP4 MSTORE SWAP4 DUP4 ADD SWAP4 SWAP2 DUP4 ADD SWAP2 PUSH1 0x1 ADD PUSH2 0x3DEE JUMP JUMPDEST POP SWAP1 SWAP8 SWAP7 POP POP POP POP POP POP POP JUMP JUMPDEST PUSH4 0x4E487B71 PUSH1 0xE0 SHL PUSH1 0x0 MSTORE PUSH1 0x41 PUSH1 0x4 MSTORE PUSH1 0x24 PUSH1 0x0 REVERT JUMPDEST PUSH1 0x1F DUP3 ADD PUSH1 0x1F NOT AND DUP2 ADD PUSH1 0x1 PUSH1 0x1 PUSH1 0x40 SHL SUB DUP2 GT DUP3 DUP3 LT OR ISZERO PUSH2 0x3E5B JUMPI PUSH2 0x3E5B PUSH2 0x3E20 JUMP JUMPDEST PUSH1 0x40 MSTORE POP POP JUMP JUMPDEST PUSH1 0x0 PUSH1 0x1 PUSH1 0x1 PUSH1 0x40 SHL SUB DUP3 GT ISZERO PUSH2 0x3E7B JUMPI PUSH2 0x3E7B PUSH2 0x3E20 JUMP JUMPDEST POP PUSH1 0x5 SHL PUSH1 0x20 ADD SWAP1 JUMP JUMPDEST PUSH1 0x0 DUP3 PUSH1 0x1F DUP4 ADD SLT PUSH2 0x3E96 JUMPI PUSH1 0x0 DUP1 REVERT JUMPDEST DUP2 CALLDATALOAD PUSH1 0x20 PUSH2 0x3EA3 DUP3 PUSH2 0x3E62 JUMP JUMPDEST PUSH1 0x40 MLOAD PUSH2 0x3EB0 DUP3 DUP3 PUSH2 0x3E36 JUMP JUMPDEST DUP4 DUP2 MSTORE PUSH1 0x5 SWAP4 SWAP1 SWAP4 SHL DUP6 ADD DUP3 ADD SWAP3 DUP3 DUP2 ADD SWAP2 POP DUP7 DUP5 GT ISZERO PUSH2 0x3ED0 JUMPI PUSH1 0x0 DUP1 REVERT JUMPDEST DUP3 DUP7 ADD JUMPDEST DUP5 DUP2 LT ISZERO PUSH2 0x3EEB JUMPI DUP1 CALLDATALOAD DUP4 MSTORE SWAP2 DUP4 ADD SWAP2 DUP4 ADD PUSH2 0x3ED4 JUMP JUMPDEST POP SWAP7 SWAP6 POP POP POP POP POP POP JUMP JUMPDEST PUSH1 0x0 DUP3 PUSH1 0x1F DUP4 ADD SLT PUSH2 0x3F07 JUMPI PUSH1 0x0 DUP1 REVERT JUMPDEST DUP2 CALLDATALOAD PUSH1 0x1 PUSH1 0x1 PUSH1 0x40 SHL SUB DUP2 GT ISZERO PUSH2 0x3F20 JUMPI PUSH2 0x3F20 PUSH2 0x3E20 JUMP JUMPDEST PUSH1 0x40 MLOAD PUSH2 0x3F37 PUSH1 0x1F DUP4 ADD PUSH1 0x1F NOT AND PUSH1 0x20 ADD DUP3 PUSH2 0x3E36 JUMP JUMPDEST DUP2 DUP2 MSTORE DUP5 PUSH1 0x20 DUP4 DUP7 ADD ADD GT ISZERO PUSH2 0x3F4C JUMPI PUSH1 0x0 DUP1 REVERT JUMPDEST DUP2 PUSH1 0x20 DUP6 ADD PUSH1 0x20 DUP4 ADD CALLDATACOPY PUSH1 0x0 SWAP2 DUP2 ADD PUSH1 0x20 ADD SWAP2 SWAP1 SWAP2 MSTORE SWAP4 SWAP3 POP POP POP JUMP JUMPDEST PUSH1 0x0 DUP1 PUSH1 0x0 DUP1 PUSH1 0x0 PUSH1 0xA0 DUP7 DUP9 SUB SLT ISZERO PUSH2 0x3F81 JUMPI PUSH1 0x0 DUP1 REVERT JUMPDEST PUSH2 0x3F8A DUP7 PUSH2 0x3C0C JUMP JUMPDEST SWAP5 POP PUSH2 0x3F98 PUSH1 0x20 DUP8 ADD PUSH2 0x3C0C JUMP JUMPDEST SWAP4 POP PUSH1 0x40 DUP7 ADD CALLDATALOAD PUSH1 0x1 PUSH1 0x1 PUSH1 0x40 SHL SUB DUP1 DUP3 GT ISZERO PUSH2 0x3FB4 JUMPI PUSH1 0x0 DUP1 REVERT JUMPDEST PUSH2 0x3FC0 DUP10 DUP4 DUP11 ADD PUSH2 0x3E85 JUMP JUMPDEST SWAP5 POP PUSH1 0x60 DUP9 ADD CALLDATALOAD SWAP2 POP DUP1 DUP3 GT ISZERO PUSH2 0x3FD6 JUMPI PUSH1 0x0 DUP1 REVERT JUMPDEST PUSH2 0x3FE2 DUP10 DUP4 DUP11 ADD PUSH2 0x3E85 JUMP JUMPDEST SWAP4 POP PUSH1 0x80 DUP9 ADD CALLDATALOAD SWAP2 POP DUP1 DUP3 GT ISZERO PUSH2 0x3FF8 JUMPI PUSH1 0x0 DUP1 REVERT JUMPDEST POP PUSH2 0x4005 DUP9 DUP3 DUP10 ADD PUSH2 0x3EF6 JUMP JUMPDEST SWAP2 POP POP SWAP3 SWAP6 POP SWAP3 SWAP6 SWAP1 SWAP4 POP JUMP JUMPDEST PUSH1 0x20 DUP1 DUP3 MSTORE PUSH1 0x0 SWAP1 PUSH1 0x80 DUP4 ADD DUP4 DUP3 ADD DUP6 DUP5 JUMPDEST PUSH1 0x3 DUP2 LT ISZERO PUSH2 0x4053 JUMPI PUSH1 0x1F NOT DUP8 DUP6 SUB ADD DUP4 MSTORE PUSH2 0x4041 DUP5 DUP4 MLOAD PUSH2 0x3CC5 JUMP JUMPDEST SWAP4 POP SWAP2 DUP5 ADD SWAP2 SWAP1 DUP5 ADD SWAP1 PUSH1 0x1 ADD PUSH2 0x4024 JUMP JUMPDEST POP SWAP2 SWAP7 SWAP6 POP POP POP POP POP POP JUMP JUMPDEST PUSH1 0x0 DUP1 PUSH1 0x40 DUP4 DUP6 SUB SLT ISZERO PUSH2 0x4072 JUMPI PUSH1 0x0 DUP1 REVERT JUMPDEST DUP3 CALLDATALOAD PUSH1 0x1 PUSH1 0x1 PUSH1 0x40 SHL SUB DUP1 DUP3 GT ISZERO PUSH2 0x4089 JUMPI PUSH1 0x0 DUP1 REVERT JUMPDEST DUP2 DUP6 ADD SWAP2 POP DUP6 PUSH1 0x1F DUP4 ADD SLT PUSH2 0x409D JUMPI PUSH1 0x0 DUP1 REVERT JUMPDEST DUP2 CALLDATALOAD PUSH1 0x20 PUSH2 0x40AA DUP3 PUSH2 0x3E62 JUMP JUMPDEST PUSH1 0x40 MLOAD PUSH2 0x40B7 DUP3 DUP3 PUSH2 0x3E36 JUMP JUMPDEST DUP4 DUP2 MSTORE PUSH1 0x5 SWAP4 SWAP1 SWAP4 SHL DUP6 ADD DUP3 ADD SWAP3 DUP3 DUP2 ADD SWAP2 POP DUP10 DUP5 GT ISZERO PUSH2 0x40D7 JUMPI PUSH1 0x0 DUP1 REVERT JUMPDEST SWAP5 DUP3 ADD SWAP5 JUMPDEST DUP4 DUP7 LT ISZERO PUSH2 0x40FC JUMPI PUSH2 0x40ED DUP7 PUSH2 0x3C0C JUMP JUMPDEST DUP3 MSTORE SWAP5 DUP3 ADD SWAP5 SWAP1 DUP3 ADD SWAP1 PUSH2 0x40DC JUMP JUMPDEST SWAP7 POP POP DUP7 ADD CALLDATALOAD SWAP3 POP POP DUP1 DUP3 GT ISZERO PUSH2 0x4112 JUMPI PUSH1 0x0 DUP1 REVERT JUMPDEST POP PUSH2 0x411F DUP6 DUP3 DUP7 ADD PUSH2 0x3E85 JUMP JUMPDEST SWAP2 POP POP SWAP3 POP SWAP3 SWAP1 POP JUMP JUMPDEST PUSH1 0x20 DUP2 MSTORE PUSH1 0x0 PUSH2 0x33A8 PUSH1 0x20 DUP4 ADD DUP5 PUSH2 0x3D85 JUMP JUMPDEST PUSH1 0x0 DUP1 PUSH1 0x0 DUP1 PUSH1 0x80 DUP6 DUP8 SUB SLT ISZERO PUSH2 0x4152 JUMPI PUSH1 0x0 DUP1 REVERT JUMPDEST DUP5 CALLDATALOAD SWAP4 POP PUSH1 0x20 DUP6 ADD CALLDATALOAD SWAP3 POP PUSH1 0x40 DUP6 ADD CALLDATALOAD SWAP2 POP PUSH1 0x60 DUP6 ADD CALLDATALOAD PUSH1 0x1 PUSH1 0x1 PUSH1 0x40 SHL SUB DUP2 GT ISZERO PUSH2 0x417D JUMPI PUSH1 0x0 DUP1 REVERT JUMPDEST PUSH2 0x4189 DUP8 DUP3 DUP9 ADD PUSH2 0x3EF6 JUMP JUMPDEST SWAP2 POP POP SWAP3 SWAP6 SWAP2 SWAP5 POP SWAP3 POP JUMP JUMPDEST PUSH1 0x0 DUP1 PUSH1 0x0 PUSH1 0x60 DUP5 DUP7 SUB SLT ISZERO PUSH2 0x41AA JUMPI PUSH1 0x0 DUP1 REVERT JUMPDEST DUP4 CALLDATALOAD PUSH1 0x1 PUSH1 0x1 PUSH1 0x40 SHL SUB DUP1 DUP3 GT ISZERO PUSH2 0x41C1 JUMPI PUSH1 0x0 DUP1 REVERT JUMPDEST PUSH2 0x41CD DUP8 DUP4 DUP9 ADD PUSH2 0x3EF6 JUMP JUMPDEST SWAP5 POP PUSH1 0x20 DUP7 ADD CALLDATALOAD SWAP2 POP DUP1 DUP3 GT ISZERO PUSH2 0x41E3 JUMPI PUSH1 0x0 DUP1 REVERT JUMPDEST PUSH2 0x41EF DUP8 DUP4 DUP9 ADD PUSH2 0x3EF6 JUMP JUMPDEST SWAP4 POP PUSH1 0x40 DUP7 ADD CALLDATALOAD SWAP2 POP DUP1 DUP3 GT ISZERO PUSH2 0x4205 JUMPI PUSH1 0x0 DUP1 REVERT JUMPDEST POP PUSH2 0x4212 DUP7 DUP3 DUP8 ADD PUSH2 0x3EF6 JUMP JUMPDEST SWAP2 POP POP SWAP3 POP SWAP3 POP SWAP3 JUMP JUMPDEST PUSH1 0x0 DUP1 PUSH1 0x40 DUP4 DUP6 SUB SLT ISZERO PUSH2 0x422F JUMPI PUSH1 0x0 DUP1 REVERT JUMPDEST POP POP DUP1 CALLDATALOAD SWAP3 PUSH1 0x20 SWAP1 SWAP2 ADD CALLDATALOAD SWAP2 POP JUMP JUMPDEST PUSH1 0x0 DUP1 PUSH1 0x40 DUP4 DUP6 SUB SLT ISZERO PUSH2 0x4251 JUMPI PUSH1 0x0 DUP1 REVERT JUMPDEST PUSH2 0x425A DUP4 PUSH2 0x3C0C JUMP JUMPDEST SWAP2 POP PUSH2 0x4268 PUSH1 0x20 DUP5 ADD PUSH2 0x3C0C JUMP JUMPDEST SWAP1 POP SWAP3 POP SWAP3 SWAP1 POP JUMP JUMPDEST PUSH1 0x0 DUP1 PUSH1 0x0 DUP1 PUSH1 0x0 PUSH1 0xA0 DUP7 DUP9 SUB SLT ISZERO PUSH2 0x4289 JUMPI PUSH1 0x0 DUP1 REVERT JUMPDEST PUSH2 0x4292 DUP7 PUSH2 0x3C0C JUMP JUMPDEST SWAP5 POP PUSH2 0x42A0 PUSH1 0x20 DUP8 ADD PUSH2 0x3C0C JUMP JUMPDEST SWAP4 POP PUSH1 0x40 DUP7 ADD CALLDATALOAD SWAP3 POP PUSH1 0x60 DUP7 ADD CALLDATALOAD SWAP2 POP PUSH1 0x80 DUP7 ADD CALLDATALOAD PUSH1 0x1 PUSH1 0x1 PUSH1 0x40 SHL SUB DUP2 GT ISZERO PUSH2 0x42C9 JUMPI PUSH1 0x0 DUP1 REVERT JUMPDEST PUSH2 0x4005 DUP9 DUP3 DUP10 ADD PUSH2 0x3EF6 JUMP JUMPDEST PUSH1 0x1 DUP2 DUP2 SHR SWAP1 DUP3 AND DUP1 PUSH2 0x42E9 JUMPI PUSH1 0x7F DUP3 AND SWAP2 POP JUMPDEST PUSH1 0x20 DUP3 LT DUP2 EQ ISZERO PUSH2 0x430A JUMPI PUSH4 0x4E487B71 PUSH1 0xE0 SHL PUSH1 0x0 MSTORE PUSH1 0x22 PUSH1 0x4 MSTORE PUSH1 0x24 PUSH1 0x0 REVERT JUMPDEST POP SWAP2 SWAP1 POP JUMP JUMPDEST PUSH1 0x20 DUP1 DUP3 MSTORE DUP2 DUP2 ADD MSTORE PUSH32 0x4F776E61626C653A2063616C6C6572206973206E6F7420746865206F776E6572 PUSH1 0x40 DUP3 ADD MSTORE PUSH1 0x60 ADD SWAP1 JUMP JUMPDEST PUSH4 0x4E487B71 PUSH1 0xE0 SHL PUSH1 0x0 MSTORE PUSH1 0x32 PUSH1 0x4 MSTORE PUSH1 0x24 PUSH1 0x0 REVERT JUMPDEST PUSH1 0x0 PUSH1 0x0 NOT DUP3 EQ ISZERO PUSH2 0x436F JUMPI PUSH2 0x436F PUSH2 0x3BDE JUMP JUMPDEST POP PUSH1 0x1 ADD SWAP1 JUMP JUMPDEST PUSH1 0x20 DUP1 DUP3 MSTORE PUSH1 0x10 SWAP1 DUP3 ADD MSTORE PUSH16 0x14185D5CD8589B194E881C185D5CD959 PUSH1 0x82 SHL PUSH1 0x40 DUP3 ADD MSTORE PUSH1 0x60 ADD SWAP1 JUMP JUMPDEST PUSH1 0x0 DUP3 DUP3 LT ISZERO PUSH2 0x43B2 JUMPI PUSH2 0x43B2 PUSH2 0x3BDE JUMP JUMPDEST POP SUB SWAP1 JUMP JUMPDEST PUSH1 0x0 DUP2 PUSH1 0x0 NOT DIV DUP4 GT DUP3 ISZERO ISZERO AND ISZERO PUSH2 0x43D1 JUMPI PUSH2 0x43D1 PUSH2 0x3BDE JUMP JUMPDEST POP MUL SWAP1 JUMP JUMPDEST PUSH4 0x4E487B71 PUSH1 0xE0 SHL PUSH1 0x0 MSTORE PUSH1 0x12 PUSH1 0x4 MSTORE PUSH1 0x24 PUSH1 0x0 REVERT JUMPDEST PUSH1 0x0 DUP3 PUSH2 0x43FB JUMPI PUSH2 0x43FB PUSH2 0x43D6 JUMP JUMPDEST POP DIV SWAP1 JUMP JUMPDEST PUSH1 0x20 DUP1 DUP3 MSTORE PUSH1 0x16 SWAP1 DUP3 ADD MSTORE PUSH22 0x1B9BDD08195B9BDD59DA081D1A5B59481C185CDCD959 PUSH1 0x52 SHL PUSH1 0x40 DUP3 ADD MSTORE PUSH1 0x60 ADD SWAP1 JUMP JUMPDEST DUP1 MLOAD PUSH10 0xFFFFFFFFFFFFFFFFFFFF DUP2 AND DUP2 EQ PUSH2 0x17E8 JUMPI PUSH1 0x0 DUP1 REVERT JUMPDEST PUSH1 0x0 DUP1 PUSH1 0x0 DUP1 PUSH1 0x0 PUSH1 0xA0 DUP7 DUP9 SUB SLT ISZERO PUSH2 0x4462 JUMPI PUSH1 0x0 DUP1 REVERT JUMPDEST PUSH2 0x446B DUP7 PUSH2 0x4430 JUMP JUMPDEST SWAP5 POP PUSH1 0x20 DUP7 ADD MLOAD SWAP4 POP PUSH1 0x40 DUP7 ADD MLOAD SWAP3 POP PUSH1 0x60 DUP7 ADD MLOAD SWAP2 POP PUSH2 0x448E PUSH1 0x80 DUP8 ADD PUSH2 0x4430 JUMP JUMPDEST SWAP1 POP SWAP3 SWAP6 POP SWAP3 SWAP6 SWAP1 SWAP4 POP JUMP JUMPDEST PUSH1 0x0 DUP3 PUSH2 0x44A9 JUMPI PUSH2 0x44A9 PUSH2 0x43D6 JUMP JUMPDEST POP MOD SWAP1 JUMP JUMPDEST PUSH1 0x20 DUP1 DUP3 MSTORE PUSH1 0x25 SWAP1 DUP3 ADD MSTORE PUSH32 0x455243313135353A207472616E7366657220746F20746865207A65726F206164 PUSH1 0x40 DUP3 ADD MSTORE PUSH5 0x6472657373 PUSH1 0xD8 SHL PUSH1 0x60 DUP3 ADD MSTORE PUSH1 0x80 ADD SWAP1 JUMP JUMPDEST PUSH1 0x20 DUP1 DUP3 MSTORE PUSH1 0x2A SWAP1 DUP3 ADD MSTORE PUSH32 0x455243313135353A20696E73756666696369656E742062616C616E636520666F PUSH1 0x40 DUP3 ADD MSTORE PUSH10 0x39103A3930B739B332B9 PUSH1 0xB1 SHL PUSH1 0x60 DUP3 ADD MSTORE PUSH1 0x80 ADD SWAP1 JUMP JUMPDEST PUSH1 0x40 DUP2 MSTORE PUSH1 0x0 PUSH2 0x4550 PUSH1 0x40 DUP4 ADD DUP6 PUSH2 0x3D85 JUMP JUMPDEST DUP3 DUP2 SUB PUSH1 0x20 DUP5 ADD MSTORE PUSH2 0x4562 DUP2 DUP6 PUSH2 0x3D85 JUMP JUMPDEST SWAP6 SWAP5 POP POP POP POP POP JUMP JUMPDEST PUSH1 0x1 DUP1 PUSH1 0xA0 SHL SUB DUP5 AND DUP2 MSTORE DUP3 PUSH1 0x20 DUP3 ADD MSTORE PUSH1 0x60 PUSH1 0x40 DUP3 ADD MSTORE PUSH1 0x0 PUSH2 0x4562 PUSH1 0x60 DUP4 ADD DUP5 PUSH2 0x3CC5 JUMP JUMPDEST PUSH1 0x0 PUSH1 0x20 DUP3 DUP5 SUB SLT ISZERO PUSH2 0x45A4 JUMPI PUSH1 0x0 DUP1 REVERT JUMPDEST DUP2 MLOAD PUSH2 0x33A8 DUP2 PUSH2 0x3D40 JUMP JUMPDEST PUSH1 0x0 DUP1 DUP4 SLT DUP1 ISZERO PUSH1 0x1 PUSH1 0xFF SHL DUP6 ADD DUP5 SLT AND ISZERO PUSH2 0x45CD JUMPI PUSH2 0x45CD PUSH2 0x3BDE JUMP JUMPDEST PUSH1 0x1 PUSH1 0x1 PUSH1 0xFF SHL SUB DUP5 ADD DUP4 SGT DUP2 AND ISZERO PUSH2 0x45E8 JUMPI PUSH2 0x45E8 PUSH2 0x3BDE JUMP JUMPDEST POP POP SUB SWAP1 JUMP JUMPDEST PUSH1 0x0 DUP3 PUSH2 0x45FD JUMPI PUSH2 0x45FD PUSH2 0x43D6 JUMP JUMPDEST PUSH1 0x1 PUSH1 0xFF SHL DUP3 EQ PUSH1 0x0 NOT DUP5 EQ AND ISZERO PUSH2 0x4617 JUMPI PUSH2 0x4617 PUSH2 0x3BDE JUMP JUMPDEST POP SDIV SWAP1 JUMP JUMPDEST PUSH1 0x0 DUP1 DUP3 SLT DUP1 ISZERO PUSH1 0x1 PUSH1 0x1 PUSH1 0xFF SHL SUB DUP5 SWAP1 SUB DUP6 SGT AND ISZERO PUSH2 0x463E JUMPI PUSH2 0x463E PUSH2 0x3BDE JUMP JUMPDEST PUSH1 0x1 PUSH1 0xFF SHL DUP4 SWAP1 SUB DUP5 SLT DUP2 AND ISZERO PUSH2 0x4657 JUMPI PUSH2 0x4657 PUSH2 0x3BDE JUMP JUMPDEST POP POP ADD SWAP1 JUMP JUMPDEST PUSH1 0x0 PUSH1 0x1 PUSH1 0x1 PUSH1 0xFF SHL SUB DUP2 DUP5 SGT DUP3 DUP5 SGT DUP1 DUP3 AND DUP7 DUP5 DIV DUP7 GT AND ISZERO PUSH2 0x4683 JUMPI PUSH2 0x4683 PUSH2 0x3BDE JUMP JUMPDEST PUSH1 0x1 PUSH1 0xFF SHL PUSH1 0x0 DUP8 SLT DUP3 DUP2 AND DUP8 DUP4 SDIV DUP10 SLT AND ISZERO PUSH2 0x46A2 JUMPI PUSH2 0x46A2 PUSH2 0x3BDE JUMP JUMPDEST PUSH1 0x0 DUP8 SLT SWAP3 POP DUP8 DUP3 SDIV DUP8 SLT DUP5 DUP5 AND AND ISZERO PUSH2 0x46BE JUMPI PUSH2 0x46BE PUSH2 0x3BDE JUMP JUMPDEST DUP8 DUP6 SDIV DUP8 SLT DUP2 DUP5 AND AND ISZERO PUSH2 0x46D4 JUMPI PUSH2 0x46D4 PUSH2 0x3BDE JUMP JUMPDEST POP POP POP SWAP3 SWAP1 SWAP4 MUL SWAP4 SWAP3 POP POP POP JUMP JUMPDEST PUSH1 0x1 PUSH1 0x1 PUSH1 0xA0 SHL SUB DUP7 DUP2 AND DUP3 MSTORE DUP6 AND PUSH1 0x20 DUP3 ADD MSTORE PUSH1 0x40 DUP2 ADD DUP5 SWAP1 MSTORE PUSH1 0x60 DUP2 ADD DUP4 SWAP1 MSTORE PUSH1 0xA0 PUSH1 0x80 DUP3 ADD DUP2 SWAP1 MSTORE PUSH1 0x0 SWAP1 PUSH2 0x471C SWAP1 DUP4 ADD DUP5 PUSH2 0x3CC5 JUMP JUMPDEST SWAP8 SWAP7 POP POP POP POP POP POP POP JUMP JUMPDEST PUSH1 0x0 PUSH1 0x20 DUP3 DUP5 SUB SLT ISZERO PUSH2 0x4739 JUMPI PUSH1 0x0 DUP1 REVERT JUMPDEST DUP2 MLOAD PUSH2 0x33A8 DUP2 PUSH2 0x3C4D JUMP JUMPDEST PUSH1 0x0 PUSH1 0x3 RETURNDATASIZE GT ISZERO PUSH2 0x475D JUMPI PUSH1 0x4 PUSH1 0x0 DUP1 RETURNDATACOPY POP PUSH1 0x0 MLOAD PUSH1 0xE0 SHR JUMPDEST SWAP1 JUMP JUMPDEST PUSH1 0x0 PUSH1 0x44 RETURNDATASIZE LT ISZERO PUSH2 0x476E JUMPI SWAP1 JUMP JUMPDEST PUSH1 0x40 MLOAD PUSH1 0x3 NOT RETURNDATASIZE DUP2 ADD PUSH1 0x4 DUP4 RETURNDATACOPY DUP2 MLOAD RETURNDATASIZE PUSH1 0x1 PUSH1 0x1 PUSH1 0x40 SHL SUB DUP2 PUSH1 0x24 DUP5 ADD GT DUP2 DUP5 GT OR ISZERO PUSH2 0x479D JUMPI POP POP POP POP POP SWAP1 JUMP JUMPDEST DUP3 DUP6 ADD SWAP2 POP DUP2 MLOAD DUP2 DUP2 GT ISZERO PUSH2 0x47B5 JUMPI POP POP POP POP POP POP SWAP1 JUMP JUMPDEST DUP5 RETURNDATASIZE DUP8 ADD ADD PUSH1 0x20 DUP3 DUP6 ADD ADD GT ISZERO PUSH2 0x47CF JUMPI POP POP POP POP POP POP SWAP1 JUMP JUMPDEST PUSH2 0x47DE PUSH1 0x20 DUP3 DUP7 ADD ADD DUP8 PUSH2 0x3E36 JUMP JUMPDEST POP SWAP1 SWAP6 SWAP5 POP POP POP POP POP JUMP JUMPDEST PUSH1 0x20 DUP1 DUP3 MSTORE PUSH1 0x28 SWAP1 DUP3 ADD MSTORE PUSH32 0x455243313135353A204552433131353552656365697665722072656A65637465 PUSH1 0x40 DUP3 ADD MSTORE PUSH8 0x6420746F6B656E73 PUSH1 0xC0 SHL PUSH1 0x60 DUP3 ADD MSTORE PUSH1 0x80 ADD SWAP1 JUMP JUMPDEST PUSH1 0x1 PUSH1 0x1 PUSH1 0xA0 SHL SUB DUP7 DUP2 AND DUP3 MSTORE DUP6 AND PUSH1 0x20 DUP3 ADD MSTORE PUSH1 0xA0 PUSH1 0x40 DUP3 ADD DUP2 SWAP1 MSTORE PUSH1 0x0 SWAP1 PUSH2 0x485D SWAP1 DUP4 ADD DUP7 PUSH2 0x3D85 JUMP JUMPDEST DUP3 DUP2 SUB PUSH1 0x60 DUP5 ADD MSTORE PUSH2 0x486F DUP2 DUP7 PUSH2 0x3D85 JUMP JUMPDEST SWAP1 POP DUP3 DUP2 SUB PUSH1 0x80 DUP5 ADD MSTORE PUSH2 0x37F3 DUP2 DUP6 PUSH2 0x3CC5 JUMP INVALID EXP MLOAD PC DUP12 AND PUSH5 0x495F089DD8 RETURNDATASIZE 0x2D 0x26 CALLCODE SELFBALANCE SWAP3 0xF SWAP5 0xA5 PUSH27 0x4A09F20CF068EFC8F82BD4A26469706673582212207FAE03C6568A 0xEC PUSH3 0x2B2317 ADD LOG0 PUSH18 0x59CCF7F9711EE64A56E859501E845243D78B PUSH5 0x736F6C6343 STOP ADDMOD SIGNEXTEND STOP CALLER ","sha1":"d21c6e7794f34014931818f3949065c6c39fd5c4","source":"// SPDX-License-Identifier: MIT\npragma solidity ^0.8.0;\n\nimport \"./MemorizeThisDay.sol\";\n\ncontract MemorizeThisDayOnBTC is MemorizeThisDay {\n    constructor(\n        address vrfCoordinator,\n        address linkToken,\n        uint256 chainlinkFee,\n        bytes32 keyHash,\n        address priceFeedAddress,\n        address developersAddress\n    )\n        public\n        MemorizeThisDay(\n            \"Bitcoin\",\n            \"https://memorizethisday.github.io/BTC/{id}.json\",\n            100,\n            vrfCoordinator,\n            linkToken,\n            chainlinkFee,\n            keyHash,\n            priceFeedAddress,\n            developersAddress\n        )\n    {\n        SetStratDate(2015, 1, 5);\n\n        //TODO mint gifts\n        //TODO mint electoral\n    }\n}\n","sourcePath":"contracts/MemorizeBTC.sol","deployment":{"address":"0x2d2a36F0dC67d4680F6fF12e7cdbE1d7Af5ecC39","chainid":"4","blockHeight":10340070}}