{"abi":[{"inputs":[{"internalType":"address","name":"vrfCoordinator","type":"address"},{"internalType":"address","name":"linkToken","type":"address"},{"internalType":"uint256","name":"chainlinkFee","type":"uint256"},{"internalType":"bytes32","name":"keyHash","type":"bytes32"},{"internalType":"address","name":"priceFeedAddress","type":"address"},{"internalType":"address","name":"developersAddress","type":"address"}],"stateMutability":"nonpayable","type":"constructor","name":"constructor"},{"anonymous":false,"inputs":[{"indexed":true,"internalType":"address","name":"account","type":"address"},{"indexed":true,"internalType":"address","name":"operator","type":"address"},{"indexed":false,"internalType":"bool","name":"approved","type":"bool"}],"name":"ApprovalForAll","type":"event"},{"anonymous":false,"inputs":[{"indexed":true,"internalType":"address","name":"holder","type":"address"}],"name":"CommunitySelectedForMintPriceShareEvent","type":"event"},{"anonymous":false,"inputs":[{"indexed":false,"internalType":"uint256","name":"year","type":"uint256"},{"indexed":false,"internalType":"uint256","name":"month","type":"uint256"},{"indexed":false,"internalType":"uint256","name":"day","type":"uint256"},{"indexed":true,"internalType":"address","name":"holder","type":"address"}],"name":"GiftedEvent","type":"event"},{"anonymous":false,"inputs":[{"indexed":false,"internalType":"uint256","name":"year","type":"uint256"},{"indexed":false,"internalType":"uint256","name":"month","type":"uint256"},{"indexed":false,"internalType":"uint256","name":"day","type":"uint256"},{"indexed":true,"internalType":"address","name":"holder","type":"address"}],"name":"MemorizedEvent","type":"event"},{"anonymous":false,"inputs":[{"indexed":true,"internalType":"address","name":"previousOwner","type":"address"},{"indexed":true,"internalType":"address","name":"newOwner","type":"address"}],"name":"OwnershipTransferred","type":"event"},{"anonymous":false,"inputs":[{"indexed":false,"internalType":"address","name":"account","type":"address"}],"name":"Paused","type":"event"},{"anonymous":false,"inputs":[{"indexed":true,"internalType":"address","name":"_address","type":"address"},{"indexed":false,"internalType":"uint256","name":"randomness","type":"uint256"}],"name":"PeriodicGiftWinnerSelectedEvent","type":"event"},{"anonymous":false,"inputs":[{"indexed":true,"internalType":"address","name":"_address","type":"address"}],"name":"RegisterForPeriodiclyGiftEvent","type":"event"},{"anonymous":false,"inputs":[{"indexed":false,"internalType":"bytes32","name":"requestId","type":"bytes32"}],"name":"RequestedRandomnessEvent","type":"event"},{"anonymous":false,"inputs":[{"indexed":true,"internalType":"address","name":"holder","type":"address"},{"indexed":false,"internalType":"string","name":"memo","type":"string"}],"name":"SetMemoEvent","type":"event"},{"anonymous":false,"inputs":[{"indexed":true,"internalType":"address","name":"operator","type":"address"},{"indexed":true,"internalType":"address","name":"from","type":"address"},{"indexed":true,"internalType":"address","name":"to","type":"address"},{"indexed":false,"internalType":"uint256[]","name":"ids","type":"uint256[]"},{"indexed":false,"internalType":"uint256[]","name":"values","type":"uint256[]"}],"name":"TransferBatch","type":"event"},{"anonymous":false,"inputs":[{"indexed":true,"internalType":"address","name":"operator","type":"address"},{"indexed":true,"internalType":"address","name":"from","type":"address"},{"indexed":true,"internalType":"address","name":"to","type":"address"},{"indexed":false,"internalType":"uint256","name":"id","type":"uint256"},{"indexed":false,"internalType":"uint256","name":"value","type":"uint256"}],"name":"TransferSingle","type":"event"},{"anonymous":false,"inputs":[{"indexed":false,"internalType":"string","name":"value","type":"string"},{"indexed":true,"internalType":"uint256","name":"id","type":"uint256"}],"name":"URI","type":"event"},{"anonymous":false,"inputs":[{"indexed":false,"internalType":"address","name":"account","type":"address"}],"name":"Unpaused","type":"event"},{"anonymous":false,"inputs":[{"indexed":true,"internalType":"address","name":"_address","type":"address"},{"indexed":true,"internalType":"uint256","name":"_amount","type":"uint256"}],"name":"WithdrawalEvent","type":"event"},{"stateMutability":"payable","type":"fallback"},{"inputs":[],"name":"COMMUNITY_MINT_SHARE","outputs":[{"internalType":"uint256","name":"","type":"uint256"}],"stateMutability":"view","type":"function"},{"inputs":[],"name":"DEVELOPERS_TEAM_MINT_SHARE","outputs":[{"internalType":"uint256","name":"","type":"uint256"}],"stateMutability":"view","type":"function"},{"inputs":[],"name":"ELECTORAL_MINT_SHARE","outputs":[{"internalType":"uint256","name":"","type":"uint256"}],"stateMutability":"view","type":"function"},{"inputs":[],"name":"FIRST_INFLUENCER_MINT_SHARE","outputs":[{"internalType":"uint256","name":"","type":"uint256"}],"stateMutability":"view","type":"function"},{"inputs":[],"name":"FOUNDER_MINT_SHARE","outputs":[{"internalType":"uint256","name":"","type":"uint256"}],"stateMutability":"view","type":"function"},{"inputs":[{"internalType":"uint256","name":"year","type":"uint256"},{"internalType":"uint256","name":"month","type":"uint256"},{"internalType":"uint256","name":"day","type":"uint256"}],"name":"GetHolderOfTheDay","outputs":[{"internalType":"address","name":"","type":"address"}],"stateMutability":"view","type":"function"},{"inputs":[{"internalType":"uint256","name":"year","type":"uint256"},{"internalType":"uint256","name":"month","type":"uint256"},{"internalType":"uint256","name":"day","type":"uint256"}],"name":"GetIdByDate","outputs":[{"internalType":"uint256","name":"","type":"uint256"}],"stateMutability":"view","type":"function"},{"inputs":[],"name":"GetMemorizeFee","outputs":[{"internalType":"uint256","name":"","type":"uint256"}],"stateMutability":"view","type":"function"},{"inputs":[],"name":"GetMintedDaysLength","outputs":[{"internalType":"uint256","name":"","type":"uint256"}],"stateMutability":"view","type":"function"},{"inputs":[],"name":"GetPeriodicGiftRegistersLength","outputs":[{"internalType":"uint256","name":"","type":"uint256"}],"stateMutability":"view","type":"function"},{"inputs":[{"internalType":"uint256","name":"year","type":"uint256"},{"internalType":"uint256","name":"month","type":"uint256"},{"internalType":"uint256","name":"day","type":"uint256"}],"name":"GetSearchTerm","outputs":[{"internalType":"string[3]","name":"","type":"string[3]"}],"stateMutability":"view","type":"function"},{"inputs":[{"internalType":"uint256","name":"_dayNumber","type":"uint256"}],"name":"IsDayNumberValidForMinting","outputs":[{"internalType":"bool","name":"","type":"bool"}],"stateMutability":"view","type":"function"},{"inputs":[],"name":"MORALIS_COMMUNITY_MINT_SHARE","outputs":[{"internalType":"uint256","name":"","type":"uint256"}],"stateMutability":"view","type":"function"},{"inputs":[{"internalType":"uint256","name":"year","type":"uint256"},{"internalType":"uint256","name":"month","type":"uint256"},{"internalType":"uint256","name":"day","type":"uint256"}],"name":"Memorize","outputs":[],"stateMutability":"payable","type":"function"},{"inputs":[],"name":"PauseContract","outputs":[],"stateMutability":"nonpayable","type":"function"},{"inputs":[],"name":"RegisterForPeriodiclyGift","outputs":[],"stateMutability":"nonpayable","type":"function"},{"inputs":[],"name":"SECOND_INFLUENCER_MINT_SHARE","outputs":[{"internalType":"uint256","name":"","type":"uint256"}],"stateMutability":"view","type":"function"},{"inputs":[],"name":"SMARTCONTRACT_FEES_MINT_SHARE","outputs":[{"internalType":"uint256","name":"","type":"uint256"}],"stateMutability":"view","type":"function"},{"inputs":[],"name":"SelectPeriodicWinner","outputs":[],"stateMutability":"nonpayable","type":"function"},{"inputs":[{"internalType":"address","name":"targetAirdrop","type":"address"}],"name":"SendAirdrop","outputs":[],"stateMutability":"nonpayable","type":"function"},{"inputs":[{"internalType":"address","name":"addrs","type":"address"}],"name":"SetDeveloperTeamShareAddress","outputs":[],"stateMutability":"nonpayable","type":"function"},{"inputs":[{"internalType":"address","name":"addrs","type":"address"},{"internalType":"bool","name":"preserveBalance","type":"bool"}],"name":"SetFirstInfluencerAddress","outputs":[],"stateMutability":"nonpayable","type":"function"},{"inputs":[{"internalType":"address","name":"addrs","type":"address"},{"internalType":"bool","name":"preserveBalance","type":"bool"}],"name":"SetFounderAddress","outputs":[],"stateMutability":"nonpayable","type":"function"},{"inputs":[{"internalType":"uint256","name":"year","type":"uint256"},{"internalType":"uint256","name":"month","type":"uint256"},{"internalType":"uint256","name":"day","type":"uint256"},{"internalType":"string","name":"memo","type":"string"}],"name":"SetMemo","outputs":[],"stateMutability":"nonpayable","type":"function"},{"inputs":[{"internalType":"address","name":"addrs","type":"address"},{"internalType":"bool","name":"preserveBalance","type":"bool"}],"name":"SetMoralisTeamAddress","outputs":[],"stateMutability":"nonpayable","type":"function"},{"inputs":[{"internalType":"address","name":"addrs","type":"address"},{"internalType":"bool","name":"preserveBalance","type":"bool"}],"name":"SetSecondInfluencerAddress","outputs":[],"stateMutability":"nonpayable","type":"function"},{"inputs":[{"internalType":"uint256","name":"year","type":"uint256"},{"internalType":"uint256","name":"month","type":"uint256"},{"internalType":"uint256","name":"day","type":"uint256"}],"name":"SetStratDate","outputs":[],"stateMutability":"nonpayable","type":"function"},{"inputs":[],"name":"UnPauseContract","outputs":[],"stateMutability":"nonpayable","type":"function"},{"inputs":[{"internalType":"uint256","name":"fee","type":"uint256"}],"name":"UpdateChainlinkFee","outputs":[],"stateMutability":"nonpayable","type":"function"},{"inputs":[{"internalType":"string","name":"link","type":"string"},{"internalType":"string","name":"title","type":"string"},{"internalType":"string","name":"logoLink","type":"string"}],"name":"UpdateElectoral","outputs":[],"stateMutability":"nonpayable","type":"function"},{"inputs":[],"name":"Withdrawal","outputs":[],"stateMutability":"nonpayable","type":"function"},{"inputs":[],"name":"WithdrawalSmartContractFee","outputs":[],"stateMutability":"payable","type":"function"},{"inputs":[{"internalType":"address","name":"","type":"address"}],"name":"_airdrop","outputs":[{"internalType":"uint256","name":"","type":"uint256"}],"stateMutability":"view","type":"function"},{"inputs":[],"name":"_airdropPeriodInDays","outputs":[{"internalType":"uint256","name":"","type":"uint256"}],"stateMutability":"view","type":"function"},{"inputs":[],"name":"_assetName","outputs":[{"internalType":"string","name":"","type":"string"}],"stateMutability":"view","type":"function"},{"inputs":[],"name":"_chainlinkFee","outputs":[{"internalType":"uint256","name":"","type":"uint256"}],"stateMutability":"view","type":"function"},{"inputs":[],"name":"_developerTeamShareAddress","outputs":[{"internalType":"address","name":"","type":"address"}],"stateMutability":"view","type":"function"},{"inputs":[],"name":"_electoralAirdropPeriodInDays","outputs":[{"internalType":"uint256","name":"","type":"uint256"}],"stateMutability":"view","type":"function"},{"inputs":[],"name":"_electoralLink","outputs":[{"internalType":"string","name":"","type":"string"}],"stateMutability":"view","type":"function"},{"inputs":[],"name":"_electoralLogoAddress","outputs":[{"internalType":"string","name":"","type":"string"}],"stateMutability":"view","type":"function"},{"inputs":[],"name":"_electoralTitle","outputs":[{"internalType":"string","name":"","type":"string"}],"stateMutability":"view","type":"function"},{"inputs":[],"name":"_firstInfluencerAddress","outputs":[{"internalType":"address","name":"","type":"address"}],"stateMutability":"view","type":"function"},{"inputs":[],"name":"_founderShareAddress","outputs":[{"internalType":"address","name":"","type":"address"}],"stateMutability":"view","type":"function"},{"inputs":[{"internalType":"uint256","name":"","type":"uint256"}],"name":"_holders","outputs":[{"internalType":"address","name":"","type":"address"}],"stateMutability":"view","type":"function"},{"inputs":[],"name":"_lastAirdropPeriodWinnerSelectDate","outputs":[{"internalType":"uint256","name":"","type":"uint256"}],"stateMutability":"view","type":"function"},{"inputs":[],"name":"_lastElectoralAirdropDate","outputs":[{"internalType":"uint256","name":"","type":"uint256"}],"stateMutability":"view","type":"function"},{"inputs":[{"internalType":"uint256","name":"","type":"uint256"}],"name":"_memo","outputs":[{"internalType":"string","name":"","type":"string"}],"stateMutability":"view","type":"function"},{"inputs":[],"name":"_mintPrice","outputs":[{"internalType":"uint256","name":"","type":"uint256"}],"stateMutability":"view","type":"function"},{"inputs":[],"name":"_mintPriceStep","outputs":[{"internalType":"uint256","name":"","type":"uint256"}],"stateMutability":"view","type":"function"},{"inputs":[{"internalType":"uint256","name":"","type":"uint256"}],"name":"_mintedDays","outputs":[{"internalType":"uint256","name":"","type":"uint256"}],"stateMutability":"view","type":"function"},{"inputs":[],"name":"_moralisCommunityAddress","outputs":[{"internalType":"address","name":"","type":"address"}],"stateMutability":"view","type":"function"},{"inputs":[{"internalType":"uint256","name":"","type":"uint256"}],"name":"_periodicGiftRegisters","outputs":[{"internalType":"address","name":"","type":"address"}],"stateMutability":"view","type":"function"},{"inputs":[],"name":"_secondInfluencerAddress","outputs":[{"internalType":"address","name":"","type":"address"}],"stateMutability":"view","type":"function"},{"inputs":[],"name":"_startDate","outputs":[{"internalType":"uint256","name":"","type":"uint256"}],"stateMutability":"view","type":"function"},{"inputs":[{"internalType":"address","name":"","type":"address"}],"name":"_wallet","outputs":[{"internalType":"uint256","name":"","type":"uint256"}],"stateMutability":"view","type":"function"},{"inputs":[{"internalType":"address","name":"account","type":"address"},{"internalType":"uint256","name":"id","type":"uint256"}],"name":"balanceOf","outputs":[{"internalType":"uint256","name":"","type":"uint256"}],"stateMutability":"view","type":"function"},{"inputs":[{"internalType":"address[]","name":"accounts","type":"address[]"},{"internalType":"uint256[]","name":"ids","type":"uint256[]"}],"name":"balanceOfBatch","outputs":[{"internalType":"uint256[]","name":"","type":"uint256[]"}],"stateMutability":"view","type":"function"},{"inputs":[{"internalType":"address","name":"account","type":"address"},{"internalType":"address","name":"operator","type":"address"}],"name":"isApprovedForAll","outputs":[{"internalType":"bool","name":"","type":"bool"}],"stateMutability":"view","type":"function"},{"inputs":[],"name":"owner","outputs":[{"internalType":"address","name":"","type":"address"}],"stateMutability":"view","type":"function"},{"inputs":[],"name":"paused","outputs":[{"internalType":"bool","name":"","type":"bool"}],"stateMutability":"view","type":"function"},{"inputs":[{"internalType":"bytes32","name":"requestId","type":"bytes32"},{"internalType":"uint256","name":"randomness","type":"uint256"}],"name":"rawFulfillRandomness","outputs":[],"stateMutability":"nonpayable","type":"function"},{"inputs":[],"name":"renounceOwnership","outputs":[],"stateMutability":"nonpayable","type":"function"},{"inputs":[{"internalType":"address","name":"from","type":"address"},{"internalType":"address","name":"to","type":"address"},{"internalType":"uint256[]","name":"ids","type":"uint256[]"},{"internalType":"uint256[]","name":"amounts","type":"uint256[]"},{"internalType":"bytes","name":"data","type":"bytes"}],"name":"safeBatchTransferFrom","outputs":[],"stateMutability":"nonpayable","type":"function"},{"inputs":[{"internalType":"address","name":"from","type":"address"},{"internalType":"address","name":"to","type":"address"},{"internalType":"uint256","name":"id","type":"uint256"},{"internalType":"uint256","name":"amount","type":"uint256"},{"internalType":"bytes","name":"data","type":"bytes"}],"name":"safeTransferFrom","outputs":[],"stateMutability":"nonpayable","type":"function"},{"inputs":[{"internalType":"address","name":"operator","type":"address"},{"internalType":"bool","name":"approved","type":"bool"}],"name":"setApprovalForAll","outputs":[],"stateMutability":"nonpayable","type":"function"},{"inputs":[{"internalType":"bytes4","name":"interfaceId","type":"bytes4"}],"name":"supportsInterface","outputs":[{"internalType":"bool","name":"","type":"bool"}],"stateMutability":"view","type":"function"},{"inputs":[{"internalType":"address","name":"newOwner","type":"address"}],"name":"transferOwnership","outputs":[],"stateMutability":"nonpayable","type":"function"},{"inputs":[{"internalType":"uint256","name":"","type":"uint256"}],"name":"uri","outputs":[{"internalType":"string","name":"","type":"string"}],"stateMutability":"view","type":"function"}],"bytecode":"60c06040526000600a556000600b556000600c556007600e556007600f553480156200002a57600080fd5b5060405162004f3d38038062004f3d8339810160408190526200004d91620005b5565b604051806040016040528060078152602001662134ba31b7b4b760c91b8152506040518060600160405280602f815260200162004f0e602f913960648888888888888585896200009d81620001b8565b506003805460ff19169055620000b333620001d1565b6001600160a01b0391821660a05216608052620000d987670de0b6b3a76400006200063a565b600a819055600c55601980546001600160a01b0319166001600160a01b0383169081179091556000908152601c60209081526040909120601490819055859055601584905542601081905560115589516200013b91600991908c0190620004f2565b5050601680546001600160a01b0319908116600190811790925560178054821660021790556018805482166003179055601a805482166004179055600880546001600160a01b03949094169390911692909217909155620001ac97506107df9650945060059350506200022b915050565b505050505050620007f6565b8051620001cd906002906020840190620004f2565b5050565b600380546001600160a01b03838116610100818102610100600160a81b031985161790945560405193909204169182907f8be0079c531659141344cd1fd0a4f28419497f9722a3daafe3b4186f6b6457e090600090a35050565b6003546001600160a01b03610100909104163314620002915760405162461bcd60e51b815260206004820181905260248201527f4f776e61626c653a2063616c6c6572206973206e6f7420746865206f776e657260448201526064015b60405180910390fd5b60035460ff1615620002d95760405162461bcd60e51b815260206004820152601060248201526f14185d5cd8589b194e881c185d5cd95960821b604482015260640162000288565b6000620002f38484846200035b60201b6200286b1760201c565b905060125460001462000353576012548110620003535760405162461bcd60e51b815260206004820152601f60248201527f4f6e6c79206261636b77617264206368616e676520697320616c6c6f77656400604482015260640162000288565b601255505050565b6000620151806200036e85858562000382565b6200037a91906200063a565b949350505050565b60006107b28410156200039457600080fd5b838383600062253d8c60046064600c620003b0600e886200065c565b620003bc9190620006a1565b620003ca88611324620006e1565b620003d69190620006e1565b620003e29190620006a1565b620003ef90600362000728565b620003fb9190620006a1565b600c806200040b600e886200065c565b620004179190620006a1565b6200042490600c62000728565b620004316002886200065c565b6200043d91906200065c565b6200044b9061016f62000728565b620004579190620006a1565b6004600c62000468600e896200065c565b620004749190620006a1565b62000482896112c0620006e1565b6200048e9190620006e1565b6200049c906105b562000728565b620004a89190620006a1565b620004b6617d4b876200065c565b620004c29190620006e1565b620004ce9190620006e1565b620004da91906200065c565b620004e691906200065c565b98975050505050505050565b8280546200050090620007b9565b90600052602060002090601f0160209004810192826200052457600085556200056f565b82601f106200053f57805160ff19168380011785556200056f565b828001600101855582156200056f579182015b828111156200056f57825182559160200191906001019062000552565b506200057d92915062000581565b5090565b5b808211156200057d576000815560010162000582565b80516001600160a01b0381168114620005b057600080fd5b919050565b60008060008060008060c08789031215620005cf57600080fd5b620005da8762000598565b9550620005ea6020880162000598565b94506040870151935060608701519250620006086080880162000598565b91506200061860a0880162000598565b90509295509295509295565b634e487b7160e01b600052601160045260246000fd5b600081600019048311821515161562000657576200065762000624565b500290565b60008083128015600160ff1b8501841216156200067d576200067d62000624565b6001600160ff1b03840183138116156200069b576200069b62000624565b50500390565b600082620006bf57634e487b7160e01b600052601260045260246000fd5b600160ff1b821460001984141615620006dc57620006dc62000624565b500590565b600080821280156001600160ff1b038490038513161562000706576200070662000624565b600160ff1b839003841281161562000722576200072262000624565b50500190565b60006001600160ff1b038184138284138082168684048611161562000751576200075162000624565b600160ff1b600087128281168783058912161562000773576200077362000624565b6000871292508782058712848416161562000792576200079262000624565b87850587128184161615620007ab57620007ab62000624565b505050929093029392505050565b600181811c90821680620007ce57607f821691505b60208210811415620007f057634e487b7160e01b600052602260045260246000fd5b50919050565b60805160a0516146eb6200082360003960008181611ff9015261324b0152600061321c01526146eb6000f3fe6080604052600436106103ee5760003560e01c806371b7ab4c11610208578063c993717211610118578063e9cc3b54116100ab578063f2fde38b1161007a578063f2fde38b14610b4e578063f6e9119214610b6e578063f8a433ec14610b8e578063f9da6a1a14610ba3578063ffcb515614610bb8576103ee565b8063e9cc3b5414610b04578063ec16f94714610b19578063ec3f1a3214610539578063f242432a14610b2e576103ee565b8063dbdad464116100e7578063dbdad46414610a45578063dd2cec7f14610a65578063e5ada10c14610a9b578063e985e9c514610abb576103ee565b8063c9937172146109e5578063d50ac89214610a05578063d6b4c04114610a1b578063d8b4d6e314610a30576103ee565b8063a22cb4651161019b578063ac8daba01161016a578063ac8daba014610965578063ae969cd21461097b578063bafdf5bb1461099b578063bbb6e49d146109bb578063bdc7dd3a146109d0576103ee565b8063a22cb465146108fa578063a5ee02571461091a578063a9665b7a1461093a578063ab32d59414610950576103ee565b806393e51b64116101d757806393e51b64146108a457806394985ddd146108ba57806396ff141f146105395780639e6db9d7146108da576103ee565b806371b7ab4c1461083757806389af787f1461084c5780638da5cb5b1461086c57806392b56abb1461088f576103ee565b80633f711137116103035780635c975abb116102965780636db3cc46116102655780636db3cc46146107c35780636e21fc87146107d85780636f78a4f71461080557806370e44c6a1461080d578063715018a614610822576103ee565b80635c975abb146107565780635eae5b301461076e57806364e376b61461078e5780636cebb54e146107ae576103ee565b8063503f5581116102d2578063503f5581146106d6578063516b466e146106f6578063542d44ed1461071657806356f2520d14610736576103ee565b80633f7111371461065e5780634e1273f4146106735780634e3412b2146106a0578063503d3a81146106b6576103ee565b806313887d95116103865780632eb2c2d6116103555780632eb2c2d6146105c5578063303dd553146105e5578063313d3e92146105fb578063327285dc1461061b578063340d899a14610648576103ee565b806313887d951461054e5780631528662c1461057b5780631c8108b11461059d5780631f34bdca146105b2576103ee565b806306389ca1116103c257806306389ca1146104b45780630a6a001c146104ec5780630e89341c1461050c57806310ab09a314610539576103ee565b8062fdd58e1461041b57806301ffc9a71461044e578063037a24141461047e5780630387da421461049e575b306000908152601b6020526040902054610409903490613a5d565b306000908152601b6020526040902055005b34801561042757600080fd5b5061043b610436366004613a8c565b610bcd565b6040519081526020015b60405180910390f35b34801561045a57600080fd5b5061046e610469366004613acc565b610c64565b6040519015158152602001610445565b34801561048a57600080fd5b5061043b610499366004613ae9565b610cb6565b3480156104aa57600080fd5b5061043b600c5481565b3480156104c057600080fd5b506104d46104cf366004613ae9565b610ccb565b6040516001600160a01b039091168152602001610445565b3480156104f857600080fd5b5061043b610507366004613b15565b610cfa565b34801561051857600080fd5b5061052c610527366004613b15565b610d1b565b6040516104459190613b7b565b34801561054557600080fd5b5061043b600a81565b34801561055a57600080fd5b5061043b610569366004613b8e565b601b6020526000908152604090205481565b34801561058757600080fd5b5061059b610596366004613bb7565b610daf565b005b3480156105a957600080fd5b5061059b610e9c565b61059b6105c0366004613ae9565b610ed6565b3480156105d157600080fd5b5061059b6105e0366004613d3a565b611596565b3480156105f157600080fd5b5061043b60105481565b34801561060757600080fd5b5061046e610616366004613b15565b611626565b34801561062757600080fd5b5061063b610636366004613ae9565b611654565b6040516104459190613de4565b34801561065457600080fd5b5061043b60145481565b34801561066a57600080fd5b50600d5461043b565b34801561067f57600080fd5b5061069361068e366004613e31565b61191d565b6040516104459190613f37565b3480156106ac57600080fd5b5061043b600a5481565b3480156106c257600080fd5b5061059b6106d1366004613f4a565b611a47565b3480156106e257600080fd5b5061059b6106f1366004613b15565b611b7a565b34801561070257600080fd5b5061059b610711366004613ae9565b611bd2565b34801561072257600080fd5b506019546104d4906001600160a01b031681565b34801561074257600080fd5b5061052c610751366004613b15565b611c97565b34801561076257600080fd5b5060035460ff1661046e565b34801561077a57600080fd5b5061059b610789366004613b8e565b611d31565b34801561079a57600080fd5b50601a546104d4906001600160a01b031681565b3480156107ba57600080fd5b5061052c611da6565b3480156107cf57600080fd5b5061043b600181565b3480156107e457600080fd5b5061043b6107f3366004613b8e565b601c6020526000908152604090205481565b61059b611db3565b34801561081957600080fd5b5061059b611e26565b34801561082e57600080fd5b5061059b611f0d565b34801561084357600080fd5b5061043b600f81565b34801561085857600080fd5b5061059b610867366004613fa4565b611f47565b34801561087857600080fd5b5060035461010090046001600160a01b03166104d4565b34801561089b57600080fd5b5061052c611fe1565b3480156108b057600080fd5b5061043b60115481565b3480156108c657600080fd5b5061059b6108d536600461402c565b611fee565b3480156108e657600080fd5b506018546104d4906001600160a01b031681565b34801561090657600080fd5b5061059b610915366004613bb7565b612070565b34801561092657600080fd5b506017546104d4906001600160a01b031681565b34801561094657600080fd5b5061043b600f5481565b34801561095c57600080fd5b5060135461043b565b34801561097157600080fd5b5061043b60125481565b34801561098757600080fd5b506104d4610996366004613b15565b61207b565b3480156109a757600080fd5b5061059b6109b6366004613bb7565b6120a5565b3480156109c757600080fd5b5061043b600981565b3480156109dc57600080fd5b5061043b601481565b3480156109f157600080fd5b5061059b610a00366004613bb7565b612165565b348015610a1157600080fd5b5061043b600e5481565b348015610a2757600080fd5b5061052c612225565b348015610a3c57600080fd5b5061043b601981565b348015610a5157600080fd5b5061059b610a60366004613b8e565b612232565b348015610a7157600080fd5b506104d4610a80366004613b15565b601d602052600090815260409020546001600160a01b031681565b348015610aa757600080fd5b506016546104d4906001600160a01b031681565b348015610ac757600080fd5b5061046e610ad636600461404e565b6001600160a01b03918216600090815260016020908152604080832093909416825291909152205460ff1690565b348015610b1057600080fd5b5061059b61233f565b348015610b2557600080fd5b5061059b61242c565b348015610b3a57600080fd5b5061059b610b49366004614081565b612581565b348015610b5a57600080fd5b5061059b610b69366004613b8e565b612608565b348015610b7a57600080fd5b5061059b610b89366004613bb7565b6126a9565b348015610b9a57600080fd5b5061043b612769565b348015610baf57600080fd5b5061052c612826565b348015610bc457600080fd5b5061059b612833565b60006001600160a01b038316610c3e5760405162461bcd60e51b815260206004820152602b60248201527f455243313135353a2062616c616e636520717565727920666f7220746865207a60448201526a65726f206164647265737360a81b60648201526084015b60405180910390fd5b506000908152602081815260408083206001600160a01b03949094168352929052205490565b60006001600160e01b03198216636cdb3d1360e11b1480610c9557506001600160e01b031982166303a24d0760e21b145b80610cb057506301ffc9a760e01b6001600160e01b03198316145b92915050565b6000610cc384848461286b565b949350505050565b600080610cd985858561286b565b6000908152601d60205260409020546001600160a01b031695945050505050565b60138181548110610d0a57600080fd5b600091825260209091200154905081565b606060028054610d2a906140e6565b80601f0160208091040260200160405190810160405280929190818152602001828054610d56906140e6565b8015610da35780601f10610d7857610100808354040283529160200191610da3565b820191906000526020600020905b815481529060010190602001808311610d8657829003601f168201915b50505050509050919050565b6003546001600160a01b03610100909104163314610ddf5760405162461bcd60e51b8152600401610c3590614121565b8015610e2957601780546001600160a01b038481166001600160a01b031983168117909355166000818152601b602052604080822080549483529082209390935590815290555050565b601780546001600160a01b038481166001600160a01b031983161790925581166000818152601b60205260408082205460195490941682529020549091610e6f91613a5d565b6019546001600160a01b039081166000908152601b602052604080822093909355921682528120555b5050565b6003546001600160a01b03610100909104163314610ecc5760405162461bcd60e51b8152600401610c3590614121565b610ed4612886565b565b60035460ff1615610ef95760405162461bcd60e51b8152600401610c3590614156565b811580610f065750600c82115b15610f4b5760405162461bcd60e51b81526020600482015260156024820152743bb937b7339036b7b73a341039b2b632b1ba34b7b760591b6044820152606401610c35565b801580610f585750601f81115b15610f9b5760405162461bcd60e51b81526020600482015260136024820152723bb937b733903230bc9039b2b632b1ba34b7b760691b6044820152606401610c35565b8160041480610faa5750816006145b80610fb55750816009145b80610fc0575081600b145b8015610fcc5750601e81115b50816002148015610fe15750610fe1836128fb565b8015610fed5750601d81115b508160021480156110045750611002836128fb565b155b80156110105750601c81115b50600061101e84848461286b565b905061102981611626565b6110ad5760405162461bcd60e51b815260206004820152604960248201527f54686973206461792043616e206e6f74206265206d696e74206174207468652060448201527f6d6f6d656e742c706c65617365207761697420756e74696c20746865206163746064820152683ab0b636103230bc9760b91b608482015260a401610c35565b6000818152601d60205260409020546001600160a01b0316156111125760405162461bcd60e51b815260206004820152601e60248201527f54686973206461792068617320616c7265616479206d656d6f72697a656400006044820152606401610c35565b336000908152601c6020526040812054156111575750336000908152601c6020526040902054600190611146908290614180565b336000908152601c60205260409020555b8061148257611164612769565b3410156111c15760405162461bcd60e51b815260206004820152602560248201527f4e6f7420656e6f7567682066756e647320746f206d656d6f72697a6520746869604482015264732064617960d81b6064820152608401610c35565b600060646111d0600f34614197565b6111da91906141cc565b600080516020614696833981519152546001600160a01b03166000908152601b6020526040902054909150611210908290613a5d565b600080516020614696833981519152546001600160a01b03166000908152601b60205260408120919091556064611248600a34614197565b61125291906141cc565b601a546001600160a01b03166000908152601b602052604090205490915061127b908290613a5d565b601a546001600160a01b03166000908152601b602052604081209190915560646112a6600134614197565b6112b091906141cc565b306000908152601b60205260409020549091506112ce908290613a5d565b306000908152601b602052604090205560646112eb601934614197565b6112f591906141cc565b600b81905561130390612937565b60006064611312601434614197565b61131c91906141cc565b6016546001600160a01b03166000908152601b6020526040902054909150611345908290613a5d565b6016546001600160a01b03166000908152601b60205260408120919091556064611370600a34614197565b61137a91906141cc565b6017546001600160a01b03166000908152601b60205260409020549091506113a3908290613a5d565b6017546001600160a01b03166000908152601b602052604081209190915560646113ce600a34614197565b6113d891906141cc565b6018546001600160a01b03166000908152601b6020526040902054909150611401908290613a5d565b6018546001600160a01b03166000908152601b6020526040812091909155606461142c600934614197565b61143691906141cc565b6019546001600160a01b03166000908152601b602052604090205490915061145f908290613a5d565b6019546001600160a01b03166000908152601b6020526040902055505050505050505b61149e3383600160405180602001604052806000815250612a8d565b60138054600181019091557f66de8ffda797e3de9c05e8fc57b3bf0ec28a930d40b0d285d93c06501cf6a090018290556000828152601d6020526040902080546001600160a01b031916331790556114f4612b9d565b801561154257604080518681526020810186905290810184905233907f8f7b867d4725f039d609ba3eb633beddbb7049d42956e84b2ef81601f159b4119060600160405180910390a261158f565b61154a612baf565b604080518681526020810186905290810184905233907fa51e9b2ef1f037dee551eb226d6d1581c8fb0e0243820ebd1fbb41a13e6c2364906060015b60405180910390a25b5050505050565b6001600160a01b0385163314806115b257506115b28533610ad6565b6116195760405162461bcd60e51b815260206004820152603260248201527f455243313135353a207472616e736665722063616c6c6572206973206e6f74206044820152711bdddb995c881b9bdc88185c1c1c9bdd995960721b6064820152608401610c35565b61158f8585858585612c35565b600042821115801561163a57506012548210155b1561164757506001919050565b506000919050565b919050565b61165c613932565b600061166985858561286b565b6000818152601d60205260409020549091506001600160a01b03166116d05760405162461bcd60e51b815260206004820152601f60248201527f546869732064617920646f6573206e6f74206d656d6f72697a656420796574006044820152606401610c35565b60408051608081018252600060608201818152825282516020818101855282825280840191909152835190810184529081529181019190915261171286612e20565b815260098054611721906140e6565b80601f016020809104026020016040519081016040528092919081815260200182805461174d906140e6565b801561179a5780601f1061176f5761010080835404028352916020019161179a565b820191906000526020600020905b81548152906001019060200180831161177d57829003601f168201915b5050505050816001600381106117b2576117b26141e0565b60200201819052506000601e600084815260200190815260200160002080546117da906140e6565b80601f0160208091040260200160405190810160405280929190818152602001828054611806906140e6565b80156118535780601f1061182857610100808354040283529160200191611853565b820191906000526020600020905b81548152906001019060200180831161183657829003601f168201915b505050505090508051600014611913576000838152601e60205260409020805461187c906140e6565b80601f01602080910402602001604051908101604052809291908181526020018280546118a8906140e6565b80156118f55780601f106118ca576101008083540402835291602001916118f5565b820191906000526020600020905b8154815290600101906020018083116118d857829003601f168201915b50505050508260026003811061190d5761190d6141e0565b60200201525b5095945050505050565b606081518351146119825760405162461bcd60e51b815260206004820152602960248201527f455243313135353a206163636f756e747320616e6420696473206c656e677468604482015268040dad2e6dac2e8c6d60bb1b6064820152608401610c35565b6000835167ffffffffffffffff81111561199e5761199e613bee565b6040519080825280602002602001820160405280156119c7578160200160208202803683370190505b50905060005b8451811015611a3f57611a128582815181106119eb576119eb6141e0565b6020026020010151858381518110611a0557611a056141e0565b6020026020010151610bcd565b828281518110611a2457611a246141e0565b6020908102919091010152611a38816141f6565b90506119cd565b509392505050565b6000611a5485858561286b565b6000818152601d60205260409020549091506001600160a01b0316611abb5760405162461bcd60e51b815260206004820152601f60248201527f546869732064617920646f6573206e6f74206d656d6f72697a656420796574006044820152606401610c35565b6000818152601d60205260409020546001600160a01b03163314611b215760405162461bcd60e51b815260206004820152601760248201527f596f7520646f6e607420686176652074686973206461790000000000000000006044820152606401610c35565b6000818152601e602090815260409091208351611b4092850190613959565b50336001600160a01b03167f2d51da4e9aae0a6ee06de087193c53fcc2ada79cd6d25b0d48990840471f0585836040516115869190613b7b565b6003546001600160a01b03610100909104163314611baa5760405162461bcd60e51b8152600401610c3590614121565b60035460ff1615611bcd5760405162461bcd60e51b8152600401610c3590614156565b601455565b6003546001600160a01b03610100909104163314611c025760405162461bcd60e51b8152600401610c3590614121565b60035460ff1615611c255760405162461bcd60e51b8152600401610c3590614156565b6000611c3284848461286b565b9050601254600014611c8f576012548110611c8f5760405162461bcd60e51b815260206004820152601f60248201527f4f6e6c79206261636b77617264206368616e676520697320616c6c6f776564006044820152606401610c35565b601255505050565b601e6020526000908152604090208054611cb0906140e6565b80601f0160208091040260200160405190810160405280929190818152602001828054611cdc906140e6565b8015611d295780601f10611cfe57610100808354040283529160200191611d29565b820191906000526020600020905b815481529060010190602001808311611d0c57829003601f168201915b505050505081565b6003546001600160a01b03610100909104163314611d615760405162461bcd60e51b8152600401610c3590614121565b601980546001600160a01b039283166001600160a01b031982168117909255919091166000818152601b60205260408082208054948352908220939093559081529055565b60058054611cb0906140e6565b6003546001600160a01b03610100909104163314611de35760405162461bcd60e51b8152600401610c3590614121565b306000908152601b602052604080822080549083905590519091339183156108fc0291849190818181858888f19350505050158015610e98573d6000803e3d6000fd5b336000908152601b6020526040902054662386f26fc100001115611e9e5760405162461bcd60e51b815260206004820152602960248201527f596f7520646f6e60742068617665206d696e2062616c616e636520666f7220776044820152681a5d1a191c985dd85b60ba1b6064820152608401610c35565b336000818152601b602052604080822080549083905590519092839290917f2f174ca282119315c59efaf21147aef438581dabdeb498198ae28964373dd8bc9190a3604051339082156108fc029083906000818181858888f19350505050158015610e98573d6000803e3d6000fd5b6003546001600160a01b03610100909104163314611f3d5760405162461bcd60e51b8152600401610c3590614121565b610ed46000612f1e565b60008052601d602052600080516020614696833981519152546001600160a01b0316331480611f97575060035461010090046001600160a01b03166001600160a01b0316336001600160a01b0316145b611fa057600080fd5b8251611fb3906007906020860190613959565b508151611fc7906006906020850190613959565b508051611fdb906005906020840190613959565b50505050565b60098054611cb0906140e6565b336001600160a01b037f000000000000000000000000000000000000000000000000000000000000000016146120665760405162461bcd60e51b815260206004820152601f60248201527f4f6e6c7920565246436f6f7264696e61746f722063616e2066756c66696c6c006044820152606401610c35565b610e988282612f78565b610e98338383613109565b600d818154811061208b57600080fd5b6000918252602090912001546001600160a01b0316905081565b6003546001600160a01b036101009091041633146120d55760405162461bcd60e51b8152600401610c3590614121565b801561211f57601680546001600160a01b038481166001600160a01b031983168117909355166000818152601b602052604080822080549483529082209390935590815290555050565b601680546001600160a01b038481166001600160a01b031983161790925581166000818152601b60205260408082205460195490941682529020549091610e6f91613a5d565b6003546001600160a01b036101009091041633146121955760405162461bcd60e51b8152600401610c3590614121565b80156121df57601a80546001600160a01b038481166001600160a01b031983168117909355166000818152601b602052604080822080549483529082209390935590815290555050565b601a80546001600160a01b038481166001600160a01b031983161790925581166000818152601b60205260408082205460195490941682529020549091610e6f91613a5d565b60078054611cb0906140e6565b60008052601d602052600080516020614696833981519152546001600160a01b0316331480612282575060035461010090046001600160a01b03166001600160a01b0316336001600160a01b0316145b61228b57600080fd5b600f5461229a601154426131ea565b10156122b85760405162461bcd60e51b8152600401610c3590614211565b6001600160a01b0381166000908152601c60205260409020541561231e5760405162461bcd60e51b815260206004820181905260248201527f546869732061646472657373206861732061697264726f70207469636b6574736044820152606401610c35565b426011556001600160a01b03166000908152601c6020526040902060019055565b60035460ff16156123625760405162461bcd60e51b8152600401610c3590614156565b600e54612371601054426131ea565b101561238f5760405162461bcd60e51b8152600401610c3590614211565b600d546123de5760405162461bcd60e51b815260206004820152601a60248201527f7468657265206973206e6f7420616e79207265676973746572730000000000006044820152606401610c35565b60006123ee601554601454613218565b90507f41b48bb4a3fa87f36cd1b5550ef4af0e4c2568ea37629540b9209f5509b4a42f8160405161242191815260200190565b60405180910390a150565b60035460ff161561244f5760405162461bcd60e51b8152600401610c3590614156565b600160005b600d548110156124ad57336001600160a01b0316600d828154811061247b5761247b6141e0565b6000918252602090912001546001600160a01b0316141561249b57600091505b806124a5816141f6565b915050612454565b50806125125760405162461bcd60e51b815260206004820152602e60248201527f596f7520616c72656164792068617665206265656e207265676973746572656460448201526d20666f722074686973207765656b60901b6064820152608401610c35565b600d805460018101825560009182527fd7b6990105719101dabeb77144f2a3385c8033acd3af97e9423a695e81ad1eb50180546001600160a01b0319163390811790915560405190917fe0e462347257e042fb3036336d3f35ce831166d31e2cefc46d0d5046426d817591a250565b6001600160a01b03851633148061259d575061259d8533610ad6565b6125fb5760405162461bcd60e51b815260206004820152602960248201527f455243313135353a2063616c6c6572206973206e6f74206f776e6572206e6f7260448201526808185c1c1c9bdd995960ba1b6064820152608401610c35565b61158f8585858585613394565b6003546001600160a01b036101009091041633146126385760405162461bcd60e51b8152600401610c3590614121565b6001600160a01b03811661269d5760405162461bcd60e51b815260206004820152602660248201527f4f776e61626c653a206e6577206f776e657220697320746865207a65726f206160448201526564647265737360d01b6064820152608401610c35565b6126a681612f1e565b50565b6003546001600160a01b036101009091041633146126d95760405162461bcd60e51b8152600401610c3590614121565b801561272357601880546001600160a01b038481166001600160a01b031983168117909355166000818152601b602052604080822080549483529082209390935590815290555050565b601880546001600160a01b038481166001600160a01b031983161790925581166000818152601b60205260408082205460195490941682529020549091610e6f91613a5d565b600080600860009054906101000a90046001600160a01b03166001600160a01b031663feaf968c6040518163ffffffff1660e01b815260040160a060405180830381865afa1580156127bf573d6000803e3d6000fd5b505050506040513d601f19601f820116820180604052508101906127e3919061425b565b5050509150506000816402540be4006127fc9190614197565b905080600c54670de0b6b3a76400006128159190614197565b61281f91906141cc565b9250505090565b60068054611cb0906140e6565b6003546001600160a01b036101009091041633146128635760405162461bcd60e51b8152600401610c3590614121565b610ed46134b1565b60006201518061287c85858561352b565b610cc39190614197565b60035460ff16156128a95760405162461bcd60e51b8152600401610c3590614156565b6003805460ff191660011790557f62e78cea01bee320cd4e420270b5ea74000d11b0c9f74754ebdbfc544b05a2586128de3390565b6040516001600160a01b03909116815260200160405180910390a1565b60006129086004836142ab565b15801561291e575061291b6064836142ab565b15155b80610cb05750612930610190836142ab565b1592915050565b60006129446005836141cc565b60135490915060051015612a485760005b6005811015612a43576013805460009183612971600184614180565b61297b9190614180565b8154811061298b5761298b6141e0565b90600052602060002001546129a091906142ab565b6000818152601d60209081526040808320546001600160a01b03168352601b9091529020549091506129d3908490613a5d565b6000828152601d6020818152604080842080546001600160a01b039081168652601b84528286209690965586855292909152905490519216917fec89f096ab194d04cc1a0689e9d8459793609da7ccddf64b4423e830b98743ec9190a25080612a3b816141f6565b915050612955565b505050565b6019546001600160a01b03166000908152601b6020526040902054612a6e908390613a5d565b6019546001600160a01b03166000908152601b60205260409020555050565b6001600160a01b038416612aed5760405162461bcd60e51b815260206004820152602160248201527f455243313135353a206d696e7420746f20746865207a65726f206164647265736044820152607360f81b6064820152608401610c35565b33612b0d81600087612afe88613668565b612b0788613668565b876136b3565b6000848152602081815260408083206001600160a01b038916845290915281208054859290612b3d908490613a5d565b909155505060408051858152602081018590526001600160a01b0380881692600092918516917fc3d58168c5ae7397731d063d5bbf3d657854427343f4c083240f7aacaa2d0f62910160405180910390a461158f8160008787878761371b565b6013546103e811610ed457601e600e55565b69152d02c7e14af6800000600c541015610ed457601354612bd3906105b4906142ab565b612be957600a54612be5906002614197565b600a555b601354612bf99061016d906142ab565b612c1157600a54600c54612c0d9190613a5d565b600c555b69152d02c7e14af6800000600c541115610ed45769152d02c7e14af6800000600c55565b8151835114612c975760405162461bcd60e51b815260206004820152602860248201527f455243313135353a2069647320616e6420616d6f756e7473206c656e677468206044820152670dad2e6dac2e8c6d60c31b6064820152608401610c35565b6001600160a01b038416612cbd5760405162461bcd60e51b8152600401610c35906142bf565b33612ccc8187878787876136b3565b60005b8451811015612db2576000858281518110612cec57612cec6141e0565b602002602001015190506000858381518110612d0a57612d0a6141e0565b602090810291909101810151600084815280835260408082206001600160a01b038e168352909352919091205490915081811015612d5a5760405162461bcd60e51b8152600401610c3590614304565b6000838152602081815260408083206001600160a01b038e8116855292528083208585039055908b16825281208054849290612d97908490613a5d565b9250508190555050505080612dab906141f6565b9050612ccf565b50846001600160a01b0316866001600160a01b0316826001600160a01b03167f4a39dc06d4c0dbc64b70af90fd698a233a518aa5d07e595d983b8c0526c8f7fb8787604051612e0292919061434e565b60405180910390a4612e18818787878787613877565b505050505050565b606081612e445750506040805180820190915260018152600360fc1b602082015290565b8160005b8115612e6e5780612e58816141f6565b9150612e679050600a836141cc565b9150612e48565b60008167ffffffffffffffff811115612e8957612e89613bee565b6040519080825280601f01601f191660200182016040528015612eb3576020820181803683370190505b5090505b8415610cc357612ec8600183614180565b9150612ed5600a866142ab565b612ee0906030613a5d565b60f81b818381518110612ef557612ef56141e0565b60200101906001600160f81b031916908160001a905350612f17600a866141cc565b9450612eb7565b600380546001600160a01b03838116610100818102610100600160a81b031985161790945560405193909204169182907f8be0079c531659141344cd1fd0a4f28419497f9722a3daafe3b4186f6b6457e090600090a35050565b60008111612fc85760405162461bcd60e51b815260206004820152601a60248201527f72616e646f6d206e756d626572206973206e6f742076616c69640000000000006044820152606401610c35565b600e54612fd7601054426131ea565b1015612ff55760405162461bcd60e51b8152600401610c3590614211565b42601055600d5460009061300990836142ab565b9050601c6000600d8381548110613022576130226141e0565b60009182526020808320909101546001600160a01b03168352820192909252604001902054613052906001613a5d565b601c6000600d8481548110613069576130696141e0565b60009182526020808320909101546001600160a01b03168352820192909252604001902055600d8054829081106130a2576130a26141e0565b600091825260209182902001546040518481526001600160a01b03909116917ff101adf3fbaf187819a99e49dd82fdbacc051e51337a2fe291907f90c263c1e2910160405180910390a26040805160008152602081019182905251611fdb91600d916139dd565b816001600160a01b0316836001600160a01b0316141561317d5760405162461bcd60e51b815260206004820152602960248201527f455243313135353a2073657474696e6720617070726f76616c20737461747573604482015268103337b91039b2b63360b91b6064820152608401610c35565b6001600160a01b03838116600081815260016020908152604080832094871680845294825291829020805460ff191686151590811790915591519182527f17307eab39ab6107e8899845ad3d59bd9653f200f220920489ca2b5937696c31910160405180910390a3505050565b6000818311156131f957600080fd5b620151806132078484614180565b61321191906141cc565b9392505050565b60007f00000000000000000000000000000000000000000000000000000000000000006001600160a01b0316634000aea07f000000000000000000000000000000000000000000000000000000000000000084866000604051602001613288929190918252602082015260400190565b6040516020818303038152906040526040518463ffffffff1660e01b81526004016132b59392919061437c565b6020604051808303816000875af11580156132d4573d6000803e3d6000fd5b505050506040513d601f19601f820116820180604052508101906132f891906143a3565b50600083815260046020818152604080842054815180840189905280830186905230606082015260808082018390528351808303909101815260a090910190925281519183019190912093879052919052613354906001613a5d565b600085815260046020526040902055610cc38482604080516020808201949094528082019290925280518083038201815260609092019052805191012090565b6001600160a01b0384166133ba5760405162461bcd60e51b8152600401610c35906142bf565b336133ca818787612afe88613668565b6000848152602081815260408083206001600160a01b038a1684529091529020548381101561340b5760405162461bcd60e51b8152600401610c3590614304565b6000858152602081815260408083206001600160a01b038b8116855292528083208785039055908816825281208054869290613448908490613a5d565b909155505060408051868152602081018690526001600160a01b03808916928a821692918616917fc3d58168c5ae7397731d063d5bbf3d657854427343f4c083240f7aacaa2d0f62910160405180910390a46134a882888888888861371b565b50505050505050565b60035460ff166134fa5760405162461bcd60e51b815260206004820152601460248201527314185d5cd8589b194e881b9bdd081c185d5cd95960621b6044820152606401610c35565b6003805460ff191690557f5db9ee0a495bf2e6ff9c91a7834c1ba4fdd244a5e8aa4e537bd38aeae4b073aa336128de565b60006107b284101561353c57600080fd5b838383600062253d8c60046064600c613556600e886143c0565b61356091906143ff565b61356c8861132461442d565b613576919061442d565b61358091906143ff565b61358b90600361446e565b61359591906143ff565b600c806135a3600e886143c0565b6135ad91906143ff565b6135b890600c61446e565b6135c36002886143c0565b6135cd91906143c0565b6135d99061016f61446e565b6135e391906143ff565b6004600c6135f2600e896143c0565b6135fc91906143ff565b613608896112c061442d565b613612919061442d565b61361e906105b561446e565b61362891906143ff565b613634617d4b876143c0565b61363e919061442d565b613648919061442d565b61365291906143c0565b61365c91906143c0565b98975050505050505050565b604080516001808252818301909252606091600091906020808301908036833701905050905082816000815181106136a2576136a26141e0565b602090810291909101015292915050565b60035460ff1615612e185760405162461bcd60e51b815260206004820152602c60248201527f455243313135355061757361626c653a20746f6b656e207472616e736665722060448201526b1dda1a5b19481c185d5cd95960a21b6064820152608401610c35565b6001600160a01b0384163b15612e185760405163f23a6e6160e01b81526001600160a01b0385169063f23a6e619061375f90899089908890889088906004016144f3565b6020604051808303816000875af192505050801561379a575060408051601f3d908101601f1916820190925261379791810190614538565b60015b613847576137a6614555565b806308c379a014156137e057506137bb614571565b806137c657506137e2565b8060405162461bcd60e51b8152600401610c359190613b7b565b505b60405162461bcd60e51b815260206004820152603460248201527f455243313135353a207472616e7366657220746f206e6f6e20455243313135356044820152732932b1b2b4bb32b91034b6b83632b6b2b73a32b960611b6064820152608401610c35565b6001600160e01b0319811663f23a6e6160e01b146134a85760405162461bcd60e51b8152600401610c35906145fb565b6001600160a01b0384163b15612e185760405163bc197c8160e01b81526001600160a01b0385169063bc197c81906138bb9089908990889088908890600401614643565b6020604051808303816000875af19250505080156138f6575060408051601f3d908101601f191682019092526138f391810190614538565b60015b613902576137a6614555565b6001600160e01b0319811663bc197c8160e01b146134a85760405162461bcd60e51b8152600401610c35906145fb565b60405180606001604052806003905b60608152602001906001900390816139415790505090565b828054613965906140e6565b90600052602060002090601f01602090048101928261398757600085556139cd565b82601f106139a057805160ff19168380011785556139cd565b828001600101855582156139cd579182015b828111156139cd5782518255916020019190600101906139b2565b506139d9929150613a32565b5090565b8280548282559060005260206000209081019282156139cd579160200282015b828111156139cd57825182546001600160a01b0319166001600160a01b039091161782556020909201916001909101906139fd565b5b808211156139d95760008155600101613a33565b634e487b7160e01b600052601160045260246000fd5b60008219821115613a7057613a70613a47565b500190565b80356001600160a01b038116811461164f57600080fd5b60008060408385031215613a9f57600080fd5b613aa883613a75565b946020939093013593505050565b6001600160e01b0319811681146126a657600080fd5b600060208284031215613ade57600080fd5b813561321181613ab6565b600080600060608486031215613afe57600080fd5b505081359360208301359350604090920135919050565b600060208284031215613b2757600080fd5b5035919050565b6000815180845260005b81811015613b5457602081850181015186830182015201613b38565b81811115613b66576000602083870101525b50601f01601f19169290920160200192915050565b6020815260006132116020830184613b2e565b600060208284031215613ba057600080fd5b61321182613a75565b80151581146126a657600080fd5b60008060408385031215613bca57600080fd5b613bd383613a75565b91506020830135613be381613ba9565b809150509250929050565b634e487b7160e01b600052604160045260246000fd5b601f8201601f1916810167ffffffffffffffff81118282101715613c2a57613c2a613bee565b6040525050565b600067ffffffffffffffff821115613c4b57613c4b613bee565b5060051b60200190565b600082601f830112613c6657600080fd5b81356020613c7382613c31565b604051613c808282613c04565b83815260059390931b8501820192828101915086841115613ca057600080fd5b8286015b84811015613cbb5780358352918301918301613ca4565b509695505050505050565b600082601f830112613cd757600080fd5b813567ffffffffffffffff811115613cf157613cf1613bee565b604051613d08601f8301601f191660200182613c04565b818152846020838601011115613d1d57600080fd5b816020850160208301376000918101602001919091529392505050565b600080600080600060a08688031215613d5257600080fd5b613d5b86613a75565b9450613d6960208701613a75565b9350604086013567ffffffffffffffff80821115613d8657600080fd5b613d9289838a01613c55565b94506060880135915080821115613da857600080fd5b613db489838a01613c55565b93506080880135915080821115613dca57600080fd5b50613dd788828901613cc6565b9150509295509295909350565b60208082526000906080830183820185845b6003811015613e2557601f19878503018352613e13848351613b2e565b93509184019190840190600101613df6565b50919695505050505050565b60008060408385031215613e4457600080fd5b823567ffffffffffffffff80821115613e5c57600080fd5b818501915085601f830112613e7057600080fd5b81356020613e7d82613c31565b604051613e8a8282613c04565b83815260059390931b8501820192828101915089841115613eaa57600080fd5b948201945b83861015613ecf57613ec086613a75565b82529482019490820190613eaf565b96505086013592505080821115613ee557600080fd5b50613ef285828601613c55565b9150509250929050565b600081518084526020808501945080840160005b83811015613f2c57815187529582019590820190600101613f10565b509495945050505050565b6020815260006132116020830184613efc565b60008060008060808587031215613f6057600080fd5b843593506020850135925060408501359150606085013567ffffffffffffffff811115613f8c57600080fd5b613f9887828801613cc6565b91505092959194509250565b600080600060608486031215613fb957600080fd5b833567ffffffffffffffff80821115613fd157600080fd5b613fdd87838801613cc6565b94506020860135915080821115613ff357600080fd5b613fff87838801613cc6565b9350604086013591508082111561401557600080fd5b5061402286828701613cc6565b9150509250925092565b6000806040838503121561403f57600080fd5b50508035926020909101359150565b6000806040838503121561406157600080fd5b61406a83613a75565b915061407860208401613a75565b90509250929050565b600080600080600060a0868803121561409957600080fd5b6140a286613a75565b94506140b060208701613a75565b93506040860135925060608601359150608086013567ffffffffffffffff8111156140da57600080fd5b613dd788828901613cc6565b600181811c908216806140fa57607f821691505b6020821081141561411b57634e487b7160e01b600052602260045260246000fd5b50919050565b6020808252818101527f4f776e61626c653a2063616c6c6572206973206e6f7420746865206f776e6572604082015260600190565b60208082526010908201526f14185d5cd8589b194e881c185d5cd95960821b604082015260600190565b60008282101561419257614192613a47565b500390565b60008160001904831182151516156141b1576141b1613a47565b500290565b634e487b7160e01b600052601260045260246000fd5b6000826141db576141db6141b6565b500490565b634e487b7160e01b600052603260045260246000fd5b600060001982141561420a5761420a613a47565b5060010190565b6020808252601690820152751b9bdd08195b9bdd59da081d1a5b59481c185cdcd95960521b604082015260600190565b805169ffffffffffffffffffff8116811461164f57600080fd5b600080600080600060a0868803121561427357600080fd5b61427c86614241565b945060208601519350604086015192506060860151915061429f60808701614241565b90509295509295909350565b6000826142ba576142ba6141b6565b500690565b60208082526025908201527f455243313135353a207472616e7366657220746f20746865207a65726f206164604082015264647265737360d81b606082015260800190565b6020808252602a908201527f455243313135353a20696e73756666696369656e742062616c616e636520666f60408201526939103a3930b739b332b960b11b606082015260800190565b6040815260006143616040830185613efc565b82810360208401526143738185613efc565b95945050505050565b60018060a01b03841681528260208201526060604082015260006143736060830184613b2e565b6000602082840312156143b557600080fd5b815161321181613ba9565b60008083128015600160ff1b8501841216156143de576143de613a47565b6001600160ff1b03840183138116156143f9576143f9613a47565b50500390565b60008261440e5761440e6141b6565b600160ff1b82146000198414161561442857614428613a47565b500590565b600080821280156001600160ff1b038490038513161561444f5761444f613a47565b600160ff1b839003841281161561446857614468613a47565b50500190565b60006001600160ff1b038184138284138082168684048611161561449457614494613a47565b600160ff1b60008712828116878305891216156144b3576144b3613a47565b600087129250878205871284841616156144cf576144cf613a47565b878505871281841616156144e5576144e5613a47565b505050929093029392505050565b6001600160a01b03868116825285166020820152604081018490526060810183905260a06080820181905260009061452d90830184613b2e565b979650505050505050565b60006020828403121561454a57600080fd5b815161321181613ab6565b600060033d111561456e5760046000803e5060005160e01c5b90565b600060443d101561457f5790565b6040516003193d81016004833e81513d67ffffffffffffffff81602484011181841117156145af57505050505090565b82850191508151818111156145c75750505050505090565b843d87010160208285010111156145e15750505050505090565b6145f060208286010187613c04565b509095945050505050565b60208082526028908201527f455243313135353a204552433131353552656365697665722072656a656374656040820152676420746f6b656e7360c01b606082015260800190565b6001600160a01b0386811682528516602082015260a06040820181905260009061466f90830186613efc565b82810360608401526146818186613efc565b9050828103608084015261365c8185613b2e56fe0a51588b1664495f089dd83d2d26f247920f94a57a4a09f20cf068efc8f82bd4a26469706673582212201a00881b5499678ccd5079db28682820546d48c6f03b16caa95d3bf2e8dcb65264736f6c634300080b003368747470733a2f2f6d656d6f72697a65746869736461792e6769746875622e696f2f4254432f7b69647d2e6a736f6e","bytecodeSha1":"da39a3ee5e6b4b0d3255bfef95601890afd80709","compiler":{"evm_version":"istanbul","optimizer":{"enabled":true,"runs":200},"version":"0.8.11+commit.d7f03943"},"contractName":"MemorizeThisDayOnBTC","language":"Solidity","natspec":{"kind":"dev","methods":{"balanceOf(address,uint256)":{"details":"See {IERC1155-balanceOf}. Requirements: - `account` cannot be the zero address."},"balanceOfBatch(address[],uint256[])":{"details":"See {IERC1155-balanceOfBatch}. Requirements: - `accounts` and `ids` must have the same length."},"isApprovedForAll(address,address)":{"details":"See {IERC1155-isApprovedForAll}."},"owner()":{"details":"Returns the address of the current owner."},"paused()":{"details":"Returns true if the contract is paused, and false otherwise."},"renounceOwnership()":{"details":"Leaves the contract without owner. It will not be possible to call `onlyOwner` functions anymore. Can only be called by the current owner. NOTE: Renouncing ownership will leave the contract without an owner, thereby removing any functionality that is only available to the owner."},"safeBatchTransferFrom(address,address,uint256[],uint256[],bytes)":{"details":"See {IERC1155-safeBatchTransferFrom}."},"safeTransferFrom(address,address,uint256,uint256,bytes)":{"details":"See {IERC1155-safeTransferFrom}."},"setApprovalForAll(address,bool)":{"details":"See {IERC1155-setApprovalForAll}."},"supportsInterface(bytes4)":{"details":"See {IERC165-supportsInterface}."},"transferOwnership(address)":{"details":"Transfers ownership of the contract to a new account (`newOwner`). Can only be called by the current owner."},"uri(uint256)":{"details":"See {IERC1155MetadataURI-uri}. This implementation returns the same URI for *all* token types. It relies on the token type ID substitution mechanism https://eips.ethereum.org/EIPS/eip-1155#metadata[defined in the EIP]. Clients calling this function must replace the `\\{id\\}` substring with the actual token type ID."}},"version":1},"opcodes":"PUSH1 0x80 PUSH1 0x40 MSTORE PUSH1 0x4 CALLDATASIZE LT PUSH2 0x3EE JUMPI PUSH1 0x0 CALLDATALOAD PUSH1 0xE0 SHR DUP1 PUSH4 0x71B7AB4C GT PUSH2 0x208 JUMPI DUP1 PUSH4 0xC9937172 GT PUSH2 0x118 JUMPI DUP1 PUSH4 0xE9CC3B54 GT PUSH2 0xAB JUMPI DUP1 PUSH4 0xF2FDE38B GT PUSH2 0x7A JUMPI DUP1 PUSH4 0xF2FDE38B EQ PUSH2 0xB4E JUMPI DUP1 PUSH4 0xF6E91192 EQ PUSH2 0xB6E JUMPI DUP1 PUSH4 0xF8A433EC EQ PUSH2 0xB8E JUMPI DUP1 PUSH4 0xF9DA6A1A EQ PUSH2 0xBA3 JUMPI DUP1 PUSH4 0xFFCB5156 EQ PUSH2 0xBB8 JUMPI PUSH2 0x3EE JUMP JUMPDEST DUP1 PUSH4 0xE9CC3B54 EQ PUSH2 0xB04 JUMPI DUP1 PUSH4 0xEC16F947 EQ PUSH2 0xB19 JUMPI DUP1 PUSH4 0xEC3F1A32 EQ PUSH2 0x539 JUMPI DUP1 PUSH4 0xF242432A EQ PUSH2 0xB2E JUMPI PUSH2 0x3EE JUMP JUMPDEST DUP1 PUSH4 0xDBDAD464 GT PUSH2 0xE7 JUMPI DUP1 PUSH4 0xDBDAD464 EQ PUSH2 0xA45 JUMPI DUP1 PUSH4 0xDD2CEC7F EQ PUSH2 0xA65 JUMPI DUP1 PUSH4 0xE5ADA10C EQ PUSH2 0xA9B JUMPI DUP1 PUSH4 0xE985E9C5 EQ PUSH2 0xABB JUMPI PUSH2 0x3EE JUMP JUMPDEST DUP1 PUSH4 0xC9937172 EQ PUSH2 0x9E5 JUMPI DUP1 PUSH4 0xD50AC892 EQ PUSH2 0xA05 JUMPI DUP1 PUSH4 0xD6B4C041 EQ PUSH2 0xA1B JUMPI DUP1 PUSH4 0xD8B4D6E3 EQ PUSH2 0xA30 JUMPI PUSH2 0x3EE JUMP JUMPDEST DUP1 PUSH4 0xA22CB465 GT PUSH2 0x19B JUMPI DUP1 PUSH4 0xAC8DABA0 GT PUSH2 0x16A JUMPI DUP1 PUSH4 0xAC8DABA0 EQ PUSH2 0x965 JUMPI DUP1 PUSH4 0xAE969CD2 EQ PUSH2 0x97B JUMPI DUP1 PUSH4 0xBAFDF5BB EQ PUSH2 0x99B JUMPI DUP1 PUSH4 0xBBB6E49D EQ PUSH2 0x9BB JUMPI DUP1 PUSH4 0xBDC7DD3A EQ PUSH2 0x9D0 JUMPI PUSH2 0x3EE JUMP JUMPDEST DUP1 PUSH4 0xA22CB465 EQ PUSH2 0x8FA JUMPI DUP1 PUSH4 0xA5EE0257 EQ PUSH2 0x91A JUMPI DUP1 PUSH4 0xA9665B7A EQ PUSH2 0x93A JUMPI DUP1 PUSH4 0xAB32D594 EQ PUSH2 0x950 JUMPI PUSH2 0x3EE JUMP JUMPDEST DUP1 PUSH4 0x93E51B64 GT PUSH2 0x1D7 JUMPI DUP1 PUSH4 0x93E51B64 EQ PUSH2 0x8A4 JUMPI DUP1 PUSH4 0x94985DDD EQ PUSH2 0x8BA JUMPI DUP1 PUSH4 0x96FF141F EQ PUSH2 0x539 JUMPI DUP1 PUSH4 0x9E6DB9D7 EQ PUSH2 0x8DA JUMPI PUSH2 0x3EE JUMP JUMPDEST DUP1 PUSH4 0x71B7AB4C EQ PUSH2 0x837 JUMPI DUP1 PUSH4 0x89AF787F EQ PUSH2 0x84C JUMPI DUP1 PUSH4 0x8DA5CB5B EQ PUSH2 0x86C JUMPI DUP1 PUSH4 0x92B56ABB EQ PUSH2 0x88F JUMPI PUSH2 0x3EE JUMP JUMPDEST DUP1 PUSH4 0x3F711137 GT PUSH2 0x303 JUMPI DUP1 PUSH4 0x5C975ABB GT PUSH2 0x296 JUMPI DUP1 PUSH4 0x6DB3CC46 GT PUSH2 0x265 JUMPI DUP1 PUSH4 0x6DB3CC46 EQ PUSH2 0x7C3 JUMPI DUP1 PUSH4 0x6E21FC87 EQ PUSH2 0x7D8 JUMPI DUP1 PUSH4 0x6F78A4F7 EQ PUSH2 0x805 JUMPI DUP1 PUSH4 0x70E44C6A EQ PUSH2 0x80D JUMPI DUP1 PUSH4 0x715018A6 EQ PUSH2 0x822 JUMPI PUSH2 0x3EE JUMP JUMPDEST DUP1 PUSH4 0x5C975ABB EQ PUSH2 0x756 JUMPI DUP1 PUSH4 0x5EAE5B30 EQ PUSH2 0x76E JUMPI DUP1 PUSH4 0x64E376B6 EQ PUSH2 0x78E JUMPI DUP1 PUSH4 0x6CEBB54E EQ PUSH2 0x7AE JUMPI PUSH2 0x3EE JUMP JUMPDEST DUP1 PUSH4 0x503F5581 GT PUSH2 0x2D2 JUMPI DUP1 PUSH4 0x503F5581 EQ PUSH2 0x6D6 JUMPI DUP1 PUSH4 0x516B466E EQ PUSH2 0x6F6 JUMPI DUP1 PUSH4 0x542D44ED EQ PUSH2 0x716 JUMPI DUP1 PUSH4 0x56F2520D EQ PUSH2 0x736 JUMPI PUSH2 0x3EE JUMP JUMPDEST DUP1 PUSH4 0x3F711137 EQ PUSH2 0x65E JUMPI DUP1 PUSH4 0x4E1273F4 EQ PUSH2 0x673 JUMPI DUP1 PUSH4 0x4E3412B2 EQ PUSH2 0x6A0 JUMPI DUP1 PUSH4 0x503D3A81 EQ PUSH2 0x6B6 JUMPI PUSH2 0x3EE JUMP JUMPDEST DUP1 PUSH4 0x13887D95 GT PUSH2 0x386 JUMPI DUP1 PUSH4 0x2EB2C2D6 GT PUSH2 0x355 JUMPI DUP1 PUSH4 0x2EB2C2D6 EQ PUSH2 0x5C5 JUMPI DUP1 PUSH4 0x303DD553 EQ PUSH2 0x5E5 JUMPI DUP1 PUSH4 0x313D3E92 EQ PUSH2 0x5FB JUMPI DUP1 PUSH4 0x327285DC EQ PUSH2 0x61B JUMPI DUP1 PUSH4 0x340D899A EQ PUSH2 0x648 JUMPI PUSH2 0x3EE JUMP JUMPDEST DUP1 PUSH4 0x13887D95 EQ PUSH2 0x54E JUMPI DUP1 PUSH4 0x1528662C EQ PUSH2 0x57B JUMPI DUP1 PUSH4 0x1C8108B1 EQ PUSH2 0x59D JUMPI DUP1 PUSH4 0x1F34BDCA EQ PUSH2 0x5B2 JUMPI PUSH2 0x3EE JUMP JUMPDEST DUP1 PUSH4 0x6389CA1 GT PUSH2 0x3C2 JUMPI DUP1 PUSH4 0x6389CA1 EQ PUSH2 0x4B4 JUMPI DUP1 PUSH4 0xA6A001C EQ PUSH2 0x4EC JUMPI DUP1 PUSH4 0xE89341C EQ PUSH2 0x50C JUMPI DUP1 PUSH4 0x10AB09A3 EQ PUSH2 0x539 JUMPI PUSH2 0x3EE JUMP JUMPDEST DUP1 PUSH3 0xFDD58E EQ PUSH2 0x41B JUMPI DUP1 PUSH4 0x1FFC9A7 EQ PUSH2 0x44E JUMPI DUP1 PUSH4 0x37A2414 EQ PUSH2 0x47E JUMPI DUP1 PUSH4 0x387DA42 EQ PUSH2 0x49E JUMPI JUMPDEST ADDRESS PUSH1 0x0 SWAP1 DUP2 MSTORE PUSH1 0x1B PUSH1 0x20 MSTORE PUSH1 0x40 SWAP1 KECCAK256 SLOAD PUSH2 0x409 SWAP1 CALLVALUE SWAP1 PUSH2 0x3A5D JUMP JUMPDEST ADDRESS PUSH1 0x0 SWAP1 DUP2 MSTORE PUSH1 0x1B PUSH1 0x20 MSTORE PUSH1 0x40 SWAP1 KECCAK256 SSTORE STOP JUMPDEST CALLVALUE DUP1 ISZERO PUSH2 0x427 JUMPI PUSH1 0x0 DUP1 REVERT JUMPDEST POP PUSH2 0x43B PUSH2 0x436 CALLDATASIZE PUSH1 0x4 PUSH2 0x3A8C JUMP JUMPDEST PUSH2 0xBCD JUMP JUMPDEST PUSH1 0x40 MLOAD SWAP1 DUP2 MSTORE PUSH1 0x20 ADD JUMPDEST PUSH1 0x40 MLOAD DUP1 SWAP2 SUB SWAP1 RETURN JUMPDEST CALLVALUE DUP1 ISZERO PUSH2 0x45A JUMPI PUSH1 0x0 DUP1 REVERT JUMPDEST POP PUSH2 0x46E PUSH2 0x469 CALLDATASIZE PUSH1 0x4 PUSH2 0x3ACC JUMP JUMPDEST PUSH2 0xC64 JUMP JUMPDEST PUSH1 0x40 MLOAD SWAP1 ISZERO ISZERO DUP2 MSTORE PUSH1 0x20 ADD PUSH2 0x445 JUMP JUMPDEST CALLVALUE DUP1 ISZERO PUSH2 0x48A JUMPI PUSH1 0x0 DUP1 REVERT JUMPDEST POP PUSH2 0x43B PUSH2 0x499 CALLDATASIZE PUSH1 0x4 PUSH2 0x3AE9 JUMP JUMPDEST PUSH2 0xCB6 JUMP JUMPDEST CALLVALUE DUP1 ISZERO PUSH2 0x4AA JUMPI PUSH1 0x0 DUP1 REVERT JUMPDEST POP PUSH2 0x43B PUSH1 0xC SLOAD DUP2 JUMP JUMPDEST CALLVALUE DUP1 ISZERO PUSH2 0x4C0 JUMPI PUSH1 0x0 DUP1 REVERT JUMPDEST POP PUSH2 0x4D4 PUSH2 0x4CF CALLDATASIZE PUSH1 0x4 PUSH2 0x3AE9 JUMP JUMPDEST PUSH2 0xCCB JUMP JUMPDEST PUSH1 0x40 MLOAD PUSH1 0x1 PUSH1 0x1 PUSH1 0xA0 SHL SUB SWAP1 SWAP2 AND DUP2 MSTORE PUSH1 0x20 ADD PUSH2 0x445 JUMP JUMPDEST CALLVALUE DUP1 ISZERO PUSH2 0x4F8 JUMPI PUSH1 0x0 DUP1 REVERT JUMPDEST POP PUSH2 0x43B PUSH2 0x507 CALLDATASIZE PUSH1 0x4 PUSH2 0x3B15 JUMP JUMPDEST PUSH2 0xCFA JUMP JUMPDEST CALLVALUE DUP1 ISZERO PUSH2 0x518 JUMPI PUSH1 0x0 DUP1 REVERT JUMPDEST POP PUSH2 0x52C PUSH2 0x527 CALLDATASIZE PUSH1 0x4 PUSH2 0x3B15 JUMP JUMPDEST PUSH2 0xD1B JUMP JUMPDEST PUSH1 0x40 MLOAD PUSH2 0x445 SWAP2 SWAP1 PUSH2 0x3B7B JUMP JUMPDEST CALLVALUE DUP1 ISZERO PUSH2 0x545 JUMPI PUSH1 0x0 DUP1 REVERT JUMPDEST POP PUSH2 0x43B PUSH1 0xA DUP2 JUMP JUMPDEST CALLVALUE DUP1 ISZERO PUSH2 0x55A JUMPI PUSH1 0x0 DUP1 REVERT JUMPDEST POP PUSH2 0x43B PUSH2 0x569 CALLDATASIZE PUSH1 0x4 PUSH2 0x3B8E JUMP JUMPDEST PUSH1 0x1B PUSH1 0x20 MSTORE PUSH1 0x0 SWAP1 DUP2 MSTORE PUSH1 0x40 SWAP1 KECCAK256 SLOAD DUP2 JUMP JUMPDEST CALLVALUE DUP1 ISZERO PUSH2 0x587 JUMPI PUSH1 0x0 DUP1 REVERT JUMPDEST POP PUSH2 0x59B PUSH2 0x596 CALLDATASIZE PUSH1 0x4 PUSH2 0x3BB7 JUMP JUMPDEST PUSH2 0xDAF JUMP JUMPDEST STOP JUMPDEST CALLVALUE DUP1 ISZERO PUSH2 0x5A9 JUMPI PUSH1 0x0 DUP1 REVERT JUMPDEST POP PUSH2 0x59B PUSH2 0xE9C JUMP JUMPDEST PUSH2 0x59B PUSH2 0x5C0 CALLDATASIZE PUSH1 0x4 PUSH2 0x3AE9 JUMP JUMPDEST PUSH2 0xED6 JUMP JUMPDEST CALLVALUE DUP1 ISZERO PUSH2 0x5D1 JUMPI PUSH1 0x0 DUP1 REVERT JUMPDEST POP PUSH2 0x59B PUSH2 0x5E0 CALLDATASIZE PUSH1 0x4 PUSH2 0x3D3A JUMP JUMPDEST PUSH2 0x1596 JUMP JUMPDEST CALLVALUE DUP1 ISZERO PUSH2 0x5F1 JUMPI PUSH1 0x0 DUP1 REVERT JUMPDEST POP PUSH2 0x43B PUSH1 0x10 SLOAD DUP2 JUMP JUMPDEST CALLVALUE DUP1 ISZERO PUSH2 0x607 JUMPI PUSH1 0x0 DUP1 REVERT JUMPDEST POP PUSH2 0x46E PUSH2 0x616 CALLDATASIZE PUSH1 0x4 PUSH2 0x3B15 JUMP JUMPDEST PUSH2 0x1626 JUMP JUMPDEST CALLVALUE DUP1 ISZERO PUSH2 0x627 JUMPI PUSH1 0x0 DUP1 REVERT JUMPDEST POP PUSH2 0x63B PUSH2 0x636 CALLDATASIZE PUSH1 0x4 PUSH2 0x3AE9 JUMP JUMPDEST PUSH2 0x1654 JUMP JUMPDEST PUSH1 0x40 MLOAD PUSH2 0x445 SWAP2 SWAP1 PUSH2 0x3DE4 JUMP JUMPDEST CALLVALUE DUP1 ISZERO PUSH2 0x654 JUMPI PUSH1 0x0 DUP1 REVERT JUMPDEST POP PUSH2 0x43B PUSH1 0x14 SLOAD DUP2 JUMP JUMPDEST CALLVALUE DUP1 ISZERO PUSH2 0x66A JUMPI PUSH1 0x0 DUP1 REVERT JUMPDEST POP PUSH1 0xD SLOAD PUSH2 0x43B JUMP JUMPDEST CALLVALUE DUP1 ISZERO PUSH2 0x67F JUMPI PUSH1 0x0 DUP1 REVERT JUMPDEST POP PUSH2 0x693 PUSH2 0x68E CALLDATASIZE PUSH1 0x4 PUSH2 0x3E31 JUMP JUMPDEST PUSH2 0x191D JUMP JUMPDEST PUSH1 0x40 MLOAD PUSH2 0x445 SWAP2 SWAP1 PUSH2 0x3F37 JUMP JUMPDEST CALLVALUE DUP1 ISZERO PUSH2 0x6AC JUMPI PUSH1 0x0 DUP1 REVERT JUMPDEST POP PUSH2 0x43B PUSH1 0xA SLOAD DUP2 JUMP JUMPDEST CALLVALUE DUP1 ISZERO PUSH2 0x6C2 JUMPI PUSH1 0x0 DUP1 REVERT JUMPDEST POP PUSH2 0x59B PUSH2 0x6D1 CALLDATASIZE PUSH1 0x4 PUSH2 0x3F4A JUMP JUMPDEST PUSH2 0x1A47 JUMP JUMPDEST CALLVALUE DUP1 ISZERO PUSH2 0x6E2 JUMPI PUSH1 0x0 DUP1 REVERT JUMPDEST POP PUSH2 0x59B PUSH2 0x6F1 CALLDATASIZE PUSH1 0x4 PUSH2 0x3B15 JUMP JUMPDEST PUSH2 0x1B7A JUMP JUMPDEST CALLVALUE DUP1 ISZERO PUSH2 0x702 JUMPI PUSH1 0x0 DUP1 REVERT JUMPDEST POP PUSH2 0x59B PUSH2 0x711 CALLDATASIZE PUSH1 0x4 PUSH2 0x3AE9 JUMP JUMPDEST PUSH2 0x1BD2 JUMP JUMPDEST CALLVALUE DUP1 ISZERO PUSH2 0x722 JUMPI PUSH1 0x0 DUP1 REVERT JUMPDEST POP PUSH1 0x19 SLOAD PUSH2 0x4D4 SWAP1 PUSH1 0x1 PUSH1 0x1 PUSH1 0xA0 SHL SUB AND DUP2 JUMP JUMPDEST CALLVALUE DUP1 ISZERO PUSH2 0x742 JUMPI PUSH1 0x0 DUP1 REVERT JUMPDEST POP PUSH2 0x52C PUSH2 0x751 CALLDATASIZE PUSH1 0x4 PUSH2 0x3B15 JUMP JUMPDEST PUSH2 0x1C97 JUMP JUMPDEST CALLVALUE DUP1 ISZERO PUSH2 0x762 JUMPI PUSH1 0x0 DUP1 REVERT JUMPDEST POP PUSH1 0x3 SLOAD PUSH1 0xFF AND PUSH2 0x46E JUMP JUMPDEST CALLVALUE DUP1 ISZERO PUSH2 0x77A JUMPI PUSH1 0x0 DUP1 REVERT JUMPDEST POP PUSH2 0x59B PUSH2 0x789 CALLDATASIZE PUSH1 0x4 PUSH2 0x3B8E JUMP JUMPDEST PUSH2 0x1D31 JUMP JUMPDEST CALLVALUE DUP1 ISZERO PUSH2 0x79A JUMPI PUSH1 0x0 DUP1 REVERT JUMPDEST POP PUSH1 0x1A SLOAD PUSH2 0x4D4 SWAP1 PUSH1 0x1 PUSH1 0x1 PUSH1 0xA0 SHL SUB AND DUP2 JUMP JUMPDEST CALLVALUE DUP1 ISZERO PUSH2 0x7BA JUMPI PUSH1 0x0 DUP1 REVERT JUMPDEST POP PUSH2 0x52C PUSH2 0x1DA6 JUMP JUMPDEST CALLVALUE DUP1 ISZERO PUSH2 0x7CF JUMPI PUSH1 0x0 DUP1 REVERT JUMPDEST POP PUSH2 0x43B PUSH1 0x1 DUP2 JUMP JUMPDEST CALLVALUE DUP1 ISZERO PUSH2 0x7E4 JUMPI PUSH1 0x0 DUP1 REVERT JUMPDEST POP PUSH2 0x43B PUSH2 0x7F3 CALLDATASIZE PUSH1 0x4 PUSH2 0x3B8E JUMP JUMPDEST PUSH1 0x1C PUSH1 0x20 MSTORE PUSH1 0x0 SWAP1 DUP2 MSTORE PUSH1 0x40 SWAP1 KECCAK256 SLOAD DUP2 JUMP JUMPDEST PUSH2 0x59B PUSH2 0x1DB3 JUMP JUMPDEST CALLVALUE DUP1 ISZERO PUSH2 0x819 JUMPI PUSH1 0x0 DUP1 REVERT JUMPDEST POP PUSH2 0x59B PUSH2 0x1E26 JUMP JUMPDEST CALLVALUE DUP1 ISZERO PUSH2 0x82E JUMPI PUSH1 0x0 DUP1 REVERT JUMPDEST POP PUSH2 0x59B PUSH2 0x1F0D JUMP JUMPDEST CALLVALUE DUP1 ISZERO PUSH2 0x843 JUMPI PUSH1 0x0 DUP1 REVERT JUMPDEST POP PUSH2 0x43B PUSH1 0xF DUP2 JUMP JUMPDEST CALLVALUE DUP1 ISZERO PUSH2 0x858 JUMPI PUSH1 0x0 DUP1 REVERT JUMPDEST POP PUSH2 0x59B PUSH2 0x867 CALLDATASIZE PUSH1 0x4 PUSH2 0x3FA4 JUMP JUMPDEST PUSH2 0x1F47 JUMP JUMPDEST CALLVALUE DUP1 ISZERO PUSH2 0x878 JUMPI PUSH1 0x0 DUP1 REVERT JUMPDEST POP PUSH1 0x3 SLOAD PUSH2 0x100 SWAP1 DIV PUSH1 0x1 PUSH1 0x1 PUSH1 0xA0 SHL SUB AND PUSH2 0x4D4 JUMP JUMPDEST CALLVALUE DUP1 ISZERO PUSH2 0x89B JUMPI PUSH1 0x0 DUP1 REVERT JUMPDEST POP PUSH2 0x52C PUSH2 0x1FE1 JUMP JUMPDEST CALLVALUE DUP1 ISZERO PUSH2 0x8B0 JUMPI PUSH1 0x0 DUP1 REVERT JUMPDEST POP PUSH2 0x43B PUSH1 0x11 SLOAD DUP2 JUMP JUMPDEST CALLVALUE DUP1 ISZERO PUSH2 0x8C6 JUMPI PUSH1 0x0 DUP1 REVERT JUMPDEST POP PUSH2 0x59B PUSH2 0x8D5 CALLDATASIZE PUSH1 0x4 PUSH2 0x402C JUMP JUMPDEST PUSH2 0x1FEE JUMP JUMPDEST CALLVALUE DUP1 ISZERO PUSH2 0x8E6 JUMPI PUSH1 0x0 DUP1 REVERT JUMPDEST POP PUSH1 0x18 SLOAD PUSH2 0x4D4 SWAP1 PUSH1 0x1 PUSH1 0x1 PUSH1 0xA0 SHL SUB AND DUP2 JUMP JUMPDEST CALLVALUE DUP1 ISZERO PUSH2 0x906 JUMPI PUSH1 0x0 DUP1 REVERT JUMPDEST POP PUSH2 0x59B PUSH2 0x915 CALLDATASIZE PUSH1 0x4 PUSH2 0x3BB7 JUMP JUMPDEST PUSH2 0x2070 JUMP JUMPDEST CALLVALUE DUP1 ISZERO PUSH2 0x926 JUMPI PUSH1 0x0 DUP1 REVERT JUMPDEST POP PUSH1 0x17 SLOAD PUSH2 0x4D4 SWAP1 PUSH1 0x1 PUSH1 0x1 PUSH1 0xA0 SHL SUB AND DUP2 JUMP JUMPDEST CALLVALUE DUP1 ISZERO PUSH2 0x946 JUMPI PUSH1 0x0 DUP1 REVERT JUMPDEST POP PUSH2 0x43B PUSH1 0xF SLOAD DUP2 JUMP JUMPDEST CALLVALUE DUP1 ISZERO PUSH2 0x95C JUMPI PUSH1 0x0 DUP1 REVERT JUMPDEST POP PUSH1 0x13 SLOAD PUSH2 0x43B JUMP JUMPDEST CALLVALUE DUP1 ISZERO PUSH2 0x971 JUMPI PUSH1 0x0 DUP1 REVERT JUMPDEST POP PUSH2 0x43B PUSH1 0x12 SLOAD DUP2 JUMP JUMPDEST CALLVALUE DUP1 ISZERO PUSH2 0x987 JUMPI PUSH1 0x0 DUP1 REVERT JUMPDEST POP PUSH2 0x4D4 PUSH2 0x996 CALLDATASIZE PUSH1 0x4 PUSH2 0x3B15 JUMP JUMPDEST PUSH2 0x207B JUMP JUMPDEST CALLVALUE DUP1 ISZERO PUSH2 0x9A7 JUMPI PUSH1 0x0 DUP1 REVERT JUMPDEST POP PUSH2 0x59B PUSH2 0x9B6 CALLDATASIZE PUSH1 0x4 PUSH2 0x3BB7 JUMP JUMPDEST PUSH2 0x20A5 JUMP JUMPDEST CALLVALUE DUP1 ISZERO PUSH2 0x9C7 JUMPI PUSH1 0x0 DUP1 REVERT JUMPDEST POP PUSH2 0x43B PUSH1 0x9 DUP2 JUMP JUMPDEST CALLVALUE DUP1 ISZERO PUSH2 0x9DC JUMPI PUSH1 0x0 DUP1 REVERT JUMPDEST POP PUSH2 0x43B PUSH1 0x14 DUP2 JUMP JUMPDEST CALLVALUE DUP1 ISZERO PUSH2 0x9F1 JUMPI PUSH1 0x0 DUP1 REVERT JUMPDEST POP PUSH2 0x59B PUSH2 0xA00 CALLDATASIZE PUSH1 0x4 PUSH2 0x3BB7 JUMP JUMPDEST PUSH2 0x2165 JUMP JUMPDEST CALLVALUE DUP1 ISZERO PUSH2 0xA11 JUMPI PUSH1 0x0 DUP1 REVERT JUMPDEST POP PUSH2 0x43B PUSH1 0xE SLOAD DUP2 JUMP JUMPDEST CALLVALUE DUP1 ISZERO PUSH2 0xA27 JUMPI PUSH1 0x0 DUP1 REVERT JUMPDEST POP PUSH2 0x52C PUSH2 0x2225 JUMP JUMPDEST CALLVALUE DUP1 ISZERO PUSH2 0xA3C JUMPI PUSH1 0x0 DUP1 REVERT JUMPDEST POP PUSH2 0x43B PUSH1 0x19 DUP2 JUMP JUMPDEST CALLVALUE DUP1 ISZERO PUSH2 0xA51 JUMPI PUSH1 0x0 DUP1 REVERT JUMPDEST POP PUSH2 0x59B PUSH2 0xA60 CALLDATASIZE PUSH1 0x4 PUSH2 0x3B8E JUMP JUMPDEST PUSH2 0x2232 JUMP JUMPDEST CALLVALUE DUP1 ISZERO PUSH2 0xA71 JUMPI PUSH1 0x0 DUP1 REVERT JUMPDEST POP PUSH2 0x4D4 PUSH2 0xA80 CALLDATASIZE PUSH1 0x4 PUSH2 0x3B15 JUMP JUMPDEST PUSH1 0x1D PUSH1 0x20 MSTORE PUSH1 0x0 SWAP1 DUP2 MSTORE PUSH1 0x40 SWAP1 KECCAK256 SLOAD PUSH1 0x1 PUSH1 0x1 PUSH1 0xA0 SHL SUB AND DUP2 JUMP JUMPDEST CALLVALUE DUP1 ISZERO PUSH2 0xAA7 JUMPI PUSH1 0x0 DUP1 REVERT JUMPDEST POP PUSH1 0x16 SLOAD PUSH2 0x4D4 SWAP1 PUSH1 0x1 PUSH1 0x1 PUSH1 0xA0 SHL SUB AND DUP2 JUMP JUMPDEST CALLVALUE DUP1 ISZERO PUSH2 0xAC7 JUMPI PUSH1 0x0 DUP1 REVERT JUMPDEST POP PUSH2 0x46E PUSH2 0xAD6 CALLDATASIZE PUSH1 0x4 PUSH2 0x404E JUMP JUMPDEST PUSH1 0x1 PUSH1 0x1 PUSH1 0xA0 SHL SUB SWAP2 DUP3 AND PUSH1 0x0 SWAP1 DUP2 MSTORE PUSH1 0x1 PUSH1 0x20 SWAP1 DUP2 MSTORE PUSH1 0x40 DUP1 DUP4 KECCAK256 SWAP4 SWAP1 SWAP5 AND DUP3 MSTORE SWAP2 SWAP1 SWAP2 MSTORE KECCAK256 SLOAD PUSH1 0xFF AND SWAP1 JUMP JUMPDEST CALLVALUE DUP1 ISZERO PUSH2 0xB10 JUMPI PUSH1 0x0 DUP1 REVERT JUMPDEST POP PUSH2 0x59B PUSH2 0x233F JUMP JUMPDEST CALLVALUE DUP1 ISZERO PUSH2 0xB25 JUMPI PUSH1 0x0 DUP1 REVERT JUMPDEST POP PUSH2 0x59B PUSH2 0x242C JUMP JUMPDEST CALLVALUE DUP1 ISZERO PUSH2 0xB3A JUMPI PUSH1 0x0 DUP1 REVERT JUMPDEST POP PUSH2 0x59B PUSH2 0xB49 CALLDATASIZE PUSH1 0x4 PUSH2 0x4081 JUMP JUMPDEST PUSH2 0x2581 JUMP JUMPDEST CALLVALUE DUP1 ISZERO PUSH2 0xB5A JUMPI PUSH1 0x0 DUP1 REVERT JUMPDEST POP PUSH2 0x59B PUSH2 0xB69 CALLDATASIZE PUSH1 0x4 PUSH2 0x3B8E JUMP JUMPDEST PUSH2 0x2608 JUMP JUMPDEST CALLVALUE DUP1 ISZERO PUSH2 0xB7A JUMPI PUSH1 0x0 DUP1 REVERT JUMPDEST POP PUSH2 0x59B PUSH2 0xB89 CALLDATASIZE PUSH1 0x4 PUSH2 0x3BB7 JUMP JUMPDEST PUSH2 0x26A9 JUMP JUMPDEST CALLVALUE DUP1 ISZERO PUSH2 0xB9A JUMPI PUSH1 0x0 DUP1 REVERT JUMPDEST POP PUSH2 0x43B PUSH2 0x2769 JUMP JUMPDEST CALLVALUE DUP1 ISZERO PUSH2 0xBAF JUMPI PUSH1 0x0 DUP1 REVERT JUMPDEST POP PUSH2 0x52C PUSH2 0x2826 JUMP JUMPDEST CALLVALUE DUP1 ISZERO PUSH2 0xBC4 JUMPI PUSH1 0x0 DUP1 REVERT JUMPDEST POP PUSH2 0x59B PUSH2 0x2833 JUMP JUMPDEST PUSH1 0x0 PUSH1 0x1 PUSH1 0x1 PUSH1 0xA0 SHL SUB DUP4 AND PUSH2 0xC3E JUMPI PUSH1 0x40 MLOAD PUSH3 0x461BCD PUSH1 0xE5 SHL DUP2 MSTORE PUSH1 0x20 PUSH1 0x4 DUP3 ADD MSTORE PUSH1 0x2B PUSH1 0x24 DUP3 ADD MSTORE PUSH32 0x455243313135353A2062616C616E636520717565727920666F7220746865207A PUSH1 0x44 DUP3 ADD MSTORE PUSH11 0x65726F2061646472657373 PUSH1 0xA8 SHL PUSH1 0x64 DUP3 ADD MSTORE PUSH1 0x84 ADD JUMPDEST PUSH1 0x40 MLOAD DUP1 SWAP2 SUB SWAP1 REVERT JUMPDEST POP PUSH1 0x0 SWAP1 DUP2 MSTORE PUSH1 0x20 DUP2 DUP2 MSTORE PUSH1 0x40 DUP1 DUP4 KECCAK256 PUSH1 0x1 PUSH1 0x1 PUSH1 0xA0 SHL SUB SWAP5 SWAP1 SWAP5 AND DUP4 MSTORE SWAP3 SWAP1 MSTORE KECCAK256 SLOAD SWAP1 JUMP JUMPDEST PUSH1 0x0 PUSH1 0x1 PUSH1 0x1 PUSH1 0xE0 SHL SUB NOT DUP3 AND PUSH4 0x6CDB3D13 PUSH1 0xE1 SHL EQ DUP1 PUSH2 0xC95 JUMPI POP PUSH1 0x1 PUSH1 0x1 PUSH1 0xE0 SHL SUB NOT DUP3 AND PUSH4 0x3A24D07 PUSH1 0xE2 SHL EQ JUMPDEST DUP1 PUSH2 0xCB0 JUMPI POP PUSH4 0x1FFC9A7 PUSH1 0xE0 SHL PUSH1 0x1 PUSH1 0x1 PUSH1 0xE0 SHL SUB NOT DUP4 AND EQ JUMPDEST SWAP3 SWAP2 POP POP JUMP JUMPDEST PUSH1 0x0 PUSH2 0xCC3 DUP5 DUP5 DUP5 PUSH2 0x286B JUMP JUMPDEST SWAP5 SWAP4 POP POP POP POP JUMP JUMPDEST PUSH1 0x0 DUP1 PUSH2 0xCD9 DUP6 DUP6 DUP6 PUSH2 0x286B JUMP JUMPDEST PUSH1 0x0 SWAP1 DUP2 MSTORE PUSH1 0x1D PUSH1 0x20 MSTORE PUSH1 0x40 SWAP1 KECCAK256 SLOAD PUSH1 0x1 PUSH1 0x1 PUSH1 0xA0 SHL SUB AND SWAP6 SWAP5 POP POP POP POP POP JUMP JUMPDEST PUSH1 0x13 DUP2 DUP2 SLOAD DUP2 LT PUSH2 0xD0A JUMPI PUSH1 0x0 DUP1 REVERT JUMPDEST PUSH1 0x0 SWAP2 DUP3 MSTORE PUSH1 0x20 SWAP1 SWAP2 KECCAK256 ADD SLOAD SWAP1 POP DUP2 JUMP JUMPDEST PUSH1 0x60 PUSH1 0x2 DUP1 SLOAD PUSH2 0xD2A SWAP1 PUSH2 0x40E6 JUMP JUMPDEST DUP1 PUSH1 0x1F ADD PUSH1 0x20 DUP1 SWAP2 DIV MUL PUSH1 0x20 ADD PUSH1 0x40 MLOAD SWAP1 DUP2 ADD PUSH1 0x40 MSTORE DUP1 SWAP3 SWAP2 SWAP1 DUP2 DUP2 MSTORE PUSH1 0x20 ADD DUP3 DUP1 SLOAD PUSH2 0xD56 SWAP1 PUSH2 0x40E6 JUMP JUMPDEST DUP1 ISZERO PUSH2 0xDA3 JUMPI DUP1 PUSH1 0x1F LT PUSH2 0xD78 JUMPI PUSH2 0x100 DUP1 DUP4 SLOAD DIV MUL DUP4 MSTORE SWAP2 PUSH1 0x20 ADD SWAP2 PUSH2 0xDA3 JUMP JUMPDEST DUP3 ADD SWAP2 SWAP1 PUSH1 0x0 MSTORE PUSH1 0x20 PUSH1 0x0 KECCAK256 SWAP1 JUMPDEST DUP2 SLOAD DUP2 MSTORE SWAP1 PUSH1 0x1 ADD SWAP1 PUSH1 0x20 ADD DUP1 DUP4 GT PUSH2 0xD86 JUMPI DUP3 SWAP1 SUB PUSH1 0x1F AND DUP3 ADD SWAP2 JUMPDEST POP POP POP POP POP SWAP1 POP SWAP2 SWAP1 POP JUMP JUMPDEST PUSH1 0x3 SLOAD PUSH1 0x1 PUSH1 0x1 PUSH1 0xA0 SHL SUB PUSH2 0x100 SWAP1 SWAP2 DIV AND CALLER EQ PUSH2 0xDDF JUMPI PUSH1 0x40 MLOAD PUSH3 0x461BCD PUSH1 0xE5 SHL DUP2 MSTORE PUSH1 0x4 ADD PUSH2 0xC35 SWAP1 PUSH2 0x4121 JUMP JUMPDEST DUP1 ISZERO PUSH2 0xE29 JUMPI PUSH1 0x17 DUP1 SLOAD PUSH1 0x1 PUSH1 0x1 PUSH1 0xA0 SHL SUB DUP5 DUP2 AND PUSH1 0x1 PUSH1 0x1 PUSH1 0xA0 SHL SUB NOT DUP4 AND DUP2 OR SWAP1 SWAP4 SSTORE AND PUSH1 0x0 DUP2 DUP2 MSTORE PUSH1 0x1B PUSH1 0x20 MSTORE PUSH1 0x40 DUP1 DUP3 KECCAK256 DUP1 SLOAD SWAP5 DUP4 MSTORE SWAP1 DUP3 KECCAK256 SWAP4 SWAP1 SWAP4 SSTORE SWAP1 DUP2 MSTORE SWAP1 SSTORE POP POP JUMP JUMPDEST PUSH1 0x17 DUP1 SLOAD PUSH1 0x1 PUSH1 0x1 PUSH1 0xA0 SHL SUB DUP5 DUP2 AND PUSH1 0x1 PUSH1 0x1 PUSH1 0xA0 SHL SUB NOT DUP4 AND OR SWAP1 SWAP3 SSTORE DUP2 AND PUSH1 0x0 DUP2 DUP2 MSTORE PUSH1 0x1B PUSH1 0x20 MSTORE PUSH1 0x40 DUP1 DUP3 KECCAK256 SLOAD PUSH1 0x19 SLOAD SWAP1 SWAP5 AND DUP3 MSTORE SWAP1 KECCAK256 SLOAD SWAP1 SWAP2 PUSH2 0xE6F SWAP2 PUSH2 0x3A5D JUMP JUMPDEST PUSH1 0x19 SLOAD PUSH1 0x1 PUSH1 0x1 PUSH1 0xA0 SHL SUB SWAP1 DUP2 AND PUSH1 0x0 SWAP1 DUP2 MSTORE PUSH1 0x1B PUSH1 0x20 MSTORE PUSH1 0x40 DUP1 DUP3 KECCAK256 SWAP4 SWAP1 SWAP4 SSTORE SWAP3 AND DUP3 MSTORE DUP2 KECCAK256 SSTORE JUMPDEST POP POP JUMP JUMPDEST PUSH1 0x3 SLOAD PUSH1 0x1 PUSH1 0x1 PUSH1 0xA0 SHL SUB PUSH2 0x100 SWAP1 SWAP2 DIV AND CALLER EQ PUSH2 0xECC JUMPI PUSH1 0x40 MLOAD PUSH3 0x461BCD PUSH1 0xE5 SHL DUP2 MSTORE PUSH1 0x4 ADD PUSH2 0xC35 SWAP1 PUSH2 0x4121 JUMP JUMPDEST PUSH2 0xED4 PUSH2 0x2886 JUMP JUMPDEST JUMP JUMPDEST PUSH1 0x3 SLOAD PUSH1 0xFF AND ISZERO PUSH2 0xEF9 JUMPI PUSH1 0x40 MLOAD PUSH3 0x461BCD PUSH1 0xE5 SHL DUP2 MSTORE PUSH1 0x4 ADD PUSH2 0xC35 SWAP1 PUSH2 0x4156 JUMP JUMPDEST DUP2 ISZERO DUP1 PUSH2 0xF06 JUMPI POP PUSH1 0xC DUP3 GT JUMPDEST ISZERO PUSH2 0xF4B JUMPI PUSH1 0x40 MLOAD PUSH3 0x461BCD PUSH1 0xE5 SHL DUP2 MSTORE PUSH1 0x20 PUSH1 0x4 DUP3 ADD MSTORE PUSH1 0x15 PUSH1 0x24 DUP3 ADD MSTORE PUSH21 0x3BB937B7339036B7B73A341039B2B632B1BA34B7B7 PUSH1 0x59 SHL PUSH1 0x44 DUP3 ADD MSTORE PUSH1 0x64 ADD PUSH2 0xC35 JUMP JUMPDEST DUP1 ISZERO DUP1 PUSH2 0xF58 JUMPI POP PUSH1 0x1F DUP2 GT JUMPDEST ISZERO PUSH2 0xF9B JUMPI PUSH1 0x40 MLOAD PUSH3 0x461BCD PUSH1 0xE5 SHL DUP2 MSTORE PUSH1 0x20 PUSH1 0x4 DUP3 ADD MSTORE PUSH1 0x13 PUSH1 0x24 DUP3 ADD MSTORE PUSH19 0x3BB937B733903230BC9039B2B632B1BA34B7B7 PUSH1 0x69 SHL PUSH1 0x44 DUP3 ADD MSTORE PUSH1 0x64 ADD PUSH2 0xC35 JUMP JUMPDEST DUP2 PUSH1 0x4 EQ DUP1 PUSH2 0xFAA JUMPI POP DUP2 PUSH1 0x6 EQ JUMPDEST DUP1 PUSH2 0xFB5 JUMPI POP DUP2 PUSH1 0x9 EQ JUMPDEST DUP1 PUSH2 0xFC0 JUMPI POP DUP2 PUSH1 0xB EQ JUMPDEST DUP1 ISZERO PUSH2 0xFCC JUMPI POP PUSH1 0x1E DUP2 GT JUMPDEST POP DUP2 PUSH1 0x2 EQ DUP1 ISZERO PUSH2 0xFE1 JUMPI POP PUSH2 0xFE1 DUP4 PUSH2 0x28FB JUMP JUMPDEST DUP1 ISZERO PUSH2 0xFED JUMPI POP PUSH1 0x1D DUP2 GT JUMPDEST POP DUP2 PUSH1 0x2 EQ DUP1 ISZERO PUSH2 0x1004 JUMPI POP PUSH2 0x1002 DUP4 PUSH2 0x28FB JUMP JUMPDEST ISZERO JUMPDEST DUP1 ISZERO PUSH2 0x1010 JUMPI POP PUSH1 0x1C DUP2 GT JUMPDEST POP PUSH1 0x0 PUSH2 0x101E DUP5 DUP5 DUP5 PUSH2 0x286B JUMP JUMPDEST SWAP1 POP PUSH2 0x1029 DUP2 PUSH2 0x1626 JUMP JUMPDEST PUSH2 0x10AD JUMPI PUSH1 0x40 MLOAD PUSH3 0x461BCD PUSH1 0xE5 SHL DUP2 MSTORE PUSH1 0x20 PUSH1 0x4 DUP3 ADD MSTORE PUSH1 0x49 PUSH1 0x24 DUP3 ADD MSTORE PUSH32 0x54686973206461792043616E206E6F74206265206D696E742061742074686520 PUSH1 0x44 DUP3 ADD MSTORE PUSH32 0x6D6F6D656E742C706C65617365207761697420756E74696C2074686520616374 PUSH1 0x64 DUP3 ADD MSTORE PUSH9 0x3AB0B636103230BC97 PUSH1 0xB9 SHL PUSH1 0x84 DUP3 ADD MSTORE PUSH1 0xA4 ADD PUSH2 0xC35 JUMP JUMPDEST PUSH1 0x0 DUP2 DUP2 MSTORE PUSH1 0x1D PUSH1 0x20 MSTORE PUSH1 0x40 SWAP1 KECCAK256 SLOAD PUSH1 0x1 PUSH1 0x1 PUSH1 0xA0 SHL SUB AND ISZERO PUSH2 0x1112 JUMPI PUSH1 0x40 MLOAD PUSH3 0x461BCD PUSH1 0xE5 SHL DUP2 MSTORE PUSH1 0x20 PUSH1 0x4 DUP3 ADD MSTORE PUSH1 0x1E PUSH1 0x24 DUP3 ADD MSTORE PUSH32 0x54686973206461792068617320616C7265616479206D656D6F72697A65640000 PUSH1 0x44 DUP3 ADD MSTORE PUSH1 0x64 ADD PUSH2 0xC35 JUMP JUMPDEST CALLER PUSH1 0x0 SWAP1 DUP2 MSTORE PUSH1 0x1C PUSH1 0x20 MSTORE PUSH1 0x40 DUP2 KECCAK256 SLOAD ISZERO PUSH2 0x1157 JUMPI POP CALLER PUSH1 0x0 SWAP1 DUP2 MSTORE PUSH1 0x1C PUSH1 0x20 MSTORE PUSH1 0x40 SWAP1 KECCAK256 SLOAD PUSH1 0x1 SWAP1 PUSH2 0x1146 SWAP1 DUP3 SWAP1 PUSH2 0x4180 JUMP JUMPDEST CALLER PUSH1 0x0 SWAP1 DUP2 MSTORE PUSH1 0x1C PUSH1 0x20 MSTORE PUSH1 0x40 SWAP1 KECCAK256 SSTORE JUMPDEST DUP1 PUSH2 0x1482 JUMPI PUSH2 0x1164 PUSH2 0x2769 JUMP JUMPDEST CALLVALUE LT ISZERO PUSH2 0x11C1 JUMPI PUSH1 0x40 MLOAD PUSH3 0x461BCD PUSH1 0xE5 SHL DUP2 MSTORE PUSH1 0x20 PUSH1 0x4 DUP3 ADD MSTORE PUSH1 0x25 PUSH1 0x24 DUP3 ADD MSTORE PUSH32 0x4E6F7420656E6F7567682066756E647320746F206D656D6F72697A6520746869 PUSH1 0x44 DUP3 ADD MSTORE PUSH5 0x7320646179 PUSH1 0xD8 SHL PUSH1 0x64 DUP3 ADD MSTORE PUSH1 0x84 ADD PUSH2 0xC35 JUMP JUMPDEST PUSH1 0x0 PUSH1 0x64 PUSH2 0x11D0 PUSH1 0xF CALLVALUE PUSH2 0x4197 JUMP JUMPDEST PUSH2 0x11DA SWAP2 SWAP1 PUSH2 0x41CC JUMP JUMPDEST PUSH1 0x0 DUP1 MLOAD PUSH1 0x20 PUSH2 0x4696 DUP4 CODECOPY DUP2 MLOAD SWAP2 MSTORE SLOAD PUSH1 0x1 PUSH1 0x1 PUSH1 0xA0 SHL SUB AND PUSH1 0x0 SWAP1 DUP2 MSTORE PUSH1 0x1B PUSH1 0x20 MSTORE PUSH1 0x40 SWAP1 KECCAK256 SLOAD SWAP1 SWAP2 POP PUSH2 0x1210 SWAP1 DUP3 SWAP1 PUSH2 0x3A5D JUMP JUMPDEST PUSH1 0x0 DUP1 MLOAD PUSH1 0x20 PUSH2 0x4696 DUP4 CODECOPY DUP2 MLOAD SWAP2 MSTORE SLOAD PUSH1 0x1 PUSH1 0x1 PUSH1 0xA0 SHL SUB AND PUSH1 0x0 SWAP1 DUP2 MSTORE PUSH1 0x1B PUSH1 0x20 MSTORE PUSH1 0x40 DUP2 KECCAK256 SWAP2 SWAP1 SWAP2 SSTORE PUSH1 0x64 PUSH2 0x1248 PUSH1 0xA CALLVALUE PUSH2 0x4197 JUMP JUMPDEST PUSH2 0x1252 SWAP2 SWAP1 PUSH2 0x41CC JUMP JUMPDEST PUSH1 0x1A SLOAD PUSH1 0x1 PUSH1 0x1 PUSH1 0xA0 SHL SUB AND PUSH1 0x0 SWAP1 DUP2 MSTORE PUSH1 0x1B PUSH1 0x20 MSTORE PUSH1 0x40 SWAP1 KECCAK256 SLOAD SWAP1 SWAP2 POP PUSH2 0x127B SWAP1 DUP3 SWAP1 PUSH2 0x3A5D JUMP JUMPDEST PUSH1 0x1A SLOAD PUSH1 0x1 PUSH1 0x1 PUSH1 0xA0 SHL SUB AND PUSH1 0x0 SWAP1 DUP2 MSTORE PUSH1 0x1B PUSH1 0x20 MSTORE PUSH1 0x40 DUP2 KECCAK256 SWAP2 SWAP1 SWAP2 SSTORE PUSH1 0x64 PUSH2 0x12A6 PUSH1 0x1 CALLVALUE PUSH2 0x4197 JUMP JUMPDEST PUSH2 0x12B0 SWAP2 SWAP1 PUSH2 0x41CC JUMP JUMPDEST ADDRESS PUSH1 0x0 SWAP1 DUP2 MSTORE PUSH1 0x1B PUSH1 0x20 MSTORE PUSH1 0x40 SWAP1 KECCAK256 SLOAD SWAP1 SWAP2 POP PUSH2 0x12CE SWAP1 DUP3 SWAP1 PUSH2 0x3A5D JUMP JUMPDEST ADDRESS PUSH1 0x0 SWAP1 DUP2 MSTORE PUSH1 0x1B PUSH1 0x20 MSTORE PUSH1 0x40 SWAP1 KECCAK256 SSTORE PUSH1 0x64 PUSH2 0x12EB PUSH1 0x19 CALLVALUE PUSH2 0x4197 JUMP JUMPDEST PUSH2 0x12F5 SWAP2 SWAP1 PUSH2 0x41CC JUMP JUMPDEST PUSH1 0xB DUP2 SWAP1 SSTORE PUSH2 0x1303 SWAP1 PUSH2 0x2937 JUMP JUMPDEST PUSH1 0x0 PUSH1 0x64 PUSH2 0x1312 PUSH1 0x14 CALLVALUE PUSH2 0x4197 JUMP JUMPDEST PUSH2 0x131C SWAP2 SWAP1 PUSH2 0x41CC JUMP JUMPDEST PUSH1 0x16 SLOAD PUSH1 0x1 PUSH1 0x1 PUSH1 0xA0 SHL SUB AND PUSH1 0x0 SWAP1 DUP2 MSTORE PUSH1 0x1B PUSH1 0x20 MSTORE PUSH1 0x40 SWAP1 KECCAK256 SLOAD SWAP1 SWAP2 POP PUSH2 0x1345 SWAP1 DUP3 SWAP1 PUSH2 0x3A5D JUMP JUMPDEST PUSH1 0x16 SLOAD PUSH1 0x1 PUSH1 0x1 PUSH1 0xA0 SHL SUB AND PUSH1 0x0 SWAP1 DUP2 MSTORE PUSH1 0x1B PUSH1 0x20 MSTORE PUSH1 0x40 DUP2 KECCAK256 SWAP2 SWAP1 SWAP2 SSTORE PUSH1 0x64 PUSH2 0x1370 PUSH1 0xA CALLVALUE PUSH2 0x4197 JUMP JUMPDEST PUSH2 0x137A SWAP2 SWAP1 PUSH2 0x41CC JUMP JUMPDEST PUSH1 0x17 SLOAD PUSH1 0x1 PUSH1 0x1 PUSH1 0xA0 SHL SUB AND PUSH1 0x0 SWAP1 DUP2 MSTORE PUSH1 0x1B PUSH1 0x20 MSTORE PUSH1 0x40 SWAP1 KECCAK256 SLOAD SWAP1 SWAP2 POP PUSH2 0x13A3 SWAP1 DUP3 SWAP1 PUSH2 0x3A5D JUMP JUMPDEST PUSH1 0x17 SLOAD PUSH1 0x1 PUSH1 0x1 PUSH1 0xA0 SHL SUB AND PUSH1 0x0 SWAP1 DUP2 MSTORE PUSH1 0x1B PUSH1 0x20 MSTORE PUSH1 0x40 DUP2 KECCAK256 SWAP2 SWAP1 SWAP2 SSTORE PUSH1 0x64 PUSH2 0x13CE PUSH1 0xA CALLVALUE PUSH2 0x4197 JUMP JUMPDEST PUSH2 0x13D8 SWAP2 SWAP1 PUSH2 0x41CC JUMP JUMPDEST PUSH1 0x18 SLOAD PUSH1 0x1 PUSH1 0x1 PUSH1 0xA0 SHL SUB AND PUSH1 0x0 SWAP1 DUP2 MSTORE PUSH1 0x1B PUSH1 0x20 MSTORE PUSH1 0x40 SWAP1 KECCAK256 SLOAD SWAP1 SWAP2 POP PUSH2 0x1401 SWAP1 DUP3 SWAP1 PUSH2 0x3A5D JUMP JUMPDEST PUSH1 0x18 SLOAD PUSH1 0x1 PUSH1 0x1 PUSH1 0xA0 SHL SUB AND PUSH1 0x0 SWAP1 DUP2 MSTORE PUSH1 0x1B PUSH1 0x20 MSTORE PUSH1 0x40 DUP2 KECCAK256 SWAP2 SWAP1 SWAP2 SSTORE PUSH1 0x64 PUSH2 0x142C PUSH1 0x9 CALLVALUE PUSH2 0x4197 JUMP JUMPDEST PUSH2 0x1436 SWAP2 SWAP1 PUSH2 0x41CC JUMP JUMPDEST PUSH1 0x19 SLOAD PUSH1 0x1 PUSH1 0x1 PUSH1 0xA0 SHL SUB AND PUSH1 0x0 SWAP1 DUP2 MSTORE PUSH1 0x1B PUSH1 0x20 MSTORE PUSH1 0x40 SWAP1 KECCAK256 SLOAD SWAP1 SWAP2 POP PUSH2 0x145F SWAP1 DUP3 SWAP1 PUSH2 0x3A5D JUMP JUMPDEST PUSH1 0x19 SLOAD PUSH1 0x1 PUSH1 0x1 PUSH1 0xA0 SHL SUB AND PUSH1 0x0 SWAP1 DUP2 MSTORE PUSH1 0x1B PUSH1 0x20 MSTORE PUSH1 0x40 SWAP1 KECCAK256 SSTORE POP POP POP POP POP POP POP JUMPDEST PUSH2 0x149E CALLER DUP4 PUSH1 0x1 PUSH1 0x40 MLOAD DUP1 PUSH1 0x20 ADD PUSH1 0x40 MSTORE DUP1 PUSH1 0x0 DUP2 MSTORE POP PUSH2 0x2A8D JUMP JUMPDEST PUSH1 0x13 DUP1 SLOAD PUSH1 0x1 DUP2 ADD SWAP1 SWAP2 SSTORE PUSH32 0x66DE8FFDA797E3DE9C05E8FC57B3BF0EC28A930D40B0D285D93C06501CF6A090 ADD DUP3 SWAP1 SSTORE PUSH1 0x0 DUP3 DUP2 MSTORE PUSH1 0x1D PUSH1 0x20 MSTORE PUSH1 0x40 SWAP1 KECCAK256 DUP1 SLOAD PUSH1 0x1 PUSH1 0x1 PUSH1 0xA0 SHL SUB NOT AND CALLER OR SWAP1 SSTORE PUSH2 0x14F4 PUSH2 0x2B9D JUMP JUMPDEST DUP1 ISZERO PUSH2 0x1542 JUMPI PUSH1 0x40 DUP1 MLOAD DUP7 DUP2 MSTORE PUSH1 0x20 DUP2 ADD DUP7 SWAP1 MSTORE SWAP1 DUP2 ADD DUP5 SWAP1 MSTORE CALLER SWAP1 PUSH32 0x8F7B867D4725F039D609BA3EB633BEDDBB7049D42956E84B2EF81601F159B411 SWAP1 PUSH1 0x60 ADD PUSH1 0x40 MLOAD DUP1 SWAP2 SUB SWAP1 LOG2 PUSH2 0x158F JUMP JUMPDEST PUSH2 0x154A PUSH2 0x2BAF JUMP JUMPDEST PUSH1 0x40 DUP1 MLOAD DUP7 DUP2 MSTORE PUSH1 0x20 DUP2 ADD DUP7 SWAP1 MSTORE SWAP1 DUP2 ADD DUP5 SWAP1 MSTORE CALLER SWAP1 PUSH32 0xA51E9B2EF1F037DEE551EB226D6D1581C8FB0E0243820EBD1FBB41A13E6C2364 SWAP1 PUSH1 0x60 ADD JUMPDEST PUSH1 0x40 MLOAD DUP1 SWAP2 SUB SWAP1 LOG2 JUMPDEST POP POP POP POP POP JUMP JUMPDEST PUSH1 0x1 PUSH1 0x1 PUSH1 0xA0 SHL SUB DUP6 AND CALLER EQ DUP1 PUSH2 0x15B2 JUMPI POP PUSH2 0x15B2 DUP6 CALLER PUSH2 0xAD6 JUMP JUMPDEST PUSH2 0x1619 JUMPI PUSH1 0x40 MLOAD PUSH3 0x461BCD PUSH1 0xE5 SHL DUP2 MSTORE PUSH1 0x20 PUSH1 0x4 DUP3 ADD MSTORE PUSH1 0x32 PUSH1 0x24 DUP3 ADD MSTORE PUSH32 0x455243313135353A207472616E736665722063616C6C6572206973206E6F7420 PUSH1 0x44 DUP3 ADD MSTORE PUSH18 0x1BDDDB995C881B9BDC88185C1C1C9BDD9959 PUSH1 0x72 SHL PUSH1 0x64 DUP3 ADD MSTORE PUSH1 0x84 ADD PUSH2 0xC35 JUMP JUMPDEST PUSH2 0x158F DUP6 DUP6 DUP6 DUP6 DUP6 PUSH2 0x2C35 JUMP JUMPDEST PUSH1 0x0 TIMESTAMP DUP3 GT ISZERO DUP1 ISZERO PUSH2 0x163A JUMPI POP PUSH1 0x12 SLOAD DUP3 LT ISZERO JUMPDEST ISZERO PUSH2 0x1647 JUMPI POP PUSH1 0x1 SWAP2 SWAP1 POP JUMP JUMPDEST POP PUSH1 0x0 SWAP2 SWAP1 POP JUMP JUMPDEST SWAP2 SWAP1 POP JUMP JUMPDEST PUSH2 0x165C PUSH2 0x3932 JUMP JUMPDEST PUSH1 0x0 PUSH2 0x1669 DUP6 DUP6 DUP6 PUSH2 0x286B JUMP JUMPDEST PUSH1 0x0 DUP2 DUP2 MSTORE PUSH1 0x1D PUSH1 0x20 MSTORE PUSH1 0x40 SWAP1 KECCAK256 SLOAD SWAP1 SWAP2 POP PUSH1 0x1 PUSH1 0x1 PUSH1 0xA0 SHL SUB AND PUSH2 0x16D0 JUMPI PUSH1 0x40 MLOAD PUSH3 0x461BCD PUSH1 0xE5 SHL DUP2 MSTORE PUSH1 0x20 PUSH1 0x4 DUP3 ADD MSTORE PUSH1 0x1F PUSH1 0x24 DUP3 ADD MSTORE PUSH32 0x546869732064617920646F6573206E6F74206D656D6F72697A65642079657400 PUSH1 0x44 DUP3 ADD MSTORE PUSH1 0x64 ADD PUSH2 0xC35 JUMP JUMPDEST PUSH1 0x40 DUP1 MLOAD PUSH1 0x80 DUP2 ADD DUP3 MSTORE PUSH1 0x0 PUSH1 0x60 DUP3 ADD DUP2 DUP2 MSTORE DUP3 MSTORE DUP3 MLOAD PUSH1 0x20 DUP2 DUP2 ADD DUP6 MSTORE DUP3 DUP3 MSTORE DUP1 DUP5 ADD SWAP2 SWAP1 SWAP2 MSTORE DUP4 MLOAD SWAP1 DUP2 ADD DUP5 MSTORE SWAP1 DUP2 MSTORE SWAP2 DUP2 ADD SWAP2 SWAP1 SWAP2 MSTORE PUSH2 0x1712 DUP7 PUSH2 0x2E20 JUMP JUMPDEST DUP2 MSTORE PUSH1 0x9 DUP1 SLOAD PUSH2 0x1721 SWAP1 PUSH2 0x40E6 JUMP JUMPDEST DUP1 PUSH1 0x1F ADD PUSH1 0x20 DUP1 SWAP2 DIV MUL PUSH1 0x20 ADD PUSH1 0x40 MLOAD SWAP1 DUP2 ADD PUSH1 0x40 MSTORE DUP1 SWAP3 SWAP2 SWAP1 DUP2 DUP2 MSTORE PUSH1 0x20 ADD DUP3 DUP1 SLOAD PUSH2 0x174D SWAP1 PUSH2 0x40E6 JUMP JUMPDEST DUP1 ISZERO PUSH2 0x179A JUMPI DUP1 PUSH1 0x1F LT PUSH2 0x176F JUMPI PUSH2 0x100 DUP1 DUP4 SLOAD DIV MUL DUP4 MSTORE SWAP2 PUSH1 0x20 ADD SWAP2 PUSH2 0x179A JUMP JUMPDEST DUP3 ADD SWAP2 SWAP1 PUSH1 0x0 MSTORE PUSH1 0x20 PUSH1 0x0 KECCAK256 SWAP1 JUMPDEST DUP2 SLOAD DUP2 MSTORE SWAP1 PUSH1 0x1 ADD SWAP1 PUSH1 0x20 ADD DUP1 DUP4 GT PUSH2 0x177D JUMPI DUP3 SWAP1 SUB PUSH1 0x1F AND DUP3 ADD SWAP2 JUMPDEST POP POP POP POP POP DUP2 PUSH1 0x1 PUSH1 0x3 DUP2 LT PUSH2 0x17B2 JUMPI PUSH2 0x17B2 PUSH2 0x41E0 JUMP JUMPDEST PUSH1 0x20 MUL ADD DUP2 SWAP1 MSTORE POP PUSH1 0x0 PUSH1 0x1E PUSH1 0x0 DUP5 DUP2 MSTORE PUSH1 0x20 ADD SWAP1 DUP2 MSTORE PUSH1 0x20 ADD PUSH1 0x0 KECCAK256 DUP1 SLOAD PUSH2 0x17DA SWAP1 PUSH2 0x40E6 JUMP JUMPDEST DUP1 PUSH1 0x1F ADD PUSH1 0x20 DUP1 SWAP2 DIV MUL PUSH1 0x20 ADD PUSH1 0x40 MLOAD SWAP1 DUP2 ADD PUSH1 0x40 MSTORE DUP1 SWAP3 SWAP2 SWAP1 DUP2 DUP2 MSTORE PUSH1 0x20 ADD DUP3 DUP1 SLOAD PUSH2 0x1806 SWAP1 PUSH2 0x40E6 JUMP JUMPDEST DUP1 ISZERO PUSH2 0x1853 JUMPI DUP1 PUSH1 0x1F LT PUSH2 0x1828 JUMPI PUSH2 0x100 DUP1 DUP4 SLOAD DIV MUL DUP4 MSTORE SWAP2 PUSH1 0x20 ADD SWAP2 PUSH2 0x1853 JUMP JUMPDEST DUP3 ADD SWAP2 SWAP1 PUSH1 0x0 MSTORE PUSH1 0x20 PUSH1 0x0 KECCAK256 SWAP1 JUMPDEST DUP2 SLOAD DUP2 MSTORE SWAP1 PUSH1 0x1 ADD SWAP1 PUSH1 0x20 ADD DUP1 DUP4 GT PUSH2 0x1836 JUMPI DUP3 SWAP1 SUB PUSH1 0x1F AND DUP3 ADD SWAP2 JUMPDEST POP POP POP POP POP SWAP1 POP DUP1 MLOAD PUSH1 0x0 EQ PUSH2 0x1913 JUMPI PUSH1 0x0 DUP4 DUP2 MSTORE PUSH1 0x1E PUSH1 0x20 MSTORE PUSH1 0x40 SWAP1 KECCAK256 DUP1 SLOAD PUSH2 0x187C SWAP1 PUSH2 0x40E6 JUMP JUMPDEST DUP1 PUSH1 0x1F ADD PUSH1 0x20 DUP1 SWAP2 DIV MUL PUSH1 0x20 ADD PUSH1 0x40 MLOAD SWAP1 DUP2 ADD PUSH1 0x40 MSTORE DUP1 SWAP3 SWAP2 SWAP1 DUP2 DUP2 MSTORE PUSH1 0x20 ADD DUP3 DUP1 SLOAD PUSH2 0x18A8 SWAP1 PUSH2 0x40E6 JUMP JUMPDEST DUP1 ISZERO PUSH2 0x18F5 JUMPI DUP1 PUSH1 0x1F LT PUSH2 0x18CA JUMPI PUSH2 0x100 DUP1 DUP4 SLOAD DIV MUL DUP4 MSTORE SWAP2 PUSH1 0x20 ADD SWAP2 PUSH2 0x18F5 JUMP JUMPDEST DUP3 ADD SWAP2 SWAP1 PUSH1 0x0 MSTORE PUSH1 0x20 PUSH1 0x0 KECCAK256 SWAP1 JUMPDEST DUP2 SLOAD DUP2 MSTORE SWAP1 PUSH1 0x1 ADD SWAP1 PUSH1 0x20 ADD DUP1 DUP4 GT PUSH2 0x18D8 JUMPI DUP3 SWAP1 SUB PUSH1 0x1F AND DUP3 ADD SWAP2 JUMPDEST POP POP POP POP POP DUP3 PUSH1 0x2 PUSH1 0x3 DUP2 LT PUSH2 0x190D JUMPI PUSH2 0x190D PUSH2 0x41E0 JUMP JUMPDEST PUSH1 0x20 MUL ADD MSTORE JUMPDEST POP SWAP6 SWAP5 POP POP POP POP POP JUMP JUMPDEST PUSH1 0x60 DUP2 MLOAD DUP4 MLOAD EQ PUSH2 0x1982 JUMPI PUSH1 0x40 MLOAD PUSH3 0x461BCD PUSH1 0xE5 SHL DUP2 MSTORE PUSH1 0x20 PUSH1 0x4 DUP3 ADD MSTORE PUSH1 0x29 PUSH1 0x24 DUP3 ADD MSTORE PUSH32 0x455243313135353A206163636F756E747320616E6420696473206C656E677468 PUSH1 0x44 DUP3 ADD MSTORE PUSH9 0x40DAD2E6DAC2E8C6D PUSH1 0xBB SHL PUSH1 0x64 DUP3 ADD MSTORE PUSH1 0x84 ADD PUSH2 0xC35 JUMP JUMPDEST PUSH1 0x0 DUP4 MLOAD PUSH8 0xFFFFFFFFFFFFFFFF DUP2 GT ISZERO PUSH2 0x199E JUMPI PUSH2 0x199E PUSH2 0x3BEE JUMP JUMPDEST PUSH1 0x40 MLOAD SWAP1 DUP1 DUP3 MSTORE DUP1 PUSH1 0x20 MUL PUSH1 0x20 ADD DUP3 ADD PUSH1 0x40 MSTORE DUP1 ISZERO PUSH2 0x19C7 JUMPI DUP2 PUSH1 0x20 ADD PUSH1 0x20 DUP3 MUL DUP1 CALLDATASIZE DUP4 CALLDATACOPY ADD SWAP1 POP JUMPDEST POP SWAP1 POP PUSH1 0x0 JUMPDEST DUP5 MLOAD DUP2 LT ISZERO PUSH2 0x1A3F JUMPI PUSH2 0x1A12 DUP6 DUP3 DUP2 MLOAD DUP2 LT PUSH2 0x19EB JUMPI PUSH2 0x19EB PUSH2 0x41E0 JUMP JUMPDEST PUSH1 0x20 MUL PUSH1 0x20 ADD ADD MLOAD DUP6 DUP4 DUP2 MLOAD DUP2 LT PUSH2 0x1A05 JUMPI PUSH2 0x1A05 PUSH2 0x41E0 JUMP JUMPDEST PUSH1 0x20 MUL PUSH1 0x20 ADD ADD MLOAD PUSH2 0xBCD JUMP JUMPDEST DUP3 DUP3 DUP2 MLOAD DUP2 LT PUSH2 0x1A24 JUMPI PUSH2 0x1A24 PUSH2 0x41E0 JUMP JUMPDEST PUSH1 0x20 SWAP1 DUP2 MUL SWAP2 SWAP1 SWAP2 ADD ADD MSTORE PUSH2 0x1A38 DUP2 PUSH2 0x41F6 JUMP JUMPDEST SWAP1 POP PUSH2 0x19CD JUMP JUMPDEST POP SWAP4 SWAP3 POP POP POP JUMP JUMPDEST PUSH1 0x0 PUSH2 0x1A54 DUP6 DUP6 DUP6 PUSH2 0x286B JUMP JUMPDEST PUSH1 0x0 DUP2 DUP2 MSTORE PUSH1 0x1D PUSH1 0x20 MSTORE PUSH1 0x40 SWAP1 KECCAK256 SLOAD SWAP1 SWAP2 POP PUSH1 0x1 PUSH1 0x1 PUSH1 0xA0 SHL SUB AND PUSH2 0x1ABB JUMPI PUSH1 0x40 MLOAD PUSH3 0x461BCD PUSH1 0xE5 SHL DUP2 MSTORE PUSH1 0x20 PUSH1 0x4 DUP3 ADD MSTORE PUSH1 0x1F PUSH1 0x24 DUP3 ADD MSTORE PUSH32 0x546869732064617920646F6573206E6F74206D656D6F72697A65642079657400 PUSH1 0x44 DUP3 ADD MSTORE PUSH1 0x64 ADD PUSH2 0xC35 JUMP JUMPDEST PUSH1 0x0 DUP2 DUP2 MSTORE PUSH1 0x1D PUSH1 0x20 MSTORE PUSH1 0x40 SWAP1 KECCAK256 SLOAD PUSH1 0x1 PUSH1 0x1 PUSH1 0xA0 SHL SUB AND CALLER EQ PUSH2 0x1B21 JUMPI PUSH1 0x40 MLOAD PUSH3 0x461BCD PUSH1 0xE5 SHL DUP2 MSTORE PUSH1 0x20 PUSH1 0x4 DUP3 ADD MSTORE PUSH1 0x17 PUSH1 0x24 DUP3 ADD MSTORE PUSH32 0x596F7520646F6E60742068617665207468697320646179000000000000000000 PUSH1 0x44 DUP3 ADD MSTORE PUSH1 0x64 ADD PUSH2 0xC35 JUMP JUMPDEST PUSH1 0x0 DUP2 DUP2 MSTORE PUSH1 0x1E PUSH1 0x20 SWAP1 DUP2 MSTORE PUSH1 0x40 SWAP1 SWAP2 KECCAK256 DUP4 MLOAD PUSH2 0x1B40 SWAP3 DUP6 ADD SWAP1 PUSH2 0x3959 JUMP JUMPDEST POP CALLER PUSH1 0x1 PUSH1 0x1 PUSH1 0xA0 SHL SUB AND PUSH32 0x2D51DA4E9AAE0A6EE06DE087193C53FCC2ADA79CD6D25B0D48990840471F0585 DUP4 PUSH1 0x40 MLOAD PUSH2 0x1586 SWAP2 SWAP1 PUSH2 0x3B7B JUMP JUMPDEST PUSH1 0x3 SLOAD PUSH1 0x1 PUSH1 0x1 PUSH1 0xA0 SHL SUB PUSH2 0x100 SWAP1 SWAP2 DIV AND CALLER EQ PUSH2 0x1BAA JUMPI PUSH1 0x40 MLOAD PUSH3 0x461BCD PUSH1 0xE5 SHL DUP2 MSTORE PUSH1 0x4 ADD PUSH2 0xC35 SWAP1 PUSH2 0x4121 JUMP JUMPDEST PUSH1 0x3 SLOAD PUSH1 0xFF AND ISZERO PUSH2 0x1BCD JUMPI PUSH1 0x40 MLOAD PUSH3 0x461BCD PUSH1 0xE5 SHL DUP2 MSTORE PUSH1 0x4 ADD PUSH2 0xC35 SWAP1 PUSH2 0x4156 JUMP JUMPDEST PUSH1 0x14 SSTORE JUMP JUMPDEST PUSH1 0x3 SLOAD PUSH1 0x1 PUSH1 0x1 PUSH1 0xA0 SHL SUB PUSH2 0x100 SWAP1 SWAP2 DIV AND CALLER EQ PUSH2 0x1C02 JUMPI PUSH1 0x40 MLOAD PUSH3 0x461BCD PUSH1 0xE5 SHL DUP2 MSTORE PUSH1 0x4 ADD PUSH2 0xC35 SWAP1 PUSH2 0x4121 JUMP JUMPDEST PUSH1 0x3 SLOAD PUSH1 0xFF AND ISZERO PUSH2 0x1C25 JUMPI PUSH1 0x40 MLOAD PUSH3 0x461BCD PUSH1 0xE5 SHL DUP2 MSTORE PUSH1 0x4 ADD PUSH2 0xC35 SWAP1 PUSH2 0x4156 JUMP JUMPDEST PUSH1 0x0 PUSH2 0x1C32 DUP5 DUP5 DUP5 PUSH2 0x286B JUMP JUMPDEST SWAP1 POP PUSH1 0x12 SLOAD PUSH1 0x0 EQ PUSH2 0x1C8F JUMPI PUSH1 0x12 SLOAD DUP2 LT PUSH2 0x1C8F JUMPI PUSH1 0x40 MLOAD PUSH3 0x461BCD PUSH1 0xE5 SHL DUP2 MSTORE PUSH1 0x20 PUSH1 0x4 DUP3 ADD MSTORE PUSH1 0x1F PUSH1 0x24 DUP3 ADD MSTORE PUSH32 0x4F6E6C79206261636B77617264206368616E676520697320616C6C6F77656400 PUSH1 0x44 DUP3 ADD MSTORE PUSH1 0x64 ADD PUSH2 0xC35 JUMP JUMPDEST PUSH1 0x12 SSTORE POP POP POP JUMP JUMPDEST PUSH1 0x1E PUSH1 0x20 MSTORE PUSH1 0x0 SWAP1 DUP2 MSTORE PUSH1 0x40 SWAP1 KECCAK256 DUP1 SLOAD PUSH2 0x1CB0 SWAP1 PUSH2 0x40E6 JUMP JUMPDEST DUP1 PUSH1 0x1F ADD PUSH1 0x20 DUP1 SWAP2 DIV MUL PUSH1 0x20 ADD PUSH1 0x40 MLOAD SWAP1 DUP2 ADD PUSH1 0x40 MSTORE DUP1 SWAP3 SWAP2 SWAP1 DUP2 DUP2 MSTORE PUSH1 0x20 ADD DUP3 DUP1 SLOAD PUSH2 0x1CDC SWAP1 PUSH2 0x40E6 JUMP JUMPDEST DUP1 ISZERO PUSH2 0x1D29 JUMPI DUP1 PUSH1 0x1F LT PUSH2 0x1CFE JUMPI PUSH2 0x100 DUP1 DUP4 SLOAD DIV MUL DUP4 MSTORE SWAP2 PUSH1 0x20 ADD SWAP2 PUSH2 0x1D29 JUMP JUMPDEST DUP3 ADD SWAP2 SWAP1 PUSH1 0x0 MSTORE PUSH1 0x20 PUSH1 0x0 KECCAK256 SWAP1 JUMPDEST DUP2 SLOAD DUP2 MSTORE SWAP1 PUSH1 0x1 ADD SWAP1 PUSH1 0x20 ADD DUP1 DUP4 GT PUSH2 0x1D0C JUMPI DUP3 SWAP1 SUB PUSH1 0x1F AND DUP3 ADD SWAP2 JUMPDEST POP POP POP POP POP DUP2 JUMP JUMPDEST PUSH1 0x3 SLOAD PUSH1 0x1 PUSH1 0x1 PUSH1 0xA0 SHL SUB PUSH2 0x100 SWAP1 SWAP2 DIV AND CALLER EQ PUSH2 0x1D61 JUMPI PUSH1 0x40 MLOAD PUSH3 0x461BCD PUSH1 0xE5 SHL DUP2 MSTORE PUSH1 0x4 ADD PUSH2 0xC35 SWAP1 PUSH2 0x4121 JUMP JUMPDEST PUSH1 0x19 DUP1 SLOAD PUSH1 0x1 PUSH1 0x1 PUSH1 0xA0 SHL SUB SWAP3 DUP4 AND PUSH1 0x1 PUSH1 0x1 PUSH1 0xA0 SHL SUB NOT DUP3 AND DUP2 OR SWAP1 SWAP3 SSTORE SWAP2 SWAP1 SWAP2 AND PUSH1 0x0 DUP2 DUP2 MSTORE PUSH1 0x1B PUSH1 0x20 MSTORE PUSH1 0x40 DUP1 DUP3 KECCAK256 DUP1 SLOAD SWAP5 DUP4 MSTORE SWAP1 DUP3 KECCAK256 SWAP4 SWAP1 SWAP4 SSTORE SWAP1 DUP2 MSTORE SWAP1 SSTORE JUMP JUMPDEST PUSH1 0x5 DUP1 SLOAD PUSH2 0x1CB0 SWAP1 PUSH2 0x40E6 JUMP JUMPDEST PUSH1 0x3 SLOAD PUSH1 0x1 PUSH1 0x1 PUSH1 0xA0 SHL SUB PUSH2 0x100 SWAP1 SWAP2 DIV AND CALLER EQ PUSH2 0x1DE3 JUMPI PUSH1 0x40 MLOAD PUSH3 0x461BCD PUSH1 0xE5 SHL DUP2 MSTORE PUSH1 0x4 ADD PUSH2 0xC35 SWAP1 PUSH2 0x4121 JUMP JUMPDEST ADDRESS PUSH1 0x0 SWAP1 DUP2 MSTORE PUSH1 0x1B PUSH1 0x20 MSTORE PUSH1 0x40 DUP1 DUP3 KECCAK256 DUP1 SLOAD SWAP1 DUP4 SWAP1 SSTORE SWAP1 MLOAD SWAP1 SWAP2 CALLER SWAP2 DUP4 ISZERO PUSH2 0x8FC MUL SWAP2 DUP5 SWAP2 SWAP1 DUP2 DUP2 DUP2 DUP6 DUP9 DUP9 CALL SWAP4 POP POP POP POP ISZERO DUP1 ISZERO PUSH2 0xE98 JUMPI RETURNDATASIZE PUSH1 0x0 DUP1 RETURNDATACOPY RETURNDATASIZE PUSH1 0x0 REVERT JUMPDEST CALLER PUSH1 0x0 SWAP1 DUP2 MSTORE PUSH1 0x1B PUSH1 0x20 MSTORE PUSH1 0x40 SWAP1 KECCAK256 SLOAD PUSH7 0x2386F26FC10000 GT ISZERO PUSH2 0x1E9E JUMPI PUSH1 0x40 MLOAD PUSH3 0x461BCD PUSH1 0xE5 SHL DUP2 MSTORE PUSH1 0x20 PUSH1 0x4 DUP3 ADD MSTORE PUSH1 0x29 PUSH1 0x24 DUP3 ADD MSTORE PUSH32 0x596F7520646F6E60742068617665206D696E2062616C616E636520666F722077 PUSH1 0x44 DUP3 ADD MSTORE PUSH9 0x1A5D1A191C985DD85B PUSH1 0xBA SHL PUSH1 0x64 DUP3 ADD MSTORE PUSH1 0x84 ADD PUSH2 0xC35 JUMP JUMPDEST CALLER PUSH1 0x0 DUP2 DUP2 MSTORE PUSH1 0x1B PUSH1 0x20 MSTORE PUSH1 0x40 DUP1 DUP3 KECCAK256 DUP1 SLOAD SWAP1 DUP4 SWAP1 SSTORE SWAP1 MLOAD SWAP1 SWAP3 DUP4 SWAP3 SWAP1 SWAP2 PUSH32 0x2F174CA282119315C59EFAF21147AEF438581DABDEB498198AE28964373DD8BC SWAP2 SWAP1 LOG3 PUSH1 0x40 MLOAD CALLER SWAP1 DUP3 ISZERO PUSH2 0x8FC MUL SWAP1 DUP4 SWAP1 PUSH1 0x0 DUP2 DUP2 DUP2 DUP6 DUP9 DUP9 CALL SWAP4 POP POP POP POP ISZERO DUP1 ISZERO PUSH2 0xE98 JUMPI RETURNDATASIZE PUSH1 0x0 DUP1 RETURNDATACOPY RETURNDATASIZE PUSH1 0x0 REVERT JUMPDEST PUSH1 0x3 SLOAD PUSH1 0x1 PUSH1 0x1 PUSH1 0xA0 SHL SUB PUSH2 0x100 SWAP1 SWAP2 DIV AND CALLER EQ PUSH2 0x1F3D JUMPI PUSH1 0x40 MLOAD PUSH3 0x461BCD PUSH1 0xE5 SHL DUP2 MSTORE PUSH1 0x4 ADD PUSH2 0xC35 SWAP1 PUSH2 0x4121 JUMP JUMPDEST PUSH2 0xED4 PUSH1 0x0 PUSH2 0x2F1E JUMP JUMPDEST PUSH1 0x0 DUP1 MSTORE PUSH1 0x1D PUSH1 0x20 MSTORE PUSH1 0x0 DUP1 MLOAD PUSH1 0x20 PUSH2 0x4696 DUP4 CODECOPY DUP2 MLOAD SWAP2 MSTORE SLOAD PUSH1 0x1 PUSH1 0x1 PUSH1 0xA0 SHL SUB AND CALLER EQ DUP1 PUSH2 0x1F97 JUMPI POP PUSH1 0x3 SLOAD PUSH2 0x100 SWAP1 DIV PUSH1 0x1 PUSH1 0x1 PUSH1 0xA0 SHL SUB AND PUSH1 0x1 PUSH1 0x1 PUSH1 0xA0 SHL SUB AND CALLER PUSH1 0x1 PUSH1 0x1 PUSH1 0xA0 SHL SUB AND EQ JUMPDEST PUSH2 0x1FA0 JUMPI PUSH1 0x0 DUP1 REVERT JUMPDEST DUP3 MLOAD PUSH2 0x1FB3 SWAP1 PUSH1 0x7 SWAP1 PUSH1 0x20 DUP7 ADD SWAP1 PUSH2 0x3959 JUMP JUMPDEST POP DUP2 MLOAD PUSH2 0x1FC7 SWAP1 PUSH1 0x6 SWAP1 PUSH1 0x20 DUP6 ADD SWAP1 PUSH2 0x3959 JUMP JUMPDEST POP DUP1 MLOAD PUSH2 0x1FDB SWAP1 PUSH1 0x5 SWAP1 PUSH1 0x20 DUP5 ADD SWAP1 PUSH2 0x3959 JUMP JUMPDEST POP POP POP POP JUMP JUMPDEST PUSH1 0x9 DUP1 SLOAD PUSH2 0x1CB0 SWAP1 PUSH2 0x40E6 JUMP JUMPDEST CALLER PUSH1 0x1 PUSH1 0x1 PUSH1 0xA0 SHL SUB PUSH32 0x0 AND EQ PUSH2 0x2066 JUMPI PUSH1 0x40 MLOAD PUSH3 0x461BCD PUSH1 0xE5 SHL DUP2 MSTORE PUSH1 0x20 PUSH1 0x4 DUP3 ADD MSTORE PUSH1 0x1F PUSH1 0x24 DUP3 ADD MSTORE PUSH32 0x4F6E6C7920565246436F6F7264696E61746F722063616E2066756C66696C6C00 PUSH1 0x44 DUP3 ADD MSTORE PUSH1 0x64 ADD PUSH2 0xC35 JUMP JUMPDEST PUSH2 0xE98 DUP3 DUP3 PUSH2 0x2F78 JUMP JUMPDEST PUSH2 0xE98 CALLER DUP4 DUP4 PUSH2 0x3109 JUMP JUMPDEST PUSH1 0xD DUP2 DUP2 SLOAD DUP2 LT PUSH2 0x208B JUMPI PUSH1 0x0 DUP1 REVERT JUMPDEST PUSH1 0x0 SWAP2 DUP3 MSTORE PUSH1 0x20 SWAP1 SWAP2 KECCAK256 ADD SLOAD PUSH1 0x1 PUSH1 0x1 PUSH1 0xA0 SHL SUB AND SWAP1 POP DUP2 JUMP JUMPDEST PUSH1 0x3 SLOAD PUSH1 0x1 PUSH1 0x1 PUSH1 0xA0 SHL SUB PUSH2 0x100 SWAP1 SWAP2 DIV AND CALLER EQ PUSH2 0x20D5 JUMPI PUSH1 0x40 MLOAD PUSH3 0x461BCD PUSH1 0xE5 SHL DUP2 MSTORE PUSH1 0x4 ADD PUSH2 0xC35 SWAP1 PUSH2 0x4121 JUMP JUMPDEST DUP1 ISZERO PUSH2 0x211F JUMPI PUSH1 0x16 DUP1 SLOAD PUSH1 0x1 PUSH1 0x1 PUSH1 0xA0 SHL SUB DUP5 DUP2 AND PUSH1 0x1 PUSH1 0x1 PUSH1 0xA0 SHL SUB NOT DUP4 AND DUP2 OR SWAP1 SWAP4 SSTORE AND PUSH1 0x0 DUP2 DUP2 MSTORE PUSH1 0x1B PUSH1 0x20 MSTORE PUSH1 0x40 DUP1 DUP3 KECCAK256 DUP1 SLOAD SWAP5 DUP4 MSTORE SWAP1 DUP3 KECCAK256 SWAP4 SWAP1 SWAP4 SSTORE SWAP1 DUP2 MSTORE SWAP1 SSTORE POP POP JUMP JUMPDEST PUSH1 0x16 DUP1 SLOAD PUSH1 0x1 PUSH1 0x1 PUSH1 0xA0 SHL SUB DUP5 DUP2 AND PUSH1 0x1 PUSH1 0x1 PUSH1 0xA0 SHL SUB NOT DUP4 AND OR SWAP1 SWAP3 SSTORE DUP2 AND PUSH1 0x0 DUP2 DUP2 MSTORE PUSH1 0x1B PUSH1 0x20 MSTORE PUSH1 0x40 DUP1 DUP3 KECCAK256 SLOAD PUSH1 0x19 SLOAD SWAP1 SWAP5 AND DUP3 MSTORE SWAP1 KECCAK256 SLOAD SWAP1 SWAP2 PUSH2 0xE6F SWAP2 PUSH2 0x3A5D JUMP JUMPDEST PUSH1 0x3 SLOAD PUSH1 0x1 PUSH1 0x1 PUSH1 0xA0 SHL SUB PUSH2 0x100 SWAP1 SWAP2 DIV AND CALLER EQ PUSH2 0x2195 JUMPI PUSH1 0x40 MLOAD PUSH3 0x461BCD PUSH1 0xE5 SHL DUP2 MSTORE PUSH1 0x4 ADD PUSH2 0xC35 SWAP1 PUSH2 0x4121 JUMP JUMPDEST DUP1 ISZERO PUSH2 0x21DF JUMPI PUSH1 0x1A DUP1 SLOAD PUSH1 0x1 PUSH1 0x1 PUSH1 0xA0 SHL SUB DUP5 DUP2 AND PUSH1 0x1 PUSH1 0x1 PUSH1 0xA0 SHL SUB NOT DUP4 AND DUP2 OR SWAP1 SWAP4 SSTORE AND PUSH1 0x0 DUP2 DUP2 MSTORE PUSH1 0x1B PUSH1 0x20 MSTORE PUSH1 0x40 DUP1 DUP3 KECCAK256 DUP1 SLOAD SWAP5 DUP4 MSTORE SWAP1 DUP3 KECCAK256 SWAP4 SWAP1 SWAP4 SSTORE SWAP1 DUP2 MSTORE SWAP1 SSTORE POP POP JUMP JUMPDEST PUSH1 0x1A DUP1 SLOAD PUSH1 0x1 PUSH1 0x1 PUSH1 0xA0 SHL SUB DUP5 DUP2 AND PUSH1 0x1 PUSH1 0x1 PUSH1 0xA0 SHL SUB NOT DUP4 AND OR SWAP1 SWAP3 SSTORE DUP2 AND PUSH1 0x0 DUP2 DUP2 MSTORE PUSH1 0x1B PUSH1 0x20 MSTORE PUSH1 0x40 DUP1 DUP3 KECCAK256 SLOAD PUSH1 0x19 SLOAD SWAP1 SWAP5 AND DUP3 MSTORE SWAP1 KECCAK256 SLOAD SWAP1 SWAP2 PUSH2 0xE6F SWAP2 PUSH2 0x3A5D JUMP JUMPDEST PUSH1 0x7 DUP1 SLOAD PUSH2 0x1CB0 SWAP1 PUSH2 0x40E6 JUMP JUMPDEST PUSH1 0x0 DUP1 MSTORE PUSH1 0x1D PUSH1 0x20 MSTORE PUSH1 0x0 DUP1 MLOAD PUSH1 0x20 PUSH2 0x4696 DUP4 CODECOPY DUP2 MLOAD SWAP2 MSTORE SLOAD PUSH1 0x1 PUSH1 0x1 PUSH1 0xA0 SHL SUB AND CALLER EQ DUP1 PUSH2 0x2282 JUMPI POP PUSH1 0x3 SLOAD PUSH2 0x100 SWAP1 DIV PUSH1 0x1 PUSH1 0x1 PUSH1 0xA0 SHL SUB AND PUSH1 0x1 PUSH1 0x1 PUSH1 0xA0 SHL SUB AND CALLER PUSH1 0x1 PUSH1 0x1 PUSH1 0xA0 SHL SUB AND EQ JUMPDEST PUSH2 0x228B JUMPI PUSH1 0x0 DUP1 REVERT JUMPDEST PUSH1 0xF SLOAD PUSH2 0x229A PUSH1 0x11 SLOAD TIMESTAMP PUSH2 0x31EA JUMP JUMPDEST LT ISZERO PUSH2 0x22B8 JUMPI PUSH1 0x40 MLOAD PUSH3 0x461BCD PUSH1 0xE5 SHL DUP2 MSTORE PUSH1 0x4 ADD PUSH2 0xC35 SWAP1 PUSH2 0x4211 JUMP JUMPDEST PUSH1 0x1 PUSH1 0x1 PUSH1 0xA0 SHL SUB DUP2 AND PUSH1 0x0 SWAP1 DUP2 MSTORE PUSH1 0x1C PUSH1 0x20 MSTORE PUSH1 0x40 SWAP1 KECCAK256 SLOAD ISZERO PUSH2 0x231E JUMPI PUSH1 0x40 MLOAD PUSH3 0x461BCD PUSH1 0xE5 SHL DUP2 MSTORE PUSH1 0x20 PUSH1 0x4 DUP3 ADD DUP2 SWAP1 MSTORE PUSH1 0x24 DUP3 ADD MSTORE PUSH32 0x546869732061646472657373206861732061697264726F70207469636B657473 PUSH1 0x44 DUP3 ADD MSTORE PUSH1 0x64 ADD PUSH2 0xC35 JUMP JUMPDEST TIMESTAMP PUSH1 0x11 SSTORE PUSH1 0x1 PUSH1 0x1 PUSH1 0xA0 SHL SUB AND PUSH1 0x0 SWAP1 DUP2 MSTORE PUSH1 0x1C PUSH1 0x20 MSTORE PUSH1 0x40 SWAP1 KECCAK256 PUSH1 0x1 SWAP1 SSTORE JUMP JUMPDEST PUSH1 0x3 SLOAD PUSH1 0xFF AND ISZERO PUSH2 0x2362 JUMPI PUSH1 0x40 MLOAD PUSH3 0x461BCD PUSH1 0xE5 SHL DUP2 MSTORE PUSH1 0x4 ADD PUSH2 0xC35 SWAP1 PUSH2 0x4156 JUMP JUMPDEST PUSH1 0xE SLOAD PUSH2 0x2371 PUSH1 0x10 SLOAD TIMESTAMP PUSH2 0x31EA JUMP JUMPDEST LT ISZERO PUSH2 0x238F JUMPI PUSH1 0x40 MLOAD PUSH3 0x461BCD PUSH1 0xE5 SHL DUP2 MSTORE PUSH1 0x4 ADD PUSH2 0xC35 SWAP1 PUSH2 0x4211 JUMP JUMPDEST PUSH1 0xD SLOAD PUSH2 0x23DE JUMPI PUSH1 0x40 MLOAD PUSH3 0x461BCD PUSH1 0xE5 SHL DUP2 MSTORE PUSH1 0x20 PUSH1 0x4 DUP3 ADD MSTORE PUSH1 0x1A PUSH1 0x24 DUP3 ADD MSTORE PUSH32 0x7468657265206973206E6F7420616E7920726567697374657273000000000000 PUSH1 0x44 DUP3 ADD MSTORE PUSH1 0x64 ADD PUSH2 0xC35 JUMP JUMPDEST PUSH1 0x0 PUSH2 0x23EE PUSH1 0x15 SLOAD PUSH1 0x14 SLOAD PUSH2 0x3218 JUMP JUMPDEST SWAP1 POP PUSH32 0x41B48BB4A3FA87F36CD1B5550EF4AF0E4C2568EA37629540B9209F5509B4A42F DUP2 PUSH1 0x40 MLOAD PUSH2 0x2421 SWAP2 DUP2 MSTORE PUSH1 0x20 ADD SWAP1 JUMP JUMPDEST PUSH1 0x40 MLOAD DUP1 SWAP2 SUB SWAP1 LOG1 POP JUMP JUMPDEST PUSH1 0x3 SLOAD PUSH1 0xFF AND ISZERO PUSH2 0x244F JUMPI PUSH1 0x40 MLOAD PUSH3 0x461BCD PUSH1 0xE5 SHL DUP2 MSTORE PUSH1 0x4 ADD PUSH2 0xC35 SWAP1 PUSH2 0x4156 JUMP JUMPDEST PUSH1 0x1 PUSH1 0x0 JUMPDEST PUSH1 0xD SLOAD DUP2 LT ISZERO PUSH2 0x24AD JUMPI CALLER PUSH1 0x1 PUSH1 0x1 PUSH1 0xA0 SHL SUB AND PUSH1 0xD DUP3 DUP2 SLOAD DUP2 LT PUSH2 0x247B JUMPI PUSH2 0x247B PUSH2 0x41E0 JUMP JUMPDEST PUSH1 0x0 SWAP2 DUP3 MSTORE PUSH1 0x20 SWAP1 SWAP2 KECCAK256 ADD SLOAD PUSH1 0x1 PUSH1 0x1 PUSH1 0xA0 SHL SUB AND EQ ISZERO PUSH2 0x249B JUMPI PUSH1 0x0 SWAP2 POP JUMPDEST DUP1 PUSH2 0x24A5 DUP2 PUSH2 0x41F6 JUMP JUMPDEST SWAP2 POP POP PUSH2 0x2454 JUMP JUMPDEST POP DUP1 PUSH2 0x2512 JUMPI PUSH1 0x40 MLOAD PUSH3 0x461BCD PUSH1 0xE5 SHL DUP2 MSTORE PUSH1 0x20 PUSH1 0x4 DUP3 ADD MSTORE PUSH1 0x2E PUSH1 0x24 DUP3 ADD MSTORE PUSH32 0x596F7520616C72656164792068617665206265656E2072656769737465726564 PUSH1 0x44 DUP3 ADD MSTORE PUSH14 0x20666F722074686973207765656B PUSH1 0x90 SHL PUSH1 0x64 DUP3 ADD MSTORE PUSH1 0x84 ADD PUSH2 0xC35 JUMP JUMPDEST PUSH1 0xD DUP1 SLOAD PUSH1 0x1 DUP2 ADD DUP3 SSTORE PUSH1 0x0 SWAP2 DUP3 MSTORE PUSH32 0xD7B6990105719101DABEB77144F2A3385C8033ACD3AF97E9423A695E81AD1EB5 ADD DUP1 SLOAD PUSH1 0x1 PUSH1 0x1 PUSH1 0xA0 SHL SUB NOT AND CALLER SWAP1 DUP2 OR SWAP1 SWAP2 SSTORE PUSH1 0x40 MLOAD SWAP1 SWAP2 PUSH32 0xE0E462347257E042FB3036336D3F35CE831166D31E2CEFC46D0D5046426D8175 SWAP2 LOG2 POP JUMP JUMPDEST PUSH1 0x1 PUSH1 0x1 PUSH1 0xA0 SHL SUB DUP6 AND CALLER EQ DUP1 PUSH2 0x259D JUMPI POP PUSH2 0x259D DUP6 CALLER PUSH2 0xAD6 JUMP JUMPDEST PUSH2 0x25FB JUMPI PUSH1 0x40 MLOAD PUSH3 0x461BCD PUSH1 0xE5 SHL DUP2 MSTORE PUSH1 0x20 PUSH1 0x4 DUP3 ADD MSTORE PUSH1 0x29 PUSH1 0x24 DUP3 ADD MSTORE PUSH32 0x455243313135353A2063616C6C6572206973206E6F74206F776E6572206E6F72 PUSH1 0x44 DUP3 ADD MSTORE PUSH9 0x8185C1C1C9BDD9959 PUSH1 0xBA SHL PUSH1 0x64 DUP3 ADD MSTORE PUSH1 0x84 ADD PUSH2 0xC35 JUMP JUMPDEST PUSH2 0x158F DUP6 DUP6 DUP6 DUP6 DUP6 PUSH2 0x3394 JUMP JUMPDEST PUSH1 0x3 SLOAD PUSH1 0x1 PUSH1 0x1 PUSH1 0xA0 SHL SUB PUSH2 0x100 SWAP1 SWAP2 DIV AND CALLER EQ PUSH2 0x2638 JUMPI PUSH1 0x40 MLOAD PUSH3 0x461BCD PUSH1 0xE5 SHL DUP2 MSTORE PUSH1 0x4 ADD PUSH2 0xC35 SWAP1 PUSH2 0x4121 JUMP JUMPDEST PUSH1 0x1 PUSH1 0x1 PUSH1 0xA0 SHL SUB DUP2 AND PUSH2 0x269D JUMPI PUSH1 0x40 MLOAD PUSH3 0x461BCD PUSH1 0xE5 SHL DUP2 MSTORE PUSH1 0x20 PUSH1 0x4 DUP3 ADD MSTORE PUSH1 0x26 PUSH1 0x24 DUP3 ADD MSTORE PUSH32 0x4F776E61626C653A206E6577206F776E657220697320746865207A65726F2061 PUSH1 0x44 DUP3 ADD MSTORE PUSH6 0x646472657373 PUSH1 0xD0 SHL PUSH1 0x64 DUP3 ADD MSTORE PUSH1 0x84 ADD PUSH2 0xC35 JUMP JUMPDEST PUSH2 0x26A6 DUP2 PUSH2 0x2F1E JUMP JUMPDEST POP JUMP JUMPDEST PUSH1 0x3 SLOAD PUSH1 0x1 PUSH1 0x1 PUSH1 0xA0 SHL SUB PUSH2 0x100 SWAP1 SWAP2 DIV AND CALLER EQ PUSH2 0x26D9 JUMPI PUSH1 0x40 MLOAD PUSH3 0x461BCD PUSH1 0xE5 SHL DUP2 MSTORE PUSH1 0x4 ADD PUSH2 0xC35 SWAP1 PUSH2 0x4121 JUMP JUMPDEST DUP1 ISZERO PUSH2 0x2723 JUMPI PUSH1 0x18 DUP1 SLOAD PUSH1 0x1 PUSH1 0x1 PUSH1 0xA0 SHL SUB DUP5 DUP2 AND PUSH1 0x1 PUSH1 0x1 PUSH1 0xA0 SHL SUB NOT DUP4 AND DUP2 OR SWAP1 SWAP4 SSTORE AND PUSH1 0x0 DUP2 DUP2 MSTORE PUSH1 0x1B PUSH1 0x20 MSTORE PUSH1 0x40 DUP1 DUP3 KECCAK256 DUP1 SLOAD SWAP5 DUP4 MSTORE SWAP1 DUP3 KECCAK256 SWAP4 SWAP1 SWAP4 SSTORE SWAP1 DUP2 MSTORE SWAP1 SSTORE POP POP JUMP JUMPDEST PUSH1 0x18 DUP1 SLOAD PUSH1 0x1 PUSH1 0x1 PUSH1 0xA0 SHL SUB DUP5 DUP2 AND PUSH1 0x1 PUSH1 0x1 PUSH1 0xA0 SHL SUB NOT DUP4 AND OR SWAP1 SWAP3 SSTORE DUP2 AND PUSH1 0x0 DUP2 DUP2 MSTORE PUSH1 0x1B PUSH1 0x20 MSTORE PUSH1 0x40 DUP1 DUP3 KECCAK256 SLOAD PUSH1 0x19 SLOAD SWAP1 SWAP5 AND DUP3 MSTORE SWAP1 KECCAK256 SLOAD SWAP1 SWAP2 PUSH2 0xE6F SWAP2 PUSH2 0x3A5D JUMP JUMPDEST PUSH1 0x0 DUP1 PUSH1 0x8 PUSH1 0x0 SWAP1 SLOAD SWAP1 PUSH2 0x100 EXP SWAP1 DIV PUSH1 0x1 PUSH1 0x1 PUSH1 0xA0 SHL SUB AND PUSH1 0x1 PUSH1 0x1 PUSH1 0xA0 SHL SUB AND PUSH4 0xFEAF968C PUSH1 0x40 MLOAD DUP2 PUSH4 0xFFFFFFFF AND PUSH1 0xE0 SHL DUP2 MSTORE PUSH1 0x4 ADD PUSH1 0xA0 PUSH1 0x40 MLOAD DUP1 DUP4 SUB DUP2 DUP7 GAS STATICCALL ISZERO DUP1 ISZERO PUSH2 0x27BF JUMPI RETURNDATASIZE PUSH1 0x0 DUP1 RETURNDATACOPY RETURNDATASIZE PUSH1 0x0 REVERT JUMPDEST POP POP POP POP PUSH1 0x40 MLOAD RETURNDATASIZE PUSH1 0x1F NOT PUSH1 0x1F DUP3 ADD AND DUP3 ADD DUP1 PUSH1 0x40 MSTORE POP DUP2 ADD SWAP1 PUSH2 0x27E3 SWAP2 SWAP1 PUSH2 0x425B JUMP JUMPDEST POP POP POP SWAP2 POP POP PUSH1 0x0 DUP2 PUSH5 0x2540BE400 PUSH2 0x27FC SWAP2 SWAP1 PUSH2 0x4197 JUMP JUMPDEST SWAP1 POP DUP1 PUSH1 0xC SLOAD PUSH8 0xDE0B6B3A7640000 PUSH2 0x2815 SWAP2 SWAP1 PUSH2 0x4197 JUMP JUMPDEST PUSH2 0x281F SWAP2 SWAP1 PUSH2 0x41CC JUMP JUMPDEST SWAP3 POP POP POP SWAP1 JUMP JUMPDEST PUSH1 0x6 DUP1 SLOAD PUSH2 0x1CB0 SWAP1 PUSH2 0x40E6 JUMP JUMPDEST PUSH1 0x3 SLOAD PUSH1 0x1 PUSH1 0x1 PUSH1 0xA0 SHL SUB PUSH2 0x100 SWAP1 SWAP2 DIV AND CALLER EQ PUSH2 0x2863 JUMPI PUSH1 0x40 MLOAD PUSH3 0x461BCD PUSH1 0xE5 SHL DUP2 MSTORE PUSH1 0x4 ADD PUSH2 0xC35 SWAP1 PUSH2 0x4121 JUMP JUMPDEST PUSH2 0xED4 PUSH2 0x34B1 JUMP JUMPDEST PUSH1 0x0 PUSH3 0x15180 PUSH2 0x287C DUP6 DUP6 DUP6 PUSH2 0x352B JUMP JUMPDEST PUSH2 0xCC3 SWAP2 SWAP1 PUSH2 0x4197 JUMP JUMPDEST PUSH1 0x3 SLOAD PUSH1 0xFF AND ISZERO PUSH2 0x28A9 JUMPI PUSH1 0x40 MLOAD PUSH3 0x461BCD PUSH1 0xE5 SHL DUP2 MSTORE PUSH1 0x4 ADD PUSH2 0xC35 SWAP1 PUSH2 0x4156 JUMP JUMPDEST PUSH1 0x3 DUP1 SLOAD PUSH1 0xFF NOT AND PUSH1 0x1 OR SWAP1 SSTORE PUSH32 0x62E78CEA01BEE320CD4E420270B5EA74000D11B0C9F74754EBDBFC544B05A258 PUSH2 0x28DE CALLER SWAP1 JUMP JUMPDEST PUSH1 0x40 MLOAD PUSH1 0x1 PUSH1 0x1 PUSH1 0xA0 SHL SUB SWAP1 SWAP2 AND DUP2 MSTORE PUSH1 0x20 ADD PUSH1 0x40 MLOAD DUP1 SWAP2 SUB SWAP1 LOG1 JUMP JUMPDEST PUSH1 0x0 PUSH2 0x2908 PUSH1 0x4 DUP4 PUSH2 0x42AB JUMP JUMPDEST ISZERO DUP1 ISZERO PUSH2 0x291E JUMPI POP PUSH2 0x291B PUSH1 0x64 DUP4 PUSH2 0x42AB JUMP JUMPDEST ISZERO ISZERO JUMPDEST DUP1 PUSH2 0xCB0 JUMPI POP PUSH2 0x2930 PUSH2 0x190 DUP4 PUSH2 0x42AB JUMP JUMPDEST ISZERO SWAP3 SWAP2 POP POP JUMP JUMPDEST PUSH1 0x0 PUSH2 0x2944 PUSH1 0x5 DUP4 PUSH2 0x41CC JUMP JUMPDEST PUSH1 0x13 SLOAD SWAP1 SWAP2 POP PUSH1 0x5 LT ISZERO PUSH2 0x2A48 JUMPI PUSH1 0x0 JUMPDEST PUSH1 0x5 DUP2 LT ISZERO PUSH2 0x2A43 JUMPI PUSH1 0x13 DUP1 SLOAD PUSH1 0x0 SWAP2 DUP4 PUSH2 0x2971 PUSH1 0x1 DUP5 PUSH2 0x4180 JUMP JUMPDEST PUSH2 0x297B SWAP2 SWAP1 PUSH2 0x4180 JUMP JUMPDEST DUP2 SLOAD DUP2 LT PUSH2 0x298B JUMPI PUSH2 0x298B PUSH2 0x41E0 JUMP JUMPDEST SWAP1 PUSH1 0x0 MSTORE PUSH1 0x20 PUSH1 0x0 KECCAK256 ADD SLOAD PUSH2 0x29A0 SWAP2 SWAP1 PUSH2 0x42AB JUMP JUMPDEST PUSH1 0x0 DUP2 DUP2 MSTORE PUSH1 0x1D PUSH1 0x20 SWAP1 DUP2 MSTORE PUSH1 0x40 DUP1 DUP4 KECCAK256 SLOAD PUSH1 0x1 PUSH1 0x1 PUSH1 0xA0 SHL SUB AND DUP4 MSTORE PUSH1 0x1B SWAP1 SWAP2 MSTORE SWAP1 KECCAK256 SLOAD SWAP1 SWAP2 POP PUSH2 0x29D3 SWAP1 DUP5 SWAP1 PUSH2 0x3A5D JUMP JUMPDEST PUSH1 0x0 DUP3 DUP2 MSTORE PUSH1 0x1D PUSH1 0x20 DUP2 DUP2 MSTORE PUSH1 0x40 DUP1 DUP5 KECCAK256 DUP1 SLOAD PUSH1 0x1 PUSH1 0x1 PUSH1 0xA0 SHL SUB SWAP1 DUP2 AND DUP7 MSTORE PUSH1 0x1B DUP5 MSTORE DUP3 DUP7 KECCAK256 SWAP7 SWAP1 SWAP7 SSTORE DUP7 DUP6 MSTORE SWAP3 SWAP1 SWAP2 MSTORE SWAP1 SLOAD SWAP1 MLOAD SWAP3 AND SWAP2 PUSH32 0xEC89F096AB194D04CC1A0689E9D8459793609DA7CCDDF64B4423E830B98743EC SWAP2 SWAP1 LOG2 POP DUP1 PUSH2 0x2A3B DUP2 PUSH2 0x41F6 JUMP JUMPDEST SWAP2 POP POP PUSH2 0x2955 JUMP JUMPDEST POP POP POP JUMP JUMPDEST PUSH1 0x19 SLOAD PUSH1 0x1 PUSH1 0x1 PUSH1 0xA0 SHL SUB AND PUSH1 0x0 SWAP1 DUP2 MSTORE PUSH1 0x1B PUSH1 0x20 MSTORE PUSH1 0x40 SWAP1 KECCAK256 SLOAD PUSH2 0x2A6E SWAP1 DUP4 SWAP1 PUSH2 0x3A5D JUMP JUMPDEST PUSH1 0x19 SLOAD PUSH1 0x1 PUSH1 0x1 PUSH1 0xA0 SHL SUB AND PUSH1 0x0 SWAP1 DUP2 MSTORE PUSH1 0x1B PUSH1 0x20 MSTORE PUSH1 0x40 SWAP1 KECCAK256 SSTORE POP POP JUMP JUMPDEST PUSH1 0x1 PUSH1 0x1 PUSH1 0xA0 SHL SUB DUP5 AND PUSH2 0x2AED JUMPI PUSH1 0x40 MLOAD PUSH3 0x461BCD PUSH1 0xE5 SHL DUP2 MSTORE PUSH1 0x20 PUSH1 0x4 DUP3 ADD MSTORE PUSH1 0x21 PUSH1 0x24 DUP3 ADD MSTORE PUSH32 0x455243313135353A206D696E7420746F20746865207A65726F20616464726573 PUSH1 0x44 DUP3 ADD MSTORE PUSH1 0x73 PUSH1 0xF8 SHL PUSH1 0x64 DUP3 ADD MSTORE PUSH1 0x84 ADD PUSH2 0xC35 JUMP JUMPDEST CALLER PUSH2 0x2B0D DUP2 PUSH1 0x0 DUP8 PUSH2 0x2AFE DUP9 PUSH2 0x3668 JUMP JUMPDEST PUSH2 0x2B07 DUP9 PUSH2 0x3668 JUMP JUMPDEST DUP8 PUSH2 0x36B3 JUMP JUMPDEST PUSH1 0x0 DUP5 DUP2 MSTORE PUSH1 0x20 DUP2 DUP2 MSTORE PUSH1 0x40 DUP1 DUP4 KECCAK256 PUSH1 0x1 PUSH1 0x1 PUSH1 0xA0 SHL SUB DUP10 AND DUP5 MSTORE SWAP1 SWAP2 MSTORE DUP2 KECCAK256 DUP1 SLOAD DUP6 SWAP3 SWAP1 PUSH2 0x2B3D SWAP1 DUP5 SWAP1 PUSH2 0x3A5D JUMP JUMPDEST SWAP1 SWAP2 SSTORE POP POP PUSH1 0x40 DUP1 MLOAD DUP6 DUP2 MSTORE PUSH1 0x20 DUP2 ADD DUP6 SWAP1 MSTORE PUSH1 0x1 PUSH1 0x1 PUSH1 0xA0 SHL SUB DUP1 DUP9 AND SWAP3 PUSH1 0x0 SWAP3 SWAP2 DUP6 AND SWAP2 PUSH32 0xC3D58168C5AE7397731D063D5BBF3D657854427343F4C083240F7AACAA2D0F62 SWAP2 ADD PUSH1 0x40 MLOAD DUP1 SWAP2 SUB SWAP1 LOG4 PUSH2 0x158F DUP2 PUSH1 0x0 DUP8 DUP8 DUP8 DUP8 PUSH2 0x371B JUMP JUMPDEST PUSH1 0x13 SLOAD PUSH2 0x3E8 GT PUSH2 0xED4 JUMPI PUSH1 0x1E PUSH1 0xE SSTORE JUMP JUMPDEST PUSH10 0x152D02C7E14AF6800000 PUSH1 0xC SLOAD LT ISZERO PUSH2 0xED4 JUMPI PUSH1 0x13 SLOAD PUSH2 0x2BD3 SWAP1 PUSH2 0x5B4 SWAP1 PUSH2 0x42AB JUMP JUMPDEST PUSH2 0x2BE9 JUMPI PUSH1 0xA SLOAD PUSH2 0x2BE5 SWAP1 PUSH1 0x2 PUSH2 0x4197 JUMP JUMPDEST PUSH1 0xA SSTORE JUMPDEST PUSH1 0x13 SLOAD PUSH2 0x2BF9 SWAP1 PUSH2 0x16D SWAP1 PUSH2 0x42AB JUMP JUMPDEST PUSH2 0x2C11 JUMPI PUSH1 0xA SLOAD PUSH1 0xC SLOAD PUSH2 0x2C0D SWAP2 SWAP1 PUSH2 0x3A5D JUMP JUMPDEST PUSH1 0xC SSTORE JUMPDEST PUSH10 0x152D02C7E14AF6800000 PUSH1 0xC SLOAD GT ISZERO PUSH2 0xED4 JUMPI PUSH10 0x152D02C7E14AF6800000 PUSH1 0xC SSTORE JUMP JUMPDEST DUP2 MLOAD DUP4 MLOAD EQ PUSH2 0x2C97 JUMPI PUSH1 0x40 MLOAD PUSH3 0x461BCD PUSH1 0xE5 SHL DUP2 MSTORE PUSH1 0x20 PUSH1 0x4 DUP3 ADD MSTORE PUSH1 0x28 PUSH1 0x24 DUP3 ADD MSTORE PUSH32 0x455243313135353A2069647320616E6420616D6F756E7473206C656E67746820 PUSH1 0x44 DUP3 ADD MSTORE PUSH8 0xDAD2E6DAC2E8C6D PUSH1 0xC3 SHL PUSH1 0x64 DUP3 ADD MSTORE PUSH1 0x84 ADD PUSH2 0xC35 JUMP JUMPDEST PUSH1 0x1 PUSH1 0x1 PUSH1 0xA0 SHL SUB DUP5 AND PUSH2 0x2CBD JUMPI PUSH1 0x40 MLOAD PUSH3 0x461BCD PUSH1 0xE5 SHL DUP2 MSTORE PUSH1 0x4 ADD PUSH2 0xC35 SWAP1 PUSH2 0x42BF JUMP JUMPDEST CALLER PUSH2 0x2CCC DUP2 DUP8 DUP8 DUP8 DUP8 DUP8 PUSH2 0x36B3 JUMP JUMPDEST PUSH1 0x0 JUMPDEST DUP5 MLOAD DUP2 LT ISZERO PUSH2 0x2DB2 JUMPI PUSH1 0x0 DUP6 DUP3 DUP2 MLOAD DUP2 LT PUSH2 0x2CEC JUMPI PUSH2 0x2CEC PUSH2 0x41E0 JUMP JUMPDEST PUSH1 0x20 MUL PUSH1 0x20 ADD ADD MLOAD SWAP1 POP PUSH1 0x0 DUP6 DUP4 DUP2 MLOAD DUP2 LT PUSH2 0x2D0A JUMPI PUSH2 0x2D0A PUSH2 0x41E0 JUMP JUMPDEST PUSH1 0x20 SWAP1 DUP2 MUL SWAP2 SWAP1 SWAP2 ADD DUP2 ADD MLOAD PUSH1 0x0 DUP5 DUP2 MSTORE DUP1 DUP4 MSTORE PUSH1 0x40 DUP1 DUP3 KECCAK256 PUSH1 0x1 PUSH1 0x1 PUSH1 0xA0 SHL SUB DUP15 AND DUP4 MSTORE SWAP1 SWAP4 MSTORE SWAP2 SWAP1 SWAP2 KECCAK256 SLOAD SWAP1 SWAP2 POP DUP2 DUP2 LT ISZERO PUSH2 0x2D5A JUMPI PUSH1 0x40 MLOAD PUSH3 0x461BCD PUSH1 0xE5 SHL DUP2 MSTORE PUSH1 0x4 ADD PUSH2 0xC35 SWAP1 PUSH2 0x4304 JUMP JUMPDEST PUSH1 0x0 DUP4 DUP2 MSTORE PUSH1 0x20 DUP2 DUP2 MSTORE PUSH1 0x40 DUP1 DUP4 KECCAK256 PUSH1 0x1 PUSH1 0x1 PUSH1 0xA0 SHL SUB DUP15 DUP2 AND DUP6 MSTORE SWAP3 MSTORE DUP1 DUP4 KECCAK256 DUP6 DUP6 SUB SWAP1 SSTORE SWAP1 DUP12 AND DUP3 MSTORE DUP2 KECCAK256 DUP1 SLOAD DUP5 SWAP3 SWAP1 PUSH2 0x2D97 SWAP1 DUP5 SWAP1 PUSH2 0x3A5D JUMP JUMPDEST SWAP3 POP POP DUP2 SWAP1 SSTORE POP POP POP POP DUP1 PUSH2 0x2DAB SWAP1 PUSH2 0x41F6 JUMP JUMPDEST SWAP1 POP PUSH2 0x2CCF JUMP JUMPDEST POP DUP5 PUSH1 0x1 PUSH1 0x1 PUSH1 0xA0 SHL SUB AND DUP7 PUSH1 0x1 PUSH1 0x1 PUSH1 0xA0 SHL SUB AND DUP3 PUSH1 0x1 PUSH1 0x1 PUSH1 0xA0 SHL SUB AND PUSH32 0x4A39DC06D4C0DBC64B70AF90FD698A233A518AA5D07E595D983B8C0526C8F7FB DUP8 DUP8 PUSH1 0x40 MLOAD PUSH2 0x2E02 SWAP3 SWAP2 SWAP1 PUSH2 0x434E JUMP JUMPDEST PUSH1 0x40 MLOAD DUP1 SWAP2 SUB SWAP1 LOG4 PUSH2 0x2E18 DUP2 DUP8 DUP8 DUP8 DUP8 DUP8 PUSH2 0x3877 JUMP JUMPDEST POP POP POP POP POP POP JUMP JUMPDEST PUSH1 0x60 DUP2 PUSH2 0x2E44 JUMPI POP POP PUSH1 0x40 DUP1 MLOAD DUP1 DUP3 ADD SWAP1 SWAP2 MSTORE PUSH1 0x1 DUP2 MSTORE PUSH1 0x3 PUSH1 0xFC SHL PUSH1 0x20 DUP3 ADD MSTORE SWAP1 JUMP JUMPDEST DUP2 PUSH1 0x0 JUMPDEST DUP2 ISZERO PUSH2 0x2E6E JUMPI DUP1 PUSH2 0x2E58 DUP2 PUSH2 0x41F6 JUMP JUMPDEST SWAP2 POP PUSH2 0x2E67 SWAP1 POP PUSH1 0xA DUP4 PUSH2 0x41CC JUMP JUMPDEST SWAP2 POP PUSH2 0x2E48 JUMP JUMPDEST PUSH1 0x0 DUP2 PUSH8 0xFFFFFFFFFFFFFFFF DUP2 GT ISZERO PUSH2 0x2E89 JUMPI PUSH2 0x2E89 PUSH2 0x3BEE JUMP JUMPDEST PUSH1 0x40 MLOAD SWAP1 DUP1 DUP3 MSTORE DUP1 PUSH1 0x1F ADD PUSH1 0x1F NOT AND PUSH1 0x20 ADD DUP3 ADD PUSH1 0x40 MSTORE DUP1 ISZERO PUSH2 0x2EB3 JUMPI PUSH1 0x20 DUP3 ADD DUP2 DUP1 CALLDATASIZE DUP4 CALLDATACOPY ADD SWAP1 POP JUMPDEST POP SWAP1 POP JUMPDEST DUP5 ISZERO PUSH2 0xCC3 JUMPI PUSH2 0x2EC8 PUSH1 0x1 DUP4 PUSH2 0x4180 JUMP JUMPDEST SWAP2 POP PUSH2 0x2ED5 PUSH1 0xA DUP7 PUSH2 0x42AB JUMP JUMPDEST PUSH2 0x2EE0 SWAP1 PUSH1 0x30 PUSH2 0x3A5D JUMP JUMPDEST PUSH1 0xF8 SHL DUP2 DUP4 DUP2 MLOAD DUP2 LT PUSH2 0x2EF5 JUMPI PUSH2 0x2EF5 PUSH2 0x41E0 JUMP JUMPDEST PUSH1 0x20 ADD ADD SWAP1 PUSH1 0x1 PUSH1 0x1 PUSH1 0xF8 SHL SUB NOT AND SWAP1 DUP2 PUSH1 0x0 BYTE SWAP1 MSTORE8 POP PUSH2 0x2F17 PUSH1 0xA DUP7 PUSH2 0x41CC JUMP JUMPDEST SWAP5 POP PUSH2 0x2EB7 JUMP JUMPDEST PUSH1 0x3 DUP1 SLOAD PUSH1 0x1 PUSH1 0x1 PUSH1 0xA0 SHL SUB DUP4 DUP2 AND PUSH2 0x100 DUP2 DUP2 MUL PUSH2 0x100 PUSH1 0x1 PUSH1 0xA8 SHL SUB NOT DUP6 AND OR SWAP1 SWAP5 SSTORE PUSH1 0x40 MLOAD SWAP4 SWAP1 SWAP3 DIV AND SWAP2 DUP3 SWAP1 PUSH32 0x8BE0079C531659141344CD1FD0A4F28419497F9722A3DAAFE3B4186F6B6457E0 SWAP1 PUSH1 0x0 SWAP1 LOG3 POP POP JUMP JUMPDEST PUSH1 0x0 DUP2 GT PUSH2 0x2FC8 JUMPI PUSH1 0x40 MLOAD PUSH3 0x461BCD PUSH1 0xE5 SHL DUP2 MSTORE PUSH1 0x20 PUSH1 0x4 DUP3 ADD MSTORE PUSH1 0x1A PUSH1 0x24 DUP3 ADD MSTORE PUSH32 0x72616E646F6D206E756D626572206973206E6F742076616C6964000000000000 PUSH1 0x44 DUP3 ADD MSTORE PUSH1 0x64 ADD PUSH2 0xC35 JUMP JUMPDEST PUSH1 0xE SLOAD PUSH2 0x2FD7 PUSH1 0x10 SLOAD TIMESTAMP PUSH2 0x31EA JUMP JUMPDEST LT ISZERO PUSH2 0x2FF5 JUMPI PUSH1 0x40 MLOAD PUSH3 0x461BCD PUSH1 0xE5 SHL DUP2 MSTORE PUSH1 0x4 ADD PUSH2 0xC35 SWAP1 PUSH2 0x4211 JUMP JUMPDEST TIMESTAMP PUSH1 0x10 SSTORE PUSH1 0xD SLOAD PUSH1 0x0 SWAP1 PUSH2 0x3009 SWAP1 DUP4 PUSH2 0x42AB JUMP JUMPDEST SWAP1 POP PUSH1 0x1C PUSH1 0x0 PUSH1 0xD DUP4 DUP2 SLOAD DUP2 LT PUSH2 0x3022 JUMPI PUSH2 0x3022 PUSH2 0x41E0 JUMP JUMPDEST PUSH1 0x0 SWAP2 DUP3 MSTORE PUSH1 0x20 DUP1 DUP4 KECCAK256 SWAP1 SWAP2 ADD SLOAD PUSH1 0x1 PUSH1 0x1 PUSH1 0xA0 SHL SUB AND DUP4 MSTORE DUP3 ADD SWAP3 SWAP1 SWAP3 MSTORE PUSH1 0x40 ADD SWAP1 KECCAK256 SLOAD PUSH2 0x3052 SWAP1 PUSH1 0x1 PUSH2 0x3A5D JUMP JUMPDEST PUSH1 0x1C PUSH1 0x0 PUSH1 0xD DUP5 DUP2 SLOAD DUP2 LT PUSH2 0x3069 JUMPI PUSH2 0x3069 PUSH2 0x41E0 JUMP JUMPDEST PUSH1 0x0 SWAP2 DUP3 MSTORE PUSH1 0x20 DUP1 DUP4 KECCAK256 SWAP1 SWAP2 ADD SLOAD PUSH1 0x1 PUSH1 0x1 PUSH1 0xA0 SHL SUB AND DUP4 MSTORE DUP3 ADD SWAP3 SWAP1 SWAP3 MSTORE PUSH1 0x40 ADD SWAP1 KECCAK256 SSTORE PUSH1 0xD DUP1 SLOAD DUP3 SWAP1 DUP2 LT PUSH2 0x30A2 JUMPI PUSH2 0x30A2 PUSH2 0x41E0 JUMP JUMPDEST PUSH1 0x0 SWAP2 DUP3 MSTORE PUSH1 0x20 SWAP2 DUP3 SWAP1 KECCAK256 ADD SLOAD PUSH1 0x40 MLOAD DUP5 DUP2 MSTORE PUSH1 0x1 PUSH1 0x1 PUSH1 0xA0 SHL SUB SWAP1 SWAP2 AND SWAP2 PUSH32 0xF101ADF3FBAF187819A99E49DD82FDBACC051E51337A2FE291907F90C263C1E2 SWAP2 ADD PUSH1 0x40 MLOAD DUP1 SWAP2 SUB SWAP1 LOG2 PUSH1 0x40 DUP1 MLOAD PUSH1 0x0 DUP2 MSTORE PUSH1 0x20 DUP2 ADD SWAP2 DUP3 SWAP1 MSTORE MLOAD PUSH2 0x1FDB SWAP2 PUSH1 0xD SWAP2 PUSH2 0x39DD JUMP JUMPDEST DUP2 PUSH1 0x1 PUSH1 0x1 PUSH1 0xA0 SHL SUB AND DUP4 PUSH1 0x1 PUSH1 0x1 PUSH1 0xA0 SHL SUB AND EQ ISZERO PUSH2 0x317D JUMPI PUSH1 0x40 MLOAD PUSH3 0x461BCD PUSH1 0xE5 SHL DUP2 MSTORE PUSH1 0x20 PUSH1 0x4 DUP3 ADD MSTORE PUSH1 0x29 PUSH1 0x24 DUP3 ADD MSTORE PUSH32 0x455243313135353A2073657474696E6720617070726F76616C20737461747573 PUSH1 0x44 DUP3 ADD MSTORE PUSH9 0x103337B91039B2B633 PUSH1 0xB9 SHL PUSH1 0x64 DUP3 ADD MSTORE PUSH1 0x84 ADD PUSH2 0xC35 JUMP JUMPDEST PUSH1 0x1 PUSH1 0x1 PUSH1 0xA0 SHL SUB DUP4 DUP2 AND PUSH1 0x0 DUP2 DUP2 MSTORE PUSH1 0x1 PUSH1 0x20 SWAP1 DUP2 MSTORE PUSH1 0x40 DUP1 DUP4 KECCAK256 SWAP5 DUP8 AND DUP1 DUP5 MSTORE SWAP5 DUP3 MSTORE SWAP2 DUP3 SWAP1 KECCAK256 DUP1 SLOAD PUSH1 0xFF NOT AND DUP7 ISZERO ISZERO SWAP1 DUP2 OR SWAP1 SWAP2 SSTORE SWAP2 MLOAD SWAP2 DUP3 MSTORE PUSH32 0x17307EAB39AB6107E8899845AD3D59BD9653F200F220920489CA2B5937696C31 SWAP2 ADD PUSH1 0x40 MLOAD DUP1 SWAP2 SUB SWAP1 LOG3 POP POP POP JUMP JUMPDEST PUSH1 0x0 DUP2 DUP4 GT ISZERO PUSH2 0x31F9 JUMPI PUSH1 0x0 DUP1 REVERT JUMPDEST PUSH3 0x15180 PUSH2 0x3207 DUP5 DUP5 PUSH2 0x4180 JUMP JUMPDEST PUSH2 0x3211 SWAP2 SWAP1 PUSH2 0x41CC JUMP JUMPDEST SWAP4 SWAP3 POP POP POP JUMP JUMPDEST PUSH1 0x0 PUSH32 0x0 PUSH1 0x1 PUSH1 0x1 PUSH1 0xA0 SHL SUB AND PUSH4 0x4000AEA0 PUSH32 0x0 DUP5 DUP7 PUSH1 0x0 PUSH1 0x40 MLOAD PUSH1 0x20 ADD PUSH2 0x3288 SWAP3 SWAP2 SWAP1 SWAP2 DUP3 MSTORE PUSH1 0x20 DUP3 ADD MSTORE PUSH1 0x40 ADD SWAP1 JUMP JUMPDEST PUSH1 0x40 MLOAD PUSH1 0x20 DUP2 DUP4 SUB SUB DUP2 MSTORE SWAP1 PUSH1 0x40 MSTORE PUSH1 0x40 MLOAD DUP5 PUSH4 0xFFFFFFFF AND PUSH1 0xE0 SHL DUP2 MSTORE PUSH1 0x4 ADD PUSH2 0x32B5 SWAP4 SWAP3 SWAP2 SWAP1 PUSH2 0x437C JUMP JUMPDEST PUSH1 0x20 PUSH1 0x40 MLOAD DUP1 DUP4 SUB DUP2 PUSH1 0x0 DUP8 GAS CALL ISZERO DUP1 ISZERO PUSH2 0x32D4 JUMPI RETURNDATASIZE PUSH1 0x0 DUP1 RETURNDATACOPY RETURNDATASIZE PUSH1 0x0 REVERT JUMPDEST POP POP POP POP PUSH1 0x40 MLOAD RETURNDATASIZE PUSH1 0x1F NOT PUSH1 0x1F DUP3 ADD AND DUP3 ADD DUP1 PUSH1 0x40 MSTORE POP DUP2 ADD SWAP1 PUSH2 0x32F8 SWAP2 SWAP1 PUSH2 0x43A3 JUMP JUMPDEST POP PUSH1 0x0 DUP4 DUP2 MSTORE PUSH1 0x4 PUSH1 0x20 DUP2 DUP2 MSTORE PUSH1 0x40 DUP1 DUP5 KECCAK256 SLOAD DUP2 MLOAD DUP1 DUP5 ADD DUP10 SWAP1 MSTORE DUP1 DUP4 ADD DUP7 SWAP1 MSTORE ADDRESS PUSH1 0x60 DUP3 ADD MSTORE PUSH1 0x80 DUP1 DUP3 ADD DUP4 SWAP1 MSTORE DUP4 MLOAD DUP1 DUP4 SUB SWAP1 SWAP2 ADD DUP2 MSTORE PUSH1 0xA0 SWAP1 SWAP2 ADD SWAP1 SWAP3 MSTORE DUP2 MLOAD SWAP2 DUP4 ADD SWAP2 SWAP1 SWAP2 KECCAK256 SWAP4 DUP8 SWAP1 MSTORE SWAP2 SWAP1 MSTORE PUSH2 0x3354 SWAP1 PUSH1 0x1 PUSH2 0x3A5D JUMP JUMPDEST PUSH1 0x0 DUP6 DUP2 MSTORE PUSH1 0x4 PUSH1 0x20 MSTORE PUSH1 0x40 SWAP1 KECCAK256 SSTORE PUSH2 0xCC3 DUP5 DUP3 PUSH1 0x40 DUP1 MLOAD PUSH1 0x20 DUP1 DUP3 ADD SWAP5 SWAP1 SWAP5 MSTORE DUP1 DUP3 ADD SWAP3 SWAP1 SWAP3 MSTORE DUP1 MLOAD DUP1 DUP4 SUB DUP3 ADD DUP2 MSTORE PUSH1 0x60 SWAP1 SWAP3 ADD SWAP1 MSTORE DUP1 MLOAD SWAP2 ADD KECCAK256 SWAP1 JUMP JUMPDEST PUSH1 0x1 PUSH1 0x1 PUSH1 0xA0 SHL SUB DUP5 AND PUSH2 0x33BA JUMPI PUSH1 0x40 MLOAD PUSH3 0x461BCD PUSH1 0xE5 SHL DUP2 MSTORE PUSH1 0x4 ADD PUSH2 0xC35 SWAP1 PUSH2 0x42BF JUMP JUMPDEST CALLER PUSH2 0x33CA DUP2 DUP8 DUP8 PUSH2 0x2AFE DUP9 PUSH2 0x3668 JUMP JUMPDEST PUSH1 0x0 DUP5 DUP2 MSTORE PUSH1 0x20 DUP2 DUP2 MSTORE PUSH1 0x40 DUP1 DUP4 KECCAK256 PUSH1 0x1 PUSH1 0x1 PUSH1 0xA0 SHL SUB DUP11 AND DUP5 MSTORE SWAP1 SWAP2 MSTORE SWAP1 KECCAK256 SLOAD DUP4 DUP2 LT ISZERO PUSH2 0x340B JUMPI PUSH1 0x40 MLOAD PUSH3 0x461BCD PUSH1 0xE5 SHL DUP2 MSTORE PUSH1 0x4 ADD PUSH2 0xC35 SWAP1 PUSH2 0x4304 JUMP JUMPDEST PUSH1 0x0 DUP6 DUP2 MSTORE PUSH1 0x20 DUP2 DUP2 MSTORE PUSH1 0x40 DUP1 DUP4 KECCAK256 PUSH1 0x1 PUSH1 0x1 PUSH1 0xA0 SHL SUB DUP12 DUP2 AND DUP6 MSTORE SWAP3 MSTORE DUP1 DUP4 KECCAK256 DUP8 DUP6 SUB SWAP1 SSTORE SWAP1 DUP9 AND DUP3 MSTORE DUP2 KECCAK256 DUP1 SLOAD DUP7 SWAP3 SWAP1 PUSH2 0x3448 SWAP1 DUP5 SWAP1 PUSH2 0x3A5D JUMP JUMPDEST SWAP1 SWAP2 SSTORE POP POP PUSH1 0x40 DUP1 MLOAD DUP7 DUP2 MSTORE PUSH1 0x20 DUP2 ADD DUP7 SWAP1 MSTORE PUSH1 0x1 PUSH1 0x1 PUSH1 0xA0 SHL SUB DUP1 DUP10 AND SWAP3 DUP11 DUP3 AND SWAP3 SWAP2 DUP7 AND SWAP2 PUSH32 0xC3D58168C5AE7397731D063D5BBF3D657854427343F4C083240F7AACAA2D0F62 SWAP2 ADD PUSH1 0x40 MLOAD DUP1 SWAP2 SUB SWAP1 LOG4 PUSH2 0x34A8 DUP3 DUP9 DUP9 DUP9 DUP9 DUP9 PUSH2 0x371B JUMP JUMPDEST POP POP POP POP POP POP POP JUMP JUMPDEST PUSH1 0x3 SLOAD PUSH1 0xFF AND PUSH2 0x34FA JUMPI PUSH1 0x40 MLOAD PUSH3 0x461BCD PUSH1 0xE5 SHL DUP2 MSTORE PUSH1 0x20 PUSH1 0x4 DUP3 ADD MSTORE PUSH1 0x14 PUSH1 0x24 DUP3 ADD MSTORE PUSH20 0x14185D5CD8589B194E881B9BDD081C185D5CD959 PUSH1 0x62 SHL PUSH1 0x44 DUP3 ADD MSTORE PUSH1 0x64 ADD PUSH2 0xC35 JUMP JUMPDEST PUSH1 0x3 DUP1 SLOAD PUSH1 0xFF NOT AND SWAP1 SSTORE PUSH32 0x5DB9EE0A495BF2E6FF9C91A7834C1BA4FDD244A5E8AA4E537BD38AEAE4B073AA CALLER PUSH2 0x28DE JUMP JUMPDEST PUSH1 0x0 PUSH2 0x7B2 DUP5 LT ISZERO PUSH2 0x353C JUMPI PUSH1 0x0 DUP1 REVERT JUMPDEST DUP4 DUP4 DUP4 PUSH1 0x0 PUSH3 0x253D8C PUSH1 0x4 PUSH1 0x64 PUSH1 0xC PUSH2 0x3556 PUSH1 0xE DUP9 PUSH2 0x43C0 JUMP JUMPDEST PUSH2 0x3560 SWAP2 SWAP1 PUSH2 0x43FF JUMP JUMPDEST PUSH2 0x356C DUP9 PUSH2 0x1324 PUSH2 0x442D JUMP JUMPDEST PUSH2 0x3576 SWAP2 SWAP1 PUSH2 0x442D JUMP JUMPDEST PUSH2 0x3580 SWAP2 SWAP1 PUSH2 0x43FF JUMP JUMPDEST PUSH2 0x358B SWAP1 PUSH1 0x3 PUSH2 0x446E JUMP JUMPDEST PUSH2 0x3595 SWAP2 SWAP1 PUSH2 0x43FF JUMP JUMPDEST PUSH1 0xC DUP1 PUSH2 0x35A3 PUSH1 0xE DUP9 PUSH2 0x43C0 JUMP JUMPDEST PUSH2 0x35AD SWAP2 SWAP1 PUSH2 0x43FF JUMP JUMPDEST PUSH2 0x35B8 SWAP1 PUSH1 0xC PUSH2 0x446E JUMP JUMPDEST PUSH2 0x35C3 PUSH1 0x2 DUP9 PUSH2 0x43C0 JUMP JUMPDEST PUSH2 0x35CD SWAP2 SWAP1 PUSH2 0x43C0 JUMP JUMPDEST PUSH2 0x35D9 SWAP1 PUSH2 0x16F PUSH2 0x446E JUMP JUMPDEST PUSH2 0x35E3 SWAP2 SWAP1 PUSH2 0x43FF JUMP JUMPDEST PUSH1 0x4 PUSH1 0xC PUSH2 0x35F2 PUSH1 0xE DUP10 PUSH2 0x43C0 JUMP JUMPDEST PUSH2 0x35FC SWAP2 SWAP1 PUSH2 0x43FF JUMP JUMPDEST PUSH2 0x3608 DUP10 PUSH2 0x12C0 PUSH2 0x442D JUMP JUMPDEST PUSH2 0x3612 SWAP2 SWAP1 PUSH2 0x442D JUMP JUMPDEST PUSH2 0x361E SWAP1 PUSH2 0x5B5 PUSH2 0x446E JUMP JUMPDEST PUSH2 0x3628 SWAP2 SWAP1 PUSH2 0x43FF JUMP JUMPDEST PUSH2 0x3634 PUSH2 0x7D4B DUP8 PUSH2 0x43C0 JUMP JUMPDEST PUSH2 0x363E SWAP2 SWAP1 PUSH2 0x442D JUMP JUMPDEST PUSH2 0x3648 SWAP2 SWAP1 PUSH2 0x442D JUMP JUMPDEST PUSH2 0x3652 SWAP2 SWAP1 PUSH2 0x43C0 JUMP JUMPDEST PUSH2 0x365C SWAP2 SWAP1 PUSH2 0x43C0 JUMP JUMPDEST SWAP9 SWAP8 POP POP POP POP POP POP POP POP JUMP JUMPDEST PUSH1 0x40 DUP1 MLOAD PUSH1 0x1 DUP1 DUP3 MSTORE DUP2 DUP4 ADD SWAP1 SWAP3 MSTORE PUSH1 0x60 SWAP2 PUSH1 0x0 SWAP2 SWAP1 PUSH1 0x20 DUP1 DUP4 ADD SWAP1 DUP1 CALLDATASIZE DUP4 CALLDATACOPY ADD SWAP1 POP POP SWAP1 POP DUP3 DUP2 PUSH1 0x0 DUP2 MLOAD DUP2 LT PUSH2 0x36A2 JUMPI PUSH2 0x36A2 PUSH2 0x41E0 JUMP JUMPDEST PUSH1 0x20 SWAP1 DUP2 MUL SWAP2 SWAP1 SWAP2 ADD ADD MSTORE SWAP3 SWAP2 POP POP JUMP JUMPDEST PUSH1 0x3 SLOAD PUSH1 0xFF AND ISZERO PUSH2 0x2E18 JUMPI PUSH1 0x40 MLOAD PUSH3 0x461BCD PUSH1 0xE5 SHL DUP2 MSTORE PUSH1 0x20 PUSH1 0x4 DUP3 ADD MSTORE PUSH1 0x2C PUSH1 0x24 DUP3 ADD MSTORE PUSH32 0x455243313135355061757361626C653A20746F6B656E207472616E7366657220 PUSH1 0x44 DUP3 ADD MSTORE PUSH12 0x1DDA1A5B19481C185D5CD959 PUSH1 0xA2 SHL PUSH1 0x64 DUP3 ADD MSTORE PUSH1 0x84 ADD PUSH2 0xC35 JUMP JUMPDEST PUSH1 0x1 PUSH1 0x1 PUSH1 0xA0 SHL SUB DUP5 AND EXTCODESIZE ISZERO PUSH2 0x2E18 JUMPI PUSH1 0x40 MLOAD PUSH4 0xF23A6E61 PUSH1 0xE0 SHL DUP2 MSTORE PUSH1 0x1 PUSH1 0x1 PUSH1 0xA0 SHL SUB DUP6 AND SWAP1 PUSH4 0xF23A6E61 SWAP1 PUSH2 0x375F SWAP1 DUP10 SWAP1 DUP10 SWAP1 DUP9 SWAP1 DUP9 SWAP1 DUP9 SWAP1 PUSH1 0x4 ADD PUSH2 0x44F3 JUMP JUMPDEST PUSH1 0x20 PUSH1 0x40 MLOAD DUP1 DUP4 SUB DUP2 PUSH1 0x0 DUP8 GAS CALL SWAP3 POP POP POP DUP1 ISZERO PUSH2 0x379A JUMPI POP PUSH1 0x40 DUP1 MLOAD PUSH1 0x1F RETURNDATASIZE SWAP1 DUP2 ADD PUSH1 0x1F NOT AND DUP3 ADD SWAP1 SWAP3 MSTORE PUSH2 0x3797 SWAP2 DUP2 ADD SWAP1 PUSH2 0x4538 JUMP JUMPDEST PUSH1 0x1 JUMPDEST PUSH2 0x3847 JUMPI PUSH2 0x37A6 PUSH2 0x4555 JUMP JUMPDEST DUP1 PUSH4 0x8C379A0 EQ ISZERO PUSH2 0x37E0 JUMPI POP PUSH2 0x37BB PUSH2 0x4571 JUMP JUMPDEST DUP1 PUSH2 0x37C6 JUMPI POP PUSH2 0x37E2 JUMP JUMPDEST DUP1 PUSH1 0x40 MLOAD PUSH3 0x461BCD PUSH1 0xE5 SHL DUP2 MSTORE PUSH1 0x4 ADD PUSH2 0xC35 SWAP2 SWAP1 PUSH2 0x3B7B JUMP JUMPDEST POP JUMPDEST PUSH1 0x40 MLOAD PUSH3 0x461BCD PUSH1 0xE5 SHL DUP2 MSTORE PUSH1 0x20 PUSH1 0x4 DUP3 ADD MSTORE PUSH1 0x34 PUSH1 0x24 DUP3 ADD MSTORE PUSH32 0x455243313135353A207472616E7366657220746F206E6F6E2045524331313535 PUSH1 0x44 DUP3 ADD MSTORE PUSH20 0x2932B1B2B4BB32B91034B6B83632B6B2B73A32B9 PUSH1 0x61 SHL PUSH1 0x64 DUP3 ADD MSTORE PUSH1 0x84 ADD PUSH2 0xC35 JUMP JUMPDEST PUSH1 0x1 PUSH1 0x1 PUSH1 0xE0 SHL SUB NOT DUP2 AND PUSH4 0xF23A6E61 PUSH1 0xE0 SHL EQ PUSH2 0x34A8 JUMPI PUSH1 0x40 MLOAD PUSH3 0x461BCD PUSH1 0xE5 SHL DUP2 MSTORE PUSH1 0x4 ADD PUSH2 0xC35 SWAP1 PUSH2 0x45FB JUMP JUMPDEST PUSH1 0x1 PUSH1 0x1 PUSH1 0xA0 SHL SUB DUP5 AND EXTCODESIZE ISZERO PUSH2 0x2E18 JUMPI PUSH1 0x40 MLOAD PUSH4 0xBC197C81 PUSH1 0xE0 SHL DUP2 MSTORE PUSH1 0x1 PUSH1 0x1 PUSH1 0xA0 SHL SUB DUP6 AND SWAP1 PUSH4 0xBC197C81 SWAP1 PUSH2 0x38BB SWAP1 DUP10 SWAP1 DUP10 SWAP1 DUP9 SWAP1 DUP9 SWAP1 DUP9 SWAP1 PUSH1 0x4 ADD PUSH2 0x4643 JUMP JUMPDEST PUSH1 0x20 PUSH1 0x40 MLOAD DUP1 DUP4 SUB DUP2 PUSH1 0x0 DUP8 GAS CALL SWAP3 POP POP POP DUP1 ISZERO PUSH2 0x38F6 JUMPI POP PUSH1 0x40 DUP1 MLOAD PUSH1 0x1F RETURNDATASIZE SWAP1 DUP2 ADD PUSH1 0x1F NOT AND DUP3 ADD SWAP1 SWAP3 MSTORE PUSH2 0x38F3 SWAP2 DUP2 ADD SWAP1 PUSH2 0x4538 JUMP JUMPDEST PUSH1 0x1 JUMPDEST PUSH2 0x3902 JUMPI PUSH2 0x37A6 PUSH2 0x4555 JUMP JUMPDEST PUSH1 0x1 PUSH1 0x1 PUSH1 0xE0 SHL SUB NOT DUP2 AND PUSH4 0xBC197C81 PUSH1 0xE0 SHL EQ PUSH2 0x34A8 JUMPI PUSH1 0x40 MLOAD PUSH3 0x461BCD PUSH1 0xE5 SHL DUP2 MSTORE PUSH1 0x4 ADD PUSH2 0xC35 SWAP1 PUSH2 0x45FB JUMP JUMPDEST PUSH1 0x40 MLOAD DUP1 PUSH1 0x60 ADD PUSH1 0x40 MSTORE DUP1 PUSH1 0x3 SWAP1 JUMPDEST PUSH1 0x60 DUP2 MSTORE PUSH1 0x20 ADD SWAP1 PUSH1 0x1 SWAP1 SUB SWAP1 DUP2 PUSH2 0x3941 JUMPI SWAP1 POP POP SWAP1 JUMP JUMPDEST DUP3 DUP1 SLOAD PUSH2 0x3965 SWAP1 PUSH2 0x40E6 JUMP JUMPDEST SWAP1 PUSH1 0x0 MSTORE PUSH1 0x20 PUSH1 0x0 KECCAK256 SWAP1 PUSH1 0x1F ADD PUSH1 0x20 SWAP1 DIV DUP2 ADD SWAP3 DUP3 PUSH2 0x3987 JUMPI PUSH1 0x0 DUP6 SSTORE PUSH2 0x39CD JUMP JUMPDEST DUP3 PUSH1 0x1F LT PUSH2 0x39A0 JUMPI DUP1 MLOAD PUSH1 0xFF NOT AND DUP4 DUP1 ADD OR DUP6 SSTORE PUSH2 0x39CD JUMP JUMPDEST DUP3 DUP1 ADD PUSH1 0x1 ADD DUP6 SSTORE DUP3 ISZERO PUSH2 0x39CD JUMPI SWAP2 DUP3 ADD JUMPDEST DUP3 DUP2 GT ISZERO PUSH2 0x39CD JUMPI DUP3 MLOAD DUP3 SSTORE SWAP2 PUSH1 0x20 ADD SWAP2 SWAP1 PUSH1 0x1 ADD SWAP1 PUSH2 0x39B2 JUMP JUMPDEST POP PUSH2 0x39D9 SWAP3 SWAP2 POP PUSH2 0x3A32 JUMP JUMPDEST POP SWAP1 JUMP JUMPDEST DUP3 DUP1 SLOAD DUP3 DUP3 SSTORE SWAP1 PUSH1 0x0 MSTORE PUSH1 0x20 PUSH1 0x0 KECCAK256 SWAP1 DUP2 ADD SWAP3 DUP3 ISZERO PUSH2 0x39CD JUMPI SWAP2 PUSH1 0x20 MUL DUP3 ADD JUMPDEST DUP3 DUP2 GT ISZERO PUSH2 0x39CD JUMPI DUP3 MLOAD DUP3 SLOAD PUSH1 0x1 PUSH1 0x1 PUSH1 0xA0 SHL SUB NOT AND PUSH1 0x1 PUSH1 0x1 PUSH1 0xA0 SHL SUB SWAP1 SWAP2 AND OR DUP3 SSTORE PUSH1 0x20 SWAP1 SWAP3 ADD SWAP2 PUSH1 0x1 SWAP1 SWAP2 ADD SWAP1 PUSH2 0x39FD JUMP JUMPDEST JUMPDEST DUP1 DUP3 GT ISZERO PUSH2 0x39D9 JUMPI PUSH1 0x0 DUP2 SSTORE PUSH1 0x1 ADD PUSH2 0x3A33 JUMP JUMPDEST PUSH4 0x4E487B71 PUSH1 0xE0 SHL PUSH1 0x0 MSTORE PUSH1 0x11 PUSH1 0x4 MSTORE PUSH1 0x24 PUSH1 0x0 REVERT JUMPDEST PUSH1 0x0 DUP3 NOT DUP3 GT ISZERO PUSH2 0x3A70 JUMPI PUSH2 0x3A70 PUSH2 0x3A47 JUMP JUMPDEST POP ADD SWAP1 JUMP JUMPDEST DUP1 CALLDATALOAD PUSH1 0x1 PUSH1 0x1 PUSH1 0xA0 SHL SUB DUP2 AND DUP2 EQ PUSH2 0x164F JUMPI PUSH1 0x0 DUP1 REVERT JUMPDEST PUSH1 0x0 DUP1 PUSH1 0x40 DUP4 DUP6 SUB SLT ISZERO PUSH2 0x3A9F JUMPI PUSH1 0x0 DUP1 REVERT JUMPDEST PUSH2 0x3AA8 DUP4 PUSH2 0x3A75 JUMP JUMPDEST SWAP5 PUSH1 0x20 SWAP4 SWAP1 SWAP4 ADD CALLDATALOAD SWAP4 POP POP POP JUMP JUMPDEST PUSH1 0x1 PUSH1 0x1 PUSH1 0xE0 SHL SUB NOT DUP2 AND DUP2 EQ PUSH2 0x26A6 JUMPI PUSH1 0x0 DUP1 REVERT JUMPDEST PUSH1 0x0 PUSH1 0x20 DUP3 DUP5 SUB SLT ISZERO PUSH2 0x3ADE JUMPI PUSH1 0x0 DUP1 REVERT JUMPDEST DUP2 CALLDATALOAD PUSH2 0x3211 DUP2 PUSH2 0x3AB6 JUMP JUMPDEST PUSH1 0x0 DUP1 PUSH1 0x0 PUSH1 0x60 DUP5 DUP7 SUB SLT ISZERO PUSH2 0x3AFE JUMPI PUSH1 0x0 DUP1 REVERT JUMPDEST POP POP DUP2 CALLDATALOAD SWAP4 PUSH1 0x20 DUP4 ADD CALLDATALOAD SWAP4 POP PUSH1 0x40 SWAP1 SWAP3 ADD CALLDATALOAD SWAP2 SWAP1 POP JUMP JUMPDEST PUSH1 0x0 PUSH1 0x20 DUP3 DUP5 SUB SLT ISZERO PUSH2 0x3B27 JUMPI PUSH1 0x0 DUP1 REVERT JUMPDEST POP CALLDATALOAD SWAP2 SWAP1 POP JUMP JUMPDEST PUSH1 0x0 DUP2 MLOAD DUP1 DUP5 MSTORE PUSH1 0x0 JUMPDEST DUP2 DUP2 LT ISZERO PUSH2 0x3B54 JUMPI PUSH1 0x20 DUP2 DUP6 ADD DUP2 ADD MLOAD DUP7 DUP4 ADD DUP3 ADD MSTORE ADD PUSH2 0x3B38 JUMP JUMPDEST DUP2 DUP2 GT ISZERO PUSH2 0x3B66 JUMPI PUSH1 0x0 PUSH1 0x20 DUP4 DUP8 ADD ADD MSTORE JUMPDEST POP PUSH1 0x1F ADD PUSH1 0x1F NOT AND SWAP3 SWAP1 SWAP3 ADD PUSH1 0x20 ADD SWAP3 SWAP2 POP POP JUMP JUMPDEST PUSH1 0x20 DUP2 MSTORE PUSH1 0x0 PUSH2 0x3211 PUSH1 0x20 DUP4 ADD DUP5 PUSH2 0x3B2E JUMP JUMPDEST PUSH1 0x0 PUSH1 0x20 DUP3 DUP5 SUB SLT ISZERO PUSH2 0x3BA0 JUMPI PUSH1 0x0 DUP1 REVERT JUMPDEST PUSH2 0x3211 DUP3 PUSH2 0x3A75 JUMP JUMPDEST DUP1 ISZERO ISZERO DUP2 EQ PUSH2 0x26A6 JUMPI PUSH1 0x0 DUP1 REVERT JUMPDEST PUSH1 0x0 DUP1 PUSH1 0x40 DUP4 DUP6 SUB SLT ISZERO PUSH2 0x3BCA JUMPI PUSH1 0x0 DUP1 REVERT JUMPDEST PUSH2 0x3BD3 DUP4 PUSH2 0x3A75 JUMP JUMPDEST SWAP2 POP PUSH1 0x20 DUP4 ADD CALLDATALOAD PUSH2 0x3BE3 DUP2 PUSH2 0x3BA9 JUMP JUMPDEST DUP1 SWAP2 POP POP SWAP3 POP SWAP3 SWAP1 POP JUMP JUMPDEST PUSH4 0x4E487B71 PUSH1 0xE0 SHL PUSH1 0x0 MSTORE PUSH1 0x41 PUSH1 0x4 MSTORE PUSH1 0x24 PUSH1 0x0 REVERT JUMPDEST PUSH1 0x1F DUP3 ADD PUSH1 0x1F NOT AND DUP2 ADD PUSH8 0xFFFFFFFFFFFFFFFF DUP2 GT DUP3 DUP3 LT OR ISZERO PUSH2 0x3C2A JUMPI PUSH2 0x3C2A PUSH2 0x3BEE JUMP JUMPDEST PUSH1 0x40 MSTORE POP POP JUMP JUMPDEST PUSH1 0x0 PUSH8 0xFFFFFFFFFFFFFFFF DUP3 GT ISZERO PUSH2 0x3C4B JUMPI PUSH2 0x3C4B PUSH2 0x3BEE JUMP JUMPDEST POP PUSH1 0x5 SHL PUSH1 0x20 ADD SWAP1 JUMP JUMPDEST PUSH1 0x0 DUP3 PUSH1 0x1F DUP4 ADD SLT PUSH2 0x3C66 JUMPI PUSH1 0x0 DUP1 REVERT JUMPDEST DUP2 CALLDATALOAD PUSH1 0x20 PUSH2 0x3C73 DUP3 PUSH2 0x3C31 JUMP JUMPDEST PUSH1 0x40 MLOAD PUSH2 0x3C80 DUP3 DUP3 PUSH2 0x3C04 JUMP JUMPDEST DUP4 DUP2 MSTORE PUSH1 0x5 SWAP4 SWAP1 SWAP4 SHL DUP6 ADD DUP3 ADD SWAP3 DUP3 DUP2 ADD SWAP2 POP DUP7 DUP5 GT ISZERO PUSH2 0x3CA0 JUMPI PUSH1 0x0 DUP1 REVERT JUMPDEST DUP3 DUP7 ADD JUMPDEST DUP5 DUP2 LT ISZERO PUSH2 0x3CBB JUMPI DUP1 CALLDATALOAD DUP4 MSTORE SWAP2 DUP4 ADD SWAP2 DUP4 ADD PUSH2 0x3CA4 JUMP JUMPDEST POP SWAP7 SWAP6 POP POP POP POP POP POP JUMP JUMPDEST PUSH1 0x0 DUP3 PUSH1 0x1F DUP4 ADD SLT PUSH2 0x3CD7 JUMPI PUSH1 0x0 DUP1 REVERT JUMPDEST DUP2 CALLDATALOAD PUSH8 0xFFFFFFFFFFFFFFFF DUP2 GT ISZERO PUSH2 0x3CF1 JUMPI PUSH2 0x3CF1 PUSH2 0x3BEE JUMP JUMPDEST PUSH1 0x40 MLOAD PUSH2 0x3D08 PUSH1 0x1F DUP4 ADD PUSH1 0x1F NOT AND PUSH1 0x20 ADD DUP3 PUSH2 0x3C04 JUMP JUMPDEST DUP2 DUP2 MSTORE DUP5 PUSH1 0x20 DUP4 DUP7 ADD ADD GT ISZERO PUSH2 0x3D1D JUMPI PUSH1 0x0 DUP1 REVERT JUMPDEST DUP2 PUSH1 0x20 DUP6 ADD PUSH1 0x20 DUP4 ADD CALLDATACOPY PUSH1 0x0 SWAP2 DUP2 ADD PUSH1 0x20 ADD SWAP2 SWAP1 SWAP2 MSTORE SWAP4 SWAP3 POP POP POP JUMP JUMPDEST PUSH1 0x0 DUP1 PUSH1 0x0 DUP1 PUSH1 0x0 PUSH1 0xA0 DUP7 DUP9 SUB SLT ISZERO PUSH2 0x3D52 JUMPI PUSH1 0x0 DUP1 REVERT JUMPDEST PUSH2 0x3D5B DUP7 PUSH2 0x3A75 JUMP JUMPDEST SWAP5 POP PUSH2 0x3D69 PUSH1 0x20 DUP8 ADD PUSH2 0x3A75 JUMP JUMPDEST SWAP4 POP PUSH1 0x40 DUP7 ADD CALLDATALOAD PUSH8 0xFFFFFFFFFFFFFFFF DUP1 DUP3 GT ISZERO PUSH2 0x3D86 JUMPI PUSH1 0x0 DUP1 REVERT JUMPDEST PUSH2 0x3D92 DUP10 DUP4 DUP11 ADD PUSH2 0x3C55 JUMP JUMPDEST SWAP5 POP PUSH1 0x60 DUP9 ADD CALLDATALOAD SWAP2 POP DUP1 DUP3 GT ISZERO PUSH2 0x3DA8 JUMPI PUSH1 0x0 DUP1 REVERT JUMPDEST PUSH2 0x3DB4 DUP10 DUP4 DUP11 ADD PUSH2 0x3C55 JUMP JUMPDEST SWAP4 POP PUSH1 0x80 DUP9 ADD CALLDATALOAD SWAP2 POP DUP1 DUP3 GT ISZERO PUSH2 0x3DCA JUMPI PUSH1 0x0 DUP1 REVERT JUMPDEST POP PUSH2 0x3DD7 DUP9 DUP3 DUP10 ADD PUSH2 0x3CC6 JUMP JUMPDEST SWAP2 POP POP SWAP3 SWAP6 POP SWAP3 SWAP6 SWAP1 SWAP4 POP JUMP JUMPDEST PUSH1 0x20 DUP1 DUP3 MSTORE PUSH1 0x0 SWAP1 PUSH1 0x80 DUP4 ADD DUP4 DUP3 ADD DUP6 DUP5 JUMPDEST PUSH1 0x3 DUP2 LT ISZERO PUSH2 0x3E25 JUMPI PUSH1 0x1F NOT DUP8 DUP6 SUB ADD DUP4 MSTORE PUSH2 0x3E13 DUP5 DUP4 MLOAD PUSH2 0x3B2E JUMP JUMPDEST SWAP4 POP SWAP2 DUP5 ADD SWAP2 SWAP1 DUP5 ADD SWAP1 PUSH1 0x1 ADD PUSH2 0x3DF6 JUMP JUMPDEST POP SWAP2 SWAP7 SWAP6 POP POP POP POP POP POP JUMP JUMPDEST PUSH1 0x0 DUP1 PUSH1 0x40 DUP4 DUP6 SUB SLT ISZERO PUSH2 0x3E44 JUMPI PUSH1 0x0 DUP1 REVERT JUMPDEST DUP3 CALLDATALOAD PUSH8 0xFFFFFFFFFFFFFFFF DUP1 DUP3 GT ISZERO PUSH2 0x3E5C JUMPI PUSH1 0x0 DUP1 REVERT JUMPDEST DUP2 DUP6 ADD SWAP2 POP DUP6 PUSH1 0x1F DUP4 ADD SLT PUSH2 0x3E70 JUMPI PUSH1 0x0 DUP1 REVERT JUMPDEST DUP2 CALLDATALOAD PUSH1 0x20 PUSH2 0x3E7D DUP3 PUSH2 0x3C31 JUMP JUMPDEST PUSH1 0x40 MLOAD PUSH2 0x3E8A DUP3 DUP3 PUSH2 0x3C04 JUMP JUMPDEST DUP4 DUP2 MSTORE PUSH1 0x5 SWAP4 SWAP1 SWAP4 SHL DUP6 ADD DUP3 ADD SWAP3 DUP3 DUP2 ADD SWAP2 POP DUP10 DUP5 GT ISZERO PUSH2 0x3EAA JUMPI PUSH1 0x0 DUP1 REVERT JUMPDEST SWAP5 DUP3 ADD SWAP5 JUMPDEST DUP4 DUP7 LT ISZERO PUSH2 0x3ECF JUMPI PUSH2 0x3EC0 DUP7 PUSH2 0x3A75 JUMP JUMPDEST DUP3 MSTORE SWAP5 DUP3 ADD SWAP5 SWAP1 DUP3 ADD SWAP1 PUSH2 0x3EAF JUMP JUMPDEST SWAP7 POP POP DUP7 ADD CALLDATALOAD SWAP3 POP POP DUP1 DUP3 GT ISZERO PUSH2 0x3EE5 JUMPI PUSH1 0x0 DUP1 REVERT JUMPDEST POP PUSH2 0x3EF2 DUP6 DUP3 DUP7 ADD PUSH2 0x3C55 JUMP JUMPDEST SWAP2 POP POP SWAP3 POP SWAP3 SWAP1 POP JUMP JUMPDEST PUSH1 0x0 DUP2 MLOAD DUP1 DUP5 MSTORE PUSH1 0x20 DUP1 DUP6 ADD SWAP5 POP DUP1 DUP5 ADD PUSH1 0x0 JUMPDEST DUP4 DUP2 LT ISZERO PUSH2 0x3F2C JUMPI DUP2 MLOAD DUP8 MSTORE SWAP6 DUP3 ADD SWAP6 SWAP1 DUP3 ADD SWAP1 PUSH1 0x1 ADD PUSH2 0x3F10 JUMP JUMPDEST POP SWAP5 SWAP6 SWAP5 POP POP POP POP POP JUMP JUMPDEST PUSH1 0x20 DUP2 MSTORE PUSH1 0x0 PUSH2 0x3211 PUSH1 0x20 DUP4 ADD DUP5 PUSH2 0x3EFC JUMP JUMPDEST PUSH1 0x0 DUP1 PUSH1 0x0 DUP1 PUSH1 0x80 DUP6 DUP8 SUB SLT ISZERO PUSH2 0x3F60 JUMPI PUSH1 0x0 DUP1 REVERT JUMPDEST DUP5 CALLDATALOAD SWAP4 POP PUSH1 0x20 DUP6 ADD CALLDATALOAD SWAP3 POP PUSH1 0x40 DUP6 ADD CALLDATALOAD SWAP2 POP PUSH1 0x60 DUP6 ADD CALLDATALOAD PUSH8 0xFFFFFFFFFFFFFFFF DUP2 GT ISZERO PUSH2 0x3F8C JUMPI PUSH1 0x0 DUP1 REVERT JUMPDEST PUSH2 0x3F98 DUP8 DUP3 DUP9 ADD PUSH2 0x3CC6 JUMP JUMPDEST SWAP2 POP POP SWAP3 SWAP6 SWAP2 SWAP5 POP SWAP3 POP JUMP JUMPDEST PUSH1 0x0 DUP1 PUSH1 0x0 PUSH1 0x60 DUP5 DUP7 SUB SLT ISZERO PUSH2 0x3FB9 JUMPI PUSH1 0x0 DUP1 REVERT JUMPDEST DUP4 CALLDATALOAD PUSH8 0xFFFFFFFFFFFFFFFF DUP1 DUP3 GT ISZERO PUSH2 0x3FD1 JUMPI PUSH1 0x0 DUP1 REVERT JUMPDEST PUSH2 0x3FDD DUP8 DUP4 DUP9 ADD PUSH2 0x3CC6 JUMP JUMPDEST SWAP5 POP PUSH1 0x20 DUP7 ADD CALLDATALOAD SWAP2 POP DUP1 DUP3 GT ISZERO PUSH2 0x3FF3 JUMPI PUSH1 0x0 DUP1 REVERT JUMPDEST PUSH2 0x3FFF DUP8 DUP4 DUP9 ADD PUSH2 0x3CC6 JUMP JUMPDEST SWAP4 POP PUSH1 0x40 DUP7 ADD CALLDATALOAD SWAP2 POP DUP1 DUP3 GT ISZERO PUSH2 0x4015 JUMPI PUSH1 0x0 DUP1 REVERT JUMPDEST POP PUSH2 0x4022 DUP7 DUP3 DUP8 ADD PUSH2 0x3CC6 JUMP JUMPDEST SWAP2 POP POP SWAP3 POP SWAP3 POP SWAP3 JUMP JUMPDEST PUSH1 0x0 DUP1 PUSH1 0x40 DUP4 DUP6 SUB SLT ISZERO PUSH2 0x403F JUMPI PUSH1 0x0 DUP1 REVERT JUMPDEST POP POP DUP1 CALLDATALOAD SWAP3 PUSH1 0x20 SWAP1 SWAP2 ADD CALLDATALOAD SWAP2 POP JUMP JUMPDEST PUSH1 0x0 DUP1 PUSH1 0x40 DUP4 DUP6 SUB SLT ISZERO PUSH2 0x4061 JUMPI PUSH1 0x0 DUP1 REVERT JUMPDEST PUSH2 0x406A DUP4 PUSH2 0x3A75 JUMP JUMPDEST SWAP2 POP PUSH2 0x4078 PUSH1 0x20 DUP5 ADD PUSH2 0x3A75 JUMP JUMPDEST SWAP1 POP SWAP3 POP SWAP3 SWAP1 POP JUMP JUMPDEST PUSH1 0x0 DUP1 PUSH1 0x0 DUP1 PUSH1 0x0 PUSH1 0xA0 DUP7 DUP9 SUB SLT ISZERO PUSH2 0x4099 JUMPI PUSH1 0x0 DUP1 REVERT JUMPDEST PUSH2 0x40A2 DUP7 PUSH2 0x3A75 JUMP JUMPDEST SWAP5 POP PUSH2 0x40B0 PUSH1 0x20 DUP8 ADD PUSH2 0x3A75 JUMP JUMPDEST SWAP4 POP PUSH1 0x40 DUP7 ADD CALLDATALOAD SWAP3 POP PUSH1 0x60 DUP7 ADD CALLDATALOAD SWAP2 POP PUSH1 0x80 DUP7 ADD CALLDATALOAD PUSH8 0xFFFFFFFFFFFFFFFF DUP2 GT ISZERO PUSH2 0x40DA JUMPI PUSH1 0x0 DUP1 REVERT JUMPDEST PUSH2 0x3DD7 DUP9 DUP3 DUP10 ADD PUSH2 0x3CC6 JUMP JUMPDEST PUSH1 0x1 DUP2 DUP2 SHR SWAP1 DUP3 AND DUP1 PUSH2 0x40FA JUMPI PUSH1 0x7F DUP3 AND SWAP2 POP JUMPDEST PUSH1 0x20 DUP3 LT DUP2 EQ ISZERO PUSH2 0x411B JUMPI PUSH4 0x4E487B71 PUSH1 0xE0 SHL PUSH1 0x0 MSTORE PUSH1 0x22 PUSH1 0x4 MSTORE PUSH1 0x24 PUSH1 0x0 REVERT JUMPDEST POP SWAP2 SWAP1 POP JUMP JUMPDEST PUSH1 0x20 DUP1 DUP3 MSTORE DUP2 DUP2 ADD MSTORE PUSH32 0x4F776E61626C653A2063616C6C6572206973206E6F7420746865206F776E6572 PUSH1 0x40 DUP3 ADD MSTORE PUSH1 0x60 ADD SWAP1 JUMP JUMPDEST PUSH1 0x20 DUP1 DUP3 MSTORE PUSH1 0x10 SWAP1 DUP3 ADD MSTORE PUSH16 0x14185D5CD8589B194E881C185D5CD959 PUSH1 0x82 SHL PUSH1 0x40 DUP3 ADD MSTORE PUSH1 0x60 ADD SWAP1 JUMP JUMPDEST PUSH1 0x0 DUP3 DUP3 LT ISZERO PUSH2 0x4192 JUMPI PUSH2 0x4192 PUSH2 0x3A47 JUMP JUMPDEST POP SUB SWAP1 JUMP JUMPDEST PUSH1 0x0 DUP2 PUSH1 0x0 NOT DIV DUP4 GT DUP3 ISZERO ISZERO AND ISZERO PUSH2 0x41B1 JUMPI PUSH2 0x41B1 PUSH2 0x3A47 JUMP JUMPDEST POP MUL SWAP1 JUMP JUMPDEST PUSH4 0x4E487B71 PUSH1 0xE0 SHL PUSH1 0x0 MSTORE PUSH1 0x12 PUSH1 0x4 MSTORE PUSH1 0x24 PUSH1 0x0 REVERT JUMPDEST PUSH1 0x0 DUP3 PUSH2 0x41DB JUMPI PUSH2 0x41DB PUSH2 0x41B6 JUMP JUMPDEST POP DIV SWAP1 JUMP JUMPDEST PUSH4 0x4E487B71 PUSH1 0xE0 SHL PUSH1 0x0 MSTORE PUSH1 0x32 PUSH1 0x4 MSTORE PUSH1 0x24 PUSH1 0x0 REVERT JUMPDEST PUSH1 0x0 PUSH1 0x0 NOT DUP3 EQ ISZERO PUSH2 0x420A JUMPI PUSH2 0x420A PUSH2 0x3A47 JUMP JUMPDEST POP PUSH1 0x1 ADD SWAP1 JUMP JUMPDEST PUSH1 0x20 DUP1 DUP3 MSTORE PUSH1 0x16 SWAP1 DUP3 ADD MSTORE PUSH22 0x1B9BDD08195B9BDD59DA081D1A5B59481C185CDCD959 PUSH1 0x52 SHL PUSH1 0x40 DUP3 ADD MSTORE PUSH1 0x60 ADD SWAP1 JUMP JUMPDEST DUP1 MLOAD PUSH10 0xFFFFFFFFFFFFFFFFFFFF DUP2 AND DUP2 EQ PUSH2 0x164F JUMPI PUSH1 0x0 DUP1 REVERT JUMPDEST PUSH1 0x0 DUP1 PUSH1 0x0 DUP1 PUSH1 0x0 PUSH1 0xA0 DUP7 DUP9 SUB SLT ISZERO PUSH2 0x4273 JUMPI PUSH1 0x0 DUP1 REVERT JUMPDEST PUSH2 0x427C DUP7 PUSH2 0x4241 JUMP JUMPDEST SWAP5 POP PUSH1 0x20 DUP7 ADD MLOAD SWAP4 POP PUSH1 0x40 DUP7 ADD MLOAD SWAP3 POP PUSH1 0x60 DUP7 ADD MLOAD SWAP2 POP PUSH2 0x429F PUSH1 0x80 DUP8 ADD PUSH2 0x4241 JUMP JUMPDEST SWAP1 POP SWAP3 SWAP6 POP SWAP3 SWAP6 SWAP1 SWAP4 POP JUMP JUMPDEST PUSH1 0x0 DUP3 PUSH2 0x42BA JUMPI PUSH2 0x42BA PUSH2 0x41B6 JUMP JUMPDEST POP MOD SWAP1 JUMP JUMPDEST PUSH1 0x20 DUP1 DUP3 MSTORE PUSH1 0x25 SWAP1 DUP3 ADD MSTORE PUSH32 0x455243313135353A207472616E7366657220746F20746865207A65726F206164 PUSH1 0x40 DUP3 ADD MSTORE PUSH5 0x6472657373 PUSH1 0xD8 SHL PUSH1 0x60 DUP3 ADD MSTORE PUSH1 0x80 ADD SWAP1 JUMP JUMPDEST PUSH1 0x20 DUP1 DUP3 MSTORE PUSH1 0x2A SWAP1 DUP3 ADD MSTORE PUSH32 0x455243313135353A20696E73756666696369656E742062616C616E636520666F PUSH1 0x40 DUP3 ADD MSTORE PUSH10 0x39103A3930B739B332B9 PUSH1 0xB1 SHL PUSH1 0x60 DUP3 ADD MSTORE PUSH1 0x80 ADD SWAP1 JUMP JUMPDEST PUSH1 0x40 DUP2 MSTORE PUSH1 0x0 PUSH2 0x4361 PUSH1 0x40 DUP4 ADD DUP6 PUSH2 0x3EFC JUMP JUMPDEST DUP3 DUP2 SUB PUSH1 0x20 DUP5 ADD MSTORE PUSH2 0x4373 DUP2 DUP6 PUSH2 0x3EFC JUMP JUMPDEST SWAP6 SWAP5 POP POP POP POP POP JUMP JUMPDEST PUSH1 0x1 DUP1 PUSH1 0xA0 SHL SUB DUP5 AND DUP2 MSTORE DUP3 PUSH1 0x20 DUP3 ADD MSTORE PUSH1 0x60 PUSH1 0x40 DUP3 ADD MSTORE PUSH1 0x0 PUSH2 0x4373 PUSH1 0x60 DUP4 ADD DUP5 PUSH2 0x3B2E JUMP JUMPDEST PUSH1 0x0 PUSH1 0x20 DUP3 DUP5 SUB SLT ISZERO PUSH2 0x43B5 JUMPI PUSH1 0x0 DUP1 REVERT JUMPDEST DUP2 MLOAD PUSH2 0x3211 DUP2 PUSH2 0x3BA9 JUMP JUMPDEST PUSH1 0x0 DUP1 DUP4 SLT DUP1 ISZERO PUSH1 0x1 PUSH1 0xFF SHL DUP6 ADD DUP5 SLT AND ISZERO PUSH2 0x43DE JUMPI PUSH2 0x43DE PUSH2 0x3A47 JUMP JUMPDEST PUSH1 0x1 PUSH1 0x1 PUSH1 0xFF SHL SUB DUP5 ADD DUP4 SGT DUP2 AND ISZERO PUSH2 0x43F9 JUMPI PUSH2 0x43F9 PUSH2 0x3A47 JUMP JUMPDEST POP POP SUB SWAP1 JUMP JUMPDEST PUSH1 0x0 DUP3 PUSH2 0x440E JUMPI PUSH2 0x440E PUSH2 0x41B6 JUMP JUMPDEST PUSH1 0x1 PUSH1 0xFF SHL DUP3 EQ PUSH1 0x0 NOT DUP5 EQ AND ISZERO PUSH2 0x4428 JUMPI PUSH2 0x4428 PUSH2 0x3A47 JUMP JUMPDEST POP SDIV SWAP1 JUMP JUMPDEST PUSH1 0x0 DUP1 DUP3 SLT DUP1 ISZERO PUSH1 0x1 PUSH1 0x1 PUSH1 0xFF SHL SUB DUP5 SWAP1 SUB DUP6 SGT AND ISZERO PUSH2 0x444F JUMPI PUSH2 0x444F PUSH2 0x3A47 JUMP JUMPDEST PUSH1 0x1 PUSH1 0xFF SHL DUP4 SWAP1 SUB DUP5 SLT DUP2 AND ISZERO PUSH2 0x4468 JUMPI PUSH2 0x4468 PUSH2 0x3A47 JUMP JUMPDEST POP POP ADD SWAP1 JUMP JUMPDEST PUSH1 0x0 PUSH1 0x1 PUSH1 0x1 PUSH1 0xFF SHL SUB DUP2 DUP5 SGT DUP3 DUP5 SGT DUP1 DUP3 AND DUP7 DUP5 DIV DUP7 GT AND ISZERO PUSH2 0x4494 JUMPI PUSH2 0x4494 PUSH2 0x3A47 JUMP JUMPDEST PUSH1 0x1 PUSH1 0xFF SHL PUSH1 0x0 DUP8 SLT DUP3 DUP2 AND DUP8 DUP4 SDIV DUP10 SLT AND ISZERO PUSH2 0x44B3 JUMPI PUSH2 0x44B3 PUSH2 0x3A47 JUMP JUMPDEST PUSH1 0x0 DUP8 SLT SWAP3 POP DUP8 DUP3 SDIV DUP8 SLT DUP5 DUP5 AND AND ISZERO PUSH2 0x44CF JUMPI PUSH2 0x44CF PUSH2 0x3A47 JUMP JUMPDEST DUP8 DUP6 SDIV DUP8 SLT DUP2 DUP5 AND AND ISZERO PUSH2 0x44E5 JUMPI PUSH2 0x44E5 PUSH2 0x3A47 JUMP JUMPDEST POP POP POP SWAP3 SWAP1 SWAP4 MUL SWAP4 SWAP3 POP POP POP JUMP JUMPDEST PUSH1 0x1 PUSH1 0x1 PUSH1 0xA0 SHL SUB DUP7 DUP2 AND DUP3 MSTORE DUP6 AND PUSH1 0x20 DUP3 ADD MSTORE PUSH1 0x40 DUP2 ADD DUP5 SWAP1 MSTORE PUSH1 0x60 DUP2 ADD DUP4 SWAP1 MSTORE PUSH1 0xA0 PUSH1 0x80 DUP3 ADD DUP2 SWAP1 MSTORE PUSH1 0x0 SWAP1 PUSH2 0x452D SWAP1 DUP4 ADD DUP5 PUSH2 0x3B2E JUMP JUMPDEST SWAP8 SWAP7 POP POP POP POP POP POP POP JUMP JUMPDEST PUSH1 0x0 PUSH1 0x20 DUP3 DUP5 SUB SLT ISZERO PUSH2 0x454A JUMPI PUSH1 0x0 DUP1 REVERT JUMPDEST DUP2 MLOAD PUSH2 0x3211 DUP2 PUSH2 0x3AB6 JUMP JUMPDEST PUSH1 0x0 PUSH1 0x3 RETURNDATASIZE GT ISZERO PUSH2 0x456E JUMPI PUSH1 0x4 PUSH1 0x0 DUP1 RETURNDATACOPY POP PUSH1 0x0 MLOAD PUSH1 0xE0 SHR JUMPDEST SWAP1 JUMP JUMPDEST PUSH1 0x0 PUSH1 0x44 RETURNDATASIZE LT ISZERO PUSH2 0x457F JUMPI SWAP1 JUMP JUMPDEST PUSH1 0x40 MLOAD PUSH1 0x3 NOT RETURNDATASIZE DUP2 ADD PUSH1 0x4 DUP4 RETURNDATACOPY DUP2 MLOAD RETURNDATASIZE PUSH8 0xFFFFFFFFFFFFFFFF DUP2 PUSH1 0x24 DUP5 ADD GT DUP2 DUP5 GT OR ISZERO PUSH2 0x45AF JUMPI POP POP POP POP POP SWAP1 JUMP JUMPDEST DUP3 DUP6 ADD SWAP2 POP DUP2 MLOAD DUP2 DUP2 GT ISZERO PUSH2 0x45C7 JUMPI POP POP POP POP POP POP SWAP1 JUMP JUMPDEST DUP5 RETURNDATASIZE DUP8 ADD ADD PUSH1 0x20 DUP3 DUP6 ADD ADD GT ISZERO PUSH2 0x45E1 JUMPI POP POP POP POP POP POP SWAP1 JUMP JUMPDEST PUSH2 0x45F0 PUSH1 0x20 DUP3 DUP7 ADD ADD DUP8 PUSH2 0x3C04 JUMP JUMPDEST POP SWAP1 SWAP6 SWAP5 POP POP POP POP POP JUMP JUMPDEST PUSH1 0x20 DUP1 DUP3 MSTORE PUSH1 0x28 SWAP1 DUP3 ADD MSTORE PUSH32 0x455243313135353A204552433131353552656365697665722072656A65637465 PUSH1 0x40 DUP3 ADD MSTORE PUSH8 0x6420746F6B656E73 PUSH1 0xC0 SHL PUSH1 0x60 DUP3 ADD MSTORE PUSH1 0x80 ADD SWAP1 JUMP JUMPDEST PUSH1 0x1 PUSH1 0x1 PUSH1 0xA0 SHL SUB DUP7 DUP2 AND DUP3 MSTORE DUP6 AND PUSH1 0x20 DUP3 ADD MSTORE PUSH1 0xA0 PUSH1 0x40 DUP3 ADD DUP2 SWAP1 MSTORE PUSH1 0x0 SWAP1 PUSH2 0x466F SWAP1 DUP4 ADD DUP7 PUSH2 0x3EFC JUMP JUMPDEST DUP3 DUP2 SUB PUSH1 0x60 DUP5 ADD MSTORE PUSH2 0x4681 DUP2 DUP7 PUSH2 0x3EFC JUMP JUMPDEST SWAP1 POP DUP3 DUP2 SUB PUSH1 0x80 DUP5 ADD MSTORE PUSH2 0x365C DUP2 DUP6 PUSH2 0x3B2E JUMP INVALID EXP MLOAD PC DUP12 AND PUSH5 0x495F089DD8 RETURNDATASIZE 0x2D 0x26 CALLCODE SELFBALANCE SWAP3 0xF SWAP5 0xA5 PUSH27 0x4A09F20CF068EFC8F82BD4A26469706673582212201A00881B5499 PUSH8 0x8CCD5079DB286828 KECCAK256 SLOAD PUSH14 0x48C6F03B16CAA95D3BF2E8DCB652 PUSH5 0x736F6C6343 STOP ADDMOD SIGNEXTEND STOP CALLER ","sha1":"d21c6e7794f34014931818f3949065c6c39fd5c4","source":"// SPDX-License-Identifier: MIT\npragma solidity ^0.8.0;\n\nimport \"./MemorizeThisDay.sol\";\n\ncontract MemorizeThisDayOnBTC is MemorizeThisDay {\n    constructor(\n        address vrfCoordinator,\n        address linkToken,\n        uint256 chainlinkFee,\n        bytes32 keyHash,\n        address priceFeedAddress,\n        address developersAddress\n    )\n        public\n        MemorizeThisDay(\n            \"Bitcoin\",\n            \"https://memorizethisday.github.io/BTC/{id}.json\",\n            100,\n            vrfCoordinator,\n            linkToken,\n            chainlinkFee,\n            keyHash,\n            priceFeedAddress,\n            developersAddress\n        )\n    {\n        SetStratDate(2015, 1, 5);\n\n        //TODO mint gifts\n        //TODO mint electoral\n    }\n}\n","sourcePath":"contracts/MemorizeBTC.sol","type":"contract","deployment":{"address":"0x3311e47854955f3A6ce6D56BAE074Fd7B1c4Ea97","chainid":"4","blockHeight":10339193}}