{"abi":[{"inputs":[{"internalType":"address","name":"vrfCoordinator","type":"address"},{"internalType":"address","name":"linkToken","type":"address"},{"internalType":"uint256","name":"chainlinkFee","type":"uint256"},{"internalType":"bytes32","name":"keyHash","type":"bytes32"},{"internalType":"address","name":"priceFeedAddress","type":"address"},{"internalType":"address","name":"developersAddress","type":"address"},{"internalType":"address","name":"founderAddress","type":"address"}],"stateMutability":"nonpayable","type":"constructor","name":"constructor"},{"inputs":[{"internalType":"uint256","name":"","type":"uint256"},{"internalType":"uint256","name":"","type":"uint256"}],"name":"WrongDaySelection","type":"error"},{"anonymous":false,"inputs":[{"indexed":true,"internalType":"address","name":"account","type":"address"},{"indexed":true,"internalType":"address","name":"operator","type":"address"},{"indexed":false,"internalType":"bool","name":"approved","type":"bool"}],"name":"ApprovalForAll","type":"event"},{"anonymous":false,"inputs":[{"indexed":false,"internalType":"uint256","name":"year","type":"uint256"},{"indexed":false,"internalType":"uint256","name":"month","type":"uint256"},{"indexed":false,"internalType":"uint256","name":"day","type":"uint256"},{"indexed":true,"internalType":"address","name":"holder","type":"address"}],"name":"MemorizedEvent","type":"event"},{"anonymous":false,"inputs":[{"indexed":true,"internalType":"address","name":"previousOwner","type":"address"},{"indexed":true,"internalType":"address","name":"newOwner","type":"address"}],"name":"OwnershipTransferred","type":"event"},{"anonymous":false,"inputs":[{"indexed":false,"internalType":"address","name":"account","type":"address"}],"name":"Paused","type":"event"},{"anonymous":false,"inputs":[{"indexed":true,"internalType":"address","name":"_address","type":"address"},{"indexed":false,"internalType":"uint256","name":"randomness","type":"uint256"}],"name":"PeriodicAirdropWinnerSelectedEvent","type":"event"},{"anonymous":false,"inputs":[{"indexed":true,"internalType":"address","name":"operator","type":"address"},{"indexed":true,"internalType":"address","name":"from","type":"address"},{"indexed":true,"internalType":"address","name":"to","type":"address"},{"indexed":false,"internalType":"uint256[]","name":"ids","type":"uint256[]"},{"indexed":false,"internalType":"uint256[]","name":"values","type":"uint256[]"}],"name":"TransferBatch","type":"event"},{"anonymous":false,"inputs":[{"indexed":true,"internalType":"address","name":"operator","type":"address"},{"indexed":true,"internalType":"address","name":"from","type":"address"},{"indexed":true,"internalType":"address","name":"to","type":"address"},{"indexed":false,"internalType":"uint256","name":"id","type":"uint256"},{"indexed":false,"internalType":"uint256","name":"value","type":"uint256"}],"name":"TransferSingle","type":"event"},{"anonymous":false,"inputs":[{"indexed":false,"internalType":"string","name":"value","type":"string"},{"indexed":true,"internalType":"uint256","name":"id","type":"uint256"}],"name":"URI","type":"event"},{"anonymous":false,"inputs":[{"indexed":false,"internalType":"address","name":"account","type":"address"}],"name":"Unpaused","type":"event"},{"anonymous":false,"inputs":[{"indexed":true,"internalType":"address","name":"_address","type":"address"},{"indexed":true,"internalType":"uint256","name":"_amount","type":"uint256"}],"name":"WithdrawalEvent","type":"event"},{"stateMutability":"payable","type":"fallback"},{"inputs":[],"name":"AMBASSADOR_SHARE","outputs":[{"internalType":"uint256","name":"","type":"uint256"}],"stateMutability":"view","type":"function"},{"inputs":[{"internalType":"bool","name":"acceptance","type":"bool"}],"name":"AcceptSponsorship","outputs":[],"stateMutability":"nonpayable","type":"function"},{"inputs":[],"name":"AirdropRegisters","outputs":[{"internalType":"address[]","name":"","type":"address[]"}],"stateMutability":"view","type":"function"},{"inputs":[{"internalType":"uint256","name":"year","type":"uint256"},{"internalType":"uint256","name":"month","type":"uint256"},{"internalType":"uint256","name":"day","type":"uint256"},{"internalType":"string","name":"memo","type":"string"},{"internalType":"string","name":"imageMemo","type":"string"},{"internalType":"string","name":"aliass","type":"string"},{"internalType":"string","name":"twitterAccount","type":"string"}],"name":"Customize","outputs":[],"stateMutability":"nonpayable","type":"function"},{"inputs":[],"name":"DEVELOPMENT_VAULT_SHARE","outputs":[{"internalType":"uint256","name":"","type":"uint256"}],"stateMutability":"view","type":"function"},{"inputs":[],"name":"Election","outputs":[],"stateMutability":"nonpayable","type":"function"},{"inputs":[],"name":"FOUNDER_SHARE","outputs":[{"internalType":"uint256","name":"","type":"uint256"}],"stateMutability":"view","type":"function"},{"inputs":[{"internalType":"uint256","name":"year","type":"uint256"},{"internalType":"uint256","name":"month","type":"uint256"},{"internalType":"uint256","name":"day","type":"uint256"}],"name":"GetHolderOfTheDay","outputs":[{"internalType":"address","name":"","type":"address"}],"stateMutability":"view","type":"function"},{"inputs":[{"internalType":"uint256","name":"year","type":"uint256"},{"internalType":"uint256","name":"month","type":"uint256"},{"internalType":"uint256","name":"day","type":"uint256"}],"name":"GetIdByDate","outputs":[{"internalType":"uint256","name":"","type":"uint256"}],"stateMutability":"pure","type":"function"},{"inputs":[],"name":"GetMemorizeFee","outputs":[{"internalType":"uint256","name":"","type":"uint256"}],"stateMutability":"view","type":"function"},{"inputs":[],"name":"GetMintedDaysLength","outputs":[{"internalType":"uint256","name":"","type":"uint256"}],"stateMutability":"view","type":"function"},{"inputs":[],"name":"GetPeriodicAirdropRegistersLength","outputs":[{"internalType":"uint256","name":"","type":"uint256"}],"stateMutability":"view","type":"function"},{"inputs":[],"name":"METADATAFORGER_VAULT_SHARE","outputs":[{"internalType":"uint256","name":"","type":"uint256"}],"stateMutability":"view","type":"function"},{"inputs":[{"internalType":"uint256","name":"year","type":"uint256"},{"internalType":"uint256","name":"month","type":"uint256"},{"internalType":"uint256","name":"day","type":"uint256"},{"internalType":"address","name":"giftTo","type":"address"}],"name":"Memorize","outputs":[],"stateMutability":"payable","type":"function"},{"inputs":[],"name":"MemorizedDays","outputs":[{"internalType":"uint256[]","name":"","type":"uint256[]"},{"internalType":"address[]","name":"","type":"address[]"}],"stateMutability":"view","type":"function"},{"inputs":[],"name":"PauseContract","outputs":[],"stateMutability":"nonpayable","type":"function"},{"inputs":[],"name":"RegisterForPeriodiclyAirdrop","outputs":[],"stateMutability":"nonpayable","type":"function"},{"inputs":[{"internalType":"string","name":"title","type":"string"},{"internalType":"string","name":"url","type":"string"},{"internalType":"string","name":"imageurl","type":"string"},{"internalType":"string","name":"twitter","type":"string"}],"name":"RequestSponsorship","outputs":[],"stateMutability":"payable","type":"function"},{"inputs":[],"name":"SelectPeriodicWinner","outputs":[],"stateMutability":"nonpayable","type":"function"},{"inputs":[{"internalType":"address","name":"targetAirdrop","type":"address"}],"name":"SendAirdrop","outputs":[],"stateMutability":"nonpayable","type":"function"},{"inputs":[{"internalType":"address","name":"addrs","type":"address"},{"internalType":"uint256","name":"wallet","type":"uint256"}],"name":"SetAddress","outputs":[],"stateMutability":"nonpayable","type":"function"},{"inputs":[{"internalType":"uint256","name":"year","type":"uint256"},{"internalType":"uint256","name":"month","type":"uint256"},{"internalType":"uint256","name":"day","type":"uint256"}],"name":"SetStartDate","outputs":[],"stateMutability":"nonpayable","type":"function"},{"inputs":[{"internalType":"string","name":"url","type":"string"}],"name":"SetStartUrl","outputs":[],"stateMutability":"nonpayable","type":"function"},{"inputs":[{"internalType":"uint256","name":"fee","type":"uint256"}],"name":"UpdateChainlinkFee","outputs":[],"stateMutability":"nonpayable","type":"function"},{"inputs":[{"internalType":"uint256","name":"newPrice","type":"uint256"},{"internalType":"uint256","name":"newPriceStep","type":"uint256"}],"name":"UpdateMintPrice","outputs":[],"stateMutability":"nonpayable","type":"function"},{"inputs":[],"name":"VAULT_1_SHARE","outputs":[{"internalType":"uint256","name":"","type":"uint256"}],"stateMutability":"view","type":"function"},{"inputs":[],"name":"VAULT_2_SHARE","outputs":[{"internalType":"uint256","name":"","type":"uint256"}],"stateMutability":"view","type":"function"},{"inputs":[{"internalType":"uint256","name":"year","type":"uint256"},{"internalType":"uint256","name":"month","type":"uint256"},{"internalType":"uint256","name":"day","type":"uint256"},{"internalType":"uint256","name":"ambassadoryear","type":"uint256"},{"internalType":"uint256","name":"ambassadormonth","type":"uint256"},{"internalType":"uint256","name":"ambassadorday","type":"uint256"},{"internalType":"enum MemorizeThisDay.VAULT_ACTION[]","name":"action","type":"uint8[]"}],"name":"Vote","outputs":[],"stateMutability":"nonpayable","type":"function"},{"inputs":[],"name":"Withdrawal","outputs":[],"stateMutability":"nonpayable","type":"function"},{"inputs":[],"name":"_UrlStartWith","outputs":[{"internalType":"string","name":"","type":"string"}],"stateMutability":"view","type":"function"},{"inputs":[{"internalType":"uint256","name":"","type":"uint256"},{"internalType":"uint256","name":"","type":"uint256"}],"name":"_Votes","outputs":[{"internalType":"enum MemorizeThisDay.VAULT_ACTION","name":"","type":"uint8"}],"stateMutability":"view","type":"function"},{"inputs":[{"internalType":"uint256","name":"","type":"uint256"},{"internalType":"enum MemorizeThisDay.VAULT_ACTION","name":"","type":"uint8"}],"name":"_VotesAggregate","outputs":[{"internalType":"uint256","name":"","type":"uint256"}],"stateMutability":"view","type":"function"},{"inputs":[{"internalType":"address","name":"","type":"address"}],"name":"_airdrop","outputs":[{"internalType":"uint256","name":"","type":"uint256"}],"stateMutability":"view","type":"function"},{"inputs":[],"name":"_airdropPeriodInDays","outputs":[{"internalType":"uint256","name":"","type":"uint256"}],"stateMutability":"view","type":"function"},{"inputs":[{"internalType":"address","name":"","type":"address"}],"name":"_alias","outputs":[{"internalType":"string","name":"","type":"string"}],"stateMutability":"view","type":"function"},{"inputs":[{"internalType":"uint256","name":"","type":"uint256"}],"name":"_ambasaddorVotes","outputs":[{"internalType":"address","name":"","type":"address"}],"stateMutability":"view","type":"function"},{"inputs":[],"name":"_ambassador","outputs":[{"internalType":"address","name":"","type":"address"}],"stateMutability":"view","type":"function"},{"inputs":[{"internalType":"address","name":"","type":"address"}],"name":"_ambassadorVotesAggregate","outputs":[{"internalType":"uint256","name":"","type":"uint256"}],"stateMutability":"view","type":"function"},{"inputs":[],"name":"_assetName","outputs":[{"internalType":"string","name":"","type":"string"}],"stateMutability":"view","type":"function"},{"inputs":[],"name":"_chainlinkFee","outputs":[{"internalType":"uint256","name":"","type":"uint256"}],"stateMutability":"view","type":"function"},{"inputs":[{"internalType":"uint256","name":"","type":"uint256"}],"name":"_elders","outputs":[{"internalType":"bool","name":"","type":"bool"}],"stateMutability":"view","type":"function"},{"inputs":[{"internalType":"uint256","name":"","type":"uint256"}],"name":"_eldersAddress","outputs":[{"internalType":"address","name":"","type":"address"}],"stateMutability":"view","type":"function"},{"inputs":[{"internalType":"uint256","name":"","type":"uint256"}],"name":"_eldersIndex","outputs":[{"internalType":"uint256","name":"","type":"uint256"}],"stateMutability":"view","type":"function"},{"inputs":[],"name":"_eldersRemaining","outputs":[{"internalType":"uint256","name":"","type":"uint256"}],"stateMutability":"view","type":"function"},{"inputs":[],"name":"_electoralAirdropPeriodInDays","outputs":[{"internalType":"uint256","name":"","type":"uint256"}],"stateMutability":"view","type":"function"},{"inputs":[],"name":"_founderAddress","outputs":[{"internalType":"address","name":"","type":"address"}],"stateMutability":"view","type":"function"},{"inputs":[{"internalType":"uint256","name":"","type":"uint256"}],"name":"_holders","outputs":[{"internalType":"address","name":"","type":"address"}],"stateMutability":"view","type":"function"},{"inputs":[{"internalType":"uint256","name":"","type":"uint256"}],"name":"_imageMemo","outputs":[{"internalType":"string","name":"","type":"string"}],"stateMutability":"view","type":"function"},{"inputs":[],"name":"_initialPrice","outputs":[{"internalType":"uint256","name":"","type":"uint256"}],"stateMutability":"view","type":"function"},{"inputs":[],"name":"_invitePeriod","outputs":[{"internalType":"bool","name":"","type":"bool"}],"stateMutability":"view","type":"function"},{"inputs":[],"name":"_isSponsorshipAccepted","outputs":[{"internalType":"bool","name":"","type":"bool"}],"stateMutability":"view","type":"function"},{"inputs":[],"name":"_lastAirdropPeriodWinnerSelectDate","outputs":[{"internalType":"uint256","name":"","type":"uint256"}],"stateMutability":"view","type":"function"},{"inputs":[],"name":"_lastElectionDate","outputs":[{"internalType":"uint256","name":"","type":"uint256"}],"stateMutability":"view","type":"function"},{"inputs":[],"name":"_lastElectoralAirdropDate","outputs":[{"internalType":"uint256","name":"","type":"uint256"}],"stateMutability":"view","type":"function"},{"inputs":[],"name":"_lastMemorizeDate","outputs":[{"internalType":"uint256","name":"","type":"uint256"}],"stateMutability":"view","type":"function"},{"inputs":[{"internalType":"uint256","name":"","type":"uint256"}],"name":"_memo","outputs":[{"internalType":"string","name":"","type":"string"}],"stateMutability":"view","type":"function"},{"inputs":[],"name":"_metadataForgerAddress","outputs":[{"internalType":"address","name":"","type":"address"}],"stateMutability":"view","type":"function"},{"inputs":[],"name":"_mintPrice","outputs":[{"internalType":"uint256","name":"","type":"uint256"}],"stateMutability":"view","type":"function"},{"inputs":[],"name":"_mintPriceStep","outputs":[{"internalType":"uint256","name":"","type":"uint256"}],"stateMutability":"view","type":"function"},{"inputs":[{"internalType":"uint256","name":"","type":"uint256"}],"name":"_mintedDays","outputs":[{"internalType":"uint256","name":"","type":"uint256"}],"stateMutability":"view","type":"function"},{"inputs":[{"internalType":"uint256","name":"","type":"uint256"}],"name":"_periodicAirdropRegisters","outputs":[{"internalType":"address","name":"","type":"address"}],"stateMutability":"view","type":"function"},{"inputs":[],"name":"_sponsorAddress","outputs":[{"internalType":"address","name":"","type":"address"}],"stateMutability":"view","type":"function"},{"inputs":[],"name":"_sponsorImage","outputs":[{"internalType":"string","name":"","type":"string"}],"stateMutability":"view","type":"function"},{"inputs":[],"name":"_sponsorShipLockUntil","outputs":[{"internalType":"uint256","name":"","type":"uint256"}],"stateMutability":"view","type":"function"},{"inputs":[],"name":"_sponsorTitle","outputs":[{"internalType":"string","name":"","type":"string"}],"stateMutability":"view","type":"function"},{"inputs":[],"name":"_sponsorTwitter","outputs":[{"internalType":"string","name":"","type":"string"}],"stateMutability":"view","type":"function"},{"inputs":[],"name":"_sponsorURL","outputs":[{"internalType":"string","name":"","type":"string"}],"stateMutability":"view","type":"function"},{"inputs":[],"name":"_startDate","outputs":[{"internalType":"uint256","name":"","type":"uint256"}],"stateMutability":"view","type":"function"},{"inputs":[],"name":"_totalAirdropped","outputs":[{"internalType":"uint256","name":"","type":"uint256"}],"stateMutability":"view","type":"function"},{"inputs":[{"internalType":"uint256","name":"","type":"uint256"}],"name":"_twitterAccount","outputs":[{"internalType":"string","name":"","type":"string"}],"stateMutability":"view","type":"function"},{"inputs":[{"internalType":"uint256","name":"","type":"uint256"}],"name":"_vaultsAddress","outputs":[{"internalType":"address","name":"","type":"address"}],"stateMutability":"view","type":"function"},{"inputs":[{"internalType":"address","name":"","type":"address"}],"name":"_wallet","outputs":[{"internalType":"uint256","name":"","type":"uint256"}],"stateMutability":"view","type":"function"},{"inputs":[{"internalType":"address","name":"account","type":"address"},{"internalType":"uint256","name":"id","type":"uint256"}],"name":"balanceOf","outputs":[{"internalType":"uint256","name":"","type":"uint256"}],"stateMutability":"view","type":"function"},{"inputs":[{"internalType":"address[]","name":"accounts","type":"address[]"},{"internalType":"uint256[]","name":"ids","type":"uint256[]"}],"name":"balanceOfBatch","outputs":[{"internalType":"uint256[]","name":"","type":"uint256[]"}],"stateMutability":"view","type":"function"},{"inputs":[{"internalType":"address","name":"account","type":"address"},{"internalType":"address","name":"operator","type":"address"}],"name":"isApprovedForAll","outputs":[{"internalType":"bool","name":"","type":"bool"}],"stateMutability":"view","type":"function"},{"inputs":[{"internalType":"uint256","name":"a","type":"uint256"},{"internalType":"uint256","name":"b","type":"uint256"}],"name":"max","outputs":[{"internalType":"uint256","name":"","type":"uint256"}],"stateMutability":"pure","type":"function"},{"inputs":[],"name":"owner","outputs":[{"internalType":"address","name":"","type":"address"}],"stateMutability":"view","type":"function"},{"inputs":[],"name":"paused","outputs":[{"internalType":"bool","name":"","type":"bool"}],"stateMutability":"view","type":"function"},{"inputs":[{"internalType":"bytes32","name":"requestId","type":"bytes32"},{"internalType":"uint256","name":"randomness","type":"uint256"}],"name":"rawFulfillRandomness","outputs":[],"stateMutability":"nonpayable","type":"function"},{"inputs":[],"name":"renounceOwnership","outputs":[],"stateMutability":"nonpayable","type":"function"},{"inputs":[{"internalType":"address","name":"from","type":"address"},{"internalType":"address","name":"to","type":"address"},{"internalType":"uint256[]","name":"ids","type":"uint256[]"},{"internalType":"uint256[]","name":"amounts","type":"uint256[]"},{"internalType":"bytes","name":"data","type":"bytes"}],"name":"safeBatchTransferFrom","outputs":[],"stateMutability":"nonpayable","type":"function"},{"inputs":[{"internalType":"address","name":"from","type":"address"},{"internalType":"address","name":"to","type":"address"},{"internalType":"uint256","name":"id","type":"uint256"},{"internalType":"uint256","name":"amount","type":"uint256"},{"internalType":"bytes","name":"data","type":"bytes"}],"name":"safeTransferFrom","outputs":[],"stateMutability":"nonpayable","type":"function"},{"inputs":[{"internalType":"address","name":"operator","type":"address"},{"internalType":"bool","name":"approved","type":"bool"}],"name":"setApprovalForAll","outputs":[],"stateMutability":"nonpayable","type":"function"},{"inputs":[{"internalType":"bytes4","name":"interfaceId","type":"bytes4"}],"name":"supportsInterface","outputs":[{"internalType":"bool","name":"","type":"bool"}],"stateMutability":"view","type":"function"},{"inputs":[{"internalType":"address","name":"newOwner","type":"address"}],"name":"transferOwnership","outputs":[],"stateMutability":"nonpayable","type":"function"},{"inputs":[{"internalType":"uint256","name":"","type":"uint256"}],"name":"uri","outputs":[{"internalType":"string","name":"","type":"string"}],"stateMutability":"view","type":"function"}],"bytecode":"610100604052601060c08190526f68747470733a2f2f697066732e696f2f60801b60e0908152620000349160059190620014b4565b506000600a819055600b819055600c805460ff1916600117905561016d600d55600e80546001600160a81b03191690556040805160208101918290528290526200008291600f9190620014b4565b50604080516020810191829052600090819052620000a391601091620014b4565b50604080516020810191829052600090819052620000c491601191620014b4565b50604080516020810191829052600090819052620000e591601291620014b4565b50600060135560006014556000601555601e60175560076018553480156200010c57600080fd5b50604051620076d1380380620076d18339810160408190526200012f9162001577565b604051806040016040528060078152602001662134ba31b7b4b760c91b8152506040518060600160405280602f8152602001620076a2602f9139606489898989898484886200017e8162000386565b506003805460ff1916905562000194336200039f565b6001600160a01b0391821660a05216608052620001ba86670de0b6b3a764000062001610565b600a8190556014819055601555601f8390556020828155620001ea904290600890620039e3620003f9821b17901c565b60198190555062000208426008620003f960201b620039e31760201c565b601a819055506200022642601e620003f960201b620039e31760201c565b601d5587516200023e9060099060208b0190620014b4565b50602480546001600160a01b031990811660019081179092556025805482166002179055602680548216600317905560278054821660041790556007805482169055600880549091166001600160a01b039390931692909217909155620002b597506107df96509450600593506200042c92505050565b620002c281600062000531565b620002cf82600162000531565b6001600160a01b038116600090815260296020526040902060379055620002fd6107df600160058562000610565b6200030f6107df600160068562000610565b620003216107df600160078562000610565b620003336107df600160198462000610565b620003456107e0600760098462000610565b620003566107e06001808462000610565b620003676107e16001808462000610565b620003796107e5600a60148462000610565b5050505050505062001a82565b80516200039b906002906020840190620014b4565b5050565b600380546001600160a01b03838116610100818102610100600160a81b031985161790945560405193909204169182907f8be0079c531659141344cd1fd0a4f28419497f9722a3daafe3b4186f6b6457e090600090a35050565b60006200040a620151808362001610565b62000416908462001648565b9050828111156200042657600080fd5b92915050565b6003546001600160a01b03610100909104163314620004815760405162461bcd60e51b815260206004820181905260248201526000805160206200768283398151915260448201526064015b60405180910390fd5b60035460ff1615620004c95760405162461bcd60e51b815260206004820152601060248201526f14185d5cd8589b194e881c185d5cd95960821b604482015260640162000478565b6000620004e384848462000dea60201b62003a0b1760201c565b9050601b546000146200052957601b548110620005295760405162461bcd60e51b81526020600482015260036024820152620ca64760eb1b604482015260640162000478565b601b55505050565b6003546001600160a01b03610100909104163314620005825760405162461bcd60e51b8152602060048201819052602482015260008051602062007682833981519152604482015260640162000478565b80620005cc57602280546001600160a01b038481166001600160a01b0319831681179093551660008181526028602052604080822080549483529082209390935590815290555050565b602180546001600160a01b038481166001600160a01b0319831681179093551660008181526028602052604080822080549483529082209390935590815290555050565b60035460ff1615620006585760405162461bcd60e51b815260206004820152601060248201526f14185d5cd8589b194e881c185d5cd95960821b604482015260640162000478565b600c5460ff1615806200067957503360009081526029602052604090205415155b620006ac5760405162461bcd60e51b8152602060048201526002602482015261329960f11b604482015260640162000478565b821580620006ba5750600c83115b15620006ee5760405162461bcd60e51b8152602060048201526002602482015261653360f01b604482015260640162000478565b811580620006fc5750601f82115b15620007305760405162461bcd60e51b8152602060048201526002602482015261194d60f21b604482015260640162000478565b8260041480620007405750826006145b806200074c5750826009145b8062000758575082600b145b8015620007655750601e82115b156200078f576040516324e2ba2160e11b8152600481018490526024810183905260440162000478565b826002148015620007b15750620007b18462000e1160201b62003a261760201c565b8015620007be5750601d82115b15620007e8576040516324e2ba2160e11b8152600481018490526024810183905260440162000478565b8260021480156200080c57506200080a8462000e1160201b62003a261760201c565b155b8015620008195750601c82115b1562000843576040516324e2ba2160e11b8152600481018490526024810183905260440162000478565b60006200085d85858562000dea60201b62003a0b1760201c565b9050428111158015620008725750601b548110155b620008a55760405162461bcd60e51b8152602060048201526002602482015261653560f01b604482015260640162000478565b6000818152602a60205260409020546001600160a01b031615620008f15760405162461bcd60e51b8152602060048201526002602482015261329b60f11b604482015260640162000478565b6001600160a01b03821662000904573391505b336000908152602960205260408120541562000a085750336000908152602960205260409020546001906200093b90829062001648565b33600090815260296020526040902055600b546200095b90600162001662565b600b55600d541562000a08576001600d5462000978919062001648565b600d556000828152602b60205260408120805460ff19166001908117909155602d80548083018255928190527f4a2cc91ee622da3bc833a54c37ffcb6f3ec23b7793efc5eaf5e71b7b406c5c0690920180546001600160a01b031916331790559054620009e6919062001648565b6000838152602c6020526040902055600d5462000a0857600c805460ff191690555b8062000d065762000a1862000e55565b34101562000a4e5760405162461bcd60e51b8152602060048201526002602482015261653760f01b604482015260640162000478565b6000606462000a5f60053462001610565b62000a6b919062001693565b6022546001600160a01b031660009081526028602052604090205490915062000a9690829062001662565b6022546001600160a01b0316600090815260286020526040812091909155606462000ac360053462001610565b62000acf919062001693565b6007549091506001600160a01b031662000b2c576021546001600160a01b031660009081526028602052604090205462000b0b90829062001662565b6021546001600160a01b031660009081526028602052604090205562000b70565b6007546001600160a01b031660009081526028602052604090205462000b5490829062001662565b6007546001600160a01b03166000908152602860205260409020555b6000606462000b8160053462001610565b62000b8d919062001693565b6021546001600160a01b031660009081526028602052604090205490915062000bb890829062001662565b6021546001600160a01b0316600090815260286020526040812091909155606462000be560193462001610565b62000bf1919062001693565b6027546001600160a01b031660009081526028602052604090205490915062000c1c90829062001662565b6027546001600160a01b0316600090815260286020526040812091909155606462000c49601e3462001610565b62000c55919062001693565b6024546001600160a01b031660009081526028602052604090205490915062000c8090829062001662565b6024546001600160a01b0316600090815260286020526040812091909155606462000cad601e3462001610565b62000cb9919062001693565b6025546001600160a01b031660009081526028602052604090205490915062000ce490829062001662565b6025546001600160a01b03166000908152602860205260409020555050505050505b62000d2a838360016040518060200160405280600081525062000f1b60201b60201c565b601e8054600181019091557f50bb669a95c7b50b7e8a6f09454034b2b14cf2b85c730dca9a539ca82cb6e350018290556000828152602a6020526040902080546001600160a01b0319166001600160a01b03851617905542601c558062000de25762000d956200103e565b60408051878152602081018790529081018590526001600160a01b038416907fa51e9b2ef1f037dee551eb226d6d1581c8fb0e0243820ebd1fbb41a13e6c23649060600160405180910390a25b505050505050565b60006201518062000dfd85858562001095565b62000e09919062001610565b949350505050565b600062000e20600483620016aa565b15801562000e39575062000e36606483620016aa565b15155b8062000426575062000e4e61019083620016aa565b1592915050565b600080600860009054906101000a90046001600160a01b03166001600160a01b031663feaf968c6040518163ffffffff1660e01b815260040160a060405180830381865afa15801562000eac573d6000803e3d6000fd5b505050506040513d601f19601f8201168201806040525081019062000ed29190620016d9565b5050509150506000816402540be40062000eed919062001610565b905080601454670de0b6b3a764000062000f08919062001610565b62000f14919062001693565b9250505090565b6001600160a01b03841662000f7d5760405162461bcd60e51b815260206004820152602160248201527f455243313135353a206d696e7420746f20746865207a65726f206164647265736044820152607360f81b606482015260840162000478565b3362000fa38160008762000f918862001205565b62000f9c8862001205565b8762001253565b6000848152602081815260408083206001600160a01b03891684529091528120805485929062000fd590849062001662565b909155505060408051858152602081018590526001600160a01b0380881692600092918516917fc3d58168c5ae7397731d063d5bbf3d657854427343f4c083240f7aacaa2d0f62910160405180910390a46200103781600087878787620012d8565b5050505050565b600b54601e54600091620010529162001648565b905069152d02c7e14af6800000601454101562001092576200107761016d82620016aa565b6200109257600a546014546200108e919062001662565b6014555b50565b60006107b2841015620010a757600080fd5b838383600062253d8c60046064600c620010c3600e886200172e565b620010cf919062001773565b620010dd88611324620017a7565b620010e99190620017a7565b620010f5919062001773565b62001102906003620017ee565b6200110e919062001773565b600c806200111e600e886200172e565b6200112a919062001773565b6200113790600c620017ee565b620011446002886200172e565b6200115091906200172e565b6200115e9061016f620017ee565b6200116a919062001773565b6004600c6200117b600e896200172e565b62001187919062001773565b62001195896112c0620017a7565b620011a19190620017a7565b620011af906105b5620017ee565b620011bb919062001773565b620011c9617d4b876200172e565b620011d59190620017a7565b620011e19190620017a7565b620011ed91906200172e565b620011f991906200172e565b98975050505050505050565b6040805160018082528183019092526060916000919060208083019080368337019050509050828160008151811062001242576200124262001632565b602090810291909101015292915050565b6200126e86868686868662000de260201b62001f581760201c565b60035460ff161562000de25760405162461bcd60e51b815260206004820152602c60248201527f455243313135355061757361626c653a20746f6b656e207472616e736665722060448201526b1dda1a5b19481c185d5cd95960a21b606482015260840162000478565b620012f7846001600160a01b0316620014ae60201b62003a621760201c565b1562000de25760405163f23a6e6160e01b81526001600160a01b0385169063f23a6e6190620013339089908990889088908890600401620018cf565b6020604051808303816000875af192505050801562001371575060408051601f3d908101601f191682019092526200136e9181019062001916565b60015b62001432576200138062001949565b806308c379a01415620013c1575062001398620019a1565b80620013a55750620013c3565b8060405162461bcd60e51b815260040162000478919062001a30565b505b60405162461bcd60e51b815260206004820152603460248201527f455243313135353a207472616e7366657220746f206e6f6e204552433131353560448201527f526563656976657220696d706c656d656e746572000000000000000000000000606482015260840162000478565b6001600160e01b0319811663f23a6e6160e01b14620014a55760405162461bcd60e51b815260206004820152602860248201527f455243313135353a204552433131353552656365697665722072656a656374656044820152676420746f6b656e7360c01b606482015260840162000478565b50505050505050565b3b151590565b828054620014c29062001a45565b90600052602060002090601f016020900481019282620014e6576000855562001531565b82601f106200150157805160ff191683800117855562001531565b8280016001018555821562001531579182015b828111156200153157825182559160200191906001019062001514565b506200153f92915062001543565b5090565b5b808211156200153f576000815560010162001544565b80516001600160a01b03811681146200157257600080fd5b919050565b600080600080600080600060e0888a0312156200159357600080fd5b6200159e886200155a565b9650620015ae602089016200155a565b95506040880151945060608801519350620015cc608089016200155a565b9250620015dc60a089016200155a565b9150620015ec60c089016200155a565b905092959891949750929550565b634e487b7160e01b600052601160045260246000fd5b60008160001904831182151516156200162d576200162d620015fa565b500290565b634e487b7160e01b600052603260045260246000fd5b6000828210156200165d576200165d620015fa565b500390565b60008219821115620016785762001678620015fa565b500190565b634e487b7160e01b600052601260045260246000fd5b600082620016a557620016a56200167d565b500490565b600082620016bc57620016bc6200167d565b500690565b80516001600160501b03811681146200157257600080fd5b600080600080600060a08688031215620016f257600080fd5b620016fd86620016c1565b94506020860151935060408601519250606086015191506200172260808701620016c1565b90509295509295909350565b60008083128015600160ff1b8501841216156200174f576200174f620015fa565b6001600160ff1b03840183138116156200176d576200176d620015fa565b50500390565b6000826200178557620017856200167d565b600160ff1b821460001984141615620017a257620017a2620015fa565b500590565b600080821280156001600160ff1b0384900385131615620017cc57620017cc620015fa565b600160ff1b8390038412811615620017e857620017e8620015fa565b50500190565b60006001600160ff1b0381841382841380821686840486111615620018175762001817620015fa565b600160ff1b6000871282811687830589121615620018395762001839620015fa565b60008712925087820587128484161615620018585762001858620015fa565b87850587128184161615620018715762001871620015fa565b505050929093029392505050565b6000815180845260005b81811015620018a75760208185018101518683018201520162001889565b81811115620018ba576000602083870101525b50601f01601f19169290920160200192915050565b6001600160a01b03868116825285166020820152604081018490526060810183905260a0608082018190526000906200190b908301846200187f565b979650505050505050565b6000602082840312156200192957600080fd5b81516001600160e01b0319811681146200194257600080fd5b9392505050565b600060033d1115620019635760046000803e5060005160e01c5b90565b601f8201601f191681016001600160401b03811182821017156200199a57634e487b7160e01b600052604160045260246000fd5b6040525050565b600060443d1015620019b05790565b6040516003193d81016004833e81513d6001600160401b038083116024840183101715620019e057505050505090565b8285019150815181811115620019f95750505050505090565b843d870101602082850101111562001a145750505050505090565b62001a256020828601018762001966565b509095945050505050565b6020815260006200194260208301846200187f565b600181811c9082168062001a5a57607f821691505b6020821081141562001a7c57634e487b7160e01b600052602260045260246000fd5b50919050565b60805160a051615bd362001aaf600039600081816125bd0152614304015260006142d50152615bd36000f3fe6080604052600436106104b45760003560e01c80636d5433e61161026b578063ac8daba01161014f578063e985e9c5116100c1578063f242432a11610085578063f242432a14610e6a578063f2fde38b14610e8a578063f6844b0414610eaa578063f6a33e6d14610eca578063f8a433ec14610edf578063fa2b16cd14610ef4576104b4565b8063e985e9c514610db0578063e9cc3b5414610df9578063ee944ba714610e0e578063ef81336314610e30578063f074e34f14610e4a576104b4565b8063d0791de911610113578063d0791de914610cea578063d50ac89214610d0a578063d973fc2e14610d20578063dbdad46414610d40578063dd2cec7f14610d60578063e5b429c014610d96576104b4565b8063ac8daba014610c74578063b689af8414610c8a578063c771285b14610caa578063c78a0b8614610cc0578063cb7812fd14610cd5576104b4565b8063865117d7116101e857806394985ddd116101ac57806394985ddd14610bc9578063a22cb46514610be9578063a42616e814610c09578063a9665b7a14610c29578063ab32d59414610c3f578063ac0b78f214610c54576104b4565b8063865117d714610b485780638b3c3ef714610b685780638da5cb5b14610b7b57806392b56abb14610b9e57806393e51b6414610bb3576104b4565b8063717c2f5f1161022f578063717c2f5f14610ada5780637ab36b5314610aef5780637e266a3414610b055780637ef6d4a014610b1b5780637f44a9bb146108e9576104b4565b80636d5433e614610a435780636e21fc8714610a635780636e9f2b4b14610a9057806370e44c6a14610ab0578063715018a614610ac5576104b4565b80632eb2c2d61161039d5780634e3412b21161030f57806356f2520d116102d357806356f2520d146109a65780635c975abb146109c65780635e3f5422146109de578063659d8d4e146109f357806365ce645414610a235780636a1c3f20146108e9576104b4565b80634e3412b21461092b578063503f55811461094157806353177e661461096157806353c3a9951461098657806353c9a4821461055a576104b4565b806338d926171161036157806338d92617146108735780633cd21817146108935780634140524d146108a9578063422d1286146108c95780634954d2ec146108e95780634e1273f4146108fe576104b4565b80632eb2c2d6146107a7578063303dd553146107c7578063308620e2146107dd578063340d899a1461081557806336bb86b31461082b576104b4565b806313887d95116104365780631d6c263c116103fa5780631d6c263c1461071e578063234d7b8d1461073357806328f509051461074957806329948b27146107695780632a213dcb1461077e5780632aeca61414610794576104b4565b806313887d95146106545780631a513c9d146106815780631aa98354146106ae5780631c8108b1146106d15780631d65bd1b146106e8576104b4565b806306389ca11161047d57806306389ca1146105a557806307d6a560146105dd57806309fdd5a3146105ff5780630a6a001c146106145780630e89341c14610634576104b4565b8062fdd58e146104f757806301ffc9a71461052a57806303029e7d1461055a578063037a24141461056f5780630387da421461058f575b6026546001600160a01b03166000908152602860205260409020546104da903490614d20565b6026546001600160a01b0316600090815260286020526040902055005b34801561050357600080fd5b50610517610512366004614d54565b610f14565b6040519081526020015b60405180910390f35b34801561053657600080fd5b5061054a610545366004614d94565b610fae565b6040519015158152602001610521565b34801561056657600080fd5b50610517601e81565b34801561057b57600080fd5b5061051761058a366004614db1565b610ffe565b34801561059b57600080fd5b5061051760145481565b3480156105b157600080fd5b506105c56105c0366004614db1565b611013565b6040516001600160a01b039091168152602001610521565b3480156105e957600080fd5b506105f2611042565b6040516105219190614e35565b34801561060b57600080fd5b50601654610517565b34801561062057600080fd5b5061051761062f366004614e48565b6110d0565b34801561064057600080fd5b506105f261064f366004614e48565b6110f1565b34801561066057600080fd5b5061051761066f366004614e61565b60286020526000908152604090205481565b34801561068d57600080fd5b5061051761069c366004614e61565b60336020526000908152604090205481565b3480156106ba57600080fd5b506106c3611185565b604051610521929190614ef0565b3480156106dd57600080fd5b506106e66112f0565b005b3480156106f457600080fd5b506105c5610703366004614e48565b6032602052600090815260409020546001600160a01b031681565b34801561072a57600080fd5b506106e661133d565b34801561073f57600080fd5b50610517601d5481565b34801561075557600080fd5b506105c5610764366004614e48565b611805565b34801561077557600080fd5b506105f2611825565b34801561078a57600080fd5b5061051760135481565b6106e66107a2366004614f1e565b611832565b3480156107b357600080fd5b506106e66107c23660046150a6565b611f60565b3480156107d357600080fd5b5061051760195481565b3480156107e957600080fd5b506105176107f836600461515e565b603660209081526000928352604080842090915290825290205481565b34801561082157600080fd5b50610517601f5481565b34801561083757600080fd5b5061086661084636600461518a565b603560209081526000928352604080842090915290825290205460ff1681565b60405161052191906151c2565b34801561087f57600080fd5b506105f261088e366004614e48565b612018565b34801561089f57600080fd5b50610517601c5481565b3480156108b557600080fd5b506022546105c5906001600160a01b031681565b3480156108d557600080fd5b506106e66108e4366004614db1565b612031565b3480156108f557600080fd5b50610517600581565b34801561090a57600080fd5b5061091e6109193660046151ea565b6120dc565b60405161052191906152b4565b34801561093757600080fd5b50610517600a5481565b34801561094d57600080fd5b506106e661095c366004614e48565b612205565b34801561096d57600080fd5b50600e546105c59061010090046001600160a01b031681565b34801561099257600080fd5b506105c56109a1366004614e48565b61225d565b3480156109b257600080fd5b506105f26109c1366004614e48565b612287565b3480156109d257600080fd5b5060035460ff1661054a565b3480156109ea57600080fd5b506105f26122a0565b3480156109ff57600080fd5b5061054a610a0e366004614e48565b602b6020526000908152604090205460ff1681565b348015610a2f57600080fd5b506105c5610a3e366004614e48565b6122ad565b348015610a4f57600080fd5b50610517610a5e36600461518a565b6122bd565b348015610a6f57600080fd5b50610517610a7e366004614e61565b60296020526000908152604090205481565b348015610a9c57600080fd5b506007546105c5906001600160a01b031681565b348015610abc57600080fd5b506106e66122d6565b348015610ad157600080fd5b506106e6612395565b348015610ae657600080fd5b506105f26123cf565b348015610afb57600080fd5b5061051760155481565b348015610b1157600080fd5b50610517600b5481565b348015610b2757600080fd5b50610517610b36366004614e48565b602c6020526000908152604090205481565b348015610b5457600080fd5b506021546105c5906001600160a01b031681565b6106e6610b763660046152c7565b6123dc565b348015610b8757600080fd5b5060035461010090046001600160a01b03166105c5565b348015610baa57600080fd5b506105f26125a5565b348015610bbf57600080fd5b50610517601a5481565b348015610bd557600080fd5b506106e6610be436600461518a565b6125b2565b348015610bf557600080fd5b506106e6610c04366004615381565b612634565b348015610c1557600080fd5b506106e6610c243660046153b8565b61263f565b348015610c3557600080fd5b5061051760185481565b348015610c4b57600080fd5b50601e54610517565b348015610c6057600080fd5b506105f2610c6f366004614e48565b612bdd565b348015610c8057600080fd5b50610517601b5481565b348015610c9657600080fd5b506105f2610ca5366004614e61565b612bf6565b348015610cb657600080fd5b50610517600d5481565b348015610ccc57600080fd5b50610517601981565b348015610ce157600080fd5b506105f2612c0f565b348015610cf657600080fd5b506106e6610d05366004614d54565b612c1c565b348015610d1657600080fd5b5061051760175481565b348015610d2c57600080fd5b506106e6610d3b36600461518a565b612cd9565b348015610d4c57600080fd5b506106e6610d5b366004614e61565b612dd2565b348015610d6c57600080fd5b506105c5610d7b366004614e48565b602a602052600090815260409020546001600160a01b031681565b348015610da257600080fd5b50600c5461054a9060ff1681565b348015610dbc57600080fd5b5061054a610dcb366004615496565b6001600160a01b03918216600090815260016020908152604080832093909416825291909152205460ff1690565b348015610e0557600080fd5b506106e6612ed8565b348015610e1a57600080fd5b50610e23612f8f565b60405161052191906154c0565b348015610e3c57600080fd5b50600e5461054a9060ff1681565b348015610e5657600080fd5b506106e6610e653660046154d3565b61305b565b348015610e7657600080fd5b506106e6610e853660046154f0565b61324a565b348015610e9657600080fd5b506106e6610ea5366004614e61565b6133ec565b348015610eb657600080fd5b506106e6610ec5366004615554565b61348d565b348015610ed657600080fd5b506106e66134d0565b348015610eeb57600080fd5b50610517613603565b348015610f0057600080fd5b506106e6610f0f366004615588565b6136c0565b60006001600160a01b038316610f855760405162461bcd60e51b815260206004820152602b60248201527f455243313135353a2062616c616e636520717565727920666f7220746865207a60448201526a65726f206164647265737360a81b60648201526084015b60405180910390fd5b506000818152602081815260408083206001600160a01b03861684529091529020545b92915050565b60006001600160e01b03198216636cdb3d1360e11b1480610fdf57506001600160e01b031982166303a24d0760e21b145b80610fa857506301ffc9a760e01b6001600160e01b0319831614610fa8565b600061100b848484613a0b565b949350505050565b600080611021858585613a0b565b6000908152602a60205260409020546001600160a01b031695945050505050565b6011805461104f90615651565b80601f016020809104026020016040519081016040528092919081815260200182805461107b90615651565b80156110c85780601f1061109d576101008083540402835291602001916110c8565b820191906000526020600020905b8154815290600101906020018083116110ab57829003601f168201915b505050505081565b601e81815481106110e057600080fd5b600091825260209091200154905081565b60606002805461110090615651565b80601f016020809104026020016040519081016040528092919081815260200182805461112c90615651565b80156111795780601f1061114e57610100808354040283529160200191611179565b820191906000526020600020905b81548152906001019060200180831161115c57829003601f168201915b50505050509050919050565b6060806000601e805490506001600160401b038111156111a7576111a7614f5d565b6040519080825280602002602001820160405280156111d0578160200160208202803683370190505b50601e549091506000906001600160401b038111156111f1576111f1614f5d565b60405190808252806020026020018201604052801561121a578160200160208202803683370190505b50905060005b601e548110156112e657601e818154811061123d5761123d614cf4565b906000526020600020015483828151811061125a5761125a614cf4565b602002602001018181525050602a6000601e838154811061127d5761127d614cf4565b9060005260206000200154815260200190815260200160002060009054906101000a90046001600160a01b03168282815181106112bc576112bc614cf4565b6001600160a01b0390921660209283029190910190910152806112de81615686565b915050611220565b5090939092509050565b6003546001600160a01b036101009091041633146113205760405162461bcd60e51b8152600401610f7c906156a1565b60035460ff161561133557611333613a68565b565b611333613afb565b60035460ff16156113605760405162461bcd60e51b8152600401610f7c906156d6565b601e61136e42601d54613b53565b116113a15760405162461bcd60e51b815260206004820152600360248201526265313360e81b6044820152606401610f7c565b601e546000906064906113b590601a615700565b6113bf9190615735565b6034546001600160a01b03166000908152603360205260409020549091508111156114125760405162461bcd60e51b8152602060048201526003602482015262194c4d60ea1b6044820152606401610f7c565b6007546034546001600160a01b0390811691161461146957603454600780546001600160a01b0319166001600160a01b03909216918217905560408051602081019091526000815261146991906001908190613b7a565b60015b600381116117fd5761147c614be8565b6000828152603660209081526040808320838052808352818420548552600180855281845282852054868501526002855281845282852054868401526003855281845282852054606087015260048552925282205460808401819052835161150492610a5e916114f39187905b60200201516122bd565b6040860151610a5e908760036114e9565b825190915081141561151557611788565b602082015181141561159b576000602860006023866005811061153a5761153a614cf4565b01546001600160a01b03168152602081019190915260400160009081205491506028816023876005811061157057611570614cf4565b01546001600160a01b0316815260208101919091526040016000205561159581613c8a565b50611788565b604082015181141561161b57600060286000602386600581106115c0576115c0614cf4565b01546001600160a01b0316815260208101919091526040016000908120549150602881602387600581106115f6576115f6614cf4565b01546001600160a01b0316815260208101919091526040016000205561159581613d68565b60608201518114156116d157602860006023856005811061163e5761163e614cf4565b01546001600160a01b03908116825260208083019390935260409182016000908120546027549092168152602890935291205461167b9190614d20565b6027546001600160a01b031660009081526028602081905260408220929092559081602386600581106116b0576116b0614cf4565b01546001600160a01b03168152602081019190915260400160002055611788565b608082015181141561178857600060286000602386600581106116f6576116f6614cf4565b01546001600160a01b03168152602081019190915260400160009081205491506028816023876005811061172c5761172c614cf4565b01546001600160a01b0390811682526020808301939093526040918201600090812094909455600754168352602890915290205461176b908290614d20565b6007546001600160a01b0316600090815260286020526040902055505b6027546001600160a01b039081166000908152602860205260408082205460225490931682529020546117bb9190614d20565b6022546001600160a01b0390811660009081526028602052604080822093909355602754909116815290812055508190506117f581615686565b91505061146c565b505042601d55565b6023816005811061181557600080fd5b01546001600160a01b0316905081565b600f805461104f90615651565b60035460ff16156118555760405162461bcd60e51b8152600401610f7c906156d6565b600c5460ff16158061187557503360009081526029602052604090205415155b6118a65760405162461bcd60e51b8152602060048201526002602482015261329960f11b6044820152606401610f7c565b8215806118b35750600c83115b156118e55760405162461bcd60e51b8152602060048201526002602482015261653360f01b6044820152606401610f7c565b8115806118f25750601f82115b156119245760405162461bcd60e51b8152602060048201526002602482015261194d60f21b6044820152606401610f7c565b82600414806119335750826006145b8061193e5750826009145b80611949575082600b145b80156119555750601e82115b1561197d576040516324e2ba2160e11b81526004810184905260248101839052604401610f7c565b826002148015611991575061199184613a26565b801561199d5750601d82115b156119c5576040516324e2ba2160e11b81526004810184905260248101839052604401610f7c565b8260021480156119db57506119d984613a26565b155b80156119e75750601c82115b15611a0f576040516324e2ba2160e11b81526004810184905260248101839052604401610f7c565b6000611a1c858585613a0b565b9050428111158015611a305750601b548110155b611a615760405162461bcd60e51b8152602060048201526002602482015261653560f01b6044820152606401610f7c565b6000818152602a60205260409020546001600160a01b031615611aab5760405162461bcd60e51b8152602060048201526002602482015261329b60f11b6044820152606401610f7c565b6001600160a01b038216611abd573391505b3360009081526029602052604081205415611bb6575033600090815260296020526040902054600190611af1908290615749565b33600090815260296020526040902055600b54611b0f906001614d20565b600b55600d5415611bb6576001600d54611b299190615749565b600d556000828152602b60205260408120805460ff19166001908117909155602d80548083018255928190527f4a2cc91ee622da3bc833a54c37ffcb6f3ec23b7793efc5eaf5e71b7b406c5c0690920180546001600160a01b031916331790559054611b959190615749565b6000838152602c6020526040902055600d54611bb657600c805460ff191690555b80611e8757611bc3613603565b341015611bf75760405162461bcd60e51b8152602060048201526002602482015261653760f01b6044820152606401610f7c565b60006064611c06600534615700565b611c109190615735565b6022546001600160a01b0316600090815260286020526040902054909150611c39908290614d20565b6022546001600160a01b03166000908152602860205260408120919091556064611c64600534615700565b611c6e9190615735565b6007549091506001600160a01b0316611cc7576021546001600160a01b0316600090815260286020526040902054611ca7908290614d20565b6021546001600160a01b0316600090815260286020526040902055611d09565b6007546001600160a01b0316600090815260286020526040902054611ced908290614d20565b6007546001600160a01b03166000908152602860205260409020555b60006064611d18600534615700565b611d229190615735565b6021546001600160a01b0316600090815260286020526040902054909150611d4b908290614d20565b6021546001600160a01b03166000908152602860205260408120919091556064611d76601934615700565b611d809190615735565b6027546001600160a01b0316600090815260286020526040902054909150611da9908290614d20565b6027546001600160a01b03166000908152602860205260408120919091556064611dd4601e34615700565b611dde9190615735565b6024546001600160a01b0316600090815260286020526040902054909150611e07908290614d20565b6024546001600160a01b03166000908152602860205260408120919091556064611e32601e34615700565b611e3c9190615735565b6025546001600160a01b0316600090815260286020526040902054909150611e65908290614d20565b6025546001600160a01b03166000908152602860205260409020555050505050505b611ea38383600160405180602001604052806000815250613b7a565b601e8054600181019091557f50bb669a95c7b50b7e8a6f09454034b2b14cf2b85c730dca9a539ca82cb6e350018290556000828152602a6020526040902080546001600160a01b0319166001600160a01b03851617905542601c5580611f5857611f0b613e1c565b60408051878152602081018790529081018590526001600160a01b038416907fa51e9b2ef1f037dee551eb226d6d1581c8fb0e0243820ebd1fbb41a13e6c23649060600160405180910390a25b505050505050565b6001600160a01b038516331480611f7c5750611f7c8533610dcb565b611fe35760405162461bcd60e51b815260206004820152603260248201527f455243313135353a207472616e736665722063616c6c6572206973206e6f74206044820152711bdddb995c881b9bdc88185c1c1c9bdd995960721b6064820152608401610f7c565b60405162461bcd60e51b815260206004820152600360248201526265323760e81b6044820152606401610f7c565b5050505050565b6031602052600090815260409020805461104f90615651565b6003546001600160a01b036101009091041633146120615760405162461bcd60e51b8152600401610f7c906156a1565b60035460ff16156120845760405162461bcd60e51b8152600401610f7c906156d6565b6000612091848484613a0b565b9050601b546000146120d457601b5481106120d45760405162461bcd60e51b81526020600482015260036024820152620ca64760eb1b6044820152606401610f7c565b601b55505050565b606081518351146121415760405162461bcd60e51b815260206004820152602960248201527f455243313135353a206163636f756e747320616e6420696473206c656e677468604482015268040dad2e6dac2e8c6d60bb1b6064820152608401610f7c565b600083516001600160401b0381111561215c5761215c614f5d565b604051908082528060200260200182016040528015612185578160200160208202803683370190505b50905060005b84518110156121fd576121d08582815181106121a9576121a9614cf4565b60200260200101518583815181106121c3576121c3614cf4565b6020026020010151610f14565b8282815181106121e2576121e2614cf4565b60209081029190910101526121f681615686565b905061218b565b509392505050565b6003546001600160a01b036101009091041633146122355760405162461bcd60e51b8152600401610f7c906156a1565b60035460ff16156122585760405162461bcd60e51b8152600401610f7c906156d6565b601f55565b602d818154811061226d57600080fd5b6000918252602090912001546001600160a01b0316905081565b602e602052600090815260409020805461104f90615651565b6010805461104f90615651565b6016818154811061226d57600080fd5b6000818310156122cd57816122cf565b825b9392505050565b33600090815260286020526040902054662386f26fc1000011156123225760405162461bcd60e51b815260206004820152600360248201526265313560e81b6044820152606401610f7c565b3360008181526028602052604080822080549083905590519092839290917f2f174ca282119315c59efaf21147aef438581dabdeb498198ae28964373dd8bc9190a3604051339082156108fc029083906000818181858888f19350505050158015612391573d6000803e3d6000fd5b5050565b6003546001600160a01b036101009091041633146123c55760405162461bcd60e51b8152600401610f7c906156a1565b6113336000613fb3565b6005805461104f90615651565b60035460ff16156123ff5760405162461bcd60e51b8152600401610f7c906156d6565b600e5461010090046001600160a01b0316156124425760405162461bcd60e51b81526020600482015260026024820152610ca760f31b6044820152606401610f7c565b600061245060135442613b53565b11156124835760405162461bcd60e51b8152602060048201526002602482015261653960f01b6044820152606401610f7c565b6000600261248f613603565b6124999034615735565b6124a39190615735565b9050601e8110156124dc5760405162461bcd60e51b815260206004820152600360248201526206531360ec1b6044820152606401610f7c565b600e8054610100600160a81b0319163361010090810291909117918290556001600160a01b0391041660009081526028602052604090205461251f903490614d20565b600e5461010090046001600160a01b0316600090815260286020908152604090912091909155855161255791600f9190880190614c06565b50815161256b906010906020850190614c06565b50835161257f906011906020870190614c06565b508251612593906012906020860190614c06565b5050600e805460ff1916905550505050565b6009805461104f90615651565b336001600160a01b037f0000000000000000000000000000000000000000000000000000000000000000161461262a5760405162461bcd60e51b815260206004820152601f60248201527f4f6e6c7920565246436f6f7264696e61746f722063616e2066756c66696c6c006044820152606401610f7c565b612391828261400d565b612391338383614190565b60035460ff16156126625760405162461bcd60e51b8152600401610f7c906156d6565b600061266f888888613a0b565b6000818152602a60205260409020549091506001600160a01b03166126bc5760405162461bcd60e51b815260206004820152600360248201526265313160e81b6044820152606401610f7c565b6000818152602a60205260409020546001600160a01b031633146127085760405162461bcd60e51b815260206004820152600360248201526232989960e91b6044820152606401610f7c565b6000818152602b602052604090205460019060ff161561273d576004612730601b5442614271565b61273a9190615735565b90505b60008111612749575060015b60015b60038111612a465780600314801561277357506000838152602b602052604090205460ff16155b1561277d57612a34565b83612789600183615749565b8151811061279957612799614cf4565b602002602001015160048111156127b2576127b26151ac565b600082815260356020908152604080832087845290915290205460ff1660048111156127e0576127e06151ac565b14612a3457600081815260366020908152604080832060358352818420878552909252822054829060ff16600481111561281c5761281c6151ac565b600481111561282d5761282d6151ac565b81526020019081526020016000205411156128ff5760008181526036602090815260408083206035835281842087855290925282205484929060ff16600481111561287a5761287a6151ac565b600481111561288b5761288b6151ac565b8152602001908152602001600020546128a49190615749565b60008281526036602090815260408083206035835281842088855290925282205490919060ff1660048111156128dc576128dc6151ac565b60048111156128ed576128ed6151ac565b81526020810191909152604001600020555b600081815260366020526040812083918661291b600186615749565b8151811061292b5761292b614cf4565b60200260200101516004811115612944576129446151ac565b6004811115612955576129556151ac565b81526020019081526020016000205461296e9190614d20565b60008281526036602052604081209086612989600186615749565b8151811061299957612999614cf4565b602002602001015160048111156129b2576129b26151ac565b60048111156129c3576129c36151ac565b8152602081019190915260400160002055836129e0600183615749565b815181106129f0576129f0614cf4565b602090810291909101810151600083815260358352604080822087835290935291909120805460ff19166001836004811115612a2e57612a2e6151ac565b02179055505b80612a3e81615686565b91505061274c565b508515801590612a5557508415155b8015612a6057508315155b15612bd2576000602a6000612a76898989613a0b565b81526020810191909152604001600020546001600160a01b031690508015801590612abb57506000838152603260205260409020546001600160a01b03828116911614155b15612bd0576000838152603260209081526040808320546001600160a01b03168352603390915290205415612b40576000838152603260209081526040808320546001600160a01b031683526033909152902054612b1a908390615749565b6000848152603260209081526040808320546001600160a01b0316835260339091529020555b6001600160a01b038116600090815260336020526040902054612b64908390614d20565b6001600160a01b0380831660008181526033602081815260408084209687558984526032825280842080546001600160a01b0319168617905560345490951683525291822054915290541115612bd057603480546001600160a01b0319166001600160a01b0383161790555b505b505050505050505050565b602f602052600090815260409020805461104f90615651565b6030602052600090815260409020805461104f90615651565b6012805461104f90615651565b6003546001600160a01b03610100909104163314612c4c5760405162461bcd60e51b8152600401610f7c906156a1565b80612c9557602280546001600160a01b038481166001600160a01b0319831681179093551660008181526028602052604080822080549483529082209390935590815290555050565b602180546001600160a01b038481166001600160a01b0319831681179093551660008181526028602052604080822080549483529082209390935590815290555050565b6007546001600160a01b0316331480612d13575060035461010090046001600160a01b03166001600160a01b0316336001600160a01b0316145b612d2f5760405162461bcd60e51b8152600401610f7c90615760565b612d4181670de0b6b3a7640000615700565b9050612d5582670de0b6b3a7640000615700565b9150601554811015612d8f5760405162461bcd60e51b815260206004820152600360248201526265333160e81b6044820152606401610f7c565b601554821015612dc75760405162461bcd60e51b815260206004820152600360248201526232999960e91b6044820152606401610f7c565b601491909155600a55565b6007546001600160a01b0316331480612e0c575060035461010090046001600160a01b03166001600160a01b0316336001600160a01b0316145b612e285760405162461bcd60e51b8152600401610f7c90615760565b601854612e37601a5442613b53565b1015612e6b5760405162461bcd60e51b815260206004820152600360248201526265323960e81b6044820152606401610f7c565b6001600160a01b03811660009081526029602052604090205415612eb75760405162461bcd60e51b815260206004820152600360248201526206533360ec1b6044820152606401610f7c565b42601a556001600160a01b0316600090815260296020526040902060019055565b60035460ff1615612efb5760405162461bcd60e51b8152600401610f7c906156d6565b601754612f0a60195442613b53565b1015612f3e5760405162461bcd60e51b815260206004820152600360248201526232989b60e91b6044820152606401610f7c565b601654600110612f765760405162461bcd60e51b815260206004820152600360248201526265313760e81b6044820152606401610f7c565b42601955602054601f54612f8a91906142d1565b600655565b6016546060906000906001600160401b03811115612faf57612faf614f5d565b604051908082528060200260200182016040528015612fd8578160200160208202803683370190505b50905060005b6016548110156130555760168181548110612ffb57612ffb614cf4565b9060005260206000200160009054906101000a90046001600160a01b031682828151811061302b5761302b614cf4565b6001600160a01b03909216602092830291909101909101528061304d81615686565b915050612fde565b50919050565b6007546001600160a01b0316331480613095575060035461010090046001600160a01b03166001600160a01b0316336001600160a01b0316145b6130b15760405162461bcd60e51b8152600401610f7c90615760565b600060026130bd613603565b600e5461010090046001600160a01b03166000908152602860205260409020546130e79190615735565b6130f19190615735565b9050601e81101561310157600091505b81156131ba57600e805460ff1916600117908190556001600160a01b03610100909104811660009081526028602052604080822054602654909316825290205461314b9190614d20565b6026546001600160a01b0390811660009081526028602052604080822093909355600e546101009004909116815290812055613187428261444d565b601355600e546040805160208101909152600081526123919161010090046001600160a01b031690600290600190613b7a565b600e80546001600160a81b03191690556040805160208101918290526000908190526131e891600f91614c06565b5060408051602081019182905260009081905261320791601091614c06565b5060408051602081019182905260009081905261322691601191614c06565b5060408051602081019182905260009081905261324591601291614c06565b505050565b6001600160a01b03851633148061326657506132668533610dcb565b6132c45760405162461bcd60e51b815260206004820152602960248201527f455243313135353a2063616c6c6572206973206e6f74206f776e6572206e6f7260448201526808185c1c1c9bdd995960ba1b6064820152608401610f7c565b601b548310156132fc5760405162461bcd60e51b815260206004820152600360248201526232991b60e91b6044820152606401610f7c565b6133098585858585614475565b6000838152602a6020908152604080832080546001600160a01b0319166001600160a01b038981169182179092559089168452602890925280832054918352909120546133569190614d20565b6001600160a01b038086166000908152602860209081526040808320949094559188168152828120819055858152602b909152205460ff1615612011576000838152602c6020526040902054602d805486929081106133b7576133b7614cf4565b9060005260206000200160006101000a8154816001600160a01b0302191690836001600160a01b031602179055505050505050565b6003546001600160a01b0361010090910416331461341c5760405162461bcd60e51b8152600401610f7c906156a1565b6001600160a01b0381166134815760405162461bcd60e51b815260206004820152602660248201527f4f776e61626c653a206e6577206f776e657220697320746865207a65726f206160448201526564647265737360d01b6064820152608401610f7c565b61348a81613fb3565b50565b6003546001600160a01b036101009091041633146134bd5760405162461bcd60e51b8152600401610f7c906156a1565b8051612391906005906020840190614c06565b60035460ff16156134f35760405162461bcd60e51b8152600401610f7c906156d6565b600c5460ff161561352c5760405162461bcd60e51b815260206004820152600360248201526206532360ec1b6044820152606401610f7c565b600160005b60165481101561358a57336001600160a01b03166016828154811061355857613558614cf4565b6000918252602090912001546001600160a01b0316141561357857600091505b8061358281615686565b915050613531565b50806135be5760405162461bcd60e51b815260206004820152600360248201526265323160e81b6044820152606401610f7c565b50601680546001810182556000919091527fd833147d7dc355ba459fc788f669e58cfaf9dc25ddcd0702e87d69c7b51242890180546001600160a01b03191633179055565b600080600860009054906101000a90046001600160a01b03166001600160a01b031663feaf968c6040518163ffffffff1660e01b815260040160a060405180830381865afa158015613659573d6000803e3d6000fd5b505050506040513d601f19601f8201168201806040525081019061367d9190615796565b5050509150506000816402540be4006136969190615700565b905080601454670de0b6b3a76400006136af9190615700565b6136b99190615735565b9250505090565b60006136cd888888613a0b565b905060ff855111156137075760405162461bcd60e51b815260206004820152600360248201526232991960e91b6044820152606401610f7c565b6000818152602a60205260409020546001600160a01b03166137515760405162461bcd60e51b815260206004820152600360248201526265323360e81b6044820152606401610f7c565b6000818152602a60205260409020546001600160a01b0316331461379d5760405162461bcd60e51b8152602060048201526003602482015262194c8d60ea1b6044820152606401610f7c565b6137c085604051806040016040528060018152602001600160fd1b8152506145d0565b6137e5576000818152602e6020908152604090912086516137e392880190614c06565b505b61380883604051806040016040528060018152602001600160fd1b8152506145d0565b61382e57336000908152603060209081526040909120845161382c92860190614c06565b505b61385182604051806040016040528060018152602001600160fd1b8152506145d0565b613876576000818152603160209081526040909120835161387492850190614c06565b505b61389984604051806040016040528060018152602001600160fd1b8152506145d0565b6139d95760408051808201825260008082526020918201528151808301909252855182528086019082015261398890613983600580546138d890615651565b80601f016020809104026020016040519081016040528092919081815260200182805461390490615651565b80156139515780601f1061392657610100808354040283529160200191613951565b820191906000526020600020905b81548152906001019060200180831161393457829003601f168201915b505050505060408051808201825260008082526020918201528151808301909252825182529182019181019190915290565b614629565b6139ba5760405162461bcd60e51b815260206004820152600360248201526265323560e81b6044820152606401610f7c565b6000818152602f602090815260409091208551612bd292870190614c06565b5050505050505050565b60006139f26201518083615700565b6139fc9084615749565b905082811115610fa857600080fd5b600062015180613a1c85858561466d565b61100b9190615700565b6000613a336004836157e6565b158015613a495750613a466064836157e6565b15155b80610fa85750613a5b610190836157e6565b1592915050565b3b151590565b60035460ff16613ab15760405162461bcd60e51b815260206004820152601460248201527314185d5cd8589b194e881b9bdd081c185d5cd95960621b6044820152606401610f7c565b6003805460ff191690557f5db9ee0a495bf2e6ff9c91a7834c1ba4fdd244a5e8aa4e537bd38aeae4b073aa335b6040516001600160a01b03909116815260200160405180910390a1565b60035460ff1615613b1e5760405162461bcd60e51b8152600401610f7c906156d6565b6003805460ff191660011790557f62e78cea01bee320cd4e420270b5ea74000d11b0c9f74754ebdbfc544b05a258613ade3390565b600081831115613b6257600080fd5b62015180613b708484615749565b6122cf9190615735565b6001600160a01b038416613bda5760405162461bcd60e51b815260206004820152602160248201527f455243313135353a206d696e7420746f20746865207a65726f206164647265736044820152607360f81b6064820152608401610f7c565b33613bfa81600087613beb886147aa565b613bf4886147aa565b876147f5565b6000848152602081815260408083206001600160a01b038916845290915281208054859290613c2a908490614d20565b909155505060408051858152602081018590526001600160a01b0380881692600092918516917fc3d58168c5ae7397731d063d5bbf3d657854427343f4c083240f7aacaa2d0f62910160405180910390a46120118160008787878761485d565b601e54600090613c9a9083615735565b905060005b601e54811015613245578160286000602a6000601e8681548110613cc557613cc5614cf4565b600091825260208083209091015483528281019390935260409182018120546001600160a01b03168452918301939093529101902054613d059190614d20565b60286000602a6000601e8681548110613d2057613d20614cf4565b600091825260208083209091015483528281019390935260409182018120546001600160a01b0316845291830193909352910190205580613d6081615686565b915050613c9f565b602d54600090613d789083615735565b905060005b602d54811015613245578160286000602d8481548110613d9f57613d9f614cf4565b60009182526020808320909101546001600160a01b03168352820192909252604001902054613dce9190614d20565b60286000602d8481548110613de557613de5614cf4565b60009182526020808320909101546001600160a01b0316835282019290925260400190205580613e1481615686565b915050613d7d565b600b54601e54600091613e2e91615749565b905069152d02c7e14af6800000601454101561348a57613e5061016d826157e6565b61348a57600a54601454613e649190614d20565b60145550565b8451811015613f4d576000858281518110613e8757613e87614cf4565b602002602001015190506000858381518110613ea557613ea5614cf4565b602090810291909101810151600084815280835260408082206001600160a01b038e168352909352919091205490915081811015613ef55760405162461bcd60e51b8152600401610f7c906157fa565b6000838152602081815260408083206001600160a01b038e8116855292528083208585039055908b16825281208054849290613f32908490614d20565b9250508190555050505080613f4690615686565b9050613e6a565b50846001600160a01b0316866001600160a01b0316826001600160a01b03167f4a39dc06d4c0dbc64b70af90fd698a233a518aa5d07e595d983b8c0526c8f7fb8787604051613f9d929190615844565b60405180910390a4611f588187878787876149b9565b600380546001600160a01b03838116610100818102610100600160a81b031985161790945560405193909204169182907f8be0079c531659141344cd1fd0a4f28419497f9722a3daafe3b4186f6b6457e090600090a35050565b81600654146140445760405162461bcd60e51b81526020600482015260036024820152620ca62760eb1b6044820152606401610f7c565b6000811161407a5760405162461bcd60e51b815260206004820152600360248201526265313960e81b6044820152606401610f7c565b60165460009061408a90836157e6565b905060296000601683815481106140a3576140a3614cf4565b60009182526020808320909101546001600160a01b031683528201929092526040019020546140d3906001614d20565b60296000601684815481106140ea576140ea614cf4565b60009182526020808320909101546001600160a01b03168352820192909252604001902055601680548290811061412357614123614cf4565b600091825260209182902001546040518481526001600160a01b03909116917f8dcb1b46b7e05dd96ecd3ae5f7b77b7c6e369f8ced83a2ab24368c4f8e16b8c9910160405180910390a2604080516000815260208101918290525161418a91601691614c8a565b50505050565b816001600160a01b0316836001600160a01b031614156142045760405162461bcd60e51b815260206004820152602960248201527f455243313135353a2073657474696e6720617070726f76616c20737461747573604482015268103337b91039b2b63360b91b6064820152608401610f7c565b6001600160a01b03838116600081815260016020908152604080832094871680845294825291829020805460ff191686151590811790915591519182527f17307eab39ab6107e8899845ad3d59bd9653f200f220920489ca2b5937696c31910160405180910390a3505050565b60008183111561428057600080fd5b6000808080808061429c614297620151808b615735565b614a74565b919750955093506142b3614297620151808a615735565b919450925090506142c48684615749565b9998505050505050505050565b60007f00000000000000000000000000000000000000000000000000000000000000006001600160a01b0316634000aea07f000000000000000000000000000000000000000000000000000000000000000084866000604051602001614341929190918252602082015260400190565b6040516020818303038152906040526040518463ffffffff1660e01b815260040161436e93929190615869565b6020604051808303816000875af115801561438d573d6000803e3d6000fd5b505050506040513d601f19601f820116820180604052508101906143b19190615890565b50600083815260046020818152604080842054815180840189905280830186905230606082015260808082018390528351808303909101815260a09091019092528151918301919091209387905291905261440d906001614d20565b60008581526004602052604090205561100b8482604080516020808201949094528082019290925280518083038201815260609092019052805191012090565b600061445c6201518083615700565b6144669084614d20565b905082811015610fa857600080fd5b6001600160a01b0384166144d95760405162461bcd60e51b815260206004820152602560248201527f455243313135353a207472616e7366657220746f20746865207a65726f206164604482015264647265737360d81b6064820152608401610f7c565b336144e9818787613beb886147aa565b6000848152602081815260408083206001600160a01b038a1684529091529020548381101561452a5760405162461bcd60e51b8152600401610f7c906157fa565b6000858152602081815260408083206001600160a01b038b8116855292528083208785039055908816825281208054869290614567908490614d20565b909155505060408051868152602081018690526001600160a01b03808916928a821692918616917fc3d58168c5ae7397731d063d5bbf3d657854427343f4c083240f7aacaa2d0f62910160405180910390a46145c782888888888861485d565b50505050505050565b6000816040516020016145e391906158ad565b604051602081830303815290604052805190602001208360405160200161460a91906158ad565b6040516020818303038152906040528051906020012014905092915050565b80518251600091111561463e57506000610fa8565b81602001518360200151141561465657506001610fa8565b508051602092830151929091015181902091201490565b60006107b284101561467e57600080fd5b838383600062253d8c60046064600c614698600e886158c9565b6146a29190615908565b6146ae88611324615936565b6146b89190615936565b6146c29190615908565b6146cd906003615977565b6146d79190615908565b600c806146e5600e886158c9565b6146ef9190615908565b6146fa90600c615977565b6147056002886158c9565b61470f91906158c9565b61471b9061016f615977565b6147259190615908565b6004600c614734600e896158c9565b61473e9190615908565b61474a896112c0615936565b6147549190615936565b614760906105b5615977565b61476a9190615908565b614776617d4b876158c9565b6147809190615936565b61478a9190615936565b61479491906158c9565b61479e91906158c9565b98975050505050505050565b604080516001808252818301909252606091600091906020808301908036833701905050905082816000815181106147e4576147e4614cf4565b602090810291909101015292915050565b60035460ff1615611f585760405162461bcd60e51b815260206004820152602c60248201527f455243313135355061757361626c653a20746f6b656e207472616e736665722060448201526b1dda1a5b19481c185d5cd95960a21b6064820152608401610f7c565b6001600160a01b0384163b15611f585760405163f23a6e6160e01b81526001600160a01b0385169063f23a6e61906148a190899089908890889088906004016159fc565b6020604051808303816000875af19250505080156148dc575060408051601f3d908101601f191682019092526148d991810190615a41565b60015b614989576148e8615a5e565b806308c379a0141561492257506148fd615a7a565b806149085750614924565b8060405162461bcd60e51b8152600401610f7c9190614e35565b505b60405162461bcd60e51b815260206004820152603460248201527f455243313135353a207472616e7366657220746f206e6f6e20455243313135356044820152732932b1b2b4bb32b91034b6b83632b6b2b73a32b960611b6064820152608401610f7c565b6001600160e01b0319811663f23a6e6160e01b146145c75760405162461bcd60e51b8152600401610f7c90615b03565b6001600160a01b0384163b15611f585760405163bc197c8160e01b81526001600160a01b0385169063bc197c81906149fd9089908990889088908890600401615b4b565b6020604051808303816000875af1925050508015614a38575060408051601f3d908101601f19168201909252614a3591810190615a41565b60015b614a44576148e8615a5e565b6001600160e01b0319811663bc197c8160e01b146145c75760405162461bcd60e51b8152600401610f7c90615b03565b60008080838162253d8c614a8b8362010bd9615936565b614a959190615936565b9050600062023ab1614aa8836004615977565b614ab29190615908565b90506004614ac38262023ab1615977565b614ace906003615936565b614ad89190615908565b614ae290836158c9565b9150600062164b09614af5846001615936565b614b0190610fa0615977565b614b0b9190615908565b90506004614b1b826105b5615977565b614b259190615908565b614b2f90846158c9565b614b3a90601f615936565b9250600061098f614b4c856050615977565b614b569190615908565b905060006050614b688361098f615977565b614b729190615908565b614b7c90866158c9565b9050614b89600b83615908565b9450614b9685600c615977565b614ba1836002615936565b614bab91906158c9565b91508483614bba6031876158c9565b614bc5906064615977565b614bcf9190615936565b614bd99190615936565b9a919950975095505050505050565b6040518060a001604052806005906020820280368337509192915050565b828054614c1290615651565b90600052602060002090601f016020900481019282614c345760008555614c7a565b82601f10614c4d57805160ff1916838001178555614c7a565b82800160010185558215614c7a579182015b82811115614c7a578251825591602001919060010190614c5f565b50614c86929150614cdf565b5090565b828054828255906000526020600020908101928215614c7a579160200282015b82811115614c7a57825182546001600160a01b0319166001600160a01b03909116178255602090920191600190910190614caa565b5b80821115614c865760008155600101614ce0565b634e487b7160e01b600052603260045260246000fd5b634e487b7160e01b600052601160045260246000fd5b60008219821115614d3357614d33614d0a565b500190565b80356001600160a01b0381168114614d4f57600080fd5b919050565b60008060408385031215614d6757600080fd5b614d7083614d38565b946020939093013593505050565b6001600160e01b03198116811461348a57600080fd5b600060208284031215614da657600080fd5b81356122cf81614d7e565b600080600060608486031215614dc657600080fd5b505081359360208301359350604090920135919050565b60005b83811015614df8578181015183820152602001614de0565b8381111561418a5750506000910152565b60008151808452614e21816020860160208601614ddd565b601f01601f19169290920160200192915050565b6020815260006122cf6020830184614e09565b600060208284031215614e5a57600080fd5b5035919050565b600060208284031215614e7357600080fd5b6122cf82614d38565b600081518084526020808501945080840160005b83811015614eac57815187529582019590820190600101614e90565b509495945050505050565b600081518084526020808501945080840160005b83811015614eac5781516001600160a01b031687529582019590820190600101614ecb565b604081526000614f036040830185614e7c565b8281036020840152614f158185614eb7565b95945050505050565b60008060008060808587031215614f3457600080fd5b843593506020850135925060408501359150614f5260608601614d38565b905092959194509250565b634e487b7160e01b600052604160045260246000fd5b601f8201601f191681016001600160401b0381118282101715614f9857614f98614f5d565b6040525050565b60006001600160401b03821115614fb857614fb8614f5d565b5060051b60200190565b600082601f830112614fd357600080fd5b81356020614fe082614f9f565b604051614fed8282614f73565b83815260059390931b850182019282810191508684111561500d57600080fd5b8286015b848110156150285780358352918301918301615011565b509695505050505050565b600082601f83011261504457600080fd5b81356001600160401b0381111561505d5761505d614f5d565b604051615074601f8301601f191660200182614f73565b81815284602083860101111561508957600080fd5b816020850160208301376000918101602001919091529392505050565b600080600080600060a086880312156150be57600080fd5b6150c786614d38565b94506150d560208701614d38565b935060408601356001600160401b03808211156150f157600080fd5b6150fd89838a01614fc2565b9450606088013591508082111561511357600080fd5b61511f89838a01614fc2565b9350608088013591508082111561513557600080fd5b5061514288828901615033565b9150509295509295909350565b803560058110614d4f57600080fd5b6000806040838503121561517157600080fd5b823591506151816020840161514f565b90509250929050565b6000806040838503121561519d57600080fd5b50508035926020909101359150565b634e487b7160e01b600052602160045260246000fd5b60208101600583106151e457634e487b7160e01b600052602160045260246000fd5b91905290565b600080604083850312156151fd57600080fd5b82356001600160401b038082111561521457600080fd5b818501915085601f83011261522857600080fd5b8135602061523582614f9f565b6040516152428282614f73565b83815260059390931b850182019282810191508984111561526257600080fd5b948201945b838610156152875761527886614d38565b82529482019490820190615267565b9650508601359250508082111561529d57600080fd5b506152aa85828601614fc2565b9150509250929050565b6020815260006122cf6020830184614e7c565b600080600080608085870312156152dd57600080fd5b84356001600160401b03808211156152f457600080fd5b61530088838901615033565b9550602087013591508082111561531657600080fd5b61532288838901615033565b9450604087013591508082111561533857600080fd5b61534488838901615033565b9350606087013591508082111561535a57600080fd5b5061536787828801615033565b91505092959194509250565b801515811461348a57600080fd5b6000806040838503121561539457600080fd5b61539d83614d38565b915060208301356153ad81615373565b809150509250929050565b600080600080600080600060e0888a0312156153d357600080fd5b87359650602080890135965060408901359550606089013594506080890135935060a0890135925060c08901356001600160401b0381111561541457600080fd5b8901601f81018b1361542557600080fd5b803561543081614f9f565b60405161543d8282614f73565b82815260059290921b830184019184810191508d83111561545d57600080fd5b928401925b82841015615482576154738461514f565b82529284019290840190615462565b809550505050505092959891949750929550565b600080604083850312156154a957600080fd5b6154b283614d38565b915061518160208401614d38565b6020815260006122cf6020830184614eb7565b6000602082840312156154e557600080fd5b81356122cf81615373565b600080600080600060a0868803121561550857600080fd5b61551186614d38565b945061551f60208701614d38565b9350604086013592506060860135915060808601356001600160401b0381111561554857600080fd5b61514288828901615033565b60006020828403121561556657600080fd5b81356001600160401b0381111561557c57600080fd5b61100b84828501615033565b600080600080600080600060e0888a0312156155a357600080fd5b87359650602088013595506040880135945060608801356001600160401b03808211156155cf57600080fd5b6155db8b838c01615033565b955060808a01359150808211156155f157600080fd5b6155fd8b838c01615033565b945060a08a013591508082111561561357600080fd5b61561f8b838c01615033565b935060c08a013591508082111561563557600080fd5b506156428a828b01615033565b91505092959891949750929550565b600181811c9082168061566557607f821691505b6020821081141561305557634e487b7160e01b600052602260045260246000fd5b600060001982141561569a5761569a614d0a565b5060010190565b6020808252818101527f4f776e61626c653a2063616c6c6572206973206e6f7420746865206f776e6572604082015260600190565b60208082526010908201526f14185d5cd8589b194e881c185d5cd95960821b604082015260600190565b600081600019048311821515161561571a5761571a614d0a565b500290565b634e487b7160e01b600052601260045260246000fd5b6000826157445761574461571f565b500490565b60008282101561575b5761575b614d0a565b500390565b602080825260029082015261653160f01b604082015260600190565b805169ffffffffffffffffffff81168114614d4f57600080fd5b600080600080600060a086880312156157ae57600080fd5b6157b78661577c565b94506020860151935060408601519250606086015191506157da6080870161577c565b90509295509295909350565b6000826157f5576157f561571f565b500690565b6020808252602a908201527f455243313135353a20696e73756666696369656e742062616c616e636520666f60408201526939103a3930b739b332b960b11b606082015260800190565b6040815260006158576040830185614e7c565b8281036020840152614f158185614e7c565b60018060a01b0384168152826020820152606060408201526000614f156060830184614e09565b6000602082840312156158a257600080fd5b81516122cf81615373565b600082516158bf818460208701614ddd565b9190910192915050565b60008083128015600160ff1b8501841216156158e7576158e7614d0a565b6001600160ff1b038401831381161561590257615902614d0a565b50500390565b6000826159175761591761571f565b600160ff1b82146000198414161561593157615931614d0a565b500590565b600080821280156001600160ff1b038490038513161561595857615958614d0a565b600160ff1b839003841281161561597157615971614d0a565b50500190565b60006001600160ff1b038184138284138082168684048611161561599d5761599d614d0a565b600160ff1b60008712828116878305891216156159bc576159bc614d0a565b600087129250878205871284841616156159d8576159d8614d0a565b878505871281841616156159ee576159ee614d0a565b505050929093029392505050565b6001600160a01b03868116825285166020820152604081018490526060810183905260a060808201819052600090615a3690830184614e09565b979650505050505050565b600060208284031215615a5357600080fd5b81516122cf81614d7e565b600060033d1115615a775760046000803e5060005160e01c5b90565b600060443d1015615a885790565b6040516003193d81016004833e81513d6001600160401b038160248401118184111715615ab757505050505090565b8285019150815181811115615acf5750505050505090565b843d8701016020828501011115615ae95750505050505090565b615af860208286010187614f73565b509095945050505050565b60208082526028908201527f455243313135353a204552433131353552656365697665722072656a656374656040820152676420746f6b656e7360c01b606082015260800190565b6001600160a01b0386811682528516602082015260a060408201819052600090615b7790830186614e7c565b8281036060840152615b898186614e7c565b9050828103608084015261479e8185614e0956fea26469706673582212201bc8a96069488de70487c629af6dedc8acd2b1b21f30328c487fd6dc3047397264736f6c634300080b00334f776e61626c653a2063616c6c6572206973206e6f7420746865206f776e657268747470733a2f2f6d656d6f72697a65746869736461792e6769746875622e696f2f4254432f7b69647d2e6a736f6e","bytecodeSha1":"d7334ff227971ba9def31f4814ae744a37dc8931","compiler":{"evm_version":"istanbul","optimizer":{"enabled":true,"runs":200},"version":"0.8.11+commit.d7f03943"},"contractName":"MemorizeThisDayOnBTC","language":"Solidity","natspec":{"kind":"dev","methods":{"balanceOf(address,uint256)":{"details":"See {IERC1155-balanceOf}. Requirements: - `account` cannot be the zero address."},"balanceOfBatch(address[],uint256[])":{"details":"See {IERC1155-balanceOfBatch}. Requirements: - `accounts` and `ids` must have the same length."},"isApprovedForAll(address,address)":{"details":"See {IERC1155-isApprovedForAll}."},"owner()":{"details":"Returns the address of the current owner."},"paused()":{"details":"Returns true if the contract is paused, and false otherwise."},"renounceOwnership()":{"details":"Leaves the contract without owner. It will not be possible to call `onlyOwner` functions anymore. Can only be called by the current owner. NOTE: Renouncing ownership will leave the contract without an owner, thereby removing any functionality that is only available to the owner."},"safeBatchTransferFrom(address,address,uint256[],uint256[],bytes)":{"details":"See {IERC1155-safeBatchTransferFrom}."},"safeTransferFrom(address,address,uint256,uint256,bytes)":{"details":"See {IERC1155-safeTransferFrom}."},"setApprovalForAll(address,bool)":{"details":"See {IERC1155-setApprovalForAll}."},"supportsInterface(bytes4)":{"details":"See {IERC165-supportsInterface}."},"transferOwnership(address)":{"details":"Transfers ownership of the contract to a new account (`newOwner`). Can only be called by the current owner."},"uri(uint256)":{"details":"See {IERC1155MetadataURI-uri}. This implementation returns the same URI for *all* token types. It relies on the token type ID substitution mechanism https://eips.ethereum.org/EIPS/eip-1155#metadata[defined in the EIP]. Clients calling this function must replace the `\\{id\\}` substring with the actual token type ID."}},"version":1},"opcodes":"PUSH1 0x80 PUSH1 0x40 MSTORE PUSH1 0x4 CALLDATASIZE LT PUSH2 0x4B4 JUMPI PUSH1 0x0 CALLDATALOAD PUSH1 0xE0 SHR DUP1 PUSH4 0x6D5433E6 GT PUSH2 0x26B JUMPI DUP1 PUSH4 0xAC8DABA0 GT PUSH2 0x14F JUMPI DUP1 PUSH4 0xE985E9C5 GT PUSH2 0xC1 JUMPI DUP1 PUSH4 0xF242432A GT PUSH2 0x85 JUMPI DUP1 PUSH4 0xF242432A EQ PUSH2 0xE6A JUMPI DUP1 PUSH4 0xF2FDE38B EQ PUSH2 0xE8A JUMPI DUP1 PUSH4 0xF6844B04 EQ PUSH2 0xEAA JUMPI DUP1 PUSH4 0xF6A33E6D EQ PUSH2 0xECA JUMPI DUP1 PUSH4 0xF8A433EC EQ PUSH2 0xEDF JUMPI DUP1 PUSH4 0xFA2B16CD EQ PUSH2 0xEF4 JUMPI PUSH2 0x4B4 JUMP JUMPDEST DUP1 PUSH4 0xE985E9C5 EQ PUSH2 0xDB0 JUMPI DUP1 PUSH4 0xE9CC3B54 EQ PUSH2 0xDF9 JUMPI DUP1 PUSH4 0xEE944BA7 EQ PUSH2 0xE0E JUMPI DUP1 PUSH4 0xEF813363 EQ PUSH2 0xE30 JUMPI DUP1 PUSH4 0xF074E34F EQ PUSH2 0xE4A JUMPI PUSH2 0x4B4 JUMP JUMPDEST DUP1 PUSH4 0xD0791DE9 GT PUSH2 0x113 JUMPI DUP1 PUSH4 0xD0791DE9 EQ PUSH2 0xCEA JUMPI DUP1 PUSH4 0xD50AC892 EQ PUSH2 0xD0A JUMPI DUP1 PUSH4 0xD973FC2E EQ PUSH2 0xD20 JUMPI DUP1 PUSH4 0xDBDAD464 EQ PUSH2 0xD40 JUMPI DUP1 PUSH4 0xDD2CEC7F EQ PUSH2 0xD60 JUMPI DUP1 PUSH4 0xE5B429C0 EQ PUSH2 0xD96 JUMPI PUSH2 0x4B4 JUMP JUMPDEST DUP1 PUSH4 0xAC8DABA0 EQ PUSH2 0xC74 JUMPI DUP1 PUSH4 0xB689AF84 EQ PUSH2 0xC8A JUMPI DUP1 PUSH4 0xC771285B EQ PUSH2 0xCAA JUMPI DUP1 PUSH4 0xC78A0B86 EQ PUSH2 0xCC0 JUMPI DUP1 PUSH4 0xCB7812FD EQ PUSH2 0xCD5 JUMPI PUSH2 0x4B4 JUMP JUMPDEST DUP1 PUSH4 0x865117D7 GT PUSH2 0x1E8 JUMPI DUP1 PUSH4 0x94985DDD GT PUSH2 0x1AC JUMPI DUP1 PUSH4 0x94985DDD EQ PUSH2 0xBC9 JUMPI DUP1 PUSH4 0xA22CB465 EQ PUSH2 0xBE9 JUMPI DUP1 PUSH4 0xA42616E8 EQ PUSH2 0xC09 JUMPI DUP1 PUSH4 0xA9665B7A EQ PUSH2 0xC29 JUMPI DUP1 PUSH4 0xAB32D594 EQ PUSH2 0xC3F JUMPI DUP1 PUSH4 0xAC0B78F2 EQ PUSH2 0xC54 JUMPI PUSH2 0x4B4 JUMP JUMPDEST DUP1 PUSH4 0x865117D7 EQ PUSH2 0xB48 JUMPI DUP1 PUSH4 0x8B3C3EF7 EQ PUSH2 0xB68 JUMPI DUP1 PUSH4 0x8DA5CB5B EQ PUSH2 0xB7B JUMPI DUP1 PUSH4 0x92B56ABB EQ PUSH2 0xB9E JUMPI DUP1 PUSH4 0x93E51B64 EQ PUSH2 0xBB3 JUMPI PUSH2 0x4B4 JUMP JUMPDEST DUP1 PUSH4 0x717C2F5F GT PUSH2 0x22F JUMPI DUP1 PUSH4 0x717C2F5F EQ PUSH2 0xADA JUMPI DUP1 PUSH4 0x7AB36B53 EQ PUSH2 0xAEF JUMPI DUP1 PUSH4 0x7E266A34 EQ PUSH2 0xB05 JUMPI DUP1 PUSH4 0x7EF6D4A0 EQ PUSH2 0xB1B JUMPI DUP1 PUSH4 0x7F44A9BB EQ PUSH2 0x8E9 JUMPI PUSH2 0x4B4 JUMP JUMPDEST DUP1 PUSH4 0x6D5433E6 EQ PUSH2 0xA43 JUMPI DUP1 PUSH4 0x6E21FC87 EQ PUSH2 0xA63 JUMPI DUP1 PUSH4 0x6E9F2B4B EQ PUSH2 0xA90 JUMPI DUP1 PUSH4 0x70E44C6A EQ PUSH2 0xAB0 JUMPI DUP1 PUSH4 0x715018A6 EQ PUSH2 0xAC5 JUMPI PUSH2 0x4B4 JUMP JUMPDEST DUP1 PUSH4 0x2EB2C2D6 GT PUSH2 0x39D JUMPI DUP1 PUSH4 0x4E3412B2 GT PUSH2 0x30F JUMPI DUP1 PUSH4 0x56F2520D GT PUSH2 0x2D3 JUMPI DUP1 PUSH4 0x56F2520D EQ PUSH2 0x9A6 JUMPI DUP1 PUSH4 0x5C975ABB EQ PUSH2 0x9C6 JUMPI DUP1 PUSH4 0x5E3F5422 EQ PUSH2 0x9DE JUMPI DUP1 PUSH4 0x659D8D4E EQ PUSH2 0x9F3 JUMPI DUP1 PUSH4 0x65CE6454 EQ PUSH2 0xA23 JUMPI DUP1 PUSH4 0x6A1C3F20 EQ PUSH2 0x8E9 JUMPI PUSH2 0x4B4 JUMP JUMPDEST DUP1 PUSH4 0x4E3412B2 EQ PUSH2 0x92B JUMPI DUP1 PUSH4 0x503F5581 EQ PUSH2 0x941 JUMPI DUP1 PUSH4 0x53177E66 EQ PUSH2 0x961 JUMPI DUP1 PUSH4 0x53C3A995 EQ PUSH2 0x986 JUMPI DUP1 PUSH4 0x53C9A482 EQ PUSH2 0x55A JUMPI PUSH2 0x4B4 JUMP JUMPDEST DUP1 PUSH4 0x38D92617 GT PUSH2 0x361 JUMPI DUP1 PUSH4 0x38D92617 EQ PUSH2 0x873 JUMPI DUP1 PUSH4 0x3CD21817 EQ PUSH2 0x893 JUMPI DUP1 PUSH4 0x4140524D EQ PUSH2 0x8A9 JUMPI DUP1 PUSH4 0x422D1286 EQ PUSH2 0x8C9 JUMPI DUP1 PUSH4 0x4954D2EC EQ PUSH2 0x8E9 JUMPI DUP1 PUSH4 0x4E1273F4 EQ PUSH2 0x8FE JUMPI PUSH2 0x4B4 JUMP JUMPDEST DUP1 PUSH4 0x2EB2C2D6 EQ PUSH2 0x7A7 JUMPI DUP1 PUSH4 0x303DD553 EQ PUSH2 0x7C7 JUMPI DUP1 PUSH4 0x308620E2 EQ PUSH2 0x7DD JUMPI DUP1 PUSH4 0x340D899A EQ PUSH2 0x815 JUMPI DUP1 PUSH4 0x36BB86B3 EQ PUSH2 0x82B JUMPI PUSH2 0x4B4 JUMP JUMPDEST DUP1 PUSH4 0x13887D95 GT PUSH2 0x436 JUMPI DUP1 PUSH4 0x1D6C263C GT PUSH2 0x3FA JUMPI DUP1 PUSH4 0x1D6C263C EQ PUSH2 0x71E JUMPI DUP1 PUSH4 0x234D7B8D EQ PUSH2 0x733 JUMPI DUP1 PUSH4 0x28F50905 EQ PUSH2 0x749 JUMPI DUP1 PUSH4 0x29948B27 EQ PUSH2 0x769 JUMPI DUP1 PUSH4 0x2A213DCB EQ PUSH2 0x77E JUMPI DUP1 PUSH4 0x2AECA614 EQ PUSH2 0x794 JUMPI PUSH2 0x4B4 JUMP JUMPDEST DUP1 PUSH4 0x13887D95 EQ PUSH2 0x654 JUMPI DUP1 PUSH4 0x1A513C9D EQ PUSH2 0x681 JUMPI DUP1 PUSH4 0x1AA98354 EQ PUSH2 0x6AE JUMPI DUP1 PUSH4 0x1C8108B1 EQ PUSH2 0x6D1 JUMPI DUP1 PUSH4 0x1D65BD1B EQ PUSH2 0x6E8 JUMPI PUSH2 0x4B4 JUMP JUMPDEST DUP1 PUSH4 0x6389CA1 GT PUSH2 0x47D JUMPI DUP1 PUSH4 0x6389CA1 EQ PUSH2 0x5A5 JUMPI DUP1 PUSH4 0x7D6A560 EQ PUSH2 0x5DD JUMPI DUP1 PUSH4 0x9FDD5A3 EQ PUSH2 0x5FF JUMPI DUP1 PUSH4 0xA6A001C EQ PUSH2 0x614 JUMPI DUP1 PUSH4 0xE89341C EQ PUSH2 0x634 JUMPI PUSH2 0x4B4 JUMP JUMPDEST DUP1 PUSH3 0xFDD58E EQ PUSH2 0x4F7 JUMPI DUP1 PUSH4 0x1FFC9A7 EQ PUSH2 0x52A JUMPI DUP1 PUSH4 0x3029E7D EQ PUSH2 0x55A JUMPI DUP1 PUSH4 0x37A2414 EQ PUSH2 0x56F JUMPI DUP1 PUSH4 0x387DA42 EQ PUSH2 0x58F JUMPI JUMPDEST PUSH1 0x26 SLOAD PUSH1 0x1 PUSH1 0x1 PUSH1 0xA0 SHL SUB AND PUSH1 0x0 SWAP1 DUP2 MSTORE PUSH1 0x28 PUSH1 0x20 MSTORE PUSH1 0x40 SWAP1 KECCAK256 SLOAD PUSH2 0x4DA SWAP1 CALLVALUE SWAP1 PUSH2 0x4D20 JUMP JUMPDEST PUSH1 0x26 SLOAD PUSH1 0x1 PUSH1 0x1 PUSH1 0xA0 SHL SUB AND PUSH1 0x0 SWAP1 DUP2 MSTORE PUSH1 0x28 PUSH1 0x20 MSTORE PUSH1 0x40 SWAP1 KECCAK256 SSTORE STOP JUMPDEST CALLVALUE DUP1 ISZERO PUSH2 0x503 JUMPI PUSH1 0x0 DUP1 REVERT JUMPDEST POP PUSH2 0x517 PUSH2 0x512 CALLDATASIZE PUSH1 0x4 PUSH2 0x4D54 JUMP JUMPDEST PUSH2 0xF14 JUMP JUMPDEST PUSH1 0x40 MLOAD SWAP1 DUP2 MSTORE PUSH1 0x20 ADD JUMPDEST PUSH1 0x40 MLOAD DUP1 SWAP2 SUB SWAP1 RETURN JUMPDEST CALLVALUE DUP1 ISZERO PUSH2 0x536 JUMPI PUSH1 0x0 DUP1 REVERT JUMPDEST POP PUSH2 0x54A PUSH2 0x545 CALLDATASIZE PUSH1 0x4 PUSH2 0x4D94 JUMP JUMPDEST PUSH2 0xFAE JUMP JUMPDEST PUSH1 0x40 MLOAD SWAP1 ISZERO ISZERO DUP2 MSTORE PUSH1 0x20 ADD PUSH2 0x521 JUMP JUMPDEST CALLVALUE DUP1 ISZERO PUSH2 0x566 JUMPI PUSH1 0x0 DUP1 REVERT JUMPDEST POP PUSH2 0x517 PUSH1 0x1E DUP2 JUMP JUMPDEST CALLVALUE DUP1 ISZERO PUSH2 0x57B JUMPI PUSH1 0x0 DUP1 REVERT JUMPDEST POP PUSH2 0x517 PUSH2 0x58A CALLDATASIZE PUSH1 0x4 PUSH2 0x4DB1 JUMP JUMPDEST PUSH2 0xFFE JUMP JUMPDEST CALLVALUE DUP1 ISZERO PUSH2 0x59B JUMPI PUSH1 0x0 DUP1 REVERT JUMPDEST POP PUSH2 0x517 PUSH1 0x14 SLOAD DUP2 JUMP JUMPDEST CALLVALUE DUP1 ISZERO PUSH2 0x5B1 JUMPI PUSH1 0x0 DUP1 REVERT JUMPDEST POP PUSH2 0x5C5 PUSH2 0x5C0 CALLDATASIZE PUSH1 0x4 PUSH2 0x4DB1 JUMP JUMPDEST PUSH2 0x1013 JUMP JUMPDEST PUSH1 0x40 MLOAD PUSH1 0x1 PUSH1 0x1 PUSH1 0xA0 SHL SUB SWAP1 SWAP2 AND DUP2 MSTORE PUSH1 0x20 ADD PUSH2 0x521 JUMP JUMPDEST CALLVALUE DUP1 ISZERO PUSH2 0x5E9 JUMPI PUSH1 0x0 DUP1 REVERT JUMPDEST POP PUSH2 0x5F2 PUSH2 0x1042 JUMP JUMPDEST PUSH1 0x40 MLOAD PUSH2 0x521 SWAP2 SWAP1 PUSH2 0x4E35 JUMP JUMPDEST CALLVALUE DUP1 ISZERO PUSH2 0x60B JUMPI PUSH1 0x0 DUP1 REVERT JUMPDEST POP PUSH1 0x16 SLOAD PUSH2 0x517 JUMP JUMPDEST CALLVALUE DUP1 ISZERO PUSH2 0x620 JUMPI PUSH1 0x0 DUP1 REVERT JUMPDEST POP PUSH2 0x517 PUSH2 0x62F CALLDATASIZE PUSH1 0x4 PUSH2 0x4E48 JUMP JUMPDEST PUSH2 0x10D0 JUMP JUMPDEST CALLVALUE DUP1 ISZERO PUSH2 0x640 JUMPI PUSH1 0x0 DUP1 REVERT JUMPDEST POP PUSH2 0x5F2 PUSH2 0x64F CALLDATASIZE PUSH1 0x4 PUSH2 0x4E48 JUMP JUMPDEST PUSH2 0x10F1 JUMP JUMPDEST CALLVALUE DUP1 ISZERO PUSH2 0x660 JUMPI PUSH1 0x0 DUP1 REVERT JUMPDEST POP PUSH2 0x517 PUSH2 0x66F CALLDATASIZE PUSH1 0x4 PUSH2 0x4E61 JUMP JUMPDEST PUSH1 0x28 PUSH1 0x20 MSTORE PUSH1 0x0 SWAP1 DUP2 MSTORE PUSH1 0x40 SWAP1 KECCAK256 SLOAD DUP2 JUMP JUMPDEST CALLVALUE DUP1 ISZERO PUSH2 0x68D JUMPI PUSH1 0x0 DUP1 REVERT JUMPDEST POP PUSH2 0x517 PUSH2 0x69C CALLDATASIZE PUSH1 0x4 PUSH2 0x4E61 JUMP JUMPDEST PUSH1 0x33 PUSH1 0x20 MSTORE PUSH1 0x0 SWAP1 DUP2 MSTORE PUSH1 0x40 SWAP1 KECCAK256 SLOAD DUP2 JUMP JUMPDEST CALLVALUE DUP1 ISZERO PUSH2 0x6BA JUMPI PUSH1 0x0 DUP1 REVERT JUMPDEST POP PUSH2 0x6C3 PUSH2 0x1185 JUMP JUMPDEST PUSH1 0x40 MLOAD PUSH2 0x521 SWAP3 SWAP2 SWAP1 PUSH2 0x4EF0 JUMP JUMPDEST CALLVALUE DUP1 ISZERO PUSH2 0x6DD JUMPI PUSH1 0x0 DUP1 REVERT JUMPDEST POP PUSH2 0x6E6 PUSH2 0x12F0 JUMP JUMPDEST STOP JUMPDEST CALLVALUE DUP1 ISZERO PUSH2 0x6F4 JUMPI PUSH1 0x0 DUP1 REVERT JUMPDEST POP PUSH2 0x5C5 PUSH2 0x703 CALLDATASIZE PUSH1 0x4 PUSH2 0x4E48 JUMP JUMPDEST PUSH1 0x32 PUSH1 0x20 MSTORE PUSH1 0x0 SWAP1 DUP2 MSTORE PUSH1 0x40 SWAP1 KECCAK256 SLOAD PUSH1 0x1 PUSH1 0x1 PUSH1 0xA0 SHL SUB AND DUP2 JUMP JUMPDEST CALLVALUE DUP1 ISZERO PUSH2 0x72A JUMPI PUSH1 0x0 DUP1 REVERT JUMPDEST POP PUSH2 0x6E6 PUSH2 0x133D JUMP JUMPDEST CALLVALUE DUP1 ISZERO PUSH2 0x73F JUMPI PUSH1 0x0 DUP1 REVERT JUMPDEST POP PUSH2 0x517 PUSH1 0x1D SLOAD DUP2 JUMP JUMPDEST CALLVALUE DUP1 ISZERO PUSH2 0x755 JUMPI PUSH1 0x0 DUP1 REVERT JUMPDEST POP PUSH2 0x5C5 PUSH2 0x764 CALLDATASIZE PUSH1 0x4 PUSH2 0x4E48 JUMP JUMPDEST PUSH2 0x1805 JUMP JUMPDEST CALLVALUE DUP1 ISZERO PUSH2 0x775 JUMPI PUSH1 0x0 DUP1 REVERT JUMPDEST POP PUSH2 0x5F2 PUSH2 0x1825 JUMP JUMPDEST CALLVALUE DUP1 ISZERO PUSH2 0x78A JUMPI PUSH1 0x0 DUP1 REVERT JUMPDEST POP PUSH2 0x517 PUSH1 0x13 SLOAD DUP2 JUMP JUMPDEST PUSH2 0x6E6 PUSH2 0x7A2 CALLDATASIZE PUSH1 0x4 PUSH2 0x4F1E JUMP JUMPDEST PUSH2 0x1832 JUMP JUMPDEST CALLVALUE DUP1 ISZERO PUSH2 0x7B3 JUMPI PUSH1 0x0 DUP1 REVERT JUMPDEST POP PUSH2 0x6E6 PUSH2 0x7C2 CALLDATASIZE PUSH1 0x4 PUSH2 0x50A6 JUMP JUMPDEST PUSH2 0x1F60 JUMP JUMPDEST CALLVALUE DUP1 ISZERO PUSH2 0x7D3 JUMPI PUSH1 0x0 DUP1 REVERT JUMPDEST POP PUSH2 0x517 PUSH1 0x19 SLOAD DUP2 JUMP JUMPDEST CALLVALUE DUP1 ISZERO PUSH2 0x7E9 JUMPI PUSH1 0x0 DUP1 REVERT JUMPDEST POP PUSH2 0x517 PUSH2 0x7F8 CALLDATASIZE PUSH1 0x4 PUSH2 0x515E JUMP JUMPDEST PUSH1 0x36 PUSH1 0x20 SWAP1 DUP2 MSTORE PUSH1 0x0 SWAP3 DUP4 MSTORE PUSH1 0x40 DUP1 DUP5 KECCAK256 SWAP1 SWAP2 MSTORE SWAP1 DUP3 MSTORE SWAP1 KECCAK256 SLOAD DUP2 JUMP JUMPDEST CALLVALUE DUP1 ISZERO PUSH2 0x821 JUMPI PUSH1 0x0 DUP1 REVERT JUMPDEST POP PUSH2 0x517 PUSH1 0x1F SLOAD DUP2 JUMP JUMPDEST CALLVALUE DUP1 ISZERO PUSH2 0x837 JUMPI PUSH1 0x0 DUP1 REVERT JUMPDEST POP PUSH2 0x866 PUSH2 0x846 CALLDATASIZE PUSH1 0x4 PUSH2 0x518A JUMP JUMPDEST PUSH1 0x35 PUSH1 0x20 SWAP1 DUP2 MSTORE PUSH1 0x0 SWAP3 DUP4 MSTORE PUSH1 0x40 DUP1 DUP5 KECCAK256 SWAP1 SWAP2 MSTORE SWAP1 DUP3 MSTORE SWAP1 KECCAK256 SLOAD PUSH1 0xFF AND DUP2 JUMP JUMPDEST PUSH1 0x40 MLOAD PUSH2 0x521 SWAP2 SWAP1 PUSH2 0x51C2 JUMP JUMPDEST CALLVALUE DUP1 ISZERO PUSH2 0x87F JUMPI PUSH1 0x0 DUP1 REVERT JUMPDEST POP PUSH2 0x5F2 PUSH2 0x88E CALLDATASIZE PUSH1 0x4 PUSH2 0x4E48 JUMP JUMPDEST PUSH2 0x2018 JUMP JUMPDEST CALLVALUE DUP1 ISZERO PUSH2 0x89F JUMPI PUSH1 0x0 DUP1 REVERT JUMPDEST POP PUSH2 0x517 PUSH1 0x1C SLOAD DUP2 JUMP JUMPDEST CALLVALUE DUP1 ISZERO PUSH2 0x8B5 JUMPI PUSH1 0x0 DUP1 REVERT JUMPDEST POP PUSH1 0x22 SLOAD PUSH2 0x5C5 SWAP1 PUSH1 0x1 PUSH1 0x1 PUSH1 0xA0 SHL SUB AND DUP2 JUMP JUMPDEST CALLVALUE DUP1 ISZERO PUSH2 0x8D5 JUMPI PUSH1 0x0 DUP1 REVERT JUMPDEST POP PUSH2 0x6E6 PUSH2 0x8E4 CALLDATASIZE PUSH1 0x4 PUSH2 0x4DB1 JUMP JUMPDEST PUSH2 0x2031 JUMP JUMPDEST CALLVALUE DUP1 ISZERO PUSH2 0x8F5 JUMPI PUSH1 0x0 DUP1 REVERT JUMPDEST POP PUSH2 0x517 PUSH1 0x5 DUP2 JUMP JUMPDEST CALLVALUE DUP1 ISZERO PUSH2 0x90A JUMPI PUSH1 0x0 DUP1 REVERT JUMPDEST POP PUSH2 0x91E PUSH2 0x919 CALLDATASIZE PUSH1 0x4 PUSH2 0x51EA JUMP JUMPDEST PUSH2 0x20DC JUMP JUMPDEST PUSH1 0x40 MLOAD PUSH2 0x521 SWAP2 SWAP1 PUSH2 0x52B4 JUMP JUMPDEST CALLVALUE DUP1 ISZERO PUSH2 0x937 JUMPI PUSH1 0x0 DUP1 REVERT JUMPDEST POP PUSH2 0x517 PUSH1 0xA SLOAD DUP2 JUMP JUMPDEST CALLVALUE DUP1 ISZERO PUSH2 0x94D JUMPI PUSH1 0x0 DUP1 REVERT JUMPDEST POP PUSH2 0x6E6 PUSH2 0x95C CALLDATASIZE PUSH1 0x4 PUSH2 0x4E48 JUMP JUMPDEST PUSH2 0x2205 JUMP JUMPDEST CALLVALUE DUP1 ISZERO PUSH2 0x96D JUMPI PUSH1 0x0 DUP1 REVERT JUMPDEST POP PUSH1 0xE SLOAD PUSH2 0x5C5 SWAP1 PUSH2 0x100 SWAP1 DIV PUSH1 0x1 PUSH1 0x1 PUSH1 0xA0 SHL SUB AND DUP2 JUMP JUMPDEST CALLVALUE DUP1 ISZERO PUSH2 0x992 JUMPI PUSH1 0x0 DUP1 REVERT JUMPDEST POP PUSH2 0x5C5 PUSH2 0x9A1 CALLDATASIZE PUSH1 0x4 PUSH2 0x4E48 JUMP JUMPDEST PUSH2 0x225D JUMP JUMPDEST CALLVALUE DUP1 ISZERO PUSH2 0x9B2 JUMPI PUSH1 0x0 DUP1 REVERT JUMPDEST POP PUSH2 0x5F2 PUSH2 0x9C1 CALLDATASIZE PUSH1 0x4 PUSH2 0x4E48 JUMP JUMPDEST PUSH2 0x2287 JUMP JUMPDEST CALLVALUE DUP1 ISZERO PUSH2 0x9D2 JUMPI PUSH1 0x0 DUP1 REVERT JUMPDEST POP PUSH1 0x3 SLOAD PUSH1 0xFF AND PUSH2 0x54A JUMP JUMPDEST CALLVALUE DUP1 ISZERO PUSH2 0x9EA JUMPI PUSH1 0x0 DUP1 REVERT JUMPDEST POP PUSH2 0x5F2 PUSH2 0x22A0 JUMP JUMPDEST CALLVALUE DUP1 ISZERO PUSH2 0x9FF JUMPI PUSH1 0x0 DUP1 REVERT JUMPDEST POP PUSH2 0x54A PUSH2 0xA0E CALLDATASIZE PUSH1 0x4 PUSH2 0x4E48 JUMP JUMPDEST PUSH1 0x2B PUSH1 0x20 MSTORE PUSH1 0x0 SWAP1 DUP2 MSTORE PUSH1 0x40 SWAP1 KECCAK256 SLOAD PUSH1 0xFF AND DUP2 JUMP JUMPDEST CALLVALUE DUP1 ISZERO PUSH2 0xA2F JUMPI PUSH1 0x0 DUP1 REVERT JUMPDEST POP PUSH2 0x5C5 PUSH2 0xA3E CALLDATASIZE PUSH1 0x4 PUSH2 0x4E48 JUMP JUMPDEST PUSH2 0x22AD JUMP JUMPDEST CALLVALUE DUP1 ISZERO PUSH2 0xA4F JUMPI PUSH1 0x0 DUP1 REVERT JUMPDEST POP PUSH2 0x517 PUSH2 0xA5E CALLDATASIZE PUSH1 0x4 PUSH2 0x518A JUMP JUMPDEST PUSH2 0x22BD JUMP JUMPDEST CALLVALUE DUP1 ISZERO PUSH2 0xA6F JUMPI PUSH1 0x0 DUP1 REVERT JUMPDEST POP PUSH2 0x517 PUSH2 0xA7E CALLDATASIZE PUSH1 0x4 PUSH2 0x4E61 JUMP JUMPDEST PUSH1 0x29 PUSH1 0x20 MSTORE PUSH1 0x0 SWAP1 DUP2 MSTORE PUSH1 0x40 SWAP1 KECCAK256 SLOAD DUP2 JUMP JUMPDEST CALLVALUE DUP1 ISZERO PUSH2 0xA9C JUMPI PUSH1 0x0 DUP1 REVERT JUMPDEST POP PUSH1 0x7 SLOAD PUSH2 0x5C5 SWAP1 PUSH1 0x1 PUSH1 0x1 PUSH1 0xA0 SHL SUB AND DUP2 JUMP JUMPDEST CALLVALUE DUP1 ISZERO PUSH2 0xABC JUMPI PUSH1 0x0 DUP1 REVERT JUMPDEST POP PUSH2 0x6E6 PUSH2 0x22D6 JUMP JUMPDEST CALLVALUE DUP1 ISZERO PUSH2 0xAD1 JUMPI PUSH1 0x0 DUP1 REVERT JUMPDEST POP PUSH2 0x6E6 PUSH2 0x2395 JUMP JUMPDEST CALLVALUE DUP1 ISZERO PUSH2 0xAE6 JUMPI PUSH1 0x0 DUP1 REVERT JUMPDEST POP PUSH2 0x5F2 PUSH2 0x23CF JUMP JUMPDEST CALLVALUE DUP1 ISZERO PUSH2 0xAFB JUMPI PUSH1 0x0 DUP1 REVERT JUMPDEST POP PUSH2 0x517 PUSH1 0x15 SLOAD DUP2 JUMP JUMPDEST CALLVALUE DUP1 ISZERO PUSH2 0xB11 JUMPI PUSH1 0x0 DUP1 REVERT JUMPDEST POP PUSH2 0x517 PUSH1 0xB SLOAD DUP2 JUMP JUMPDEST CALLVALUE DUP1 ISZERO PUSH2 0xB27 JUMPI PUSH1 0x0 DUP1 REVERT JUMPDEST POP PUSH2 0x517 PUSH2 0xB36 CALLDATASIZE PUSH1 0x4 PUSH2 0x4E48 JUMP JUMPDEST PUSH1 0x2C PUSH1 0x20 MSTORE PUSH1 0x0 SWAP1 DUP2 MSTORE PUSH1 0x40 SWAP1 KECCAK256 SLOAD DUP2 JUMP JUMPDEST CALLVALUE DUP1 ISZERO PUSH2 0xB54 JUMPI PUSH1 0x0 DUP1 REVERT JUMPDEST POP PUSH1 0x21 SLOAD PUSH2 0x5C5 SWAP1 PUSH1 0x1 PUSH1 0x1 PUSH1 0xA0 SHL SUB AND DUP2 JUMP JUMPDEST PUSH2 0x6E6 PUSH2 0xB76 CALLDATASIZE PUSH1 0x4 PUSH2 0x52C7 JUMP JUMPDEST PUSH2 0x23DC JUMP JUMPDEST CALLVALUE DUP1 ISZERO PUSH2 0xB87 JUMPI PUSH1 0x0 DUP1 REVERT JUMPDEST POP PUSH1 0x3 SLOAD PUSH2 0x100 SWAP1 DIV PUSH1 0x1 PUSH1 0x1 PUSH1 0xA0 SHL SUB AND PUSH2 0x5C5 JUMP JUMPDEST CALLVALUE DUP1 ISZERO PUSH2 0xBAA JUMPI PUSH1 0x0 DUP1 REVERT JUMPDEST POP PUSH2 0x5F2 PUSH2 0x25A5 JUMP JUMPDEST CALLVALUE DUP1 ISZERO PUSH2 0xBBF JUMPI PUSH1 0x0 DUP1 REVERT JUMPDEST POP PUSH2 0x517 PUSH1 0x1A SLOAD DUP2 JUMP JUMPDEST CALLVALUE DUP1 ISZERO PUSH2 0xBD5 JUMPI PUSH1 0x0 DUP1 REVERT JUMPDEST POP PUSH2 0x6E6 PUSH2 0xBE4 CALLDATASIZE PUSH1 0x4 PUSH2 0x518A JUMP JUMPDEST PUSH2 0x25B2 JUMP JUMPDEST CALLVALUE DUP1 ISZERO PUSH2 0xBF5 JUMPI PUSH1 0x0 DUP1 REVERT JUMPDEST POP PUSH2 0x6E6 PUSH2 0xC04 CALLDATASIZE PUSH1 0x4 PUSH2 0x5381 JUMP JUMPDEST PUSH2 0x2634 JUMP JUMPDEST CALLVALUE DUP1 ISZERO PUSH2 0xC15 JUMPI PUSH1 0x0 DUP1 REVERT JUMPDEST POP PUSH2 0x6E6 PUSH2 0xC24 CALLDATASIZE PUSH1 0x4 PUSH2 0x53B8 JUMP JUMPDEST PUSH2 0x263F JUMP JUMPDEST CALLVALUE DUP1 ISZERO PUSH2 0xC35 JUMPI PUSH1 0x0 DUP1 REVERT JUMPDEST POP PUSH2 0x517 PUSH1 0x18 SLOAD DUP2 JUMP JUMPDEST CALLVALUE DUP1 ISZERO PUSH2 0xC4B JUMPI PUSH1 0x0 DUP1 REVERT JUMPDEST POP PUSH1 0x1E SLOAD PUSH2 0x517 JUMP JUMPDEST CALLVALUE DUP1 ISZERO PUSH2 0xC60 JUMPI PUSH1 0x0 DUP1 REVERT JUMPDEST POP PUSH2 0x5F2 PUSH2 0xC6F CALLDATASIZE PUSH1 0x4 PUSH2 0x4E48 JUMP JUMPDEST PUSH2 0x2BDD JUMP JUMPDEST CALLVALUE DUP1 ISZERO PUSH2 0xC80 JUMPI PUSH1 0x0 DUP1 REVERT JUMPDEST POP PUSH2 0x517 PUSH1 0x1B SLOAD DUP2 JUMP JUMPDEST CALLVALUE DUP1 ISZERO PUSH2 0xC96 JUMPI PUSH1 0x0 DUP1 REVERT JUMPDEST POP PUSH2 0x5F2 PUSH2 0xCA5 CALLDATASIZE PUSH1 0x4 PUSH2 0x4E61 JUMP JUMPDEST PUSH2 0x2BF6 JUMP JUMPDEST CALLVALUE DUP1 ISZERO PUSH2 0xCB6 JUMPI PUSH1 0x0 DUP1 REVERT JUMPDEST POP PUSH2 0x517 PUSH1 0xD SLOAD DUP2 JUMP JUMPDEST CALLVALUE DUP1 ISZERO PUSH2 0xCCC JUMPI PUSH1 0x0 DUP1 REVERT JUMPDEST POP PUSH2 0x517 PUSH1 0x19 DUP2 JUMP JUMPDEST CALLVALUE DUP1 ISZERO PUSH2 0xCE1 JUMPI PUSH1 0x0 DUP1 REVERT JUMPDEST POP PUSH2 0x5F2 PUSH2 0x2C0F JUMP JUMPDEST CALLVALUE DUP1 ISZERO PUSH2 0xCF6 JUMPI PUSH1 0x0 DUP1 REVERT JUMPDEST POP PUSH2 0x6E6 PUSH2 0xD05 CALLDATASIZE PUSH1 0x4 PUSH2 0x4D54 JUMP JUMPDEST PUSH2 0x2C1C JUMP JUMPDEST CALLVALUE DUP1 ISZERO PUSH2 0xD16 JUMPI PUSH1 0x0 DUP1 REVERT JUMPDEST POP PUSH2 0x517 PUSH1 0x17 SLOAD DUP2 JUMP JUMPDEST CALLVALUE DUP1 ISZERO PUSH2 0xD2C JUMPI PUSH1 0x0 DUP1 REVERT JUMPDEST POP PUSH2 0x6E6 PUSH2 0xD3B CALLDATASIZE PUSH1 0x4 PUSH2 0x518A JUMP JUMPDEST PUSH2 0x2CD9 JUMP JUMPDEST CALLVALUE DUP1 ISZERO PUSH2 0xD4C JUMPI PUSH1 0x0 DUP1 REVERT JUMPDEST POP PUSH2 0x6E6 PUSH2 0xD5B CALLDATASIZE PUSH1 0x4 PUSH2 0x4E61 JUMP JUMPDEST PUSH2 0x2DD2 JUMP JUMPDEST CALLVALUE DUP1 ISZERO PUSH2 0xD6C JUMPI PUSH1 0x0 DUP1 REVERT JUMPDEST POP PUSH2 0x5C5 PUSH2 0xD7B CALLDATASIZE PUSH1 0x4 PUSH2 0x4E48 JUMP JUMPDEST PUSH1 0x2A PUSH1 0x20 MSTORE PUSH1 0x0 SWAP1 DUP2 MSTORE PUSH1 0x40 SWAP1 KECCAK256 SLOAD PUSH1 0x1 PUSH1 0x1 PUSH1 0xA0 SHL SUB AND DUP2 JUMP JUMPDEST CALLVALUE DUP1 ISZERO PUSH2 0xDA2 JUMPI PUSH1 0x0 DUP1 REVERT JUMPDEST POP PUSH1 0xC SLOAD PUSH2 0x54A SWAP1 PUSH1 0xFF AND DUP2 JUMP JUMPDEST CALLVALUE DUP1 ISZERO PUSH2 0xDBC JUMPI PUSH1 0x0 DUP1 REVERT JUMPDEST POP PUSH2 0x54A PUSH2 0xDCB CALLDATASIZE PUSH1 0x4 PUSH2 0x5496 JUMP JUMPDEST PUSH1 0x1 PUSH1 0x1 PUSH1 0xA0 SHL SUB SWAP2 DUP3 AND PUSH1 0x0 SWAP1 DUP2 MSTORE PUSH1 0x1 PUSH1 0x20 SWAP1 DUP2 MSTORE PUSH1 0x40 DUP1 DUP4 KECCAK256 SWAP4 SWAP1 SWAP5 AND DUP3 MSTORE SWAP2 SWAP1 SWAP2 MSTORE KECCAK256 SLOAD PUSH1 0xFF AND SWAP1 JUMP JUMPDEST CALLVALUE DUP1 ISZERO PUSH2 0xE05 JUMPI PUSH1 0x0 DUP1 REVERT JUMPDEST POP PUSH2 0x6E6 PUSH2 0x2ED8 JUMP JUMPDEST CALLVALUE DUP1 ISZERO PUSH2 0xE1A JUMPI PUSH1 0x0 DUP1 REVERT JUMPDEST POP PUSH2 0xE23 PUSH2 0x2F8F JUMP JUMPDEST PUSH1 0x40 MLOAD PUSH2 0x521 SWAP2 SWAP1 PUSH2 0x54C0 JUMP JUMPDEST CALLVALUE DUP1 ISZERO PUSH2 0xE3C JUMPI PUSH1 0x0 DUP1 REVERT JUMPDEST POP PUSH1 0xE SLOAD PUSH2 0x54A SWAP1 PUSH1 0xFF AND DUP2 JUMP JUMPDEST CALLVALUE DUP1 ISZERO PUSH2 0xE56 JUMPI PUSH1 0x0 DUP1 REVERT JUMPDEST POP PUSH2 0x6E6 PUSH2 0xE65 CALLDATASIZE PUSH1 0x4 PUSH2 0x54D3 JUMP JUMPDEST PUSH2 0x305B JUMP JUMPDEST CALLVALUE DUP1 ISZERO PUSH2 0xE76 JUMPI PUSH1 0x0 DUP1 REVERT JUMPDEST POP PUSH2 0x6E6 PUSH2 0xE85 CALLDATASIZE PUSH1 0x4 PUSH2 0x54F0 JUMP JUMPDEST PUSH2 0x324A JUMP JUMPDEST CALLVALUE DUP1 ISZERO PUSH2 0xE96 JUMPI PUSH1 0x0 DUP1 REVERT JUMPDEST POP PUSH2 0x6E6 PUSH2 0xEA5 CALLDATASIZE PUSH1 0x4 PUSH2 0x4E61 JUMP JUMPDEST PUSH2 0x33EC JUMP JUMPDEST CALLVALUE DUP1 ISZERO PUSH2 0xEB6 JUMPI PUSH1 0x0 DUP1 REVERT JUMPDEST POP PUSH2 0x6E6 PUSH2 0xEC5 CALLDATASIZE PUSH1 0x4 PUSH2 0x5554 JUMP JUMPDEST PUSH2 0x348D JUMP JUMPDEST CALLVALUE DUP1 ISZERO PUSH2 0xED6 JUMPI PUSH1 0x0 DUP1 REVERT JUMPDEST POP PUSH2 0x6E6 PUSH2 0x34D0 JUMP JUMPDEST CALLVALUE DUP1 ISZERO PUSH2 0xEEB JUMPI PUSH1 0x0 DUP1 REVERT JUMPDEST POP PUSH2 0x517 PUSH2 0x3603 JUMP JUMPDEST CALLVALUE DUP1 ISZERO PUSH2 0xF00 JUMPI PUSH1 0x0 DUP1 REVERT JUMPDEST POP PUSH2 0x6E6 PUSH2 0xF0F CALLDATASIZE PUSH1 0x4 PUSH2 0x5588 JUMP JUMPDEST PUSH2 0x36C0 JUMP JUMPDEST PUSH1 0x0 PUSH1 0x1 PUSH1 0x1 PUSH1 0xA0 SHL SUB DUP4 AND PUSH2 0xF85 JUMPI PUSH1 0x40 MLOAD PUSH3 0x461BCD PUSH1 0xE5 SHL DUP2 MSTORE PUSH1 0x20 PUSH1 0x4 DUP3 ADD MSTORE PUSH1 0x2B PUSH1 0x24 DUP3 ADD MSTORE PUSH32 0x455243313135353A2062616C616E636520717565727920666F7220746865207A PUSH1 0x44 DUP3 ADD MSTORE PUSH11 0x65726F2061646472657373 PUSH1 0xA8 SHL PUSH1 0x64 DUP3 ADD MSTORE PUSH1 0x84 ADD JUMPDEST PUSH1 0x40 MLOAD DUP1 SWAP2 SUB SWAP1 REVERT JUMPDEST POP PUSH1 0x0 DUP2 DUP2 MSTORE PUSH1 0x20 DUP2 DUP2 MSTORE PUSH1 0x40 DUP1 DUP4 KECCAK256 PUSH1 0x1 PUSH1 0x1 PUSH1 0xA0 SHL SUB DUP7 AND DUP5 MSTORE SWAP1 SWAP2 MSTORE SWAP1 KECCAK256 SLOAD JUMPDEST SWAP3 SWAP2 POP POP JUMP JUMPDEST PUSH1 0x0 PUSH1 0x1 PUSH1 0x1 PUSH1 0xE0 SHL SUB NOT DUP3 AND PUSH4 0x6CDB3D13 PUSH1 0xE1 SHL EQ DUP1 PUSH2 0xFDF JUMPI POP PUSH1 0x1 PUSH1 0x1 PUSH1 0xE0 SHL SUB NOT DUP3 AND PUSH4 0x3A24D07 PUSH1 0xE2 SHL EQ JUMPDEST DUP1 PUSH2 0xFA8 JUMPI POP PUSH4 0x1FFC9A7 PUSH1 0xE0 SHL PUSH1 0x1 PUSH1 0x1 PUSH1 0xE0 SHL SUB NOT DUP4 AND EQ PUSH2 0xFA8 JUMP JUMPDEST PUSH1 0x0 PUSH2 0x100B DUP5 DUP5 DUP5 PUSH2 0x3A0B JUMP JUMPDEST SWAP5 SWAP4 POP POP POP POP JUMP JUMPDEST PUSH1 0x0 DUP1 PUSH2 0x1021 DUP6 DUP6 DUP6 PUSH2 0x3A0B JUMP JUMPDEST PUSH1 0x0 SWAP1 DUP2 MSTORE PUSH1 0x2A PUSH1 0x20 MSTORE PUSH1 0x40 SWAP1 KECCAK256 SLOAD PUSH1 0x1 PUSH1 0x1 PUSH1 0xA0 SHL SUB AND SWAP6 SWAP5 POP POP POP POP POP JUMP JUMPDEST PUSH1 0x11 DUP1 SLOAD PUSH2 0x104F SWAP1 PUSH2 0x5651 JUMP JUMPDEST DUP1 PUSH1 0x1F ADD PUSH1 0x20 DUP1 SWAP2 DIV MUL PUSH1 0x20 ADD PUSH1 0x40 MLOAD SWAP1 DUP2 ADD PUSH1 0x40 MSTORE DUP1 SWAP3 SWAP2 SWAP1 DUP2 DUP2 MSTORE PUSH1 0x20 ADD DUP3 DUP1 SLOAD PUSH2 0x107B SWAP1 PUSH2 0x5651 JUMP JUMPDEST DUP1 ISZERO PUSH2 0x10C8 JUMPI DUP1 PUSH1 0x1F LT PUSH2 0x109D JUMPI PUSH2 0x100 DUP1 DUP4 SLOAD DIV MUL DUP4 MSTORE SWAP2 PUSH1 0x20 ADD SWAP2 PUSH2 0x10C8 JUMP JUMPDEST DUP3 ADD SWAP2 SWAP1 PUSH1 0x0 MSTORE PUSH1 0x20 PUSH1 0x0 KECCAK256 SWAP1 JUMPDEST DUP2 SLOAD DUP2 MSTORE SWAP1 PUSH1 0x1 ADD SWAP1 PUSH1 0x20 ADD DUP1 DUP4 GT PUSH2 0x10AB JUMPI DUP3 SWAP1 SUB PUSH1 0x1F AND DUP3 ADD SWAP2 JUMPDEST POP POP POP POP POP DUP2 JUMP JUMPDEST PUSH1 0x1E DUP2 DUP2 SLOAD DUP2 LT PUSH2 0x10E0 JUMPI PUSH1 0x0 DUP1 REVERT JUMPDEST PUSH1 0x0 SWAP2 DUP3 MSTORE PUSH1 0x20 SWAP1 SWAP2 KECCAK256 ADD SLOAD SWAP1 POP DUP2 JUMP JUMPDEST PUSH1 0x60 PUSH1 0x2 DUP1 SLOAD PUSH2 0x1100 SWAP1 PUSH2 0x5651 JUMP JUMPDEST DUP1 PUSH1 0x1F ADD PUSH1 0x20 DUP1 SWAP2 DIV MUL PUSH1 0x20 ADD PUSH1 0x40 MLOAD SWAP1 DUP2 ADD PUSH1 0x40 MSTORE DUP1 SWAP3 SWAP2 SWAP1 DUP2 DUP2 MSTORE PUSH1 0x20 ADD DUP3 DUP1 SLOAD PUSH2 0x112C SWAP1 PUSH2 0x5651 JUMP JUMPDEST DUP1 ISZERO PUSH2 0x1179 JUMPI DUP1 PUSH1 0x1F LT PUSH2 0x114E JUMPI PUSH2 0x100 DUP1 DUP4 SLOAD DIV MUL DUP4 MSTORE SWAP2 PUSH1 0x20 ADD SWAP2 PUSH2 0x1179 JUMP JUMPDEST DUP3 ADD SWAP2 SWAP1 PUSH1 0x0 MSTORE PUSH1 0x20 PUSH1 0x0 KECCAK256 SWAP1 JUMPDEST DUP2 SLOAD DUP2 MSTORE SWAP1 PUSH1 0x1 ADD SWAP1 PUSH1 0x20 ADD DUP1 DUP4 GT PUSH2 0x115C JUMPI DUP3 SWAP1 SUB PUSH1 0x1F AND DUP3 ADD SWAP2 JUMPDEST POP POP POP POP POP SWAP1 POP SWAP2 SWAP1 POP JUMP JUMPDEST PUSH1 0x60 DUP1 PUSH1 0x0 PUSH1 0x1E DUP1 SLOAD SWAP1 POP PUSH1 0x1 PUSH1 0x1 PUSH1 0x40 SHL SUB DUP2 GT ISZERO PUSH2 0x11A7 JUMPI PUSH2 0x11A7 PUSH2 0x4F5D JUMP JUMPDEST PUSH1 0x40 MLOAD SWAP1 DUP1 DUP3 MSTORE DUP1 PUSH1 0x20 MUL PUSH1 0x20 ADD DUP3 ADD PUSH1 0x40 MSTORE DUP1 ISZERO PUSH2 0x11D0 JUMPI DUP2 PUSH1 0x20 ADD PUSH1 0x20 DUP3 MUL DUP1 CALLDATASIZE DUP4 CALLDATACOPY ADD SWAP1 POP JUMPDEST POP PUSH1 0x1E SLOAD SWAP1 SWAP2 POP PUSH1 0x0 SWAP1 PUSH1 0x1 PUSH1 0x1 PUSH1 0x40 SHL SUB DUP2 GT ISZERO PUSH2 0x11F1 JUMPI PUSH2 0x11F1 PUSH2 0x4F5D JUMP JUMPDEST PUSH1 0x40 MLOAD SWAP1 DUP1 DUP3 MSTORE DUP1 PUSH1 0x20 MUL PUSH1 0x20 ADD DUP3 ADD PUSH1 0x40 MSTORE DUP1 ISZERO PUSH2 0x121A JUMPI DUP2 PUSH1 0x20 ADD PUSH1 0x20 DUP3 MUL DUP1 CALLDATASIZE DUP4 CALLDATACOPY ADD SWAP1 POP JUMPDEST POP SWAP1 POP PUSH1 0x0 JUMPDEST PUSH1 0x1E SLOAD DUP2 LT ISZERO PUSH2 0x12E6 JUMPI PUSH1 0x1E DUP2 DUP2 SLOAD DUP2 LT PUSH2 0x123D JUMPI PUSH2 0x123D PUSH2 0x4CF4 JUMP JUMPDEST SWAP1 PUSH1 0x0 MSTORE PUSH1 0x20 PUSH1 0x0 KECCAK256 ADD SLOAD DUP4 DUP3 DUP2 MLOAD DUP2 LT PUSH2 0x125A JUMPI PUSH2 0x125A PUSH2 0x4CF4 JUMP JUMPDEST PUSH1 0x20 MUL PUSH1 0x20 ADD ADD DUP2 DUP2 MSTORE POP POP PUSH1 0x2A PUSH1 0x0 PUSH1 0x1E DUP4 DUP2 SLOAD DUP2 LT PUSH2 0x127D JUMPI PUSH2 0x127D PUSH2 0x4CF4 JUMP JUMPDEST SWAP1 PUSH1 0x0 MSTORE PUSH1 0x20 PUSH1 0x0 KECCAK256 ADD SLOAD DUP2 MSTORE PUSH1 0x20 ADD SWAP1 DUP2 MSTORE PUSH1 0x20 ADD PUSH1 0x0 KECCAK256 PUSH1 0x0 SWAP1 SLOAD SWAP1 PUSH2 0x100 EXP SWAP1 DIV PUSH1 0x1 PUSH1 0x1 PUSH1 0xA0 SHL SUB AND DUP3 DUP3 DUP2 MLOAD DUP2 LT PUSH2 0x12BC JUMPI PUSH2 0x12BC PUSH2 0x4CF4 JUMP JUMPDEST PUSH1 0x1 PUSH1 0x1 PUSH1 0xA0 SHL SUB SWAP1 SWAP3 AND PUSH1 0x20 SWAP3 DUP4 MUL SWAP2 SWAP1 SWAP2 ADD SWAP1 SWAP2 ADD MSTORE DUP1 PUSH2 0x12DE DUP2 PUSH2 0x5686 JUMP JUMPDEST SWAP2 POP POP PUSH2 0x1220 JUMP JUMPDEST POP SWAP1 SWAP4 SWAP1 SWAP3 POP SWAP1 POP JUMP JUMPDEST PUSH1 0x3 SLOAD PUSH1 0x1 PUSH1 0x1 PUSH1 0xA0 SHL SUB PUSH2 0x100 SWAP1 SWAP2 DIV AND CALLER EQ PUSH2 0x1320 JUMPI PUSH1 0x40 MLOAD PUSH3 0x461BCD PUSH1 0xE5 SHL DUP2 MSTORE PUSH1 0x4 ADD PUSH2 0xF7C SWAP1 PUSH2 0x56A1 JUMP JUMPDEST PUSH1 0x3 SLOAD PUSH1 0xFF AND ISZERO PUSH2 0x1335 JUMPI PUSH2 0x1333 PUSH2 0x3A68 JUMP JUMPDEST JUMP JUMPDEST PUSH2 0x1333 PUSH2 0x3AFB JUMP JUMPDEST PUSH1 0x3 SLOAD PUSH1 0xFF AND ISZERO PUSH2 0x1360 JUMPI PUSH1 0x40 MLOAD PUSH3 0x461BCD PUSH1 0xE5 SHL DUP2 MSTORE PUSH1 0x4 ADD PUSH2 0xF7C SWAP1 PUSH2 0x56D6 JUMP JUMPDEST PUSH1 0x1E PUSH2 0x136E TIMESTAMP PUSH1 0x1D SLOAD PUSH2 0x3B53 JUMP JUMPDEST GT PUSH2 0x13A1 JUMPI PUSH1 0x40 MLOAD PUSH3 0x461BCD PUSH1 0xE5 SHL DUP2 MSTORE PUSH1 0x20 PUSH1 0x4 DUP3 ADD MSTORE PUSH1 0x3 PUSH1 0x24 DUP3 ADD MSTORE PUSH3 0x653133 PUSH1 0xE8 SHL PUSH1 0x44 DUP3 ADD MSTORE PUSH1 0x64 ADD PUSH2 0xF7C JUMP JUMPDEST PUSH1 0x1E SLOAD PUSH1 0x0 SWAP1 PUSH1 0x64 SWAP1 PUSH2 0x13B5 SWAP1 PUSH1 0x1A PUSH2 0x5700 JUMP JUMPDEST PUSH2 0x13BF SWAP2 SWAP1 PUSH2 0x5735 JUMP JUMPDEST PUSH1 0x34 SLOAD PUSH1 0x1 PUSH1 0x1 PUSH1 0xA0 SHL SUB AND PUSH1 0x0 SWAP1 DUP2 MSTORE PUSH1 0x33 PUSH1 0x20 MSTORE PUSH1 0x40 SWAP1 KECCAK256 SLOAD SWAP1 SWAP2 POP DUP2 GT ISZERO PUSH2 0x1412 JUMPI PUSH1 0x40 MLOAD PUSH3 0x461BCD PUSH1 0xE5 SHL DUP2 MSTORE PUSH1 0x20 PUSH1 0x4 DUP3 ADD MSTORE PUSH1 0x3 PUSH1 0x24 DUP3 ADD MSTORE PUSH3 0x194C4D PUSH1 0xEA SHL PUSH1 0x44 DUP3 ADD MSTORE PUSH1 0x64 ADD PUSH2 0xF7C JUMP JUMPDEST PUSH1 0x7 SLOAD PUSH1 0x34 SLOAD PUSH1 0x1 PUSH1 0x1 PUSH1 0xA0 SHL SUB SWAP1 DUP2 AND SWAP2 AND EQ PUSH2 0x1469 JUMPI PUSH1 0x34 SLOAD PUSH1 0x7 DUP1 SLOAD PUSH1 0x1 PUSH1 0x1 PUSH1 0xA0 SHL SUB NOT AND PUSH1 0x1 PUSH1 0x1 PUSH1 0xA0 SHL SUB SWAP1 SWAP3 AND SWAP2 DUP3 OR SWAP1 SSTORE PUSH1 0x40 DUP1 MLOAD PUSH1 0x20 DUP2 ADD SWAP1 SWAP2 MSTORE PUSH1 0x0 DUP2 MSTORE PUSH2 0x1469 SWAP2 SWAP1 PUSH1 0x1 SWAP1 DUP2 SWAP1 PUSH2 0x3B7A JUMP JUMPDEST PUSH1 0x1 JUMPDEST PUSH1 0x3 DUP2 GT PUSH2 0x17FD JUMPI PUSH2 0x147C PUSH2 0x4BE8 JUMP JUMPDEST PUSH1 0x0 DUP3 DUP2 MSTORE PUSH1 0x36 PUSH1 0x20 SWAP1 DUP2 MSTORE PUSH1 0x40 DUP1 DUP4 KECCAK256 DUP4 DUP1 MSTORE DUP1 DUP4 MSTORE DUP2 DUP5 KECCAK256 SLOAD DUP6 MSTORE PUSH1 0x1 DUP1 DUP6 MSTORE DUP2 DUP5 MSTORE DUP3 DUP6 KECCAK256 SLOAD DUP7 DUP6 ADD MSTORE PUSH1 0x2 DUP6 MSTORE DUP2 DUP5 MSTORE DUP3 DUP6 KECCAK256 SLOAD DUP7 DUP5 ADD MSTORE PUSH1 0x3 DUP6 MSTORE DUP2 DUP5 MSTORE DUP3 DUP6 KECCAK256 SLOAD PUSH1 0x60 DUP8 ADD MSTORE PUSH1 0x4 DUP6 MSTORE SWAP3 MSTORE DUP3 KECCAK256 SLOAD PUSH1 0x80 DUP5 ADD DUP2 SWAP1 MSTORE DUP4 MLOAD PUSH2 0x1504 SWAP3 PUSH2 0xA5E SWAP2 PUSH2 0x14F3 SWAP2 DUP8 SWAP1 JUMPDEST PUSH1 0x20 MUL ADD MLOAD PUSH2 0x22BD JUMP JUMPDEST PUSH1 0x40 DUP7 ADD MLOAD PUSH2 0xA5E SWAP1 DUP8 PUSH1 0x3 PUSH2 0x14E9 JUMP JUMPDEST DUP3 MLOAD SWAP1 SWAP2 POP DUP2 EQ ISZERO PUSH2 0x1515 JUMPI PUSH2 0x1788 JUMP JUMPDEST PUSH1 0x20 DUP3 ADD MLOAD DUP2 EQ ISZERO PUSH2 0x159B JUMPI PUSH1 0x0 PUSH1 0x28 PUSH1 0x0 PUSH1 0x23 DUP7 PUSH1 0x5 DUP2 LT PUSH2 0x153A JUMPI PUSH2 0x153A PUSH2 0x4CF4 JUMP JUMPDEST ADD SLOAD PUSH1 0x1 PUSH1 0x1 PUSH1 0xA0 SHL SUB AND DUP2 MSTORE PUSH1 0x20 DUP2 ADD SWAP2 SWAP1 SWAP2 MSTORE PUSH1 0x40 ADD PUSH1 0x0 SWAP1 DUP2 KECCAK256 SLOAD SWAP2 POP PUSH1 0x28 DUP2 PUSH1 0x23 DUP8 PUSH1 0x5 DUP2 LT PUSH2 0x1570 JUMPI PUSH2 0x1570 PUSH2 0x4CF4 JUMP JUMPDEST ADD SLOAD PUSH1 0x1 PUSH1 0x1 PUSH1 0xA0 SHL SUB AND DUP2 MSTORE PUSH1 0x20 DUP2 ADD SWAP2 SWAP1 SWAP2 MSTORE PUSH1 0x40 ADD PUSH1 0x0 KECCAK256 SSTORE PUSH2 0x1595 DUP2 PUSH2 0x3C8A JUMP JUMPDEST POP PUSH2 0x1788 JUMP JUMPDEST PUSH1 0x40 DUP3 ADD MLOAD DUP2 EQ ISZERO PUSH2 0x161B JUMPI PUSH1 0x0 PUSH1 0x28 PUSH1 0x0 PUSH1 0x23 DUP7 PUSH1 0x5 DUP2 LT PUSH2 0x15C0 JUMPI PUSH2 0x15C0 PUSH2 0x4CF4 JUMP JUMPDEST ADD SLOAD PUSH1 0x1 PUSH1 0x1 PUSH1 0xA0 SHL SUB AND DUP2 MSTORE PUSH1 0x20 DUP2 ADD SWAP2 SWAP1 SWAP2 MSTORE PUSH1 0x40 ADD PUSH1 0x0 SWAP1 DUP2 KECCAK256 SLOAD SWAP2 POP PUSH1 0x28 DUP2 PUSH1 0x23 DUP8 PUSH1 0x5 DUP2 LT PUSH2 0x15F6 JUMPI PUSH2 0x15F6 PUSH2 0x4CF4 JUMP JUMPDEST ADD SLOAD PUSH1 0x1 PUSH1 0x1 PUSH1 0xA0 SHL SUB AND DUP2 MSTORE PUSH1 0x20 DUP2 ADD SWAP2 SWAP1 SWAP2 MSTORE PUSH1 0x40 ADD PUSH1 0x0 KECCAK256 SSTORE PUSH2 0x1595 DUP2 PUSH2 0x3D68 JUMP JUMPDEST PUSH1 0x60 DUP3 ADD MLOAD DUP2 EQ ISZERO PUSH2 0x16D1 JUMPI PUSH1 0x28 PUSH1 0x0 PUSH1 0x23 DUP6 PUSH1 0x5 DUP2 LT PUSH2 0x163E JUMPI PUSH2 0x163E PUSH2 0x4CF4 JUMP JUMPDEST ADD SLOAD PUSH1 0x1 PUSH1 0x1 PUSH1 0xA0 SHL SUB SWAP1 DUP2 AND DUP3 MSTORE PUSH1 0x20 DUP1 DUP4 ADD SWAP4 SWAP1 SWAP4 MSTORE PUSH1 0x40 SWAP2 DUP3 ADD PUSH1 0x0 SWAP1 DUP2 KECCAK256 SLOAD PUSH1 0x27 SLOAD SWAP1 SWAP3 AND DUP2 MSTORE PUSH1 0x28 SWAP1 SWAP4 MSTORE SWAP2 KECCAK256 SLOAD PUSH2 0x167B SWAP2 SWAP1 PUSH2 0x4D20 JUMP JUMPDEST PUSH1 0x27 SLOAD PUSH1 0x1 PUSH1 0x1 PUSH1 0xA0 SHL SUB AND PUSH1 0x0 SWAP1 DUP2 MSTORE PUSH1 0x28 PUSH1 0x20 DUP2 SWAP1 MSTORE PUSH1 0x40 DUP3 KECCAK256 SWAP3 SWAP1 SWAP3 SSTORE SWAP1 DUP2 PUSH1 0x23 DUP7 PUSH1 0x5 DUP2 LT PUSH2 0x16B0 JUMPI PUSH2 0x16B0 PUSH2 0x4CF4 JUMP JUMPDEST ADD SLOAD PUSH1 0x1 PUSH1 0x1 PUSH1 0xA0 SHL SUB AND DUP2 MSTORE PUSH1 0x20 DUP2 ADD SWAP2 SWAP1 SWAP2 MSTORE PUSH1 0x40 ADD PUSH1 0x0 KECCAK256 SSTORE PUSH2 0x1788 JUMP JUMPDEST PUSH1 0x80 DUP3 ADD MLOAD DUP2 EQ ISZERO PUSH2 0x1788 JUMPI PUSH1 0x0 PUSH1 0x28 PUSH1 0x0 PUSH1 0x23 DUP7 PUSH1 0x5 DUP2 LT PUSH2 0x16F6 JUMPI PUSH2 0x16F6 PUSH2 0x4CF4 JUMP JUMPDEST ADD SLOAD PUSH1 0x1 PUSH1 0x1 PUSH1 0xA0 SHL SUB AND DUP2 MSTORE PUSH1 0x20 DUP2 ADD SWAP2 SWAP1 SWAP2 MSTORE PUSH1 0x40 ADD PUSH1 0x0 SWAP1 DUP2 KECCAK256 SLOAD SWAP2 POP PUSH1 0x28 DUP2 PUSH1 0x23 DUP8 PUSH1 0x5 DUP2 LT PUSH2 0x172C JUMPI PUSH2 0x172C PUSH2 0x4CF4 JUMP JUMPDEST ADD SLOAD PUSH1 0x1 PUSH1 0x1 PUSH1 0xA0 SHL SUB SWAP1 DUP2 AND DUP3 MSTORE PUSH1 0x20 DUP1 DUP4 ADD SWAP4 SWAP1 SWAP4 MSTORE PUSH1 0x40 SWAP2 DUP3 ADD PUSH1 0x0 SWAP1 DUP2 KECCAK256 SWAP5 SWAP1 SWAP5 SSTORE PUSH1 0x7 SLOAD AND DUP4 MSTORE PUSH1 0x28 SWAP1 SWAP2 MSTORE SWAP1 KECCAK256 SLOAD PUSH2 0x176B SWAP1 DUP3 SWAP1 PUSH2 0x4D20 JUMP JUMPDEST PUSH1 0x7 SLOAD PUSH1 0x1 PUSH1 0x1 PUSH1 0xA0 SHL SUB AND PUSH1 0x0 SWAP1 DUP2 MSTORE PUSH1 0x28 PUSH1 0x20 MSTORE PUSH1 0x40 SWAP1 KECCAK256 SSTORE POP JUMPDEST PUSH1 0x27 SLOAD PUSH1 0x1 PUSH1 0x1 PUSH1 0xA0 SHL SUB SWAP1 DUP2 AND PUSH1 0x0 SWAP1 DUP2 MSTORE PUSH1 0x28 PUSH1 0x20 MSTORE PUSH1 0x40 DUP1 DUP3 KECCAK256 SLOAD PUSH1 0x22 SLOAD SWAP1 SWAP4 AND DUP3 MSTORE SWAP1 KECCAK256 SLOAD PUSH2 0x17BB SWAP2 SWAP1 PUSH2 0x4D20 JUMP JUMPDEST PUSH1 0x22 SLOAD PUSH1 0x1 PUSH1 0x1 PUSH1 0xA0 SHL SUB SWAP1 DUP2 AND PUSH1 0x0 SWAP1 DUP2 MSTORE PUSH1 0x28 PUSH1 0x20 MSTORE PUSH1 0x40 DUP1 DUP3 KECCAK256 SWAP4 SWAP1 SWAP4 SSTORE PUSH1 0x27 SLOAD SWAP1 SWAP2 AND DUP2 MSTORE SWAP1 DUP2 KECCAK256 SSTORE POP DUP2 SWAP1 POP PUSH2 0x17F5 DUP2 PUSH2 0x5686 JUMP JUMPDEST SWAP2 POP POP PUSH2 0x146C JUMP JUMPDEST POP POP TIMESTAMP PUSH1 0x1D SSTORE JUMP JUMPDEST PUSH1 0x23 DUP2 PUSH1 0x5 DUP2 LT PUSH2 0x1815 JUMPI PUSH1 0x0 DUP1 REVERT JUMPDEST ADD SLOAD PUSH1 0x1 PUSH1 0x1 PUSH1 0xA0 SHL SUB AND SWAP1 POP DUP2 JUMP JUMPDEST PUSH1 0xF DUP1 SLOAD PUSH2 0x104F SWAP1 PUSH2 0x5651 JUMP JUMPDEST PUSH1 0x3 SLOAD PUSH1 0xFF AND ISZERO PUSH2 0x1855 JUMPI PUSH1 0x40 MLOAD PUSH3 0x461BCD PUSH1 0xE5 SHL DUP2 MSTORE PUSH1 0x4 ADD PUSH2 0xF7C SWAP1 PUSH2 0x56D6 JUMP JUMPDEST PUSH1 0xC SLOAD PUSH1 0xFF AND ISZERO DUP1 PUSH2 0x1875 JUMPI POP CALLER PUSH1 0x0 SWAP1 DUP2 MSTORE PUSH1 0x29 PUSH1 0x20 MSTORE PUSH1 0x40 SWAP1 KECCAK256 SLOAD ISZERO ISZERO JUMPDEST PUSH2 0x18A6 JUMPI PUSH1 0x40 MLOAD PUSH3 0x461BCD PUSH1 0xE5 SHL DUP2 MSTORE PUSH1 0x20 PUSH1 0x4 DUP3 ADD MSTORE PUSH1 0x2 PUSH1 0x24 DUP3 ADD MSTORE PUSH2 0x3299 PUSH1 0xF1 SHL PUSH1 0x44 DUP3 ADD MSTORE PUSH1 0x64 ADD PUSH2 0xF7C JUMP JUMPDEST DUP3 ISZERO DUP1 PUSH2 0x18B3 JUMPI POP PUSH1 0xC DUP4 GT JUMPDEST ISZERO PUSH2 0x18E5 JUMPI PUSH1 0x40 MLOAD PUSH3 0x461BCD PUSH1 0xE5 SHL DUP2 MSTORE PUSH1 0x20 PUSH1 0x4 DUP3 ADD MSTORE PUSH1 0x2 PUSH1 0x24 DUP3 ADD MSTORE PUSH2 0x6533 PUSH1 0xF0 SHL PUSH1 0x44 DUP3 ADD MSTORE PUSH1 0x64 ADD PUSH2 0xF7C JUMP JUMPDEST DUP2 ISZERO DUP1 PUSH2 0x18F2 JUMPI POP PUSH1 0x1F DUP3 GT JUMPDEST ISZERO PUSH2 0x1924 JUMPI PUSH1 0x40 MLOAD PUSH3 0x461BCD PUSH1 0xE5 SHL DUP2 MSTORE PUSH1 0x20 PUSH1 0x4 DUP3 ADD MSTORE PUSH1 0x2 PUSH1 0x24 DUP3 ADD MSTORE PUSH2 0x194D PUSH1 0xF2 SHL PUSH1 0x44 DUP3 ADD MSTORE PUSH1 0x64 ADD PUSH2 0xF7C JUMP JUMPDEST DUP3 PUSH1 0x4 EQ DUP1 PUSH2 0x1933 JUMPI POP DUP3 PUSH1 0x6 EQ JUMPDEST DUP1 PUSH2 0x193E JUMPI POP DUP3 PUSH1 0x9 EQ JUMPDEST DUP1 PUSH2 0x1949 JUMPI POP DUP3 PUSH1 0xB EQ JUMPDEST DUP1 ISZERO PUSH2 0x1955 JUMPI POP PUSH1 0x1E DUP3 GT JUMPDEST ISZERO PUSH2 0x197D JUMPI PUSH1 0x40 MLOAD PUSH4 0x24E2BA21 PUSH1 0xE1 SHL DUP2 MSTORE PUSH1 0x4 DUP2 ADD DUP5 SWAP1 MSTORE PUSH1 0x24 DUP2 ADD DUP4 SWAP1 MSTORE PUSH1 0x44 ADD PUSH2 0xF7C JUMP JUMPDEST DUP3 PUSH1 0x2 EQ DUP1 ISZERO PUSH2 0x1991 JUMPI POP PUSH2 0x1991 DUP5 PUSH2 0x3A26 JUMP JUMPDEST DUP1 ISZERO PUSH2 0x199D JUMPI POP PUSH1 0x1D DUP3 GT JUMPDEST ISZERO PUSH2 0x19C5 JUMPI PUSH1 0x40 MLOAD PUSH4 0x24E2BA21 PUSH1 0xE1 SHL DUP2 MSTORE PUSH1 0x4 DUP2 ADD DUP5 SWAP1 MSTORE PUSH1 0x24 DUP2 ADD DUP4 SWAP1 MSTORE PUSH1 0x44 ADD PUSH2 0xF7C JUMP JUMPDEST DUP3 PUSH1 0x2 EQ DUP1 ISZERO PUSH2 0x19DB JUMPI POP PUSH2 0x19D9 DUP5 PUSH2 0x3A26 JUMP JUMPDEST ISZERO JUMPDEST DUP1 ISZERO PUSH2 0x19E7 JUMPI POP PUSH1 0x1C DUP3 GT JUMPDEST ISZERO PUSH2 0x1A0F JUMPI PUSH1 0x40 MLOAD PUSH4 0x24E2BA21 PUSH1 0xE1 SHL DUP2 MSTORE PUSH1 0x4 DUP2 ADD DUP5 SWAP1 MSTORE PUSH1 0x24 DUP2 ADD DUP4 SWAP1 MSTORE PUSH1 0x44 ADD PUSH2 0xF7C JUMP JUMPDEST PUSH1 0x0 PUSH2 0x1A1C DUP6 DUP6 DUP6 PUSH2 0x3A0B JUMP JUMPDEST SWAP1 POP TIMESTAMP DUP2 GT ISZERO DUP1 ISZERO PUSH2 0x1A30 JUMPI POP PUSH1 0x1B SLOAD DUP2 LT ISZERO JUMPDEST PUSH2 0x1A61 JUMPI PUSH1 0x40 MLOAD PUSH3 0x461BCD PUSH1 0xE5 SHL DUP2 MSTORE PUSH1 0x20 PUSH1 0x4 DUP3 ADD MSTORE PUSH1 0x2 PUSH1 0x24 DUP3 ADD MSTORE PUSH2 0x6535 PUSH1 0xF0 SHL PUSH1 0x44 DUP3 ADD MSTORE PUSH1 0x64 ADD PUSH2 0xF7C JUMP JUMPDEST PUSH1 0x0 DUP2 DUP2 MSTORE PUSH1 0x2A PUSH1 0x20 MSTORE PUSH1 0x40 SWAP1 KECCAK256 SLOAD PUSH1 0x1 PUSH1 0x1 PUSH1 0xA0 SHL SUB AND ISZERO PUSH2 0x1AAB JUMPI PUSH1 0x40 MLOAD PUSH3 0x461BCD PUSH1 0xE5 SHL DUP2 MSTORE PUSH1 0x20 PUSH1 0x4 DUP3 ADD MSTORE PUSH1 0x2 PUSH1 0x24 DUP3 ADD MSTORE PUSH2 0x329B PUSH1 0xF1 SHL PUSH1 0x44 DUP3 ADD MSTORE PUSH1 0x64 ADD PUSH2 0xF7C JUMP JUMPDEST PUSH1 0x1 PUSH1 0x1 PUSH1 0xA0 SHL SUB DUP3 AND PUSH2 0x1ABD JUMPI CALLER SWAP2 POP JUMPDEST CALLER PUSH1 0x0 SWAP1 DUP2 MSTORE PUSH1 0x29 PUSH1 0x20 MSTORE PUSH1 0x40 DUP2 KECCAK256 SLOAD ISZERO PUSH2 0x1BB6 JUMPI POP CALLER PUSH1 0x0 SWAP1 DUP2 MSTORE PUSH1 0x29 PUSH1 0x20 MSTORE PUSH1 0x40 SWAP1 KECCAK256 SLOAD PUSH1 0x1 SWAP1 PUSH2 0x1AF1 SWAP1 DUP3 SWAP1 PUSH2 0x5749 JUMP JUMPDEST CALLER PUSH1 0x0 SWAP1 DUP2 MSTORE PUSH1 0x29 PUSH1 0x20 MSTORE PUSH1 0x40 SWAP1 KECCAK256 SSTORE PUSH1 0xB SLOAD PUSH2 0x1B0F SWAP1 PUSH1 0x1 PUSH2 0x4D20 JUMP JUMPDEST PUSH1 0xB SSTORE PUSH1 0xD SLOAD ISZERO PUSH2 0x1BB6 JUMPI PUSH1 0x1 PUSH1 0xD SLOAD PUSH2 0x1B29 SWAP2 SWAP1 PUSH2 0x5749 JUMP JUMPDEST PUSH1 0xD SSTORE PUSH1 0x0 DUP3 DUP2 MSTORE PUSH1 0x2B PUSH1 0x20 MSTORE PUSH1 0x40 DUP2 KECCAK256 DUP1 SLOAD PUSH1 0xFF NOT AND PUSH1 0x1 SWAP1 DUP2 OR SWAP1 SWAP2 SSTORE PUSH1 0x2D DUP1 SLOAD DUP1 DUP4 ADD DUP3 SSTORE SWAP3 DUP2 SWAP1 MSTORE PUSH32 0x4A2CC91EE622DA3BC833A54C37FFCB6F3EC23B7793EFC5EAF5E71B7B406C5C06 SWAP1 SWAP3 ADD DUP1 SLOAD PUSH1 0x1 PUSH1 0x1 PUSH1 0xA0 SHL SUB NOT AND CALLER OR SWAP1 SSTORE SWAP1 SLOAD PUSH2 0x1B95 SWAP2 SWAP1 PUSH2 0x5749 JUMP JUMPDEST PUSH1 0x0 DUP4 DUP2 MSTORE PUSH1 0x2C PUSH1 0x20 MSTORE PUSH1 0x40 SWAP1 KECCAK256 SSTORE PUSH1 0xD SLOAD PUSH2 0x1BB6 JUMPI PUSH1 0xC DUP1 SLOAD PUSH1 0xFF NOT AND SWAP1 SSTORE JUMPDEST DUP1 PUSH2 0x1E87 JUMPI PUSH2 0x1BC3 PUSH2 0x3603 JUMP JUMPDEST CALLVALUE LT ISZERO PUSH2 0x1BF7 JUMPI PUSH1 0x40 MLOAD PUSH3 0x461BCD PUSH1 0xE5 SHL DUP2 MSTORE PUSH1 0x20 PUSH1 0x4 DUP3 ADD MSTORE PUSH1 0x2 PUSH1 0x24 DUP3 ADD MSTORE PUSH2 0x6537 PUSH1 0xF0 SHL PUSH1 0x44 DUP3 ADD MSTORE PUSH1 0x64 ADD PUSH2 0xF7C JUMP JUMPDEST PUSH1 0x0 PUSH1 0x64 PUSH2 0x1C06 PUSH1 0x5 CALLVALUE PUSH2 0x5700 JUMP JUMPDEST PUSH2 0x1C10 SWAP2 SWAP1 PUSH2 0x5735 JUMP JUMPDEST PUSH1 0x22 SLOAD PUSH1 0x1 PUSH1 0x1 PUSH1 0xA0 SHL SUB AND PUSH1 0x0 SWAP1 DUP2 MSTORE PUSH1 0x28 PUSH1 0x20 MSTORE PUSH1 0x40 SWAP1 KECCAK256 SLOAD SWAP1 SWAP2 POP PUSH2 0x1C39 SWAP1 DUP3 SWAP1 PUSH2 0x4D20 JUMP JUMPDEST PUSH1 0x22 SLOAD PUSH1 0x1 PUSH1 0x1 PUSH1 0xA0 SHL SUB AND PUSH1 0x0 SWAP1 DUP2 MSTORE PUSH1 0x28 PUSH1 0x20 MSTORE PUSH1 0x40 DUP2 KECCAK256 SWAP2 SWAP1 SWAP2 SSTORE PUSH1 0x64 PUSH2 0x1C64 PUSH1 0x5 CALLVALUE PUSH2 0x5700 JUMP JUMPDEST PUSH2 0x1C6E SWAP2 SWAP1 PUSH2 0x5735 JUMP JUMPDEST PUSH1 0x7 SLOAD SWAP1 SWAP2 POP PUSH1 0x1 PUSH1 0x1 PUSH1 0xA0 SHL SUB AND PUSH2 0x1CC7 JUMPI PUSH1 0x21 SLOAD PUSH1 0x1 PUSH1 0x1 PUSH1 0xA0 SHL SUB AND PUSH1 0x0 SWAP1 DUP2 MSTORE PUSH1 0x28 PUSH1 0x20 MSTORE PUSH1 0x40 SWAP1 KECCAK256 SLOAD PUSH2 0x1CA7 SWAP1 DUP3 SWAP1 PUSH2 0x4D20 JUMP JUMPDEST PUSH1 0x21 SLOAD PUSH1 0x1 PUSH1 0x1 PUSH1 0xA0 SHL SUB AND PUSH1 0x0 SWAP1 DUP2 MSTORE PUSH1 0x28 PUSH1 0x20 MSTORE PUSH1 0x40 SWAP1 KECCAK256 SSTORE PUSH2 0x1D09 JUMP JUMPDEST PUSH1 0x7 SLOAD PUSH1 0x1 PUSH1 0x1 PUSH1 0xA0 SHL SUB AND PUSH1 0x0 SWAP1 DUP2 MSTORE PUSH1 0x28 PUSH1 0x20 MSTORE PUSH1 0x40 SWAP1 KECCAK256 SLOAD PUSH2 0x1CED SWAP1 DUP3 SWAP1 PUSH2 0x4D20 JUMP JUMPDEST PUSH1 0x7 SLOAD PUSH1 0x1 PUSH1 0x1 PUSH1 0xA0 SHL SUB AND PUSH1 0x0 SWAP1 DUP2 MSTORE PUSH1 0x28 PUSH1 0x20 MSTORE PUSH1 0x40 SWAP1 KECCAK256 SSTORE JUMPDEST PUSH1 0x0 PUSH1 0x64 PUSH2 0x1D18 PUSH1 0x5 CALLVALUE PUSH2 0x5700 JUMP JUMPDEST PUSH2 0x1D22 SWAP2 SWAP1 PUSH2 0x5735 JUMP JUMPDEST PUSH1 0x21 SLOAD PUSH1 0x1 PUSH1 0x1 PUSH1 0xA0 SHL SUB AND PUSH1 0x0 SWAP1 DUP2 MSTORE PUSH1 0x28 PUSH1 0x20 MSTORE PUSH1 0x40 SWAP1 KECCAK256 SLOAD SWAP1 SWAP2 POP PUSH2 0x1D4B SWAP1 DUP3 SWAP1 PUSH2 0x4D20 JUMP JUMPDEST PUSH1 0x21 SLOAD PUSH1 0x1 PUSH1 0x1 PUSH1 0xA0 SHL SUB AND PUSH1 0x0 SWAP1 DUP2 MSTORE PUSH1 0x28 PUSH1 0x20 MSTORE PUSH1 0x40 DUP2 KECCAK256 SWAP2 SWAP1 SWAP2 SSTORE PUSH1 0x64 PUSH2 0x1D76 PUSH1 0x19 CALLVALUE PUSH2 0x5700 JUMP JUMPDEST PUSH2 0x1D80 SWAP2 SWAP1 PUSH2 0x5735 JUMP JUMPDEST PUSH1 0x27 SLOAD PUSH1 0x1 PUSH1 0x1 PUSH1 0xA0 SHL SUB AND PUSH1 0x0 SWAP1 DUP2 MSTORE PUSH1 0x28 PUSH1 0x20 MSTORE PUSH1 0x40 SWAP1 KECCAK256 SLOAD SWAP1 SWAP2 POP PUSH2 0x1DA9 SWAP1 DUP3 SWAP1 PUSH2 0x4D20 JUMP JUMPDEST PUSH1 0x27 SLOAD PUSH1 0x1 PUSH1 0x1 PUSH1 0xA0 SHL SUB AND PUSH1 0x0 SWAP1 DUP2 MSTORE PUSH1 0x28 PUSH1 0x20 MSTORE PUSH1 0x40 DUP2 KECCAK256 SWAP2 SWAP1 SWAP2 SSTORE PUSH1 0x64 PUSH2 0x1DD4 PUSH1 0x1E CALLVALUE PUSH2 0x5700 JUMP JUMPDEST PUSH2 0x1DDE SWAP2 SWAP1 PUSH2 0x5735 JUMP JUMPDEST PUSH1 0x24 SLOAD PUSH1 0x1 PUSH1 0x1 PUSH1 0xA0 SHL SUB AND PUSH1 0x0 SWAP1 DUP2 MSTORE PUSH1 0x28 PUSH1 0x20 MSTORE PUSH1 0x40 SWAP1 KECCAK256 SLOAD SWAP1 SWAP2 POP PUSH2 0x1E07 SWAP1 DUP3 SWAP1 PUSH2 0x4D20 JUMP JUMPDEST PUSH1 0x24 SLOAD PUSH1 0x1 PUSH1 0x1 PUSH1 0xA0 SHL SUB AND PUSH1 0x0 SWAP1 DUP2 MSTORE PUSH1 0x28 PUSH1 0x20 MSTORE PUSH1 0x40 DUP2 KECCAK256 SWAP2 SWAP1 SWAP2 SSTORE PUSH1 0x64 PUSH2 0x1E32 PUSH1 0x1E CALLVALUE PUSH2 0x5700 JUMP JUMPDEST PUSH2 0x1E3C SWAP2 SWAP1 PUSH2 0x5735 JUMP JUMPDEST PUSH1 0x25 SLOAD PUSH1 0x1 PUSH1 0x1 PUSH1 0xA0 SHL SUB AND PUSH1 0x0 SWAP1 DUP2 MSTORE PUSH1 0x28 PUSH1 0x20 MSTORE PUSH1 0x40 SWAP1 KECCAK256 SLOAD SWAP1 SWAP2 POP PUSH2 0x1E65 SWAP1 DUP3 SWAP1 PUSH2 0x4D20 JUMP JUMPDEST PUSH1 0x25 SLOAD PUSH1 0x1 PUSH1 0x1 PUSH1 0xA0 SHL SUB AND PUSH1 0x0 SWAP1 DUP2 MSTORE PUSH1 0x28 PUSH1 0x20 MSTORE PUSH1 0x40 SWAP1 KECCAK256 SSTORE POP POP POP POP POP POP JUMPDEST PUSH2 0x1EA3 DUP4 DUP4 PUSH1 0x1 PUSH1 0x40 MLOAD DUP1 PUSH1 0x20 ADD PUSH1 0x40 MSTORE DUP1 PUSH1 0x0 DUP2 MSTORE POP PUSH2 0x3B7A JUMP JUMPDEST PUSH1 0x1E DUP1 SLOAD PUSH1 0x1 DUP2 ADD SWAP1 SWAP2 SSTORE PUSH32 0x50BB669A95C7B50B7E8A6F09454034B2B14CF2B85C730DCA9A539CA82CB6E350 ADD DUP3 SWAP1 SSTORE PUSH1 0x0 DUP3 DUP2 MSTORE PUSH1 0x2A PUSH1 0x20 MSTORE PUSH1 0x40 SWAP1 KECCAK256 DUP1 SLOAD PUSH1 0x1 PUSH1 0x1 PUSH1 0xA0 SHL SUB NOT AND PUSH1 0x1 PUSH1 0x1 PUSH1 0xA0 SHL SUB DUP6 AND OR SWAP1 SSTORE TIMESTAMP PUSH1 0x1C SSTORE DUP1 PUSH2 0x1F58 JUMPI PUSH2 0x1F0B PUSH2 0x3E1C JUMP JUMPDEST PUSH1 0x40 DUP1 MLOAD DUP8 DUP2 MSTORE PUSH1 0x20 DUP2 ADD DUP8 SWAP1 MSTORE SWAP1 DUP2 ADD DUP6 SWAP1 MSTORE PUSH1 0x1 PUSH1 0x1 PUSH1 0xA0 SHL SUB DUP5 AND SWAP1 PUSH32 0xA51E9B2EF1F037DEE551EB226D6D1581C8FB0E0243820EBD1FBB41A13E6C2364 SWAP1 PUSH1 0x60 ADD PUSH1 0x40 MLOAD DUP1 SWAP2 SUB SWAP1 LOG2 JUMPDEST POP POP POP POP POP POP JUMP JUMPDEST PUSH1 0x1 PUSH1 0x1 PUSH1 0xA0 SHL SUB DUP6 AND CALLER EQ DUP1 PUSH2 0x1F7C JUMPI POP PUSH2 0x1F7C DUP6 CALLER PUSH2 0xDCB JUMP JUMPDEST PUSH2 0x1FE3 JUMPI PUSH1 0x40 MLOAD PUSH3 0x461BCD PUSH1 0xE5 SHL DUP2 MSTORE PUSH1 0x20 PUSH1 0x4 DUP3 ADD MSTORE PUSH1 0x32 PUSH1 0x24 DUP3 ADD MSTORE PUSH32 0x455243313135353A207472616E736665722063616C6C6572206973206E6F7420 PUSH1 0x44 DUP3 ADD MSTORE PUSH18 0x1BDDDB995C881B9BDC88185C1C1C9BDD9959 PUSH1 0x72 SHL PUSH1 0x64 DUP3 ADD MSTORE PUSH1 0x84 ADD PUSH2 0xF7C JUMP JUMPDEST PUSH1 0x40 MLOAD PUSH3 0x461BCD PUSH1 0xE5 SHL DUP2 MSTORE PUSH1 0x20 PUSH1 0x4 DUP3 ADD MSTORE PUSH1 0x3 PUSH1 0x24 DUP3 ADD MSTORE PUSH3 0x653237 PUSH1 0xE8 SHL PUSH1 0x44 DUP3 ADD MSTORE PUSH1 0x64 ADD PUSH2 0xF7C JUMP JUMPDEST POP POP POP POP POP JUMP JUMPDEST PUSH1 0x31 PUSH1 0x20 MSTORE PUSH1 0x0 SWAP1 DUP2 MSTORE PUSH1 0x40 SWAP1 KECCAK256 DUP1 SLOAD PUSH2 0x104F SWAP1 PUSH2 0x5651 JUMP JUMPDEST PUSH1 0x3 SLOAD PUSH1 0x1 PUSH1 0x1 PUSH1 0xA0 SHL SUB PUSH2 0x100 SWAP1 SWAP2 DIV AND CALLER EQ PUSH2 0x2061 JUMPI PUSH1 0x40 MLOAD PUSH3 0x461BCD PUSH1 0xE5 SHL DUP2 MSTORE PUSH1 0x4 ADD PUSH2 0xF7C SWAP1 PUSH2 0x56A1 JUMP JUMPDEST PUSH1 0x3 SLOAD PUSH1 0xFF AND ISZERO PUSH2 0x2084 JUMPI PUSH1 0x40 MLOAD PUSH3 0x461BCD PUSH1 0xE5 SHL DUP2 MSTORE PUSH1 0x4 ADD PUSH2 0xF7C SWAP1 PUSH2 0x56D6 JUMP JUMPDEST PUSH1 0x0 PUSH2 0x2091 DUP5 DUP5 DUP5 PUSH2 0x3A0B JUMP JUMPDEST SWAP1 POP PUSH1 0x1B SLOAD PUSH1 0x0 EQ PUSH2 0x20D4 JUMPI PUSH1 0x1B SLOAD DUP2 LT PUSH2 0x20D4 JUMPI PUSH1 0x40 MLOAD PUSH3 0x461BCD PUSH1 0xE5 SHL DUP2 MSTORE PUSH1 0x20 PUSH1 0x4 DUP3 ADD MSTORE PUSH1 0x3 PUSH1 0x24 DUP3 ADD MSTORE PUSH3 0xCA647 PUSH1 0xEB SHL PUSH1 0x44 DUP3 ADD MSTORE PUSH1 0x64 ADD PUSH2 0xF7C JUMP JUMPDEST PUSH1 0x1B SSTORE POP POP POP JUMP JUMPDEST PUSH1 0x60 DUP2 MLOAD DUP4 MLOAD EQ PUSH2 0x2141 JUMPI PUSH1 0x40 MLOAD PUSH3 0x461BCD PUSH1 0xE5 SHL DUP2 MSTORE PUSH1 0x20 PUSH1 0x4 DUP3 ADD MSTORE PUSH1 0x29 PUSH1 0x24 DUP3 ADD MSTORE PUSH32 0x455243313135353A206163636F756E747320616E6420696473206C656E677468 PUSH1 0x44 DUP3 ADD MSTORE PUSH9 0x40DAD2E6DAC2E8C6D PUSH1 0xBB SHL PUSH1 0x64 DUP3 ADD MSTORE PUSH1 0x84 ADD PUSH2 0xF7C JUMP JUMPDEST PUSH1 0x0 DUP4 MLOAD PUSH1 0x1 PUSH1 0x1 PUSH1 0x40 SHL SUB DUP2 GT ISZERO PUSH2 0x215C JUMPI PUSH2 0x215C PUSH2 0x4F5D JUMP JUMPDEST PUSH1 0x40 MLOAD SWAP1 DUP1 DUP3 MSTORE DUP1 PUSH1 0x20 MUL PUSH1 0x20 ADD DUP3 ADD PUSH1 0x40 MSTORE DUP1 ISZERO PUSH2 0x2185 JUMPI DUP2 PUSH1 0x20 ADD PUSH1 0x20 DUP3 MUL DUP1 CALLDATASIZE DUP4 CALLDATACOPY ADD SWAP1 POP JUMPDEST POP SWAP1 POP PUSH1 0x0 JUMPDEST DUP5 MLOAD DUP2 LT ISZERO PUSH2 0x21FD JUMPI PUSH2 0x21D0 DUP6 DUP3 DUP2 MLOAD DUP2 LT PUSH2 0x21A9 JUMPI PUSH2 0x21A9 PUSH2 0x4CF4 JUMP JUMPDEST PUSH1 0x20 MUL PUSH1 0x20 ADD ADD MLOAD DUP6 DUP4 DUP2 MLOAD DUP2 LT PUSH2 0x21C3 JUMPI PUSH2 0x21C3 PUSH2 0x4CF4 JUMP JUMPDEST PUSH1 0x20 MUL PUSH1 0x20 ADD ADD MLOAD PUSH2 0xF14 JUMP JUMPDEST DUP3 DUP3 DUP2 MLOAD DUP2 LT PUSH2 0x21E2 JUMPI PUSH2 0x21E2 PUSH2 0x4CF4 JUMP JUMPDEST PUSH1 0x20 SWAP1 DUP2 MUL SWAP2 SWAP1 SWAP2 ADD ADD MSTORE PUSH2 0x21F6 DUP2 PUSH2 0x5686 JUMP JUMPDEST SWAP1 POP PUSH2 0x218B JUMP JUMPDEST POP SWAP4 SWAP3 POP POP POP JUMP JUMPDEST PUSH1 0x3 SLOAD PUSH1 0x1 PUSH1 0x1 PUSH1 0xA0 SHL SUB PUSH2 0x100 SWAP1 SWAP2 DIV AND CALLER EQ PUSH2 0x2235 JUMPI PUSH1 0x40 MLOAD PUSH3 0x461BCD PUSH1 0xE5 SHL DUP2 MSTORE PUSH1 0x4 ADD PUSH2 0xF7C SWAP1 PUSH2 0x56A1 JUMP JUMPDEST PUSH1 0x3 SLOAD PUSH1 0xFF AND ISZERO PUSH2 0x2258 JUMPI PUSH1 0x40 MLOAD PUSH3 0x461BCD PUSH1 0xE5 SHL DUP2 MSTORE PUSH1 0x4 ADD PUSH2 0xF7C SWAP1 PUSH2 0x56D6 JUMP JUMPDEST PUSH1 0x1F SSTORE JUMP JUMPDEST PUSH1 0x2D DUP2 DUP2 SLOAD DUP2 LT PUSH2 0x226D JUMPI PUSH1 0x0 DUP1 REVERT JUMPDEST PUSH1 0x0 SWAP2 DUP3 MSTORE PUSH1 0x20 SWAP1 SWAP2 KECCAK256 ADD SLOAD PUSH1 0x1 PUSH1 0x1 PUSH1 0xA0 SHL SUB AND SWAP1 POP DUP2 JUMP JUMPDEST PUSH1 0x2E PUSH1 0x20 MSTORE PUSH1 0x0 SWAP1 DUP2 MSTORE PUSH1 0x40 SWAP1 KECCAK256 DUP1 SLOAD PUSH2 0x104F SWAP1 PUSH2 0x5651 JUMP JUMPDEST PUSH1 0x10 DUP1 SLOAD PUSH2 0x104F SWAP1 PUSH2 0x5651 JUMP JUMPDEST PUSH1 0x16 DUP2 DUP2 SLOAD DUP2 LT PUSH2 0x226D JUMPI PUSH1 0x0 DUP1 REVERT JUMPDEST PUSH1 0x0 DUP2 DUP4 LT ISZERO PUSH2 0x22CD JUMPI DUP2 PUSH2 0x22CF JUMP JUMPDEST DUP3 JUMPDEST SWAP4 SWAP3 POP POP POP JUMP JUMPDEST CALLER PUSH1 0x0 SWAP1 DUP2 MSTORE PUSH1 0x28 PUSH1 0x20 MSTORE PUSH1 0x40 SWAP1 KECCAK256 SLOAD PUSH7 0x2386F26FC10000 GT ISZERO PUSH2 0x2322 JUMPI PUSH1 0x40 MLOAD PUSH3 0x461BCD PUSH1 0xE5 SHL DUP2 MSTORE PUSH1 0x20 PUSH1 0x4 DUP3 ADD MSTORE PUSH1 0x3 PUSH1 0x24 DUP3 ADD MSTORE PUSH3 0x653135 PUSH1 0xE8 SHL PUSH1 0x44 DUP3 ADD MSTORE PUSH1 0x64 ADD PUSH2 0xF7C JUMP JUMPDEST CALLER PUSH1 0x0 DUP2 DUP2 MSTORE PUSH1 0x28 PUSH1 0x20 MSTORE PUSH1 0x40 DUP1 DUP3 KECCAK256 DUP1 SLOAD SWAP1 DUP4 SWAP1 SSTORE SWAP1 MLOAD SWAP1 SWAP3 DUP4 SWAP3 SWAP1 SWAP2 PUSH32 0x2F174CA282119315C59EFAF21147AEF438581DABDEB498198AE28964373DD8BC SWAP2 SWAP1 LOG3 PUSH1 0x40 MLOAD CALLER SWAP1 DUP3 ISZERO PUSH2 0x8FC MUL SWAP1 DUP4 SWAP1 PUSH1 0x0 DUP2 DUP2 DUP2 DUP6 DUP9 DUP9 CALL SWAP4 POP POP POP POP ISZERO DUP1 ISZERO PUSH2 0x2391 JUMPI RETURNDATASIZE PUSH1 0x0 DUP1 RETURNDATACOPY RETURNDATASIZE PUSH1 0x0 REVERT JUMPDEST POP POP JUMP JUMPDEST PUSH1 0x3 SLOAD PUSH1 0x1 PUSH1 0x1 PUSH1 0xA0 SHL SUB PUSH2 0x100 SWAP1 SWAP2 DIV AND CALLER EQ PUSH2 0x23C5 JUMPI PUSH1 0x40 MLOAD PUSH3 0x461BCD PUSH1 0xE5 SHL DUP2 MSTORE PUSH1 0x4 ADD PUSH2 0xF7C SWAP1 PUSH2 0x56A1 JUMP JUMPDEST PUSH2 0x1333 PUSH1 0x0 PUSH2 0x3FB3 JUMP JUMPDEST PUSH1 0x5 DUP1 SLOAD PUSH2 0x104F SWAP1 PUSH2 0x5651 JUMP JUMPDEST PUSH1 0x3 SLOAD PUSH1 0xFF AND ISZERO PUSH2 0x23FF JUMPI PUSH1 0x40 MLOAD PUSH3 0x461BCD PUSH1 0xE5 SHL DUP2 MSTORE PUSH1 0x4 ADD PUSH2 0xF7C SWAP1 PUSH2 0x56D6 JUMP JUMPDEST PUSH1 0xE SLOAD PUSH2 0x100 SWAP1 DIV PUSH1 0x1 PUSH1 0x1 PUSH1 0xA0 SHL SUB AND ISZERO PUSH2 0x2442 JUMPI PUSH1 0x40 MLOAD PUSH3 0x461BCD PUSH1 0xE5 SHL DUP2 MSTORE PUSH1 0x20 PUSH1 0x4 DUP3 ADD MSTORE PUSH1 0x2 PUSH1 0x24 DUP3 ADD MSTORE PUSH2 0xCA7 PUSH1 0xF3 SHL PUSH1 0x44 DUP3 ADD MSTORE PUSH1 0x64 ADD PUSH2 0xF7C JUMP JUMPDEST PUSH1 0x0 PUSH2 0x2450 PUSH1 0x13 SLOAD TIMESTAMP PUSH2 0x3B53 JUMP JUMPDEST GT ISZERO PUSH2 0x2483 JUMPI PUSH1 0x40 MLOAD PUSH3 0x461BCD PUSH1 0xE5 SHL DUP2 MSTORE PUSH1 0x20 PUSH1 0x4 DUP3 ADD MSTORE PUSH1 0x2 PUSH1 0x24 DUP3 ADD MSTORE PUSH2 0x6539 PUSH1 0xF0 SHL PUSH1 0x44 DUP3 ADD MSTORE PUSH1 0x64 ADD PUSH2 0xF7C JUMP JUMPDEST PUSH1 0x0 PUSH1 0x2 PUSH2 0x248F PUSH2 0x3603 JUMP JUMPDEST PUSH2 0x2499 SWAP1 CALLVALUE PUSH2 0x5735 JUMP JUMPDEST PUSH2 0x24A3 SWAP2 SWAP1 PUSH2 0x5735 JUMP JUMPDEST SWAP1 POP PUSH1 0x1E DUP2 LT ISZERO PUSH2 0x24DC JUMPI PUSH1 0x40 MLOAD PUSH3 0x461BCD PUSH1 0xE5 SHL DUP2 MSTORE PUSH1 0x20 PUSH1 0x4 DUP3 ADD MSTORE PUSH1 0x3 PUSH1 0x24 DUP3 ADD MSTORE PUSH3 0x65313 PUSH1 0xEC SHL PUSH1 0x44 DUP3 ADD MSTORE PUSH1 0x64 ADD PUSH2 0xF7C JUMP JUMPDEST PUSH1 0xE DUP1 SLOAD PUSH2 0x100 PUSH1 0x1 PUSH1 0xA8 SHL SUB NOT AND CALLER PUSH2 0x100 SWAP1 DUP2 MUL SWAP2 SWAP1 SWAP2 OR SWAP2 DUP3 SWAP1 SSTORE PUSH1 0x1 PUSH1 0x1 PUSH1 0xA0 SHL SUB SWAP2 DIV AND PUSH1 0x0 SWAP1 DUP2 MSTORE PUSH1 0x28 PUSH1 0x20 MSTORE PUSH1 0x40 SWAP1 KECCAK256 SLOAD PUSH2 0x251F SWAP1 CALLVALUE SWAP1 PUSH2 0x4D20 JUMP JUMPDEST PUSH1 0xE SLOAD PUSH2 0x100 SWAP1 DIV PUSH1 0x1 PUSH1 0x1 PUSH1 0xA0 SHL SUB AND PUSH1 0x0 SWAP1 DUP2 MSTORE PUSH1 0x28 PUSH1 0x20 SWAP1 DUP2 MSTORE PUSH1 0x40 SWAP1 SWAP2 KECCAK256 SWAP2 SWAP1 SWAP2 SSTORE DUP6 MLOAD PUSH2 0x2557 SWAP2 PUSH1 0xF SWAP2 SWAP1 DUP9 ADD SWAP1 PUSH2 0x4C06 JUMP JUMPDEST POP DUP2 MLOAD PUSH2 0x256B SWAP1 PUSH1 0x10 SWAP1 PUSH1 0x20 DUP6 ADD SWAP1 PUSH2 0x4C06 JUMP JUMPDEST POP DUP4 MLOAD PUSH2 0x257F SWAP1 PUSH1 0x11 SWAP1 PUSH1 0x20 DUP8 ADD SWAP1 PUSH2 0x4C06 JUMP JUMPDEST POP DUP3 MLOAD PUSH2 0x2593 SWAP1 PUSH1 0x12 SWAP1 PUSH1 0x20 DUP7 ADD SWAP1 PUSH2 0x4C06 JUMP JUMPDEST POP POP PUSH1 0xE DUP1 SLOAD PUSH1 0xFF NOT AND SWAP1 SSTORE POP POP POP POP JUMP JUMPDEST PUSH1 0x9 DUP1 SLOAD PUSH2 0x104F SWAP1 PUSH2 0x5651 JUMP JUMPDEST CALLER PUSH1 0x1 PUSH1 0x1 PUSH1 0xA0 SHL SUB PUSH32 0x0 AND EQ PUSH2 0x262A JUMPI PUSH1 0x40 MLOAD PUSH3 0x461BCD PUSH1 0xE5 SHL DUP2 MSTORE PUSH1 0x20 PUSH1 0x4 DUP3 ADD MSTORE PUSH1 0x1F PUSH1 0x24 DUP3 ADD MSTORE PUSH32 0x4F6E6C7920565246436F6F7264696E61746F722063616E2066756C66696C6C00 PUSH1 0x44 DUP3 ADD MSTORE PUSH1 0x64 ADD PUSH2 0xF7C JUMP JUMPDEST PUSH2 0x2391 DUP3 DUP3 PUSH2 0x400D JUMP JUMPDEST PUSH2 0x2391 CALLER DUP4 DUP4 PUSH2 0x4190 JUMP JUMPDEST PUSH1 0x3 SLOAD PUSH1 0xFF AND ISZERO PUSH2 0x2662 JUMPI PUSH1 0x40 MLOAD PUSH3 0x461BCD PUSH1 0xE5 SHL DUP2 MSTORE PUSH1 0x4 ADD PUSH2 0xF7C SWAP1 PUSH2 0x56D6 JUMP JUMPDEST PUSH1 0x0 PUSH2 0x266F DUP9 DUP9 DUP9 PUSH2 0x3A0B JUMP JUMPDEST PUSH1 0x0 DUP2 DUP2 MSTORE PUSH1 0x2A PUSH1 0x20 MSTORE PUSH1 0x40 SWAP1 KECCAK256 SLOAD SWAP1 SWAP2 POP PUSH1 0x1 PUSH1 0x1 PUSH1 0xA0 SHL SUB AND PUSH2 0x26BC JUMPI PUSH1 0x40 MLOAD PUSH3 0x461BCD PUSH1 0xE5 SHL DUP2 MSTORE PUSH1 0x20 PUSH1 0x4 DUP3 ADD MSTORE PUSH1 0x3 PUSH1 0x24 DUP3 ADD MSTORE PUSH3 0x653131 PUSH1 0xE8 SHL PUSH1 0x44 DUP3 ADD MSTORE PUSH1 0x64 ADD PUSH2 0xF7C JUMP JUMPDEST PUSH1 0x0 DUP2 DUP2 MSTORE PUSH1 0x2A PUSH1 0x20 MSTORE PUSH1 0x40 SWAP1 KECCAK256 SLOAD PUSH1 0x1 PUSH1 0x1 PUSH1 0xA0 SHL SUB AND CALLER EQ PUSH2 0x2708 JUMPI PUSH1 0x40 MLOAD PUSH3 0x461BCD PUSH1 0xE5 SHL DUP2 MSTORE PUSH1 0x20 PUSH1 0x4 DUP3 ADD MSTORE PUSH1 0x3 PUSH1 0x24 DUP3 ADD MSTORE PUSH3 0x329899 PUSH1 0xE9 SHL PUSH1 0x44 DUP3 ADD MSTORE PUSH1 0x64 ADD PUSH2 0xF7C JUMP JUMPDEST PUSH1 0x0 DUP2 DUP2 MSTORE PUSH1 0x2B PUSH1 0x20 MSTORE PUSH1 0x40 SWAP1 KECCAK256 SLOAD PUSH1 0x1 SWAP1 PUSH1 0xFF AND ISZERO PUSH2 0x273D JUMPI PUSH1 0x4 PUSH2 0x2730 PUSH1 0x1B SLOAD TIMESTAMP PUSH2 0x4271 JUMP JUMPDEST PUSH2 0x273A SWAP2 SWAP1 PUSH2 0x5735 JUMP JUMPDEST SWAP1 POP JUMPDEST PUSH1 0x0 DUP2 GT PUSH2 0x2749 JUMPI POP PUSH1 0x1 JUMPDEST PUSH1 0x1 JUMPDEST PUSH1 0x3 DUP2 GT PUSH2 0x2A46 JUMPI DUP1 PUSH1 0x3 EQ DUP1 ISZERO PUSH2 0x2773 JUMPI POP PUSH1 0x0 DUP4 DUP2 MSTORE PUSH1 0x2B PUSH1 0x20 MSTORE PUSH1 0x40 SWAP1 KECCAK256 SLOAD PUSH1 0xFF AND ISZERO JUMPDEST ISZERO PUSH2 0x277D JUMPI PUSH2 0x2A34 JUMP JUMPDEST DUP4 PUSH2 0x2789 PUSH1 0x1 DUP4 PUSH2 0x5749 JUMP JUMPDEST DUP2 MLOAD DUP2 LT PUSH2 0x2799 JUMPI PUSH2 0x2799 PUSH2 0x4CF4 JUMP JUMPDEST PUSH1 0x20 MUL PUSH1 0x20 ADD ADD MLOAD PUSH1 0x4 DUP2 GT ISZERO PUSH2 0x27B2 JUMPI PUSH2 0x27B2 PUSH2 0x51AC JUMP JUMPDEST PUSH1 0x0 DUP3 DUP2 MSTORE PUSH1 0x35 PUSH1 0x20 SWAP1 DUP2 MSTORE PUSH1 0x40 DUP1 DUP4 KECCAK256 DUP8 DUP5 MSTORE SWAP1 SWAP2 MSTORE SWAP1 KECCAK256 SLOAD PUSH1 0xFF AND PUSH1 0x4 DUP2 GT ISZERO PUSH2 0x27E0 JUMPI PUSH2 0x27E0 PUSH2 0x51AC JUMP JUMPDEST EQ PUSH2 0x2A34 JUMPI PUSH1 0x0 DUP2 DUP2 MSTORE PUSH1 0x36 PUSH1 0x20 SWAP1 DUP2 MSTORE PUSH1 0x40 DUP1 DUP4 KECCAK256 PUSH1 0x35 DUP4 MSTORE DUP2 DUP5 KECCAK256 DUP8 DUP6 MSTORE SWAP1 SWAP3 MSTORE DUP3 KECCAK256 SLOAD DUP3 SWAP1 PUSH1 0xFF AND PUSH1 0x4 DUP2 GT ISZERO PUSH2 0x281C JUMPI PUSH2 0x281C PUSH2 0x51AC JUMP JUMPDEST PUSH1 0x4 DUP2 GT ISZERO PUSH2 0x282D JUMPI PUSH2 0x282D PUSH2 0x51AC JUMP JUMPDEST DUP2 MSTORE PUSH1 0x20 ADD SWAP1 DUP2 MSTORE PUSH1 0x20 ADD PUSH1 0x0 KECCAK256 SLOAD GT ISZERO PUSH2 0x28FF JUMPI PUSH1 0x0 DUP2 DUP2 MSTORE PUSH1 0x36 PUSH1 0x20 SWAP1 DUP2 MSTORE PUSH1 0x40 DUP1 DUP4 KECCAK256 PUSH1 0x35 DUP4 MSTORE DUP2 DUP5 KECCAK256 DUP8 DUP6 MSTORE SWAP1 SWAP3 MSTORE DUP3 KECCAK256 SLOAD DUP5 SWAP3 SWAP1 PUSH1 0xFF AND PUSH1 0x4 DUP2 GT ISZERO PUSH2 0x287A JUMPI PUSH2 0x287A PUSH2 0x51AC JUMP JUMPDEST PUSH1 0x4 DUP2 GT ISZERO PUSH2 0x288B JUMPI PUSH2 0x288B PUSH2 0x51AC JUMP JUMPDEST DUP2 MSTORE PUSH1 0x20 ADD SWAP1 DUP2 MSTORE PUSH1 0x20 ADD PUSH1 0x0 KECCAK256 SLOAD PUSH2 0x28A4 SWAP2 SWAP1 PUSH2 0x5749 JUMP JUMPDEST PUSH1 0x0 DUP3 DUP2 MSTORE PUSH1 0x36 PUSH1 0x20 SWAP1 DUP2 MSTORE PUSH1 0x40 DUP1 DUP4 KECCAK256 PUSH1 0x35 DUP4 MSTORE DUP2 DUP5 KECCAK256 DUP9 DUP6 MSTORE SWAP1 SWAP3 MSTORE DUP3 KECCAK256 SLOAD SWAP1 SWAP2 SWAP1 PUSH1 0xFF AND PUSH1 0x4 DUP2 GT ISZERO PUSH2 0x28DC JUMPI PUSH2 0x28DC PUSH2 0x51AC JUMP JUMPDEST PUSH1 0x4 DUP2 GT ISZERO PUSH2 0x28ED JUMPI PUSH2 0x28ED PUSH2 0x51AC JUMP JUMPDEST DUP2 MSTORE PUSH1 0x20 DUP2 ADD SWAP2 SWAP1 SWAP2 MSTORE PUSH1 0x40 ADD PUSH1 0x0 KECCAK256 SSTORE JUMPDEST PUSH1 0x0 DUP2 DUP2 MSTORE PUSH1 0x36 PUSH1 0x20 MSTORE PUSH1 0x40 DUP2 KECCAK256 DUP4 SWAP2 DUP7 PUSH2 0x291B PUSH1 0x1 DUP7 PUSH2 0x5749 JUMP JUMPDEST DUP2 MLOAD DUP2 LT PUSH2 0x292B JUMPI PUSH2 0x292B PUSH2 0x4CF4 JUMP JUMPDEST PUSH1 0x20 MUL PUSH1 0x20 ADD ADD MLOAD PUSH1 0x4 DUP2 GT ISZERO PUSH2 0x2944 JUMPI PUSH2 0x2944 PUSH2 0x51AC JUMP JUMPDEST PUSH1 0x4 DUP2 GT ISZERO PUSH2 0x2955 JUMPI PUSH2 0x2955 PUSH2 0x51AC JUMP JUMPDEST DUP2 MSTORE PUSH1 0x20 ADD SWAP1 DUP2 MSTORE PUSH1 0x20 ADD PUSH1 0x0 KECCAK256 SLOAD PUSH2 0x296E SWAP2 SWAP1 PUSH2 0x4D20 JUMP JUMPDEST PUSH1 0x0 DUP3 DUP2 MSTORE PUSH1 0x36 PUSH1 0x20 MSTORE PUSH1 0x40 DUP2 KECCAK256 SWAP1 DUP7 PUSH2 0x2989 PUSH1 0x1 DUP7 PUSH2 0x5749 JUMP JUMPDEST DUP2 MLOAD DUP2 LT PUSH2 0x2999 JUMPI PUSH2 0x2999 PUSH2 0x4CF4 JUMP JUMPDEST PUSH1 0x20 MUL PUSH1 0x20 ADD ADD MLOAD PUSH1 0x4 DUP2 GT ISZERO PUSH2 0x29B2 JUMPI PUSH2 0x29B2 PUSH2 0x51AC JUMP JUMPDEST PUSH1 0x4 DUP2 GT ISZERO PUSH2 0x29C3 JUMPI PUSH2 0x29C3 PUSH2 0x51AC JUMP JUMPDEST DUP2 MSTORE PUSH1 0x20 DUP2 ADD SWAP2 SWAP1 SWAP2 MSTORE PUSH1 0x40 ADD PUSH1 0x0 KECCAK256 SSTORE DUP4 PUSH2 0x29E0 PUSH1 0x1 DUP4 PUSH2 0x5749 JUMP JUMPDEST DUP2 MLOAD DUP2 LT PUSH2 0x29F0 JUMPI PUSH2 0x29F0 PUSH2 0x4CF4 JUMP JUMPDEST PUSH1 0x20 SWAP1 DUP2 MUL SWAP2 SWAP1 SWAP2 ADD DUP2 ADD MLOAD PUSH1 0x0 DUP4 DUP2 MSTORE PUSH1 0x35 DUP4 MSTORE PUSH1 0x40 DUP1 DUP3 KECCAK256 DUP8 DUP4 MSTORE SWAP1 SWAP4 MSTORE SWAP2 SWAP1 SWAP2 KECCAK256 DUP1 SLOAD PUSH1 0xFF NOT AND PUSH1 0x1 DUP4 PUSH1 0x4 DUP2 GT ISZERO PUSH2 0x2A2E JUMPI PUSH2 0x2A2E PUSH2 0x51AC JUMP JUMPDEST MUL OR SWAP1 SSTORE POP JUMPDEST DUP1 PUSH2 0x2A3E DUP2 PUSH2 0x5686 JUMP JUMPDEST SWAP2 POP POP PUSH2 0x274C JUMP JUMPDEST POP DUP6 ISZERO DUP1 ISZERO SWAP1 PUSH2 0x2A55 JUMPI POP DUP5 ISZERO ISZERO JUMPDEST DUP1 ISZERO PUSH2 0x2A60 JUMPI POP DUP4 ISZERO ISZERO JUMPDEST ISZERO PUSH2 0x2BD2 JUMPI PUSH1 0x0 PUSH1 0x2A PUSH1 0x0 PUSH2 0x2A76 DUP10 DUP10 DUP10 PUSH2 0x3A0B JUMP JUMPDEST DUP2 MSTORE PUSH1 0x20 DUP2 ADD SWAP2 SWAP1 SWAP2 MSTORE PUSH1 0x40 ADD PUSH1 0x0 KECCAK256 SLOAD PUSH1 0x1 PUSH1 0x1 PUSH1 0xA0 SHL SUB AND SWAP1 POP DUP1 ISZERO DUP1 ISZERO SWAP1 PUSH2 0x2ABB JUMPI POP PUSH1 0x0 DUP4 DUP2 MSTORE PUSH1 0x32 PUSH1 0x20 MSTORE PUSH1 0x40 SWAP1 KECCAK256 SLOAD PUSH1 0x1 PUSH1 0x1 PUSH1 0xA0 SHL SUB DUP3 DUP2 AND SWAP2 AND EQ ISZERO JUMPDEST ISZERO PUSH2 0x2BD0 JUMPI PUSH1 0x0 DUP4 DUP2 MSTORE PUSH1 0x32 PUSH1 0x20 SWAP1 DUP2 MSTORE PUSH1 0x40 DUP1 DUP4 KECCAK256 SLOAD PUSH1 0x1 PUSH1 0x1 PUSH1 0xA0 SHL SUB AND DUP4 MSTORE PUSH1 0x33 SWAP1 SWAP2 MSTORE SWAP1 KECCAK256 SLOAD ISZERO PUSH2 0x2B40 JUMPI PUSH1 0x0 DUP4 DUP2 MSTORE PUSH1 0x32 PUSH1 0x20 SWAP1 DUP2 MSTORE PUSH1 0x40 DUP1 DUP4 KECCAK256 SLOAD PUSH1 0x1 PUSH1 0x1 PUSH1 0xA0 SHL SUB AND DUP4 MSTORE PUSH1 0x33 SWAP1 SWAP2 MSTORE SWAP1 KECCAK256 SLOAD PUSH2 0x2B1A SWAP1 DUP4 SWAP1 PUSH2 0x5749 JUMP JUMPDEST PUSH1 0x0 DUP5 DUP2 MSTORE PUSH1 0x32 PUSH1 0x20 SWAP1 DUP2 MSTORE PUSH1 0x40 DUP1 DUP4 KECCAK256 SLOAD PUSH1 0x1 PUSH1 0x1 PUSH1 0xA0 SHL SUB AND DUP4 MSTORE PUSH1 0x33 SWAP1 SWAP2 MSTORE SWAP1 KECCAK256 SSTORE JUMPDEST PUSH1 0x1 PUSH1 0x1 PUSH1 0xA0 SHL SUB DUP2 AND PUSH1 0x0 SWAP1 DUP2 MSTORE PUSH1 0x33 PUSH1 0x20 MSTORE PUSH1 0x40 SWAP1 KECCAK256 SLOAD PUSH2 0x2B64 SWAP1 DUP4 SWAP1 PUSH2 0x4D20 JUMP JUMPDEST PUSH1 0x1 PUSH1 0x1 PUSH1 0xA0 SHL SUB DUP1 DUP4 AND PUSH1 0x0 DUP2 DUP2 MSTORE PUSH1 0x33 PUSH1 0x20 DUP2 DUP2 MSTORE PUSH1 0x40 DUP1 DUP5 KECCAK256 SWAP7 DUP8 SSTORE DUP10 DUP5 MSTORE PUSH1 0x32 DUP3 MSTORE DUP1 DUP5 KECCAK256 DUP1 SLOAD PUSH1 0x1 PUSH1 0x1 PUSH1 0xA0 SHL SUB NOT AND DUP7 OR SWAP1 SSTORE PUSH1 0x34 SLOAD SWAP1 SWAP6 AND DUP4 MSTORE MSTORE SWAP2 DUP3 KECCAK256 SLOAD SWAP2 MSTORE SWAP1 SLOAD GT ISZERO PUSH2 0x2BD0 JUMPI PUSH1 0x34 DUP1 SLOAD PUSH1 0x1 PUSH1 0x1 PUSH1 0xA0 SHL SUB NOT AND PUSH1 0x1 PUSH1 0x1 PUSH1 0xA0 SHL SUB DUP4 AND OR SWAP1 SSTORE JUMPDEST POP JUMPDEST POP POP POP POP POP POP POP POP POP JUMP JUMPDEST PUSH1 0x2F PUSH1 0x20 MSTORE PUSH1 0x0 SWAP1 DUP2 MSTORE PUSH1 0x40 SWAP1 KECCAK256 DUP1 SLOAD PUSH2 0x104F SWAP1 PUSH2 0x5651 JUMP JUMPDEST PUSH1 0x30 PUSH1 0x20 MSTORE PUSH1 0x0 SWAP1 DUP2 MSTORE PUSH1 0x40 SWAP1 KECCAK256 DUP1 SLOAD PUSH2 0x104F SWAP1 PUSH2 0x5651 JUMP JUMPDEST PUSH1 0x12 DUP1 SLOAD PUSH2 0x104F SWAP1 PUSH2 0x5651 JUMP JUMPDEST PUSH1 0x3 SLOAD PUSH1 0x1 PUSH1 0x1 PUSH1 0xA0 SHL SUB PUSH2 0x100 SWAP1 SWAP2 DIV AND CALLER EQ PUSH2 0x2C4C JUMPI PUSH1 0x40 MLOAD PUSH3 0x461BCD PUSH1 0xE5 SHL DUP2 MSTORE PUSH1 0x4 ADD PUSH2 0xF7C SWAP1 PUSH2 0x56A1 JUMP JUMPDEST DUP1 PUSH2 0x2C95 JUMPI PUSH1 0x22 DUP1 SLOAD PUSH1 0x1 PUSH1 0x1 PUSH1 0xA0 SHL SUB DUP5 DUP2 AND PUSH1 0x1 PUSH1 0x1 PUSH1 0xA0 SHL SUB NOT DUP4 AND DUP2 OR SWAP1 SWAP4 SSTORE AND PUSH1 0x0 DUP2 DUP2 MSTORE PUSH1 0x28 PUSH1 0x20 MSTORE PUSH1 0x40 DUP1 DUP3 KECCAK256 DUP1 SLOAD SWAP5 DUP4 MSTORE SWAP1 DUP3 KECCAK256 SWAP4 SWAP1 SWAP4 SSTORE SWAP1 DUP2 MSTORE SWAP1 SSTORE POP POP JUMP JUMPDEST PUSH1 0x21 DUP1 SLOAD PUSH1 0x1 PUSH1 0x1 PUSH1 0xA0 SHL SUB DUP5 DUP2 AND PUSH1 0x1 PUSH1 0x1 PUSH1 0xA0 SHL SUB NOT DUP4 AND DUP2 OR SWAP1 SWAP4 SSTORE AND PUSH1 0x0 DUP2 DUP2 MSTORE PUSH1 0x28 PUSH1 0x20 MSTORE PUSH1 0x40 DUP1 DUP3 KECCAK256 DUP1 SLOAD SWAP5 DUP4 MSTORE SWAP1 DUP3 KECCAK256 SWAP4 SWAP1 SWAP4 SSTORE SWAP1 DUP2 MSTORE SWAP1 SSTORE POP POP JUMP JUMPDEST PUSH1 0x7 SLOAD PUSH1 0x1 PUSH1 0x1 PUSH1 0xA0 SHL SUB AND CALLER EQ DUP1 PUSH2 0x2D13 JUMPI POP PUSH1 0x3 SLOAD PUSH2 0x100 SWAP1 DIV PUSH1 0x1 PUSH1 0x1 PUSH1 0xA0 SHL SUB AND PUSH1 0x1 PUSH1 0x1 PUSH1 0xA0 SHL SUB AND CALLER PUSH1 0x1 PUSH1 0x1 PUSH1 0xA0 SHL SUB AND EQ JUMPDEST PUSH2 0x2D2F JUMPI PUSH1 0x40 MLOAD PUSH3 0x461BCD PUSH1 0xE5 SHL DUP2 MSTORE PUSH1 0x4 ADD PUSH2 0xF7C SWAP1 PUSH2 0x5760 JUMP JUMPDEST PUSH2 0x2D41 DUP2 PUSH8 0xDE0B6B3A7640000 PUSH2 0x5700 JUMP JUMPDEST SWAP1 POP PUSH2 0x2D55 DUP3 PUSH8 0xDE0B6B3A7640000 PUSH2 0x5700 JUMP JUMPDEST SWAP2 POP PUSH1 0x15 SLOAD DUP2 LT ISZERO PUSH2 0x2D8F JUMPI PUSH1 0x40 MLOAD PUSH3 0x461BCD PUSH1 0xE5 SHL DUP2 MSTORE PUSH1 0x20 PUSH1 0x4 DUP3 ADD MSTORE PUSH1 0x3 PUSH1 0x24 DUP3 ADD MSTORE PUSH3 0x653331 PUSH1 0xE8 SHL PUSH1 0x44 DUP3 ADD MSTORE PUSH1 0x64 ADD PUSH2 0xF7C JUMP JUMPDEST PUSH1 0x15 SLOAD DUP3 LT ISZERO PUSH2 0x2DC7 JUMPI PUSH1 0x40 MLOAD PUSH3 0x461BCD PUSH1 0xE5 SHL DUP2 MSTORE PUSH1 0x20 PUSH1 0x4 DUP3 ADD MSTORE PUSH1 0x3 PUSH1 0x24 DUP3 ADD MSTORE PUSH3 0x329999 PUSH1 0xE9 SHL PUSH1 0x44 DUP3 ADD MSTORE PUSH1 0x64 ADD PUSH2 0xF7C JUMP JUMPDEST PUSH1 0x14 SWAP2 SWAP1 SWAP2 SSTORE PUSH1 0xA SSTORE JUMP JUMPDEST PUSH1 0x7 SLOAD PUSH1 0x1 PUSH1 0x1 PUSH1 0xA0 SHL SUB AND CALLER EQ DUP1 PUSH2 0x2E0C JUMPI POP PUSH1 0x3 SLOAD PUSH2 0x100 SWAP1 DIV PUSH1 0x1 PUSH1 0x1 PUSH1 0xA0 SHL SUB AND PUSH1 0x1 PUSH1 0x1 PUSH1 0xA0 SHL SUB AND CALLER PUSH1 0x1 PUSH1 0x1 PUSH1 0xA0 SHL SUB AND EQ JUMPDEST PUSH2 0x2E28 JUMPI PUSH1 0x40 MLOAD PUSH3 0x461BCD PUSH1 0xE5 SHL DUP2 MSTORE PUSH1 0x4 ADD PUSH2 0xF7C SWAP1 PUSH2 0x5760 JUMP JUMPDEST PUSH1 0x18 SLOAD PUSH2 0x2E37 PUSH1 0x1A SLOAD TIMESTAMP PUSH2 0x3B53 JUMP JUMPDEST LT ISZERO PUSH2 0x2E6B JUMPI PUSH1 0x40 MLOAD PUSH3 0x461BCD PUSH1 0xE5 SHL DUP2 MSTORE PUSH1 0x20 PUSH1 0x4 DUP3 ADD MSTORE PUSH1 0x3 PUSH1 0x24 DUP3 ADD MSTORE PUSH3 0x653239 PUSH1 0xE8 SHL PUSH1 0x44 DUP3 ADD MSTORE PUSH1 0x64 ADD PUSH2 0xF7C JUMP JUMPDEST PUSH1 0x1 PUSH1 0x1 PUSH1 0xA0 SHL SUB DUP2 AND PUSH1 0x0 SWAP1 DUP2 MSTORE PUSH1 0x29 PUSH1 0x20 MSTORE PUSH1 0x40 SWAP1 KECCAK256 SLOAD ISZERO PUSH2 0x2EB7 JUMPI PUSH1 0x40 MLOAD PUSH3 0x461BCD PUSH1 0xE5 SHL DUP2 MSTORE PUSH1 0x20 PUSH1 0x4 DUP3 ADD MSTORE PUSH1 0x3 PUSH1 0x24 DUP3 ADD MSTORE PUSH3 0x65333 PUSH1 0xEC SHL PUSH1 0x44 DUP3 ADD MSTORE PUSH1 0x64 ADD PUSH2 0xF7C JUMP JUMPDEST TIMESTAMP PUSH1 0x1A SSTORE PUSH1 0x1 PUSH1 0x1 PUSH1 0xA0 SHL SUB AND PUSH1 0x0 SWAP1 DUP2 MSTORE PUSH1 0x29 PUSH1 0x20 MSTORE PUSH1 0x40 SWAP1 KECCAK256 PUSH1 0x1 SWAP1 SSTORE JUMP JUMPDEST PUSH1 0x3 SLOAD PUSH1 0xFF AND ISZERO PUSH2 0x2EFB JUMPI PUSH1 0x40 MLOAD PUSH3 0x461BCD PUSH1 0xE5 SHL DUP2 MSTORE PUSH1 0x4 ADD PUSH2 0xF7C SWAP1 PUSH2 0x56D6 JUMP JUMPDEST PUSH1 0x17 SLOAD PUSH2 0x2F0A PUSH1 0x19 SLOAD TIMESTAMP PUSH2 0x3B53 JUMP JUMPDEST LT ISZERO PUSH2 0x2F3E JUMPI PUSH1 0x40 MLOAD PUSH3 0x461BCD PUSH1 0xE5 SHL DUP2 MSTORE PUSH1 0x20 PUSH1 0x4 DUP3 ADD MSTORE PUSH1 0x3 PUSH1 0x24 DUP3 ADD MSTORE PUSH3 0x32989B PUSH1 0xE9 SHL PUSH1 0x44 DUP3 ADD MSTORE PUSH1 0x64 ADD PUSH2 0xF7C JUMP JUMPDEST PUSH1 0x16 SLOAD PUSH1 0x1 LT PUSH2 0x2F76 JUMPI PUSH1 0x40 MLOAD PUSH3 0x461BCD PUSH1 0xE5 SHL DUP2 MSTORE PUSH1 0x20 PUSH1 0x4 DUP3 ADD MSTORE PUSH1 0x3 PUSH1 0x24 DUP3 ADD MSTORE PUSH3 0x653137 PUSH1 0xE8 SHL PUSH1 0x44 DUP3 ADD MSTORE PUSH1 0x64 ADD PUSH2 0xF7C JUMP JUMPDEST TIMESTAMP PUSH1 0x19 SSTORE PUSH1 0x20 SLOAD PUSH1 0x1F SLOAD PUSH2 0x2F8A SWAP2 SWAP1 PUSH2 0x42D1 JUMP JUMPDEST PUSH1 0x6 SSTORE JUMP JUMPDEST PUSH1 0x16 SLOAD PUSH1 0x60 SWAP1 PUSH1 0x0 SWAP1 PUSH1 0x1 PUSH1 0x1 PUSH1 0x40 SHL SUB DUP2 GT ISZERO PUSH2 0x2FAF JUMPI PUSH2 0x2FAF PUSH2 0x4F5D JUMP JUMPDEST PUSH1 0x40 MLOAD SWAP1 DUP1 DUP3 MSTORE DUP1 PUSH1 0x20 MUL PUSH1 0x20 ADD DUP3 ADD PUSH1 0x40 MSTORE DUP1 ISZERO PUSH2 0x2FD8 JUMPI DUP2 PUSH1 0x20 ADD PUSH1 0x20 DUP3 MUL DUP1 CALLDATASIZE DUP4 CALLDATACOPY ADD SWAP1 POP JUMPDEST POP SWAP1 POP PUSH1 0x0 JUMPDEST PUSH1 0x16 SLOAD DUP2 LT ISZERO PUSH2 0x3055 JUMPI PUSH1 0x16 DUP2 DUP2 SLOAD DUP2 LT PUSH2 0x2FFB JUMPI PUSH2 0x2FFB PUSH2 0x4CF4 JUMP JUMPDEST SWAP1 PUSH1 0x0 MSTORE PUSH1 0x20 PUSH1 0x0 KECCAK256 ADD PUSH1 0x0 SWAP1 SLOAD SWAP1 PUSH2 0x100 EXP SWAP1 DIV PUSH1 0x1 PUSH1 0x1 PUSH1 0xA0 SHL SUB AND DUP3 DUP3 DUP2 MLOAD DUP2 LT PUSH2 0x302B JUMPI PUSH2 0x302B PUSH2 0x4CF4 JUMP JUMPDEST PUSH1 0x1 PUSH1 0x1 PUSH1 0xA0 SHL SUB SWAP1 SWAP3 AND PUSH1 0x20 SWAP3 DUP4 MUL SWAP2 SWAP1 SWAP2 ADD SWAP1 SWAP2 ADD MSTORE DUP1 PUSH2 0x304D DUP2 PUSH2 0x5686 JUMP JUMPDEST SWAP2 POP POP PUSH2 0x2FDE JUMP JUMPDEST POP SWAP2 SWAP1 POP JUMP JUMPDEST PUSH1 0x7 SLOAD PUSH1 0x1 PUSH1 0x1 PUSH1 0xA0 SHL SUB AND CALLER EQ DUP1 PUSH2 0x3095 JUMPI POP PUSH1 0x3 SLOAD PUSH2 0x100 SWAP1 DIV PUSH1 0x1 PUSH1 0x1 PUSH1 0xA0 SHL SUB AND PUSH1 0x1 PUSH1 0x1 PUSH1 0xA0 SHL SUB AND CALLER PUSH1 0x1 PUSH1 0x1 PUSH1 0xA0 SHL SUB AND EQ JUMPDEST PUSH2 0x30B1 JUMPI PUSH1 0x40 MLOAD PUSH3 0x461BCD PUSH1 0xE5 SHL DUP2 MSTORE PUSH1 0x4 ADD PUSH2 0xF7C SWAP1 PUSH2 0x5760 JUMP JUMPDEST PUSH1 0x0 PUSH1 0x2 PUSH2 0x30BD PUSH2 0x3603 JUMP JUMPDEST PUSH1 0xE SLOAD PUSH2 0x100 SWAP1 DIV PUSH1 0x1 PUSH1 0x1 PUSH1 0xA0 SHL SUB AND PUSH1 0x0 SWAP1 DUP2 MSTORE PUSH1 0x28 PUSH1 0x20 MSTORE PUSH1 0x40 SWAP1 KECCAK256 SLOAD PUSH2 0x30E7 SWAP2 SWAP1 PUSH2 0x5735 JUMP JUMPDEST PUSH2 0x30F1 SWAP2 SWAP1 PUSH2 0x5735 JUMP JUMPDEST SWAP1 POP PUSH1 0x1E DUP2 LT ISZERO PUSH2 0x3101 JUMPI PUSH1 0x0 SWAP2 POP JUMPDEST DUP2 ISZERO PUSH2 0x31BA JUMPI PUSH1 0xE DUP1 SLOAD PUSH1 0xFF NOT AND PUSH1 0x1 OR SWAP1 DUP2 SWAP1 SSTORE PUSH1 0x1 PUSH1 0x1 PUSH1 0xA0 SHL SUB PUSH2 0x100 SWAP1 SWAP2 DIV DUP2 AND PUSH1 0x0 SWAP1 DUP2 MSTORE PUSH1 0x28 PUSH1 0x20 MSTORE PUSH1 0x40 DUP1 DUP3 KECCAK256 SLOAD PUSH1 0x26 SLOAD SWAP1 SWAP4 AND DUP3 MSTORE SWAP1 KECCAK256 SLOAD PUSH2 0x314B SWAP2 SWAP1 PUSH2 0x4D20 JUMP JUMPDEST PUSH1 0x26 SLOAD PUSH1 0x1 PUSH1 0x1 PUSH1 0xA0 SHL SUB SWAP1 DUP2 AND PUSH1 0x0 SWAP1 DUP2 MSTORE PUSH1 0x28 PUSH1 0x20 MSTORE PUSH1 0x40 DUP1 DUP3 KECCAK256 SWAP4 SWAP1 SWAP4 SSTORE PUSH1 0xE SLOAD PUSH2 0x100 SWAP1 DIV SWAP1 SWAP2 AND DUP2 MSTORE SWAP1 DUP2 KECCAK256 SSTORE PUSH2 0x3187 TIMESTAMP DUP3 PUSH2 0x444D JUMP JUMPDEST PUSH1 0x13 SSTORE PUSH1 0xE SLOAD PUSH1 0x40 DUP1 MLOAD PUSH1 0x20 DUP2 ADD SWAP1 SWAP2 MSTORE PUSH1 0x0 DUP2 MSTORE PUSH2 0x2391 SWAP2 PUSH2 0x100 SWAP1 DIV PUSH1 0x1 PUSH1 0x1 PUSH1 0xA0 SHL SUB AND SWAP1 PUSH1 0x2 SWAP1 PUSH1 0x1 SWAP1 PUSH2 0x3B7A JUMP JUMPDEST PUSH1 0xE DUP1 SLOAD PUSH1 0x1 PUSH1 0x1 PUSH1 0xA8 SHL SUB NOT AND SWAP1 SSTORE PUSH1 0x40 DUP1 MLOAD PUSH1 0x20 DUP2 ADD SWAP2 DUP3 SWAP1 MSTORE PUSH1 0x0 SWAP1 DUP2 SWAP1 MSTORE PUSH2 0x31E8 SWAP2 PUSH1 0xF SWAP2 PUSH2 0x4C06 JUMP JUMPDEST POP PUSH1 0x40 DUP1 MLOAD PUSH1 0x20 DUP2 ADD SWAP2 DUP3 SWAP1 MSTORE PUSH1 0x0 SWAP1 DUP2 SWAP1 MSTORE PUSH2 0x3207 SWAP2 PUSH1 0x10 SWAP2 PUSH2 0x4C06 JUMP JUMPDEST POP PUSH1 0x40 DUP1 MLOAD PUSH1 0x20 DUP2 ADD SWAP2 DUP3 SWAP1 MSTORE PUSH1 0x0 SWAP1 DUP2 SWAP1 MSTORE PUSH2 0x3226 SWAP2 PUSH1 0x11 SWAP2 PUSH2 0x4C06 JUMP JUMPDEST POP PUSH1 0x40 DUP1 MLOAD PUSH1 0x20 DUP2 ADD SWAP2 DUP3 SWAP1 MSTORE PUSH1 0x0 SWAP1 DUP2 SWAP1 MSTORE PUSH2 0x3245 SWAP2 PUSH1 0x12 SWAP2 PUSH2 0x4C06 JUMP JUMPDEST POP POP POP JUMP JUMPDEST PUSH1 0x1 PUSH1 0x1 PUSH1 0xA0 SHL SUB DUP6 AND CALLER EQ DUP1 PUSH2 0x3266 JUMPI POP PUSH2 0x3266 DUP6 CALLER PUSH2 0xDCB JUMP JUMPDEST PUSH2 0x32C4 JUMPI PUSH1 0x40 MLOAD PUSH3 0x461BCD PUSH1 0xE5 SHL DUP2 MSTORE PUSH1 0x20 PUSH1 0x4 DUP3 ADD MSTORE PUSH1 0x29 PUSH1 0x24 DUP3 ADD MSTORE PUSH32 0x455243313135353A2063616C6C6572206973206E6F74206F776E6572206E6F72 PUSH1 0x44 DUP3 ADD MSTORE PUSH9 0x8185C1C1C9BDD9959 PUSH1 0xBA SHL PUSH1 0x64 DUP3 ADD MSTORE PUSH1 0x84 ADD PUSH2 0xF7C JUMP JUMPDEST PUSH1 0x1B SLOAD DUP4 LT ISZERO PUSH2 0x32FC JUMPI PUSH1 0x40 MLOAD PUSH3 0x461BCD PUSH1 0xE5 SHL DUP2 MSTORE PUSH1 0x20 PUSH1 0x4 DUP3 ADD MSTORE PUSH1 0x3 PUSH1 0x24 DUP3 ADD MSTORE PUSH3 0x32991B PUSH1 0xE9 SHL PUSH1 0x44 DUP3 ADD MSTORE PUSH1 0x64 ADD PUSH2 0xF7C JUMP JUMPDEST PUSH2 0x3309 DUP6 DUP6 DUP6 DUP6 DUP6 PUSH2 0x4475 JUMP JUMPDEST PUSH1 0x0 DUP4 DUP2 MSTORE PUSH1 0x2A PUSH1 0x20 SWAP1 DUP2 MSTORE PUSH1 0x40 DUP1 DUP4 KECCAK256 DUP1 SLOAD PUSH1 0x1 PUSH1 0x1 PUSH1 0xA0 SHL SUB NOT AND PUSH1 0x1 PUSH1 0x1 PUSH1 0xA0 SHL SUB DUP10 DUP2 AND SWAP2 DUP3 OR SWAP1 SWAP3 SSTORE SWAP1 DUP10 AND DUP5 MSTORE PUSH1 0x28 SWAP1 SWAP3 MSTORE DUP1 DUP4 KECCAK256 SLOAD SWAP2 DUP4 MSTORE SWAP1 SWAP2 KECCAK256 SLOAD PUSH2 0x3356 SWAP2 SWAP1 PUSH2 0x4D20 JUMP JUMPDEST PUSH1 0x1 PUSH1 0x1 PUSH1 0xA0 SHL SUB DUP1 DUP7 AND PUSH1 0x0 SWAP1 DUP2 MSTORE PUSH1 0x28 PUSH1 0x20 SWAP1 DUP2 MSTORE PUSH1 0x40 DUP1 DUP4 KECCAK256 SWAP5 SWAP1 SWAP5 SSTORE SWAP2 DUP9 AND DUP2 MSTORE DUP3 DUP2 KECCAK256 DUP2 SWAP1 SSTORE DUP6 DUP2 MSTORE PUSH1 0x2B SWAP1 SWAP2 MSTORE KECCAK256 SLOAD PUSH1 0xFF AND ISZERO PUSH2 0x2011 JUMPI PUSH1 0x0 DUP4 DUP2 MSTORE PUSH1 0x2C PUSH1 0x20 MSTORE PUSH1 0x40 SWAP1 KECCAK256 SLOAD PUSH1 0x2D DUP1 SLOAD DUP7 SWAP3 SWAP1 DUP2 LT PUSH2 0x33B7 JUMPI PUSH2 0x33B7 PUSH2 0x4CF4 JUMP JUMPDEST SWAP1 PUSH1 0x0 MSTORE PUSH1 0x20 PUSH1 0x0 KECCAK256 ADD PUSH1 0x0 PUSH2 0x100 EXP DUP2 SLOAD DUP2 PUSH1 0x1 PUSH1 0x1 PUSH1 0xA0 SHL SUB MUL NOT AND SWAP1 DUP4 PUSH1 0x1 PUSH1 0x1 PUSH1 0xA0 SHL SUB AND MUL OR SWAP1 SSTORE POP POP POP POP POP POP JUMP JUMPDEST PUSH1 0x3 SLOAD PUSH1 0x1 PUSH1 0x1 PUSH1 0xA0 SHL SUB PUSH2 0x100 SWAP1 SWAP2 DIV AND CALLER EQ PUSH2 0x341C JUMPI PUSH1 0x40 MLOAD PUSH3 0x461BCD PUSH1 0xE5 SHL DUP2 MSTORE PUSH1 0x4 ADD PUSH2 0xF7C SWAP1 PUSH2 0x56A1 JUMP JUMPDEST PUSH1 0x1 PUSH1 0x1 PUSH1 0xA0 SHL SUB DUP2 AND PUSH2 0x3481 JUMPI PUSH1 0x40 MLOAD PUSH3 0x461BCD PUSH1 0xE5 SHL DUP2 MSTORE PUSH1 0x20 PUSH1 0x4 DUP3 ADD MSTORE PUSH1 0x26 PUSH1 0x24 DUP3 ADD MSTORE PUSH32 0x4F776E61626C653A206E6577206F776E657220697320746865207A65726F2061 PUSH1 0x44 DUP3 ADD MSTORE PUSH6 0x646472657373 PUSH1 0xD0 SHL PUSH1 0x64 DUP3 ADD MSTORE PUSH1 0x84 ADD PUSH2 0xF7C JUMP JUMPDEST PUSH2 0x348A DUP2 PUSH2 0x3FB3 JUMP JUMPDEST POP JUMP JUMPDEST PUSH1 0x3 SLOAD PUSH1 0x1 PUSH1 0x1 PUSH1 0xA0 SHL SUB PUSH2 0x100 SWAP1 SWAP2 DIV AND CALLER EQ PUSH2 0x34BD JUMPI PUSH1 0x40 MLOAD PUSH3 0x461BCD PUSH1 0xE5 SHL DUP2 MSTORE PUSH1 0x4 ADD PUSH2 0xF7C SWAP1 PUSH2 0x56A1 JUMP JUMPDEST DUP1 MLOAD PUSH2 0x2391 SWAP1 PUSH1 0x5 SWAP1 PUSH1 0x20 DUP5 ADD SWAP1 PUSH2 0x4C06 JUMP JUMPDEST PUSH1 0x3 SLOAD PUSH1 0xFF AND ISZERO PUSH2 0x34F3 JUMPI PUSH1 0x40 MLOAD PUSH3 0x461BCD PUSH1 0xE5 SHL DUP2 MSTORE PUSH1 0x4 ADD PUSH2 0xF7C SWAP1 PUSH2 0x56D6 JUMP JUMPDEST PUSH1 0xC SLOAD PUSH1 0xFF AND ISZERO PUSH2 0x352C JUMPI PUSH1 0x40 MLOAD PUSH3 0x461BCD PUSH1 0xE5 SHL DUP2 MSTORE PUSH1 0x20 PUSH1 0x4 DUP3 ADD MSTORE PUSH1 0x3 PUSH1 0x24 DUP3 ADD MSTORE PUSH3 0x65323 PUSH1 0xEC SHL PUSH1 0x44 DUP3 ADD MSTORE PUSH1 0x64 ADD PUSH2 0xF7C JUMP JUMPDEST PUSH1 0x1 PUSH1 0x0 JUMPDEST PUSH1 0x16 SLOAD DUP2 LT ISZERO PUSH2 0x358A JUMPI CALLER PUSH1 0x1 PUSH1 0x1 PUSH1 0xA0 SHL SUB AND PUSH1 0x16 DUP3 DUP2 SLOAD DUP2 LT PUSH2 0x3558 JUMPI PUSH2 0x3558 PUSH2 0x4CF4 JUMP JUMPDEST PUSH1 0x0 SWAP2 DUP3 MSTORE PUSH1 0x20 SWAP1 SWAP2 KECCAK256 ADD SLOAD PUSH1 0x1 PUSH1 0x1 PUSH1 0xA0 SHL SUB AND EQ ISZERO PUSH2 0x3578 JUMPI PUSH1 0x0 SWAP2 POP JUMPDEST DUP1 PUSH2 0x3582 DUP2 PUSH2 0x5686 JUMP JUMPDEST SWAP2 POP POP PUSH2 0x3531 JUMP JUMPDEST POP DUP1 PUSH2 0x35BE JUMPI PUSH1 0x40 MLOAD PUSH3 0x461BCD PUSH1 0xE5 SHL DUP2 MSTORE PUSH1 0x20 PUSH1 0x4 DUP3 ADD MSTORE PUSH1 0x3 PUSH1 0x24 DUP3 ADD MSTORE PUSH3 0x653231 PUSH1 0xE8 SHL PUSH1 0x44 DUP3 ADD MSTORE PUSH1 0x64 ADD PUSH2 0xF7C JUMP JUMPDEST POP PUSH1 0x16 DUP1 SLOAD PUSH1 0x1 DUP2 ADD DUP3 SSTORE PUSH1 0x0 SWAP2 SWAP1 SWAP2 MSTORE PUSH32 0xD833147D7DC355BA459FC788F669E58CFAF9DC25DDCD0702E87D69C7B5124289 ADD DUP1 SLOAD PUSH1 0x1 PUSH1 0x1 PUSH1 0xA0 SHL SUB NOT AND CALLER OR SWAP1 SSTORE JUMP JUMPDEST PUSH1 0x0 DUP1 PUSH1 0x8 PUSH1 0x0 SWAP1 SLOAD SWAP1 PUSH2 0x100 EXP SWAP1 DIV PUSH1 0x1 PUSH1 0x1 PUSH1 0xA0 SHL SUB AND PUSH1 0x1 PUSH1 0x1 PUSH1 0xA0 SHL SUB AND PUSH4 0xFEAF968C PUSH1 0x40 MLOAD DUP2 PUSH4 0xFFFFFFFF AND PUSH1 0xE0 SHL DUP2 MSTORE PUSH1 0x4 ADD PUSH1 0xA0 PUSH1 0x40 MLOAD DUP1 DUP4 SUB DUP2 DUP7 GAS STATICCALL ISZERO DUP1 ISZERO PUSH2 0x3659 JUMPI RETURNDATASIZE PUSH1 0x0 DUP1 RETURNDATACOPY RETURNDATASIZE PUSH1 0x0 REVERT JUMPDEST POP POP POP POP PUSH1 0x40 MLOAD RETURNDATASIZE PUSH1 0x1F NOT PUSH1 0x1F DUP3 ADD AND DUP3 ADD DUP1 PUSH1 0x40 MSTORE POP DUP2 ADD SWAP1 PUSH2 0x367D SWAP2 SWAP1 PUSH2 0x5796 JUMP JUMPDEST POP POP POP SWAP2 POP POP PUSH1 0x0 DUP2 PUSH5 0x2540BE400 PUSH2 0x3696 SWAP2 SWAP1 PUSH2 0x5700 JUMP JUMPDEST SWAP1 POP DUP1 PUSH1 0x14 SLOAD PUSH8 0xDE0B6B3A7640000 PUSH2 0x36AF SWAP2 SWAP1 PUSH2 0x5700 JUMP JUMPDEST PUSH2 0x36B9 SWAP2 SWAP1 PUSH2 0x5735 JUMP JUMPDEST SWAP3 POP POP POP SWAP1 JUMP JUMPDEST PUSH1 0x0 PUSH2 0x36CD DUP9 DUP9 DUP9 PUSH2 0x3A0B JUMP JUMPDEST SWAP1 POP PUSH1 0xFF DUP6 MLOAD GT ISZERO PUSH2 0x3707 JUMPI PUSH1 0x40 MLOAD PUSH3 0x461BCD PUSH1 0xE5 SHL DUP2 MSTORE PUSH1 0x20 PUSH1 0x4 DUP3 ADD MSTORE PUSH1 0x3 PUSH1 0x24 DUP3 ADD MSTORE PUSH3 0x329919 PUSH1 0xE9 SHL PUSH1 0x44 DUP3 ADD MSTORE PUSH1 0x64 ADD PUSH2 0xF7C JUMP JUMPDEST PUSH1 0x0 DUP2 DUP2 MSTORE PUSH1 0x2A PUSH1 0x20 MSTORE PUSH1 0x40 SWAP1 KECCAK256 SLOAD PUSH1 0x1 PUSH1 0x1 PUSH1 0xA0 SHL SUB AND PUSH2 0x3751 JUMPI PUSH1 0x40 MLOAD PUSH3 0x461BCD PUSH1 0xE5 SHL DUP2 MSTORE PUSH1 0x20 PUSH1 0x4 DUP3 ADD MSTORE PUSH1 0x3 PUSH1 0x24 DUP3 ADD MSTORE PUSH3 0x653233 PUSH1 0xE8 SHL PUSH1 0x44 DUP3 ADD MSTORE PUSH1 0x64 ADD PUSH2 0xF7C JUMP JUMPDEST PUSH1 0x0 DUP2 DUP2 MSTORE PUSH1 0x2A PUSH1 0x20 MSTORE PUSH1 0x40 SWAP1 KECCAK256 SLOAD PUSH1 0x1 PUSH1 0x1 PUSH1 0xA0 SHL SUB AND CALLER EQ PUSH2 0x379D JUMPI PUSH1 0x40 MLOAD PUSH3 0x461BCD PUSH1 0xE5 SHL DUP2 MSTORE PUSH1 0x20 PUSH1 0x4 DUP3 ADD MSTORE PUSH1 0x3 PUSH1 0x24 DUP3 ADD MSTORE PUSH3 0x194C8D PUSH1 0xEA SHL PUSH1 0x44 DUP3 ADD MSTORE PUSH1 0x64 ADD PUSH2 0xF7C JUMP JUMPDEST PUSH2 0x37C0 DUP6 PUSH1 0x40 MLOAD DUP1 PUSH1 0x40 ADD PUSH1 0x40 MSTORE DUP1 PUSH1 0x1 DUP2 MSTORE PUSH1 0x20 ADD PUSH1 0x1 PUSH1 0xFD SHL DUP2 MSTORE POP PUSH2 0x45D0 JUMP JUMPDEST PUSH2 0x37E5 JUMPI PUSH1 0x0 DUP2 DUP2 MSTORE PUSH1 0x2E PUSH1 0x20 SWAP1 DUP2 MSTORE PUSH1 0x40 SWAP1 SWAP2 KECCAK256 DUP7 MLOAD PUSH2 0x37E3 SWAP3 DUP9 ADD SWAP1 PUSH2 0x4C06 JUMP JUMPDEST POP JUMPDEST PUSH2 0x3808 DUP4 PUSH1 0x40 MLOAD DUP1 PUSH1 0x40 ADD PUSH1 0x40 MSTORE DUP1 PUSH1 0x1 DUP2 MSTORE PUSH1 0x20 ADD PUSH1 0x1 PUSH1 0xFD SHL DUP2 MSTORE POP PUSH2 0x45D0 JUMP JUMPDEST PUSH2 0x382E JUMPI CALLER PUSH1 0x0 SWAP1 DUP2 MSTORE PUSH1 0x30 PUSH1 0x20 SWAP1 DUP2 MSTORE PUSH1 0x40 SWAP1 SWAP2 KECCAK256 DUP5 MLOAD PUSH2 0x382C SWAP3 DUP7 ADD SWAP1 PUSH2 0x4C06 JUMP JUMPDEST POP JUMPDEST PUSH2 0x3851 DUP3 PUSH1 0x40 MLOAD DUP1 PUSH1 0x40 ADD PUSH1 0x40 MSTORE DUP1 PUSH1 0x1 DUP2 MSTORE PUSH1 0x20 ADD PUSH1 0x1 PUSH1 0xFD SHL DUP2 MSTORE POP PUSH2 0x45D0 JUMP JUMPDEST PUSH2 0x3876 JUMPI PUSH1 0x0 DUP2 DUP2 MSTORE PUSH1 0x31 PUSH1 0x20 SWAP1 DUP2 MSTORE PUSH1 0x40 SWAP1 SWAP2 KECCAK256 DUP4 MLOAD PUSH2 0x3874 SWAP3 DUP6 ADD SWAP1 PUSH2 0x4C06 JUMP JUMPDEST POP JUMPDEST PUSH2 0x3899 DUP5 PUSH1 0x40 MLOAD DUP1 PUSH1 0x40 ADD PUSH1 0x40 MSTORE DUP1 PUSH1 0x1 DUP2 MSTORE PUSH1 0x20 ADD PUSH1 0x1 PUSH1 0xFD SHL DUP2 MSTORE POP PUSH2 0x45D0 JUMP JUMPDEST PUSH2 0x39D9 JUMPI PUSH1 0x40 DUP1 MLOAD DUP1 DUP3 ADD DUP3 MSTORE PUSH1 0x0 DUP1 DUP3 MSTORE PUSH1 0x20 SWAP2 DUP3 ADD MSTORE DUP2 MLOAD DUP1 DUP4 ADD SWAP1 SWAP3 MSTORE DUP6 MLOAD DUP3 MSTORE DUP1 DUP7 ADD SWAP1 DUP3 ADD MSTORE PUSH2 0x3988 SWAP1 PUSH2 0x3983 PUSH1 0x5 DUP1 SLOAD PUSH2 0x38D8 SWAP1 PUSH2 0x5651 JUMP JUMPDEST DUP1 PUSH1 0x1F ADD PUSH1 0x20 DUP1 SWAP2 DIV MUL PUSH1 0x20 ADD PUSH1 0x40 MLOAD SWAP1 DUP2 ADD PUSH1 0x40 MSTORE DUP1 SWAP3 SWAP2 SWAP1 DUP2 DUP2 MSTORE PUSH1 0x20 ADD DUP3 DUP1 SLOAD PUSH2 0x3904 SWAP1 PUSH2 0x5651 JUMP JUMPDEST DUP1 ISZERO PUSH2 0x3951 JUMPI DUP1 PUSH1 0x1F LT PUSH2 0x3926 JUMPI PUSH2 0x100 DUP1 DUP4 SLOAD DIV MUL DUP4 MSTORE SWAP2 PUSH1 0x20 ADD SWAP2 PUSH2 0x3951 JUMP JUMPDEST DUP3 ADD SWAP2 SWAP1 PUSH1 0x0 MSTORE PUSH1 0x20 PUSH1 0x0 KECCAK256 SWAP1 JUMPDEST DUP2 SLOAD DUP2 MSTORE SWAP1 PUSH1 0x1 ADD SWAP1 PUSH1 0x20 ADD DUP1 DUP4 GT PUSH2 0x3934 JUMPI DUP3 SWAP1 SUB PUSH1 0x1F AND DUP3 ADD SWAP2 JUMPDEST POP POP POP POP POP PUSH1 0x40 DUP1 MLOAD DUP1 DUP3 ADD DUP3 MSTORE PUSH1 0x0 DUP1 DUP3 MSTORE PUSH1 0x20 SWAP2 DUP3 ADD MSTORE DUP2 MLOAD DUP1 DUP4 ADD SWAP1 SWAP3 MSTORE DUP3 MLOAD DUP3 MSTORE SWAP2 DUP3 ADD SWAP2 DUP2 ADD SWAP2 SWAP1 SWAP2 MSTORE SWAP1 JUMP JUMPDEST PUSH2 0x4629 JUMP JUMPDEST PUSH2 0x39BA JUMPI PUSH1 0x40 MLOAD PUSH3 0x461BCD PUSH1 0xE5 SHL DUP2 MSTORE PUSH1 0x20 PUSH1 0x4 DUP3 ADD MSTORE PUSH1 0x3 PUSH1 0x24 DUP3 ADD MSTORE PUSH3 0x653235 PUSH1 0xE8 SHL PUSH1 0x44 DUP3 ADD MSTORE PUSH1 0x64 ADD PUSH2 0xF7C JUMP JUMPDEST PUSH1 0x0 DUP2 DUP2 MSTORE PUSH1 0x2F PUSH1 0x20 SWAP1 DUP2 MSTORE PUSH1 0x40 SWAP1 SWAP2 KECCAK256 DUP6 MLOAD PUSH2 0x2BD2 SWAP3 DUP8 ADD SWAP1 PUSH2 0x4C06 JUMP JUMPDEST POP POP POP POP POP POP POP POP JUMP JUMPDEST PUSH1 0x0 PUSH2 0x39F2 PUSH3 0x15180 DUP4 PUSH2 0x5700 JUMP JUMPDEST PUSH2 0x39FC SWAP1 DUP5 PUSH2 0x5749 JUMP JUMPDEST SWAP1 POP DUP3 DUP2 GT ISZERO PUSH2 0xFA8 JUMPI PUSH1 0x0 DUP1 REVERT JUMPDEST PUSH1 0x0 PUSH3 0x15180 PUSH2 0x3A1C DUP6 DUP6 DUP6 PUSH2 0x466D JUMP JUMPDEST PUSH2 0x100B SWAP2 SWAP1 PUSH2 0x5700 JUMP JUMPDEST PUSH1 0x0 PUSH2 0x3A33 PUSH1 0x4 DUP4 PUSH2 0x57E6 JUMP JUMPDEST ISZERO DUP1 ISZERO PUSH2 0x3A49 JUMPI POP PUSH2 0x3A46 PUSH1 0x64 DUP4 PUSH2 0x57E6 JUMP JUMPDEST ISZERO ISZERO JUMPDEST DUP1 PUSH2 0xFA8 JUMPI POP PUSH2 0x3A5B PUSH2 0x190 DUP4 PUSH2 0x57E6 JUMP JUMPDEST ISZERO SWAP3 SWAP2 POP POP JUMP JUMPDEST EXTCODESIZE ISZERO ISZERO SWAP1 JUMP JUMPDEST PUSH1 0x3 SLOAD PUSH1 0xFF AND PUSH2 0x3AB1 JUMPI PUSH1 0x40 MLOAD PUSH3 0x461BCD PUSH1 0xE5 SHL DUP2 MSTORE PUSH1 0x20 PUSH1 0x4 DUP3 ADD MSTORE PUSH1 0x14 PUSH1 0x24 DUP3 ADD MSTORE PUSH20 0x14185D5CD8589B194E881B9BDD081C185D5CD959 PUSH1 0x62 SHL PUSH1 0x44 DUP3 ADD MSTORE PUSH1 0x64 ADD PUSH2 0xF7C JUMP JUMPDEST PUSH1 0x3 DUP1 SLOAD PUSH1 0xFF NOT AND SWAP1 SSTORE PUSH32 0x5DB9EE0A495BF2E6FF9C91A7834C1BA4FDD244A5E8AA4E537BD38AEAE4B073AA CALLER JUMPDEST PUSH1 0x40 MLOAD PUSH1 0x1 PUSH1 0x1 PUSH1 0xA0 SHL SUB SWAP1 SWAP2 AND DUP2 MSTORE PUSH1 0x20 ADD PUSH1 0x40 MLOAD DUP1 SWAP2 SUB SWAP1 LOG1 JUMP JUMPDEST PUSH1 0x3 SLOAD PUSH1 0xFF AND ISZERO PUSH2 0x3B1E JUMPI PUSH1 0x40 MLOAD PUSH3 0x461BCD PUSH1 0xE5 SHL DUP2 MSTORE PUSH1 0x4 ADD PUSH2 0xF7C SWAP1 PUSH2 0x56D6 JUMP JUMPDEST PUSH1 0x3 DUP1 SLOAD PUSH1 0xFF NOT AND PUSH1 0x1 OR SWAP1 SSTORE PUSH32 0x62E78CEA01BEE320CD4E420270B5EA74000D11B0C9F74754EBDBFC544B05A258 PUSH2 0x3ADE CALLER SWAP1 JUMP JUMPDEST PUSH1 0x0 DUP2 DUP4 GT ISZERO PUSH2 0x3B62 JUMPI PUSH1 0x0 DUP1 REVERT JUMPDEST PUSH3 0x15180 PUSH2 0x3B70 DUP5 DUP5 PUSH2 0x5749 JUMP JUMPDEST PUSH2 0x22CF SWAP2 SWAP1 PUSH2 0x5735 JUMP JUMPDEST PUSH1 0x1 PUSH1 0x1 PUSH1 0xA0 SHL SUB DUP5 AND PUSH2 0x3BDA JUMPI PUSH1 0x40 MLOAD PUSH3 0x461BCD PUSH1 0xE5 SHL DUP2 MSTORE PUSH1 0x20 PUSH1 0x4 DUP3 ADD MSTORE PUSH1 0x21 PUSH1 0x24 DUP3 ADD MSTORE PUSH32 0x455243313135353A206D696E7420746F20746865207A65726F20616464726573 PUSH1 0x44 DUP3 ADD MSTORE PUSH1 0x73 PUSH1 0xF8 SHL PUSH1 0x64 DUP3 ADD MSTORE PUSH1 0x84 ADD PUSH2 0xF7C JUMP JUMPDEST CALLER PUSH2 0x3BFA DUP2 PUSH1 0x0 DUP8 PUSH2 0x3BEB DUP9 PUSH2 0x47AA JUMP JUMPDEST PUSH2 0x3BF4 DUP9 PUSH2 0x47AA JUMP JUMPDEST DUP8 PUSH2 0x47F5 JUMP JUMPDEST PUSH1 0x0 DUP5 DUP2 MSTORE PUSH1 0x20 DUP2 DUP2 MSTORE PUSH1 0x40 DUP1 DUP4 KECCAK256 PUSH1 0x1 PUSH1 0x1 PUSH1 0xA0 SHL SUB DUP10 AND DUP5 MSTORE SWAP1 SWAP2 MSTORE DUP2 KECCAK256 DUP1 SLOAD DUP6 SWAP3 SWAP1 PUSH2 0x3C2A SWAP1 DUP5 SWAP1 PUSH2 0x4D20 JUMP JUMPDEST SWAP1 SWAP2 SSTORE POP POP PUSH1 0x40 DUP1 MLOAD DUP6 DUP2 MSTORE PUSH1 0x20 DUP2 ADD DUP6 SWAP1 MSTORE PUSH1 0x1 PUSH1 0x1 PUSH1 0xA0 SHL SUB DUP1 DUP9 AND SWAP3 PUSH1 0x0 SWAP3 SWAP2 DUP6 AND SWAP2 PUSH32 0xC3D58168C5AE7397731D063D5BBF3D657854427343F4C083240F7AACAA2D0F62 SWAP2 ADD PUSH1 0x40 MLOAD DUP1 SWAP2 SUB SWAP1 LOG4 PUSH2 0x2011 DUP2 PUSH1 0x0 DUP8 DUP8 DUP8 DUP8 PUSH2 0x485D JUMP JUMPDEST PUSH1 0x1E SLOAD PUSH1 0x0 SWAP1 PUSH2 0x3C9A SWAP1 DUP4 PUSH2 0x5735 JUMP JUMPDEST SWAP1 POP PUSH1 0x0 JUMPDEST PUSH1 0x1E SLOAD DUP2 LT ISZERO PUSH2 0x3245 JUMPI DUP2 PUSH1 0x28 PUSH1 0x0 PUSH1 0x2A PUSH1 0x0 PUSH1 0x1E DUP7 DUP2 SLOAD DUP2 LT PUSH2 0x3CC5 JUMPI PUSH2 0x3CC5 PUSH2 0x4CF4 JUMP JUMPDEST PUSH1 0x0 SWAP2 DUP3 MSTORE PUSH1 0x20 DUP1 DUP4 KECCAK256 SWAP1 SWAP2 ADD SLOAD DUP4 MSTORE DUP3 DUP2 ADD SWAP4 SWAP1 SWAP4 MSTORE PUSH1 0x40 SWAP2 DUP3 ADD DUP2 KECCAK256 SLOAD PUSH1 0x1 PUSH1 0x1 PUSH1 0xA0 SHL SUB AND DUP5 MSTORE SWAP2 DUP4 ADD SWAP4 SWAP1 SWAP4 MSTORE SWAP2 ADD SWAP1 KECCAK256 SLOAD PUSH2 0x3D05 SWAP2 SWAP1 PUSH2 0x4D20 JUMP JUMPDEST PUSH1 0x28 PUSH1 0x0 PUSH1 0x2A PUSH1 0x0 PUSH1 0x1E DUP7 DUP2 SLOAD DUP2 LT PUSH2 0x3D20 JUMPI PUSH2 0x3D20 PUSH2 0x4CF4 JUMP JUMPDEST PUSH1 0x0 SWAP2 DUP3 MSTORE PUSH1 0x20 DUP1 DUP4 KECCAK256 SWAP1 SWAP2 ADD SLOAD DUP4 MSTORE DUP3 DUP2 ADD SWAP4 SWAP1 SWAP4 MSTORE PUSH1 0x40 SWAP2 DUP3 ADD DUP2 KECCAK256 SLOAD PUSH1 0x1 PUSH1 0x1 PUSH1 0xA0 SHL SUB AND DUP5 MSTORE SWAP2 DUP4 ADD SWAP4 SWAP1 SWAP4 MSTORE SWAP2 ADD SWAP1 KECCAK256 SSTORE DUP1 PUSH2 0x3D60 DUP2 PUSH2 0x5686 JUMP JUMPDEST SWAP2 POP POP PUSH2 0x3C9F JUMP JUMPDEST PUSH1 0x2D SLOAD PUSH1 0x0 SWAP1 PUSH2 0x3D78 SWAP1 DUP4 PUSH2 0x5735 JUMP JUMPDEST SWAP1 POP PUSH1 0x0 JUMPDEST PUSH1 0x2D SLOAD DUP2 LT ISZERO PUSH2 0x3245 JUMPI DUP2 PUSH1 0x28 PUSH1 0x0 PUSH1 0x2D DUP5 DUP2 SLOAD DUP2 LT PUSH2 0x3D9F JUMPI PUSH2 0x3D9F PUSH2 0x4CF4 JUMP JUMPDEST PUSH1 0x0 SWAP2 DUP3 MSTORE PUSH1 0x20 DUP1 DUP4 KECCAK256 SWAP1 SWAP2 ADD SLOAD PUSH1 0x1 PUSH1 0x1 PUSH1 0xA0 SHL SUB AND DUP4 MSTORE DUP3 ADD SWAP3 SWAP1 SWAP3 MSTORE PUSH1 0x40 ADD SWAP1 KECCAK256 SLOAD PUSH2 0x3DCE SWAP2 SWAP1 PUSH2 0x4D20 JUMP JUMPDEST PUSH1 0x28 PUSH1 0x0 PUSH1 0x2D DUP5 DUP2 SLOAD DUP2 LT PUSH2 0x3DE5 JUMPI PUSH2 0x3DE5 PUSH2 0x4CF4 JUMP JUMPDEST PUSH1 0x0 SWAP2 DUP3 MSTORE PUSH1 0x20 DUP1 DUP4 KECCAK256 SWAP1 SWAP2 ADD SLOAD PUSH1 0x1 PUSH1 0x1 PUSH1 0xA0 SHL SUB AND DUP4 MSTORE DUP3 ADD SWAP3 SWAP1 SWAP3 MSTORE PUSH1 0x40 ADD SWAP1 KECCAK256 SSTORE DUP1 PUSH2 0x3E14 DUP2 PUSH2 0x5686 JUMP JUMPDEST SWAP2 POP POP PUSH2 0x3D7D JUMP JUMPDEST PUSH1 0xB SLOAD PUSH1 0x1E SLOAD PUSH1 0x0 SWAP2 PUSH2 0x3E2E SWAP2 PUSH2 0x5749 JUMP JUMPDEST SWAP1 POP PUSH10 0x152D02C7E14AF6800000 PUSH1 0x14 SLOAD LT ISZERO PUSH2 0x348A JUMPI PUSH2 0x3E50 PUSH2 0x16D DUP3 PUSH2 0x57E6 JUMP JUMPDEST PUSH2 0x348A JUMPI PUSH1 0xA SLOAD PUSH1 0x14 SLOAD PUSH2 0x3E64 SWAP2 SWAP1 PUSH2 0x4D20 JUMP JUMPDEST PUSH1 0x14 SSTORE POP JUMP JUMPDEST DUP5 MLOAD DUP2 LT ISZERO PUSH2 0x3F4D JUMPI PUSH1 0x0 DUP6 DUP3 DUP2 MLOAD DUP2 LT PUSH2 0x3E87 JUMPI PUSH2 0x3E87 PUSH2 0x4CF4 JUMP JUMPDEST PUSH1 0x20 MUL PUSH1 0x20 ADD ADD MLOAD SWAP1 POP PUSH1 0x0 DUP6 DUP4 DUP2 MLOAD DUP2 LT PUSH2 0x3EA5 JUMPI PUSH2 0x3EA5 PUSH2 0x4CF4 JUMP JUMPDEST PUSH1 0x20 SWAP1 DUP2 MUL SWAP2 SWAP1 SWAP2 ADD DUP2 ADD MLOAD PUSH1 0x0 DUP5 DUP2 MSTORE DUP1 DUP4 MSTORE PUSH1 0x40 DUP1 DUP3 KECCAK256 PUSH1 0x1 PUSH1 0x1 PUSH1 0xA0 SHL SUB DUP15 AND DUP4 MSTORE SWAP1 SWAP4 MSTORE SWAP2 SWAP1 SWAP2 KECCAK256 SLOAD SWAP1 SWAP2 POP DUP2 DUP2 LT ISZERO PUSH2 0x3EF5 JUMPI PUSH1 0x40 MLOAD PUSH3 0x461BCD PUSH1 0xE5 SHL DUP2 MSTORE PUSH1 0x4 ADD PUSH2 0xF7C SWAP1 PUSH2 0x57FA JUMP JUMPDEST PUSH1 0x0 DUP4 DUP2 MSTORE PUSH1 0x20 DUP2 DUP2 MSTORE PUSH1 0x40 DUP1 DUP4 KECCAK256 PUSH1 0x1 PUSH1 0x1 PUSH1 0xA0 SHL SUB DUP15 DUP2 AND DUP6 MSTORE SWAP3 MSTORE DUP1 DUP4 KECCAK256 DUP6 DUP6 SUB SWAP1 SSTORE SWAP1 DUP12 AND DUP3 MSTORE DUP2 KECCAK256 DUP1 SLOAD DUP5 SWAP3 SWAP1 PUSH2 0x3F32 SWAP1 DUP5 SWAP1 PUSH2 0x4D20 JUMP JUMPDEST SWAP3 POP POP DUP2 SWAP1 SSTORE POP POP POP POP DUP1 PUSH2 0x3F46 SWAP1 PUSH2 0x5686 JUMP JUMPDEST SWAP1 POP PUSH2 0x3E6A JUMP JUMPDEST POP DUP5 PUSH1 0x1 PUSH1 0x1 PUSH1 0xA0 SHL SUB AND DUP7 PUSH1 0x1 PUSH1 0x1 PUSH1 0xA0 SHL SUB AND DUP3 PUSH1 0x1 PUSH1 0x1 PUSH1 0xA0 SHL SUB AND PUSH32 0x4A39DC06D4C0DBC64B70AF90FD698A233A518AA5D07E595D983B8C0526C8F7FB DUP8 DUP8 PUSH1 0x40 MLOAD PUSH2 0x3F9D SWAP3 SWAP2 SWAP1 PUSH2 0x5844 JUMP JUMPDEST PUSH1 0x40 MLOAD DUP1 SWAP2 SUB SWAP1 LOG4 PUSH2 0x1F58 DUP2 DUP8 DUP8 DUP8 DUP8 DUP8 PUSH2 0x49B9 JUMP JUMPDEST PUSH1 0x3 DUP1 SLOAD PUSH1 0x1 PUSH1 0x1 PUSH1 0xA0 SHL SUB DUP4 DUP2 AND PUSH2 0x100 DUP2 DUP2 MUL PUSH2 0x100 PUSH1 0x1 PUSH1 0xA8 SHL SUB NOT DUP6 AND OR SWAP1 SWAP5 SSTORE PUSH1 0x40 MLOAD SWAP4 SWAP1 SWAP3 DIV AND SWAP2 DUP3 SWAP1 PUSH32 0x8BE0079C531659141344CD1FD0A4F28419497F9722A3DAAFE3B4186F6B6457E0 SWAP1 PUSH1 0x0 SWAP1 LOG3 POP POP JUMP JUMPDEST DUP2 PUSH1 0x6 SLOAD EQ PUSH2 0x4044 JUMPI PUSH1 0x40 MLOAD PUSH3 0x461BCD PUSH1 0xE5 SHL DUP2 MSTORE PUSH1 0x20 PUSH1 0x4 DUP3 ADD MSTORE PUSH1 0x3 PUSH1 0x24 DUP3 ADD MSTORE PUSH3 0xCA627 PUSH1 0xEB SHL PUSH1 0x44 DUP3 ADD MSTORE PUSH1 0x64 ADD PUSH2 0xF7C JUMP JUMPDEST PUSH1 0x0 DUP2 GT PUSH2 0x407A JUMPI PUSH1 0x40 MLOAD PUSH3 0x461BCD PUSH1 0xE5 SHL DUP2 MSTORE PUSH1 0x20 PUSH1 0x4 DUP3 ADD MSTORE PUSH1 0x3 PUSH1 0x24 DUP3 ADD MSTORE PUSH3 0x653139 PUSH1 0xE8 SHL PUSH1 0x44 DUP3 ADD MSTORE PUSH1 0x64 ADD PUSH2 0xF7C JUMP JUMPDEST PUSH1 0x16 SLOAD PUSH1 0x0 SWAP1 PUSH2 0x408A SWAP1 DUP4 PUSH2 0x57E6 JUMP JUMPDEST SWAP1 POP PUSH1 0x29 PUSH1 0x0 PUSH1 0x16 DUP4 DUP2 SLOAD DUP2 LT PUSH2 0x40A3 JUMPI PUSH2 0x40A3 PUSH2 0x4CF4 JUMP JUMPDEST PUSH1 0x0 SWAP2 DUP3 MSTORE PUSH1 0x20 DUP1 DUP4 KECCAK256 SWAP1 SWAP2 ADD SLOAD PUSH1 0x1 PUSH1 0x1 PUSH1 0xA0 SHL SUB AND DUP4 MSTORE DUP3 ADD SWAP3 SWAP1 SWAP3 MSTORE PUSH1 0x40 ADD SWAP1 KECCAK256 SLOAD PUSH2 0x40D3 SWAP1 PUSH1 0x1 PUSH2 0x4D20 JUMP JUMPDEST PUSH1 0x29 PUSH1 0x0 PUSH1 0x16 DUP5 DUP2 SLOAD DUP2 LT PUSH2 0x40EA JUMPI PUSH2 0x40EA PUSH2 0x4CF4 JUMP JUMPDEST PUSH1 0x0 SWAP2 DUP3 MSTORE PUSH1 0x20 DUP1 DUP4 KECCAK256 SWAP1 SWAP2 ADD SLOAD PUSH1 0x1 PUSH1 0x1 PUSH1 0xA0 SHL SUB AND DUP4 MSTORE DUP3 ADD SWAP3 SWAP1 SWAP3 MSTORE PUSH1 0x40 ADD SWAP1 KECCAK256 SSTORE PUSH1 0x16 DUP1 SLOAD DUP3 SWAP1 DUP2 LT PUSH2 0x4123 JUMPI PUSH2 0x4123 PUSH2 0x4CF4 JUMP JUMPDEST PUSH1 0x0 SWAP2 DUP3 MSTORE PUSH1 0x20 SWAP2 DUP3 SWAP1 KECCAK256 ADD SLOAD PUSH1 0x40 MLOAD DUP5 DUP2 MSTORE PUSH1 0x1 PUSH1 0x1 PUSH1 0xA0 SHL SUB SWAP1 SWAP2 AND SWAP2 PUSH32 0x8DCB1B46B7E05DD96ECD3AE5F7B77B7C6E369F8CED83A2AB24368C4F8E16B8C9 SWAP2 ADD PUSH1 0x40 MLOAD DUP1 SWAP2 SUB SWAP1 LOG2 PUSH1 0x40 DUP1 MLOAD PUSH1 0x0 DUP2 MSTORE PUSH1 0x20 DUP2 ADD SWAP2 DUP3 SWAP1 MSTORE MLOAD PUSH2 0x418A SWAP2 PUSH1 0x16 SWAP2 PUSH2 0x4C8A JUMP JUMPDEST POP POP POP POP JUMP JUMPDEST DUP2 PUSH1 0x1 PUSH1 0x1 PUSH1 0xA0 SHL SUB AND DUP4 PUSH1 0x1 PUSH1 0x1 PUSH1 0xA0 SHL SUB AND EQ ISZERO PUSH2 0x4204 JUMPI PUSH1 0x40 MLOAD PUSH3 0x461BCD PUSH1 0xE5 SHL DUP2 MSTORE PUSH1 0x20 PUSH1 0x4 DUP3 ADD MSTORE PUSH1 0x29 PUSH1 0x24 DUP3 ADD MSTORE PUSH32 0x455243313135353A2073657474696E6720617070726F76616C20737461747573 PUSH1 0x44 DUP3 ADD MSTORE PUSH9 0x103337B91039B2B633 PUSH1 0xB9 SHL PUSH1 0x64 DUP3 ADD MSTORE PUSH1 0x84 ADD PUSH2 0xF7C JUMP JUMPDEST PUSH1 0x1 PUSH1 0x1 PUSH1 0xA0 SHL SUB DUP4 DUP2 AND PUSH1 0x0 DUP2 DUP2 MSTORE PUSH1 0x1 PUSH1 0x20 SWAP1 DUP2 MSTORE PUSH1 0x40 DUP1 DUP4 KECCAK256 SWAP5 DUP8 AND DUP1 DUP5 MSTORE SWAP5 DUP3 MSTORE SWAP2 DUP3 SWAP1 KECCAK256 DUP1 SLOAD PUSH1 0xFF NOT AND DUP7 ISZERO ISZERO SWAP1 DUP2 OR SWAP1 SWAP2 SSTORE SWAP2 MLOAD SWAP2 DUP3 MSTORE PUSH32 0x17307EAB39AB6107E8899845AD3D59BD9653F200F220920489CA2B5937696C31 SWAP2 ADD PUSH1 0x40 MLOAD DUP1 SWAP2 SUB SWAP1 LOG3 POP POP POP JUMP JUMPDEST PUSH1 0x0 DUP2 DUP4 GT ISZERO PUSH2 0x4280 JUMPI PUSH1 0x0 DUP1 REVERT JUMPDEST PUSH1 0x0 DUP1 DUP1 DUP1 DUP1 DUP1 PUSH2 0x429C PUSH2 0x4297 PUSH3 0x15180 DUP12 PUSH2 0x5735 JUMP JUMPDEST PUSH2 0x4A74 JUMP JUMPDEST SWAP2 SWAP8 POP SWAP6 POP SWAP4 POP PUSH2 0x42B3 PUSH2 0x4297 PUSH3 0x15180 DUP11 PUSH2 0x5735 JUMP JUMPDEST SWAP2 SWAP5 POP SWAP3 POP SWAP1 POP PUSH2 0x42C4 DUP7 DUP5 PUSH2 0x5749 JUMP JUMPDEST SWAP10 SWAP9 POP POP POP POP POP POP POP POP POP JUMP JUMPDEST PUSH1 0x0 PUSH32 0x0 PUSH1 0x1 PUSH1 0x1 PUSH1 0xA0 SHL SUB AND PUSH4 0x4000AEA0 PUSH32 0x0 DUP5 DUP7 PUSH1 0x0 PUSH1 0x40 MLOAD PUSH1 0x20 ADD PUSH2 0x4341 SWAP3 SWAP2 SWAP1 SWAP2 DUP3 MSTORE PUSH1 0x20 DUP3 ADD MSTORE PUSH1 0x40 ADD SWAP1 JUMP JUMPDEST PUSH1 0x40 MLOAD PUSH1 0x20 DUP2 DUP4 SUB SUB DUP2 MSTORE SWAP1 PUSH1 0x40 MSTORE PUSH1 0x40 MLOAD DUP5 PUSH4 0xFFFFFFFF AND PUSH1 0xE0 SHL DUP2 MSTORE PUSH1 0x4 ADD PUSH2 0x436E SWAP4 SWAP3 SWAP2 SWAP1 PUSH2 0x5869 JUMP JUMPDEST PUSH1 0x20 PUSH1 0x40 MLOAD DUP1 DUP4 SUB DUP2 PUSH1 0x0 DUP8 GAS CALL ISZERO DUP1 ISZERO PUSH2 0x438D JUMPI RETURNDATASIZE PUSH1 0x0 DUP1 RETURNDATACOPY RETURNDATASIZE PUSH1 0x0 REVERT JUMPDEST POP POP POP POP PUSH1 0x40 MLOAD RETURNDATASIZE PUSH1 0x1F NOT PUSH1 0x1F DUP3 ADD AND DUP3 ADD DUP1 PUSH1 0x40 MSTORE POP DUP2 ADD SWAP1 PUSH2 0x43B1 SWAP2 SWAP1 PUSH2 0x5890 JUMP JUMPDEST POP PUSH1 0x0 DUP4 DUP2 MSTORE PUSH1 0x4 PUSH1 0x20 DUP2 DUP2 MSTORE PUSH1 0x40 DUP1 DUP5 KECCAK256 SLOAD DUP2 MLOAD DUP1 DUP5 ADD DUP10 SWAP1 MSTORE DUP1 DUP4 ADD DUP7 SWAP1 MSTORE ADDRESS PUSH1 0x60 DUP3 ADD MSTORE PUSH1 0x80 DUP1 DUP3 ADD DUP4 SWAP1 MSTORE DUP4 MLOAD DUP1 DUP4 SUB SWAP1 SWAP2 ADD DUP2 MSTORE PUSH1 0xA0 SWAP1 SWAP2 ADD SWAP1 SWAP3 MSTORE DUP2 MLOAD SWAP2 DUP4 ADD SWAP2 SWAP1 SWAP2 KECCAK256 SWAP4 DUP8 SWAP1 MSTORE SWAP2 SWAP1 MSTORE PUSH2 0x440D SWAP1 PUSH1 0x1 PUSH2 0x4D20 JUMP JUMPDEST PUSH1 0x0 DUP6 DUP2 MSTORE PUSH1 0x4 PUSH1 0x20 MSTORE PUSH1 0x40 SWAP1 KECCAK256 SSTORE PUSH2 0x100B DUP5 DUP3 PUSH1 0x40 DUP1 MLOAD PUSH1 0x20 DUP1 DUP3 ADD SWAP5 SWAP1 SWAP5 MSTORE DUP1 DUP3 ADD SWAP3 SWAP1 SWAP3 MSTORE DUP1 MLOAD DUP1 DUP4 SUB DUP3 ADD DUP2 MSTORE PUSH1 0x60 SWAP1 SWAP3 ADD SWAP1 MSTORE DUP1 MLOAD SWAP2 ADD KECCAK256 SWAP1 JUMP JUMPDEST PUSH1 0x0 PUSH2 0x445C PUSH3 0x15180 DUP4 PUSH2 0x5700 JUMP JUMPDEST PUSH2 0x4466 SWAP1 DUP5 PUSH2 0x4D20 JUMP JUMPDEST SWAP1 POP DUP3 DUP2 LT ISZERO PUSH2 0xFA8 JUMPI PUSH1 0x0 DUP1 REVERT JUMPDEST PUSH1 0x1 PUSH1 0x1 PUSH1 0xA0 SHL SUB DUP5 AND PUSH2 0x44D9 JUMPI PUSH1 0x40 MLOAD PUSH3 0x461BCD PUSH1 0xE5 SHL DUP2 MSTORE PUSH1 0x20 PUSH1 0x4 DUP3 ADD MSTORE PUSH1 0x25 PUSH1 0x24 DUP3 ADD MSTORE PUSH32 0x455243313135353A207472616E7366657220746F20746865207A65726F206164 PUSH1 0x44 DUP3 ADD MSTORE PUSH5 0x6472657373 PUSH1 0xD8 SHL PUSH1 0x64 DUP3 ADD MSTORE PUSH1 0x84 ADD PUSH2 0xF7C JUMP JUMPDEST CALLER PUSH2 0x44E9 DUP2 DUP8 DUP8 PUSH2 0x3BEB DUP9 PUSH2 0x47AA JUMP JUMPDEST PUSH1 0x0 DUP5 DUP2 MSTORE PUSH1 0x20 DUP2 DUP2 MSTORE PUSH1 0x40 DUP1 DUP4 KECCAK256 PUSH1 0x1 PUSH1 0x1 PUSH1 0xA0 SHL SUB DUP11 AND DUP5 MSTORE SWAP1 SWAP2 MSTORE SWAP1 KECCAK256 SLOAD DUP4 DUP2 LT ISZERO PUSH2 0x452A JUMPI PUSH1 0x40 MLOAD PUSH3 0x461BCD PUSH1 0xE5 SHL DUP2 MSTORE PUSH1 0x4 ADD PUSH2 0xF7C SWAP1 PUSH2 0x57FA JUMP JUMPDEST PUSH1 0x0 DUP6 DUP2 MSTORE PUSH1 0x20 DUP2 DUP2 MSTORE PUSH1 0x40 DUP1 DUP4 KECCAK256 PUSH1 0x1 PUSH1 0x1 PUSH1 0xA0 SHL SUB DUP12 DUP2 AND DUP6 MSTORE SWAP3 MSTORE DUP1 DUP4 KECCAK256 DUP8 DUP6 SUB SWAP1 SSTORE SWAP1 DUP9 AND DUP3 MSTORE DUP2 KECCAK256 DUP1 SLOAD DUP7 SWAP3 SWAP1 PUSH2 0x4567 SWAP1 DUP5 SWAP1 PUSH2 0x4D20 JUMP JUMPDEST SWAP1 SWAP2 SSTORE POP POP PUSH1 0x40 DUP1 MLOAD DUP7 DUP2 MSTORE PUSH1 0x20 DUP2 ADD DUP7 SWAP1 MSTORE PUSH1 0x1 PUSH1 0x1 PUSH1 0xA0 SHL SUB DUP1 DUP10 AND SWAP3 DUP11 DUP3 AND SWAP3 SWAP2 DUP7 AND SWAP2 PUSH32 0xC3D58168C5AE7397731D063D5BBF3D657854427343F4C083240F7AACAA2D0F62 SWAP2 ADD PUSH1 0x40 MLOAD DUP1 SWAP2 SUB SWAP1 LOG4 PUSH2 0x45C7 DUP3 DUP9 DUP9 DUP9 DUP9 DUP9 PUSH2 0x485D JUMP JUMPDEST POP POP POP POP POP POP POP JUMP JUMPDEST PUSH1 0x0 DUP2 PUSH1 0x40 MLOAD PUSH1 0x20 ADD PUSH2 0x45E3 SWAP2 SWAP1 PUSH2 0x58AD JUMP JUMPDEST PUSH1 0x40 MLOAD PUSH1 0x20 DUP2 DUP4 SUB SUB DUP2 MSTORE SWAP1 PUSH1 0x40 MSTORE DUP1 MLOAD SWAP1 PUSH1 0x20 ADD KECCAK256 DUP4 PUSH1 0x40 MLOAD PUSH1 0x20 ADD PUSH2 0x460A SWAP2 SWAP1 PUSH2 0x58AD JUMP JUMPDEST PUSH1 0x40 MLOAD PUSH1 0x20 DUP2 DUP4 SUB SUB DUP2 MSTORE SWAP1 PUSH1 0x40 MSTORE DUP1 MLOAD SWAP1 PUSH1 0x20 ADD KECCAK256 EQ SWAP1 POP SWAP3 SWAP2 POP POP JUMP JUMPDEST DUP1 MLOAD DUP3 MLOAD PUSH1 0x0 SWAP2 GT ISZERO PUSH2 0x463E JUMPI POP PUSH1 0x0 PUSH2 0xFA8 JUMP JUMPDEST DUP2 PUSH1 0x20 ADD MLOAD DUP4 PUSH1 0x20 ADD MLOAD EQ ISZERO PUSH2 0x4656 JUMPI POP PUSH1 0x1 PUSH2 0xFA8 JUMP JUMPDEST POP DUP1 MLOAD PUSH1 0x20 SWAP3 DUP4 ADD MLOAD SWAP3 SWAP1 SWAP2 ADD MLOAD DUP2 SWAP1 KECCAK256 SWAP2 KECCAK256 EQ SWAP1 JUMP JUMPDEST PUSH1 0x0 PUSH2 0x7B2 DUP5 LT ISZERO PUSH2 0x467E JUMPI PUSH1 0x0 DUP1 REVERT JUMPDEST DUP4 DUP4 DUP4 PUSH1 0x0 PUSH3 0x253D8C PUSH1 0x4 PUSH1 0x64 PUSH1 0xC PUSH2 0x4698 PUSH1 0xE DUP9 PUSH2 0x58C9 JUMP JUMPDEST PUSH2 0x46A2 SWAP2 SWAP1 PUSH2 0x5908 JUMP JUMPDEST PUSH2 0x46AE DUP9 PUSH2 0x1324 PUSH2 0x5936 JUMP JUMPDEST PUSH2 0x46B8 SWAP2 SWAP1 PUSH2 0x5936 JUMP JUMPDEST PUSH2 0x46C2 SWAP2 SWAP1 PUSH2 0x5908 JUMP JUMPDEST PUSH2 0x46CD SWAP1 PUSH1 0x3 PUSH2 0x5977 JUMP JUMPDEST PUSH2 0x46D7 SWAP2 SWAP1 PUSH2 0x5908 JUMP JUMPDEST PUSH1 0xC DUP1 PUSH2 0x46E5 PUSH1 0xE DUP9 PUSH2 0x58C9 JUMP JUMPDEST PUSH2 0x46EF SWAP2 SWAP1 PUSH2 0x5908 JUMP JUMPDEST PUSH2 0x46FA SWAP1 PUSH1 0xC PUSH2 0x5977 JUMP JUMPDEST PUSH2 0x4705 PUSH1 0x2 DUP9 PUSH2 0x58C9 JUMP JUMPDEST PUSH2 0x470F SWAP2 SWAP1 PUSH2 0x58C9 JUMP JUMPDEST PUSH2 0x471B SWAP1 PUSH2 0x16F PUSH2 0x5977 JUMP JUMPDEST PUSH2 0x4725 SWAP2 SWAP1 PUSH2 0x5908 JUMP JUMPDEST PUSH1 0x4 PUSH1 0xC PUSH2 0x4734 PUSH1 0xE DUP10 PUSH2 0x58C9 JUMP JUMPDEST PUSH2 0x473E SWAP2 SWAP1 PUSH2 0x5908 JUMP JUMPDEST PUSH2 0x474A DUP10 PUSH2 0x12C0 PUSH2 0x5936 JUMP JUMPDEST PUSH2 0x4754 SWAP2 SWAP1 PUSH2 0x5936 JUMP JUMPDEST PUSH2 0x4760 SWAP1 PUSH2 0x5B5 PUSH2 0x5977 JUMP JUMPDEST PUSH2 0x476A SWAP2 SWAP1 PUSH2 0x5908 JUMP JUMPDEST PUSH2 0x4776 PUSH2 0x7D4B DUP8 PUSH2 0x58C9 JUMP JUMPDEST PUSH2 0x4780 SWAP2 SWAP1 PUSH2 0x5936 JUMP JUMPDEST PUSH2 0x478A SWAP2 SWAP1 PUSH2 0x5936 JUMP JUMPDEST PUSH2 0x4794 SWAP2 SWAP1 PUSH2 0x58C9 JUMP JUMPDEST PUSH2 0x479E SWAP2 SWAP1 PUSH2 0x58C9 JUMP JUMPDEST SWAP9 SWAP8 POP POP POP POP POP POP POP POP JUMP JUMPDEST PUSH1 0x40 DUP1 MLOAD PUSH1 0x1 DUP1 DUP3 MSTORE DUP2 DUP4 ADD SWAP1 SWAP3 MSTORE PUSH1 0x60 SWAP2 PUSH1 0x0 SWAP2 SWAP1 PUSH1 0x20 DUP1 DUP4 ADD SWAP1 DUP1 CALLDATASIZE DUP4 CALLDATACOPY ADD SWAP1 POP POP SWAP1 POP DUP3 DUP2 PUSH1 0x0 DUP2 MLOAD DUP2 LT PUSH2 0x47E4 JUMPI PUSH2 0x47E4 PUSH2 0x4CF4 JUMP JUMPDEST PUSH1 0x20 SWAP1 DUP2 MUL SWAP2 SWAP1 SWAP2 ADD ADD MSTORE SWAP3 SWAP2 POP POP JUMP JUMPDEST PUSH1 0x3 SLOAD PUSH1 0xFF AND ISZERO PUSH2 0x1F58 JUMPI PUSH1 0x40 MLOAD PUSH3 0x461BCD PUSH1 0xE5 SHL DUP2 MSTORE PUSH1 0x20 PUSH1 0x4 DUP3 ADD MSTORE PUSH1 0x2C PUSH1 0x24 DUP3 ADD MSTORE PUSH32 0x455243313135355061757361626C653A20746F6B656E207472616E7366657220 PUSH1 0x44 DUP3 ADD MSTORE PUSH12 0x1DDA1A5B19481C185D5CD959 PUSH1 0xA2 SHL PUSH1 0x64 DUP3 ADD MSTORE PUSH1 0x84 ADD PUSH2 0xF7C JUMP JUMPDEST PUSH1 0x1 PUSH1 0x1 PUSH1 0xA0 SHL SUB DUP5 AND EXTCODESIZE ISZERO PUSH2 0x1F58 JUMPI PUSH1 0x40 MLOAD PUSH4 0xF23A6E61 PUSH1 0xE0 SHL DUP2 MSTORE PUSH1 0x1 PUSH1 0x1 PUSH1 0xA0 SHL SUB DUP6 AND SWAP1 PUSH4 0xF23A6E61 SWAP1 PUSH2 0x48A1 SWAP1 DUP10 SWAP1 DUP10 SWAP1 DUP9 SWAP1 DUP9 SWAP1 DUP9 SWAP1 PUSH1 0x4 ADD PUSH2 0x59FC JUMP JUMPDEST PUSH1 0x20 PUSH1 0x40 MLOAD DUP1 DUP4 SUB DUP2 PUSH1 0x0 DUP8 GAS CALL SWAP3 POP POP POP DUP1 ISZERO PUSH2 0x48DC JUMPI POP PUSH1 0x40 DUP1 MLOAD PUSH1 0x1F RETURNDATASIZE SWAP1 DUP2 ADD PUSH1 0x1F NOT AND DUP3 ADD SWAP1 SWAP3 MSTORE PUSH2 0x48D9 SWAP2 DUP2 ADD SWAP1 PUSH2 0x5A41 JUMP JUMPDEST PUSH1 0x1 JUMPDEST PUSH2 0x4989 JUMPI PUSH2 0x48E8 PUSH2 0x5A5E JUMP JUMPDEST DUP1 PUSH4 0x8C379A0 EQ ISZERO PUSH2 0x4922 JUMPI POP PUSH2 0x48FD PUSH2 0x5A7A JUMP JUMPDEST DUP1 PUSH2 0x4908 JUMPI POP PUSH2 0x4924 JUMP JUMPDEST DUP1 PUSH1 0x40 MLOAD PUSH3 0x461BCD PUSH1 0xE5 SHL DUP2 MSTORE PUSH1 0x4 ADD PUSH2 0xF7C SWAP2 SWAP1 PUSH2 0x4E35 JUMP JUMPDEST POP JUMPDEST PUSH1 0x40 MLOAD PUSH3 0x461BCD PUSH1 0xE5 SHL DUP2 MSTORE PUSH1 0x20 PUSH1 0x4 DUP3 ADD MSTORE PUSH1 0x34 PUSH1 0x24 DUP3 ADD MSTORE PUSH32 0x455243313135353A207472616E7366657220746F206E6F6E2045524331313535 PUSH1 0x44 DUP3 ADD MSTORE PUSH20 0x2932B1B2B4BB32B91034B6B83632B6B2B73A32B9 PUSH1 0x61 SHL PUSH1 0x64 DUP3 ADD MSTORE PUSH1 0x84 ADD PUSH2 0xF7C JUMP JUMPDEST PUSH1 0x1 PUSH1 0x1 PUSH1 0xE0 SHL SUB NOT DUP2 AND PUSH4 0xF23A6E61 PUSH1 0xE0 SHL EQ PUSH2 0x45C7 JUMPI PUSH1 0x40 MLOAD PUSH3 0x461BCD PUSH1 0xE5 SHL DUP2 MSTORE PUSH1 0x4 ADD PUSH2 0xF7C SWAP1 PUSH2 0x5B03 JUMP JUMPDEST PUSH1 0x1 PUSH1 0x1 PUSH1 0xA0 SHL SUB DUP5 AND EXTCODESIZE ISZERO PUSH2 0x1F58 JUMPI PUSH1 0x40 MLOAD PUSH4 0xBC197C81 PUSH1 0xE0 SHL DUP2 MSTORE PUSH1 0x1 PUSH1 0x1 PUSH1 0xA0 SHL SUB DUP6 AND SWAP1 PUSH4 0xBC197C81 SWAP1 PUSH2 0x49FD SWAP1 DUP10 SWAP1 DUP10 SWAP1 DUP9 SWAP1 DUP9 SWAP1 DUP9 SWAP1 PUSH1 0x4 ADD PUSH2 0x5B4B JUMP JUMPDEST PUSH1 0x20 PUSH1 0x40 MLOAD DUP1 DUP4 SUB DUP2 PUSH1 0x0 DUP8 GAS CALL SWAP3 POP POP POP DUP1 ISZERO PUSH2 0x4A38 JUMPI POP PUSH1 0x40 DUP1 MLOAD PUSH1 0x1F RETURNDATASIZE SWAP1 DUP2 ADD PUSH1 0x1F NOT AND DUP3 ADD SWAP1 SWAP3 MSTORE PUSH2 0x4A35 SWAP2 DUP2 ADD SWAP1 PUSH2 0x5A41 JUMP JUMPDEST PUSH1 0x1 JUMPDEST PUSH2 0x4A44 JUMPI PUSH2 0x48E8 PUSH2 0x5A5E JUMP JUMPDEST PUSH1 0x1 PUSH1 0x1 PUSH1 0xE0 SHL SUB NOT DUP2 AND PUSH4 0xBC197C81 PUSH1 0xE0 SHL EQ PUSH2 0x45C7 JUMPI PUSH1 0x40 MLOAD PUSH3 0x461BCD PUSH1 0xE5 SHL DUP2 MSTORE PUSH1 0x4 ADD PUSH2 0xF7C SWAP1 PUSH2 0x5B03 JUMP JUMPDEST PUSH1 0x0 DUP1 DUP1 DUP4 DUP2 PUSH3 0x253D8C PUSH2 0x4A8B DUP4 PUSH3 0x10BD9 PUSH2 0x5936 JUMP JUMPDEST PUSH2 0x4A95 SWAP2 SWAP1 PUSH2 0x5936 JUMP JUMPDEST SWAP1 POP PUSH1 0x0 PUSH3 0x23AB1 PUSH2 0x4AA8 DUP4 PUSH1 0x4 PUSH2 0x5977 JUMP JUMPDEST PUSH2 0x4AB2 SWAP2 SWAP1 PUSH2 0x5908 JUMP JUMPDEST SWAP1 POP PUSH1 0x4 PUSH2 0x4AC3 DUP3 PUSH3 0x23AB1 PUSH2 0x5977 JUMP JUMPDEST PUSH2 0x4ACE SWAP1 PUSH1 0x3 PUSH2 0x5936 JUMP JUMPDEST PUSH2 0x4AD8 SWAP2 SWAP1 PUSH2 0x5908 JUMP JUMPDEST PUSH2 0x4AE2 SWAP1 DUP4 PUSH2 0x58C9 JUMP JUMPDEST SWAP2 POP PUSH1 0x0 PUSH3 0x164B09 PUSH2 0x4AF5 DUP5 PUSH1 0x1 PUSH2 0x5936 JUMP JUMPDEST PUSH2 0x4B01 SWAP1 PUSH2 0xFA0 PUSH2 0x5977 JUMP JUMPDEST PUSH2 0x4B0B SWAP2 SWAP1 PUSH2 0x5908 JUMP JUMPDEST SWAP1 POP PUSH1 0x4 PUSH2 0x4B1B DUP3 PUSH2 0x5B5 PUSH2 0x5977 JUMP JUMPDEST PUSH2 0x4B25 SWAP2 SWAP1 PUSH2 0x5908 JUMP JUMPDEST PUSH2 0x4B2F SWAP1 DUP5 PUSH2 0x58C9 JUMP JUMPDEST PUSH2 0x4B3A SWAP1 PUSH1 0x1F PUSH2 0x5936 JUMP JUMPDEST SWAP3 POP PUSH1 0x0 PUSH2 0x98F PUSH2 0x4B4C DUP6 PUSH1 0x50 PUSH2 0x5977 JUMP JUMPDEST PUSH2 0x4B56 SWAP2 SWAP1 PUSH2 0x5908 JUMP JUMPDEST SWAP1 POP PUSH1 0x0 PUSH1 0x50 PUSH2 0x4B68 DUP4 PUSH2 0x98F PUSH2 0x5977 JUMP JUMPDEST PUSH2 0x4B72 SWAP2 SWAP1 PUSH2 0x5908 JUMP JUMPDEST PUSH2 0x4B7C SWAP1 DUP7 PUSH2 0x58C9 JUMP JUMPDEST SWAP1 POP PUSH2 0x4B89 PUSH1 0xB DUP4 PUSH2 0x5908 JUMP JUMPDEST SWAP5 POP PUSH2 0x4B96 DUP6 PUSH1 0xC PUSH2 0x5977 JUMP JUMPDEST PUSH2 0x4BA1 DUP4 PUSH1 0x2 PUSH2 0x5936 JUMP JUMPDEST PUSH2 0x4BAB SWAP2 SWAP1 PUSH2 0x58C9 JUMP JUMPDEST SWAP2 POP DUP5 DUP4 PUSH2 0x4BBA PUSH1 0x31 DUP8 PUSH2 0x58C9 JUMP JUMPDEST PUSH2 0x4BC5 SWAP1 PUSH1 0x64 PUSH2 0x5977 JUMP JUMPDEST PUSH2 0x4BCF SWAP2 SWAP1 PUSH2 0x5936 JUMP JUMPDEST PUSH2 0x4BD9 SWAP2 SWAP1 PUSH2 0x5936 JUMP JUMPDEST SWAP11 SWAP2 SWAP10 POP SWAP8 POP SWAP6 POP POP POP POP POP POP JUMP JUMPDEST PUSH1 0x40 MLOAD DUP1 PUSH1 0xA0 ADD PUSH1 0x40 MSTORE DUP1 PUSH1 0x5 SWAP1 PUSH1 0x20 DUP3 MUL DUP1 CALLDATASIZE DUP4 CALLDATACOPY POP SWAP2 SWAP3 SWAP2 POP POP JUMP JUMPDEST DUP3 DUP1 SLOAD PUSH2 0x4C12 SWAP1 PUSH2 0x5651 JUMP JUMPDEST SWAP1 PUSH1 0x0 MSTORE PUSH1 0x20 PUSH1 0x0 KECCAK256 SWAP1 PUSH1 0x1F ADD PUSH1 0x20 SWAP1 DIV DUP2 ADD SWAP3 DUP3 PUSH2 0x4C34 JUMPI PUSH1 0x0 DUP6 SSTORE PUSH2 0x4C7A JUMP JUMPDEST DUP3 PUSH1 0x1F LT PUSH2 0x4C4D JUMPI DUP1 MLOAD PUSH1 0xFF NOT AND DUP4 DUP1 ADD OR DUP6 SSTORE PUSH2 0x4C7A JUMP JUMPDEST DUP3 DUP1 ADD PUSH1 0x1 ADD DUP6 SSTORE DUP3 ISZERO PUSH2 0x4C7A JUMPI SWAP2 DUP3 ADD JUMPDEST DUP3 DUP2 GT ISZERO PUSH2 0x4C7A JUMPI DUP3 MLOAD DUP3 SSTORE SWAP2 PUSH1 0x20 ADD SWAP2 SWAP1 PUSH1 0x1 ADD SWAP1 PUSH2 0x4C5F JUMP JUMPDEST POP PUSH2 0x4C86 SWAP3 SWAP2 POP PUSH2 0x4CDF JUMP JUMPDEST POP SWAP1 JUMP JUMPDEST DUP3 DUP1 SLOAD DUP3 DUP3 SSTORE SWAP1 PUSH1 0x0 MSTORE PUSH1 0x20 PUSH1 0x0 KECCAK256 SWAP1 DUP2 ADD SWAP3 DUP3 ISZERO PUSH2 0x4C7A JUMPI SWAP2 PUSH1 0x20 MUL DUP3 ADD JUMPDEST DUP3 DUP2 GT ISZERO PUSH2 0x4C7A JUMPI DUP3 MLOAD DUP3 SLOAD PUSH1 0x1 PUSH1 0x1 PUSH1 0xA0 SHL SUB NOT AND PUSH1 0x1 PUSH1 0x1 PUSH1 0xA0 SHL SUB SWAP1 SWAP2 AND OR DUP3 SSTORE PUSH1 0x20 SWAP1 SWAP3 ADD SWAP2 PUSH1 0x1 SWAP1 SWAP2 ADD SWAP1 PUSH2 0x4CAA JUMP JUMPDEST JUMPDEST DUP1 DUP3 GT ISZERO PUSH2 0x4C86 JUMPI PUSH1 0x0 DUP2 SSTORE PUSH1 0x1 ADD PUSH2 0x4CE0 JUMP JUMPDEST PUSH4 0x4E487B71 PUSH1 0xE0 SHL PUSH1 0x0 MSTORE PUSH1 0x32 PUSH1 0x4 MSTORE PUSH1 0x24 PUSH1 0x0 REVERT JUMPDEST PUSH4 0x4E487B71 PUSH1 0xE0 SHL PUSH1 0x0 MSTORE PUSH1 0x11 PUSH1 0x4 MSTORE PUSH1 0x24 PUSH1 0x0 REVERT JUMPDEST PUSH1 0x0 DUP3 NOT DUP3 GT ISZERO PUSH2 0x4D33 JUMPI PUSH2 0x4D33 PUSH2 0x4D0A JUMP JUMPDEST POP ADD SWAP1 JUMP JUMPDEST DUP1 CALLDATALOAD PUSH1 0x1 PUSH1 0x1 PUSH1 0xA0 SHL SUB DUP2 AND DUP2 EQ PUSH2 0x4D4F JUMPI PUSH1 0x0 DUP1 REVERT JUMPDEST SWAP2 SWAP1 POP JUMP JUMPDEST PUSH1 0x0 DUP1 PUSH1 0x40 DUP4 DUP6 SUB SLT ISZERO PUSH2 0x4D67 JUMPI PUSH1 0x0 DUP1 REVERT JUMPDEST PUSH2 0x4D70 DUP4 PUSH2 0x4D38 JUMP JUMPDEST SWAP5 PUSH1 0x20 SWAP4 SWAP1 SWAP4 ADD CALLDATALOAD SWAP4 POP POP POP JUMP JUMPDEST PUSH1 0x1 PUSH1 0x1 PUSH1 0xE0 SHL SUB NOT DUP2 AND DUP2 EQ PUSH2 0x348A JUMPI PUSH1 0x0 DUP1 REVERT JUMPDEST PUSH1 0x0 PUSH1 0x20 DUP3 DUP5 SUB SLT ISZERO PUSH2 0x4DA6 JUMPI PUSH1 0x0 DUP1 REVERT JUMPDEST DUP2 CALLDATALOAD PUSH2 0x22CF DUP2 PUSH2 0x4D7E JUMP JUMPDEST PUSH1 0x0 DUP1 PUSH1 0x0 PUSH1 0x60 DUP5 DUP7 SUB SLT ISZERO PUSH2 0x4DC6 JUMPI PUSH1 0x0 DUP1 REVERT JUMPDEST POP POP DUP2 CALLDATALOAD SWAP4 PUSH1 0x20 DUP4 ADD CALLDATALOAD SWAP4 POP PUSH1 0x40 SWAP1 SWAP3 ADD CALLDATALOAD SWAP2 SWAP1 POP JUMP JUMPDEST PUSH1 0x0 JUMPDEST DUP4 DUP2 LT ISZERO PUSH2 0x4DF8 JUMPI DUP2 DUP2 ADD MLOAD DUP4 DUP3 ADD MSTORE PUSH1 0x20 ADD PUSH2 0x4DE0 JUMP JUMPDEST DUP4 DUP2 GT ISZERO PUSH2 0x418A JUMPI POP POP PUSH1 0x0 SWAP2 ADD MSTORE JUMP JUMPDEST PUSH1 0x0 DUP2 MLOAD DUP1 DUP5 MSTORE PUSH2 0x4E21 DUP2 PUSH1 0x20 DUP7 ADD PUSH1 0x20 DUP7 ADD PUSH2 0x4DDD JUMP JUMPDEST PUSH1 0x1F ADD PUSH1 0x1F NOT AND SWAP3 SWAP1 SWAP3 ADD PUSH1 0x20 ADD SWAP3 SWAP2 POP POP JUMP JUMPDEST PUSH1 0x20 DUP2 MSTORE PUSH1 0x0 PUSH2 0x22CF PUSH1 0x20 DUP4 ADD DUP5 PUSH2 0x4E09 JUMP JUMPDEST PUSH1 0x0 PUSH1 0x20 DUP3 DUP5 SUB SLT ISZERO PUSH2 0x4E5A JUMPI PUSH1 0x0 DUP1 REVERT JUMPDEST POP CALLDATALOAD SWAP2 SWAP1 POP JUMP JUMPDEST PUSH1 0x0 PUSH1 0x20 DUP3 DUP5 SUB SLT ISZERO PUSH2 0x4E73 JUMPI PUSH1 0x0 DUP1 REVERT JUMPDEST PUSH2 0x22CF DUP3 PUSH2 0x4D38 JUMP JUMPDEST PUSH1 0x0 DUP2 MLOAD DUP1 DUP5 MSTORE PUSH1 0x20 DUP1 DUP6 ADD SWAP5 POP DUP1 DUP5 ADD PUSH1 0x0 JUMPDEST DUP4 DUP2 LT ISZERO PUSH2 0x4EAC JUMPI DUP2 MLOAD DUP8 MSTORE SWAP6 DUP3 ADD SWAP6 SWAP1 DUP3 ADD SWAP1 PUSH1 0x1 ADD PUSH2 0x4E90 JUMP JUMPDEST POP SWAP5 SWAP6 SWAP5 POP POP POP POP POP JUMP JUMPDEST PUSH1 0x0 DUP2 MLOAD DUP1 DUP5 MSTORE PUSH1 0x20 DUP1 DUP6 ADD SWAP5 POP DUP1 DUP5 ADD PUSH1 0x0 JUMPDEST DUP4 DUP2 LT ISZERO PUSH2 0x4EAC JUMPI DUP2 MLOAD PUSH1 0x1 PUSH1 0x1 PUSH1 0xA0 SHL SUB AND DUP8 MSTORE SWAP6 DUP3 ADD SWAP6 SWAP1 DUP3 ADD SWAP1 PUSH1 0x1 ADD PUSH2 0x4ECB JUMP JUMPDEST PUSH1 0x40 DUP2 MSTORE PUSH1 0x0 PUSH2 0x4F03 PUSH1 0x40 DUP4 ADD DUP6 PUSH2 0x4E7C JUMP JUMPDEST DUP3 DUP2 SUB PUSH1 0x20 DUP5 ADD MSTORE PUSH2 0x4F15 DUP2 DUP6 PUSH2 0x4EB7 JUMP JUMPDEST SWAP6 SWAP5 POP POP POP POP POP JUMP JUMPDEST PUSH1 0x0 DUP1 PUSH1 0x0 DUP1 PUSH1 0x80 DUP6 DUP8 SUB SLT ISZERO PUSH2 0x4F34 JUMPI PUSH1 0x0 DUP1 REVERT JUMPDEST DUP5 CALLDATALOAD SWAP4 POP PUSH1 0x20 DUP6 ADD CALLDATALOAD SWAP3 POP PUSH1 0x40 DUP6 ADD CALLDATALOAD SWAP2 POP PUSH2 0x4F52 PUSH1 0x60 DUP7 ADD PUSH2 0x4D38 JUMP JUMPDEST SWAP1 POP SWAP3 SWAP6 SWAP2 SWAP5 POP SWAP3 POP JUMP JUMPDEST PUSH4 0x4E487B71 PUSH1 0xE0 SHL PUSH1 0x0 MSTORE PUSH1 0x41 PUSH1 0x4 MSTORE PUSH1 0x24 PUSH1 0x0 REVERT JUMPDEST PUSH1 0x1F DUP3 ADD PUSH1 0x1F NOT AND DUP2 ADD PUSH1 0x1 PUSH1 0x1 PUSH1 0x40 SHL SUB DUP2 GT DUP3 DUP3 LT OR ISZERO PUSH2 0x4F98 JUMPI PUSH2 0x4F98 PUSH2 0x4F5D JUMP JUMPDEST PUSH1 0x40 MSTORE POP POP JUMP JUMPDEST PUSH1 0x0 PUSH1 0x1 PUSH1 0x1 PUSH1 0x40 SHL SUB DUP3 GT ISZERO PUSH2 0x4FB8 JUMPI PUSH2 0x4FB8 PUSH2 0x4F5D JUMP JUMPDEST POP PUSH1 0x5 SHL PUSH1 0x20 ADD SWAP1 JUMP JUMPDEST PUSH1 0x0 DUP3 PUSH1 0x1F DUP4 ADD SLT PUSH2 0x4FD3 JUMPI PUSH1 0x0 DUP1 REVERT JUMPDEST DUP2 CALLDATALOAD PUSH1 0x20 PUSH2 0x4FE0 DUP3 PUSH2 0x4F9F JUMP JUMPDEST PUSH1 0x40 MLOAD PUSH2 0x4FED DUP3 DUP3 PUSH2 0x4F73 JUMP JUMPDEST DUP4 DUP2 MSTORE PUSH1 0x5 SWAP4 SWAP1 SWAP4 SHL DUP6 ADD DUP3 ADD SWAP3 DUP3 DUP2 ADD SWAP2 POP DUP7 DUP5 GT ISZERO PUSH2 0x500D JUMPI PUSH1 0x0 DUP1 REVERT JUMPDEST DUP3 DUP7 ADD JUMPDEST DUP5 DUP2 LT ISZERO PUSH2 0x5028 JUMPI DUP1 CALLDATALOAD DUP4 MSTORE SWAP2 DUP4 ADD SWAP2 DUP4 ADD PUSH2 0x5011 JUMP JUMPDEST POP SWAP7 SWAP6 POP POP POP POP POP POP JUMP JUMPDEST PUSH1 0x0 DUP3 PUSH1 0x1F DUP4 ADD SLT PUSH2 0x5044 JUMPI PUSH1 0x0 DUP1 REVERT JUMPDEST DUP2 CALLDATALOAD PUSH1 0x1 PUSH1 0x1 PUSH1 0x40 SHL SUB DUP2 GT ISZERO PUSH2 0x505D JUMPI PUSH2 0x505D PUSH2 0x4F5D JUMP JUMPDEST PUSH1 0x40 MLOAD PUSH2 0x5074 PUSH1 0x1F DUP4 ADD PUSH1 0x1F NOT AND PUSH1 0x20 ADD DUP3 PUSH2 0x4F73 JUMP JUMPDEST DUP2 DUP2 MSTORE DUP5 PUSH1 0x20 DUP4 DUP7 ADD ADD GT ISZERO PUSH2 0x5089 JUMPI PUSH1 0x0 DUP1 REVERT JUMPDEST DUP2 PUSH1 0x20 DUP6 ADD PUSH1 0x20 DUP4 ADD CALLDATACOPY PUSH1 0x0 SWAP2 DUP2 ADD PUSH1 0x20 ADD SWAP2 SWAP1 SWAP2 MSTORE SWAP4 SWAP3 POP POP POP JUMP JUMPDEST PUSH1 0x0 DUP1 PUSH1 0x0 DUP1 PUSH1 0x0 PUSH1 0xA0 DUP7 DUP9 SUB SLT ISZERO PUSH2 0x50BE JUMPI PUSH1 0x0 DUP1 REVERT JUMPDEST PUSH2 0x50C7 DUP7 PUSH2 0x4D38 JUMP JUMPDEST SWAP5 POP PUSH2 0x50D5 PUSH1 0x20 DUP8 ADD PUSH2 0x4D38 JUMP JUMPDEST SWAP4 POP PUSH1 0x40 DUP7 ADD CALLDATALOAD PUSH1 0x1 PUSH1 0x1 PUSH1 0x40 SHL SUB DUP1 DUP3 GT ISZERO PUSH2 0x50F1 JUMPI PUSH1 0x0 DUP1 REVERT JUMPDEST PUSH2 0x50FD DUP10 DUP4 DUP11 ADD PUSH2 0x4FC2 JUMP JUMPDEST SWAP5 POP PUSH1 0x60 DUP9 ADD CALLDATALOAD SWAP2 POP DUP1 DUP3 GT ISZERO PUSH2 0x5113 JUMPI PUSH1 0x0 DUP1 REVERT JUMPDEST PUSH2 0x511F DUP10 DUP4 DUP11 ADD PUSH2 0x4FC2 JUMP JUMPDEST SWAP4 POP PUSH1 0x80 DUP9 ADD CALLDATALOAD SWAP2 POP DUP1 DUP3 GT ISZERO PUSH2 0x5135 JUMPI PUSH1 0x0 DUP1 REVERT JUMPDEST POP PUSH2 0x5142 DUP9 DUP3 DUP10 ADD PUSH2 0x5033 JUMP JUMPDEST SWAP2 POP POP SWAP3 SWAP6 POP SWAP3 SWAP6 SWAP1 SWAP4 POP JUMP JUMPDEST DUP1 CALLDATALOAD PUSH1 0x5 DUP2 LT PUSH2 0x4D4F JUMPI PUSH1 0x0 DUP1 REVERT JUMPDEST PUSH1 0x0 DUP1 PUSH1 0x40 DUP4 DUP6 SUB SLT ISZERO PUSH2 0x5171 JUMPI PUSH1 0x0 DUP1 REVERT JUMPDEST DUP3 CALLDATALOAD SWAP2 POP PUSH2 0x5181 PUSH1 0x20 DUP5 ADD PUSH2 0x514F JUMP JUMPDEST SWAP1 POP SWAP3 POP SWAP3 SWAP1 POP JUMP JUMPDEST PUSH1 0x0 DUP1 PUSH1 0x40 DUP4 DUP6 SUB SLT ISZERO PUSH2 0x519D JUMPI PUSH1 0x0 DUP1 REVERT JUMPDEST POP POP DUP1 CALLDATALOAD SWAP3 PUSH1 0x20 SWAP1 SWAP2 ADD CALLDATALOAD SWAP2 POP JUMP JUMPDEST PUSH4 0x4E487B71 PUSH1 0xE0 SHL PUSH1 0x0 MSTORE PUSH1 0x21 PUSH1 0x4 MSTORE PUSH1 0x24 PUSH1 0x0 REVERT JUMPDEST PUSH1 0x20 DUP2 ADD PUSH1 0x5 DUP4 LT PUSH2 0x51E4 JUMPI PUSH4 0x4E487B71 PUSH1 0xE0 SHL PUSH1 0x0 MSTORE PUSH1 0x21 PUSH1 0x4 MSTORE PUSH1 0x24 PUSH1 0x0 REVERT JUMPDEST SWAP2 SWAP1 MSTORE SWAP1 JUMP JUMPDEST PUSH1 0x0 DUP1 PUSH1 0x40 DUP4 DUP6 SUB SLT ISZERO PUSH2 0x51FD JUMPI PUSH1 0x0 DUP1 REVERT JUMPDEST DUP3 CALLDATALOAD PUSH1 0x1 PUSH1 0x1 PUSH1 0x40 SHL SUB DUP1 DUP3 GT ISZERO PUSH2 0x5214 JUMPI PUSH1 0x0 DUP1 REVERT JUMPDEST DUP2 DUP6 ADD SWAP2 POP DUP6 PUSH1 0x1F DUP4 ADD SLT PUSH2 0x5228 JUMPI PUSH1 0x0 DUP1 REVERT JUMPDEST DUP2 CALLDATALOAD PUSH1 0x20 PUSH2 0x5235 DUP3 PUSH2 0x4F9F JUMP JUMPDEST PUSH1 0x40 MLOAD PUSH2 0x5242 DUP3 DUP3 PUSH2 0x4F73 JUMP JUMPDEST DUP4 DUP2 MSTORE PUSH1 0x5 SWAP4 SWAP1 SWAP4 SHL DUP6 ADD DUP3 ADD SWAP3 DUP3 DUP2 ADD SWAP2 POP DUP10 DUP5 GT ISZERO PUSH2 0x5262 JUMPI PUSH1 0x0 DUP1 REVERT JUMPDEST SWAP5 DUP3 ADD SWAP5 JUMPDEST DUP4 DUP7 LT ISZERO PUSH2 0x5287 JUMPI PUSH2 0x5278 DUP7 PUSH2 0x4D38 JUMP JUMPDEST DUP3 MSTORE SWAP5 DUP3 ADD SWAP5 SWAP1 DUP3 ADD SWAP1 PUSH2 0x5267 JUMP JUMPDEST SWAP7 POP POP DUP7 ADD CALLDATALOAD SWAP3 POP POP DUP1 DUP3 GT ISZERO PUSH2 0x529D JUMPI PUSH1 0x0 DUP1 REVERT JUMPDEST POP PUSH2 0x52AA DUP6 DUP3 DUP7 ADD PUSH2 0x4FC2 JUMP JUMPDEST SWAP2 POP POP SWAP3 POP SWAP3 SWAP1 POP JUMP JUMPDEST PUSH1 0x20 DUP2 MSTORE PUSH1 0x0 PUSH2 0x22CF PUSH1 0x20 DUP4 ADD DUP5 PUSH2 0x4E7C JUMP JUMPDEST PUSH1 0x0 DUP1 PUSH1 0x0 DUP1 PUSH1 0x80 DUP6 DUP8 SUB SLT ISZERO PUSH2 0x52DD JUMPI PUSH1 0x0 DUP1 REVERT JUMPDEST DUP5 CALLDATALOAD PUSH1 0x1 PUSH1 0x1 PUSH1 0x40 SHL SUB DUP1 DUP3 GT ISZERO PUSH2 0x52F4 JUMPI PUSH1 0x0 DUP1 REVERT JUMPDEST PUSH2 0x5300 DUP9 DUP4 DUP10 ADD PUSH2 0x5033 JUMP JUMPDEST SWAP6 POP PUSH1 0x20 DUP8 ADD CALLDATALOAD SWAP2 POP DUP1 DUP3 GT ISZERO PUSH2 0x5316 JUMPI PUSH1 0x0 DUP1 REVERT JUMPDEST PUSH2 0x5322 DUP9 DUP4 DUP10 ADD PUSH2 0x5033 JUMP JUMPDEST SWAP5 POP PUSH1 0x40 DUP8 ADD CALLDATALOAD SWAP2 POP DUP1 DUP3 GT ISZERO PUSH2 0x5338 JUMPI PUSH1 0x0 DUP1 REVERT JUMPDEST PUSH2 0x5344 DUP9 DUP4 DUP10 ADD PUSH2 0x5033 JUMP JUMPDEST SWAP4 POP PUSH1 0x60 DUP8 ADD CALLDATALOAD SWAP2 POP DUP1 DUP3 GT ISZERO PUSH2 0x535A JUMPI PUSH1 0x0 DUP1 REVERT JUMPDEST POP PUSH2 0x5367 DUP8 DUP3 DUP9 ADD PUSH2 0x5033 JUMP JUMPDEST SWAP2 POP POP SWAP3 SWAP6 SWAP2 SWAP5 POP SWAP3 POP JUMP JUMPDEST DUP1 ISZERO ISZERO DUP2 EQ PUSH2 0x348A JUMPI PUSH1 0x0 DUP1 REVERT JUMPDEST PUSH1 0x0 DUP1 PUSH1 0x40 DUP4 DUP6 SUB SLT ISZERO PUSH2 0x5394 JUMPI PUSH1 0x0 DUP1 REVERT JUMPDEST PUSH2 0x539D DUP4 PUSH2 0x4D38 JUMP JUMPDEST SWAP2 POP PUSH1 0x20 DUP4 ADD CALLDATALOAD PUSH2 0x53AD DUP2 PUSH2 0x5373 JUMP JUMPDEST DUP1 SWAP2 POP POP SWAP3 POP SWAP3 SWAP1 POP JUMP JUMPDEST PUSH1 0x0 DUP1 PUSH1 0x0 DUP1 PUSH1 0x0 DUP1 PUSH1 0x0 PUSH1 0xE0 DUP9 DUP11 SUB SLT ISZERO PUSH2 0x53D3 JUMPI PUSH1 0x0 DUP1 REVERT JUMPDEST DUP8 CALLDATALOAD SWAP7 POP PUSH1 0x20 DUP1 DUP10 ADD CALLDATALOAD SWAP7 POP PUSH1 0x40 DUP10 ADD CALLDATALOAD SWAP6 POP PUSH1 0x60 DUP10 ADD CALLDATALOAD SWAP5 POP PUSH1 0x80 DUP10 ADD CALLDATALOAD SWAP4 POP PUSH1 0xA0 DUP10 ADD CALLDATALOAD SWAP3 POP PUSH1 0xC0 DUP10 ADD CALLDATALOAD PUSH1 0x1 PUSH1 0x1 PUSH1 0x40 SHL SUB DUP2 GT ISZERO PUSH2 0x5414 JUMPI PUSH1 0x0 DUP1 REVERT JUMPDEST DUP10 ADD PUSH1 0x1F DUP2 ADD DUP12 SGT PUSH2 0x5425 JUMPI PUSH1 0x0 DUP1 REVERT JUMPDEST DUP1 CALLDATALOAD PUSH2 0x5430 DUP2 PUSH2 0x4F9F JUMP JUMPDEST PUSH1 0x40 MLOAD PUSH2 0x543D DUP3 DUP3 PUSH2 0x4F73 JUMP JUMPDEST DUP3 DUP2 MSTORE PUSH1 0x5 SWAP3 SWAP1 SWAP3 SHL DUP4 ADD DUP5 ADD SWAP2 DUP5 DUP2 ADD SWAP2 POP DUP14 DUP4 GT ISZERO PUSH2 0x545D JUMPI PUSH1 0x0 DUP1 REVERT JUMPDEST SWAP3 DUP5 ADD SWAP3 JUMPDEST DUP3 DUP5 LT ISZERO PUSH2 0x5482 JUMPI PUSH2 0x5473 DUP5 PUSH2 0x514F JUMP JUMPDEST DUP3 MSTORE SWAP3 DUP5 ADD SWAP3 SWAP1 DUP5 ADD SWAP1 PUSH2 0x5462 JUMP JUMPDEST DUP1 SWAP6 POP POP POP POP POP POP SWAP3 SWAP6 SWAP9 SWAP2 SWAP5 SWAP8 POP SWAP3 SWAP6 POP JUMP JUMPDEST PUSH1 0x0 DUP1 PUSH1 0x40 DUP4 DUP6 SUB SLT ISZERO PUSH2 0x54A9 JUMPI PUSH1 0x0 DUP1 REVERT JUMPDEST PUSH2 0x54B2 DUP4 PUSH2 0x4D38 JUMP JUMPDEST SWAP2 POP PUSH2 0x5181 PUSH1 0x20 DUP5 ADD PUSH2 0x4D38 JUMP JUMPDEST PUSH1 0x20 DUP2 MSTORE PUSH1 0x0 PUSH2 0x22CF PUSH1 0x20 DUP4 ADD DUP5 PUSH2 0x4EB7 JUMP JUMPDEST PUSH1 0x0 PUSH1 0x20 DUP3 DUP5 SUB SLT ISZERO PUSH2 0x54E5 JUMPI PUSH1 0x0 DUP1 REVERT JUMPDEST DUP2 CALLDATALOAD PUSH2 0x22CF DUP2 PUSH2 0x5373 JUMP JUMPDEST PUSH1 0x0 DUP1 PUSH1 0x0 DUP1 PUSH1 0x0 PUSH1 0xA0 DUP7 DUP9 SUB SLT ISZERO PUSH2 0x5508 JUMPI PUSH1 0x0 DUP1 REVERT JUMPDEST PUSH2 0x5511 DUP7 PUSH2 0x4D38 JUMP JUMPDEST SWAP5 POP PUSH2 0x551F PUSH1 0x20 DUP8 ADD PUSH2 0x4D38 JUMP JUMPDEST SWAP4 POP PUSH1 0x40 DUP7 ADD CALLDATALOAD SWAP3 POP PUSH1 0x60 DUP7 ADD CALLDATALOAD SWAP2 POP PUSH1 0x80 DUP7 ADD CALLDATALOAD PUSH1 0x1 PUSH1 0x1 PUSH1 0x40 SHL SUB DUP2 GT ISZERO PUSH2 0x5548 JUMPI PUSH1 0x0 DUP1 REVERT JUMPDEST PUSH2 0x5142 DUP9 DUP3 DUP10 ADD PUSH2 0x5033 JUMP JUMPDEST PUSH1 0x0 PUSH1 0x20 DUP3 DUP5 SUB SLT ISZERO PUSH2 0x5566 JUMPI PUSH1 0x0 DUP1 REVERT JUMPDEST DUP2 CALLDATALOAD PUSH1 0x1 PUSH1 0x1 PUSH1 0x40 SHL SUB DUP2 GT ISZERO PUSH2 0x557C JUMPI PUSH1 0x0 DUP1 REVERT JUMPDEST PUSH2 0x100B DUP5 DUP3 DUP6 ADD PUSH2 0x5033 JUMP JUMPDEST PUSH1 0x0 DUP1 PUSH1 0x0 DUP1 PUSH1 0x0 DUP1 PUSH1 0x0 PUSH1 0xE0 DUP9 DUP11 SUB SLT ISZERO PUSH2 0x55A3 JUMPI PUSH1 0x0 DUP1 REVERT JUMPDEST DUP8 CALLDATALOAD SWAP7 POP PUSH1 0x20 DUP9 ADD CALLDATALOAD SWAP6 POP PUSH1 0x40 DUP9 ADD CALLDATALOAD SWAP5 POP PUSH1 0x60 DUP9 ADD CALLDATALOAD PUSH1 0x1 PUSH1 0x1 PUSH1 0x40 SHL SUB DUP1 DUP3 GT ISZERO PUSH2 0x55CF JUMPI PUSH1 0x0 DUP1 REVERT JUMPDEST PUSH2 0x55DB DUP12 DUP4 DUP13 ADD PUSH2 0x5033 JUMP JUMPDEST SWAP6 POP PUSH1 0x80 DUP11 ADD CALLDATALOAD SWAP2 POP DUP1 DUP3 GT ISZERO PUSH2 0x55F1 JUMPI PUSH1 0x0 DUP1 REVERT JUMPDEST PUSH2 0x55FD DUP12 DUP4 DUP13 ADD PUSH2 0x5033 JUMP JUMPDEST SWAP5 POP PUSH1 0xA0 DUP11 ADD CALLDATALOAD SWAP2 POP DUP1 DUP3 GT ISZERO PUSH2 0x5613 JUMPI PUSH1 0x0 DUP1 REVERT JUMPDEST PUSH2 0x561F DUP12 DUP4 DUP13 ADD PUSH2 0x5033 JUMP JUMPDEST SWAP4 POP PUSH1 0xC0 DUP11 ADD CALLDATALOAD SWAP2 POP DUP1 DUP3 GT ISZERO PUSH2 0x5635 JUMPI PUSH1 0x0 DUP1 REVERT JUMPDEST POP PUSH2 0x5642 DUP11 DUP3 DUP12 ADD PUSH2 0x5033 JUMP JUMPDEST SWAP2 POP POP SWAP3 SWAP6 SWAP9 SWAP2 SWAP5 SWAP8 POP SWAP3 SWAP6 POP JUMP JUMPDEST PUSH1 0x1 DUP2 DUP2 SHR SWAP1 DUP3 AND DUP1 PUSH2 0x5665 JUMPI PUSH1 0x7F DUP3 AND SWAP2 POP JUMPDEST PUSH1 0x20 DUP3 LT DUP2 EQ ISZERO PUSH2 0x3055 JUMPI PUSH4 0x4E487B71 PUSH1 0xE0 SHL PUSH1 0x0 MSTORE PUSH1 0x22 PUSH1 0x4 MSTORE PUSH1 0x24 PUSH1 0x0 REVERT JUMPDEST PUSH1 0x0 PUSH1 0x0 NOT DUP3 EQ ISZERO PUSH2 0x569A JUMPI PUSH2 0x569A PUSH2 0x4D0A JUMP JUMPDEST POP PUSH1 0x1 ADD SWAP1 JUMP JUMPDEST PUSH1 0x20 DUP1 DUP3 MSTORE DUP2 DUP2 ADD MSTORE PUSH32 0x4F776E61626C653A2063616C6C6572206973206E6F7420746865206F776E6572 PUSH1 0x40 DUP3 ADD MSTORE PUSH1 0x60 ADD SWAP1 JUMP JUMPDEST PUSH1 0x20 DUP1 DUP3 MSTORE PUSH1 0x10 SWAP1 DUP3 ADD MSTORE PUSH16 0x14185D5CD8589B194E881C185D5CD959 PUSH1 0x82 SHL PUSH1 0x40 DUP3 ADD MSTORE PUSH1 0x60 ADD SWAP1 JUMP JUMPDEST PUSH1 0x0 DUP2 PUSH1 0x0 NOT DIV DUP4 GT DUP3 ISZERO ISZERO AND ISZERO PUSH2 0x571A JUMPI PUSH2 0x571A PUSH2 0x4D0A JUMP JUMPDEST POP MUL SWAP1 JUMP JUMPDEST PUSH4 0x4E487B71 PUSH1 0xE0 SHL PUSH1 0x0 MSTORE PUSH1 0x12 PUSH1 0x4 MSTORE PUSH1 0x24 PUSH1 0x0 REVERT JUMPDEST PUSH1 0x0 DUP3 PUSH2 0x5744 JUMPI PUSH2 0x5744 PUSH2 0x571F JUMP JUMPDEST POP DIV SWAP1 JUMP JUMPDEST PUSH1 0x0 DUP3 DUP3 LT ISZERO PUSH2 0x575B JUMPI PUSH2 0x575B PUSH2 0x4D0A JUMP JUMPDEST POP SUB SWAP1 JUMP JUMPDEST PUSH1 0x20 DUP1 DUP3 MSTORE PUSH1 0x2 SWAP1 DUP3 ADD MSTORE PUSH2 0x6531 PUSH1 0xF0 SHL PUSH1 0x40 DUP3 ADD MSTORE PUSH1 0x60 ADD SWAP1 JUMP JUMPDEST DUP1 MLOAD PUSH10 0xFFFFFFFFFFFFFFFFFFFF DUP2 AND DUP2 EQ PUSH2 0x4D4F JUMPI PUSH1 0x0 DUP1 REVERT JUMPDEST PUSH1 0x0 DUP1 PUSH1 0x0 DUP1 PUSH1 0x0 PUSH1 0xA0 DUP7 DUP9 SUB SLT ISZERO PUSH2 0x57AE JUMPI PUSH1 0x0 DUP1 REVERT JUMPDEST PUSH2 0x57B7 DUP7 PUSH2 0x577C JUMP JUMPDEST SWAP5 POP PUSH1 0x20 DUP7 ADD MLOAD SWAP4 POP PUSH1 0x40 DUP7 ADD MLOAD SWAP3 POP PUSH1 0x60 DUP7 ADD MLOAD SWAP2 POP PUSH2 0x57DA PUSH1 0x80 DUP8 ADD PUSH2 0x577C JUMP JUMPDEST SWAP1 POP SWAP3 SWAP6 POP SWAP3 SWAP6 SWAP1 SWAP4 POP JUMP JUMPDEST PUSH1 0x0 DUP3 PUSH2 0x57F5 JUMPI PUSH2 0x57F5 PUSH2 0x571F JUMP JUMPDEST POP MOD SWAP1 JUMP JUMPDEST PUSH1 0x20 DUP1 DUP3 MSTORE PUSH1 0x2A SWAP1 DUP3 ADD MSTORE PUSH32 0x455243313135353A20696E73756666696369656E742062616C616E636520666F PUSH1 0x40 DUP3 ADD MSTORE PUSH10 0x39103A3930B739B332B9 PUSH1 0xB1 SHL PUSH1 0x60 DUP3 ADD MSTORE PUSH1 0x80 ADD SWAP1 JUMP JUMPDEST PUSH1 0x40 DUP2 MSTORE PUSH1 0x0 PUSH2 0x5857 PUSH1 0x40 DUP4 ADD DUP6 PUSH2 0x4E7C JUMP JUMPDEST DUP3 DUP2 SUB PUSH1 0x20 DUP5 ADD MSTORE PUSH2 0x4F15 DUP2 DUP6 PUSH2 0x4E7C JUMP JUMPDEST PUSH1 0x1 DUP1 PUSH1 0xA0 SHL SUB DUP5 AND DUP2 MSTORE DUP3 PUSH1 0x20 DUP3 ADD MSTORE PUSH1 0x60 PUSH1 0x40 DUP3 ADD MSTORE PUSH1 0x0 PUSH2 0x4F15 PUSH1 0x60 DUP4 ADD DUP5 PUSH2 0x4E09 JUMP JUMPDEST PUSH1 0x0 PUSH1 0x20 DUP3 DUP5 SUB SLT ISZERO PUSH2 0x58A2 JUMPI PUSH1 0x0 DUP1 REVERT JUMPDEST DUP2 MLOAD PUSH2 0x22CF DUP2 PUSH2 0x5373 JUMP JUMPDEST PUSH1 0x0 DUP3 MLOAD PUSH2 0x58BF DUP2 DUP5 PUSH1 0x20 DUP8 ADD PUSH2 0x4DDD JUMP JUMPDEST SWAP2 SWAP1 SWAP2 ADD SWAP3 SWAP2 POP POP JUMP JUMPDEST PUSH1 0x0 DUP1 DUP4 SLT DUP1 ISZERO PUSH1 0x1 PUSH1 0xFF SHL DUP6 ADD DUP5 SLT AND ISZERO PUSH2 0x58E7 JUMPI PUSH2 0x58E7 PUSH2 0x4D0A JUMP JUMPDEST PUSH1 0x1 PUSH1 0x1 PUSH1 0xFF SHL SUB DUP5 ADD DUP4 SGT DUP2 AND ISZERO PUSH2 0x5902 JUMPI PUSH2 0x5902 PUSH2 0x4D0A JUMP JUMPDEST POP POP SUB SWAP1 JUMP JUMPDEST PUSH1 0x0 DUP3 PUSH2 0x5917 JUMPI PUSH2 0x5917 PUSH2 0x571F JUMP JUMPDEST PUSH1 0x1 PUSH1 0xFF SHL DUP3 EQ PUSH1 0x0 NOT DUP5 EQ AND ISZERO PUSH2 0x5931 JUMPI PUSH2 0x5931 PUSH2 0x4D0A JUMP JUMPDEST POP SDIV SWAP1 JUMP JUMPDEST PUSH1 0x0 DUP1 DUP3 SLT DUP1 ISZERO PUSH1 0x1 PUSH1 0x1 PUSH1 0xFF SHL SUB DUP5 SWAP1 SUB DUP6 SGT AND ISZERO PUSH2 0x5958 JUMPI PUSH2 0x5958 PUSH2 0x4D0A JUMP JUMPDEST PUSH1 0x1 PUSH1 0xFF SHL DUP4 SWAP1 SUB DUP5 SLT DUP2 AND ISZERO PUSH2 0x5971 JUMPI PUSH2 0x5971 PUSH2 0x4D0A JUMP JUMPDEST POP POP ADD SWAP1 JUMP JUMPDEST PUSH1 0x0 PUSH1 0x1 PUSH1 0x1 PUSH1 0xFF SHL SUB DUP2 DUP5 SGT DUP3 DUP5 SGT DUP1 DUP3 AND DUP7 DUP5 DIV DUP7 GT AND ISZERO PUSH2 0x599D JUMPI PUSH2 0x599D PUSH2 0x4D0A JUMP JUMPDEST PUSH1 0x1 PUSH1 0xFF SHL PUSH1 0x0 DUP8 SLT DUP3 DUP2 AND DUP8 DUP4 SDIV DUP10 SLT AND ISZERO PUSH2 0x59BC JUMPI PUSH2 0x59BC PUSH2 0x4D0A JUMP JUMPDEST PUSH1 0x0 DUP8 SLT SWAP3 POP DUP8 DUP3 SDIV DUP8 SLT DUP5 DUP5 AND AND ISZERO PUSH2 0x59D8 JUMPI PUSH2 0x59D8 PUSH2 0x4D0A JUMP JUMPDEST DUP8 DUP6 SDIV DUP8 SLT DUP2 DUP5 AND AND ISZERO PUSH2 0x59EE JUMPI PUSH2 0x59EE PUSH2 0x4D0A JUMP JUMPDEST POP POP POP SWAP3 SWAP1 SWAP4 MUL SWAP4 SWAP3 POP POP POP JUMP JUMPDEST PUSH1 0x1 PUSH1 0x1 PUSH1 0xA0 SHL SUB DUP7 DUP2 AND DUP3 MSTORE DUP6 AND PUSH1 0x20 DUP3 ADD MSTORE PUSH1 0x40 DUP2 ADD DUP5 SWAP1 MSTORE PUSH1 0x60 DUP2 ADD DUP4 SWAP1 MSTORE PUSH1 0xA0 PUSH1 0x80 DUP3 ADD DUP2 SWAP1 MSTORE PUSH1 0x0 SWAP1 PUSH2 0x5A36 SWAP1 DUP4 ADD DUP5 PUSH2 0x4E09 JUMP JUMPDEST SWAP8 SWAP7 POP POP POP POP POP POP POP JUMP JUMPDEST PUSH1 0x0 PUSH1 0x20 DUP3 DUP5 SUB SLT ISZERO PUSH2 0x5A53 JUMPI PUSH1 0x0 DUP1 REVERT JUMPDEST DUP2 MLOAD PUSH2 0x22CF DUP2 PUSH2 0x4D7E JUMP JUMPDEST PUSH1 0x0 PUSH1 0x3 RETURNDATASIZE GT ISZERO PUSH2 0x5A77 JUMPI PUSH1 0x4 PUSH1 0x0 DUP1 RETURNDATACOPY POP PUSH1 0x0 MLOAD PUSH1 0xE0 SHR JUMPDEST SWAP1 JUMP JUMPDEST PUSH1 0x0 PUSH1 0x44 RETURNDATASIZE LT ISZERO PUSH2 0x5A88 JUMPI SWAP1 JUMP JUMPDEST PUSH1 0x40 MLOAD PUSH1 0x3 NOT RETURNDATASIZE DUP2 ADD PUSH1 0x4 DUP4 RETURNDATACOPY DUP2 MLOAD RETURNDATASIZE PUSH1 0x1 PUSH1 0x1 PUSH1 0x40 SHL SUB DUP2 PUSH1 0x24 DUP5 ADD GT DUP2 DUP5 GT OR ISZERO PUSH2 0x5AB7 JUMPI POP POP POP POP POP SWAP1 JUMP JUMPDEST DUP3 DUP6 ADD SWAP2 POP DUP2 MLOAD DUP2 DUP2 GT ISZERO PUSH2 0x5ACF JUMPI POP POP POP POP POP POP SWAP1 JUMP JUMPDEST DUP5 RETURNDATASIZE DUP8 ADD ADD PUSH1 0x20 DUP3 DUP6 ADD ADD GT ISZERO PUSH2 0x5AE9 JUMPI POP POP POP POP POP POP SWAP1 JUMP JUMPDEST PUSH2 0x5AF8 PUSH1 0x20 DUP3 DUP7 ADD ADD DUP8 PUSH2 0x4F73 JUMP JUMPDEST POP SWAP1 SWAP6 SWAP5 POP POP POP POP POP JUMP JUMPDEST PUSH1 0x20 DUP1 DUP3 MSTORE PUSH1 0x28 SWAP1 DUP3 ADD MSTORE PUSH32 0x455243313135353A204552433131353552656365697665722072656A65637465 PUSH1 0x40 DUP3 ADD MSTORE PUSH8 0x6420746F6B656E73 PUSH1 0xC0 SHL PUSH1 0x60 DUP3 ADD MSTORE PUSH1 0x80 ADD SWAP1 JUMP JUMPDEST PUSH1 0x1 PUSH1 0x1 PUSH1 0xA0 SHL SUB DUP7 DUP2 AND DUP3 MSTORE DUP6 AND PUSH1 0x20 DUP3 ADD MSTORE PUSH1 0xA0 PUSH1 0x40 DUP3 ADD DUP2 SWAP1 MSTORE PUSH1 0x0 SWAP1 PUSH2 0x5B77 SWAP1 DUP4 ADD DUP7 PUSH2 0x4E7C JUMP JUMPDEST DUP3 DUP2 SUB PUSH1 0x60 DUP5 ADD MSTORE PUSH2 0x5B89 DUP2 DUP7 PUSH2 0x4E7C JUMP JUMPDEST SWAP1 POP DUP3 DUP2 SUB PUSH1 0x80 DUP5 ADD MSTORE PUSH2 0x479E DUP2 DUP6 PUSH2 0x4E09 JUMP INVALID LOG2 PUSH5 0x6970667358 0x22 SLT KECCAK256 SHL 0xC8 0xA9 PUSH1 0x69 BASEFEE DUP14 0xE7 DIV DUP8 0xC6 0x29 0xAF PUSH14 0xEDC8ACD2B1B21F30328C487FD6DC ADDRESS SELFBALANCE CODECOPY PUSH19 0x64736F6C634300080B00330000000000000000 ","sha1":"0ea31e050a94e89431b93d6385e8c16d2d328cc2","source":"// SPDX-License-Identifier: MIT\npragma solidity ^0.8.0;\n\nimport \"./MemorizeThisDay.sol\";\n\ncontract MemorizeThisDayOnBTC is MemorizeThisDay {\n    constructor(\n        address vrfCoordinator,\n        address linkToken,\n        uint256 chainlinkFee,\n        bytes32 keyHash,\n        address priceFeedAddress,\n        address developersAddress,\n        address founderAddress\n    )\n        public\n        MemorizeThisDay(\n            \"Bitcoin\",\n            \"https://memorizethisday.github.io/BTC/{id}.json\",\n            100,\n            vrfCoordinator,\n            linkToken,\n            chainlinkFee,\n            keyHash,\n            priceFeedAddress\n        )\n    {\n        SetStartDate(2015, 1, 5);\n        SetAddress(founderAddress, 0);\n        SetAddress(developersAddress, 1);\n        _airdrop[founderAddress] = 55;\n        Memorize(2015, 1, 5, developersAddress);\n        Memorize(2015, 1, 6, developersAddress);\n        Memorize(2015, 1, 7, developersAddress);\n\n        Memorize(2015, 1, 25, founderAddress);\n        Memorize(2016, 7, 9, founderAddress);\n        Memorize(2016, 1, 1, founderAddress);\n        Memorize(2017, 1, 1, founderAddress);\n        Memorize(2021, 10, 20, founderAddress);\n    }\n}\n","sourcePath":"contracts/MemorizeBTC.sol","type":"contract","deployment":{"address":"0x631D3731138023F39CD3413729A1399CAf3fB8f7","chainid":"4","blockHeight":10560405}}