{"bytecode":"610100604052601060c08190526f68747470733a2f2f697066732e696f2f60801b60e0908152620000349160059190620021e0565b5060006010556000601155600760135560076014553480156200005657600080fd5b50604051620079743803806200797483398101604081905262000079916200229e565b604051806040016040528060078152602001662134ba31b7b4b760c91b8152506040518060600160405280602f815260200162007945602f913960648989898989848488620000c88162000b6f565b506003805460ff19169055620000de3362000b88565b6001600160a01b0391821660a052166080526200010486670de0b6b3a764000062002337565b6010819055601155601a839055601b8290556200012f42600862000be2602090811b6200327b17901c565b6015819055506200014d42600862000be260201b6200327b1760201c565b601655620001744262000163605a600162002359565b62000be260201b6200327b1760201c565b600b556200018a4262000163605a600162002359565b600d558751620001a290600f9060208b0190620021e0565b50601c80546001600160a01b0319908116909155601d805482169055601e8054821690556020805482169055600e80549091166001600160a01b0392909216919091179055506200020495506107df9450600193506005925062000c15915050565b6200020f8162000d34565b6200021a8262000dc6565b6001600160a01b038116600090815260226020526040902060379055620002486107df600160058562000e5c565b6200025a6107df600160068562000e5c565b6200026c6107df600160078562000e5c565b6200027e6107df600160088562000e5c565b620002906107df600160098562000e5c565b620002a26107df6001600a8562000e5c565b620002b46107df6001600b8562000e5c565b620002c66107df6001600c8562000e5c565b620002d86107df6001600d8562000e5c565b620002ea6107df6001600e8562000e5c565b620002fc6107df6001600f8562000e5c565b6200030e6107df600160108562000e5c565b620003206107df600160118562000e5c565b620003326107df600160128562000e5c565b620003446107df600160138562000e5c565b620003566107df600160148562000e5c565b620003686107df600160158562000e5c565b6200037a6107df600160168562000e5c565b6200038c6107df600160178562000e5c565b6200039e6107df600160188562000e5c565b620003b06107df600160198462000e5c565b620003c26107e0600760098462000e5c565b620003d36107e06001808462000e5c565b620003e46107e16001808462000e5c565b620003f66107e5600a60148462000e5c565b6200040181620016bc565b620004276107df6002600173c1064e3662b0718357e9050694a3bfeaabede8ab62000e5c565b6200044c6107df60028073a4a8d44646e2f4c4a74b892303a13c85fb87633862000e5c565b620004726107df6002600373a679c6154b8d4619af9f83f0bf9a13a680e01ecf62000e5c565b620004986107df60026004733becf83939f34311b6bee143197872d877501b1162000e5c565b620004be6107df60026005733aa01cf5e869d88fb4517798db6a95a6ecd2c00162000e5c565b620004e46107df6002600673c438fc7ff0c3cce806c60740818dfd39e88c9b9762000e5c565b6200050a6107df60026007738c2b143b0276bafd2613bb41d7058583cf6706c762000e5c565b620005306107df6002600873b4c27f85d7659e0cf72f479693c564e61472cb5762000e5c565b620005566107df60026009733c6aeff92b4b35c2e1b196b57d0f8ffb56884a1762000e5c565b6200057c6107df6002600a73c6c478f3b11cba17be3aacc601eaf671f6dbe5cc62000e5c565b620005a26107df6002600b7379c91f03590fceba9b42acec18375cb279e0881e62000e5c565b620005c86107df6002600c739451f0ef7a6bbbb6466b69ca19b7944d7bb836fd62000e5c565b620005ee6107df6002600d73d6a984153acb6c9e2d788f08c2465a1358bb89a762000e5c565b620006146107df6002600e730394451c1238cec1e825229e692aa9e428c107d862000e5c565b6200063a6107df6002600f73bea020c3bd417f30de4d6bd05b0ed310ac586cc062000e5c565b620006606107df6002601073ff0bd4aa3496739d5667adc10e2b843dfab5712b62000e5c565b620006866107df60026011737ae352b0c23c63a288b8f40f249b5f72d15b8f8a62000e5c565b620006ac6107df60026012737eb413211a9de1cd2fe8b8bb6055636c43f7d20662000e5c565b620006d26107df6002601373a6d3a33a1c66083859765b9d6e407d095a90819362000e5c565b620006f86107df6002601473544ec526b8a4bb1f6e465f3c8d135d32c7a41db762000e5c565b6200071e6107df6002601573ee81a1bc1034b0906b132c98bed477b896b731da62000e5c565b620007446107df60026016731d00ff1416cf4ed1ceaae24bfddf8e4997bc350762000e5c565b6200076a6107df6002601773f32e4adacf9f005c7324422a4d983a2a22e8426a62000e5c565b620007906107df6002601873c86b12d850fdbbf3260a7baae862f85857aadbba62000e5c565b620007b66107df6002601973a71eb149cf78a5db76dd674b58f5da9ecf117cd662000e5c565b620007dc6107df6002601a73c255bbf72691f6363c7f96e475f48786e62de4c562000e5c565b620008026107df6002601b73e157165eaf27ed493b9eabb5d45416dc78b3e7ed62000e5c565b620008286107df6002601c73ce90a7949bb78892f159f428d0dc23a8e3584d7562000e5c565b6200084e6107df6002601d7372965cdff3545c77a4a21dffdcb651f962015b3a62000e5c565b620008746107df6002601e731f0a3e4892f9c1a80ad4ea6b3c70c874bbc9733d62000e5c565b50506022602052505060017fa774e6933c17830d57d937eee411d49a37eb8310046875f5c3df5faefae9334f8190557f0339cd64495704b261befc560621605f7205587a85b5e367462f392a43268a188190557f238a5e1207816d6aaf00179ef0ef5abacfd324208305f533d0f76bb575ddf9f68190557f68290b1f748b19ff4c48bdd1700c1e5dccc5d868e8744bc09a866ac7a2ee63e98190557f4e3053e9fc937225f11b6f7c491adf635f980a52efb778ca5f966a7f447b3d7b8190557f68200e97bf14c9a789bc61a10fbcaaa2f4f4a4fb6b14b2242b78c846ec3d388e8190557f6ceae6bf2f927bf62c29346d8afca854d5a399653e63207060c016c08fe72c568190557f79c98f4ed8ddac6674802d67d59a8ef2abedda57d1bafae22bbf7765daf45d7f8190557fced238480028b900eea68bbf01bd655b487bec1b57865ad77428a188668b76988190557f6a83e3d931b8227ef5ee5a5b5872bf237435e149189b34f4951c0bf282cbe1cd8190557f6bfb6ef5eaaa55d3df2493e5b95f5376da19b859583d65e33b67bbaa0c6999718190557fb622d41f5d2c56d8dbc99b81039d54ce279af72ee400de6e252450e84fdf40518190557f1f768c977482616fbfa28ea7f85f944a39814deb0f2a6dc9cf53385f83b623278190557fcd7afa8d707c0689ad618418ff699a377283e30ebcb4353105be03913674288e8190557ffde85d86eaa5a949cf0a8a2a7c3fcb3d9be5651ef6ea8b2d667fcafe97bfe5e38190557f2a75e43fba3fc877e452190b59517fafa261d6a16f829c87877a72f65c397b908190557fbbb25e097a78278deeef92aaba3e5ac26f253b9fbd79cfc83f94b347bc372c1e8190557f65bbc30dc7ca12387f1fac7db4554c38ee65c364ea827c7dbd7f957aacae87ec8190557f9aad7e646f06077a284d14260d6083d105352772f0150efee9a0ea2600162fb681905573e89c6bc4f3fc372b685fbb8b16ca2c187c31a3546000527f574325c7eb7bf1bdcafe5e22ee5d1830a358340010142193d650f904e92cc85a5550620027c7915050565b805162000b84906002906020840190620021e0565b5050565b600380546001600160a01b03838116610100818102610100600160a81b031985161790945560405193909204169182907f8be0079c531659141344cd1fd0a4f28419497f9722a3daafe3b4186f6b6457e090600090a35050565b600062000bf3620151808362002337565b62000bff908462002374565b90508281111562000c0f57600080fd5b92915050565b6003546001600160a01b0361010090910416331462000c6a5760405162461bcd60e51b815260206004820181905260248201526000805160206200792583398151915260448201526064015b60405180910390fd5b60035460ff161562000cb25760405162461bcd60e51b815260206004820152601060248201526f14185d5cd8589b194e881c185d5cd95960821b604482015260640162000c61565b600062000ccc8484846200189a60201b620032a31760201c565b905060175460001462000d2c57601754811062000d2c5760405162461bcd60e51b815260206004820152601f60248201527f4f6e6c79206261636b77617264206368616e676520697320616c6c6f77656400604482015260640162000c61565b601755505050565b6003546001600160a01b0361010090910416331462000d855760405162461bcd60e51b8152602060048201819052602482015260008051602062007925833981519152604482015260640162000c61565b602080546001600160a01b039283166001600160a01b0319821681178355921660008181526021909252604080832080549484529083209390935581529055565b6003546001600160a01b0361010090910416331462000e175760405162461bcd60e51b8152602060048201819052602482015260008051602062007925833981519152604482015260640162000c61565b601f80546001600160a01b039283166001600160a01b031982168117909255919091166000818152602160205260408082208054948352908220939093559081529055565b60035460ff161562000ea45760405162461bcd60e51b815260206004820152601060248201526f14185d5cd8589b194e881c185d5cd95960821b604482015260640162000c61565b82158062000eb25750600c83115b1562000f015760405162461bcd60e51b815260206004820152601560248201527f77726f6e67206d6f6e74682073656c656374696f6e0000000000000000000000604482015260640162000c61565b81158062000f0f5750601f82115b1562000f5e5760405162461bcd60e51b815260206004820152601360248201527f77726f6e67206461792073656c656374696f6e00000000000000000000000000604482015260640162000c61565b826004148062000f6e5750826006145b8062000f7a5750826009145b8062000f86575082600b145b801562000f935750601e82115b5082600214801562000fb6575062000fb684620018c160201b620032be1760201c565b801562000fc35750601d82115b5082600214801562000fe8575062000fe684620018c160201b620032be1760201c565b155b801562000ff55750601c82115b506000620010108585856200189a60201b620032a31760201c565b90506200101d8162001905565b620010a35760405162461bcd60e51b815260206004820152604960248201527f54686973206461792043616e206e6f74206265206d696e74206174207468652060448201527f6d6f6d656e742c706c65617365207761697420756e74696c20746865206163746064820152683ab0b636103230bc9760b91b608482015260a40162000c61565b6000818152602360205260409020546001600160a01b0316156200110a5760405162461bcd60e51b815260206004820152601e60248201527f54686973206461792068617320616c7265616479206d656d6f72697a65640000604482015260640162000c61565b6001600160a01b0382166200111d573391505b3360009081526022602052604081205415620011655750336000908152602260205260409020546001906200115490829062002374565b336000908152602260205260409020555b806200157b576200117562001935565b341015620011d45760405162461bcd60e51b815260206004820152602560248201527f4e6f7420656e6f7567682066756e647320746f206d656d6f72697a6520746869604482015264732064617960d81b606482015260840162000c61565b60006064620011e5600a3462002337565b620011f19190620023a4565b602080546001600160a01b03166000908152602190915260409020549091506200121d90829062002359565b602080546001600160a01b031660009081526021909152604081209190915560646200124b600a3462002337565b620012579190620023a4565b601f546001600160a01b03166000908152602160205260409020549091506200128290829062002359565b601f546001600160a01b031660009081526021602052604081209190915580806064620012b160193462002337565b620012bd9190620023a4565b9150819050620012cf83600562002359565b925060006064620012e2600f3462002337565b620012ee9190620023a4565b6001600052602360205260008051602062007905833981519152549091506001600160a01b03166200133d576200132784600362002359565b935062001335818462002359565b92506200139d565b60008051602062007905833981519152546001600160a01b03166000908152602160205260409020546200137390829062002359565b60008051602062007905833981519152546001600160a01b03166000908152602160205260409020555b60006064620013ae60143462002337565b620013ba9190620023a4565b601c549091506001600160a01b0316620013f157620013db85600462002359565b9450620013e9818562002359565b935062001435565b601c546001600160a01b03166000908152602160205260409020546200141990829062002359565b601c546001600160a01b03166000908152602160205260409020555b6000606462001446600a3462002337565b620014529190620023a4565b601d549091506001600160a01b031662001489576200147386600262002359565b955062001481818662002359565b9450620014cd565b601d546001600160a01b0316600090815260216020526040902054620014b190829062002359565b601d546001600160a01b03166000908152602160205260409020555b60006064620014de600a3462002337565b620014ea9190620023a4565b601e549091506001600160a01b031662001521576200150b87600262002359565b965062001519818762002359565b955062001565565b601e546001600160a01b03166000908152602160205260409020546200154990829062002359565b601e546001600160a01b03166000908152602160205260409020555b620015718688620019fb565b5050505050505050505b6200159f838360016040518060200160405280600081525062001bda60201b60201c565b60198054600181019091557f944998273e477b495144fb8794c914197f3ccb46be2900f4698fd0ef743c969501829055600082815260236020526040902080546001600160a01b0319166001600160a01b038516179055426018556200160462001cfd565b80156200165d5760408051878152602081018790529081018590526001600160a01b038416907f3540ba85d6b19a949e65dde1663a6fe1c9939e25e10121183e5738a8583d65cc9060600160405180910390a2620016b4565b6200166762001d11565b60408051878152602081018790529081018590526001600160a01b038416907fa51e9b2ef1f037dee551eb226d6d1581c8fb0e0243820ebd1fbb41a13e6c23649060600160405180910390a25b505050505050565b6001600160a01b038116620016ce5750335b6020546001600160a01b038281169116146200174a57620016ee62001da3565b3410156200174a5760405162461bcd60e51b815260206004820152602260248201527f4e6f7420656e6f7567682066756e647320746f206d696e7420656c6563746f72604482015261185b60f21b606482015260840162000c61565b6001600052602360205260008051602062007905833981519152546001600160a01b031615620017b05760405162461bcd60e51b815260206004820152601060248201526f115b1958dd1bdc985b081b5a5b9d195960821b604482015260640162000c61565b620017d4816001806040518060200160405280600081525062001bda60201b60201c565b6000805160206200790583398151915280546001600160a01b0319166001600160a01b0383811691909117909155602080549091166000908152602190915260409020546200182590349062002359565b602080546001600160a01b0316600090815260219091526040812080549091906200185290849062002359565b90915550506001600160a01b0381166000908152602260205260409020546200187e9060149062002359565b6001600160a01b03909116600090815260226020526040902055565b600062015180620018ad85858562001dc1565b620018b9919062002337565b949350505050565b6000620018d0600483620023bb565b158015620018e95750620018e6606483620023bb565b15155b8062000c0f5750620018fe61019083620023bb565b1592915050565b60004282111580156200191a57506017548210155b156200192857506001919050565b506000919050565b919050565b600080600e60009054906101000a90046001600160a01b03166001600160a01b031663feaf968c6040518163ffffffff1660e01b815260040160a060405180830381865afa1580156200198c573d6000803e3d6000fd5b505050506040513d601f19601f82011682018060405250810190620019b29190620023ea565b5050509150506000816402540be400620019cd919062002337565b905080601154670de0b6b3a7640000620019e8919062002337565b620019f49190620023a4565b9250505090565b600062001a098284620023a4565b905060005b8281101562001bd457601980546000918362001a2c60018462002374565b62001a38919062002374565b8154811062001a4b5762001a4b6200243f565b906000526020600020015462001a629190620023bb565b90508260216000602360006019868154811062001a835762001a836200243f565b600091825260208083209091015483528281019390935260409182018120546001600160a01b0316845291830193909352910190205462001ac5919062002359565b60216000602360006019868154811062001ae35762001ae36200243f565b9060005260206000200154815260200190815260200160002060009054906101000a90046001600160a01b03166001600160a01b03166001600160a01b0316815260200190815260200160002081905550602360006019838154811062001b4e5762001b4e6200243f565b9060005260206000200154815260200190815260200160002060009054906101000a90046001600160a01b03166001600160a01b03167f82f488a506eef1ae41ab6416c21b3c7d45c27ae08a79f01ae6e869347b1e29a08460405162001bb691815260200190565b60405180910390a2508062001bcb8162002455565b91505062001a0e565b50505050565b6001600160a01b03841662001c3c5760405162461bcd60e51b815260206004820152602160248201527f455243313135353a206d696e7420746f20746865207a65726f206164647265736044820152607360f81b606482015260840162000c61565b3362001c628160008762001c508862001f31565b62001c5b8862001f31565b8762001f7f565b6000848152602081815260408083206001600160a01b03891684529091528120805485929062001c9490849062002359565b909155505060408051858152602081018590526001600160a01b0380881692600092918516917fc3d58168c5ae7397731d063d5bbf3d657854427343f4c083240f7aacaa2d0f62910160405180910390a462001cf68160008787878762002004565b5050505050565b6019546103e81162001d0f57601e6013555b565b69152d02c7e14af6800000601154101562001d0f5760195462001d38906105b490620023bb565b62001d515760105462001d4d90600262002337565b6010555b60195462001d639061016d90620023bb565b62001d7e5760105460115462001d7a919062002359565b6011555b69152d02c7e14af6800000601154111562001d0f5769152d02c7e14af6800000601155565b600062001daf62001935565b62001dbc9060b462002337565b905090565b60006107b284101562001dd357600080fd5b838383600062253d8c60046064600c62001def600e8862002473565b62001dfb9190620024b8565b62001e0988611324620024ec565b62001e159190620024ec565b62001e219190620024b8565b62001e2e90600362002533565b62001e3a9190620024b8565b600c8062001e4a600e8862002473565b62001e569190620024b8565b62001e6390600c62002533565b62001e7060028862002473565b62001e7c919062002473565b62001e8a9061016f62002533565b62001e969190620024b8565b6004600c62001ea7600e8962002473565b62001eb39190620024b8565b62001ec1896112c0620024ec565b62001ecd9190620024ec565b62001edb906105b562002533565b62001ee79190620024b8565b62001ef5617d4b8762002473565b62001f019190620024ec565b62001f0d9190620024ec565b62001f19919062002473565b62001f25919062002473565b98975050505050505050565b6040805160018082528183019092526060916000919060208083019080368337019050509050828160008151811062001f6e5762001f6e6200243f565b602090810291909101015292915050565b62001f9a868686868686620016b460201b620018eb1760201c565b60035460ff1615620016b45760405162461bcd60e51b815260206004820152602c60248201527f455243313135355061757361626c653a20746f6b656e207472616e736665722060448201526b1dda1a5b19481c185d5cd95960a21b606482015260840162000c61565b62002023846001600160a01b0316620021da60201b620032fa1760201c565b15620016b45760405163f23a6e6160e01b81526001600160a01b0385169063f23a6e61906200205f908990899088908890889060040162002614565b6020604051808303816000875af19250505080156200209d575060408051601f3d908101601f191682019092526200209a918101906200265b565b60015b6200215e57620020ac6200268e565b806308c379a01415620020ed5750620020c4620026e6565b80620020d15750620020ef565b8060405162461bcd60e51b815260040162000c61919062002775565b505b60405162461bcd60e51b815260206004820152603460248201527f455243313135353a207472616e7366657220746f206e6f6e204552433131353560448201527f526563656976657220696d706c656d656e746572000000000000000000000000606482015260840162000c61565b6001600160e01b0319811663f23a6e6160e01b14620021d15760405162461bcd60e51b815260206004820152602860248201527f455243313135353a204552433131353552656365697665722072656a656374656044820152676420746f6b656e7360c01b606482015260840162000c61565b50505050505050565b3b151590565b828054620021ee906200278a565b90600052602060002090601f0160209004810192826200221257600085556200225d565b82601f106200222d57805160ff19168380011785556200225d565b828001600101855582156200225d579182015b828111156200225d57825182559160200191906001019062002240565b506200226b9291506200226f565b5090565b5b808211156200226b576000815560010162002270565b80516001600160a01b03811681146200193057600080fd5b600080600080600080600060e0888a031215620022ba57600080fd5b620022c58862002286565b9650620022d56020890162002286565b95506040880151945060608801519350620022f36080890162002286565b92506200230360a0890162002286565b91506200231360c0890162002286565b905092959891949750929550565b634e487b7160e01b600052601160045260246000fd5b600081600019048311821515161562002354576200235462002321565b500290565b600082198211156200236f576200236f62002321565b500190565b60008282101562002389576200238962002321565b500390565b634e487b7160e01b600052601260045260246000fd5b600082620023b657620023b66200238e565b500490565b600082620023cd57620023cd6200238e565b500690565b80516001600160501b03811681146200193057600080fd5b600080600080600060a086880312156200240357600080fd5b6200240e86620023d2565b94506020860151935060408601519250606086015191506200243360808701620023d2565b90509295509295909350565b634e487b7160e01b600052603260045260246000fd5b60006000198214156200246c576200246c62002321565b5060010190565b60008083128015600160ff1b85018412161562002494576200249462002321565b6001600160ff1b0384018313811615620024b257620024b262002321565b50500390565b600082620024ca57620024ca6200238e565b600160ff1b821460001984141615620024e757620024e762002321565b500590565b600080821280156001600160ff1b038490038513161562002511576200251162002321565b600160ff1b83900384128116156200252d576200252d62002321565b50500190565b60006001600160ff1b03818413828413808216868404861116156200255c576200255c62002321565b600160ff1b60008712828116878305891216156200257e576200257e62002321565b600087129250878205871284841616156200259d576200259d62002321565b87850587128184161615620025b657620025b662002321565b505050929093029392505050565b6000815180845260005b81811015620025ec57602081850181015186830182015201620025ce565b81811115620025ff576000602083870101525b50601f01601f19169290920160200192915050565b6001600160a01b03868116825285166020820152604081018490526060810183905260a0608082018190526000906200265090830184620025c4565b979650505050505050565b6000602082840312156200266e57600080fd5b81516001600160e01b0319811681146200268757600080fd5b9392505050565b600060033d1115620026a85760046000803e5060005160e01c5b90565b601f8201601f191681016001600160401b0381118282101715620026df57634e487b7160e01b600052604160045260246000fd5b6040525050565b600060443d1015620026f55790565b6040516003193d81016004833e81513d6001600160401b0380831160248401831017156200272557505050505090565b82850191508151818111156200273e5750505050505090565b843d8701016020828501011115620027595750505050505090565b6200276a60208286010187620026ab565b509095945050505050565b602081526000620026876020830184620025c4565b600181811c908216806200279f57607f821691505b60208210811415620027c157634e487b7160e01b600052602260045260246000fd5b50919050565b60805160a051615111620027f4600039600081816125560152613b6a01526000613b3b01526151116000f3fe60806040526004361061047c5760003560e01c806375a3e14611610253578063d22f266a11610143578063ee944ba7116100bb578063f6844b0411610082578063f6844b0414610d46578063f6a33e6d14610d66578063f8a433ec14610d7b578063f9da6a1a14610d90578063fa01b39d14610da5578063ffcb515614610dc557005b8063ee944ba714610cb1578063f21f83d014610cd3578063f242432a14610ce6578063f2fde38b14610d06578063f641510014610d2657005b8063dd2cec7f1161010a578063dd2cec7f14610be7578063e013ee7614610c1d578063e30c60a014610c3d578063e985e9c514610c53578063e9cc3b5414610c9c578063ec3f1a32146105c657005b8063d22f266a14610b71578063d50ac89214610b87578063d6b4c04114610b9d578063d8b4d6e314610bb2578063dbdad46414610bc757005b8063a9665b7a116101d6578063b524cd181161019d578063b524cd1814610adc578063b689af8414610afc578063bbb6e49d146105c6578063bc38cae614610b1c578063bed34bba14610b31578063ceae336e14610b5157005b8063a9665b7a14610a5b578063ab32d59414610a71578063ab39eaaa14610a86578063ac0b78f214610aa6578063ac8daba014610ac657005b806396ff141f1161021a57806396ff141f146105c65780639e6db9d7146109db578063a22cb465146109fb578063a48c629c14610a1b578063a5ee025714610a3b57005b806375a3e1461461094d5780638da5cb5b1461096d57806392b56abb1461099057806393e51b64146109a557806394985ddd146109bb57005b8063494db1a71161036e5780635eae5b30116102f15780636e21fc87116102b85780636e21fc87146108c45780636f78a4f7146108f157806370e44c6a146108f9578063715018a61461090e578063717c2f5f1461092357806371b7ab4c1461093857005b80635eae5b301461082f5780635f97f2bb1461084f57806364dc61391461086f57806364e376b61461088457806365ce6454146108a457005b8063516b466e11610335578063516b466e14610797578063542d44ed146107b757806356f2520d146107d7578063588645f1146107f75780635c975abb1461081757005b8063494db1a7146106ff5780634e1273f4146107145780634e3412b214610741578063503f55811461075757806350a3c8861461077757005b806313887d95116104015780632f4416e9116103c85780632f4416e914610673578063303dd55314610688578063313d3e921461069e578063340d899a146106be5780633cd21817146106d4578063408844ff146106ea57005b806313887d95146105db5780631aa98354146106085780631c8108b11461062b5780632aeca614146106405780632eb2c2d61461065357005b8063080981c411610445578063080981c41461054f57806309fdd5a3146105645780630a6a001c146105795780630e89341c1461059957806310ab09a3146105c657005b8062fdd58e1461047e57806301ffc9a7146104b1578063037a2414146104e15780630387da421461050157806306389ca114610517575b005b34801561048a57600080fd5b5061049e610499366004614394565b610dda565b6040519081526020015b60405180910390f35b3480156104bd57600080fd5b506104d16104cc3660046143d4565b610e74565b60405190151581526020016104a8565b3480156104ed57600080fd5b5061049e6104fc3660046143f1565b610ec4565b34801561050d57600080fd5b5061049e60115481565b34801561052357600080fd5b506105376105323660046143f1565b610ed9565b6040516001600160a01b0390911681526020016104a8565b34801561055b57600080fd5b5061049e601481565b34801561057057600080fd5b5060125461049e565b34801561058557600080fd5b5061049e61059436600461441d565b610f08565b3480156105a557600080fd5b506105b96105b436600461441d565b610f29565b6040516104a8919061448e565b3480156105d257600080fd5b5061049e600a81565b3480156105e757600080fd5b5061049e6105f63660046144a1565b60216020526000908152604090205481565b34801561061457600080fd5b5061061d610fbd565b6040516104a8929190614530565b34801561063757600080fd5b5061047c611128565b61047c61064e36600461455e565b611162565b34801561065f57600080fd5b5061047c61066e3660046146e6565b6118f3565b34801561067f57600080fd5b506105b96119cf565b34801561069457600080fd5b5061049e60155481565b3480156106aa57600080fd5b506104d16106b936600461441d565b611a5d565b3480156106ca57600080fd5b5061049e601a5481565b3480156106e057600080fd5b5061049e60185481565b3480156106f657600080fd5b5061049e611a8b565b34801561070b57600080fd5b506105b9611aa5565b34801561072057600080fd5b5061073461072f36600461478f565b611ab2565b6040516104a89190614859565b34801561074d57600080fd5b5061049e60105481565b34801561076357600080fd5b5061047c61077236600461441d565b611bdb565b34801561078357600080fd5b5061047c6107923660046144a1565b611c33565b3480156107a357600080fd5b5061047c6107b23660046143f1565b611d46565b3480156107c357600080fd5b50601f54610537906001600160a01b031681565b3480156107e357600080fd5b506105b96107f236600461441d565b611e0b565b34801561080357600080fd5b5061047c6108123660046144a1565b611e24565b34801561082357600080fd5b5060035460ff166104d1565b34801561083b57600080fd5b5061047c61084a3660046144a1565b611f37565b34801561085b57600080fd5b5061047c61086a36600461486c565b611fac565b34801561087b57600080fd5b506105b96122ec565b34801561089057600080fd5b50602054610537906001600160a01b031681565b3480156108b057600080fd5b506105376108bf36600461441d565b6122f9565b3480156108d057600080fd5b5061049e6108df3660046144a1565b60226020526000908152604090205481565b61047c612323565b34801561090557600080fd5b5061047c61239a565b34801561091a57600080fd5b5061047c612482565b34801561092f57600080fd5b506105b96124bc565b34801561094457600080fd5b5061049e600f81565b34801561095957600080fd5b5061047c6109683660046144a1565b6124c9565b34801561097957600080fd5b5060035461010090046001600160a01b0316610537565b34801561099c57600080fd5b506105b961253e565b3480156109b157600080fd5b5061049e60165481565b3480156109c757600080fd5b5061047c6109d63660046148bc565b61254b565b3480156109e757600080fd5b50601e54610537906001600160a01b031681565b348015610a0757600080fd5b5061047c610a163660046148ec565b6125cd565b348015610a2757600080fd5b5061047c610a36366004614923565b6125d8565b348015610a4757600080fd5b50601d54610537906001600160a01b031681565b348015610a6757600080fd5b5061049e60145481565b348015610a7d57600080fd5b5060195461049e565b348015610a9257600080fd5b5061047c610aa136600461497c565b6126a1565b348015610ab257600080fd5b506105b9610ac136600461441d565b6126de565b348015610ad257600080fd5b5061049e60175481565b348015610ae857600080fd5b5061047c610af7366004614923565b6126f7565b348015610b0857600080fd5b506105b9610b173660046144a1565b612826565b348015610b2857600080fd5b506105b961283f565b348015610b3d57600080fd5b506104d1610b4c366004614923565b61284c565b348015610b5d57600080fd5b5061047c610b6c36600461497c565b6128a5565b348015610b7d57600080fd5b5061049e600b5481565b348015610b9357600080fd5b5061049e60135481565b348015610ba957600080fd5b506105b96128c5565b348015610bbe57600080fd5b5061049e601981565b348015610bd357600080fd5b5061047c610be23660046144a1565b6128d2565b348015610bf357600080fd5b50610537610c0236600461441d565b6023602052600090815260409020546001600160a01b031681565b348015610c2957600080fd5b5061047c610c383660046144a1565b612a08565b348015610c4957600080fd5b5061049e600d5481565b348015610c5f57600080fd5b506104d1610c6e3660046149b0565b6001600160a01b03918216600090815260016020908152604080832093909416825291909152205460ff1690565b348015610ca857600080fd5b5061047c612a79565b348015610cbd57600080fd5b50610cc6612b6f565b6040516104a891906149e3565b61047c610ce13660046144a1565b612c3b565b348015610cf257600080fd5b5061047c610d013660046149f6565b612e01565b348015610d1257600080fd5b5061047c610d213660046144a1565b612f01565b348015610d3257600080fd5b5061047c610d4136600461497c565b612fa2565b348015610d5257600080fd5b5061047c610d6136600461497c565b612fdf565b348015610d7257600080fd5b5061047c613022565b348015610d8757600080fd5b5061049e613179565b348015610d9c57600080fd5b506105b9613236565b348015610db157600080fd5b50601c54610537906001600160a01b031681565b348015610dd157600080fd5b5061047c613243565b60006001600160a01b038316610e4b5760405162461bcd60e51b815260206004820152602b60248201527f455243313135353a2062616c616e636520717565727920666f7220746865207a60448201526a65726f206164647265737360a81b60648201526084015b60405180910390fd5b506000818152602081815260408083206001600160a01b03861684529091529020545b92915050565b60006001600160e01b03198216636cdb3d1360e11b1480610ea557506001600160e01b031982166303a24d0760e21b145b80610e6e57506301ffc9a760e01b6001600160e01b0319831614610e6e565b6000610ed18484846132a3565b949350505050565b600080610ee78585856132a3565b6000908152602360205260409020546001600160a01b031695945050505050565b60198181548110610f1857600080fd5b600091825260209091200154905081565b606060028054610f3890614a5a565b80601f0160208091040260200160405190810160405280929190818152602001828054610f6490614a5a565b8015610fb15780601f10610f8657610100808354040283529160200191610fb1565b820191906000526020600020905b815481529060010190602001808311610f9457829003601f168201915b50505050509050919050565b60608060006019805490506001600160401b03811115610fdf57610fdf61459d565b604051908082528060200260200182016040528015611008578160200160208202803683370190505b506019549091506000906001600160401b038111156110295761102961459d565b604051908082528060200260200182016040528015611052578160200160208202803683370190505b50905060005b60195481101561111e576019818154811061107557611075614a8f565b906000526020600020015483828151811061109257611092614a8f565b60200260200101818152505060236000601983815481106110b5576110b5614a8f565b9060005260206000200154815260200190815260200160002060009054906101000a90046001600160a01b03168282815181106110f4576110f4614a8f565b6001600160a01b03909216602092830291909101909101528061111681614abb565b915050611058565b5090939092509050565b6003546001600160a01b036101009091041633146111585760405162461bcd60e51b8152600401610e4290614ad6565b611160613300565b565b60035460ff16156111855760405162461bcd60e51b8152600401610e4290614b0b565b8215806111925750600c83115b156111d75760405162461bcd60e51b81526020600482015260156024820152743bb937b7339036b7b73a341039b2b632b1ba34b7b760591b6044820152606401610e42565b8115806111e45750601f82115b156112275760405162461bcd60e51b81526020600482015260136024820152723bb937b733903230bc9039b2b632b1ba34b7b760691b6044820152606401610e42565b82600414806112365750826006145b806112415750826009145b8061124c575082600b145b80156112585750601e82115b5082600214801561126d575061126d846132be565b80156112795750601d82115b50826002148015611290575061128e846132be565b155b801561129c5750601c82115b5060006112aa8585856132a3565b90506112b581611a5d565b6113395760405162461bcd60e51b815260206004820152604960248201527f54686973206461792043616e206e6f74206265206d696e74206174207468652060448201527f6d6f6d656e742c706c65617365207761697420756e74696c20746865206163746064820152683ab0b636103230bc9760b91b608482015260a401610e42565b6000818152602360205260409020546001600160a01b03161561139e5760405162461bcd60e51b815260206004820152601e60248201527f54686973206461792068617320616c7265616479206d656d6f72697a656400006044820152606401610e42565b6001600160a01b0382166113b0573391505b33600090815260226020526040812054156113f55750336000908152602260205260409020546001906113e4908290614b35565b336000908152602260205260409020555b806117bf57611402613179565b34101561145f5760405162461bcd60e51b815260206004820152602560248201527f4e6f7420656e6f7567682066756e647320746f206d656d6f72697a6520746869604482015264732064617960d81b6064820152608401610e42565b6000606461146e600a34614b4c565b6114789190614b81565b602080546001600160a01b03166000908152602190915260409020549091506114a2908290614b95565b602080546001600160a01b031660009081526021909152604081209190915560646114ce600a34614b4c565b6114d89190614b81565b601f546001600160a01b0316600090815260216020526040902054909150611501908290614b95565b601f546001600160a01b03166000908152602160205260408120919091558080606461152e601934614b4c565b6115389190614b81565b9150819050611548836005614b95565b925060006064611559600f34614b4c565b6115639190614b81565b600160005260236020526000805160206150bc833981519152549091506001600160a01b03166115ab57611598846003614b95565b93506115a48184614b95565b9250611607565b6000805160206150bc833981519152546001600160a01b03166000908152602160205260409020546115de908290614b95565b6000805160206150bc833981519152546001600160a01b03166000908152602160205260409020555b60006064611616601434614b4c565b6116209190614b81565b601c549091506001600160a01b03166116515761163e856004614b95565b945061164a8185614b95565b9350611693565b601c546001600160a01b0316600090815260216020526040902054611677908290614b95565b601c546001600160a01b03166000908152602160205260409020555b600060646116a2600a34614b4c565b6116ac9190614b81565b601d549091506001600160a01b03166116dd576116ca866002614b95565b95506116d68186614b95565b945061171f565b601d546001600160a01b0316600090815260216020526040902054611703908290614b95565b601d546001600160a01b03166000908152602160205260409020555b6000606461172e600a34614b4c565b6117389190614b81565b601e549091506001600160a01b031661176957611756876002614b95565b96506117628187614b95565b95506117ab565b601e546001600160a01b031660009081526021602052604090205461178f908290614b95565b601e546001600160a01b03166000908152602160205260409020555b6117b58688613375565b5050505050505050505b6117db8383600160405180602001604052806000815250613539565b60198054600181019091557f944998273e477b495144fb8794c914197f3ccb46be2900f4698fd0ef743c969501829055600082815260236020526040902080546001600160a01b0319166001600160a01b0385161790554260185561183e613649565b80156118955760408051878152602081018790529081018590526001600160a01b038416907f3540ba85d6b19a949e65dde1663a6fe1c9939e25e10121183e5738a8583d65cc9060600160405180910390a26118eb565b61189d61365b565b60408051878152602081018790529081018590526001600160a01b038416907fa51e9b2ef1f037dee551eb226d6d1581c8fb0e0243820ebd1fbb41a13e6c2364906060015b60405180910390a25b505050505050565b6001600160a01b03851633148061190f575061190f8533610c6e565b6119765760405162461bcd60e51b815260206004820152603260248201527f455243313135353a207472616e736665722063616c6c6572206973206e6f74206044820152711bdddb995c881b9bdc88185c1c1c9bdd995960721b6064820152608401610e42565b60405162461bcd60e51b815260206004820152602160248201527f4261746368207472616e73666572206973206e6f7420696d706c656d656e74656044820152601960fa1b6064820152608401610e42565b5050505050565b600c80546119dc90614a5a565b80601f0160208091040260200160405190810160405280929190818152602001828054611a0890614a5a565b8015611a555780601f10611a2a57610100808354040283529160200191611a55565b820191906000526020600020905b815481529060010190602001808311611a3857829003601f168201915b505050505081565b6000428211158015611a7157506017548210155b15611a7e57506001919050565b506000919050565b919050565b6000611a95613179565b611aa09060b4614b4c565b905090565b600880546119dc90614a5a565b60608151835114611b175760405162461bcd60e51b815260206004820152602960248201527f455243313135353a206163636f756e747320616e6420696473206c656e677468604482015268040dad2e6dac2e8c6d60bb1b6064820152608401610e42565b600083516001600160401b03811115611b3257611b3261459d565b604051908082528060200260200182016040528015611b5b578160200160208202803683370190505b50905060005b8451811015611bd357611ba6858281518110611b7f57611b7f614a8f565b6020026020010151858381518110611b9957611b99614a8f565b6020026020010151610dda565b828281518110611bb857611bb8614a8f565b6020908102919091010152611bcc81614abb565b9050611b61565b509392505050565b6003546001600160a01b03610100909104163314611c0b5760405162461bcd60e51b8152600401610e4290614ad6565b60035460ff1615611c2e5760405162461bcd60e51b8152600401610e4290614b0b565b601a55565b600160005260236020526000805160206150bc833981519152546001600160a01b0316331480611c84575060035461010090046001600160a01b03166001600160a01b0316336001600160a01b0316145b611c8d57600080fd5b605a611c9b600b544261382a565b1015611cb95760405162461bcd60e51b8152600401610e4290614bad565b60646032611cc96017544261382a565b611cd39190614b4c565b611cdd9190614b81565b60195410611cfd5760405162461bcd60e51b8152600401610e4290614bdd565b601d80546001600160a01b039283166001600160a01b03198216811790925591909116600081815260216020526040808220805494835290822093909355908152905542600b55565b6003546001600160a01b03610100909104163314611d765760405162461bcd60e51b8152600401610e4290614ad6565b60035460ff1615611d995760405162461bcd60e51b8152600401610e4290614b0b565b6000611da68484846132a3565b9050601754600014611e03576017548110611e035760405162461bcd60e51b815260206004820152601f60248201527f4f6e6c79206261636b77617264206368616e676520697320616c6c6f776564006044820152606401610e42565b601755505050565b602460205260009081526040902080546119dc90614a5a565b600160005260236020526000805160206150bc833981519152546001600160a01b0316331480611e75575060035461010090046001600160a01b03166001600160a01b0316336001600160a01b0316145b611e7e57600080fd5b605a611e8c600d544261382a565b1015611eaa5760405162461bcd60e51b8152600401610e4290614bad565b60646032611eba6017544261382a565b611ec49190614b4c565b611ece9190614b81565b60195410611eee5760405162461bcd60e51b8152600401610e4290614bdd565b601e80546001600160a01b039283166001600160a01b03198216811790925591909116600081815260216020526040808220805494835290822093909355908152905542600d55565b6003546001600160a01b03610100909104163314611f675760405162461bcd60e51b8152600401610e4290614ad6565b601f80546001600160a01b039283166001600160a01b031982168117909255919091166000818152602160205260408082208054948352908220939093559081529055565b6000611fb98686866132a3565b905060ff835111156120185760405162461bcd60e51b815260206004820152602260248201527f796f7572206d656d6f206d75737420626520657175616c2061732061207477696044820152611d1d60f21b6064820152608401610e42565b6000818152602360205260409020546001600160a01b031661207c5760405162461bcd60e51b815260206004820152601f60248201527f546869732064617920646f6573206e6f74206d656d6f72697a656420796574006044820152606401610e42565b6000818152602360205260409020546001600160a01b031633146120e25760405162461bcd60e51b815260206004820152601760248201527f596f7520646f6e607420686176652074686973206461790000000000000000006044820152606401610e42565b61210583604051806040016040528060018152602001600160fd1b81525061284c565b61212a57600081815260246020908152604090912084516121289286019061428f565b505b61214d82604051806040016040528060018152602001600160fd1b81525061284c565b6122b35760408051808201825260008082526020918201528151808301909252835182528084019082015261223c906122376005805461218c90614a5a565b80601f01602080910402602001604051908101604052809291908181526020018280546121b890614a5a565b80156122055780601f106121da57610100808354040283529160200191612205565b820191906000526020600020905b8154815290600101906020018083116121e857829003601f168201915b505050505060408051808201825260008082526020918201528151808301909252825182529182019181019190915290565b613858565b6122925760405162461bcd60e51b815260206004820152602160248201527f616c6c2075726c73206d757374206861766520616c6c6f7765642070726566696044820152600f60fb1b6064820152608401610e42565b600081815260256020908152604090912083516122b19285019061428f565b505b336001600160a01b03167f2d51da4e9aae0a6ee06de087193c53fcc2ada79cd6d25b0d48990840471f0585846040516118e2919061448e565b600980546119dc90614a5a565b6012818154811061230957600080fd5b6000918252602090912001546001600160a01b0316905081565b6003546001600160a01b036101009091041633146123535760405162461bcd60e51b8152600401610e4290614ad6565b3060009081526021602052604080822080549083905590519091339183156108fc0291849190818181858888f19350505050158015612396573d6000803e3d6000fd5b5050565b3360009081526021602052604090205467016345785d8a000011156124135760405162461bcd60e51b815260206004820152602960248201527f596f7520646f6e60742068617665206d696e2062616c616e636520666f7220776044820152681a5d1a191c985dd85b60ba1b6064820152608401610e42565b3360008181526021602052604080822080549083905590519092839290917f2f174ca282119315c59efaf21147aef438581dabdeb498198ae28964373dd8bc9190a3604051339082156108fc029083906000818181858888f19350505050158015612396573d6000803e3d6000fd5b6003546001600160a01b036101009091041633146124b25760405162461bcd60e51b8152600401610e4290614ad6565b611160600061389c565b600580546119dc90614a5a565b6003546001600160a01b036101009091041633146124f95760405162461bcd60e51b8152600401610e4290614ad6565b601c80546001600160a01b039283166001600160a01b031982168117909255919091166000818152602160205260408082208054948352908220939093559081529055565b600f80546119dc90614a5a565b336001600160a01b037f000000000000000000000000000000000000000000000000000000000000000016146125c35760405162461bcd60e51b815260206004820152601f60248201527f4f6e6c7920565246436f6f7264696e61746f722063616e2066756c66696c6c006044820152606401610e42565b61239682826138f6565b612396338383613a56565b601c546001600160a01b031633146126265760405162461bcd60e51b81526020600482015260116024820152701c195c9b5a5cdcda5bdb8819195b9a5959607a1b6044820152606401610e42565b61264982604051806040016040528060018152602001600160fd1b81525061284c565b61266257815161266090600990602085019061428f565b505b61268581604051806040016040528060018152602001600160fd1b81525061284c565b61239657805161269c90600890602084019061428f565b505050565b601e546001600160a01b031633146126cb5760405162461bcd60e51b8152600401610e4290614c56565b805161239690600c90602084019061428f565b602560205260009081526040902080546119dc90614a5a565b600160005260236020526000805160206150bc833981519152546001600160a01b0316331480612748575060035461010090046001600160a01b03166001600160a01b0316336001600160a01b0316145b61275157600080fd5b60326006805461276090614a5a565b905011156127b05760405162461bcd60e51b815260206004820152601a60248201527f506c6561736520696e736572742076616c696420737472696e670000000000006044820152606401610e42565b6127d382604051806040016040528060018152602001600160fd1b81525061284c565b6127ec5781516127ea90600790602085019061428f565b505b61280f81604051806040016040528060018152602001600160fd1b81525061284c565b61239657805161269c90600690602084019061428f565b602660205260009081526040902080546119dc90614a5a565b600a80546119dc90614a5a565b60008160405160200161285f9190614c9a565b60405160208183030381529060405280519060200120836040516020016128869190614c9a565b6040516020818303038152906040528051906020012014905092915050565b33600090815260266020908152604090912082516123969284019061428f565b600780546119dc90614a5a565b600160005260236020526000805160206150bc833981519152546001600160a01b0316331480612923575060035461010090046001600160a01b03166001600160a01b0316336001600160a01b0316145b61292c57600080fd5b60145461293b6016544261382a565b10156129595760405162461bcd60e51b8152600401610e4290614bad565b6001600160a01b038116600090815260226020526040902054156129bf5760405162461bcd60e51b815260206004820181905260248201527f546869732061646472657373206861732061697264726f70207469636b6574736044820152606401610e42565b426016556001600160a01b03811660008181526022602052604080822060019055517fa7ed43b05099870297bdfe95b76a9db44435371840c02583e4a9099b58f3b8bf9190a250565b6003546001600160a01b03610100909104163314612a385760405162461bcd60e51b8152600401610e4290614ad6565b602080546001600160a01b039283166001600160a01b0319821681178355921660008181526021909252604080832080549484529083209390935581529055565b60035460ff1615612a9c5760405162461bcd60e51b8152600401610e4290614b0b565b601354612aab6015544261382a565b1015612ac95760405162461bcd60e51b8152600401610e4290614bad565b601254600110612b1b5760405162461bcd60e51b815260206004820152601d60248201527f7468657265206973206e6f7420656e6f756768207265676973746572730000006044820152606401610e42565b42601555601b54601a54600091612b3191613b37565b90507f41b48bb4a3fa87f36cd1b5550ef4af0e4c2568ea37629540b9209f5509b4a42f81604051612b6491815260200190565b60405180910390a150565b6012546060906000906001600160401b03811115612b8f57612b8f61459d565b604051908082528060200260200182016040528015612bb8578160200160208202803683370190505b50905060005b601254811015612c355760128181548110612bdb57612bdb614a8f565b9060005260206000200160009054906101000a90046001600160a01b0316828281518110612c0b57612c0b614a8f565b6001600160a01b039092166020928302919091019091015280612c2d81614abb565b915050612bbe565b50919050565b6001600160a01b038116612c4c5750335b6020546001600160a01b03828116911614612cc357612c69611a8b565b341015612cc35760405162461bcd60e51b815260206004820152602260248201527f4e6f7420656e6f7567682066756e647320746f206d696e7420656c6563746f72604482015261185b60f21b6064820152608401610e42565b600160005260236020526000805160206150bc833981519152546001600160a01b031615612d265760405162461bcd60e51b815260206004820152601060248201526f115b1958dd1bdc985b081b5a5b9d195960821b6044820152606401610e42565b612d428160018060405180602001604052806000815250613539565b6000805160206150bc83398151915280546001600160a01b0319166001600160a01b038381169190911790915560208054909116600090815260219091526040902054612d90903490614b95565b602080546001600160a01b031660009081526021909152604081208054909190612dbb908490614b95565b90915550506001600160a01b038116600090815260226020526040902054612de590601490614b95565b6001600160a01b03909116600090815260226020526040902055565b6001600160a01b038516331480612e1d5750612e1d8533610c6e565b612e7b5760405162461bcd60e51b815260206004820152602960248201527f455243313135353a2063616c6c6572206973206e6f74206f776e6572206e6f7260448201526808185c1c1c9bdd995960ba1b6064820152608401610e42565b612e888585858585613cb3565b600083815260236020908152604080832080546001600160a01b0319166001600160a01b03898116918217909255908916845260219092528083205491835290912054612ed59190614b95565b6001600160a01b0394851660009081526021602052604080822092909255959094168552505050812055565b6003546001600160a01b03610100909104163314612f315760405162461bcd60e51b8152600401610e4290614ad6565b6001600160a01b038116612f965760405162461bcd60e51b815260206004820152602660248201527f4f776e61626c653a206e6577206f776e657220697320746865207a65726f206160448201526564647265737360d01b6064820152608401610e42565b612f9f8161389c565b50565b601d546001600160a01b03163314612fcc5760405162461bcd60e51b8152600401610e4290614c56565b805161239690600a90602084019061428f565b6003546001600160a01b0361010090910416331461300f5760405162461bcd60e51b8152600401610e4290614ad6565b805161239690600590602084019061428f565b60035460ff16156130455760405162461bcd60e51b8152600401610e4290614b0b565b600160005b6012548110156130a357336001600160a01b03166012828154811061307157613071614a8f565b6000918252602090912001546001600160a01b0316141561309157600091505b8061309b81614abb565b91505061304a565b508061310a5760405162461bcd60e51b815260206004820152603060248201527f596f7520616c72656164792068617665206265656e207265676973746572656460448201526f08199bdc881d1a1a5cc81c195c9a5bd960821b6064820152608401610e42565b6012805460018101825560009182527fbb8a6a4669ba250d26cd7a459eca9d215f8307e33aebe50379bc5a3617ec34440180546001600160a01b0319163390811790915560405190917f8763d150e61c30dc82433d4a2f1d40e27c2f2cc299e99d3429d23a1227659fde91a250565b600080600e60009054906101000a90046001600160a01b03166001600160a01b031663feaf968c6040518163ffffffff1660e01b815260040160a060405180830381865afa1580156131cf573d6000803e3d6000fd5b505050506040513d601f19601f820116820180604052508101906131f39190614cd0565b5050509150506000816402540be40061320c9190614b4c565b905080601154670de0b6b3a76400006132259190614b4c565b61322f9190614b81565b9250505090565b600680546119dc90614a5a565b6003546001600160a01b036101009091041633146132735760405162461bcd60e51b8152600401610e4290614ad6565b611160613e0e565b600061328a6201518083614b4c565b6132949084614b35565b905082811115610e6e57600080fd5b6000620151806132b4858585613e88565b610ed19190614b4c565b60006132cb600483614d20565b1580156132e157506132de606483614d20565b15155b80610e6e57506132f361019083614d20565b1592915050565b3b151590565b60035460ff16156133235760405162461bcd60e51b8152600401610e4290614b0b565b6003805460ff191660011790557f62e78cea01bee320cd4e420270b5ea74000d11b0c9f74754ebdbfc544b05a2586133583390565b6040516001600160a01b03909116815260200160405180910390a1565b60006133818284614b81565b905060005b828110156135335760198054600091836133a1600184614b35565b6133ab9190614b35565b815481106133bb576133bb614a8f565b90600052602060002001546133d09190614d20565b9050826021600060236000601986815481106133ee576133ee614a8f565b600091825260208083209091015483528281019390935260409182018120546001600160a01b0316845291830193909352910190205461342e9190614b95565b60216000602360006019868154811061344957613449614a8f565b9060005260206000200154815260200190815260200160002060009054906101000a90046001600160a01b03166001600160a01b03166001600160a01b031681526020019081526020016000208190555060236000601983815481106134b1576134b1614a8f565b9060005260206000200154815260200190815260200160002060009054906101000a90046001600160a01b03166001600160a01b03167f82f488a506eef1ae41ab6416c21b3c7d45c27ae08a79f01ae6e869347b1e29a08460405161351891815260200190565b60405180910390a2508061352b81614abb565b915050613386565b50505050565b6001600160a01b0384166135995760405162461bcd60e51b815260206004820152602160248201527f455243313135353a206d696e7420746f20746865207a65726f206164647265736044820152607360f81b6064820152608401610e42565b336135b9816000876135aa88613fc5565b6135b388613fc5565b87614010565b6000848152602081815260408083206001600160a01b0389168452909152812080548592906135e9908490614b95565b909155505060408051858152602081018590526001600160a01b0380881692600092918516917fc3d58168c5ae7397731d063d5bbf3d657854427343f4c083240f7aacaa2d0f62910160405180910390a46119c881600087878787614078565b6019546103e81161116057601e601355565b69152d02c7e14af680000060115410156111605760195461367f906105b490614d20565b61369557601054613691906002614b4c565b6010555b6019546136a59061016d90614d20565b6136bd576010546011546136b99190614b95565b6011555b69152d02c7e14af680000060115411156111605769152d02c7e14af6800000601155565b84518110156137c45760008582815181106136fe576136fe614a8f565b60200260200101519050600085838151811061371c5761371c614a8f565b602090810291909101810151600084815280835260408082206001600160a01b038e16835290935291909120549091508181101561376c5760405162461bcd60e51b8152600401610e4290614d34565b6000838152602081815260408083206001600160a01b038e8116855292528083208585039055908b168252812080548492906137a9908490614b95565b92505081905550505050806137bd90614abb565b90506136e1565b50846001600160a01b0316866001600160a01b0316826001600160a01b03167f4a39dc06d4c0dbc64b70af90fd698a233a518aa5d07e595d983b8c0526c8f7fb8787604051613814929190614d7e565b60405180910390a46118eb8187878787876141d4565b60008183111561383957600080fd5b620151806138478484614b35565b6138519190614b81565b9392505050565b80518251600091111561386d57506000610e6e565b81602001518360200151141561388557506001610e6e565b508051602092830151929091015181902091201490565b600380546001600160a01b03838116610100818102610100600160a81b031985161790945560405193909204169182907f8be0079c531659141344cd1fd0a4f28419497f9722a3daafe3b4186f6b6457e090600090a35050565b600081116139465760405162461bcd60e51b815260206004820152601a60248201527f72616e646f6d206e756d626572206973206e6f742076616c69640000000000006044820152606401610e42565b6012546000906139569083614d20565b9050602260006012838154811061396f5761396f614a8f565b60009182526020808320909101546001600160a01b0316835282019290925260400190205461399f906001614b95565b60226000601284815481106139b6576139b6614a8f565b60009182526020808320909101546001600160a01b0316835282019290925260400190205560128054829081106139ef576139ef614a8f565b600091825260209182902001546040518481526001600160a01b03909116917f8dcb1b46b7e05dd96ecd3ae5f7b77b7c6e369f8ced83a2ab24368c4f8e16b8c9910160405180910390a2604080516000815260208101918290525161353391601291614313565b816001600160a01b0316836001600160a01b03161415613aca5760405162461bcd60e51b815260206004820152602960248201527f455243313135353a2073657474696e6720617070726f76616c20737461747573604482015268103337b91039b2b63360b91b6064820152608401610e42565b6001600160a01b03838116600081815260016020908152604080832094871680845294825291829020805460ff191686151590811790915591519182527f17307eab39ab6107e8899845ad3d59bd9653f200f220920489ca2b5937696c31910160405180910390a3505050565b60007f00000000000000000000000000000000000000000000000000000000000000006001600160a01b0316634000aea07f000000000000000000000000000000000000000000000000000000000000000084866000604051602001613ba7929190918252602082015260400190565b6040516020818303038152906040526040518463ffffffff1660e01b8152600401613bd493929190614da3565b6020604051808303816000875af1158015613bf3573d6000803e3d6000fd5b505050506040513d601f19601f82011682018060405250810190613c179190614dca565b50600083815260046020818152604080842054815180840189905280830186905230606082015260808082018390528351808303909101815260a090910190925281519183019190912093879052919052613c73906001614b95565b600085815260046020526040902055610ed18482604080516020808201949094528082019290925280518083038201815260609092019052805191012090565b6001600160a01b038416613d175760405162461bcd60e51b815260206004820152602560248201527f455243313135353a207472616e7366657220746f20746865207a65726f206164604482015264647265737360d81b6064820152608401610e42565b33613d278187876135aa88613fc5565b6000848152602081815260408083206001600160a01b038a16845290915290205483811015613d685760405162461bcd60e51b8152600401610e4290614d34565b6000858152602081815260408083206001600160a01b038b8116855292528083208785039055908816825281208054869290613da5908490614b95565b909155505060408051868152602081018690526001600160a01b03808916928a821692918616917fc3d58168c5ae7397731d063d5bbf3d657854427343f4c083240f7aacaa2d0f62910160405180910390a4613e05828888888888614078565b50505050505050565b60035460ff16613e575760405162461bcd60e51b815260206004820152601460248201527314185d5cd8589b194e881b9bdd081c185d5cd95960621b6044820152606401610e42565b6003805460ff191690557f5db9ee0a495bf2e6ff9c91a7834c1ba4fdd244a5e8aa4e537bd38aeae4b073aa33613358565b60006107b2841015613e9957600080fd5b838383600062253d8c60046064600c613eb3600e88614de7565b613ebd9190614e26565b613ec988611324614e54565b613ed39190614e54565b613edd9190614e26565b613ee8906003614e95565b613ef29190614e26565b600c80613f00600e88614de7565b613f0a9190614e26565b613f1590600c614e95565b613f20600288614de7565b613f2a9190614de7565b613f369061016f614e95565b613f409190614e26565b6004600c613f4f600e89614de7565b613f599190614e26565b613f65896112c0614e54565b613f6f9190614e54565b613f7b906105b5614e95565b613f859190614e26565b613f91617d4b87614de7565b613f9b9190614e54565b613fa59190614e54565b613faf9190614de7565b613fb99190614de7565b98975050505050505050565b60408051600180825281830190925260609160009190602080830190803683370190505090508281600081518110613fff57613fff614a8f565b602090810291909101015292915050565b60035460ff16156118eb5760405162461bcd60e51b815260206004820152602c60248201527f455243313135355061757361626c653a20746f6b656e207472616e736665722060448201526b1dda1a5b19481c185d5cd95960a21b6064820152608401610e42565b6001600160a01b0384163b156118eb5760405163f23a6e6160e01b81526001600160a01b0385169063f23a6e61906140bc9089908990889088908890600401614f1a565b6020604051808303816000875af19250505080156140f7575060408051601f3d908101601f191682019092526140f491810190614f5f565b60015b6141a457614103614f7c565b806308c379a0141561413d5750614118614f98565b80614123575061413f565b8060405162461bcd60e51b8152600401610e42919061448e565b505b60405162461bcd60e51b815260206004820152603460248201527f455243313135353a207472616e7366657220746f206e6f6e20455243313135356044820152732932b1b2b4bb32b91034b6b83632b6b2b73a32b960611b6064820152608401610e42565b6001600160e01b0319811663f23a6e6160e01b14613e055760405162461bcd60e51b8152600401610e4290615021565b6001600160a01b0384163b156118eb5760405163bc197c8160e01b81526001600160a01b0385169063bc197c81906142189089908990889088908890600401615069565b6020604051808303816000875af1925050508015614253575060408051601f3d908101601f1916820190925261425091810190614f5f565b60015b61425f57614103614f7c565b6001600160e01b0319811663bc197c8160e01b14613e055760405162461bcd60e51b8152600401610e4290615021565b82805461429b90614a5a565b90600052602060002090601f0160209004810192826142bd5760008555614303565b82601f106142d657805160ff1916838001178555614303565b82800160010185558215614303579182015b828111156143035782518255916020019190600101906142e8565b5061430f929150614368565b5090565b828054828255906000526020600020908101928215614303579160200282015b8281111561430357825182546001600160a01b0319166001600160a01b03909116178255602090920191600190910190614333565b5b8082111561430f5760008155600101614369565b80356001600160a01b0381168114611a8657600080fd5b600080604083850312156143a757600080fd5b6143b08361437d565b946020939093013593505050565b6001600160e01b031981168114612f9f57600080fd5b6000602082840312156143e657600080fd5b8135613851816143be565b60008060006060848603121561440657600080fd5b505081359360208301359350604090920135919050565b60006020828403121561442f57600080fd5b5035919050565b60005b83811015614451578181015183820152602001614439565b838111156135335750506000910152565b6000815180845261447a816020860160208601614436565b601f01601f19169290920160200192915050565b6020815260006138516020830184614462565b6000602082840312156144b357600080fd5b6138518261437d565b600081518084526020808501945080840160005b838110156144ec578151875295820195908201906001016144d0565b509495945050505050565b600081518084526020808501945080840160005b838110156144ec5781516001600160a01b03168752958201959082019060010161450b565b60408152600061454360408301856144bc565b828103602084015261455581856144f7565b95945050505050565b6000806000806080858703121561457457600080fd5b8435935060208501359250604085013591506145926060860161437d565b905092959194509250565b634e487b7160e01b600052604160045260246000fd5b601f8201601f191681016001600160401b03811182821017156145d8576145d861459d565b6040525050565b60006001600160401b038211156145f8576145f861459d565b5060051b60200190565b600082601f83011261461357600080fd5b81356020614620826145df565b60405161462d82826145b3565b83815260059390931b850182019282810191508684111561464d57600080fd5b8286015b848110156146685780358352918301918301614651565b509695505050505050565b600082601f83011261468457600080fd5b81356001600160401b0381111561469d5761469d61459d565b6040516146b4601f8301601f1916602001826145b3565b8181528460208386010111156146c957600080fd5b816020850160208301376000918101602001919091529392505050565b600080600080600060a086880312156146fe57600080fd5b6147078661437d565b94506147156020870161437d565b935060408601356001600160401b038082111561473157600080fd5b61473d89838a01614602565b9450606088013591508082111561475357600080fd5b61475f89838a01614602565b9350608088013591508082111561477557600080fd5b5061478288828901614673565b9150509295509295909350565b600080604083850312156147a257600080fd5b82356001600160401b03808211156147b957600080fd5b818501915085601f8301126147cd57600080fd5b813560206147da826145df565b6040516147e782826145b3565b83815260059390931b850182019282810191508984111561480757600080fd5b948201945b8386101561482c5761481d8661437d565b8252948201949082019061480c565b9650508601359250508082111561484257600080fd5b5061484f85828601614602565b9150509250929050565b60208152600061385160208301846144bc565b600080600080600060a0868803121561488457600080fd5b85359450602086013593506040860135925060608601356001600160401b03808211156148b057600080fd5b61475f89838a01614673565b600080604083850312156148cf57600080fd5b50508035926020909101359150565b8015158114612f9f57600080fd5b600080604083850312156148ff57600080fd5b6149088361437d565b91506020830135614918816148de565b809150509250929050565b6000806040838503121561493657600080fd5b82356001600160401b038082111561494d57600080fd5b61495986838701614673565b9350602085013591508082111561496f57600080fd5b5061484f85828601614673565b60006020828403121561498e57600080fd5b81356001600160401b038111156149a457600080fd5b610ed184828501614673565b600080604083850312156149c357600080fd5b6149cc8361437d565b91506149da6020840161437d565b90509250929050565b60208152600061385160208301846144f7565b600080600080600060a08688031215614a0e57600080fd5b614a178661437d565b9450614a256020870161437d565b9350604086013592506060860135915060808601356001600160401b03811115614a4e57600080fd5b61478288828901614673565b600181811c90821680614a6e57607f821691505b60208210811415612c3557634e487b7160e01b600052602260045260246000fd5b634e487b7160e01b600052603260045260246000fd5b634e487b7160e01b600052601160045260246000fd5b6000600019821415614acf57614acf614aa5565b5060010190565b6020808252818101527f4f776e61626c653a2063616c6c6572206973206e6f7420746865206f776e6572604082015260600190565b60208082526010908201526f14185d5cd8589b194e881c185d5cd95960821b604082015260600190565b600082821015614b4757614b47614aa5565b500390565b6000816000190483118215151615614b6657614b66614aa5565b500290565b634e487b7160e01b600052601260045260246000fd5b600082614b9057614b90614b6b565b500490565b60008219821115614ba857614ba8614aa5565b500190565b6020808252601690820152751b9bdd08195b9bdd59da081d1a5b59481c185cdcd95960521b604082015260600190565b60208082526053908201527f756e74696c2070657263656e74206f6620746f74616c206d696e74656420646160408201527f797320696e20636f6c6c656374696f6e2069732061626f766520353025206368606082015272185b99d9481a5cc81b9bdd08185b1b1bddd959606a1b608082015260a00190565b60208082526024908201527f596f7520617265206e6f74206f757220636f6d6d756e69747920696e666c75656040820152633731b2b960e11b606082015260800190565b60008251614cac818460208701614436565b9190910192915050565b805169ffffffffffffffffffff81168114611a8657600080fd5b600080600080600060a08688031215614ce857600080fd5b614cf186614cb6565b9450602086015193506040860151925060608601519150614d1460808701614cb6565b90509295509295909350565b600082614d2f57614d2f614b6b565b500690565b6020808252602a908201527f455243313135353a20696e73756666696369656e742062616c616e636520666f60408201526939103a3930b739b332b960b11b606082015260800190565b604081526000614d9160408301856144bc565b828103602084015261455581856144bc565b60018060a01b03841681528260208201526060604082015260006145556060830184614462565b600060208284031215614ddc57600080fd5b8151613851816148de565b60008083128015600160ff1b850184121615614e0557614e05614aa5565b6001600160ff1b0384018313811615614e2057614e20614aa5565b50500390565b600082614e3557614e35614b6b565b600160ff1b821460001984141615614e4f57614e4f614aa5565b500590565b600080821280156001600160ff1b0384900385131615614e7657614e76614aa5565b600160ff1b8390038412811615614e8f57614e8f614aa5565b50500190565b60006001600160ff1b0381841382841380821686840486111615614ebb57614ebb614aa5565b600160ff1b6000871282811687830589121615614eda57614eda614aa5565b60008712925087820587128484161615614ef657614ef6614aa5565b87850587128184161615614f0c57614f0c614aa5565b505050929093029392505050565b6001600160a01b03868116825285166020820152604081018490526060810183905260a060808201819052600090614f5490830184614462565b979650505050505050565b600060208284031215614f7157600080fd5b8151613851816143be565b600060033d1115614f955760046000803e5060005160e01c5b90565b600060443d1015614fa65790565b6040516003193d81016004833e81513d6001600160401b038160248401118184111715614fd557505050505090565b8285019150815181811115614fed5750505050505090565b843d87010160208285010111156150075750505050505090565b615016602082860101876145b3565b509095945050505050565b60208082526028908201527f455243313135353a204552433131353552656365697665722072656a656374656040820152676420746f6b656e7360c01b606082015260800190565b6001600160a01b0386811682528516602082015260a060408201819052600090615095908301866144bc565b82810360608401526150a781866144bc565b90508281036080840152613fb9818561446256feb361aea33a0348d043deace4a562cb920ac10508397ad80f12dfe9a2a063e047a2646970667358221220227a65cb585947601d5d658567e8f080f638d084c4bcfc2320ec791d203106a564736f6c634300080b0033b361aea33a0348d043deace4a562cb920ac10508397ad80f12dfe9a2a063e0474f776e61626c653a2063616c6c6572206973206e6f7420746865206f776e657268747470733a2f2f6d656d6f72697a65746869736461792e6769746875622e696f2f4254432f7b69647d2e6a736f6e","bytecodeSha1":"81e265c0079e42ba5af79b98e2045f9013dd2ac8","type":"contract","abi":[{"inputs":[{"internalType":"address","name":"vrfCoordinator","type":"address"},{"internalType":"address","name":"linkToken","type":"address"},{"internalType":"uint256","name":"chainlinkFee","type":"uint256"},{"internalType":"bytes32","name":"keyHash","type":"bytes32"},{"internalType":"address","name":"priceFeedAddress","type":"address"},{"internalType":"address","name":"developersAddress","type":"address"},{"internalType":"address","name":"founderAddress","type":"address"}],"stateMutability":"nonpayable","type":"constructor","name":"constructor"},{"anonymous":false,"inputs":[{"indexed":false,"internalType":"uint256","name":"year","type":"uint256"},{"indexed":false,"internalType":"uint256","name":"month","type":"uint256"},{"indexed":false,"internalType":"uint256","name":"day","type":"uint256"},{"indexed":true,"internalType":"address","name":"holder","type":"address"}],"name":"AirdropedEvent","type":"event"},{"anonymous":false,"inputs":[{"indexed":true,"internalType":"address","name":"account","type":"address"},{"indexed":true,"internalType":"address","name":"operator","type":"address"},{"indexed":false,"internalType":"bool","name":"approved","type":"bool"}],"name":"ApprovalForAll","type":"event"},{"anonymous":false,"inputs":[{"indexed":true,"internalType":"address","name":"holder","type":"address"},{"indexed":false,"internalType":"uint256","name":"share","type":"uint256"}],"name":"CommunitySelectedForMintPriceShareEvent","type":"event"},{"anonymous":false,"inputs":[{"indexed":true,"internalType":"address","name":"_address","type":"address"}],"name":"ElectoralAirdropEvent","type":"event"},{"anonymous":false,"inputs":[{"indexed":false,"internalType":"uint256","name":"year","type":"uint256"},{"indexed":false,"internalType":"uint256","name":"month","type":"uint256"},{"indexed":false,"internalType":"uint256","name":"day","type":"uint256"},{"indexed":true,"internalType":"address","name":"holder","type":"address"}],"name":"MemorizedEvent","type":"event"},{"anonymous":false,"inputs":[{"indexed":true,"internalType":"address","name":"previousOwner","type":"address"},{"indexed":true,"internalType":"address","name":"newOwner","type":"address"}],"name":"OwnershipTransferred","type":"event"},{"anonymous":false,"inputs":[{"indexed":false,"internalType":"address","name":"account","type":"address"}],"name":"Paused","type":"event"},{"anonymous":false,"inputs":[{"indexed":true,"internalType":"address","name":"_address","type":"address"},{"indexed":false,"internalType":"uint256","name":"randomness","type":"uint256"}],"name":"PeriodicAirdropWinnerSelectedEvent","type":"event"},{"anonymous":false,"inputs":[{"indexed":true,"internalType":"address","name":"_address","type":"address"}],"name":"RegisterForPeriodiclyAirdropEvent","type":"event"},{"anonymous":false,"inputs":[{"indexed":false,"internalType":"bytes32","name":"requestId","type":"bytes32"}],"name":"RequestedRandomnessEvent","type":"event"},{"anonymous":false,"inputs":[{"indexed":true,"internalType":"address","name":"holder","type":"address"},{"indexed":false,"internalType":"string","name":"memo","type":"string"}],"name":"SetMemoEvent","type":"event"},{"anonymous":false,"inputs":[{"indexed":true,"internalType":"address","name":"operator","type":"address"},{"indexed":true,"internalType":"address","name":"from","type":"address"},{"indexed":true,"internalType":"address","name":"to","type":"address"},{"indexed":false,"internalType":"uint256[]","name":"ids","type":"uint256[]"},{"indexed":false,"internalType":"uint256[]","name":"values","type":"uint256[]"}],"name":"TransferBatch","type":"event"},{"anonymous":false,"inputs":[{"indexed":true,"internalType":"address","name":"operator","type":"address"},{"indexed":true,"internalType":"address","name":"from","type":"address"},{"indexed":true,"internalType":"address","name":"to","type":"address"},{"indexed":false,"internalType":"uint256","name":"id","type":"uint256"},{"indexed":false,"internalType":"uint256","name":"value","type":"uint256"}],"name":"TransferSingle","type":"event"},{"anonymous":false,"inputs":[{"indexed":false,"internalType":"string","name":"value","type":"string"},{"indexed":true,"internalType":"uint256","name":"id","type":"uint256"}],"name":"URI","type":"event"},{"anonymous":false,"inputs":[{"indexed":false,"internalType":"address","name":"account","type":"address"}],"name":"Unpaused","type":"event"},{"anonymous":false,"inputs":[{"indexed":true,"internalType":"address","name":"_address","type":"address"},{"indexed":true,"internalType":"uint256","name":"_amount","type":"uint256"}],"name":"WithdrawalEvent","type":"event"},{"stateMutability":"payable","type":"fallback"},{"inputs":[],"name":"AirdropRegisters","outputs":[{"internalType":"address[]","name":"","type":"address[]"}],"stateMutability":"view","type":"function"},{"inputs":[],"name":"COMMUNITY_MINT_SHARE","outputs":[{"internalType":"uint256","name":"","type":"uint256"}],"stateMutability":"view","type":"function"},{"inputs":[],"name":"DEVELOPERS_TEAM_MINT_SHARE","outputs":[{"internalType":"uint256","name":"","type":"uint256"}],"stateMutability":"view","type":"function"},{"inputs":[],"name":"DEVELOPMENT_COMMUNITY_MINT_SHARE","outputs":[{"internalType":"uint256","name":"","type":"uint256"}],"stateMutability":"view","type":"function"},{"inputs":[],"name":"ELECTORAL_MINT_SHARE","outputs":[{"internalType":"uint256","name":"","type":"uint256"}],"stateMutability":"view","type":"function"},{"inputs":[],"name":"FIRST_INFLUENCER_MINT_SHARE","outputs":[{"internalType":"uint256","name":"","type":"uint256"}],"stateMutability":"view","type":"function"},{"inputs":[],"name":"FOUNDER_MINT_SHARE","outputs":[{"internalType":"uint256","name":"","type":"uint256"}],"stateMutability":"view","type":"function"},{"inputs":[],"name":"GetElectoralMintFee","outputs":[{"internalType":"uint256","name":"","type":"uint256"}],"stateMutability":"view","type":"function"},{"inputs":[{"internalType":"uint256","name":"year","type":"uint256"},{"internalType":"uint256","name":"month","type":"uint256"},{"internalType":"uint256","name":"day","type":"uint256"}],"name":"GetHolderOfTheDay","outputs":[{"internalType":"address","name":"","type":"address"}],"stateMutability":"view","type":"function"},{"inputs":[{"internalType":"uint256","name":"year","type":"uint256"},{"internalType":"uint256","name":"month","type":"uint256"},{"internalType":"uint256","name":"day","type":"uint256"}],"name":"GetIdByDate","outputs":[{"internalType":"uint256","name":"","type":"uint256"}],"stateMutability":"view","type":"function"},{"inputs":[],"name":"GetMemorizeFee","outputs":[{"internalType":"uint256","name":"","type":"uint256"}],"stateMutability":"view","type":"function"},{"inputs":[],"name":"GetMintedDaysLength","outputs":[{"internalType":"uint256","name":"","type":"uint256"}],"stateMutability":"view","type":"function"},{"inputs":[],"name":"GetPeriodicAirdropRegistersLength","outputs":[{"internalType":"uint256","name":"","type":"uint256"}],"stateMutability":"view","type":"function"},{"inputs":[{"internalType":"uint256","name":"_dayNumber","type":"uint256"}],"name":"IsDayNumberValidForMinting","outputs":[{"internalType":"bool","name":"","type":"bool"}],"stateMutability":"view","type":"function"},{"inputs":[{"internalType":"uint256","name":"year","type":"uint256"},{"internalType":"uint256","name":"month","type":"uint256"},{"internalType":"uint256","name":"day","type":"uint256"},{"internalType":"address","name":"giftTo","type":"address"}],"name":"Memorize","outputs":[],"stateMutability":"payable","type":"function"},{"inputs":[],"name":"MemorizedDays","outputs":[{"internalType":"uint256[]","name":"","type":"uint256[]"},{"internalType":"address[]","name":"","type":"address[]"}],"stateMutability":"view","type":"function"},{"inputs":[{"internalType":"address","name":"giftTo","type":"address"}],"name":"Mint_Electoral","outputs":[],"stateMutability":"payable","type":"function"},{"inputs":[],"name":"PauseContract","outputs":[],"stateMutability":"nonpayable","type":"function"},{"inputs":[],"name":"RegisterForPeriodiclyAirdrop","outputs":[],"stateMutability":"nonpayable","type":"function"},{"inputs":[],"name":"SECOND_INFLUENCER_MINT_SHARE","outputs":[{"internalType":"uint256","name":"","type":"uint256"}],"stateMutability":"view","type":"function"},{"inputs":[],"name":"SelectPeriodicWinner","outputs":[],"stateMutability":"nonpayable","type":"function"},{"inputs":[{"internalType":"address","name":"targetAirdrop","type":"address"}],"name":"SendAirdrop","outputs":[],"stateMutability":"nonpayable","type":"function"},{"inputs":[{"internalType":"string","name":"aliass","type":"string"}],"name":"SetAlias","outputs":[],"stateMutability":"nonpayable","type":"function"},{"inputs":[{"internalType":"address","name":"addrs","type":"address"}],"name":"SetDeveloperTeamShareAddress","outputs":[],"stateMutability":"nonpayable","type":"function"},{"inputs":[{"internalType":"address","name":"addrs","type":"address"}],"name":"SetDevelopmentCommunityTeamAddress","outputs":[],"stateMutability":"nonpayable","type":"function"},{"inputs":[{"internalType":"address","name":"addrs","type":"address"}],"name":"SetFirstInfluencerAddress","outputs":[],"stateMutability":"nonpayable","type":"function"},{"inputs":[{"internalType":"address","name":"addrs","type":"address"}],"name":"SetFounderAddress","outputs":[],"stateMutability":"nonpayable","type":"function"},{"inputs":[{"internalType":"uint256","name":"year","type":"uint256"},{"internalType":"uint256","name":"month","type":"uint256"},{"internalType":"uint256","name":"day","type":"uint256"},{"internalType":"string","name":"memo","type":"string"},{"internalType":"string","name":"imageMemo","type":"string"}],"name":"SetMemo","outputs":[],"stateMutability":"nonpayable","type":"function"},{"inputs":[{"internalType":"address","name":"addrs","type":"address"}],"name":"SetSecondInfluencerAddress","outputs":[],"stateMutability":"nonpayable","type":"function"},{"inputs":[{"internalType":"string","name":"url","type":"string"}],"name":"SetStartUrl","outputs":[],"stateMutability":"nonpayable","type":"function"},{"inputs":[{"internalType":"uint256","name":"year","type":"uint256"},{"internalType":"uint256","name":"month","type":"uint256"},{"internalType":"uint256","name":"day","type":"uint256"}],"name":"SetStratDate","outputs":[],"stateMutability":"nonpayable","type":"function"},{"inputs":[],"name":"UnPauseContract","outputs":[],"stateMutability":"nonpayable","type":"function"},{"inputs":[{"internalType":"uint256","name":"fee","type":"uint256"}],"name":"UpdateChainlinkFee","outputs":[],"stateMutability":"nonpayable","type":"function"},{"inputs":[{"internalType":"string","name":"link","type":"string"},{"internalType":"string","name":"title","type":"string"}],"name":"UpdateDevCommunity","outputs":[],"stateMutability":"nonpayable","type":"function"},{"inputs":[{"internalType":"string","name":"link","type":"string"},{"internalType":"string","name":"title","type":"string"}],"name":"UpdateElectoral","outputs":[],"stateMutability":"nonpayable","type":"function"},{"inputs":[],"name":"Withdrawal","outputs":[],"stateMutability":"nonpayable","type":"function"},{"inputs":[],"name":"WithdrawalSmartContractFee","outputs":[],"stateMutability":"payable","type":"function"},{"inputs":[],"name":"_UrlStartWith","outputs":[{"internalType":"string","name":"","type":"string"}],"stateMutability":"view","type":"function"},{"inputs":[{"internalType":"address","name":"","type":"address"}],"name":"_airdrop","outputs":[{"internalType":"uint256","name":"","type":"uint256"}],"stateMutability":"view","type":"function"},{"inputs":[],"name":"_airdropPeriodInDays","outputs":[{"internalType":"uint256","name":"","type":"uint256"}],"stateMutability":"view","type":"function"},{"inputs":[{"internalType":"address","name":"","type":"address"}],"name":"_alias","outputs":[{"internalType":"string","name":"","type":"string"}],"stateMutability":"view","type":"function"},{"inputs":[],"name":"_assetName","outputs":[{"internalType":"string","name":"","type":"string"}],"stateMutability":"view","type":"function"},{"inputs":[],"name":"_chainlinkFee","outputs":[{"internalType":"uint256","name":"","type":"uint256"}],"stateMutability":"view","type":"function"},{"inputs":[],"name":"_devCommunityLink","outputs":[{"internalType":"string","name":"","type":"string"}],"stateMutability":"view","type":"function"},{"inputs":[],"name":"_devCommunityTitle","outputs":[{"internalType":"string","name":"","type":"string"}],"stateMutability":"view","type":"function"},{"inputs":[],"name":"_developerTeamShareAddress","outputs":[{"internalType":"address","name":"","type":"address"}],"stateMutability":"view","type":"function"},{"inputs":[],"name":"_developmentCommunityAddress","outputs":[{"internalType":"address","name":"","type":"address"}],"stateMutability":"view","type":"function"},{"inputs":[],"name":"_electoralAirdropPeriodInDays","outputs":[{"internalType":"uint256","name":"","type":"uint256"}],"stateMutability":"view","type":"function"},{"inputs":[],"name":"_electoralLink","outputs":[{"internalType":"string","name":"","type":"string"}],"stateMutability":"view","type":"function"},{"inputs":[],"name":"_electoralTitle","outputs":[{"internalType":"string","name":"","type":"string"}],"stateMutability":"view","type":"function"},{"inputs":[],"name":"_firstInfluencerAddress","outputs":[{"internalType":"address","name":"","type":"address"}],"stateMutability":"view","type":"function"},{"inputs":[],"name":"_firstInfluencerLastChangeDate","outputs":[{"internalType":"uint256","name":"","type":"uint256"}],"stateMutability":"view","type":"function"},{"inputs":[],"name":"_firstInfluencerTwitterAccount","outputs":[{"internalType":"string","name":"","type":"string"}],"stateMutability":"view","type":"function"},{"inputs":[],"name":"_founderShareAddress","outputs":[{"internalType":"address","name":"","type":"address"}],"stateMutability":"view","type":"function"},{"inputs":[{"internalType":"uint256","name":"","type":"uint256"}],"name":"_holders","outputs":[{"internalType":"address","name":"","type":"address"}],"stateMutability":"view","type":"function"},{"inputs":[{"internalType":"uint256","name":"","type":"uint256"}],"name":"_imageMemo","outputs":[{"internalType":"string","name":"","type":"string"}],"stateMutability":"view","type":"function"},{"inputs":[],"name":"_lastAirdropPeriodWinnerSelectDate","outputs":[{"internalType":"uint256","name":"","type":"uint256"}],"stateMutability":"view","type":"function"},{"inputs":[],"name":"_lastElectoralAirdropDate","outputs":[{"internalType":"uint256","name":"","type":"uint256"}],"stateMutability":"view","type":"function"},{"inputs":[],"name":"_lastMemorizeDate","outputs":[{"internalType":"uint256","name":"","type":"uint256"}],"stateMutability":"view","type":"function"},{"inputs":[{"internalType":"uint256","name":"","type":"uint256"}],"name":"_memo","outputs":[{"internalType":"string","name":"","type":"string"}],"stateMutability":"view","type":"function"},{"inputs":[],"name":"_mintPrice","outputs":[{"internalType":"uint256","name":"","type":"uint256"}],"stateMutability":"view","type":"function"},{"inputs":[],"name":"_mintPriceStep","outputs":[{"internalType":"uint256","name":"","type":"uint256"}],"stateMutability":"view","type":"function"},{"inputs":[{"internalType":"uint256","name":"","type":"uint256"}],"name":"_mintedDays","outputs":[{"internalType":"uint256","name":"","type":"uint256"}],"stateMutability":"view","type":"function"},{"inputs":[{"internalType":"uint256","name":"","type":"uint256"}],"name":"_periodicAirdropRegisters","outputs":[{"internalType":"address","name":"","type":"address"}],"stateMutability":"view","type":"function"},{"inputs":[],"name":"_secondInfluencerAddress","outputs":[{"internalType":"address","name":"","type":"address"}],"stateMutability":"view","type":"function"},{"inputs":[],"name":"_secondInfluencerLastChangeDate","outputs":[{"internalType":"uint256","name":"","type":"uint256"}],"stateMutability":"view","type":"function"},{"inputs":[],"name":"_secondInfluencerTwitterAccount","outputs":[{"internalType":"string","name":"","type":"string"}],"stateMutability":"view","type":"function"},{"inputs":[],"name":"_startDate","outputs":[{"internalType":"uint256","name":"","type":"uint256"}],"stateMutability":"view","type":"function"},{"inputs":[{"internalType":"address","name":"","type":"address"}],"name":"_wallet","outputs":[{"internalType":"uint256","name":"","type":"uint256"}],"stateMutability":"view","type":"function"},{"inputs":[{"internalType":"address","name":"account","type":"address"},{"internalType":"uint256","name":"id","type":"uint256"}],"name":"balanceOf","outputs":[{"internalType":"uint256","name":"","type":"uint256"}],"stateMutability":"view","type":"function"},{"inputs":[{"internalType":"address[]","name":"accounts","type":"address[]"},{"internalType":"uint256[]","name":"ids","type":"uint256[]"}],"name":"balanceOfBatch","outputs":[{"internalType":"uint256[]","name":"","type":"uint256[]"}],"stateMutability":"view","type":"function"},{"inputs":[{"internalType":"string","name":"a","type":"string"},{"internalType":"string","name":"b","type":"string"}],"name":"compareStrings","outputs":[{"internalType":"bool","name":"","type":"bool"}],"stateMutability":"view","type":"function"},{"inputs":[{"internalType":"address","name":"account","type":"address"},{"internalType":"address","name":"operator","type":"address"}],"name":"isApprovedForAll","outputs":[{"internalType":"bool","name":"","type":"bool"}],"stateMutability":"view","type":"function"},{"inputs":[],"name":"owner","outputs":[{"internalType":"address","name":"","type":"address"}],"stateMutability":"view","type":"function"},{"inputs":[],"name":"paused","outputs":[{"internalType":"bool","name":"","type":"bool"}],"stateMutability":"view","type":"function"},{"inputs":[{"internalType":"bytes32","name":"requestId","type":"bytes32"},{"internalType":"uint256","name":"randomness","type":"uint256"}],"name":"rawFulfillRandomness","outputs":[],"stateMutability":"nonpayable","type":"function"},{"inputs":[],"name":"renounceOwnership","outputs":[],"stateMutability":"nonpayable","type":"function"},{"inputs":[{"internalType":"address","name":"from","type":"address"},{"internalType":"address","name":"to","type":"address"},{"internalType":"uint256[]","name":"ids","type":"uint256[]"},{"internalType":"uint256[]","name":"amounts","type":"uint256[]"},{"internalType":"bytes","name":"data","type":"bytes"}],"name":"safeBatchTransferFrom","outputs":[],"stateMutability":"nonpayable","type":"function"},{"inputs":[{"internalType":"address","name":"from","type":"address"},{"internalType":"address","name":"to","type":"address"},{"internalType":"uint256","name":"id","type":"uint256"},{"internalType":"uint256","name":"amount","type":"uint256"},{"internalType":"bytes","name":"data","type":"bytes"}],"name":"safeTransferFrom","outputs":[],"stateMutability":"nonpayable","type":"function"},{"inputs":[{"internalType":"address","name":"operator","type":"address"},{"internalType":"bool","name":"approved","type":"bool"}],"name":"setApprovalForAll","outputs":[],"stateMutability":"nonpayable","type":"function"},{"inputs":[{"internalType":"string","name":"accountName","type":"string"}],"name":"setFirstInfluencerTwitter","outputs":[],"stateMutability":"nonpayable","type":"function"},{"inputs":[{"internalType":"string","name":"accountName","type":"string"}],"name":"setSecondInfluencerTwitter","outputs":[],"stateMutability":"nonpayable","type":"function"},{"inputs":[{"internalType":"bytes4","name":"interfaceId","type":"bytes4"}],"name":"supportsInterface","outputs":[{"internalType":"bool","name":"","type":"bool"}],"stateMutability":"view","type":"function"},{"inputs":[{"internalType":"address","name":"newOwner","type":"address"}],"name":"transferOwnership","outputs":[],"stateMutability":"nonpayable","type":"function"},{"inputs":[{"internalType":"uint256","name":"","type":"uint256"}],"name":"uri","outputs":[{"internalType":"string","name":"","type":"string"}],"stateMutability":"view","type":"function"}],"compiler":{"version":"0.8.11+commit.d7f03943","evm_version":"istanbul","optimizer":{"enabled":true,"runs":200}},"contractName":"MemorizeThisDayOnBTC","language":"Solidity","natspec":{"methods":{"balanceOf(address,uint256)":{"details":"See {IERC1155-balanceOf}. Requirements: - `account` cannot be the zero address."},"balanceOfBatch(address[],uint256[])":{"details":"See {IERC1155-balanceOfBatch}. Requirements: - `accounts` and `ids` must have the same length."},"isApprovedForAll(address,address)":{"details":"See {IERC1155-isApprovedForAll}."},"owner()":{"details":"Returns the address of the current owner."},"paused()":{"details":"Returns true if the contract is paused, and false otherwise."},"renounceOwnership()":{"details":"Leaves the contract without owner. It will not be possible to call `onlyOwner` functions anymore. Can only be called by the current owner. NOTE: Renouncing ownership will leave the contract without an owner, thereby removing any functionality that is only available to the owner."},"safeBatchTransferFrom(address,address,uint256[],uint256[],bytes)":{"details":"See {IERC1155-safeBatchTransferFrom}."},"safeTransferFrom(address,address,uint256,uint256,bytes)":{"details":"See {IERC1155-safeTransferFrom}."},"setApprovalForAll(address,bool)":{"details":"See {IERC1155-setApprovalForAll}."},"supportsInterface(bytes4)":{"details":"See {IERC165-supportsInterface}."},"transferOwnership(address)":{"details":"Transfers ownership of the contract to a new account (`newOwner`). Can only be called by the current owner."},"uri(uint256)":{"details":"See {IERC1155MetadataURI-uri}. This implementation returns the same URI for *all* token types. It relies on the token type ID substitution mechanism https://eips.ethereum.org/EIPS/eip-1155#metadata[defined in the EIP]. Clients calling this function must replace the `\\{id\\}` substring with the actual token type ID."}},"kind":"dev","version":1},"opcodes":"PUSH1 0x80 PUSH1 0x40 MSTORE PUSH1 0x4 CALLDATASIZE LT PUSH2 0x47C JUMPI PUSH1 0x0 CALLDATALOAD PUSH1 0xE0 SHR DUP1 PUSH4 0x75A3E146 GT PUSH2 0x253 JUMPI DUP1 PUSH4 0xD22F266A GT PUSH2 0x143 JUMPI DUP1 PUSH4 0xEE944BA7 GT PUSH2 0xBB JUMPI DUP1 PUSH4 0xF6844B04 GT PUSH2 0x82 JUMPI DUP1 PUSH4 0xF6844B04 EQ PUSH2 0xD46 JUMPI DUP1 PUSH4 0xF6A33E6D EQ PUSH2 0xD66 JUMPI DUP1 PUSH4 0xF8A433EC EQ PUSH2 0xD7B JUMPI DUP1 PUSH4 0xF9DA6A1A EQ PUSH2 0xD90 JUMPI DUP1 PUSH4 0xFA01B39D EQ PUSH2 0xDA5 JUMPI DUP1 PUSH4 0xFFCB5156 EQ PUSH2 0xDC5 JUMPI STOP JUMPDEST DUP1 PUSH4 0xEE944BA7 EQ PUSH2 0xCB1 JUMPI DUP1 PUSH4 0xF21F83D0 EQ PUSH2 0xCD3 JUMPI DUP1 PUSH4 0xF242432A EQ PUSH2 0xCE6 JUMPI DUP1 PUSH4 0xF2FDE38B EQ PUSH2 0xD06 JUMPI DUP1 PUSH4 0xF6415100 EQ PUSH2 0xD26 JUMPI STOP JUMPDEST DUP1 PUSH4 0xDD2CEC7F GT PUSH2 0x10A JUMPI DUP1 PUSH4 0xDD2CEC7F EQ PUSH2 0xBE7 JUMPI DUP1 PUSH4 0xE013EE76 EQ PUSH2 0xC1D JUMPI DUP1 PUSH4 0xE30C60A0 EQ PUSH2 0xC3D JUMPI DUP1 PUSH4 0xE985E9C5 EQ PUSH2 0xC53 JUMPI DUP1 PUSH4 0xE9CC3B54 EQ PUSH2 0xC9C JUMPI DUP1 PUSH4 0xEC3F1A32 EQ PUSH2 0x5C6 JUMPI STOP JUMPDEST DUP1 PUSH4 0xD22F266A EQ PUSH2 0xB71 JUMPI DUP1 PUSH4 0xD50AC892 EQ PUSH2 0xB87 JUMPI DUP1 PUSH4 0xD6B4C041 EQ PUSH2 0xB9D JUMPI DUP1 PUSH4 0xD8B4D6E3 EQ PUSH2 0xBB2 JUMPI DUP1 PUSH4 0xDBDAD464 EQ PUSH2 0xBC7 JUMPI STOP JUMPDEST DUP1 PUSH4 0xA9665B7A GT PUSH2 0x1D6 JUMPI DUP1 PUSH4 0xB524CD18 GT PUSH2 0x19D JUMPI DUP1 PUSH4 0xB524CD18 EQ PUSH2 0xADC JUMPI DUP1 PUSH4 0xB689AF84 EQ PUSH2 0xAFC JUMPI DUP1 PUSH4 0xBBB6E49D EQ PUSH2 0x5C6 JUMPI DUP1 PUSH4 0xBC38CAE6 EQ PUSH2 0xB1C JUMPI DUP1 PUSH4 0xBED34BBA EQ PUSH2 0xB31 JUMPI DUP1 PUSH4 0xCEAE336E EQ PUSH2 0xB51 JUMPI STOP JUMPDEST DUP1 PUSH4 0xA9665B7A EQ PUSH2 0xA5B JUMPI DUP1 PUSH4 0xAB32D594 EQ PUSH2 0xA71 JUMPI DUP1 PUSH4 0xAB39EAAA EQ PUSH2 0xA86 JUMPI DUP1 PUSH4 0xAC0B78F2 EQ PUSH2 0xAA6 JUMPI DUP1 PUSH4 0xAC8DABA0 EQ PUSH2 0xAC6 JUMPI STOP JUMPDEST DUP1 PUSH4 0x96FF141F GT PUSH2 0x21A JUMPI DUP1 PUSH4 0x96FF141F EQ PUSH2 0x5C6 JUMPI DUP1 PUSH4 0x9E6DB9D7 EQ PUSH2 0x9DB JUMPI DUP1 PUSH4 0xA22CB465 EQ PUSH2 0x9FB JUMPI DUP1 PUSH4 0xA48C629C EQ PUSH2 0xA1B JUMPI DUP1 PUSH4 0xA5EE0257 EQ PUSH2 0xA3B JUMPI STOP JUMPDEST DUP1 PUSH4 0x75A3E146 EQ PUSH2 0x94D JUMPI DUP1 PUSH4 0x8DA5CB5B EQ PUSH2 0x96D JUMPI DUP1 PUSH4 0x92B56ABB EQ PUSH2 0x990 JUMPI DUP1 PUSH4 0x93E51B64 EQ PUSH2 0x9A5 JUMPI DUP1 PUSH4 0x94985DDD EQ PUSH2 0x9BB JUMPI STOP JUMPDEST DUP1 PUSH4 0x494DB1A7 GT PUSH2 0x36E JUMPI DUP1 PUSH4 0x5EAE5B30 GT PUSH2 0x2F1 JUMPI DUP1 PUSH4 0x6E21FC87 GT PUSH2 0x2B8 JUMPI DUP1 PUSH4 0x6E21FC87 EQ PUSH2 0x8C4 JUMPI DUP1 PUSH4 0x6F78A4F7 EQ PUSH2 0x8F1 JUMPI DUP1 PUSH4 0x70E44C6A EQ PUSH2 0x8F9 JUMPI DUP1 PUSH4 0x715018A6 EQ PUSH2 0x90E JUMPI DUP1 PUSH4 0x717C2F5F EQ PUSH2 0x923 JUMPI DUP1 PUSH4 0x71B7AB4C EQ PUSH2 0x938 JUMPI STOP JUMPDEST DUP1 PUSH4 0x5EAE5B30 EQ PUSH2 0x82F JUMPI DUP1 PUSH4 0x5F97F2BB EQ PUSH2 0x84F JUMPI DUP1 PUSH4 0x64DC6139 EQ PUSH2 0x86F JUMPI DUP1 PUSH4 0x64E376B6 EQ PUSH2 0x884 JUMPI DUP1 PUSH4 0x65CE6454 EQ PUSH2 0x8A4 JUMPI STOP JUMPDEST DUP1 PUSH4 0x516B466E GT PUSH2 0x335 JUMPI DUP1 PUSH4 0x516B466E EQ PUSH2 0x797 JUMPI DUP1 PUSH4 0x542D44ED EQ PUSH2 0x7B7 JUMPI DUP1 PUSH4 0x56F2520D EQ PUSH2 0x7D7 JUMPI DUP1 PUSH4 0x588645F1 EQ PUSH2 0x7F7 JUMPI DUP1 PUSH4 0x5C975ABB EQ PUSH2 0x817 JUMPI STOP JUMPDEST DUP1 PUSH4 0x494DB1A7 EQ PUSH2 0x6FF JUMPI DUP1 PUSH4 0x4E1273F4 EQ PUSH2 0x714 JUMPI DUP1 PUSH4 0x4E3412B2 EQ PUSH2 0x741 JUMPI DUP1 PUSH4 0x503F5581 EQ PUSH2 0x757 JUMPI DUP1 PUSH4 0x50A3C886 EQ PUSH2 0x777 JUMPI STOP JUMPDEST DUP1 PUSH4 0x13887D95 GT PUSH2 0x401 JUMPI DUP1 PUSH4 0x2F4416E9 GT PUSH2 0x3C8 JUMPI DUP1 PUSH4 0x2F4416E9 EQ PUSH2 0x673 JUMPI DUP1 PUSH4 0x303DD553 EQ PUSH2 0x688 JUMPI DUP1 PUSH4 0x313D3E92 EQ PUSH2 0x69E JUMPI DUP1 PUSH4 0x340D899A EQ PUSH2 0x6BE JUMPI DUP1 PUSH4 0x3CD21817 EQ PUSH2 0x6D4 JUMPI DUP1 PUSH4 0x408844FF EQ PUSH2 0x6EA JUMPI STOP JUMPDEST DUP1 PUSH4 0x13887D95 EQ PUSH2 0x5DB JUMPI DUP1 PUSH4 0x1AA98354 EQ PUSH2 0x608 JUMPI DUP1 PUSH4 0x1C8108B1 EQ PUSH2 0x62B JUMPI DUP1 PUSH4 0x2AECA614 EQ PUSH2 0x640 JUMPI DUP1 PUSH4 0x2EB2C2D6 EQ PUSH2 0x653 JUMPI STOP JUMPDEST DUP1 PUSH4 0x80981C4 GT PUSH2 0x445 JUMPI DUP1 PUSH4 0x80981C4 EQ PUSH2 0x54F JUMPI DUP1 PUSH4 0x9FDD5A3 EQ PUSH2 0x564 JUMPI DUP1 PUSH4 0xA6A001C EQ PUSH2 0x579 JUMPI DUP1 PUSH4 0xE89341C EQ PUSH2 0x599 JUMPI DUP1 PUSH4 0x10AB09A3 EQ PUSH2 0x5C6 JUMPI STOP JUMPDEST DUP1 PUSH3 0xFDD58E EQ PUSH2 0x47E JUMPI DUP1 PUSH4 0x1FFC9A7 EQ PUSH2 0x4B1 JUMPI DUP1 PUSH4 0x37A2414 EQ PUSH2 0x4E1 JUMPI DUP1 PUSH4 0x387DA42 EQ PUSH2 0x501 JUMPI DUP1 PUSH4 0x6389CA1 EQ PUSH2 0x517 JUMPI JUMPDEST STOP JUMPDEST CALLVALUE DUP1 ISZERO PUSH2 0x48A JUMPI PUSH1 0x0 DUP1 REVERT JUMPDEST POP PUSH2 0x49E PUSH2 0x499 CALLDATASIZE PUSH1 0x4 PUSH2 0x4394 JUMP JUMPDEST PUSH2 0xDDA JUMP JUMPDEST PUSH1 0x40 MLOAD SWAP1 DUP2 MSTORE PUSH1 0x20 ADD JUMPDEST PUSH1 0x40 MLOAD DUP1 SWAP2 SUB SWAP1 RETURN JUMPDEST CALLVALUE DUP1 ISZERO PUSH2 0x4BD JUMPI PUSH1 0x0 DUP1 REVERT JUMPDEST POP PUSH2 0x4D1 PUSH2 0x4CC CALLDATASIZE PUSH1 0x4 PUSH2 0x43D4 JUMP JUMPDEST PUSH2 0xE74 JUMP JUMPDEST PUSH1 0x40 MLOAD SWAP1 ISZERO ISZERO DUP2 MSTORE PUSH1 0x20 ADD PUSH2 0x4A8 JUMP JUMPDEST CALLVALUE DUP1 ISZERO PUSH2 0x4ED JUMPI PUSH1 0x0 DUP1 REVERT JUMPDEST POP PUSH2 0x49E PUSH2 0x4FC CALLDATASIZE PUSH1 0x4 PUSH2 0x43F1 JUMP JUMPDEST PUSH2 0xEC4 JUMP JUMPDEST CALLVALUE DUP1 ISZERO PUSH2 0x50D JUMPI PUSH1 0x0 DUP1 REVERT JUMPDEST POP PUSH2 0x49E PUSH1 0x11 SLOAD DUP2 JUMP JUMPDEST CALLVALUE DUP1 ISZERO PUSH2 0x523 JUMPI PUSH1 0x0 DUP1 REVERT JUMPDEST POP PUSH2 0x537 PUSH2 0x532 CALLDATASIZE PUSH1 0x4 PUSH2 0x43F1 JUMP JUMPDEST PUSH2 0xED9 JUMP JUMPDEST PUSH1 0x40 MLOAD PUSH1 0x1 PUSH1 0x1 PUSH1 0xA0 SHL SUB SWAP1 SWAP2 AND DUP2 MSTORE PUSH1 0x20 ADD PUSH2 0x4A8 JUMP JUMPDEST CALLVALUE DUP1 ISZERO PUSH2 0x55B JUMPI PUSH1 0x0 DUP1 REVERT JUMPDEST POP PUSH2 0x49E PUSH1 0x14 DUP2 JUMP JUMPDEST CALLVALUE DUP1 ISZERO PUSH2 0x570 JUMPI PUSH1 0x0 DUP1 REVERT JUMPDEST POP PUSH1 0x12 SLOAD PUSH2 0x49E JUMP JUMPDEST CALLVALUE DUP1 ISZERO PUSH2 0x585 JUMPI PUSH1 0x0 DUP1 REVERT JUMPDEST POP PUSH2 0x49E PUSH2 0x594 CALLDATASIZE PUSH1 0x4 PUSH2 0x441D JUMP JUMPDEST PUSH2 0xF08 JUMP JUMPDEST CALLVALUE DUP1 ISZERO PUSH2 0x5A5 JUMPI PUSH1 0x0 DUP1 REVERT JUMPDEST POP PUSH2 0x5B9 PUSH2 0x5B4 CALLDATASIZE PUSH1 0x4 PUSH2 0x441D JUMP JUMPDEST PUSH2 0xF29 JUMP JUMPDEST PUSH1 0x40 MLOAD PUSH2 0x4A8 SWAP2 SWAP1 PUSH2 0x448E JUMP JUMPDEST CALLVALUE DUP1 ISZERO PUSH2 0x5D2 JUMPI PUSH1 0x0 DUP1 REVERT JUMPDEST POP PUSH2 0x49E PUSH1 0xA DUP2 JUMP JUMPDEST CALLVALUE DUP1 ISZERO PUSH2 0x5E7 JUMPI PUSH1 0x0 DUP1 REVERT JUMPDEST POP PUSH2 0x49E PUSH2 0x5F6 CALLDATASIZE PUSH1 0x4 PUSH2 0x44A1 JUMP JUMPDEST PUSH1 0x21 PUSH1 0x20 MSTORE PUSH1 0x0 SWAP1 DUP2 MSTORE PUSH1 0x40 SWAP1 KECCAK256 SLOAD DUP2 JUMP JUMPDEST CALLVALUE DUP1 ISZERO PUSH2 0x614 JUMPI PUSH1 0x0 DUP1 REVERT JUMPDEST POP PUSH2 0x61D PUSH2 0xFBD JUMP JUMPDEST PUSH1 0x40 MLOAD PUSH2 0x4A8 SWAP3 SWAP2 SWAP1 PUSH2 0x4530 JUMP JUMPDEST CALLVALUE DUP1 ISZERO PUSH2 0x637 JUMPI PUSH1 0x0 DUP1 REVERT JUMPDEST POP PUSH2 0x47C PUSH2 0x1128 JUMP JUMPDEST PUSH2 0x47C PUSH2 0x64E CALLDATASIZE PUSH1 0x4 PUSH2 0x455E JUMP JUMPDEST PUSH2 0x1162 JUMP JUMPDEST CALLVALUE DUP1 ISZERO PUSH2 0x65F JUMPI PUSH1 0x0 DUP1 REVERT JUMPDEST POP PUSH2 0x47C PUSH2 0x66E CALLDATASIZE PUSH1 0x4 PUSH2 0x46E6 JUMP JUMPDEST PUSH2 0x18F3 JUMP JUMPDEST CALLVALUE DUP1 ISZERO PUSH2 0x67F JUMPI PUSH1 0x0 DUP1 REVERT JUMPDEST POP PUSH2 0x5B9 PUSH2 0x19CF JUMP JUMPDEST CALLVALUE DUP1 ISZERO PUSH2 0x694 JUMPI PUSH1 0x0 DUP1 REVERT JUMPDEST POP PUSH2 0x49E PUSH1 0x15 SLOAD DUP2 JUMP JUMPDEST CALLVALUE DUP1 ISZERO PUSH2 0x6AA JUMPI PUSH1 0x0 DUP1 REVERT JUMPDEST POP PUSH2 0x4D1 PUSH2 0x6B9 CALLDATASIZE PUSH1 0x4 PUSH2 0x441D JUMP JUMPDEST PUSH2 0x1A5D JUMP JUMPDEST CALLVALUE DUP1 ISZERO PUSH2 0x6CA JUMPI PUSH1 0x0 DUP1 REVERT JUMPDEST POP PUSH2 0x49E PUSH1 0x1A SLOAD DUP2 JUMP JUMPDEST CALLVALUE DUP1 ISZERO PUSH2 0x6E0 JUMPI PUSH1 0x0 DUP1 REVERT JUMPDEST POP PUSH2 0x49E PUSH1 0x18 SLOAD DUP2 JUMP JUMPDEST CALLVALUE DUP1 ISZERO PUSH2 0x6F6 JUMPI PUSH1 0x0 DUP1 REVERT JUMPDEST POP PUSH2 0x49E PUSH2 0x1A8B JUMP JUMPDEST CALLVALUE DUP1 ISZERO PUSH2 0x70B JUMPI PUSH1 0x0 DUP1 REVERT JUMPDEST POP PUSH2 0x5B9 PUSH2 0x1AA5 JUMP JUMPDEST CALLVALUE DUP1 ISZERO PUSH2 0x720 JUMPI PUSH1 0x0 DUP1 REVERT JUMPDEST POP PUSH2 0x734 PUSH2 0x72F CALLDATASIZE PUSH1 0x4 PUSH2 0x478F JUMP JUMPDEST PUSH2 0x1AB2 JUMP JUMPDEST PUSH1 0x40 MLOAD PUSH2 0x4A8 SWAP2 SWAP1 PUSH2 0x4859 JUMP JUMPDEST CALLVALUE DUP1 ISZERO PUSH2 0x74D JUMPI PUSH1 0x0 DUP1 REVERT JUMPDEST POP PUSH2 0x49E PUSH1 0x10 SLOAD DUP2 JUMP JUMPDEST CALLVALUE DUP1 ISZERO PUSH2 0x763 JUMPI PUSH1 0x0 DUP1 REVERT JUMPDEST POP PUSH2 0x47C PUSH2 0x772 CALLDATASIZE PUSH1 0x4 PUSH2 0x441D JUMP JUMPDEST PUSH2 0x1BDB JUMP JUMPDEST CALLVALUE DUP1 ISZERO PUSH2 0x783 JUMPI PUSH1 0x0 DUP1 REVERT JUMPDEST POP PUSH2 0x47C PUSH2 0x792 CALLDATASIZE PUSH1 0x4 PUSH2 0x44A1 JUMP JUMPDEST PUSH2 0x1C33 JUMP JUMPDEST CALLVALUE DUP1 ISZERO PUSH2 0x7A3 JUMPI PUSH1 0x0 DUP1 REVERT JUMPDEST POP PUSH2 0x47C PUSH2 0x7B2 CALLDATASIZE PUSH1 0x4 PUSH2 0x43F1 JUMP JUMPDEST PUSH2 0x1D46 JUMP JUMPDEST CALLVALUE DUP1 ISZERO PUSH2 0x7C3 JUMPI PUSH1 0x0 DUP1 REVERT JUMPDEST POP PUSH1 0x1F SLOAD PUSH2 0x537 SWAP1 PUSH1 0x1 PUSH1 0x1 PUSH1 0xA0 SHL SUB AND DUP2 JUMP JUMPDEST CALLVALUE DUP1 ISZERO PUSH2 0x7E3 JUMPI PUSH1 0x0 DUP1 REVERT JUMPDEST POP PUSH2 0x5B9 PUSH2 0x7F2 CALLDATASIZE PUSH1 0x4 PUSH2 0x441D JUMP JUMPDEST PUSH2 0x1E0B JUMP JUMPDEST CALLVALUE DUP1 ISZERO PUSH2 0x803 JUMPI PUSH1 0x0 DUP1 REVERT JUMPDEST POP PUSH2 0x47C PUSH2 0x812 CALLDATASIZE PUSH1 0x4 PUSH2 0x44A1 JUMP JUMPDEST PUSH2 0x1E24 JUMP JUMPDEST CALLVALUE DUP1 ISZERO PUSH2 0x823 JUMPI PUSH1 0x0 DUP1 REVERT JUMPDEST POP PUSH1 0x3 SLOAD PUSH1 0xFF AND PUSH2 0x4D1 JUMP JUMPDEST CALLVALUE DUP1 ISZERO PUSH2 0x83B JUMPI PUSH1 0x0 DUP1 REVERT JUMPDEST POP PUSH2 0x47C PUSH2 0x84A CALLDATASIZE PUSH1 0x4 PUSH2 0x44A1 JUMP JUMPDEST PUSH2 0x1F37 JUMP JUMPDEST CALLVALUE DUP1 ISZERO PUSH2 0x85B JUMPI PUSH1 0x0 DUP1 REVERT JUMPDEST POP PUSH2 0x47C PUSH2 0x86A CALLDATASIZE PUSH1 0x4 PUSH2 0x486C JUMP JUMPDEST PUSH2 0x1FAC JUMP JUMPDEST CALLVALUE DUP1 ISZERO PUSH2 0x87B JUMPI PUSH1 0x0 DUP1 REVERT JUMPDEST POP PUSH2 0x5B9 PUSH2 0x22EC JUMP JUMPDEST CALLVALUE DUP1 ISZERO PUSH2 0x890 JUMPI PUSH1 0x0 DUP1 REVERT JUMPDEST POP PUSH1 0x20 SLOAD PUSH2 0x537 SWAP1 PUSH1 0x1 PUSH1 0x1 PUSH1 0xA0 SHL SUB AND DUP2 JUMP JUMPDEST CALLVALUE DUP1 ISZERO PUSH2 0x8B0 JUMPI PUSH1 0x0 DUP1 REVERT JUMPDEST POP PUSH2 0x537 PUSH2 0x8BF CALLDATASIZE PUSH1 0x4 PUSH2 0x441D JUMP JUMPDEST PUSH2 0x22F9 JUMP JUMPDEST CALLVALUE DUP1 ISZERO PUSH2 0x8D0 JUMPI PUSH1 0x0 DUP1 REVERT JUMPDEST POP PUSH2 0x49E PUSH2 0x8DF CALLDATASIZE PUSH1 0x4 PUSH2 0x44A1 JUMP JUMPDEST PUSH1 0x22 PUSH1 0x20 MSTORE PUSH1 0x0 SWAP1 DUP2 MSTORE PUSH1 0x40 SWAP1 KECCAK256 SLOAD DUP2 JUMP JUMPDEST PUSH2 0x47C PUSH2 0x2323 JUMP JUMPDEST CALLVALUE DUP1 ISZERO PUSH2 0x905 JUMPI PUSH1 0x0 DUP1 REVERT JUMPDEST POP PUSH2 0x47C PUSH2 0x239A JUMP JUMPDEST CALLVALUE DUP1 ISZERO PUSH2 0x91A JUMPI PUSH1 0x0 DUP1 REVERT JUMPDEST POP PUSH2 0x47C PUSH2 0x2482 JUMP JUMPDEST CALLVALUE DUP1 ISZERO PUSH2 0x92F JUMPI PUSH1 0x0 DUP1 REVERT JUMPDEST POP PUSH2 0x5B9 PUSH2 0x24BC JUMP JUMPDEST CALLVALUE DUP1 ISZERO PUSH2 0x944 JUMPI PUSH1 0x0 DUP1 REVERT JUMPDEST POP PUSH2 0x49E PUSH1 0xF DUP2 JUMP JUMPDEST CALLVALUE DUP1 ISZERO PUSH2 0x959 JUMPI PUSH1 0x0 DUP1 REVERT JUMPDEST POP PUSH2 0x47C PUSH2 0x968 CALLDATASIZE PUSH1 0x4 PUSH2 0x44A1 JUMP JUMPDEST PUSH2 0x24C9 JUMP JUMPDEST CALLVALUE DUP1 ISZERO PUSH2 0x979 JUMPI PUSH1 0x0 DUP1 REVERT JUMPDEST POP PUSH1 0x3 SLOAD PUSH2 0x100 SWAP1 DIV PUSH1 0x1 PUSH1 0x1 PUSH1 0xA0 SHL SUB AND PUSH2 0x537 JUMP JUMPDEST CALLVALUE DUP1 ISZERO PUSH2 0x99C JUMPI PUSH1 0x0 DUP1 REVERT JUMPDEST POP PUSH2 0x5B9 PUSH2 0x253E JUMP JUMPDEST CALLVALUE DUP1 ISZERO PUSH2 0x9B1 JUMPI PUSH1 0x0 DUP1 REVERT JUMPDEST POP PUSH2 0x49E PUSH1 0x16 SLOAD DUP2 JUMP JUMPDEST CALLVALUE DUP1 ISZERO PUSH2 0x9C7 JUMPI PUSH1 0x0 DUP1 REVERT JUMPDEST POP PUSH2 0x47C PUSH2 0x9D6 CALLDATASIZE PUSH1 0x4 PUSH2 0x48BC JUMP JUMPDEST PUSH2 0x254B JUMP JUMPDEST CALLVALUE DUP1 ISZERO PUSH2 0x9E7 JUMPI PUSH1 0x0 DUP1 REVERT JUMPDEST POP PUSH1 0x1E SLOAD PUSH2 0x537 SWAP1 PUSH1 0x1 PUSH1 0x1 PUSH1 0xA0 SHL SUB AND DUP2 JUMP JUMPDEST CALLVALUE DUP1 ISZERO PUSH2 0xA07 JUMPI PUSH1 0x0 DUP1 REVERT JUMPDEST POP PUSH2 0x47C PUSH2 0xA16 CALLDATASIZE PUSH1 0x4 PUSH2 0x48EC JUMP JUMPDEST PUSH2 0x25CD JUMP JUMPDEST CALLVALUE DUP1 ISZERO PUSH2 0xA27 JUMPI PUSH1 0x0 DUP1 REVERT JUMPDEST POP PUSH2 0x47C PUSH2 0xA36 CALLDATASIZE PUSH1 0x4 PUSH2 0x4923 JUMP JUMPDEST PUSH2 0x25D8 JUMP JUMPDEST CALLVALUE DUP1 ISZERO PUSH2 0xA47 JUMPI PUSH1 0x0 DUP1 REVERT JUMPDEST POP PUSH1 0x1D SLOAD PUSH2 0x537 SWAP1 PUSH1 0x1 PUSH1 0x1 PUSH1 0xA0 SHL SUB AND DUP2 JUMP JUMPDEST CALLVALUE DUP1 ISZERO PUSH2 0xA67 JUMPI PUSH1 0x0 DUP1 REVERT JUMPDEST POP PUSH2 0x49E PUSH1 0x14 SLOAD DUP2 JUMP JUMPDEST CALLVALUE DUP1 ISZERO PUSH2 0xA7D JUMPI PUSH1 0x0 DUP1 REVERT JUMPDEST POP PUSH1 0x19 SLOAD PUSH2 0x49E JUMP JUMPDEST CALLVALUE DUP1 ISZERO PUSH2 0xA92 JUMPI PUSH1 0x0 DUP1 REVERT JUMPDEST POP PUSH2 0x47C PUSH2 0xAA1 CALLDATASIZE PUSH1 0x4 PUSH2 0x497C JUMP JUMPDEST PUSH2 0x26A1 JUMP JUMPDEST CALLVALUE DUP1 ISZERO PUSH2 0xAB2 JUMPI PUSH1 0x0 DUP1 REVERT JUMPDEST POP PUSH2 0x5B9 PUSH2 0xAC1 CALLDATASIZE PUSH1 0x4 PUSH2 0x441D JUMP JUMPDEST PUSH2 0x26DE JUMP JUMPDEST CALLVALUE DUP1 ISZERO PUSH2 0xAD2 JUMPI PUSH1 0x0 DUP1 REVERT JUMPDEST POP PUSH2 0x49E PUSH1 0x17 SLOAD DUP2 JUMP JUMPDEST CALLVALUE DUP1 ISZERO PUSH2 0xAE8 JUMPI PUSH1 0x0 DUP1 REVERT JUMPDEST POP PUSH2 0x47C PUSH2 0xAF7 CALLDATASIZE PUSH1 0x4 PUSH2 0x4923 JUMP JUMPDEST PUSH2 0x26F7 JUMP JUMPDEST CALLVALUE DUP1 ISZERO PUSH2 0xB08 JUMPI PUSH1 0x0 DUP1 REVERT JUMPDEST POP PUSH2 0x5B9 PUSH2 0xB17 CALLDATASIZE PUSH1 0x4 PUSH2 0x44A1 JUMP JUMPDEST PUSH2 0x2826 JUMP JUMPDEST CALLVALUE DUP1 ISZERO PUSH2 0xB28 JUMPI PUSH1 0x0 DUP1 REVERT JUMPDEST POP PUSH2 0x5B9 PUSH2 0x283F JUMP JUMPDEST CALLVALUE DUP1 ISZERO PUSH2 0xB3D JUMPI PUSH1 0x0 DUP1 REVERT JUMPDEST POP PUSH2 0x4D1 PUSH2 0xB4C CALLDATASIZE PUSH1 0x4 PUSH2 0x4923 JUMP JUMPDEST PUSH2 0x284C JUMP JUMPDEST CALLVALUE DUP1 ISZERO PUSH2 0xB5D JUMPI PUSH1 0x0 DUP1 REVERT JUMPDEST POP PUSH2 0x47C PUSH2 0xB6C CALLDATASIZE PUSH1 0x4 PUSH2 0x497C JUMP JUMPDEST PUSH2 0x28A5 JUMP JUMPDEST CALLVALUE DUP1 ISZERO PUSH2 0xB7D JUMPI PUSH1 0x0 DUP1 REVERT JUMPDEST POP PUSH2 0x49E PUSH1 0xB SLOAD DUP2 JUMP JUMPDEST CALLVALUE DUP1 ISZERO PUSH2 0xB93 JUMPI PUSH1 0x0 DUP1 REVERT JUMPDEST POP PUSH2 0x49E PUSH1 0x13 SLOAD DUP2 JUMP JUMPDEST CALLVALUE DUP1 ISZERO PUSH2 0xBA9 JUMPI PUSH1 0x0 DUP1 REVERT JUMPDEST POP PUSH2 0x5B9 PUSH2 0x28C5 JUMP JUMPDEST CALLVALUE DUP1 ISZERO PUSH2 0xBBE JUMPI PUSH1 0x0 DUP1 REVERT JUMPDEST POP PUSH2 0x49E PUSH1 0x19 DUP2 JUMP JUMPDEST CALLVALUE DUP1 ISZERO PUSH2 0xBD3 JUMPI PUSH1 0x0 DUP1 REVERT JUMPDEST POP PUSH2 0x47C PUSH2 0xBE2 CALLDATASIZE PUSH1 0x4 PUSH2 0x44A1 JUMP JUMPDEST PUSH2 0x28D2 JUMP JUMPDEST CALLVALUE DUP1 ISZERO PUSH2 0xBF3 JUMPI PUSH1 0x0 DUP1 REVERT JUMPDEST POP PUSH2 0x537 PUSH2 0xC02 CALLDATASIZE PUSH1 0x4 PUSH2 0x441D JUMP JUMPDEST PUSH1 0x23 PUSH1 0x20 MSTORE PUSH1 0x0 SWAP1 DUP2 MSTORE PUSH1 0x40 SWAP1 KECCAK256 SLOAD PUSH1 0x1 PUSH1 0x1 PUSH1 0xA0 SHL SUB AND DUP2 JUMP JUMPDEST CALLVALUE DUP1 ISZERO PUSH2 0xC29 JUMPI PUSH1 0x0 DUP1 REVERT JUMPDEST POP PUSH2 0x47C PUSH2 0xC38 CALLDATASIZE PUSH1 0x4 PUSH2 0x44A1 JUMP JUMPDEST PUSH2 0x2A08 JUMP JUMPDEST CALLVALUE DUP1 ISZERO PUSH2 0xC49 JUMPI PUSH1 0x0 DUP1 REVERT JUMPDEST POP PUSH2 0x49E PUSH1 0xD SLOAD DUP2 JUMP JUMPDEST CALLVALUE DUP1 ISZERO PUSH2 0xC5F JUMPI PUSH1 0x0 DUP1 REVERT JUMPDEST POP PUSH2 0x4D1 PUSH2 0xC6E CALLDATASIZE PUSH1 0x4 PUSH2 0x49B0 JUMP JUMPDEST PUSH1 0x1 PUSH1 0x1 PUSH1 0xA0 SHL SUB SWAP2 DUP3 AND PUSH1 0x0 SWAP1 DUP2 MSTORE PUSH1 0x1 PUSH1 0x20 SWAP1 DUP2 MSTORE PUSH1 0x40 DUP1 DUP4 KECCAK256 SWAP4 SWAP1 SWAP5 AND DUP3 MSTORE SWAP2 SWAP1 SWAP2 MSTORE KECCAK256 SLOAD PUSH1 0xFF AND SWAP1 JUMP JUMPDEST CALLVALUE DUP1 ISZERO PUSH2 0xCA8 JUMPI PUSH1 0x0 DUP1 REVERT JUMPDEST POP PUSH2 0x47C PUSH2 0x2A79 JUMP JUMPDEST CALLVALUE DUP1 ISZERO PUSH2 0xCBD JUMPI PUSH1 0x0 DUP1 REVERT JUMPDEST POP PUSH2 0xCC6 PUSH2 0x2B6F JUMP JUMPDEST PUSH1 0x40 MLOAD PUSH2 0x4A8 SWAP2 SWAP1 PUSH2 0x49E3 JUMP JUMPDEST PUSH2 0x47C PUSH2 0xCE1 CALLDATASIZE PUSH1 0x4 PUSH2 0x44A1 JUMP JUMPDEST PUSH2 0x2C3B JUMP JUMPDEST CALLVALUE DUP1 ISZERO PUSH2 0xCF2 JUMPI PUSH1 0x0 DUP1 REVERT JUMPDEST POP PUSH2 0x47C PUSH2 0xD01 CALLDATASIZE PUSH1 0x4 PUSH2 0x49F6 JUMP JUMPDEST PUSH2 0x2E01 JUMP JUMPDEST CALLVALUE DUP1 ISZERO PUSH2 0xD12 JUMPI PUSH1 0x0 DUP1 REVERT JUMPDEST POP PUSH2 0x47C PUSH2 0xD21 CALLDATASIZE PUSH1 0x4 PUSH2 0x44A1 JUMP JUMPDEST PUSH2 0x2F01 JUMP JUMPDEST CALLVALUE DUP1 ISZERO PUSH2 0xD32 JUMPI PUSH1 0x0 DUP1 REVERT JUMPDEST POP PUSH2 0x47C PUSH2 0xD41 CALLDATASIZE PUSH1 0x4 PUSH2 0x497C JUMP JUMPDEST PUSH2 0x2FA2 JUMP JUMPDEST CALLVALUE DUP1 ISZERO PUSH2 0xD52 JUMPI PUSH1 0x0 DUP1 REVERT JUMPDEST POP PUSH2 0x47C PUSH2 0xD61 CALLDATASIZE PUSH1 0x4 PUSH2 0x497C JUMP JUMPDEST PUSH2 0x2FDF JUMP JUMPDEST CALLVALUE DUP1 ISZERO PUSH2 0xD72 JUMPI PUSH1 0x0 DUP1 REVERT JUMPDEST POP PUSH2 0x47C PUSH2 0x3022 JUMP JUMPDEST CALLVALUE DUP1 ISZERO PUSH2 0xD87 JUMPI PUSH1 0x0 DUP1 REVERT JUMPDEST POP PUSH2 0x49E PUSH2 0x3179 JUMP JUMPDEST CALLVALUE DUP1 ISZERO PUSH2 0xD9C JUMPI PUSH1 0x0 DUP1 REVERT JUMPDEST POP PUSH2 0x5B9 PUSH2 0x3236 JUMP JUMPDEST CALLVALUE DUP1 ISZERO PUSH2 0xDB1 JUMPI PUSH1 0x0 DUP1 REVERT JUMPDEST POP PUSH1 0x1C SLOAD PUSH2 0x537 SWAP1 PUSH1 0x1 PUSH1 0x1 PUSH1 0xA0 SHL SUB AND DUP2 JUMP JUMPDEST CALLVALUE DUP1 ISZERO PUSH2 0xDD1 JUMPI PUSH1 0x0 DUP1 REVERT JUMPDEST POP PUSH2 0x47C PUSH2 0x3243 JUMP JUMPDEST PUSH1 0x0 PUSH1 0x1 PUSH1 0x1 PUSH1 0xA0 SHL SUB DUP4 AND PUSH2 0xE4B JUMPI PUSH1 0x40 MLOAD PUSH3 0x461BCD PUSH1 0xE5 SHL DUP2 MSTORE PUSH1 0x20 PUSH1 0x4 DUP3 ADD MSTORE PUSH1 0x2B PUSH1 0x24 DUP3 ADD MSTORE PUSH32 0x455243313135353A2062616C616E636520717565727920666F7220746865207A PUSH1 0x44 DUP3 ADD MSTORE PUSH11 0x65726F2061646472657373 PUSH1 0xA8 SHL PUSH1 0x64 DUP3 ADD MSTORE PUSH1 0x84 ADD JUMPDEST PUSH1 0x40 MLOAD DUP1 SWAP2 SUB SWAP1 REVERT JUMPDEST POP PUSH1 0x0 DUP2 DUP2 MSTORE PUSH1 0x20 DUP2 DUP2 MSTORE PUSH1 0x40 DUP1 DUP4 KECCAK256 PUSH1 0x1 PUSH1 0x1 PUSH1 0xA0 SHL SUB DUP7 AND DUP5 MSTORE SWAP1 SWAP2 MSTORE SWAP1 KECCAK256 SLOAD JUMPDEST SWAP3 SWAP2 POP POP JUMP JUMPDEST PUSH1 0x0 PUSH1 0x1 PUSH1 0x1 PUSH1 0xE0 SHL SUB NOT DUP3 AND PUSH4 0x6CDB3D13 PUSH1 0xE1 SHL EQ DUP1 PUSH2 0xEA5 JUMPI POP PUSH1 0x1 PUSH1 0x1 PUSH1 0xE0 SHL SUB NOT DUP3 AND PUSH4 0x3A24D07 PUSH1 0xE2 SHL EQ JUMPDEST DUP1 PUSH2 0xE6E JUMPI POP PUSH4 0x1FFC9A7 PUSH1 0xE0 SHL PUSH1 0x1 PUSH1 0x1 PUSH1 0xE0 SHL SUB NOT DUP4 AND EQ PUSH2 0xE6E JUMP JUMPDEST PUSH1 0x0 PUSH2 0xED1 DUP5 DUP5 DUP5 PUSH2 0x32A3 JUMP JUMPDEST SWAP5 SWAP4 POP POP POP POP JUMP JUMPDEST PUSH1 0x0 DUP1 PUSH2 0xEE7 DUP6 DUP6 DUP6 PUSH2 0x32A3 JUMP JUMPDEST PUSH1 0x0 SWAP1 DUP2 MSTORE PUSH1 0x23 PUSH1 0x20 MSTORE PUSH1 0x40 SWAP1 KECCAK256 SLOAD PUSH1 0x1 PUSH1 0x1 PUSH1 0xA0 SHL SUB AND SWAP6 SWAP5 POP POP POP POP POP JUMP JUMPDEST PUSH1 0x19 DUP2 DUP2 SLOAD DUP2 LT PUSH2 0xF18 JUMPI PUSH1 0x0 DUP1 REVERT JUMPDEST PUSH1 0x0 SWAP2 DUP3 MSTORE PUSH1 0x20 SWAP1 SWAP2 KECCAK256 ADD SLOAD SWAP1 POP DUP2 JUMP JUMPDEST PUSH1 0x60 PUSH1 0x2 DUP1 SLOAD PUSH2 0xF38 SWAP1 PUSH2 0x4A5A JUMP JUMPDEST DUP1 PUSH1 0x1F ADD PUSH1 0x20 DUP1 SWAP2 DIV MUL PUSH1 0x20 ADD PUSH1 0x40 MLOAD SWAP1 DUP2 ADD PUSH1 0x40 MSTORE DUP1 SWAP3 SWAP2 SWAP1 DUP2 DUP2 MSTORE PUSH1 0x20 ADD DUP3 DUP1 SLOAD PUSH2 0xF64 SWAP1 PUSH2 0x4A5A JUMP JUMPDEST DUP1 ISZERO PUSH2 0xFB1 JUMPI DUP1 PUSH1 0x1F LT PUSH2 0xF86 JUMPI PUSH2 0x100 DUP1 DUP4 SLOAD DIV MUL DUP4 MSTORE SWAP2 PUSH1 0x20 ADD SWAP2 PUSH2 0xFB1 JUMP JUMPDEST DUP3 ADD SWAP2 SWAP1 PUSH1 0x0 MSTORE PUSH1 0x20 PUSH1 0x0 KECCAK256 SWAP1 JUMPDEST DUP2 SLOAD DUP2 MSTORE SWAP1 PUSH1 0x1 ADD SWAP1 PUSH1 0x20 ADD DUP1 DUP4 GT PUSH2 0xF94 JUMPI DUP3 SWAP1 SUB PUSH1 0x1F AND DUP3 ADD SWAP2 JUMPDEST POP POP POP POP POP SWAP1 POP SWAP2 SWAP1 POP JUMP JUMPDEST PUSH1 0x60 DUP1 PUSH1 0x0 PUSH1 0x19 DUP1 SLOAD SWAP1 POP PUSH1 0x1 PUSH1 0x1 PUSH1 0x40 SHL SUB DUP2 GT ISZERO PUSH2 0xFDF JUMPI PUSH2 0xFDF PUSH2 0x459D JUMP JUMPDEST PUSH1 0x40 MLOAD SWAP1 DUP1 DUP3 MSTORE DUP1 PUSH1 0x20 MUL PUSH1 0x20 ADD DUP3 ADD PUSH1 0x40 MSTORE DUP1 ISZERO PUSH2 0x1008 JUMPI DUP2 PUSH1 0x20 ADD PUSH1 0x20 DUP3 MUL DUP1 CALLDATASIZE DUP4 CALLDATACOPY ADD SWAP1 POP JUMPDEST POP PUSH1 0x19 SLOAD SWAP1 SWAP2 POP PUSH1 0x0 SWAP1 PUSH1 0x1 PUSH1 0x1 PUSH1 0x40 SHL SUB DUP2 GT ISZERO PUSH2 0x1029 JUMPI PUSH2 0x1029 PUSH2 0x459D JUMP JUMPDEST PUSH1 0x40 MLOAD SWAP1 DUP1 DUP3 MSTORE DUP1 PUSH1 0x20 MUL PUSH1 0x20 ADD DUP3 ADD PUSH1 0x40 MSTORE DUP1 ISZERO PUSH2 0x1052 JUMPI DUP2 PUSH1 0x20 ADD PUSH1 0x20 DUP3 MUL DUP1 CALLDATASIZE DUP4 CALLDATACOPY ADD SWAP1 POP JUMPDEST POP SWAP1 POP PUSH1 0x0 JUMPDEST PUSH1 0x19 SLOAD DUP2 LT ISZERO PUSH2 0x111E JUMPI PUSH1 0x19 DUP2 DUP2 SLOAD DUP2 LT PUSH2 0x1075 JUMPI PUSH2 0x1075 PUSH2 0x4A8F JUMP JUMPDEST SWAP1 PUSH1 0x0 MSTORE PUSH1 0x20 PUSH1 0x0 KECCAK256 ADD SLOAD DUP4 DUP3 DUP2 MLOAD DUP2 LT PUSH2 0x1092 JUMPI PUSH2 0x1092 PUSH2 0x4A8F JUMP JUMPDEST PUSH1 0x20 MUL PUSH1 0x20 ADD ADD DUP2 DUP2 MSTORE POP POP PUSH1 0x23 PUSH1 0x0 PUSH1 0x19 DUP4 DUP2 SLOAD DUP2 LT PUSH2 0x10B5 JUMPI PUSH2 0x10B5 PUSH2 0x4A8F JUMP JUMPDEST SWAP1 PUSH1 0x0 MSTORE PUSH1 0x20 PUSH1 0x0 KECCAK256 ADD SLOAD DUP2 MSTORE PUSH1 0x20 ADD SWAP1 DUP2 MSTORE PUSH1 0x20 ADD PUSH1 0x0 KECCAK256 PUSH1 0x0 SWAP1 SLOAD SWAP1 PUSH2 0x100 EXP SWAP1 DIV PUSH1 0x1 PUSH1 0x1 PUSH1 0xA0 SHL SUB AND DUP3 DUP3 DUP2 MLOAD DUP2 LT PUSH2 0x10F4 JUMPI PUSH2 0x10F4 PUSH2 0x4A8F JUMP JUMPDEST PUSH1 0x1 PUSH1 0x1 PUSH1 0xA0 SHL SUB SWAP1 SWAP3 AND PUSH1 0x20 SWAP3 DUP4 MUL SWAP2 SWAP1 SWAP2 ADD SWAP1 SWAP2 ADD MSTORE DUP1 PUSH2 0x1116 DUP2 PUSH2 0x4ABB JUMP JUMPDEST SWAP2 POP POP PUSH2 0x1058 JUMP JUMPDEST POP SWAP1 SWAP4 SWAP1 SWAP3 POP SWAP1 POP JUMP JUMPDEST PUSH1 0x3 SLOAD PUSH1 0x1 PUSH1 0x1 PUSH1 0xA0 SHL SUB PUSH2 0x100 SWAP1 SWAP2 DIV AND CALLER EQ PUSH2 0x1158 JUMPI PUSH1 0x40 MLOAD PUSH3 0x461BCD PUSH1 0xE5 SHL DUP2 MSTORE PUSH1 0x4 ADD PUSH2 0xE42 SWAP1 PUSH2 0x4AD6 JUMP JUMPDEST PUSH2 0x1160 PUSH2 0x3300 JUMP JUMPDEST JUMP JUMPDEST PUSH1 0x3 SLOAD PUSH1 0xFF AND ISZERO PUSH2 0x1185 JUMPI PUSH1 0x40 MLOAD PUSH3 0x461BCD PUSH1 0xE5 SHL DUP2 MSTORE PUSH1 0x4 ADD PUSH2 0xE42 SWAP1 PUSH2 0x4B0B JUMP JUMPDEST DUP3 ISZERO DUP1 PUSH2 0x1192 JUMPI POP PUSH1 0xC DUP4 GT JUMPDEST ISZERO PUSH2 0x11D7 JUMPI PUSH1 0x40 MLOAD PUSH3 0x461BCD PUSH1 0xE5 SHL DUP2 MSTORE PUSH1 0x20 PUSH1 0x4 DUP3 ADD MSTORE PUSH1 0x15 PUSH1 0x24 DUP3 ADD MSTORE PUSH21 0x3BB937B7339036B7B73A341039B2B632B1BA34B7B7 PUSH1 0x59 SHL PUSH1 0x44 DUP3 ADD MSTORE PUSH1 0x64 ADD PUSH2 0xE42 JUMP JUMPDEST DUP2 ISZERO DUP1 PUSH2 0x11E4 JUMPI POP PUSH1 0x1F DUP3 GT JUMPDEST ISZERO PUSH2 0x1227 JUMPI PUSH1 0x40 MLOAD PUSH3 0x461BCD PUSH1 0xE5 SHL DUP2 MSTORE PUSH1 0x20 PUSH1 0x4 DUP3 ADD MSTORE PUSH1 0x13 PUSH1 0x24 DUP3 ADD MSTORE PUSH19 0x3BB937B733903230BC9039B2B632B1BA34B7B7 PUSH1 0x69 SHL PUSH1 0x44 DUP3 ADD MSTORE PUSH1 0x64 ADD PUSH2 0xE42 JUMP JUMPDEST DUP3 PUSH1 0x4 EQ DUP1 PUSH2 0x1236 JUMPI POP DUP3 PUSH1 0x6 EQ JUMPDEST DUP1 PUSH2 0x1241 JUMPI POP DUP3 PUSH1 0x9 EQ JUMPDEST DUP1 PUSH2 0x124C JUMPI POP DUP3 PUSH1 0xB EQ JUMPDEST DUP1 ISZERO PUSH2 0x1258 JUMPI POP PUSH1 0x1E DUP3 GT JUMPDEST POP DUP3 PUSH1 0x2 EQ DUP1 ISZERO PUSH2 0x126D JUMPI POP PUSH2 0x126D DUP5 PUSH2 0x32BE JUMP JUMPDEST DUP1 ISZERO PUSH2 0x1279 JUMPI POP PUSH1 0x1D DUP3 GT JUMPDEST POP DUP3 PUSH1 0x2 EQ DUP1 ISZERO PUSH2 0x1290 JUMPI POP PUSH2 0x128E DUP5 PUSH2 0x32BE JUMP JUMPDEST ISZERO JUMPDEST DUP1 ISZERO PUSH2 0x129C JUMPI POP PUSH1 0x1C DUP3 GT JUMPDEST POP PUSH1 0x0 PUSH2 0x12AA DUP6 DUP6 DUP6 PUSH2 0x32A3 JUMP JUMPDEST SWAP1 POP PUSH2 0x12B5 DUP2 PUSH2 0x1A5D JUMP JUMPDEST PUSH2 0x1339 JUMPI PUSH1 0x40 MLOAD PUSH3 0x461BCD PUSH1 0xE5 SHL DUP2 MSTORE PUSH1 0x20 PUSH1 0x4 DUP3 ADD MSTORE PUSH1 0x49 PUSH1 0x24 DUP3 ADD MSTORE PUSH32 0x54686973206461792043616E206E6F74206265206D696E742061742074686520 PUSH1 0x44 DUP3 ADD MSTORE PUSH32 0x6D6F6D656E742C706C65617365207761697420756E74696C2074686520616374 PUSH1 0x64 DUP3 ADD MSTORE PUSH9 0x3AB0B636103230BC97 PUSH1 0xB9 SHL PUSH1 0x84 DUP3 ADD MSTORE PUSH1 0xA4 ADD PUSH2 0xE42 JUMP JUMPDEST PUSH1 0x0 DUP2 DUP2 MSTORE PUSH1 0x23 PUSH1 0x20 MSTORE PUSH1 0x40 SWAP1 KECCAK256 SLOAD PUSH1 0x1 PUSH1 0x1 PUSH1 0xA0 SHL SUB AND ISZERO PUSH2 0x139E JUMPI PUSH1 0x40 MLOAD PUSH3 0x461BCD PUSH1 0xE5 SHL DUP2 MSTORE PUSH1 0x20 PUSH1 0x4 DUP3 ADD MSTORE PUSH1 0x1E PUSH1 0x24 DUP3 ADD MSTORE PUSH32 0x54686973206461792068617320616C7265616479206D656D6F72697A65640000 PUSH1 0x44 DUP3 ADD MSTORE PUSH1 0x64 ADD PUSH2 0xE42 JUMP JUMPDEST PUSH1 0x1 PUSH1 0x1 PUSH1 0xA0 SHL SUB DUP3 AND PUSH2 0x13B0 JUMPI CALLER SWAP2 POP JUMPDEST CALLER PUSH1 0x0 SWAP1 DUP2 MSTORE PUSH1 0x22 PUSH1 0x20 MSTORE PUSH1 0x40 DUP2 KECCAK256 SLOAD ISZERO PUSH2 0x13F5 JUMPI POP CALLER PUSH1 0x0 SWAP1 DUP2 MSTORE PUSH1 0x22 PUSH1 0x20 MSTORE PUSH1 0x40 SWAP1 KECCAK256 SLOAD PUSH1 0x1 SWAP1 PUSH2 0x13E4 SWAP1 DUP3 SWAP1 PUSH2 0x4B35 JUMP JUMPDEST CALLER PUSH1 0x0 SWAP1 DUP2 MSTORE PUSH1 0x22 PUSH1 0x20 MSTORE PUSH1 0x40 SWAP1 KECCAK256 SSTORE JUMPDEST DUP1 PUSH2 0x17BF JUMPI PUSH2 0x1402 PUSH2 0x3179 JUMP JUMPDEST CALLVALUE LT ISZERO PUSH2 0x145F JUMPI PUSH1 0x40 MLOAD PUSH3 0x461BCD PUSH1 0xE5 SHL DUP2 MSTORE PUSH1 0x20 PUSH1 0x4 DUP3 ADD MSTORE PUSH1 0x25 PUSH1 0x24 DUP3 ADD MSTORE PUSH32 0x4E6F7420656E6F7567682066756E647320746F206D656D6F72697A6520746869 PUSH1 0x44 DUP3 ADD MSTORE PUSH5 0x7320646179 PUSH1 0xD8 SHL PUSH1 0x64 DUP3 ADD MSTORE PUSH1 0x84 ADD PUSH2 0xE42 JUMP JUMPDEST PUSH1 0x0 PUSH1 0x64 PUSH2 0x146E PUSH1 0xA CALLVALUE PUSH2 0x4B4C JUMP JUMPDEST PUSH2 0x1478 SWAP2 SWAP1 PUSH2 0x4B81 JUMP JUMPDEST PUSH1 0x20 DUP1 SLOAD PUSH1 0x1 PUSH1 0x1 PUSH1 0xA0 SHL SUB AND PUSH1 0x0 SWAP1 DUP2 MSTORE PUSH1 0x21 SWAP1 SWAP2 MSTORE PUSH1 0x40 SWAP1 KECCAK256 SLOAD SWAP1 SWAP2 POP PUSH2 0x14A2 SWAP1 DUP3 SWAP1 PUSH2 0x4B95 JUMP JUMPDEST PUSH1 0x20 DUP1 SLOAD PUSH1 0x1 PUSH1 0x1 PUSH1 0xA0 SHL SUB AND PUSH1 0x0 SWAP1 DUP2 MSTORE PUSH1 0x21 SWAP1 SWAP2 MSTORE PUSH1 0x40 DUP2 KECCAK256 SWAP2 SWAP1 SWAP2 SSTORE PUSH1 0x64 PUSH2 0x14CE PUSH1 0xA CALLVALUE PUSH2 0x4B4C JUMP JUMPDEST PUSH2 0x14D8 SWAP2 SWAP1 PUSH2 0x4B81 JUMP JUMPDEST PUSH1 0x1F SLOAD PUSH1 0x1 PUSH1 0x1 PUSH1 0xA0 SHL SUB AND PUSH1 0x0 SWAP1 DUP2 MSTORE PUSH1 0x21 PUSH1 0x20 MSTORE PUSH1 0x40 SWAP1 KECCAK256 SLOAD SWAP1 SWAP2 POP PUSH2 0x1501 SWAP1 DUP3 SWAP1 PUSH2 0x4B95 JUMP JUMPDEST PUSH1 0x1F SLOAD PUSH1 0x1 PUSH1 0x1 PUSH1 0xA0 SHL SUB AND PUSH1 0x0 SWAP1 DUP2 MSTORE PUSH1 0x21 PUSH1 0x20 MSTORE PUSH1 0x40 DUP2 KECCAK256 SWAP2 SWAP1 SWAP2 SSTORE DUP1 DUP1 PUSH1 0x64 PUSH2 0x152E PUSH1 0x19 CALLVALUE PUSH2 0x4B4C JUMP JUMPDEST PUSH2 0x1538 SWAP2 SWAP1 PUSH2 0x4B81 JUMP JUMPDEST SWAP2 POP DUP2 SWAP1 POP PUSH2 0x1548 DUP4 PUSH1 0x5 PUSH2 0x4B95 JUMP JUMPDEST SWAP3 POP PUSH1 0x0 PUSH1 0x64 PUSH2 0x1559 PUSH1 0xF CALLVALUE PUSH2 0x4B4C JUMP JUMPDEST PUSH2 0x1563 SWAP2 SWAP1 PUSH2 0x4B81 JUMP JUMPDEST PUSH1 0x1 PUSH1 0x0 MSTORE PUSH1 0x23 PUSH1 0x20 MSTORE PUSH1 0x0 DUP1 MLOAD PUSH1 0x20 PUSH2 0x50BC DUP4 CODECOPY DUP2 MLOAD SWAP2 MSTORE SLOAD SWAP1 SWAP2 POP PUSH1 0x1 PUSH1 0x1 PUSH1 0xA0 SHL SUB AND PUSH2 0x15AB JUMPI PUSH2 0x1598 DUP5 PUSH1 0x3 PUSH2 0x4B95 JUMP JUMPDEST SWAP4 POP PUSH2 0x15A4 DUP2 DUP5 PUSH2 0x4B95 JUMP JUMPDEST SWAP3 POP PUSH2 0x1607 JUMP JUMPDEST PUSH1 0x0 DUP1 MLOAD PUSH1 0x20 PUSH2 0x50BC DUP4 CODECOPY DUP2 MLOAD SWAP2 MSTORE SLOAD PUSH1 0x1 PUSH1 0x1 PUSH1 0xA0 SHL SUB AND PUSH1 0x0 SWAP1 DUP2 MSTORE PUSH1 0x21 PUSH1 0x20 MSTORE PUSH1 0x40 SWAP1 KECCAK256 SLOAD PUSH2 0x15DE SWAP1 DUP3 SWAP1 PUSH2 0x4B95 JUMP JUMPDEST PUSH1 0x0 DUP1 MLOAD PUSH1 0x20 PUSH2 0x50BC DUP4 CODECOPY DUP2 MLOAD SWAP2 MSTORE SLOAD PUSH1 0x1 PUSH1 0x1 PUSH1 0xA0 SHL SUB AND PUSH1 0x0 SWAP1 DUP2 MSTORE PUSH1 0x21 PUSH1 0x20 MSTORE PUSH1 0x40 SWAP1 KECCAK256 SSTORE JUMPDEST PUSH1 0x0 PUSH1 0x64 PUSH2 0x1616 PUSH1 0x14 CALLVALUE PUSH2 0x4B4C JUMP JUMPDEST PUSH2 0x1620 SWAP2 SWAP1 PUSH2 0x4B81 JUMP JUMPDEST PUSH1 0x1C SLOAD SWAP1 SWAP2 POP PUSH1 0x1 PUSH1 0x1 PUSH1 0xA0 SHL SUB AND PUSH2 0x1651 JUMPI PUSH2 0x163E DUP6 PUSH1 0x4 PUSH2 0x4B95 JUMP JUMPDEST SWAP5 POP PUSH2 0x164A DUP2 DUP6 PUSH2 0x4B95 JUMP JUMPDEST SWAP4 POP PUSH2 0x1693 JUMP JUMPDEST PUSH1 0x1C SLOAD PUSH1 0x1 PUSH1 0x1 PUSH1 0xA0 SHL SUB AND PUSH1 0x0 SWAP1 DUP2 MSTORE PUSH1 0x21 PUSH1 0x20 MSTORE PUSH1 0x40 SWAP1 KECCAK256 SLOAD PUSH2 0x1677 SWAP1 DUP3 SWAP1 PUSH2 0x4B95 JUMP JUMPDEST PUSH1 0x1C SLOAD PUSH1 0x1 PUSH1 0x1 PUSH1 0xA0 SHL SUB AND PUSH1 0x0 SWAP1 DUP2 MSTORE PUSH1 0x21 PUSH1 0x20 MSTORE PUSH1 0x40 SWAP1 KECCAK256 SSTORE JUMPDEST PUSH1 0x0 PUSH1 0x64 PUSH2 0x16A2 PUSH1 0xA CALLVALUE PUSH2 0x4B4C JUMP JUMPDEST PUSH2 0x16AC SWAP2 SWAP1 PUSH2 0x4B81 JUMP JUMPDEST PUSH1 0x1D SLOAD SWAP1 SWAP2 POP PUSH1 0x1 PUSH1 0x1 PUSH1 0xA0 SHL SUB AND PUSH2 0x16DD JUMPI PUSH2 0x16CA DUP7 PUSH1 0x2 PUSH2 0x4B95 JUMP JUMPDEST SWAP6 POP PUSH2 0x16D6 DUP2 DUP7 PUSH2 0x4B95 JUMP JUMPDEST SWAP5 POP PUSH2 0x171F JUMP JUMPDEST PUSH1 0x1D SLOAD PUSH1 0x1 PUSH1 0x1 PUSH1 0xA0 SHL SUB AND PUSH1 0x0 SWAP1 DUP2 MSTORE PUSH1 0x21 PUSH1 0x20 MSTORE PUSH1 0x40 SWAP1 KECCAK256 SLOAD PUSH2 0x1703 SWAP1 DUP3 SWAP1 PUSH2 0x4B95 JUMP JUMPDEST PUSH1 0x1D SLOAD PUSH1 0x1 PUSH1 0x1 PUSH1 0xA0 SHL SUB AND PUSH1 0x0 SWAP1 DUP2 MSTORE PUSH1 0x21 PUSH1 0x20 MSTORE PUSH1 0x40 SWAP1 KECCAK256 SSTORE JUMPDEST PUSH1 0x0 PUSH1 0x64 PUSH2 0x172E PUSH1 0xA CALLVALUE PUSH2 0x4B4C JUMP JUMPDEST PUSH2 0x1738 SWAP2 SWAP1 PUSH2 0x4B81 JUMP JUMPDEST PUSH1 0x1E SLOAD SWAP1 SWAP2 POP PUSH1 0x1 PUSH1 0x1 PUSH1 0xA0 SHL SUB AND PUSH2 0x1769 JUMPI PUSH2 0x1756 DUP8 PUSH1 0x2 PUSH2 0x4B95 JUMP JUMPDEST SWAP7 POP PUSH2 0x1762 DUP2 DUP8 PUSH2 0x4B95 JUMP JUMPDEST SWAP6 POP PUSH2 0x17AB JUMP JUMPDEST PUSH1 0x1E SLOAD PUSH1 0x1 PUSH1 0x1 PUSH1 0xA0 SHL SUB AND PUSH1 0x0 SWAP1 DUP2 MSTORE PUSH1 0x21 PUSH1 0x20 MSTORE PUSH1 0x40 SWAP1 KECCAK256 SLOAD PUSH2 0x178F SWAP1 DUP3 SWAP1 PUSH2 0x4B95 JUMP JUMPDEST PUSH1 0x1E SLOAD PUSH1 0x1 PUSH1 0x1 PUSH1 0xA0 SHL SUB AND PUSH1 0x0 SWAP1 DUP2 MSTORE PUSH1 0x21 PUSH1 0x20 MSTORE PUSH1 0x40 SWAP1 KECCAK256 SSTORE JUMPDEST PUSH2 0x17B5 DUP7 DUP9 PUSH2 0x3375 JUMP JUMPDEST POP POP POP POP POP POP POP POP POP JUMPDEST PUSH2 0x17DB DUP4 DUP4 PUSH1 0x1 PUSH1 0x40 MLOAD DUP1 PUSH1 0x20 ADD PUSH1 0x40 MSTORE DUP1 PUSH1 0x0 DUP2 MSTORE POP PUSH2 0x3539 JUMP JUMPDEST PUSH1 0x19 DUP1 SLOAD PUSH1 0x1 DUP2 ADD SWAP1 SWAP2 SSTORE PUSH32 0x944998273E477B495144FB8794C914197F3CCB46BE2900F4698FD0EF743C9695 ADD DUP3 SWAP1 SSTORE PUSH1 0x0 DUP3 DUP2 MSTORE PUSH1 0x23 PUSH1 0x20 MSTORE PUSH1 0x40 SWAP1 KECCAK256 DUP1 SLOAD PUSH1 0x1 PUSH1 0x1 PUSH1 0xA0 SHL SUB NOT AND PUSH1 0x1 PUSH1 0x1 PUSH1 0xA0 SHL SUB DUP6 AND OR SWAP1 SSTORE TIMESTAMP PUSH1 0x18 SSTORE PUSH2 0x183E PUSH2 0x3649 JUMP JUMPDEST DUP1 ISZERO PUSH2 0x1895 JUMPI PUSH1 0x40 DUP1 MLOAD DUP8 DUP2 MSTORE PUSH1 0x20 DUP2 ADD DUP8 SWAP1 MSTORE SWAP1 DUP2 ADD DUP6 SWAP1 MSTORE PUSH1 0x1 PUSH1 0x1 PUSH1 0xA0 SHL SUB DUP5 AND SWAP1 PUSH32 0x3540BA85D6B19A949E65DDE1663A6FE1C9939E25E10121183E5738A8583D65CC SWAP1 PUSH1 0x60 ADD PUSH1 0x40 MLOAD DUP1 SWAP2 SUB SWAP1 LOG2 PUSH2 0x18EB JUMP JUMPDEST PUSH2 0x189D PUSH2 0x365B JUMP JUMPDEST PUSH1 0x40 DUP1 MLOAD DUP8 DUP2 MSTORE PUSH1 0x20 DUP2 ADD DUP8 SWAP1 MSTORE SWAP1 DUP2 ADD DUP6 SWAP1 MSTORE PUSH1 0x1 PUSH1 0x1 PUSH1 0xA0 SHL SUB DUP5 AND SWAP1 PUSH32 0xA51E9B2EF1F037DEE551EB226D6D1581C8FB0E0243820EBD1FBB41A13E6C2364 SWAP1 PUSH1 0x60 ADD JUMPDEST PUSH1 0x40 MLOAD DUP1 SWAP2 SUB SWAP1 LOG2 JUMPDEST POP POP POP POP POP POP JUMP JUMPDEST PUSH1 0x1 PUSH1 0x1 PUSH1 0xA0 SHL SUB DUP6 AND CALLER EQ DUP1 PUSH2 0x190F JUMPI POP PUSH2 0x190F DUP6 CALLER PUSH2 0xC6E JUMP JUMPDEST PUSH2 0x1976 JUMPI PUSH1 0x40 MLOAD PUSH3 0x461BCD PUSH1 0xE5 SHL DUP2 MSTORE PUSH1 0x20 PUSH1 0x4 DUP3 ADD MSTORE PUSH1 0x32 PUSH1 0x24 DUP3 ADD MSTORE PUSH32 0x455243313135353A207472616E736665722063616C6C6572206973206E6F7420 PUSH1 0x44 DUP3 ADD MSTORE PUSH18 0x1BDDDB995C881B9BDC88185C1C1C9BDD9959 PUSH1 0x72 SHL PUSH1 0x64 DUP3 ADD MSTORE PUSH1 0x84 ADD PUSH2 0xE42 JUMP JUMPDEST PUSH1 0x40 MLOAD PUSH3 0x461BCD PUSH1 0xE5 SHL DUP2 MSTORE PUSH1 0x20 PUSH1 0x4 DUP3 ADD MSTORE PUSH1 0x21 PUSH1 0x24 DUP3 ADD MSTORE PUSH32 0x4261746368207472616E73666572206973206E6F7420696D706C656D656E7465 PUSH1 0x44 DUP3 ADD MSTORE PUSH1 0x19 PUSH1 0xFA SHL PUSH1 0x64 DUP3 ADD MSTORE PUSH1 0x84 ADD PUSH2 0xE42 JUMP JUMPDEST POP POP POP POP POP JUMP JUMPDEST PUSH1 0xC DUP1 SLOAD PUSH2 0x19DC SWAP1 PUSH2 0x4A5A JUMP JUMPDEST DUP1 PUSH1 0x1F ADD PUSH1 0x20 DUP1 SWAP2 DIV MUL PUSH1 0x20 ADD PUSH1 0x40 MLOAD SWAP1 DUP2 ADD PUSH1 0x40 MSTORE DUP1 SWAP3 SWAP2 SWAP1 DUP2 DUP2 MSTORE PUSH1 0x20 ADD DUP3 DUP1 SLOAD PUSH2 0x1A08 SWAP1 PUSH2 0x4A5A JUMP JUMPDEST DUP1 ISZERO PUSH2 0x1A55 JUMPI DUP1 PUSH1 0x1F LT PUSH2 0x1A2A JUMPI PUSH2 0x100 DUP1 DUP4 SLOAD DIV MUL DUP4 MSTORE SWAP2 PUSH1 0x20 ADD SWAP2 PUSH2 0x1A55 JUMP JUMPDEST DUP3 ADD SWAP2 SWAP1 PUSH1 0x0 MSTORE PUSH1 0x20 PUSH1 0x0 KECCAK256 SWAP1 JUMPDEST DUP2 SLOAD DUP2 MSTORE SWAP1 PUSH1 0x1 ADD SWAP1 PUSH1 0x20 ADD DUP1 DUP4 GT PUSH2 0x1A38 JUMPI DUP3 SWAP1 SUB PUSH1 0x1F AND DUP3 ADD SWAP2 JUMPDEST POP POP POP POP POP DUP2 JUMP JUMPDEST PUSH1 0x0 TIMESTAMP DUP3 GT ISZERO DUP1 ISZERO PUSH2 0x1A71 JUMPI POP PUSH1 0x17 SLOAD DUP3 LT ISZERO JUMPDEST ISZERO PUSH2 0x1A7E JUMPI POP PUSH1 0x1 SWAP2 SWAP1 POP JUMP JUMPDEST POP PUSH1 0x0 SWAP2 SWAP1 POP JUMP JUMPDEST SWAP2 SWAP1 POP JUMP JUMPDEST PUSH1 0x0 PUSH2 0x1A95 PUSH2 0x3179 JUMP JUMPDEST PUSH2 0x1AA0 SWAP1 PUSH1 0xB4 PUSH2 0x4B4C JUMP JUMPDEST SWAP1 POP SWAP1 JUMP JUMPDEST PUSH1 0x8 DUP1 SLOAD PUSH2 0x19DC SWAP1 PUSH2 0x4A5A JUMP JUMPDEST PUSH1 0x60 DUP2 MLOAD DUP4 MLOAD EQ PUSH2 0x1B17 JUMPI PUSH1 0x40 MLOAD PUSH3 0x461BCD PUSH1 0xE5 SHL DUP2 MSTORE PUSH1 0x20 PUSH1 0x4 DUP3 ADD MSTORE PUSH1 0x29 PUSH1 0x24 DUP3 ADD MSTORE PUSH32 0x455243313135353A206163636F756E747320616E6420696473206C656E677468 PUSH1 0x44 DUP3 ADD MSTORE PUSH9 0x40DAD2E6DAC2E8C6D PUSH1 0xBB SHL PUSH1 0x64 DUP3 ADD MSTORE PUSH1 0x84 ADD PUSH2 0xE42 JUMP JUMPDEST PUSH1 0x0 DUP4 MLOAD PUSH1 0x1 PUSH1 0x1 PUSH1 0x40 SHL SUB DUP2 GT ISZERO PUSH2 0x1B32 JUMPI PUSH2 0x1B32 PUSH2 0x459D JUMP JUMPDEST PUSH1 0x40 MLOAD SWAP1 DUP1 DUP3 MSTORE DUP1 PUSH1 0x20 MUL PUSH1 0x20 ADD DUP3 ADD PUSH1 0x40 MSTORE DUP1 ISZERO PUSH2 0x1B5B JUMPI DUP2 PUSH1 0x20 ADD PUSH1 0x20 DUP3 MUL DUP1 CALLDATASIZE DUP4 CALLDATACOPY ADD SWAP1 POP JUMPDEST POP SWAP1 POP PUSH1 0x0 JUMPDEST DUP5 MLOAD DUP2 LT ISZERO PUSH2 0x1BD3 JUMPI PUSH2 0x1BA6 DUP6 DUP3 DUP2 MLOAD DUP2 LT PUSH2 0x1B7F JUMPI PUSH2 0x1B7F PUSH2 0x4A8F JUMP JUMPDEST PUSH1 0x20 MUL PUSH1 0x20 ADD ADD MLOAD DUP6 DUP4 DUP2 MLOAD DUP2 LT PUSH2 0x1B99 JUMPI PUSH2 0x1B99 PUSH2 0x4A8F JUMP JUMPDEST PUSH1 0x20 MUL PUSH1 0x20 ADD ADD MLOAD PUSH2 0xDDA JUMP JUMPDEST DUP3 DUP3 DUP2 MLOAD DUP2 LT PUSH2 0x1BB8 JUMPI PUSH2 0x1BB8 PUSH2 0x4A8F JUMP JUMPDEST PUSH1 0x20 SWAP1 DUP2 MUL SWAP2 SWAP1 SWAP2 ADD ADD MSTORE PUSH2 0x1BCC DUP2 PUSH2 0x4ABB JUMP JUMPDEST SWAP1 POP PUSH2 0x1B61 JUMP JUMPDEST POP SWAP4 SWAP3 POP POP POP JUMP JUMPDEST PUSH1 0x3 SLOAD PUSH1 0x1 PUSH1 0x1 PUSH1 0xA0 SHL SUB PUSH2 0x100 SWAP1 SWAP2 DIV AND CALLER EQ PUSH2 0x1C0B JUMPI PUSH1 0x40 MLOAD PUSH3 0x461BCD PUSH1 0xE5 SHL DUP2 MSTORE PUSH1 0x4 ADD PUSH2 0xE42 SWAP1 PUSH2 0x4AD6 JUMP JUMPDEST PUSH1 0x3 SLOAD PUSH1 0xFF AND ISZERO PUSH2 0x1C2E JUMPI PUSH1 0x40 MLOAD PUSH3 0x461BCD PUSH1 0xE5 SHL DUP2 MSTORE PUSH1 0x4 ADD PUSH2 0xE42 SWAP1 PUSH2 0x4B0B JUMP JUMPDEST PUSH1 0x1A SSTORE JUMP JUMPDEST PUSH1 0x1 PUSH1 0x0 MSTORE PUSH1 0x23 PUSH1 0x20 MSTORE PUSH1 0x0 DUP1 MLOAD PUSH1 0x20 PUSH2 0x50BC DUP4 CODECOPY DUP2 MLOAD SWAP2 MSTORE SLOAD PUSH1 0x1 PUSH1 0x1 PUSH1 0xA0 SHL SUB AND CALLER EQ DUP1 PUSH2 0x1C84 JUMPI POP PUSH1 0x3 SLOAD PUSH2 0x100 SWAP1 DIV PUSH1 0x1 PUSH1 0x1 PUSH1 0xA0 SHL SUB AND PUSH1 0x1 PUSH1 0x1 PUSH1 0xA0 SHL SUB AND CALLER PUSH1 0x1 PUSH1 0x1 PUSH1 0xA0 SHL SUB AND EQ JUMPDEST PUSH2 0x1C8D JUMPI PUSH1 0x0 DUP1 REVERT JUMPDEST PUSH1 0x5A PUSH2 0x1C9B PUSH1 0xB SLOAD TIMESTAMP PUSH2 0x382A JUMP JUMPDEST LT ISZERO PUSH2 0x1CB9 JUMPI PUSH1 0x40 MLOAD PUSH3 0x461BCD PUSH1 0xE5 SHL DUP2 MSTORE PUSH1 0x4 ADD PUSH2 0xE42 SWAP1 PUSH2 0x4BAD JUMP JUMPDEST PUSH1 0x64 PUSH1 0x32 PUSH2 0x1CC9 PUSH1 0x17 SLOAD TIMESTAMP PUSH2 0x382A JUMP JUMPDEST PUSH2 0x1CD3 SWAP2 SWAP1 PUSH2 0x4B4C JUMP JUMPDEST PUSH2 0x1CDD SWAP2 SWAP1 PUSH2 0x4B81 JUMP JUMPDEST PUSH1 0x19 SLOAD LT PUSH2 0x1CFD JUMPI PUSH1 0x40 MLOAD PUSH3 0x461BCD PUSH1 0xE5 SHL DUP2 MSTORE PUSH1 0x4 ADD PUSH2 0xE42 SWAP1 PUSH2 0x4BDD JUMP JUMPDEST PUSH1 0x1D DUP1 SLOAD PUSH1 0x1 PUSH1 0x1 PUSH1 0xA0 SHL SUB SWAP3 DUP4 AND PUSH1 0x1 PUSH1 0x1 PUSH1 0xA0 SHL SUB NOT DUP3 AND DUP2 OR SWAP1 SWAP3 SSTORE SWAP2 SWAP1 SWAP2 AND PUSH1 0x0 DUP2 DUP2 MSTORE PUSH1 0x21 PUSH1 0x20 MSTORE PUSH1 0x40 DUP1 DUP3 KECCAK256 DUP1 SLOAD SWAP5 DUP4 MSTORE SWAP1 DUP3 KECCAK256 SWAP4 SWAP1 SWAP4 SSTORE SWAP1 DUP2 MSTORE SWAP1 SSTORE TIMESTAMP PUSH1 0xB SSTORE JUMP JUMPDEST PUSH1 0x3 SLOAD PUSH1 0x1 PUSH1 0x1 PUSH1 0xA0 SHL SUB PUSH2 0x100 SWAP1 SWAP2 DIV AND CALLER EQ PUSH2 0x1D76 JUMPI PUSH1 0x40 MLOAD PUSH3 0x461BCD PUSH1 0xE5 SHL DUP2 MSTORE PUSH1 0x4 ADD PUSH2 0xE42 SWAP1 PUSH2 0x4AD6 JUMP JUMPDEST PUSH1 0x3 SLOAD PUSH1 0xFF AND ISZERO PUSH2 0x1D99 JUMPI PUSH1 0x40 MLOAD PUSH3 0x461BCD PUSH1 0xE5 SHL DUP2 MSTORE PUSH1 0x4 ADD PUSH2 0xE42 SWAP1 PUSH2 0x4B0B JUMP JUMPDEST PUSH1 0x0 PUSH2 0x1DA6 DUP5 DUP5 DUP5 PUSH2 0x32A3 JUMP JUMPDEST SWAP1 POP PUSH1 0x17 SLOAD PUSH1 0x0 EQ PUSH2 0x1E03 JUMPI PUSH1 0x17 SLOAD DUP2 LT PUSH2 0x1E03 JUMPI PUSH1 0x40 MLOAD PUSH3 0x461BCD PUSH1 0xE5 SHL DUP2 MSTORE PUSH1 0x20 PUSH1 0x4 DUP3 ADD MSTORE PUSH1 0x1F PUSH1 0x24 DUP3 ADD MSTORE PUSH32 0x4F6E6C79206261636B77617264206368616E676520697320616C6C6F77656400 PUSH1 0x44 DUP3 ADD MSTORE PUSH1 0x64 ADD PUSH2 0xE42 JUMP JUMPDEST PUSH1 0x17 SSTORE POP POP POP JUMP JUMPDEST PUSH1 0x24 PUSH1 0x20 MSTORE PUSH1 0x0 SWAP1 DUP2 MSTORE PUSH1 0x40 SWAP1 KECCAK256 DUP1 SLOAD PUSH2 0x19DC SWAP1 PUSH2 0x4A5A JUMP JUMPDEST PUSH1 0x1 PUSH1 0x0 MSTORE PUSH1 0x23 PUSH1 0x20 MSTORE PUSH1 0x0 DUP1 MLOAD PUSH1 0x20 PUSH2 0x50BC DUP4 CODECOPY DUP2 MLOAD SWAP2 MSTORE SLOAD PUSH1 0x1 PUSH1 0x1 PUSH1 0xA0 SHL SUB AND CALLER EQ DUP1 PUSH2 0x1E75 JUMPI POP PUSH1 0x3 SLOAD PUSH2 0x100 SWAP1 DIV PUSH1 0x1 PUSH1 0x1 PUSH1 0xA0 SHL SUB AND PUSH1 0x1 PUSH1 0x1 PUSH1 0xA0 SHL SUB AND CALLER PUSH1 0x1 PUSH1 0x1 PUSH1 0xA0 SHL SUB AND EQ JUMPDEST PUSH2 0x1E7E JUMPI PUSH1 0x0 DUP1 REVERT JUMPDEST PUSH1 0x5A PUSH2 0x1E8C PUSH1 0xD SLOAD TIMESTAMP PUSH2 0x382A JUMP JUMPDEST LT ISZERO PUSH2 0x1EAA JUMPI PUSH1 0x40 MLOAD PUSH3 0x461BCD PUSH1 0xE5 SHL DUP2 MSTORE PUSH1 0x4 ADD PUSH2 0xE42 SWAP1 PUSH2 0x4BAD JUMP JUMPDEST PUSH1 0x64 PUSH1 0x32 PUSH2 0x1EBA PUSH1 0x17 SLOAD TIMESTAMP PUSH2 0x382A JUMP JUMPDEST PUSH2 0x1EC4 SWAP2 SWAP1 PUSH2 0x4B4C JUMP JUMPDEST PUSH2 0x1ECE SWAP2 SWAP1 PUSH2 0x4B81 JUMP JUMPDEST PUSH1 0x19 SLOAD LT PUSH2 0x1EEE JUMPI PUSH1 0x40 MLOAD PUSH3 0x461BCD PUSH1 0xE5 SHL DUP2 MSTORE PUSH1 0x4 ADD PUSH2 0xE42 SWAP1 PUSH2 0x4BDD JUMP JUMPDEST PUSH1 0x1E DUP1 SLOAD PUSH1 0x1 PUSH1 0x1 PUSH1 0xA0 SHL SUB SWAP3 DUP4 AND PUSH1 0x1 PUSH1 0x1 PUSH1 0xA0 SHL SUB NOT DUP3 AND DUP2 OR SWAP1 SWAP3 SSTORE SWAP2 SWAP1 SWAP2 AND PUSH1 0x0 DUP2 DUP2 MSTORE PUSH1 0x21 PUSH1 0x20 MSTORE PUSH1 0x40 DUP1 DUP3 KECCAK256 DUP1 SLOAD SWAP5 DUP4 MSTORE SWAP1 DUP3 KECCAK256 SWAP4 SWAP1 SWAP4 SSTORE SWAP1 DUP2 MSTORE SWAP1 SSTORE TIMESTAMP PUSH1 0xD SSTORE JUMP JUMPDEST PUSH1 0x3 SLOAD PUSH1 0x1 PUSH1 0x1 PUSH1 0xA0 SHL SUB PUSH2 0x100 SWAP1 SWAP2 DIV AND CALLER EQ PUSH2 0x1F67 JUMPI PUSH1 0x40 MLOAD PUSH3 0x461BCD PUSH1 0xE5 SHL DUP2 MSTORE PUSH1 0x4 ADD PUSH2 0xE42 SWAP1 PUSH2 0x4AD6 JUMP JUMPDEST PUSH1 0x1F DUP1 SLOAD PUSH1 0x1 PUSH1 0x1 PUSH1 0xA0 SHL SUB SWAP3 DUP4 AND PUSH1 0x1 PUSH1 0x1 PUSH1 0xA0 SHL SUB NOT DUP3 AND DUP2 OR SWAP1 SWAP3 SSTORE SWAP2 SWAP1 SWAP2 AND PUSH1 0x0 DUP2 DUP2 MSTORE PUSH1 0x21 PUSH1 0x20 MSTORE PUSH1 0x40 DUP1 DUP3 KECCAK256 DUP1 SLOAD SWAP5 DUP4 MSTORE SWAP1 DUP3 KECCAK256 SWAP4 SWAP1 SWAP4 SSTORE SWAP1 DUP2 MSTORE SWAP1 SSTORE JUMP JUMPDEST PUSH1 0x0 PUSH2 0x1FB9 DUP7 DUP7 DUP7 PUSH2 0x32A3 JUMP JUMPDEST SWAP1 POP PUSH1 0xFF DUP4 MLOAD GT ISZERO PUSH2 0x2018 JUMPI PUSH1 0x40 MLOAD PUSH3 0x461BCD PUSH1 0xE5 SHL DUP2 MSTORE PUSH1 0x20 PUSH1 0x4 DUP3 ADD MSTORE PUSH1 0x22 PUSH1 0x24 DUP3 ADD MSTORE PUSH32 0x796F7572206D656D6F206D75737420626520657175616C206173206120747769 PUSH1 0x44 DUP3 ADD MSTORE PUSH2 0x1D1D PUSH1 0xF2 SHL PUSH1 0x64 DUP3 ADD MSTORE PUSH1 0x84 ADD PUSH2 0xE42 JUMP JUMPDEST PUSH1 0x0 DUP2 DUP2 MSTORE PUSH1 0x23 PUSH1 0x20 MSTORE PUSH1 0x40 SWAP1 KECCAK256 SLOAD PUSH1 0x1 PUSH1 0x1 PUSH1 0xA0 SHL SUB AND PUSH2 0x207C JUMPI PUSH1 0x40 MLOAD PUSH3 0x461BCD PUSH1 0xE5 SHL DUP2 MSTORE PUSH1 0x20 PUSH1 0x4 DUP3 ADD MSTORE PUSH1 0x1F PUSH1 0x24 DUP3 ADD MSTORE PUSH32 0x546869732064617920646F6573206E6F74206D656D6F72697A65642079657400 PUSH1 0x44 DUP3 ADD MSTORE PUSH1 0x64 ADD PUSH2 0xE42 JUMP JUMPDEST PUSH1 0x0 DUP2 DUP2 MSTORE PUSH1 0x23 PUSH1 0x20 MSTORE PUSH1 0x40 SWAP1 KECCAK256 SLOAD PUSH1 0x1 PUSH1 0x1 PUSH1 0xA0 SHL SUB AND CALLER EQ PUSH2 0x20E2 JUMPI PUSH1 0x40 MLOAD PUSH3 0x461BCD PUSH1 0xE5 SHL DUP2 MSTORE PUSH1 0x20 PUSH1 0x4 DUP3 ADD MSTORE PUSH1 0x17 PUSH1 0x24 DUP3 ADD MSTORE PUSH32 0x596F7520646F6E60742068617665207468697320646179000000000000000000 PUSH1 0x44 DUP3 ADD MSTORE PUSH1 0x64 ADD PUSH2 0xE42 JUMP JUMPDEST PUSH2 0x2105 DUP4 PUSH1 0x40 MLOAD DUP1 PUSH1 0x40 ADD PUSH1 0x40 MSTORE DUP1 PUSH1 0x1 DUP2 MSTORE PUSH1 0x20 ADD PUSH1 0x1 PUSH1 0xFD SHL DUP2 MSTORE POP PUSH2 0x284C JUMP JUMPDEST PUSH2 0x212A JUMPI PUSH1 0x0 DUP2 DUP2 MSTORE PUSH1 0x24 PUSH1 0x20 SWAP1 DUP2 MSTORE PUSH1 0x40 SWAP1 SWAP2 KECCAK256 DUP5 MLOAD PUSH2 0x2128 SWAP3 DUP7 ADD SWAP1 PUSH2 0x428F JUMP JUMPDEST POP JUMPDEST PUSH2 0x214D DUP3 PUSH1 0x40 MLOAD DUP1 PUSH1 0x40 ADD PUSH1 0x40 MSTORE DUP1 PUSH1 0x1 DUP2 MSTORE PUSH1 0x20 ADD PUSH1 0x1 PUSH1 0xFD SHL DUP2 MSTORE POP PUSH2 0x284C JUMP JUMPDEST PUSH2 0x22B3 JUMPI PUSH1 0x40 DUP1 MLOAD DUP1 DUP3 ADD DUP3 MSTORE PUSH1 0x0 DUP1 DUP3 MSTORE PUSH1 0x20 SWAP2 DUP3 ADD MSTORE DUP2 MLOAD DUP1 DUP4 ADD SWAP1 SWAP3 MSTORE DUP4 MLOAD DUP3 MSTORE DUP1 DUP5 ADD SWAP1 DUP3 ADD MSTORE PUSH2 0x223C SWAP1 PUSH2 0x2237 PUSH1 0x5 DUP1 SLOAD PUSH2 0x218C SWAP1 PUSH2 0x4A5A JUMP JUMPDEST DUP1 PUSH1 0x1F ADD PUSH1 0x20 DUP1 SWAP2 DIV MUL PUSH1 0x20 ADD PUSH1 0x40 MLOAD SWAP1 DUP2 ADD PUSH1 0x40 MSTORE DUP1 SWAP3 SWAP2 SWAP1 DUP2 DUP2 MSTORE PUSH1 0x20 ADD DUP3 DUP1 SLOAD PUSH2 0x21B8 SWAP1 PUSH2 0x4A5A JUMP JUMPDEST DUP1 ISZERO PUSH2 0x2205 JUMPI DUP1 PUSH1 0x1F LT PUSH2 0x21DA JUMPI PUSH2 0x100 DUP1 DUP4 SLOAD DIV MUL DUP4 MSTORE SWAP2 PUSH1 0x20 ADD SWAP2 PUSH2 0x2205 JUMP JUMPDEST DUP3 ADD SWAP2 SWAP1 PUSH1 0x0 MSTORE PUSH1 0x20 PUSH1 0x0 KECCAK256 SWAP1 JUMPDEST DUP2 SLOAD DUP2 MSTORE SWAP1 PUSH1 0x1 ADD SWAP1 PUSH1 0x20 ADD DUP1 DUP4 GT PUSH2 0x21E8 JUMPI DUP3 SWAP1 SUB PUSH1 0x1F AND DUP3 ADD SWAP2 JUMPDEST POP POP POP POP POP PUSH1 0x40 DUP1 MLOAD DUP1 DUP3 ADD DUP3 MSTORE PUSH1 0x0 DUP1 DUP3 MSTORE PUSH1 0x20 SWAP2 DUP3 ADD MSTORE DUP2 MLOAD DUP1 DUP4 ADD SWAP1 SWAP3 MSTORE DUP3 MLOAD DUP3 MSTORE SWAP2 DUP3 ADD SWAP2 DUP2 ADD SWAP2 SWAP1 SWAP2 MSTORE SWAP1 JUMP JUMPDEST PUSH2 0x3858 JUMP JUMPDEST PUSH2 0x2292 JUMPI PUSH1 0x40 MLOAD PUSH3 0x461BCD PUSH1 0xE5 SHL DUP2 MSTORE PUSH1 0x20 PUSH1 0x4 DUP3 ADD MSTORE PUSH1 0x21 PUSH1 0x24 DUP3 ADD MSTORE PUSH32 0x616C6C2075726C73206D757374206861766520616C6C6F776564207072656669 PUSH1 0x44 DUP3 ADD MSTORE PUSH1 0xF PUSH1 0xFB SHL PUSH1 0x64 DUP3 ADD MSTORE PUSH1 0x84 ADD PUSH2 0xE42 JUMP JUMPDEST PUSH1 0x0 DUP2 DUP2 MSTORE PUSH1 0x25 PUSH1 0x20 SWAP1 DUP2 MSTORE PUSH1 0x40 SWAP1 SWAP2 KECCAK256 DUP4 MLOAD PUSH2 0x22B1 SWAP3 DUP6 ADD SWAP1 PUSH2 0x428F JUMP JUMPDEST POP JUMPDEST CALLER PUSH1 0x1 PUSH1 0x1 PUSH1 0xA0 SHL SUB AND PUSH32 0x2D51DA4E9AAE0A6EE06DE087193C53FCC2ADA79CD6D25B0D48990840471F0585 DUP5 PUSH1 0x40 MLOAD PUSH2 0x18E2 SWAP2 SWAP1 PUSH2 0x448E JUMP JUMPDEST PUSH1 0x9 DUP1 SLOAD PUSH2 0x19DC SWAP1 PUSH2 0x4A5A JUMP JUMPDEST PUSH1 0x12 DUP2 DUP2 SLOAD DUP2 LT PUSH2 0x2309 JUMPI PUSH1 0x0 DUP1 REVERT JUMPDEST PUSH1 0x0 SWAP2 DUP3 MSTORE PUSH1 0x20 SWAP1 SWAP2 KECCAK256 ADD SLOAD PUSH1 0x1 PUSH1 0x1 PUSH1 0xA0 SHL SUB AND SWAP1 POP DUP2 JUMP JUMPDEST PUSH1 0x3 SLOAD PUSH1 0x1 PUSH1 0x1 PUSH1 0xA0 SHL SUB PUSH2 0x100 SWAP1 SWAP2 DIV AND CALLER EQ PUSH2 0x2353 JUMPI PUSH1 0x40 MLOAD PUSH3 0x461BCD PUSH1 0xE5 SHL DUP2 MSTORE PUSH1 0x4 ADD PUSH2 0xE42 SWAP1 PUSH2 0x4AD6 JUMP JUMPDEST ADDRESS PUSH1 0x0 SWAP1 DUP2 MSTORE PUSH1 0x21 PUSH1 0x20 MSTORE PUSH1 0x40 DUP1 DUP3 KECCAK256 DUP1 SLOAD SWAP1 DUP4 SWAP1 SSTORE SWAP1 MLOAD SWAP1 SWAP2 CALLER SWAP2 DUP4 ISZERO PUSH2 0x8FC MUL SWAP2 DUP5 SWAP2 SWAP1 DUP2 DUP2 DUP2 DUP6 DUP9 DUP9 CALL SWAP4 POP POP POP POP ISZERO DUP1 ISZERO PUSH2 0x2396 JUMPI RETURNDATASIZE PUSH1 0x0 DUP1 RETURNDATACOPY RETURNDATASIZE PUSH1 0x0 REVERT JUMPDEST POP POP JUMP JUMPDEST CALLER PUSH1 0x0 SWAP1 DUP2 MSTORE PUSH1 0x21 PUSH1 0x20 MSTORE PUSH1 0x40 SWAP1 KECCAK256 SLOAD PUSH8 0x16345785D8A0000 GT ISZERO PUSH2 0x2413 JUMPI PUSH1 0x40 MLOAD PUSH3 0x461BCD PUSH1 0xE5 SHL DUP2 MSTORE PUSH1 0x20 PUSH1 0x4 DUP3 ADD MSTORE PUSH1 0x29 PUSH1 0x24 DUP3 ADD MSTORE PUSH32 0x596F7520646F6E60742068617665206D696E2062616C616E636520666F722077 PUSH1 0x44 DUP3 ADD MSTORE PUSH9 0x1A5D1A191C985DD85B PUSH1 0xBA SHL PUSH1 0x64 DUP3 ADD MSTORE PUSH1 0x84 ADD PUSH2 0xE42 JUMP JUMPDEST CALLER PUSH1 0x0 DUP2 DUP2 MSTORE PUSH1 0x21 PUSH1 0x20 MSTORE PUSH1 0x40 DUP1 DUP3 KECCAK256 DUP1 SLOAD SWAP1 DUP4 SWAP1 SSTORE SWAP1 MLOAD SWAP1 SWAP3 DUP4 SWAP3 SWAP1 SWAP2 PUSH32 0x2F174CA282119315C59EFAF21147AEF438581DABDEB498198AE28964373DD8BC SWAP2 SWAP1 LOG3 PUSH1 0x40 MLOAD CALLER SWAP1 DUP3 ISZERO PUSH2 0x8FC MUL SWAP1 DUP4 SWAP1 PUSH1 0x0 DUP2 DUP2 DUP2 DUP6 DUP9 DUP9 CALL SWAP4 POP POP POP POP ISZERO DUP1 ISZERO PUSH2 0x2396 JUMPI RETURNDATASIZE PUSH1 0x0 DUP1 RETURNDATACOPY RETURNDATASIZE PUSH1 0x0 REVERT JUMPDEST PUSH1 0x3 SLOAD PUSH1 0x1 PUSH1 0x1 PUSH1 0xA0 SHL SUB PUSH2 0x100 SWAP1 SWAP2 DIV AND CALLER EQ PUSH2 0x24B2 JUMPI PUSH1 0x40 MLOAD PUSH3 0x461BCD PUSH1 0xE5 SHL DUP2 MSTORE PUSH1 0x4 ADD PUSH2 0xE42 SWAP1 PUSH2 0x4AD6 JUMP JUMPDEST PUSH2 0x1160 PUSH1 0x0 PUSH2 0x389C JUMP JUMPDEST PUSH1 0x5 DUP1 SLOAD PUSH2 0x19DC SWAP1 PUSH2 0x4A5A JUMP JUMPDEST PUSH1 0x3 SLOAD PUSH1 0x1 PUSH1 0x1 PUSH1 0xA0 SHL SUB PUSH2 0x100 SWAP1 SWAP2 DIV AND CALLER EQ PUSH2 0x24F9 JUMPI PUSH1 0x40 MLOAD PUSH3 0x461BCD PUSH1 0xE5 SHL DUP2 MSTORE PUSH1 0x4 ADD PUSH2 0xE42 SWAP1 PUSH2 0x4AD6 JUMP JUMPDEST PUSH1 0x1C DUP1 SLOAD PUSH1 0x1 PUSH1 0x1 PUSH1 0xA0 SHL SUB SWAP3 DUP4 AND PUSH1 0x1 PUSH1 0x1 PUSH1 0xA0 SHL SUB NOT DUP3 AND DUP2 OR SWAP1 SWAP3 SSTORE SWAP2 SWAP1 SWAP2 AND PUSH1 0x0 DUP2 DUP2 MSTORE PUSH1 0x21 PUSH1 0x20 MSTORE PUSH1 0x40 DUP1 DUP3 KECCAK256 DUP1 SLOAD SWAP5 DUP4 MSTORE SWAP1 DUP3 KECCAK256 SWAP4 SWAP1 SWAP4 SSTORE SWAP1 DUP2 MSTORE SWAP1 SSTORE JUMP JUMPDEST PUSH1 0xF DUP1 SLOAD PUSH2 0x19DC SWAP1 PUSH2 0x4A5A JUMP JUMPDEST CALLER PUSH1 0x1 PUSH1 0x1 PUSH1 0xA0 SHL SUB PUSH32 0x0 AND EQ PUSH2 0x25C3 JUMPI PUSH1 0x40 MLOAD PUSH3 0x461BCD PUSH1 0xE5 SHL DUP2 MSTORE PUSH1 0x20 PUSH1 0x4 DUP3 ADD MSTORE PUSH1 0x1F PUSH1 0x24 DUP3 ADD MSTORE PUSH32 0x4F6E6C7920565246436F6F7264696E61746F722063616E2066756C66696C6C00 PUSH1 0x44 DUP3 ADD MSTORE PUSH1 0x64 ADD PUSH2 0xE42 JUMP JUMPDEST PUSH2 0x2396 DUP3 DUP3 PUSH2 0x38F6 JUMP JUMPDEST PUSH2 0x2396 CALLER DUP4 DUP4 PUSH2 0x3A56 JUMP JUMPDEST PUSH1 0x1C SLOAD PUSH1 0x1 PUSH1 0x1 PUSH1 0xA0 SHL SUB AND CALLER EQ PUSH2 0x2626 JUMPI PUSH1 0x40 MLOAD PUSH3 0x461BCD PUSH1 0xE5 SHL DUP2 MSTORE PUSH1 0x20 PUSH1 0x4 DUP3 ADD MSTORE PUSH1 0x11 PUSH1 0x24 DUP3 ADD MSTORE PUSH17 0x1C195C9B5A5CDCDA5BDB8819195B9A5959 PUSH1 0x7A SHL PUSH1 0x44 DUP3 ADD MSTORE PUSH1 0x64 ADD PUSH2 0xE42 JUMP JUMPDEST PUSH2 0x2649 DUP3 PUSH1 0x40 MLOAD DUP1 PUSH1 0x40 ADD PUSH1 0x40 MSTORE DUP1 PUSH1 0x1 DUP2 MSTORE PUSH1 0x20 ADD PUSH1 0x1 PUSH1 0xFD SHL DUP2 MSTORE POP PUSH2 0x284C JUMP JUMPDEST PUSH2 0x2662 JUMPI DUP2 MLOAD PUSH2 0x2660 SWAP1 PUSH1 0x9 SWAP1 PUSH1 0x20 DUP6 ADD SWAP1 PUSH2 0x428F JUMP JUMPDEST POP JUMPDEST PUSH2 0x2685 DUP2 PUSH1 0x40 MLOAD DUP1 PUSH1 0x40 ADD PUSH1 0x40 MSTORE DUP1 PUSH1 0x1 DUP2 MSTORE PUSH1 0x20 ADD PUSH1 0x1 PUSH1 0xFD SHL DUP2 MSTORE POP PUSH2 0x284C JUMP JUMPDEST PUSH2 0x2396 JUMPI DUP1 MLOAD PUSH2 0x269C SWAP1 PUSH1 0x8 SWAP1 PUSH1 0x20 DUP5 ADD SWAP1 PUSH2 0x428F JUMP JUMPDEST POP POP POP JUMP JUMPDEST PUSH1 0x1E SLOAD PUSH1 0x1 PUSH1 0x1 PUSH1 0xA0 SHL SUB AND CALLER EQ PUSH2 0x26CB JUMPI PUSH1 0x40 MLOAD PUSH3 0x461BCD PUSH1 0xE5 SHL DUP2 MSTORE PUSH1 0x4 ADD PUSH2 0xE42 SWAP1 PUSH2 0x4C56 JUMP JUMPDEST DUP1 MLOAD PUSH2 0x2396 SWAP1 PUSH1 0xC SWAP1 PUSH1 0x20 DUP5 ADD SWAP1 PUSH2 0x428F JUMP JUMPDEST PUSH1 0x25 PUSH1 0x20 MSTORE PUSH1 0x0 SWAP1 DUP2 MSTORE PUSH1 0x40 SWAP1 KECCAK256 DUP1 SLOAD PUSH2 0x19DC SWAP1 PUSH2 0x4A5A JUMP JUMPDEST PUSH1 0x1 PUSH1 0x0 MSTORE PUSH1 0x23 PUSH1 0x20 MSTORE PUSH1 0x0 DUP1 MLOAD PUSH1 0x20 PUSH2 0x50BC DUP4 CODECOPY DUP2 MLOAD SWAP2 MSTORE SLOAD PUSH1 0x1 PUSH1 0x1 PUSH1 0xA0 SHL SUB AND CALLER EQ DUP1 PUSH2 0x2748 JUMPI POP PUSH1 0x3 SLOAD PUSH2 0x100 SWAP1 DIV PUSH1 0x1 PUSH1 0x1 PUSH1 0xA0 SHL SUB AND PUSH1 0x1 PUSH1 0x1 PUSH1 0xA0 SHL SUB AND CALLER PUSH1 0x1 PUSH1 0x1 PUSH1 0xA0 SHL SUB AND EQ JUMPDEST PUSH2 0x2751 JUMPI PUSH1 0x0 DUP1 REVERT JUMPDEST PUSH1 0x32 PUSH1 0x6 DUP1 SLOAD PUSH2 0x2760 SWAP1 PUSH2 0x4A5A JUMP JUMPDEST SWAP1 POP GT ISZERO PUSH2 0x27B0 JUMPI PUSH1 0x40 MLOAD PUSH3 0x461BCD PUSH1 0xE5 SHL DUP2 MSTORE PUSH1 0x20 PUSH1 0x4 DUP3 ADD MSTORE PUSH1 0x1A PUSH1 0x24 DUP3 ADD MSTORE PUSH32 0x506C6561736520696E736572742076616C696420737472696E67000000000000 PUSH1 0x44 DUP3 ADD MSTORE PUSH1 0x64 ADD PUSH2 0xE42 JUMP JUMPDEST PUSH2 0x27D3 DUP3 PUSH1 0x40 MLOAD DUP1 PUSH1 0x40 ADD PUSH1 0x40 MSTORE DUP1 PUSH1 0x1 DUP2 MSTORE PUSH1 0x20 ADD PUSH1 0x1 PUSH1 0xFD SHL DUP2 MSTORE POP PUSH2 0x284C JUMP JUMPDEST PUSH2 0x27EC JUMPI DUP2 MLOAD PUSH2 0x27EA SWAP1 PUSH1 0x7 SWAP1 PUSH1 0x20 DUP6 ADD SWAP1 PUSH2 0x428F JUMP JUMPDEST POP JUMPDEST PUSH2 0x280F DUP2 PUSH1 0x40 MLOAD DUP1 PUSH1 0x40 ADD PUSH1 0x40 MSTORE DUP1 PUSH1 0x1 DUP2 MSTORE PUSH1 0x20 ADD PUSH1 0x1 PUSH1 0xFD SHL DUP2 MSTORE POP PUSH2 0x284C JUMP JUMPDEST PUSH2 0x2396 JUMPI DUP1 MLOAD PUSH2 0x269C SWAP1 PUSH1 0x6 SWAP1 PUSH1 0x20 DUP5 ADD SWAP1 PUSH2 0x428F JUMP JUMPDEST PUSH1 0x26 PUSH1 0x20 MSTORE PUSH1 0x0 SWAP1 DUP2 MSTORE PUSH1 0x40 SWAP1 KECCAK256 DUP1 SLOAD PUSH2 0x19DC SWAP1 PUSH2 0x4A5A JUMP JUMPDEST PUSH1 0xA DUP1 SLOAD PUSH2 0x19DC SWAP1 PUSH2 0x4A5A JUMP JUMPDEST PUSH1 0x0 DUP2 PUSH1 0x40 MLOAD PUSH1 0x20 ADD PUSH2 0x285F SWAP2 SWAP1 PUSH2 0x4C9A JUMP JUMPDEST PUSH1 0x40 MLOAD PUSH1 0x20 DUP2 DUP4 SUB SUB DUP2 MSTORE SWAP1 PUSH1 0x40 MSTORE DUP1 MLOAD SWAP1 PUSH1 0x20 ADD KECCAK256 DUP4 PUSH1 0x40 MLOAD PUSH1 0x20 ADD PUSH2 0x2886 SWAP2 SWAP1 PUSH2 0x4C9A JUMP JUMPDEST PUSH1 0x40 MLOAD PUSH1 0x20 DUP2 DUP4 SUB SUB DUP2 MSTORE SWAP1 PUSH1 0x40 MSTORE DUP1 MLOAD SWAP1 PUSH1 0x20 ADD KECCAK256 EQ SWAP1 POP SWAP3 SWAP2 POP POP JUMP JUMPDEST CALLER PUSH1 0x0 SWAP1 DUP2 MSTORE PUSH1 0x26 PUSH1 0x20 SWAP1 DUP2 MSTORE PUSH1 0x40 SWAP1 SWAP2 KECCAK256 DUP3 MLOAD PUSH2 0x2396 SWAP3 DUP5 ADD SWAP1 PUSH2 0x428F JUMP JUMPDEST PUSH1 0x7 DUP1 SLOAD PUSH2 0x19DC SWAP1 PUSH2 0x4A5A JUMP JUMPDEST PUSH1 0x1 PUSH1 0x0 MSTORE PUSH1 0x23 PUSH1 0x20 MSTORE PUSH1 0x0 DUP1 MLOAD PUSH1 0x20 PUSH2 0x50BC DUP4 CODECOPY DUP2 MLOAD SWAP2 MSTORE SLOAD PUSH1 0x1 PUSH1 0x1 PUSH1 0xA0 SHL SUB AND CALLER EQ DUP1 PUSH2 0x2923 JUMPI POP PUSH1 0x3 SLOAD PUSH2 0x100 SWAP1 DIV PUSH1 0x1 PUSH1 0x1 PUSH1 0xA0 SHL SUB AND PUSH1 0x1 PUSH1 0x1 PUSH1 0xA0 SHL SUB AND CALLER PUSH1 0x1 PUSH1 0x1 PUSH1 0xA0 SHL SUB AND EQ JUMPDEST PUSH2 0x292C JUMPI PUSH1 0x0 DUP1 REVERT JUMPDEST PUSH1 0x14 SLOAD PUSH2 0x293B PUSH1 0x16 SLOAD TIMESTAMP PUSH2 0x382A JUMP JUMPDEST LT ISZERO PUSH2 0x2959 JUMPI PUSH1 0x40 MLOAD PUSH3 0x461BCD PUSH1 0xE5 SHL DUP2 MSTORE PUSH1 0x4 ADD PUSH2 0xE42 SWAP1 PUSH2 0x4BAD JUMP JUMPDEST PUSH1 0x1 PUSH1 0x1 PUSH1 0xA0 SHL SUB DUP2 AND PUSH1 0x0 SWAP1 DUP2 MSTORE PUSH1 0x22 PUSH1 0x20 MSTORE PUSH1 0x40 SWAP1 KECCAK256 SLOAD ISZERO PUSH2 0x29BF JUMPI PUSH1 0x40 MLOAD PUSH3 0x461BCD PUSH1 0xE5 SHL DUP2 MSTORE PUSH1 0x20 PUSH1 0x4 DUP3 ADD DUP2 SWAP1 MSTORE PUSH1 0x24 DUP3 ADD MSTORE PUSH32 0x546869732061646472657373206861732061697264726F70207469636B657473 PUSH1 0x44 DUP3 ADD MSTORE PUSH1 0x64 ADD PUSH2 0xE42 JUMP JUMPDEST TIMESTAMP PUSH1 0x16 SSTORE PUSH1 0x1 PUSH1 0x1 PUSH1 0xA0 SHL SUB DUP2 AND PUSH1 0x0 DUP2 DUP2 MSTORE PUSH1 0x22 PUSH1 0x20 MSTORE PUSH1 0x40 DUP1 DUP3 KECCAK256 PUSH1 0x1 SWAP1 SSTORE MLOAD PUSH32 0xA7ED43B05099870297BDFE95B76A9DB44435371840C02583E4A9099B58F3B8BF SWAP2 SWAP1 LOG2 POP JUMP JUMPDEST PUSH1 0x3 SLOAD PUSH1 0x1 PUSH1 0x1 PUSH1 0xA0 SHL SUB PUSH2 0x100 SWAP1 SWAP2 DIV AND CALLER EQ PUSH2 0x2A38 JUMPI PUSH1 0x40 MLOAD PUSH3 0x461BCD PUSH1 0xE5 SHL DUP2 MSTORE PUSH1 0x4 ADD PUSH2 0xE42 SWAP1 PUSH2 0x4AD6 JUMP JUMPDEST PUSH1 0x20 DUP1 SLOAD PUSH1 0x1 PUSH1 0x1 PUSH1 0xA0 SHL SUB SWAP3 DUP4 AND PUSH1 0x1 PUSH1 0x1 PUSH1 0xA0 SHL SUB NOT DUP3 AND DUP2 OR DUP4 SSTORE SWAP3 AND PUSH1 0x0 DUP2 DUP2 MSTORE PUSH1 0x21 SWAP1 SWAP3 MSTORE PUSH1 0x40 DUP1 DUP4 KECCAK256 DUP1 SLOAD SWAP5 DUP5 MSTORE SWAP1 DUP4 KECCAK256 SWAP4 SWAP1 SWAP4 SSTORE DUP2 MSTORE SWAP1 SSTORE JUMP JUMPDEST PUSH1 0x3 SLOAD PUSH1 0xFF AND ISZERO PUSH2 0x2A9C JUMPI PUSH1 0x40 MLOAD PUSH3 0x461BCD PUSH1 0xE5 SHL DUP2 MSTORE PUSH1 0x4 ADD PUSH2 0xE42 SWAP1 PUSH2 0x4B0B JUMP JUMPDEST PUSH1 0x13 SLOAD PUSH2 0x2AAB PUSH1 0x15 SLOAD TIMESTAMP PUSH2 0x382A JUMP JUMPDEST LT ISZERO PUSH2 0x2AC9 JUMPI PUSH1 0x40 MLOAD PUSH3 0x461BCD PUSH1 0xE5 SHL DUP2 MSTORE PUSH1 0x4 ADD PUSH2 0xE42 SWAP1 PUSH2 0x4BAD JUMP JUMPDEST PUSH1 0x12 SLOAD PUSH1 0x1 LT PUSH2 0x2B1B JUMPI PUSH1 0x40 MLOAD PUSH3 0x461BCD PUSH1 0xE5 SHL DUP2 MSTORE PUSH1 0x20 PUSH1 0x4 DUP3 ADD MSTORE PUSH1 0x1D PUSH1 0x24 DUP3 ADD MSTORE PUSH32 0x7468657265206973206E6F7420656E6F75676820726567697374657273000000 PUSH1 0x44 DUP3 ADD MSTORE PUSH1 0x64 ADD PUSH2 0xE42 JUMP JUMPDEST TIMESTAMP PUSH1 0x15 SSTORE PUSH1 0x1B SLOAD PUSH1 0x1A SLOAD PUSH1 0x0 SWAP2 PUSH2 0x2B31 SWAP2 PUSH2 0x3B37 JUMP JUMPDEST SWAP1 POP PUSH32 0x41B48BB4A3FA87F36CD1B5550EF4AF0E4C2568EA37629540B9209F5509B4A42F DUP2 PUSH1 0x40 MLOAD PUSH2 0x2B64 SWAP2 DUP2 MSTORE PUSH1 0x20 ADD SWAP1 JUMP JUMPDEST PUSH1 0x40 MLOAD DUP1 SWAP2 SUB SWAP1 LOG1 POP JUMP JUMPDEST PUSH1 0x12 SLOAD PUSH1 0x60 SWAP1 PUSH1 0x0 SWAP1 PUSH1 0x1 PUSH1 0x1 PUSH1 0x40 SHL SUB DUP2 GT ISZERO PUSH2 0x2B8F JUMPI PUSH2 0x2B8F PUSH2 0x459D JUMP JUMPDEST PUSH1 0x40 MLOAD SWAP1 DUP1 DUP3 MSTORE DUP1 PUSH1 0x20 MUL PUSH1 0x20 ADD DUP3 ADD PUSH1 0x40 MSTORE DUP1 ISZERO PUSH2 0x2BB8 JUMPI DUP2 PUSH1 0x20 ADD PUSH1 0x20 DUP3 MUL DUP1 CALLDATASIZE DUP4 CALLDATACOPY ADD SWAP1 POP JUMPDEST POP SWAP1 POP PUSH1 0x0 JUMPDEST PUSH1 0x12 SLOAD DUP2 LT ISZERO PUSH2 0x2C35 JUMPI PUSH1 0x12 DUP2 DUP2 SLOAD DUP2 LT PUSH2 0x2BDB JUMPI PUSH2 0x2BDB PUSH2 0x4A8F JUMP JUMPDEST SWAP1 PUSH1 0x0 MSTORE PUSH1 0x20 PUSH1 0x0 KECCAK256 ADD PUSH1 0x0 SWAP1 SLOAD SWAP1 PUSH2 0x100 EXP SWAP1 DIV PUSH1 0x1 PUSH1 0x1 PUSH1 0xA0 SHL SUB AND DUP3 DUP3 DUP2 MLOAD DUP2 LT PUSH2 0x2C0B JUMPI PUSH2 0x2C0B PUSH2 0x4A8F JUMP JUMPDEST PUSH1 0x1 PUSH1 0x1 PUSH1 0xA0 SHL SUB SWAP1 SWAP3 AND PUSH1 0x20 SWAP3 DUP4 MUL SWAP2 SWAP1 SWAP2 ADD SWAP1 SWAP2 ADD MSTORE DUP1 PUSH2 0x2C2D DUP2 PUSH2 0x4ABB JUMP JUMPDEST SWAP2 POP POP PUSH2 0x2BBE JUMP JUMPDEST POP SWAP2 SWAP1 POP JUMP JUMPDEST PUSH1 0x1 PUSH1 0x1 PUSH1 0xA0 SHL SUB DUP2 AND PUSH2 0x2C4C JUMPI POP CALLER JUMPDEST PUSH1 0x20 SLOAD PUSH1 0x1 PUSH1 0x1 PUSH1 0xA0 SHL SUB DUP3 DUP2 AND SWAP2 AND EQ PUSH2 0x2CC3 JUMPI PUSH2 0x2C69 PUSH2 0x1A8B JUMP JUMPDEST CALLVALUE LT ISZERO PUSH2 0x2CC3 JUMPI PUSH1 0x40 MLOAD PUSH3 0x461BCD PUSH1 0xE5 SHL DUP2 MSTORE PUSH1 0x20 PUSH1 0x4 DUP3 ADD MSTORE PUSH1 0x22 PUSH1 0x24 DUP3 ADD MSTORE PUSH32 0x4E6F7420656E6F7567682066756E647320746F206D696E7420656C6563746F72 PUSH1 0x44 DUP3 ADD MSTORE PUSH2 0x185B PUSH1 0xF2 SHL PUSH1 0x64 DUP3 ADD MSTORE PUSH1 0x84 ADD PUSH2 0xE42 JUMP JUMPDEST PUSH1 0x1 PUSH1 0x0 MSTORE PUSH1 0x23 PUSH1 0x20 MSTORE PUSH1 0x0 DUP1 MLOAD PUSH1 0x20 PUSH2 0x50BC DUP4 CODECOPY DUP2 MLOAD SWAP2 MSTORE SLOAD PUSH1 0x1 PUSH1 0x1 PUSH1 0xA0 SHL SUB AND ISZERO PUSH2 0x2D26 JUMPI PUSH1 0x40 MLOAD PUSH3 0x461BCD PUSH1 0xE5 SHL DUP2 MSTORE PUSH1 0x20 PUSH1 0x4 DUP3 ADD MSTORE PUSH1 0x10 PUSH1 0x24 DUP3 ADD MSTORE PUSH16 0x115B1958DD1BDC985B081B5A5B9D1959 PUSH1 0x82 SHL PUSH1 0x44 DUP3 ADD MSTORE PUSH1 0x64 ADD PUSH2 0xE42 JUMP JUMPDEST PUSH2 0x2D42 DUP2 PUSH1 0x1 DUP1 PUSH1 0x40 MLOAD DUP1 PUSH1 0x20 ADD PUSH1 0x40 MSTORE DUP1 PUSH1 0x0 DUP2 MSTORE POP PUSH2 0x3539 JUMP JUMPDEST PUSH1 0x0 DUP1 MLOAD PUSH1 0x20 PUSH2 0x50BC DUP4 CODECOPY DUP2 MLOAD SWAP2 MSTORE DUP1 SLOAD PUSH1 0x1 PUSH1 0x1 PUSH1 0xA0 SHL SUB NOT AND PUSH1 0x1 PUSH1 0x1 PUSH1 0xA0 SHL SUB DUP4 DUP2 AND SWAP2 SWAP1 SWAP2 OR SWAP1 SWAP2 SSTORE PUSH1 0x20 DUP1 SLOAD SWAP1 SWAP2 AND PUSH1 0x0 SWAP1 DUP2 MSTORE PUSH1 0x21 SWAP1 SWAP2 MSTORE PUSH1 0x40 SWAP1 KECCAK256 SLOAD PUSH2 0x2D90 SWAP1 CALLVALUE SWAP1 PUSH2 0x4B95 JUMP JUMPDEST PUSH1 0x20 DUP1 SLOAD PUSH1 0x1 PUSH1 0x1 PUSH1 0xA0 SHL SUB AND PUSH1 0x0 SWAP1 DUP2 MSTORE PUSH1 0x21 SWAP1 SWAP2 MSTORE PUSH1 0x40 DUP2 KECCAK256 DUP1 SLOAD SWAP1 SWAP2 SWAP1 PUSH2 0x2DBB SWAP1 DUP5 SWAP1 PUSH2 0x4B95 JUMP JUMPDEST SWAP1 SWAP2 SSTORE POP POP PUSH1 0x1 PUSH1 0x1 PUSH1 0xA0 SHL SUB DUP2 AND PUSH1 0x0 SWAP1 DUP2 MSTORE PUSH1 0x22 PUSH1 0x20 MSTORE PUSH1 0x40 SWAP1 KECCAK256 SLOAD PUSH2 0x2DE5 SWAP1 PUSH1 0x14 SWAP1 PUSH2 0x4B95 JUMP JUMPDEST PUSH1 0x1 PUSH1 0x1 PUSH1 0xA0 SHL SUB SWAP1 SWAP2 AND PUSH1 0x0 SWAP1 DUP2 MSTORE PUSH1 0x22 PUSH1 0x20 MSTORE PUSH1 0x40 SWAP1 KECCAK256 SSTORE JUMP JUMPDEST PUSH1 0x1 PUSH1 0x1 PUSH1 0xA0 SHL SUB DUP6 AND CALLER EQ DUP1 PUSH2 0x2E1D JUMPI POP PUSH2 0x2E1D DUP6 CALLER PUSH2 0xC6E JUMP JUMPDEST PUSH2 0x2E7B JUMPI PUSH1 0x40 MLOAD PUSH3 0x461BCD PUSH1 0xE5 SHL DUP2 MSTORE PUSH1 0x20 PUSH1 0x4 DUP3 ADD MSTORE PUSH1 0x29 PUSH1 0x24 DUP3 ADD MSTORE PUSH32 0x455243313135353A2063616C6C6572206973206E6F74206F776E6572206E6F72 PUSH1 0x44 DUP3 ADD MSTORE PUSH9 0x8185C1C1C9BDD9959 PUSH1 0xBA SHL PUSH1 0x64 DUP3 ADD MSTORE PUSH1 0x84 ADD PUSH2 0xE42 JUMP JUMPDEST PUSH2 0x2E88 DUP6 DUP6 DUP6 DUP6 DUP6 PUSH2 0x3CB3 JUMP JUMPDEST PUSH1 0x0 DUP4 DUP2 MSTORE PUSH1 0x23 PUSH1 0x20 SWAP1 DUP2 MSTORE PUSH1 0x40 DUP1 DUP4 KECCAK256 DUP1 SLOAD PUSH1 0x1 PUSH1 0x1 PUSH1 0xA0 SHL SUB NOT AND PUSH1 0x1 PUSH1 0x1 PUSH1 0xA0 SHL SUB DUP10 DUP2 AND SWAP2 DUP3 OR SWAP1 SWAP3 SSTORE SWAP1 DUP10 AND DUP5 MSTORE PUSH1 0x21 SWAP1 SWAP3 MSTORE DUP1 DUP4 KECCAK256 SLOAD SWAP2 DUP4 MSTORE SWAP1 SWAP2 KECCAK256 SLOAD PUSH2 0x2ED5 SWAP2 SWAP1 PUSH2 0x4B95 JUMP JUMPDEST PUSH1 0x1 PUSH1 0x1 PUSH1 0xA0 SHL SUB SWAP5 DUP6 AND PUSH1 0x0 SWAP1 DUP2 MSTORE PUSH1 0x21 PUSH1 0x20 MSTORE PUSH1 0x40 DUP1 DUP3 KECCAK256 SWAP3 SWAP1 SWAP3 SSTORE SWAP6 SWAP1 SWAP5 AND DUP6 MSTORE POP POP POP DUP2 KECCAK256 SSTORE JUMP JUMPDEST PUSH1 0x3 SLOAD PUSH1 0x1 PUSH1 0x1 PUSH1 0xA0 SHL SUB PUSH2 0x100 SWAP1 SWAP2 DIV AND CALLER EQ PUSH2 0x2F31 JUMPI PUSH1 0x40 MLOAD PUSH3 0x461BCD PUSH1 0xE5 SHL DUP2 MSTORE PUSH1 0x4 ADD PUSH2 0xE42 SWAP1 PUSH2 0x4AD6 JUMP JUMPDEST PUSH1 0x1 PUSH1 0x1 PUSH1 0xA0 SHL SUB DUP2 AND PUSH2 0x2F96 JUMPI PUSH1 0x40 MLOAD PUSH3 0x461BCD PUSH1 0xE5 SHL DUP2 MSTORE PUSH1 0x20 PUSH1 0x4 DUP3 ADD MSTORE PUSH1 0x26 PUSH1 0x24 DUP3 ADD MSTORE PUSH32 0x4F776E61626C653A206E6577206F776E657220697320746865207A65726F2061 PUSH1 0x44 DUP3 ADD MSTORE PUSH6 0x646472657373 PUSH1 0xD0 SHL PUSH1 0x64 DUP3 ADD MSTORE PUSH1 0x84 ADD PUSH2 0xE42 JUMP JUMPDEST PUSH2 0x2F9F DUP2 PUSH2 0x389C JUMP JUMPDEST POP JUMP JUMPDEST PUSH1 0x1D SLOAD PUSH1 0x1 PUSH1 0x1 PUSH1 0xA0 SHL SUB AND CALLER EQ PUSH2 0x2FCC JUMPI PUSH1 0x40 MLOAD PUSH3 0x461BCD PUSH1 0xE5 SHL DUP2 MSTORE PUSH1 0x4 ADD PUSH2 0xE42 SWAP1 PUSH2 0x4C56 JUMP JUMPDEST DUP1 MLOAD PUSH2 0x2396 SWAP1 PUSH1 0xA SWAP1 PUSH1 0x20 DUP5 ADD SWAP1 PUSH2 0x428F JUMP JUMPDEST PUSH1 0x3 SLOAD PUSH1 0x1 PUSH1 0x1 PUSH1 0xA0 SHL SUB PUSH2 0x100 SWAP1 SWAP2 DIV AND CALLER EQ PUSH2 0x300F JUMPI PUSH1 0x40 MLOAD PUSH3 0x461BCD PUSH1 0xE5 SHL DUP2 MSTORE PUSH1 0x4 ADD PUSH2 0xE42 SWAP1 PUSH2 0x4AD6 JUMP JUMPDEST DUP1 MLOAD PUSH2 0x2396 SWAP1 PUSH1 0x5 SWAP1 PUSH1 0x20 DUP5 ADD SWAP1 PUSH2 0x428F JUMP JUMPDEST PUSH1 0x3 SLOAD PUSH1 0xFF AND ISZERO PUSH2 0x3045 JUMPI PUSH1 0x40 MLOAD PUSH3 0x461BCD PUSH1 0xE5 SHL DUP2 MSTORE PUSH1 0x4 ADD PUSH2 0xE42 SWAP1 PUSH2 0x4B0B JUMP JUMPDEST PUSH1 0x1 PUSH1 0x0 JUMPDEST PUSH1 0x12 SLOAD DUP2 LT ISZERO PUSH2 0x30A3 JUMPI CALLER PUSH1 0x1 PUSH1 0x1 PUSH1 0xA0 SHL SUB AND PUSH1 0x12 DUP3 DUP2 SLOAD DUP2 LT PUSH2 0x3071 JUMPI PUSH2 0x3071 PUSH2 0x4A8F JUMP JUMPDEST PUSH1 0x0 SWAP2 DUP3 MSTORE PUSH1 0x20 SWAP1 SWAP2 KECCAK256 ADD SLOAD PUSH1 0x1 PUSH1 0x1 PUSH1 0xA0 SHL SUB AND EQ ISZERO PUSH2 0x3091 JUMPI PUSH1 0x0 SWAP2 POP JUMPDEST DUP1 PUSH2 0x309B DUP2 PUSH2 0x4ABB JUMP JUMPDEST SWAP2 POP POP PUSH2 0x304A JUMP JUMPDEST POP DUP1 PUSH2 0x310A JUMPI PUSH1 0x40 MLOAD PUSH3 0x461BCD PUSH1 0xE5 SHL DUP2 MSTORE PUSH1 0x20 PUSH1 0x4 DUP3 ADD MSTORE PUSH1 0x30 PUSH1 0x24 DUP3 ADD MSTORE PUSH32 0x596F7520616C72656164792068617665206265656E2072656769737465726564 PUSH1 0x44 DUP3 ADD MSTORE PUSH16 0x8199BDC881D1A1A5CC81C195C9A5BD9 PUSH1 0x82 SHL PUSH1 0x64 DUP3 ADD MSTORE PUSH1 0x84 ADD PUSH2 0xE42 JUMP JUMPDEST PUSH1 0x12 DUP1 SLOAD PUSH1 0x1 DUP2 ADD DUP3 SSTORE PUSH1 0x0 SWAP2 DUP3 MSTORE PUSH32 0xBB8A6A4669BA250D26CD7A459ECA9D215F8307E33AEBE50379BC5A3617EC3444 ADD DUP1 SLOAD PUSH1 0x1 PUSH1 0x1 PUSH1 0xA0 SHL SUB NOT AND CALLER SWAP1 DUP2 OR SWAP1 SWAP2 SSTORE PUSH1 0x40 MLOAD SWAP1 SWAP2 PUSH32 0x8763D150E61C30DC82433D4A2F1D40E27C2F2CC299E99D3429D23A1227659FDE SWAP2 LOG2 POP JUMP JUMPDEST PUSH1 0x0 DUP1 PUSH1 0xE PUSH1 0x0 SWAP1 SLOAD SWAP1 PUSH2 0x100 EXP SWAP1 DIV PUSH1 0x1 PUSH1 0x1 PUSH1 0xA0 SHL SUB AND PUSH1 0x1 PUSH1 0x1 PUSH1 0xA0 SHL SUB AND PUSH4 0xFEAF968C PUSH1 0x40 MLOAD DUP2 PUSH4 0xFFFFFFFF AND PUSH1 0xE0 SHL DUP2 MSTORE PUSH1 0x4 ADD PUSH1 0xA0 PUSH1 0x40 MLOAD DUP1 DUP4 SUB DUP2 DUP7 GAS STATICCALL ISZERO DUP1 ISZERO PUSH2 0x31CF JUMPI RETURNDATASIZE PUSH1 0x0 DUP1 RETURNDATACOPY RETURNDATASIZE PUSH1 0x0 REVERT JUMPDEST POP POP POP POP PUSH1 0x40 MLOAD RETURNDATASIZE PUSH1 0x1F NOT PUSH1 0x1F DUP3 ADD AND DUP3 ADD DUP1 PUSH1 0x40 MSTORE POP DUP2 ADD SWAP1 PUSH2 0x31F3 SWAP2 SWAP1 PUSH2 0x4CD0 JUMP JUMPDEST POP POP POP SWAP2 POP POP PUSH1 0x0 DUP2 PUSH5 0x2540BE400 PUSH2 0x320C SWAP2 SWAP1 PUSH2 0x4B4C JUMP JUMPDEST SWAP1 POP DUP1 PUSH1 0x11 SLOAD PUSH8 0xDE0B6B3A7640000 PUSH2 0x3225 SWAP2 SWAP1 PUSH2 0x4B4C JUMP JUMPDEST PUSH2 0x322F SWAP2 SWAP1 PUSH2 0x4B81 JUMP JUMPDEST SWAP3 POP POP POP SWAP1 JUMP JUMPDEST PUSH1 0x6 DUP1 SLOAD PUSH2 0x19DC SWAP1 PUSH2 0x4A5A JUMP JUMPDEST PUSH1 0x3 SLOAD PUSH1 0x1 PUSH1 0x1 PUSH1 0xA0 SHL SUB PUSH2 0x100 SWAP1 SWAP2 DIV AND CALLER EQ PUSH2 0x3273 JUMPI PUSH1 0x40 MLOAD PUSH3 0x461BCD PUSH1 0xE5 SHL DUP2 MSTORE PUSH1 0x4 ADD PUSH2 0xE42 SWAP1 PUSH2 0x4AD6 JUMP JUMPDEST PUSH2 0x1160 PUSH2 0x3E0E JUMP JUMPDEST PUSH1 0x0 PUSH2 0x328A PUSH3 0x15180 DUP4 PUSH2 0x4B4C JUMP JUMPDEST PUSH2 0x3294 SWAP1 DUP5 PUSH2 0x4B35 JUMP JUMPDEST SWAP1 POP DUP3 DUP2 GT ISZERO PUSH2 0xE6E JUMPI PUSH1 0x0 DUP1 REVERT JUMPDEST PUSH1 0x0 PUSH3 0x15180 PUSH2 0x32B4 DUP6 DUP6 DUP6 PUSH2 0x3E88 JUMP JUMPDEST PUSH2 0xED1 SWAP2 SWAP1 PUSH2 0x4B4C JUMP JUMPDEST PUSH1 0x0 PUSH2 0x32CB PUSH1 0x4 DUP4 PUSH2 0x4D20 JUMP JUMPDEST ISZERO DUP1 ISZERO PUSH2 0x32E1 JUMPI POP PUSH2 0x32DE PUSH1 0x64 DUP4 PUSH2 0x4D20 JUMP JUMPDEST ISZERO ISZERO JUMPDEST DUP1 PUSH2 0xE6E JUMPI POP PUSH2 0x32F3 PUSH2 0x190 DUP4 PUSH2 0x4D20 JUMP JUMPDEST ISZERO SWAP3 SWAP2 POP POP JUMP JUMPDEST EXTCODESIZE ISZERO ISZERO SWAP1 JUMP JUMPDEST PUSH1 0x3 SLOAD PUSH1 0xFF AND ISZERO PUSH2 0x3323 JUMPI PUSH1 0x40 MLOAD PUSH3 0x461BCD PUSH1 0xE5 SHL DUP2 MSTORE PUSH1 0x4 ADD PUSH2 0xE42 SWAP1 PUSH2 0x4B0B JUMP JUMPDEST PUSH1 0x3 DUP1 SLOAD PUSH1 0xFF NOT AND PUSH1 0x1 OR SWAP1 SSTORE PUSH32 0x62E78CEA01BEE320CD4E420270B5EA74000D11B0C9F74754EBDBFC544B05A258 PUSH2 0x3358 CALLER SWAP1 JUMP JUMPDEST PUSH1 0x40 MLOAD PUSH1 0x1 PUSH1 0x1 PUSH1 0xA0 SHL SUB SWAP1 SWAP2 AND DUP2 MSTORE PUSH1 0x20 ADD PUSH1 0x40 MLOAD DUP1 SWAP2 SUB SWAP1 LOG1 JUMP JUMPDEST PUSH1 0x0 PUSH2 0x3381 DUP3 DUP5 PUSH2 0x4B81 JUMP JUMPDEST SWAP1 POP PUSH1 0x0 JUMPDEST DUP3 DUP2 LT ISZERO PUSH2 0x3533 JUMPI PUSH1 0x19 DUP1 SLOAD PUSH1 0x0 SWAP2 DUP4 PUSH2 0x33A1 PUSH1 0x1 DUP5 PUSH2 0x4B35 JUMP JUMPDEST PUSH2 0x33AB SWAP2 SWAP1 PUSH2 0x4B35 JUMP JUMPDEST DUP2 SLOAD DUP2 LT PUSH2 0x33BB JUMPI PUSH2 0x33BB PUSH2 0x4A8F JUMP JUMPDEST SWAP1 PUSH1 0x0 MSTORE PUSH1 0x20 PUSH1 0x0 KECCAK256 ADD SLOAD PUSH2 0x33D0 SWAP2 SWAP1 PUSH2 0x4D20 JUMP JUMPDEST SWAP1 POP DUP3 PUSH1 0x21 PUSH1 0x0 PUSH1 0x23 PUSH1 0x0 PUSH1 0x19 DUP7 DUP2 SLOAD DUP2 LT PUSH2 0x33EE JUMPI PUSH2 0x33EE PUSH2 0x4A8F JUMP JUMPDEST PUSH1 0x0 SWAP2 DUP3 MSTORE PUSH1 0x20 DUP1 DUP4 KECCAK256 SWAP1 SWAP2 ADD SLOAD DUP4 MSTORE DUP3 DUP2 ADD SWAP4 SWAP1 SWAP4 MSTORE PUSH1 0x40 SWAP2 DUP3 ADD DUP2 KECCAK256 SLOAD PUSH1 0x1 PUSH1 0x1 PUSH1 0xA0 SHL SUB AND DUP5 MSTORE SWAP2 DUP4 ADD SWAP4 SWAP1 SWAP4 MSTORE SWAP2 ADD SWAP1 KECCAK256 SLOAD PUSH2 0x342E SWAP2 SWAP1 PUSH2 0x4B95 JUMP JUMPDEST PUSH1 0x21 PUSH1 0x0 PUSH1 0x23 PUSH1 0x0 PUSH1 0x19 DUP7 DUP2 SLOAD DUP2 LT PUSH2 0x3449 JUMPI PUSH2 0x3449 PUSH2 0x4A8F JUMP JUMPDEST SWAP1 PUSH1 0x0 MSTORE PUSH1 0x20 PUSH1 0x0 KECCAK256 ADD SLOAD DUP2 MSTORE PUSH1 0x20 ADD SWAP1 DUP2 MSTORE PUSH1 0x20 ADD PUSH1 0x0 KECCAK256 PUSH1 0x0 SWAP1 SLOAD SWAP1 PUSH2 0x100 EXP SWAP1 DIV PUSH1 0x1 PUSH1 0x1 PUSH1 0xA0 SHL SUB AND PUSH1 0x1 PUSH1 0x1 PUSH1 0xA0 SHL SUB AND PUSH1 0x1 PUSH1 0x1 PUSH1 0xA0 SHL SUB AND DUP2 MSTORE PUSH1 0x20 ADD SWAP1 DUP2 MSTORE PUSH1 0x20 ADD PUSH1 0x0 KECCAK256 DUP2 SWAP1 SSTORE POP PUSH1 0x23 PUSH1 0x0 PUSH1 0x19 DUP4 DUP2 SLOAD DUP2 LT PUSH2 0x34B1 JUMPI PUSH2 0x34B1 PUSH2 0x4A8F JUMP JUMPDEST SWAP1 PUSH1 0x0 MSTORE PUSH1 0x20 PUSH1 0x0 KECCAK256 ADD SLOAD DUP2 MSTORE PUSH1 0x20 ADD SWAP1 DUP2 MSTORE PUSH1 0x20 ADD PUSH1 0x0 KECCAK256 PUSH1 0x0 SWAP1 SLOAD SWAP1 PUSH2 0x100 EXP SWAP1 DIV PUSH1 0x1 PUSH1 0x1 PUSH1 0xA0 SHL SUB AND PUSH1 0x1 PUSH1 0x1 PUSH1 0xA0 SHL SUB AND PUSH32 0x82F488A506EEF1AE41AB6416C21B3C7D45C27AE08A79F01AE6E869347B1E29A0 DUP5 PUSH1 0x40 MLOAD PUSH2 0x3518 SWAP2 DUP2 MSTORE PUSH1 0x20 ADD SWAP1 JUMP JUMPDEST PUSH1 0x40 MLOAD DUP1 SWAP2 SUB SWAP1 LOG2 POP DUP1 PUSH2 0x352B DUP2 PUSH2 0x4ABB JUMP JUMPDEST SWAP2 POP POP PUSH2 0x3386 JUMP JUMPDEST POP POP POP POP JUMP JUMPDEST PUSH1 0x1 PUSH1 0x1 PUSH1 0xA0 SHL SUB DUP5 AND PUSH2 0x3599 JUMPI PUSH1 0x40 MLOAD PUSH3 0x461BCD PUSH1 0xE5 SHL DUP2 MSTORE PUSH1 0x20 PUSH1 0x4 DUP3 ADD MSTORE PUSH1 0x21 PUSH1 0x24 DUP3 ADD MSTORE PUSH32 0x455243313135353A206D696E7420746F20746865207A65726F20616464726573 PUSH1 0x44 DUP3 ADD MSTORE PUSH1 0x73 PUSH1 0xF8 SHL PUSH1 0x64 DUP3 ADD MSTORE PUSH1 0x84 ADD PUSH2 0xE42 JUMP JUMPDEST CALLER PUSH2 0x35B9 DUP2 PUSH1 0x0 DUP8 PUSH2 0x35AA DUP9 PUSH2 0x3FC5 JUMP JUMPDEST PUSH2 0x35B3 DUP9 PUSH2 0x3FC5 JUMP JUMPDEST DUP8 PUSH2 0x4010 JUMP JUMPDEST PUSH1 0x0 DUP5 DUP2 MSTORE PUSH1 0x20 DUP2 DUP2 MSTORE PUSH1 0x40 DUP1 DUP4 KECCAK256 PUSH1 0x1 PUSH1 0x1 PUSH1 0xA0 SHL SUB DUP10 AND DUP5 MSTORE SWAP1 SWAP2 MSTORE DUP2 KECCAK256 DUP1 SLOAD DUP6 SWAP3 SWAP1 PUSH2 0x35E9 SWAP1 DUP5 SWAP1 PUSH2 0x4B95 JUMP JUMPDEST SWAP1 SWAP2 SSTORE POP POP PUSH1 0x40 DUP1 MLOAD DUP6 DUP2 MSTORE PUSH1 0x20 DUP2 ADD DUP6 SWAP1 MSTORE PUSH1 0x1 PUSH1 0x1 PUSH1 0xA0 SHL SUB DUP1 DUP9 AND SWAP3 PUSH1 0x0 SWAP3 SWAP2 DUP6 AND SWAP2 PUSH32 0xC3D58168C5AE7397731D063D5BBF3D657854427343F4C083240F7AACAA2D0F62 SWAP2 ADD PUSH1 0x40 MLOAD DUP1 SWAP2 SUB SWAP1 LOG4 PUSH2 0x19C8 DUP2 PUSH1 0x0 DUP8 DUP8 DUP8 DUP8 PUSH2 0x4078 JUMP JUMPDEST PUSH1 0x19 SLOAD PUSH2 0x3E8 GT PUSH2 0x1160 JUMPI PUSH1 0x1E PUSH1 0x13 SSTORE JUMP JUMPDEST PUSH10 0x152D02C7E14AF6800000 PUSH1 0x11 SLOAD LT ISZERO PUSH2 0x1160 JUMPI PUSH1 0x19 SLOAD PUSH2 0x367F SWAP1 PUSH2 0x5B4 SWAP1 PUSH2 0x4D20 JUMP JUMPDEST PUSH2 0x3695 JUMPI PUSH1 0x10 SLOAD PUSH2 0x3691 SWAP1 PUSH1 0x2 PUSH2 0x4B4C JUMP JUMPDEST PUSH1 0x10 SSTORE JUMPDEST PUSH1 0x19 SLOAD PUSH2 0x36A5 SWAP1 PUSH2 0x16D SWAP1 PUSH2 0x4D20 JUMP JUMPDEST PUSH2 0x36BD JUMPI PUSH1 0x10 SLOAD PUSH1 0x11 SLOAD PUSH2 0x36B9 SWAP2 SWAP1 PUSH2 0x4B95 JUMP JUMPDEST PUSH1 0x11 SSTORE JUMPDEST PUSH10 0x152D02C7E14AF6800000 PUSH1 0x11 SLOAD GT ISZERO PUSH2 0x1160 JUMPI PUSH10 0x152D02C7E14AF6800000 PUSH1 0x11 SSTORE JUMP JUMPDEST DUP5 MLOAD DUP2 LT ISZERO PUSH2 0x37C4 JUMPI PUSH1 0x0 DUP6 DUP3 DUP2 MLOAD DUP2 LT PUSH2 0x36FE JUMPI PUSH2 0x36FE PUSH2 0x4A8F JUMP JUMPDEST PUSH1 0x20 MUL PUSH1 0x20 ADD ADD MLOAD SWAP1 POP PUSH1 0x0 DUP6 DUP4 DUP2 MLOAD DUP2 LT PUSH2 0x371C JUMPI PUSH2 0x371C PUSH2 0x4A8F JUMP JUMPDEST PUSH1 0x20 SWAP1 DUP2 MUL SWAP2 SWAP1 SWAP2 ADD DUP2 ADD MLOAD PUSH1 0x0 DUP5 DUP2 MSTORE DUP1 DUP4 MSTORE PUSH1 0x40 DUP1 DUP3 KECCAK256 PUSH1 0x1 PUSH1 0x1 PUSH1 0xA0 SHL SUB DUP15 AND DUP4 MSTORE SWAP1 SWAP4 MSTORE SWAP2 SWAP1 SWAP2 KECCAK256 SLOAD SWAP1 SWAP2 POP DUP2 DUP2 LT ISZERO PUSH2 0x376C JUMPI PUSH1 0x40 MLOAD PUSH3 0x461BCD PUSH1 0xE5 SHL DUP2 MSTORE PUSH1 0x4 ADD PUSH2 0xE42 SWAP1 PUSH2 0x4D34 JUMP JUMPDEST PUSH1 0x0 DUP4 DUP2 MSTORE PUSH1 0x20 DUP2 DUP2 MSTORE PUSH1 0x40 DUP1 DUP4 KECCAK256 PUSH1 0x1 PUSH1 0x1 PUSH1 0xA0 SHL SUB DUP15 DUP2 AND DUP6 MSTORE SWAP3 MSTORE DUP1 DUP4 KECCAK256 DUP6 DUP6 SUB SWAP1 SSTORE SWAP1 DUP12 AND DUP3 MSTORE DUP2 KECCAK256 DUP1 SLOAD DUP5 SWAP3 SWAP1 PUSH2 0x37A9 SWAP1 DUP5 SWAP1 PUSH2 0x4B95 JUMP JUMPDEST SWAP3 POP POP DUP2 SWAP1 SSTORE POP POP POP POP DUP1 PUSH2 0x37BD SWAP1 PUSH2 0x4ABB JUMP JUMPDEST SWAP1 POP PUSH2 0x36E1 JUMP JUMPDEST POP DUP5 PUSH1 0x1 PUSH1 0x1 PUSH1 0xA0 SHL SUB AND DUP7 PUSH1 0x1 PUSH1 0x1 PUSH1 0xA0 SHL SUB AND DUP3 PUSH1 0x1 PUSH1 0x1 PUSH1 0xA0 SHL SUB AND PUSH32 0x4A39DC06D4C0DBC64B70AF90FD698A233A518AA5D07E595D983B8C0526C8F7FB DUP8 DUP8 PUSH1 0x40 MLOAD PUSH2 0x3814 SWAP3 SWAP2 SWAP1 PUSH2 0x4D7E JUMP JUMPDEST PUSH1 0x40 MLOAD DUP1 SWAP2 SUB SWAP1 LOG4 PUSH2 0x18EB DUP2 DUP8 DUP8 DUP8 DUP8 DUP8 PUSH2 0x41D4 JUMP JUMPDEST PUSH1 0x0 DUP2 DUP4 GT ISZERO PUSH2 0x3839 JUMPI PUSH1 0x0 DUP1 REVERT JUMPDEST PUSH3 0x15180 PUSH2 0x3847 DUP5 DUP5 PUSH2 0x4B35 JUMP JUMPDEST PUSH2 0x3851 SWAP2 SWAP1 PUSH2 0x4B81 JUMP JUMPDEST SWAP4 SWAP3 POP POP POP JUMP JUMPDEST DUP1 MLOAD DUP3 MLOAD PUSH1 0x0 SWAP2 GT ISZERO PUSH2 0x386D JUMPI POP PUSH1 0x0 PUSH2 0xE6E JUMP JUMPDEST DUP2 PUSH1 0x20 ADD MLOAD DUP4 PUSH1 0x20 ADD MLOAD EQ ISZERO PUSH2 0x3885 JUMPI POP PUSH1 0x1 PUSH2 0xE6E JUMP JUMPDEST POP DUP1 MLOAD PUSH1 0x20 SWAP3 DUP4 ADD MLOAD SWAP3 SWAP1 SWAP2 ADD MLOAD DUP2 SWAP1 KECCAK256 SWAP2 KECCAK256 EQ SWAP1 JUMP JUMPDEST PUSH1 0x3 DUP1 SLOAD PUSH1 0x1 PUSH1 0x1 PUSH1 0xA0 SHL SUB DUP4 DUP2 AND PUSH2 0x100 DUP2 DUP2 MUL PUSH2 0x100 PUSH1 0x1 PUSH1 0xA8 SHL SUB NOT DUP6 AND OR SWAP1 SWAP5 SSTORE PUSH1 0x40 MLOAD SWAP4 SWAP1 SWAP3 DIV AND SWAP2 DUP3 SWAP1 PUSH32 0x8BE0079C531659141344CD1FD0A4F28419497F9722A3DAAFE3B4186F6B6457E0 SWAP1 PUSH1 0x0 SWAP1 LOG3 POP POP JUMP JUMPDEST PUSH1 0x0 DUP2 GT PUSH2 0x3946 JUMPI PUSH1 0x40 MLOAD PUSH3 0x461BCD PUSH1 0xE5 SHL DUP2 MSTORE PUSH1 0x20 PUSH1 0x4 DUP3 ADD MSTORE PUSH1 0x1A PUSH1 0x24 DUP3 ADD MSTORE PUSH32 0x72616E646F6D206E756D626572206973206E6F742076616C6964000000000000 PUSH1 0x44 DUP3 ADD MSTORE PUSH1 0x64 ADD PUSH2 0xE42 JUMP JUMPDEST PUSH1 0x12 SLOAD PUSH1 0x0 SWAP1 PUSH2 0x3956 SWAP1 DUP4 PUSH2 0x4D20 JUMP JUMPDEST SWAP1 POP PUSH1 0x22 PUSH1 0x0 PUSH1 0x12 DUP4 DUP2 SLOAD DUP2 LT PUSH2 0x396F JUMPI PUSH2 0x396F PUSH2 0x4A8F JUMP JUMPDEST PUSH1 0x0 SWAP2 DUP3 MSTORE PUSH1 0x20 DUP1 DUP4 KECCAK256 SWAP1 SWAP2 ADD SLOAD PUSH1 0x1 PUSH1 0x1 PUSH1 0xA0 SHL SUB AND DUP4 MSTORE DUP3 ADD SWAP3 SWAP1 SWAP3 MSTORE PUSH1 0x40 ADD SWAP1 KECCAK256 SLOAD PUSH2 0x399F SWAP1 PUSH1 0x1 PUSH2 0x4B95 JUMP JUMPDEST PUSH1 0x22 PUSH1 0x0 PUSH1 0x12 DUP5 DUP2 SLOAD DUP2 LT PUSH2 0x39B6 JUMPI PUSH2 0x39B6 PUSH2 0x4A8F JUMP JUMPDEST PUSH1 0x0 SWAP2 DUP3 MSTORE PUSH1 0x20 DUP1 DUP4 KECCAK256 SWAP1 SWAP2 ADD SLOAD PUSH1 0x1 PUSH1 0x1 PUSH1 0xA0 SHL SUB AND DUP4 MSTORE DUP3 ADD SWAP3 SWAP1 SWAP3 MSTORE PUSH1 0x40 ADD SWAP1 KECCAK256 SSTORE PUSH1 0x12 DUP1 SLOAD DUP3 SWAP1 DUP2 LT PUSH2 0x39EF JUMPI PUSH2 0x39EF PUSH2 0x4A8F JUMP JUMPDEST PUSH1 0x0 SWAP2 DUP3 MSTORE PUSH1 0x20 SWAP2 DUP3 SWAP1 KECCAK256 ADD SLOAD PUSH1 0x40 MLOAD DUP5 DUP2 MSTORE PUSH1 0x1 PUSH1 0x1 PUSH1 0xA0 SHL SUB SWAP1 SWAP2 AND SWAP2 PUSH32 0x8DCB1B46B7E05DD96ECD3AE5F7B77B7C6E369F8CED83A2AB24368C4F8E16B8C9 SWAP2 ADD PUSH1 0x40 MLOAD DUP1 SWAP2 SUB SWAP1 LOG2 PUSH1 0x40 DUP1 MLOAD PUSH1 0x0 DUP2 MSTORE PUSH1 0x20 DUP2 ADD SWAP2 DUP3 SWAP1 MSTORE MLOAD PUSH2 0x3533 SWAP2 PUSH1 0x12 SWAP2 PUSH2 0x4313 JUMP JUMPDEST DUP2 PUSH1 0x1 PUSH1 0x1 PUSH1 0xA0 SHL SUB AND DUP4 PUSH1 0x1 PUSH1 0x1 PUSH1 0xA0 SHL SUB AND EQ ISZERO PUSH2 0x3ACA JUMPI PUSH1 0x40 MLOAD PUSH3 0x461BCD PUSH1 0xE5 SHL DUP2 MSTORE PUSH1 0x20 PUSH1 0x4 DUP3 ADD MSTORE PUSH1 0x29 PUSH1 0x24 DUP3 ADD MSTORE PUSH32 0x455243313135353A2073657474696E6720617070726F76616C20737461747573 PUSH1 0x44 DUP3 ADD MSTORE PUSH9 0x103337B91039B2B633 PUSH1 0xB9 SHL PUSH1 0x64 DUP3 ADD MSTORE PUSH1 0x84 ADD PUSH2 0xE42 JUMP JUMPDEST PUSH1 0x1 PUSH1 0x1 PUSH1 0xA0 SHL SUB DUP4 DUP2 AND PUSH1 0x0 DUP2 DUP2 MSTORE PUSH1 0x1 PUSH1 0x20 SWAP1 DUP2 MSTORE PUSH1 0x40 DUP1 DUP4 KECCAK256 SWAP5 DUP8 AND DUP1 DUP5 MSTORE SWAP5 DUP3 MSTORE SWAP2 DUP3 SWAP1 KECCAK256 DUP1 SLOAD PUSH1 0xFF NOT AND DUP7 ISZERO ISZERO SWAP1 DUP2 OR SWAP1 SWAP2 SSTORE SWAP2 MLOAD SWAP2 DUP3 MSTORE PUSH32 0x17307EAB39AB6107E8899845AD3D59BD9653F200F220920489CA2B5937696C31 SWAP2 ADD PUSH1 0x40 MLOAD DUP1 SWAP2 SUB SWAP1 LOG3 POP POP POP JUMP JUMPDEST PUSH1 0x0 PUSH32 0x0 PUSH1 0x1 PUSH1 0x1 PUSH1 0xA0 SHL SUB AND PUSH4 0x4000AEA0 PUSH32 0x0 DUP5 DUP7 PUSH1 0x0 PUSH1 0x40 MLOAD PUSH1 0x20 ADD PUSH2 0x3BA7 SWAP3 SWAP2 SWAP1 SWAP2 DUP3 MSTORE PUSH1 0x20 DUP3 ADD MSTORE PUSH1 0x40 ADD SWAP1 JUMP JUMPDEST PUSH1 0x40 MLOAD PUSH1 0x20 DUP2 DUP4 SUB SUB DUP2 MSTORE SWAP1 PUSH1 0x40 MSTORE PUSH1 0x40 MLOAD DUP5 PUSH4 0xFFFFFFFF AND PUSH1 0xE0 SHL DUP2 MSTORE PUSH1 0x4 ADD PUSH2 0x3BD4 SWAP4 SWAP3 SWAP2 SWAP1 PUSH2 0x4DA3 JUMP JUMPDEST PUSH1 0x20 PUSH1 0x40 MLOAD DUP1 DUP4 SUB DUP2 PUSH1 0x0 DUP8 GAS CALL ISZERO DUP1 ISZERO PUSH2 0x3BF3 JUMPI RETURNDATASIZE PUSH1 0x0 DUP1 RETURNDATACOPY RETURNDATASIZE PUSH1 0x0 REVERT JUMPDEST POP POP POP POP PUSH1 0x40 MLOAD RETURNDATASIZE PUSH1 0x1F NOT PUSH1 0x1F DUP3 ADD AND DUP3 ADD DUP1 PUSH1 0x40 MSTORE POP DUP2 ADD SWAP1 PUSH2 0x3C17 SWAP2 SWAP1 PUSH2 0x4DCA JUMP JUMPDEST POP PUSH1 0x0 DUP4 DUP2 MSTORE PUSH1 0x4 PUSH1 0x20 DUP2 DUP2 MSTORE PUSH1 0x40 DUP1 DUP5 KECCAK256 SLOAD DUP2 MLOAD DUP1 DUP5 ADD DUP10 SWAP1 MSTORE DUP1 DUP4 ADD DUP7 SWAP1 MSTORE ADDRESS PUSH1 0x60 DUP3 ADD MSTORE PUSH1 0x80 DUP1 DUP3 ADD DUP4 SWAP1 MSTORE DUP4 MLOAD DUP1 DUP4 SUB SWAP1 SWAP2 ADD DUP2 MSTORE PUSH1 0xA0 SWAP1 SWAP2 ADD SWAP1 SWAP3 MSTORE DUP2 MLOAD SWAP2 DUP4 ADD SWAP2 SWAP1 SWAP2 KECCAK256 SWAP4 DUP8 SWAP1 MSTORE SWAP2 SWAP1 MSTORE PUSH2 0x3C73 SWAP1 PUSH1 0x1 PUSH2 0x4B95 JUMP JUMPDEST PUSH1 0x0 DUP6 DUP2 MSTORE PUSH1 0x4 PUSH1 0x20 MSTORE PUSH1 0x40 SWAP1 KECCAK256 SSTORE PUSH2 0xED1 DUP5 DUP3 PUSH1 0x40 DUP1 MLOAD PUSH1 0x20 DUP1 DUP3 ADD SWAP5 SWAP1 SWAP5 MSTORE DUP1 DUP3 ADD SWAP3 SWAP1 SWAP3 MSTORE DUP1 MLOAD DUP1 DUP4 SUB DUP3 ADD DUP2 MSTORE PUSH1 0x60 SWAP1 SWAP3 ADD SWAP1 MSTORE DUP1 MLOAD SWAP2 ADD KECCAK256 SWAP1 JUMP JUMPDEST PUSH1 0x1 PUSH1 0x1 PUSH1 0xA0 SHL SUB DUP5 AND PUSH2 0x3D17 JUMPI PUSH1 0x40 MLOAD PUSH3 0x461BCD PUSH1 0xE5 SHL DUP2 MSTORE PUSH1 0x20 PUSH1 0x4 DUP3 ADD MSTORE PUSH1 0x25 PUSH1 0x24 DUP3 ADD MSTORE PUSH32 0x455243313135353A207472616E7366657220746F20746865207A65726F206164 PUSH1 0x44 DUP3 ADD MSTORE PUSH5 0x6472657373 PUSH1 0xD8 SHL PUSH1 0x64 DUP3 ADD MSTORE PUSH1 0x84 ADD PUSH2 0xE42 JUMP JUMPDEST CALLER PUSH2 0x3D27 DUP2 DUP8 DUP8 PUSH2 0x35AA DUP9 PUSH2 0x3FC5 JUMP JUMPDEST PUSH1 0x0 DUP5 DUP2 MSTORE PUSH1 0x20 DUP2 DUP2 MSTORE PUSH1 0x40 DUP1 DUP4 KECCAK256 PUSH1 0x1 PUSH1 0x1 PUSH1 0xA0 SHL SUB DUP11 AND DUP5 MSTORE SWAP1 SWAP2 MSTORE SWAP1 KECCAK256 SLOAD DUP4 DUP2 LT ISZERO PUSH2 0x3D68 JUMPI PUSH1 0x40 MLOAD PUSH3 0x461BCD PUSH1 0xE5 SHL DUP2 MSTORE PUSH1 0x4 ADD PUSH2 0xE42 SWAP1 PUSH2 0x4D34 JUMP JUMPDEST PUSH1 0x0 DUP6 DUP2 MSTORE PUSH1 0x20 DUP2 DUP2 MSTORE PUSH1 0x40 DUP1 DUP4 KECCAK256 PUSH1 0x1 PUSH1 0x1 PUSH1 0xA0 SHL SUB DUP12 DUP2 AND DUP6 MSTORE SWAP3 MSTORE DUP1 DUP4 KECCAK256 DUP8 DUP6 SUB SWAP1 SSTORE SWAP1 DUP9 AND DUP3 MSTORE DUP2 KECCAK256 DUP1 SLOAD DUP7 SWAP3 SWAP1 PUSH2 0x3DA5 SWAP1 DUP5 SWAP1 PUSH2 0x4B95 JUMP JUMPDEST SWAP1 SWAP2 SSTORE POP POP PUSH1 0x40 DUP1 MLOAD DUP7 DUP2 MSTORE PUSH1 0x20 DUP2 ADD DUP7 SWAP1 MSTORE PUSH1 0x1 PUSH1 0x1 PUSH1 0xA0 SHL SUB DUP1 DUP10 AND SWAP3 DUP11 DUP3 AND SWAP3 SWAP2 DUP7 AND SWAP2 PUSH32 0xC3D58168C5AE7397731D063D5BBF3D657854427343F4C083240F7AACAA2D0F62 SWAP2 ADD PUSH1 0x40 MLOAD DUP1 SWAP2 SUB SWAP1 LOG4 PUSH2 0x3E05 DUP3 DUP9 DUP9 DUP9 DUP9 DUP9 PUSH2 0x4078 JUMP JUMPDEST POP POP POP POP POP POP POP JUMP JUMPDEST PUSH1 0x3 SLOAD PUSH1 0xFF AND PUSH2 0x3E57 JUMPI PUSH1 0x40 MLOAD PUSH3 0x461BCD PUSH1 0xE5 SHL DUP2 MSTORE PUSH1 0x20 PUSH1 0x4 DUP3 ADD MSTORE PUSH1 0x14 PUSH1 0x24 DUP3 ADD MSTORE PUSH20 0x14185D5CD8589B194E881B9BDD081C185D5CD959 PUSH1 0x62 SHL PUSH1 0x44 DUP3 ADD MSTORE PUSH1 0x64 ADD PUSH2 0xE42 JUMP JUMPDEST PUSH1 0x3 DUP1 SLOAD PUSH1 0xFF NOT AND SWAP1 SSTORE PUSH32 0x5DB9EE0A495BF2E6FF9C91A7834C1BA4FDD244A5E8AA4E537BD38AEAE4B073AA CALLER PUSH2 0x3358 JUMP JUMPDEST PUSH1 0x0 PUSH2 0x7B2 DUP5 LT ISZERO PUSH2 0x3E99 JUMPI PUSH1 0x0 DUP1 REVERT JUMPDEST DUP4 DUP4 DUP4 PUSH1 0x0 PUSH3 0x253D8C PUSH1 0x4 PUSH1 0x64 PUSH1 0xC PUSH2 0x3EB3 PUSH1 0xE DUP9 PUSH2 0x4DE7 JUMP JUMPDEST PUSH2 0x3EBD SWAP2 SWAP1 PUSH2 0x4E26 JUMP JUMPDEST PUSH2 0x3EC9 DUP9 PUSH2 0x1324 PUSH2 0x4E54 JUMP JUMPDEST PUSH2 0x3ED3 SWAP2 SWAP1 PUSH2 0x4E54 JUMP JUMPDEST PUSH2 0x3EDD SWAP2 SWAP1 PUSH2 0x4E26 JUMP JUMPDEST PUSH2 0x3EE8 SWAP1 PUSH1 0x3 PUSH2 0x4E95 JUMP JUMPDEST PUSH2 0x3EF2 SWAP2 SWAP1 PUSH2 0x4E26 JUMP JUMPDEST PUSH1 0xC DUP1 PUSH2 0x3F00 PUSH1 0xE DUP9 PUSH2 0x4DE7 JUMP JUMPDEST PUSH2 0x3F0A SWAP2 SWAP1 PUSH2 0x4E26 JUMP JUMPDEST PUSH2 0x3F15 SWAP1 PUSH1 0xC PUSH2 0x4E95 JUMP JUMPDEST PUSH2 0x3F20 PUSH1 0x2 DUP9 PUSH2 0x4DE7 JUMP JUMPDEST PUSH2 0x3F2A SWAP2 SWAP1 PUSH2 0x4DE7 JUMP JUMPDEST PUSH2 0x3F36 SWAP1 PUSH2 0x16F PUSH2 0x4E95 JUMP JUMPDEST PUSH2 0x3F40 SWAP2 SWAP1 PUSH2 0x4E26 JUMP JUMPDEST PUSH1 0x4 PUSH1 0xC PUSH2 0x3F4F PUSH1 0xE DUP10 PUSH2 0x4DE7 JUMP JUMPDEST PUSH2 0x3F59 SWAP2 SWAP1 PUSH2 0x4E26 JUMP JUMPDEST PUSH2 0x3F65 DUP10 PUSH2 0x12C0 PUSH2 0x4E54 JUMP JUMPDEST PUSH2 0x3F6F SWAP2 SWAP1 PUSH2 0x4E54 JUMP JUMPDEST PUSH2 0x3F7B SWAP1 PUSH2 0x5B5 PUSH2 0x4E95 JUMP JUMPDEST PUSH2 0x3F85 SWAP2 SWAP1 PUSH2 0x4E26 JUMP JUMPDEST PUSH2 0x3F91 PUSH2 0x7D4B DUP8 PUSH2 0x4DE7 JUMP JUMPDEST PUSH2 0x3F9B SWAP2 SWAP1 PUSH2 0x4E54 JUMP JUMPDEST PUSH2 0x3FA5 SWAP2 SWAP1 PUSH2 0x4E54 JUMP JUMPDEST PUSH2 0x3FAF SWAP2 SWAP1 PUSH2 0x4DE7 JUMP JUMPDEST PUSH2 0x3FB9 SWAP2 SWAP1 PUSH2 0x4DE7 JUMP JUMPDEST SWAP9 SWAP8 POP POP POP POP POP POP POP POP JUMP JUMPDEST PUSH1 0x40 DUP1 MLOAD PUSH1 0x1 DUP1 DUP3 MSTORE DUP2 DUP4 ADD SWAP1 SWAP3 MSTORE PUSH1 0x60 SWAP2 PUSH1 0x0 SWAP2 SWAP1 PUSH1 0x20 DUP1 DUP4 ADD SWAP1 DUP1 CALLDATASIZE DUP4 CALLDATACOPY ADD SWAP1 POP POP SWAP1 POP DUP3 DUP2 PUSH1 0x0 DUP2 MLOAD DUP2 LT PUSH2 0x3FFF JUMPI PUSH2 0x3FFF PUSH2 0x4A8F JUMP JUMPDEST PUSH1 0x20 SWAP1 DUP2 MUL SWAP2 SWAP1 SWAP2 ADD ADD MSTORE SWAP3 SWAP2 POP POP JUMP JUMPDEST PUSH1 0x3 SLOAD PUSH1 0xFF AND ISZERO PUSH2 0x18EB JUMPI PUSH1 0x40 MLOAD PUSH3 0x461BCD PUSH1 0xE5 SHL DUP2 MSTORE PUSH1 0x20 PUSH1 0x4 DUP3 ADD MSTORE PUSH1 0x2C PUSH1 0x24 DUP3 ADD MSTORE PUSH32 0x455243313135355061757361626C653A20746F6B656E207472616E7366657220 PUSH1 0x44 DUP3 ADD MSTORE PUSH12 0x1DDA1A5B19481C185D5CD959 PUSH1 0xA2 SHL PUSH1 0x64 DUP3 ADD MSTORE PUSH1 0x84 ADD PUSH2 0xE42 JUMP JUMPDEST PUSH1 0x1 PUSH1 0x1 PUSH1 0xA0 SHL SUB DUP5 AND EXTCODESIZE ISZERO PUSH2 0x18EB JUMPI PUSH1 0x40 MLOAD PUSH4 0xF23A6E61 PUSH1 0xE0 SHL DUP2 MSTORE PUSH1 0x1 PUSH1 0x1 PUSH1 0xA0 SHL SUB DUP6 AND SWAP1 PUSH4 0xF23A6E61 SWAP1 PUSH2 0x40BC SWAP1 DUP10 SWAP1 DUP10 SWAP1 DUP9 SWAP1 DUP9 SWAP1 DUP9 SWAP1 PUSH1 0x4 ADD PUSH2 0x4F1A JUMP JUMPDEST PUSH1 0x20 PUSH1 0x40 MLOAD DUP1 DUP4 SUB DUP2 PUSH1 0x0 DUP8 GAS CALL SWAP3 POP POP POP DUP1 ISZERO PUSH2 0x40F7 JUMPI POP PUSH1 0x40 DUP1 MLOAD PUSH1 0x1F RETURNDATASIZE SWAP1 DUP2 ADD PUSH1 0x1F NOT AND DUP3 ADD SWAP1 SWAP3 MSTORE PUSH2 0x40F4 SWAP2 DUP2 ADD SWAP1 PUSH2 0x4F5F JUMP JUMPDEST PUSH1 0x1 JUMPDEST PUSH2 0x41A4 JUMPI PUSH2 0x4103 PUSH2 0x4F7C JUMP JUMPDEST DUP1 PUSH4 0x8C379A0 EQ ISZERO PUSH2 0x413D JUMPI POP PUSH2 0x4118 PUSH2 0x4F98 JUMP JUMPDEST DUP1 PUSH2 0x4123 JUMPI POP PUSH2 0x413F JUMP JUMPDEST DUP1 PUSH1 0x40 MLOAD PUSH3 0x461BCD PUSH1 0xE5 SHL DUP2 MSTORE PUSH1 0x4 ADD PUSH2 0xE42 SWAP2 SWAP1 PUSH2 0x448E JUMP JUMPDEST POP JUMPDEST PUSH1 0x40 MLOAD PUSH3 0x461BCD PUSH1 0xE5 SHL DUP2 MSTORE PUSH1 0x20 PUSH1 0x4 DUP3 ADD MSTORE PUSH1 0x34 PUSH1 0x24 DUP3 ADD MSTORE PUSH32 0x455243313135353A207472616E7366657220746F206E6F6E2045524331313535 PUSH1 0x44 DUP3 ADD MSTORE PUSH20 0x2932B1B2B4BB32B91034B6B83632B6B2B73A32B9 PUSH1 0x61 SHL PUSH1 0x64 DUP3 ADD MSTORE PUSH1 0x84 ADD PUSH2 0xE42 JUMP JUMPDEST PUSH1 0x1 PUSH1 0x1 PUSH1 0xE0 SHL SUB NOT DUP2 AND PUSH4 0xF23A6E61 PUSH1 0xE0 SHL EQ PUSH2 0x3E05 JUMPI PUSH1 0x40 MLOAD PUSH3 0x461BCD PUSH1 0xE5 SHL DUP2 MSTORE PUSH1 0x4 ADD PUSH2 0xE42 SWAP1 PUSH2 0x5021 JUMP JUMPDEST PUSH1 0x1 PUSH1 0x1 PUSH1 0xA0 SHL SUB DUP5 AND EXTCODESIZE ISZERO PUSH2 0x18EB JUMPI PUSH1 0x40 MLOAD PUSH4 0xBC197C81 PUSH1 0xE0 SHL DUP2 MSTORE PUSH1 0x1 PUSH1 0x1 PUSH1 0xA0 SHL SUB DUP6 AND SWAP1 PUSH4 0xBC197C81 SWAP1 PUSH2 0x4218 SWAP1 DUP10 SWAP1 DUP10 SWAP1 DUP9 SWAP1 DUP9 SWAP1 DUP9 SWAP1 PUSH1 0x4 ADD PUSH2 0x5069 JUMP JUMPDEST PUSH1 0x20 PUSH1 0x40 MLOAD DUP1 DUP4 SUB DUP2 PUSH1 0x0 DUP8 GAS CALL SWAP3 POP POP POP DUP1 ISZERO PUSH2 0x4253 JUMPI POP PUSH1 0x40 DUP1 MLOAD PUSH1 0x1F RETURNDATASIZE SWAP1 DUP2 ADD PUSH1 0x1F NOT AND DUP3 ADD SWAP1 SWAP3 MSTORE PUSH2 0x4250 SWAP2 DUP2 ADD SWAP1 PUSH2 0x4F5F JUMP JUMPDEST PUSH1 0x1 JUMPDEST PUSH2 0x425F JUMPI PUSH2 0x4103 PUSH2 0x4F7C JUMP JUMPDEST PUSH1 0x1 PUSH1 0x1 PUSH1 0xE0 SHL SUB NOT DUP2 AND PUSH4 0xBC197C81 PUSH1 0xE0 SHL EQ PUSH2 0x3E05 JUMPI PUSH1 0x40 MLOAD PUSH3 0x461BCD PUSH1 0xE5 SHL DUP2 MSTORE PUSH1 0x4 ADD PUSH2 0xE42 SWAP1 PUSH2 0x5021 JUMP JUMPDEST DUP3 DUP1 SLOAD PUSH2 0x429B SWAP1 PUSH2 0x4A5A JUMP JUMPDEST SWAP1 PUSH1 0x0 MSTORE PUSH1 0x20 PUSH1 0x0 KECCAK256 SWAP1 PUSH1 0x1F ADD PUSH1 0x20 SWAP1 DIV DUP2 ADD SWAP3 DUP3 PUSH2 0x42BD JUMPI PUSH1 0x0 DUP6 SSTORE PUSH2 0x4303 JUMP JUMPDEST DUP3 PUSH1 0x1F LT PUSH2 0x42D6 JUMPI DUP1 MLOAD PUSH1 0xFF NOT AND DUP4 DUP1 ADD OR DUP6 SSTORE PUSH2 0x4303 JUMP JUMPDEST DUP3 DUP1 ADD PUSH1 0x1 ADD DUP6 SSTORE DUP3 ISZERO PUSH2 0x4303 JUMPI SWAP2 DUP3 ADD JUMPDEST DUP3 DUP2 GT ISZERO PUSH2 0x4303 JUMPI DUP3 MLOAD DUP3 SSTORE SWAP2 PUSH1 0x20 ADD SWAP2 SWAP1 PUSH1 0x1 ADD SWAP1 PUSH2 0x42E8 JUMP JUMPDEST POP PUSH2 0x430F SWAP3 SWAP2 POP PUSH2 0x4368 JUMP JUMPDEST POP SWAP1 JUMP JUMPDEST DUP3 DUP1 SLOAD DUP3 DUP3 SSTORE SWAP1 PUSH1 0x0 MSTORE PUSH1 0x20 PUSH1 0x0 KECCAK256 SWAP1 DUP2 ADD SWAP3 DUP3 ISZERO PUSH2 0x4303 JUMPI SWAP2 PUSH1 0x20 MUL DUP3 ADD JUMPDEST DUP3 DUP2 GT ISZERO PUSH2 0x4303 JUMPI DUP3 MLOAD DUP3 SLOAD PUSH1 0x1 PUSH1 0x1 PUSH1 0xA0 SHL SUB NOT AND PUSH1 0x1 PUSH1 0x1 PUSH1 0xA0 SHL SUB SWAP1 SWAP2 AND OR DUP3 SSTORE PUSH1 0x20 SWAP1 SWAP3 ADD SWAP2 PUSH1 0x1 SWAP1 SWAP2 ADD SWAP1 PUSH2 0x4333 JUMP JUMPDEST JUMPDEST DUP1 DUP3 GT ISZERO PUSH2 0x430F JUMPI PUSH1 0x0 DUP2 SSTORE PUSH1 0x1 ADD PUSH2 0x4369 JUMP JUMPDEST DUP1 CALLDATALOAD PUSH1 0x1 PUSH1 0x1 PUSH1 0xA0 SHL SUB DUP2 AND DUP2 EQ PUSH2 0x1A86 JUMPI PUSH1 0x0 DUP1 REVERT JUMPDEST PUSH1 0x0 DUP1 PUSH1 0x40 DUP4 DUP6 SUB SLT ISZERO PUSH2 0x43A7 JUMPI PUSH1 0x0 DUP1 REVERT JUMPDEST PUSH2 0x43B0 DUP4 PUSH2 0x437D JUMP JUMPDEST SWAP5 PUSH1 0x20 SWAP4 SWAP1 SWAP4 ADD CALLDATALOAD SWAP4 POP POP POP JUMP JUMPDEST PUSH1 0x1 PUSH1 0x1 PUSH1 0xE0 SHL SUB NOT DUP2 AND DUP2 EQ PUSH2 0x2F9F JUMPI PUSH1 0x0 DUP1 REVERT JUMPDEST PUSH1 0x0 PUSH1 0x20 DUP3 DUP5 SUB SLT ISZERO PUSH2 0x43E6 JUMPI PUSH1 0x0 DUP1 REVERT JUMPDEST DUP2 CALLDATALOAD PUSH2 0x3851 DUP2 PUSH2 0x43BE JUMP JUMPDEST PUSH1 0x0 DUP1 PUSH1 0x0 PUSH1 0x60 DUP5 DUP7 SUB SLT ISZERO PUSH2 0x4406 JUMPI PUSH1 0x0 DUP1 REVERT JUMPDEST POP POP DUP2 CALLDATALOAD SWAP4 PUSH1 0x20 DUP4 ADD CALLDATALOAD SWAP4 POP PUSH1 0x40 SWAP1 SWAP3 ADD CALLDATALOAD SWAP2 SWAP1 POP JUMP JUMPDEST PUSH1 0x0 PUSH1 0x20 DUP3 DUP5 SUB SLT ISZERO PUSH2 0x442F JUMPI PUSH1 0x0 DUP1 REVERT JUMPDEST POP CALLDATALOAD SWAP2 SWAP1 POP JUMP JUMPDEST PUSH1 0x0 JUMPDEST DUP4 DUP2 LT ISZERO PUSH2 0x4451 JUMPI DUP2 DUP2 ADD MLOAD DUP4 DUP3 ADD MSTORE PUSH1 0x20 ADD PUSH2 0x4439 JUMP JUMPDEST DUP4 DUP2 GT ISZERO PUSH2 0x3533 JUMPI POP POP PUSH1 0x0 SWAP2 ADD MSTORE JUMP JUMPDEST PUSH1 0x0 DUP2 MLOAD DUP1 DUP5 MSTORE PUSH2 0x447A DUP2 PUSH1 0x20 DUP7 ADD PUSH1 0x20 DUP7 ADD PUSH2 0x4436 JUMP JUMPDEST PUSH1 0x1F ADD PUSH1 0x1F NOT AND SWAP3 SWAP1 SWAP3 ADD PUSH1 0x20 ADD SWAP3 SWAP2 POP POP JUMP JUMPDEST PUSH1 0x20 DUP2 MSTORE PUSH1 0x0 PUSH2 0x3851 PUSH1 0x20 DUP4 ADD DUP5 PUSH2 0x4462 JUMP JUMPDEST PUSH1 0x0 PUSH1 0x20 DUP3 DUP5 SUB SLT ISZERO PUSH2 0x44B3 JUMPI PUSH1 0x0 DUP1 REVERT JUMPDEST PUSH2 0x3851 DUP3 PUSH2 0x437D JUMP JUMPDEST PUSH1 0x0 DUP2 MLOAD DUP1 DUP5 MSTORE PUSH1 0x20 DUP1 DUP6 ADD SWAP5 POP DUP1 DUP5 ADD PUSH1 0x0 JUMPDEST DUP4 DUP2 LT ISZERO PUSH2 0x44EC JUMPI DUP2 MLOAD DUP8 MSTORE SWAP6 DUP3 ADD SWAP6 SWAP1 DUP3 ADD SWAP1 PUSH1 0x1 ADD PUSH2 0x44D0 JUMP JUMPDEST POP SWAP5 SWAP6 SWAP5 POP POP POP POP POP JUMP JUMPDEST PUSH1 0x0 DUP2 MLOAD DUP1 DUP5 MSTORE PUSH1 0x20 DUP1 DUP6 ADD SWAP5 POP DUP1 DUP5 ADD PUSH1 0x0 JUMPDEST DUP4 DUP2 LT ISZERO PUSH2 0x44EC JUMPI DUP2 MLOAD PUSH1 0x1 PUSH1 0x1 PUSH1 0xA0 SHL SUB AND DUP8 MSTORE SWAP6 DUP3 ADD SWAP6 SWAP1 DUP3 ADD SWAP1 PUSH1 0x1 ADD PUSH2 0x450B JUMP JUMPDEST PUSH1 0x40 DUP2 MSTORE PUSH1 0x0 PUSH2 0x4543 PUSH1 0x40 DUP4 ADD DUP6 PUSH2 0x44BC JUMP JUMPDEST DUP3 DUP2 SUB PUSH1 0x20 DUP5 ADD MSTORE PUSH2 0x4555 DUP2 DUP6 PUSH2 0x44F7 JUMP JUMPDEST SWAP6 SWAP5 POP POP POP POP POP JUMP JUMPDEST PUSH1 0x0 DUP1 PUSH1 0x0 DUP1 PUSH1 0x80 DUP6 DUP8 SUB SLT ISZERO PUSH2 0x4574 JUMPI PUSH1 0x0 DUP1 REVERT JUMPDEST DUP5 CALLDATALOAD SWAP4 POP PUSH1 0x20 DUP6 ADD CALLDATALOAD SWAP3 POP PUSH1 0x40 DUP6 ADD CALLDATALOAD SWAP2 POP PUSH2 0x4592 PUSH1 0x60 DUP7 ADD PUSH2 0x437D JUMP JUMPDEST SWAP1 POP SWAP3 SWAP6 SWAP2 SWAP5 POP SWAP3 POP JUMP JUMPDEST PUSH4 0x4E487B71 PUSH1 0xE0 SHL PUSH1 0x0 MSTORE PUSH1 0x41 PUSH1 0x4 MSTORE PUSH1 0x24 PUSH1 0x0 REVERT JUMPDEST PUSH1 0x1F DUP3 ADD PUSH1 0x1F NOT AND DUP2 ADD PUSH1 0x1 PUSH1 0x1 PUSH1 0x40 SHL SUB DUP2 GT DUP3 DUP3 LT OR ISZERO PUSH2 0x45D8 JUMPI PUSH2 0x45D8 PUSH2 0x459D JUMP JUMPDEST PUSH1 0x40 MSTORE POP POP JUMP JUMPDEST PUSH1 0x0 PUSH1 0x1 PUSH1 0x1 PUSH1 0x40 SHL SUB DUP3 GT ISZERO PUSH2 0x45F8 JUMPI PUSH2 0x45F8 PUSH2 0x459D JUMP JUMPDEST POP PUSH1 0x5 SHL PUSH1 0x20 ADD SWAP1 JUMP JUMPDEST PUSH1 0x0 DUP3 PUSH1 0x1F DUP4 ADD SLT PUSH2 0x4613 JUMPI PUSH1 0x0 DUP1 REVERT JUMPDEST DUP2 CALLDATALOAD PUSH1 0x20 PUSH2 0x4620 DUP3 PUSH2 0x45DF JUMP JUMPDEST PUSH1 0x40 MLOAD PUSH2 0x462D DUP3 DUP3 PUSH2 0x45B3 JUMP JUMPDEST DUP4 DUP2 MSTORE PUSH1 0x5 SWAP4 SWAP1 SWAP4 SHL DUP6 ADD DUP3 ADD SWAP3 DUP3 DUP2 ADD SWAP2 POP DUP7 DUP5 GT ISZERO PUSH2 0x464D JUMPI PUSH1 0x0 DUP1 REVERT JUMPDEST DUP3 DUP7 ADD JUMPDEST DUP5 DUP2 LT ISZERO PUSH2 0x4668 JUMPI DUP1 CALLDATALOAD DUP4 MSTORE SWAP2 DUP4 ADD SWAP2 DUP4 ADD PUSH2 0x4651 JUMP JUMPDEST POP SWAP7 SWAP6 POP POP POP POP POP POP JUMP JUMPDEST PUSH1 0x0 DUP3 PUSH1 0x1F DUP4 ADD SLT PUSH2 0x4684 JUMPI PUSH1 0x0 DUP1 REVERT JUMPDEST DUP2 CALLDATALOAD PUSH1 0x1 PUSH1 0x1 PUSH1 0x40 SHL SUB DUP2 GT ISZERO PUSH2 0x469D JUMPI PUSH2 0x469D PUSH2 0x459D JUMP JUMPDEST PUSH1 0x40 MLOAD PUSH2 0x46B4 PUSH1 0x1F DUP4 ADD PUSH1 0x1F NOT AND PUSH1 0x20 ADD DUP3 PUSH2 0x45B3 JUMP JUMPDEST DUP2 DUP2 MSTORE DUP5 PUSH1 0x20 DUP4 DUP7 ADD ADD GT ISZERO PUSH2 0x46C9 JUMPI PUSH1 0x0 DUP1 REVERT JUMPDEST DUP2 PUSH1 0x20 DUP6 ADD PUSH1 0x20 DUP4 ADD CALLDATACOPY PUSH1 0x0 SWAP2 DUP2 ADD PUSH1 0x20 ADD SWAP2 SWAP1 SWAP2 MSTORE SWAP4 SWAP3 POP POP POP JUMP JUMPDEST PUSH1 0x0 DUP1 PUSH1 0x0 DUP1 PUSH1 0x0 PUSH1 0xA0 DUP7 DUP9 SUB SLT ISZERO PUSH2 0x46FE JUMPI PUSH1 0x0 DUP1 REVERT JUMPDEST PUSH2 0x4707 DUP7 PUSH2 0x437D JUMP JUMPDEST SWAP5 POP PUSH2 0x4715 PUSH1 0x20 DUP8 ADD PUSH2 0x437D JUMP JUMPDEST SWAP4 POP PUSH1 0x40 DUP7 ADD CALLDATALOAD PUSH1 0x1 PUSH1 0x1 PUSH1 0x40 SHL SUB DUP1 DUP3 GT ISZERO PUSH2 0x4731 JUMPI PUSH1 0x0 DUP1 REVERT JUMPDEST PUSH2 0x473D DUP10 DUP4 DUP11 ADD PUSH2 0x4602 JUMP JUMPDEST SWAP5 POP PUSH1 0x60 DUP9 ADD CALLDATALOAD SWAP2 POP DUP1 DUP3 GT ISZERO PUSH2 0x4753 JUMPI PUSH1 0x0 DUP1 REVERT JUMPDEST PUSH2 0x475F DUP10 DUP4 DUP11 ADD PUSH2 0x4602 JUMP JUMPDEST SWAP4 POP PUSH1 0x80 DUP9 ADD CALLDATALOAD SWAP2 POP DUP1 DUP3 GT ISZERO PUSH2 0x4775 JUMPI PUSH1 0x0 DUP1 REVERT JUMPDEST POP PUSH2 0x4782 DUP9 DUP3 DUP10 ADD PUSH2 0x4673 JUMP JUMPDEST SWAP2 POP POP SWAP3 SWAP6 POP SWAP3 SWAP6 SWAP1 SWAP4 POP JUMP JUMPDEST PUSH1 0x0 DUP1 PUSH1 0x40 DUP4 DUP6 SUB SLT ISZERO PUSH2 0x47A2 JUMPI PUSH1 0x0 DUP1 REVERT JUMPDEST DUP3 CALLDATALOAD PUSH1 0x1 PUSH1 0x1 PUSH1 0x40 SHL SUB DUP1 DUP3 GT ISZERO PUSH2 0x47B9 JUMPI PUSH1 0x0 DUP1 REVERT JUMPDEST DUP2 DUP6 ADD SWAP2 POP DUP6 PUSH1 0x1F DUP4 ADD SLT PUSH2 0x47CD JUMPI PUSH1 0x0 DUP1 REVERT JUMPDEST DUP2 CALLDATALOAD PUSH1 0x20 PUSH2 0x47DA DUP3 PUSH2 0x45DF JUMP JUMPDEST PUSH1 0x40 MLOAD PUSH2 0x47E7 DUP3 DUP3 PUSH2 0x45B3 JUMP JUMPDEST DUP4 DUP2 MSTORE PUSH1 0x5 SWAP4 SWAP1 SWAP4 SHL DUP6 ADD DUP3 ADD SWAP3 DUP3 DUP2 ADD SWAP2 POP DUP10 DUP5 GT ISZERO PUSH2 0x4807 JUMPI PUSH1 0x0 DUP1 REVERT JUMPDEST SWAP5 DUP3 ADD SWAP5 JUMPDEST DUP4 DUP7 LT ISZERO PUSH2 0x482C JUMPI PUSH2 0x481D DUP7 PUSH2 0x437D JUMP JUMPDEST DUP3 MSTORE SWAP5 DUP3 ADD SWAP5 SWAP1 DUP3 ADD SWAP1 PUSH2 0x480C JUMP JUMPDEST SWAP7 POP POP DUP7 ADD CALLDATALOAD SWAP3 POP POP DUP1 DUP3 GT ISZERO PUSH2 0x4842 JUMPI PUSH1 0x0 DUP1 REVERT JUMPDEST POP PUSH2 0x484F DUP6 DUP3 DUP7 ADD PUSH2 0x4602 JUMP JUMPDEST SWAP2 POP POP SWAP3 POP SWAP3 SWAP1 POP JUMP JUMPDEST PUSH1 0x20 DUP2 MSTORE PUSH1 0x0 PUSH2 0x3851 PUSH1 0x20 DUP4 ADD DUP5 PUSH2 0x44BC JUMP JUMPDEST PUSH1 0x0 DUP1 PUSH1 0x0 DUP1 PUSH1 0x0 PUSH1 0xA0 DUP7 DUP9 SUB SLT ISZERO PUSH2 0x4884 JUMPI PUSH1 0x0 DUP1 REVERT JUMPDEST DUP6 CALLDATALOAD SWAP5 POP PUSH1 0x20 DUP7 ADD CALLDATALOAD SWAP4 POP PUSH1 0x40 DUP7 ADD CALLDATALOAD SWAP3 POP PUSH1 0x60 DUP7 ADD CALLDATALOAD PUSH1 0x1 PUSH1 0x1 PUSH1 0x40 SHL SUB DUP1 DUP3 GT ISZERO PUSH2 0x48B0 JUMPI PUSH1 0x0 DUP1 REVERT JUMPDEST PUSH2 0x475F DUP10 DUP4 DUP11 ADD PUSH2 0x4673 JUMP JUMPDEST PUSH1 0x0 DUP1 PUSH1 0x40 DUP4 DUP6 SUB SLT ISZERO PUSH2 0x48CF JUMPI PUSH1 0x0 DUP1 REVERT JUMPDEST POP POP DUP1 CALLDATALOAD SWAP3 PUSH1 0x20 SWAP1 SWAP2 ADD CALLDATALOAD SWAP2 POP JUMP JUMPDEST DUP1 ISZERO ISZERO DUP2 EQ PUSH2 0x2F9F JUMPI PUSH1 0x0 DUP1 REVERT JUMPDEST PUSH1 0x0 DUP1 PUSH1 0x40 DUP4 DUP6 SUB SLT ISZERO PUSH2 0x48FF JUMPI PUSH1 0x0 DUP1 REVERT JUMPDEST PUSH2 0x4908 DUP4 PUSH2 0x437D JUMP JUMPDEST SWAP2 POP PUSH1 0x20 DUP4 ADD CALLDATALOAD PUSH2 0x4918 DUP2 PUSH2 0x48DE JUMP JUMPDEST DUP1 SWAP2 POP POP SWAP3 POP SWAP3 SWAP1 POP JUMP JUMPDEST PUSH1 0x0 DUP1 PUSH1 0x40 DUP4 DUP6 SUB SLT ISZERO PUSH2 0x4936 JUMPI PUSH1 0x0 DUP1 REVERT JUMPDEST DUP3 CALLDATALOAD PUSH1 0x1 PUSH1 0x1 PUSH1 0x40 SHL SUB DUP1 DUP3 GT ISZERO PUSH2 0x494D JUMPI PUSH1 0x0 DUP1 REVERT JUMPDEST PUSH2 0x4959 DUP7 DUP4 DUP8 ADD PUSH2 0x4673 JUMP JUMPDEST SWAP4 POP PUSH1 0x20 DUP6 ADD CALLDATALOAD SWAP2 POP DUP1 DUP3 GT ISZERO PUSH2 0x496F JUMPI PUSH1 0x0 DUP1 REVERT JUMPDEST POP PUSH2 0x484F DUP6 DUP3 DUP7 ADD PUSH2 0x4673 JUMP JUMPDEST PUSH1 0x0 PUSH1 0x20 DUP3 DUP5 SUB SLT ISZERO PUSH2 0x498E JUMPI PUSH1 0x0 DUP1 REVERT JUMPDEST DUP2 CALLDATALOAD PUSH1 0x1 PUSH1 0x1 PUSH1 0x40 SHL SUB DUP2 GT ISZERO PUSH2 0x49A4 JUMPI PUSH1 0x0 DUP1 REVERT JUMPDEST PUSH2 0xED1 DUP5 DUP3 DUP6 ADD PUSH2 0x4673 JUMP JUMPDEST PUSH1 0x0 DUP1 PUSH1 0x40 DUP4 DUP6 SUB SLT ISZERO PUSH2 0x49C3 JUMPI PUSH1 0x0 DUP1 REVERT JUMPDEST PUSH2 0x49CC DUP4 PUSH2 0x437D JUMP JUMPDEST SWAP2 POP PUSH2 0x49DA PUSH1 0x20 DUP5 ADD PUSH2 0x437D JUMP JUMPDEST SWAP1 POP SWAP3 POP SWAP3 SWAP1 POP JUMP JUMPDEST PUSH1 0x20 DUP2 MSTORE PUSH1 0x0 PUSH2 0x3851 PUSH1 0x20 DUP4 ADD DUP5 PUSH2 0x44F7 JUMP JUMPDEST PUSH1 0x0 DUP1 PUSH1 0x0 DUP1 PUSH1 0x0 PUSH1 0xA0 DUP7 DUP9 SUB SLT ISZERO PUSH2 0x4A0E JUMPI PUSH1 0x0 DUP1 REVERT JUMPDEST PUSH2 0x4A17 DUP7 PUSH2 0x437D JUMP JUMPDEST SWAP5 POP PUSH2 0x4A25 PUSH1 0x20 DUP8 ADD PUSH2 0x437D JUMP JUMPDEST SWAP4 POP PUSH1 0x40 DUP7 ADD CALLDATALOAD SWAP3 POP PUSH1 0x60 DUP7 ADD CALLDATALOAD SWAP2 POP PUSH1 0x80 DUP7 ADD CALLDATALOAD PUSH1 0x1 PUSH1 0x1 PUSH1 0x40 SHL SUB DUP2 GT ISZERO PUSH2 0x4A4E JUMPI PUSH1 0x0 DUP1 REVERT JUMPDEST PUSH2 0x4782 DUP9 DUP3 DUP10 ADD PUSH2 0x4673 JUMP JUMPDEST PUSH1 0x1 DUP2 DUP2 SHR SWAP1 DUP3 AND DUP1 PUSH2 0x4A6E JUMPI PUSH1 0x7F DUP3 AND SWAP2 POP JUMPDEST PUSH1 0x20 DUP3 LT DUP2 EQ ISZERO PUSH2 0x2C35 JUMPI PUSH4 0x4E487B71 PUSH1 0xE0 SHL PUSH1 0x0 MSTORE PUSH1 0x22 PUSH1 0x4 MSTORE PUSH1 0x24 PUSH1 0x0 REVERT JUMPDEST PUSH4 0x4E487B71 PUSH1 0xE0 SHL PUSH1 0x0 MSTORE PUSH1 0x32 PUSH1 0x4 MSTORE PUSH1 0x24 PUSH1 0x0 REVERT JUMPDEST PUSH4 0x4E487B71 PUSH1 0xE0 SHL PUSH1 0x0 MSTORE PUSH1 0x11 PUSH1 0x4 MSTORE PUSH1 0x24 PUSH1 0x0 REVERT JUMPDEST PUSH1 0x0 PUSH1 0x0 NOT DUP3 EQ ISZERO PUSH2 0x4ACF JUMPI PUSH2 0x4ACF PUSH2 0x4AA5 JUMP JUMPDEST POP PUSH1 0x1 ADD SWAP1 JUMP JUMPDEST PUSH1 0x20 DUP1 DUP3 MSTORE DUP2 DUP2 ADD MSTORE PUSH32 0x4F776E61626C653A2063616C6C6572206973206E6F7420746865206F776E6572 PUSH1 0x40 DUP3 ADD MSTORE PUSH1 0x60 ADD SWAP1 JUMP JUMPDEST PUSH1 0x20 DUP1 DUP3 MSTORE PUSH1 0x10 SWAP1 DUP3 ADD MSTORE PUSH16 0x14185D5CD8589B194E881C185D5CD959 PUSH1 0x82 SHL PUSH1 0x40 DUP3 ADD MSTORE PUSH1 0x60 ADD SWAP1 JUMP JUMPDEST PUSH1 0x0 DUP3 DUP3 LT ISZERO PUSH2 0x4B47 JUMPI PUSH2 0x4B47 PUSH2 0x4AA5 JUMP JUMPDEST POP SUB SWAP1 JUMP JUMPDEST PUSH1 0x0 DUP2 PUSH1 0x0 NOT DIV DUP4 GT DUP3 ISZERO ISZERO AND ISZERO PUSH2 0x4B66 JUMPI PUSH2 0x4B66 PUSH2 0x4AA5 JUMP JUMPDEST POP MUL SWAP1 JUMP JUMPDEST PUSH4 0x4E487B71 PUSH1 0xE0 SHL PUSH1 0x0 MSTORE PUSH1 0x12 PUSH1 0x4 MSTORE PUSH1 0x24 PUSH1 0x0 REVERT JUMPDEST PUSH1 0x0 DUP3 PUSH2 0x4B90 JUMPI PUSH2 0x4B90 PUSH2 0x4B6B JUMP JUMPDEST POP DIV SWAP1 JUMP JUMPDEST PUSH1 0x0 DUP3 NOT DUP3 GT ISZERO PUSH2 0x4BA8 JUMPI PUSH2 0x4BA8 PUSH2 0x4AA5 JUMP JUMPDEST POP ADD SWAP1 JUMP JUMPDEST PUSH1 0x20 DUP1 DUP3 MSTORE PUSH1 0x16 SWAP1 DUP3 ADD MSTORE PUSH22 0x1B9BDD08195B9BDD59DA081D1A5B59481C185CDCD959 PUSH1 0x52 SHL PUSH1 0x40 DUP3 ADD MSTORE PUSH1 0x60 ADD SWAP1 JUMP JUMPDEST PUSH1 0x20 DUP1 DUP3 MSTORE PUSH1 0x53 SWAP1 DUP3 ADD MSTORE PUSH32 0x756E74696C2070657263656E74206F6620746F74616C206D696E746564206461 PUSH1 0x40 DUP3 ADD MSTORE PUSH32 0x797320696E20636F6C6C656374696F6E2069732061626F766520353025206368 PUSH1 0x60 DUP3 ADD MSTORE PUSH19 0x185B99D9481A5CC81B9BDD08185B1B1BDDD959 PUSH1 0x6A SHL PUSH1 0x80 DUP3 ADD MSTORE PUSH1 0xA0 ADD SWAP1 JUMP JUMPDEST PUSH1 0x20 DUP1 DUP3 MSTORE PUSH1 0x24 SWAP1 DUP3 ADD MSTORE PUSH32 0x596F7520617265206E6F74206F757220636F6D6D756E69747920696E666C7565 PUSH1 0x40 DUP3 ADD MSTORE PUSH4 0x3731B2B9 PUSH1 0xE1 SHL PUSH1 0x60 DUP3 ADD MSTORE PUSH1 0x80 ADD SWAP1 JUMP JUMPDEST PUSH1 0x0 DUP3 MLOAD PUSH2 0x4CAC DUP2 DUP5 PUSH1 0x20 DUP8 ADD PUSH2 0x4436 JUMP JUMPDEST SWAP2 SWAP1 SWAP2 ADD SWAP3 SWAP2 POP POP JUMP JUMPDEST DUP1 MLOAD PUSH10 0xFFFFFFFFFFFFFFFFFFFF DUP2 AND DUP2 EQ PUSH2 0x1A86 JUMPI PUSH1 0x0 DUP1 REVERT JUMPDEST PUSH1 0x0 DUP1 PUSH1 0x0 DUP1 PUSH1 0x0 PUSH1 0xA0 DUP7 DUP9 SUB SLT ISZERO PUSH2 0x4CE8 JUMPI PUSH1 0x0 DUP1 REVERT JUMPDEST PUSH2 0x4CF1 DUP7 PUSH2 0x4CB6 JUMP JUMPDEST SWAP5 POP PUSH1 0x20 DUP7 ADD MLOAD SWAP4 POP PUSH1 0x40 DUP7 ADD MLOAD SWAP3 POP PUSH1 0x60 DUP7 ADD MLOAD SWAP2 POP PUSH2 0x4D14 PUSH1 0x80 DUP8 ADD PUSH2 0x4CB6 JUMP JUMPDEST SWAP1 POP SWAP3 SWAP6 POP SWAP3 SWAP6 SWAP1 SWAP4 POP JUMP JUMPDEST PUSH1 0x0 DUP3 PUSH2 0x4D2F JUMPI PUSH2 0x4D2F PUSH2 0x4B6B JUMP JUMPDEST POP MOD SWAP1 JUMP JUMPDEST PUSH1 0x20 DUP1 DUP3 MSTORE PUSH1 0x2A SWAP1 DUP3 ADD MSTORE PUSH32 0x455243313135353A20696E73756666696369656E742062616C616E636520666F PUSH1 0x40 DUP3 ADD MSTORE PUSH10 0x39103A3930B739B332B9 PUSH1 0xB1 SHL PUSH1 0x60 DUP3 ADD MSTORE PUSH1 0x80 ADD SWAP1 JUMP JUMPDEST PUSH1 0x40 DUP2 MSTORE PUSH1 0x0 PUSH2 0x4D91 PUSH1 0x40 DUP4 ADD DUP6 PUSH2 0x44BC JUMP JUMPDEST DUP3 DUP2 SUB PUSH1 0x20 DUP5 ADD MSTORE PUSH2 0x4555 DUP2 DUP6 PUSH2 0x44BC JUMP JUMPDEST PUSH1 0x1 DUP1 PUSH1 0xA0 SHL SUB DUP5 AND DUP2 MSTORE DUP3 PUSH1 0x20 DUP3 ADD MSTORE PUSH1 0x60 PUSH1 0x40 DUP3 ADD MSTORE PUSH1 0x0 PUSH2 0x4555 PUSH1 0x60 DUP4 ADD DUP5 PUSH2 0x4462 JUMP JUMPDEST PUSH1 0x0 PUSH1 0x20 DUP3 DUP5 SUB SLT ISZERO PUSH2 0x4DDC JUMPI PUSH1 0x0 DUP1 REVERT JUMPDEST DUP2 MLOAD PUSH2 0x3851 DUP2 PUSH2 0x48DE JUMP JUMPDEST PUSH1 0x0 DUP1 DUP4 SLT DUP1 ISZERO PUSH1 0x1 PUSH1 0xFF SHL DUP6 ADD DUP5 SLT AND ISZERO PUSH2 0x4E05 JUMPI PUSH2 0x4E05 PUSH2 0x4AA5 JUMP JUMPDEST PUSH1 0x1 PUSH1 0x1 PUSH1 0xFF SHL SUB DUP5 ADD DUP4 SGT DUP2 AND ISZERO PUSH2 0x4E20 JUMPI PUSH2 0x4E20 PUSH2 0x4AA5 JUMP JUMPDEST POP POP SUB SWAP1 JUMP JUMPDEST PUSH1 0x0 DUP3 PUSH2 0x4E35 JUMPI PUSH2 0x4E35 PUSH2 0x4B6B JUMP JUMPDEST PUSH1 0x1 PUSH1 0xFF SHL DUP3 EQ PUSH1 0x0 NOT DUP5 EQ AND ISZERO PUSH2 0x4E4F JUMPI PUSH2 0x4E4F PUSH2 0x4AA5 JUMP JUMPDEST POP SDIV SWAP1 JUMP JUMPDEST PUSH1 0x0 DUP1 DUP3 SLT DUP1 ISZERO PUSH1 0x1 PUSH1 0x1 PUSH1 0xFF SHL SUB DUP5 SWAP1 SUB DUP6 SGT AND ISZERO PUSH2 0x4E76 JUMPI PUSH2 0x4E76 PUSH2 0x4AA5 JUMP JUMPDEST PUSH1 0x1 PUSH1 0xFF SHL DUP4 SWAP1 SUB DUP5 SLT DUP2 AND ISZERO PUSH2 0x4E8F JUMPI PUSH2 0x4E8F PUSH2 0x4AA5 JUMP JUMPDEST POP POP ADD SWAP1 JUMP JUMPDEST PUSH1 0x0 PUSH1 0x1 PUSH1 0x1 PUSH1 0xFF SHL SUB DUP2 DUP5 SGT DUP3 DUP5 SGT DUP1 DUP3 AND DUP7 DUP5 DIV DUP7 GT AND ISZERO PUSH2 0x4EBB JUMPI PUSH2 0x4EBB PUSH2 0x4AA5 JUMP JUMPDEST PUSH1 0x1 PUSH1 0xFF SHL PUSH1 0x0 DUP8 SLT DUP3 DUP2 AND DUP8 DUP4 SDIV DUP10 SLT AND ISZERO PUSH2 0x4EDA JUMPI PUSH2 0x4EDA PUSH2 0x4AA5 JUMP JUMPDEST PUSH1 0x0 DUP8 SLT SWAP3 POP DUP8 DUP3 SDIV DUP8 SLT DUP5 DUP5 AND AND ISZERO PUSH2 0x4EF6 JUMPI PUSH2 0x4EF6 PUSH2 0x4AA5 JUMP JUMPDEST DUP8 DUP6 SDIV DUP8 SLT DUP2 DUP5 AND AND ISZERO PUSH2 0x4F0C JUMPI PUSH2 0x4F0C PUSH2 0x4AA5 JUMP JUMPDEST POP POP POP SWAP3 SWAP1 SWAP4 MUL SWAP4 SWAP3 POP POP POP JUMP JUMPDEST PUSH1 0x1 PUSH1 0x1 PUSH1 0xA0 SHL SUB DUP7 DUP2 AND DUP3 MSTORE DUP6 AND PUSH1 0x20 DUP3 ADD MSTORE PUSH1 0x40 DUP2 ADD DUP5 SWAP1 MSTORE PUSH1 0x60 DUP2 ADD DUP4 SWAP1 MSTORE PUSH1 0xA0 PUSH1 0x80 DUP3 ADD DUP2 SWAP1 MSTORE PUSH1 0x0 SWAP1 PUSH2 0x4F54 SWAP1 DUP4 ADD DUP5 PUSH2 0x4462 JUMP JUMPDEST SWAP8 SWAP7 POP POP POP POP POP POP POP JUMP JUMPDEST PUSH1 0x0 PUSH1 0x20 DUP3 DUP5 SUB SLT ISZERO PUSH2 0x4F71 JUMPI PUSH1 0x0 DUP1 REVERT JUMPDEST DUP2 MLOAD PUSH2 0x3851 DUP2 PUSH2 0x43BE JUMP JUMPDEST PUSH1 0x0 PUSH1 0x3 RETURNDATASIZE GT ISZERO PUSH2 0x4F95 JUMPI PUSH1 0x4 PUSH1 0x0 DUP1 RETURNDATACOPY POP PUSH1 0x0 MLOAD PUSH1 0xE0 SHR JUMPDEST SWAP1 JUMP JUMPDEST PUSH1 0x0 PUSH1 0x44 RETURNDATASIZE LT ISZERO PUSH2 0x4FA6 JUMPI SWAP1 JUMP JUMPDEST PUSH1 0x40 MLOAD PUSH1 0x3 NOT RETURNDATASIZE DUP2 ADD PUSH1 0x4 DUP4 RETURNDATACOPY DUP2 MLOAD RETURNDATASIZE PUSH1 0x1 PUSH1 0x1 PUSH1 0x40 SHL SUB DUP2 PUSH1 0x24 DUP5 ADD GT DUP2 DUP5 GT OR ISZERO PUSH2 0x4FD5 JUMPI POP POP POP POP POP SWAP1 JUMP JUMPDEST DUP3 DUP6 ADD SWAP2 POP DUP2 MLOAD DUP2 DUP2 GT ISZERO PUSH2 0x4FED JUMPI POP POP POP POP POP POP SWAP1 JUMP JUMPDEST DUP5 RETURNDATASIZE DUP8 ADD ADD PUSH1 0x20 DUP3 DUP6 ADD ADD GT ISZERO PUSH2 0x5007 JUMPI POP POP POP POP POP POP SWAP1 JUMP JUMPDEST PUSH2 0x5016 PUSH1 0x20 DUP3 DUP7 ADD ADD DUP8 PUSH2 0x45B3 JUMP JUMPDEST POP SWAP1 SWAP6 SWAP5 POP POP POP POP POP JUMP JUMPDEST PUSH1 0x20 DUP1 DUP3 MSTORE PUSH1 0x28 SWAP1 DUP3 ADD MSTORE PUSH32 0x455243313135353A204552433131353552656365697665722072656A65637465 PUSH1 0x40 DUP3 ADD MSTORE PUSH8 0x6420746F6B656E73 PUSH1 0xC0 SHL PUSH1 0x60 DUP3 ADD MSTORE PUSH1 0x80 ADD SWAP1 JUMP JUMPDEST PUSH1 0x1 PUSH1 0x1 PUSH1 0xA0 SHL SUB DUP7 DUP2 AND DUP3 MSTORE DUP6 AND PUSH1 0x20 DUP3 ADD MSTORE PUSH1 0xA0 PUSH1 0x40 DUP3 ADD DUP2 SWAP1 MSTORE PUSH1 0x0 SWAP1 PUSH2 0x5095 SWAP1 DUP4 ADD DUP7 PUSH2 0x44BC JUMP JUMPDEST DUP3 DUP2 SUB PUSH1 0x60 DUP5 ADD MSTORE PUSH2 0x50A7 DUP2 DUP7 PUSH2 0x44BC JUMP JUMPDEST SWAP1 POP DUP3 DUP2 SUB PUSH1 0x80 DUP5 ADD MSTORE PUSH2 0x3FB9 DUP2 DUP6 PUSH2 0x4462 JUMP INVALID 0xB3 PUSH2 0xAEA3 GASPRICE SUB BASEFEE 0xD0 NUMBER 0xDE 0xAC 0xE4 0xA5 PUSH3 0xCB920A 0xC1 SDIV ADDMOD CODECOPY PUSH27 0xD80F12DFE9A2A063E047A2646970667358221220227A65CB585947 PUSH1 0x1D 0x5D PUSH6 0x8567E8F080F6 CODESIZE 0xD0 DUP5 0xC4 0xBC 0xFC 0x23 KECCAK256 0xEC PUSH26 0x1D203106A564736F6C634300080B003300000000000000000000 ","sha1":"2a6bcddaa1e45bcbeb5659cc2932eb6b9ef4f547","source":"// SPDX-License-Identifier: MIT\npragma solidity ^0.8.0;\n\nimport \"./MemorizeThisDay.sol\";\n\ncontract MemorizeThisDayOnBTC is MemorizeThisDay {\n    constructor(\n        address vrfCoordinator,\n        address linkToken,\n        uint256 chainlinkFee,\n        bytes32 keyHash,\n        address priceFeedAddress,\n        address developersAddress,\n        address founderAddress\n    )\n        public\n        MemorizeThisDay(\n            \"Bitcoin\",\n            \"https://memorizethisday.github.io/BTC/{id}.json\",\n            100,\n            vrfCoordinator,\n            linkToken,\n            chainlinkFee,\n            keyHash,\n            priceFeedAddress\n        )\n    {\n        SetStratDate(2015, 1, 5);\n        SetFounderAddress(founderAddress);\n        SetDeveloperTeamShareAddress(developersAddress);\n        _airdrop[founderAddress] = 55;\n        Memorize(2015, 1, 5, developersAddress);\n        Memorize(2015, 1, 6, developersAddress);\n        Memorize(2015, 1, 7, developersAddress);\n        Memorize(2015, 1, 8, developersAddress);\n        Memorize(2015, 1, 9, developersAddress);\n        Memorize(2015, 1, 10, developersAddress);\n        Memorize(2015, 1, 11, developersAddress);\n        Memorize(2015, 1, 12, developersAddress);\n        Memorize(2015, 1, 13, developersAddress);\n        Memorize(2015, 1, 14, developersAddress);\n        Memorize(2015, 1, 15, developersAddress);\n        Memorize(2015, 1, 16, developersAddress);\n        Memorize(2015, 1, 17, developersAddress);\n        Memorize(2015, 1, 18, developersAddress);\n        Memorize(2015, 1, 19, developersAddress);\n        Memorize(2015, 1, 20, developersAddress);\n        Memorize(2015, 1, 21, developersAddress);\n        Memorize(2015, 1, 22, developersAddress);\n        Memorize(2015, 1, 23, developersAddress);\n        Memorize(2015, 1, 24, developersAddress);\n\n        Memorize(2015, 1, 25, founderAddress);\n        Memorize(2016, 7, 9, founderAddress);\n        Memorize(2016, 1, 1, founderAddress);\n        Memorize(2017, 1, 1, founderAddress);\n        Memorize(2021, 10, 20, founderAddress);\n        Mint_Electoral(founderAddress);\n        //Initial invites to our community\n        Memorize(\n            2015,\n            2,\n            1,\n            address(0xc1064E3662b0718357e9050694A3BfeaaBeDE8AB)\n        );\n        Memorize(\n            2015,\n            2,\n            2,\n            address(0xA4A8d44646e2F4C4a74b892303A13c85fb876338)\n        );\n        Memorize(\n            2015,\n            2,\n            3,\n            address(0xa679c6154b8d4619Af9F83f0bF9a13A680e01eCf)\n        );\n        Memorize(\n            2015,\n            2,\n            4,\n            address(0x3bEcf83939f34311b6bEe143197872d877501B11)\n        );\n        Memorize(\n            2015,\n            2,\n            5,\n            address(0x3aA01Cf5e869d88fB4517798DB6A95a6ecd2C001)\n        );\n        Memorize(\n            2015,\n            2,\n            6,\n            address(0xC438FC7FF0c3Cce806c60740818dfd39e88c9B97)\n        );\n        Memorize(\n            2015,\n            2,\n            7,\n            address(0x8c2b143b0276Bafd2613bB41D7058583Cf6706C7)\n        );\n        Memorize(\n            2015,\n            2,\n            8,\n            address(0xb4C27f85d7659E0CF72F479693c564e61472cb57)\n        );\n        Memorize(\n            2015,\n            2,\n            9,\n            address(0x3C6aEFF92b4B35C2e1b196B57d0f8FFB56884A17)\n        );\n        Memorize(\n            2015,\n            2,\n            10,\n            address(0xc6C478f3b11Cba17bE3AACc601EAf671f6dbE5cc)\n        );\n        Memorize(\n            2015,\n            2,\n            11,\n            address(0x79C91f03590fCeBA9b42AcEc18375cB279e0881e)\n        );\n        Memorize(\n            2015,\n            2,\n            12,\n            address(0x9451F0eF7a6BbBB6466B69cA19b7944D7Bb836fd)\n        );\n        Memorize(\n            2015,\n            2,\n            13,\n            address(0xd6a984153aCB6c9E2d788f08C2465a1358BB89A7)\n        );\n        Memorize(\n            2015,\n            2,\n            14,\n            address(0x0394451c1238CEC1E825229E692AA9E428C107D8)\n        );\n        Memorize(\n            2015,\n            2,\n            15,\n            address(0xbEA020c3bD417f30De4d6bd05b0ED310ac586cc0)\n        );\n        Memorize(\n            2015,\n            2,\n            16,\n            address(0xfF0BD4AA3496739D5667AdC10e2b843DFAB5712b)\n        );\n        Memorize(\n            2015,\n            2,\n            17,\n            address(0x7Ae352b0C23C63a288B8f40F249b5f72D15b8F8A)\n        );\n        Memorize(\n            2015,\n            2,\n            18,\n            address(0x7eb413211a9DE1cd2FE8b8Bb6055636c43F7d206)\n        );\n        Memorize(\n            2015,\n            2,\n            19,\n            address(0xA6D3a33a1C66083859765b9D6E407D095a908193)\n        );\n        Memorize(\n            2015,\n            2,\n            20,\n            address(0x544ec526B8a4bB1f6E465f3C8d135d32c7A41db7)\n        );\n        Memorize(\n            2015,\n            2,\n            21,\n            address(0xEe81a1Bc1034b0906b132c98bED477B896B731DA)\n        );\n        Memorize(\n            2015,\n            2,\n            22,\n            address(0x1d00ff1416cF4eD1CEAAe24Bfddf8e4997bC3507)\n        );\n        Memorize(\n            2015,\n            2,\n            23,\n            address(0xf32e4AdacF9F005c7324422A4d983a2a22E8426A)\n        );\n        Memorize(\n            2015,\n            2,\n            24,\n            address(0xc86B12d850FdBBF3260a7BAAE862F85857aAdBBa)\n        );\n        Memorize(\n            2015,\n            2,\n            25,\n            address(0xA71EB149Cf78a5Db76Dd674b58f5Da9eCF117cd6)\n        );\n        Memorize(\n            2015,\n            2,\n            26,\n            address(0xc255bBF72691F6363c7f96e475f48786e62de4C5)\n        );\n        Memorize(\n            2015,\n            2,\n            27,\n            address(0xE157165EAf27Ed493B9eABB5D45416dC78B3E7ED)\n        );\n        Memorize(\n            2015,\n            2,\n            28,\n            address(0xCe90a7949bb78892F159F428D0dC23a8E3584d75)\n        );\n        Memorize(\n            2015,\n            2,\n            29,\n            address(0x72965cdff3545C77A4A21DFFdcb651f962015b3A)\n        );\n        Memorize(\n            2015,\n            2,\n            30,\n            address(0x1f0A3E4892F9C1a80aD4eA6b3c70C874bbC9733d)\n        );\n\n        //Initial airdrop invite\n        _airdrop[address(0xC0228Ece9Ef10a26F6fF54FE283756C665637a09)] = 1;\n        _airdrop[address(0x6e83a1B32f71713023D22f44020ca46cF7e1ca9b)] = 1;\n        _airdrop[address(0x5eBAB14ee05226E944e28C561f2018d7e988646C)] = 1;\n        _airdrop[address(0xaecF8D42B96B570266105Cbc47F727D41e9C5A6e)] = 1;\n        _airdrop[address(0x8d342391ba2B024DE94B96e9166653F7Ff5de5a1)] = 1;\n        _airdrop[address(0xae8d895c2F5c075FBf0087746b29Af68626f92f2)] = 1;\n        _airdrop[address(0x8FDc9ef1458178738baF0A081b6c295dfdB8Fba2)] = 1;\n        _airdrop[address(0x95512a7dE83df205F535A3300f9492659eD2037c)] = 1;\n        _airdrop[address(0xb030f436284630b98d827ef2f02179cA32E3cC31)] = 1;\n        _airdrop[address(0x2531e6e34e9b13B1239e99616E9cCbF42B0F0c19)] = 1;\n        _airdrop[address(0x0A9A1B9566aAea72867e568738c6eDD63bCC0a01)] = 1;\n        _airdrop[address(0xd703C69BC4F85BBF069A2843C38C3F151BDec6d4)] = 1;\n        _airdrop[address(0x636073002c6B720338e85B4516cE16cEfcb1e1Eb)] = 1;\n        _airdrop[address(0x2594F0CFEcCfB5313a6aE5E64cf9D532974b29b7)] = 1;\n        _airdrop[address(0x23E404C7e94C8b99312a326Fc3D82Fb950bAecff)] = 1;\n        _airdrop[address(0xAa35c5A2970B3Aad3C0a016c10589D8D53d967b0)] = 1;\n        _airdrop[address(0xE6F797F439b88F6B012b801c60B4e43191a2dBB8)] = 1;\n        _airdrop[address(0x2d892F0CB07802723241Bb4B7Cb0e44b67Eec969)] = 1;\n        _airdrop[address(0x0101eb7f9b57C262e3b25fF5790e442710Cf440a)] = 1;\n        _airdrop[address(0xe89c6bC4f3FC372b685FBB8b16CA2C187c31a354)] = 1;\n    }\n}\n","sourcePath":"contracts/MemorizeBTC.sol","deployment":{"address":"0x64f6Fa6BD11a68D4fEB15Dd815587290E6d2a326","chainid":"4","blockHeight":10447186}}