{"bytecode":"60c06040526000600a556000600b556000600c556007600e556007600f553480156200002a57600080fd5b50604051620050c9380380620050c98339810160408190526200004d91620005b5565b604051806040016040528060078152602001662134ba31b7b4b760c91b8152506040518060600160405280602f81526020016200509a602f913960648888888888888585896200009d81620001b8565b506003805460ff19169055620000b333620001d1565b6001600160a01b0391821660a05216608052620000d987670de0b6b3a76400006200063a565b600a819055600c55601980546001600160a01b0319166001600160a01b0383169081179091556000908152601c60209081526040909120601490819055859055601584905542601081905560115589516200013b91600991908c0190620004f2565b5050601680546001600160a01b0319908116600190811790925560178054821660021790556018805482166003179055601a805482166004179055600880546001600160a01b03949094169390911692909217909155620001ac97506107df9650945060059350506200022b915050565b505050505050620007f6565b8051620001cd906002906020840190620004f2565b5050565b600380546001600160a01b03838116610100818102610100600160a81b031985161790945560405193909204169182907f8be0079c531659141344cd1fd0a4f28419497f9722a3daafe3b4186f6b6457e090600090a35050565b6003546001600160a01b03610100909104163314620002915760405162461bcd60e51b815260206004820181905260248201527f4f776e61626c653a2063616c6c6572206973206e6f7420746865206f776e657260448201526064015b60405180910390fd5b60035460ff1615620002d95760405162461bcd60e51b815260206004820152601060248201526f14185d5cd8589b194e881c185d5cd95960821b604482015260640162000288565b6000620002f38484846200035b60201b620029da1760201c565b905060125460001462000353576012548110620003535760405162461bcd60e51b815260206004820152601f60248201527f4f6e6c79206261636b77617264206368616e676520697320616c6c6f77656400604482015260640162000288565b601255505050565b6000620151806200036e85858562000382565b6200037a91906200063a565b949350505050565b60006107b28410156200039457600080fd5b838383600062253d8c60046064600c620003b0600e886200065c565b620003bc9190620006a1565b620003ca88611324620006e1565b620003d69190620006e1565b620003e29190620006a1565b620003ef90600362000728565b620003fb9190620006a1565b600c806200040b600e886200065c565b620004179190620006a1565b6200042490600c62000728565b620004316002886200065c565b6200043d91906200065c565b6200044b9061016f62000728565b620004579190620006a1565b6004600c62000468600e896200065c565b620004749190620006a1565b62000482896112c0620006e1565b6200048e9190620006e1565b6200049c906105b562000728565b620004a89190620006a1565b620004b6617d4b876200065c565b620004c29190620006e1565b620004ce9190620006e1565b620004da91906200065c565b620004e691906200065c565b98975050505050505050565b8280546200050090620007b9565b90600052602060002090601f0160209004810192826200052457600085556200056f565b82601f106200053f57805160ff19168380011785556200056f565b828001600101855582156200056f579182015b828111156200056f57825182559160200191906001019062000552565b506200057d92915062000581565b5090565b5b808211156200057d576000815560010162000582565b80516001600160a01b0381168114620005b057600080fd5b919050565b60008060008060008060c08789031215620005cf57600080fd5b620005da8762000598565b9550620005ea6020880162000598565b94506040870151935060608701519250620006086080880162000598565b91506200061860a0880162000598565b90509295509295509295565b634e487b7160e01b600052601160045260246000fd5b600081600019048311821515161562000657576200065762000624565b500290565b60008083128015600160ff1b8501841216156200067d576200067d62000624565b6001600160ff1b03840183138116156200069b576200069b62000624565b50500390565b600082620006bf57634e487b7160e01b600052601260045260246000fd5b600160ff1b821460001984141615620006dc57620006dc62000624565b500590565b600080821280156001600160ff1b038490038513161562000706576200070662000624565b600160ff1b839003841281161562000722576200072262000624565b50500190565b60006001600160ff1b038184138284138082168684048611161562000751576200075162000624565b600160ff1b600087128281168783058912161562000773576200077362000624565b6000871292508782058712848416161562000792576200079262000624565b87850587128184161615620007ab57620007ab62000624565b505050929093029392505050565b600181811c90821680620007ce57607f821691505b60208210811415620007f057634e487b7160e01b600052602260045260246000fd5b50919050565b60805160a051614877620008236000396000818161216801526133ba0152600061338b01526148776000f3fe6080604052600436106103f95760003560e01c8063715018a611610213578063bdc7dd3a11610123578063e9cc3b54116100ab578063f2fde38b1161007a578063f2fde38b14610b79578063f6e9119214610b99578063f8a433ec14610bb9578063f9da6a1a14610bce578063ffcb515614610be3576103f9565b8063e9cc3b5414610b2f578063ec16f94714610b44578063ec3f1a3214610571578063f242432a14610b59576103f9565b8063d8b4d6e3116100f2578063d8b4d6e314610a5b578063dbdad46414610a70578063dd2cec7f14610a90578063e5ada10c14610ac6578063e985e9c514610ae6576103f9565b8063bdc7dd3a146109fb578063c993717214610a10578063d50ac89214610a30578063d6b4c04114610a46576103f9565b80639e6db9d7116101a6578063ab32d59411610175578063ab32d5941461097b578063ac8daba014610990578063ae969cd2146109a6578063bafdf5bb146109c6578063bbb6e49d146109e6576103f9565b80639e6db9d714610905578063a22cb46514610925578063a5ee025714610945578063a9665b7a14610965576103f9565b806392b56abb116101e257806392b56abb146108ba57806393e51b64146108cf57806394985ddd146108e557806396ff141f14610571576103f9565b8063715018a61461084d57806371b7ab4c1461086257806389af787f146108775780638da5cb5b14610897576103f9565b8063340d899a1161030e57806356f2520d116102a15780636cebb54e116102705780636cebb54e146107d95780636db3cc46146107ee5780636e21fc87146108035780636f78a4f71461083057806370e44c6a14610838576103f9565b806356f2520d146107615780635c975abb146107815780635eae5b301461079957806364e376b6146107b9576103f9565b8063503d3a81116102dd578063503d3a81146106e1578063503f558114610701578063516b466e14610721578063542d44ed14610741576103f9565b8063340d899a146106805780633f711137146106965780634e1273f4146106ab5780634e3412b2146106cb576103f9565b806310ab09a3116103915780631f34bdca116103605780631f34bdca146105ea5780632eb2c2d6146105fd578063303dd5531461061d578063313d3e9214610633578063327285dc14610653576103f9565b806310ab09a31461057157806313887d95146105865780631528662c146105b35780631c8108b1146105d5576103f9565b806306389ca1116103cd57806306389ca1146104bf5780630a6a001c146104f75780630e89341c146105175780630fe79bd014610544576103f9565b8062fdd58e1461042657806301ffc9a714610459578063037a2414146104895780630387da42146104a9575b306000908152601b6020526040902054610414903490613bcc565b306000908152601b6020526040902055005b34801561043257600080fd5b50610446610441366004613bfb565b610bf8565b6040519081526020015b60405180910390f35b34801561046557600080fd5b50610479610474366004613c3b565b610c8f565b6040519015158152602001610450565b34801561049557600080fd5b506104466104a4366004613c58565b610ce1565b3480156104b557600080fd5b50610446600c5481565b3480156104cb57600080fd5b506104df6104da366004613c58565b610cf6565b6040516001600160a01b039091168152602001610450565b34801561050357600080fd5b50610446610512366004613c84565b610d25565b34801561052357600080fd5b50610537610532366004613c84565b610d46565b6040516104509190613cea565b34801561055057600080fd5b5061056461055f366004613d0b565b610dda565b6040516104509190613d63565b34801561057d57600080fd5b50610446600a81565b34801561059257600080fd5b506104466105a1366004613d76565b601b6020526000908152604090205481565b3480156105bf57600080fd5b506105d36105ce366004613d91565b610f1e565b005b3480156105e157600080fd5b506105d361100b565b6105d36105f8366004613c58565b611045565b34801561060957600080fd5b506105d3610618366004613f14565b611705565b34801561062957600080fd5b5061044660105481565b34801561063f57600080fd5b5061047961064e366004613c84565b611795565b34801561065f57600080fd5b5061067361066e366004613c58565b6117c3565b6040516104509190613fbe565b34801561068c57600080fd5b5061044660145481565b3480156106a257600080fd5b50600d54610446565b3480156106b757600080fd5b506105646106c636600461400b565b611a8c565b3480156106d757600080fd5b50610446600a5481565b3480156106ed57600080fd5b506105d36106fc3660046140d6565b611bb6565b34801561070d57600080fd5b506105d361071c366004613c84565b611ce9565b34801561072d57600080fd5b506105d361073c366004613c58565b611d41565b34801561074d57600080fd5b506019546104df906001600160a01b031681565b34801561076d57600080fd5b5061053761077c366004613c84565b611e06565b34801561078d57600080fd5b5060035460ff16610479565b3480156107a557600080fd5b506105d36107b4366004613d76565b611ea0565b3480156107c557600080fd5b50601a546104df906001600160a01b031681565b3480156107e557600080fd5b50610537611f15565b3480156107fa57600080fd5b50610446600181565b34801561080f57600080fd5b5061044661081e366004613d76565b601c6020526000908152604090205481565b6105d3611f22565b34801561084457600080fd5b506105d3611f95565b34801561085957600080fd5b506105d361207c565b34801561086e57600080fd5b50610446600f81565b34801561088357600080fd5b506105d3610892366004614130565b6120b6565b3480156108a357600080fd5b5060035461010090046001600160a01b03166104df565b3480156108c657600080fd5b50610537612150565b3480156108db57600080fd5b5061044660115481565b3480156108f157600080fd5b506105d36109003660046141b8565b61215d565b34801561091157600080fd5b506018546104df906001600160a01b031681565b34801561093157600080fd5b506105d3610940366004613d91565b6121df565b34801561095157600080fd5b506017546104df906001600160a01b031681565b34801561097157600080fd5b50610446600f5481565b34801561098757600080fd5b50601354610446565b34801561099c57600080fd5b5061044660125481565b3480156109b257600080fd5b506104df6109c1366004613c84565b6121ea565b3480156109d257600080fd5b506105d36109e1366004613d91565b612214565b3480156109f257600080fd5b50610446600981565b348015610a0757600080fd5b50610446601481565b348015610a1c57600080fd5b506105d3610a2b366004613d91565b6122d4565b348015610a3c57600080fd5b50610446600e5481565b348015610a5257600080fd5b50610537612394565b348015610a6757600080fd5b50610446601981565b348015610a7c57600080fd5b506105d3610a8b366004613d76565b6123a1565b348015610a9c57600080fd5b506104df610aab366004613c84565b601d602052600090815260409020546001600160a01b031681565b348015610ad257600080fd5b506016546104df906001600160a01b031681565b348015610af257600080fd5b50610479610b013660046141da565b6001600160a01b03918216600090815260016020908152604080832093909416825291909152205460ff1690565b348015610b3b57600080fd5b506105d36124ae565b348015610b5057600080fd5b506105d361259b565b348015610b6557600080fd5b506105d3610b7436600461420d565b6126f0565b348015610b8557600080fd5b506105d3610b94366004613d76565b612777565b348015610ba557600080fd5b506105d3610bb4366004613d91565b612818565b348015610bc557600080fd5b506104466128d8565b348015610bda57600080fd5b50610537612995565b348015610bef57600080fd5b506105d36129a2565b60006001600160a01b038316610c695760405162461bcd60e51b815260206004820152602b60248201527f455243313135353a2062616c616e636520717565727920666f7220746865207a60448201526a65726f206164647265737360a81b60648201526084015b60405180910390fd5b506000908152602081815260408083206001600160a01b03949094168352929052205490565b60006001600160e01b03198216636cdb3d1360e11b1480610cc057506001600160e01b031982166303a24d0760e21b145b80610cdb57506301ffc9a760e01b6001600160e01b03198316145b92915050565b6000610cee8484846129da565b949350505050565b600080610d048585856129da565b6000908152601d60205260409020546001600160a01b031695945050505050565b60138181548110610d3557600080fd5b600091825260209091200154905081565b606060028054610d5590614272565b80601f0160208091040260200160405190810160405280929190818152602001828054610d8190614272565b8015610dce5780601f10610da357610100808354040283529160200191610dce565b820191906000526020600020905b815481529060010190602001808311610db157829003601f168201915b50505050509050919050565b60135460609060009067ffffffffffffffff811115610dfb57610dfb613dc8565b604051908082528060200260200182016040528015610e24578160200160208202803683370190505b50905060005b601354811015610f17578315610ec857336001600160a01b0316601d600060138481548110610e5b57610e5b6142ad565b600091825260208083209091015483528201929092526040019020546001600160a01b03161415610ec35760138181548110610e9957610e996142ad565b9060005260206000200154828281518110610eb657610eb66142ad565b6020026020010181815250505b610f05565b60138181548110610edb57610edb6142ad565b9060005260206000200154828281518110610ef857610ef86142ad565b6020026020010181815250505b80610f0f816142c3565b915050610e2a565b5092915050565b6003546001600160a01b03610100909104163314610f4e5760405162461bcd60e51b8152600401610c60906142de565b8015610f9857601780546001600160a01b038481166001600160a01b031983168117909355166000818152601b602052604080822080549483529082209390935590815290555050565b601780546001600160a01b038481166001600160a01b031983161790925581166000818152601b60205260408082205460195490941682529020549091610fde91613bcc565b6019546001600160a01b039081166000908152601b602052604080822093909355921682528120555b5050565b6003546001600160a01b0361010090910416331461103b5760405162461bcd60e51b8152600401610c60906142de565b6110436129f5565b565b60035460ff16156110685760405162461bcd60e51b8152600401610c6090614313565b8115806110755750600c82115b156110ba5760405162461bcd60e51b81526020600482015260156024820152743bb937b7339036b7b73a341039b2b632b1ba34b7b760591b6044820152606401610c60565b8015806110c75750601f81115b1561110a5760405162461bcd60e51b81526020600482015260136024820152723bb937b733903230bc9039b2b632b1ba34b7b760691b6044820152606401610c60565b81600414806111195750816006145b806111245750816009145b8061112f575081600b145b801561113b5750601e81115b50816002148015611150575061115083612a6a565b801561115c5750601d81115b50816002148015611173575061117183612a6a565b155b801561117f5750601c81115b50600061118d8484846129da565b905061119881611795565b61121c5760405162461bcd60e51b815260206004820152604960248201527f54686973206461792043616e206e6f74206265206d696e74206174207468652060448201527f6d6f6d656e742c706c65617365207761697420756e74696c20746865206163746064820152683ab0b636103230bc9760b91b608482015260a401610c60565b6000818152601d60205260409020546001600160a01b0316156112815760405162461bcd60e51b815260206004820152601e60248201527f54686973206461792068617320616c7265616479206d656d6f72697a656400006044820152606401610c60565b336000908152601c6020526040812054156112c65750336000908152601c60205260409020546001906112b590829061433d565b336000908152601c60205260409020555b806115f1576112d36128d8565b3410156113305760405162461bcd60e51b815260206004820152602560248201527f4e6f7420656e6f7567682066756e647320746f206d656d6f72697a6520746869604482015264732064617960d81b6064820152608401610c60565b6000606461133f600f34614354565b6113499190614389565b600080516020614822833981519152546001600160a01b03166000908152601b602052604090205490915061137f908290613bcc565b600080516020614822833981519152546001600160a01b03166000908152601b602052604081209190915560646113b7600a34614354565b6113c19190614389565b601a546001600160a01b03166000908152601b60205260409020549091506113ea908290613bcc565b601a546001600160a01b03166000908152601b60205260408120919091556064611415600134614354565b61141f9190614389565b306000908152601b602052604090205490915061143d908290613bcc565b306000908152601b6020526040902055606461145a601934614354565b6114649190614389565b600b81905561147290612aa6565b60006064611481601434614354565b61148b9190614389565b6016546001600160a01b03166000908152601b60205260409020549091506114b4908290613bcc565b6016546001600160a01b03166000908152601b602052604081209190915560646114df600a34614354565b6114e99190614389565b6017546001600160a01b03166000908152601b6020526040902054909150611512908290613bcc565b6017546001600160a01b03166000908152601b6020526040812091909155606461153d600a34614354565b6115479190614389565b6018546001600160a01b03166000908152601b6020526040902054909150611570908290613bcc565b6018546001600160a01b03166000908152601b6020526040812091909155606461159b600934614354565b6115a59190614389565b6019546001600160a01b03166000908152601b60205260409020549091506115ce908290613bcc565b6019546001600160a01b03166000908152601b6020526040902055505050505050505b61160d3383600160405180602001604052806000815250612bfc565b60138054600181019091557f66de8ffda797e3de9c05e8fc57b3bf0ec28a930d40b0d285d93c06501cf6a090018290556000828152601d6020526040902080546001600160a01b03191633179055611663612d0c565b80156116b157604080518681526020810186905290810184905233907f8f7b867d4725f039d609ba3eb633beddbb7049d42956e84b2ef81601f159b4119060600160405180910390a26116fe565b6116b9612d1e565b604080518681526020810186905290810184905233907fa51e9b2ef1f037dee551eb226d6d1581c8fb0e0243820ebd1fbb41a13e6c2364906060015b60405180910390a25b5050505050565b6001600160a01b03851633148061172157506117218533610b01565b6117885760405162461bcd60e51b815260206004820152603260248201527f455243313135353a207472616e736665722063616c6c6572206973206e6f74206044820152711bdddb995c881b9bdc88185c1c1c9bdd995960721b6064820152608401610c60565b6116fe8585858585612da4565b60004282111580156117a957506012548210155b156117b657506001919050565b506000919050565b919050565b6117cb613aa1565b60006117d88585856129da565b6000818152601d60205260409020549091506001600160a01b031661183f5760405162461bcd60e51b815260206004820152601f60248201527f546869732064617920646f6573206e6f74206d656d6f72697a656420796574006044820152606401610c60565b60408051608081018252600060608201818152825282516020818101855282825280840191909152835190810184529081529181019190915261188186612f8f565b81526009805461189090614272565b80601f01602080910402602001604051908101604052809291908181526020018280546118bc90614272565b80156119095780601f106118de57610100808354040283529160200191611909565b820191906000526020600020905b8154815290600101906020018083116118ec57829003601f168201915b505050505081600160038110611921576119216142ad565b60200201819052506000601e6000848152602001908152602001600020805461194990614272565b80601f016020809104026020016040519081016040528092919081815260200182805461197590614272565b80156119c25780601f10611997576101008083540402835291602001916119c2565b820191906000526020600020905b8154815290600101906020018083116119a557829003601f168201915b505050505090508051600014611a82576000838152601e6020526040902080546119eb90614272565b80601f0160208091040260200160405190810160405280929190818152602001828054611a1790614272565b8015611a645780601f10611a3957610100808354040283529160200191611a64565b820191906000526020600020905b815481529060010190602001808311611a4757829003601f168201915b505050505082600260038110611a7c57611a7c6142ad565b60200201525b5095945050505050565b60608151835114611af15760405162461bcd60e51b815260206004820152602960248201527f455243313135353a206163636f756e747320616e6420696473206c656e677468604482015268040dad2e6dac2e8c6d60bb1b6064820152608401610c60565b6000835167ffffffffffffffff811115611b0d57611b0d613dc8565b604051908082528060200260200182016040528015611b36578160200160208202803683370190505b50905060005b8451811015611bae57611b81858281518110611b5a57611b5a6142ad565b6020026020010151858381518110611b7457611b746142ad565b6020026020010151610bf8565b828281518110611b9357611b936142ad565b6020908102919091010152611ba7816142c3565b9050611b3c565b509392505050565b6000611bc38585856129da565b6000818152601d60205260409020549091506001600160a01b0316611c2a5760405162461bcd60e51b815260206004820152601f60248201527f546869732064617920646f6573206e6f74206d656d6f72697a656420796574006044820152606401610c60565b6000818152601d60205260409020546001600160a01b03163314611c905760405162461bcd60e51b815260206004820152601760248201527f596f7520646f6e607420686176652074686973206461790000000000000000006044820152606401610c60565b6000818152601e602090815260409091208351611caf92850190613ac8565b50336001600160a01b03167f2d51da4e9aae0a6ee06de087193c53fcc2ada79cd6d25b0d48990840471f0585836040516116f59190613cea565b6003546001600160a01b03610100909104163314611d195760405162461bcd60e51b8152600401610c60906142de565b60035460ff1615611d3c5760405162461bcd60e51b8152600401610c6090614313565b601455565b6003546001600160a01b03610100909104163314611d715760405162461bcd60e51b8152600401610c60906142de565b60035460ff1615611d945760405162461bcd60e51b8152600401610c6090614313565b6000611da18484846129da565b9050601254600014611dfe576012548110611dfe5760405162461bcd60e51b815260206004820152601f60248201527f4f6e6c79206261636b77617264206368616e676520697320616c6c6f776564006044820152606401610c60565b601255505050565b601e6020526000908152604090208054611e1f90614272565b80601f0160208091040260200160405190810160405280929190818152602001828054611e4b90614272565b8015611e985780601f10611e6d57610100808354040283529160200191611e98565b820191906000526020600020905b815481529060010190602001808311611e7b57829003601f168201915b505050505081565b6003546001600160a01b03610100909104163314611ed05760405162461bcd60e51b8152600401610c60906142de565b601980546001600160a01b039283166001600160a01b031982168117909255919091166000818152601b60205260408082208054948352908220939093559081529055565b60058054611e1f90614272565b6003546001600160a01b03610100909104163314611f525760405162461bcd60e51b8152600401610c60906142de565b306000908152601b602052604080822080549083905590519091339183156108fc0291849190818181858888f19350505050158015611007573d6000803e3d6000fd5b336000908152601b6020526040902054662386f26fc10000111561200d5760405162461bcd60e51b815260206004820152602960248201527f596f7520646f6e60742068617665206d696e2062616c616e636520666f7220776044820152681a5d1a191c985dd85b60ba1b6064820152608401610c60565b336000818152601b602052604080822080549083905590519092839290917f2f174ca282119315c59efaf21147aef438581dabdeb498198ae28964373dd8bc9190a3604051339082156108fc029083906000818181858888f19350505050158015611007573d6000803e3d6000fd5b6003546001600160a01b036101009091041633146120ac5760405162461bcd60e51b8152600401610c60906142de565b611043600061308d565b60008052601d602052600080516020614822833981519152546001600160a01b0316331480612106575060035461010090046001600160a01b03166001600160a01b0316336001600160a01b0316145b61210f57600080fd5b8251612122906007906020860190613ac8565b508151612136906006906020850190613ac8565b50805161214a906005906020840190613ac8565b50505050565b60098054611e1f90614272565b336001600160a01b037f000000000000000000000000000000000000000000000000000000000000000016146121d55760405162461bcd60e51b815260206004820152601f60248201527f4f6e6c7920565246436f6f7264696e61746f722063616e2066756c66696c6c006044820152606401610c60565b61100782826130e7565b611007338383613278565b600d81815481106121fa57600080fd5b6000918252602090912001546001600160a01b0316905081565b6003546001600160a01b036101009091041633146122445760405162461bcd60e51b8152600401610c60906142de565b801561228e57601680546001600160a01b038481166001600160a01b031983168117909355166000818152601b602052604080822080549483529082209390935590815290555050565b601680546001600160a01b038481166001600160a01b031983161790925581166000818152601b60205260408082205460195490941682529020549091610fde91613bcc565b6003546001600160a01b036101009091041633146123045760405162461bcd60e51b8152600401610c60906142de565b801561234e57601a80546001600160a01b038481166001600160a01b031983168117909355166000818152601b602052604080822080549483529082209390935590815290555050565b601a80546001600160a01b038481166001600160a01b031983161790925581166000818152601b60205260408082205460195490941682529020549091610fde91613bcc565b60078054611e1f90614272565b60008052601d602052600080516020614822833981519152546001600160a01b03163314806123f1575060035461010090046001600160a01b03166001600160a01b0316336001600160a01b0316145b6123fa57600080fd5b600f5461240960115442613359565b10156124275760405162461bcd60e51b8152600401610c609061439d565b6001600160a01b0381166000908152601c60205260409020541561248d5760405162461bcd60e51b815260206004820181905260248201527f546869732061646472657373206861732061697264726f70207469636b6574736044820152606401610c60565b426011556001600160a01b03166000908152601c6020526040902060019055565b60035460ff16156124d15760405162461bcd60e51b8152600401610c6090614313565b600e546124e060105442613359565b10156124fe5760405162461bcd60e51b8152600401610c609061439d565b600d5461254d5760405162461bcd60e51b815260206004820152601a60248201527f7468657265206973206e6f7420616e79207265676973746572730000000000006044820152606401610c60565b600061255d601554601454613387565b90507f41b48bb4a3fa87f36cd1b5550ef4af0e4c2568ea37629540b9209f5509b4a42f8160405161259091815260200190565b60405180910390a150565b60035460ff16156125be5760405162461bcd60e51b8152600401610c6090614313565b600160005b600d5481101561261c57336001600160a01b0316600d82815481106125ea576125ea6142ad565b6000918252602090912001546001600160a01b0316141561260a57600091505b80612614816142c3565b9150506125c3565b50806126815760405162461bcd60e51b815260206004820152602e60248201527f596f7520616c72656164792068617665206265656e207265676973746572656460448201526d20666f722074686973207765656b60901b6064820152608401610c60565b600d805460018101825560009182527fd7b6990105719101dabeb77144f2a3385c8033acd3af97e9423a695e81ad1eb50180546001600160a01b0319163390811790915560405190917fe0e462347257e042fb3036336d3f35ce831166d31e2cefc46d0d5046426d817591a250565b6001600160a01b03851633148061270c575061270c8533610b01565b61276a5760405162461bcd60e51b815260206004820152602960248201527f455243313135353a2063616c6c6572206973206e6f74206f776e6572206e6f7260448201526808185c1c1c9bdd995960ba1b6064820152608401610c60565b6116fe8585858585613503565b6003546001600160a01b036101009091041633146127a75760405162461bcd60e51b8152600401610c60906142de565b6001600160a01b03811661280c5760405162461bcd60e51b815260206004820152602660248201527f4f776e61626c653a206e6577206f776e657220697320746865207a65726f206160448201526564647265737360d01b6064820152608401610c60565b6128158161308d565b50565b6003546001600160a01b036101009091041633146128485760405162461bcd60e51b8152600401610c60906142de565b801561289257601880546001600160a01b038481166001600160a01b031983168117909355166000818152601b602052604080822080549483529082209390935590815290555050565b601880546001600160a01b038481166001600160a01b031983161790925581166000818152601b60205260408082205460195490941682529020549091610fde91613bcc565b600080600860009054906101000a90046001600160a01b03166001600160a01b031663feaf968c6040518163ffffffff1660e01b815260040160a060405180830381865afa15801561292e573d6000803e3d6000fd5b505050506040513d601f19601f8201168201806040525081019061295291906143e7565b5050509150506000816402540be40061296b9190614354565b905080600c54670de0b6b3a76400006129849190614354565b61298e9190614389565b9250505090565b60068054611e1f90614272565b6003546001600160a01b036101009091041633146129d25760405162461bcd60e51b8152600401610c60906142de565b611043613620565b6000620151806129eb85858561369a565b610cee9190614354565b60035460ff1615612a185760405162461bcd60e51b8152600401610c6090614313565b6003805460ff191660011790557f62e78cea01bee320cd4e420270b5ea74000d11b0c9f74754ebdbfc544b05a258612a4d3390565b6040516001600160a01b03909116815260200160405180910390a1565b6000612a77600483614437565b158015612a8d5750612a8a606483614437565b15155b80610cdb5750612a9f61019083614437565b1592915050565b6000612ab3600583614389565b60135490915060051015612bb75760005b6005811015612bb2576013805460009183612ae060018461433d565b612aea919061433d565b81548110612afa57612afa6142ad565b9060005260206000200154612b0f9190614437565b6000818152601d60209081526040808320546001600160a01b03168352601b909152902054909150612b42908490613bcc565b6000828152601d6020818152604080842080546001600160a01b039081168652601b84528286209690965586855292909152905490519216917fec89f096ab194d04cc1a0689e9d8459793609da7ccddf64b4423e830b98743ec9190a25080612baa816142c3565b915050612ac4565b505050565b6019546001600160a01b03166000908152601b6020526040902054612bdd908390613bcc565b6019546001600160a01b03166000908152601b60205260409020555050565b6001600160a01b038416612c5c5760405162461bcd60e51b815260206004820152602160248201527f455243313135353a206d696e7420746f20746865207a65726f206164647265736044820152607360f81b6064820152608401610c60565b33612c7c81600087612c6d886137d7565b612c76886137d7565b87613822565b6000848152602081815260408083206001600160a01b038916845290915281208054859290612cac908490613bcc565b909155505060408051858152602081018590526001600160a01b0380881692600092918516917fc3d58168c5ae7397731d063d5bbf3d657854427343f4c083240f7aacaa2d0f62910160405180910390a46116fe8160008787878761388a565b6013546103e81161104357601e600e55565b69152d02c7e14af6800000600c54101561104357601354612d42906105b490614437565b612d5857600a54612d54906002614354565b600a555b601354612d689061016d90614437565b612d8057600a54600c54612d7c9190613bcc565b600c555b69152d02c7e14af6800000600c5411156110435769152d02c7e14af6800000600c55565b8151835114612e065760405162461bcd60e51b815260206004820152602860248201527f455243313135353a2069647320616e6420616d6f756e7473206c656e677468206044820152670dad2e6dac2e8c6d60c31b6064820152608401610c60565b6001600160a01b038416612e2c5760405162461bcd60e51b8152600401610c609061444b565b33612e3b818787878787613822565b60005b8451811015612f21576000858281518110612e5b57612e5b6142ad565b602002602001015190506000858381518110612e7957612e796142ad565b602090810291909101810151600084815280835260408082206001600160a01b038e168352909352919091205490915081811015612ec95760405162461bcd60e51b8152600401610c6090614490565b6000838152602081815260408083206001600160a01b038e8116855292528083208585039055908b16825281208054849290612f06908490613bcc565b9250508190555050505080612f1a906142c3565b9050612e3e565b50846001600160a01b0316866001600160a01b0316826001600160a01b03167f4a39dc06d4c0dbc64b70af90fd698a233a518aa5d07e595d983b8c0526c8f7fb8787604051612f719291906144da565b60405180910390a4612f878187878787876139e6565b505050505050565b606081612fb35750506040805180820190915260018152600360fc1b602082015290565b8160005b8115612fdd5780612fc7816142c3565b9150612fd69050600a83614389565b9150612fb7565b60008167ffffffffffffffff811115612ff857612ff8613dc8565b6040519080825280601f01601f191660200182016040528015613022576020820181803683370190505b5090505b8415610cee5761303760018361433d565b9150613044600a86614437565b61304f906030613bcc565b60f81b818381518110613064576130646142ad565b60200101906001600160f81b031916908160001a905350613086600a86614389565b9450613026565b600380546001600160a01b03838116610100818102610100600160a81b031985161790945560405193909204169182907f8be0079c531659141344cd1fd0a4f28419497f9722a3daafe3b4186f6b6457e090600090a35050565b600081116131375760405162461bcd60e51b815260206004820152601a60248201527f72616e646f6d206e756d626572206973206e6f742076616c69640000000000006044820152606401610c60565b600e5461314660105442613359565b10156131645760405162461bcd60e51b8152600401610c609061439d565b42601055600d546000906131789083614437565b9050601c6000600d8381548110613191576131916142ad565b60009182526020808320909101546001600160a01b031683528201929092526040019020546131c1906001613bcc565b601c6000600d84815481106131d8576131d86142ad565b60009182526020808320909101546001600160a01b03168352820192909252604001902055600d805482908110613211576132116142ad565b600091825260209182902001546040518481526001600160a01b03909116917ff101adf3fbaf187819a99e49dd82fdbacc051e51337a2fe291907f90c263c1e2910160405180910390a2604080516000815260208101918290525161214a91600d91613b4c565b816001600160a01b0316836001600160a01b031614156132ec5760405162461bcd60e51b815260206004820152602960248201527f455243313135353a2073657474696e6720617070726f76616c20737461747573604482015268103337b91039b2b63360b91b6064820152608401610c60565b6001600160a01b03838116600081815260016020908152604080832094871680845294825291829020805460ff191686151590811790915591519182527f17307eab39ab6107e8899845ad3d59bd9653f200f220920489ca2b5937696c31910160405180910390a3505050565b60008183111561336857600080fd5b62015180613376848461433d565b6133809190614389565b9392505050565b60007f00000000000000000000000000000000000000000000000000000000000000006001600160a01b0316634000aea07f0000000000000000000000000000000000000000000000000000000000000000848660006040516020016133f7929190918252602082015260400190565b6040516020818303038152906040526040518463ffffffff1660e01b815260040161342493929190614508565b6020604051808303816000875af1158015613443573d6000803e3d6000fd5b505050506040513d601f19601f82011682018060405250810190613467919061452f565b50600083815260046020818152604080842054815180840189905280830186905230606082015260808082018390528351808303909101815260a0909101909252815191830191909120938790529190526134c3906001613bcc565b600085815260046020526040902055610cee8482604080516020808201949094528082019290925280518083038201815260609092019052805191012090565b6001600160a01b0384166135295760405162461bcd60e51b8152600401610c609061444b565b33613539818787612c6d886137d7565b6000848152602081815260408083206001600160a01b038a1684529091529020548381101561357a5760405162461bcd60e51b8152600401610c6090614490565b6000858152602081815260408083206001600160a01b038b81168552925280832087850390559088168252812080548692906135b7908490613bcc565b909155505060408051868152602081018690526001600160a01b03808916928a821692918616917fc3d58168c5ae7397731d063d5bbf3d657854427343f4c083240f7aacaa2d0f62910160405180910390a461361782888888888861388a565b50505050505050565b60035460ff166136695760405162461bcd60e51b815260206004820152601460248201527314185d5cd8589b194e881b9bdd081c185d5cd95960621b6044820152606401610c60565b6003805460ff191690557f5db9ee0a495bf2e6ff9c91a7834c1ba4fdd244a5e8aa4e537bd38aeae4b073aa33612a4d565b60006107b28410156136ab57600080fd5b838383600062253d8c60046064600c6136c5600e8861454c565b6136cf919061458b565b6136db886113246145b9565b6136e591906145b9565b6136ef919061458b565b6136fa9060036145fa565b613704919061458b565b600c80613712600e8861454c565b61371c919061458b565b61372790600c6145fa565b61373260028861454c565b61373c919061454c565b6137489061016f6145fa565b613752919061458b565b6004600c613761600e8961454c565b61376b919061458b565b613777896112c06145b9565b61378191906145b9565b61378d906105b56145fa565b613797919061458b565b6137a3617d4b8761454c565b6137ad91906145b9565b6137b791906145b9565b6137c1919061454c565b6137cb919061454c565b98975050505050505050565b60408051600180825281830190925260609160009190602080830190803683370190505090508281600081518110613811576138116142ad565b602090810291909101015292915050565b60035460ff1615612f875760405162461bcd60e51b815260206004820152602c60248201527f455243313135355061757361626c653a20746f6b656e207472616e736665722060448201526b1dda1a5b19481c185d5cd95960a21b6064820152608401610c60565b6001600160a01b0384163b15612f875760405163f23a6e6160e01b81526001600160a01b0385169063f23a6e61906138ce908990899088908890889060040161467f565b6020604051808303816000875af1925050508015613909575060408051601f3d908101601f19168201909252613906918101906146c4565b60015b6139b6576139156146e1565b806308c379a0141561394f575061392a6146fd565b806139355750613951565b8060405162461bcd60e51b8152600401610c609190613cea565b505b60405162461bcd60e51b815260206004820152603460248201527f455243313135353a207472616e7366657220746f206e6f6e20455243313135356044820152732932b1b2b4bb32b91034b6b83632b6b2b73a32b960611b6064820152608401610c60565b6001600160e01b0319811663f23a6e6160e01b146136175760405162461bcd60e51b8152600401610c6090614787565b6001600160a01b0384163b15612f875760405163bc197c8160e01b81526001600160a01b0385169063bc197c8190613a2a90899089908890889088906004016147cf565b6020604051808303816000875af1925050508015613a65575060408051601f3d908101601f19168201909252613a62918101906146c4565b60015b613a71576139156146e1565b6001600160e01b0319811663bc197c8160e01b146136175760405162461bcd60e51b8152600401610c6090614787565b60405180606001604052806003905b6060815260200190600190039081613ab05790505090565b828054613ad490614272565b90600052602060002090601f016020900481019282613af65760008555613b3c565b82601f10613b0f57805160ff1916838001178555613b3c565b82800160010185558215613b3c579182015b82811115613b3c578251825591602001919060010190613b21565b50613b48929150613ba1565b5090565b828054828255906000526020600020908101928215613b3c579160200282015b82811115613b3c57825182546001600160a01b0319166001600160a01b03909116178255602090920191600190910190613b6c565b5b80821115613b485760008155600101613ba2565b634e487b7160e01b600052601160045260246000fd5b60008219821115613bdf57613bdf613bb6565b500190565b80356001600160a01b03811681146117be57600080fd5b60008060408385031215613c0e57600080fd5b613c1783613be4565b946020939093013593505050565b6001600160e01b03198116811461281557600080fd5b600060208284031215613c4d57600080fd5b813561338081613c25565b600080600060608486031215613c6d57600080fd5b505081359360208301359350604090920135919050565b600060208284031215613c9657600080fd5b5035919050565b6000815180845260005b81811015613cc357602081850181015186830182015201613ca7565b81811115613cd5576000602083870101525b50601f01601f19169290920160200192915050565b6020815260006133806020830184613c9d565b801515811461281557600080fd5b600060208284031215613d1d57600080fd5b813561338081613cfd565b600081518084526020808501945080840160005b83811015613d5857815187529582019590820190600101613d3c565b509495945050505050565b6020815260006133806020830184613d28565b600060208284031215613d8857600080fd5b61338082613be4565b60008060408385031215613da457600080fd5b613dad83613be4565b91506020830135613dbd81613cfd565b809150509250929050565b634e487b7160e01b600052604160045260246000fd5b601f8201601f1916810167ffffffffffffffff81118282101715613e0457613e04613dc8565b6040525050565b600067ffffffffffffffff821115613e2557613e25613dc8565b5060051b60200190565b600082601f830112613e4057600080fd5b81356020613e4d82613e0b565b604051613e5a8282613dde565b83815260059390931b8501820192828101915086841115613e7a57600080fd5b8286015b84811015613e955780358352918301918301613e7e565b509695505050505050565b600082601f830112613eb157600080fd5b813567ffffffffffffffff811115613ecb57613ecb613dc8565b604051613ee2601f8301601f191660200182613dde565b818152846020838601011115613ef757600080fd5b816020850160208301376000918101602001919091529392505050565b600080600080600060a08688031215613f2c57600080fd5b613f3586613be4565b9450613f4360208701613be4565b9350604086013567ffffffffffffffff80821115613f6057600080fd5b613f6c89838a01613e2f565b94506060880135915080821115613f8257600080fd5b613f8e89838a01613e2f565b93506080880135915080821115613fa457600080fd5b50613fb188828901613ea0565b9150509295509295909350565b60208082526000906080830183820185845b6003811015613fff57601f19878503018352613fed848351613c9d565b93509184019190840190600101613fd0565b50919695505050505050565b6000806040838503121561401e57600080fd5b823567ffffffffffffffff8082111561403657600080fd5b818501915085601f83011261404a57600080fd5b8135602061405782613e0b565b6040516140648282613dde565b83815260059390931b850182019282810191508984111561408457600080fd5b948201945b838610156140a95761409a86613be4565b82529482019490820190614089565b965050860135925050808211156140bf57600080fd5b506140cc85828601613e2f565b9150509250929050565b600080600080608085870312156140ec57600080fd5b843593506020850135925060408501359150606085013567ffffffffffffffff81111561411857600080fd5b61412487828801613ea0565b91505092959194509250565b60008060006060848603121561414557600080fd5b833567ffffffffffffffff8082111561415d57600080fd5b61416987838801613ea0565b9450602086013591508082111561417f57600080fd5b61418b87838801613ea0565b935060408601359150808211156141a157600080fd5b506141ae86828701613ea0565b9150509250925092565b600080604083850312156141cb57600080fd5b50508035926020909101359150565b600080604083850312156141ed57600080fd5b6141f683613be4565b915061420460208401613be4565b90509250929050565b600080600080600060a0868803121561422557600080fd5b61422e86613be4565b945061423c60208701613be4565b93506040860135925060608601359150608086013567ffffffffffffffff81111561426657600080fd5b613fb188828901613ea0565b600181811c9082168061428657607f821691505b602082108114156142a757634e487b7160e01b600052602260045260246000fd5b50919050565b634e487b7160e01b600052603260045260246000fd5b60006000198214156142d7576142d7613bb6565b5060010190565b6020808252818101527f4f776e61626c653a2063616c6c6572206973206e6f7420746865206f776e6572604082015260600190565b60208082526010908201526f14185d5cd8589b194e881c185d5cd95960821b604082015260600190565b60008282101561434f5761434f613bb6565b500390565b600081600019048311821515161561436e5761436e613bb6565b500290565b634e487b7160e01b600052601260045260246000fd5b60008261439857614398614373565b500490565b6020808252601690820152751b9bdd08195b9bdd59da081d1a5b59481c185cdcd95960521b604082015260600190565b805169ffffffffffffffffffff811681146117be57600080fd5b600080600080600060a086880312156143ff57600080fd5b614408866143cd565b945060208601519350604086015192506060860151915061442b608087016143cd565b90509295509295909350565b60008261444657614446614373565b500690565b60208082526025908201527f455243313135353a207472616e7366657220746f20746865207a65726f206164604082015264647265737360d81b606082015260800190565b6020808252602a908201527f455243313135353a20696e73756666696369656e742062616c616e636520666f60408201526939103a3930b739b332b960b11b606082015260800190565b6040815260006144ed6040830185613d28565b82810360208401526144ff8185613d28565b95945050505050565b60018060a01b03841681528260208201526060604082015260006144ff6060830184613c9d565b60006020828403121561454157600080fd5b815161338081613cfd565b60008083128015600160ff1b85018412161561456a5761456a613bb6565b6001600160ff1b038401831381161561458557614585613bb6565b50500390565b60008261459a5761459a614373565b600160ff1b8214600019841416156145b4576145b4613bb6565b500590565b600080821280156001600160ff1b03849003851316156145db576145db613bb6565b600160ff1b83900384128116156145f4576145f4613bb6565b50500190565b60006001600160ff1b038184138284138082168684048611161561462057614620613bb6565b600160ff1b600087128281168783058912161561463f5761463f613bb6565b6000871292508782058712848416161561465b5761465b613bb6565b8785058712818416161561467157614671613bb6565b505050929093029392505050565b6001600160a01b03868116825285166020820152604081018490526060810183905260a0608082018190526000906146b990830184613c9d565b979650505050505050565b6000602082840312156146d657600080fd5b815161338081613c25565b600060033d11156146fa5760046000803e5060005160e01c5b90565b600060443d101561470b5790565b6040516003193d81016004833e81513d67ffffffffffffffff816024840111818411171561473b57505050505090565b82850191508151818111156147535750505050505090565b843d870101602082850101111561476d5750505050505090565b61477c60208286010187613dde565b509095945050505050565b60208082526028908201527f455243313135353a204552433131353552656365697665722072656a656374656040820152676420746f6b656e7360c01b606082015260800190565b6001600160a01b0386811682528516602082015260a0604082018190526000906147fb90830186613d28565b828103606084015261480d8186613d28565b905082810360808401526137cb8185613c9d56fe0a51588b1664495f089dd83d2d26f247920f94a57a4a09f20cf068efc8f82bd4a264697066735822122007a3094f4b9b481314a1576c8767fac8b63cebb047dc4da2731678cbc34b693264736f6c634300080b003368747470733a2f2f6d656d6f72697a65746869736461792e6769746875622e696f2f4254432f7b69647d2e6a736f6e","bytecodeSha1":"da39a3ee5e6b4b0d3255bfef95601890afd80709","type":"contract","abi":[{"inputs":[{"internalType":"address","name":"vrfCoordinator","type":"address"},{"internalType":"address","name":"linkToken","type":"address"},{"internalType":"uint256","name":"chainlinkFee","type":"uint256"},{"internalType":"bytes32","name":"keyHash","type":"bytes32"},{"internalType":"address","name":"priceFeedAddress","type":"address"},{"internalType":"address","name":"developersAddress","type":"address"}],"stateMutability":"nonpayable","type":"constructor","name":"constructor"},{"anonymous":false,"inputs":[{"indexed":true,"internalType":"address","name":"account","type":"address"},{"indexed":true,"internalType":"address","name":"operator","type":"address"},{"indexed":false,"internalType":"bool","name":"approved","type":"bool"}],"name":"ApprovalForAll","type":"event"},{"anonymous":false,"inputs":[{"indexed":true,"internalType":"address","name":"holder","type":"address"}],"name":"CommunitySelectedForMintPriceShareEvent","type":"event"},{"anonymous":false,"inputs":[{"indexed":false,"internalType":"uint256","name":"year","type":"uint256"},{"indexed":false,"internalType":"uint256","name":"month","type":"uint256"},{"indexed":false,"internalType":"uint256","name":"day","type":"uint256"},{"indexed":true,"internalType":"address","name":"holder","type":"address"}],"name":"GiftedEvent","type":"event"},{"anonymous":false,"inputs":[{"indexed":false,"internalType":"uint256","name":"year","type":"uint256"},{"indexed":false,"internalType":"uint256","name":"month","type":"uint256"},{"indexed":false,"internalType":"uint256","name":"day","type":"uint256"},{"indexed":true,"internalType":"address","name":"holder","type":"address"}],"name":"MemorizedEvent","type":"event"},{"anonymous":false,"inputs":[{"indexed":true,"internalType":"address","name":"previousOwner","type":"address"},{"indexed":true,"internalType":"address","name":"newOwner","type":"address"}],"name":"OwnershipTransferred","type":"event"},{"anonymous":false,"inputs":[{"indexed":false,"internalType":"address","name":"account","type":"address"}],"name":"Paused","type":"event"},{"anonymous":false,"inputs":[{"indexed":true,"internalType":"address","name":"_address","type":"address"},{"indexed":false,"internalType":"uint256","name":"randomness","type":"uint256"}],"name":"PeriodicGiftWinnerSelectedEvent","type":"event"},{"anonymous":false,"inputs":[{"indexed":true,"internalType":"address","name":"_address","type":"address"}],"name":"RegisterForPeriodiclyGiftEvent","type":"event"},{"anonymous":false,"inputs":[{"indexed":false,"internalType":"bytes32","name":"requestId","type":"bytes32"}],"name":"RequestedRandomnessEvent","type":"event"},{"anonymous":false,"inputs":[{"indexed":true,"internalType":"address","name":"holder","type":"address"},{"indexed":false,"internalType":"string","name":"memo","type":"string"}],"name":"SetMemoEvent","type":"event"},{"anonymous":false,"inputs":[{"indexed":true,"internalType":"address","name":"operator","type":"address"},{"indexed":true,"internalType":"address","name":"from","type":"address"},{"indexed":true,"internalType":"address","name":"to","type":"address"},{"indexed":false,"internalType":"uint256[]","name":"ids","type":"uint256[]"},{"indexed":false,"internalType":"uint256[]","name":"values","type":"uint256[]"}],"name":"TransferBatch","type":"event"},{"anonymous":false,"inputs":[{"indexed":true,"internalType":"address","name":"operator","type":"address"},{"indexed":true,"internalType":"address","name":"from","type":"address"},{"indexed":true,"internalType":"address","name":"to","type":"address"},{"indexed":false,"internalType":"uint256","name":"id","type":"uint256"},{"indexed":false,"internalType":"uint256","name":"value","type":"uint256"}],"name":"TransferSingle","type":"event"},{"anonymous":false,"inputs":[{"indexed":false,"internalType":"string","name":"value","type":"string"},{"indexed":true,"internalType":"uint256","name":"id","type":"uint256"}],"name":"URI","type":"event"},{"anonymous":false,"inputs":[{"indexed":false,"internalType":"address","name":"account","type":"address"}],"name":"Unpaused","type":"event"},{"anonymous":false,"inputs":[{"indexed":true,"internalType":"address","name":"_address","type":"address"},{"indexed":true,"internalType":"uint256","name":"_amount","type":"uint256"}],"name":"WithdrawalEvent","type":"event"},{"stateMutability":"payable","type":"fallback"},{"inputs":[],"name":"COMMUNITY_MINT_SHARE","outputs":[{"internalType":"uint256","name":"","type":"uint256"}],"stateMutability":"view","type":"function"},{"inputs":[],"name":"DEVELOPERS_TEAM_MINT_SHARE","outputs":[{"internalType":"uint256","name":"","type":"uint256"}],"stateMutability":"view","type":"function"},{"inputs":[],"name":"ELECTORAL_MINT_SHARE","outputs":[{"internalType":"uint256","name":"","type":"uint256"}],"stateMutability":"view","type":"function"},{"inputs":[],"name":"FIRST_INFLUENCER_MINT_SHARE","outputs":[{"internalType":"uint256","name":"","type":"uint256"}],"stateMutability":"view","type":"function"},{"inputs":[],"name":"FOUNDER_MINT_SHARE","outputs":[{"internalType":"uint256","name":"","type":"uint256"}],"stateMutability":"view","type":"function"},{"inputs":[{"internalType":"uint256","name":"year","type":"uint256"},{"internalType":"uint256","name":"month","type":"uint256"},{"internalType":"uint256","name":"day","type":"uint256"}],"name":"GetHolderOfTheDay","outputs":[{"internalType":"address","name":"","type":"address"}],"stateMutability":"view","type":"function"},{"inputs":[{"internalType":"uint256","name":"year","type":"uint256"},{"internalType":"uint256","name":"month","type":"uint256"},{"internalType":"uint256","name":"day","type":"uint256"}],"name":"GetIdByDate","outputs":[{"internalType":"uint256","name":"","type":"uint256"}],"stateMutability":"view","type":"function"},{"inputs":[],"name":"GetMemorizeFee","outputs":[{"internalType":"uint256","name":"","type":"uint256"}],"stateMutability":"view","type":"function"},{"inputs":[],"name":"GetMintedDaysLength","outputs":[{"internalType":"uint256","name":"","type":"uint256"}],"stateMutability":"view","type":"function"},{"inputs":[],"name":"GetPeriodicGiftRegistersLength","outputs":[{"internalType":"uint256","name":"","type":"uint256"}],"stateMutability":"view","type":"function"},{"inputs":[{"internalType":"uint256","name":"year","type":"uint256"},{"internalType":"uint256","name":"month","type":"uint256"},{"internalType":"uint256","name":"day","type":"uint256"}],"name":"GetSearchTerm","outputs":[{"internalType":"string[3]","name":"","type":"string[3]"}],"stateMutability":"view","type":"function"},{"inputs":[{"internalType":"uint256","name":"_dayNumber","type":"uint256"}],"name":"IsDayNumberValidForMinting","outputs":[{"internalType":"bool","name":"","type":"bool"}],"stateMutability":"view","type":"function"},{"inputs":[],"name":"MORALIS_COMMUNITY_MINT_SHARE","outputs":[{"internalType":"uint256","name":"","type":"uint256"}],"stateMutability":"view","type":"function"},{"inputs":[{"internalType":"uint256","name":"year","type":"uint256"},{"internalType":"uint256","name":"month","type":"uint256"},{"internalType":"uint256","name":"day","type":"uint256"}],"name":"Memorize","outputs":[],"stateMutability":"payable","type":"function"},{"inputs":[{"internalType":"bool","name":"justForThisAddress","type":"bool"}],"name":"MemorizedDays","outputs":[{"internalType":"uint256[]","name":"","type":"uint256[]"}],"stateMutability":"view","type":"function"},{"inputs":[],"name":"PauseContract","outputs":[],"stateMutability":"nonpayable","type":"function"},{"inputs":[],"name":"RegisterForPeriodiclyGift","outputs":[],"stateMutability":"nonpayable","type":"function"},{"inputs":[],"name":"SECOND_INFLUENCER_MINT_SHARE","outputs":[{"internalType":"uint256","name":"","type":"uint256"}],"stateMutability":"view","type":"function"},{"inputs":[],"name":"SMARTCONTRACT_FEES_MINT_SHARE","outputs":[{"internalType":"uint256","name":"","type":"uint256"}],"stateMutability":"view","type":"function"},{"inputs":[],"name":"SelectPeriodicWinner","outputs":[],"stateMutability":"nonpayable","type":"function"},{"inputs":[{"internalType":"address","name":"targetAirdrop","type":"address"}],"name":"SendAirdrop","outputs":[],"stateMutability":"nonpayable","type":"function"},{"inputs":[{"internalType":"address","name":"addrs","type":"address"}],"name":"SetDeveloperTeamShareAddress","outputs":[],"stateMutability":"nonpayable","type":"function"},{"inputs":[{"internalType":"address","name":"addrs","type":"address"},{"internalType":"bool","name":"preserveBalance","type":"bool"}],"name":"SetFirstInfluencerAddress","outputs":[],"stateMutability":"nonpayable","type":"function"},{"inputs":[{"internalType":"address","name":"addrs","type":"address"},{"internalType":"bool","name":"preserveBalance","type":"bool"}],"name":"SetFounderAddress","outputs":[],"stateMutability":"nonpayable","type":"function"},{"inputs":[{"internalType":"uint256","name":"year","type":"uint256"},{"internalType":"uint256","name":"month","type":"uint256"},{"internalType":"uint256","name":"day","type":"uint256"},{"internalType":"string","name":"memo","type":"string"}],"name":"SetMemo","outputs":[],"stateMutability":"nonpayable","type":"function"},{"inputs":[{"internalType":"address","name":"addrs","type":"address"},{"internalType":"bool","name":"preserveBalance","type":"bool"}],"name":"SetMoralisTeamAddress","outputs":[],"stateMutability":"nonpayable","type":"function"},{"inputs":[{"internalType":"address","name":"addrs","type":"address"},{"internalType":"bool","name":"preserveBalance","type":"bool"}],"name":"SetSecondInfluencerAddress","outputs":[],"stateMutability":"nonpayable","type":"function"},{"inputs":[{"internalType":"uint256","name":"year","type":"uint256"},{"internalType":"uint256","name":"month","type":"uint256"},{"internalType":"uint256","name":"day","type":"uint256"}],"name":"SetStratDate","outputs":[],"stateMutability":"nonpayable","type":"function"},{"inputs":[],"name":"UnPauseContract","outputs":[],"stateMutability":"nonpayable","type":"function"},{"inputs":[{"internalType":"uint256","name":"fee","type":"uint256"}],"name":"UpdateChainlinkFee","outputs":[],"stateMutability":"nonpayable","type":"function"},{"inputs":[{"internalType":"string","name":"link","type":"string"},{"internalType":"string","name":"title","type":"string"},{"internalType":"string","name":"logoLink","type":"string"}],"name":"UpdateElectoral","outputs":[],"stateMutability":"nonpayable","type":"function"},{"inputs":[],"name":"Withdrawal","outputs":[],"stateMutability":"nonpayable","type":"function"},{"inputs":[],"name":"WithdrawalSmartContractFee","outputs":[],"stateMutability":"payable","type":"function"},{"inputs":[{"internalType":"address","name":"","type":"address"}],"name":"_airdrop","outputs":[{"internalType":"uint256","name":"","type":"uint256"}],"stateMutability":"view","type":"function"},{"inputs":[],"name":"_airdropPeriodInDays","outputs":[{"internalType":"uint256","name":"","type":"uint256"}],"stateMutability":"view","type":"function"},{"inputs":[],"name":"_assetName","outputs":[{"internalType":"string","name":"","type":"string"}],"stateMutability":"view","type":"function"},{"inputs":[],"name":"_chainlinkFee","outputs":[{"internalType":"uint256","name":"","type":"uint256"}],"stateMutability":"view","type":"function"},{"inputs":[],"name":"_developerTeamShareAddress","outputs":[{"internalType":"address","name":"","type":"address"}],"stateMutability":"view","type":"function"},{"inputs":[],"name":"_electoralAirdropPeriodInDays","outputs":[{"internalType":"uint256","name":"","type":"uint256"}],"stateMutability":"view","type":"function"},{"inputs":[],"name":"_electoralLink","outputs":[{"internalType":"string","name":"","type":"string"}],"stateMutability":"view","type":"function"},{"inputs":[],"name":"_electoralLogoAddress","outputs":[{"internalType":"string","name":"","type":"string"}],"stateMutability":"view","type":"function"},{"inputs":[],"name":"_electoralTitle","outputs":[{"internalType":"string","name":"","type":"string"}],"stateMutability":"view","type":"function"},{"inputs":[],"name":"_firstInfluencerAddress","outputs":[{"internalType":"address","name":"","type":"address"}],"stateMutability":"view","type":"function"},{"inputs":[],"name":"_founderShareAddress","outputs":[{"internalType":"address","name":"","type":"address"}],"stateMutability":"view","type":"function"},{"inputs":[{"internalType":"uint256","name":"","type":"uint256"}],"name":"_holders","outputs":[{"internalType":"address","name":"","type":"address"}],"stateMutability":"view","type":"function"},{"inputs":[],"name":"_lastAirdropPeriodWinnerSelectDate","outputs":[{"internalType":"uint256","name":"","type":"uint256"}],"stateMutability":"view","type":"function"},{"inputs":[],"name":"_lastElectoralAirdropDate","outputs":[{"internalType":"uint256","name":"","type":"uint256"}],"stateMutability":"view","type":"function"},{"inputs":[{"internalType":"uint256","name":"","type":"uint256"}],"name":"_memo","outputs":[{"internalType":"string","name":"","type":"string"}],"stateMutability":"view","type":"function"},{"inputs":[],"name":"_mintPrice","outputs":[{"internalType":"uint256","name":"","type":"uint256"}],"stateMutability":"view","type":"function"},{"inputs":[],"name":"_mintPriceStep","outputs":[{"internalType":"uint256","name":"","type":"uint256"}],"stateMutability":"view","type":"function"},{"inputs":[{"internalType":"uint256","name":"","type":"uint256"}],"name":"_mintedDays","outputs":[{"internalType":"uint256","name":"","type":"uint256"}],"stateMutability":"view","type":"function"},{"inputs":[],"name":"_moralisCommunityAddress","outputs":[{"internalType":"address","name":"","type":"address"}],"stateMutability":"view","type":"function"},{"inputs":[{"internalType":"uint256","name":"","type":"uint256"}],"name":"_periodicGiftRegisters","outputs":[{"internalType":"address","name":"","type":"address"}],"stateMutability":"view","type":"function"},{"inputs":[],"name":"_secondInfluencerAddress","outputs":[{"internalType":"address","name":"","type":"address"}],"stateMutability":"view","type":"function"},{"inputs":[],"name":"_startDate","outputs":[{"internalType":"uint256","name":"","type":"uint256"}],"stateMutability":"view","type":"function"},{"inputs":[{"internalType":"address","name":"","type":"address"}],"name":"_wallet","outputs":[{"internalType":"uint256","name":"","type":"uint256"}],"stateMutability":"view","type":"function"},{"inputs":[{"internalType":"address","name":"account","type":"address"},{"internalType":"uint256","name":"id","type":"uint256"}],"name":"balanceOf","outputs":[{"internalType":"uint256","name":"","type":"uint256"}],"stateMutability":"view","type":"function"},{"inputs":[{"internalType":"address[]","name":"accounts","type":"address[]"},{"internalType":"uint256[]","name":"ids","type":"uint256[]"}],"name":"balanceOfBatch","outputs":[{"internalType":"uint256[]","name":"","type":"uint256[]"}],"stateMutability":"view","type":"function"},{"inputs":[{"internalType":"address","name":"account","type":"address"},{"internalType":"address","name":"operator","type":"address"}],"name":"isApprovedForAll","outputs":[{"internalType":"bool","name":"","type":"bool"}],"stateMutability":"view","type":"function"},{"inputs":[],"name":"owner","outputs":[{"internalType":"address","name":"","type":"address"}],"stateMutability":"view","type":"function"},{"inputs":[],"name":"paused","outputs":[{"internalType":"bool","name":"","type":"bool"}],"stateMutability":"view","type":"function"},{"inputs":[{"internalType":"bytes32","name":"requestId","type":"bytes32"},{"internalType":"uint256","name":"randomness","type":"uint256"}],"name":"rawFulfillRandomness","outputs":[],"stateMutability":"nonpayable","type":"function"},{"inputs":[],"name":"renounceOwnership","outputs":[],"stateMutability":"nonpayable","type":"function"},{"inputs":[{"internalType":"address","name":"from","type":"address"},{"internalType":"address","name":"to","type":"address"},{"internalType":"uint256[]","name":"ids","type":"uint256[]"},{"internalType":"uint256[]","name":"amounts","type":"uint256[]"},{"internalType":"bytes","name":"data","type":"bytes"}],"name":"safeBatchTransferFrom","outputs":[],"stateMutability":"nonpayable","type":"function"},{"inputs":[{"internalType":"address","name":"from","type":"address"},{"internalType":"address","name":"to","type":"address"},{"internalType":"uint256","name":"id","type":"uint256"},{"internalType":"uint256","name":"amount","type":"uint256"},{"internalType":"bytes","name":"data","type":"bytes"}],"name":"safeTransferFrom","outputs":[],"stateMutability":"nonpayable","type":"function"},{"inputs":[{"internalType":"address","name":"operator","type":"address"},{"internalType":"bool","name":"approved","type":"bool"}],"name":"setApprovalForAll","outputs":[],"stateMutability":"nonpayable","type":"function"},{"inputs":[{"internalType":"bytes4","name":"interfaceId","type":"bytes4"}],"name":"supportsInterface","outputs":[{"internalType":"bool","name":"","type":"bool"}],"stateMutability":"view","type":"function"},{"inputs":[{"internalType":"address","name":"newOwner","type":"address"}],"name":"transferOwnership","outputs":[],"stateMutability":"nonpayable","type":"function"},{"inputs":[{"internalType":"uint256","name":"","type":"uint256"}],"name":"uri","outputs":[{"internalType":"string","name":"","type":"string"}],"stateMutability":"view","type":"function"}],"compiler":{"version":"0.8.11+commit.d7f03943","evm_version":"istanbul","optimizer":{"enabled":true,"runs":200}},"contractName":"MemorizeThisDayOnBTC","language":"Solidity","natspec":{"methods":{"balanceOf(address,uint256)":{"details":"See {IERC1155-balanceOf}. Requirements: - `account` cannot be the zero address."},"balanceOfBatch(address[],uint256[])":{"details":"See {IERC1155-balanceOfBatch}. Requirements: - `accounts` and `ids` must have the same length."},"isApprovedForAll(address,address)":{"details":"See {IERC1155-isApprovedForAll}."},"owner()":{"details":"Returns the address of the current owner."},"paused()":{"details":"Returns true if the contract is paused, and false otherwise."},"renounceOwnership()":{"details":"Leaves the contract without owner. It will not be possible to call `onlyOwner` functions anymore. Can only be called by the current owner. NOTE: Renouncing ownership will leave the contract without an owner, thereby removing any functionality that is only available to the owner."},"safeBatchTransferFrom(address,address,uint256[],uint256[],bytes)":{"details":"See {IERC1155-safeBatchTransferFrom}."},"safeTransferFrom(address,address,uint256,uint256,bytes)":{"details":"See {IERC1155-safeTransferFrom}."},"setApprovalForAll(address,bool)":{"details":"See {IERC1155-setApprovalForAll}."},"supportsInterface(bytes4)":{"details":"See {IERC165-supportsInterface}."},"transferOwnership(address)":{"details":"Transfers ownership of the contract to a new account (`newOwner`). Can only be called by the current owner."},"uri(uint256)":{"details":"See {IERC1155MetadataURI-uri}. This implementation returns the same URI for *all* token types. It relies on the token type ID substitution mechanism https://eips.ethereum.org/EIPS/eip-1155#metadata[defined in the EIP]. Clients calling this function must replace the `\\{id\\}` substring with the actual token type ID."}},"kind":"dev","version":1},"opcodes":"PUSH1 0x80 PUSH1 0x40 MSTORE PUSH1 0x4 CALLDATASIZE LT PUSH2 0x3F9 JUMPI PUSH1 0x0 CALLDATALOAD PUSH1 0xE0 SHR DUP1 PUSH4 0x715018A6 GT PUSH2 0x213 JUMPI DUP1 PUSH4 0xBDC7DD3A GT PUSH2 0x123 JUMPI DUP1 PUSH4 0xE9CC3B54 GT PUSH2 0xAB JUMPI DUP1 PUSH4 0xF2FDE38B GT PUSH2 0x7A JUMPI DUP1 PUSH4 0xF2FDE38B EQ PUSH2 0xB79 JUMPI DUP1 PUSH4 0xF6E91192 EQ PUSH2 0xB99 JUMPI DUP1 PUSH4 0xF8A433EC EQ PUSH2 0xBB9 JUMPI DUP1 PUSH4 0xF9DA6A1A EQ PUSH2 0xBCE JUMPI DUP1 PUSH4 0xFFCB5156 EQ PUSH2 0xBE3 JUMPI PUSH2 0x3F9 JUMP JUMPDEST DUP1 PUSH4 0xE9CC3B54 EQ PUSH2 0xB2F JUMPI DUP1 PUSH4 0xEC16F947 EQ PUSH2 0xB44 JUMPI DUP1 PUSH4 0xEC3F1A32 EQ PUSH2 0x571 JUMPI DUP1 PUSH4 0xF242432A EQ PUSH2 0xB59 JUMPI PUSH2 0x3F9 JUMP JUMPDEST DUP1 PUSH4 0xD8B4D6E3 GT PUSH2 0xF2 JUMPI DUP1 PUSH4 0xD8B4D6E3 EQ PUSH2 0xA5B JUMPI DUP1 PUSH4 0xDBDAD464 EQ PUSH2 0xA70 JUMPI DUP1 PUSH4 0xDD2CEC7F EQ PUSH2 0xA90 JUMPI DUP1 PUSH4 0xE5ADA10C EQ PUSH2 0xAC6 JUMPI DUP1 PUSH4 0xE985E9C5 EQ PUSH2 0xAE6 JUMPI PUSH2 0x3F9 JUMP JUMPDEST DUP1 PUSH4 0xBDC7DD3A EQ PUSH2 0x9FB JUMPI DUP1 PUSH4 0xC9937172 EQ PUSH2 0xA10 JUMPI DUP1 PUSH4 0xD50AC892 EQ PUSH2 0xA30 JUMPI DUP1 PUSH4 0xD6B4C041 EQ PUSH2 0xA46 JUMPI PUSH2 0x3F9 JUMP JUMPDEST DUP1 PUSH4 0x9E6DB9D7 GT PUSH2 0x1A6 JUMPI DUP1 PUSH4 0xAB32D594 GT PUSH2 0x175 JUMPI DUP1 PUSH4 0xAB32D594 EQ PUSH2 0x97B JUMPI DUP1 PUSH4 0xAC8DABA0 EQ PUSH2 0x990 JUMPI DUP1 PUSH4 0xAE969CD2 EQ PUSH2 0x9A6 JUMPI DUP1 PUSH4 0xBAFDF5BB EQ PUSH2 0x9C6 JUMPI DUP1 PUSH4 0xBBB6E49D EQ PUSH2 0x9E6 JUMPI PUSH2 0x3F9 JUMP JUMPDEST DUP1 PUSH4 0x9E6DB9D7 EQ PUSH2 0x905 JUMPI DUP1 PUSH4 0xA22CB465 EQ PUSH2 0x925 JUMPI DUP1 PUSH4 0xA5EE0257 EQ PUSH2 0x945 JUMPI DUP1 PUSH4 0xA9665B7A EQ PUSH2 0x965 JUMPI PUSH2 0x3F9 JUMP JUMPDEST DUP1 PUSH4 0x92B56ABB GT PUSH2 0x1E2 JUMPI DUP1 PUSH4 0x92B56ABB EQ PUSH2 0x8BA JUMPI DUP1 PUSH4 0x93E51B64 EQ PUSH2 0x8CF JUMPI DUP1 PUSH4 0x94985DDD EQ PUSH2 0x8E5 JUMPI DUP1 PUSH4 0x96FF141F EQ PUSH2 0x571 JUMPI PUSH2 0x3F9 JUMP JUMPDEST DUP1 PUSH4 0x715018A6 EQ PUSH2 0x84D JUMPI DUP1 PUSH4 0x71B7AB4C EQ PUSH2 0x862 JUMPI DUP1 PUSH4 0x89AF787F EQ PUSH2 0x877 JUMPI DUP1 PUSH4 0x8DA5CB5B EQ PUSH2 0x897 JUMPI PUSH2 0x3F9 JUMP JUMPDEST DUP1 PUSH4 0x340D899A GT PUSH2 0x30E JUMPI DUP1 PUSH4 0x56F2520D GT PUSH2 0x2A1 JUMPI DUP1 PUSH4 0x6CEBB54E GT PUSH2 0x270 JUMPI DUP1 PUSH4 0x6CEBB54E EQ PUSH2 0x7D9 JUMPI DUP1 PUSH4 0x6DB3CC46 EQ PUSH2 0x7EE JUMPI DUP1 PUSH4 0x6E21FC87 EQ PUSH2 0x803 JUMPI DUP1 PUSH4 0x6F78A4F7 EQ PUSH2 0x830 JUMPI DUP1 PUSH4 0x70E44C6A EQ PUSH2 0x838 JUMPI PUSH2 0x3F9 JUMP JUMPDEST DUP1 PUSH4 0x56F2520D EQ PUSH2 0x761 JUMPI DUP1 PUSH4 0x5C975ABB EQ PUSH2 0x781 JUMPI DUP1 PUSH4 0x5EAE5B30 EQ PUSH2 0x799 JUMPI DUP1 PUSH4 0x64E376B6 EQ PUSH2 0x7B9 JUMPI PUSH2 0x3F9 JUMP JUMPDEST DUP1 PUSH4 0x503D3A81 GT PUSH2 0x2DD JUMPI DUP1 PUSH4 0x503D3A81 EQ PUSH2 0x6E1 JUMPI DUP1 PUSH4 0x503F5581 EQ PUSH2 0x701 JUMPI DUP1 PUSH4 0x516B466E EQ PUSH2 0x721 JUMPI DUP1 PUSH4 0x542D44ED EQ PUSH2 0x741 JUMPI PUSH2 0x3F9 JUMP JUMPDEST DUP1 PUSH4 0x340D899A EQ PUSH2 0x680 JUMPI DUP1 PUSH4 0x3F711137 EQ PUSH2 0x696 JUMPI DUP1 PUSH4 0x4E1273F4 EQ PUSH2 0x6AB JUMPI DUP1 PUSH4 0x4E3412B2 EQ PUSH2 0x6CB JUMPI PUSH2 0x3F9 JUMP JUMPDEST DUP1 PUSH4 0x10AB09A3 GT PUSH2 0x391 JUMPI DUP1 PUSH4 0x1F34BDCA GT PUSH2 0x360 JUMPI DUP1 PUSH4 0x1F34BDCA EQ PUSH2 0x5EA JUMPI DUP1 PUSH4 0x2EB2C2D6 EQ PUSH2 0x5FD JUMPI DUP1 PUSH4 0x303DD553 EQ PUSH2 0x61D JUMPI DUP1 PUSH4 0x313D3E92 EQ PUSH2 0x633 JUMPI DUP1 PUSH4 0x327285DC EQ PUSH2 0x653 JUMPI PUSH2 0x3F9 JUMP JUMPDEST DUP1 PUSH4 0x10AB09A3 EQ PUSH2 0x571 JUMPI DUP1 PUSH4 0x13887D95 EQ PUSH2 0x586 JUMPI DUP1 PUSH4 0x1528662C EQ PUSH2 0x5B3 JUMPI DUP1 PUSH4 0x1C8108B1 EQ PUSH2 0x5D5 JUMPI PUSH2 0x3F9 JUMP JUMPDEST DUP1 PUSH4 0x6389CA1 GT PUSH2 0x3CD JUMPI DUP1 PUSH4 0x6389CA1 EQ PUSH2 0x4BF JUMPI DUP1 PUSH4 0xA6A001C EQ PUSH2 0x4F7 JUMPI DUP1 PUSH4 0xE89341C EQ PUSH2 0x517 JUMPI DUP1 PUSH4 0xFE79BD0 EQ PUSH2 0x544 JUMPI PUSH2 0x3F9 JUMP JUMPDEST DUP1 PUSH3 0xFDD58E EQ PUSH2 0x426 JUMPI DUP1 PUSH4 0x1FFC9A7 EQ PUSH2 0x459 JUMPI DUP1 PUSH4 0x37A2414 EQ PUSH2 0x489 JUMPI DUP1 PUSH4 0x387DA42 EQ PUSH2 0x4A9 JUMPI JUMPDEST ADDRESS PUSH1 0x0 SWAP1 DUP2 MSTORE PUSH1 0x1B PUSH1 0x20 MSTORE PUSH1 0x40 SWAP1 KECCAK256 SLOAD PUSH2 0x414 SWAP1 CALLVALUE SWAP1 PUSH2 0x3BCC JUMP JUMPDEST ADDRESS PUSH1 0x0 SWAP1 DUP2 MSTORE PUSH1 0x1B PUSH1 0x20 MSTORE PUSH1 0x40 SWAP1 KECCAK256 SSTORE STOP JUMPDEST CALLVALUE DUP1 ISZERO PUSH2 0x432 JUMPI PUSH1 0x0 DUP1 REVERT JUMPDEST POP PUSH2 0x446 PUSH2 0x441 CALLDATASIZE PUSH1 0x4 PUSH2 0x3BFB JUMP JUMPDEST PUSH2 0xBF8 JUMP JUMPDEST PUSH1 0x40 MLOAD SWAP1 DUP2 MSTORE PUSH1 0x20 ADD JUMPDEST PUSH1 0x40 MLOAD DUP1 SWAP2 SUB SWAP1 RETURN JUMPDEST CALLVALUE DUP1 ISZERO PUSH2 0x465 JUMPI PUSH1 0x0 DUP1 REVERT JUMPDEST POP PUSH2 0x479 PUSH2 0x474 CALLDATASIZE PUSH1 0x4 PUSH2 0x3C3B JUMP JUMPDEST PUSH2 0xC8F JUMP JUMPDEST PUSH1 0x40 MLOAD SWAP1 ISZERO ISZERO DUP2 MSTORE PUSH1 0x20 ADD PUSH2 0x450 JUMP JUMPDEST CALLVALUE DUP1 ISZERO PUSH2 0x495 JUMPI PUSH1 0x0 DUP1 REVERT JUMPDEST POP PUSH2 0x446 PUSH2 0x4A4 CALLDATASIZE PUSH1 0x4 PUSH2 0x3C58 JUMP JUMPDEST PUSH2 0xCE1 JUMP JUMPDEST CALLVALUE DUP1 ISZERO PUSH2 0x4B5 JUMPI PUSH1 0x0 DUP1 REVERT JUMPDEST POP PUSH2 0x446 PUSH1 0xC SLOAD DUP2 JUMP JUMPDEST CALLVALUE DUP1 ISZERO PUSH2 0x4CB JUMPI PUSH1 0x0 DUP1 REVERT JUMPDEST POP PUSH2 0x4DF PUSH2 0x4DA CALLDATASIZE PUSH1 0x4 PUSH2 0x3C58 JUMP JUMPDEST PUSH2 0xCF6 JUMP JUMPDEST PUSH1 0x40 MLOAD PUSH1 0x1 PUSH1 0x1 PUSH1 0xA0 SHL SUB SWAP1 SWAP2 AND DUP2 MSTORE PUSH1 0x20 ADD PUSH2 0x450 JUMP JUMPDEST CALLVALUE DUP1 ISZERO PUSH2 0x503 JUMPI PUSH1 0x0 DUP1 REVERT JUMPDEST POP PUSH2 0x446 PUSH2 0x512 CALLDATASIZE PUSH1 0x4 PUSH2 0x3C84 JUMP JUMPDEST PUSH2 0xD25 JUMP JUMPDEST CALLVALUE DUP1 ISZERO PUSH2 0x523 JUMPI PUSH1 0x0 DUP1 REVERT JUMPDEST POP PUSH2 0x537 PUSH2 0x532 CALLDATASIZE PUSH1 0x4 PUSH2 0x3C84 JUMP JUMPDEST PUSH2 0xD46 JUMP JUMPDEST PUSH1 0x40 MLOAD PUSH2 0x450 SWAP2 SWAP1 PUSH2 0x3CEA JUMP JUMPDEST CALLVALUE DUP1 ISZERO PUSH2 0x550 JUMPI PUSH1 0x0 DUP1 REVERT JUMPDEST POP PUSH2 0x564 PUSH2 0x55F CALLDATASIZE PUSH1 0x4 PUSH2 0x3D0B JUMP JUMPDEST PUSH2 0xDDA JUMP JUMPDEST PUSH1 0x40 MLOAD PUSH2 0x450 SWAP2 SWAP1 PUSH2 0x3D63 JUMP JUMPDEST CALLVALUE DUP1 ISZERO PUSH2 0x57D JUMPI PUSH1 0x0 DUP1 REVERT JUMPDEST POP PUSH2 0x446 PUSH1 0xA DUP2 JUMP JUMPDEST CALLVALUE DUP1 ISZERO PUSH2 0x592 JUMPI PUSH1 0x0 DUP1 REVERT JUMPDEST POP PUSH2 0x446 PUSH2 0x5A1 CALLDATASIZE PUSH1 0x4 PUSH2 0x3D76 JUMP JUMPDEST PUSH1 0x1B PUSH1 0x20 MSTORE PUSH1 0x0 SWAP1 DUP2 MSTORE PUSH1 0x40 SWAP1 KECCAK256 SLOAD DUP2 JUMP JUMPDEST CALLVALUE DUP1 ISZERO PUSH2 0x5BF JUMPI PUSH1 0x0 DUP1 REVERT JUMPDEST POP PUSH2 0x5D3 PUSH2 0x5CE CALLDATASIZE PUSH1 0x4 PUSH2 0x3D91 JUMP JUMPDEST PUSH2 0xF1E JUMP JUMPDEST STOP JUMPDEST CALLVALUE DUP1 ISZERO PUSH2 0x5E1 JUMPI PUSH1 0x0 DUP1 REVERT JUMPDEST POP PUSH2 0x5D3 PUSH2 0x100B JUMP JUMPDEST PUSH2 0x5D3 PUSH2 0x5F8 CALLDATASIZE PUSH1 0x4 PUSH2 0x3C58 JUMP JUMPDEST PUSH2 0x1045 JUMP JUMPDEST CALLVALUE DUP1 ISZERO PUSH2 0x609 JUMPI PUSH1 0x0 DUP1 REVERT JUMPDEST POP PUSH2 0x5D3 PUSH2 0x618 CALLDATASIZE PUSH1 0x4 PUSH2 0x3F14 JUMP JUMPDEST PUSH2 0x1705 JUMP JUMPDEST CALLVALUE DUP1 ISZERO PUSH2 0x629 JUMPI PUSH1 0x0 DUP1 REVERT JUMPDEST POP PUSH2 0x446 PUSH1 0x10 SLOAD DUP2 JUMP JUMPDEST CALLVALUE DUP1 ISZERO PUSH2 0x63F JUMPI PUSH1 0x0 DUP1 REVERT JUMPDEST POP PUSH2 0x479 PUSH2 0x64E CALLDATASIZE PUSH1 0x4 PUSH2 0x3C84 JUMP JUMPDEST PUSH2 0x1795 JUMP JUMPDEST CALLVALUE DUP1 ISZERO PUSH2 0x65F JUMPI PUSH1 0x0 DUP1 REVERT JUMPDEST POP PUSH2 0x673 PUSH2 0x66E CALLDATASIZE PUSH1 0x4 PUSH2 0x3C58 JUMP JUMPDEST PUSH2 0x17C3 JUMP JUMPDEST PUSH1 0x40 MLOAD PUSH2 0x450 SWAP2 SWAP1 PUSH2 0x3FBE JUMP JUMPDEST CALLVALUE DUP1 ISZERO PUSH2 0x68C JUMPI PUSH1 0x0 DUP1 REVERT JUMPDEST POP PUSH2 0x446 PUSH1 0x14 SLOAD DUP2 JUMP JUMPDEST CALLVALUE DUP1 ISZERO PUSH2 0x6A2 JUMPI PUSH1 0x0 DUP1 REVERT JUMPDEST POP PUSH1 0xD SLOAD PUSH2 0x446 JUMP JUMPDEST CALLVALUE DUP1 ISZERO PUSH2 0x6B7 JUMPI PUSH1 0x0 DUP1 REVERT JUMPDEST POP PUSH2 0x564 PUSH2 0x6C6 CALLDATASIZE PUSH1 0x4 PUSH2 0x400B JUMP JUMPDEST PUSH2 0x1A8C JUMP JUMPDEST CALLVALUE DUP1 ISZERO PUSH2 0x6D7 JUMPI PUSH1 0x0 DUP1 REVERT JUMPDEST POP PUSH2 0x446 PUSH1 0xA SLOAD DUP2 JUMP JUMPDEST CALLVALUE DUP1 ISZERO PUSH2 0x6ED JUMPI PUSH1 0x0 DUP1 REVERT JUMPDEST POP PUSH2 0x5D3 PUSH2 0x6FC CALLDATASIZE PUSH1 0x4 PUSH2 0x40D6 JUMP JUMPDEST PUSH2 0x1BB6 JUMP JUMPDEST CALLVALUE DUP1 ISZERO PUSH2 0x70D JUMPI PUSH1 0x0 DUP1 REVERT JUMPDEST POP PUSH2 0x5D3 PUSH2 0x71C CALLDATASIZE PUSH1 0x4 PUSH2 0x3C84 JUMP JUMPDEST PUSH2 0x1CE9 JUMP JUMPDEST CALLVALUE DUP1 ISZERO PUSH2 0x72D JUMPI PUSH1 0x0 DUP1 REVERT JUMPDEST POP PUSH2 0x5D3 PUSH2 0x73C CALLDATASIZE PUSH1 0x4 PUSH2 0x3C58 JUMP JUMPDEST PUSH2 0x1D41 JUMP JUMPDEST CALLVALUE DUP1 ISZERO PUSH2 0x74D JUMPI PUSH1 0x0 DUP1 REVERT JUMPDEST POP PUSH1 0x19 SLOAD PUSH2 0x4DF SWAP1 PUSH1 0x1 PUSH1 0x1 PUSH1 0xA0 SHL SUB AND DUP2 JUMP JUMPDEST CALLVALUE DUP1 ISZERO PUSH2 0x76D JUMPI PUSH1 0x0 DUP1 REVERT JUMPDEST POP PUSH2 0x537 PUSH2 0x77C CALLDATASIZE PUSH1 0x4 PUSH2 0x3C84 JUMP JUMPDEST PUSH2 0x1E06 JUMP JUMPDEST CALLVALUE DUP1 ISZERO PUSH2 0x78D JUMPI PUSH1 0x0 DUP1 REVERT JUMPDEST POP PUSH1 0x3 SLOAD PUSH1 0xFF AND PUSH2 0x479 JUMP JUMPDEST CALLVALUE DUP1 ISZERO PUSH2 0x7A5 JUMPI PUSH1 0x0 DUP1 REVERT JUMPDEST POP PUSH2 0x5D3 PUSH2 0x7B4 CALLDATASIZE PUSH1 0x4 PUSH2 0x3D76 JUMP JUMPDEST PUSH2 0x1EA0 JUMP JUMPDEST CALLVALUE DUP1 ISZERO PUSH2 0x7C5 JUMPI PUSH1 0x0 DUP1 REVERT JUMPDEST POP PUSH1 0x1A SLOAD PUSH2 0x4DF SWAP1 PUSH1 0x1 PUSH1 0x1 PUSH1 0xA0 SHL SUB AND DUP2 JUMP JUMPDEST CALLVALUE DUP1 ISZERO PUSH2 0x7E5 JUMPI PUSH1 0x0 DUP1 REVERT JUMPDEST POP PUSH2 0x537 PUSH2 0x1F15 JUMP JUMPDEST CALLVALUE DUP1 ISZERO PUSH2 0x7FA JUMPI PUSH1 0x0 DUP1 REVERT JUMPDEST POP PUSH2 0x446 PUSH1 0x1 DUP2 JUMP JUMPDEST CALLVALUE DUP1 ISZERO PUSH2 0x80F JUMPI PUSH1 0x0 DUP1 REVERT JUMPDEST POP PUSH2 0x446 PUSH2 0x81E CALLDATASIZE PUSH1 0x4 PUSH2 0x3D76 JUMP JUMPDEST PUSH1 0x1C PUSH1 0x20 MSTORE PUSH1 0x0 SWAP1 DUP2 MSTORE PUSH1 0x40 SWAP1 KECCAK256 SLOAD DUP2 JUMP JUMPDEST PUSH2 0x5D3 PUSH2 0x1F22 JUMP JUMPDEST CALLVALUE DUP1 ISZERO PUSH2 0x844 JUMPI PUSH1 0x0 DUP1 REVERT JUMPDEST POP PUSH2 0x5D3 PUSH2 0x1F95 JUMP JUMPDEST CALLVALUE DUP1 ISZERO PUSH2 0x859 JUMPI PUSH1 0x0 DUP1 REVERT JUMPDEST POP PUSH2 0x5D3 PUSH2 0x207C JUMP JUMPDEST CALLVALUE DUP1 ISZERO PUSH2 0x86E JUMPI PUSH1 0x0 DUP1 REVERT JUMPDEST POP PUSH2 0x446 PUSH1 0xF DUP2 JUMP JUMPDEST CALLVALUE DUP1 ISZERO PUSH2 0x883 JUMPI PUSH1 0x0 DUP1 REVERT JUMPDEST POP PUSH2 0x5D3 PUSH2 0x892 CALLDATASIZE PUSH1 0x4 PUSH2 0x4130 JUMP JUMPDEST PUSH2 0x20B6 JUMP JUMPDEST CALLVALUE DUP1 ISZERO PUSH2 0x8A3 JUMPI PUSH1 0x0 DUP1 REVERT JUMPDEST POP PUSH1 0x3 SLOAD PUSH2 0x100 SWAP1 DIV PUSH1 0x1 PUSH1 0x1 PUSH1 0xA0 SHL SUB AND PUSH2 0x4DF JUMP JUMPDEST CALLVALUE DUP1 ISZERO PUSH2 0x8C6 JUMPI PUSH1 0x0 DUP1 REVERT JUMPDEST POP PUSH2 0x537 PUSH2 0x2150 JUMP JUMPDEST CALLVALUE DUP1 ISZERO PUSH2 0x8DB JUMPI PUSH1 0x0 DUP1 REVERT JUMPDEST POP PUSH2 0x446 PUSH1 0x11 SLOAD DUP2 JUMP JUMPDEST CALLVALUE DUP1 ISZERO PUSH2 0x8F1 JUMPI PUSH1 0x0 DUP1 REVERT JUMPDEST POP PUSH2 0x5D3 PUSH2 0x900 CALLDATASIZE PUSH1 0x4 PUSH2 0x41B8 JUMP JUMPDEST PUSH2 0x215D JUMP JUMPDEST CALLVALUE DUP1 ISZERO PUSH2 0x911 JUMPI PUSH1 0x0 DUP1 REVERT JUMPDEST POP PUSH1 0x18 SLOAD PUSH2 0x4DF SWAP1 PUSH1 0x1 PUSH1 0x1 PUSH1 0xA0 SHL SUB AND DUP2 JUMP JUMPDEST CALLVALUE DUP1 ISZERO PUSH2 0x931 JUMPI PUSH1 0x0 DUP1 REVERT JUMPDEST POP PUSH2 0x5D3 PUSH2 0x940 CALLDATASIZE PUSH1 0x4 PUSH2 0x3D91 JUMP JUMPDEST PUSH2 0x21DF JUMP JUMPDEST CALLVALUE DUP1 ISZERO PUSH2 0x951 JUMPI PUSH1 0x0 DUP1 REVERT JUMPDEST POP PUSH1 0x17 SLOAD PUSH2 0x4DF SWAP1 PUSH1 0x1 PUSH1 0x1 PUSH1 0xA0 SHL SUB AND DUP2 JUMP JUMPDEST CALLVALUE DUP1 ISZERO PUSH2 0x971 JUMPI PUSH1 0x0 DUP1 REVERT JUMPDEST POP PUSH2 0x446 PUSH1 0xF SLOAD DUP2 JUMP JUMPDEST CALLVALUE DUP1 ISZERO PUSH2 0x987 JUMPI PUSH1 0x0 DUP1 REVERT JUMPDEST POP PUSH1 0x13 SLOAD PUSH2 0x446 JUMP JUMPDEST CALLVALUE DUP1 ISZERO PUSH2 0x99C JUMPI PUSH1 0x0 DUP1 REVERT JUMPDEST POP PUSH2 0x446 PUSH1 0x12 SLOAD DUP2 JUMP JUMPDEST CALLVALUE DUP1 ISZERO PUSH2 0x9B2 JUMPI PUSH1 0x0 DUP1 REVERT JUMPDEST POP PUSH2 0x4DF PUSH2 0x9C1 CALLDATASIZE PUSH1 0x4 PUSH2 0x3C84 JUMP JUMPDEST PUSH2 0x21EA JUMP JUMPDEST CALLVALUE DUP1 ISZERO PUSH2 0x9D2 JUMPI PUSH1 0x0 DUP1 REVERT JUMPDEST POP PUSH2 0x5D3 PUSH2 0x9E1 CALLDATASIZE PUSH1 0x4 PUSH2 0x3D91 JUMP JUMPDEST PUSH2 0x2214 JUMP JUMPDEST CALLVALUE DUP1 ISZERO PUSH2 0x9F2 JUMPI PUSH1 0x0 DUP1 REVERT JUMPDEST POP PUSH2 0x446 PUSH1 0x9 DUP2 JUMP JUMPDEST CALLVALUE DUP1 ISZERO PUSH2 0xA07 JUMPI PUSH1 0x0 DUP1 REVERT JUMPDEST POP PUSH2 0x446 PUSH1 0x14 DUP2 JUMP JUMPDEST CALLVALUE DUP1 ISZERO PUSH2 0xA1C JUMPI PUSH1 0x0 DUP1 REVERT JUMPDEST POP PUSH2 0x5D3 PUSH2 0xA2B CALLDATASIZE PUSH1 0x4 PUSH2 0x3D91 JUMP JUMPDEST PUSH2 0x22D4 JUMP JUMPDEST CALLVALUE DUP1 ISZERO PUSH2 0xA3C JUMPI PUSH1 0x0 DUP1 REVERT JUMPDEST POP PUSH2 0x446 PUSH1 0xE SLOAD DUP2 JUMP JUMPDEST CALLVALUE DUP1 ISZERO PUSH2 0xA52 JUMPI PUSH1 0x0 DUP1 REVERT JUMPDEST POP PUSH2 0x537 PUSH2 0x2394 JUMP JUMPDEST CALLVALUE DUP1 ISZERO PUSH2 0xA67 JUMPI PUSH1 0x0 DUP1 REVERT JUMPDEST POP PUSH2 0x446 PUSH1 0x19 DUP2 JUMP JUMPDEST CALLVALUE DUP1 ISZERO PUSH2 0xA7C JUMPI PUSH1 0x0 DUP1 REVERT JUMPDEST POP PUSH2 0x5D3 PUSH2 0xA8B CALLDATASIZE PUSH1 0x4 PUSH2 0x3D76 JUMP JUMPDEST PUSH2 0x23A1 JUMP JUMPDEST CALLVALUE DUP1 ISZERO PUSH2 0xA9C JUMPI PUSH1 0x0 DUP1 REVERT JUMPDEST POP PUSH2 0x4DF PUSH2 0xAAB CALLDATASIZE PUSH1 0x4 PUSH2 0x3C84 JUMP JUMPDEST PUSH1 0x1D PUSH1 0x20 MSTORE PUSH1 0x0 SWAP1 DUP2 MSTORE PUSH1 0x40 SWAP1 KECCAK256 SLOAD PUSH1 0x1 PUSH1 0x1 PUSH1 0xA0 SHL SUB AND DUP2 JUMP JUMPDEST CALLVALUE DUP1 ISZERO PUSH2 0xAD2 JUMPI PUSH1 0x0 DUP1 REVERT JUMPDEST POP PUSH1 0x16 SLOAD PUSH2 0x4DF SWAP1 PUSH1 0x1 PUSH1 0x1 PUSH1 0xA0 SHL SUB AND DUP2 JUMP JUMPDEST CALLVALUE DUP1 ISZERO PUSH2 0xAF2 JUMPI PUSH1 0x0 DUP1 REVERT JUMPDEST POP PUSH2 0x479 PUSH2 0xB01 CALLDATASIZE PUSH1 0x4 PUSH2 0x41DA JUMP JUMPDEST PUSH1 0x1 PUSH1 0x1 PUSH1 0xA0 SHL SUB SWAP2 DUP3 AND PUSH1 0x0 SWAP1 DUP2 MSTORE PUSH1 0x1 PUSH1 0x20 SWAP1 DUP2 MSTORE PUSH1 0x40 DUP1 DUP4 KECCAK256 SWAP4 SWAP1 SWAP5 AND DUP3 MSTORE SWAP2 SWAP1 SWAP2 MSTORE KECCAK256 SLOAD PUSH1 0xFF AND SWAP1 JUMP JUMPDEST CALLVALUE DUP1 ISZERO PUSH2 0xB3B JUMPI PUSH1 0x0 DUP1 REVERT JUMPDEST POP PUSH2 0x5D3 PUSH2 0x24AE JUMP JUMPDEST CALLVALUE DUP1 ISZERO PUSH2 0xB50 JUMPI PUSH1 0x0 DUP1 REVERT JUMPDEST POP PUSH2 0x5D3 PUSH2 0x259B JUMP JUMPDEST CALLVALUE DUP1 ISZERO PUSH2 0xB65 JUMPI PUSH1 0x0 DUP1 REVERT JUMPDEST POP PUSH2 0x5D3 PUSH2 0xB74 CALLDATASIZE PUSH1 0x4 PUSH2 0x420D JUMP JUMPDEST PUSH2 0x26F0 JUMP JUMPDEST CALLVALUE DUP1 ISZERO PUSH2 0xB85 JUMPI PUSH1 0x0 DUP1 REVERT JUMPDEST POP PUSH2 0x5D3 PUSH2 0xB94 CALLDATASIZE PUSH1 0x4 PUSH2 0x3D76 JUMP JUMPDEST PUSH2 0x2777 JUMP JUMPDEST CALLVALUE DUP1 ISZERO PUSH2 0xBA5 JUMPI PUSH1 0x0 DUP1 REVERT JUMPDEST POP PUSH2 0x5D3 PUSH2 0xBB4 CALLDATASIZE PUSH1 0x4 PUSH2 0x3D91 JUMP JUMPDEST PUSH2 0x2818 JUMP JUMPDEST CALLVALUE DUP1 ISZERO PUSH2 0xBC5 JUMPI PUSH1 0x0 DUP1 REVERT JUMPDEST POP PUSH2 0x446 PUSH2 0x28D8 JUMP JUMPDEST CALLVALUE DUP1 ISZERO PUSH2 0xBDA JUMPI PUSH1 0x0 DUP1 REVERT JUMPDEST POP PUSH2 0x537 PUSH2 0x2995 JUMP JUMPDEST CALLVALUE DUP1 ISZERO PUSH2 0xBEF JUMPI PUSH1 0x0 DUP1 REVERT JUMPDEST POP PUSH2 0x5D3 PUSH2 0x29A2 JUMP JUMPDEST PUSH1 0x0 PUSH1 0x1 PUSH1 0x1 PUSH1 0xA0 SHL SUB DUP4 AND PUSH2 0xC69 JUMPI PUSH1 0x40 MLOAD PUSH3 0x461BCD PUSH1 0xE5 SHL DUP2 MSTORE PUSH1 0x20 PUSH1 0x4 DUP3 ADD MSTORE PUSH1 0x2B PUSH1 0x24 DUP3 ADD MSTORE PUSH32 0x455243313135353A2062616C616E636520717565727920666F7220746865207A PUSH1 0x44 DUP3 ADD MSTORE PUSH11 0x65726F2061646472657373 PUSH1 0xA8 SHL PUSH1 0x64 DUP3 ADD MSTORE PUSH1 0x84 ADD JUMPDEST PUSH1 0x40 MLOAD DUP1 SWAP2 SUB SWAP1 REVERT JUMPDEST POP PUSH1 0x0 SWAP1 DUP2 MSTORE PUSH1 0x20 DUP2 DUP2 MSTORE PUSH1 0x40 DUP1 DUP4 KECCAK256 PUSH1 0x1 PUSH1 0x1 PUSH1 0xA0 SHL SUB SWAP5 SWAP1 SWAP5 AND DUP4 MSTORE SWAP3 SWAP1 MSTORE KECCAK256 SLOAD SWAP1 JUMP JUMPDEST PUSH1 0x0 PUSH1 0x1 PUSH1 0x1 PUSH1 0xE0 SHL SUB NOT DUP3 AND PUSH4 0x6CDB3D13 PUSH1 0xE1 SHL EQ DUP1 PUSH2 0xCC0 JUMPI POP PUSH1 0x1 PUSH1 0x1 PUSH1 0xE0 SHL SUB NOT DUP3 AND PUSH4 0x3A24D07 PUSH1 0xE2 SHL EQ JUMPDEST DUP1 PUSH2 0xCDB JUMPI POP PUSH4 0x1FFC9A7 PUSH1 0xE0 SHL PUSH1 0x1 PUSH1 0x1 PUSH1 0xE0 SHL SUB NOT DUP4 AND EQ JUMPDEST SWAP3 SWAP2 POP POP JUMP JUMPDEST PUSH1 0x0 PUSH2 0xCEE DUP5 DUP5 DUP5 PUSH2 0x29DA JUMP JUMPDEST SWAP5 SWAP4 POP POP POP POP JUMP JUMPDEST PUSH1 0x0 DUP1 PUSH2 0xD04 DUP6 DUP6 DUP6 PUSH2 0x29DA JUMP JUMPDEST PUSH1 0x0 SWAP1 DUP2 MSTORE PUSH1 0x1D PUSH1 0x20 MSTORE PUSH1 0x40 SWAP1 KECCAK256 SLOAD PUSH1 0x1 PUSH1 0x1 PUSH1 0xA0 SHL SUB AND SWAP6 SWAP5 POP POP POP POP POP JUMP JUMPDEST PUSH1 0x13 DUP2 DUP2 SLOAD DUP2 LT PUSH2 0xD35 JUMPI PUSH1 0x0 DUP1 REVERT JUMPDEST PUSH1 0x0 SWAP2 DUP3 MSTORE PUSH1 0x20 SWAP1 SWAP2 KECCAK256 ADD SLOAD SWAP1 POP DUP2 JUMP JUMPDEST PUSH1 0x60 PUSH1 0x2 DUP1 SLOAD PUSH2 0xD55 SWAP1 PUSH2 0x4272 JUMP JUMPDEST DUP1 PUSH1 0x1F ADD PUSH1 0x20 DUP1 SWAP2 DIV MUL PUSH1 0x20 ADD PUSH1 0x40 MLOAD SWAP1 DUP2 ADD PUSH1 0x40 MSTORE DUP1 SWAP3 SWAP2 SWAP1 DUP2 DUP2 MSTORE PUSH1 0x20 ADD DUP3 DUP1 SLOAD PUSH2 0xD81 SWAP1 PUSH2 0x4272 JUMP JUMPDEST DUP1 ISZERO PUSH2 0xDCE JUMPI DUP1 PUSH1 0x1F LT PUSH2 0xDA3 JUMPI PUSH2 0x100 DUP1 DUP4 SLOAD DIV MUL DUP4 MSTORE SWAP2 PUSH1 0x20 ADD SWAP2 PUSH2 0xDCE JUMP JUMPDEST DUP3 ADD SWAP2 SWAP1 PUSH1 0x0 MSTORE PUSH1 0x20 PUSH1 0x0 KECCAK256 SWAP1 JUMPDEST DUP2 SLOAD DUP2 MSTORE SWAP1 PUSH1 0x1 ADD SWAP1 PUSH1 0x20 ADD DUP1 DUP4 GT PUSH2 0xDB1 JUMPI DUP3 SWAP1 SUB PUSH1 0x1F AND DUP3 ADD SWAP2 JUMPDEST POP POP POP POP POP SWAP1 POP SWAP2 SWAP1 POP JUMP JUMPDEST PUSH1 0x13 SLOAD PUSH1 0x60 SWAP1 PUSH1 0x0 SWAP1 PUSH8 0xFFFFFFFFFFFFFFFF DUP2 GT ISZERO PUSH2 0xDFB JUMPI PUSH2 0xDFB PUSH2 0x3DC8 JUMP JUMPDEST PUSH1 0x40 MLOAD SWAP1 DUP1 DUP3 MSTORE DUP1 PUSH1 0x20 MUL PUSH1 0x20 ADD DUP3 ADD PUSH1 0x40 MSTORE DUP1 ISZERO PUSH2 0xE24 JUMPI DUP2 PUSH1 0x20 ADD PUSH1 0x20 DUP3 MUL DUP1 CALLDATASIZE DUP4 CALLDATACOPY ADD SWAP1 POP JUMPDEST POP SWAP1 POP PUSH1 0x0 JUMPDEST PUSH1 0x13 SLOAD DUP2 LT ISZERO PUSH2 0xF17 JUMPI DUP4 ISZERO PUSH2 0xEC8 JUMPI CALLER PUSH1 0x1 PUSH1 0x1 PUSH1 0xA0 SHL SUB AND PUSH1 0x1D PUSH1 0x0 PUSH1 0x13 DUP5 DUP2 SLOAD DUP2 LT PUSH2 0xE5B JUMPI PUSH2 0xE5B PUSH2 0x42AD JUMP JUMPDEST PUSH1 0x0 SWAP2 DUP3 MSTORE PUSH1 0x20 DUP1 DUP4 KECCAK256 SWAP1 SWAP2 ADD SLOAD DUP4 MSTORE DUP3 ADD SWAP3 SWAP1 SWAP3 MSTORE PUSH1 0x40 ADD SWAP1 KECCAK256 SLOAD PUSH1 0x1 PUSH1 0x1 PUSH1 0xA0 SHL SUB AND EQ ISZERO PUSH2 0xEC3 JUMPI PUSH1 0x13 DUP2 DUP2 SLOAD DUP2 LT PUSH2 0xE99 JUMPI PUSH2 0xE99 PUSH2 0x42AD JUMP JUMPDEST SWAP1 PUSH1 0x0 MSTORE PUSH1 0x20 PUSH1 0x0 KECCAK256 ADD SLOAD DUP3 DUP3 DUP2 MLOAD DUP2 LT PUSH2 0xEB6 JUMPI PUSH2 0xEB6 PUSH2 0x42AD JUMP JUMPDEST PUSH1 0x20 MUL PUSH1 0x20 ADD ADD DUP2 DUP2 MSTORE POP POP JUMPDEST PUSH2 0xF05 JUMP JUMPDEST PUSH1 0x13 DUP2 DUP2 SLOAD DUP2 LT PUSH2 0xEDB JUMPI PUSH2 0xEDB PUSH2 0x42AD JUMP JUMPDEST SWAP1 PUSH1 0x0 MSTORE PUSH1 0x20 PUSH1 0x0 KECCAK256 ADD SLOAD DUP3 DUP3 DUP2 MLOAD DUP2 LT PUSH2 0xEF8 JUMPI PUSH2 0xEF8 PUSH2 0x42AD JUMP JUMPDEST PUSH1 0x20 MUL PUSH1 0x20 ADD ADD DUP2 DUP2 MSTORE POP POP JUMPDEST DUP1 PUSH2 0xF0F DUP2 PUSH2 0x42C3 JUMP JUMPDEST SWAP2 POP POP PUSH2 0xE2A JUMP JUMPDEST POP SWAP3 SWAP2 POP POP JUMP JUMPDEST PUSH1 0x3 SLOAD PUSH1 0x1 PUSH1 0x1 PUSH1 0xA0 SHL SUB PUSH2 0x100 SWAP1 SWAP2 DIV AND CALLER EQ PUSH2 0xF4E JUMPI PUSH1 0x40 MLOAD PUSH3 0x461BCD PUSH1 0xE5 SHL DUP2 MSTORE PUSH1 0x4 ADD PUSH2 0xC60 SWAP1 PUSH2 0x42DE JUMP JUMPDEST DUP1 ISZERO PUSH2 0xF98 JUMPI PUSH1 0x17 DUP1 SLOAD PUSH1 0x1 PUSH1 0x1 PUSH1 0xA0 SHL SUB DUP5 DUP2 AND PUSH1 0x1 PUSH1 0x1 PUSH1 0xA0 SHL SUB NOT DUP4 AND DUP2 OR SWAP1 SWAP4 SSTORE AND PUSH1 0x0 DUP2 DUP2 MSTORE PUSH1 0x1B PUSH1 0x20 MSTORE PUSH1 0x40 DUP1 DUP3 KECCAK256 DUP1 SLOAD SWAP5 DUP4 MSTORE SWAP1 DUP3 KECCAK256 SWAP4 SWAP1 SWAP4 SSTORE SWAP1 DUP2 MSTORE SWAP1 SSTORE POP POP JUMP JUMPDEST PUSH1 0x17 DUP1 SLOAD PUSH1 0x1 PUSH1 0x1 PUSH1 0xA0 SHL SUB DUP5 DUP2 AND PUSH1 0x1 PUSH1 0x1 PUSH1 0xA0 SHL SUB NOT DUP4 AND OR SWAP1 SWAP3 SSTORE DUP2 AND PUSH1 0x0 DUP2 DUP2 MSTORE PUSH1 0x1B PUSH1 0x20 MSTORE PUSH1 0x40 DUP1 DUP3 KECCAK256 SLOAD PUSH1 0x19 SLOAD SWAP1 SWAP5 AND DUP3 MSTORE SWAP1 KECCAK256 SLOAD SWAP1 SWAP2 PUSH2 0xFDE SWAP2 PUSH2 0x3BCC JUMP JUMPDEST PUSH1 0x19 SLOAD PUSH1 0x1 PUSH1 0x1 PUSH1 0xA0 SHL SUB SWAP1 DUP2 AND PUSH1 0x0 SWAP1 DUP2 MSTORE PUSH1 0x1B PUSH1 0x20 MSTORE PUSH1 0x40 DUP1 DUP3 KECCAK256 SWAP4 SWAP1 SWAP4 SSTORE SWAP3 AND DUP3 MSTORE DUP2 KECCAK256 SSTORE JUMPDEST POP POP JUMP JUMPDEST PUSH1 0x3 SLOAD PUSH1 0x1 PUSH1 0x1 PUSH1 0xA0 SHL SUB PUSH2 0x100 SWAP1 SWAP2 DIV AND CALLER EQ PUSH2 0x103B JUMPI PUSH1 0x40 MLOAD PUSH3 0x461BCD PUSH1 0xE5 SHL DUP2 MSTORE PUSH1 0x4 ADD PUSH2 0xC60 SWAP1 PUSH2 0x42DE JUMP JUMPDEST PUSH2 0x1043 PUSH2 0x29F5 JUMP JUMPDEST JUMP JUMPDEST PUSH1 0x3 SLOAD PUSH1 0xFF AND ISZERO PUSH2 0x1068 JUMPI PUSH1 0x40 MLOAD PUSH3 0x461BCD PUSH1 0xE5 SHL DUP2 MSTORE PUSH1 0x4 ADD PUSH2 0xC60 SWAP1 PUSH2 0x4313 JUMP JUMPDEST DUP2 ISZERO DUP1 PUSH2 0x1075 JUMPI POP PUSH1 0xC DUP3 GT JUMPDEST ISZERO PUSH2 0x10BA JUMPI PUSH1 0x40 MLOAD PUSH3 0x461BCD PUSH1 0xE5 SHL DUP2 MSTORE PUSH1 0x20 PUSH1 0x4 DUP3 ADD MSTORE PUSH1 0x15 PUSH1 0x24 DUP3 ADD MSTORE PUSH21 0x3BB937B7339036B7B73A341039B2B632B1BA34B7B7 PUSH1 0x59 SHL PUSH1 0x44 DUP3 ADD MSTORE PUSH1 0x64 ADD PUSH2 0xC60 JUMP JUMPDEST DUP1 ISZERO DUP1 PUSH2 0x10C7 JUMPI POP PUSH1 0x1F DUP2 GT JUMPDEST ISZERO PUSH2 0x110A JUMPI PUSH1 0x40 MLOAD PUSH3 0x461BCD PUSH1 0xE5 SHL DUP2 MSTORE PUSH1 0x20 PUSH1 0x4 DUP3 ADD MSTORE PUSH1 0x13 PUSH1 0x24 DUP3 ADD MSTORE PUSH19 0x3BB937B733903230BC9039B2B632B1BA34B7B7 PUSH1 0x69 SHL PUSH1 0x44 DUP3 ADD MSTORE PUSH1 0x64 ADD PUSH2 0xC60 JUMP JUMPDEST DUP2 PUSH1 0x4 EQ DUP1 PUSH2 0x1119 JUMPI POP DUP2 PUSH1 0x6 EQ JUMPDEST DUP1 PUSH2 0x1124 JUMPI POP DUP2 PUSH1 0x9 EQ JUMPDEST DUP1 PUSH2 0x112F JUMPI POP DUP2 PUSH1 0xB EQ JUMPDEST DUP1 ISZERO PUSH2 0x113B JUMPI POP PUSH1 0x1E DUP2 GT JUMPDEST POP DUP2 PUSH1 0x2 EQ DUP1 ISZERO PUSH2 0x1150 JUMPI POP PUSH2 0x1150 DUP4 PUSH2 0x2A6A JUMP JUMPDEST DUP1 ISZERO PUSH2 0x115C JUMPI POP PUSH1 0x1D DUP2 GT JUMPDEST POP DUP2 PUSH1 0x2 EQ DUP1 ISZERO PUSH2 0x1173 JUMPI POP PUSH2 0x1171 DUP4 PUSH2 0x2A6A JUMP JUMPDEST ISZERO JUMPDEST DUP1 ISZERO PUSH2 0x117F JUMPI POP PUSH1 0x1C DUP2 GT JUMPDEST POP PUSH1 0x0 PUSH2 0x118D DUP5 DUP5 DUP5 PUSH2 0x29DA JUMP JUMPDEST SWAP1 POP PUSH2 0x1198 DUP2 PUSH2 0x1795 JUMP JUMPDEST PUSH2 0x121C JUMPI PUSH1 0x40 MLOAD PUSH3 0x461BCD PUSH1 0xE5 SHL DUP2 MSTORE PUSH1 0x20 PUSH1 0x4 DUP3 ADD MSTORE PUSH1 0x49 PUSH1 0x24 DUP3 ADD MSTORE PUSH32 0x54686973206461792043616E206E6F74206265206D696E742061742074686520 PUSH1 0x44 DUP3 ADD MSTORE PUSH32 0x6D6F6D656E742C706C65617365207761697420756E74696C2074686520616374 PUSH1 0x64 DUP3 ADD MSTORE PUSH9 0x3AB0B636103230BC97 PUSH1 0xB9 SHL PUSH1 0x84 DUP3 ADD MSTORE PUSH1 0xA4 ADD PUSH2 0xC60 JUMP JUMPDEST PUSH1 0x0 DUP2 DUP2 MSTORE PUSH1 0x1D PUSH1 0x20 MSTORE PUSH1 0x40 SWAP1 KECCAK256 SLOAD PUSH1 0x1 PUSH1 0x1 PUSH1 0xA0 SHL SUB AND ISZERO PUSH2 0x1281 JUMPI PUSH1 0x40 MLOAD PUSH3 0x461BCD PUSH1 0xE5 SHL DUP2 MSTORE PUSH1 0x20 PUSH1 0x4 DUP3 ADD MSTORE PUSH1 0x1E PUSH1 0x24 DUP3 ADD MSTORE PUSH32 0x54686973206461792068617320616C7265616479206D656D6F72697A65640000 PUSH1 0x44 DUP3 ADD MSTORE PUSH1 0x64 ADD PUSH2 0xC60 JUMP JUMPDEST CALLER PUSH1 0x0 SWAP1 DUP2 MSTORE PUSH1 0x1C PUSH1 0x20 MSTORE PUSH1 0x40 DUP2 KECCAK256 SLOAD ISZERO PUSH2 0x12C6 JUMPI POP CALLER PUSH1 0x0 SWAP1 DUP2 MSTORE PUSH1 0x1C PUSH1 0x20 MSTORE PUSH1 0x40 SWAP1 KECCAK256 SLOAD PUSH1 0x1 SWAP1 PUSH2 0x12B5 SWAP1 DUP3 SWAP1 PUSH2 0x433D JUMP JUMPDEST CALLER PUSH1 0x0 SWAP1 DUP2 MSTORE PUSH1 0x1C PUSH1 0x20 MSTORE PUSH1 0x40 SWAP1 KECCAK256 SSTORE JUMPDEST DUP1 PUSH2 0x15F1 JUMPI PUSH2 0x12D3 PUSH2 0x28D8 JUMP JUMPDEST CALLVALUE LT ISZERO PUSH2 0x1330 JUMPI PUSH1 0x40 MLOAD PUSH3 0x461BCD PUSH1 0xE5 SHL DUP2 MSTORE PUSH1 0x20 PUSH1 0x4 DUP3 ADD MSTORE PUSH1 0x25 PUSH1 0x24 DUP3 ADD MSTORE PUSH32 0x4E6F7420656E6F7567682066756E647320746F206D656D6F72697A6520746869 PUSH1 0x44 DUP3 ADD MSTORE PUSH5 0x7320646179 PUSH1 0xD8 SHL PUSH1 0x64 DUP3 ADD MSTORE PUSH1 0x84 ADD PUSH2 0xC60 JUMP JUMPDEST PUSH1 0x0 PUSH1 0x64 PUSH2 0x133F PUSH1 0xF CALLVALUE PUSH2 0x4354 JUMP JUMPDEST PUSH2 0x1349 SWAP2 SWAP1 PUSH2 0x4389 JUMP JUMPDEST PUSH1 0x0 DUP1 MLOAD PUSH1 0x20 PUSH2 0x4822 DUP4 CODECOPY DUP2 MLOAD SWAP2 MSTORE SLOAD PUSH1 0x1 PUSH1 0x1 PUSH1 0xA0 SHL SUB AND PUSH1 0x0 SWAP1 DUP2 MSTORE PUSH1 0x1B PUSH1 0x20 MSTORE PUSH1 0x40 SWAP1 KECCAK256 SLOAD SWAP1 SWAP2 POP PUSH2 0x137F SWAP1 DUP3 SWAP1 PUSH2 0x3BCC JUMP JUMPDEST PUSH1 0x0 DUP1 MLOAD PUSH1 0x20 PUSH2 0x4822 DUP4 CODECOPY DUP2 MLOAD SWAP2 MSTORE SLOAD PUSH1 0x1 PUSH1 0x1 PUSH1 0xA0 SHL SUB AND PUSH1 0x0 SWAP1 DUP2 MSTORE PUSH1 0x1B PUSH1 0x20 MSTORE PUSH1 0x40 DUP2 KECCAK256 SWAP2 SWAP1 SWAP2 SSTORE PUSH1 0x64 PUSH2 0x13B7 PUSH1 0xA CALLVALUE PUSH2 0x4354 JUMP JUMPDEST PUSH2 0x13C1 SWAP2 SWAP1 PUSH2 0x4389 JUMP JUMPDEST PUSH1 0x1A SLOAD PUSH1 0x1 PUSH1 0x1 PUSH1 0xA0 SHL SUB AND PUSH1 0x0 SWAP1 DUP2 MSTORE PUSH1 0x1B PUSH1 0x20 MSTORE PUSH1 0x40 SWAP1 KECCAK256 SLOAD SWAP1 SWAP2 POP PUSH2 0x13EA SWAP1 DUP3 SWAP1 PUSH2 0x3BCC JUMP JUMPDEST PUSH1 0x1A SLOAD PUSH1 0x1 PUSH1 0x1 PUSH1 0xA0 SHL SUB AND PUSH1 0x0 SWAP1 DUP2 MSTORE PUSH1 0x1B PUSH1 0x20 MSTORE PUSH1 0x40 DUP2 KECCAK256 SWAP2 SWAP1 SWAP2 SSTORE PUSH1 0x64 PUSH2 0x1415 PUSH1 0x1 CALLVALUE PUSH2 0x4354 JUMP JUMPDEST PUSH2 0x141F SWAP2 SWAP1 PUSH2 0x4389 JUMP JUMPDEST ADDRESS PUSH1 0x0 SWAP1 DUP2 MSTORE PUSH1 0x1B PUSH1 0x20 MSTORE PUSH1 0x40 SWAP1 KECCAK256 SLOAD SWAP1 SWAP2 POP PUSH2 0x143D SWAP1 DUP3 SWAP1 PUSH2 0x3BCC JUMP JUMPDEST ADDRESS PUSH1 0x0 SWAP1 DUP2 MSTORE PUSH1 0x1B PUSH1 0x20 MSTORE PUSH1 0x40 SWAP1 KECCAK256 SSTORE PUSH1 0x64 PUSH2 0x145A PUSH1 0x19 CALLVALUE PUSH2 0x4354 JUMP JUMPDEST PUSH2 0x1464 SWAP2 SWAP1 PUSH2 0x4389 JUMP JUMPDEST PUSH1 0xB DUP2 SWAP1 SSTORE PUSH2 0x1472 SWAP1 PUSH2 0x2AA6 JUMP JUMPDEST PUSH1 0x0 PUSH1 0x64 PUSH2 0x1481 PUSH1 0x14 CALLVALUE PUSH2 0x4354 JUMP JUMPDEST PUSH2 0x148B SWAP2 SWAP1 PUSH2 0x4389 JUMP JUMPDEST PUSH1 0x16 SLOAD PUSH1 0x1 PUSH1 0x1 PUSH1 0xA0 SHL SUB AND PUSH1 0x0 SWAP1 DUP2 MSTORE PUSH1 0x1B PUSH1 0x20 MSTORE PUSH1 0x40 SWAP1 KECCAK256 SLOAD SWAP1 SWAP2 POP PUSH2 0x14B4 SWAP1 DUP3 SWAP1 PUSH2 0x3BCC JUMP JUMPDEST PUSH1 0x16 SLOAD PUSH1 0x1 PUSH1 0x1 PUSH1 0xA0 SHL SUB AND PUSH1 0x0 SWAP1 DUP2 MSTORE PUSH1 0x1B PUSH1 0x20 MSTORE PUSH1 0x40 DUP2 KECCAK256 SWAP2 SWAP1 SWAP2 SSTORE PUSH1 0x64 PUSH2 0x14DF PUSH1 0xA CALLVALUE PUSH2 0x4354 JUMP JUMPDEST PUSH2 0x14E9 SWAP2 SWAP1 PUSH2 0x4389 JUMP JUMPDEST PUSH1 0x17 SLOAD PUSH1 0x1 PUSH1 0x1 PUSH1 0xA0 SHL SUB AND PUSH1 0x0 SWAP1 DUP2 MSTORE PUSH1 0x1B PUSH1 0x20 MSTORE PUSH1 0x40 SWAP1 KECCAK256 SLOAD SWAP1 SWAP2 POP PUSH2 0x1512 SWAP1 DUP3 SWAP1 PUSH2 0x3BCC JUMP JUMPDEST PUSH1 0x17 SLOAD PUSH1 0x1 PUSH1 0x1 PUSH1 0xA0 SHL SUB AND PUSH1 0x0 SWAP1 DUP2 MSTORE PUSH1 0x1B PUSH1 0x20 MSTORE PUSH1 0x40 DUP2 KECCAK256 SWAP2 SWAP1 SWAP2 SSTORE PUSH1 0x64 PUSH2 0x153D PUSH1 0xA CALLVALUE PUSH2 0x4354 JUMP JUMPDEST PUSH2 0x1547 SWAP2 SWAP1 PUSH2 0x4389 JUMP JUMPDEST PUSH1 0x18 SLOAD PUSH1 0x1 PUSH1 0x1 PUSH1 0xA0 SHL SUB AND PUSH1 0x0 SWAP1 DUP2 MSTORE PUSH1 0x1B PUSH1 0x20 MSTORE PUSH1 0x40 SWAP1 KECCAK256 SLOAD SWAP1 SWAP2 POP PUSH2 0x1570 SWAP1 DUP3 SWAP1 PUSH2 0x3BCC JUMP JUMPDEST PUSH1 0x18 SLOAD PUSH1 0x1 PUSH1 0x1 PUSH1 0xA0 SHL SUB AND PUSH1 0x0 SWAP1 DUP2 MSTORE PUSH1 0x1B PUSH1 0x20 MSTORE PUSH1 0x40 DUP2 KECCAK256 SWAP2 SWAP1 SWAP2 SSTORE PUSH1 0x64 PUSH2 0x159B PUSH1 0x9 CALLVALUE PUSH2 0x4354 JUMP JUMPDEST PUSH2 0x15A5 SWAP2 SWAP1 PUSH2 0x4389 JUMP JUMPDEST PUSH1 0x19 SLOAD PUSH1 0x1 PUSH1 0x1 PUSH1 0xA0 SHL SUB AND PUSH1 0x0 SWAP1 DUP2 MSTORE PUSH1 0x1B PUSH1 0x20 MSTORE PUSH1 0x40 SWAP1 KECCAK256 SLOAD SWAP1 SWAP2 POP PUSH2 0x15CE SWAP1 DUP3 SWAP1 PUSH2 0x3BCC JUMP JUMPDEST PUSH1 0x19 SLOAD PUSH1 0x1 PUSH1 0x1 PUSH1 0xA0 SHL SUB AND PUSH1 0x0 SWAP1 DUP2 MSTORE PUSH1 0x1B PUSH1 0x20 MSTORE PUSH1 0x40 SWAP1 KECCAK256 SSTORE POP POP POP POP POP POP POP JUMPDEST PUSH2 0x160D CALLER DUP4 PUSH1 0x1 PUSH1 0x40 MLOAD DUP1 PUSH1 0x20 ADD PUSH1 0x40 MSTORE DUP1 PUSH1 0x0 DUP2 MSTORE POP PUSH2 0x2BFC JUMP JUMPDEST PUSH1 0x13 DUP1 SLOAD PUSH1 0x1 DUP2 ADD SWAP1 SWAP2 SSTORE PUSH32 0x66DE8FFDA797E3DE9C05E8FC57B3BF0EC28A930D40B0D285D93C06501CF6A090 ADD DUP3 SWAP1 SSTORE PUSH1 0x0 DUP3 DUP2 MSTORE PUSH1 0x1D PUSH1 0x20 MSTORE PUSH1 0x40 SWAP1 KECCAK256 DUP1 SLOAD PUSH1 0x1 PUSH1 0x1 PUSH1 0xA0 SHL SUB NOT AND CALLER OR SWAP1 SSTORE PUSH2 0x1663 PUSH2 0x2D0C JUMP JUMPDEST DUP1 ISZERO PUSH2 0x16B1 JUMPI PUSH1 0x40 DUP1 MLOAD DUP7 DUP2 MSTORE PUSH1 0x20 DUP2 ADD DUP7 SWAP1 MSTORE SWAP1 DUP2 ADD DUP5 SWAP1 MSTORE CALLER SWAP1 PUSH32 0x8F7B867D4725F039D609BA3EB633BEDDBB7049D42956E84B2EF81601F159B411 SWAP1 PUSH1 0x60 ADD PUSH1 0x40 MLOAD DUP1 SWAP2 SUB SWAP1 LOG2 PUSH2 0x16FE JUMP JUMPDEST PUSH2 0x16B9 PUSH2 0x2D1E JUMP JUMPDEST PUSH1 0x40 DUP1 MLOAD DUP7 DUP2 MSTORE PUSH1 0x20 DUP2 ADD DUP7 SWAP1 MSTORE SWAP1 DUP2 ADD DUP5 SWAP1 MSTORE CALLER SWAP1 PUSH32 0xA51E9B2EF1F037DEE551EB226D6D1581C8FB0E0243820EBD1FBB41A13E6C2364 SWAP1 PUSH1 0x60 ADD JUMPDEST PUSH1 0x40 MLOAD DUP1 SWAP2 SUB SWAP1 LOG2 JUMPDEST POP POP POP POP POP JUMP JUMPDEST PUSH1 0x1 PUSH1 0x1 PUSH1 0xA0 SHL SUB DUP6 AND CALLER EQ DUP1 PUSH2 0x1721 JUMPI POP PUSH2 0x1721 DUP6 CALLER PUSH2 0xB01 JUMP JUMPDEST PUSH2 0x1788 JUMPI PUSH1 0x40 MLOAD PUSH3 0x461BCD PUSH1 0xE5 SHL DUP2 MSTORE PUSH1 0x20 PUSH1 0x4 DUP3 ADD MSTORE PUSH1 0x32 PUSH1 0x24 DUP3 ADD MSTORE PUSH32 0x455243313135353A207472616E736665722063616C6C6572206973206E6F7420 PUSH1 0x44 DUP3 ADD MSTORE PUSH18 0x1BDDDB995C881B9BDC88185C1C1C9BDD9959 PUSH1 0x72 SHL PUSH1 0x64 DUP3 ADD MSTORE PUSH1 0x84 ADD PUSH2 0xC60 JUMP JUMPDEST PUSH2 0x16FE DUP6 DUP6 DUP6 DUP6 DUP6 PUSH2 0x2DA4 JUMP JUMPDEST PUSH1 0x0 TIMESTAMP DUP3 GT ISZERO DUP1 ISZERO PUSH2 0x17A9 JUMPI POP PUSH1 0x12 SLOAD DUP3 LT ISZERO JUMPDEST ISZERO PUSH2 0x17B6 JUMPI POP PUSH1 0x1 SWAP2 SWAP1 POP JUMP JUMPDEST POP PUSH1 0x0 SWAP2 SWAP1 POP JUMP JUMPDEST SWAP2 SWAP1 POP JUMP JUMPDEST PUSH2 0x17CB PUSH2 0x3AA1 JUMP JUMPDEST PUSH1 0x0 PUSH2 0x17D8 DUP6 DUP6 DUP6 PUSH2 0x29DA JUMP JUMPDEST PUSH1 0x0 DUP2 DUP2 MSTORE PUSH1 0x1D PUSH1 0x20 MSTORE PUSH1 0x40 SWAP1 KECCAK256 SLOAD SWAP1 SWAP2 POP PUSH1 0x1 PUSH1 0x1 PUSH1 0xA0 SHL SUB AND PUSH2 0x183F JUMPI PUSH1 0x40 MLOAD PUSH3 0x461BCD PUSH1 0xE5 SHL DUP2 MSTORE PUSH1 0x20 PUSH1 0x4 DUP3 ADD MSTORE PUSH1 0x1F PUSH1 0x24 DUP3 ADD MSTORE PUSH32 0x546869732064617920646F6573206E6F74206D656D6F72697A65642079657400 PUSH1 0x44 DUP3 ADD MSTORE PUSH1 0x64 ADD PUSH2 0xC60 JUMP JUMPDEST PUSH1 0x40 DUP1 MLOAD PUSH1 0x80 DUP2 ADD DUP3 MSTORE PUSH1 0x0 PUSH1 0x60 DUP3 ADD DUP2 DUP2 MSTORE DUP3 MSTORE DUP3 MLOAD PUSH1 0x20 DUP2 DUP2 ADD DUP6 MSTORE DUP3 DUP3 MSTORE DUP1 DUP5 ADD SWAP2 SWAP1 SWAP2 MSTORE DUP4 MLOAD SWAP1 DUP2 ADD DUP5 MSTORE SWAP1 DUP2 MSTORE SWAP2 DUP2 ADD SWAP2 SWAP1 SWAP2 MSTORE PUSH2 0x1881 DUP7 PUSH2 0x2F8F JUMP JUMPDEST DUP2 MSTORE PUSH1 0x9 DUP1 SLOAD PUSH2 0x1890 SWAP1 PUSH2 0x4272 JUMP JUMPDEST DUP1 PUSH1 0x1F ADD PUSH1 0x20 DUP1 SWAP2 DIV MUL PUSH1 0x20 ADD PUSH1 0x40 MLOAD SWAP1 DUP2 ADD PUSH1 0x40 MSTORE DUP1 SWAP3 SWAP2 SWAP1 DUP2 DUP2 MSTORE PUSH1 0x20 ADD DUP3 DUP1 SLOAD PUSH2 0x18BC SWAP1 PUSH2 0x4272 JUMP JUMPDEST DUP1 ISZERO PUSH2 0x1909 JUMPI DUP1 PUSH1 0x1F LT PUSH2 0x18DE JUMPI PUSH2 0x100 DUP1 DUP4 SLOAD DIV MUL DUP4 MSTORE SWAP2 PUSH1 0x20 ADD SWAP2 PUSH2 0x1909 JUMP JUMPDEST DUP3 ADD SWAP2 SWAP1 PUSH1 0x0 MSTORE PUSH1 0x20 PUSH1 0x0 KECCAK256 SWAP1 JUMPDEST DUP2 SLOAD DUP2 MSTORE SWAP1 PUSH1 0x1 ADD SWAP1 PUSH1 0x20 ADD DUP1 DUP4 GT PUSH2 0x18EC JUMPI DUP3 SWAP1 SUB PUSH1 0x1F AND DUP3 ADD SWAP2 JUMPDEST POP POP POP POP POP DUP2 PUSH1 0x1 PUSH1 0x3 DUP2 LT PUSH2 0x1921 JUMPI PUSH2 0x1921 PUSH2 0x42AD JUMP JUMPDEST PUSH1 0x20 MUL ADD DUP2 SWAP1 MSTORE POP PUSH1 0x0 PUSH1 0x1E PUSH1 0x0 DUP5 DUP2 MSTORE PUSH1 0x20 ADD SWAP1 DUP2 MSTORE PUSH1 0x20 ADD PUSH1 0x0 KECCAK256 DUP1 SLOAD PUSH2 0x1949 SWAP1 PUSH2 0x4272 JUMP JUMPDEST DUP1 PUSH1 0x1F ADD PUSH1 0x20 DUP1 SWAP2 DIV MUL PUSH1 0x20 ADD PUSH1 0x40 MLOAD SWAP1 DUP2 ADD PUSH1 0x40 MSTORE DUP1 SWAP3 SWAP2 SWAP1 DUP2 DUP2 MSTORE PUSH1 0x20 ADD DUP3 DUP1 SLOAD PUSH2 0x1975 SWAP1 PUSH2 0x4272 JUMP JUMPDEST DUP1 ISZERO PUSH2 0x19C2 JUMPI DUP1 PUSH1 0x1F LT PUSH2 0x1997 JUMPI PUSH2 0x100 DUP1 DUP4 SLOAD DIV MUL DUP4 MSTORE SWAP2 PUSH1 0x20 ADD SWAP2 PUSH2 0x19C2 JUMP JUMPDEST DUP3 ADD SWAP2 SWAP1 PUSH1 0x0 MSTORE PUSH1 0x20 PUSH1 0x0 KECCAK256 SWAP1 JUMPDEST DUP2 SLOAD DUP2 MSTORE SWAP1 PUSH1 0x1 ADD SWAP1 PUSH1 0x20 ADD DUP1 DUP4 GT PUSH2 0x19A5 JUMPI DUP3 SWAP1 SUB PUSH1 0x1F AND DUP3 ADD SWAP2 JUMPDEST POP POP POP POP POP SWAP1 POP DUP1 MLOAD PUSH1 0x0 EQ PUSH2 0x1A82 JUMPI PUSH1 0x0 DUP4 DUP2 MSTORE PUSH1 0x1E PUSH1 0x20 MSTORE PUSH1 0x40 SWAP1 KECCAK256 DUP1 SLOAD PUSH2 0x19EB SWAP1 PUSH2 0x4272 JUMP JUMPDEST DUP1 PUSH1 0x1F ADD PUSH1 0x20 DUP1 SWAP2 DIV MUL PUSH1 0x20 ADD PUSH1 0x40 MLOAD SWAP1 DUP2 ADD PUSH1 0x40 MSTORE DUP1 SWAP3 SWAP2 SWAP1 DUP2 DUP2 MSTORE PUSH1 0x20 ADD DUP3 DUP1 SLOAD PUSH2 0x1A17 SWAP1 PUSH2 0x4272 JUMP JUMPDEST DUP1 ISZERO PUSH2 0x1A64 JUMPI DUP1 PUSH1 0x1F LT PUSH2 0x1A39 JUMPI PUSH2 0x100 DUP1 DUP4 SLOAD DIV MUL DUP4 MSTORE SWAP2 PUSH1 0x20 ADD SWAP2 PUSH2 0x1A64 JUMP JUMPDEST DUP3 ADD SWAP2 SWAP1 PUSH1 0x0 MSTORE PUSH1 0x20 PUSH1 0x0 KECCAK256 SWAP1 JUMPDEST DUP2 SLOAD DUP2 MSTORE SWAP1 PUSH1 0x1 ADD SWAP1 PUSH1 0x20 ADD DUP1 DUP4 GT PUSH2 0x1A47 JUMPI DUP3 SWAP1 SUB PUSH1 0x1F AND DUP3 ADD SWAP2 JUMPDEST POP POP POP POP POP DUP3 PUSH1 0x2 PUSH1 0x3 DUP2 LT PUSH2 0x1A7C JUMPI PUSH2 0x1A7C PUSH2 0x42AD JUMP JUMPDEST PUSH1 0x20 MUL ADD MSTORE JUMPDEST POP SWAP6 SWAP5 POP POP POP POP POP JUMP JUMPDEST PUSH1 0x60 DUP2 MLOAD DUP4 MLOAD EQ PUSH2 0x1AF1 JUMPI PUSH1 0x40 MLOAD PUSH3 0x461BCD PUSH1 0xE5 SHL DUP2 MSTORE PUSH1 0x20 PUSH1 0x4 DUP3 ADD MSTORE PUSH1 0x29 PUSH1 0x24 DUP3 ADD MSTORE PUSH32 0x455243313135353A206163636F756E747320616E6420696473206C656E677468 PUSH1 0x44 DUP3 ADD MSTORE PUSH9 0x40DAD2E6DAC2E8C6D PUSH1 0xBB SHL PUSH1 0x64 DUP3 ADD MSTORE PUSH1 0x84 ADD PUSH2 0xC60 JUMP JUMPDEST PUSH1 0x0 DUP4 MLOAD PUSH8 0xFFFFFFFFFFFFFFFF DUP2 GT ISZERO PUSH2 0x1B0D JUMPI PUSH2 0x1B0D PUSH2 0x3DC8 JUMP JUMPDEST PUSH1 0x40 MLOAD SWAP1 DUP1 DUP3 MSTORE DUP1 PUSH1 0x20 MUL PUSH1 0x20 ADD DUP3 ADD PUSH1 0x40 MSTORE DUP1 ISZERO PUSH2 0x1B36 JUMPI DUP2 PUSH1 0x20 ADD PUSH1 0x20 DUP3 MUL DUP1 CALLDATASIZE DUP4 CALLDATACOPY ADD SWAP1 POP JUMPDEST POP SWAP1 POP PUSH1 0x0 JUMPDEST DUP5 MLOAD DUP2 LT ISZERO PUSH2 0x1BAE JUMPI PUSH2 0x1B81 DUP6 DUP3 DUP2 MLOAD DUP2 LT PUSH2 0x1B5A JUMPI PUSH2 0x1B5A PUSH2 0x42AD JUMP JUMPDEST PUSH1 0x20 MUL PUSH1 0x20 ADD ADD MLOAD DUP6 DUP4 DUP2 MLOAD DUP2 LT PUSH2 0x1B74 JUMPI PUSH2 0x1B74 PUSH2 0x42AD JUMP JUMPDEST PUSH1 0x20 MUL PUSH1 0x20 ADD ADD MLOAD PUSH2 0xBF8 JUMP JUMPDEST DUP3 DUP3 DUP2 MLOAD DUP2 LT PUSH2 0x1B93 JUMPI PUSH2 0x1B93 PUSH2 0x42AD JUMP JUMPDEST PUSH1 0x20 SWAP1 DUP2 MUL SWAP2 SWAP1 SWAP2 ADD ADD MSTORE PUSH2 0x1BA7 DUP2 PUSH2 0x42C3 JUMP JUMPDEST SWAP1 POP PUSH2 0x1B3C JUMP JUMPDEST POP SWAP4 SWAP3 POP POP POP JUMP JUMPDEST PUSH1 0x0 PUSH2 0x1BC3 DUP6 DUP6 DUP6 PUSH2 0x29DA JUMP JUMPDEST PUSH1 0x0 DUP2 DUP2 MSTORE PUSH1 0x1D PUSH1 0x20 MSTORE PUSH1 0x40 SWAP1 KECCAK256 SLOAD SWAP1 SWAP2 POP PUSH1 0x1 PUSH1 0x1 PUSH1 0xA0 SHL SUB AND PUSH2 0x1C2A JUMPI PUSH1 0x40 MLOAD PUSH3 0x461BCD PUSH1 0xE5 SHL DUP2 MSTORE PUSH1 0x20 PUSH1 0x4 DUP3 ADD MSTORE PUSH1 0x1F PUSH1 0x24 DUP3 ADD MSTORE PUSH32 0x546869732064617920646F6573206E6F74206D656D6F72697A65642079657400 PUSH1 0x44 DUP3 ADD MSTORE PUSH1 0x64 ADD PUSH2 0xC60 JUMP JUMPDEST PUSH1 0x0 DUP2 DUP2 MSTORE PUSH1 0x1D PUSH1 0x20 MSTORE PUSH1 0x40 SWAP1 KECCAK256 SLOAD PUSH1 0x1 PUSH1 0x1 PUSH1 0xA0 SHL SUB AND CALLER EQ PUSH2 0x1C90 JUMPI PUSH1 0x40 MLOAD PUSH3 0x461BCD PUSH1 0xE5 SHL DUP2 MSTORE PUSH1 0x20 PUSH1 0x4 DUP3 ADD MSTORE PUSH1 0x17 PUSH1 0x24 DUP3 ADD MSTORE PUSH32 0x596F7520646F6E60742068617665207468697320646179000000000000000000 PUSH1 0x44 DUP3 ADD MSTORE PUSH1 0x64 ADD PUSH2 0xC60 JUMP JUMPDEST PUSH1 0x0 DUP2 DUP2 MSTORE PUSH1 0x1E PUSH1 0x20 SWAP1 DUP2 MSTORE PUSH1 0x40 SWAP1 SWAP2 KECCAK256 DUP4 MLOAD PUSH2 0x1CAF SWAP3 DUP6 ADD SWAP1 PUSH2 0x3AC8 JUMP JUMPDEST POP CALLER PUSH1 0x1 PUSH1 0x1 PUSH1 0xA0 SHL SUB AND PUSH32 0x2D51DA4E9AAE0A6EE06DE087193C53FCC2ADA79CD6D25B0D48990840471F0585 DUP4 PUSH1 0x40 MLOAD PUSH2 0x16F5 SWAP2 SWAP1 PUSH2 0x3CEA JUMP JUMPDEST PUSH1 0x3 SLOAD PUSH1 0x1 PUSH1 0x1 PUSH1 0xA0 SHL SUB PUSH2 0x100 SWAP1 SWAP2 DIV AND CALLER EQ PUSH2 0x1D19 JUMPI PUSH1 0x40 MLOAD PUSH3 0x461BCD PUSH1 0xE5 SHL DUP2 MSTORE PUSH1 0x4 ADD PUSH2 0xC60 SWAP1 PUSH2 0x42DE JUMP JUMPDEST PUSH1 0x3 SLOAD PUSH1 0xFF AND ISZERO PUSH2 0x1D3C JUMPI PUSH1 0x40 MLOAD PUSH3 0x461BCD PUSH1 0xE5 SHL DUP2 MSTORE PUSH1 0x4 ADD PUSH2 0xC60 SWAP1 PUSH2 0x4313 JUMP JUMPDEST PUSH1 0x14 SSTORE JUMP JUMPDEST PUSH1 0x3 SLOAD PUSH1 0x1 PUSH1 0x1 PUSH1 0xA0 SHL SUB PUSH2 0x100 SWAP1 SWAP2 DIV AND CALLER EQ PUSH2 0x1D71 JUMPI PUSH1 0x40 MLOAD PUSH3 0x461BCD PUSH1 0xE5 SHL DUP2 MSTORE PUSH1 0x4 ADD PUSH2 0xC60 SWAP1 PUSH2 0x42DE JUMP JUMPDEST PUSH1 0x3 SLOAD PUSH1 0xFF AND ISZERO PUSH2 0x1D94 JUMPI PUSH1 0x40 MLOAD PUSH3 0x461BCD PUSH1 0xE5 SHL DUP2 MSTORE PUSH1 0x4 ADD PUSH2 0xC60 SWAP1 PUSH2 0x4313 JUMP JUMPDEST PUSH1 0x0 PUSH2 0x1DA1 DUP5 DUP5 DUP5 PUSH2 0x29DA JUMP JUMPDEST SWAP1 POP PUSH1 0x12 SLOAD PUSH1 0x0 EQ PUSH2 0x1DFE JUMPI PUSH1 0x12 SLOAD DUP2 LT PUSH2 0x1DFE JUMPI PUSH1 0x40 MLOAD PUSH3 0x461BCD PUSH1 0xE5 SHL DUP2 MSTORE PUSH1 0x20 PUSH1 0x4 DUP3 ADD MSTORE PUSH1 0x1F PUSH1 0x24 DUP3 ADD MSTORE PUSH32 0x4F6E6C79206261636B77617264206368616E676520697320616C6C6F77656400 PUSH1 0x44 DUP3 ADD MSTORE PUSH1 0x64 ADD PUSH2 0xC60 JUMP JUMPDEST PUSH1 0x12 SSTORE POP POP POP JUMP JUMPDEST PUSH1 0x1E PUSH1 0x20 MSTORE PUSH1 0x0 SWAP1 DUP2 MSTORE PUSH1 0x40 SWAP1 KECCAK256 DUP1 SLOAD PUSH2 0x1E1F SWAP1 PUSH2 0x4272 JUMP JUMPDEST DUP1 PUSH1 0x1F ADD PUSH1 0x20 DUP1 SWAP2 DIV MUL PUSH1 0x20 ADD PUSH1 0x40 MLOAD SWAP1 DUP2 ADD PUSH1 0x40 MSTORE DUP1 SWAP3 SWAP2 SWAP1 DUP2 DUP2 MSTORE PUSH1 0x20 ADD DUP3 DUP1 SLOAD PUSH2 0x1E4B SWAP1 PUSH2 0x4272 JUMP JUMPDEST DUP1 ISZERO PUSH2 0x1E98 JUMPI DUP1 PUSH1 0x1F LT PUSH2 0x1E6D JUMPI PUSH2 0x100 DUP1 DUP4 SLOAD DIV MUL DUP4 MSTORE SWAP2 PUSH1 0x20 ADD SWAP2 PUSH2 0x1E98 JUMP JUMPDEST DUP3 ADD SWAP2 SWAP1 PUSH1 0x0 MSTORE PUSH1 0x20 PUSH1 0x0 KECCAK256 SWAP1 JUMPDEST DUP2 SLOAD DUP2 MSTORE SWAP1 PUSH1 0x1 ADD SWAP1 PUSH1 0x20 ADD DUP1 DUP4 GT PUSH2 0x1E7B JUMPI DUP3 SWAP1 SUB PUSH1 0x1F AND DUP3 ADD SWAP2 JUMPDEST POP POP POP POP POP DUP2 JUMP JUMPDEST PUSH1 0x3 SLOAD PUSH1 0x1 PUSH1 0x1 PUSH1 0xA0 SHL SUB PUSH2 0x100 SWAP1 SWAP2 DIV AND CALLER EQ PUSH2 0x1ED0 JUMPI PUSH1 0x40 MLOAD PUSH3 0x461BCD PUSH1 0xE5 SHL DUP2 MSTORE PUSH1 0x4 ADD PUSH2 0xC60 SWAP1 PUSH2 0x42DE JUMP JUMPDEST PUSH1 0x19 DUP1 SLOAD PUSH1 0x1 PUSH1 0x1 PUSH1 0xA0 SHL SUB SWAP3 DUP4 AND PUSH1 0x1 PUSH1 0x1 PUSH1 0xA0 SHL SUB NOT DUP3 AND DUP2 OR SWAP1 SWAP3 SSTORE SWAP2 SWAP1 SWAP2 AND PUSH1 0x0 DUP2 DUP2 MSTORE PUSH1 0x1B PUSH1 0x20 MSTORE PUSH1 0x40 DUP1 DUP3 KECCAK256 DUP1 SLOAD SWAP5 DUP4 MSTORE SWAP1 DUP3 KECCAK256 SWAP4 SWAP1 SWAP4 SSTORE SWAP1 DUP2 MSTORE SWAP1 SSTORE JUMP JUMPDEST PUSH1 0x5 DUP1 SLOAD PUSH2 0x1E1F SWAP1 PUSH2 0x4272 JUMP JUMPDEST PUSH1 0x3 SLOAD PUSH1 0x1 PUSH1 0x1 PUSH1 0xA0 SHL SUB PUSH2 0x100 SWAP1 SWAP2 DIV AND CALLER EQ PUSH2 0x1F52 JUMPI PUSH1 0x40 MLOAD PUSH3 0x461BCD PUSH1 0xE5 SHL DUP2 MSTORE PUSH1 0x4 ADD PUSH2 0xC60 SWAP1 PUSH2 0x42DE JUMP JUMPDEST ADDRESS PUSH1 0x0 SWAP1 DUP2 MSTORE PUSH1 0x1B PUSH1 0x20 MSTORE PUSH1 0x40 DUP1 DUP3 KECCAK256 DUP1 SLOAD SWAP1 DUP4 SWAP1 SSTORE SWAP1 MLOAD SWAP1 SWAP2 CALLER SWAP2 DUP4 ISZERO PUSH2 0x8FC MUL SWAP2 DUP5 SWAP2 SWAP1 DUP2 DUP2 DUP2 DUP6 DUP9 DUP9 CALL SWAP4 POP POP POP POP ISZERO DUP1 ISZERO PUSH2 0x1007 JUMPI RETURNDATASIZE PUSH1 0x0 DUP1 RETURNDATACOPY RETURNDATASIZE PUSH1 0x0 REVERT JUMPDEST CALLER PUSH1 0x0 SWAP1 DUP2 MSTORE PUSH1 0x1B PUSH1 0x20 MSTORE PUSH1 0x40 SWAP1 KECCAK256 SLOAD PUSH7 0x2386F26FC10000 GT ISZERO PUSH2 0x200D JUMPI PUSH1 0x40 MLOAD PUSH3 0x461BCD PUSH1 0xE5 SHL DUP2 MSTORE PUSH1 0x20 PUSH1 0x4 DUP3 ADD MSTORE PUSH1 0x29 PUSH1 0x24 DUP3 ADD MSTORE PUSH32 0x596F7520646F6E60742068617665206D696E2062616C616E636520666F722077 PUSH1 0x44 DUP3 ADD MSTORE PUSH9 0x1A5D1A191C985DD85B PUSH1 0xBA SHL PUSH1 0x64 DUP3 ADD MSTORE PUSH1 0x84 ADD PUSH2 0xC60 JUMP JUMPDEST CALLER PUSH1 0x0 DUP2 DUP2 MSTORE PUSH1 0x1B PUSH1 0x20 MSTORE PUSH1 0x40 DUP1 DUP3 KECCAK256 DUP1 SLOAD SWAP1 DUP4 SWAP1 SSTORE SWAP1 MLOAD SWAP1 SWAP3 DUP4 SWAP3 SWAP1 SWAP2 PUSH32 0x2F174CA282119315C59EFAF21147AEF438581DABDEB498198AE28964373DD8BC SWAP2 SWAP1 LOG3 PUSH1 0x40 MLOAD CALLER SWAP1 DUP3 ISZERO PUSH2 0x8FC MUL SWAP1 DUP4 SWAP1 PUSH1 0x0 DUP2 DUP2 DUP2 DUP6 DUP9 DUP9 CALL SWAP4 POP POP POP POP ISZERO DUP1 ISZERO PUSH2 0x1007 JUMPI RETURNDATASIZE PUSH1 0x0 DUP1 RETURNDATACOPY RETURNDATASIZE PUSH1 0x0 REVERT JUMPDEST PUSH1 0x3 SLOAD PUSH1 0x1 PUSH1 0x1 PUSH1 0xA0 SHL SUB PUSH2 0x100 SWAP1 SWAP2 DIV AND CALLER EQ PUSH2 0x20AC JUMPI PUSH1 0x40 MLOAD PUSH3 0x461BCD PUSH1 0xE5 SHL DUP2 MSTORE PUSH1 0x4 ADD PUSH2 0xC60 SWAP1 PUSH2 0x42DE JUMP JUMPDEST PUSH2 0x1043 PUSH1 0x0 PUSH2 0x308D JUMP JUMPDEST PUSH1 0x0 DUP1 MSTORE PUSH1 0x1D PUSH1 0x20 MSTORE PUSH1 0x0 DUP1 MLOAD PUSH1 0x20 PUSH2 0x4822 DUP4 CODECOPY DUP2 MLOAD SWAP2 MSTORE SLOAD PUSH1 0x1 PUSH1 0x1 PUSH1 0xA0 SHL SUB AND CALLER EQ DUP1 PUSH2 0x2106 JUMPI POP PUSH1 0x3 SLOAD PUSH2 0x100 SWAP1 DIV PUSH1 0x1 PUSH1 0x1 PUSH1 0xA0 SHL SUB AND PUSH1 0x1 PUSH1 0x1 PUSH1 0xA0 SHL SUB AND CALLER PUSH1 0x1 PUSH1 0x1 PUSH1 0xA0 SHL SUB AND EQ JUMPDEST PUSH2 0x210F JUMPI PUSH1 0x0 DUP1 REVERT JUMPDEST DUP3 MLOAD PUSH2 0x2122 SWAP1 PUSH1 0x7 SWAP1 PUSH1 0x20 DUP7 ADD SWAP1 PUSH2 0x3AC8 JUMP JUMPDEST POP DUP2 MLOAD PUSH2 0x2136 SWAP1 PUSH1 0x6 SWAP1 PUSH1 0x20 DUP6 ADD SWAP1 PUSH2 0x3AC8 JUMP JUMPDEST POP DUP1 MLOAD PUSH2 0x214A SWAP1 PUSH1 0x5 SWAP1 PUSH1 0x20 DUP5 ADD SWAP1 PUSH2 0x3AC8 JUMP JUMPDEST POP POP POP POP JUMP JUMPDEST PUSH1 0x9 DUP1 SLOAD PUSH2 0x1E1F SWAP1 PUSH2 0x4272 JUMP JUMPDEST CALLER PUSH1 0x1 PUSH1 0x1 PUSH1 0xA0 SHL SUB PUSH32 0x0 AND EQ PUSH2 0x21D5 JUMPI PUSH1 0x40 MLOAD PUSH3 0x461BCD PUSH1 0xE5 SHL DUP2 MSTORE PUSH1 0x20 PUSH1 0x4 DUP3 ADD MSTORE PUSH1 0x1F PUSH1 0x24 DUP3 ADD MSTORE PUSH32 0x4F6E6C7920565246436F6F7264696E61746F722063616E2066756C66696C6C00 PUSH1 0x44 DUP3 ADD MSTORE PUSH1 0x64 ADD PUSH2 0xC60 JUMP JUMPDEST PUSH2 0x1007 DUP3 DUP3 PUSH2 0x30E7 JUMP JUMPDEST PUSH2 0x1007 CALLER DUP4 DUP4 PUSH2 0x3278 JUMP JUMPDEST PUSH1 0xD DUP2 DUP2 SLOAD DUP2 LT PUSH2 0x21FA JUMPI PUSH1 0x0 DUP1 REVERT JUMPDEST PUSH1 0x0 SWAP2 DUP3 MSTORE PUSH1 0x20 SWAP1 SWAP2 KECCAK256 ADD SLOAD PUSH1 0x1 PUSH1 0x1 PUSH1 0xA0 SHL SUB AND SWAP1 POP DUP2 JUMP JUMPDEST PUSH1 0x3 SLOAD PUSH1 0x1 PUSH1 0x1 PUSH1 0xA0 SHL SUB PUSH2 0x100 SWAP1 SWAP2 DIV AND CALLER EQ PUSH2 0x2244 JUMPI PUSH1 0x40 MLOAD PUSH3 0x461BCD PUSH1 0xE5 SHL DUP2 MSTORE PUSH1 0x4 ADD PUSH2 0xC60 SWAP1 PUSH2 0x42DE JUMP JUMPDEST DUP1 ISZERO PUSH2 0x228E JUMPI PUSH1 0x16 DUP1 SLOAD PUSH1 0x1 PUSH1 0x1 PUSH1 0xA0 SHL SUB DUP5 DUP2 AND PUSH1 0x1 PUSH1 0x1 PUSH1 0xA0 SHL SUB NOT DUP4 AND DUP2 OR SWAP1 SWAP4 SSTORE AND PUSH1 0x0 DUP2 DUP2 MSTORE PUSH1 0x1B PUSH1 0x20 MSTORE PUSH1 0x40 DUP1 DUP3 KECCAK256 DUP1 SLOAD SWAP5 DUP4 MSTORE SWAP1 DUP3 KECCAK256 SWAP4 SWAP1 SWAP4 SSTORE SWAP1 DUP2 MSTORE SWAP1 SSTORE POP POP JUMP JUMPDEST PUSH1 0x16 DUP1 SLOAD PUSH1 0x1 PUSH1 0x1 PUSH1 0xA0 SHL SUB DUP5 DUP2 AND PUSH1 0x1 PUSH1 0x1 PUSH1 0xA0 SHL SUB NOT DUP4 AND OR SWAP1 SWAP3 SSTORE DUP2 AND PUSH1 0x0 DUP2 DUP2 MSTORE PUSH1 0x1B PUSH1 0x20 MSTORE PUSH1 0x40 DUP1 DUP3 KECCAK256 SLOAD PUSH1 0x19 SLOAD SWAP1 SWAP5 AND DUP3 MSTORE SWAP1 KECCAK256 SLOAD SWAP1 SWAP2 PUSH2 0xFDE SWAP2 PUSH2 0x3BCC JUMP JUMPDEST PUSH1 0x3 SLOAD PUSH1 0x1 PUSH1 0x1 PUSH1 0xA0 SHL SUB PUSH2 0x100 SWAP1 SWAP2 DIV AND CALLER EQ PUSH2 0x2304 JUMPI PUSH1 0x40 MLOAD PUSH3 0x461BCD PUSH1 0xE5 SHL DUP2 MSTORE PUSH1 0x4 ADD PUSH2 0xC60 SWAP1 PUSH2 0x42DE JUMP JUMPDEST DUP1 ISZERO PUSH2 0x234E JUMPI PUSH1 0x1A DUP1 SLOAD PUSH1 0x1 PUSH1 0x1 PUSH1 0xA0 SHL SUB DUP5 DUP2 AND PUSH1 0x1 PUSH1 0x1 PUSH1 0xA0 SHL SUB NOT DUP4 AND DUP2 OR SWAP1 SWAP4 SSTORE AND PUSH1 0x0 DUP2 DUP2 MSTORE PUSH1 0x1B PUSH1 0x20 MSTORE PUSH1 0x40 DUP1 DUP3 KECCAK256 DUP1 SLOAD SWAP5 DUP4 MSTORE SWAP1 DUP3 KECCAK256 SWAP4 SWAP1 SWAP4 SSTORE SWAP1 DUP2 MSTORE SWAP1 SSTORE POP POP JUMP JUMPDEST PUSH1 0x1A DUP1 SLOAD PUSH1 0x1 PUSH1 0x1 PUSH1 0xA0 SHL SUB DUP5 DUP2 AND PUSH1 0x1 PUSH1 0x1 PUSH1 0xA0 SHL SUB NOT DUP4 AND OR SWAP1 SWAP3 SSTORE DUP2 AND PUSH1 0x0 DUP2 DUP2 MSTORE PUSH1 0x1B PUSH1 0x20 MSTORE PUSH1 0x40 DUP1 DUP3 KECCAK256 SLOAD PUSH1 0x19 SLOAD SWAP1 SWAP5 AND DUP3 MSTORE SWAP1 KECCAK256 SLOAD SWAP1 SWAP2 PUSH2 0xFDE SWAP2 PUSH2 0x3BCC JUMP JUMPDEST PUSH1 0x7 DUP1 SLOAD PUSH2 0x1E1F SWAP1 PUSH2 0x4272 JUMP JUMPDEST PUSH1 0x0 DUP1 MSTORE PUSH1 0x1D PUSH1 0x20 MSTORE PUSH1 0x0 DUP1 MLOAD PUSH1 0x20 PUSH2 0x4822 DUP4 CODECOPY DUP2 MLOAD SWAP2 MSTORE SLOAD PUSH1 0x1 PUSH1 0x1 PUSH1 0xA0 SHL SUB AND CALLER EQ DUP1 PUSH2 0x23F1 JUMPI POP PUSH1 0x3 SLOAD PUSH2 0x100 SWAP1 DIV PUSH1 0x1 PUSH1 0x1 PUSH1 0xA0 SHL SUB AND PUSH1 0x1 PUSH1 0x1 PUSH1 0xA0 SHL SUB AND CALLER PUSH1 0x1 PUSH1 0x1 PUSH1 0xA0 SHL SUB AND EQ JUMPDEST PUSH2 0x23FA JUMPI PUSH1 0x0 DUP1 REVERT JUMPDEST PUSH1 0xF SLOAD PUSH2 0x2409 PUSH1 0x11 SLOAD TIMESTAMP PUSH2 0x3359 JUMP JUMPDEST LT ISZERO PUSH2 0x2427 JUMPI PUSH1 0x40 MLOAD PUSH3 0x461BCD PUSH1 0xE5 SHL DUP2 MSTORE PUSH1 0x4 ADD PUSH2 0xC60 SWAP1 PUSH2 0x439D JUMP JUMPDEST PUSH1 0x1 PUSH1 0x1 PUSH1 0xA0 SHL SUB DUP2 AND PUSH1 0x0 SWAP1 DUP2 MSTORE PUSH1 0x1C PUSH1 0x20 MSTORE PUSH1 0x40 SWAP1 KECCAK256 SLOAD ISZERO PUSH2 0x248D JUMPI PUSH1 0x40 MLOAD PUSH3 0x461BCD PUSH1 0xE5 SHL DUP2 MSTORE PUSH1 0x20 PUSH1 0x4 DUP3 ADD DUP2 SWAP1 MSTORE PUSH1 0x24 DUP3 ADD MSTORE PUSH32 0x546869732061646472657373206861732061697264726F70207469636B657473 PUSH1 0x44 DUP3 ADD MSTORE PUSH1 0x64 ADD PUSH2 0xC60 JUMP JUMPDEST TIMESTAMP PUSH1 0x11 SSTORE PUSH1 0x1 PUSH1 0x1 PUSH1 0xA0 SHL SUB AND PUSH1 0x0 SWAP1 DUP2 MSTORE PUSH1 0x1C PUSH1 0x20 MSTORE PUSH1 0x40 SWAP1 KECCAK256 PUSH1 0x1 SWAP1 SSTORE JUMP JUMPDEST PUSH1 0x3 SLOAD PUSH1 0xFF AND ISZERO PUSH2 0x24D1 JUMPI PUSH1 0x40 MLOAD PUSH3 0x461BCD PUSH1 0xE5 SHL DUP2 MSTORE PUSH1 0x4 ADD PUSH2 0xC60 SWAP1 PUSH2 0x4313 JUMP JUMPDEST PUSH1 0xE SLOAD PUSH2 0x24E0 PUSH1 0x10 SLOAD TIMESTAMP PUSH2 0x3359 JUMP JUMPDEST LT ISZERO PUSH2 0x24FE JUMPI PUSH1 0x40 MLOAD PUSH3 0x461BCD PUSH1 0xE5 SHL DUP2 MSTORE PUSH1 0x4 ADD PUSH2 0xC60 SWAP1 PUSH2 0x439D JUMP JUMPDEST PUSH1 0xD SLOAD PUSH2 0x254D JUMPI PUSH1 0x40 MLOAD PUSH3 0x461BCD PUSH1 0xE5 SHL DUP2 MSTORE PUSH1 0x20 PUSH1 0x4 DUP3 ADD MSTORE PUSH1 0x1A PUSH1 0x24 DUP3 ADD MSTORE PUSH32 0x7468657265206973206E6F7420616E7920726567697374657273000000000000 PUSH1 0x44 DUP3 ADD MSTORE PUSH1 0x64 ADD PUSH2 0xC60 JUMP JUMPDEST PUSH1 0x0 PUSH2 0x255D PUSH1 0x15 SLOAD PUSH1 0x14 SLOAD PUSH2 0x3387 JUMP JUMPDEST SWAP1 POP PUSH32 0x41B48BB4A3FA87F36CD1B5550EF4AF0E4C2568EA37629540B9209F5509B4A42F DUP2 PUSH1 0x40 MLOAD PUSH2 0x2590 SWAP2 DUP2 MSTORE PUSH1 0x20 ADD SWAP1 JUMP JUMPDEST PUSH1 0x40 MLOAD DUP1 SWAP2 SUB SWAP1 LOG1 POP JUMP JUMPDEST PUSH1 0x3 SLOAD PUSH1 0xFF AND ISZERO PUSH2 0x25BE JUMPI PUSH1 0x40 MLOAD PUSH3 0x461BCD PUSH1 0xE5 SHL DUP2 MSTORE PUSH1 0x4 ADD PUSH2 0xC60 SWAP1 PUSH2 0x4313 JUMP JUMPDEST PUSH1 0x1 PUSH1 0x0 JUMPDEST PUSH1 0xD SLOAD DUP2 LT ISZERO PUSH2 0x261C JUMPI CALLER PUSH1 0x1 PUSH1 0x1 PUSH1 0xA0 SHL SUB AND PUSH1 0xD DUP3 DUP2 SLOAD DUP2 LT PUSH2 0x25EA JUMPI PUSH2 0x25EA PUSH2 0x42AD JUMP JUMPDEST PUSH1 0x0 SWAP2 DUP3 MSTORE PUSH1 0x20 SWAP1 SWAP2 KECCAK256 ADD SLOAD PUSH1 0x1 PUSH1 0x1 PUSH1 0xA0 SHL SUB AND EQ ISZERO PUSH2 0x260A JUMPI PUSH1 0x0 SWAP2 POP JUMPDEST DUP1 PUSH2 0x2614 DUP2 PUSH2 0x42C3 JUMP JUMPDEST SWAP2 POP POP PUSH2 0x25C3 JUMP JUMPDEST POP DUP1 PUSH2 0x2681 JUMPI PUSH1 0x40 MLOAD PUSH3 0x461BCD PUSH1 0xE5 SHL DUP2 MSTORE PUSH1 0x20 PUSH1 0x4 DUP3 ADD MSTORE PUSH1 0x2E PUSH1 0x24 DUP3 ADD MSTORE PUSH32 0x596F7520616C72656164792068617665206265656E2072656769737465726564 PUSH1 0x44 DUP3 ADD MSTORE PUSH14 0x20666F722074686973207765656B PUSH1 0x90 SHL PUSH1 0x64 DUP3 ADD MSTORE PUSH1 0x84 ADD PUSH2 0xC60 JUMP JUMPDEST PUSH1 0xD DUP1 SLOAD PUSH1 0x1 DUP2 ADD DUP3 SSTORE PUSH1 0x0 SWAP2 DUP3 MSTORE PUSH32 0xD7B6990105719101DABEB77144F2A3385C8033ACD3AF97E9423A695E81AD1EB5 ADD DUP1 SLOAD PUSH1 0x1 PUSH1 0x1 PUSH1 0xA0 SHL SUB NOT AND CALLER SWAP1 DUP2 OR SWAP1 SWAP2 SSTORE PUSH1 0x40 MLOAD SWAP1 SWAP2 PUSH32 0xE0E462347257E042FB3036336D3F35CE831166D31E2CEFC46D0D5046426D8175 SWAP2 LOG2 POP JUMP JUMPDEST PUSH1 0x1 PUSH1 0x1 PUSH1 0xA0 SHL SUB DUP6 AND CALLER EQ DUP1 PUSH2 0x270C JUMPI POP PUSH2 0x270C DUP6 CALLER PUSH2 0xB01 JUMP JUMPDEST PUSH2 0x276A JUMPI PUSH1 0x40 MLOAD PUSH3 0x461BCD PUSH1 0xE5 SHL DUP2 MSTORE PUSH1 0x20 PUSH1 0x4 DUP3 ADD MSTORE PUSH1 0x29 PUSH1 0x24 DUP3 ADD MSTORE PUSH32 0x455243313135353A2063616C6C6572206973206E6F74206F776E6572206E6F72 PUSH1 0x44 DUP3 ADD MSTORE PUSH9 0x8185C1C1C9BDD9959 PUSH1 0xBA SHL PUSH1 0x64 DUP3 ADD MSTORE PUSH1 0x84 ADD PUSH2 0xC60 JUMP JUMPDEST PUSH2 0x16FE DUP6 DUP6 DUP6 DUP6 DUP6 PUSH2 0x3503 JUMP JUMPDEST PUSH1 0x3 SLOAD PUSH1 0x1 PUSH1 0x1 PUSH1 0xA0 SHL SUB PUSH2 0x100 SWAP1 SWAP2 DIV AND CALLER EQ PUSH2 0x27A7 JUMPI PUSH1 0x40 MLOAD PUSH3 0x461BCD PUSH1 0xE5 SHL DUP2 MSTORE PUSH1 0x4 ADD PUSH2 0xC60 SWAP1 PUSH2 0x42DE JUMP JUMPDEST PUSH1 0x1 PUSH1 0x1 PUSH1 0xA0 SHL SUB DUP2 AND PUSH2 0x280C JUMPI PUSH1 0x40 MLOAD PUSH3 0x461BCD PUSH1 0xE5 SHL DUP2 MSTORE PUSH1 0x20 PUSH1 0x4 DUP3 ADD MSTORE PUSH1 0x26 PUSH1 0x24 DUP3 ADD MSTORE PUSH32 0x4F776E61626C653A206E6577206F776E657220697320746865207A65726F2061 PUSH1 0x44 DUP3 ADD MSTORE PUSH6 0x646472657373 PUSH1 0xD0 SHL PUSH1 0x64 DUP3 ADD MSTORE PUSH1 0x84 ADD PUSH2 0xC60 JUMP JUMPDEST PUSH2 0x2815 DUP2 PUSH2 0x308D JUMP JUMPDEST POP JUMP JUMPDEST PUSH1 0x3 SLOAD PUSH1 0x1 PUSH1 0x1 PUSH1 0xA0 SHL SUB PUSH2 0x100 SWAP1 SWAP2 DIV AND CALLER EQ PUSH2 0x2848 JUMPI PUSH1 0x40 MLOAD PUSH3 0x461BCD PUSH1 0xE5 SHL DUP2 MSTORE PUSH1 0x4 ADD PUSH2 0xC60 SWAP1 PUSH2 0x42DE JUMP JUMPDEST DUP1 ISZERO PUSH2 0x2892 JUMPI PUSH1 0x18 DUP1 SLOAD PUSH1 0x1 PUSH1 0x1 PUSH1 0xA0 SHL SUB DUP5 DUP2 AND PUSH1 0x1 PUSH1 0x1 PUSH1 0xA0 SHL SUB NOT DUP4 AND DUP2 OR SWAP1 SWAP4 SSTORE AND PUSH1 0x0 DUP2 DUP2 MSTORE PUSH1 0x1B PUSH1 0x20 MSTORE PUSH1 0x40 DUP1 DUP3 KECCAK256 DUP1 SLOAD SWAP5 DUP4 MSTORE SWAP1 DUP3 KECCAK256 SWAP4 SWAP1 SWAP4 SSTORE SWAP1 DUP2 MSTORE SWAP1 SSTORE POP POP JUMP JUMPDEST PUSH1 0x18 DUP1 SLOAD PUSH1 0x1 PUSH1 0x1 PUSH1 0xA0 SHL SUB DUP5 DUP2 AND PUSH1 0x1 PUSH1 0x1 PUSH1 0xA0 SHL SUB NOT DUP4 AND OR SWAP1 SWAP3 SSTORE DUP2 AND PUSH1 0x0 DUP2 DUP2 MSTORE PUSH1 0x1B PUSH1 0x20 MSTORE PUSH1 0x40 DUP1 DUP3 KECCAK256 SLOAD PUSH1 0x19 SLOAD SWAP1 SWAP5 AND DUP3 MSTORE SWAP1 KECCAK256 SLOAD SWAP1 SWAP2 PUSH2 0xFDE SWAP2 PUSH2 0x3BCC JUMP JUMPDEST PUSH1 0x0 DUP1 PUSH1 0x8 PUSH1 0x0 SWAP1 SLOAD SWAP1 PUSH2 0x100 EXP SWAP1 DIV PUSH1 0x1 PUSH1 0x1 PUSH1 0xA0 SHL SUB AND PUSH1 0x1 PUSH1 0x1 PUSH1 0xA0 SHL SUB AND PUSH4 0xFEAF968C PUSH1 0x40 MLOAD DUP2 PUSH4 0xFFFFFFFF AND PUSH1 0xE0 SHL DUP2 MSTORE PUSH1 0x4 ADD PUSH1 0xA0 PUSH1 0x40 MLOAD DUP1 DUP4 SUB DUP2 DUP7 GAS STATICCALL ISZERO DUP1 ISZERO PUSH2 0x292E JUMPI RETURNDATASIZE PUSH1 0x0 DUP1 RETURNDATACOPY RETURNDATASIZE PUSH1 0x0 REVERT JUMPDEST POP POP POP POP PUSH1 0x40 MLOAD RETURNDATASIZE PUSH1 0x1F NOT PUSH1 0x1F DUP3 ADD AND DUP3 ADD DUP1 PUSH1 0x40 MSTORE POP DUP2 ADD SWAP1 PUSH2 0x2952 SWAP2 SWAP1 PUSH2 0x43E7 JUMP JUMPDEST POP POP POP SWAP2 POP POP PUSH1 0x0 DUP2 PUSH5 0x2540BE400 PUSH2 0x296B SWAP2 SWAP1 PUSH2 0x4354 JUMP JUMPDEST SWAP1 POP DUP1 PUSH1 0xC SLOAD PUSH8 0xDE0B6B3A7640000 PUSH2 0x2984 SWAP2 SWAP1 PUSH2 0x4354 JUMP JUMPDEST PUSH2 0x298E SWAP2 SWAP1 PUSH2 0x4389 JUMP JUMPDEST SWAP3 POP POP POP SWAP1 JUMP JUMPDEST PUSH1 0x6 DUP1 SLOAD PUSH2 0x1E1F SWAP1 PUSH2 0x4272 JUMP JUMPDEST PUSH1 0x3 SLOAD PUSH1 0x1 PUSH1 0x1 PUSH1 0xA0 SHL SUB PUSH2 0x100 SWAP1 SWAP2 DIV AND CALLER EQ PUSH2 0x29D2 JUMPI PUSH1 0x40 MLOAD PUSH3 0x461BCD PUSH1 0xE5 SHL DUP2 MSTORE PUSH1 0x4 ADD PUSH2 0xC60 SWAP1 PUSH2 0x42DE JUMP JUMPDEST PUSH2 0x1043 PUSH2 0x3620 JUMP JUMPDEST PUSH1 0x0 PUSH3 0x15180 PUSH2 0x29EB DUP6 DUP6 DUP6 PUSH2 0x369A JUMP JUMPDEST PUSH2 0xCEE SWAP2 SWAP1 PUSH2 0x4354 JUMP JUMPDEST PUSH1 0x3 SLOAD PUSH1 0xFF AND ISZERO PUSH2 0x2A18 JUMPI PUSH1 0x40 MLOAD PUSH3 0x461BCD PUSH1 0xE5 SHL DUP2 MSTORE PUSH1 0x4 ADD PUSH2 0xC60 SWAP1 PUSH2 0x4313 JUMP JUMPDEST PUSH1 0x3 DUP1 SLOAD PUSH1 0xFF NOT AND PUSH1 0x1 OR SWAP1 SSTORE PUSH32 0x62E78CEA01BEE320CD4E420270B5EA74000D11B0C9F74754EBDBFC544B05A258 PUSH2 0x2A4D CALLER SWAP1 JUMP JUMPDEST PUSH1 0x40 MLOAD PUSH1 0x1 PUSH1 0x1 PUSH1 0xA0 SHL SUB SWAP1 SWAP2 AND DUP2 MSTORE PUSH1 0x20 ADD PUSH1 0x40 MLOAD DUP1 SWAP2 SUB SWAP1 LOG1 JUMP JUMPDEST PUSH1 0x0 PUSH2 0x2A77 PUSH1 0x4 DUP4 PUSH2 0x4437 JUMP JUMPDEST ISZERO DUP1 ISZERO PUSH2 0x2A8D JUMPI POP PUSH2 0x2A8A PUSH1 0x64 DUP4 PUSH2 0x4437 JUMP JUMPDEST ISZERO ISZERO JUMPDEST DUP1 PUSH2 0xCDB JUMPI POP PUSH2 0x2A9F PUSH2 0x190 DUP4 PUSH2 0x4437 JUMP JUMPDEST ISZERO SWAP3 SWAP2 POP POP JUMP JUMPDEST PUSH1 0x0 PUSH2 0x2AB3 PUSH1 0x5 DUP4 PUSH2 0x4389 JUMP JUMPDEST PUSH1 0x13 SLOAD SWAP1 SWAP2 POP PUSH1 0x5 LT ISZERO PUSH2 0x2BB7 JUMPI PUSH1 0x0 JUMPDEST PUSH1 0x5 DUP2 LT ISZERO PUSH2 0x2BB2 JUMPI PUSH1 0x13 DUP1 SLOAD PUSH1 0x0 SWAP2 DUP4 PUSH2 0x2AE0 PUSH1 0x1 DUP5 PUSH2 0x433D JUMP JUMPDEST PUSH2 0x2AEA SWAP2 SWAP1 PUSH2 0x433D JUMP JUMPDEST DUP2 SLOAD DUP2 LT PUSH2 0x2AFA JUMPI PUSH2 0x2AFA PUSH2 0x42AD JUMP JUMPDEST SWAP1 PUSH1 0x0 MSTORE PUSH1 0x20 PUSH1 0x0 KECCAK256 ADD SLOAD PUSH2 0x2B0F SWAP2 SWAP1 PUSH2 0x4437 JUMP JUMPDEST PUSH1 0x0 DUP2 DUP2 MSTORE PUSH1 0x1D PUSH1 0x20 SWAP1 DUP2 MSTORE PUSH1 0x40 DUP1 DUP4 KECCAK256 SLOAD PUSH1 0x1 PUSH1 0x1 PUSH1 0xA0 SHL SUB AND DUP4 MSTORE PUSH1 0x1B SWAP1 SWAP2 MSTORE SWAP1 KECCAK256 SLOAD SWAP1 SWAP2 POP PUSH2 0x2B42 SWAP1 DUP5 SWAP1 PUSH2 0x3BCC JUMP JUMPDEST PUSH1 0x0 DUP3 DUP2 MSTORE PUSH1 0x1D PUSH1 0x20 DUP2 DUP2 MSTORE PUSH1 0x40 DUP1 DUP5 KECCAK256 DUP1 SLOAD PUSH1 0x1 PUSH1 0x1 PUSH1 0xA0 SHL SUB SWAP1 DUP2 AND DUP7 MSTORE PUSH1 0x1B DUP5 MSTORE DUP3 DUP7 KECCAK256 SWAP7 SWAP1 SWAP7 SSTORE DUP7 DUP6 MSTORE SWAP3 SWAP1 SWAP2 MSTORE SWAP1 SLOAD SWAP1 MLOAD SWAP3 AND SWAP2 PUSH32 0xEC89F096AB194D04CC1A0689E9D8459793609DA7CCDDF64B4423E830B98743EC SWAP2 SWAP1 LOG2 POP DUP1 PUSH2 0x2BAA DUP2 PUSH2 0x42C3 JUMP JUMPDEST SWAP2 POP POP PUSH2 0x2AC4 JUMP JUMPDEST POP POP POP JUMP JUMPDEST PUSH1 0x19 SLOAD PUSH1 0x1 PUSH1 0x1 PUSH1 0xA0 SHL SUB AND PUSH1 0x0 SWAP1 DUP2 MSTORE PUSH1 0x1B PUSH1 0x20 MSTORE PUSH1 0x40 SWAP1 KECCAK256 SLOAD PUSH2 0x2BDD SWAP1 DUP4 SWAP1 PUSH2 0x3BCC JUMP JUMPDEST PUSH1 0x19 SLOAD PUSH1 0x1 PUSH1 0x1 PUSH1 0xA0 SHL SUB AND PUSH1 0x0 SWAP1 DUP2 MSTORE PUSH1 0x1B PUSH1 0x20 MSTORE PUSH1 0x40 SWAP1 KECCAK256 SSTORE POP POP JUMP JUMPDEST PUSH1 0x1 PUSH1 0x1 PUSH1 0xA0 SHL SUB DUP5 AND PUSH2 0x2C5C JUMPI PUSH1 0x40 MLOAD PUSH3 0x461BCD PUSH1 0xE5 SHL DUP2 MSTORE PUSH1 0x20 PUSH1 0x4 DUP3 ADD MSTORE PUSH1 0x21 PUSH1 0x24 DUP3 ADD MSTORE PUSH32 0x455243313135353A206D696E7420746F20746865207A65726F20616464726573 PUSH1 0x44 DUP3 ADD MSTORE PUSH1 0x73 PUSH1 0xF8 SHL PUSH1 0x64 DUP3 ADD MSTORE PUSH1 0x84 ADD PUSH2 0xC60 JUMP JUMPDEST CALLER PUSH2 0x2C7C DUP2 PUSH1 0x0 DUP8 PUSH2 0x2C6D DUP9 PUSH2 0x37D7 JUMP JUMPDEST PUSH2 0x2C76 DUP9 PUSH2 0x37D7 JUMP JUMPDEST DUP8 PUSH2 0x3822 JUMP JUMPDEST PUSH1 0x0 DUP5 DUP2 MSTORE PUSH1 0x20 DUP2 DUP2 MSTORE PUSH1 0x40 DUP1 DUP4 KECCAK256 PUSH1 0x1 PUSH1 0x1 PUSH1 0xA0 SHL SUB DUP10 AND DUP5 MSTORE SWAP1 SWAP2 MSTORE DUP2 KECCAK256 DUP1 SLOAD DUP6 SWAP3 SWAP1 PUSH2 0x2CAC SWAP1 DUP5 SWAP1 PUSH2 0x3BCC JUMP JUMPDEST SWAP1 SWAP2 SSTORE POP POP PUSH1 0x40 DUP1 MLOAD DUP6 DUP2 MSTORE PUSH1 0x20 DUP2 ADD DUP6 SWAP1 MSTORE PUSH1 0x1 PUSH1 0x1 PUSH1 0xA0 SHL SUB DUP1 DUP9 AND SWAP3 PUSH1 0x0 SWAP3 SWAP2 DUP6 AND SWAP2 PUSH32 0xC3D58168C5AE7397731D063D5BBF3D657854427343F4C083240F7AACAA2D0F62 SWAP2 ADD PUSH1 0x40 MLOAD DUP1 SWAP2 SUB SWAP1 LOG4 PUSH2 0x16FE DUP2 PUSH1 0x0 DUP8 DUP8 DUP8 DUP8 PUSH2 0x388A JUMP JUMPDEST PUSH1 0x13 SLOAD PUSH2 0x3E8 GT PUSH2 0x1043 JUMPI PUSH1 0x1E PUSH1 0xE SSTORE JUMP JUMPDEST PUSH10 0x152D02C7E14AF6800000 PUSH1 0xC SLOAD LT ISZERO PUSH2 0x1043 JUMPI PUSH1 0x13 SLOAD PUSH2 0x2D42 SWAP1 PUSH2 0x5B4 SWAP1 PUSH2 0x4437 JUMP JUMPDEST PUSH2 0x2D58 JUMPI PUSH1 0xA SLOAD PUSH2 0x2D54 SWAP1 PUSH1 0x2 PUSH2 0x4354 JUMP JUMPDEST PUSH1 0xA SSTORE JUMPDEST PUSH1 0x13 SLOAD PUSH2 0x2D68 SWAP1 PUSH2 0x16D SWAP1 PUSH2 0x4437 JUMP JUMPDEST PUSH2 0x2D80 JUMPI PUSH1 0xA SLOAD PUSH1 0xC SLOAD PUSH2 0x2D7C SWAP2 SWAP1 PUSH2 0x3BCC JUMP JUMPDEST PUSH1 0xC SSTORE JUMPDEST PUSH10 0x152D02C7E14AF6800000 PUSH1 0xC SLOAD GT ISZERO PUSH2 0x1043 JUMPI PUSH10 0x152D02C7E14AF6800000 PUSH1 0xC SSTORE JUMP JUMPDEST DUP2 MLOAD DUP4 MLOAD EQ PUSH2 0x2E06 JUMPI PUSH1 0x40 MLOAD PUSH3 0x461BCD PUSH1 0xE5 SHL DUP2 MSTORE PUSH1 0x20 PUSH1 0x4 DUP3 ADD MSTORE PUSH1 0x28 PUSH1 0x24 DUP3 ADD MSTORE PUSH32 0x455243313135353A2069647320616E6420616D6F756E7473206C656E67746820 PUSH1 0x44 DUP3 ADD MSTORE PUSH8 0xDAD2E6DAC2E8C6D PUSH1 0xC3 SHL PUSH1 0x64 DUP3 ADD MSTORE PUSH1 0x84 ADD PUSH2 0xC60 JUMP JUMPDEST PUSH1 0x1 PUSH1 0x1 PUSH1 0xA0 SHL SUB DUP5 AND PUSH2 0x2E2C JUMPI PUSH1 0x40 MLOAD PUSH3 0x461BCD PUSH1 0xE5 SHL DUP2 MSTORE PUSH1 0x4 ADD PUSH2 0xC60 SWAP1 PUSH2 0x444B JUMP JUMPDEST CALLER PUSH2 0x2E3B DUP2 DUP8 DUP8 DUP8 DUP8 DUP8 PUSH2 0x3822 JUMP JUMPDEST PUSH1 0x0 JUMPDEST DUP5 MLOAD DUP2 LT ISZERO PUSH2 0x2F21 JUMPI PUSH1 0x0 DUP6 DUP3 DUP2 MLOAD DUP2 LT PUSH2 0x2E5B JUMPI PUSH2 0x2E5B PUSH2 0x42AD JUMP JUMPDEST PUSH1 0x20 MUL PUSH1 0x20 ADD ADD MLOAD SWAP1 POP PUSH1 0x0 DUP6 DUP4 DUP2 MLOAD DUP2 LT PUSH2 0x2E79 JUMPI PUSH2 0x2E79 PUSH2 0x42AD JUMP JUMPDEST PUSH1 0x20 SWAP1 DUP2 MUL SWAP2 SWAP1 SWAP2 ADD DUP2 ADD MLOAD PUSH1 0x0 DUP5 DUP2 MSTORE DUP1 DUP4 MSTORE PUSH1 0x40 DUP1 DUP3 KECCAK256 PUSH1 0x1 PUSH1 0x1 PUSH1 0xA0 SHL SUB DUP15 AND DUP4 MSTORE SWAP1 SWAP4 MSTORE SWAP2 SWAP1 SWAP2 KECCAK256 SLOAD SWAP1 SWAP2 POP DUP2 DUP2 LT ISZERO PUSH2 0x2EC9 JUMPI PUSH1 0x40 MLOAD PUSH3 0x461BCD PUSH1 0xE5 SHL DUP2 MSTORE PUSH1 0x4 ADD PUSH2 0xC60 SWAP1 PUSH2 0x4490 JUMP JUMPDEST PUSH1 0x0 DUP4 DUP2 MSTORE PUSH1 0x20 DUP2 DUP2 MSTORE PUSH1 0x40 DUP1 DUP4 KECCAK256 PUSH1 0x1 PUSH1 0x1 PUSH1 0xA0 SHL SUB DUP15 DUP2 AND DUP6 MSTORE SWAP3 MSTORE DUP1 DUP4 KECCAK256 DUP6 DUP6 SUB SWAP1 SSTORE SWAP1 DUP12 AND DUP3 MSTORE DUP2 KECCAK256 DUP1 SLOAD DUP5 SWAP3 SWAP1 PUSH2 0x2F06 SWAP1 DUP5 SWAP1 PUSH2 0x3BCC JUMP JUMPDEST SWAP3 POP POP DUP2 SWAP1 SSTORE POP POP POP POP DUP1 PUSH2 0x2F1A SWAP1 PUSH2 0x42C3 JUMP JUMPDEST SWAP1 POP PUSH2 0x2E3E JUMP JUMPDEST POP DUP5 PUSH1 0x1 PUSH1 0x1 PUSH1 0xA0 SHL SUB AND DUP7 PUSH1 0x1 PUSH1 0x1 PUSH1 0xA0 SHL SUB AND DUP3 PUSH1 0x1 PUSH1 0x1 PUSH1 0xA0 SHL SUB AND PUSH32 0x4A39DC06D4C0DBC64B70AF90FD698A233A518AA5D07E595D983B8C0526C8F7FB DUP8 DUP8 PUSH1 0x40 MLOAD PUSH2 0x2F71 SWAP3 SWAP2 SWAP1 PUSH2 0x44DA JUMP JUMPDEST PUSH1 0x40 MLOAD DUP1 SWAP2 SUB SWAP1 LOG4 PUSH2 0x2F87 DUP2 DUP8 DUP8 DUP8 DUP8 DUP8 PUSH2 0x39E6 JUMP JUMPDEST POP POP POP POP POP POP JUMP JUMPDEST PUSH1 0x60 DUP2 PUSH2 0x2FB3 JUMPI POP POP PUSH1 0x40 DUP1 MLOAD DUP1 DUP3 ADD SWAP1 SWAP2 MSTORE PUSH1 0x1 DUP2 MSTORE PUSH1 0x3 PUSH1 0xFC SHL PUSH1 0x20 DUP3 ADD MSTORE SWAP1 JUMP JUMPDEST DUP2 PUSH1 0x0 JUMPDEST DUP2 ISZERO PUSH2 0x2FDD JUMPI DUP1 PUSH2 0x2FC7 DUP2 PUSH2 0x42C3 JUMP JUMPDEST SWAP2 POP PUSH2 0x2FD6 SWAP1 POP PUSH1 0xA DUP4 PUSH2 0x4389 JUMP JUMPDEST SWAP2 POP PUSH2 0x2FB7 JUMP JUMPDEST PUSH1 0x0 DUP2 PUSH8 0xFFFFFFFFFFFFFFFF DUP2 GT ISZERO PUSH2 0x2FF8 JUMPI PUSH2 0x2FF8 PUSH2 0x3DC8 JUMP JUMPDEST PUSH1 0x40 MLOAD SWAP1 DUP1 DUP3 MSTORE DUP1 PUSH1 0x1F ADD PUSH1 0x1F NOT AND PUSH1 0x20 ADD DUP3 ADD PUSH1 0x40 MSTORE DUP1 ISZERO PUSH2 0x3022 JUMPI PUSH1 0x20 DUP3 ADD DUP2 DUP1 CALLDATASIZE DUP4 CALLDATACOPY ADD SWAP1 POP JUMPDEST POP SWAP1 POP JUMPDEST DUP5 ISZERO PUSH2 0xCEE JUMPI PUSH2 0x3037 PUSH1 0x1 DUP4 PUSH2 0x433D JUMP JUMPDEST SWAP2 POP PUSH2 0x3044 PUSH1 0xA DUP7 PUSH2 0x4437 JUMP JUMPDEST PUSH2 0x304F SWAP1 PUSH1 0x30 PUSH2 0x3BCC JUMP JUMPDEST PUSH1 0xF8 SHL DUP2 DUP4 DUP2 MLOAD DUP2 LT PUSH2 0x3064 JUMPI PUSH2 0x3064 PUSH2 0x42AD JUMP JUMPDEST PUSH1 0x20 ADD ADD SWAP1 PUSH1 0x1 PUSH1 0x1 PUSH1 0xF8 SHL SUB NOT AND SWAP1 DUP2 PUSH1 0x0 BYTE SWAP1 MSTORE8 POP PUSH2 0x3086 PUSH1 0xA DUP7 PUSH2 0x4389 JUMP JUMPDEST SWAP5 POP PUSH2 0x3026 JUMP JUMPDEST PUSH1 0x3 DUP1 SLOAD PUSH1 0x1 PUSH1 0x1 PUSH1 0xA0 SHL SUB DUP4 DUP2 AND PUSH2 0x100 DUP2 DUP2 MUL PUSH2 0x100 PUSH1 0x1 PUSH1 0xA8 SHL SUB NOT DUP6 AND OR SWAP1 SWAP5 SSTORE PUSH1 0x40 MLOAD SWAP4 SWAP1 SWAP3 DIV AND SWAP2 DUP3 SWAP1 PUSH32 0x8BE0079C531659141344CD1FD0A4F28419497F9722A3DAAFE3B4186F6B6457E0 SWAP1 PUSH1 0x0 SWAP1 LOG3 POP POP JUMP JUMPDEST PUSH1 0x0 DUP2 GT PUSH2 0x3137 JUMPI PUSH1 0x40 MLOAD PUSH3 0x461BCD PUSH1 0xE5 SHL DUP2 MSTORE PUSH1 0x20 PUSH1 0x4 DUP3 ADD MSTORE PUSH1 0x1A PUSH1 0x24 DUP3 ADD MSTORE PUSH32 0x72616E646F6D206E756D626572206973206E6F742076616C6964000000000000 PUSH1 0x44 DUP3 ADD MSTORE PUSH1 0x64 ADD PUSH2 0xC60 JUMP JUMPDEST PUSH1 0xE SLOAD PUSH2 0x3146 PUSH1 0x10 SLOAD TIMESTAMP PUSH2 0x3359 JUMP JUMPDEST LT ISZERO PUSH2 0x3164 JUMPI PUSH1 0x40 MLOAD PUSH3 0x461BCD PUSH1 0xE5 SHL DUP2 MSTORE PUSH1 0x4 ADD PUSH2 0xC60 SWAP1 PUSH2 0x439D JUMP JUMPDEST TIMESTAMP PUSH1 0x10 SSTORE PUSH1 0xD SLOAD PUSH1 0x0 SWAP1 PUSH2 0x3178 SWAP1 DUP4 PUSH2 0x4437 JUMP JUMPDEST SWAP1 POP PUSH1 0x1C PUSH1 0x0 PUSH1 0xD DUP4 DUP2 SLOAD DUP2 LT PUSH2 0x3191 JUMPI PUSH2 0x3191 PUSH2 0x42AD JUMP JUMPDEST PUSH1 0x0 SWAP2 DUP3 MSTORE PUSH1 0x20 DUP1 DUP4 KECCAK256 SWAP1 SWAP2 ADD SLOAD PUSH1 0x1 PUSH1 0x1 PUSH1 0xA0 SHL SUB AND DUP4 MSTORE DUP3 ADD SWAP3 SWAP1 SWAP3 MSTORE PUSH1 0x40 ADD SWAP1 KECCAK256 SLOAD PUSH2 0x31C1 SWAP1 PUSH1 0x1 PUSH2 0x3BCC JUMP JUMPDEST PUSH1 0x1C PUSH1 0x0 PUSH1 0xD DUP5 DUP2 SLOAD DUP2 LT PUSH2 0x31D8 JUMPI PUSH2 0x31D8 PUSH2 0x42AD JUMP JUMPDEST PUSH1 0x0 SWAP2 DUP3 MSTORE PUSH1 0x20 DUP1 DUP4 KECCAK256 SWAP1 SWAP2 ADD SLOAD PUSH1 0x1 PUSH1 0x1 PUSH1 0xA0 SHL SUB AND DUP4 MSTORE DUP3 ADD SWAP3 SWAP1 SWAP3 MSTORE PUSH1 0x40 ADD SWAP1 KECCAK256 SSTORE PUSH1 0xD DUP1 SLOAD DUP3 SWAP1 DUP2 LT PUSH2 0x3211 JUMPI PUSH2 0x3211 PUSH2 0x42AD JUMP JUMPDEST PUSH1 0x0 SWAP2 DUP3 MSTORE PUSH1 0x20 SWAP2 DUP3 SWAP1 KECCAK256 ADD SLOAD PUSH1 0x40 MLOAD DUP5 DUP2 MSTORE PUSH1 0x1 PUSH1 0x1 PUSH1 0xA0 SHL SUB SWAP1 SWAP2 AND SWAP2 PUSH32 0xF101ADF3FBAF187819A99E49DD82FDBACC051E51337A2FE291907F90C263C1E2 SWAP2 ADD PUSH1 0x40 MLOAD DUP1 SWAP2 SUB SWAP1 LOG2 PUSH1 0x40 DUP1 MLOAD PUSH1 0x0 DUP2 MSTORE PUSH1 0x20 DUP2 ADD SWAP2 DUP3 SWAP1 MSTORE MLOAD PUSH2 0x214A SWAP2 PUSH1 0xD SWAP2 PUSH2 0x3B4C JUMP JUMPDEST DUP2 PUSH1 0x1 PUSH1 0x1 PUSH1 0xA0 SHL SUB AND DUP4 PUSH1 0x1 PUSH1 0x1 PUSH1 0xA0 SHL SUB AND EQ ISZERO PUSH2 0x32EC JUMPI PUSH1 0x40 MLOAD PUSH3 0x461BCD PUSH1 0xE5 SHL DUP2 MSTORE PUSH1 0x20 PUSH1 0x4 DUP3 ADD MSTORE PUSH1 0x29 PUSH1 0x24 DUP3 ADD MSTORE PUSH32 0x455243313135353A2073657474696E6720617070726F76616C20737461747573 PUSH1 0x44 DUP3 ADD MSTORE PUSH9 0x103337B91039B2B633 PUSH1 0xB9 SHL PUSH1 0x64 DUP3 ADD MSTORE PUSH1 0x84 ADD PUSH2 0xC60 JUMP JUMPDEST PUSH1 0x1 PUSH1 0x1 PUSH1 0xA0 SHL SUB DUP4 DUP2 AND PUSH1 0x0 DUP2 DUP2 MSTORE PUSH1 0x1 PUSH1 0x20 SWAP1 DUP2 MSTORE PUSH1 0x40 DUP1 DUP4 KECCAK256 SWAP5 DUP8 AND DUP1 DUP5 MSTORE SWAP5 DUP3 MSTORE SWAP2 DUP3 SWAP1 KECCAK256 DUP1 SLOAD PUSH1 0xFF NOT AND DUP7 ISZERO ISZERO SWAP1 DUP2 OR SWAP1 SWAP2 SSTORE SWAP2 MLOAD SWAP2 DUP3 MSTORE PUSH32 0x17307EAB39AB6107E8899845AD3D59BD9653F200F220920489CA2B5937696C31 SWAP2 ADD PUSH1 0x40 MLOAD DUP1 SWAP2 SUB SWAP1 LOG3 POP POP POP JUMP JUMPDEST PUSH1 0x0 DUP2 DUP4 GT ISZERO PUSH2 0x3368 JUMPI PUSH1 0x0 DUP1 REVERT JUMPDEST PUSH3 0x15180 PUSH2 0x3376 DUP5 DUP5 PUSH2 0x433D JUMP JUMPDEST PUSH2 0x3380 SWAP2 SWAP1 PUSH2 0x4389 JUMP JUMPDEST SWAP4 SWAP3 POP POP POP JUMP JUMPDEST PUSH1 0x0 PUSH32 0x0 PUSH1 0x1 PUSH1 0x1 PUSH1 0xA0 SHL SUB AND PUSH4 0x4000AEA0 PUSH32 0x0 DUP5 DUP7 PUSH1 0x0 PUSH1 0x40 MLOAD PUSH1 0x20 ADD PUSH2 0x33F7 SWAP3 SWAP2 SWAP1 SWAP2 DUP3 MSTORE PUSH1 0x20 DUP3 ADD MSTORE PUSH1 0x40 ADD SWAP1 JUMP JUMPDEST PUSH1 0x40 MLOAD PUSH1 0x20 DUP2 DUP4 SUB SUB DUP2 MSTORE SWAP1 PUSH1 0x40 MSTORE PUSH1 0x40 MLOAD DUP5 PUSH4 0xFFFFFFFF AND PUSH1 0xE0 SHL DUP2 MSTORE PUSH1 0x4 ADD PUSH2 0x3424 SWAP4 SWAP3 SWAP2 SWAP1 PUSH2 0x4508 JUMP JUMPDEST PUSH1 0x20 PUSH1 0x40 MLOAD DUP1 DUP4 SUB DUP2 PUSH1 0x0 DUP8 GAS CALL ISZERO DUP1 ISZERO PUSH2 0x3443 JUMPI RETURNDATASIZE PUSH1 0x0 DUP1 RETURNDATACOPY RETURNDATASIZE PUSH1 0x0 REVERT JUMPDEST POP POP POP POP PUSH1 0x40 MLOAD RETURNDATASIZE PUSH1 0x1F NOT PUSH1 0x1F DUP3 ADD AND DUP3 ADD DUP1 PUSH1 0x40 MSTORE POP DUP2 ADD SWAP1 PUSH2 0x3467 SWAP2 SWAP1 PUSH2 0x452F JUMP JUMPDEST POP PUSH1 0x0 DUP4 DUP2 MSTORE PUSH1 0x4 PUSH1 0x20 DUP2 DUP2 MSTORE PUSH1 0x40 DUP1 DUP5 KECCAK256 SLOAD DUP2 MLOAD DUP1 DUP5 ADD DUP10 SWAP1 MSTORE DUP1 DUP4 ADD DUP7 SWAP1 MSTORE ADDRESS PUSH1 0x60 DUP3 ADD MSTORE PUSH1 0x80 DUP1 DUP3 ADD DUP4 SWAP1 MSTORE DUP4 MLOAD DUP1 DUP4 SUB SWAP1 SWAP2 ADD DUP2 MSTORE PUSH1 0xA0 SWAP1 SWAP2 ADD SWAP1 SWAP3 MSTORE DUP2 MLOAD SWAP2 DUP4 ADD SWAP2 SWAP1 SWAP2 KECCAK256 SWAP4 DUP8 SWAP1 MSTORE SWAP2 SWAP1 MSTORE PUSH2 0x34C3 SWAP1 PUSH1 0x1 PUSH2 0x3BCC JUMP JUMPDEST PUSH1 0x0 DUP6 DUP2 MSTORE PUSH1 0x4 PUSH1 0x20 MSTORE PUSH1 0x40 SWAP1 KECCAK256 SSTORE PUSH2 0xCEE DUP5 DUP3 PUSH1 0x40 DUP1 MLOAD PUSH1 0x20 DUP1 DUP3 ADD SWAP5 SWAP1 SWAP5 MSTORE DUP1 DUP3 ADD SWAP3 SWAP1 SWAP3 MSTORE DUP1 MLOAD DUP1 DUP4 SUB DUP3 ADD DUP2 MSTORE PUSH1 0x60 SWAP1 SWAP3 ADD SWAP1 MSTORE DUP1 MLOAD SWAP2 ADD KECCAK256 SWAP1 JUMP JUMPDEST PUSH1 0x1 PUSH1 0x1 PUSH1 0xA0 SHL SUB DUP5 AND PUSH2 0x3529 JUMPI PUSH1 0x40 MLOAD PUSH3 0x461BCD PUSH1 0xE5 SHL DUP2 MSTORE PUSH1 0x4 ADD PUSH2 0xC60 SWAP1 PUSH2 0x444B JUMP JUMPDEST CALLER PUSH2 0x3539 DUP2 DUP8 DUP8 PUSH2 0x2C6D DUP9 PUSH2 0x37D7 JUMP JUMPDEST PUSH1 0x0 DUP5 DUP2 MSTORE PUSH1 0x20 DUP2 DUP2 MSTORE PUSH1 0x40 DUP1 DUP4 KECCAK256 PUSH1 0x1 PUSH1 0x1 PUSH1 0xA0 SHL SUB DUP11 AND DUP5 MSTORE SWAP1 SWAP2 MSTORE SWAP1 KECCAK256 SLOAD DUP4 DUP2 LT ISZERO PUSH2 0x357A JUMPI PUSH1 0x40 MLOAD PUSH3 0x461BCD PUSH1 0xE5 SHL DUP2 MSTORE PUSH1 0x4 ADD PUSH2 0xC60 SWAP1 PUSH2 0x4490 JUMP JUMPDEST PUSH1 0x0 DUP6 DUP2 MSTORE PUSH1 0x20 DUP2 DUP2 MSTORE PUSH1 0x40 DUP1 DUP4 KECCAK256 PUSH1 0x1 PUSH1 0x1 PUSH1 0xA0 SHL SUB DUP12 DUP2 AND DUP6 MSTORE SWAP3 MSTORE DUP1 DUP4 KECCAK256 DUP8 DUP6 SUB SWAP1 SSTORE SWAP1 DUP9 AND DUP3 MSTORE DUP2 KECCAK256 DUP1 SLOAD DUP7 SWAP3 SWAP1 PUSH2 0x35B7 SWAP1 DUP5 SWAP1 PUSH2 0x3BCC JUMP JUMPDEST SWAP1 SWAP2 SSTORE POP POP PUSH1 0x40 DUP1 MLOAD DUP7 DUP2 MSTORE PUSH1 0x20 DUP2 ADD DUP7 SWAP1 MSTORE PUSH1 0x1 PUSH1 0x1 PUSH1 0xA0 SHL SUB DUP1 DUP10 AND SWAP3 DUP11 DUP3 AND SWAP3 SWAP2 DUP7 AND SWAP2 PUSH32 0xC3D58168C5AE7397731D063D5BBF3D657854427343F4C083240F7AACAA2D0F62 SWAP2 ADD PUSH1 0x40 MLOAD DUP1 SWAP2 SUB SWAP1 LOG4 PUSH2 0x3617 DUP3 DUP9 DUP9 DUP9 DUP9 DUP9 PUSH2 0x388A JUMP JUMPDEST POP POP POP POP POP POP POP JUMP JUMPDEST PUSH1 0x3 SLOAD PUSH1 0xFF AND PUSH2 0x3669 JUMPI PUSH1 0x40 MLOAD PUSH3 0x461BCD PUSH1 0xE5 SHL DUP2 MSTORE PUSH1 0x20 PUSH1 0x4 DUP3 ADD MSTORE PUSH1 0x14 PUSH1 0x24 DUP3 ADD MSTORE PUSH20 0x14185D5CD8589B194E881B9BDD081C185D5CD959 PUSH1 0x62 SHL PUSH1 0x44 DUP3 ADD MSTORE PUSH1 0x64 ADD PUSH2 0xC60 JUMP JUMPDEST PUSH1 0x3 DUP1 SLOAD PUSH1 0xFF NOT AND SWAP1 SSTORE PUSH32 0x5DB9EE0A495BF2E6FF9C91A7834C1BA4FDD244A5E8AA4E537BD38AEAE4B073AA CALLER PUSH2 0x2A4D JUMP JUMPDEST PUSH1 0x0 PUSH2 0x7B2 DUP5 LT ISZERO PUSH2 0x36AB JUMPI PUSH1 0x0 DUP1 REVERT JUMPDEST DUP4 DUP4 DUP4 PUSH1 0x0 PUSH3 0x253D8C PUSH1 0x4 PUSH1 0x64 PUSH1 0xC PUSH2 0x36C5 PUSH1 0xE DUP9 PUSH2 0x454C JUMP JUMPDEST PUSH2 0x36CF SWAP2 SWAP1 PUSH2 0x458B JUMP JUMPDEST PUSH2 0x36DB DUP9 PUSH2 0x1324 PUSH2 0x45B9 JUMP JUMPDEST PUSH2 0x36E5 SWAP2 SWAP1 PUSH2 0x45B9 JUMP JUMPDEST PUSH2 0x36EF SWAP2 SWAP1 PUSH2 0x458B JUMP JUMPDEST PUSH2 0x36FA SWAP1 PUSH1 0x3 PUSH2 0x45FA JUMP JUMPDEST PUSH2 0x3704 SWAP2 SWAP1 PUSH2 0x458B JUMP JUMPDEST PUSH1 0xC DUP1 PUSH2 0x3712 PUSH1 0xE DUP9 PUSH2 0x454C JUMP JUMPDEST PUSH2 0x371C SWAP2 SWAP1 PUSH2 0x458B JUMP JUMPDEST PUSH2 0x3727 SWAP1 PUSH1 0xC PUSH2 0x45FA JUMP JUMPDEST PUSH2 0x3732 PUSH1 0x2 DUP9 PUSH2 0x454C JUMP JUMPDEST PUSH2 0x373C SWAP2 SWAP1 PUSH2 0x454C JUMP JUMPDEST PUSH2 0x3748 SWAP1 PUSH2 0x16F PUSH2 0x45FA JUMP JUMPDEST PUSH2 0x3752 SWAP2 SWAP1 PUSH2 0x458B JUMP JUMPDEST PUSH1 0x4 PUSH1 0xC PUSH2 0x3761 PUSH1 0xE DUP10 PUSH2 0x454C JUMP JUMPDEST PUSH2 0x376B SWAP2 SWAP1 PUSH2 0x458B JUMP JUMPDEST PUSH2 0x3777 DUP10 PUSH2 0x12C0 PUSH2 0x45B9 JUMP JUMPDEST PUSH2 0x3781 SWAP2 SWAP1 PUSH2 0x45B9 JUMP JUMPDEST PUSH2 0x378D SWAP1 PUSH2 0x5B5 PUSH2 0x45FA JUMP JUMPDEST PUSH2 0x3797 SWAP2 SWAP1 PUSH2 0x458B JUMP JUMPDEST PUSH2 0x37A3 PUSH2 0x7D4B DUP8 PUSH2 0x454C JUMP JUMPDEST PUSH2 0x37AD SWAP2 SWAP1 PUSH2 0x45B9 JUMP JUMPDEST PUSH2 0x37B7 SWAP2 SWAP1 PUSH2 0x45B9 JUMP JUMPDEST PUSH2 0x37C1 SWAP2 SWAP1 PUSH2 0x454C JUMP JUMPDEST PUSH2 0x37CB SWAP2 SWAP1 PUSH2 0x454C JUMP JUMPDEST SWAP9 SWAP8 POP POP POP POP POP POP POP POP JUMP JUMPDEST PUSH1 0x40 DUP1 MLOAD PUSH1 0x1 DUP1 DUP3 MSTORE DUP2 DUP4 ADD SWAP1 SWAP3 MSTORE PUSH1 0x60 SWAP2 PUSH1 0x0 SWAP2 SWAP1 PUSH1 0x20 DUP1 DUP4 ADD SWAP1 DUP1 CALLDATASIZE DUP4 CALLDATACOPY ADD SWAP1 POP POP SWAP1 POP DUP3 DUP2 PUSH1 0x0 DUP2 MLOAD DUP2 LT PUSH2 0x3811 JUMPI PUSH2 0x3811 PUSH2 0x42AD JUMP JUMPDEST PUSH1 0x20 SWAP1 DUP2 MUL SWAP2 SWAP1 SWAP2 ADD ADD MSTORE SWAP3 SWAP2 POP POP JUMP JUMPDEST PUSH1 0x3 SLOAD PUSH1 0xFF AND ISZERO PUSH2 0x2F87 JUMPI PUSH1 0x40 MLOAD PUSH3 0x461BCD PUSH1 0xE5 SHL DUP2 MSTORE PUSH1 0x20 PUSH1 0x4 DUP3 ADD MSTORE PUSH1 0x2C PUSH1 0x24 DUP3 ADD MSTORE PUSH32 0x455243313135355061757361626C653A20746F6B656E207472616E7366657220 PUSH1 0x44 DUP3 ADD MSTORE PUSH12 0x1DDA1A5B19481C185D5CD959 PUSH1 0xA2 SHL PUSH1 0x64 DUP3 ADD MSTORE PUSH1 0x84 ADD PUSH2 0xC60 JUMP JUMPDEST PUSH1 0x1 PUSH1 0x1 PUSH1 0xA0 SHL SUB DUP5 AND EXTCODESIZE ISZERO PUSH2 0x2F87 JUMPI PUSH1 0x40 MLOAD PUSH4 0xF23A6E61 PUSH1 0xE0 SHL DUP2 MSTORE PUSH1 0x1 PUSH1 0x1 PUSH1 0xA0 SHL SUB DUP6 AND SWAP1 PUSH4 0xF23A6E61 SWAP1 PUSH2 0x38CE SWAP1 DUP10 SWAP1 DUP10 SWAP1 DUP9 SWAP1 DUP9 SWAP1 DUP9 SWAP1 PUSH1 0x4 ADD PUSH2 0x467F JUMP JUMPDEST PUSH1 0x20 PUSH1 0x40 MLOAD DUP1 DUP4 SUB DUP2 PUSH1 0x0 DUP8 GAS CALL SWAP3 POP POP POP DUP1 ISZERO PUSH2 0x3909 JUMPI POP PUSH1 0x40 DUP1 MLOAD PUSH1 0x1F RETURNDATASIZE SWAP1 DUP2 ADD PUSH1 0x1F NOT AND DUP3 ADD SWAP1 SWAP3 MSTORE PUSH2 0x3906 SWAP2 DUP2 ADD SWAP1 PUSH2 0x46C4 JUMP JUMPDEST PUSH1 0x1 JUMPDEST PUSH2 0x39B6 JUMPI PUSH2 0x3915 PUSH2 0x46E1 JUMP JUMPDEST DUP1 PUSH4 0x8C379A0 EQ ISZERO PUSH2 0x394F JUMPI POP PUSH2 0x392A PUSH2 0x46FD JUMP JUMPDEST DUP1 PUSH2 0x3935 JUMPI POP PUSH2 0x3951 JUMP JUMPDEST DUP1 PUSH1 0x40 MLOAD PUSH3 0x461BCD PUSH1 0xE5 SHL DUP2 MSTORE PUSH1 0x4 ADD PUSH2 0xC60 SWAP2 SWAP1 PUSH2 0x3CEA JUMP JUMPDEST POP JUMPDEST PUSH1 0x40 MLOAD PUSH3 0x461BCD PUSH1 0xE5 SHL DUP2 MSTORE PUSH1 0x20 PUSH1 0x4 DUP3 ADD MSTORE PUSH1 0x34 PUSH1 0x24 DUP3 ADD MSTORE PUSH32 0x455243313135353A207472616E7366657220746F206E6F6E2045524331313535 PUSH1 0x44 DUP3 ADD MSTORE PUSH20 0x2932B1B2B4BB32B91034B6B83632B6B2B73A32B9 PUSH1 0x61 SHL PUSH1 0x64 DUP3 ADD MSTORE PUSH1 0x84 ADD PUSH2 0xC60 JUMP JUMPDEST PUSH1 0x1 PUSH1 0x1 PUSH1 0xE0 SHL SUB NOT DUP2 AND PUSH4 0xF23A6E61 PUSH1 0xE0 SHL EQ PUSH2 0x3617 JUMPI PUSH1 0x40 MLOAD PUSH3 0x461BCD PUSH1 0xE5 SHL DUP2 MSTORE PUSH1 0x4 ADD PUSH2 0xC60 SWAP1 PUSH2 0x4787 JUMP JUMPDEST PUSH1 0x1 PUSH1 0x1 PUSH1 0xA0 SHL SUB DUP5 AND EXTCODESIZE ISZERO PUSH2 0x2F87 JUMPI PUSH1 0x40 MLOAD PUSH4 0xBC197C81 PUSH1 0xE0 SHL DUP2 MSTORE PUSH1 0x1 PUSH1 0x1 PUSH1 0xA0 SHL SUB DUP6 AND SWAP1 PUSH4 0xBC197C81 SWAP1 PUSH2 0x3A2A SWAP1 DUP10 SWAP1 DUP10 SWAP1 DUP9 SWAP1 DUP9 SWAP1 DUP9 SWAP1 PUSH1 0x4 ADD PUSH2 0x47CF JUMP JUMPDEST PUSH1 0x20 PUSH1 0x40 MLOAD DUP1 DUP4 SUB DUP2 PUSH1 0x0 DUP8 GAS CALL SWAP3 POP POP POP DUP1 ISZERO PUSH2 0x3A65 JUMPI POP PUSH1 0x40 DUP1 MLOAD PUSH1 0x1F RETURNDATASIZE SWAP1 DUP2 ADD PUSH1 0x1F NOT AND DUP3 ADD SWAP1 SWAP3 MSTORE PUSH2 0x3A62 SWAP2 DUP2 ADD SWAP1 PUSH2 0x46C4 JUMP JUMPDEST PUSH1 0x1 JUMPDEST PUSH2 0x3A71 JUMPI PUSH2 0x3915 PUSH2 0x46E1 JUMP JUMPDEST PUSH1 0x1 PUSH1 0x1 PUSH1 0xE0 SHL SUB NOT DUP2 AND PUSH4 0xBC197C81 PUSH1 0xE0 SHL EQ PUSH2 0x3617 JUMPI PUSH1 0x40 MLOAD PUSH3 0x461BCD PUSH1 0xE5 SHL DUP2 MSTORE PUSH1 0x4 ADD PUSH2 0xC60 SWAP1 PUSH2 0x4787 JUMP JUMPDEST PUSH1 0x40 MLOAD DUP1 PUSH1 0x60 ADD PUSH1 0x40 MSTORE DUP1 PUSH1 0x3 SWAP1 JUMPDEST PUSH1 0x60 DUP2 MSTORE PUSH1 0x20 ADD SWAP1 PUSH1 0x1 SWAP1 SUB SWAP1 DUP2 PUSH2 0x3AB0 JUMPI SWAP1 POP POP SWAP1 JUMP JUMPDEST DUP3 DUP1 SLOAD PUSH2 0x3AD4 SWAP1 PUSH2 0x4272 JUMP JUMPDEST SWAP1 PUSH1 0x0 MSTORE PUSH1 0x20 PUSH1 0x0 KECCAK256 SWAP1 PUSH1 0x1F ADD PUSH1 0x20 SWAP1 DIV DUP2 ADD SWAP3 DUP3 PUSH2 0x3AF6 JUMPI PUSH1 0x0 DUP6 SSTORE PUSH2 0x3B3C JUMP JUMPDEST DUP3 PUSH1 0x1F LT PUSH2 0x3B0F JUMPI DUP1 MLOAD PUSH1 0xFF NOT AND DUP4 DUP1 ADD OR DUP6 SSTORE PUSH2 0x3B3C JUMP JUMPDEST DUP3 DUP1 ADD PUSH1 0x1 ADD DUP6 SSTORE DUP3 ISZERO PUSH2 0x3B3C JUMPI SWAP2 DUP3 ADD JUMPDEST DUP3 DUP2 GT ISZERO PUSH2 0x3B3C JUMPI DUP3 MLOAD DUP3 SSTORE SWAP2 PUSH1 0x20 ADD SWAP2 SWAP1 PUSH1 0x1 ADD SWAP1 PUSH2 0x3B21 JUMP JUMPDEST POP PUSH2 0x3B48 SWAP3 SWAP2 POP PUSH2 0x3BA1 JUMP JUMPDEST POP SWAP1 JUMP JUMPDEST DUP3 DUP1 SLOAD DUP3 DUP3 SSTORE SWAP1 PUSH1 0x0 MSTORE PUSH1 0x20 PUSH1 0x0 KECCAK256 SWAP1 DUP2 ADD SWAP3 DUP3 ISZERO PUSH2 0x3B3C JUMPI SWAP2 PUSH1 0x20 MUL DUP3 ADD JUMPDEST DUP3 DUP2 GT ISZERO PUSH2 0x3B3C JUMPI DUP3 MLOAD DUP3 SLOAD PUSH1 0x1 PUSH1 0x1 PUSH1 0xA0 SHL SUB NOT AND PUSH1 0x1 PUSH1 0x1 PUSH1 0xA0 SHL SUB SWAP1 SWAP2 AND OR DUP3 SSTORE PUSH1 0x20 SWAP1 SWAP3 ADD SWAP2 PUSH1 0x1 SWAP1 SWAP2 ADD SWAP1 PUSH2 0x3B6C JUMP JUMPDEST JUMPDEST DUP1 DUP3 GT ISZERO PUSH2 0x3B48 JUMPI PUSH1 0x0 DUP2 SSTORE PUSH1 0x1 ADD PUSH2 0x3BA2 JUMP JUMPDEST PUSH4 0x4E487B71 PUSH1 0xE0 SHL PUSH1 0x0 MSTORE PUSH1 0x11 PUSH1 0x4 MSTORE PUSH1 0x24 PUSH1 0x0 REVERT JUMPDEST PUSH1 0x0 DUP3 NOT DUP3 GT ISZERO PUSH2 0x3BDF JUMPI PUSH2 0x3BDF PUSH2 0x3BB6 JUMP JUMPDEST POP ADD SWAP1 JUMP JUMPDEST DUP1 CALLDATALOAD PUSH1 0x1 PUSH1 0x1 PUSH1 0xA0 SHL SUB DUP2 AND DUP2 EQ PUSH2 0x17BE JUMPI PUSH1 0x0 DUP1 REVERT JUMPDEST PUSH1 0x0 DUP1 PUSH1 0x40 DUP4 DUP6 SUB SLT ISZERO PUSH2 0x3C0E JUMPI PUSH1 0x0 DUP1 REVERT JUMPDEST PUSH2 0x3C17 DUP4 PUSH2 0x3BE4 JUMP JUMPDEST SWAP5 PUSH1 0x20 SWAP4 SWAP1 SWAP4 ADD CALLDATALOAD SWAP4 POP POP POP JUMP JUMPDEST PUSH1 0x1 PUSH1 0x1 PUSH1 0xE0 SHL SUB NOT DUP2 AND DUP2 EQ PUSH2 0x2815 JUMPI PUSH1 0x0 DUP1 REVERT JUMPDEST PUSH1 0x0 PUSH1 0x20 DUP3 DUP5 SUB SLT ISZERO PUSH2 0x3C4D JUMPI PUSH1 0x0 DUP1 REVERT JUMPDEST DUP2 CALLDATALOAD PUSH2 0x3380 DUP2 PUSH2 0x3C25 JUMP JUMPDEST PUSH1 0x0 DUP1 PUSH1 0x0 PUSH1 0x60 DUP5 DUP7 SUB SLT ISZERO PUSH2 0x3C6D JUMPI PUSH1 0x0 DUP1 REVERT JUMPDEST POP POP DUP2 CALLDATALOAD SWAP4 PUSH1 0x20 DUP4 ADD CALLDATALOAD SWAP4 POP PUSH1 0x40 SWAP1 SWAP3 ADD CALLDATALOAD SWAP2 SWAP1 POP JUMP JUMPDEST PUSH1 0x0 PUSH1 0x20 DUP3 DUP5 SUB SLT ISZERO PUSH2 0x3C96 JUMPI PUSH1 0x0 DUP1 REVERT JUMPDEST POP CALLDATALOAD SWAP2 SWAP1 POP JUMP JUMPDEST PUSH1 0x0 DUP2 MLOAD DUP1 DUP5 MSTORE PUSH1 0x0 JUMPDEST DUP2 DUP2 LT ISZERO PUSH2 0x3CC3 JUMPI PUSH1 0x20 DUP2 DUP6 ADD DUP2 ADD MLOAD DUP7 DUP4 ADD DUP3 ADD MSTORE ADD PUSH2 0x3CA7 JUMP JUMPDEST DUP2 DUP2 GT ISZERO PUSH2 0x3CD5 JUMPI PUSH1 0x0 PUSH1 0x20 DUP4 DUP8 ADD ADD MSTORE JUMPDEST POP PUSH1 0x1F ADD PUSH1 0x1F NOT AND SWAP3 SWAP1 SWAP3 ADD PUSH1 0x20 ADD SWAP3 SWAP2 POP POP JUMP JUMPDEST PUSH1 0x20 DUP2 MSTORE PUSH1 0x0 PUSH2 0x3380 PUSH1 0x20 DUP4 ADD DUP5 PUSH2 0x3C9D JUMP JUMPDEST DUP1 ISZERO ISZERO DUP2 EQ PUSH2 0x2815 JUMPI PUSH1 0x0 DUP1 REVERT JUMPDEST PUSH1 0x0 PUSH1 0x20 DUP3 DUP5 SUB SLT ISZERO PUSH2 0x3D1D JUMPI PUSH1 0x0 DUP1 REVERT JUMPDEST DUP2 CALLDATALOAD PUSH2 0x3380 DUP2 PUSH2 0x3CFD JUMP JUMPDEST PUSH1 0x0 DUP2 MLOAD DUP1 DUP5 MSTORE PUSH1 0x20 DUP1 DUP6 ADD SWAP5 POP DUP1 DUP5 ADD PUSH1 0x0 JUMPDEST DUP4 DUP2 LT ISZERO PUSH2 0x3D58 JUMPI DUP2 MLOAD DUP8 MSTORE SWAP6 DUP3 ADD SWAP6 SWAP1 DUP3 ADD SWAP1 PUSH1 0x1 ADD PUSH2 0x3D3C JUMP JUMPDEST POP SWAP5 SWAP6 SWAP5 POP POP POP POP POP JUMP JUMPDEST PUSH1 0x20 DUP2 MSTORE PUSH1 0x0 PUSH2 0x3380 PUSH1 0x20 DUP4 ADD DUP5 PUSH2 0x3D28 JUMP JUMPDEST PUSH1 0x0 PUSH1 0x20 DUP3 DUP5 SUB SLT ISZERO PUSH2 0x3D88 JUMPI PUSH1 0x0 DUP1 REVERT JUMPDEST PUSH2 0x3380 DUP3 PUSH2 0x3BE4 JUMP JUMPDEST PUSH1 0x0 DUP1 PUSH1 0x40 DUP4 DUP6 SUB SLT ISZERO PUSH2 0x3DA4 JUMPI PUSH1 0x0 DUP1 REVERT JUMPDEST PUSH2 0x3DAD DUP4 PUSH2 0x3BE4 JUMP JUMPDEST SWAP2 POP PUSH1 0x20 DUP4 ADD CALLDATALOAD PUSH2 0x3DBD DUP2 PUSH2 0x3CFD JUMP JUMPDEST DUP1 SWAP2 POP POP SWAP3 POP SWAP3 SWAP1 POP JUMP JUMPDEST PUSH4 0x4E487B71 PUSH1 0xE0 SHL PUSH1 0x0 MSTORE PUSH1 0x41 PUSH1 0x4 MSTORE PUSH1 0x24 PUSH1 0x0 REVERT JUMPDEST PUSH1 0x1F DUP3 ADD PUSH1 0x1F NOT AND DUP2 ADD PUSH8 0xFFFFFFFFFFFFFFFF DUP2 GT DUP3 DUP3 LT OR ISZERO PUSH2 0x3E04 JUMPI PUSH2 0x3E04 PUSH2 0x3DC8 JUMP JUMPDEST PUSH1 0x40 MSTORE POP POP JUMP JUMPDEST PUSH1 0x0 PUSH8 0xFFFFFFFFFFFFFFFF DUP3 GT ISZERO PUSH2 0x3E25 JUMPI PUSH2 0x3E25 PUSH2 0x3DC8 JUMP JUMPDEST POP PUSH1 0x5 SHL PUSH1 0x20 ADD SWAP1 JUMP JUMPDEST PUSH1 0x0 DUP3 PUSH1 0x1F DUP4 ADD SLT PUSH2 0x3E40 JUMPI PUSH1 0x0 DUP1 REVERT JUMPDEST DUP2 CALLDATALOAD PUSH1 0x20 PUSH2 0x3E4D DUP3 PUSH2 0x3E0B JUMP JUMPDEST PUSH1 0x40 MLOAD PUSH2 0x3E5A DUP3 DUP3 PUSH2 0x3DDE JUMP JUMPDEST DUP4 DUP2 MSTORE PUSH1 0x5 SWAP4 SWAP1 SWAP4 SHL DUP6 ADD DUP3 ADD SWAP3 DUP3 DUP2 ADD SWAP2 POP DUP7 DUP5 GT ISZERO PUSH2 0x3E7A JUMPI PUSH1 0x0 DUP1 REVERT JUMPDEST DUP3 DUP7 ADD JUMPDEST DUP5 DUP2 LT ISZERO PUSH2 0x3E95 JUMPI DUP1 CALLDATALOAD DUP4 MSTORE SWAP2 DUP4 ADD SWAP2 DUP4 ADD PUSH2 0x3E7E JUMP JUMPDEST POP SWAP7 SWAP6 POP POP POP POP POP POP JUMP JUMPDEST PUSH1 0x0 DUP3 PUSH1 0x1F DUP4 ADD SLT PUSH2 0x3EB1 JUMPI PUSH1 0x0 DUP1 REVERT JUMPDEST DUP2 CALLDATALOAD PUSH8 0xFFFFFFFFFFFFFFFF DUP2 GT ISZERO PUSH2 0x3ECB JUMPI PUSH2 0x3ECB PUSH2 0x3DC8 JUMP JUMPDEST PUSH1 0x40 MLOAD PUSH2 0x3EE2 PUSH1 0x1F DUP4 ADD PUSH1 0x1F NOT AND PUSH1 0x20 ADD DUP3 PUSH2 0x3DDE JUMP JUMPDEST DUP2 DUP2 MSTORE DUP5 PUSH1 0x20 DUP4 DUP7 ADD ADD GT ISZERO PUSH2 0x3EF7 JUMPI PUSH1 0x0 DUP1 REVERT JUMPDEST DUP2 PUSH1 0x20 DUP6 ADD PUSH1 0x20 DUP4 ADD CALLDATACOPY PUSH1 0x0 SWAP2 DUP2 ADD PUSH1 0x20 ADD SWAP2 SWAP1 SWAP2 MSTORE SWAP4 SWAP3 POP POP POP JUMP JUMPDEST PUSH1 0x0 DUP1 PUSH1 0x0 DUP1 PUSH1 0x0 PUSH1 0xA0 DUP7 DUP9 SUB SLT ISZERO PUSH2 0x3F2C JUMPI PUSH1 0x0 DUP1 REVERT JUMPDEST PUSH2 0x3F35 DUP7 PUSH2 0x3BE4 JUMP JUMPDEST SWAP5 POP PUSH2 0x3F43 PUSH1 0x20 DUP8 ADD PUSH2 0x3BE4 JUMP JUMPDEST SWAP4 POP PUSH1 0x40 DUP7 ADD CALLDATALOAD PUSH8 0xFFFFFFFFFFFFFFFF DUP1 DUP3 GT ISZERO PUSH2 0x3F60 JUMPI PUSH1 0x0 DUP1 REVERT JUMPDEST PUSH2 0x3F6C DUP10 DUP4 DUP11 ADD PUSH2 0x3E2F JUMP JUMPDEST SWAP5 POP PUSH1 0x60 DUP9 ADD CALLDATALOAD SWAP2 POP DUP1 DUP3 GT ISZERO PUSH2 0x3F82 JUMPI PUSH1 0x0 DUP1 REVERT JUMPDEST PUSH2 0x3F8E DUP10 DUP4 DUP11 ADD PUSH2 0x3E2F JUMP JUMPDEST SWAP4 POP PUSH1 0x80 DUP9 ADD CALLDATALOAD SWAP2 POP DUP1 DUP3 GT ISZERO PUSH2 0x3FA4 JUMPI PUSH1 0x0 DUP1 REVERT JUMPDEST POP PUSH2 0x3FB1 DUP9 DUP3 DUP10 ADD PUSH2 0x3EA0 JUMP JUMPDEST SWAP2 POP POP SWAP3 SWAP6 POP SWAP3 SWAP6 SWAP1 SWAP4 POP JUMP JUMPDEST PUSH1 0x20 DUP1 DUP3 MSTORE PUSH1 0x0 SWAP1 PUSH1 0x80 DUP4 ADD DUP4 DUP3 ADD DUP6 DUP5 JUMPDEST PUSH1 0x3 DUP2 LT ISZERO PUSH2 0x3FFF JUMPI PUSH1 0x1F NOT DUP8 DUP6 SUB ADD DUP4 MSTORE PUSH2 0x3FED DUP5 DUP4 MLOAD PUSH2 0x3C9D JUMP JUMPDEST SWAP4 POP SWAP2 DUP5 ADD SWAP2 SWAP1 DUP5 ADD SWAP1 PUSH1 0x1 ADD PUSH2 0x3FD0 JUMP JUMPDEST POP SWAP2 SWAP7 SWAP6 POP POP POP POP POP POP JUMP JUMPDEST PUSH1 0x0 DUP1 PUSH1 0x40 DUP4 DUP6 SUB SLT ISZERO PUSH2 0x401E JUMPI PUSH1 0x0 DUP1 REVERT JUMPDEST DUP3 CALLDATALOAD PUSH8 0xFFFFFFFFFFFFFFFF DUP1 DUP3 GT ISZERO PUSH2 0x4036 JUMPI PUSH1 0x0 DUP1 REVERT JUMPDEST DUP2 DUP6 ADD SWAP2 POP DUP6 PUSH1 0x1F DUP4 ADD SLT PUSH2 0x404A JUMPI PUSH1 0x0 DUP1 REVERT JUMPDEST DUP2 CALLDATALOAD PUSH1 0x20 PUSH2 0x4057 DUP3 PUSH2 0x3E0B JUMP JUMPDEST PUSH1 0x40 MLOAD PUSH2 0x4064 DUP3 DUP3 PUSH2 0x3DDE JUMP JUMPDEST DUP4 DUP2 MSTORE PUSH1 0x5 SWAP4 SWAP1 SWAP4 SHL DUP6 ADD DUP3 ADD SWAP3 DUP3 DUP2 ADD SWAP2 POP DUP10 DUP5 GT ISZERO PUSH2 0x4084 JUMPI PUSH1 0x0 DUP1 REVERT JUMPDEST SWAP5 DUP3 ADD SWAP5 JUMPDEST DUP4 DUP7 LT ISZERO PUSH2 0x40A9 JUMPI PUSH2 0x409A DUP7 PUSH2 0x3BE4 JUMP JUMPDEST DUP3 MSTORE SWAP5 DUP3 ADD SWAP5 SWAP1 DUP3 ADD SWAP1 PUSH2 0x4089 JUMP JUMPDEST SWAP7 POP POP DUP7 ADD CALLDATALOAD SWAP3 POP POP DUP1 DUP3 GT ISZERO PUSH2 0x40BF JUMPI PUSH1 0x0 DUP1 REVERT JUMPDEST POP PUSH2 0x40CC DUP6 DUP3 DUP7 ADD PUSH2 0x3E2F JUMP JUMPDEST SWAP2 POP POP SWAP3 POP SWAP3 SWAP1 POP JUMP JUMPDEST PUSH1 0x0 DUP1 PUSH1 0x0 DUP1 PUSH1 0x80 DUP6 DUP8 SUB SLT ISZERO PUSH2 0x40EC JUMPI PUSH1 0x0 DUP1 REVERT JUMPDEST DUP5 CALLDATALOAD SWAP4 POP PUSH1 0x20 DUP6 ADD CALLDATALOAD SWAP3 POP PUSH1 0x40 DUP6 ADD CALLDATALOAD SWAP2 POP PUSH1 0x60 DUP6 ADD CALLDATALOAD PUSH8 0xFFFFFFFFFFFFFFFF DUP2 GT ISZERO PUSH2 0x4118 JUMPI PUSH1 0x0 DUP1 REVERT JUMPDEST PUSH2 0x4124 DUP8 DUP3 DUP9 ADD PUSH2 0x3EA0 JUMP JUMPDEST SWAP2 POP POP SWAP3 SWAP6 SWAP2 SWAP5 POP SWAP3 POP JUMP JUMPDEST PUSH1 0x0 DUP1 PUSH1 0x0 PUSH1 0x60 DUP5 DUP7 SUB SLT ISZERO PUSH2 0x4145 JUMPI PUSH1 0x0 DUP1 REVERT JUMPDEST DUP4 CALLDATALOAD PUSH8 0xFFFFFFFFFFFFFFFF DUP1 DUP3 GT ISZERO PUSH2 0x415D JUMPI PUSH1 0x0 DUP1 REVERT JUMPDEST PUSH2 0x4169 DUP8 DUP4 DUP9 ADD PUSH2 0x3EA0 JUMP JUMPDEST SWAP5 POP PUSH1 0x20 DUP7 ADD CALLDATALOAD SWAP2 POP DUP1 DUP3 GT ISZERO PUSH2 0x417F JUMPI PUSH1 0x0 DUP1 REVERT JUMPDEST PUSH2 0x418B DUP8 DUP4 DUP9 ADD PUSH2 0x3EA0 JUMP JUMPDEST SWAP4 POP PUSH1 0x40 DUP7 ADD CALLDATALOAD SWAP2 POP DUP1 DUP3 GT ISZERO PUSH2 0x41A1 JUMPI PUSH1 0x0 DUP1 REVERT JUMPDEST POP PUSH2 0x41AE DUP7 DUP3 DUP8 ADD PUSH2 0x3EA0 JUMP JUMPDEST SWAP2 POP POP SWAP3 POP SWAP3 POP SWAP3 JUMP JUMPDEST PUSH1 0x0 DUP1 PUSH1 0x40 DUP4 DUP6 SUB SLT ISZERO PUSH2 0x41CB JUMPI PUSH1 0x0 DUP1 REVERT JUMPDEST POP POP DUP1 CALLDATALOAD SWAP3 PUSH1 0x20 SWAP1 SWAP2 ADD CALLDATALOAD SWAP2 POP JUMP JUMPDEST PUSH1 0x0 DUP1 PUSH1 0x40 DUP4 DUP6 SUB SLT ISZERO PUSH2 0x41ED JUMPI PUSH1 0x0 DUP1 REVERT JUMPDEST PUSH2 0x41F6 DUP4 PUSH2 0x3BE4 JUMP JUMPDEST SWAP2 POP PUSH2 0x4204 PUSH1 0x20 DUP5 ADD PUSH2 0x3BE4 JUMP JUMPDEST SWAP1 POP SWAP3 POP SWAP3 SWAP1 POP JUMP JUMPDEST PUSH1 0x0 DUP1 PUSH1 0x0 DUP1 PUSH1 0x0 PUSH1 0xA0 DUP7 DUP9 SUB SLT ISZERO PUSH2 0x4225 JUMPI PUSH1 0x0 DUP1 REVERT JUMPDEST PUSH2 0x422E DUP7 PUSH2 0x3BE4 JUMP JUMPDEST SWAP5 POP PUSH2 0x423C PUSH1 0x20 DUP8 ADD PUSH2 0x3BE4 JUMP JUMPDEST SWAP4 POP PUSH1 0x40 DUP7 ADD CALLDATALOAD SWAP3 POP PUSH1 0x60 DUP7 ADD CALLDATALOAD SWAP2 POP PUSH1 0x80 DUP7 ADD CALLDATALOAD PUSH8 0xFFFFFFFFFFFFFFFF DUP2 GT ISZERO PUSH2 0x4266 JUMPI PUSH1 0x0 DUP1 REVERT JUMPDEST PUSH2 0x3FB1 DUP9 DUP3 DUP10 ADD PUSH2 0x3EA0 JUMP JUMPDEST PUSH1 0x1 DUP2 DUP2 SHR SWAP1 DUP3 AND DUP1 PUSH2 0x4286 JUMPI PUSH1 0x7F DUP3 AND SWAP2 POP JUMPDEST PUSH1 0x20 DUP3 LT DUP2 EQ ISZERO PUSH2 0x42A7 JUMPI PUSH4 0x4E487B71 PUSH1 0xE0 SHL PUSH1 0x0 MSTORE PUSH1 0x22 PUSH1 0x4 MSTORE PUSH1 0x24 PUSH1 0x0 REVERT JUMPDEST POP SWAP2 SWAP1 POP JUMP JUMPDEST PUSH4 0x4E487B71 PUSH1 0xE0 SHL PUSH1 0x0 MSTORE PUSH1 0x32 PUSH1 0x4 MSTORE PUSH1 0x24 PUSH1 0x0 REVERT JUMPDEST PUSH1 0x0 PUSH1 0x0 NOT DUP3 EQ ISZERO PUSH2 0x42D7 JUMPI PUSH2 0x42D7 PUSH2 0x3BB6 JUMP JUMPDEST POP PUSH1 0x1 ADD SWAP1 JUMP JUMPDEST PUSH1 0x20 DUP1 DUP3 MSTORE DUP2 DUP2 ADD MSTORE PUSH32 0x4F776E61626C653A2063616C6C6572206973206E6F7420746865206F776E6572 PUSH1 0x40 DUP3 ADD MSTORE PUSH1 0x60 ADD SWAP1 JUMP JUMPDEST PUSH1 0x20 DUP1 DUP3 MSTORE PUSH1 0x10 SWAP1 DUP3 ADD MSTORE PUSH16 0x14185D5CD8589B194E881C185D5CD959 PUSH1 0x82 SHL PUSH1 0x40 DUP3 ADD MSTORE PUSH1 0x60 ADD SWAP1 JUMP JUMPDEST PUSH1 0x0 DUP3 DUP3 LT ISZERO PUSH2 0x434F JUMPI PUSH2 0x434F PUSH2 0x3BB6 JUMP JUMPDEST POP SUB SWAP1 JUMP JUMPDEST PUSH1 0x0 DUP2 PUSH1 0x0 NOT DIV DUP4 GT DUP3 ISZERO ISZERO AND ISZERO PUSH2 0x436E JUMPI PUSH2 0x436E PUSH2 0x3BB6 JUMP JUMPDEST POP MUL SWAP1 JUMP JUMPDEST PUSH4 0x4E487B71 PUSH1 0xE0 SHL PUSH1 0x0 MSTORE PUSH1 0x12 PUSH1 0x4 MSTORE PUSH1 0x24 PUSH1 0x0 REVERT JUMPDEST PUSH1 0x0 DUP3 PUSH2 0x4398 JUMPI PUSH2 0x4398 PUSH2 0x4373 JUMP JUMPDEST POP DIV SWAP1 JUMP JUMPDEST PUSH1 0x20 DUP1 DUP3 MSTORE PUSH1 0x16 SWAP1 DUP3 ADD MSTORE PUSH22 0x1B9BDD08195B9BDD59DA081D1A5B59481C185CDCD959 PUSH1 0x52 SHL PUSH1 0x40 DUP3 ADD MSTORE PUSH1 0x60 ADD SWAP1 JUMP JUMPDEST DUP1 MLOAD PUSH10 0xFFFFFFFFFFFFFFFFFFFF DUP2 AND DUP2 EQ PUSH2 0x17BE JUMPI PUSH1 0x0 DUP1 REVERT JUMPDEST PUSH1 0x0 DUP1 PUSH1 0x0 DUP1 PUSH1 0x0 PUSH1 0xA0 DUP7 DUP9 SUB SLT ISZERO PUSH2 0x43FF JUMPI PUSH1 0x0 DUP1 REVERT JUMPDEST PUSH2 0x4408 DUP7 PUSH2 0x43CD JUMP JUMPDEST SWAP5 POP PUSH1 0x20 DUP7 ADD MLOAD SWAP4 POP PUSH1 0x40 DUP7 ADD MLOAD SWAP3 POP PUSH1 0x60 DUP7 ADD MLOAD SWAP2 POP PUSH2 0x442B PUSH1 0x80 DUP8 ADD PUSH2 0x43CD JUMP JUMPDEST SWAP1 POP SWAP3 SWAP6 POP SWAP3 SWAP6 SWAP1 SWAP4 POP JUMP JUMPDEST PUSH1 0x0 DUP3 PUSH2 0x4446 JUMPI PUSH2 0x4446 PUSH2 0x4373 JUMP JUMPDEST POP MOD SWAP1 JUMP JUMPDEST PUSH1 0x20 DUP1 DUP3 MSTORE PUSH1 0x25 SWAP1 DUP3 ADD MSTORE PUSH32 0x455243313135353A207472616E7366657220746F20746865207A65726F206164 PUSH1 0x40 DUP3 ADD MSTORE PUSH5 0x6472657373 PUSH1 0xD8 SHL PUSH1 0x60 DUP3 ADD MSTORE PUSH1 0x80 ADD SWAP1 JUMP JUMPDEST PUSH1 0x20 DUP1 DUP3 MSTORE PUSH1 0x2A SWAP1 DUP3 ADD MSTORE PUSH32 0x455243313135353A20696E73756666696369656E742062616C616E636520666F PUSH1 0x40 DUP3 ADD MSTORE PUSH10 0x39103A3930B739B332B9 PUSH1 0xB1 SHL PUSH1 0x60 DUP3 ADD MSTORE PUSH1 0x80 ADD SWAP1 JUMP JUMPDEST PUSH1 0x40 DUP2 MSTORE PUSH1 0x0 PUSH2 0x44ED PUSH1 0x40 DUP4 ADD DUP6 PUSH2 0x3D28 JUMP JUMPDEST DUP3 DUP2 SUB PUSH1 0x20 DUP5 ADD MSTORE PUSH2 0x44FF DUP2 DUP6 PUSH2 0x3D28 JUMP JUMPDEST SWAP6 SWAP5 POP POP POP POP POP JUMP JUMPDEST PUSH1 0x1 DUP1 PUSH1 0xA0 SHL SUB DUP5 AND DUP2 MSTORE DUP3 PUSH1 0x20 DUP3 ADD MSTORE PUSH1 0x60 PUSH1 0x40 DUP3 ADD MSTORE PUSH1 0x0 PUSH2 0x44FF PUSH1 0x60 DUP4 ADD DUP5 PUSH2 0x3C9D JUMP JUMPDEST PUSH1 0x0 PUSH1 0x20 DUP3 DUP5 SUB SLT ISZERO PUSH2 0x4541 JUMPI PUSH1 0x0 DUP1 REVERT JUMPDEST DUP2 MLOAD PUSH2 0x3380 DUP2 PUSH2 0x3CFD JUMP JUMPDEST PUSH1 0x0 DUP1 DUP4 SLT DUP1 ISZERO PUSH1 0x1 PUSH1 0xFF SHL DUP6 ADD DUP5 SLT AND ISZERO PUSH2 0x456A JUMPI PUSH2 0x456A PUSH2 0x3BB6 JUMP JUMPDEST PUSH1 0x1 PUSH1 0x1 PUSH1 0xFF SHL SUB DUP5 ADD DUP4 SGT DUP2 AND ISZERO PUSH2 0x4585 JUMPI PUSH2 0x4585 PUSH2 0x3BB6 JUMP JUMPDEST POP POP SUB SWAP1 JUMP JUMPDEST PUSH1 0x0 DUP3 PUSH2 0x459A JUMPI PUSH2 0x459A PUSH2 0x4373 JUMP JUMPDEST PUSH1 0x1 PUSH1 0xFF SHL DUP3 EQ PUSH1 0x0 NOT DUP5 EQ AND ISZERO PUSH2 0x45B4 JUMPI PUSH2 0x45B4 PUSH2 0x3BB6 JUMP JUMPDEST POP SDIV SWAP1 JUMP JUMPDEST PUSH1 0x0 DUP1 DUP3 SLT DUP1 ISZERO PUSH1 0x1 PUSH1 0x1 PUSH1 0xFF SHL SUB DUP5 SWAP1 SUB DUP6 SGT AND ISZERO PUSH2 0x45DB JUMPI PUSH2 0x45DB PUSH2 0x3BB6 JUMP JUMPDEST PUSH1 0x1 PUSH1 0xFF SHL DUP4 SWAP1 SUB DUP5 SLT DUP2 AND ISZERO PUSH2 0x45F4 JUMPI PUSH2 0x45F4 PUSH2 0x3BB6 JUMP JUMPDEST POP POP ADD SWAP1 JUMP JUMPDEST PUSH1 0x0 PUSH1 0x1 PUSH1 0x1 PUSH1 0xFF SHL SUB DUP2 DUP5 SGT DUP3 DUP5 SGT DUP1 DUP3 AND DUP7 DUP5 DIV DUP7 GT AND ISZERO PUSH2 0x4620 JUMPI PUSH2 0x4620 PUSH2 0x3BB6 JUMP JUMPDEST PUSH1 0x1 PUSH1 0xFF SHL PUSH1 0x0 DUP8 SLT DUP3 DUP2 AND DUP8 DUP4 SDIV DUP10 SLT AND ISZERO PUSH2 0x463F JUMPI PUSH2 0x463F PUSH2 0x3BB6 JUMP JUMPDEST PUSH1 0x0 DUP8 SLT SWAP3 POP DUP8 DUP3 SDIV DUP8 SLT DUP5 DUP5 AND AND ISZERO PUSH2 0x465B JUMPI PUSH2 0x465B PUSH2 0x3BB6 JUMP JUMPDEST DUP8 DUP6 SDIV DUP8 SLT DUP2 DUP5 AND AND ISZERO PUSH2 0x4671 JUMPI PUSH2 0x4671 PUSH2 0x3BB6 JUMP JUMPDEST POP POP POP SWAP3 SWAP1 SWAP4 MUL SWAP4 SWAP3 POP POP POP JUMP JUMPDEST PUSH1 0x1 PUSH1 0x1 PUSH1 0xA0 SHL SUB DUP7 DUP2 AND DUP3 MSTORE DUP6 AND PUSH1 0x20 DUP3 ADD MSTORE PUSH1 0x40 DUP2 ADD DUP5 SWAP1 MSTORE PUSH1 0x60 DUP2 ADD DUP4 SWAP1 MSTORE PUSH1 0xA0 PUSH1 0x80 DUP3 ADD DUP2 SWAP1 MSTORE PUSH1 0x0 SWAP1 PUSH2 0x46B9 SWAP1 DUP4 ADD DUP5 PUSH2 0x3C9D JUMP JUMPDEST SWAP8 SWAP7 POP POP POP POP POP POP POP JUMP JUMPDEST PUSH1 0x0 PUSH1 0x20 DUP3 DUP5 SUB SLT ISZERO PUSH2 0x46D6 JUMPI PUSH1 0x0 DUP1 REVERT JUMPDEST DUP2 MLOAD PUSH2 0x3380 DUP2 PUSH2 0x3C25 JUMP JUMPDEST PUSH1 0x0 PUSH1 0x3 RETURNDATASIZE GT ISZERO PUSH2 0x46FA JUMPI PUSH1 0x4 PUSH1 0x0 DUP1 RETURNDATACOPY POP PUSH1 0x0 MLOAD PUSH1 0xE0 SHR JUMPDEST SWAP1 JUMP JUMPDEST PUSH1 0x0 PUSH1 0x44 RETURNDATASIZE LT ISZERO PUSH2 0x470B JUMPI SWAP1 JUMP JUMPDEST PUSH1 0x40 MLOAD PUSH1 0x3 NOT RETURNDATASIZE DUP2 ADD PUSH1 0x4 DUP4 RETURNDATACOPY DUP2 MLOAD RETURNDATASIZE PUSH8 0xFFFFFFFFFFFFFFFF DUP2 PUSH1 0x24 DUP5 ADD GT DUP2 DUP5 GT OR ISZERO PUSH2 0x473B JUMPI POP POP POP POP POP SWAP1 JUMP JUMPDEST DUP3 DUP6 ADD SWAP2 POP DUP2 MLOAD DUP2 DUP2 GT ISZERO PUSH2 0x4753 JUMPI POP POP POP POP POP POP SWAP1 JUMP JUMPDEST DUP5 RETURNDATASIZE DUP8 ADD ADD PUSH1 0x20 DUP3 DUP6 ADD ADD GT ISZERO PUSH2 0x476D JUMPI POP POP POP POP POP POP SWAP1 JUMP JUMPDEST PUSH2 0x477C PUSH1 0x20 DUP3 DUP7 ADD ADD DUP8 PUSH2 0x3DDE JUMP JUMPDEST POP SWAP1 SWAP6 SWAP5 POP POP POP POP POP JUMP JUMPDEST PUSH1 0x20 DUP1 DUP3 MSTORE PUSH1 0x28 SWAP1 DUP3 ADD MSTORE PUSH32 0x455243313135353A204552433131353552656365697665722072656A65637465 PUSH1 0x40 DUP3 ADD MSTORE PUSH8 0x6420746F6B656E73 PUSH1 0xC0 SHL PUSH1 0x60 DUP3 ADD MSTORE PUSH1 0x80 ADD SWAP1 JUMP JUMPDEST PUSH1 0x1 PUSH1 0x1 PUSH1 0xA0 SHL SUB DUP7 DUP2 AND DUP3 MSTORE DUP6 AND PUSH1 0x20 DUP3 ADD MSTORE PUSH1 0xA0 PUSH1 0x40 DUP3 ADD DUP2 SWAP1 MSTORE PUSH1 0x0 SWAP1 PUSH2 0x47FB SWAP1 DUP4 ADD DUP7 PUSH2 0x3D28 JUMP JUMPDEST DUP3 DUP2 SUB PUSH1 0x60 DUP5 ADD MSTORE PUSH2 0x480D DUP2 DUP7 PUSH2 0x3D28 JUMP JUMPDEST SWAP1 POP DUP3 DUP2 SUB PUSH1 0x80 DUP5 ADD MSTORE PUSH2 0x37CB DUP2 DUP6 PUSH2 0x3C9D JUMP INVALID EXP MLOAD PC DUP12 AND PUSH5 0x495F089DD8 RETURNDATASIZE 0x2D 0x26 CALLCODE SELFBALANCE SWAP3 0xF SWAP5 0xA5 PUSH27 0x4A09F20CF068EFC8F82BD4A264697066735822122007A3094F4B9B BASEFEE SGT EQ LOG1 JUMPI PUSH13 0x8767FAC8B63CEBB047DC4DA273 AND PUSH25 0xCBC34B693264736F6C634300080B0033000000000000000000 ","sha1":"d21c6e7794f34014931818f3949065c6c39fd5c4","source":"// SPDX-License-Identifier: MIT\npragma solidity ^0.8.0;\n\nimport \"./MemorizeThisDay.sol\";\n\ncontract MemorizeThisDayOnBTC is MemorizeThisDay {\n    constructor(\n        address vrfCoordinator,\n        address linkToken,\n        uint256 chainlinkFee,\n        bytes32 keyHash,\n        address priceFeedAddress,\n        address developersAddress\n    )\n        public\n        MemorizeThisDay(\n            \"Bitcoin\",\n            \"https://memorizethisday.github.io/BTC/{id}.json\",\n            100,\n            vrfCoordinator,\n            linkToken,\n            chainlinkFee,\n            keyHash,\n            priceFeedAddress,\n            developersAddress\n        )\n    {\n        SetStratDate(2015, 1, 5);\n\n        //TODO mint gifts\n        //TODO mint electoral\n    }\n}\n","sourcePath":"contracts/MemorizeBTC.sol","deployment":{"address":"0x82840BF5Fd4CB12EE05e2Cf4Cee4E1168E322BEF","chainid":"4","blockHeight":10339371}}