{"abi":[{"inputs":[{"internalType":"address","name":"vrfCoordinator","type":"address"},{"internalType":"address","name":"linkToken","type":"address"},{"internalType":"uint256","name":"chainlinkFee","type":"uint256"},{"internalType":"bytes32","name":"keyHash","type":"bytes32"},{"internalType":"address","name":"priceFeedAddress","type":"address"},{"internalType":"address","name":"developersAddress","type":"address"},{"internalType":"address","name":"founderAddress","type":"address"}],"stateMutability":"nonpayable","type":"constructor","name":"constructor"},{"inputs":[{"internalType":"uint256","name":"","type":"uint256"},{"internalType":"uint256","name":"","type":"uint256"}],"name":"WrongDaySelection","type":"error"},{"anonymous":false,"inputs":[{"indexed":true,"internalType":"address","name":"account","type":"address"},{"indexed":true,"internalType":"address","name":"operator","type":"address"},{"indexed":false,"internalType":"bool","name":"approved","type":"bool"}],"name":"ApprovalForAll","type":"event"},{"anonymous":false,"inputs":[{"indexed":true,"internalType":"address","name":"previous","type":"address"},{"indexed":true,"internalType":"address","name":"current","type":"address"}],"name":"ChangeAmbassadorEvent","type":"event"},{"anonymous":false,"inputs":[{"indexed":true,"internalType":"uint256","name":"year","type":"uint256"},{"indexed":true,"internalType":"uint256","name":"month","type":"uint256"},{"indexed":true,"internalType":"uint256","name":"day","type":"uint256"}],"name":"CustomizeEvent","type":"event"},{"anonymous":false,"inputs":[{"indexed":true,"internalType":"address","name":"executer","type":"address"},{"indexed":true,"internalType":"uint256","name":"epoc","type":"uint256"}],"name":"ElectionEvent","type":"event"},{"anonymous":false,"inputs":[{"indexed":true,"internalType":"uint256","name":"year","type":"uint256"},{"indexed":true,"internalType":"uint256","name":"month","type":"uint256"},{"indexed":true,"internalType":"uint256","name":"day","type":"uint256"}],"name":"LikeEvent","type":"event"},{"anonymous":false,"inputs":[{"indexed":false,"internalType":"uint256","name":"year","type":"uint256"},{"indexed":false,"internalType":"uint256","name":"month","type":"uint256"},{"indexed":false,"internalType":"uint256","name":"day","type":"uint256"},{"indexed":true,"internalType":"address","name":"holder","type":"address"}],"name":"MemorizedEvent","type":"event"},{"anonymous":false,"inputs":[{"indexed":true,"internalType":"address","name":"previousOwner","type":"address"},{"indexed":true,"internalType":"address","name":"newOwner","type":"address"}],"name":"OwnershipTransferred","type":"event"},{"anonymous":false,"inputs":[{"indexed":false,"internalType":"address","name":"account","type":"address"}],"name":"Paused","type":"event"},{"anonymous":false,"inputs":[{"indexed":true,"internalType":"address","name":"_address","type":"address"},{"indexed":false,"internalType":"uint256","name":"randomness","type":"uint256"}],"name":"PeriodicAirdropWinnerSelectedEvent","type":"event"},{"anonymous":false,"inputs":[{"indexed":true,"internalType":"address","name":"operator","type":"address"},{"indexed":true,"internalType":"address","name":"from","type":"address"},{"indexed":true,"internalType":"address","name":"to","type":"address"},{"indexed":false,"internalType":"uint256[]","name":"ids","type":"uint256[]"},{"indexed":false,"internalType":"uint256[]","name":"values","type":"uint256[]"}],"name":"TransferBatch","type":"event"},{"anonymous":false,"inputs":[{"indexed":true,"internalType":"address","name":"operator","type":"address"},{"indexed":true,"internalType":"address","name":"from","type":"address"},{"indexed":true,"internalType":"address","name":"to","type":"address"},{"indexed":false,"internalType":"uint256","name":"id","type":"uint256"},{"indexed":false,"internalType":"uint256","name":"value","type":"uint256"}],"name":"TransferSingle","type":"event"},{"anonymous":false,"inputs":[{"indexed":false,"internalType":"string","name":"value","type":"string"},{"indexed":true,"internalType":"uint256","name":"id","type":"uint256"}],"name":"URI","type":"event"},{"anonymous":false,"inputs":[{"indexed":false,"internalType":"address","name":"account","type":"address"}],"name":"Unpaused","type":"event"},{"anonymous":false,"inputs":[{"indexed":true,"internalType":"uint256","name":"vaultNumber","type":"uint256"},{"indexed":true,"internalType":"enum MemorizeThisDay.VAULT_ACTION","name":"action","type":"uint8"}],"name":"VoteResult","type":"event"},{"anonymous":false,"inputs":[{"indexed":true,"internalType":"address","name":"_address","type":"address"},{"indexed":true,"internalType":"uint256","name":"_amount","type":"uint256"}],"name":"WithdrawalEvent","type":"event"},{"stateMutability":"payable","type":"fallback"},{"inputs":[],"name":"AMBASSADOR_SHARE","outputs":[{"internalType":"uint256","name":"","type":"uint256"}],"stateMutability":"view","type":"function"},{"inputs":[{"internalType":"bool","name":"acceptance","type":"bool"}],"name":"AcceptSponsorship","outputs":[],"stateMutability":"nonpayable","type":"function"},{"inputs":[],"name":"AirdropRegisters","outputs":[{"internalType":"address[]","name":"","type":"address[]"}],"stateMutability":"view","type":"function"},{"inputs":[{"internalType":"uint256","name":"year","type":"uint256"},{"internalType":"uint256","name":"month","type":"uint256"},{"internalType":"uint256","name":"day","type":"uint256"},{"internalType":"string","name":"memo","type":"string"},{"internalType":"string","name":"imageMemo","type":"string"},{"internalType":"string","name":"aliass","type":"string"},{"internalType":"string","name":"twitterAccount","type":"string"}],"name":"Customize","outputs":[],"stateMutability":"nonpayable","type":"function"},{"inputs":[],"name":"DEVELOPMENT_VAULT_SHARE","outputs":[{"internalType":"uint256","name":"","type":"uint256"}],"stateMutability":"view","type":"function"},{"inputs":[],"name":"Election","outputs":[],"stateMutability":"nonpayable","type":"function"},{"inputs":[],"name":"ElectionThreshold","outputs":[{"internalType":"uint256","name":"","type":"uint256"}],"stateMutability":"view","type":"function"},{"inputs":[],"name":"FOUNDER_SHARE","outputs":[{"internalType":"uint256","name":"","type":"uint256"}],"stateMutability":"view","type":"function"},{"inputs":[{"internalType":"uint256","name":"year","type":"uint256"},{"internalType":"uint256","name":"month","type":"uint256"},{"internalType":"uint256","name":"day","type":"uint256"}],"name":"GetHolderOfTheDay","outputs":[{"internalType":"address","name":"","type":"address"}],"stateMutability":"view","type":"function"},{"inputs":[{"internalType":"uint256","name":"year","type":"uint256"},{"internalType":"uint256","name":"month","type":"uint256"},{"internalType":"uint256","name":"day","type":"uint256"}],"name":"GetIdByDate","outputs":[{"internalType":"uint256","name":"","type":"uint256"}],"stateMutability":"pure","type":"function"},{"inputs":[],"name":"GetMemorizeFee","outputs":[{"internalType":"uint256","name":"","type":"uint256"}],"stateMutability":"view","type":"function"},{"inputs":[],"name":"GetMintedDaysLength","outputs":[{"internalType":"uint256","name":"","type":"uint256"}],"stateMutability":"view","type":"function"},{"inputs":[],"name":"GetPeriodicAirdropRegistersLength","outputs":[{"internalType":"uint256","name":"","type":"uint256"}],"stateMutability":"view","type":"function"},{"inputs":[{"internalType":"uint256","name":"year","type":"uint256"},{"internalType":"uint256","name":"month","type":"uint256"},{"internalType":"uint256","name":"day","type":"uint256"}],"name":"Like","outputs":[],"stateMutability":"nonpayable","type":"function"},{"inputs":[],"name":"METADATAFORGER_VAULT_SHARE","outputs":[{"internalType":"uint256","name":"","type":"uint256"}],"stateMutability":"view","type":"function"},{"inputs":[{"internalType":"uint256","name":"year","type":"uint256"},{"internalType":"uint256","name":"month","type":"uint256"},{"internalType":"uint256","name":"day","type":"uint256"},{"internalType":"address","name":"giftTo","type":"address"}],"name":"Memorize","outputs":[],"stateMutability":"payable","type":"function"},{"inputs":[],"name":"MemorizedDays","outputs":[{"internalType":"uint256[]","name":"","type":"uint256[]"},{"internalType":"address[]","name":"","type":"address[]"}],"stateMutability":"view","type":"function"},{"inputs":[],"name":"PauseContract","outputs":[],"stateMutability":"nonpayable","type":"function"},{"inputs":[],"name":"RegisterForPeriodiclyAirdrop","outputs":[],"stateMutability":"nonpayable","type":"function"},{"inputs":[{"internalType":"string","name":"title","type":"string"},{"internalType":"string","name":"url","type":"string"},{"internalType":"string","name":"imageurl","type":"string"},{"internalType":"string","name":"twitter","type":"string"}],"name":"RequestSponsorship","outputs":[],"stateMutability":"payable","type":"function"},{"inputs":[],"name":"SelectPeriodicWinner","outputs":[],"stateMutability":"nonpayable","type":"function"},{"inputs":[{"internalType":"address","name":"targetAirdrop","type":"address"}],"name":"SendAirdrop","outputs":[],"stateMutability":"nonpayable","type":"function"},{"inputs":[{"internalType":"address","name":"addrs","type":"address"},{"internalType":"uint256","name":"wallet","type":"uint256"}],"name":"SetAddress","outputs":[],"stateMutability":"nonpayable","type":"function"},{"inputs":[{"internalType":"uint256","name":"fee","type":"uint256"},{"internalType":"string","name":"url","type":"string"}],"name":"UpdateConfig","outputs":[],"stateMutability":"nonpayable","type":"function"},{"inputs":[{"internalType":"uint256","name":"newPrice","type":"uint256"},{"internalType":"uint256","name":"newPriceStep","type":"uint256"}],"name":"UpdateMintPrice","outputs":[],"stateMutability":"nonpayable","type":"function"},{"inputs":[],"name":"VAULT_1_SHARE","outputs":[{"internalType":"uint256","name":"","type":"uint256"}],"stateMutability":"view","type":"function"},{"inputs":[],"name":"VAULT_2_SHARE","outputs":[{"internalType":"uint256","name":"","type":"uint256"}],"stateMutability":"view","type":"function"},{"inputs":[{"internalType":"uint256","name":"year","type":"uint256"},{"internalType":"uint256","name":"month","type":"uint256"},{"internalType":"uint256","name":"day","type":"uint256"},{"internalType":"uint256","name":"ambassadoryear","type":"uint256"},{"internalType":"uint256","name":"ambassadormonth","type":"uint256"},{"internalType":"uint256","name":"ambassadorday","type":"uint256"},{"internalType":"enum MemorizeThisDay.VAULT_ACTION[]","name":"action","type":"uint8[]"}],"name":"Vote","outputs":[],"stateMutability":"nonpayable","type":"function"},{"inputs":[{"internalType":"uint256","name":"year","type":"uint256"},{"internalType":"uint256","name":"month","type":"uint256"},{"internalType":"uint256","name":"day","type":"uint256"}],"name":"VotePower","outputs":[{"internalType":"uint256","name":"","type":"uint256"}],"stateMutability":"view","type":"function"},{"inputs":[],"name":"Withdrawal","outputs":[],"stateMutability":"nonpayable","type":"function"},{"inputs":[],"name":"_UrlStartWith","outputs":[{"internalType":"string","name":"","type":"string"}],"stateMutability":"view","type":"function"},{"inputs":[{"internalType":"uint256","name":"","type":"uint256"},{"internalType":"uint256","name":"","type":"uint256"}],"name":"_Votes","outputs":[{"internalType":"enum MemorizeThisDay.VAULT_ACTION","name":"","type":"uint8"}],"stateMutability":"view","type":"function"},{"inputs":[{"internalType":"uint256","name":"","type":"uint256"},{"internalType":"enum MemorizeThisDay.VAULT_ACTION","name":"","type":"uint8"}],"name":"_VotesAggregate","outputs":[{"internalType":"uint256","name":"","type":"uint256"}],"stateMutability":"view","type":"function"},{"inputs":[{"internalType":"address","name":"","type":"address"}],"name":"_airdrop","outputs":[{"internalType":"uint256","name":"","type":"uint256"}],"stateMutability":"view","type":"function"},{"inputs":[],"name":"_airdropPeriodInDays","outputs":[{"internalType":"uint256","name":"","type":"uint256"}],"stateMutability":"view","type":"function"},{"inputs":[{"internalType":"address","name":"","type":"address"}],"name":"_alias","outputs":[{"internalType":"string","name":"","type":"string"}],"stateMutability":"view","type":"function"},{"inputs":[{"internalType":"uint256","name":"","type":"uint256"}],"name":"_ambasaddorVotes","outputs":[{"internalType":"address","name":"","type":"address"}],"stateMutability":"view","type":"function"},{"inputs":[],"name":"_ambassador","outputs":[{"internalType":"address","name":"","type":"address"}],"stateMutability":"view","type":"function"},{"inputs":[],"name":"_ambassadorDay","outputs":[{"internalType":"uint256","name":"","type":"uint256"}],"stateMutability":"view","type":"function"},{"inputs":[{"internalType":"address","name":"","type":"address"}],"name":"_ambassadorVotesAggregate","outputs":[{"internalType":"uint256","name":"","type":"uint256"}],"stateMutability":"view","type":"function"},{"inputs":[],"name":"_assetName","outputs":[{"internalType":"string","name":"","type":"string"}],"stateMutability":"view","type":"function"},{"inputs":[],"name":"_chainlinkFee","outputs":[{"internalType":"uint256","name":"","type":"uint256"}],"stateMutability":"view","type":"function"},{"inputs":[{"internalType":"uint256","name":"","type":"uint256"}],"name":"_elders","outputs":[{"internalType":"bool","name":"","type":"bool"}],"stateMutability":"view","type":"function"},{"inputs":[{"internalType":"uint256","name":"","type":"uint256"}],"name":"_eldersAddress","outputs":[{"internalType":"address","name":"","type":"address"}],"stateMutability":"view","type":"function"},{"inputs":[{"internalType":"uint256","name":"","type":"uint256"}],"name":"_eldersIndex","outputs":[{"internalType":"uint256","name":"","type":"uint256"}],"stateMutability":"view","type":"function"},{"inputs":[],"name":"_eldersRemaining","outputs":[{"internalType":"uint256","name":"","type":"uint256"}],"stateMutability":"view","type":"function"},{"inputs":[],"name":"_electoralAirdropPeriodInDays","outputs":[{"internalType":"uint256","name":"","type":"uint256"}],"stateMutability":"view","type":"function"},{"inputs":[],"name":"_founderAddress","outputs":[{"internalType":"address","name":"","type":"address"}],"stateMutability":"view","type":"function"},{"inputs":[{"internalType":"uint256","name":"","type":"uint256"}],"name":"_holders","outputs":[{"internalType":"address","name":"","type":"address"}],"stateMutability":"view","type":"function"},{"inputs":[{"internalType":"uint256","name":"","type":"uint256"}],"name":"_imageMemo","outputs":[{"internalType":"string","name":"","type":"string"}],"stateMutability":"view","type":"function"},{"inputs":[],"name":"_initialPrice","outputs":[{"internalType":"uint256","name":"","type":"uint256"}],"stateMutability":"view","type":"function"},{"inputs":[],"name":"_invitePeriod","outputs":[{"internalType":"bool","name":"","type":"bool"}],"stateMutability":"view","type":"function"},{"inputs":[],"name":"_isSponsorshipAccepted","outputs":[{"internalType":"bool","name":"","type":"bool"}],"stateMutability":"view","type":"function"},{"inputs":[],"name":"_lastAirdropPeriodWinnerSelectDate","outputs":[{"internalType":"uint256","name":"","type":"uint256"}],"stateMutability":"view","type":"function"},{"inputs":[],"name":"_lastElectionDate","outputs":[{"internalType":"uint256","name":"","type":"uint256"}],"stateMutability":"view","type":"function"},{"inputs":[],"name":"_lastElectoralAirdropDate","outputs":[{"internalType":"uint256","name":"","type":"uint256"}],"stateMutability":"view","type":"function"},{"inputs":[],"name":"_lastLotteryWinner","outputs":[{"internalType":"address","name":"","type":"address"}],"stateMutability":"view","type":"function"},{"inputs":[],"name":"_lastMemorizeDate","outputs":[{"internalType":"uint256","name":"","type":"uint256"}],"stateMutability":"view","type":"function"},{"inputs":[{"internalType":"uint256","name":"","type":"uint256"}],"name":"_likes","outputs":[{"internalType":"uint256","name":"","type":"uint256"}],"stateMutability":"view","type":"function"},{"inputs":[{"internalType":"uint256","name":"","type":"uint256"}],"name":"_memo","outputs":[{"internalType":"string","name":"","type":"string"}],"stateMutability":"view","type":"function"},{"inputs":[],"name":"_metadataForgerAddress","outputs":[{"internalType":"address","name":"","type":"address"}],"stateMutability":"view","type":"function"},{"inputs":[],"name":"_mintPrice","outputs":[{"internalType":"uint256","name":"","type":"uint256"}],"stateMutability":"view","type":"function"},{"inputs":[],"name":"_mintPriceStep","outputs":[{"internalType":"uint256","name":"","type":"uint256"}],"stateMutability":"view","type":"function"},{"inputs":[{"internalType":"uint256","name":"","type":"uint256"}],"name":"_mintedDays","outputs":[{"internalType":"uint256","name":"","type":"uint256"}],"stateMutability":"view","type":"function"},{"inputs":[],"name":"_nextAmbassador","outputs":[{"internalType":"address","name":"","type":"address"}],"stateMutability":"view","type":"function"},{"inputs":[],"name":"_nextAmbassadorDay","outputs":[{"internalType":"uint256","name":"","type":"uint256"}],"stateMutability":"view","type":"function"},{"inputs":[{"internalType":"uint256","name":"","type":"uint256"}],"name":"_periodicAirdropRegisters","outputs":[{"internalType":"address","name":"","type":"address"}],"stateMutability":"view","type":"function"},{"inputs":[],"name":"_sponsorAddress","outputs":[{"internalType":"address","name":"","type":"address"}],"stateMutability":"view","type":"function"},{"inputs":[],"name":"_sponsorImage","outputs":[{"internalType":"string","name":"","type":"string"}],"stateMutability":"view","type":"function"},{"inputs":[],"name":"_sponsorShipLockUntil","outputs":[{"internalType":"uint256","name":"","type":"uint256"}],"stateMutability":"view","type":"function"},{"inputs":[],"name":"_sponsorTitle","outputs":[{"internalType":"string","name":"","type":"string"}],"stateMutability":"view","type":"function"},{"inputs":[],"name":"_sponsorTwitter","outputs":[{"internalType":"string","name":"","type":"string"}],"stateMutability":"view","type":"function"},{"inputs":[],"name":"_sponsorURL","outputs":[{"internalType":"string","name":"","type":"string"}],"stateMutability":"view","type":"function"},{"inputs":[],"name":"_startDate","outputs":[{"internalType":"uint256","name":"","type":"uint256"}],"stateMutability":"view","type":"function"},{"inputs":[{"internalType":"uint256","name":"","type":"uint256"}],"name":"_twitterAccount","outputs":[{"internalType":"string","name":"","type":"string"}],"stateMutability":"view","type":"function"},{"inputs":[{"internalType":"uint256","name":"","type":"uint256"}],"name":"_vaultsAddress","outputs":[{"internalType":"address","name":"","type":"address"}],"stateMutability":"view","type":"function"},{"inputs":[{"internalType":"address","name":"","type":"address"}],"name":"_wallet","outputs":[{"internalType":"uint256","name":"","type":"uint256"}],"stateMutability":"view","type":"function"},{"inputs":[{"internalType":"address","name":"account","type":"address"},{"internalType":"uint256","name":"id","type":"uint256"}],"name":"balanceOf","outputs":[{"internalType":"uint256","name":"","type":"uint256"}],"stateMutability":"view","type":"function"},{"inputs":[{"internalType":"address[]","name":"accounts","type":"address[]"},{"internalType":"uint256[]","name":"ids","type":"uint256[]"}],"name":"balanceOfBatch","outputs":[{"internalType":"uint256[]","name":"","type":"uint256[]"}],"stateMutability":"view","type":"function"},{"inputs":[{"internalType":"address","name":"account","type":"address"},{"internalType":"address","name":"operator","type":"address"}],"name":"isApprovedForAll","outputs":[{"internalType":"bool","name":"","type":"bool"}],"stateMutability":"view","type":"function"},{"inputs":[{"internalType":"uint256","name":"a","type":"uint256"},{"internalType":"uint256","name":"b","type":"uint256"}],"name":"max","outputs":[{"internalType":"uint256","name":"","type":"uint256"}],"stateMutability":"pure","type":"function"},{"inputs":[],"name":"owner","outputs":[{"internalType":"address","name":"","type":"address"}],"stateMutability":"view","type":"function"},{"inputs":[],"name":"paused","outputs":[{"internalType":"bool","name":"","type":"bool"}],"stateMutability":"view","type":"function"},{"inputs":[{"internalType":"bytes32","name":"requestId","type":"bytes32"},{"internalType":"uint256","name":"randomness","type":"uint256"}],"name":"rawFulfillRandomness","outputs":[],"stateMutability":"nonpayable","type":"function"},{"inputs":[],"name":"renounceOwnership","outputs":[],"stateMutability":"nonpayable","type":"function"},{"inputs":[{"internalType":"address","name":"from","type":"address"},{"internalType":"address","name":"to","type":"address"},{"internalType":"uint256[]","name":"ids","type":"uint256[]"},{"internalType":"uint256[]","name":"amounts","type":"uint256[]"},{"internalType":"bytes","name":"data","type":"bytes"}],"name":"safeBatchTransferFrom","outputs":[],"stateMutability":"nonpayable","type":"function"},{"inputs":[{"internalType":"address","name":"from","type":"address"},{"internalType":"address","name":"to","type":"address"},{"internalType":"uint256","name":"id","type":"uint256"},{"internalType":"uint256","name":"amount","type":"uint256"},{"internalType":"bytes","name":"data","type":"bytes"}],"name":"safeTransferFrom","outputs":[],"stateMutability":"nonpayable","type":"function"},{"inputs":[{"internalType":"address","name":"operator","type":"address"},{"internalType":"bool","name":"approved","type":"bool"}],"name":"setApprovalForAll","outputs":[],"stateMutability":"nonpayable","type":"function"},{"inputs":[{"internalType":"bytes4","name":"interfaceId","type":"bytes4"}],"name":"supportsInterface","outputs":[{"internalType":"bool","name":"","type":"bool"}],"stateMutability":"view","type":"function"},{"inputs":[{"internalType":"address","name":"newOwner","type":"address"}],"name":"transferOwnership","outputs":[],"stateMutability":"nonpayable","type":"function"},{"inputs":[{"internalType":"uint256","name":"","type":"uint256"}],"name":"uri","outputs":[{"internalType":"string","name":"","type":"string"}],"stateMutability":"view","type":"function"}],"bytecode":"610100604052601060c08190526f68747470733a2f2f697066732e696f2f60801b60e0908152620000349160059190620016a8565b506000600d819055600e805460ff1916600117905561016d600f55601080546001600160a81b03191690556040805160208101918290528290526200007d9160119190620016a8565b506040805160208101918290526000908190526200009e91601291620016a8565b50604080516020810191829052600090819052620000bf91601391620016a8565b50604080516020810191829052600090819052620000e091601491620016a8565b5060006015556000601655600060175560076019556007601a553480156200010757600080fd5b5060405162007ceb38038062007ceb8339810160408190526200012a916200176b565b604051806040016040528060078152602001662134ba31b7b4b760c91b8152506040518060600160405280602f815260200162007cbc602f9139606489898989896107df6001600587878b62000180816200039f565b506003805460ff191690556200019633620003b8565b6001600160a01b0391821660a05216608052620001bc89670de0b6b3a764000062001804565b6016819055601755670de0b6b3a7640000600d5560218690556022859055620001f342600862000412602090811b62003dff17901c565b601b81905550620002114260086200041260201b62003dff1760201c565b601c819055506200022f42601e6200041260201b62003dff1760201c565b601f558a516200024790600c9060208e0190620016a8565b506026805460016001600160a01b0319918216179091556027805460029083161790556028805460039083161790556029805460049083161790556007805482169055600b80549091166001600160a01b038616179055620002b783838362000445602090811b62003e2717901c565b601d81905560155550620002db99508a985060009750506200046c95505050505050565b620002e88260016200046c565b6001600160a01b0381166000908152602b6020526040902060379055620003166107df600160058562000560565b620003286107df600160068562000560565b6200033a6107df600160078562000560565b6200034c6107df600160198462000560565b6200035e6107e0600760098462000560565b6200036f6107e06001808462000560565b620003806107e16001808462000560565b620003926107e5600a60148462000560565b5050505050505062001c94565b8051620003b4906002906020840190620016a8565b5050565b600380546001600160a01b03838116610100818102610100600160a81b031985161790945560405193909204169182907f8be0079c531659141344cd1fd0a4f28419497f9722a3daafe3b4186f6b6457e090600090a35050565b600062000423620151808362001804565b6200042f90846200183c565b9050828111156200043f57600080fd5b92915050565b6000620151806200045885858562000d89565b62000464919062001804565b949350505050565b6003546001600160a01b03610100909104163314620004d25760405162461bcd60e51b815260206004820181905260248201527f4f776e61626c653a2063616c6c6572206973206e6f7420746865206f776e657260448201526064015b60405180910390fd5b806200051c57602480546001600160a01b038481166001600160a01b031983168117909355166000818152602a602052604080822080549483529082209390935590815290555050565b602380546001600160a01b038481166001600160a01b031983168117909355166000818152602a602052604080822080549483529082209390935590815290555050565b60035460ff1615620005a85760405162461bcd60e51b815260206004820152601060248201526f14185d5cd8589b194e881c185d5cd95960821b6044820152606401620004c9565b600e5460ff161580620005c95750336000908152602b602052604090205415155b620005fc5760405162461bcd60e51b8152602060048201526002602482015261329960f11b6044820152606401620004c9565b8215806200060a5750600c83115b156200063e5760405162461bcd60e51b8152602060048201526002602482015261653360f01b6044820152606401620004c9565b8115806200064c5750601f82115b15620006805760405162461bcd60e51b8152602060048201526002602482015261194d60f21b6044820152606401620004c9565b8260041480620006905750826006145b806200069c5750826009145b80620006a8575082600b145b8015620006b55750601e82115b80620006eb5750826002148015620006de5750620006de8462000ef960201b62003e421760201c565b8015620006eb5750601d82115b80620007235750826002148015620007165750620007148462000ef960201b62003e421760201c565b155b8015620007235750601c82115b156200074d576040516324e2ba2160e11b81526004810184905260248101839052604401620004c9565b6000620007678585856200044560201b62003e271760201c565b90504281111580156200077c5750601d548110155b620007af5760405162461bcd60e51b8152602060048201526002602482015261653560f01b6044820152606401620004c9565b6000818152602c60205260409020546001600160a01b031615620007fb5760405162461bcd60e51b8152602060048201526002602482015261329b60f11b6044820152606401620004c9565b6001600160a01b0382166200080e573391505b336000908152602b602052604081205415620008ff5750336000908152602b6020526040902054600190620008459082906200183c565b336000908152602b6020526040902055600f5415620008ff576001600f546200086f91906200183c565b600f556000828152602e60205260408120805460ff19166001908117909155603080548083018255928190527f6ff97a59c90d62cc7236ba3a37cd85351bf564556780cf8c1157a220f31f0cbb90920180546001600160a01b031916331790559054620008dd91906200183c565b6000838152602f6020526040902055600f54620008ff57600e805460ff191690555b8062000bfd576200090f62000f3d565b341015620009455760405162461bcd60e51b8152602060048201526002602482015261653760f01b6044820152606401620004c9565b600060646200095660053462001804565b6200096291906200186c565b6024546001600160a01b03166000908152602a60205260409020549091506200098d90829062001883565b6024546001600160a01b03166000908152602a60205260408120919091556064620009ba60053462001804565b620009c691906200186c565b6007549091506001600160a01b031662000a23576023546001600160a01b03166000908152602a602052604090205462000a0290829062001883565b6023546001600160a01b03166000908152602a602052604090205562000a67565b6007546001600160a01b03166000908152602a602052604090205462000a4b90829062001883565b6007546001600160a01b03166000908152602a60205260409020555b6000606462000a7860053462001804565b62000a8491906200186c565b6023546001600160a01b03166000908152602a602052604090205490915062000aaf90829062001883565b6023546001600160a01b03166000908152602a6020526040812091909155606462000adc60193462001804565b62000ae891906200186c565b6029546001600160a01b03166000908152602a602052604090205490915062000b1390829062001883565b6029546001600160a01b03166000908152602a6020526040812091909155606462000b40601e3462001804565b62000b4c91906200186c565b6026546001600160a01b03166000908152602a602052604090205490915062000b7790829062001883565b6026546001600160a01b03166000908152602a6020526040812091909155606462000ba4601e3462001804565b62000bb091906200186c565b6027546001600160a01b03166000908152602a602052604090205490915062000bdb90829062001883565b6027546001600160a01b03166000908152602a60205260409020555050505050505b62000c21838360016040518060200160405280600081525062000ffc60201b60201c565b60208054600180820183557fc97bfaf2f8ee708c303a06d134f5ecd8389ae0432af62dc132a24118292866bb9091018490556000848152602c909252604090912080546001600160a01b0319166001600160a01b03861617905542601e555b6003811162000d18576000838152602e602052604090205460ff1615801562000ca95750806003145b1562000cb55762000d03565b62000cc28787876200111f565b600082815260396020908152604080832083805290915290205462000ce8919062001883565b60008281526039602090815260408083208380529091529020555b8062000d0f816200189e565b91505062000c80565b508062000d8157600d5460165462000d31919062001883565b60165560408051878152602081018790529081018590526001600160a01b038416907fa51e9b2ef1f037dee551eb226d6d1581c8fb0e0243820ebd1fbb41a13e6c23649060600160405180910390a25b505050505050565b60006107b284101562000d9b57600080fd5b838383600062253d8c60046064600c62000db7600e88620018bc565b62000dc3919062001901565b62000dd18861132462001935565b62000ddd919062001935565b62000de9919062001901565b62000df69060036200197c565b62000e02919062001901565b600c8062000e12600e88620018bc565b62000e1e919062001901565b62000e2b90600c6200197c565b62000e38600288620018bc565b62000e449190620018bc565b62000e529061016f6200197c565b62000e5e919062001901565b6004600c62000e6f600e89620018bc565b62000e7b919062001901565b62000e89896112c062001935565b62000e95919062001935565b62000ea3906105b56200197c565b62000eaf919062001901565b62000ebd617d4b87620018bc565b62000ec9919062001935565b62000ed5919062001935565b62000ee19190620018bc565b62000eed9190620018bc565b98975050505050505050565b600062000f0860048362001a0d565b15801562000f21575062000f1e60648362001a0d565b15155b806200043f575062000f366101908362001a0d565b1592915050565b600080600b60009054906101000a90046001600160a01b03166001600160a01b031663feaf968c6040518163ffffffff1660e01b815260040160a060405180830381865afa15801562000f94573d6000803e3d6000fd5b505050506040513d601f19601f8201168201806040525081019062000fba919062001a3c565b505050915050806402540be40062000fd3919062001804565b60165462000fea90670de0b6b3a764000062001804565b62000ff691906200186c565b91505090565b6001600160a01b0384166200105e5760405162461bcd60e51b815260206004820152602160248201527f455243313135353a206d696e7420746f20746865207a65726f206164647265736044820152607360f81b6064820152608401620004c9565b3362001084816000876200107288620011e3565b6200107d88620011e3565b8762001231565b6000848152602081815260408083206001600160a01b038916845290915281208054859290620010b690849062001883565b909155505060408051858152602081018590526001600160a01b0380881692600092918516917fc3d58168c5ae7397731d063d5bbf3d657854427343f4c083240f7aacaa2d0f62910160405180910390a46200111881600087878787620012b6565b5050505050565b6000806200113a8585856200044560201b62003e271760201c565b6000818152602c60205260409020549091506001600160a01b0316620011895760405162461bcd60e51b815260206004820152600360248201526265313160e81b6044820152606401620004c9565b6000620011a282426200148c60201b62003e7e1760201c565b6000838152602e602052604090205490915060ff1615620011cd57620011ca81600462001804565b90505b60008111620011da575060015b95945050505050565b6040805160018082528183019092526060916000919060208083019080368337019050509050828160008151811062001220576200122062001826565b602090810291909101015292915050565b6200124c86868686868662000d8160201b620021711760201c565b60035460ff161562000d815760405162461bcd60e51b815260206004820152602c60248201527f455243313135355061757361626c653a20746f6b656e207472616e736665722060448201526b1dda1a5b19481c185d5cd95960a21b6064820152608401620004c9565b620012d5846001600160a01b0316620014f660201b62003ede1760201c565b1562000d815760405163f23a6e6160e01b81526001600160a01b0385169063f23a6e619062001311908990899088908890889060040162001ae1565b6020604051808303816000875af19250505080156200134f575060408051601f3d908101601f191682019092526200134c9181019062001b28565b60015b62001410576200135e62001b5b565b806308c379a014156200139f57506200137662001bb3565b80620013835750620013a1565b8060405162461bcd60e51b8152600401620004c9919062001c42565b505b60405162461bcd60e51b815260206004820152603460248201527f455243313135353a207472616e7366657220746f206e6f6e204552433131353560448201527f526563656976657220696d706c656d656e7465720000000000000000000000006064820152608401620004c9565b6001600160e01b0319811663f23a6e6160e01b14620014835760405162461bcd60e51b815260206004820152602860248201527f455243313135353a204552433131353552656365697665722072656a656374656044820152676420746f6b656e7360c01b6064820152608401620004c9565b50505050505050565b6000818311156200149c57600080fd5b60008080808080620014bc620014b6620151808b6200186c565b620014fc565b91975095509350620014d6620014b6620151808a6200186c565b91945092509050620014e986846200183c565b9998505050505050505050565b3b151590565b60008080838162253d8c620015158362010bd962001935565b62001521919062001935565b9050600062023ab1620015368360046200197c565b62001542919062001901565b90506004620015558262023ab16200197c565b6200156290600362001935565b6200156e919062001901565b6200157a9083620018bc565b9150600062164b096200158f84600162001935565b6200159d90610fa06200197c565b620015a9919062001901565b90506004620015bb826105b56200197c565b620015c7919062001901565b620015d39084620018bc565b620015e090601f62001935565b9250600061098f620015f48560506200197c565b62001600919062001901565b905060006050620016148361098f6200197c565b62001620919062001901565b6200162c9086620018bc565b90506200163b600b8362001901565b94506200164a85600c6200197c565b6200165783600262001935565b620016639190620018bc565b9150848362001674603187620018bc565b620016819060646200197c565b6200168d919062001935565b62001699919062001935565b9a919950975095505050505050565b828054620016b69062001c57565b90600052602060002090601f016020900481019282620016da576000855562001725565b82601f10620016f557805160ff191683800117855562001725565b8280016001018555821562001725579182015b828111156200172557825182559160200191906001019062001708565b506200173392915062001737565b5090565b5b8082111562001733576000815560010162001738565b80516001600160a01b03811681146200176657600080fd5b919050565b600080600080600080600060e0888a0312156200178757600080fd5b62001792886200174e565b9650620017a2602089016200174e565b95506040880151945060608801519350620017c0608089016200174e565b9250620017d060a089016200174e565b9150620017e060c089016200174e565b905092959891949750929550565b634e487b7160e01b600052601160045260246000fd5b6000816000190483118215151615620018215762001821620017ee565b500290565b634e487b7160e01b600052603260045260246000fd5b600082821015620018515762001851620017ee565b500390565b634e487b7160e01b600052601260045260246000fd5b6000826200187e576200187e62001856565b500490565b60008219821115620018995762001899620017ee565b500190565b6000600019821415620018b557620018b5620017ee565b5060010190565b60008083128015600160ff1b850184121615620018dd57620018dd620017ee565b6001600160ff1b0384018313811615620018fb57620018fb620017ee565b50500390565b60008262001913576200191362001856565b600160ff1b821460001984141615620019305762001930620017ee565b500590565b600080821280156001600160ff1b03849003851316156200195a576200195a620017ee565b600160ff1b8390038412811615620019765762001976620017ee565b50500190565b60006001600160ff1b0381841382841380821686840486111615620019a557620019a5620017ee565b600160ff1b6000871282811687830589121615620019c757620019c7620017ee565b60008712925087820587128484161615620019e657620019e6620017ee565b87850587128184161615620019ff57620019ff620017ee565b505050929093029392505050565b60008262001a1f5762001a1f62001856565b500690565b80516001600160501b03811681146200176657600080fd5b600080600080600060a0868803121562001a5557600080fd5b62001a608662001a24565b945060208601519350604086015192506060860151915062001a856080870162001a24565b90509295509295909350565b6000815180845260005b8181101562001ab95760208185018101518683018201520162001a9b565b8181111562001acc576000602083870101525b50601f01601f19169290920160200192915050565b6001600160a01b03868116825285166020820152604081018490526060810183905260a06080820181905260009062001b1d9083018462001a91565b979650505050505050565b60006020828403121562001b3b57600080fd5b81516001600160e01b03198116811462001b5457600080fd5b9392505050565b600060033d111562001b755760046000803e5060005160e01c5b90565b601f8201601f191681016001600160401b038111828210171562001bac57634e487b7160e01b600052604160045260246000fd5b6040525050565b600060443d101562001bc25790565b6040516003193d81016004833e81513d6001600160401b03808311602484018310171562001bf257505050505090565b828501915081518181111562001c0b5750505050505090565b843d870101602082850101111562001c265750505050505090565b62001c376020828601018762001b78565b509095945050505050565b60208152600062001b54602083018462001a91565b600181811c9082168062001c6c57607f821691505b6020821081141562001c8e57634e487b7160e01b600052602260045260246000fd5b50919050565b60805160a051615ffb62001cc16000396000818161278a015261476a0152600061473b0152615ffb6000f3fe6080604052600436106104eb5760003560e01c80636d5433e61161028c578063c771285b1161015a578063e985e9c5116100cc578063f1f0befe11610085578063f1f0befe14610f39578063f242432a14610f59578063f2fde38b14610f79578063f6a33e6d14610f99578063f8a433ec14610fae578063fa2b16cd14610fc3576104eb565b8063e985e9c514610e5f578063e9cc3b5414610ea8578063ee944ba714610ebd578063ef81336314610edf578063f074e34f14610ef9578063f0f206aa14610f19576104eb565b8063d973fc2e1161011e578063d973fc2e14610d8d578063dbdad46414610dad578063dd2cec7f14610dcd578063e0b9a4aa14610e03578063e5a8a42f14610e18578063e5b429c014610e45576104eb565b8063c771285b14610d17578063c78a0b8614610d2d578063cb7812fd14610d42578063d0791de914610d57578063d50ac89214610d77576104eb565b80638da5cb5b116101fe578063a9665b7a116101b7578063a9665b7a14610c76578063ab32d59414610c8c578063ac0b78f214610ca1578063ac8daba014610cc1578063b689af8414610cd7578063bd7b9ba514610cf7576104eb565b80638da5cb5b14610bc857806392b56abb14610beb57806393e51b6414610c0057806394985ddd14610c16578063a22cb46514610c36578063a42616e814610c56576104eb565b8063717c2f5f11610250578063717c2f5f14610b3d5780637ab36b5314610b525780637ef6d4a014610b685780637f44a9bb14610920578063865117d714610b955780638b3c3ef714610bb5576104eb565b80636d5433e614610aa65780636e21fc8714610ac65780636e9f2b4b14610af357806370e44c6a14610b13578063715018a614610b28576104eb565b80632eb2c2d6116103c95780634e3412b21161033b5780635e3f5422116102f45780635e3f542214610a0b5780635fd00ca214610a20578063617d15a514610a36578063659d8d4e14610a5657806365ce645414610a865780636a1c3f2014610920576104eb565b80634e3412b21461097857806353177e661461098e57806353c3a995146109b357806353c9a4821461059157806356f2520d146109d35780635c975abb146109f3576104eb565b806338d926171161038d57806338d92617146108ca5780633cd21817146108ea5780634140524d146109005780634954d2ec1461092057806349b82943146109355780634e1273f41461094b576104eb565b80632eb2c2d6146107fe578063303dd5531461081e578063308620e214610834578063340d899a1461086c57806336bb86b314610882576104eb565b80631a513c9d11610462578063234d7b8d11610426578063234d7b8d1461076a57806328f509051461078057806329948b27146107a05780632a213dcb146107b55780632a9337d0146107cb5780632aeca614146107eb576104eb565b80631a513c9d146106b85780631aa98354146106e55780631c8108b1146107085780631d65bd1b1461071f5780631d6c263c14610755576104eb565b806306389ca1116104b457806306389ca1146105dc57806307d6a5601461061457806309fdd5a3146106365780630a6a001c1461064b5780630e89341c1461066b57806313887d951461068b576104eb565b8062fdd58e1461052e57806301ffc9a71461056157806303029e7d14610591578063037a2414146105a65780630387da42146105c6575b6028546001600160a01b03166000908152602a602052604090205461051190349061512d565b6028546001600160a01b03166000908152602a6020526040902055005b34801561053a57600080fd5b5061054e610549366004615161565b610fe3565b6040519081526020015b60405180910390f35b34801561056d57600080fd5b5061058161057c3660046151a1565b61107d565b6040519015158152602001610558565b34801561059d57600080fd5b5061054e601e81565b3480156105b257600080fd5b5061054e6105c13660046151be565b6110cd565b3480156105d257600080fd5b5061054e60165481565b3480156105e857600080fd5b506105fc6105f73660046151be565b6110e2565b6040516001600160a01b039091168152602001610558565b34801561062057600080fd5b50610629611111565b6040516105589190615242565b34801561064257600080fd5b5060185461054e565b34801561065757600080fd5b5061054e610666366004615255565b61119f565b34801561067757600080fd5b50610629610686366004615255565b6111c0565b34801561069757600080fd5b5061054e6106a636600461526e565b602a6020526000908152604090205481565b3480156106c457600080fd5b5061054e6106d336600461526e565b60366020526000908152604090205481565b3480156106f157600080fd5b506106fa611254565b6040516105589291906152fd565b34801561071457600080fd5b5061071d6113bf565b005b34801561072b57600080fd5b506105fc61073a366004615255565b6035602052600090815260409020546001600160a01b031681565b34801561076157600080fd5b5061071d61140c565b34801561077657600080fd5b5061054e601f5481565b34801561078c57600080fd5b506105fc61079b366004615255565b6119d6565b3480156107ac57600080fd5b506106296119f6565b3480156107c157600080fd5b5061054e60155481565b3480156107d757600080fd5b50600a546105fc906001600160a01b031681565b61071d6107f9366004615322565b611a03565b34801561080a57600080fd5b5061071d6108193660046154aa565b612179565b34801561082a57600080fd5b5061054e601b5481565b34801561084057600080fd5b5061054e61084f366004615562565b603960209081526000928352604080842090915290825290205481565b34801561087857600080fd5b5061054e60215481565b34801561088e57600080fd5b506108bd61089d36600461558e565b603860209081526000928352604080842090915290825290205460ff1681565b60405161055891906155c6565b3480156108d657600080fd5b506106296108e5366004615255565b612231565b3480156108f657600080fd5b5061054e601e5481565b34801561090c57600080fd5b506024546105fc906001600160a01b031681565b34801561092c57600080fd5b5061054e600581565b34801561094157600080fd5b5061054e60085481565b34801561095757600080fd5b5061096b6109663660046155ee565b61224a565b60405161055891906156b8565b34801561098457600080fd5b5061054e600d5481565b34801561099a57600080fd5b506010546105fc9061010090046001600160a01b031681565b3480156109bf57600080fd5b506105fc6109ce366004615255565b612373565b3480156109df57600080fd5b506106296109ee366004615255565b61239d565b3480156109ff57600080fd5b5060035460ff16610581565b348015610a1757600080fd5b506106296123b6565b348015610a2c57600080fd5b5061054e60095481565b348015610a4257600080fd5b5061071d610a513660046156cb565b6123c3565b348015610a6257600080fd5b50610581610a71366004615255565b602e6020526000908152604090205460ff1681565b348015610a9257600080fd5b506105fc610aa1366004615255565b612433565b348015610ab257600080fd5b5061054e610ac136600461558e565b612443565b348015610ad257600080fd5b5061054e610ae136600461526e565b602b6020526000908152604090205481565b348015610aff57600080fd5b506007546105fc906001600160a01b031681565b348015610b1f57600080fd5b5061071d61245c565b348015610b3457600080fd5b5061071d61251b565b348015610b4957600080fd5b50610629612555565b348015610b5e57600080fd5b5061054e60175481565b348015610b7457600080fd5b5061054e610b83366004615255565b602f6020526000908152604090205481565b348015610ba157600080fd5b506023546105fc906001600160a01b031681565b61071d610bc3366004615707565b612562565b348015610bd457600080fd5b5060035461010090046001600160a01b03166105fc565b348015610bf757600080fd5b50610629612772565b348015610c0c57600080fd5b5061054e601c5481565b348015610c2257600080fd5b5061071d610c3136600461558e565b61277f565b348015610c4257600080fd5b5061071d610c513660046157c1565b612801565b348015610c6257600080fd5b5061071d610c713660046157f8565b61280c565b348015610c8257600080fd5b5061054e601a5481565b348015610c9857600080fd5b5060205461054e565b348015610cad57600080fd5b50610629610cbc366004615255565b612e59565b348015610ccd57600080fd5b5061054e601d5481565b348015610ce357600080fd5b50610629610cf236600461526e565b612e72565b348015610d0357600080fd5b506037546105fc906001600160a01b031681565b348015610d2357600080fd5b5061054e600f5481565b348015610d3957600080fd5b5061054e601981565b348015610d4e57600080fd5b50610629612e8b565b348015610d6357600080fd5b5061071d610d72366004615161565b612e98565b348015610d8357600080fd5b5061054e60195481565b348015610d9957600080fd5b5061071d610da836600461558e565b612f55565b348015610db957600080fd5b5061071d610dc836600461526e565b613016565b348015610dd957600080fd5b506105fc610de8366004615255565b602c602052600090815260409020546001600160a01b031681565b348015610e0f57600080fd5b5061054e613126565b348015610e2457600080fd5b5061054e610e33366004615255565b602d6020526000908152604090205481565b348015610e5157600080fd5b50600e546105819060ff1681565b348015610e6b57600080fd5b50610581610e7a3660046158d6565b6001600160a01b03918216600090815260016020908152604080832093909416825291909152205460ff1690565b348015610eb457600080fd5b5061071d6131c1565b348015610ec957600080fd5b50610ed2613278565b6040516105589190615900565b348015610eeb57600080fd5b506010546105819060ff1681565b348015610f0557600080fd5b5061071d610f14366004615913565b613344565b348015610f2557600080fd5b5061054e610f343660046151be565b613531565b348015610f4557600080fd5b5061071d610f543660046151be565b6135bf565b348015610f6557600080fd5b5061071d610f74366004615930565b613661565b348015610f8557600080fd5b5061071d610f9436600461526e565b613803565b348015610fa557600080fd5b5061071d6138a4565b348015610fba57600080fd5b5061054e6139d7565b348015610fcf57600080fd5b5061071d610fde366004615994565b613a8d565b60006001600160a01b0383166110545760405162461bcd60e51b815260206004820152602b60248201527f455243313135353a2062616c616e636520717565727920666f7220746865207a60448201526a65726f206164647265737360a81b60648201526084015b60405180910390fd5b506000818152602081815260408083206001600160a01b03861684529091529020545b92915050565b60006001600160e01b03198216636cdb3d1360e11b14806110ae57506001600160e01b031982166303a24d0760e21b145b8061107757506301ffc9a760e01b6001600160e01b0319831614611077565b60006110da848484613e27565b949350505050565b6000806110f0858585613e27565b6000908152602c60205260409020546001600160a01b031695945050505050565b6013805461111e90615a5d565b80601f016020809104026020016040519081016040528092919081815260200182805461114a90615a5d565b80156111975780601f1061116c57610100808354040283529160200191611197565b820191906000526020600020905b81548152906001019060200180831161117a57829003601f168201915b505050505081565b602081815481106111af57600080fd5b600091825260209091200154905081565b6060600280546111cf90615a5d565b80601f01602080910402602001604051908101604052809291908181526020018280546111fb90615a5d565b80156112485780601f1061121d57610100808354040283529160200191611248565b820191906000526020600020905b81548152906001019060200180831161122b57829003601f168201915b50505050509050919050565b60608060006020805490506001600160401b0381111561127657611276615361565b60405190808252806020026020018201604052801561129f578160200160208202803683370190505b506020549091506000906001600160401b038111156112c0576112c0615361565b6040519080825280602002602001820160405280156112e9578160200160208202803683370190505b50905060005b6020548110156113b5576020818154811061130c5761130c615101565b906000526020600020015483828151811061132957611329615101565b602002602001018181525050602c60006020838154811061134c5761134c615101565b9060005260206000200154815260200190815260200160002060009054906101000a90046001600160a01b031682828151811061138b5761138b615101565b6001600160a01b0390921660209283029190910190910152806113ad81615a92565b9150506112ef565b5090939092509050565b6003546001600160a01b036101009091041633146113ef5760405162461bcd60e51b815260040161104b90615aad565b60035460ff161561140457611402613ee4565b565b611402613f77565b60035460ff161561142f5760405162461bcd60e51b815260040161104b90615ae2565b601e61143d601f5442613fcf565b10156114715760405162461bcd60e51b815260206004820152600360248201526265313360e81b604482015260640161104b565b600061147b613126565b6037546001600160a01b03166000908152603660205260409020549091508111156114ce5760405162461bcd60e51b8152602060048201526003602482015262194c4d60ea1b604482015260640161104b565b6007546037546001600160a01b0390811691161461156a576037546007546040516001600160a01b0392831692909116907fe70739823d1a1030055333e7bb502f88b41f9631ed3c87a09811fdb1a4ed0f8390600090a3603754600780546001600160a01b0319166001600160a01b03909216918217905560095460085560408051602081019091526000815261156a91906001908190613ff6565b60015b600381116119a15761157d614ff5565b6000828152603960209081526040808320838052808352818420548552600180855281845282852054868501526002855281845282852054868401526003855281845282852054606087015260048552925282205460808401819052835161160592610ac1916115f49187905b6020020151612443565b6040860151610ac1908760036115ea565b82519091508114156116445760005b60405184907f6f235ca67a520aa7bbe234e1490553d4dd8fc8f277d1e70e2f2e8b847858ae1190600090a361192c565b60208201518114156116f8576000602a60006025866005811061166957611669615101565b01546001600160a01b0316815260208101919091526040016000908120549150602a816025876005811061169f5761169f615101565b01546001600160a01b031681526020810191909152604001600020556116c481614106565b60015b60405185907f6f235ca67a520aa7bbe234e1490553d4dd8fc8f277d1e70e2f2e8b847858ae1190600090a35061192c565b604082015181141561177f576000602a60006025866005811061171d5761171d615101565b01546001600160a01b0316815260208101919091526040016000908120549150602a816025876005811061175357611753615101565b01546001600160a01b03168152602081019190915260400160002055611778816141e4565b60026116c7565b606082015181141561183757602a6000602585600581106117a2576117a2615101565b01546001600160a01b03908116825260208083019390935260409182016000908120546029549092168152602a9093529120546117df919061512d565b6029546001600160a01b03166000908152602a6020819052604082209290925590816025866005811061181457611814615101565b01546001600160a01b031681526020810191909152604001600020556003611614565b608082015181141561192c576007546001600160a01b03161561192c576000602a60006025866005811061186d5761186d615101565b01546001600160a01b0316815260208101919091526040016000908120549150602a81602587600581106118a3576118a3615101565b01546001600160a01b0390811682526020808301939093526040918201600090812094909455600754168352602a9091529020546118e290829061512d565b6007546001600160a01b03166000908152602a6020526040902055600460405185907f6f235ca67a520aa7bbe234e1490553d4dd8fc8f277d1e70e2f2e8b847858ae1190600090a3505b6029546001600160a01b039081166000908152602a602052604080822054602454909316825290205461195f919061512d565b6024546001600160a01b039081166000908152602a6020526040808220939093556029549091168152908120555081905061199981615a92565b91505061156d565b5042601f81905560405133907f4d659e18a7aadb416d8601a2418a0f9d1117ecac88caad93fadb7e895912abce90600090a350565b602581600581106119e657600080fd5b01546001600160a01b0316905081565b6011805461111e90615a5d565b60035460ff1615611a265760405162461bcd60e51b815260040161104b90615ae2565b600e5460ff161580611a465750336000908152602b602052604090205415155b611a775760405162461bcd60e51b8152602060048201526002602482015261329960f11b604482015260640161104b565b821580611a845750600c83115b15611ab65760405162461bcd60e51b8152602060048201526002602482015261653360f01b604482015260640161104b565b811580611ac35750601f82115b15611af55760405162461bcd60e51b8152602060048201526002602482015261194d60f21b604482015260640161104b565b8260041480611b045750826006145b80611b0f5750826009145b80611b1a575082600b145b8015611b265750601e82115b80611b4c5750826002148015611b405750611b4084613e42565b8015611b4c5750601d82115b80611b745750826002148015611b685750611b6684613e42565b155b8015611b745750601c82115b15611b9c576040516324e2ba2160e11b8152600481018490526024810183905260440161104b565b6000611ba9858585613e27565b9050428111158015611bbd5750601d548110155b611bee5760405162461bcd60e51b8152602060048201526002602482015261653560f01b604482015260640161104b565b6000818152602c60205260409020546001600160a01b031615611c385760405162461bcd60e51b8152602060048201526002602482015261329b60f11b604482015260640161104b565b6001600160a01b038216611c4a573391505b336000908152602b602052604081205415611d325750336000908152602b6020526040902054600190611c7e908290615b0c565b336000908152602b6020526040902055600f5415611d32576001600f54611ca59190615b0c565b600f556000828152602e60205260408120805460ff19166001908117909155603080548083018255928190527f6ff97a59c90d62cc7236ba3a37cd85351bf564556780cf8c1157a220f31f0cbb90920180546001600160a01b031916331790559054611d119190615b0c565b6000838152602f6020526040902055600f54611d3257600e805460ff191690555b8061200357611d3f6139d7565b341015611d735760405162461bcd60e51b8152602060048201526002602482015261653760f01b604482015260640161104b565b60006064611d82600534615b23565b611d8c9190615b58565b6024546001600160a01b03166000908152602a6020526040902054909150611db590829061512d565b6024546001600160a01b03166000908152602a60205260408120919091556064611de0600534615b23565b611dea9190615b58565b6007549091506001600160a01b0316611e43576023546001600160a01b03166000908152602a6020526040902054611e2390829061512d565b6023546001600160a01b03166000908152602a6020526040902055611e85565b6007546001600160a01b03166000908152602a6020526040902054611e6990829061512d565b6007546001600160a01b03166000908152602a60205260409020555b60006064611e94600534615b23565b611e9e9190615b58565b6023546001600160a01b03166000908152602a6020526040902054909150611ec790829061512d565b6023546001600160a01b03166000908152602a60205260408120919091556064611ef2601934615b23565b611efc9190615b58565b6029546001600160a01b03166000908152602a6020526040902054909150611f2590829061512d565b6029546001600160a01b03166000908152602a60205260408120919091556064611f50601e34615b23565b611f5a9190615b58565b6026546001600160a01b03166000908152602a6020526040902054909150611f8390829061512d565b6026546001600160a01b03166000908152602a60205260408120919091556064611fae601e34615b23565b611fb89190615b58565b6027546001600160a01b03166000908152602a6020526040902054909150611fe190829061512d565b6027546001600160a01b03166000908152602a60205260409020555050505050505b61201f8383600160405180602001604052806000815250613ff6565b60208054600180820183557fc97bfaf2f8ee708c303a06d134f5ecd8389ae0432af62dc132a24118292866bb9091018490556000848152602c909252604090912080546001600160a01b0319166001600160a01b03861617905542601e555b6003811161210b576000838152602e602052604090205460ff161580156120a55750806003145b156120af576120f9565b6120ba878787613531565b60008281526039602090815260408083208380529091529020546120de919061512d565b60008281526039602090815260408083208380529091529020555b8061210381615a92565b91505061207e565b508061217157600d54601654612121919061512d565b60165560408051878152602081018790529081018590526001600160a01b038416907fa51e9b2ef1f037dee551eb226d6d1581c8fb0e0243820ebd1fbb41a13e6c23649060600160405180910390a25b505050505050565b6001600160a01b03851633148061219557506121958533610e7a565b6121fc5760405162461bcd60e51b815260206004820152603260248201527f455243313135353a207472616e736665722063616c6c6572206973206e6f74206044820152711bdddb995c881b9bdc88185c1c1c9bdd995960721b606482015260840161104b565b60405162461bcd60e51b815260206004820152600360248201526265323760e81b604482015260640161104b565b5050505050565b6034602052600090815260409020805461111e90615a5d565b606081518351146122af5760405162461bcd60e51b815260206004820152602960248201527f455243313135353a206163636f756e747320616e6420696473206c656e677468604482015268040dad2e6dac2e8c6d60bb1b606482015260840161104b565b600083516001600160401b038111156122ca576122ca615361565b6040519080825280602002602001820160405280156122f3578160200160208202803683370190505b50905060005b845181101561236b5761233e85828151811061231757612317615101565b602002602001015185838151811061233157612331615101565b6020026020010151610fe3565b82828151811061235057612350615101565b602090810291909101015261236481615a92565b90506122f9565b509392505050565b6030818154811061238357600080fd5b6000918252602090912001546001600160a01b0316905081565b6031602052600090815260409020805461111e90615a5d565b6012805461111e90615a5d565b6003546001600160a01b036101009091041633146123f35760405162461bcd60e51b815260040161104b90615aad565b60035460ff16156124165760405162461bcd60e51b815260040161104b90615ae2565b6021829055805161242e906005906020840190615013565b505050565b6018818154811061238357600080fd5b6000818310156124535781612455565b825b9392505050565b336000908152602a6020526040902054662386f26fc1000011156124a85760405162461bcd60e51b815260206004820152600360248201526265313560e81b604482015260640161104b565b336000818152602a602052604080822080549083905590519092839290917f2f174ca282119315c59efaf21147aef438581dabdeb498198ae28964373dd8bc9190a3604051339082156108fc029083906000818181858888f19350505050158015612517573d6000803e3d6000fd5b5050565b6003546001600160a01b0361010090910416331461254b5760405162461bcd60e51b815260040161104b90615aad565b61140260006143e1565b6005805461111e90615a5d565b60035460ff16156125855760405162461bcd60e51b815260040161104b90615ae2565b6032845111156125bd5760405162461bcd60e51b815260206004820152600360248201526232999b60e91b604482015260640161104b565b60105461010090046001600160a01b0316156126005760405162461bcd60e51b81526020600482015260026024820152610ca760f31b604482015260640161104b565b6015544210156126375760405162461bcd60e51b8152602060048201526002602482015261653960f01b604482015260640161104b565b60006126416139d7565b336000908152602a602052604090205461265b903461512d565b6126659190615b58565b612670906004615b23565b9050601e8110156126a95760405162461bcd60e51b815260206004820152600360248201526206531360ec1b604482015260640161104b565b60108054610100600160a81b0319163361010090810291909117918290556001600160a01b039104166000908152602a60205260409020546126ec90349061512d565b60105461010090046001600160a01b03166000908152602a602090815260409091209190915585516127249160119190880190615013565b508151612738906012906020850190615013565b50835161274c906013906020870190615013565b508251612760906014906020860190615013565b50506010805460ff1916905550505050565b600c805461111e90615a5d565b336001600160a01b037f000000000000000000000000000000000000000000000000000000000000000016146127f75760405162461bcd60e51b815260206004820152601f60248201527f4f6e6c7920565246436f6f7264696e61746f722063616e2066756c66696c6c00604482015260640161104b565b612517828261443b565b6125173383836145fd565b60035460ff161561282f5760405162461bcd60e51b815260040161104b90615ae2565b600061283c888888613e27565b6000818152602c60205260409020549091506001600160a01b03166128735760405162461bcd60e51b815260040161104b90615b6c565b6000818152602c60205260409020546001600160a01b031633146128bf5760405162461bcd60e51b815260206004820152600360248201526232989960e91b604482015260640161104b565b60006128cc898989613531565b905060015b60038111612bcb578060031480156128f857506000838152602e602052604090205460ff16155b1561290257612bb9565b8361290e600183615b0c565b8151811061291e5761291e615101565b60200260200101516004811115612937576129376155b0565b600082815260386020908152604080832087845290915290205460ff166004811115612965576129656155b0565b14612bb957600081815260396020908152604080832060388352818420878552909252822054829060ff1660048111156129a1576129a16155b0565b60048111156129b2576129b26155b0565b8152602001908152602001600020541115612a845760008181526039602090815260408083206038835281842087855290925282205484929060ff1660048111156129ff576129ff6155b0565b6004811115612a1057612a106155b0565b815260200190815260200160002054612a299190615b0c565b60008281526039602090815260408083206038835281842088855290925282205490919060ff166004811115612a6157612a616155b0565b6004811115612a7257612a726155b0565b81526020810191909152604001600020555b6000818152603960205260408120839186612aa0600186615b0c565b81518110612ab057612ab0615101565b60200260200101516004811115612ac957612ac96155b0565b6004811115612ada57612ada6155b0565b815260200190815260200160002054612af3919061512d565b60008281526039602052604081209086612b0e600186615b0c565b81518110612b1e57612b1e615101565b60200260200101516004811115612b3757612b376155b0565b6004811115612b4857612b486155b0565b815260208101919091526040016000205583612b65600183615b0c565b81518110612b7557612b75615101565b602090810291909101810151600083815260388352604080822087835290935291909120805460ff19166001836004811115612bb357612bb36155b0565b02179055505b80612bc381615a92565b9150506128d1565b508515801590612bda57508415155b8015612be557508315155b15612e4e576000612bf7878787613e27565b6000818152602c6020908152604080832054603490925290912080549293506001600160a01b0390911691612cc39190612c3090615a5d565b80601f0160208091040260200160405190810160405280929190818152602001828054612c5c90615a5d565b8015612ca95780601f10612c7e57610100808354040283529160200191612ca9565b820191906000526020600020905b815481529060010190602001808311612c8c57829003601f168201915b5050505050604051806020016040528060008152506146de565b15612cf65760405162461bcd60e51b815260206004820152600360248201526265333560e81b604482015260640161104b565b6001600160a01b03811615801590612d2857506000848152603560205260409020546001600160a01b03828116911614155b15612e4b576000848152603560209081526040808320546001600160a01b03168352603690915290205415612dad576000848152603560209081526040808320546001600160a01b031683526036909152902054612d87908490615b0c565b6000858152603560209081526040808320546001600160a01b0316835260369091529020555b6001600160a01b038116600090815260366020526040902054612dd190849061512d565b6001600160a01b0380831660008181526036602081815260408084209687558a84526035825280842080546001600160a01b0319168617905560375490951683525291822054915290541115612e4b57603780546001600160a01b0319166001600160a01b038316179055612e47888888613e27565b6009555b50505b505050505050505050565b6032602052600090815260409020805461111e90615a5d565b6033602052600090815260409020805461111e90615a5d565b6014805461111e90615a5d565b6003546001600160a01b03610100909104163314612ec85760405162461bcd60e51b815260040161104b90615aad565b80612f1157602480546001600160a01b038481166001600160a01b031983168117909355166000818152602a602052604080822080549483529082209390935590815290555050565b602380546001600160a01b038481166001600160a01b031983168117909355166000818152602a602052604080822080549483529082209390935590815290555050565b6007546001600160a01b0316331480612f8f575060035461010090046001600160a01b03166001600160a01b0316336001600160a01b0316145b612fab5760405162461bcd60e51b815260040161104b90615b89565b612fbd81670de0b6b3a7640000615b23565b9050612fd182670de0b6b3a7640000615b23565b915060175482101561300b5760405162461bcd60e51b815260206004820152600360248201526232999960e91b604482015260640161104b565b601691909155600d55565b6007546001600160a01b0316331480613050575060035461010090046001600160a01b03166001600160a01b0316336001600160a01b0316145b61306c5760405162461bcd60e51b815260040161104b90615b89565b600e5460ff166130b957601a54613085601c5442613fcf565b10156130b95760405162461bcd60e51b815260206004820152600360248201526265323960e81b604482015260640161104b565b6001600160a01b0381166000908152602b6020526040902054156131055760405162461bcd60e51b815260206004820152600360248201526206533360ec1b604482015260640161104b565b42601c556001600160a01b03166000908152602b6020526040902060019055565b6030546020546000911061317557613140601d5442613e7e565b602054606490613151906019615b23565b61315b9190615b58565b6131659190615b23565b613170906004615b23565b905090565b603054613183906004615b23565b61318f601d5442613e7e565b6020546064906131a0906019615b23565b6131aa9190615b58565b6131b49190615b23565b613170919061512d565b90565b60035460ff16156131e45760405162461bcd60e51b815260040161104b90615ae2565b6019546131f3601b5442613fcf565b10156132275760405162461bcd60e51b815260206004820152600360248201526232989b60e91b604482015260640161104b565b60185460011061325f5760405162461bcd60e51b815260206004820152600360248201526265313760e81b604482015260640161104b565b42601b556022546021546132739190614737565b600655565b6018546060906000906001600160401b0381111561329857613298615361565b6040519080825280602002602001820160405280156132c1578160200160208202803683370190505b50905060005b60185481101561333e57601881815481106132e4576132e4615101565b9060005260206000200160009054906101000a90046001600160a01b031682828151811061331457613314615101565b6001600160a01b03909216602092830291909101909101528061333681615a92565b9150506132c7565b50919050565b6007546001600160a01b031633148061337e575060035461010090046001600160a01b03166001600160a01b0316336001600160a01b0316145b61339a5760405162461bcd60e51b815260040161104b90615b89565b60006133a46139d7565b60105461010090046001600160a01b03166000908152602a60205260409020546133ce9190615b58565b6133d9906004615b23565b9050601e8110156133e957600091505b81156134a2576010805460ff1916600117908190556001600160a01b0361010090910481166000908152602a6020526040808220546028549093168252902054613433919061512d565b6028546001600160a01b039081166000908152602a602052604080822093909355601054610100900490911681529081205561346f42826148b3565b6015556010546040805160208101909152600081526125179161010090046001600160a01b031690600290600190613ff6565b601080546001600160a81b0319169055426015556040805160208101918290526000908190526134d491601191615013565b506040805160208101918290526000908190526134f391601291615013565b5060408051602081019182905260009081905261351291601391615013565b5060408051602081019182905260009081905261242e91601491615013565b60008061353f858585613e27565b6000818152602c60205260409020549091506001600160a01b03166135765760405162461bcd60e51b815260040161104b90615b6c565b60006135828242613e7e565b6000838152602e602052604090205490915060ff16156135aa576135a7816004615b23565b90505b600081116135b6575060015b95945050505050565b60006135cc848484613e27565b6000818152602c60205260409020549091506001600160a01b03166136035760405162461bcd60e51b815260040161104b90615b6c565b6000818152602d602052604090205461361d90600161512d565b6000828152602d60205260408082209290925590518391859187917f4944e1aeb07a8479e05e8fc701c92c6112bd7b4b2cde831c86b39dd0637c4f3991a450505050565b6001600160a01b03851633148061367d575061367d8533610e7a565b6136db5760405162461bcd60e51b815260206004820152602960248201527f455243313135353a2063616c6c6572206973206e6f74206f776e6572206e6f7260448201526808185c1c1c9bdd995960ba1b606482015260840161104b565b601d548310156137135760405162461bcd60e51b815260206004820152600360248201526232991b60e91b604482015260640161104b565b61372085858585856148db565b6000838152602c6020908152604080832080546001600160a01b0319166001600160a01b038981169182179092559089168452602a909252808320549183529091205461376d919061512d565b6001600160a01b038086166000908152602a60209081526040808320949094559188168152828120819055858152602e909152205460ff161561222a576000838152602f60205260409020546030805486929081106137ce576137ce615101565b9060005260206000200160006101000a8154816001600160a01b0302191690836001600160a01b031602179055505050505050565b6003546001600160a01b036101009091041633146138335760405162461bcd60e51b815260040161104b90615aad565b6001600160a01b0381166138985760405162461bcd60e51b815260206004820152602660248201527f4f776e61626c653a206e6577206f776e657220697320746865207a65726f206160448201526564647265737360d01b606482015260840161104b565b6138a1816143e1565b50565b60035460ff16156138c75760405162461bcd60e51b815260040161104b90615ae2565b600e5460ff16156139005760405162461bcd60e51b815260206004820152600360248201526206532360ec1b604482015260640161104b565b600160005b60185481101561395e57336001600160a01b03166018828154811061392c5761392c615101565b6000918252602090912001546001600160a01b0316141561394c57600091505b8061395681615a92565b915050613905565b50806139925760405162461bcd60e51b815260206004820152600360248201526265323160e81b604482015260640161104b565b50601880546001810182556000919091527fb13d2d76d1f4b7be834882e410b3e3a8afaf69f83600ae24db354391d2378d2e0180546001600160a01b03191633179055565b600080600b60009054906101000a90046001600160a01b03166001600160a01b031663feaf968c6040518163ffffffff1660e01b815260040160a060405180830381865afa158015613a2d573d6000803e3d6000fd5b505050506040513d601f19601f82011682018060405250810190613a519190615bbf565b505050915050806402540be400613a689190615b23565b601654613a7d90670de0b6b3a7640000615b23565b613a879190615b58565b91505090565b6000613a9a888888613e27565b905060ff85511115613ad45760405162461bcd60e51b815260206004820152600360248201526232991960e91b604482015260640161104b565b6000818152602c60205260409020546001600160a01b0316613b1e5760405162461bcd60e51b815260206004820152600360248201526265323360e81b604482015260640161104b565b6000818152602c60205260409020546001600160a01b03163314613b6a5760405162461bcd60e51b8152602060048201526003602482015262194c8d60ea1b604482015260640161104b565b613b8d85604051806040016040528060018152602001600160fd1b8152506146de565b613bc15760008181526031602090815260409091208651613bb092880190615013565b506000818152602d60205260408120555b613be483604051806040016040528060018152602001600160fd1b8152506146de565b613c0a573360009081526033602090815260409091208451613c0892860190615013565b505b613c2d82604051806040016040528060018152602001600160fd1b8152506146de565b613c525760008181526034602090815260409091208351613c5092850190615013565b505b613c7584604051806040016040528060018152602001600160fd1b8152506146de565b613dc657604080518082018252600080825260209182015281518083019092528551825280860190820152613d6490613d5f60058054613cb490615a5d565b80601f0160208091040260200160405190810160405280929190818152602001828054613ce090615a5d565b8015613d2d5780601f10613d0257610100808354040283529160200191613d2d565b820191906000526020600020905b815481529060010190602001808311613d1057829003601f168201915b505050505060408051808201825260008082526020918201528151808301909252825182529182019181019190915290565b614a36565b613d965760405162461bcd60e51b815260206004820152600360248201526265323560e81b604482015260640161104b565b60008181526032602090815260409091208551613db592870190615013565b506000818152602d60205260408120555b8587897fe80e787d8312c1f12419513ef663ccbfaa42ea5226b0a7be319138f4a30745e260405160405180910390a45050505050505050565b6000613e0e6201518083615b23565b613e189084615b0c565b90508281111561107757600080fd5b600062015180613e38858585614a7a565b6110da9190615b23565b6000613e4f600483615c0f565b158015613e655750613e62606483615c0f565b15155b806110775750613e7761019083615c0f565b1592915050565b600081831115613e8d57600080fd5b60008080808080613ea9613ea4620151808b615b58565b614bb7565b91975095509350613ec0613ea4620151808a615b58565b91945092509050613ed18684615b0c565b9998505050505050505050565b3b151590565b60035460ff16613f2d5760405162461bcd60e51b815260206004820152601460248201527314185d5cd8589b194e881b9bdd081c185d5cd95960621b604482015260640161104b565b6003805460ff191690557f5db9ee0a495bf2e6ff9c91a7834c1ba4fdd244a5e8aa4e537bd38aeae4b073aa335b6040516001600160a01b03909116815260200160405180910390a1565b60035460ff1615613f9a5760405162461bcd60e51b815260040161104b90615ae2565b6003805460ff191660011790557f62e78cea01bee320cd4e420270b5ea74000d11b0c9f74754ebdbfc544b05a258613f5a3390565b600081831115613fde57600080fd5b62015180613fec8484615b0c565b6124559190615b58565b6001600160a01b0384166140565760405162461bcd60e51b815260206004820152602160248201527f455243313135353a206d696e7420746f20746865207a65726f206164647265736044820152607360f81b606482015260840161104b565b336140768160008761406788614d2b565b61407088614d2b565b87614d76565b6000848152602081815260408083206001600160a01b0389168452909152812080548592906140a690849061512d565b909155505060408051858152602081018590526001600160a01b0380881692600092918516917fc3d58168c5ae7397731d063d5bbf3d657854427343f4c083240f7aacaa2d0f62910160405180910390a461222a81600087878787614dde565b6020546000906141169083615b58565b905060005b60205481101561242e5781602a6000602c60006020868154811061414157614141615101565b600091825260208083209091015483528281019390935260409182018120546001600160a01b03168452918301939093529101902054614181919061512d565b602a6000602c60006020868154811061419c5761419c615101565b600091825260208083209091015483528281019390935260409182018120546001600160a01b03168452918301939093529101902055806141dc81615a92565b91505061411b565b6030546000906141f49083615b58565b905060005b60305481101561242e5781602a60006030848154811061421b5761421b615101565b60009182526020808320909101546001600160a01b0316835282019290925260400190205461424a919061512d565b602a60006030848154811061426157614261615101565b60009182526020808320909101546001600160a01b031683528201929092526040019020558061429081615a92565b9150506141f9565b845181101561437b5760008582815181106142b5576142b5615101565b6020026020010151905060008583815181106142d3576142d3615101565b602090810291909101810151600084815280835260408082206001600160a01b038e1683529093529190912054909150818110156143235760405162461bcd60e51b815260040161104b90615c23565b6000838152602081815260408083206001600160a01b038e8116855292528083208585039055908b1682528120805484929061436090849061512d565b925050819055505050508061437490615a92565b9050614298565b50846001600160a01b0316866001600160a01b0316826001600160a01b03167f4a39dc06d4c0dbc64b70af90fd698a233a518aa5d07e595d983b8c0526c8f7fb87876040516143cb929190615c6d565b60405180910390a4612171818787878787614f3a565b600380546001600160a01b03838116610100818102610100600160a81b031985161790945560405193909204169182907f8be0079c531659141344cd1fd0a4f28419497f9722a3daafe3b4186f6b6457e090600090a35050565b81600654146144725760405162461bcd60e51b81526020600482015260036024820152620ca62760eb1b604482015260640161104b565b600081116144a85760405162461bcd60e51b815260206004820152600360248201526265313960e81b604482015260640161104b565b6018546000906144b89083615c0f565b9050602b6000601883815481106144d1576144d1615101565b60009182526020808320909101546001600160a01b0316835282019290925260400190205461450190600161512d565b602b60006018848154811061451857614518615101565b60009182526020808320909101546001600160a01b03168352820192909252604001902055601880548290811061455157614551615101565b600091825260209091200154600a80546001600160a01b0319166001600160a01b03909216919091179055601880548290811061459057614590615101565b600091825260209182902001546040518481526001600160a01b03909116917f8dcb1b46b7e05dd96ecd3ae5f7b77b7c6e369f8ced83a2ab24368c4f8e16b8c9910160405180910390a260408051600081526020810191829052516145f791601891615097565b50505050565b816001600160a01b0316836001600160a01b031614156146715760405162461bcd60e51b815260206004820152602960248201527f455243313135353a2073657474696e6720617070726f76616c20737461747573604482015268103337b91039b2b63360b91b606482015260840161104b565b6001600160a01b03838116600081815260016020908152604080832094871680845294825291829020805460ff191686151590811790915591519182527f17307eab39ab6107e8899845ad3d59bd9653f200f220920489ca2b5937696c31910160405180910390a3505050565b6000816040516020016146f19190615c92565b60405160208183030381529060405280519060200120836040516020016147189190615c92565b6040516020818303038152906040528051906020012014905092915050565b60007f00000000000000000000000000000000000000000000000000000000000000006001600160a01b0316634000aea07f0000000000000000000000000000000000000000000000000000000000000000848660006040516020016147a7929190918252602082015260400190565b6040516020818303038152906040526040518463ffffffff1660e01b81526004016147d493929190615cae565b6020604051808303816000875af11580156147f3573d6000803e3d6000fd5b505050506040513d601f19601f820116820180604052508101906148179190615cd5565b50600083815260046020818152604080842054815180840189905280830186905230606082015260808082018390528351808303909101815260a09091019092528151918301919091209387905291905261487390600161512d565b6000858152600460205260409020556110da8482604080516020808201949094528082019290925280518083038201815260609092019052805191012090565b60006148c26201518083615b23565b6148cc908461512d565b90508281101561107757600080fd5b6001600160a01b03841661493f5760405162461bcd60e51b815260206004820152602560248201527f455243313135353a207472616e7366657220746f20746865207a65726f206164604482015264647265737360d81b606482015260840161104b565b3361494f81878761406788614d2b565b6000848152602081815260408083206001600160a01b038a168452909152902054838110156149905760405162461bcd60e51b815260040161104b90615c23565b6000858152602081815260408083206001600160a01b038b81168552925280832087850390559088168252812080548692906149cd90849061512d565b909155505060408051868152602081018690526001600160a01b03808916928a821692918616917fc3d58168c5ae7397731d063d5bbf3d657854427343f4c083240f7aacaa2d0f62910160405180910390a4614a2d828888888888614dde565b50505050505050565b805182516000911115614a4b57506000611077565b816020015183602001511415614a6357506001611077565b508051602092830151929091015181902091201490565b60006107b2841015614a8b57600080fd5b838383600062253d8c60046064600c614aa5600e88615cf2565b614aaf9190615d31565b614abb88611324615d5f565b614ac59190615d5f565b614acf9190615d31565b614ada906003615da0565b614ae49190615d31565b600c80614af2600e88615cf2565b614afc9190615d31565b614b0790600c615da0565b614b12600288615cf2565b614b1c9190615cf2565b614b289061016f615da0565b614b329190615d31565b6004600c614b41600e89615cf2565b614b4b9190615d31565b614b57896112c0615d5f565b614b619190615d5f565b614b6d906105b5615da0565b614b779190615d31565b614b83617d4b87615cf2565b614b8d9190615d5f565b614b979190615d5f565b614ba19190615cf2565b614bab9190615cf2565b98975050505050505050565b60008080838162253d8c614bce8362010bd9615d5f565b614bd89190615d5f565b9050600062023ab1614beb836004615da0565b614bf59190615d31565b90506004614c068262023ab1615da0565b614c11906003615d5f565b614c1b9190615d31565b614c259083615cf2565b9150600062164b09614c38846001615d5f565b614c4490610fa0615da0565b614c4e9190615d31565b90506004614c5e826105b5615da0565b614c689190615d31565b614c729084615cf2565b614c7d90601f615d5f565b9250600061098f614c8f856050615da0565b614c999190615d31565b905060006050614cab8361098f615da0565b614cb59190615d31565b614cbf9086615cf2565b9050614ccc600b83615d31565b9450614cd985600c615da0565b614ce4836002615d5f565b614cee9190615cf2565b91508483614cfd603187615cf2565b614d08906064615da0565b614d129190615d5f565b614d1c9190615d5f565b9a919950975095505050505050565b60408051600180825281830190925260609160009190602080830190803683370190505090508281600081518110614d6557614d65615101565b602090810291909101015292915050565b60035460ff16156121715760405162461bcd60e51b815260206004820152602c60248201527f455243313135355061757361626c653a20746f6b656e207472616e736665722060448201526b1dda1a5b19481c185d5cd95960a21b606482015260840161104b565b6001600160a01b0384163b156121715760405163f23a6e6160e01b81526001600160a01b0385169063f23a6e6190614e229089908990889088908890600401615e25565b6020604051808303816000875af1925050508015614e5d575060408051601f3d908101601f19168201909252614e5a91810190615e6a565b60015b614f0a57614e69615e87565b806308c379a01415614ea35750614e7e615ea2565b80614e895750614ea5565b8060405162461bcd60e51b815260040161104b9190615242565b505b60405162461bcd60e51b815260206004820152603460248201527f455243313135353a207472616e7366657220746f206e6f6e20455243313135356044820152732932b1b2b4bb32b91034b6b83632b6b2b73a32b960611b606482015260840161104b565b6001600160e01b0319811663f23a6e6160e01b14614a2d5760405162461bcd60e51b815260040161104b90615f2b565b6001600160a01b0384163b156121715760405163bc197c8160e01b81526001600160a01b0385169063bc197c8190614f7e9089908990889088908890600401615f73565b6020604051808303816000875af1925050508015614fb9575060408051601f3d908101601f19168201909252614fb691810190615e6a565b60015b614fc557614e69615e87565b6001600160e01b0319811663bc197c8160e01b14614a2d5760405162461bcd60e51b815260040161104b90615f2b565b6040518060a001604052806005906020820280368337509192915050565b82805461501f90615a5d565b90600052602060002090601f0160209004810192826150415760008555615087565b82601f1061505a57805160ff1916838001178555615087565b82800160010185558215615087579182015b8281111561508757825182559160200191906001019061506c565b506150939291506150ec565b5090565b828054828255906000526020600020908101928215615087579160200282015b8281111561508757825182546001600160a01b0319166001600160a01b039091161782556020909201916001909101906150b7565b5b8082111561509357600081556001016150ed565b634e487b7160e01b600052603260045260246000fd5b634e487b7160e01b600052601160045260246000fd5b6000821982111561514057615140615117565b500190565b80356001600160a01b038116811461515c57600080fd5b919050565b6000806040838503121561517457600080fd5b61517d83615145565b946020939093013593505050565b6001600160e01b0319811681146138a157600080fd5b6000602082840312156151b357600080fd5b81356124558161518b565b6000806000606084860312156151d357600080fd5b505081359360208301359350604090920135919050565b60005b838110156152055781810151838201526020016151ed565b838111156145f75750506000910152565b6000815180845261522e8160208601602086016151ea565b601f01601f19169290920160200192915050565b6020815260006124556020830184615216565b60006020828403121561526757600080fd5b5035919050565b60006020828403121561528057600080fd5b61245582615145565b600081518084526020808501945080840160005b838110156152b95781518752958201959082019060010161529d565b509495945050505050565b600081518084526020808501945080840160005b838110156152b95781516001600160a01b0316875295820195908201906001016152d8565b6040815260006153106040830185615289565b82810360208401526135b681856152c4565b6000806000806080858703121561533857600080fd5b84359350602085013592506040850135915061535660608601615145565b905092959194509250565b634e487b7160e01b600052604160045260246000fd5b601f8201601f191681016001600160401b038111828210171561539c5761539c615361565b6040525050565b60006001600160401b038211156153bc576153bc615361565b5060051b60200190565b600082601f8301126153d757600080fd5b813560206153e4826153a3565b6040516153f18282615377565b83815260059390931b850182019282810191508684111561541157600080fd5b8286015b8481101561542c5780358352918301918301615415565b509695505050505050565b600082601f83011261544857600080fd5b81356001600160401b0381111561546157615461615361565b604051615478601f8301601f191660200182615377565b81815284602083860101111561548d57600080fd5b816020850160208301376000918101602001919091529392505050565b600080600080600060a086880312156154c257600080fd5b6154cb86615145565b94506154d960208701615145565b935060408601356001600160401b03808211156154f557600080fd5b61550189838a016153c6565b9450606088013591508082111561551757600080fd5b61552389838a016153c6565b9350608088013591508082111561553957600080fd5b5061554688828901615437565b9150509295509295909350565b80356005811061515c57600080fd5b6000806040838503121561557557600080fd5b8235915061558560208401615553565b90509250929050565b600080604083850312156155a157600080fd5b50508035926020909101359150565b634e487b7160e01b600052602160045260246000fd5b60208101600583106155e857634e487b7160e01b600052602160045260246000fd5b91905290565b6000806040838503121561560157600080fd5b82356001600160401b038082111561561857600080fd5b818501915085601f83011261562c57600080fd5b81356020615639826153a3565b6040516156468282615377565b83815260059390931b850182019282810191508984111561566657600080fd5b948201945b8386101561568b5761567c86615145565b8252948201949082019061566b565b965050860135925050808211156156a157600080fd5b506156ae858286016153c6565b9150509250929050565b6020815260006124556020830184615289565b600080604083850312156156de57600080fd5b8235915060208301356001600160401b038111156156fb57600080fd5b6156ae85828601615437565b6000806000806080858703121561571d57600080fd5b84356001600160401b038082111561573457600080fd5b61574088838901615437565b9550602087013591508082111561575657600080fd5b61576288838901615437565b9450604087013591508082111561577857600080fd5b61578488838901615437565b9350606087013591508082111561579a57600080fd5b506157a787828801615437565b91505092959194509250565b80151581146138a157600080fd5b600080604083850312156157d457600080fd5b6157dd83615145565b915060208301356157ed816157b3565b809150509250929050565b600080600080600080600060e0888a03121561581357600080fd5b87359650602080890135965060408901359550606089013594506080890135935060a0890135925060c08901356001600160401b0381111561585457600080fd5b8901601f81018b1361586557600080fd5b8035615870816153a3565b60405161587d8282615377565b82815260059290921b830184019184810191508d83111561589d57600080fd5b928401925b828410156158c2576158b384615553565b825292840192908401906158a2565b809550505050505092959891949750929550565b600080604083850312156158e957600080fd5b6158f283615145565b915061558560208401615145565b60208152600061245560208301846152c4565b60006020828403121561592557600080fd5b8135612455816157b3565b600080600080600060a0868803121561594857600080fd5b61595186615145565b945061595f60208701615145565b9350604086013592506060860135915060808601356001600160401b0381111561598857600080fd5b61554688828901615437565b600080600080600080600060e0888a0312156159af57600080fd5b87359650602088013595506040880135945060608801356001600160401b03808211156159db57600080fd5b6159e78b838c01615437565b955060808a01359150808211156159fd57600080fd5b615a098b838c01615437565b945060a08a0135915080821115615a1f57600080fd5b615a2b8b838c01615437565b935060c08a0135915080821115615a4157600080fd5b50615a4e8a828b01615437565b91505092959891949750929550565b600181811c90821680615a7157607f821691505b6020821081141561333e57634e487b7160e01b600052602260045260246000fd5b6000600019821415615aa657615aa6615117565b5060010190565b6020808252818101527f4f776e61626c653a2063616c6c6572206973206e6f7420746865206f776e6572604082015260600190565b60208082526010908201526f14185d5cd8589b194e881c185d5cd95960821b604082015260600190565b600082821015615b1e57615b1e615117565b500390565b6000816000190483118215151615615b3d57615b3d615117565b500290565b634e487b7160e01b600052601260045260246000fd5b600082615b6757615b67615b42565b500490565b60208082526003908201526265313160e81b604082015260600190565b602080825260029082015261653160f01b604082015260600190565b805169ffffffffffffffffffff8116811461515c57600080fd5b600080600080600060a08688031215615bd757600080fd5b615be086615ba5565b9450602086015193506040860151925060608601519150615c0360808701615ba5565b90509295509295909350565b600082615c1e57615c1e615b42565b500690565b6020808252602a908201527f455243313135353a20696e73756666696369656e742062616c616e636520666f60408201526939103a3930b739b332b960b11b606082015260800190565b604081526000615c806040830185615289565b82810360208401526135b68185615289565b60008251615ca48184602087016151ea565b9190910192915050565b60018060a01b03841681528260208201526060604082015260006135b66060830184615216565b600060208284031215615ce757600080fd5b8151612455816157b3565b60008083128015600160ff1b850184121615615d1057615d10615117565b6001600160ff1b0384018313811615615d2b57615d2b615117565b50500390565b600082615d4057615d40615b42565b600160ff1b821460001984141615615d5a57615d5a615117565b500590565b600080821280156001600160ff1b0384900385131615615d8157615d81615117565b600160ff1b8390038412811615615d9a57615d9a615117565b50500190565b60006001600160ff1b0381841382841380821686840486111615615dc657615dc6615117565b600160ff1b6000871282811687830589121615615de557615de5615117565b60008712925087820587128484161615615e0157615e01615117565b87850587128184161615615e1757615e17615117565b505050929093029392505050565b6001600160a01b03868116825285166020820152604081018490526060810183905260a060808201819052600090615e5f90830184615216565b979650505050505050565b600060208284031215615e7c57600080fd5b81516124558161518b565b600060033d11156131be5760046000803e5060005160e01c90565b600060443d1015615eb05790565b6040516003193d81016004833e81513d6001600160401b038160248401118184111715615edf57505050505090565b8285019150815181811115615ef75750505050505090565b843d8701016020828501011115615f115750505050505090565b615f2060208286010187615377565b509095945050505050565b60208082526028908201527f455243313135353a204552433131353552656365697665722072656a656374656040820152676420746f6b656e7360c01b606082015260800190565b6001600160a01b0386811682528516602082015260a060408201819052600090615f9f90830186615289565b8281036060840152615fb18186615289565b90508281036080840152614bab818561521656fea26469706673582212207a3cab095e98f5250aa512d626427b619e0e13795843a1ab39ad92aa4dee999364736f6c634300080b003368747470733a2f2f6d656d6f72697a65746869736461792e6769746875622e696f2f4254432f7b69647d2e6a736f6e","bytecodeSha1":"40afdb159b5d894d0c49ede00f20277581d3be5c","compiler":{"evm_version":"istanbul","optimizer":{"enabled":true,"runs":200},"version":"0.8.11+commit.d7f03943"},"contractName":"MemorizeThisDayOnBTC","language":"Solidity","natspec":{"kind":"dev","methods":{"balanceOf(address,uint256)":{"details":"See {IERC1155-balanceOf}. Requirements: - `account` cannot be the zero address."},"balanceOfBatch(address[],uint256[])":{"details":"See {IERC1155-balanceOfBatch}. Requirements: - `accounts` and `ids` must have the same length."},"isApprovedForAll(address,address)":{"details":"See {IERC1155-isApprovedForAll}."},"owner()":{"details":"Returns the address of the current owner."},"paused()":{"details":"Returns true if the contract is paused, and false otherwise."},"renounceOwnership()":{"details":"Leaves the contract without owner. It will not be possible to call `onlyOwner` functions anymore. Can only be called by the current owner. NOTE: Renouncing ownership will leave the contract without an owner, thereby removing any functionality that is only available to the owner."},"safeBatchTransferFrom(address,address,uint256[],uint256[],bytes)":{"details":"See {IERC1155-safeBatchTransferFrom}."},"safeTransferFrom(address,address,uint256,uint256,bytes)":{"details":"See {IERC1155-safeTransferFrom}."},"setApprovalForAll(address,bool)":{"details":"See {IERC1155-setApprovalForAll}."},"supportsInterface(bytes4)":{"details":"See {IERC165-supportsInterface}."},"transferOwnership(address)":{"details":"Transfers ownership of the contract to a new account (`newOwner`). Can only be called by the current owner."},"uri(uint256)":{"details":"See {IERC1155MetadataURI-uri}. This implementation returns the same URI for *all* token types. It relies on the token type ID substitution mechanism https://eips.ethereum.org/EIPS/eip-1155#metadata[defined in the EIP]. Clients calling this function must replace the `\\{id\\}` substring with the actual token type ID."}},"version":1},"opcodes":"PUSH1 0x80 PUSH1 0x40 MSTORE PUSH1 0x4 CALLDATASIZE LT PUSH2 0x4EB JUMPI PUSH1 0x0 CALLDATALOAD PUSH1 0xE0 SHR DUP1 PUSH4 0x6D5433E6 GT PUSH2 0x28C JUMPI DUP1 PUSH4 0xC771285B GT PUSH2 0x15A JUMPI DUP1 PUSH4 0xE985E9C5 GT PUSH2 0xCC JUMPI DUP1 PUSH4 0xF1F0BEFE GT PUSH2 0x85 JUMPI DUP1 PUSH4 0xF1F0BEFE EQ PUSH2 0xF39 JUMPI DUP1 PUSH4 0xF242432A EQ PUSH2 0xF59 JUMPI DUP1 PUSH4 0xF2FDE38B EQ PUSH2 0xF79 JUMPI DUP1 PUSH4 0xF6A33E6D EQ PUSH2 0xF99 JUMPI DUP1 PUSH4 0xF8A433EC EQ PUSH2 0xFAE JUMPI DUP1 PUSH4 0xFA2B16CD EQ PUSH2 0xFC3 JUMPI PUSH2 0x4EB JUMP JUMPDEST DUP1 PUSH4 0xE985E9C5 EQ PUSH2 0xE5F JUMPI DUP1 PUSH4 0xE9CC3B54 EQ PUSH2 0xEA8 JUMPI DUP1 PUSH4 0xEE944BA7 EQ PUSH2 0xEBD JUMPI DUP1 PUSH4 0xEF813363 EQ PUSH2 0xEDF JUMPI DUP1 PUSH4 0xF074E34F EQ PUSH2 0xEF9 JUMPI DUP1 PUSH4 0xF0F206AA EQ PUSH2 0xF19 JUMPI PUSH2 0x4EB JUMP JUMPDEST DUP1 PUSH4 0xD973FC2E GT PUSH2 0x11E JUMPI DUP1 PUSH4 0xD973FC2E EQ PUSH2 0xD8D JUMPI DUP1 PUSH4 0xDBDAD464 EQ PUSH2 0xDAD JUMPI DUP1 PUSH4 0xDD2CEC7F EQ PUSH2 0xDCD JUMPI DUP1 PUSH4 0xE0B9A4AA EQ PUSH2 0xE03 JUMPI DUP1 PUSH4 0xE5A8A42F EQ PUSH2 0xE18 JUMPI DUP1 PUSH4 0xE5B429C0 EQ PUSH2 0xE45 JUMPI PUSH2 0x4EB JUMP JUMPDEST DUP1 PUSH4 0xC771285B EQ PUSH2 0xD17 JUMPI DUP1 PUSH4 0xC78A0B86 EQ PUSH2 0xD2D JUMPI DUP1 PUSH4 0xCB7812FD EQ PUSH2 0xD42 JUMPI DUP1 PUSH4 0xD0791DE9 EQ PUSH2 0xD57 JUMPI DUP1 PUSH4 0xD50AC892 EQ PUSH2 0xD77 JUMPI PUSH2 0x4EB JUMP JUMPDEST DUP1 PUSH4 0x8DA5CB5B GT PUSH2 0x1FE JUMPI DUP1 PUSH4 0xA9665B7A GT PUSH2 0x1B7 JUMPI DUP1 PUSH4 0xA9665B7A EQ PUSH2 0xC76 JUMPI DUP1 PUSH4 0xAB32D594 EQ PUSH2 0xC8C JUMPI DUP1 PUSH4 0xAC0B78F2 EQ PUSH2 0xCA1 JUMPI DUP1 PUSH4 0xAC8DABA0 EQ PUSH2 0xCC1 JUMPI DUP1 PUSH4 0xB689AF84 EQ PUSH2 0xCD7 JUMPI DUP1 PUSH4 0xBD7B9BA5 EQ PUSH2 0xCF7 JUMPI PUSH2 0x4EB JUMP JUMPDEST DUP1 PUSH4 0x8DA5CB5B EQ PUSH2 0xBC8 JUMPI DUP1 PUSH4 0x92B56ABB EQ PUSH2 0xBEB JUMPI DUP1 PUSH4 0x93E51B64 EQ PUSH2 0xC00 JUMPI DUP1 PUSH4 0x94985DDD EQ PUSH2 0xC16 JUMPI DUP1 PUSH4 0xA22CB465 EQ PUSH2 0xC36 JUMPI DUP1 PUSH4 0xA42616E8 EQ PUSH2 0xC56 JUMPI PUSH2 0x4EB JUMP JUMPDEST DUP1 PUSH4 0x717C2F5F GT PUSH2 0x250 JUMPI DUP1 PUSH4 0x717C2F5F EQ PUSH2 0xB3D JUMPI DUP1 PUSH4 0x7AB36B53 EQ PUSH2 0xB52 JUMPI DUP1 PUSH4 0x7EF6D4A0 EQ PUSH2 0xB68 JUMPI DUP1 PUSH4 0x7F44A9BB EQ PUSH2 0x920 JUMPI DUP1 PUSH4 0x865117D7 EQ PUSH2 0xB95 JUMPI DUP1 PUSH4 0x8B3C3EF7 EQ PUSH2 0xBB5 JUMPI PUSH2 0x4EB JUMP JUMPDEST DUP1 PUSH4 0x6D5433E6 EQ PUSH2 0xAA6 JUMPI DUP1 PUSH4 0x6E21FC87 EQ PUSH2 0xAC6 JUMPI DUP1 PUSH4 0x6E9F2B4B EQ PUSH2 0xAF3 JUMPI DUP1 PUSH4 0x70E44C6A EQ PUSH2 0xB13 JUMPI DUP1 PUSH4 0x715018A6 EQ PUSH2 0xB28 JUMPI PUSH2 0x4EB JUMP JUMPDEST DUP1 PUSH4 0x2EB2C2D6 GT PUSH2 0x3C9 JUMPI DUP1 PUSH4 0x4E3412B2 GT PUSH2 0x33B JUMPI DUP1 PUSH4 0x5E3F5422 GT PUSH2 0x2F4 JUMPI DUP1 PUSH4 0x5E3F5422 EQ PUSH2 0xA0B JUMPI DUP1 PUSH4 0x5FD00CA2 EQ PUSH2 0xA20 JUMPI DUP1 PUSH4 0x617D15A5 EQ PUSH2 0xA36 JUMPI DUP1 PUSH4 0x659D8D4E EQ PUSH2 0xA56 JUMPI DUP1 PUSH4 0x65CE6454 EQ PUSH2 0xA86 JUMPI DUP1 PUSH4 0x6A1C3F20 EQ PUSH2 0x920 JUMPI PUSH2 0x4EB JUMP JUMPDEST DUP1 PUSH4 0x4E3412B2 EQ PUSH2 0x978 JUMPI DUP1 PUSH4 0x53177E66 EQ PUSH2 0x98E JUMPI DUP1 PUSH4 0x53C3A995 EQ PUSH2 0x9B3 JUMPI DUP1 PUSH4 0x53C9A482 EQ PUSH2 0x591 JUMPI DUP1 PUSH4 0x56F2520D EQ PUSH2 0x9D3 JUMPI DUP1 PUSH4 0x5C975ABB EQ PUSH2 0x9F3 JUMPI PUSH2 0x4EB JUMP JUMPDEST DUP1 PUSH4 0x38D92617 GT PUSH2 0x38D JUMPI DUP1 PUSH4 0x38D92617 EQ PUSH2 0x8CA JUMPI DUP1 PUSH4 0x3CD21817 EQ PUSH2 0x8EA JUMPI DUP1 PUSH4 0x4140524D EQ PUSH2 0x900 JUMPI DUP1 PUSH4 0x4954D2EC EQ PUSH2 0x920 JUMPI DUP1 PUSH4 0x49B82943 EQ PUSH2 0x935 JUMPI DUP1 PUSH4 0x4E1273F4 EQ PUSH2 0x94B JUMPI PUSH2 0x4EB JUMP JUMPDEST DUP1 PUSH4 0x2EB2C2D6 EQ PUSH2 0x7FE JUMPI DUP1 PUSH4 0x303DD553 EQ PUSH2 0x81E JUMPI DUP1 PUSH4 0x308620E2 EQ PUSH2 0x834 JUMPI DUP1 PUSH4 0x340D899A EQ PUSH2 0x86C JUMPI DUP1 PUSH4 0x36BB86B3 EQ PUSH2 0x882 JUMPI PUSH2 0x4EB JUMP JUMPDEST DUP1 PUSH4 0x1A513C9D GT PUSH2 0x462 JUMPI DUP1 PUSH4 0x234D7B8D GT PUSH2 0x426 JUMPI DUP1 PUSH4 0x234D7B8D EQ PUSH2 0x76A JUMPI DUP1 PUSH4 0x28F50905 EQ PUSH2 0x780 JUMPI DUP1 PUSH4 0x29948B27 EQ PUSH2 0x7A0 JUMPI DUP1 PUSH4 0x2A213DCB EQ PUSH2 0x7B5 JUMPI DUP1 PUSH4 0x2A9337D0 EQ PUSH2 0x7CB JUMPI DUP1 PUSH4 0x2AECA614 EQ PUSH2 0x7EB JUMPI PUSH2 0x4EB JUMP JUMPDEST DUP1 PUSH4 0x1A513C9D EQ PUSH2 0x6B8 JUMPI DUP1 PUSH4 0x1AA98354 EQ PUSH2 0x6E5 JUMPI DUP1 PUSH4 0x1C8108B1 EQ PUSH2 0x708 JUMPI DUP1 PUSH4 0x1D65BD1B EQ PUSH2 0x71F JUMPI DUP1 PUSH4 0x1D6C263C EQ PUSH2 0x755 JUMPI PUSH2 0x4EB JUMP JUMPDEST DUP1 PUSH4 0x6389CA1 GT PUSH2 0x4B4 JUMPI DUP1 PUSH4 0x6389CA1 EQ PUSH2 0x5DC JUMPI DUP1 PUSH4 0x7D6A560 EQ PUSH2 0x614 JUMPI DUP1 PUSH4 0x9FDD5A3 EQ PUSH2 0x636 JUMPI DUP1 PUSH4 0xA6A001C EQ PUSH2 0x64B JUMPI DUP1 PUSH4 0xE89341C EQ PUSH2 0x66B JUMPI DUP1 PUSH4 0x13887D95 EQ PUSH2 0x68B JUMPI PUSH2 0x4EB JUMP JUMPDEST DUP1 PUSH3 0xFDD58E EQ PUSH2 0x52E JUMPI DUP1 PUSH4 0x1FFC9A7 EQ PUSH2 0x561 JUMPI DUP1 PUSH4 0x3029E7D EQ PUSH2 0x591 JUMPI DUP1 PUSH4 0x37A2414 EQ PUSH2 0x5A6 JUMPI DUP1 PUSH4 0x387DA42 EQ PUSH2 0x5C6 JUMPI JUMPDEST PUSH1 0x28 SLOAD PUSH1 0x1 PUSH1 0x1 PUSH1 0xA0 SHL SUB AND PUSH1 0x0 SWAP1 DUP2 MSTORE PUSH1 0x2A PUSH1 0x20 MSTORE PUSH1 0x40 SWAP1 KECCAK256 SLOAD PUSH2 0x511 SWAP1 CALLVALUE SWAP1 PUSH2 0x512D JUMP JUMPDEST PUSH1 0x28 SLOAD PUSH1 0x1 PUSH1 0x1 PUSH1 0xA0 SHL SUB AND PUSH1 0x0 SWAP1 DUP2 MSTORE PUSH1 0x2A PUSH1 0x20 MSTORE PUSH1 0x40 SWAP1 KECCAK256 SSTORE STOP JUMPDEST CALLVALUE DUP1 ISZERO PUSH2 0x53A JUMPI PUSH1 0x0 DUP1 REVERT JUMPDEST POP PUSH2 0x54E PUSH2 0x549 CALLDATASIZE PUSH1 0x4 PUSH2 0x5161 JUMP JUMPDEST PUSH2 0xFE3 JUMP JUMPDEST PUSH1 0x40 MLOAD SWAP1 DUP2 MSTORE PUSH1 0x20 ADD JUMPDEST PUSH1 0x40 MLOAD DUP1 SWAP2 SUB SWAP1 RETURN JUMPDEST CALLVALUE DUP1 ISZERO PUSH2 0x56D JUMPI PUSH1 0x0 DUP1 REVERT JUMPDEST POP PUSH2 0x581 PUSH2 0x57C CALLDATASIZE PUSH1 0x4 PUSH2 0x51A1 JUMP JUMPDEST PUSH2 0x107D JUMP JUMPDEST PUSH1 0x40 MLOAD SWAP1 ISZERO ISZERO DUP2 MSTORE PUSH1 0x20 ADD PUSH2 0x558 JUMP JUMPDEST CALLVALUE DUP1 ISZERO PUSH2 0x59D JUMPI PUSH1 0x0 DUP1 REVERT JUMPDEST POP PUSH2 0x54E PUSH1 0x1E DUP2 JUMP JUMPDEST CALLVALUE DUP1 ISZERO PUSH2 0x5B2 JUMPI PUSH1 0x0 DUP1 REVERT JUMPDEST POP PUSH2 0x54E PUSH2 0x5C1 CALLDATASIZE PUSH1 0x4 PUSH2 0x51BE JUMP JUMPDEST PUSH2 0x10CD JUMP JUMPDEST CALLVALUE DUP1 ISZERO PUSH2 0x5D2 JUMPI PUSH1 0x0 DUP1 REVERT JUMPDEST POP PUSH2 0x54E PUSH1 0x16 SLOAD DUP2 JUMP JUMPDEST CALLVALUE DUP1 ISZERO PUSH2 0x5E8 JUMPI PUSH1 0x0 DUP1 REVERT JUMPDEST POP PUSH2 0x5FC PUSH2 0x5F7 CALLDATASIZE PUSH1 0x4 PUSH2 0x51BE JUMP JUMPDEST PUSH2 0x10E2 JUMP JUMPDEST PUSH1 0x40 MLOAD PUSH1 0x1 PUSH1 0x1 PUSH1 0xA0 SHL SUB SWAP1 SWAP2 AND DUP2 MSTORE PUSH1 0x20 ADD PUSH2 0x558 JUMP JUMPDEST CALLVALUE DUP1 ISZERO PUSH2 0x620 JUMPI PUSH1 0x0 DUP1 REVERT JUMPDEST POP PUSH2 0x629 PUSH2 0x1111 JUMP JUMPDEST PUSH1 0x40 MLOAD PUSH2 0x558 SWAP2 SWAP1 PUSH2 0x5242 JUMP JUMPDEST CALLVALUE DUP1 ISZERO PUSH2 0x642 JUMPI PUSH1 0x0 DUP1 REVERT JUMPDEST POP PUSH1 0x18 SLOAD PUSH2 0x54E JUMP JUMPDEST CALLVALUE DUP1 ISZERO PUSH2 0x657 JUMPI PUSH1 0x0 DUP1 REVERT JUMPDEST POP PUSH2 0x54E PUSH2 0x666 CALLDATASIZE PUSH1 0x4 PUSH2 0x5255 JUMP JUMPDEST PUSH2 0x119F JUMP JUMPDEST CALLVALUE DUP1 ISZERO PUSH2 0x677 JUMPI PUSH1 0x0 DUP1 REVERT JUMPDEST POP PUSH2 0x629 PUSH2 0x686 CALLDATASIZE PUSH1 0x4 PUSH2 0x5255 JUMP JUMPDEST PUSH2 0x11C0 JUMP JUMPDEST CALLVALUE DUP1 ISZERO PUSH2 0x697 JUMPI PUSH1 0x0 DUP1 REVERT JUMPDEST POP PUSH2 0x54E PUSH2 0x6A6 CALLDATASIZE PUSH1 0x4 PUSH2 0x526E JUMP JUMPDEST PUSH1 0x2A PUSH1 0x20 MSTORE PUSH1 0x0 SWAP1 DUP2 MSTORE PUSH1 0x40 SWAP1 KECCAK256 SLOAD DUP2 JUMP JUMPDEST CALLVALUE DUP1 ISZERO PUSH2 0x6C4 JUMPI PUSH1 0x0 DUP1 REVERT JUMPDEST POP PUSH2 0x54E PUSH2 0x6D3 CALLDATASIZE PUSH1 0x4 PUSH2 0x526E JUMP JUMPDEST PUSH1 0x36 PUSH1 0x20 MSTORE PUSH1 0x0 SWAP1 DUP2 MSTORE PUSH1 0x40 SWAP1 KECCAK256 SLOAD DUP2 JUMP JUMPDEST CALLVALUE DUP1 ISZERO PUSH2 0x6F1 JUMPI PUSH1 0x0 DUP1 REVERT JUMPDEST POP PUSH2 0x6FA PUSH2 0x1254 JUMP JUMPDEST PUSH1 0x40 MLOAD PUSH2 0x558 SWAP3 SWAP2 SWAP1 PUSH2 0x52FD JUMP JUMPDEST CALLVALUE DUP1 ISZERO PUSH2 0x714 JUMPI PUSH1 0x0 DUP1 REVERT JUMPDEST POP PUSH2 0x71D PUSH2 0x13BF JUMP JUMPDEST STOP JUMPDEST CALLVALUE DUP1 ISZERO PUSH2 0x72B JUMPI PUSH1 0x0 DUP1 REVERT JUMPDEST POP PUSH2 0x5FC PUSH2 0x73A CALLDATASIZE PUSH1 0x4 PUSH2 0x5255 JUMP JUMPDEST PUSH1 0x35 PUSH1 0x20 MSTORE PUSH1 0x0 SWAP1 DUP2 MSTORE PUSH1 0x40 SWAP1 KECCAK256 SLOAD PUSH1 0x1 PUSH1 0x1 PUSH1 0xA0 SHL SUB AND DUP2 JUMP JUMPDEST CALLVALUE DUP1 ISZERO PUSH2 0x761 JUMPI PUSH1 0x0 DUP1 REVERT JUMPDEST POP PUSH2 0x71D PUSH2 0x140C JUMP JUMPDEST CALLVALUE DUP1 ISZERO PUSH2 0x776 JUMPI PUSH1 0x0 DUP1 REVERT JUMPDEST POP PUSH2 0x54E PUSH1 0x1F SLOAD DUP2 JUMP JUMPDEST CALLVALUE DUP1 ISZERO PUSH2 0x78C JUMPI PUSH1 0x0 DUP1 REVERT JUMPDEST POP PUSH2 0x5FC PUSH2 0x79B CALLDATASIZE PUSH1 0x4 PUSH2 0x5255 JUMP JUMPDEST PUSH2 0x19D6 JUMP JUMPDEST CALLVALUE DUP1 ISZERO PUSH2 0x7AC JUMPI PUSH1 0x0 DUP1 REVERT JUMPDEST POP PUSH2 0x629 PUSH2 0x19F6 JUMP JUMPDEST CALLVALUE DUP1 ISZERO PUSH2 0x7C1 JUMPI PUSH1 0x0 DUP1 REVERT JUMPDEST POP PUSH2 0x54E PUSH1 0x15 SLOAD DUP2 JUMP JUMPDEST CALLVALUE DUP1 ISZERO PUSH2 0x7D7 JUMPI PUSH1 0x0 DUP1 REVERT JUMPDEST POP PUSH1 0xA SLOAD PUSH2 0x5FC SWAP1 PUSH1 0x1 PUSH1 0x1 PUSH1 0xA0 SHL SUB AND DUP2 JUMP JUMPDEST PUSH2 0x71D PUSH2 0x7F9 CALLDATASIZE PUSH1 0x4 PUSH2 0x5322 JUMP JUMPDEST PUSH2 0x1A03 JUMP JUMPDEST CALLVALUE DUP1 ISZERO PUSH2 0x80A JUMPI PUSH1 0x0 DUP1 REVERT JUMPDEST POP PUSH2 0x71D PUSH2 0x819 CALLDATASIZE PUSH1 0x4 PUSH2 0x54AA JUMP JUMPDEST PUSH2 0x2179 JUMP JUMPDEST CALLVALUE DUP1 ISZERO PUSH2 0x82A JUMPI PUSH1 0x0 DUP1 REVERT JUMPDEST POP PUSH2 0x54E PUSH1 0x1B SLOAD DUP2 JUMP JUMPDEST CALLVALUE DUP1 ISZERO PUSH2 0x840 JUMPI PUSH1 0x0 DUP1 REVERT JUMPDEST POP PUSH2 0x54E PUSH2 0x84F CALLDATASIZE PUSH1 0x4 PUSH2 0x5562 JUMP JUMPDEST PUSH1 0x39 PUSH1 0x20 SWAP1 DUP2 MSTORE PUSH1 0x0 SWAP3 DUP4 MSTORE PUSH1 0x40 DUP1 DUP5 KECCAK256 SWAP1 SWAP2 MSTORE SWAP1 DUP3 MSTORE SWAP1 KECCAK256 SLOAD DUP2 JUMP JUMPDEST CALLVALUE DUP1 ISZERO PUSH2 0x878 JUMPI PUSH1 0x0 DUP1 REVERT JUMPDEST POP PUSH2 0x54E PUSH1 0x21 SLOAD DUP2 JUMP JUMPDEST CALLVALUE DUP1 ISZERO PUSH2 0x88E JUMPI PUSH1 0x0 DUP1 REVERT JUMPDEST POP PUSH2 0x8BD PUSH2 0x89D CALLDATASIZE PUSH1 0x4 PUSH2 0x558E JUMP JUMPDEST PUSH1 0x38 PUSH1 0x20 SWAP1 DUP2 MSTORE PUSH1 0x0 SWAP3 DUP4 MSTORE PUSH1 0x40 DUP1 DUP5 KECCAK256 SWAP1 SWAP2 MSTORE SWAP1 DUP3 MSTORE SWAP1 KECCAK256 SLOAD PUSH1 0xFF AND DUP2 JUMP JUMPDEST PUSH1 0x40 MLOAD PUSH2 0x558 SWAP2 SWAP1 PUSH2 0x55C6 JUMP JUMPDEST CALLVALUE DUP1 ISZERO PUSH2 0x8D6 JUMPI PUSH1 0x0 DUP1 REVERT JUMPDEST POP PUSH2 0x629 PUSH2 0x8E5 CALLDATASIZE PUSH1 0x4 PUSH2 0x5255 JUMP JUMPDEST PUSH2 0x2231 JUMP JUMPDEST CALLVALUE DUP1 ISZERO PUSH2 0x8F6 JUMPI PUSH1 0x0 DUP1 REVERT JUMPDEST POP PUSH2 0x54E PUSH1 0x1E SLOAD DUP2 JUMP JUMPDEST CALLVALUE DUP1 ISZERO PUSH2 0x90C JUMPI PUSH1 0x0 DUP1 REVERT JUMPDEST POP PUSH1 0x24 SLOAD PUSH2 0x5FC SWAP1 PUSH1 0x1 PUSH1 0x1 PUSH1 0xA0 SHL SUB AND DUP2 JUMP JUMPDEST CALLVALUE DUP1 ISZERO PUSH2 0x92C JUMPI PUSH1 0x0 DUP1 REVERT JUMPDEST POP PUSH2 0x54E PUSH1 0x5 DUP2 JUMP JUMPDEST CALLVALUE DUP1 ISZERO PUSH2 0x941 JUMPI PUSH1 0x0 DUP1 REVERT JUMPDEST POP PUSH2 0x54E PUSH1 0x8 SLOAD DUP2 JUMP JUMPDEST CALLVALUE DUP1 ISZERO PUSH2 0x957 JUMPI PUSH1 0x0 DUP1 REVERT JUMPDEST POP PUSH2 0x96B PUSH2 0x966 CALLDATASIZE PUSH1 0x4 PUSH2 0x55EE JUMP JUMPDEST PUSH2 0x224A JUMP JUMPDEST PUSH1 0x40 MLOAD PUSH2 0x558 SWAP2 SWAP1 PUSH2 0x56B8 JUMP JUMPDEST CALLVALUE DUP1 ISZERO PUSH2 0x984 JUMPI PUSH1 0x0 DUP1 REVERT JUMPDEST POP PUSH2 0x54E PUSH1 0xD SLOAD DUP2 JUMP JUMPDEST CALLVALUE DUP1 ISZERO PUSH2 0x99A JUMPI PUSH1 0x0 DUP1 REVERT JUMPDEST POP PUSH1 0x10 SLOAD PUSH2 0x5FC SWAP1 PUSH2 0x100 SWAP1 DIV PUSH1 0x1 PUSH1 0x1 PUSH1 0xA0 SHL SUB AND DUP2 JUMP JUMPDEST CALLVALUE DUP1 ISZERO PUSH2 0x9BF JUMPI PUSH1 0x0 DUP1 REVERT JUMPDEST POP PUSH2 0x5FC PUSH2 0x9CE CALLDATASIZE PUSH1 0x4 PUSH2 0x5255 JUMP JUMPDEST PUSH2 0x2373 JUMP JUMPDEST CALLVALUE DUP1 ISZERO PUSH2 0x9DF JUMPI PUSH1 0x0 DUP1 REVERT JUMPDEST POP PUSH2 0x629 PUSH2 0x9EE CALLDATASIZE PUSH1 0x4 PUSH2 0x5255 JUMP JUMPDEST PUSH2 0x239D JUMP JUMPDEST CALLVALUE DUP1 ISZERO PUSH2 0x9FF JUMPI PUSH1 0x0 DUP1 REVERT JUMPDEST POP PUSH1 0x3 SLOAD PUSH1 0xFF AND PUSH2 0x581 JUMP JUMPDEST CALLVALUE DUP1 ISZERO PUSH2 0xA17 JUMPI PUSH1 0x0 DUP1 REVERT JUMPDEST POP PUSH2 0x629 PUSH2 0x23B6 JUMP JUMPDEST CALLVALUE DUP1 ISZERO PUSH2 0xA2C JUMPI PUSH1 0x0 DUP1 REVERT JUMPDEST POP PUSH2 0x54E PUSH1 0x9 SLOAD DUP2 JUMP JUMPDEST CALLVALUE DUP1 ISZERO PUSH2 0xA42 JUMPI PUSH1 0x0 DUP1 REVERT JUMPDEST POP PUSH2 0x71D PUSH2 0xA51 CALLDATASIZE PUSH1 0x4 PUSH2 0x56CB JUMP JUMPDEST PUSH2 0x23C3 JUMP JUMPDEST CALLVALUE DUP1 ISZERO PUSH2 0xA62 JUMPI PUSH1 0x0 DUP1 REVERT JUMPDEST POP PUSH2 0x581 PUSH2 0xA71 CALLDATASIZE PUSH1 0x4 PUSH2 0x5255 JUMP JUMPDEST PUSH1 0x2E PUSH1 0x20 MSTORE PUSH1 0x0 SWAP1 DUP2 MSTORE PUSH1 0x40 SWAP1 KECCAK256 SLOAD PUSH1 0xFF AND DUP2 JUMP JUMPDEST CALLVALUE DUP1 ISZERO PUSH2 0xA92 JUMPI PUSH1 0x0 DUP1 REVERT JUMPDEST POP PUSH2 0x5FC PUSH2 0xAA1 CALLDATASIZE PUSH1 0x4 PUSH2 0x5255 JUMP JUMPDEST PUSH2 0x2433 JUMP JUMPDEST CALLVALUE DUP1 ISZERO PUSH2 0xAB2 JUMPI PUSH1 0x0 DUP1 REVERT JUMPDEST POP PUSH2 0x54E PUSH2 0xAC1 CALLDATASIZE PUSH1 0x4 PUSH2 0x558E JUMP JUMPDEST PUSH2 0x2443 JUMP JUMPDEST CALLVALUE DUP1 ISZERO PUSH2 0xAD2 JUMPI PUSH1 0x0 DUP1 REVERT JUMPDEST POP PUSH2 0x54E PUSH2 0xAE1 CALLDATASIZE PUSH1 0x4 PUSH2 0x526E JUMP JUMPDEST PUSH1 0x2B PUSH1 0x20 MSTORE PUSH1 0x0 SWAP1 DUP2 MSTORE PUSH1 0x40 SWAP1 KECCAK256 SLOAD DUP2 JUMP JUMPDEST CALLVALUE DUP1 ISZERO PUSH2 0xAFF JUMPI PUSH1 0x0 DUP1 REVERT JUMPDEST POP PUSH1 0x7 SLOAD PUSH2 0x5FC SWAP1 PUSH1 0x1 PUSH1 0x1 PUSH1 0xA0 SHL SUB AND DUP2 JUMP JUMPDEST CALLVALUE DUP1 ISZERO PUSH2 0xB1F JUMPI PUSH1 0x0 DUP1 REVERT JUMPDEST POP PUSH2 0x71D PUSH2 0x245C JUMP JUMPDEST CALLVALUE DUP1 ISZERO PUSH2 0xB34 JUMPI PUSH1 0x0 DUP1 REVERT JUMPDEST POP PUSH2 0x71D PUSH2 0x251B JUMP JUMPDEST CALLVALUE DUP1 ISZERO PUSH2 0xB49 JUMPI PUSH1 0x0 DUP1 REVERT JUMPDEST POP PUSH2 0x629 PUSH2 0x2555 JUMP JUMPDEST CALLVALUE DUP1 ISZERO PUSH2 0xB5E JUMPI PUSH1 0x0 DUP1 REVERT JUMPDEST POP PUSH2 0x54E PUSH1 0x17 SLOAD DUP2 JUMP JUMPDEST CALLVALUE DUP1 ISZERO PUSH2 0xB74 JUMPI PUSH1 0x0 DUP1 REVERT JUMPDEST POP PUSH2 0x54E PUSH2 0xB83 CALLDATASIZE PUSH1 0x4 PUSH2 0x5255 JUMP JUMPDEST PUSH1 0x2F PUSH1 0x20 MSTORE PUSH1 0x0 SWAP1 DUP2 MSTORE PUSH1 0x40 SWAP1 KECCAK256 SLOAD DUP2 JUMP JUMPDEST CALLVALUE DUP1 ISZERO PUSH2 0xBA1 JUMPI PUSH1 0x0 DUP1 REVERT JUMPDEST POP PUSH1 0x23 SLOAD PUSH2 0x5FC SWAP1 PUSH1 0x1 PUSH1 0x1 PUSH1 0xA0 SHL SUB AND DUP2 JUMP JUMPDEST PUSH2 0x71D PUSH2 0xBC3 CALLDATASIZE PUSH1 0x4 PUSH2 0x5707 JUMP JUMPDEST PUSH2 0x2562 JUMP JUMPDEST CALLVALUE DUP1 ISZERO PUSH2 0xBD4 JUMPI PUSH1 0x0 DUP1 REVERT JUMPDEST POP PUSH1 0x3 SLOAD PUSH2 0x100 SWAP1 DIV PUSH1 0x1 PUSH1 0x1 PUSH1 0xA0 SHL SUB AND PUSH2 0x5FC JUMP JUMPDEST CALLVALUE DUP1 ISZERO PUSH2 0xBF7 JUMPI PUSH1 0x0 DUP1 REVERT JUMPDEST POP PUSH2 0x629 PUSH2 0x2772 JUMP JUMPDEST CALLVALUE DUP1 ISZERO PUSH2 0xC0C JUMPI PUSH1 0x0 DUP1 REVERT JUMPDEST POP PUSH2 0x54E PUSH1 0x1C SLOAD DUP2 JUMP JUMPDEST CALLVALUE DUP1 ISZERO PUSH2 0xC22 JUMPI PUSH1 0x0 DUP1 REVERT JUMPDEST POP PUSH2 0x71D PUSH2 0xC31 CALLDATASIZE PUSH1 0x4 PUSH2 0x558E JUMP JUMPDEST PUSH2 0x277F JUMP JUMPDEST CALLVALUE DUP1 ISZERO PUSH2 0xC42 JUMPI PUSH1 0x0 DUP1 REVERT JUMPDEST POP PUSH2 0x71D PUSH2 0xC51 CALLDATASIZE PUSH1 0x4 PUSH2 0x57C1 JUMP JUMPDEST PUSH2 0x2801 JUMP JUMPDEST CALLVALUE DUP1 ISZERO PUSH2 0xC62 JUMPI PUSH1 0x0 DUP1 REVERT JUMPDEST POP PUSH2 0x71D PUSH2 0xC71 CALLDATASIZE PUSH1 0x4 PUSH2 0x57F8 JUMP JUMPDEST PUSH2 0x280C JUMP JUMPDEST CALLVALUE DUP1 ISZERO PUSH2 0xC82 JUMPI PUSH1 0x0 DUP1 REVERT JUMPDEST POP PUSH2 0x54E PUSH1 0x1A SLOAD DUP2 JUMP JUMPDEST CALLVALUE DUP1 ISZERO PUSH2 0xC98 JUMPI PUSH1 0x0 DUP1 REVERT JUMPDEST POP PUSH1 0x20 SLOAD PUSH2 0x54E JUMP JUMPDEST CALLVALUE DUP1 ISZERO PUSH2 0xCAD JUMPI PUSH1 0x0 DUP1 REVERT JUMPDEST POP PUSH2 0x629 PUSH2 0xCBC CALLDATASIZE PUSH1 0x4 PUSH2 0x5255 JUMP JUMPDEST PUSH2 0x2E59 JUMP JUMPDEST CALLVALUE DUP1 ISZERO PUSH2 0xCCD JUMPI PUSH1 0x0 DUP1 REVERT JUMPDEST POP PUSH2 0x54E PUSH1 0x1D SLOAD DUP2 JUMP JUMPDEST CALLVALUE DUP1 ISZERO PUSH2 0xCE3 JUMPI PUSH1 0x0 DUP1 REVERT JUMPDEST POP PUSH2 0x629 PUSH2 0xCF2 CALLDATASIZE PUSH1 0x4 PUSH2 0x526E JUMP JUMPDEST PUSH2 0x2E72 JUMP JUMPDEST CALLVALUE DUP1 ISZERO PUSH2 0xD03 JUMPI PUSH1 0x0 DUP1 REVERT JUMPDEST POP PUSH1 0x37 SLOAD PUSH2 0x5FC SWAP1 PUSH1 0x1 PUSH1 0x1 PUSH1 0xA0 SHL SUB AND DUP2 JUMP JUMPDEST CALLVALUE DUP1 ISZERO PUSH2 0xD23 JUMPI PUSH1 0x0 DUP1 REVERT JUMPDEST POP PUSH2 0x54E PUSH1 0xF SLOAD DUP2 JUMP JUMPDEST CALLVALUE DUP1 ISZERO PUSH2 0xD39 JUMPI PUSH1 0x0 DUP1 REVERT JUMPDEST POP PUSH2 0x54E PUSH1 0x19 DUP2 JUMP JUMPDEST CALLVALUE DUP1 ISZERO PUSH2 0xD4E JUMPI PUSH1 0x0 DUP1 REVERT JUMPDEST POP PUSH2 0x629 PUSH2 0x2E8B JUMP JUMPDEST CALLVALUE DUP1 ISZERO PUSH2 0xD63 JUMPI PUSH1 0x0 DUP1 REVERT JUMPDEST POP PUSH2 0x71D PUSH2 0xD72 CALLDATASIZE PUSH1 0x4 PUSH2 0x5161 JUMP JUMPDEST PUSH2 0x2E98 JUMP JUMPDEST CALLVALUE DUP1 ISZERO PUSH2 0xD83 JUMPI PUSH1 0x0 DUP1 REVERT JUMPDEST POP PUSH2 0x54E PUSH1 0x19 SLOAD DUP2 JUMP JUMPDEST CALLVALUE DUP1 ISZERO PUSH2 0xD99 JUMPI PUSH1 0x0 DUP1 REVERT JUMPDEST POP PUSH2 0x71D PUSH2 0xDA8 CALLDATASIZE PUSH1 0x4 PUSH2 0x558E JUMP JUMPDEST PUSH2 0x2F55 JUMP JUMPDEST CALLVALUE DUP1 ISZERO PUSH2 0xDB9 JUMPI PUSH1 0x0 DUP1 REVERT JUMPDEST POP PUSH2 0x71D PUSH2 0xDC8 CALLDATASIZE PUSH1 0x4 PUSH2 0x526E JUMP JUMPDEST PUSH2 0x3016 JUMP JUMPDEST CALLVALUE DUP1 ISZERO PUSH2 0xDD9 JUMPI PUSH1 0x0 DUP1 REVERT JUMPDEST POP PUSH2 0x5FC PUSH2 0xDE8 CALLDATASIZE PUSH1 0x4 PUSH2 0x5255 JUMP JUMPDEST PUSH1 0x2C PUSH1 0x20 MSTORE PUSH1 0x0 SWAP1 DUP2 MSTORE PUSH1 0x40 SWAP1 KECCAK256 SLOAD PUSH1 0x1 PUSH1 0x1 PUSH1 0xA0 SHL SUB AND DUP2 JUMP JUMPDEST CALLVALUE DUP1 ISZERO PUSH2 0xE0F JUMPI PUSH1 0x0 DUP1 REVERT JUMPDEST POP PUSH2 0x54E PUSH2 0x3126 JUMP JUMPDEST CALLVALUE DUP1 ISZERO PUSH2 0xE24 JUMPI PUSH1 0x0 DUP1 REVERT JUMPDEST POP PUSH2 0x54E PUSH2 0xE33 CALLDATASIZE PUSH1 0x4 PUSH2 0x5255 JUMP JUMPDEST PUSH1 0x2D PUSH1 0x20 MSTORE PUSH1 0x0 SWAP1 DUP2 MSTORE PUSH1 0x40 SWAP1 KECCAK256 SLOAD DUP2 JUMP JUMPDEST CALLVALUE DUP1 ISZERO PUSH2 0xE51 JUMPI PUSH1 0x0 DUP1 REVERT JUMPDEST POP PUSH1 0xE SLOAD PUSH2 0x581 SWAP1 PUSH1 0xFF AND DUP2 JUMP JUMPDEST CALLVALUE DUP1 ISZERO PUSH2 0xE6B JUMPI PUSH1 0x0 DUP1 REVERT JUMPDEST POP PUSH2 0x581 PUSH2 0xE7A CALLDATASIZE PUSH1 0x4 PUSH2 0x58D6 JUMP JUMPDEST PUSH1 0x1 PUSH1 0x1 PUSH1 0xA0 SHL SUB SWAP2 DUP3 AND PUSH1 0x0 SWAP1 DUP2 MSTORE PUSH1 0x1 PUSH1 0x20 SWAP1 DUP2 MSTORE PUSH1 0x40 DUP1 DUP4 KECCAK256 SWAP4 SWAP1 SWAP5 AND DUP3 MSTORE SWAP2 SWAP1 SWAP2 MSTORE KECCAK256 SLOAD PUSH1 0xFF AND SWAP1 JUMP JUMPDEST CALLVALUE DUP1 ISZERO PUSH2 0xEB4 JUMPI PUSH1 0x0 DUP1 REVERT JUMPDEST POP PUSH2 0x71D PUSH2 0x31C1 JUMP JUMPDEST CALLVALUE DUP1 ISZERO PUSH2 0xEC9 JUMPI PUSH1 0x0 DUP1 REVERT JUMPDEST POP PUSH2 0xED2 PUSH2 0x3278 JUMP JUMPDEST PUSH1 0x40 MLOAD PUSH2 0x558 SWAP2 SWAP1 PUSH2 0x5900 JUMP JUMPDEST CALLVALUE DUP1 ISZERO PUSH2 0xEEB JUMPI PUSH1 0x0 DUP1 REVERT JUMPDEST POP PUSH1 0x10 SLOAD PUSH2 0x581 SWAP1 PUSH1 0xFF AND DUP2 JUMP JUMPDEST CALLVALUE DUP1 ISZERO PUSH2 0xF05 JUMPI PUSH1 0x0 DUP1 REVERT JUMPDEST POP PUSH2 0x71D PUSH2 0xF14 CALLDATASIZE PUSH1 0x4 PUSH2 0x5913 JUMP JUMPDEST PUSH2 0x3344 JUMP JUMPDEST CALLVALUE DUP1 ISZERO PUSH2 0xF25 JUMPI PUSH1 0x0 DUP1 REVERT JUMPDEST POP PUSH2 0x54E PUSH2 0xF34 CALLDATASIZE PUSH1 0x4 PUSH2 0x51BE JUMP JUMPDEST PUSH2 0x3531 JUMP JUMPDEST CALLVALUE DUP1 ISZERO PUSH2 0xF45 JUMPI PUSH1 0x0 DUP1 REVERT JUMPDEST POP PUSH2 0x71D PUSH2 0xF54 CALLDATASIZE PUSH1 0x4 PUSH2 0x51BE JUMP JUMPDEST PUSH2 0x35BF JUMP JUMPDEST CALLVALUE DUP1 ISZERO PUSH2 0xF65 JUMPI PUSH1 0x0 DUP1 REVERT JUMPDEST POP PUSH2 0x71D PUSH2 0xF74 CALLDATASIZE PUSH1 0x4 PUSH2 0x5930 JUMP JUMPDEST PUSH2 0x3661 JUMP JUMPDEST CALLVALUE DUP1 ISZERO PUSH2 0xF85 JUMPI PUSH1 0x0 DUP1 REVERT JUMPDEST POP PUSH2 0x71D PUSH2 0xF94 CALLDATASIZE PUSH1 0x4 PUSH2 0x526E JUMP JUMPDEST PUSH2 0x3803 JUMP JUMPDEST CALLVALUE DUP1 ISZERO PUSH2 0xFA5 JUMPI PUSH1 0x0 DUP1 REVERT JUMPDEST POP PUSH2 0x71D PUSH2 0x38A4 JUMP JUMPDEST CALLVALUE DUP1 ISZERO PUSH2 0xFBA JUMPI PUSH1 0x0 DUP1 REVERT JUMPDEST POP PUSH2 0x54E PUSH2 0x39D7 JUMP JUMPDEST CALLVALUE DUP1 ISZERO PUSH2 0xFCF JUMPI PUSH1 0x0 DUP1 REVERT JUMPDEST POP PUSH2 0x71D PUSH2 0xFDE CALLDATASIZE PUSH1 0x4 PUSH2 0x5994 JUMP JUMPDEST PUSH2 0x3A8D JUMP JUMPDEST PUSH1 0x0 PUSH1 0x1 PUSH1 0x1 PUSH1 0xA0 SHL SUB DUP4 AND PUSH2 0x1054 JUMPI PUSH1 0x40 MLOAD PUSH3 0x461BCD PUSH1 0xE5 SHL DUP2 MSTORE PUSH1 0x20 PUSH1 0x4 DUP3 ADD MSTORE PUSH1 0x2B PUSH1 0x24 DUP3 ADD MSTORE PUSH32 0x455243313135353A2062616C616E636520717565727920666F7220746865207A PUSH1 0x44 DUP3 ADD MSTORE PUSH11 0x65726F2061646472657373 PUSH1 0xA8 SHL PUSH1 0x64 DUP3 ADD MSTORE PUSH1 0x84 ADD JUMPDEST PUSH1 0x40 MLOAD DUP1 SWAP2 SUB SWAP1 REVERT JUMPDEST POP PUSH1 0x0 DUP2 DUP2 MSTORE PUSH1 0x20 DUP2 DUP2 MSTORE PUSH1 0x40 DUP1 DUP4 KECCAK256 PUSH1 0x1 PUSH1 0x1 PUSH1 0xA0 SHL SUB DUP7 AND DUP5 MSTORE SWAP1 SWAP2 MSTORE SWAP1 KECCAK256 SLOAD JUMPDEST SWAP3 SWAP2 POP POP JUMP JUMPDEST PUSH1 0x0 PUSH1 0x1 PUSH1 0x1 PUSH1 0xE0 SHL SUB NOT DUP3 AND PUSH4 0x6CDB3D13 PUSH1 0xE1 SHL EQ DUP1 PUSH2 0x10AE JUMPI POP PUSH1 0x1 PUSH1 0x1 PUSH1 0xE0 SHL SUB NOT DUP3 AND PUSH4 0x3A24D07 PUSH1 0xE2 SHL EQ JUMPDEST DUP1 PUSH2 0x1077 JUMPI POP PUSH4 0x1FFC9A7 PUSH1 0xE0 SHL PUSH1 0x1 PUSH1 0x1 PUSH1 0xE0 SHL SUB NOT DUP4 AND EQ PUSH2 0x1077 JUMP JUMPDEST PUSH1 0x0 PUSH2 0x10DA DUP5 DUP5 DUP5 PUSH2 0x3E27 JUMP JUMPDEST SWAP5 SWAP4 POP POP POP POP JUMP JUMPDEST PUSH1 0x0 DUP1 PUSH2 0x10F0 DUP6 DUP6 DUP6 PUSH2 0x3E27 JUMP JUMPDEST PUSH1 0x0 SWAP1 DUP2 MSTORE PUSH1 0x2C PUSH1 0x20 MSTORE PUSH1 0x40 SWAP1 KECCAK256 SLOAD PUSH1 0x1 PUSH1 0x1 PUSH1 0xA0 SHL SUB AND SWAP6 SWAP5 POP POP POP POP POP JUMP JUMPDEST PUSH1 0x13 DUP1 SLOAD PUSH2 0x111E SWAP1 PUSH2 0x5A5D JUMP JUMPDEST DUP1 PUSH1 0x1F ADD PUSH1 0x20 DUP1 SWAP2 DIV MUL PUSH1 0x20 ADD PUSH1 0x40 MLOAD SWAP1 DUP2 ADD PUSH1 0x40 MSTORE DUP1 SWAP3 SWAP2 SWAP1 DUP2 DUP2 MSTORE PUSH1 0x20 ADD DUP3 DUP1 SLOAD PUSH2 0x114A SWAP1 PUSH2 0x5A5D JUMP JUMPDEST DUP1 ISZERO PUSH2 0x1197 JUMPI DUP1 PUSH1 0x1F LT PUSH2 0x116C JUMPI PUSH2 0x100 DUP1 DUP4 SLOAD DIV MUL DUP4 MSTORE SWAP2 PUSH1 0x20 ADD SWAP2 PUSH2 0x1197 JUMP JUMPDEST DUP3 ADD SWAP2 SWAP1 PUSH1 0x0 MSTORE PUSH1 0x20 PUSH1 0x0 KECCAK256 SWAP1 JUMPDEST DUP2 SLOAD DUP2 MSTORE SWAP1 PUSH1 0x1 ADD SWAP1 PUSH1 0x20 ADD DUP1 DUP4 GT PUSH2 0x117A JUMPI DUP3 SWAP1 SUB PUSH1 0x1F AND DUP3 ADD SWAP2 JUMPDEST POP POP POP POP POP DUP2 JUMP JUMPDEST PUSH1 0x20 DUP2 DUP2 SLOAD DUP2 LT PUSH2 0x11AF JUMPI PUSH1 0x0 DUP1 REVERT JUMPDEST PUSH1 0x0 SWAP2 DUP3 MSTORE PUSH1 0x20 SWAP1 SWAP2 KECCAK256 ADD SLOAD SWAP1 POP DUP2 JUMP JUMPDEST PUSH1 0x60 PUSH1 0x2 DUP1 SLOAD PUSH2 0x11CF SWAP1 PUSH2 0x5A5D JUMP JUMPDEST DUP1 PUSH1 0x1F ADD PUSH1 0x20 DUP1 SWAP2 DIV MUL PUSH1 0x20 ADD PUSH1 0x40 MLOAD SWAP1 DUP2 ADD PUSH1 0x40 MSTORE DUP1 SWAP3 SWAP2 SWAP1 DUP2 DUP2 MSTORE PUSH1 0x20 ADD DUP3 DUP1 SLOAD PUSH2 0x11FB SWAP1 PUSH2 0x5A5D JUMP JUMPDEST DUP1 ISZERO PUSH2 0x1248 JUMPI DUP1 PUSH1 0x1F LT PUSH2 0x121D JUMPI PUSH2 0x100 DUP1 DUP4 SLOAD DIV MUL DUP4 MSTORE SWAP2 PUSH1 0x20 ADD SWAP2 PUSH2 0x1248 JUMP JUMPDEST DUP3 ADD SWAP2 SWAP1 PUSH1 0x0 MSTORE PUSH1 0x20 PUSH1 0x0 KECCAK256 SWAP1 JUMPDEST DUP2 SLOAD DUP2 MSTORE SWAP1 PUSH1 0x1 ADD SWAP1 PUSH1 0x20 ADD DUP1 DUP4 GT PUSH2 0x122B JUMPI DUP3 SWAP1 SUB PUSH1 0x1F AND DUP3 ADD SWAP2 JUMPDEST POP POP POP POP POP SWAP1 POP SWAP2 SWAP1 POP JUMP JUMPDEST PUSH1 0x60 DUP1 PUSH1 0x0 PUSH1 0x20 DUP1 SLOAD SWAP1 POP PUSH1 0x1 PUSH1 0x1 PUSH1 0x40 SHL SUB DUP2 GT ISZERO PUSH2 0x1276 JUMPI PUSH2 0x1276 PUSH2 0x5361 JUMP JUMPDEST PUSH1 0x40 MLOAD SWAP1 DUP1 DUP3 MSTORE DUP1 PUSH1 0x20 MUL PUSH1 0x20 ADD DUP3 ADD PUSH1 0x40 MSTORE DUP1 ISZERO PUSH2 0x129F JUMPI DUP2 PUSH1 0x20 ADD PUSH1 0x20 DUP3 MUL DUP1 CALLDATASIZE DUP4 CALLDATACOPY ADD SWAP1 POP JUMPDEST POP PUSH1 0x20 SLOAD SWAP1 SWAP2 POP PUSH1 0x0 SWAP1 PUSH1 0x1 PUSH1 0x1 PUSH1 0x40 SHL SUB DUP2 GT ISZERO PUSH2 0x12C0 JUMPI PUSH2 0x12C0 PUSH2 0x5361 JUMP JUMPDEST PUSH1 0x40 MLOAD SWAP1 DUP1 DUP3 MSTORE DUP1 PUSH1 0x20 MUL PUSH1 0x20 ADD DUP3 ADD PUSH1 0x40 MSTORE DUP1 ISZERO PUSH2 0x12E9 JUMPI DUP2 PUSH1 0x20 ADD PUSH1 0x20 DUP3 MUL DUP1 CALLDATASIZE DUP4 CALLDATACOPY ADD SWAP1 POP JUMPDEST POP SWAP1 POP PUSH1 0x0 JUMPDEST PUSH1 0x20 SLOAD DUP2 LT ISZERO PUSH2 0x13B5 JUMPI PUSH1 0x20 DUP2 DUP2 SLOAD DUP2 LT PUSH2 0x130C JUMPI PUSH2 0x130C PUSH2 0x5101 JUMP JUMPDEST SWAP1 PUSH1 0x0 MSTORE PUSH1 0x20 PUSH1 0x0 KECCAK256 ADD SLOAD DUP4 DUP3 DUP2 MLOAD DUP2 LT PUSH2 0x1329 JUMPI PUSH2 0x1329 PUSH2 0x5101 JUMP JUMPDEST PUSH1 0x20 MUL PUSH1 0x20 ADD ADD DUP2 DUP2 MSTORE POP POP PUSH1 0x2C PUSH1 0x0 PUSH1 0x20 DUP4 DUP2 SLOAD DUP2 LT PUSH2 0x134C JUMPI PUSH2 0x134C PUSH2 0x5101 JUMP JUMPDEST SWAP1 PUSH1 0x0 MSTORE PUSH1 0x20 PUSH1 0x0 KECCAK256 ADD SLOAD DUP2 MSTORE PUSH1 0x20 ADD SWAP1 DUP2 MSTORE PUSH1 0x20 ADD PUSH1 0x0 KECCAK256 PUSH1 0x0 SWAP1 SLOAD SWAP1 PUSH2 0x100 EXP SWAP1 DIV PUSH1 0x1 PUSH1 0x1 PUSH1 0xA0 SHL SUB AND DUP3 DUP3 DUP2 MLOAD DUP2 LT PUSH2 0x138B JUMPI PUSH2 0x138B PUSH2 0x5101 JUMP JUMPDEST PUSH1 0x1 PUSH1 0x1 PUSH1 0xA0 SHL SUB SWAP1 SWAP3 AND PUSH1 0x20 SWAP3 DUP4 MUL SWAP2 SWAP1 SWAP2 ADD SWAP1 SWAP2 ADD MSTORE DUP1 PUSH2 0x13AD DUP2 PUSH2 0x5A92 JUMP JUMPDEST SWAP2 POP POP PUSH2 0x12EF JUMP JUMPDEST POP SWAP1 SWAP4 SWAP1 SWAP3 POP SWAP1 POP JUMP JUMPDEST PUSH1 0x3 SLOAD PUSH1 0x1 PUSH1 0x1 PUSH1 0xA0 SHL SUB PUSH2 0x100 SWAP1 SWAP2 DIV AND CALLER EQ PUSH2 0x13EF JUMPI PUSH1 0x40 MLOAD PUSH3 0x461BCD PUSH1 0xE5 SHL DUP2 MSTORE PUSH1 0x4 ADD PUSH2 0x104B SWAP1 PUSH2 0x5AAD JUMP JUMPDEST PUSH1 0x3 SLOAD PUSH1 0xFF AND ISZERO PUSH2 0x1404 JUMPI PUSH2 0x1402 PUSH2 0x3EE4 JUMP JUMPDEST JUMP JUMPDEST PUSH2 0x1402 PUSH2 0x3F77 JUMP JUMPDEST PUSH1 0x3 SLOAD PUSH1 0xFF AND ISZERO PUSH2 0x142F JUMPI PUSH1 0x40 MLOAD PUSH3 0x461BCD PUSH1 0xE5 SHL DUP2 MSTORE PUSH1 0x4 ADD PUSH2 0x104B SWAP1 PUSH2 0x5AE2 JUMP JUMPDEST PUSH1 0x1E PUSH2 0x143D PUSH1 0x1F SLOAD TIMESTAMP PUSH2 0x3FCF JUMP JUMPDEST LT ISZERO PUSH2 0x1471 JUMPI PUSH1 0x40 MLOAD PUSH3 0x461BCD PUSH1 0xE5 SHL DUP2 MSTORE PUSH1 0x20 PUSH1 0x4 DUP3 ADD MSTORE PUSH1 0x3 PUSH1 0x24 DUP3 ADD MSTORE PUSH3 0x653133 PUSH1 0xE8 SHL PUSH1 0x44 DUP3 ADD MSTORE PUSH1 0x64 ADD PUSH2 0x104B JUMP JUMPDEST PUSH1 0x0 PUSH2 0x147B PUSH2 0x3126 JUMP JUMPDEST PUSH1 0x37 SLOAD PUSH1 0x1 PUSH1 0x1 PUSH1 0xA0 SHL SUB AND PUSH1 0x0 SWAP1 DUP2 MSTORE PUSH1 0x36 PUSH1 0x20 MSTORE PUSH1 0x40 SWAP1 KECCAK256 SLOAD SWAP1 SWAP2 POP DUP2 GT ISZERO PUSH2 0x14CE JUMPI PUSH1 0x40 MLOAD PUSH3 0x461BCD PUSH1 0xE5 SHL DUP2 MSTORE PUSH1 0x20 PUSH1 0x4 DUP3 ADD MSTORE PUSH1 0x3 PUSH1 0x24 DUP3 ADD MSTORE PUSH3 0x194C4D PUSH1 0xEA SHL PUSH1 0x44 DUP3 ADD MSTORE PUSH1 0x64 ADD PUSH2 0x104B JUMP JUMPDEST PUSH1 0x7 SLOAD PUSH1 0x37 SLOAD PUSH1 0x1 PUSH1 0x1 PUSH1 0xA0 SHL SUB SWAP1 DUP2 AND SWAP2 AND EQ PUSH2 0x156A JUMPI PUSH1 0x37 SLOAD PUSH1 0x7 SLOAD PUSH1 0x40 MLOAD PUSH1 0x1 PUSH1 0x1 PUSH1 0xA0 SHL SUB SWAP3 DUP4 AND SWAP3 SWAP1 SWAP2 AND SWAP1 PUSH32 0xE70739823D1A1030055333E7BB502F88B41F9631ED3C87A09811FDB1A4ED0F83 SWAP1 PUSH1 0x0 SWAP1 LOG3 PUSH1 0x37 SLOAD PUSH1 0x7 DUP1 SLOAD PUSH1 0x1 PUSH1 0x1 PUSH1 0xA0 SHL SUB NOT AND PUSH1 0x1 PUSH1 0x1 PUSH1 0xA0 SHL SUB SWAP1 SWAP3 AND SWAP2 DUP3 OR SWAP1 SSTORE PUSH1 0x9 SLOAD PUSH1 0x8 SSTORE PUSH1 0x40 DUP1 MLOAD PUSH1 0x20 DUP2 ADD SWAP1 SWAP2 MSTORE PUSH1 0x0 DUP2 MSTORE PUSH2 0x156A SWAP2 SWAP1 PUSH1 0x1 SWAP1 DUP2 SWAP1 PUSH2 0x3FF6 JUMP JUMPDEST PUSH1 0x1 JUMPDEST PUSH1 0x3 DUP2 GT PUSH2 0x19A1 JUMPI PUSH2 0x157D PUSH2 0x4FF5 JUMP JUMPDEST PUSH1 0x0 DUP3 DUP2 MSTORE PUSH1 0x39 PUSH1 0x20 SWAP1 DUP2 MSTORE PUSH1 0x40 DUP1 DUP4 KECCAK256 DUP4 DUP1 MSTORE DUP1 DUP4 MSTORE DUP2 DUP5 KECCAK256 SLOAD DUP6 MSTORE PUSH1 0x1 DUP1 DUP6 MSTORE DUP2 DUP5 MSTORE DUP3 DUP6 KECCAK256 SLOAD DUP7 DUP6 ADD MSTORE PUSH1 0x2 DUP6 MSTORE DUP2 DUP5 MSTORE DUP3 DUP6 KECCAK256 SLOAD DUP7 DUP5 ADD MSTORE PUSH1 0x3 DUP6 MSTORE DUP2 DUP5 MSTORE DUP3 DUP6 KECCAK256 SLOAD PUSH1 0x60 DUP8 ADD MSTORE PUSH1 0x4 DUP6 MSTORE SWAP3 MSTORE DUP3 KECCAK256 SLOAD PUSH1 0x80 DUP5 ADD DUP2 SWAP1 MSTORE DUP4 MLOAD PUSH2 0x1605 SWAP3 PUSH2 0xAC1 SWAP2 PUSH2 0x15F4 SWAP2 DUP8 SWAP1 JUMPDEST PUSH1 0x20 MUL ADD MLOAD PUSH2 0x2443 JUMP JUMPDEST PUSH1 0x40 DUP7 ADD MLOAD PUSH2 0xAC1 SWAP1 DUP8 PUSH1 0x3 PUSH2 0x15EA JUMP JUMPDEST DUP3 MLOAD SWAP1 SWAP2 POP DUP2 EQ ISZERO PUSH2 0x1644 JUMPI PUSH1 0x0 JUMPDEST PUSH1 0x40 MLOAD DUP5 SWAP1 PUSH32 0x6F235CA67A520AA7BBE234E1490553D4DD8FC8F277D1E70E2F2E8B847858AE11 SWAP1 PUSH1 0x0 SWAP1 LOG3 PUSH2 0x192C JUMP JUMPDEST PUSH1 0x20 DUP3 ADD MLOAD DUP2 EQ ISZERO PUSH2 0x16F8 JUMPI PUSH1 0x0 PUSH1 0x2A PUSH1 0x0 PUSH1 0x25 DUP7 PUSH1 0x5 DUP2 LT PUSH2 0x1669 JUMPI PUSH2 0x1669 PUSH2 0x5101 JUMP JUMPDEST ADD SLOAD PUSH1 0x1 PUSH1 0x1 PUSH1 0xA0 SHL SUB AND DUP2 MSTORE PUSH1 0x20 DUP2 ADD SWAP2 SWAP1 SWAP2 MSTORE PUSH1 0x40 ADD PUSH1 0x0 SWAP1 DUP2 KECCAK256 SLOAD SWAP2 POP PUSH1 0x2A DUP2 PUSH1 0x25 DUP8 PUSH1 0x5 DUP2 LT PUSH2 0x169F JUMPI PUSH2 0x169F PUSH2 0x5101 JUMP JUMPDEST ADD SLOAD PUSH1 0x1 PUSH1 0x1 PUSH1 0xA0 SHL SUB AND DUP2 MSTORE PUSH1 0x20 DUP2 ADD SWAP2 SWAP1 SWAP2 MSTORE PUSH1 0x40 ADD PUSH1 0x0 KECCAK256 SSTORE PUSH2 0x16C4 DUP2 PUSH2 0x4106 JUMP JUMPDEST PUSH1 0x1 JUMPDEST PUSH1 0x40 MLOAD DUP6 SWAP1 PUSH32 0x6F235CA67A520AA7BBE234E1490553D4DD8FC8F277D1E70E2F2E8B847858AE11 SWAP1 PUSH1 0x0 SWAP1 LOG3 POP PUSH2 0x192C JUMP JUMPDEST PUSH1 0x40 DUP3 ADD MLOAD DUP2 EQ ISZERO PUSH2 0x177F JUMPI PUSH1 0x0 PUSH1 0x2A PUSH1 0x0 PUSH1 0x25 DUP7 PUSH1 0x5 DUP2 LT PUSH2 0x171D JUMPI PUSH2 0x171D PUSH2 0x5101 JUMP JUMPDEST ADD SLOAD PUSH1 0x1 PUSH1 0x1 PUSH1 0xA0 SHL SUB AND DUP2 MSTORE PUSH1 0x20 DUP2 ADD SWAP2 SWAP1 SWAP2 MSTORE PUSH1 0x40 ADD PUSH1 0x0 SWAP1 DUP2 KECCAK256 SLOAD SWAP2 POP PUSH1 0x2A DUP2 PUSH1 0x25 DUP8 PUSH1 0x5 DUP2 LT PUSH2 0x1753 JUMPI PUSH2 0x1753 PUSH2 0x5101 JUMP JUMPDEST ADD SLOAD PUSH1 0x1 PUSH1 0x1 PUSH1 0xA0 SHL SUB AND DUP2 MSTORE PUSH1 0x20 DUP2 ADD SWAP2 SWAP1 SWAP2 MSTORE PUSH1 0x40 ADD PUSH1 0x0 KECCAK256 SSTORE PUSH2 0x1778 DUP2 PUSH2 0x41E4 JUMP JUMPDEST PUSH1 0x2 PUSH2 0x16C7 JUMP JUMPDEST PUSH1 0x60 DUP3 ADD MLOAD DUP2 EQ ISZERO PUSH2 0x1837 JUMPI PUSH1 0x2A PUSH1 0x0 PUSH1 0x25 DUP6 PUSH1 0x5 DUP2 LT PUSH2 0x17A2 JUMPI PUSH2 0x17A2 PUSH2 0x5101 JUMP JUMPDEST ADD SLOAD PUSH1 0x1 PUSH1 0x1 PUSH1 0xA0 SHL SUB SWAP1 DUP2 AND DUP3 MSTORE PUSH1 0x20 DUP1 DUP4 ADD SWAP4 SWAP1 SWAP4 MSTORE PUSH1 0x40 SWAP2 DUP3 ADD PUSH1 0x0 SWAP1 DUP2 KECCAK256 SLOAD PUSH1 0x29 SLOAD SWAP1 SWAP3 AND DUP2 MSTORE PUSH1 0x2A SWAP1 SWAP4 MSTORE SWAP2 KECCAK256 SLOAD PUSH2 0x17DF SWAP2 SWAP1 PUSH2 0x512D JUMP JUMPDEST PUSH1 0x29 SLOAD PUSH1 0x1 PUSH1 0x1 PUSH1 0xA0 SHL SUB AND PUSH1 0x0 SWAP1 DUP2 MSTORE PUSH1 0x2A PUSH1 0x20 DUP2 SWAP1 MSTORE PUSH1 0x40 DUP3 KECCAK256 SWAP3 SWAP1 SWAP3 SSTORE SWAP1 DUP2 PUSH1 0x25 DUP7 PUSH1 0x5 DUP2 LT PUSH2 0x1814 JUMPI PUSH2 0x1814 PUSH2 0x5101 JUMP JUMPDEST ADD SLOAD PUSH1 0x1 PUSH1 0x1 PUSH1 0xA0 SHL SUB AND DUP2 MSTORE PUSH1 0x20 DUP2 ADD SWAP2 SWAP1 SWAP2 MSTORE PUSH1 0x40 ADD PUSH1 0x0 KECCAK256 SSTORE PUSH1 0x3 PUSH2 0x1614 JUMP JUMPDEST PUSH1 0x80 DUP3 ADD MLOAD DUP2 EQ ISZERO PUSH2 0x192C JUMPI PUSH1 0x7 SLOAD PUSH1 0x1 PUSH1 0x1 PUSH1 0xA0 SHL SUB AND ISZERO PUSH2 0x192C JUMPI PUSH1 0x0 PUSH1 0x2A PUSH1 0x0 PUSH1 0x25 DUP7 PUSH1 0x5 DUP2 LT PUSH2 0x186D JUMPI PUSH2 0x186D PUSH2 0x5101 JUMP JUMPDEST ADD SLOAD PUSH1 0x1 PUSH1 0x1 PUSH1 0xA0 SHL SUB AND DUP2 MSTORE PUSH1 0x20 DUP2 ADD SWAP2 SWAP1 SWAP2 MSTORE PUSH1 0x40 ADD PUSH1 0x0 SWAP1 DUP2 KECCAK256 SLOAD SWAP2 POP PUSH1 0x2A DUP2 PUSH1 0x25 DUP8 PUSH1 0x5 DUP2 LT PUSH2 0x18A3 JUMPI PUSH2 0x18A3 PUSH2 0x5101 JUMP JUMPDEST ADD SLOAD PUSH1 0x1 PUSH1 0x1 PUSH1 0xA0 SHL SUB SWAP1 DUP2 AND DUP3 MSTORE PUSH1 0x20 DUP1 DUP4 ADD SWAP4 SWAP1 SWAP4 MSTORE PUSH1 0x40 SWAP2 DUP3 ADD PUSH1 0x0 SWAP1 DUP2 KECCAK256 SWAP5 SWAP1 SWAP5 SSTORE PUSH1 0x7 SLOAD AND DUP4 MSTORE PUSH1 0x2A SWAP1 SWAP2 MSTORE SWAP1 KECCAK256 SLOAD PUSH2 0x18E2 SWAP1 DUP3 SWAP1 PUSH2 0x512D JUMP JUMPDEST PUSH1 0x7 SLOAD PUSH1 0x1 PUSH1 0x1 PUSH1 0xA0 SHL SUB AND PUSH1 0x0 SWAP1 DUP2 MSTORE PUSH1 0x2A PUSH1 0x20 MSTORE PUSH1 0x40 SWAP1 KECCAK256 SSTORE PUSH1 0x4 PUSH1 0x40 MLOAD DUP6 SWAP1 PUSH32 0x6F235CA67A520AA7BBE234E1490553D4DD8FC8F277D1E70E2F2E8B847858AE11 SWAP1 PUSH1 0x0 SWAP1 LOG3 POP JUMPDEST PUSH1 0x29 SLOAD PUSH1 0x1 PUSH1 0x1 PUSH1 0xA0 SHL SUB SWAP1 DUP2 AND PUSH1 0x0 SWAP1 DUP2 MSTORE PUSH1 0x2A PUSH1 0x20 MSTORE PUSH1 0x40 DUP1 DUP3 KECCAK256 SLOAD PUSH1 0x24 SLOAD SWAP1 SWAP4 AND DUP3 MSTORE SWAP1 KECCAK256 SLOAD PUSH2 0x195F SWAP2 SWAP1 PUSH2 0x512D JUMP JUMPDEST PUSH1 0x24 SLOAD PUSH1 0x1 PUSH1 0x1 PUSH1 0xA0 SHL SUB SWAP1 DUP2 AND PUSH1 0x0 SWAP1 DUP2 MSTORE PUSH1 0x2A PUSH1 0x20 MSTORE PUSH1 0x40 DUP1 DUP3 KECCAK256 SWAP4 SWAP1 SWAP4 SSTORE PUSH1 0x29 SLOAD SWAP1 SWAP2 AND DUP2 MSTORE SWAP1 DUP2 KECCAK256 SSTORE POP DUP2 SWAP1 POP PUSH2 0x1999 DUP2 PUSH2 0x5A92 JUMP JUMPDEST SWAP2 POP POP PUSH2 0x156D JUMP JUMPDEST POP TIMESTAMP PUSH1 0x1F DUP2 SWAP1 SSTORE PUSH1 0x40 MLOAD CALLER SWAP1 PUSH32 0x4D659E18A7AADB416D8601A2418A0F9D1117ECAC88CAAD93FADB7E895912ABCE SWAP1 PUSH1 0x0 SWAP1 LOG3 POP JUMP JUMPDEST PUSH1 0x25 DUP2 PUSH1 0x5 DUP2 LT PUSH2 0x19E6 JUMPI PUSH1 0x0 DUP1 REVERT JUMPDEST ADD SLOAD PUSH1 0x1 PUSH1 0x1 PUSH1 0xA0 SHL SUB AND SWAP1 POP DUP2 JUMP JUMPDEST PUSH1 0x11 DUP1 SLOAD PUSH2 0x111E SWAP1 PUSH2 0x5A5D JUMP JUMPDEST PUSH1 0x3 SLOAD PUSH1 0xFF AND ISZERO PUSH2 0x1A26 JUMPI PUSH1 0x40 MLOAD PUSH3 0x461BCD PUSH1 0xE5 SHL DUP2 MSTORE PUSH1 0x4 ADD PUSH2 0x104B SWAP1 PUSH2 0x5AE2 JUMP JUMPDEST PUSH1 0xE SLOAD PUSH1 0xFF AND ISZERO DUP1 PUSH2 0x1A46 JUMPI POP CALLER PUSH1 0x0 SWAP1 DUP2 MSTORE PUSH1 0x2B PUSH1 0x20 MSTORE PUSH1 0x40 SWAP1 KECCAK256 SLOAD ISZERO ISZERO JUMPDEST PUSH2 0x1A77 JUMPI PUSH1 0x40 MLOAD PUSH3 0x461BCD PUSH1 0xE5 SHL DUP2 MSTORE PUSH1 0x20 PUSH1 0x4 DUP3 ADD MSTORE PUSH1 0x2 PUSH1 0x24 DUP3 ADD MSTORE PUSH2 0x3299 PUSH1 0xF1 SHL PUSH1 0x44 DUP3 ADD MSTORE PUSH1 0x64 ADD PUSH2 0x104B JUMP JUMPDEST DUP3 ISZERO DUP1 PUSH2 0x1A84 JUMPI POP PUSH1 0xC DUP4 GT JUMPDEST ISZERO PUSH2 0x1AB6 JUMPI PUSH1 0x40 MLOAD PUSH3 0x461BCD PUSH1 0xE5 SHL DUP2 MSTORE PUSH1 0x20 PUSH1 0x4 DUP3 ADD MSTORE PUSH1 0x2 PUSH1 0x24 DUP3 ADD MSTORE PUSH2 0x6533 PUSH1 0xF0 SHL PUSH1 0x44 DUP3 ADD MSTORE PUSH1 0x64 ADD PUSH2 0x104B JUMP JUMPDEST DUP2 ISZERO DUP1 PUSH2 0x1AC3 JUMPI POP PUSH1 0x1F DUP3 GT JUMPDEST ISZERO PUSH2 0x1AF5 JUMPI PUSH1 0x40 MLOAD PUSH3 0x461BCD PUSH1 0xE5 SHL DUP2 MSTORE PUSH1 0x20 PUSH1 0x4 DUP3 ADD MSTORE PUSH1 0x2 PUSH1 0x24 DUP3 ADD MSTORE PUSH2 0x194D PUSH1 0xF2 SHL PUSH1 0x44 DUP3 ADD MSTORE PUSH1 0x64 ADD PUSH2 0x104B JUMP JUMPDEST DUP3 PUSH1 0x4 EQ DUP1 PUSH2 0x1B04 JUMPI POP DUP3 PUSH1 0x6 EQ JUMPDEST DUP1 PUSH2 0x1B0F JUMPI POP DUP3 PUSH1 0x9 EQ JUMPDEST DUP1 PUSH2 0x1B1A JUMPI POP DUP3 PUSH1 0xB EQ JUMPDEST DUP1 ISZERO PUSH2 0x1B26 JUMPI POP PUSH1 0x1E DUP3 GT JUMPDEST DUP1 PUSH2 0x1B4C JUMPI POP DUP3 PUSH1 0x2 EQ DUP1 ISZERO PUSH2 0x1B40 JUMPI POP PUSH2 0x1B40 DUP5 PUSH2 0x3E42 JUMP JUMPDEST DUP1 ISZERO PUSH2 0x1B4C JUMPI POP PUSH1 0x1D DUP3 GT JUMPDEST DUP1 PUSH2 0x1B74 JUMPI POP DUP3 PUSH1 0x2 EQ DUP1 ISZERO PUSH2 0x1B68 JUMPI POP PUSH2 0x1B66 DUP5 PUSH2 0x3E42 JUMP JUMPDEST ISZERO JUMPDEST DUP1 ISZERO PUSH2 0x1B74 JUMPI POP PUSH1 0x1C DUP3 GT JUMPDEST ISZERO PUSH2 0x1B9C JUMPI PUSH1 0x40 MLOAD PUSH4 0x24E2BA21 PUSH1 0xE1 SHL DUP2 MSTORE PUSH1 0x4 DUP2 ADD DUP5 SWAP1 MSTORE PUSH1 0x24 DUP2 ADD DUP4 SWAP1 MSTORE PUSH1 0x44 ADD PUSH2 0x104B JUMP JUMPDEST PUSH1 0x0 PUSH2 0x1BA9 DUP6 DUP6 DUP6 PUSH2 0x3E27 JUMP JUMPDEST SWAP1 POP TIMESTAMP DUP2 GT ISZERO DUP1 ISZERO PUSH2 0x1BBD JUMPI POP PUSH1 0x1D SLOAD DUP2 LT ISZERO JUMPDEST PUSH2 0x1BEE JUMPI PUSH1 0x40 MLOAD PUSH3 0x461BCD PUSH1 0xE5 SHL DUP2 MSTORE PUSH1 0x20 PUSH1 0x4 DUP3 ADD MSTORE PUSH1 0x2 PUSH1 0x24 DUP3 ADD MSTORE PUSH2 0x6535 PUSH1 0xF0 SHL PUSH1 0x44 DUP3 ADD MSTORE PUSH1 0x64 ADD PUSH2 0x104B JUMP JUMPDEST PUSH1 0x0 DUP2 DUP2 MSTORE PUSH1 0x2C PUSH1 0x20 MSTORE PUSH1 0x40 SWAP1 KECCAK256 SLOAD PUSH1 0x1 PUSH1 0x1 PUSH1 0xA0 SHL SUB AND ISZERO PUSH2 0x1C38 JUMPI PUSH1 0x40 MLOAD PUSH3 0x461BCD PUSH1 0xE5 SHL DUP2 MSTORE PUSH1 0x20 PUSH1 0x4 DUP3 ADD MSTORE PUSH1 0x2 PUSH1 0x24 DUP3 ADD MSTORE PUSH2 0x329B PUSH1 0xF1 SHL PUSH1 0x44 DUP3 ADD MSTORE PUSH1 0x64 ADD PUSH2 0x104B JUMP JUMPDEST PUSH1 0x1 PUSH1 0x1 PUSH1 0xA0 SHL SUB DUP3 AND PUSH2 0x1C4A JUMPI CALLER SWAP2 POP JUMPDEST CALLER PUSH1 0x0 SWAP1 DUP2 MSTORE PUSH1 0x2B PUSH1 0x20 MSTORE PUSH1 0x40 DUP2 KECCAK256 SLOAD ISZERO PUSH2 0x1D32 JUMPI POP CALLER PUSH1 0x0 SWAP1 DUP2 MSTORE PUSH1 0x2B PUSH1 0x20 MSTORE PUSH1 0x40 SWAP1 KECCAK256 SLOAD PUSH1 0x1 SWAP1 PUSH2 0x1C7E SWAP1 DUP3 SWAP1 PUSH2 0x5B0C JUMP JUMPDEST CALLER PUSH1 0x0 SWAP1 DUP2 MSTORE PUSH1 0x2B PUSH1 0x20 MSTORE PUSH1 0x40 SWAP1 KECCAK256 SSTORE PUSH1 0xF SLOAD ISZERO PUSH2 0x1D32 JUMPI PUSH1 0x1 PUSH1 0xF SLOAD PUSH2 0x1CA5 SWAP2 SWAP1 PUSH2 0x5B0C JUMP JUMPDEST PUSH1 0xF SSTORE PUSH1 0x0 DUP3 DUP2 MSTORE PUSH1 0x2E PUSH1 0x20 MSTORE PUSH1 0x40 DUP2 KECCAK256 DUP1 SLOAD PUSH1 0xFF NOT AND PUSH1 0x1 SWAP1 DUP2 OR SWAP1 SWAP2 SSTORE PUSH1 0x30 DUP1 SLOAD DUP1 DUP4 ADD DUP3 SSTORE SWAP3 DUP2 SWAP1 MSTORE PUSH32 0x6FF97A59C90D62CC7236BA3A37CD85351BF564556780CF8C1157A220F31F0CBB SWAP1 SWAP3 ADD DUP1 SLOAD PUSH1 0x1 PUSH1 0x1 PUSH1 0xA0 SHL SUB NOT AND CALLER OR SWAP1 SSTORE SWAP1 SLOAD PUSH2 0x1D11 SWAP2 SWAP1 PUSH2 0x5B0C JUMP JUMPDEST PUSH1 0x0 DUP4 DUP2 MSTORE PUSH1 0x2F PUSH1 0x20 MSTORE PUSH1 0x40 SWAP1 KECCAK256 SSTORE PUSH1 0xF SLOAD PUSH2 0x1D32 JUMPI PUSH1 0xE DUP1 SLOAD PUSH1 0xFF NOT AND SWAP1 SSTORE JUMPDEST DUP1 PUSH2 0x2003 JUMPI PUSH2 0x1D3F PUSH2 0x39D7 JUMP JUMPDEST CALLVALUE LT ISZERO PUSH2 0x1D73 JUMPI PUSH1 0x40 MLOAD PUSH3 0x461BCD PUSH1 0xE5 SHL DUP2 MSTORE PUSH1 0x20 PUSH1 0x4 DUP3 ADD MSTORE PUSH1 0x2 PUSH1 0x24 DUP3 ADD MSTORE PUSH2 0x6537 PUSH1 0xF0 SHL PUSH1 0x44 DUP3 ADD MSTORE PUSH1 0x64 ADD PUSH2 0x104B JUMP JUMPDEST PUSH1 0x0 PUSH1 0x64 PUSH2 0x1D82 PUSH1 0x5 CALLVALUE PUSH2 0x5B23 JUMP JUMPDEST PUSH2 0x1D8C SWAP2 SWAP1 PUSH2 0x5B58 JUMP JUMPDEST PUSH1 0x24 SLOAD PUSH1 0x1 PUSH1 0x1 PUSH1 0xA0 SHL SUB AND PUSH1 0x0 SWAP1 DUP2 MSTORE PUSH1 0x2A PUSH1 0x20 MSTORE PUSH1 0x40 SWAP1 KECCAK256 SLOAD SWAP1 SWAP2 POP PUSH2 0x1DB5 SWAP1 DUP3 SWAP1 PUSH2 0x512D JUMP JUMPDEST PUSH1 0x24 SLOAD PUSH1 0x1 PUSH1 0x1 PUSH1 0xA0 SHL SUB AND PUSH1 0x0 SWAP1 DUP2 MSTORE PUSH1 0x2A PUSH1 0x20 MSTORE PUSH1 0x40 DUP2 KECCAK256 SWAP2 SWAP1 SWAP2 SSTORE PUSH1 0x64 PUSH2 0x1DE0 PUSH1 0x5 CALLVALUE PUSH2 0x5B23 JUMP JUMPDEST PUSH2 0x1DEA SWAP2 SWAP1 PUSH2 0x5B58 JUMP JUMPDEST PUSH1 0x7 SLOAD SWAP1 SWAP2 POP PUSH1 0x1 PUSH1 0x1 PUSH1 0xA0 SHL SUB AND PUSH2 0x1E43 JUMPI PUSH1 0x23 SLOAD PUSH1 0x1 PUSH1 0x1 PUSH1 0xA0 SHL SUB AND PUSH1 0x0 SWAP1 DUP2 MSTORE PUSH1 0x2A PUSH1 0x20 MSTORE PUSH1 0x40 SWAP1 KECCAK256 SLOAD PUSH2 0x1E23 SWAP1 DUP3 SWAP1 PUSH2 0x512D JUMP JUMPDEST PUSH1 0x23 SLOAD PUSH1 0x1 PUSH1 0x1 PUSH1 0xA0 SHL SUB AND PUSH1 0x0 SWAP1 DUP2 MSTORE PUSH1 0x2A PUSH1 0x20 MSTORE PUSH1 0x40 SWAP1 KECCAK256 SSTORE PUSH2 0x1E85 JUMP JUMPDEST PUSH1 0x7 SLOAD PUSH1 0x1 PUSH1 0x1 PUSH1 0xA0 SHL SUB AND PUSH1 0x0 SWAP1 DUP2 MSTORE PUSH1 0x2A PUSH1 0x20 MSTORE PUSH1 0x40 SWAP1 KECCAK256 SLOAD PUSH2 0x1E69 SWAP1 DUP3 SWAP1 PUSH2 0x512D JUMP JUMPDEST PUSH1 0x7 SLOAD PUSH1 0x1 PUSH1 0x1 PUSH1 0xA0 SHL SUB AND PUSH1 0x0 SWAP1 DUP2 MSTORE PUSH1 0x2A PUSH1 0x20 MSTORE PUSH1 0x40 SWAP1 KECCAK256 SSTORE JUMPDEST PUSH1 0x0 PUSH1 0x64 PUSH2 0x1E94 PUSH1 0x5 CALLVALUE PUSH2 0x5B23 JUMP JUMPDEST PUSH2 0x1E9E SWAP2 SWAP1 PUSH2 0x5B58 JUMP JUMPDEST PUSH1 0x23 SLOAD PUSH1 0x1 PUSH1 0x1 PUSH1 0xA0 SHL SUB AND PUSH1 0x0 SWAP1 DUP2 MSTORE PUSH1 0x2A PUSH1 0x20 MSTORE PUSH1 0x40 SWAP1 KECCAK256 SLOAD SWAP1 SWAP2 POP PUSH2 0x1EC7 SWAP1 DUP3 SWAP1 PUSH2 0x512D JUMP JUMPDEST PUSH1 0x23 SLOAD PUSH1 0x1 PUSH1 0x1 PUSH1 0xA0 SHL SUB AND PUSH1 0x0 SWAP1 DUP2 MSTORE PUSH1 0x2A PUSH1 0x20 MSTORE PUSH1 0x40 DUP2 KECCAK256 SWAP2 SWAP1 SWAP2 SSTORE PUSH1 0x64 PUSH2 0x1EF2 PUSH1 0x19 CALLVALUE PUSH2 0x5B23 JUMP JUMPDEST PUSH2 0x1EFC SWAP2 SWAP1 PUSH2 0x5B58 JUMP JUMPDEST PUSH1 0x29 SLOAD PUSH1 0x1 PUSH1 0x1 PUSH1 0xA0 SHL SUB AND PUSH1 0x0 SWAP1 DUP2 MSTORE PUSH1 0x2A PUSH1 0x20 MSTORE PUSH1 0x40 SWAP1 KECCAK256 SLOAD SWAP1 SWAP2 POP PUSH2 0x1F25 SWAP1 DUP3 SWAP1 PUSH2 0x512D JUMP JUMPDEST PUSH1 0x29 SLOAD PUSH1 0x1 PUSH1 0x1 PUSH1 0xA0 SHL SUB AND PUSH1 0x0 SWAP1 DUP2 MSTORE PUSH1 0x2A PUSH1 0x20 MSTORE PUSH1 0x40 DUP2 KECCAK256 SWAP2 SWAP1 SWAP2 SSTORE PUSH1 0x64 PUSH2 0x1F50 PUSH1 0x1E CALLVALUE PUSH2 0x5B23 JUMP JUMPDEST PUSH2 0x1F5A SWAP2 SWAP1 PUSH2 0x5B58 JUMP JUMPDEST PUSH1 0x26 SLOAD PUSH1 0x1 PUSH1 0x1 PUSH1 0xA0 SHL SUB AND PUSH1 0x0 SWAP1 DUP2 MSTORE PUSH1 0x2A PUSH1 0x20 MSTORE PUSH1 0x40 SWAP1 KECCAK256 SLOAD SWAP1 SWAP2 POP PUSH2 0x1F83 SWAP1 DUP3 SWAP1 PUSH2 0x512D JUMP JUMPDEST PUSH1 0x26 SLOAD PUSH1 0x1 PUSH1 0x1 PUSH1 0xA0 SHL SUB AND PUSH1 0x0 SWAP1 DUP2 MSTORE PUSH1 0x2A PUSH1 0x20 MSTORE PUSH1 0x40 DUP2 KECCAK256 SWAP2 SWAP1 SWAP2 SSTORE PUSH1 0x64 PUSH2 0x1FAE PUSH1 0x1E CALLVALUE PUSH2 0x5B23 JUMP JUMPDEST PUSH2 0x1FB8 SWAP2 SWAP1 PUSH2 0x5B58 JUMP JUMPDEST PUSH1 0x27 SLOAD PUSH1 0x1 PUSH1 0x1 PUSH1 0xA0 SHL SUB AND PUSH1 0x0 SWAP1 DUP2 MSTORE PUSH1 0x2A PUSH1 0x20 MSTORE PUSH1 0x40 SWAP1 KECCAK256 SLOAD SWAP1 SWAP2 POP PUSH2 0x1FE1 SWAP1 DUP3 SWAP1 PUSH2 0x512D JUMP JUMPDEST PUSH1 0x27 SLOAD PUSH1 0x1 PUSH1 0x1 PUSH1 0xA0 SHL SUB AND PUSH1 0x0 SWAP1 DUP2 MSTORE PUSH1 0x2A PUSH1 0x20 MSTORE PUSH1 0x40 SWAP1 KECCAK256 SSTORE POP POP POP POP POP POP JUMPDEST PUSH2 0x201F DUP4 DUP4 PUSH1 0x1 PUSH1 0x40 MLOAD DUP1 PUSH1 0x20 ADD PUSH1 0x40 MSTORE DUP1 PUSH1 0x0 DUP2 MSTORE POP PUSH2 0x3FF6 JUMP JUMPDEST PUSH1 0x20 DUP1 SLOAD PUSH1 0x1 DUP1 DUP3 ADD DUP4 SSTORE PUSH32 0xC97BFAF2F8EE708C303A06D134F5ECD8389AE0432AF62DC132A24118292866BB SWAP1 SWAP2 ADD DUP5 SWAP1 SSTORE PUSH1 0x0 DUP5 DUP2 MSTORE PUSH1 0x2C SWAP1 SWAP3 MSTORE PUSH1 0x40 SWAP1 SWAP2 KECCAK256 DUP1 SLOAD PUSH1 0x1 PUSH1 0x1 PUSH1 0xA0 SHL SUB NOT AND PUSH1 0x1 PUSH1 0x1 PUSH1 0xA0 SHL SUB DUP7 AND OR SWAP1 SSTORE TIMESTAMP PUSH1 0x1E SSTORE JUMPDEST PUSH1 0x3 DUP2 GT PUSH2 0x210B JUMPI PUSH1 0x0 DUP4 DUP2 MSTORE PUSH1 0x2E PUSH1 0x20 MSTORE PUSH1 0x40 SWAP1 KECCAK256 SLOAD PUSH1 0xFF AND ISZERO DUP1 ISZERO PUSH2 0x20A5 JUMPI POP DUP1 PUSH1 0x3 EQ JUMPDEST ISZERO PUSH2 0x20AF JUMPI PUSH2 0x20F9 JUMP JUMPDEST PUSH2 0x20BA DUP8 DUP8 DUP8 PUSH2 0x3531 JUMP JUMPDEST PUSH1 0x0 DUP3 DUP2 MSTORE PUSH1 0x39 PUSH1 0x20 SWAP1 DUP2 MSTORE PUSH1 0x40 DUP1 DUP4 KECCAK256 DUP4 DUP1 MSTORE SWAP1 SWAP2 MSTORE SWAP1 KECCAK256 SLOAD PUSH2 0x20DE SWAP2 SWAP1 PUSH2 0x512D JUMP JUMPDEST PUSH1 0x0 DUP3 DUP2 MSTORE PUSH1 0x39 PUSH1 0x20 SWAP1 DUP2 MSTORE PUSH1 0x40 DUP1 DUP4 KECCAK256 DUP4 DUP1 MSTORE SWAP1 SWAP2 MSTORE SWAP1 KECCAK256 SSTORE JUMPDEST DUP1 PUSH2 0x2103 DUP2 PUSH2 0x5A92 JUMP JUMPDEST SWAP2 POP POP PUSH2 0x207E JUMP JUMPDEST POP DUP1 PUSH2 0x2171 JUMPI PUSH1 0xD SLOAD PUSH1 0x16 SLOAD PUSH2 0x2121 SWAP2 SWAP1 PUSH2 0x512D JUMP JUMPDEST PUSH1 0x16 SSTORE PUSH1 0x40 DUP1 MLOAD DUP8 DUP2 MSTORE PUSH1 0x20 DUP2 ADD DUP8 SWAP1 MSTORE SWAP1 DUP2 ADD DUP6 SWAP1 MSTORE PUSH1 0x1 PUSH1 0x1 PUSH1 0xA0 SHL SUB DUP5 AND SWAP1 PUSH32 0xA51E9B2EF1F037DEE551EB226D6D1581C8FB0E0243820EBD1FBB41A13E6C2364 SWAP1 PUSH1 0x60 ADD PUSH1 0x40 MLOAD DUP1 SWAP2 SUB SWAP1 LOG2 JUMPDEST POP POP POP POP POP POP JUMP JUMPDEST PUSH1 0x1 PUSH1 0x1 PUSH1 0xA0 SHL SUB DUP6 AND CALLER EQ DUP1 PUSH2 0x2195 JUMPI POP PUSH2 0x2195 DUP6 CALLER PUSH2 0xE7A JUMP JUMPDEST PUSH2 0x21FC JUMPI PUSH1 0x40 MLOAD PUSH3 0x461BCD PUSH1 0xE5 SHL DUP2 MSTORE PUSH1 0x20 PUSH1 0x4 DUP3 ADD MSTORE PUSH1 0x32 PUSH1 0x24 DUP3 ADD MSTORE PUSH32 0x455243313135353A207472616E736665722063616C6C6572206973206E6F7420 PUSH1 0x44 DUP3 ADD MSTORE PUSH18 0x1BDDDB995C881B9BDC88185C1C1C9BDD9959 PUSH1 0x72 SHL PUSH1 0x64 DUP3 ADD MSTORE PUSH1 0x84 ADD PUSH2 0x104B JUMP JUMPDEST PUSH1 0x40 MLOAD PUSH3 0x461BCD PUSH1 0xE5 SHL DUP2 MSTORE PUSH1 0x20 PUSH1 0x4 DUP3 ADD MSTORE PUSH1 0x3 PUSH1 0x24 DUP3 ADD MSTORE PUSH3 0x653237 PUSH1 0xE8 SHL PUSH1 0x44 DUP3 ADD MSTORE PUSH1 0x64 ADD PUSH2 0x104B JUMP JUMPDEST POP POP POP POP POP JUMP JUMPDEST PUSH1 0x34 PUSH1 0x20 MSTORE PUSH1 0x0 SWAP1 DUP2 MSTORE PUSH1 0x40 SWAP1 KECCAK256 DUP1 SLOAD PUSH2 0x111E SWAP1 PUSH2 0x5A5D JUMP JUMPDEST PUSH1 0x60 DUP2 MLOAD DUP4 MLOAD EQ PUSH2 0x22AF JUMPI PUSH1 0x40 MLOAD PUSH3 0x461BCD PUSH1 0xE5 SHL DUP2 MSTORE PUSH1 0x20 PUSH1 0x4 DUP3 ADD MSTORE PUSH1 0x29 PUSH1 0x24 DUP3 ADD MSTORE PUSH32 0x455243313135353A206163636F756E747320616E6420696473206C656E677468 PUSH1 0x44 DUP3 ADD MSTORE PUSH9 0x40DAD2E6DAC2E8C6D PUSH1 0xBB SHL PUSH1 0x64 DUP3 ADD MSTORE PUSH1 0x84 ADD PUSH2 0x104B JUMP JUMPDEST PUSH1 0x0 DUP4 MLOAD PUSH1 0x1 PUSH1 0x1 PUSH1 0x40 SHL SUB DUP2 GT ISZERO PUSH2 0x22CA JUMPI PUSH2 0x22CA PUSH2 0x5361 JUMP JUMPDEST PUSH1 0x40 MLOAD SWAP1 DUP1 DUP3 MSTORE DUP1 PUSH1 0x20 MUL PUSH1 0x20 ADD DUP3 ADD PUSH1 0x40 MSTORE DUP1 ISZERO PUSH2 0x22F3 JUMPI DUP2 PUSH1 0x20 ADD PUSH1 0x20 DUP3 MUL DUP1 CALLDATASIZE DUP4 CALLDATACOPY ADD SWAP1 POP JUMPDEST POP SWAP1 POP PUSH1 0x0 JUMPDEST DUP5 MLOAD DUP2 LT ISZERO PUSH2 0x236B JUMPI PUSH2 0x233E DUP6 DUP3 DUP2 MLOAD DUP2 LT PUSH2 0x2317 JUMPI PUSH2 0x2317 PUSH2 0x5101 JUMP JUMPDEST PUSH1 0x20 MUL PUSH1 0x20 ADD ADD MLOAD DUP6 DUP4 DUP2 MLOAD DUP2 LT PUSH2 0x2331 JUMPI PUSH2 0x2331 PUSH2 0x5101 JUMP JUMPDEST PUSH1 0x20 MUL PUSH1 0x20 ADD ADD MLOAD PUSH2 0xFE3 JUMP JUMPDEST DUP3 DUP3 DUP2 MLOAD DUP2 LT PUSH2 0x2350 JUMPI PUSH2 0x2350 PUSH2 0x5101 JUMP JUMPDEST PUSH1 0x20 SWAP1 DUP2 MUL SWAP2 SWAP1 SWAP2 ADD ADD MSTORE PUSH2 0x2364 DUP2 PUSH2 0x5A92 JUMP JUMPDEST SWAP1 POP PUSH2 0x22F9 JUMP JUMPDEST POP SWAP4 SWAP3 POP POP POP JUMP JUMPDEST PUSH1 0x30 DUP2 DUP2 SLOAD DUP2 LT PUSH2 0x2383 JUMPI PUSH1 0x0 DUP1 REVERT JUMPDEST PUSH1 0x0 SWAP2 DUP3 MSTORE PUSH1 0x20 SWAP1 SWAP2 KECCAK256 ADD SLOAD PUSH1 0x1 PUSH1 0x1 PUSH1 0xA0 SHL SUB AND SWAP1 POP DUP2 JUMP JUMPDEST PUSH1 0x31 PUSH1 0x20 MSTORE PUSH1 0x0 SWAP1 DUP2 MSTORE PUSH1 0x40 SWAP1 KECCAK256 DUP1 SLOAD PUSH2 0x111E SWAP1 PUSH2 0x5A5D JUMP JUMPDEST PUSH1 0x12 DUP1 SLOAD PUSH2 0x111E SWAP1 PUSH2 0x5A5D JUMP JUMPDEST PUSH1 0x3 SLOAD PUSH1 0x1 PUSH1 0x1 PUSH1 0xA0 SHL SUB PUSH2 0x100 SWAP1 SWAP2 DIV AND CALLER EQ PUSH2 0x23F3 JUMPI PUSH1 0x40 MLOAD PUSH3 0x461BCD PUSH1 0xE5 SHL DUP2 MSTORE PUSH1 0x4 ADD PUSH2 0x104B SWAP1 PUSH2 0x5AAD JUMP JUMPDEST PUSH1 0x3 SLOAD PUSH1 0xFF AND ISZERO PUSH2 0x2416 JUMPI PUSH1 0x40 MLOAD PUSH3 0x461BCD PUSH1 0xE5 SHL DUP2 MSTORE PUSH1 0x4 ADD PUSH2 0x104B SWAP1 PUSH2 0x5AE2 JUMP JUMPDEST PUSH1 0x21 DUP3 SWAP1 SSTORE DUP1 MLOAD PUSH2 0x242E SWAP1 PUSH1 0x5 SWAP1 PUSH1 0x20 DUP5 ADD SWAP1 PUSH2 0x5013 JUMP JUMPDEST POP POP POP JUMP JUMPDEST PUSH1 0x18 DUP2 DUP2 SLOAD DUP2 LT PUSH2 0x2383 JUMPI PUSH1 0x0 DUP1 REVERT JUMPDEST PUSH1 0x0 DUP2 DUP4 LT ISZERO PUSH2 0x2453 JUMPI DUP2 PUSH2 0x2455 JUMP JUMPDEST DUP3 JUMPDEST SWAP4 SWAP3 POP POP POP JUMP JUMPDEST CALLER PUSH1 0x0 SWAP1 DUP2 MSTORE PUSH1 0x2A PUSH1 0x20 MSTORE PUSH1 0x40 SWAP1 KECCAK256 SLOAD PUSH7 0x2386F26FC10000 GT ISZERO PUSH2 0x24A8 JUMPI PUSH1 0x40 MLOAD PUSH3 0x461BCD PUSH1 0xE5 SHL DUP2 MSTORE PUSH1 0x20 PUSH1 0x4 DUP3 ADD MSTORE PUSH1 0x3 PUSH1 0x24 DUP3 ADD MSTORE PUSH3 0x653135 PUSH1 0xE8 SHL PUSH1 0x44 DUP3 ADD MSTORE PUSH1 0x64 ADD PUSH2 0x104B JUMP JUMPDEST CALLER PUSH1 0x0 DUP2 DUP2 MSTORE PUSH1 0x2A PUSH1 0x20 MSTORE PUSH1 0x40 DUP1 DUP3 KECCAK256 DUP1 SLOAD SWAP1 DUP4 SWAP1 SSTORE SWAP1 MLOAD SWAP1 SWAP3 DUP4 SWAP3 SWAP1 SWAP2 PUSH32 0x2F174CA282119315C59EFAF21147AEF438581DABDEB498198AE28964373DD8BC SWAP2 SWAP1 LOG3 PUSH1 0x40 MLOAD CALLER SWAP1 DUP3 ISZERO PUSH2 0x8FC MUL SWAP1 DUP4 SWAP1 PUSH1 0x0 DUP2 DUP2 DUP2 DUP6 DUP9 DUP9 CALL SWAP4 POP POP POP POP ISZERO DUP1 ISZERO PUSH2 0x2517 JUMPI RETURNDATASIZE PUSH1 0x0 DUP1 RETURNDATACOPY RETURNDATASIZE PUSH1 0x0 REVERT JUMPDEST POP POP JUMP JUMPDEST PUSH1 0x3 SLOAD PUSH1 0x1 PUSH1 0x1 PUSH1 0xA0 SHL SUB PUSH2 0x100 SWAP1 SWAP2 DIV AND CALLER EQ PUSH2 0x254B JUMPI PUSH1 0x40 MLOAD PUSH3 0x461BCD PUSH1 0xE5 SHL DUP2 MSTORE PUSH1 0x4 ADD PUSH2 0x104B SWAP1 PUSH2 0x5AAD JUMP JUMPDEST PUSH2 0x1402 PUSH1 0x0 PUSH2 0x43E1 JUMP JUMPDEST PUSH1 0x5 DUP1 SLOAD PUSH2 0x111E SWAP1 PUSH2 0x5A5D JUMP JUMPDEST PUSH1 0x3 SLOAD PUSH1 0xFF AND ISZERO PUSH2 0x2585 JUMPI PUSH1 0x40 MLOAD PUSH3 0x461BCD PUSH1 0xE5 SHL DUP2 MSTORE PUSH1 0x4 ADD PUSH2 0x104B SWAP1 PUSH2 0x5AE2 JUMP JUMPDEST PUSH1 0x32 DUP5 MLOAD GT ISZERO PUSH2 0x25BD JUMPI PUSH1 0x40 MLOAD PUSH3 0x461BCD PUSH1 0xE5 SHL DUP2 MSTORE PUSH1 0x20 PUSH1 0x4 DUP3 ADD MSTORE PUSH1 0x3 PUSH1 0x24 DUP3 ADD MSTORE PUSH3 0x32999B PUSH1 0xE9 SHL PUSH1 0x44 DUP3 ADD MSTORE PUSH1 0x64 ADD PUSH2 0x104B JUMP JUMPDEST PUSH1 0x10 SLOAD PUSH2 0x100 SWAP1 DIV PUSH1 0x1 PUSH1 0x1 PUSH1 0xA0 SHL SUB AND ISZERO PUSH2 0x2600 JUMPI PUSH1 0x40 MLOAD PUSH3 0x461BCD PUSH1 0xE5 SHL DUP2 MSTORE PUSH1 0x20 PUSH1 0x4 DUP3 ADD MSTORE PUSH1 0x2 PUSH1 0x24 DUP3 ADD MSTORE PUSH2 0xCA7 PUSH1 0xF3 SHL PUSH1 0x44 DUP3 ADD MSTORE PUSH1 0x64 ADD PUSH2 0x104B JUMP JUMPDEST PUSH1 0x15 SLOAD TIMESTAMP LT ISZERO PUSH2 0x2637 JUMPI PUSH1 0x40 MLOAD PUSH3 0x461BCD PUSH1 0xE5 SHL DUP2 MSTORE PUSH1 0x20 PUSH1 0x4 DUP3 ADD MSTORE PUSH1 0x2 PUSH1 0x24 DUP3 ADD MSTORE PUSH2 0x6539 PUSH1 0xF0 SHL PUSH1 0x44 DUP3 ADD MSTORE PUSH1 0x64 ADD PUSH2 0x104B JUMP JUMPDEST PUSH1 0x0 PUSH2 0x2641 PUSH2 0x39D7 JUMP JUMPDEST CALLER PUSH1 0x0 SWAP1 DUP2 MSTORE PUSH1 0x2A PUSH1 0x20 MSTORE PUSH1 0x40 SWAP1 KECCAK256 SLOAD PUSH2 0x265B SWAP1 CALLVALUE PUSH2 0x512D JUMP JUMPDEST PUSH2 0x2665 SWAP2 SWAP1 PUSH2 0x5B58 JUMP JUMPDEST PUSH2 0x2670 SWAP1 PUSH1 0x4 PUSH2 0x5B23 JUMP JUMPDEST SWAP1 POP PUSH1 0x1E DUP2 LT ISZERO PUSH2 0x26A9 JUMPI PUSH1 0x40 MLOAD PUSH3 0x461BCD PUSH1 0xE5 SHL DUP2 MSTORE PUSH1 0x20 PUSH1 0x4 DUP3 ADD MSTORE PUSH1 0x3 PUSH1 0x24 DUP3 ADD MSTORE PUSH3 0x65313 PUSH1 0xEC SHL PUSH1 0x44 DUP3 ADD MSTORE PUSH1 0x64 ADD PUSH2 0x104B JUMP JUMPDEST PUSH1 0x10 DUP1 SLOAD PUSH2 0x100 PUSH1 0x1 PUSH1 0xA8 SHL SUB NOT AND CALLER PUSH2 0x100 SWAP1 DUP2 MUL SWAP2 SWAP1 SWAP2 OR SWAP2 DUP3 SWAP1 SSTORE PUSH1 0x1 PUSH1 0x1 PUSH1 0xA0 SHL SUB SWAP2 DIV AND PUSH1 0x0 SWAP1 DUP2 MSTORE PUSH1 0x2A PUSH1 0x20 MSTORE PUSH1 0x40 SWAP1 KECCAK256 SLOAD PUSH2 0x26EC SWAP1 CALLVALUE SWAP1 PUSH2 0x512D JUMP JUMPDEST PUSH1 0x10 SLOAD PUSH2 0x100 SWAP1 DIV PUSH1 0x1 PUSH1 0x1 PUSH1 0xA0 SHL SUB AND PUSH1 0x0 SWAP1 DUP2 MSTORE PUSH1 0x2A PUSH1 0x20 SWAP1 DUP2 MSTORE PUSH1 0x40 SWAP1 SWAP2 KECCAK256 SWAP2 SWAP1 SWAP2 SSTORE DUP6 MLOAD PUSH2 0x2724 SWAP2 PUSH1 0x11 SWAP2 SWAP1 DUP9 ADD SWAP1 PUSH2 0x5013 JUMP JUMPDEST POP DUP2 MLOAD PUSH2 0x2738 SWAP1 PUSH1 0x12 SWAP1 PUSH1 0x20 DUP6 ADD SWAP1 PUSH2 0x5013 JUMP JUMPDEST POP DUP4 MLOAD PUSH2 0x274C SWAP1 PUSH1 0x13 SWAP1 PUSH1 0x20 DUP8 ADD SWAP1 PUSH2 0x5013 JUMP JUMPDEST POP DUP3 MLOAD PUSH2 0x2760 SWAP1 PUSH1 0x14 SWAP1 PUSH1 0x20 DUP7 ADD SWAP1 PUSH2 0x5013 JUMP JUMPDEST POP POP PUSH1 0x10 DUP1 SLOAD PUSH1 0xFF NOT AND SWAP1 SSTORE POP POP POP POP JUMP JUMPDEST PUSH1 0xC DUP1 SLOAD PUSH2 0x111E SWAP1 PUSH2 0x5A5D JUMP JUMPDEST CALLER PUSH1 0x1 PUSH1 0x1 PUSH1 0xA0 SHL SUB PUSH32 0x0 AND EQ PUSH2 0x27F7 JUMPI PUSH1 0x40 MLOAD PUSH3 0x461BCD PUSH1 0xE5 SHL DUP2 MSTORE PUSH1 0x20 PUSH1 0x4 DUP3 ADD MSTORE PUSH1 0x1F PUSH1 0x24 DUP3 ADD MSTORE PUSH32 0x4F6E6C7920565246436F6F7264696E61746F722063616E2066756C66696C6C00 PUSH1 0x44 DUP3 ADD MSTORE PUSH1 0x64 ADD PUSH2 0x104B JUMP JUMPDEST PUSH2 0x2517 DUP3 DUP3 PUSH2 0x443B JUMP JUMPDEST PUSH2 0x2517 CALLER DUP4 DUP4 PUSH2 0x45FD JUMP JUMPDEST PUSH1 0x3 SLOAD PUSH1 0xFF AND ISZERO PUSH2 0x282F JUMPI PUSH1 0x40 MLOAD PUSH3 0x461BCD PUSH1 0xE5 SHL DUP2 MSTORE PUSH1 0x4 ADD PUSH2 0x104B SWAP1 PUSH2 0x5AE2 JUMP JUMPDEST PUSH1 0x0 PUSH2 0x283C DUP9 DUP9 DUP9 PUSH2 0x3E27 JUMP JUMPDEST PUSH1 0x0 DUP2 DUP2 MSTORE PUSH1 0x2C PUSH1 0x20 MSTORE PUSH1 0x40 SWAP1 KECCAK256 SLOAD SWAP1 SWAP2 POP PUSH1 0x1 PUSH1 0x1 PUSH1 0xA0 SHL SUB AND PUSH2 0x2873 JUMPI PUSH1 0x40 MLOAD PUSH3 0x461BCD PUSH1 0xE5 SHL DUP2 MSTORE PUSH1 0x4 ADD PUSH2 0x104B SWAP1 PUSH2 0x5B6C JUMP JUMPDEST PUSH1 0x0 DUP2 DUP2 MSTORE PUSH1 0x2C PUSH1 0x20 MSTORE PUSH1 0x40 SWAP1 KECCAK256 SLOAD PUSH1 0x1 PUSH1 0x1 PUSH1 0xA0 SHL SUB AND CALLER EQ PUSH2 0x28BF JUMPI PUSH1 0x40 MLOAD PUSH3 0x461BCD PUSH1 0xE5 SHL DUP2 MSTORE PUSH1 0x20 PUSH1 0x4 DUP3 ADD MSTORE PUSH1 0x3 PUSH1 0x24 DUP3 ADD MSTORE PUSH3 0x329899 PUSH1 0xE9 SHL PUSH1 0x44 DUP3 ADD MSTORE PUSH1 0x64 ADD PUSH2 0x104B JUMP JUMPDEST PUSH1 0x0 PUSH2 0x28CC DUP10 DUP10 DUP10 PUSH2 0x3531 JUMP JUMPDEST SWAP1 POP PUSH1 0x1 JUMPDEST PUSH1 0x3 DUP2 GT PUSH2 0x2BCB JUMPI DUP1 PUSH1 0x3 EQ DUP1 ISZERO PUSH2 0x28F8 JUMPI POP PUSH1 0x0 DUP4 DUP2 MSTORE PUSH1 0x2E PUSH1 0x20 MSTORE PUSH1 0x40 SWAP1 KECCAK256 SLOAD PUSH1 0xFF AND ISZERO JUMPDEST ISZERO PUSH2 0x2902 JUMPI PUSH2 0x2BB9 JUMP JUMPDEST DUP4 PUSH2 0x290E PUSH1 0x1 DUP4 PUSH2 0x5B0C JUMP JUMPDEST DUP2 MLOAD DUP2 LT PUSH2 0x291E JUMPI PUSH2 0x291E PUSH2 0x5101 JUMP JUMPDEST PUSH1 0x20 MUL PUSH1 0x20 ADD ADD MLOAD PUSH1 0x4 DUP2 GT ISZERO PUSH2 0x2937 JUMPI PUSH2 0x2937 PUSH2 0x55B0 JUMP JUMPDEST PUSH1 0x0 DUP3 DUP2 MSTORE PUSH1 0x38 PUSH1 0x20 SWAP1 DUP2 MSTORE PUSH1 0x40 DUP1 DUP4 KECCAK256 DUP8 DUP5 MSTORE SWAP1 SWAP2 MSTORE SWAP1 KECCAK256 SLOAD PUSH1 0xFF AND PUSH1 0x4 DUP2 GT ISZERO PUSH2 0x2965 JUMPI PUSH2 0x2965 PUSH2 0x55B0 JUMP JUMPDEST EQ PUSH2 0x2BB9 JUMPI PUSH1 0x0 DUP2 DUP2 MSTORE PUSH1 0x39 PUSH1 0x20 SWAP1 DUP2 MSTORE PUSH1 0x40 DUP1 DUP4 KECCAK256 PUSH1 0x38 DUP4 MSTORE DUP2 DUP5 KECCAK256 DUP8 DUP6 MSTORE SWAP1 SWAP3 MSTORE DUP3 KECCAK256 SLOAD DUP3 SWAP1 PUSH1 0xFF AND PUSH1 0x4 DUP2 GT ISZERO PUSH2 0x29A1 JUMPI PUSH2 0x29A1 PUSH2 0x55B0 JUMP JUMPDEST PUSH1 0x4 DUP2 GT ISZERO PUSH2 0x29B2 JUMPI PUSH2 0x29B2 PUSH2 0x55B0 JUMP JUMPDEST DUP2 MSTORE PUSH1 0x20 ADD SWAP1 DUP2 MSTORE PUSH1 0x20 ADD PUSH1 0x0 KECCAK256 SLOAD GT ISZERO PUSH2 0x2A84 JUMPI PUSH1 0x0 DUP2 DUP2 MSTORE PUSH1 0x39 PUSH1 0x20 SWAP1 DUP2 MSTORE PUSH1 0x40 DUP1 DUP4 KECCAK256 PUSH1 0x38 DUP4 MSTORE DUP2 DUP5 KECCAK256 DUP8 DUP6 MSTORE SWAP1 SWAP3 MSTORE DUP3 KECCAK256 SLOAD DUP5 SWAP3 SWAP1 PUSH1 0xFF AND PUSH1 0x4 DUP2 GT ISZERO PUSH2 0x29FF JUMPI PUSH2 0x29FF PUSH2 0x55B0 JUMP JUMPDEST PUSH1 0x4 DUP2 GT ISZERO PUSH2 0x2A10 JUMPI PUSH2 0x2A10 PUSH2 0x55B0 JUMP JUMPDEST DUP2 MSTORE PUSH1 0x20 ADD SWAP1 DUP2 MSTORE PUSH1 0x20 ADD PUSH1 0x0 KECCAK256 SLOAD PUSH2 0x2A29 SWAP2 SWAP1 PUSH2 0x5B0C JUMP JUMPDEST PUSH1 0x0 DUP3 DUP2 MSTORE PUSH1 0x39 PUSH1 0x20 SWAP1 DUP2 MSTORE PUSH1 0x40 DUP1 DUP4 KECCAK256 PUSH1 0x38 DUP4 MSTORE DUP2 DUP5 KECCAK256 DUP9 DUP6 MSTORE SWAP1 SWAP3 MSTORE DUP3 KECCAK256 SLOAD SWAP1 SWAP2 SWAP1 PUSH1 0xFF AND PUSH1 0x4 DUP2 GT ISZERO PUSH2 0x2A61 JUMPI PUSH2 0x2A61 PUSH2 0x55B0 JUMP JUMPDEST PUSH1 0x4 DUP2 GT ISZERO PUSH2 0x2A72 JUMPI PUSH2 0x2A72 PUSH2 0x55B0 JUMP JUMPDEST DUP2 MSTORE PUSH1 0x20 DUP2 ADD SWAP2 SWAP1 SWAP2 MSTORE PUSH1 0x40 ADD PUSH1 0x0 KECCAK256 SSTORE JUMPDEST PUSH1 0x0 DUP2 DUP2 MSTORE PUSH1 0x39 PUSH1 0x20 MSTORE PUSH1 0x40 DUP2 KECCAK256 DUP4 SWAP2 DUP7 PUSH2 0x2AA0 PUSH1 0x1 DUP7 PUSH2 0x5B0C JUMP JUMPDEST DUP2 MLOAD DUP2 LT PUSH2 0x2AB0 JUMPI PUSH2 0x2AB0 PUSH2 0x5101 JUMP JUMPDEST PUSH1 0x20 MUL PUSH1 0x20 ADD ADD MLOAD PUSH1 0x4 DUP2 GT ISZERO PUSH2 0x2AC9 JUMPI PUSH2 0x2AC9 PUSH2 0x55B0 JUMP JUMPDEST PUSH1 0x4 DUP2 GT ISZERO PUSH2 0x2ADA JUMPI PUSH2 0x2ADA PUSH2 0x55B0 JUMP JUMPDEST DUP2 MSTORE PUSH1 0x20 ADD SWAP1 DUP2 MSTORE PUSH1 0x20 ADD PUSH1 0x0 KECCAK256 SLOAD PUSH2 0x2AF3 SWAP2 SWAP1 PUSH2 0x512D JUMP JUMPDEST PUSH1 0x0 DUP3 DUP2 MSTORE PUSH1 0x39 PUSH1 0x20 MSTORE PUSH1 0x40 DUP2 KECCAK256 SWAP1 DUP7 PUSH2 0x2B0E PUSH1 0x1 DUP7 PUSH2 0x5B0C JUMP JUMPDEST DUP2 MLOAD DUP2 LT PUSH2 0x2B1E JUMPI PUSH2 0x2B1E PUSH2 0x5101 JUMP JUMPDEST PUSH1 0x20 MUL PUSH1 0x20 ADD ADD MLOAD PUSH1 0x4 DUP2 GT ISZERO PUSH2 0x2B37 JUMPI PUSH2 0x2B37 PUSH2 0x55B0 JUMP JUMPDEST PUSH1 0x4 DUP2 GT ISZERO PUSH2 0x2B48 JUMPI PUSH2 0x2B48 PUSH2 0x55B0 JUMP JUMPDEST DUP2 MSTORE PUSH1 0x20 DUP2 ADD SWAP2 SWAP1 SWAP2 MSTORE PUSH1 0x40 ADD PUSH1 0x0 KECCAK256 SSTORE DUP4 PUSH2 0x2B65 PUSH1 0x1 DUP4 PUSH2 0x5B0C JUMP JUMPDEST DUP2 MLOAD DUP2 LT PUSH2 0x2B75 JUMPI PUSH2 0x2B75 PUSH2 0x5101 JUMP JUMPDEST PUSH1 0x20 SWAP1 DUP2 MUL SWAP2 SWAP1 SWAP2 ADD DUP2 ADD MLOAD PUSH1 0x0 DUP4 DUP2 MSTORE PUSH1 0x38 DUP4 MSTORE PUSH1 0x40 DUP1 DUP3 KECCAK256 DUP8 DUP4 MSTORE SWAP1 SWAP4 MSTORE SWAP2 SWAP1 SWAP2 KECCAK256 DUP1 SLOAD PUSH1 0xFF NOT AND PUSH1 0x1 DUP4 PUSH1 0x4 DUP2 GT ISZERO PUSH2 0x2BB3 JUMPI PUSH2 0x2BB3 PUSH2 0x55B0 JUMP JUMPDEST MUL OR SWAP1 SSTORE POP JUMPDEST DUP1 PUSH2 0x2BC3 DUP2 PUSH2 0x5A92 JUMP JUMPDEST SWAP2 POP POP PUSH2 0x28D1 JUMP JUMPDEST POP DUP6 ISZERO DUP1 ISZERO SWAP1 PUSH2 0x2BDA JUMPI POP DUP5 ISZERO ISZERO JUMPDEST DUP1 ISZERO PUSH2 0x2BE5 JUMPI POP DUP4 ISZERO ISZERO JUMPDEST ISZERO PUSH2 0x2E4E JUMPI PUSH1 0x0 PUSH2 0x2BF7 DUP8 DUP8 DUP8 PUSH2 0x3E27 JUMP JUMPDEST PUSH1 0x0 DUP2 DUP2 MSTORE PUSH1 0x2C PUSH1 0x20 SWAP1 DUP2 MSTORE PUSH1 0x40 DUP1 DUP4 KECCAK256 SLOAD PUSH1 0x34 SWAP1 SWAP3 MSTORE SWAP1 SWAP2 KECCAK256 DUP1 SLOAD SWAP3 SWAP4 POP PUSH1 0x1 PUSH1 0x1 PUSH1 0xA0 SHL SUB SWAP1 SWAP2 AND SWAP2 PUSH2 0x2CC3 SWAP2 SWAP1 PUSH2 0x2C30 SWAP1 PUSH2 0x5A5D JUMP JUMPDEST DUP1 PUSH1 0x1F ADD PUSH1 0x20 DUP1 SWAP2 DIV MUL PUSH1 0x20 ADD PUSH1 0x40 MLOAD SWAP1 DUP2 ADD PUSH1 0x40 MSTORE DUP1 SWAP3 SWAP2 SWAP1 DUP2 DUP2 MSTORE PUSH1 0x20 ADD DUP3 DUP1 SLOAD PUSH2 0x2C5C SWAP1 PUSH2 0x5A5D JUMP JUMPDEST DUP1 ISZERO PUSH2 0x2CA9 JUMPI DUP1 PUSH1 0x1F LT PUSH2 0x2C7E JUMPI PUSH2 0x100 DUP1 DUP4 SLOAD DIV MUL DUP4 MSTORE SWAP2 PUSH1 0x20 ADD SWAP2 PUSH2 0x2CA9 JUMP JUMPDEST DUP3 ADD SWAP2 SWAP1 PUSH1 0x0 MSTORE PUSH1 0x20 PUSH1 0x0 KECCAK256 SWAP1 JUMPDEST DUP2 SLOAD DUP2 MSTORE SWAP1 PUSH1 0x1 ADD SWAP1 PUSH1 0x20 ADD DUP1 DUP4 GT PUSH2 0x2C8C JUMPI DUP3 SWAP1 SUB PUSH1 0x1F AND DUP3 ADD SWAP2 JUMPDEST POP POP POP POP POP PUSH1 0x40 MLOAD DUP1 PUSH1 0x20 ADD PUSH1 0x40 MSTORE DUP1 PUSH1 0x0 DUP2 MSTORE POP PUSH2 0x46DE JUMP JUMPDEST ISZERO PUSH2 0x2CF6 JUMPI PUSH1 0x40 MLOAD PUSH3 0x461BCD PUSH1 0xE5 SHL DUP2 MSTORE PUSH1 0x20 PUSH1 0x4 DUP3 ADD MSTORE PUSH1 0x3 PUSH1 0x24 DUP3 ADD MSTORE PUSH3 0x653335 PUSH1 0xE8 SHL PUSH1 0x44 DUP3 ADD MSTORE PUSH1 0x64 ADD PUSH2 0x104B JUMP JUMPDEST PUSH1 0x1 PUSH1 0x1 PUSH1 0xA0 SHL SUB DUP2 AND ISZERO DUP1 ISZERO SWAP1 PUSH2 0x2D28 JUMPI POP PUSH1 0x0 DUP5 DUP2 MSTORE PUSH1 0x35 PUSH1 0x20 MSTORE PUSH1 0x40 SWAP1 KECCAK256 SLOAD PUSH1 0x1 PUSH1 0x1 PUSH1 0xA0 SHL SUB DUP3 DUP2 AND SWAP2 AND EQ ISZERO JUMPDEST ISZERO PUSH2 0x2E4B JUMPI PUSH1 0x0 DUP5 DUP2 MSTORE PUSH1 0x35 PUSH1 0x20 SWAP1 DUP2 MSTORE PUSH1 0x40 DUP1 DUP4 KECCAK256 SLOAD PUSH1 0x1 PUSH1 0x1 PUSH1 0xA0 SHL SUB AND DUP4 MSTORE PUSH1 0x36 SWAP1 SWAP2 MSTORE SWAP1 KECCAK256 SLOAD ISZERO PUSH2 0x2DAD JUMPI PUSH1 0x0 DUP5 DUP2 MSTORE PUSH1 0x35 PUSH1 0x20 SWAP1 DUP2 MSTORE PUSH1 0x40 DUP1 DUP4 KECCAK256 SLOAD PUSH1 0x1 PUSH1 0x1 PUSH1 0xA0 SHL SUB AND DUP4 MSTORE PUSH1 0x36 SWAP1 SWAP2 MSTORE SWAP1 KECCAK256 SLOAD PUSH2 0x2D87 SWAP1 DUP5 SWAP1 PUSH2 0x5B0C JUMP JUMPDEST PUSH1 0x0 DUP6 DUP2 MSTORE PUSH1 0x35 PUSH1 0x20 SWAP1 DUP2 MSTORE PUSH1 0x40 DUP1 DUP4 KECCAK256 SLOAD PUSH1 0x1 PUSH1 0x1 PUSH1 0xA0 SHL SUB AND DUP4 MSTORE PUSH1 0x36 SWAP1 SWAP2 MSTORE SWAP1 KECCAK256 SSTORE JUMPDEST PUSH1 0x1 PUSH1 0x1 PUSH1 0xA0 SHL SUB DUP2 AND PUSH1 0x0 SWAP1 DUP2 MSTORE PUSH1 0x36 PUSH1 0x20 MSTORE PUSH1 0x40 SWAP1 KECCAK256 SLOAD PUSH2 0x2DD1 SWAP1 DUP5 SWAP1 PUSH2 0x512D JUMP JUMPDEST PUSH1 0x1 PUSH1 0x1 PUSH1 0xA0 SHL SUB DUP1 DUP4 AND PUSH1 0x0 DUP2 DUP2 MSTORE PUSH1 0x36 PUSH1 0x20 DUP2 DUP2 MSTORE PUSH1 0x40 DUP1 DUP5 KECCAK256 SWAP7 DUP8 SSTORE DUP11 DUP5 MSTORE PUSH1 0x35 DUP3 MSTORE DUP1 DUP5 KECCAK256 DUP1 SLOAD PUSH1 0x1 PUSH1 0x1 PUSH1 0xA0 SHL SUB NOT AND DUP7 OR SWAP1 SSTORE PUSH1 0x37 SLOAD SWAP1 SWAP6 AND DUP4 MSTORE MSTORE SWAP2 DUP3 KECCAK256 SLOAD SWAP2 MSTORE SWAP1 SLOAD GT ISZERO PUSH2 0x2E4B JUMPI PUSH1 0x37 DUP1 SLOAD PUSH1 0x1 PUSH1 0x1 PUSH1 0xA0 SHL SUB NOT AND PUSH1 0x1 PUSH1 0x1 PUSH1 0xA0 SHL SUB DUP4 AND OR SWAP1 SSTORE PUSH2 0x2E47 DUP9 DUP9 DUP9 PUSH2 0x3E27 JUMP JUMPDEST PUSH1 0x9 SSTORE JUMPDEST POP POP JUMPDEST POP POP POP POP POP POP POP POP POP JUMP JUMPDEST PUSH1 0x32 PUSH1 0x20 MSTORE PUSH1 0x0 SWAP1 DUP2 MSTORE PUSH1 0x40 SWAP1 KECCAK256 DUP1 SLOAD PUSH2 0x111E SWAP1 PUSH2 0x5A5D JUMP JUMPDEST PUSH1 0x33 PUSH1 0x20 MSTORE PUSH1 0x0 SWAP1 DUP2 MSTORE PUSH1 0x40 SWAP1 KECCAK256 DUP1 SLOAD PUSH2 0x111E SWAP1 PUSH2 0x5A5D JUMP JUMPDEST PUSH1 0x14 DUP1 SLOAD PUSH2 0x111E SWAP1 PUSH2 0x5A5D JUMP JUMPDEST PUSH1 0x3 SLOAD PUSH1 0x1 PUSH1 0x1 PUSH1 0xA0 SHL SUB PUSH2 0x100 SWAP1 SWAP2 DIV AND CALLER EQ PUSH2 0x2EC8 JUMPI PUSH1 0x40 MLOAD PUSH3 0x461BCD PUSH1 0xE5 SHL DUP2 MSTORE PUSH1 0x4 ADD PUSH2 0x104B SWAP1 PUSH2 0x5AAD JUMP JUMPDEST DUP1 PUSH2 0x2F11 JUMPI PUSH1 0x24 DUP1 SLOAD PUSH1 0x1 PUSH1 0x1 PUSH1 0xA0 SHL SUB DUP5 DUP2 AND PUSH1 0x1 PUSH1 0x1 PUSH1 0xA0 SHL SUB NOT DUP4 AND DUP2 OR SWAP1 SWAP4 SSTORE AND PUSH1 0x0 DUP2 DUP2 MSTORE PUSH1 0x2A PUSH1 0x20 MSTORE PUSH1 0x40 DUP1 DUP3 KECCAK256 DUP1 SLOAD SWAP5 DUP4 MSTORE SWAP1 DUP3 KECCAK256 SWAP4 SWAP1 SWAP4 SSTORE SWAP1 DUP2 MSTORE SWAP1 SSTORE POP POP JUMP JUMPDEST PUSH1 0x23 DUP1 SLOAD PUSH1 0x1 PUSH1 0x1 PUSH1 0xA0 SHL SUB DUP5 DUP2 AND PUSH1 0x1 PUSH1 0x1 PUSH1 0xA0 SHL SUB NOT DUP4 AND DUP2 OR SWAP1 SWAP4 SSTORE AND PUSH1 0x0 DUP2 DUP2 MSTORE PUSH1 0x2A PUSH1 0x20 MSTORE PUSH1 0x40 DUP1 DUP3 KECCAK256 DUP1 SLOAD SWAP5 DUP4 MSTORE SWAP1 DUP3 KECCAK256 SWAP4 SWAP1 SWAP4 SSTORE SWAP1 DUP2 MSTORE SWAP1 SSTORE POP POP JUMP JUMPDEST PUSH1 0x7 SLOAD PUSH1 0x1 PUSH1 0x1 PUSH1 0xA0 SHL SUB AND CALLER EQ DUP1 PUSH2 0x2F8F JUMPI POP PUSH1 0x3 SLOAD PUSH2 0x100 SWAP1 DIV PUSH1 0x1 PUSH1 0x1 PUSH1 0xA0 SHL SUB AND PUSH1 0x1 PUSH1 0x1 PUSH1 0xA0 SHL SUB AND CALLER PUSH1 0x1 PUSH1 0x1 PUSH1 0xA0 SHL SUB AND EQ JUMPDEST PUSH2 0x2FAB JUMPI PUSH1 0x40 MLOAD PUSH3 0x461BCD PUSH1 0xE5 SHL DUP2 MSTORE PUSH1 0x4 ADD PUSH2 0x104B SWAP1 PUSH2 0x5B89 JUMP JUMPDEST PUSH2 0x2FBD DUP2 PUSH8 0xDE0B6B3A7640000 PUSH2 0x5B23 JUMP JUMPDEST SWAP1 POP PUSH2 0x2FD1 DUP3 PUSH8 0xDE0B6B3A7640000 PUSH2 0x5B23 JUMP JUMPDEST SWAP2 POP PUSH1 0x17 SLOAD DUP3 LT ISZERO PUSH2 0x300B JUMPI PUSH1 0x40 MLOAD PUSH3 0x461BCD PUSH1 0xE5 SHL DUP2 MSTORE PUSH1 0x20 PUSH1 0x4 DUP3 ADD MSTORE PUSH1 0x3 PUSH1 0x24 DUP3 ADD MSTORE PUSH3 0x329999 PUSH1 0xE9 SHL PUSH1 0x44 DUP3 ADD MSTORE PUSH1 0x64 ADD PUSH2 0x104B JUMP JUMPDEST PUSH1 0x16 SWAP2 SWAP1 SWAP2 SSTORE PUSH1 0xD SSTORE JUMP JUMPDEST PUSH1 0x7 SLOAD PUSH1 0x1 PUSH1 0x1 PUSH1 0xA0 SHL SUB AND CALLER EQ DUP1 PUSH2 0x3050 JUMPI POP PUSH1 0x3 SLOAD PUSH2 0x100 SWAP1 DIV PUSH1 0x1 PUSH1 0x1 PUSH1 0xA0 SHL SUB AND PUSH1 0x1 PUSH1 0x1 PUSH1 0xA0 SHL SUB AND CALLER PUSH1 0x1 PUSH1 0x1 PUSH1 0xA0 SHL SUB AND EQ JUMPDEST PUSH2 0x306C JUMPI PUSH1 0x40 MLOAD PUSH3 0x461BCD PUSH1 0xE5 SHL DUP2 MSTORE PUSH1 0x4 ADD PUSH2 0x104B SWAP1 PUSH2 0x5B89 JUMP JUMPDEST PUSH1 0xE SLOAD PUSH1 0xFF AND PUSH2 0x30B9 JUMPI PUSH1 0x1A SLOAD PUSH2 0x3085 PUSH1 0x1C SLOAD TIMESTAMP PUSH2 0x3FCF JUMP JUMPDEST LT ISZERO PUSH2 0x30B9 JUMPI PUSH1 0x40 MLOAD PUSH3 0x461BCD PUSH1 0xE5 SHL DUP2 MSTORE PUSH1 0x20 PUSH1 0x4 DUP3 ADD MSTORE PUSH1 0x3 PUSH1 0x24 DUP3 ADD MSTORE PUSH3 0x653239 PUSH1 0xE8 SHL PUSH1 0x44 DUP3 ADD MSTORE PUSH1 0x64 ADD PUSH2 0x104B JUMP JUMPDEST PUSH1 0x1 PUSH1 0x1 PUSH1 0xA0 SHL SUB DUP2 AND PUSH1 0x0 SWAP1 DUP2 MSTORE PUSH1 0x2B PUSH1 0x20 MSTORE PUSH1 0x40 SWAP1 KECCAK256 SLOAD ISZERO PUSH2 0x3105 JUMPI PUSH1 0x40 MLOAD PUSH3 0x461BCD PUSH1 0xE5 SHL DUP2 MSTORE PUSH1 0x20 PUSH1 0x4 DUP3 ADD MSTORE PUSH1 0x3 PUSH1 0x24 DUP3 ADD MSTORE PUSH3 0x65333 PUSH1 0xEC SHL PUSH1 0x44 DUP3 ADD MSTORE PUSH1 0x64 ADD PUSH2 0x104B JUMP JUMPDEST TIMESTAMP PUSH1 0x1C SSTORE PUSH1 0x1 PUSH1 0x1 PUSH1 0xA0 SHL SUB AND PUSH1 0x0 SWAP1 DUP2 MSTORE PUSH1 0x2B PUSH1 0x20 MSTORE PUSH1 0x40 SWAP1 KECCAK256 PUSH1 0x1 SWAP1 SSTORE JUMP JUMPDEST PUSH1 0x30 SLOAD PUSH1 0x20 SLOAD PUSH1 0x0 SWAP2 LT PUSH2 0x3175 JUMPI PUSH2 0x3140 PUSH1 0x1D SLOAD TIMESTAMP PUSH2 0x3E7E JUMP JUMPDEST PUSH1 0x20 SLOAD PUSH1 0x64 SWAP1 PUSH2 0x3151 SWAP1 PUSH1 0x19 PUSH2 0x5B23 JUMP JUMPDEST PUSH2 0x315B SWAP2 SWAP1 PUSH2 0x5B58 JUMP JUMPDEST PUSH2 0x3165 SWAP2 SWAP1 PUSH2 0x5B23 JUMP JUMPDEST PUSH2 0x3170 SWAP1 PUSH1 0x4 PUSH2 0x5B23 JUMP JUMPDEST SWAP1 POP SWAP1 JUMP JUMPDEST PUSH1 0x30 SLOAD PUSH2 0x3183 SWAP1 PUSH1 0x4 PUSH2 0x5B23 JUMP JUMPDEST PUSH2 0x318F PUSH1 0x1D SLOAD TIMESTAMP PUSH2 0x3E7E JUMP JUMPDEST PUSH1 0x20 SLOAD PUSH1 0x64 SWAP1 PUSH2 0x31A0 SWAP1 PUSH1 0x19 PUSH2 0x5B23 JUMP JUMPDEST PUSH2 0x31AA SWAP2 SWAP1 PUSH2 0x5B58 JUMP JUMPDEST PUSH2 0x31B4 SWAP2 SWAP1 PUSH2 0x5B23 JUMP JUMPDEST PUSH2 0x3170 SWAP2 SWAP1 PUSH2 0x512D JUMP JUMPDEST SWAP1 JUMP JUMPDEST PUSH1 0x3 SLOAD PUSH1 0xFF AND ISZERO PUSH2 0x31E4 JUMPI PUSH1 0x40 MLOAD PUSH3 0x461BCD PUSH1 0xE5 SHL DUP2 MSTORE PUSH1 0x4 ADD PUSH2 0x104B SWAP1 PUSH2 0x5AE2 JUMP JUMPDEST PUSH1 0x19 SLOAD PUSH2 0x31F3 PUSH1 0x1B SLOAD TIMESTAMP PUSH2 0x3FCF JUMP JUMPDEST LT ISZERO PUSH2 0x3227 JUMPI PUSH1 0x40 MLOAD PUSH3 0x461BCD PUSH1 0xE5 SHL DUP2 MSTORE PUSH1 0x20 PUSH1 0x4 DUP3 ADD MSTORE PUSH1 0x3 PUSH1 0x24 DUP3 ADD MSTORE PUSH3 0x32989B PUSH1 0xE9 SHL PUSH1 0x44 DUP3 ADD MSTORE PUSH1 0x64 ADD PUSH2 0x104B JUMP JUMPDEST PUSH1 0x18 SLOAD PUSH1 0x1 LT PUSH2 0x325F JUMPI PUSH1 0x40 MLOAD PUSH3 0x461BCD PUSH1 0xE5 SHL DUP2 MSTORE PUSH1 0x20 PUSH1 0x4 DUP3 ADD MSTORE PUSH1 0x3 PUSH1 0x24 DUP3 ADD MSTORE PUSH3 0x653137 PUSH1 0xE8 SHL PUSH1 0x44 DUP3 ADD MSTORE PUSH1 0x64 ADD PUSH2 0x104B JUMP JUMPDEST TIMESTAMP PUSH1 0x1B SSTORE PUSH1 0x22 SLOAD PUSH1 0x21 SLOAD PUSH2 0x3273 SWAP2 SWAP1 PUSH2 0x4737 JUMP JUMPDEST PUSH1 0x6 SSTORE JUMP JUMPDEST PUSH1 0x18 SLOAD PUSH1 0x60 SWAP1 PUSH1 0x0 SWAP1 PUSH1 0x1 PUSH1 0x1 PUSH1 0x40 SHL SUB DUP2 GT ISZERO PUSH2 0x3298 JUMPI PUSH2 0x3298 PUSH2 0x5361 JUMP JUMPDEST PUSH1 0x40 MLOAD SWAP1 DUP1 DUP3 MSTORE DUP1 PUSH1 0x20 MUL PUSH1 0x20 ADD DUP3 ADD PUSH1 0x40 MSTORE DUP1 ISZERO PUSH2 0x32C1 JUMPI DUP2 PUSH1 0x20 ADD PUSH1 0x20 DUP3 MUL DUP1 CALLDATASIZE DUP4 CALLDATACOPY ADD SWAP1 POP JUMPDEST POP SWAP1 POP PUSH1 0x0 JUMPDEST PUSH1 0x18 SLOAD DUP2 LT ISZERO PUSH2 0x333E JUMPI PUSH1 0x18 DUP2 DUP2 SLOAD DUP2 LT PUSH2 0x32E4 JUMPI PUSH2 0x32E4 PUSH2 0x5101 JUMP JUMPDEST SWAP1 PUSH1 0x0 MSTORE PUSH1 0x20 PUSH1 0x0 KECCAK256 ADD PUSH1 0x0 SWAP1 SLOAD SWAP1 PUSH2 0x100 EXP SWAP1 DIV PUSH1 0x1 PUSH1 0x1 PUSH1 0xA0 SHL SUB AND DUP3 DUP3 DUP2 MLOAD DUP2 LT PUSH2 0x3314 JUMPI PUSH2 0x3314 PUSH2 0x5101 JUMP JUMPDEST PUSH1 0x1 PUSH1 0x1 PUSH1 0xA0 SHL SUB SWAP1 SWAP3 AND PUSH1 0x20 SWAP3 DUP4 MUL SWAP2 SWAP1 SWAP2 ADD SWAP1 SWAP2 ADD MSTORE DUP1 PUSH2 0x3336 DUP2 PUSH2 0x5A92 JUMP JUMPDEST SWAP2 POP POP PUSH2 0x32C7 JUMP JUMPDEST POP SWAP2 SWAP1 POP JUMP JUMPDEST PUSH1 0x7 SLOAD PUSH1 0x1 PUSH1 0x1 PUSH1 0xA0 SHL SUB AND CALLER EQ DUP1 PUSH2 0x337E JUMPI POP PUSH1 0x3 SLOAD PUSH2 0x100 SWAP1 DIV PUSH1 0x1 PUSH1 0x1 PUSH1 0xA0 SHL SUB AND PUSH1 0x1 PUSH1 0x1 PUSH1 0xA0 SHL SUB AND CALLER PUSH1 0x1 PUSH1 0x1 PUSH1 0xA0 SHL SUB AND EQ JUMPDEST PUSH2 0x339A JUMPI PUSH1 0x40 MLOAD PUSH3 0x461BCD PUSH1 0xE5 SHL DUP2 MSTORE PUSH1 0x4 ADD PUSH2 0x104B SWAP1 PUSH2 0x5B89 JUMP JUMPDEST PUSH1 0x0 PUSH2 0x33A4 PUSH2 0x39D7 JUMP JUMPDEST PUSH1 0x10 SLOAD PUSH2 0x100 SWAP1 DIV PUSH1 0x1 PUSH1 0x1 PUSH1 0xA0 SHL SUB AND PUSH1 0x0 SWAP1 DUP2 MSTORE PUSH1 0x2A PUSH1 0x20 MSTORE PUSH1 0x40 SWAP1 KECCAK256 SLOAD PUSH2 0x33CE SWAP2 SWAP1 PUSH2 0x5B58 JUMP JUMPDEST PUSH2 0x33D9 SWAP1 PUSH1 0x4 PUSH2 0x5B23 JUMP JUMPDEST SWAP1 POP PUSH1 0x1E DUP2 LT ISZERO PUSH2 0x33E9 JUMPI PUSH1 0x0 SWAP2 POP JUMPDEST DUP2 ISZERO PUSH2 0x34A2 JUMPI PUSH1 0x10 DUP1 SLOAD PUSH1 0xFF NOT AND PUSH1 0x1 OR SWAP1 DUP2 SWAP1 SSTORE PUSH1 0x1 PUSH1 0x1 PUSH1 0xA0 SHL SUB PUSH2 0x100 SWAP1 SWAP2 DIV DUP2 AND PUSH1 0x0 SWAP1 DUP2 MSTORE PUSH1 0x2A PUSH1 0x20 MSTORE PUSH1 0x40 DUP1 DUP3 KECCAK256 SLOAD PUSH1 0x28 SLOAD SWAP1 SWAP4 AND DUP3 MSTORE SWAP1 KECCAK256 SLOAD PUSH2 0x3433 SWAP2 SWAP1 PUSH2 0x512D JUMP JUMPDEST PUSH1 0x28 SLOAD PUSH1 0x1 PUSH1 0x1 PUSH1 0xA0 SHL SUB SWAP1 DUP2 AND PUSH1 0x0 SWAP1 DUP2 MSTORE PUSH1 0x2A PUSH1 0x20 MSTORE PUSH1 0x40 DUP1 DUP3 KECCAK256 SWAP4 SWAP1 SWAP4 SSTORE PUSH1 0x10 SLOAD PUSH2 0x100 SWAP1 DIV SWAP1 SWAP2 AND DUP2 MSTORE SWAP1 DUP2 KECCAK256 SSTORE PUSH2 0x346F TIMESTAMP DUP3 PUSH2 0x48B3 JUMP JUMPDEST PUSH1 0x15 SSTORE PUSH1 0x10 SLOAD PUSH1 0x40 DUP1 MLOAD PUSH1 0x20 DUP2 ADD SWAP1 SWAP2 MSTORE PUSH1 0x0 DUP2 MSTORE PUSH2 0x2517 SWAP2 PUSH2 0x100 SWAP1 DIV PUSH1 0x1 PUSH1 0x1 PUSH1 0xA0 SHL SUB AND SWAP1 PUSH1 0x2 SWAP1 PUSH1 0x1 SWAP1 PUSH2 0x3FF6 JUMP JUMPDEST PUSH1 0x10 DUP1 SLOAD PUSH1 0x1 PUSH1 0x1 PUSH1 0xA8 SHL SUB NOT AND SWAP1 SSTORE TIMESTAMP PUSH1 0x15 SSTORE PUSH1 0x40 DUP1 MLOAD PUSH1 0x20 DUP2 ADD SWAP2 DUP3 SWAP1 MSTORE PUSH1 0x0 SWAP1 DUP2 SWAP1 MSTORE PUSH2 0x34D4 SWAP2 PUSH1 0x11 SWAP2 PUSH2 0x5013 JUMP JUMPDEST POP PUSH1 0x40 DUP1 MLOAD PUSH1 0x20 DUP2 ADD SWAP2 DUP3 SWAP1 MSTORE PUSH1 0x0 SWAP1 DUP2 SWAP1 MSTORE PUSH2 0x34F3 SWAP2 PUSH1 0x12 SWAP2 PUSH2 0x5013 JUMP JUMPDEST POP PUSH1 0x40 DUP1 MLOAD PUSH1 0x20 DUP2 ADD SWAP2 DUP3 SWAP1 MSTORE PUSH1 0x0 SWAP1 DUP2 SWAP1 MSTORE PUSH2 0x3512 SWAP2 PUSH1 0x13 SWAP2 PUSH2 0x5013 JUMP JUMPDEST POP PUSH1 0x40 DUP1 MLOAD PUSH1 0x20 DUP2 ADD SWAP2 DUP3 SWAP1 MSTORE PUSH1 0x0 SWAP1 DUP2 SWAP1 MSTORE PUSH2 0x242E SWAP2 PUSH1 0x14 SWAP2 PUSH2 0x5013 JUMP JUMPDEST PUSH1 0x0 DUP1 PUSH2 0x353F DUP6 DUP6 DUP6 PUSH2 0x3E27 JUMP JUMPDEST PUSH1 0x0 DUP2 DUP2 MSTORE PUSH1 0x2C PUSH1 0x20 MSTORE PUSH1 0x40 SWAP1 KECCAK256 SLOAD SWAP1 SWAP2 POP PUSH1 0x1 PUSH1 0x1 PUSH1 0xA0 SHL SUB AND PUSH2 0x3576 JUMPI PUSH1 0x40 MLOAD PUSH3 0x461BCD PUSH1 0xE5 SHL DUP2 MSTORE PUSH1 0x4 ADD PUSH2 0x104B SWAP1 PUSH2 0x5B6C JUMP JUMPDEST PUSH1 0x0 PUSH2 0x3582 DUP3 TIMESTAMP PUSH2 0x3E7E JUMP JUMPDEST PUSH1 0x0 DUP4 DUP2 MSTORE PUSH1 0x2E PUSH1 0x20 MSTORE PUSH1 0x40 SWAP1 KECCAK256 SLOAD SWAP1 SWAP2 POP PUSH1 0xFF AND ISZERO PUSH2 0x35AA JUMPI PUSH2 0x35A7 DUP2 PUSH1 0x4 PUSH2 0x5B23 JUMP JUMPDEST SWAP1 POP JUMPDEST PUSH1 0x0 DUP2 GT PUSH2 0x35B6 JUMPI POP PUSH1 0x1 JUMPDEST SWAP6 SWAP5 POP POP POP POP POP JUMP JUMPDEST PUSH1 0x0 PUSH2 0x35CC DUP5 DUP5 DUP5 PUSH2 0x3E27 JUMP JUMPDEST PUSH1 0x0 DUP2 DUP2 MSTORE PUSH1 0x2C PUSH1 0x20 MSTORE PUSH1 0x40 SWAP1 KECCAK256 SLOAD SWAP1 SWAP2 POP PUSH1 0x1 PUSH1 0x1 PUSH1 0xA0 SHL SUB AND PUSH2 0x3603 JUMPI PUSH1 0x40 MLOAD PUSH3 0x461BCD PUSH1 0xE5 SHL DUP2 MSTORE PUSH1 0x4 ADD PUSH2 0x104B SWAP1 PUSH2 0x5B6C JUMP JUMPDEST PUSH1 0x0 DUP2 DUP2 MSTORE PUSH1 0x2D PUSH1 0x20 MSTORE PUSH1 0x40 SWAP1 KECCAK256 SLOAD PUSH2 0x361D SWAP1 PUSH1 0x1 PUSH2 0x512D JUMP JUMPDEST PUSH1 0x0 DUP3 DUP2 MSTORE PUSH1 0x2D PUSH1 0x20 MSTORE PUSH1 0x40 DUP1 DUP3 KECCAK256 SWAP3 SWAP1 SWAP3 SSTORE SWAP1 MLOAD DUP4 SWAP2 DUP6 SWAP2 DUP8 SWAP2 PUSH32 0x4944E1AEB07A8479E05E8FC701C92C6112BD7B4B2CDE831C86B39DD0637C4F39 SWAP2 LOG4 POP POP POP POP JUMP JUMPDEST PUSH1 0x1 PUSH1 0x1 PUSH1 0xA0 SHL SUB DUP6 AND CALLER EQ DUP1 PUSH2 0x367D JUMPI POP PUSH2 0x367D DUP6 CALLER PUSH2 0xE7A JUMP JUMPDEST PUSH2 0x36DB JUMPI PUSH1 0x40 MLOAD PUSH3 0x461BCD PUSH1 0xE5 SHL DUP2 MSTORE PUSH1 0x20 PUSH1 0x4 DUP3 ADD MSTORE PUSH1 0x29 PUSH1 0x24 DUP3 ADD MSTORE PUSH32 0x455243313135353A2063616C6C6572206973206E6F74206F776E6572206E6F72 PUSH1 0x44 DUP3 ADD MSTORE PUSH9 0x8185C1C1C9BDD9959 PUSH1 0xBA SHL PUSH1 0x64 DUP3 ADD MSTORE PUSH1 0x84 ADD PUSH2 0x104B JUMP JUMPDEST PUSH1 0x1D SLOAD DUP4 LT ISZERO PUSH2 0x3713 JUMPI PUSH1 0x40 MLOAD PUSH3 0x461BCD PUSH1 0xE5 SHL DUP2 MSTORE PUSH1 0x20 PUSH1 0x4 DUP3 ADD MSTORE PUSH1 0x3 PUSH1 0x24 DUP3 ADD MSTORE PUSH3 0x32991B PUSH1 0xE9 SHL PUSH1 0x44 DUP3 ADD MSTORE PUSH1 0x64 ADD PUSH2 0x104B JUMP JUMPDEST PUSH2 0x3720 DUP6 DUP6 DUP6 DUP6 DUP6 PUSH2 0x48DB JUMP JUMPDEST PUSH1 0x0 DUP4 DUP2 MSTORE PUSH1 0x2C PUSH1 0x20 SWAP1 DUP2 MSTORE PUSH1 0x40 DUP1 DUP4 KECCAK256 DUP1 SLOAD PUSH1 0x1 PUSH1 0x1 PUSH1 0xA0 SHL SUB NOT AND PUSH1 0x1 PUSH1 0x1 PUSH1 0xA0 SHL SUB DUP10 DUP2 AND SWAP2 DUP3 OR SWAP1 SWAP3 SSTORE SWAP1 DUP10 AND DUP5 MSTORE PUSH1 0x2A SWAP1 SWAP3 MSTORE DUP1 DUP4 KECCAK256 SLOAD SWAP2 DUP4 MSTORE SWAP1 SWAP2 KECCAK256 SLOAD PUSH2 0x376D SWAP2 SWAP1 PUSH2 0x512D JUMP JUMPDEST PUSH1 0x1 PUSH1 0x1 PUSH1 0xA0 SHL SUB DUP1 DUP7 AND PUSH1 0x0 SWAP1 DUP2 MSTORE PUSH1 0x2A PUSH1 0x20 SWAP1 DUP2 MSTORE PUSH1 0x40 DUP1 DUP4 KECCAK256 SWAP5 SWAP1 SWAP5 SSTORE SWAP2 DUP9 AND DUP2 MSTORE DUP3 DUP2 KECCAK256 DUP2 SWAP1 SSTORE DUP6 DUP2 MSTORE PUSH1 0x2E SWAP1 SWAP2 MSTORE KECCAK256 SLOAD PUSH1 0xFF AND ISZERO PUSH2 0x222A JUMPI PUSH1 0x0 DUP4 DUP2 MSTORE PUSH1 0x2F PUSH1 0x20 MSTORE PUSH1 0x40 SWAP1 KECCAK256 SLOAD PUSH1 0x30 DUP1 SLOAD DUP7 SWAP3 SWAP1 DUP2 LT PUSH2 0x37CE JUMPI PUSH2 0x37CE PUSH2 0x5101 JUMP JUMPDEST SWAP1 PUSH1 0x0 MSTORE PUSH1 0x20 PUSH1 0x0 KECCAK256 ADD PUSH1 0x0 PUSH2 0x100 EXP DUP2 SLOAD DUP2 PUSH1 0x1 PUSH1 0x1 PUSH1 0xA0 SHL SUB MUL NOT AND SWAP1 DUP4 PUSH1 0x1 PUSH1 0x1 PUSH1 0xA0 SHL SUB AND MUL OR SWAP1 SSTORE POP POP POP POP POP POP JUMP JUMPDEST PUSH1 0x3 SLOAD PUSH1 0x1 PUSH1 0x1 PUSH1 0xA0 SHL SUB PUSH2 0x100 SWAP1 SWAP2 DIV AND CALLER EQ PUSH2 0x3833 JUMPI PUSH1 0x40 MLOAD PUSH3 0x461BCD PUSH1 0xE5 SHL DUP2 MSTORE PUSH1 0x4 ADD PUSH2 0x104B SWAP1 PUSH2 0x5AAD JUMP JUMPDEST PUSH1 0x1 PUSH1 0x1 PUSH1 0xA0 SHL SUB DUP2 AND PUSH2 0x3898 JUMPI PUSH1 0x40 MLOAD PUSH3 0x461BCD PUSH1 0xE5 SHL DUP2 MSTORE PUSH1 0x20 PUSH1 0x4 DUP3 ADD MSTORE PUSH1 0x26 PUSH1 0x24 DUP3 ADD MSTORE PUSH32 0x4F776E61626C653A206E6577206F776E657220697320746865207A65726F2061 PUSH1 0x44 DUP3 ADD MSTORE PUSH6 0x646472657373 PUSH1 0xD0 SHL PUSH1 0x64 DUP3 ADD MSTORE PUSH1 0x84 ADD PUSH2 0x104B JUMP JUMPDEST PUSH2 0x38A1 DUP2 PUSH2 0x43E1 JUMP JUMPDEST POP JUMP JUMPDEST PUSH1 0x3 SLOAD PUSH1 0xFF AND ISZERO PUSH2 0x38C7 JUMPI PUSH1 0x40 MLOAD PUSH3 0x461BCD PUSH1 0xE5 SHL DUP2 MSTORE PUSH1 0x4 ADD PUSH2 0x104B SWAP1 PUSH2 0x5AE2 JUMP JUMPDEST PUSH1 0xE SLOAD PUSH1 0xFF AND ISZERO PUSH2 0x3900 JUMPI PUSH1 0x40 MLOAD PUSH3 0x461BCD PUSH1 0xE5 SHL DUP2 MSTORE PUSH1 0x20 PUSH1 0x4 DUP3 ADD MSTORE PUSH1 0x3 PUSH1 0x24 DUP3 ADD MSTORE PUSH3 0x65323 PUSH1 0xEC SHL PUSH1 0x44 DUP3 ADD MSTORE PUSH1 0x64 ADD PUSH2 0x104B JUMP JUMPDEST PUSH1 0x1 PUSH1 0x0 JUMPDEST PUSH1 0x18 SLOAD DUP2 LT ISZERO PUSH2 0x395E JUMPI CALLER PUSH1 0x1 PUSH1 0x1 PUSH1 0xA0 SHL SUB AND PUSH1 0x18 DUP3 DUP2 SLOAD DUP2 LT PUSH2 0x392C JUMPI PUSH2 0x392C PUSH2 0x5101 JUMP JUMPDEST PUSH1 0x0 SWAP2 DUP3 MSTORE PUSH1 0x20 SWAP1 SWAP2 KECCAK256 ADD SLOAD PUSH1 0x1 PUSH1 0x1 PUSH1 0xA0 SHL SUB AND EQ ISZERO PUSH2 0x394C JUMPI PUSH1 0x0 SWAP2 POP JUMPDEST DUP1 PUSH2 0x3956 DUP2 PUSH2 0x5A92 JUMP JUMPDEST SWAP2 POP POP PUSH2 0x3905 JUMP JUMPDEST POP DUP1 PUSH2 0x3992 JUMPI PUSH1 0x40 MLOAD PUSH3 0x461BCD PUSH1 0xE5 SHL DUP2 MSTORE PUSH1 0x20 PUSH1 0x4 DUP3 ADD MSTORE PUSH1 0x3 PUSH1 0x24 DUP3 ADD MSTORE PUSH3 0x653231 PUSH1 0xE8 SHL PUSH1 0x44 DUP3 ADD MSTORE PUSH1 0x64 ADD PUSH2 0x104B JUMP JUMPDEST POP PUSH1 0x18 DUP1 SLOAD PUSH1 0x1 DUP2 ADD DUP3 SSTORE PUSH1 0x0 SWAP2 SWAP1 SWAP2 MSTORE PUSH32 0xB13D2D76D1F4B7BE834882E410B3E3A8AFAF69F83600AE24DB354391D2378D2E ADD DUP1 SLOAD PUSH1 0x1 PUSH1 0x1 PUSH1 0xA0 SHL SUB NOT AND CALLER OR SWAP1 SSTORE JUMP JUMPDEST PUSH1 0x0 DUP1 PUSH1 0xB PUSH1 0x0 SWAP1 SLOAD SWAP1 PUSH2 0x100 EXP SWAP1 DIV PUSH1 0x1 PUSH1 0x1 PUSH1 0xA0 SHL SUB AND PUSH1 0x1 PUSH1 0x1 PUSH1 0xA0 SHL SUB AND PUSH4 0xFEAF968C PUSH1 0x40 MLOAD DUP2 PUSH4 0xFFFFFFFF AND PUSH1 0xE0 SHL DUP2 MSTORE PUSH1 0x4 ADD PUSH1 0xA0 PUSH1 0x40 MLOAD DUP1 DUP4 SUB DUP2 DUP7 GAS STATICCALL ISZERO DUP1 ISZERO PUSH2 0x3A2D JUMPI RETURNDATASIZE PUSH1 0x0 DUP1 RETURNDATACOPY RETURNDATASIZE PUSH1 0x0 REVERT JUMPDEST POP POP POP POP PUSH1 0x40 MLOAD RETURNDATASIZE PUSH1 0x1F NOT PUSH1 0x1F DUP3 ADD AND DUP3 ADD DUP1 PUSH1 0x40 MSTORE POP DUP2 ADD SWAP1 PUSH2 0x3A51 SWAP2 SWAP1 PUSH2 0x5BBF JUMP JUMPDEST POP POP POP SWAP2 POP POP DUP1 PUSH5 0x2540BE400 PUSH2 0x3A68 SWAP2 SWAP1 PUSH2 0x5B23 JUMP JUMPDEST PUSH1 0x16 SLOAD PUSH2 0x3A7D SWAP1 PUSH8 0xDE0B6B3A7640000 PUSH2 0x5B23 JUMP JUMPDEST PUSH2 0x3A87 SWAP2 SWAP1 PUSH2 0x5B58 JUMP JUMPDEST SWAP2 POP POP SWAP1 JUMP JUMPDEST PUSH1 0x0 PUSH2 0x3A9A DUP9 DUP9 DUP9 PUSH2 0x3E27 JUMP JUMPDEST SWAP1 POP PUSH1 0xFF DUP6 MLOAD GT ISZERO PUSH2 0x3AD4 JUMPI PUSH1 0x40 MLOAD PUSH3 0x461BCD PUSH1 0xE5 SHL DUP2 MSTORE PUSH1 0x20 PUSH1 0x4 DUP3 ADD MSTORE PUSH1 0x3 PUSH1 0x24 DUP3 ADD MSTORE PUSH3 0x329919 PUSH1 0xE9 SHL PUSH1 0x44 DUP3 ADD MSTORE PUSH1 0x64 ADD PUSH2 0x104B JUMP JUMPDEST PUSH1 0x0 DUP2 DUP2 MSTORE PUSH1 0x2C PUSH1 0x20 MSTORE PUSH1 0x40 SWAP1 KECCAK256 SLOAD PUSH1 0x1 PUSH1 0x1 PUSH1 0xA0 SHL SUB AND PUSH2 0x3B1E JUMPI PUSH1 0x40 MLOAD PUSH3 0x461BCD PUSH1 0xE5 SHL DUP2 MSTORE PUSH1 0x20 PUSH1 0x4 DUP3 ADD MSTORE PUSH1 0x3 PUSH1 0x24 DUP3 ADD MSTORE PUSH3 0x653233 PUSH1 0xE8 SHL PUSH1 0x44 DUP3 ADD MSTORE PUSH1 0x64 ADD PUSH2 0x104B JUMP JUMPDEST PUSH1 0x0 DUP2 DUP2 MSTORE PUSH1 0x2C PUSH1 0x20 MSTORE PUSH1 0x40 SWAP1 KECCAK256 SLOAD PUSH1 0x1 PUSH1 0x1 PUSH1 0xA0 SHL SUB AND CALLER EQ PUSH2 0x3B6A JUMPI PUSH1 0x40 MLOAD PUSH3 0x461BCD PUSH1 0xE5 SHL DUP2 MSTORE PUSH1 0x20 PUSH1 0x4 DUP3 ADD MSTORE PUSH1 0x3 PUSH1 0x24 DUP3 ADD MSTORE PUSH3 0x194C8D PUSH1 0xEA SHL PUSH1 0x44 DUP3 ADD MSTORE PUSH1 0x64 ADD PUSH2 0x104B JUMP JUMPDEST PUSH2 0x3B8D DUP6 PUSH1 0x40 MLOAD DUP1 PUSH1 0x40 ADD PUSH1 0x40 MSTORE DUP1 PUSH1 0x1 DUP2 MSTORE PUSH1 0x20 ADD PUSH1 0x1 PUSH1 0xFD SHL DUP2 MSTORE POP PUSH2 0x46DE JUMP JUMPDEST PUSH2 0x3BC1 JUMPI PUSH1 0x0 DUP2 DUP2 MSTORE PUSH1 0x31 PUSH1 0x20 SWAP1 DUP2 MSTORE PUSH1 0x40 SWAP1 SWAP2 KECCAK256 DUP7 MLOAD PUSH2 0x3BB0 SWAP3 DUP9 ADD SWAP1 PUSH2 0x5013 JUMP JUMPDEST POP PUSH1 0x0 DUP2 DUP2 MSTORE PUSH1 0x2D PUSH1 0x20 MSTORE PUSH1 0x40 DUP2 KECCAK256 SSTORE JUMPDEST PUSH2 0x3BE4 DUP4 PUSH1 0x40 MLOAD DUP1 PUSH1 0x40 ADD PUSH1 0x40 MSTORE DUP1 PUSH1 0x1 DUP2 MSTORE PUSH1 0x20 ADD PUSH1 0x1 PUSH1 0xFD SHL DUP2 MSTORE POP PUSH2 0x46DE JUMP JUMPDEST PUSH2 0x3C0A JUMPI CALLER PUSH1 0x0 SWAP1 DUP2 MSTORE PUSH1 0x33 PUSH1 0x20 SWAP1 DUP2 MSTORE PUSH1 0x40 SWAP1 SWAP2 KECCAK256 DUP5 MLOAD PUSH2 0x3C08 SWAP3 DUP7 ADD SWAP1 PUSH2 0x5013 JUMP JUMPDEST POP JUMPDEST PUSH2 0x3C2D DUP3 PUSH1 0x40 MLOAD DUP1 PUSH1 0x40 ADD PUSH1 0x40 MSTORE DUP1 PUSH1 0x1 DUP2 MSTORE PUSH1 0x20 ADD PUSH1 0x1 PUSH1 0xFD SHL DUP2 MSTORE POP PUSH2 0x46DE JUMP JUMPDEST PUSH2 0x3C52 JUMPI PUSH1 0x0 DUP2 DUP2 MSTORE PUSH1 0x34 PUSH1 0x20 SWAP1 DUP2 MSTORE PUSH1 0x40 SWAP1 SWAP2 KECCAK256 DUP4 MLOAD PUSH2 0x3C50 SWAP3 DUP6 ADD SWAP1 PUSH2 0x5013 JUMP JUMPDEST POP JUMPDEST PUSH2 0x3C75 DUP5 PUSH1 0x40 MLOAD DUP1 PUSH1 0x40 ADD PUSH1 0x40 MSTORE DUP1 PUSH1 0x1 DUP2 MSTORE PUSH1 0x20 ADD PUSH1 0x1 PUSH1 0xFD SHL DUP2 MSTORE POP PUSH2 0x46DE JUMP JUMPDEST PUSH2 0x3DC6 JUMPI PUSH1 0x40 DUP1 MLOAD DUP1 DUP3 ADD DUP3 MSTORE PUSH1 0x0 DUP1 DUP3 MSTORE PUSH1 0x20 SWAP2 DUP3 ADD MSTORE DUP2 MLOAD DUP1 DUP4 ADD SWAP1 SWAP3 MSTORE DUP6 MLOAD DUP3 MSTORE DUP1 DUP7 ADD SWAP1 DUP3 ADD MSTORE PUSH2 0x3D64 SWAP1 PUSH2 0x3D5F PUSH1 0x5 DUP1 SLOAD PUSH2 0x3CB4 SWAP1 PUSH2 0x5A5D JUMP JUMPDEST DUP1 PUSH1 0x1F ADD PUSH1 0x20 DUP1 SWAP2 DIV MUL PUSH1 0x20 ADD PUSH1 0x40 MLOAD SWAP1 DUP2 ADD PUSH1 0x40 MSTORE DUP1 SWAP3 SWAP2 SWAP1 DUP2 DUP2 MSTORE PUSH1 0x20 ADD DUP3 DUP1 SLOAD PUSH2 0x3CE0 SWAP1 PUSH2 0x5A5D JUMP JUMPDEST DUP1 ISZERO PUSH2 0x3D2D JUMPI DUP1 PUSH1 0x1F LT PUSH2 0x3D02 JUMPI PUSH2 0x100 DUP1 DUP4 SLOAD DIV MUL DUP4 MSTORE SWAP2 PUSH1 0x20 ADD SWAP2 PUSH2 0x3D2D JUMP JUMPDEST DUP3 ADD SWAP2 SWAP1 PUSH1 0x0 MSTORE PUSH1 0x20 PUSH1 0x0 KECCAK256 SWAP1 JUMPDEST DUP2 SLOAD DUP2 MSTORE SWAP1 PUSH1 0x1 ADD SWAP1 PUSH1 0x20 ADD DUP1 DUP4 GT PUSH2 0x3D10 JUMPI DUP3 SWAP1 SUB PUSH1 0x1F AND DUP3 ADD SWAP2 JUMPDEST POP POP POP POP POP PUSH1 0x40 DUP1 MLOAD DUP1 DUP3 ADD DUP3 MSTORE PUSH1 0x0 DUP1 DUP3 MSTORE PUSH1 0x20 SWAP2 DUP3 ADD MSTORE DUP2 MLOAD DUP1 DUP4 ADD SWAP1 SWAP3 MSTORE DUP3 MLOAD DUP3 MSTORE SWAP2 DUP3 ADD SWAP2 DUP2 ADD SWAP2 SWAP1 SWAP2 MSTORE SWAP1 JUMP JUMPDEST PUSH2 0x4A36 JUMP JUMPDEST PUSH2 0x3D96 JUMPI PUSH1 0x40 MLOAD PUSH3 0x461BCD PUSH1 0xE5 SHL DUP2 MSTORE PUSH1 0x20 PUSH1 0x4 DUP3 ADD MSTORE PUSH1 0x3 PUSH1 0x24 DUP3 ADD MSTORE PUSH3 0x653235 PUSH1 0xE8 SHL PUSH1 0x44 DUP3 ADD MSTORE PUSH1 0x64 ADD PUSH2 0x104B JUMP JUMPDEST PUSH1 0x0 DUP2 DUP2 MSTORE PUSH1 0x32 PUSH1 0x20 SWAP1 DUP2 MSTORE PUSH1 0x40 SWAP1 SWAP2 KECCAK256 DUP6 MLOAD PUSH2 0x3DB5 SWAP3 DUP8 ADD SWAP1 PUSH2 0x5013 JUMP JUMPDEST POP PUSH1 0x0 DUP2 DUP2 MSTORE PUSH1 0x2D PUSH1 0x20 MSTORE PUSH1 0x40 DUP2 KECCAK256 SSTORE JUMPDEST DUP6 DUP8 DUP10 PUSH32 0xE80E787D8312C1F12419513EF663CCBFAA42EA5226B0A7BE319138F4A30745E2 PUSH1 0x40 MLOAD PUSH1 0x40 MLOAD DUP1 SWAP2 SUB SWAP1 LOG4 POP POP POP POP POP POP POP POP JUMP JUMPDEST PUSH1 0x0 PUSH2 0x3E0E PUSH3 0x15180 DUP4 PUSH2 0x5B23 JUMP JUMPDEST PUSH2 0x3E18 SWAP1 DUP5 PUSH2 0x5B0C JUMP JUMPDEST SWAP1 POP DUP3 DUP2 GT ISZERO PUSH2 0x1077 JUMPI PUSH1 0x0 DUP1 REVERT JUMPDEST PUSH1 0x0 PUSH3 0x15180 PUSH2 0x3E38 DUP6 DUP6 DUP6 PUSH2 0x4A7A JUMP JUMPDEST PUSH2 0x10DA SWAP2 SWAP1 PUSH2 0x5B23 JUMP JUMPDEST PUSH1 0x0 PUSH2 0x3E4F PUSH1 0x4 DUP4 PUSH2 0x5C0F JUMP JUMPDEST ISZERO DUP1 ISZERO PUSH2 0x3E65 JUMPI POP PUSH2 0x3E62 PUSH1 0x64 DUP4 PUSH2 0x5C0F JUMP JUMPDEST ISZERO ISZERO JUMPDEST DUP1 PUSH2 0x1077 JUMPI POP PUSH2 0x3E77 PUSH2 0x190 DUP4 PUSH2 0x5C0F JUMP JUMPDEST ISZERO SWAP3 SWAP2 POP POP JUMP JUMPDEST PUSH1 0x0 DUP2 DUP4 GT ISZERO PUSH2 0x3E8D JUMPI PUSH1 0x0 DUP1 REVERT JUMPDEST PUSH1 0x0 DUP1 DUP1 DUP1 DUP1 DUP1 PUSH2 0x3EA9 PUSH2 0x3EA4 PUSH3 0x15180 DUP12 PUSH2 0x5B58 JUMP JUMPDEST PUSH2 0x4BB7 JUMP JUMPDEST SWAP2 SWAP8 POP SWAP6 POP SWAP4 POP PUSH2 0x3EC0 PUSH2 0x3EA4 PUSH3 0x15180 DUP11 PUSH2 0x5B58 JUMP JUMPDEST SWAP2 SWAP5 POP SWAP3 POP SWAP1 POP PUSH2 0x3ED1 DUP7 DUP5 PUSH2 0x5B0C JUMP JUMPDEST SWAP10 SWAP9 POP POP POP POP POP POP POP POP POP JUMP JUMPDEST EXTCODESIZE ISZERO ISZERO SWAP1 JUMP JUMPDEST PUSH1 0x3 SLOAD PUSH1 0xFF AND PUSH2 0x3F2D JUMPI PUSH1 0x40 MLOAD PUSH3 0x461BCD PUSH1 0xE5 SHL DUP2 MSTORE PUSH1 0x20 PUSH1 0x4 DUP3 ADD MSTORE PUSH1 0x14 PUSH1 0x24 DUP3 ADD MSTORE PUSH20 0x14185D5CD8589B194E881B9BDD081C185D5CD959 PUSH1 0x62 SHL PUSH1 0x44 DUP3 ADD MSTORE PUSH1 0x64 ADD PUSH2 0x104B JUMP JUMPDEST PUSH1 0x3 DUP1 SLOAD PUSH1 0xFF NOT AND SWAP1 SSTORE PUSH32 0x5DB9EE0A495BF2E6FF9C91A7834C1BA4FDD244A5E8AA4E537BD38AEAE4B073AA CALLER JUMPDEST PUSH1 0x40 MLOAD PUSH1 0x1 PUSH1 0x1 PUSH1 0xA0 SHL SUB SWAP1 SWAP2 AND DUP2 MSTORE PUSH1 0x20 ADD PUSH1 0x40 MLOAD DUP1 SWAP2 SUB SWAP1 LOG1 JUMP JUMPDEST PUSH1 0x3 SLOAD PUSH1 0xFF AND ISZERO PUSH2 0x3F9A JUMPI PUSH1 0x40 MLOAD PUSH3 0x461BCD PUSH1 0xE5 SHL DUP2 MSTORE PUSH1 0x4 ADD PUSH2 0x104B SWAP1 PUSH2 0x5AE2 JUMP JUMPDEST PUSH1 0x3 DUP1 SLOAD PUSH1 0xFF NOT AND PUSH1 0x1 OR SWAP1 SSTORE PUSH32 0x62E78CEA01BEE320CD4E420270B5EA74000D11B0C9F74754EBDBFC544B05A258 PUSH2 0x3F5A CALLER SWAP1 JUMP JUMPDEST PUSH1 0x0 DUP2 DUP4 GT ISZERO PUSH2 0x3FDE JUMPI PUSH1 0x0 DUP1 REVERT JUMPDEST PUSH3 0x15180 PUSH2 0x3FEC DUP5 DUP5 PUSH2 0x5B0C JUMP JUMPDEST PUSH2 0x2455 SWAP2 SWAP1 PUSH2 0x5B58 JUMP JUMPDEST PUSH1 0x1 PUSH1 0x1 PUSH1 0xA0 SHL SUB DUP5 AND PUSH2 0x4056 JUMPI PUSH1 0x40 MLOAD PUSH3 0x461BCD PUSH1 0xE5 SHL DUP2 MSTORE PUSH1 0x20 PUSH1 0x4 DUP3 ADD MSTORE PUSH1 0x21 PUSH1 0x24 DUP3 ADD MSTORE PUSH32 0x455243313135353A206D696E7420746F20746865207A65726F20616464726573 PUSH1 0x44 DUP3 ADD MSTORE PUSH1 0x73 PUSH1 0xF8 SHL PUSH1 0x64 DUP3 ADD MSTORE PUSH1 0x84 ADD PUSH2 0x104B JUMP JUMPDEST CALLER PUSH2 0x4076 DUP2 PUSH1 0x0 DUP8 PUSH2 0x4067 DUP9 PUSH2 0x4D2B JUMP JUMPDEST PUSH2 0x4070 DUP9 PUSH2 0x4D2B JUMP JUMPDEST DUP8 PUSH2 0x4D76 JUMP JUMPDEST PUSH1 0x0 DUP5 DUP2 MSTORE PUSH1 0x20 DUP2 DUP2 MSTORE PUSH1 0x40 DUP1 DUP4 KECCAK256 PUSH1 0x1 PUSH1 0x1 PUSH1 0xA0 SHL SUB DUP10 AND DUP5 MSTORE SWAP1 SWAP2 MSTORE DUP2 KECCAK256 DUP1 SLOAD DUP6 SWAP3 SWAP1 PUSH2 0x40A6 SWAP1 DUP5 SWAP1 PUSH2 0x512D JUMP JUMPDEST SWAP1 SWAP2 SSTORE POP POP PUSH1 0x40 DUP1 MLOAD DUP6 DUP2 MSTORE PUSH1 0x20 DUP2 ADD DUP6 SWAP1 MSTORE PUSH1 0x1 PUSH1 0x1 PUSH1 0xA0 SHL SUB DUP1 DUP9 AND SWAP3 PUSH1 0x0 SWAP3 SWAP2 DUP6 AND SWAP2 PUSH32 0xC3D58168C5AE7397731D063D5BBF3D657854427343F4C083240F7AACAA2D0F62 SWAP2 ADD PUSH1 0x40 MLOAD DUP1 SWAP2 SUB SWAP1 LOG4 PUSH2 0x222A DUP2 PUSH1 0x0 DUP8 DUP8 DUP8 DUP8 PUSH2 0x4DDE JUMP JUMPDEST PUSH1 0x20 SLOAD PUSH1 0x0 SWAP1 PUSH2 0x4116 SWAP1 DUP4 PUSH2 0x5B58 JUMP JUMPDEST SWAP1 POP PUSH1 0x0 JUMPDEST PUSH1 0x20 SLOAD DUP2 LT ISZERO PUSH2 0x242E JUMPI DUP2 PUSH1 0x2A PUSH1 0x0 PUSH1 0x2C PUSH1 0x0 PUSH1 0x20 DUP7 DUP2 SLOAD DUP2 LT PUSH2 0x4141 JUMPI PUSH2 0x4141 PUSH2 0x5101 JUMP JUMPDEST PUSH1 0x0 SWAP2 DUP3 MSTORE PUSH1 0x20 DUP1 DUP4 KECCAK256 SWAP1 SWAP2 ADD SLOAD DUP4 MSTORE DUP3 DUP2 ADD SWAP4 SWAP1 SWAP4 MSTORE PUSH1 0x40 SWAP2 DUP3 ADD DUP2 KECCAK256 SLOAD PUSH1 0x1 PUSH1 0x1 PUSH1 0xA0 SHL SUB AND DUP5 MSTORE SWAP2 DUP4 ADD SWAP4 SWAP1 SWAP4 MSTORE SWAP2 ADD SWAP1 KECCAK256 SLOAD PUSH2 0x4181 SWAP2 SWAP1 PUSH2 0x512D JUMP JUMPDEST PUSH1 0x2A PUSH1 0x0 PUSH1 0x2C PUSH1 0x0 PUSH1 0x20 DUP7 DUP2 SLOAD DUP2 LT PUSH2 0x419C JUMPI PUSH2 0x419C PUSH2 0x5101 JUMP JUMPDEST PUSH1 0x0 SWAP2 DUP3 MSTORE PUSH1 0x20 DUP1 DUP4 KECCAK256 SWAP1 SWAP2 ADD SLOAD DUP4 MSTORE DUP3 DUP2 ADD SWAP4 SWAP1 SWAP4 MSTORE PUSH1 0x40 SWAP2 DUP3 ADD DUP2 KECCAK256 SLOAD PUSH1 0x1 PUSH1 0x1 PUSH1 0xA0 SHL SUB AND DUP5 MSTORE SWAP2 DUP4 ADD SWAP4 SWAP1 SWAP4 MSTORE SWAP2 ADD SWAP1 KECCAK256 SSTORE DUP1 PUSH2 0x41DC DUP2 PUSH2 0x5A92 JUMP JUMPDEST SWAP2 POP POP PUSH2 0x411B JUMP JUMPDEST PUSH1 0x30 SLOAD PUSH1 0x0 SWAP1 PUSH2 0x41F4 SWAP1 DUP4 PUSH2 0x5B58 JUMP JUMPDEST SWAP1 POP PUSH1 0x0 JUMPDEST PUSH1 0x30 SLOAD DUP2 LT ISZERO PUSH2 0x242E JUMPI DUP2 PUSH1 0x2A PUSH1 0x0 PUSH1 0x30 DUP5 DUP2 SLOAD DUP2 LT PUSH2 0x421B JUMPI PUSH2 0x421B PUSH2 0x5101 JUMP JUMPDEST PUSH1 0x0 SWAP2 DUP3 MSTORE PUSH1 0x20 DUP1 DUP4 KECCAK256 SWAP1 SWAP2 ADD SLOAD PUSH1 0x1 PUSH1 0x1 PUSH1 0xA0 SHL SUB AND DUP4 MSTORE DUP3 ADD SWAP3 SWAP1 SWAP3 MSTORE PUSH1 0x40 ADD SWAP1 KECCAK256 SLOAD PUSH2 0x424A SWAP2 SWAP1 PUSH2 0x512D JUMP JUMPDEST PUSH1 0x2A PUSH1 0x0 PUSH1 0x30 DUP5 DUP2 SLOAD DUP2 LT PUSH2 0x4261 JUMPI PUSH2 0x4261 PUSH2 0x5101 JUMP JUMPDEST PUSH1 0x0 SWAP2 DUP3 MSTORE PUSH1 0x20 DUP1 DUP4 KECCAK256 SWAP1 SWAP2 ADD SLOAD PUSH1 0x1 PUSH1 0x1 PUSH1 0xA0 SHL SUB AND DUP4 MSTORE DUP3 ADD SWAP3 SWAP1 SWAP3 MSTORE PUSH1 0x40 ADD SWAP1 KECCAK256 SSTORE DUP1 PUSH2 0x4290 DUP2 PUSH2 0x5A92 JUMP JUMPDEST SWAP2 POP POP PUSH2 0x41F9 JUMP JUMPDEST DUP5 MLOAD DUP2 LT ISZERO PUSH2 0x437B JUMPI PUSH1 0x0 DUP6 DUP3 DUP2 MLOAD DUP2 LT PUSH2 0x42B5 JUMPI PUSH2 0x42B5 PUSH2 0x5101 JUMP JUMPDEST PUSH1 0x20 MUL PUSH1 0x20 ADD ADD MLOAD SWAP1 POP PUSH1 0x0 DUP6 DUP4 DUP2 MLOAD DUP2 LT PUSH2 0x42D3 JUMPI PUSH2 0x42D3 PUSH2 0x5101 JUMP JUMPDEST PUSH1 0x20 SWAP1 DUP2 MUL SWAP2 SWAP1 SWAP2 ADD DUP2 ADD MLOAD PUSH1 0x0 DUP5 DUP2 MSTORE DUP1 DUP4 MSTORE PUSH1 0x40 DUP1 DUP3 KECCAK256 PUSH1 0x1 PUSH1 0x1 PUSH1 0xA0 SHL SUB DUP15 AND DUP4 MSTORE SWAP1 SWAP4 MSTORE SWAP2 SWAP1 SWAP2 KECCAK256 SLOAD SWAP1 SWAP2 POP DUP2 DUP2 LT ISZERO PUSH2 0x4323 JUMPI PUSH1 0x40 MLOAD PUSH3 0x461BCD PUSH1 0xE5 SHL DUP2 MSTORE PUSH1 0x4 ADD PUSH2 0x104B SWAP1 PUSH2 0x5C23 JUMP JUMPDEST PUSH1 0x0 DUP4 DUP2 MSTORE PUSH1 0x20 DUP2 DUP2 MSTORE PUSH1 0x40 DUP1 DUP4 KECCAK256 PUSH1 0x1 PUSH1 0x1 PUSH1 0xA0 SHL SUB DUP15 DUP2 AND DUP6 MSTORE SWAP3 MSTORE DUP1 DUP4 KECCAK256 DUP6 DUP6 SUB SWAP1 SSTORE SWAP1 DUP12 AND DUP3 MSTORE DUP2 KECCAK256 DUP1 SLOAD DUP5 SWAP3 SWAP1 PUSH2 0x4360 SWAP1 DUP5 SWAP1 PUSH2 0x512D JUMP JUMPDEST SWAP3 POP POP DUP2 SWAP1 SSTORE POP POP POP POP DUP1 PUSH2 0x4374 SWAP1 PUSH2 0x5A92 JUMP JUMPDEST SWAP1 POP PUSH2 0x4298 JUMP JUMPDEST POP DUP5 PUSH1 0x1 PUSH1 0x1 PUSH1 0xA0 SHL SUB AND DUP7 PUSH1 0x1 PUSH1 0x1 PUSH1 0xA0 SHL SUB AND DUP3 PUSH1 0x1 PUSH1 0x1 PUSH1 0xA0 SHL SUB AND PUSH32 0x4A39DC06D4C0DBC64B70AF90FD698A233A518AA5D07E595D983B8C0526C8F7FB DUP8 DUP8 PUSH1 0x40 MLOAD PUSH2 0x43CB SWAP3 SWAP2 SWAP1 PUSH2 0x5C6D JUMP JUMPDEST PUSH1 0x40 MLOAD DUP1 SWAP2 SUB SWAP1 LOG4 PUSH2 0x2171 DUP2 DUP8 DUP8 DUP8 DUP8 DUP8 PUSH2 0x4F3A JUMP JUMPDEST PUSH1 0x3 DUP1 SLOAD PUSH1 0x1 PUSH1 0x1 PUSH1 0xA0 SHL SUB DUP4 DUP2 AND PUSH2 0x100 DUP2 DUP2 MUL PUSH2 0x100 PUSH1 0x1 PUSH1 0xA8 SHL SUB NOT DUP6 AND OR SWAP1 SWAP5 SSTORE PUSH1 0x40 MLOAD SWAP4 SWAP1 SWAP3 DIV AND SWAP2 DUP3 SWAP1 PUSH32 0x8BE0079C531659141344CD1FD0A4F28419497F9722A3DAAFE3B4186F6B6457E0 SWAP1 PUSH1 0x0 SWAP1 LOG3 POP POP JUMP JUMPDEST DUP2 PUSH1 0x6 SLOAD EQ PUSH2 0x4472 JUMPI PUSH1 0x40 MLOAD PUSH3 0x461BCD PUSH1 0xE5 SHL DUP2 MSTORE PUSH1 0x20 PUSH1 0x4 DUP3 ADD MSTORE PUSH1 0x3 PUSH1 0x24 DUP3 ADD MSTORE PUSH3 0xCA627 PUSH1 0xEB SHL PUSH1 0x44 DUP3 ADD MSTORE PUSH1 0x64 ADD PUSH2 0x104B JUMP JUMPDEST PUSH1 0x0 DUP2 GT PUSH2 0x44A8 JUMPI PUSH1 0x40 MLOAD PUSH3 0x461BCD PUSH1 0xE5 SHL DUP2 MSTORE PUSH1 0x20 PUSH1 0x4 DUP3 ADD MSTORE PUSH1 0x3 PUSH1 0x24 DUP3 ADD MSTORE PUSH3 0x653139 PUSH1 0xE8 SHL PUSH1 0x44 DUP3 ADD MSTORE PUSH1 0x64 ADD PUSH2 0x104B JUMP JUMPDEST PUSH1 0x18 SLOAD PUSH1 0x0 SWAP1 PUSH2 0x44B8 SWAP1 DUP4 PUSH2 0x5C0F JUMP JUMPDEST SWAP1 POP PUSH1 0x2B PUSH1 0x0 PUSH1 0x18 DUP4 DUP2 SLOAD DUP2 LT PUSH2 0x44D1 JUMPI PUSH2 0x44D1 PUSH2 0x5101 JUMP JUMPDEST PUSH1 0x0 SWAP2 DUP3 MSTORE PUSH1 0x20 DUP1 DUP4 KECCAK256 SWAP1 SWAP2 ADD SLOAD PUSH1 0x1 PUSH1 0x1 PUSH1 0xA0 SHL SUB AND DUP4 MSTORE DUP3 ADD SWAP3 SWAP1 SWAP3 MSTORE PUSH1 0x40 ADD SWAP1 KECCAK256 SLOAD PUSH2 0x4501 SWAP1 PUSH1 0x1 PUSH2 0x512D JUMP JUMPDEST PUSH1 0x2B PUSH1 0x0 PUSH1 0x18 DUP5 DUP2 SLOAD DUP2 LT PUSH2 0x4518 JUMPI PUSH2 0x4518 PUSH2 0x5101 JUMP JUMPDEST PUSH1 0x0 SWAP2 DUP3 MSTORE PUSH1 0x20 DUP1 DUP4 KECCAK256 SWAP1 SWAP2 ADD SLOAD PUSH1 0x1 PUSH1 0x1 PUSH1 0xA0 SHL SUB AND DUP4 MSTORE DUP3 ADD SWAP3 SWAP1 SWAP3 MSTORE PUSH1 0x40 ADD SWAP1 KECCAK256 SSTORE PUSH1 0x18 DUP1 SLOAD DUP3 SWAP1 DUP2 LT PUSH2 0x4551 JUMPI PUSH2 0x4551 PUSH2 0x5101 JUMP JUMPDEST PUSH1 0x0 SWAP2 DUP3 MSTORE PUSH1 0x20 SWAP1 SWAP2 KECCAK256 ADD SLOAD PUSH1 0xA DUP1 SLOAD PUSH1 0x1 PUSH1 0x1 PUSH1 0xA0 SHL SUB NOT AND PUSH1 0x1 PUSH1 0x1 PUSH1 0xA0 SHL SUB SWAP1 SWAP3 AND SWAP2 SWAP1 SWAP2 OR SWAP1 SSTORE PUSH1 0x18 DUP1 SLOAD DUP3 SWAP1 DUP2 LT PUSH2 0x4590 JUMPI PUSH2 0x4590 PUSH2 0x5101 JUMP JUMPDEST PUSH1 0x0 SWAP2 DUP3 MSTORE PUSH1 0x20 SWAP2 DUP3 SWAP1 KECCAK256 ADD SLOAD PUSH1 0x40 MLOAD DUP5 DUP2 MSTORE PUSH1 0x1 PUSH1 0x1 PUSH1 0xA0 SHL SUB SWAP1 SWAP2 AND SWAP2 PUSH32 0x8DCB1B46B7E05DD96ECD3AE5F7B77B7C6E369F8CED83A2AB24368C4F8E16B8C9 SWAP2 ADD PUSH1 0x40 MLOAD DUP1 SWAP2 SUB SWAP1 LOG2 PUSH1 0x40 DUP1 MLOAD PUSH1 0x0 DUP2 MSTORE PUSH1 0x20 DUP2 ADD SWAP2 DUP3 SWAP1 MSTORE MLOAD PUSH2 0x45F7 SWAP2 PUSH1 0x18 SWAP2 PUSH2 0x5097 JUMP JUMPDEST POP POP POP POP JUMP JUMPDEST DUP2 PUSH1 0x1 PUSH1 0x1 PUSH1 0xA0 SHL SUB AND DUP4 PUSH1 0x1 PUSH1 0x1 PUSH1 0xA0 SHL SUB AND EQ ISZERO PUSH2 0x4671 JUMPI PUSH1 0x40 MLOAD PUSH3 0x461BCD PUSH1 0xE5 SHL DUP2 MSTORE PUSH1 0x20 PUSH1 0x4 DUP3 ADD MSTORE PUSH1 0x29 PUSH1 0x24 DUP3 ADD MSTORE PUSH32 0x455243313135353A2073657474696E6720617070726F76616C20737461747573 PUSH1 0x44 DUP3 ADD MSTORE PUSH9 0x103337B91039B2B633 PUSH1 0xB9 SHL PUSH1 0x64 DUP3 ADD MSTORE PUSH1 0x84 ADD PUSH2 0x104B JUMP JUMPDEST PUSH1 0x1 PUSH1 0x1 PUSH1 0xA0 SHL SUB DUP4 DUP2 AND PUSH1 0x0 DUP2 DUP2 MSTORE PUSH1 0x1 PUSH1 0x20 SWAP1 DUP2 MSTORE PUSH1 0x40 DUP1 DUP4 KECCAK256 SWAP5 DUP8 AND DUP1 DUP5 MSTORE SWAP5 DUP3 MSTORE SWAP2 DUP3 SWAP1 KECCAK256 DUP1 SLOAD PUSH1 0xFF NOT AND DUP7 ISZERO ISZERO SWAP1 DUP2 OR SWAP1 SWAP2 SSTORE SWAP2 MLOAD SWAP2 DUP3 MSTORE PUSH32 0x17307EAB39AB6107E8899845AD3D59BD9653F200F220920489CA2B5937696C31 SWAP2 ADD PUSH1 0x40 MLOAD DUP1 SWAP2 SUB SWAP1 LOG3 POP POP POP JUMP JUMPDEST PUSH1 0x0 DUP2 PUSH1 0x40 MLOAD PUSH1 0x20 ADD PUSH2 0x46F1 SWAP2 SWAP1 PUSH2 0x5C92 JUMP JUMPDEST PUSH1 0x40 MLOAD PUSH1 0x20 DUP2 DUP4 SUB SUB DUP2 MSTORE SWAP1 PUSH1 0x40 MSTORE DUP1 MLOAD SWAP1 PUSH1 0x20 ADD KECCAK256 DUP4 PUSH1 0x40 MLOAD PUSH1 0x20 ADD PUSH2 0x4718 SWAP2 SWAP1 PUSH2 0x5C92 JUMP JUMPDEST PUSH1 0x40 MLOAD PUSH1 0x20 DUP2 DUP4 SUB SUB DUP2 MSTORE SWAP1 PUSH1 0x40 MSTORE DUP1 MLOAD SWAP1 PUSH1 0x20 ADD KECCAK256 EQ SWAP1 POP SWAP3 SWAP2 POP POP JUMP JUMPDEST PUSH1 0x0 PUSH32 0x0 PUSH1 0x1 PUSH1 0x1 PUSH1 0xA0 SHL SUB AND PUSH4 0x4000AEA0 PUSH32 0x0 DUP5 DUP7 PUSH1 0x0 PUSH1 0x40 MLOAD PUSH1 0x20 ADD PUSH2 0x47A7 SWAP3 SWAP2 SWAP1 SWAP2 DUP3 MSTORE PUSH1 0x20 DUP3 ADD MSTORE PUSH1 0x40 ADD SWAP1 JUMP JUMPDEST PUSH1 0x40 MLOAD PUSH1 0x20 DUP2 DUP4 SUB SUB DUP2 MSTORE SWAP1 PUSH1 0x40 MSTORE PUSH1 0x40 MLOAD DUP5 PUSH4 0xFFFFFFFF AND PUSH1 0xE0 SHL DUP2 MSTORE PUSH1 0x4 ADD PUSH2 0x47D4 SWAP4 SWAP3 SWAP2 SWAP1 PUSH2 0x5CAE JUMP JUMPDEST PUSH1 0x20 PUSH1 0x40 MLOAD DUP1 DUP4 SUB DUP2 PUSH1 0x0 DUP8 GAS CALL ISZERO DUP1 ISZERO PUSH2 0x47F3 JUMPI RETURNDATASIZE PUSH1 0x0 DUP1 RETURNDATACOPY RETURNDATASIZE PUSH1 0x0 REVERT JUMPDEST POP POP POP POP PUSH1 0x40 MLOAD RETURNDATASIZE PUSH1 0x1F NOT PUSH1 0x1F DUP3 ADD AND DUP3 ADD DUP1 PUSH1 0x40 MSTORE POP DUP2 ADD SWAP1 PUSH2 0x4817 SWAP2 SWAP1 PUSH2 0x5CD5 JUMP JUMPDEST POP PUSH1 0x0 DUP4 DUP2 MSTORE PUSH1 0x4 PUSH1 0x20 DUP2 DUP2 MSTORE PUSH1 0x40 DUP1 DUP5 KECCAK256 SLOAD DUP2 MLOAD DUP1 DUP5 ADD DUP10 SWAP1 MSTORE DUP1 DUP4 ADD DUP7 SWAP1 MSTORE ADDRESS PUSH1 0x60 DUP3 ADD MSTORE PUSH1 0x80 DUP1 DUP3 ADD DUP4 SWAP1 MSTORE DUP4 MLOAD DUP1 DUP4 SUB SWAP1 SWAP2 ADD DUP2 MSTORE PUSH1 0xA0 SWAP1 SWAP2 ADD SWAP1 SWAP3 MSTORE DUP2 MLOAD SWAP2 DUP4 ADD SWAP2 SWAP1 SWAP2 KECCAK256 SWAP4 DUP8 SWAP1 MSTORE SWAP2 SWAP1 MSTORE PUSH2 0x4873 SWAP1 PUSH1 0x1 PUSH2 0x512D JUMP JUMPDEST PUSH1 0x0 DUP6 DUP2 MSTORE PUSH1 0x4 PUSH1 0x20 MSTORE PUSH1 0x40 SWAP1 KECCAK256 SSTORE PUSH2 0x10DA DUP5 DUP3 PUSH1 0x40 DUP1 MLOAD PUSH1 0x20 DUP1 DUP3 ADD SWAP5 SWAP1 SWAP5 MSTORE DUP1 DUP3 ADD SWAP3 SWAP1 SWAP3 MSTORE DUP1 MLOAD DUP1 DUP4 SUB DUP3 ADD DUP2 MSTORE PUSH1 0x60 SWAP1 SWAP3 ADD SWAP1 MSTORE DUP1 MLOAD SWAP2 ADD KECCAK256 SWAP1 JUMP JUMPDEST PUSH1 0x0 PUSH2 0x48C2 PUSH3 0x15180 DUP4 PUSH2 0x5B23 JUMP JUMPDEST PUSH2 0x48CC SWAP1 DUP5 PUSH2 0x512D JUMP JUMPDEST SWAP1 POP DUP3 DUP2 LT ISZERO PUSH2 0x1077 JUMPI PUSH1 0x0 DUP1 REVERT JUMPDEST PUSH1 0x1 PUSH1 0x1 PUSH1 0xA0 SHL SUB DUP5 AND PUSH2 0x493F JUMPI PUSH1 0x40 MLOAD PUSH3 0x461BCD PUSH1 0xE5 SHL DUP2 MSTORE PUSH1 0x20 PUSH1 0x4 DUP3 ADD MSTORE PUSH1 0x25 PUSH1 0x24 DUP3 ADD MSTORE PUSH32 0x455243313135353A207472616E7366657220746F20746865207A65726F206164 PUSH1 0x44 DUP3 ADD MSTORE PUSH5 0x6472657373 PUSH1 0xD8 SHL PUSH1 0x64 DUP3 ADD MSTORE PUSH1 0x84 ADD PUSH2 0x104B JUMP JUMPDEST CALLER PUSH2 0x494F DUP2 DUP8 DUP8 PUSH2 0x4067 DUP9 PUSH2 0x4D2B JUMP JUMPDEST PUSH1 0x0 DUP5 DUP2 MSTORE PUSH1 0x20 DUP2 DUP2 MSTORE PUSH1 0x40 DUP1 DUP4 KECCAK256 PUSH1 0x1 PUSH1 0x1 PUSH1 0xA0 SHL SUB DUP11 AND DUP5 MSTORE SWAP1 SWAP2 MSTORE SWAP1 KECCAK256 SLOAD DUP4 DUP2 LT ISZERO PUSH2 0x4990 JUMPI PUSH1 0x40 MLOAD PUSH3 0x461BCD PUSH1 0xE5 SHL DUP2 MSTORE PUSH1 0x4 ADD PUSH2 0x104B SWAP1 PUSH2 0x5C23 JUMP JUMPDEST PUSH1 0x0 DUP6 DUP2 MSTORE PUSH1 0x20 DUP2 DUP2 MSTORE PUSH1 0x40 DUP1 DUP4 KECCAK256 PUSH1 0x1 PUSH1 0x1 PUSH1 0xA0 SHL SUB DUP12 DUP2 AND DUP6 MSTORE SWAP3 MSTORE DUP1 DUP4 KECCAK256 DUP8 DUP6 SUB SWAP1 SSTORE SWAP1 DUP9 AND DUP3 MSTORE DUP2 KECCAK256 DUP1 SLOAD DUP7 SWAP3 SWAP1 PUSH2 0x49CD SWAP1 DUP5 SWAP1 PUSH2 0x512D JUMP JUMPDEST SWAP1 SWAP2 SSTORE POP POP PUSH1 0x40 DUP1 MLOAD DUP7 DUP2 MSTORE PUSH1 0x20 DUP2 ADD DUP7 SWAP1 MSTORE PUSH1 0x1 PUSH1 0x1 PUSH1 0xA0 SHL SUB DUP1 DUP10 AND SWAP3 DUP11 DUP3 AND SWAP3 SWAP2 DUP7 AND SWAP2 PUSH32 0xC3D58168C5AE7397731D063D5BBF3D657854427343F4C083240F7AACAA2D0F62 SWAP2 ADD PUSH1 0x40 MLOAD DUP1 SWAP2 SUB SWAP1 LOG4 PUSH2 0x4A2D DUP3 DUP9 DUP9 DUP9 DUP9 DUP9 PUSH2 0x4DDE JUMP JUMPDEST POP POP POP POP POP POP POP JUMP JUMPDEST DUP1 MLOAD DUP3 MLOAD PUSH1 0x0 SWAP2 GT ISZERO PUSH2 0x4A4B JUMPI POP PUSH1 0x0 PUSH2 0x1077 JUMP JUMPDEST DUP2 PUSH1 0x20 ADD MLOAD DUP4 PUSH1 0x20 ADD MLOAD EQ ISZERO PUSH2 0x4A63 JUMPI POP PUSH1 0x1 PUSH2 0x1077 JUMP JUMPDEST POP DUP1 MLOAD PUSH1 0x20 SWAP3 DUP4 ADD MLOAD SWAP3 SWAP1 SWAP2 ADD MLOAD DUP2 SWAP1 KECCAK256 SWAP2 KECCAK256 EQ SWAP1 JUMP JUMPDEST PUSH1 0x0 PUSH2 0x7B2 DUP5 LT ISZERO PUSH2 0x4A8B JUMPI PUSH1 0x0 DUP1 REVERT JUMPDEST DUP4 DUP4 DUP4 PUSH1 0x0 PUSH3 0x253D8C PUSH1 0x4 PUSH1 0x64 PUSH1 0xC PUSH2 0x4AA5 PUSH1 0xE DUP9 PUSH2 0x5CF2 JUMP JUMPDEST PUSH2 0x4AAF SWAP2 SWAP1 PUSH2 0x5D31 JUMP JUMPDEST PUSH2 0x4ABB DUP9 PUSH2 0x1324 PUSH2 0x5D5F JUMP JUMPDEST PUSH2 0x4AC5 SWAP2 SWAP1 PUSH2 0x5D5F JUMP JUMPDEST PUSH2 0x4ACF SWAP2 SWAP1 PUSH2 0x5D31 JUMP JUMPDEST PUSH2 0x4ADA SWAP1 PUSH1 0x3 PUSH2 0x5DA0 JUMP JUMPDEST PUSH2 0x4AE4 SWAP2 SWAP1 PUSH2 0x5D31 JUMP JUMPDEST PUSH1 0xC DUP1 PUSH2 0x4AF2 PUSH1 0xE DUP9 PUSH2 0x5CF2 JUMP JUMPDEST PUSH2 0x4AFC SWAP2 SWAP1 PUSH2 0x5D31 JUMP JUMPDEST PUSH2 0x4B07 SWAP1 PUSH1 0xC PUSH2 0x5DA0 JUMP JUMPDEST PUSH2 0x4B12 PUSH1 0x2 DUP9 PUSH2 0x5CF2 JUMP JUMPDEST PUSH2 0x4B1C SWAP2 SWAP1 PUSH2 0x5CF2 JUMP JUMPDEST PUSH2 0x4B28 SWAP1 PUSH2 0x16F PUSH2 0x5DA0 JUMP JUMPDEST PUSH2 0x4B32 SWAP2 SWAP1 PUSH2 0x5D31 JUMP JUMPDEST PUSH1 0x4 PUSH1 0xC PUSH2 0x4B41 PUSH1 0xE DUP10 PUSH2 0x5CF2 JUMP JUMPDEST PUSH2 0x4B4B SWAP2 SWAP1 PUSH2 0x5D31 JUMP JUMPDEST PUSH2 0x4B57 DUP10 PUSH2 0x12C0 PUSH2 0x5D5F JUMP JUMPDEST PUSH2 0x4B61 SWAP2 SWAP1 PUSH2 0x5D5F JUMP JUMPDEST PUSH2 0x4B6D SWAP1 PUSH2 0x5B5 PUSH2 0x5DA0 JUMP JUMPDEST PUSH2 0x4B77 SWAP2 SWAP1 PUSH2 0x5D31 JUMP JUMPDEST PUSH2 0x4B83 PUSH2 0x7D4B DUP8 PUSH2 0x5CF2 JUMP JUMPDEST PUSH2 0x4B8D SWAP2 SWAP1 PUSH2 0x5D5F JUMP JUMPDEST PUSH2 0x4B97 SWAP2 SWAP1 PUSH2 0x5D5F JUMP JUMPDEST PUSH2 0x4BA1 SWAP2 SWAP1 PUSH2 0x5CF2 JUMP JUMPDEST PUSH2 0x4BAB SWAP2 SWAP1 PUSH2 0x5CF2 JUMP JUMPDEST SWAP9 SWAP8 POP POP POP POP POP POP POP POP JUMP JUMPDEST PUSH1 0x0 DUP1 DUP1 DUP4 DUP2 PUSH3 0x253D8C PUSH2 0x4BCE DUP4 PUSH3 0x10BD9 PUSH2 0x5D5F JUMP JUMPDEST PUSH2 0x4BD8 SWAP2 SWAP1 PUSH2 0x5D5F JUMP JUMPDEST SWAP1 POP PUSH1 0x0 PUSH3 0x23AB1 PUSH2 0x4BEB DUP4 PUSH1 0x4 PUSH2 0x5DA0 JUMP JUMPDEST PUSH2 0x4BF5 SWAP2 SWAP1 PUSH2 0x5D31 JUMP JUMPDEST SWAP1 POP PUSH1 0x4 PUSH2 0x4C06 DUP3 PUSH3 0x23AB1 PUSH2 0x5DA0 JUMP JUMPDEST PUSH2 0x4C11 SWAP1 PUSH1 0x3 PUSH2 0x5D5F JUMP JUMPDEST PUSH2 0x4C1B SWAP2 SWAP1 PUSH2 0x5D31 JUMP JUMPDEST PUSH2 0x4C25 SWAP1 DUP4 PUSH2 0x5CF2 JUMP JUMPDEST SWAP2 POP PUSH1 0x0 PUSH3 0x164B09 PUSH2 0x4C38 DUP5 PUSH1 0x1 PUSH2 0x5D5F JUMP JUMPDEST PUSH2 0x4C44 SWAP1 PUSH2 0xFA0 PUSH2 0x5DA0 JUMP JUMPDEST PUSH2 0x4C4E SWAP2 SWAP1 PUSH2 0x5D31 JUMP JUMPDEST SWAP1 POP PUSH1 0x4 PUSH2 0x4C5E DUP3 PUSH2 0x5B5 PUSH2 0x5DA0 JUMP JUMPDEST PUSH2 0x4C68 SWAP2 SWAP1 PUSH2 0x5D31 JUMP JUMPDEST PUSH2 0x4C72 SWAP1 DUP5 PUSH2 0x5CF2 JUMP JUMPDEST PUSH2 0x4C7D SWAP1 PUSH1 0x1F PUSH2 0x5D5F JUMP JUMPDEST SWAP3 POP PUSH1 0x0 PUSH2 0x98F PUSH2 0x4C8F DUP6 PUSH1 0x50 PUSH2 0x5DA0 JUMP JUMPDEST PUSH2 0x4C99 SWAP2 SWAP1 PUSH2 0x5D31 JUMP JUMPDEST SWAP1 POP PUSH1 0x0 PUSH1 0x50 PUSH2 0x4CAB DUP4 PUSH2 0x98F PUSH2 0x5DA0 JUMP JUMPDEST PUSH2 0x4CB5 SWAP2 SWAP1 PUSH2 0x5D31 JUMP JUMPDEST PUSH2 0x4CBF SWAP1 DUP7 PUSH2 0x5CF2 JUMP JUMPDEST SWAP1 POP PUSH2 0x4CCC PUSH1 0xB DUP4 PUSH2 0x5D31 JUMP JUMPDEST SWAP5 POP PUSH2 0x4CD9 DUP6 PUSH1 0xC PUSH2 0x5DA0 JUMP JUMPDEST PUSH2 0x4CE4 DUP4 PUSH1 0x2 PUSH2 0x5D5F JUMP JUMPDEST PUSH2 0x4CEE SWAP2 SWAP1 PUSH2 0x5CF2 JUMP JUMPDEST SWAP2 POP DUP5 DUP4 PUSH2 0x4CFD PUSH1 0x31 DUP8 PUSH2 0x5CF2 JUMP JUMPDEST PUSH2 0x4D08 SWAP1 PUSH1 0x64 PUSH2 0x5DA0 JUMP JUMPDEST PUSH2 0x4D12 SWAP2 SWAP1 PUSH2 0x5D5F JUMP JUMPDEST PUSH2 0x4D1C SWAP2 SWAP1 PUSH2 0x5D5F JUMP JUMPDEST SWAP11 SWAP2 SWAP10 POP SWAP8 POP SWAP6 POP POP POP POP POP POP JUMP JUMPDEST PUSH1 0x40 DUP1 MLOAD PUSH1 0x1 DUP1 DUP3 MSTORE DUP2 DUP4 ADD SWAP1 SWAP3 MSTORE PUSH1 0x60 SWAP2 PUSH1 0x0 SWAP2 SWAP1 PUSH1 0x20 DUP1 DUP4 ADD SWAP1 DUP1 CALLDATASIZE DUP4 CALLDATACOPY ADD SWAP1 POP POP SWAP1 POP DUP3 DUP2 PUSH1 0x0 DUP2 MLOAD DUP2 LT PUSH2 0x4D65 JUMPI PUSH2 0x4D65 PUSH2 0x5101 JUMP JUMPDEST PUSH1 0x20 SWAP1 DUP2 MUL SWAP2 SWAP1 SWAP2 ADD ADD MSTORE SWAP3 SWAP2 POP POP JUMP JUMPDEST PUSH1 0x3 SLOAD PUSH1 0xFF AND ISZERO PUSH2 0x2171 JUMPI PUSH1 0x40 MLOAD PUSH3 0x461BCD PUSH1 0xE5 SHL DUP2 MSTORE PUSH1 0x20 PUSH1 0x4 DUP3 ADD MSTORE PUSH1 0x2C PUSH1 0x24 DUP3 ADD MSTORE PUSH32 0x455243313135355061757361626C653A20746F6B656E207472616E7366657220 PUSH1 0x44 DUP3 ADD MSTORE PUSH12 0x1DDA1A5B19481C185D5CD959 PUSH1 0xA2 SHL PUSH1 0x64 DUP3 ADD MSTORE PUSH1 0x84 ADD PUSH2 0x104B JUMP JUMPDEST PUSH1 0x1 PUSH1 0x1 PUSH1 0xA0 SHL SUB DUP5 AND EXTCODESIZE ISZERO PUSH2 0x2171 JUMPI PUSH1 0x40 MLOAD PUSH4 0xF23A6E61 PUSH1 0xE0 SHL DUP2 MSTORE PUSH1 0x1 PUSH1 0x1 PUSH1 0xA0 SHL SUB DUP6 AND SWAP1 PUSH4 0xF23A6E61 SWAP1 PUSH2 0x4E22 SWAP1 DUP10 SWAP1 DUP10 SWAP1 DUP9 SWAP1 DUP9 SWAP1 DUP9 SWAP1 PUSH1 0x4 ADD PUSH2 0x5E25 JUMP JUMPDEST PUSH1 0x20 PUSH1 0x40 MLOAD DUP1 DUP4 SUB DUP2 PUSH1 0x0 DUP8 GAS CALL SWAP3 POP POP POP DUP1 ISZERO PUSH2 0x4E5D JUMPI POP PUSH1 0x40 DUP1 MLOAD PUSH1 0x1F RETURNDATASIZE SWAP1 DUP2 ADD PUSH1 0x1F NOT AND DUP3 ADD SWAP1 SWAP3 MSTORE PUSH2 0x4E5A SWAP2 DUP2 ADD SWAP1 PUSH2 0x5E6A JUMP JUMPDEST PUSH1 0x1 JUMPDEST PUSH2 0x4F0A JUMPI PUSH2 0x4E69 PUSH2 0x5E87 JUMP JUMPDEST DUP1 PUSH4 0x8C379A0 EQ ISZERO PUSH2 0x4EA3 JUMPI POP PUSH2 0x4E7E PUSH2 0x5EA2 JUMP JUMPDEST DUP1 PUSH2 0x4E89 JUMPI POP PUSH2 0x4EA5 JUMP JUMPDEST DUP1 PUSH1 0x40 MLOAD PUSH3 0x461BCD PUSH1 0xE5 SHL DUP2 MSTORE PUSH1 0x4 ADD PUSH2 0x104B SWAP2 SWAP1 PUSH2 0x5242 JUMP JUMPDEST POP JUMPDEST PUSH1 0x40 MLOAD PUSH3 0x461BCD PUSH1 0xE5 SHL DUP2 MSTORE PUSH1 0x20 PUSH1 0x4 DUP3 ADD MSTORE PUSH1 0x34 PUSH1 0x24 DUP3 ADD MSTORE PUSH32 0x455243313135353A207472616E7366657220746F206E6F6E2045524331313535 PUSH1 0x44 DUP3 ADD MSTORE PUSH20 0x2932B1B2B4BB32B91034B6B83632B6B2B73A32B9 PUSH1 0x61 SHL PUSH1 0x64 DUP3 ADD MSTORE PUSH1 0x84 ADD PUSH2 0x104B JUMP JUMPDEST PUSH1 0x1 PUSH1 0x1 PUSH1 0xE0 SHL SUB NOT DUP2 AND PUSH4 0xF23A6E61 PUSH1 0xE0 SHL EQ PUSH2 0x4A2D JUMPI PUSH1 0x40 MLOAD PUSH3 0x461BCD PUSH1 0xE5 SHL DUP2 MSTORE PUSH1 0x4 ADD PUSH2 0x104B SWAP1 PUSH2 0x5F2B JUMP JUMPDEST PUSH1 0x1 PUSH1 0x1 PUSH1 0xA0 SHL SUB DUP5 AND EXTCODESIZE ISZERO PUSH2 0x2171 JUMPI PUSH1 0x40 MLOAD PUSH4 0xBC197C81 PUSH1 0xE0 SHL DUP2 MSTORE PUSH1 0x1 PUSH1 0x1 PUSH1 0xA0 SHL SUB DUP6 AND SWAP1 PUSH4 0xBC197C81 SWAP1 PUSH2 0x4F7E SWAP1 DUP10 SWAP1 DUP10 SWAP1 DUP9 SWAP1 DUP9 SWAP1 DUP9 SWAP1 PUSH1 0x4 ADD PUSH2 0x5F73 JUMP JUMPDEST PUSH1 0x20 PUSH1 0x40 MLOAD DUP1 DUP4 SUB DUP2 PUSH1 0x0 DUP8 GAS CALL SWAP3 POP POP POP DUP1 ISZERO PUSH2 0x4FB9 JUMPI POP PUSH1 0x40 DUP1 MLOAD PUSH1 0x1F RETURNDATASIZE SWAP1 DUP2 ADD PUSH1 0x1F NOT AND DUP3 ADD SWAP1 SWAP3 MSTORE PUSH2 0x4FB6 SWAP2 DUP2 ADD SWAP1 PUSH2 0x5E6A JUMP JUMPDEST PUSH1 0x1 JUMPDEST PUSH2 0x4FC5 JUMPI PUSH2 0x4E69 PUSH2 0x5E87 JUMP JUMPDEST PUSH1 0x1 PUSH1 0x1 PUSH1 0xE0 SHL SUB NOT DUP2 AND PUSH4 0xBC197C81 PUSH1 0xE0 SHL EQ PUSH2 0x4A2D JUMPI PUSH1 0x40 MLOAD PUSH3 0x461BCD PUSH1 0xE5 SHL DUP2 MSTORE PUSH1 0x4 ADD PUSH2 0x104B SWAP1 PUSH2 0x5F2B JUMP JUMPDEST PUSH1 0x40 MLOAD DUP1 PUSH1 0xA0 ADD PUSH1 0x40 MSTORE DUP1 PUSH1 0x5 SWAP1 PUSH1 0x20 DUP3 MUL DUP1 CALLDATASIZE DUP4 CALLDATACOPY POP SWAP2 SWAP3 SWAP2 POP POP JUMP JUMPDEST DUP3 DUP1 SLOAD PUSH2 0x501F SWAP1 PUSH2 0x5A5D JUMP JUMPDEST SWAP1 PUSH1 0x0 MSTORE PUSH1 0x20 PUSH1 0x0 KECCAK256 SWAP1 PUSH1 0x1F ADD PUSH1 0x20 SWAP1 DIV DUP2 ADD SWAP3 DUP3 PUSH2 0x5041 JUMPI PUSH1 0x0 DUP6 SSTORE PUSH2 0x5087 JUMP JUMPDEST DUP3 PUSH1 0x1F LT PUSH2 0x505A JUMPI DUP1 MLOAD PUSH1 0xFF NOT AND DUP4 DUP1 ADD OR DUP6 SSTORE PUSH2 0x5087 JUMP JUMPDEST DUP3 DUP1 ADD PUSH1 0x1 ADD DUP6 SSTORE DUP3 ISZERO PUSH2 0x5087 JUMPI SWAP2 DUP3 ADD JUMPDEST DUP3 DUP2 GT ISZERO PUSH2 0x5087 JUMPI DUP3 MLOAD DUP3 SSTORE SWAP2 PUSH1 0x20 ADD SWAP2 SWAP1 PUSH1 0x1 ADD SWAP1 PUSH2 0x506C JUMP JUMPDEST POP PUSH2 0x5093 SWAP3 SWAP2 POP PUSH2 0x50EC JUMP JUMPDEST POP SWAP1 JUMP JUMPDEST DUP3 DUP1 SLOAD DUP3 DUP3 SSTORE SWAP1 PUSH1 0x0 MSTORE PUSH1 0x20 PUSH1 0x0 KECCAK256 SWAP1 DUP2 ADD SWAP3 DUP3 ISZERO PUSH2 0x5087 JUMPI SWAP2 PUSH1 0x20 MUL DUP3 ADD JUMPDEST DUP3 DUP2 GT ISZERO PUSH2 0x5087 JUMPI DUP3 MLOAD DUP3 SLOAD PUSH1 0x1 PUSH1 0x1 PUSH1 0xA0 SHL SUB NOT AND PUSH1 0x1 PUSH1 0x1 PUSH1 0xA0 SHL SUB SWAP1 SWAP2 AND OR DUP3 SSTORE PUSH1 0x20 SWAP1 SWAP3 ADD SWAP2 PUSH1 0x1 SWAP1 SWAP2 ADD SWAP1 PUSH2 0x50B7 JUMP JUMPDEST JUMPDEST DUP1 DUP3 GT ISZERO PUSH2 0x5093 JUMPI PUSH1 0x0 DUP2 SSTORE PUSH1 0x1 ADD PUSH2 0x50ED JUMP JUMPDEST PUSH4 0x4E487B71 PUSH1 0xE0 SHL PUSH1 0x0 MSTORE PUSH1 0x32 PUSH1 0x4 MSTORE PUSH1 0x24 PUSH1 0x0 REVERT JUMPDEST PUSH4 0x4E487B71 PUSH1 0xE0 SHL PUSH1 0x0 MSTORE PUSH1 0x11 PUSH1 0x4 MSTORE PUSH1 0x24 PUSH1 0x0 REVERT JUMPDEST PUSH1 0x0 DUP3 NOT DUP3 GT ISZERO PUSH2 0x5140 JUMPI PUSH2 0x5140 PUSH2 0x5117 JUMP JUMPDEST POP ADD SWAP1 JUMP JUMPDEST DUP1 CALLDATALOAD PUSH1 0x1 PUSH1 0x1 PUSH1 0xA0 SHL SUB DUP2 AND DUP2 EQ PUSH2 0x515C JUMPI PUSH1 0x0 DUP1 REVERT JUMPDEST SWAP2 SWAP1 POP JUMP JUMPDEST PUSH1 0x0 DUP1 PUSH1 0x40 DUP4 DUP6 SUB SLT ISZERO PUSH2 0x5174 JUMPI PUSH1 0x0 DUP1 REVERT JUMPDEST PUSH2 0x517D DUP4 PUSH2 0x5145 JUMP JUMPDEST SWAP5 PUSH1 0x20 SWAP4 SWAP1 SWAP4 ADD CALLDATALOAD SWAP4 POP POP POP JUMP JUMPDEST PUSH1 0x1 PUSH1 0x1 PUSH1 0xE0 SHL SUB NOT DUP2 AND DUP2 EQ PUSH2 0x38A1 JUMPI PUSH1 0x0 DUP1 REVERT JUMPDEST PUSH1 0x0 PUSH1 0x20 DUP3 DUP5 SUB SLT ISZERO PUSH2 0x51B3 JUMPI PUSH1 0x0 DUP1 REVERT JUMPDEST DUP2 CALLDATALOAD PUSH2 0x2455 DUP2 PUSH2 0x518B JUMP JUMPDEST PUSH1 0x0 DUP1 PUSH1 0x0 PUSH1 0x60 DUP5 DUP7 SUB SLT ISZERO PUSH2 0x51D3 JUMPI PUSH1 0x0 DUP1 REVERT JUMPDEST POP POP DUP2 CALLDATALOAD SWAP4 PUSH1 0x20 DUP4 ADD CALLDATALOAD SWAP4 POP PUSH1 0x40 SWAP1 SWAP3 ADD CALLDATALOAD SWAP2 SWAP1 POP JUMP JUMPDEST PUSH1 0x0 JUMPDEST DUP4 DUP2 LT ISZERO PUSH2 0x5205 JUMPI DUP2 DUP2 ADD MLOAD DUP4 DUP3 ADD MSTORE PUSH1 0x20 ADD PUSH2 0x51ED JUMP JUMPDEST DUP4 DUP2 GT ISZERO PUSH2 0x45F7 JUMPI POP POP PUSH1 0x0 SWAP2 ADD MSTORE JUMP JUMPDEST PUSH1 0x0 DUP2 MLOAD DUP1 DUP5 MSTORE PUSH2 0x522E DUP2 PUSH1 0x20 DUP7 ADD PUSH1 0x20 DUP7 ADD PUSH2 0x51EA JUMP JUMPDEST PUSH1 0x1F ADD PUSH1 0x1F NOT AND SWAP3 SWAP1 SWAP3 ADD PUSH1 0x20 ADD SWAP3 SWAP2 POP POP JUMP JUMPDEST PUSH1 0x20 DUP2 MSTORE PUSH1 0x0 PUSH2 0x2455 PUSH1 0x20 DUP4 ADD DUP5 PUSH2 0x5216 JUMP JUMPDEST PUSH1 0x0 PUSH1 0x20 DUP3 DUP5 SUB SLT ISZERO PUSH2 0x5267 JUMPI PUSH1 0x0 DUP1 REVERT JUMPDEST POP CALLDATALOAD SWAP2 SWAP1 POP JUMP JUMPDEST PUSH1 0x0 PUSH1 0x20 DUP3 DUP5 SUB SLT ISZERO PUSH2 0x5280 JUMPI PUSH1 0x0 DUP1 REVERT JUMPDEST PUSH2 0x2455 DUP3 PUSH2 0x5145 JUMP JUMPDEST PUSH1 0x0 DUP2 MLOAD DUP1 DUP5 MSTORE PUSH1 0x20 DUP1 DUP6 ADD SWAP5 POP DUP1 DUP5 ADD PUSH1 0x0 JUMPDEST DUP4 DUP2 LT ISZERO PUSH2 0x52B9 JUMPI DUP2 MLOAD DUP8 MSTORE SWAP6 DUP3 ADD SWAP6 SWAP1 DUP3 ADD SWAP1 PUSH1 0x1 ADD PUSH2 0x529D JUMP JUMPDEST POP SWAP5 SWAP6 SWAP5 POP POP POP POP POP JUMP JUMPDEST PUSH1 0x0 DUP2 MLOAD DUP1 DUP5 MSTORE PUSH1 0x20 DUP1 DUP6 ADD SWAP5 POP DUP1 DUP5 ADD PUSH1 0x0 JUMPDEST DUP4 DUP2 LT ISZERO PUSH2 0x52B9 JUMPI DUP2 MLOAD PUSH1 0x1 PUSH1 0x1 PUSH1 0xA0 SHL SUB AND DUP8 MSTORE SWAP6 DUP3 ADD SWAP6 SWAP1 DUP3 ADD SWAP1 PUSH1 0x1 ADD PUSH2 0x52D8 JUMP JUMPDEST PUSH1 0x40 DUP2 MSTORE PUSH1 0x0 PUSH2 0x5310 PUSH1 0x40 DUP4 ADD DUP6 PUSH2 0x5289 JUMP JUMPDEST DUP3 DUP2 SUB PUSH1 0x20 DUP5 ADD MSTORE PUSH2 0x35B6 DUP2 DUP6 PUSH2 0x52C4 JUMP JUMPDEST PUSH1 0x0 DUP1 PUSH1 0x0 DUP1 PUSH1 0x80 DUP6 DUP8 SUB SLT ISZERO PUSH2 0x5338 JUMPI PUSH1 0x0 DUP1 REVERT JUMPDEST DUP5 CALLDATALOAD SWAP4 POP PUSH1 0x20 DUP6 ADD CALLDATALOAD SWAP3 POP PUSH1 0x40 DUP6 ADD CALLDATALOAD SWAP2 POP PUSH2 0x5356 PUSH1 0x60 DUP7 ADD PUSH2 0x5145 JUMP JUMPDEST SWAP1 POP SWAP3 SWAP6 SWAP2 SWAP5 POP SWAP3 POP JUMP JUMPDEST PUSH4 0x4E487B71 PUSH1 0xE0 SHL PUSH1 0x0 MSTORE PUSH1 0x41 PUSH1 0x4 MSTORE PUSH1 0x24 PUSH1 0x0 REVERT JUMPDEST PUSH1 0x1F DUP3 ADD PUSH1 0x1F NOT AND DUP2 ADD PUSH1 0x1 PUSH1 0x1 PUSH1 0x40 SHL SUB DUP2 GT DUP3 DUP3 LT OR ISZERO PUSH2 0x539C JUMPI PUSH2 0x539C PUSH2 0x5361 JUMP JUMPDEST PUSH1 0x40 MSTORE POP POP JUMP JUMPDEST PUSH1 0x0 PUSH1 0x1 PUSH1 0x1 PUSH1 0x40 SHL SUB DUP3 GT ISZERO PUSH2 0x53BC JUMPI PUSH2 0x53BC PUSH2 0x5361 JUMP JUMPDEST POP PUSH1 0x5 SHL PUSH1 0x20 ADD SWAP1 JUMP JUMPDEST PUSH1 0x0 DUP3 PUSH1 0x1F DUP4 ADD SLT PUSH2 0x53D7 JUMPI PUSH1 0x0 DUP1 REVERT JUMPDEST DUP2 CALLDATALOAD PUSH1 0x20 PUSH2 0x53E4 DUP3 PUSH2 0x53A3 JUMP JUMPDEST PUSH1 0x40 MLOAD PUSH2 0x53F1 DUP3 DUP3 PUSH2 0x5377 JUMP JUMPDEST DUP4 DUP2 MSTORE PUSH1 0x5 SWAP4 SWAP1 SWAP4 SHL DUP6 ADD DUP3 ADD SWAP3 DUP3 DUP2 ADD SWAP2 POP DUP7 DUP5 GT ISZERO PUSH2 0x5411 JUMPI PUSH1 0x0 DUP1 REVERT JUMPDEST DUP3 DUP7 ADD JUMPDEST DUP5 DUP2 LT ISZERO PUSH2 0x542C JUMPI DUP1 CALLDATALOAD DUP4 MSTORE SWAP2 DUP4 ADD SWAP2 DUP4 ADD PUSH2 0x5415 JUMP JUMPDEST POP SWAP7 SWAP6 POP POP POP POP POP POP JUMP JUMPDEST PUSH1 0x0 DUP3 PUSH1 0x1F DUP4 ADD SLT PUSH2 0x5448 JUMPI PUSH1 0x0 DUP1 REVERT JUMPDEST DUP2 CALLDATALOAD PUSH1 0x1 PUSH1 0x1 PUSH1 0x40 SHL SUB DUP2 GT ISZERO PUSH2 0x5461 JUMPI PUSH2 0x5461 PUSH2 0x5361 JUMP JUMPDEST PUSH1 0x40 MLOAD PUSH2 0x5478 PUSH1 0x1F DUP4 ADD PUSH1 0x1F NOT AND PUSH1 0x20 ADD DUP3 PUSH2 0x5377 JUMP JUMPDEST DUP2 DUP2 MSTORE DUP5 PUSH1 0x20 DUP4 DUP7 ADD ADD GT ISZERO PUSH2 0x548D JUMPI PUSH1 0x0 DUP1 REVERT JUMPDEST DUP2 PUSH1 0x20 DUP6 ADD PUSH1 0x20 DUP4 ADD CALLDATACOPY PUSH1 0x0 SWAP2 DUP2 ADD PUSH1 0x20 ADD SWAP2 SWAP1 SWAP2 MSTORE SWAP4 SWAP3 POP POP POP JUMP JUMPDEST PUSH1 0x0 DUP1 PUSH1 0x0 DUP1 PUSH1 0x0 PUSH1 0xA0 DUP7 DUP9 SUB SLT ISZERO PUSH2 0x54C2 JUMPI PUSH1 0x0 DUP1 REVERT JUMPDEST PUSH2 0x54CB DUP7 PUSH2 0x5145 JUMP JUMPDEST SWAP5 POP PUSH2 0x54D9 PUSH1 0x20 DUP8 ADD PUSH2 0x5145 JUMP JUMPDEST SWAP4 POP PUSH1 0x40 DUP7 ADD CALLDATALOAD PUSH1 0x1 PUSH1 0x1 PUSH1 0x40 SHL SUB DUP1 DUP3 GT ISZERO PUSH2 0x54F5 JUMPI PUSH1 0x0 DUP1 REVERT JUMPDEST PUSH2 0x5501 DUP10 DUP4 DUP11 ADD PUSH2 0x53C6 JUMP JUMPDEST SWAP5 POP PUSH1 0x60 DUP9 ADD CALLDATALOAD SWAP2 POP DUP1 DUP3 GT ISZERO PUSH2 0x5517 JUMPI PUSH1 0x0 DUP1 REVERT JUMPDEST PUSH2 0x5523 DUP10 DUP4 DUP11 ADD PUSH2 0x53C6 JUMP JUMPDEST SWAP4 POP PUSH1 0x80 DUP9 ADD CALLDATALOAD SWAP2 POP DUP1 DUP3 GT ISZERO PUSH2 0x5539 JUMPI PUSH1 0x0 DUP1 REVERT JUMPDEST POP PUSH2 0x5546 DUP9 DUP3 DUP10 ADD PUSH2 0x5437 JUMP JUMPDEST SWAP2 POP POP SWAP3 SWAP6 POP SWAP3 SWAP6 SWAP1 SWAP4 POP JUMP JUMPDEST DUP1 CALLDATALOAD PUSH1 0x5 DUP2 LT PUSH2 0x515C JUMPI PUSH1 0x0 DUP1 REVERT JUMPDEST PUSH1 0x0 DUP1 PUSH1 0x40 DUP4 DUP6 SUB SLT ISZERO PUSH2 0x5575 JUMPI PUSH1 0x0 DUP1 REVERT JUMPDEST DUP3 CALLDATALOAD SWAP2 POP PUSH2 0x5585 PUSH1 0x20 DUP5 ADD PUSH2 0x5553 JUMP JUMPDEST SWAP1 POP SWAP3 POP SWAP3 SWAP1 POP JUMP JUMPDEST PUSH1 0x0 DUP1 PUSH1 0x40 DUP4 DUP6 SUB SLT ISZERO PUSH2 0x55A1 JUMPI PUSH1 0x0 DUP1 REVERT JUMPDEST POP POP DUP1 CALLDATALOAD SWAP3 PUSH1 0x20 SWAP1 SWAP2 ADD CALLDATALOAD SWAP2 POP JUMP JUMPDEST PUSH4 0x4E487B71 PUSH1 0xE0 SHL PUSH1 0x0 MSTORE PUSH1 0x21 PUSH1 0x4 MSTORE PUSH1 0x24 PUSH1 0x0 REVERT JUMPDEST PUSH1 0x20 DUP2 ADD PUSH1 0x5 DUP4 LT PUSH2 0x55E8 JUMPI PUSH4 0x4E487B71 PUSH1 0xE0 SHL PUSH1 0x0 MSTORE PUSH1 0x21 PUSH1 0x4 MSTORE PUSH1 0x24 PUSH1 0x0 REVERT JUMPDEST SWAP2 SWAP1 MSTORE SWAP1 JUMP JUMPDEST PUSH1 0x0 DUP1 PUSH1 0x40 DUP4 DUP6 SUB SLT ISZERO PUSH2 0x5601 JUMPI PUSH1 0x0 DUP1 REVERT JUMPDEST DUP3 CALLDATALOAD PUSH1 0x1 PUSH1 0x1 PUSH1 0x40 SHL SUB DUP1 DUP3 GT ISZERO PUSH2 0x5618 JUMPI PUSH1 0x0 DUP1 REVERT JUMPDEST DUP2 DUP6 ADD SWAP2 POP DUP6 PUSH1 0x1F DUP4 ADD SLT PUSH2 0x562C JUMPI PUSH1 0x0 DUP1 REVERT JUMPDEST DUP2 CALLDATALOAD PUSH1 0x20 PUSH2 0x5639 DUP3 PUSH2 0x53A3 JUMP JUMPDEST PUSH1 0x40 MLOAD PUSH2 0x5646 DUP3 DUP3 PUSH2 0x5377 JUMP JUMPDEST DUP4 DUP2 MSTORE PUSH1 0x5 SWAP4 SWAP1 SWAP4 SHL DUP6 ADD DUP3 ADD SWAP3 DUP3 DUP2 ADD SWAP2 POP DUP10 DUP5 GT ISZERO PUSH2 0x5666 JUMPI PUSH1 0x0 DUP1 REVERT JUMPDEST SWAP5 DUP3 ADD SWAP5 JUMPDEST DUP4 DUP7 LT ISZERO PUSH2 0x568B JUMPI PUSH2 0x567C DUP7 PUSH2 0x5145 JUMP JUMPDEST DUP3 MSTORE SWAP5 DUP3 ADD SWAP5 SWAP1 DUP3 ADD SWAP1 PUSH2 0x566B JUMP JUMPDEST SWAP7 POP POP DUP7 ADD CALLDATALOAD SWAP3 POP POP DUP1 DUP3 GT ISZERO PUSH2 0x56A1 JUMPI PUSH1 0x0 DUP1 REVERT JUMPDEST POP PUSH2 0x56AE DUP6 DUP3 DUP7 ADD PUSH2 0x53C6 JUMP JUMPDEST SWAP2 POP POP SWAP3 POP SWAP3 SWAP1 POP JUMP JUMPDEST PUSH1 0x20 DUP2 MSTORE PUSH1 0x0 PUSH2 0x2455 PUSH1 0x20 DUP4 ADD DUP5 PUSH2 0x5289 JUMP JUMPDEST PUSH1 0x0 DUP1 PUSH1 0x40 DUP4 DUP6 SUB SLT ISZERO PUSH2 0x56DE JUMPI PUSH1 0x0 DUP1 REVERT JUMPDEST DUP3 CALLDATALOAD SWAP2 POP PUSH1 0x20 DUP4 ADD CALLDATALOAD PUSH1 0x1 PUSH1 0x1 PUSH1 0x40 SHL SUB DUP2 GT ISZERO PUSH2 0x56FB JUMPI PUSH1 0x0 DUP1 REVERT JUMPDEST PUSH2 0x56AE DUP6 DUP3 DUP7 ADD PUSH2 0x5437 JUMP JUMPDEST PUSH1 0x0 DUP1 PUSH1 0x0 DUP1 PUSH1 0x80 DUP6 DUP8 SUB SLT ISZERO PUSH2 0x571D JUMPI PUSH1 0x0 DUP1 REVERT JUMPDEST DUP5 CALLDATALOAD PUSH1 0x1 PUSH1 0x1 PUSH1 0x40 SHL SUB DUP1 DUP3 GT ISZERO PUSH2 0x5734 JUMPI PUSH1 0x0 DUP1 REVERT JUMPDEST PUSH2 0x5740 DUP9 DUP4 DUP10 ADD PUSH2 0x5437 JUMP JUMPDEST SWAP6 POP PUSH1 0x20 DUP8 ADD CALLDATALOAD SWAP2 POP DUP1 DUP3 GT ISZERO PUSH2 0x5756 JUMPI PUSH1 0x0 DUP1 REVERT JUMPDEST PUSH2 0x5762 DUP9 DUP4 DUP10 ADD PUSH2 0x5437 JUMP JUMPDEST SWAP5 POP PUSH1 0x40 DUP8 ADD CALLDATALOAD SWAP2 POP DUP1 DUP3 GT ISZERO PUSH2 0x5778 JUMPI PUSH1 0x0 DUP1 REVERT JUMPDEST PUSH2 0x5784 DUP9 DUP4 DUP10 ADD PUSH2 0x5437 JUMP JUMPDEST SWAP4 POP PUSH1 0x60 DUP8 ADD CALLDATALOAD SWAP2 POP DUP1 DUP3 GT ISZERO PUSH2 0x579A JUMPI PUSH1 0x0 DUP1 REVERT JUMPDEST POP PUSH2 0x57A7 DUP8 DUP3 DUP9 ADD PUSH2 0x5437 JUMP JUMPDEST SWAP2 POP POP SWAP3 SWAP6 SWAP2 SWAP5 POP SWAP3 POP JUMP JUMPDEST DUP1 ISZERO ISZERO DUP2 EQ PUSH2 0x38A1 JUMPI PUSH1 0x0 DUP1 REVERT JUMPDEST PUSH1 0x0 DUP1 PUSH1 0x40 DUP4 DUP6 SUB SLT ISZERO PUSH2 0x57D4 JUMPI PUSH1 0x0 DUP1 REVERT JUMPDEST PUSH2 0x57DD DUP4 PUSH2 0x5145 JUMP JUMPDEST SWAP2 POP PUSH1 0x20 DUP4 ADD CALLDATALOAD PUSH2 0x57ED DUP2 PUSH2 0x57B3 JUMP JUMPDEST DUP1 SWAP2 POP POP SWAP3 POP SWAP3 SWAP1 POP JUMP JUMPDEST PUSH1 0x0 DUP1 PUSH1 0x0 DUP1 PUSH1 0x0 DUP1 PUSH1 0x0 PUSH1 0xE0 DUP9 DUP11 SUB SLT ISZERO PUSH2 0x5813 JUMPI PUSH1 0x0 DUP1 REVERT JUMPDEST DUP8 CALLDATALOAD SWAP7 POP PUSH1 0x20 DUP1 DUP10 ADD CALLDATALOAD SWAP7 POP PUSH1 0x40 DUP10 ADD CALLDATALOAD SWAP6 POP PUSH1 0x60 DUP10 ADD CALLDATALOAD SWAP5 POP PUSH1 0x80 DUP10 ADD CALLDATALOAD SWAP4 POP PUSH1 0xA0 DUP10 ADD CALLDATALOAD SWAP3 POP PUSH1 0xC0 DUP10 ADD CALLDATALOAD PUSH1 0x1 PUSH1 0x1 PUSH1 0x40 SHL SUB DUP2 GT ISZERO PUSH2 0x5854 JUMPI PUSH1 0x0 DUP1 REVERT JUMPDEST DUP10 ADD PUSH1 0x1F DUP2 ADD DUP12 SGT PUSH2 0x5865 JUMPI PUSH1 0x0 DUP1 REVERT JUMPDEST DUP1 CALLDATALOAD PUSH2 0x5870 DUP2 PUSH2 0x53A3 JUMP JUMPDEST PUSH1 0x40 MLOAD PUSH2 0x587D DUP3 DUP3 PUSH2 0x5377 JUMP JUMPDEST DUP3 DUP2 MSTORE PUSH1 0x5 SWAP3 SWAP1 SWAP3 SHL DUP4 ADD DUP5 ADD SWAP2 DUP5 DUP2 ADD SWAP2 POP DUP14 DUP4 GT ISZERO PUSH2 0x589D JUMPI PUSH1 0x0 DUP1 REVERT JUMPDEST SWAP3 DUP5 ADD SWAP3 JUMPDEST DUP3 DUP5 LT ISZERO PUSH2 0x58C2 JUMPI PUSH2 0x58B3 DUP5 PUSH2 0x5553 JUMP JUMPDEST DUP3 MSTORE SWAP3 DUP5 ADD SWAP3 SWAP1 DUP5 ADD SWAP1 PUSH2 0x58A2 JUMP JUMPDEST DUP1 SWAP6 POP POP POP POP POP POP SWAP3 SWAP6 SWAP9 SWAP2 SWAP5 SWAP8 POP SWAP3 SWAP6 POP JUMP JUMPDEST PUSH1 0x0 DUP1 PUSH1 0x40 DUP4 DUP6 SUB SLT ISZERO PUSH2 0x58E9 JUMPI PUSH1 0x0 DUP1 REVERT JUMPDEST PUSH2 0x58F2 DUP4 PUSH2 0x5145 JUMP JUMPDEST SWAP2 POP PUSH2 0x5585 PUSH1 0x20 DUP5 ADD PUSH2 0x5145 JUMP JUMPDEST PUSH1 0x20 DUP2 MSTORE PUSH1 0x0 PUSH2 0x2455 PUSH1 0x20 DUP4 ADD DUP5 PUSH2 0x52C4 JUMP JUMPDEST PUSH1 0x0 PUSH1 0x20 DUP3 DUP5 SUB SLT ISZERO PUSH2 0x5925 JUMPI PUSH1 0x0 DUP1 REVERT JUMPDEST DUP2 CALLDATALOAD PUSH2 0x2455 DUP2 PUSH2 0x57B3 JUMP JUMPDEST PUSH1 0x0 DUP1 PUSH1 0x0 DUP1 PUSH1 0x0 PUSH1 0xA0 DUP7 DUP9 SUB SLT ISZERO PUSH2 0x5948 JUMPI PUSH1 0x0 DUP1 REVERT JUMPDEST PUSH2 0x5951 DUP7 PUSH2 0x5145 JUMP JUMPDEST SWAP5 POP PUSH2 0x595F PUSH1 0x20 DUP8 ADD PUSH2 0x5145 JUMP JUMPDEST SWAP4 POP PUSH1 0x40 DUP7 ADD CALLDATALOAD SWAP3 POP PUSH1 0x60 DUP7 ADD CALLDATALOAD SWAP2 POP PUSH1 0x80 DUP7 ADD CALLDATALOAD PUSH1 0x1 PUSH1 0x1 PUSH1 0x40 SHL SUB DUP2 GT ISZERO PUSH2 0x5988 JUMPI PUSH1 0x0 DUP1 REVERT JUMPDEST PUSH2 0x5546 DUP9 DUP3 DUP10 ADD PUSH2 0x5437 JUMP JUMPDEST PUSH1 0x0 DUP1 PUSH1 0x0 DUP1 PUSH1 0x0 DUP1 PUSH1 0x0 PUSH1 0xE0 DUP9 DUP11 SUB SLT ISZERO PUSH2 0x59AF JUMPI PUSH1 0x0 DUP1 REVERT JUMPDEST DUP8 CALLDATALOAD SWAP7 POP PUSH1 0x20 DUP9 ADD CALLDATALOAD SWAP6 POP PUSH1 0x40 DUP9 ADD CALLDATALOAD SWAP5 POP PUSH1 0x60 DUP9 ADD CALLDATALOAD PUSH1 0x1 PUSH1 0x1 PUSH1 0x40 SHL SUB DUP1 DUP3 GT ISZERO PUSH2 0x59DB JUMPI PUSH1 0x0 DUP1 REVERT JUMPDEST PUSH2 0x59E7 DUP12 DUP4 DUP13 ADD PUSH2 0x5437 JUMP JUMPDEST SWAP6 POP PUSH1 0x80 DUP11 ADD CALLDATALOAD SWAP2 POP DUP1 DUP3 GT ISZERO PUSH2 0x59FD JUMPI PUSH1 0x0 DUP1 REVERT JUMPDEST PUSH2 0x5A09 DUP12 DUP4 DUP13 ADD PUSH2 0x5437 JUMP JUMPDEST SWAP5 POP PUSH1 0xA0 DUP11 ADD CALLDATALOAD SWAP2 POP DUP1 DUP3 GT ISZERO PUSH2 0x5A1F JUMPI PUSH1 0x0 DUP1 REVERT JUMPDEST PUSH2 0x5A2B DUP12 DUP4 DUP13 ADD PUSH2 0x5437 JUMP JUMPDEST SWAP4 POP PUSH1 0xC0 DUP11 ADD CALLDATALOAD SWAP2 POP DUP1 DUP3 GT ISZERO PUSH2 0x5A41 JUMPI PUSH1 0x0 DUP1 REVERT JUMPDEST POP PUSH2 0x5A4E DUP11 DUP3 DUP12 ADD PUSH2 0x5437 JUMP JUMPDEST SWAP2 POP POP SWAP3 SWAP6 SWAP9 SWAP2 SWAP5 SWAP8 POP SWAP3 SWAP6 POP JUMP JUMPDEST PUSH1 0x1 DUP2 DUP2 SHR SWAP1 DUP3 AND DUP1 PUSH2 0x5A71 JUMPI PUSH1 0x7F DUP3 AND SWAP2 POP JUMPDEST PUSH1 0x20 DUP3 LT DUP2 EQ ISZERO PUSH2 0x333E JUMPI PUSH4 0x4E487B71 PUSH1 0xE0 SHL PUSH1 0x0 MSTORE PUSH1 0x22 PUSH1 0x4 MSTORE PUSH1 0x24 PUSH1 0x0 REVERT JUMPDEST PUSH1 0x0 PUSH1 0x0 NOT DUP3 EQ ISZERO PUSH2 0x5AA6 JUMPI PUSH2 0x5AA6 PUSH2 0x5117 JUMP JUMPDEST POP PUSH1 0x1 ADD SWAP1 JUMP JUMPDEST PUSH1 0x20 DUP1 DUP3 MSTORE DUP2 DUP2 ADD MSTORE PUSH32 0x4F776E61626C653A2063616C6C6572206973206E6F7420746865206F776E6572 PUSH1 0x40 DUP3 ADD MSTORE PUSH1 0x60 ADD SWAP1 JUMP JUMPDEST PUSH1 0x20 DUP1 DUP3 MSTORE PUSH1 0x10 SWAP1 DUP3 ADD MSTORE PUSH16 0x14185D5CD8589B194E881C185D5CD959 PUSH1 0x82 SHL PUSH1 0x40 DUP3 ADD MSTORE PUSH1 0x60 ADD SWAP1 JUMP JUMPDEST PUSH1 0x0 DUP3 DUP3 LT ISZERO PUSH2 0x5B1E JUMPI PUSH2 0x5B1E PUSH2 0x5117 JUMP JUMPDEST POP SUB SWAP1 JUMP JUMPDEST PUSH1 0x0 DUP2 PUSH1 0x0 NOT DIV DUP4 GT DUP3 ISZERO ISZERO AND ISZERO PUSH2 0x5B3D JUMPI PUSH2 0x5B3D PUSH2 0x5117 JUMP JUMPDEST POP MUL SWAP1 JUMP JUMPDEST PUSH4 0x4E487B71 PUSH1 0xE0 SHL PUSH1 0x0 MSTORE PUSH1 0x12 PUSH1 0x4 MSTORE PUSH1 0x24 PUSH1 0x0 REVERT JUMPDEST PUSH1 0x0 DUP3 PUSH2 0x5B67 JUMPI PUSH2 0x5B67 PUSH2 0x5B42 JUMP JUMPDEST POP DIV SWAP1 JUMP JUMPDEST PUSH1 0x20 DUP1 DUP3 MSTORE PUSH1 0x3 SWAP1 DUP3 ADD MSTORE PUSH3 0x653131 PUSH1 0xE8 SHL PUSH1 0x40 DUP3 ADD MSTORE PUSH1 0x60 ADD SWAP1 JUMP JUMPDEST PUSH1 0x20 DUP1 DUP3 MSTORE PUSH1 0x2 SWAP1 DUP3 ADD MSTORE PUSH2 0x6531 PUSH1 0xF0 SHL PUSH1 0x40 DUP3 ADD MSTORE PUSH1 0x60 ADD SWAP1 JUMP JUMPDEST DUP1 MLOAD PUSH10 0xFFFFFFFFFFFFFFFFFFFF DUP2 AND DUP2 EQ PUSH2 0x515C JUMPI PUSH1 0x0 DUP1 REVERT JUMPDEST PUSH1 0x0 DUP1 PUSH1 0x0 DUP1 PUSH1 0x0 PUSH1 0xA0 DUP7 DUP9 SUB SLT ISZERO PUSH2 0x5BD7 JUMPI PUSH1 0x0 DUP1 REVERT JUMPDEST PUSH2 0x5BE0 DUP7 PUSH2 0x5BA5 JUMP JUMPDEST SWAP5 POP PUSH1 0x20 DUP7 ADD MLOAD SWAP4 POP PUSH1 0x40 DUP7 ADD MLOAD SWAP3 POP PUSH1 0x60 DUP7 ADD MLOAD SWAP2 POP PUSH2 0x5C03 PUSH1 0x80 DUP8 ADD PUSH2 0x5BA5 JUMP JUMPDEST SWAP1 POP SWAP3 SWAP6 POP SWAP3 SWAP6 SWAP1 SWAP4 POP JUMP JUMPDEST PUSH1 0x0 DUP3 PUSH2 0x5C1E JUMPI PUSH2 0x5C1E PUSH2 0x5B42 JUMP JUMPDEST POP MOD SWAP1 JUMP JUMPDEST PUSH1 0x20 DUP1 DUP3 MSTORE PUSH1 0x2A SWAP1 DUP3 ADD MSTORE PUSH32 0x455243313135353A20696E73756666696369656E742062616C616E636520666F PUSH1 0x40 DUP3 ADD MSTORE PUSH10 0x39103A3930B739B332B9 PUSH1 0xB1 SHL PUSH1 0x60 DUP3 ADD MSTORE PUSH1 0x80 ADD SWAP1 JUMP JUMPDEST PUSH1 0x40 DUP2 MSTORE PUSH1 0x0 PUSH2 0x5C80 PUSH1 0x40 DUP4 ADD DUP6 PUSH2 0x5289 JUMP JUMPDEST DUP3 DUP2 SUB PUSH1 0x20 DUP5 ADD MSTORE PUSH2 0x35B6 DUP2 DUP6 PUSH2 0x5289 JUMP JUMPDEST PUSH1 0x0 DUP3 MLOAD PUSH2 0x5CA4 DUP2 DUP5 PUSH1 0x20 DUP8 ADD PUSH2 0x51EA JUMP JUMPDEST SWAP2 SWAP1 SWAP2 ADD SWAP3 SWAP2 POP POP JUMP JUMPDEST PUSH1 0x1 DUP1 PUSH1 0xA0 SHL SUB DUP5 AND DUP2 MSTORE DUP3 PUSH1 0x20 DUP3 ADD MSTORE PUSH1 0x60 PUSH1 0x40 DUP3 ADD MSTORE PUSH1 0x0 PUSH2 0x35B6 PUSH1 0x60 DUP4 ADD DUP5 PUSH2 0x5216 JUMP JUMPDEST PUSH1 0x0 PUSH1 0x20 DUP3 DUP5 SUB SLT ISZERO PUSH2 0x5CE7 JUMPI PUSH1 0x0 DUP1 REVERT JUMPDEST DUP2 MLOAD PUSH2 0x2455 DUP2 PUSH2 0x57B3 JUMP JUMPDEST PUSH1 0x0 DUP1 DUP4 SLT DUP1 ISZERO PUSH1 0x1 PUSH1 0xFF SHL DUP6 ADD DUP5 SLT AND ISZERO PUSH2 0x5D10 JUMPI PUSH2 0x5D10 PUSH2 0x5117 JUMP JUMPDEST PUSH1 0x1 PUSH1 0x1 PUSH1 0xFF SHL SUB DUP5 ADD DUP4 SGT DUP2 AND ISZERO PUSH2 0x5D2B JUMPI PUSH2 0x5D2B PUSH2 0x5117 JUMP JUMPDEST POP POP SUB SWAP1 JUMP JUMPDEST PUSH1 0x0 DUP3 PUSH2 0x5D40 JUMPI PUSH2 0x5D40 PUSH2 0x5B42 JUMP JUMPDEST PUSH1 0x1 PUSH1 0xFF SHL DUP3 EQ PUSH1 0x0 NOT DUP5 EQ AND ISZERO PUSH2 0x5D5A JUMPI PUSH2 0x5D5A PUSH2 0x5117 JUMP JUMPDEST POP SDIV SWAP1 JUMP JUMPDEST PUSH1 0x0 DUP1 DUP3 SLT DUP1 ISZERO PUSH1 0x1 PUSH1 0x1 PUSH1 0xFF SHL SUB DUP5 SWAP1 SUB DUP6 SGT AND ISZERO PUSH2 0x5D81 JUMPI PUSH2 0x5D81 PUSH2 0x5117 JUMP JUMPDEST PUSH1 0x1 PUSH1 0xFF SHL DUP4 SWAP1 SUB DUP5 SLT DUP2 AND ISZERO PUSH2 0x5D9A JUMPI PUSH2 0x5D9A PUSH2 0x5117 JUMP JUMPDEST POP POP ADD SWAP1 JUMP JUMPDEST PUSH1 0x0 PUSH1 0x1 PUSH1 0x1 PUSH1 0xFF SHL SUB DUP2 DUP5 SGT DUP3 DUP5 SGT DUP1 DUP3 AND DUP7 DUP5 DIV DUP7 GT AND ISZERO PUSH2 0x5DC6 JUMPI PUSH2 0x5DC6 PUSH2 0x5117 JUMP JUMPDEST PUSH1 0x1 PUSH1 0xFF SHL PUSH1 0x0 DUP8 SLT DUP3 DUP2 AND DUP8 DUP4 SDIV DUP10 SLT AND ISZERO PUSH2 0x5DE5 JUMPI PUSH2 0x5DE5 PUSH2 0x5117 JUMP JUMPDEST PUSH1 0x0 DUP8 SLT SWAP3 POP DUP8 DUP3 SDIV DUP8 SLT DUP5 DUP5 AND AND ISZERO PUSH2 0x5E01 JUMPI PUSH2 0x5E01 PUSH2 0x5117 JUMP JUMPDEST DUP8 DUP6 SDIV DUP8 SLT DUP2 DUP5 AND AND ISZERO PUSH2 0x5E17 JUMPI PUSH2 0x5E17 PUSH2 0x5117 JUMP JUMPDEST POP POP POP SWAP3 SWAP1 SWAP4 MUL SWAP4 SWAP3 POP POP POP JUMP JUMPDEST PUSH1 0x1 PUSH1 0x1 PUSH1 0xA0 SHL SUB DUP7 DUP2 AND DUP3 MSTORE DUP6 AND PUSH1 0x20 DUP3 ADD MSTORE PUSH1 0x40 DUP2 ADD DUP5 SWAP1 MSTORE PUSH1 0x60 DUP2 ADD DUP4 SWAP1 MSTORE PUSH1 0xA0 PUSH1 0x80 DUP3 ADD DUP2 SWAP1 MSTORE PUSH1 0x0 SWAP1 PUSH2 0x5E5F SWAP1 DUP4 ADD DUP5 PUSH2 0x5216 JUMP JUMPDEST SWAP8 SWAP7 POP POP POP POP POP POP POP JUMP JUMPDEST PUSH1 0x0 PUSH1 0x20 DUP3 DUP5 SUB SLT ISZERO PUSH2 0x5E7C JUMPI PUSH1 0x0 DUP1 REVERT JUMPDEST DUP2 MLOAD PUSH2 0x2455 DUP2 PUSH2 0x518B JUMP JUMPDEST PUSH1 0x0 PUSH1 0x3 RETURNDATASIZE GT ISZERO PUSH2 0x31BE JUMPI PUSH1 0x4 PUSH1 0x0 DUP1 RETURNDATACOPY POP PUSH1 0x0 MLOAD PUSH1 0xE0 SHR SWAP1 JUMP JUMPDEST PUSH1 0x0 PUSH1 0x44 RETURNDATASIZE LT ISZERO PUSH2 0x5EB0 JUMPI SWAP1 JUMP JUMPDEST PUSH1 0x40 MLOAD PUSH1 0x3 NOT RETURNDATASIZE DUP2 ADD PUSH1 0x4 DUP4 RETURNDATACOPY DUP2 MLOAD RETURNDATASIZE PUSH1 0x1 PUSH1 0x1 PUSH1 0x40 SHL SUB DUP2 PUSH1 0x24 DUP5 ADD GT DUP2 DUP5 GT OR ISZERO PUSH2 0x5EDF JUMPI POP POP POP POP POP SWAP1 JUMP JUMPDEST DUP3 DUP6 ADD SWAP2 POP DUP2 MLOAD DUP2 DUP2 GT ISZERO PUSH2 0x5EF7 JUMPI POP POP POP POP POP POP SWAP1 JUMP JUMPDEST DUP5 RETURNDATASIZE DUP8 ADD ADD PUSH1 0x20 DUP3 DUP6 ADD ADD GT ISZERO PUSH2 0x5F11 JUMPI POP POP POP POP POP POP SWAP1 JUMP JUMPDEST PUSH2 0x5F20 PUSH1 0x20 DUP3 DUP7 ADD ADD DUP8 PUSH2 0x5377 JUMP JUMPDEST POP SWAP1 SWAP6 SWAP5 POP POP POP POP POP JUMP JUMPDEST PUSH1 0x20 DUP1 DUP3 MSTORE PUSH1 0x28 SWAP1 DUP3 ADD MSTORE PUSH32 0x455243313135353A204552433131353552656365697665722072656A65637465 PUSH1 0x40 DUP3 ADD MSTORE PUSH8 0x6420746F6B656E73 PUSH1 0xC0 SHL PUSH1 0x60 DUP3 ADD MSTORE PUSH1 0x80 ADD SWAP1 JUMP JUMPDEST PUSH1 0x1 PUSH1 0x1 PUSH1 0xA0 SHL SUB DUP7 DUP2 AND DUP3 MSTORE DUP6 AND PUSH1 0x20 DUP3 ADD MSTORE PUSH1 0xA0 PUSH1 0x40 DUP3 ADD DUP2 SWAP1 MSTORE PUSH1 0x0 SWAP1 PUSH2 0x5F9F SWAP1 DUP4 ADD DUP7 PUSH2 0x5289 JUMP JUMPDEST DUP3 DUP2 SUB PUSH1 0x60 DUP5 ADD MSTORE PUSH2 0x5FB1 DUP2 DUP7 PUSH2 0x5289 JUMP JUMPDEST SWAP1 POP DUP3 DUP2 SUB PUSH1 0x80 DUP5 ADD MSTORE PUSH2 0x4BAB DUP2 DUP6 PUSH2 0x5216 JUMP INVALID LOG2 PUSH5 0x6970667358 0x22 SLT KECCAK256 PUSH27 0x3CAB095E98F5250AA512D626427B619E0E13795843A1AB39AD92AA 0x4D 0xEE SWAP10 SWAP4 PUSH5 0x736F6C6343 STOP ADDMOD SIGNEXTEND STOP CALLER ","sha1":"9486c35b6ce5cf973b71ed1b0e65479e9ce84e8a","source":"// SPDX-License-Identifier: MIT\npragma solidity ^0.8.0;\n\nimport \"./MemorizeThisDay.sol\";\n\ncontract MemorizeThisDayOnBTC is MemorizeThisDay {\n    constructor(\n        address vrfCoordinator,\n        address linkToken,\n        uint256 chainlinkFee,\n        bytes32 keyHash,\n        address priceFeedAddress,\n        address developersAddress,\n        address founderAddress\n    )\n        public\n        MemorizeThisDay(\n            \"Bitcoin\",\n            \"https://memorizethisday.github.io/BTC/{id}.json\",\n            100,\n            vrfCoordinator,\n            linkToken,\n            chainlinkFee,\n            keyHash,\n            priceFeedAddress,\n            2015,\n            1,\n            5\n        )\n    {\n        SetAddress(founderAddress, 0);\n        SetAddress(developersAddress, 1);\n        _airdrop[founderAddress] = 55;\n        Memorize(2015, 1, 5, developersAddress);\n        Memorize(2015, 1, 6, developersAddress);\n        Memorize(2015, 1, 7, developersAddress);\n\n        Memorize(2015, 1, 25, founderAddress);\n        Memorize(2016, 7, 9, founderAddress);\n        Memorize(2016, 1, 1, founderAddress);\n        Memorize(2017, 1, 1, founderAddress);\n        Memorize(2021, 10, 20, founderAddress);\n    }\n}\n","sourcePath":"contracts/MemorizeBTC.sol","type":"contract","deployment":{"address":"0xaf47BfA9712Ce82277BaD6A23A5290c886AFE1Ff","chainid":"4","blockHeight":10599242}}