{"bytecode":"610120604052602260c08181529062007c9060e03980516200002a91600591602090910190620016a0565b506000600d819055600e805460ff191660011790556005600f55601080546001600160a81b0319169055604080516020810191829052829052620000729160119190620016a0565b506040805160208101918290526000908190526200009391601291620016a0565b50604080516020810191829052600090819052620000b491601391620016a0565b50604080516020810191829052600090819052620000d591601491620016a0565b5060006015556000601655600060175560076019556007601a55348015620000fc57600080fd5b5060405162007ce138038062007ce18339810160408190526200011f9162001763565b604051806040016040528060078152602001662134ba31b7b4b760c91b8152506040518060600160405280602f815260200162007cb2602f9139603289898989896107d96001600387878b62000175816200036b565b506003805460ff191690556200018b3362000384565b6001600160a01b0391821660a05216608052620001b189670de0b6b3a7640000620017fc565b6016819055601755670de0b6b3a7640000600d5560218690556022859055620001e8426008620003de602090811b62003dd317901c565b601b8190555062000206426008620003de60201b62003dd31760201c565b601c819055506200022442601e620003de60201b62003dd31760201c565b601f558a516200023c90600c9060208e0190620016a0565b506026805460016001600160a01b0319918216179091556027805460029083161790556028805460039083161790556029805460049083161790556007805482169055600b80549091166001600160a01b038616179055620002ac83838362000411602090811b62003dfb17901c565b601d81905560155550620002d099508a985060009750506200043895505050505050565b620002dd82600162000438565b6001600160a01b038082166000908152602b60205260408082206014908190559285168252902055620003176107e060076009846200052c565b620003286107dd600180846200052c565b6200033a6107d960016003846200052c565b6200034c6107e5600a6014846200052c565b6200035e6107df6001600f846200052c565b5050505050505062001c8c565b805162000380906002906020840190620016a0565b5050565b600380546001600160a01b03838116610100818102610100600160a81b031985161790945560405193909204169182907f8be0079c531659141344cd1fd0a4f28419497f9722a3daafe3b4186f6b6457e090600090a35050565b6000620003ef6201518083620017fc565b620003fb908462001834565b9050828111156200040b57600080fd5b92915050565b6000620151806200042485858562000d79565b620004309190620017fc565b949350505050565b6003546001600160a01b036101009091041633146200049e5760405162461bcd60e51b815260206004820181905260248201527f4f776e61626c653a2063616c6c6572206973206e6f7420746865206f776e657260448201526064015b60405180910390fd5b80620004e857602480546001600160a01b038481166001600160a01b031983168117909355166000818152602a602052604080822080549483529082209390935590815290555050565b602380546001600160a01b038481166001600160a01b031983168117909355166000818152602a602052604080822080549483529082209390935590815290555050565b60035460ff1615620005745760405162461bcd60e51b815260206004820152601060248201526f14185d5cd8589b194e881c185d5cd95960821b604482015260640162000495565b600e5460ff161580620005955750336000908152602b602052604090205415155b620005c85760405162461bcd60e51b8152602060048201526002602482015261329960f11b604482015260640162000495565b821580620005d65750600c83115b156200060a5760405162461bcd60e51b8152602060048201526002602482015261653360f01b604482015260640162000495565b811580620006185750601f82115b156200064c5760405162461bcd60e51b8152602060048201526002602482015261194d60f21b604482015260640162000495565b82600414806200065c5750826006145b80620006685750826009145b8062000674575082600b145b8015620006815750601e82115b80620006b75750826002148015620006aa5750620006aa8462000ee960201b62003e161760201c565b8015620006b75750601d82115b80620006ef5750826002148015620006e25750620006e08462000ee960201b62003e161760201c565b155b8015620006ef5750601c82115b1562000719576040516324e2ba2160e11b8152600481018490526024810183905260440162000495565b6000620007338585856200041160201b62003dfb1760201c565b9050428111158015620007485750601d548110155b6200077b5760405162461bcd60e51b8152602060048201526002602482015261653560f01b604482015260640162000495565b6000818152602c60205260409020546001600160a01b031615620007c75760405162461bcd60e51b8152602060048201526002602482015261329b60f11b604482015260640162000495565b6001600160a01b038216620007da573391505b336000908152602b602052604081205415620008cb5750336000908152602b60205260409020546001906200081190829062001834565b336000908152602b6020526040902055600f5415620008cb576001600f546200083b919062001834565b600f556000828152602e60205260408120805460ff19166001908117909155603080548083018255928190527f6ff97a59c90d62cc7236ba3a37cd85351bf564556780cf8c1157a220f31f0cbb90920180546001600160a01b031916331790559054620008a9919062001834565b6000838152602f6020526040902055600f54620008cb57600e805460ff191690555b8062000bc957620008db62000f2d565b341015620009115760405162461bcd60e51b8152602060048201526002602482015261653760f01b604482015260640162000495565b6000606462000922600534620017fc565b6200092e919062001864565b6024546001600160a01b03166000908152602a6020526040902054909150620009599082906200187b565b6024546001600160a01b03166000908152602a6020526040812091909155606462000986600534620017fc565b62000992919062001864565b6007549091506001600160a01b0316620009ef576023546001600160a01b03166000908152602a6020526040902054620009ce9082906200187b565b6023546001600160a01b03166000908152602a602052604090205562000a33565b6007546001600160a01b03166000908152602a602052604090205462000a179082906200187b565b6007546001600160a01b03166000908152602a60205260409020555b6000606462000a44600534620017fc565b62000a50919062001864565b6023546001600160a01b03166000908152602a602052604090205490915062000a7b9082906200187b565b6023546001600160a01b03166000908152602a6020526040812091909155606462000aa8601934620017fc565b62000ab4919062001864565b6029546001600160a01b03166000908152602a602052604090205490915062000adf9082906200187b565b6029546001600160a01b03166000908152602a6020526040812091909155606462000b0c601e34620017fc565b62000b18919062001864565b6026546001600160a01b03166000908152602a602052604090205490915062000b439082906200187b565b6026546001600160a01b03166000908152602a6020526040812091909155606462000b70601e34620017fc565b62000b7c919062001864565b6027546001600160a01b03166000908152602a602052604090205490915062000ba79082906200187b565b6027546001600160a01b03166000908152602a60205260409020555050505050505b62000bed838360016040518060200160405280600081525062000fec60201b60201c565b60208054600180820183557fc97bfaf2f8ee708c303a06d134f5ecd8389ae0432af62dc132a24118292866bb9091018490556000848152602c909252604090912080546001600160a01b0319166001600160a01b03861617905542601e555b6003811162000d08576000838152602e602052604090205460ff1615801562000c755750806003145b1562000c815762000cf3565b62000c8e8787876200110f565b60008281526039602090815260408083206003845290915290205462000cb591906200187b565b6000828152603960209081526040808320600380855290835281842094909455848352603882528083208784529091529020805460ff191690911790555b8062000cff8162001896565b91505062000c4c565b508062000d2557600d5460165462000d2191906200187b565b6016555b60408051878152602081018790529081018590526001600160a01b038416907fa51e9b2ef1f037dee551eb226d6d1581c8fb0e0243820ebd1fbb41a13e6c23649060600160405180910390a2505050505050565b60006107b284101562000d8b57600080fd5b838383600062253d8c60046064600c62000da7600e88620018b4565b62000db39190620018f9565b62000dc1886113246200192d565b62000dcd91906200192d565b62000dd99190620018f9565b62000de690600362001974565b62000df29190620018f9565b600c8062000e02600e88620018b4565b62000e0e9190620018f9565b62000e1b90600c62001974565b62000e28600288620018b4565b62000e349190620018b4565b62000e429061016f62001974565b62000e4e9190620018f9565b6004600c62000e5f600e89620018b4565b62000e6b9190620018f9565b62000e79896112c06200192d565b62000e8591906200192d565b62000e93906105b562001974565b62000e9f9190620018f9565b62000ead617d4b87620018b4565b62000eb991906200192d565b62000ec591906200192d565b62000ed19190620018b4565b62000edd9190620018b4565b98975050505050505050565b600062000ef860048362001a05565b15801562000f11575062000f0e60648362001a05565b15155b806200040b575062000f266101908362001a05565b1592915050565b600080600b60009054906101000a90046001600160a01b03166001600160a01b031663feaf968c6040518163ffffffff1660e01b815260040160a060405180830381865afa15801562000f84573d6000803e3d6000fd5b505050506040513d601f19601f8201168201806040525081019062000faa919062001a34565b505050915050806402540be40062000fc39190620017fc565b60165462000fda90670de0b6b3a7640000620017fc565b62000fe6919062001864565b91505090565b6001600160a01b0384166200104e5760405162461bcd60e51b815260206004820152602160248201527f455243313135353a206d696e7420746f20746865207a65726f206164647265736044820152607360f81b606482015260840162000495565b3362001074816000876200106288620011d3565b6200106d88620011d3565b8762001221565b6000848152602081815260408083206001600160a01b038916845290915281208054859290620010a69084906200187b565b909155505060408051858152602081018590526001600160a01b0380881692600092918516917fc3d58168c5ae7397731d063d5bbf3d657854427343f4c083240f7aacaa2d0f62910160405180910390a46200110881600087878787620012ae565b5050505050565b6000806200112a8585856200041160201b62003dfb1760201c565b6000818152602c60205260409020549091506001600160a01b0316620011795760405162461bcd60e51b815260206004820152600360248201526265313160e81b604482015260640162000495565b60006200119282426200148460201b62003e521760201c565b6000838152602e602052604090205490915060ff1615620011bd57620011ba816004620017fc565b90505b60008111620011ca575060015b95945050505050565b604080516001808252818301909252606091600091906020808301908036833701905050905082816000815181106200121057620012106200181e565b602090810291909101015292915050565b6200123c868686868686620012a660201b62003eb21760201c565b60035460ff1615620012a65760405162461bcd60e51b815260206004820152602c60248201527f455243313135355061757361626c653a20746f6b656e207472616e736665722060448201526b1dda1a5b19481c185d5cd95960a21b606482015260840162000495565b505050505050565b620012cd846001600160a01b0316620014ee60201b62003eba1760201c565b15620012a65760405163f23a6e6160e01b81526001600160a01b0385169063f23a6e619062001309908990899088908890889060040162001ad9565b6020604051808303816000875af192505050801562001347575060408051601f3d908101601f19168201909252620013449181019062001b20565b60015b62001408576200135662001b53565b806308c379a014156200139757506200136e62001bab565b806200137b575062001399565b8060405162461bcd60e51b815260040162000495919062001c3a565b505b60405162461bcd60e51b815260206004820152603460248201527f455243313135353a207472616e7366657220746f206e6f6e204552433131353560448201527f526563656976657220696d706c656d656e746572000000000000000000000000606482015260840162000495565b6001600160e01b0319811663f23a6e6160e01b146200147b5760405162461bcd60e51b815260206004820152602860248201527f455243313135353a204552433131353552656365697665722072656a656374656044820152676420746f6b656e7360c01b606482015260840162000495565b50505050505050565b6000818311156200149457600080fd5b60008080808080620014b4620014ae620151808b62001864565b620014f4565b91975095509350620014ce620014ae620151808a62001864565b91945092509050620014e1868462001834565b9998505050505050505050565b3b151590565b60008080838162253d8c6200150d8362010bd96200192d565b6200151991906200192d565b9050600062023ab16200152e83600462001974565b6200153a9190620018f9565b905060046200154d8262023ab162001974565b6200155a9060036200192d565b620015669190620018f9565b620015729083620018b4565b9150600062164b09620015878460016200192d565b6200159590610fa062001974565b620015a19190620018f9565b90506004620015b3826105b562001974565b620015bf9190620018f9565b620015cb9084620018b4565b620015d890601f6200192d565b9250600061098f620015ec85605062001974565b620015f89190620018f9565b9050600060506200160c8361098f62001974565b620016189190620018f9565b620016249086620018b4565b905062001633600b83620018f9565b94506200164285600c62001974565b6200164f8360026200192d565b6200165b9190620018b4565b915084836200166c603187620018b4565b6200167990606462001974565b6200168591906200192d565b6200169191906200192d565b9a919950975095505050505050565b828054620016ae9062001c4f565b90600052602060002090601f016020900481019282620016d257600085556200171d565b82601f10620016ed57805160ff19168380011785556200171d565b828001600101855582156200171d579182015b828111156200171d57825182559160200191906001019062001700565b506200172b9291506200172f565b5090565b5b808211156200172b576000815560010162001730565b80516001600160a01b03811681146200175e57600080fd5b919050565b600080600080600080600060e0888a0312156200177f57600080fd5b6200178a8862001746565b96506200179a6020890162001746565b95506040880151945060608801519350620017b86080890162001746565b9250620017c860a0890162001746565b9150620017d860c0890162001746565b905092959891949750929550565b634e487b7160e01b600052601160045260246000fd5b6000816000190483118215151615620018195762001819620017e6565b500290565b634e487b7160e01b600052603260045260246000fd5b600082821015620018495762001849620017e6565b500390565b634e487b7160e01b600052601260045260246000fd5b6000826200187657620018766200184e565b500490565b60008219821115620018915762001891620017e6565b500190565b6000600019821415620018ad57620018ad620017e6565b5060010190565b60008083128015600160ff1b850184121615620018d557620018d5620017e6565b6001600160ff1b0384018313811615620018f357620018f3620017e6565b50500390565b6000826200190b576200190b6200184e565b600160ff1b821460001984141615620019285762001928620017e6565b500590565b600080821280156001600160ff1b0384900385131615620019525762001952620017e6565b600160ff1b83900384128116156200196e576200196e620017e6565b50500190565b60006001600160ff1b03818413828413808216868404861116156200199d576200199d620017e6565b600160ff1b6000871282811687830589121615620019bf57620019bf620017e6565b60008712925087820587128484161615620019de57620019de620017e6565b87850587128184161615620019f757620019f7620017e6565b505050929093029392505050565b60008262001a175762001a176200184e565b500690565b80516001600160501b03811681146200175e57600080fd5b600080600080600060a0868803121562001a4d57600080fd5b62001a588662001a1c565b945060208601519350604086015192506060860151915062001a7d6080870162001a1c565b90509295509295909350565b6000815180845260005b8181101562001ab15760208185018101518683018201520162001a93565b8181111562001ac4576000602083870101525b50601f01601f19169290920160200192915050565b6001600160a01b03868116825285166020820152604081018490526060810183905260a06080820181905260009062001b159083018462001a89565b979650505050505050565b60006020828403121562001b3357600080fd5b81516001600160e01b03198116811462001b4c57600080fd5b9392505050565b600060033d111562001b6d5760046000803e5060005160e01c5b90565b601f8201601f191681016001600160401b038111828210171562001ba457634e487b7160e01b600052604160045260246000fd5b6040525050565b600060443d101562001bba5790565b6040516003193d81016004833e81513d6001600160401b03808311602484018310171562001bea57505050505090565b828501915081518181111562001c035750505050505090565b843d870101602082850101111562001c1e5750505050505090565b62001c2f6020828601018762001b70565b509095945050505050565b60208152600062001b4c602083018462001a89565b600181811c9082168062001c6457607f821691505b6020821081141562001c8657634e487b7160e01b600052602260045260246000fd5b50919050565b60805160a051615fd762001cb9600039600081816127ae0152614746015260006147170152615fd76000f3fe6080604052600436106104eb5760003560e01c80636d5433e61161028c578063c771285b1161015a578063e985e9c5116100cc578063f1f0befe11610085578063f1f0befe14610f39578063f242432a14610f59578063f2fde38b14610f79578063f6a33e6d14610f99578063f8a433ec14610fae578063fa2b16cd14610fc3576104eb565b8063e985e9c514610e5f578063e9cc3b5414610ea8578063ee944ba714610ebd578063ef81336314610edf578063f074e34f14610ef9578063f0f206aa14610f19576104eb565b8063d973fc2e1161011e578063d973fc2e14610d8d578063dbdad46414610dad578063dd2cec7f14610dcd578063e0b9a4aa14610e03578063e5a8a42f14610e18578063e5b429c014610e45576104eb565b8063c771285b14610d17578063c78a0b8614610d2d578063cb7812fd14610d42578063d0791de914610d57578063d50ac89214610d77576104eb565b80638da5cb5b116101fe578063a9665b7a116101b7578063a9665b7a14610c76578063ab32d59414610c8c578063ac0b78f214610ca1578063ac8daba014610cc1578063b689af8414610cd7578063bd7b9ba514610cf7576104eb565b80638da5cb5b14610bc857806392b56abb14610beb57806393e51b6414610c0057806394985ddd14610c16578063a22cb46514610c36578063a42616e814610c56576104eb565b8063717c2f5f11610250578063717c2f5f14610b3d5780637ab36b5314610b525780637ef6d4a014610b685780637f44a9bb14610920578063865117d714610b955780638b3c3ef714610bb5576104eb565b80636d5433e614610aa65780636e21fc8714610ac65780636e9f2b4b14610af357806370e44c6a14610b13578063715018a614610b28576104eb565b80632eb2c2d6116103c95780634e3412b21161033b5780635e3f5422116102f45780635e3f542214610a0b5780635fd00ca214610a20578063617d15a514610a36578063659d8d4e14610a5657806365ce645414610a865780636a1c3f2014610920576104eb565b80634e3412b21461097857806353177e661461098e57806353c3a995146109b357806353c9a4821461059157806356f2520d146109d35780635c975abb146109f3576104eb565b806338d926171161038d57806338d92617146108ca5780633cd21817146108ea5780634140524d146109005780634954d2ec1461092057806349b82943146109355780634e1273f41461094b576104eb565b80632eb2c2d6146107fe578063303dd5531461081e578063308620e214610834578063340d899a1461086c57806336bb86b314610882576104eb565b80631a513c9d11610462578063234d7b8d11610426578063234d7b8d1461076a57806328f509051461078057806329948b27146107a05780632a213dcb146107b55780632a9337d0146107cb5780632aeca614146107eb576104eb565b80631a513c9d146106b85780631aa98354146106e55780631c8108b1146107085780631d65bd1b1461071f5780631d6c263c14610755576104eb565b806306389ca1116104b457806306389ca1146105dc57806307d6a5601461061457806309fdd5a3146106365780630a6a001c1461064b5780630e89341c1461066b57806313887d951461068b576104eb565b8062fdd58e1461052e57806301ffc9a71461056157806303029e7d14610591578063037a2414146105a65780630387da42146105c6575b6028546001600160a01b03166000908152602a6020526040902054610511903490615109565b6028546001600160a01b03166000908152602a6020526040902055005b34801561053a57600080fd5b5061054e61054936600461513d565b610fe3565b6040519081526020015b60405180910390f35b34801561056d57600080fd5b5061058161057c36600461517d565b61107d565b6040519015158152602001610558565b34801561059d57600080fd5b5061054e601e81565b3480156105b257600080fd5b5061054e6105c136600461519a565b6110cd565b3480156105d257600080fd5b5061054e60165481565b3480156105e857600080fd5b506105fc6105f736600461519a565b6110e2565b6040516001600160a01b039091168152602001610558565b34801561062057600080fd5b50610629611111565b604051610558919061521e565b34801561064257600080fd5b5060185461054e565b34801561065757600080fd5b5061054e610666366004615231565b61119f565b34801561067757600080fd5b50610629610686366004615231565b6111c0565b34801561069757600080fd5b5061054e6106a636600461524a565b602a6020526000908152604090205481565b3480156106c457600080fd5b5061054e6106d336600461524a565b60366020526000908152604090205481565b3480156106f157600080fd5b506106fa611254565b6040516105589291906152d9565b34801561071457600080fd5b5061071d6113bf565b005b34801561072b57600080fd5b506105fc61073a366004615231565b6035602052600090815260409020546001600160a01b031681565b34801561076157600080fd5b5061071d61140c565b34801561077657600080fd5b5061054e601f5481565b34801561078c57600080fd5b506105fc61079b366004615231565b6119d6565b3480156107ac57600080fd5b506106296119f6565b3480156107c157600080fd5b5061054e60155481565b3480156107d757600080fd5b50600a546105fc906001600160a01b031681565b61071d6107f93660046152fe565b611a03565b34801561080a57600080fd5b5061071d610819366004615486565b61219d565b34801561082a57600080fd5b5061054e601b5481565b34801561084057600080fd5b5061054e61084f36600461553e565b603960209081526000928352604080842090915290825290205481565b34801561087857600080fd5b5061054e60215481565b34801561088e57600080fd5b506108bd61089d36600461556a565b603860209081526000928352604080842090915290825290205460ff1681565b60405161055891906155a2565b3480156108d657600080fd5b506106296108e5366004615231565b612255565b3480156108f657600080fd5b5061054e601e5481565b34801561090c57600080fd5b506024546105fc906001600160a01b031681565b34801561092c57600080fd5b5061054e600581565b34801561094157600080fd5b5061054e60085481565b34801561095757600080fd5b5061096b6109663660046155ca565b61226e565b6040516105589190615694565b34801561098457600080fd5b5061054e600d5481565b34801561099a57600080fd5b506010546105fc9061010090046001600160a01b031681565b3480156109bf57600080fd5b506105fc6109ce366004615231565b612397565b3480156109df57600080fd5b506106296109ee366004615231565b6123c1565b3480156109ff57600080fd5b5060035460ff16610581565b348015610a1757600080fd5b506106296123da565b348015610a2c57600080fd5b5061054e60095481565b348015610a4257600080fd5b5061071d610a513660046156a7565b6123e7565b348015610a6257600080fd5b50610581610a71366004615231565b602e6020526000908152604090205460ff1681565b348015610a9257600080fd5b506105fc610aa1366004615231565b612457565b348015610ab257600080fd5b5061054e610ac136600461556a565b612467565b348015610ad257600080fd5b5061054e610ae136600461524a565b602b6020526000908152604090205481565b348015610aff57600080fd5b506007546105fc906001600160a01b031681565b348015610b1f57600080fd5b5061071d612480565b348015610b3457600080fd5b5061071d61253f565b348015610b4957600080fd5b50610629612579565b348015610b5e57600080fd5b5061054e60175481565b348015610b7457600080fd5b5061054e610b83366004615231565b602f6020526000908152604090205481565b348015610ba157600080fd5b506023546105fc906001600160a01b031681565b61071d610bc33660046156e3565b612586565b348015610bd457600080fd5b5060035461010090046001600160a01b03166105fc565b348015610bf757600080fd5b50610629612796565b348015610c0c57600080fd5b5061054e601c5481565b348015610c2257600080fd5b5061071d610c3136600461556a565b6127a3565b348015610c4257600080fd5b5061071d610c5136600461579d565b612825565b348015610c6257600080fd5b5061071d610c713660046157d4565b612830565b348015610c8257600080fd5b5061054e601a5481565b348015610c9857600080fd5b5060205461054e565b348015610cad57600080fd5b50610629610cbc366004615231565b612e7d565b348015610ccd57600080fd5b5061054e601d5481565b348015610ce357600080fd5b50610629610cf236600461524a565b612e96565b348015610d0357600080fd5b506037546105fc906001600160a01b031681565b348015610d2357600080fd5b5061054e600f5481565b348015610d3957600080fd5b5061054e601981565b348015610d4e57600080fd5b50610629612eaf565b348015610d6357600080fd5b5061071d610d7236600461513d565b612ebc565b348015610d8357600080fd5b5061054e60195481565b348015610d9957600080fd5b5061071d610da836600461556a565b612f79565b348015610db957600080fd5b5061071d610dc836600461524a565b61303a565b348015610dd957600080fd5b506105fc610de8366004615231565b602c602052600090815260409020546001600160a01b031681565b348015610e0f57600080fd5b5061054e61314a565b348015610e2457600080fd5b5061054e610e33366004615231565b602d6020526000908152604090205481565b348015610e5157600080fd5b50600e546105819060ff1681565b348015610e6b57600080fd5b50610581610e7a3660046158b2565b6001600160a01b03918216600090815260016020908152604080832093909416825291909152205460ff1690565b348015610eb457600080fd5b5061071d6131e5565b348015610ec957600080fd5b50610ed261329c565b60405161055891906158dc565b348015610eeb57600080fd5b506010546105819060ff1681565b348015610f0557600080fd5b5061071d610f143660046158ef565b613368565b348015610f2557600080fd5b5061054e610f3436600461519a565b613555565b348015610f4557600080fd5b5061071d610f5436600461519a565b6135e3565b348015610f6557600080fd5b5061071d610f7436600461590c565b613685565b348015610f8557600080fd5b5061071d610f9436600461524a565b6137d7565b348015610fa557600080fd5b5061071d613878565b348015610fba57600080fd5b5061054e6139ab565b348015610fcf57600080fd5b5061071d610fde366004615970565b613a61565b60006001600160a01b0383166110545760405162461bcd60e51b815260206004820152602b60248201527f455243313135353a2062616c616e636520717565727920666f7220746865207a60448201526a65726f206164647265737360a81b60648201526084015b60405180910390fd5b506000818152602081815260408083206001600160a01b03861684529091529020545b92915050565b60006001600160e01b03198216636cdb3d1360e11b14806110ae57506001600160e01b031982166303a24d0760e21b145b8061107757506301ffc9a760e01b6001600160e01b0319831614611077565b60006110da848484613dfb565b949350505050565b6000806110f0858585613dfb565b6000908152602c60205260409020546001600160a01b031695945050505050565b6013805461111e90615a39565b80601f016020809104026020016040519081016040528092919081815260200182805461114a90615a39565b80156111975780601f1061116c57610100808354040283529160200191611197565b820191906000526020600020905b81548152906001019060200180831161117a57829003601f168201915b505050505081565b602081815481106111af57600080fd5b600091825260209091200154905081565b6060600280546111cf90615a39565b80601f01602080910402602001604051908101604052809291908181526020018280546111fb90615a39565b80156112485780601f1061121d57610100808354040283529160200191611248565b820191906000526020600020905b81548152906001019060200180831161122b57829003601f168201915b50505050509050919050565b60608060006020805490506001600160401b038111156112765761127661533d565b60405190808252806020026020018201604052801561129f578160200160208202803683370190505b506020549091506000906001600160401b038111156112c0576112c061533d565b6040519080825280602002602001820160405280156112e9578160200160208202803683370190505b50905060005b6020548110156113b5576020818154811061130c5761130c6150dd565b9060005260206000200154838281518110611329576113296150dd565b602002602001018181525050602c60006020838154811061134c5761134c6150dd565b9060005260206000200154815260200190815260200160002060009054906101000a90046001600160a01b031682828151811061138b5761138b6150dd565b6001600160a01b0390921660209283029190910190910152806113ad81615a6e565b9150506112ef565b5090939092509050565b6003546001600160a01b036101009091041633146113ef5760405162461bcd60e51b815260040161104b90615a89565b60035460ff161561140457611402613ec0565b565b611402613f53565b60035460ff161561142f5760405162461bcd60e51b815260040161104b90615abe565b601e61143d601f5442613fab565b10156114715760405162461bcd60e51b815260206004820152600360248201526265313360e81b604482015260640161104b565b600061147b61314a565b6037546001600160a01b03166000908152603660205260409020549091508111156114ce5760405162461bcd60e51b8152602060048201526003602482015262194c4d60ea1b604482015260640161104b565b6007546037546001600160a01b0390811691161461156a576037546007546040516001600160a01b0392831692909116907fe70739823d1a1030055333e7bb502f88b41f9631ed3c87a09811fdb1a4ed0f8390600090a3603754600780546001600160a01b0319166001600160a01b03909216918217905560095460085560408051602081019091526000815261156a91906001908190613fd2565b60015b600381116119a15761157d614fd1565b6000828152603960209081526040808320838052808352818420548552600180855281845282852054868501526002855281845282852054868401526003855281845282852054606087015260048552925282205460808401819052835161160592610ac1916115f49187905b6020020151612467565b6040860151610ac1908760036115ea565b82519091508114156116445760005b60405184907f6f235ca67a520aa7bbe234e1490553d4dd8fc8f277d1e70e2f2e8b847858ae1190600090a361192c565b60208201518114156116f8576000602a600060258660058110611669576116696150dd565b01546001600160a01b0316815260208101919091526040016000908120549150602a816025876005811061169f5761169f6150dd565b01546001600160a01b031681526020810191909152604001600020556116c4816140e2565b60015b60405185907f6f235ca67a520aa7bbe234e1490553d4dd8fc8f277d1e70e2f2e8b847858ae1190600090a35061192c565b604082015181141561177f576000602a60006025866005811061171d5761171d6150dd565b01546001600160a01b0316815260208101919091526040016000908120549150602a8160258760058110611753576117536150dd565b01546001600160a01b03168152602081019190915260400160002055611778816141c0565b60026116c7565b606082015181141561183757602a6000602585600581106117a2576117a26150dd565b01546001600160a01b03908116825260208083019390935260409182016000908120546029549092168152602a9093529120546117df9190615109565b6029546001600160a01b03166000908152602a60208190526040822092909255908160258660058110611814576118146150dd565b01546001600160a01b031681526020810191909152604001600020556003611614565b608082015181141561192c576007546001600160a01b03161561192c576000602a60006025866005811061186d5761186d6150dd565b01546001600160a01b0316815260208101919091526040016000908120549150602a81602587600581106118a3576118a36150dd565b01546001600160a01b0390811682526020808301939093526040918201600090812094909455600754168352602a9091529020546118e2908290615109565b6007546001600160a01b03166000908152602a6020526040902055600460405185907f6f235ca67a520aa7bbe234e1490553d4dd8fc8f277d1e70e2f2e8b847858ae1190600090a3505b6029546001600160a01b039081166000908152602a602052604080822054602454909316825290205461195f9190615109565b6024546001600160a01b039081166000908152602a6020526040808220939093556029549091168152908120555081905061199981615a6e565b91505061156d565b5042601f81905560405133907f4d659e18a7aadb416d8601a2418a0f9d1117ecac88caad93fadb7e895912abce90600090a350565b602581600581106119e657600080fd5b01546001600160a01b0316905081565b6011805461111e90615a39565b60035460ff1615611a265760405162461bcd60e51b815260040161104b90615abe565b600e5460ff161580611a465750336000908152602b602052604090205415155b611a775760405162461bcd60e51b8152602060048201526002602482015261329960f11b604482015260640161104b565b821580611a845750600c83115b15611ab65760405162461bcd60e51b8152602060048201526002602482015261653360f01b604482015260640161104b565b811580611ac35750601f82115b15611af55760405162461bcd60e51b8152602060048201526002602482015261194d60f21b604482015260640161104b565b8260041480611b045750826006145b80611b0f5750826009145b80611b1a575082600b145b8015611b265750601e82115b80611b4c5750826002148015611b405750611b4084613e16565b8015611b4c5750601d82115b80611b745750826002148015611b685750611b6684613e16565b155b8015611b745750601c82115b15611b9c576040516324e2ba2160e11b8152600481018490526024810183905260440161104b565b6000611ba9858585613dfb565b9050428111158015611bbd5750601d548110155b611bee5760405162461bcd60e51b8152602060048201526002602482015261653560f01b604482015260640161104b565b6000818152602c60205260409020546001600160a01b031615611c385760405162461bcd60e51b8152602060048201526002602482015261329b60f11b604482015260640161104b565b6001600160a01b038216611c4a573391505b336000908152602b602052604081205415611d325750336000908152602b6020526040902054600190611c7e908290615ae8565b336000908152602b6020526040902055600f5415611d32576001600f54611ca59190615ae8565b600f556000828152602e60205260408120805460ff19166001908117909155603080548083018255928190527f6ff97a59c90d62cc7236ba3a37cd85351bf564556780cf8c1157a220f31f0cbb90920180546001600160a01b031916331790559054611d119190615ae8565b6000838152602f6020526040902055600f54611d3257600e805460ff191690555b8061200357611d3f6139ab565b341015611d735760405162461bcd60e51b8152602060048201526002602482015261653760f01b604482015260640161104b565b60006064611d82600534615aff565b611d8c9190615b34565b6024546001600160a01b03166000908152602a6020526040902054909150611db5908290615109565b6024546001600160a01b03166000908152602a60205260408120919091556064611de0600534615aff565b611dea9190615b34565b6007549091506001600160a01b0316611e43576023546001600160a01b03166000908152602a6020526040902054611e23908290615109565b6023546001600160a01b03166000908152602a6020526040902055611e85565b6007546001600160a01b03166000908152602a6020526040902054611e69908290615109565b6007546001600160a01b03166000908152602a60205260409020555b60006064611e94600534615aff565b611e9e9190615b34565b6023546001600160a01b03166000908152602a6020526040902054909150611ec7908290615109565b6023546001600160a01b03166000908152602a60205260408120919091556064611ef2601934615aff565b611efc9190615b34565b6029546001600160a01b03166000908152602a6020526040902054909150611f25908290615109565b6029546001600160a01b03166000908152602a60205260408120919091556064611f50601e34615aff565b611f5a9190615b34565b6026546001600160a01b03166000908152602a6020526040902054909150611f83908290615109565b6026546001600160a01b03166000908152602a60205260408120919091556064611fae601e34615aff565b611fb89190615b34565b6027546001600160a01b03166000908152602a6020526040902054909150611fe1908290615109565b6027546001600160a01b03166000908152602a60205260409020555050505050505b61201f8383600160405180602001604052806000815250613fd2565b60208054600180820183557fc97bfaf2f8ee708c303a06d134f5ecd8389ae0432af62dc132a24118292866bb9091018490556000848152602c909252604090912080546001600160a01b0319166001600160a01b03861617905542601e555b6003811161212f576000838152602e602052604090205460ff161580156120a55750806003145b156120af5761211d565b6120ba878787613555565b6000828152603960209081526040808320600384529091529020546120df9190615109565b6000828152603960209081526040808320600380855290835281842094909455848352603882528083208784529091529020805460ff191690911790555b8061212781615a6e565b91505061207e565b508061214957600d546016546121459190615109565b6016555b60408051878152602081018790529081018590526001600160a01b038416907fa51e9b2ef1f037dee551eb226d6d1581c8fb0e0243820ebd1fbb41a13e6c23649060600160405180910390a2505050505050565b6001600160a01b0385163314806121b957506121b98533610e7a565b6122205760405162461bcd60e51b815260206004820152603260248201527f455243313135353a207472616e736665722063616c6c6572206973206e6f74206044820152711bdddb995c881b9bdc88185c1c1c9bdd995960721b606482015260840161104b565b60405162461bcd60e51b815260206004820152600360248201526265323760e81b604482015260640161104b565b5050505050565b6034602052600090815260409020805461111e90615a39565b606081518351146122d35760405162461bcd60e51b815260206004820152602960248201527f455243313135353a206163636f756e747320616e6420696473206c656e677468604482015268040dad2e6dac2e8c6d60bb1b606482015260840161104b565b600083516001600160401b038111156122ee576122ee61533d565b604051908082528060200260200182016040528015612317578160200160208202803683370190505b50905060005b845181101561238f5761236285828151811061233b5761233b6150dd565b6020026020010151858381518110612355576123556150dd565b6020026020010151610fe3565b828281518110612374576123746150dd565b602090810291909101015261238881615a6e565b905061231d565b509392505050565b603081815481106123a757600080fd5b6000918252602090912001546001600160a01b0316905081565b6031602052600090815260409020805461111e90615a39565b6012805461111e90615a39565b6003546001600160a01b036101009091041633146124175760405162461bcd60e51b815260040161104b90615a89565b60035460ff161561243a5760405162461bcd60e51b815260040161104b90615abe565b60218290558051612452906005906020840190614fef565b505050565b601881815481106123a757600080fd5b6000818310156124775781612479565b825b9392505050565b336000908152602a6020526040902054662386f26fc1000011156124cc5760405162461bcd60e51b815260206004820152600360248201526265313560e81b604482015260640161104b565b336000818152602a602052604080822080549083905590519092839290917f2f174ca282119315c59efaf21147aef438581dabdeb498198ae28964373dd8bc9190a3604051339082156108fc029083906000818181858888f1935050505015801561253b573d6000803e3d6000fd5b5050565b6003546001600160a01b0361010090910416331461256f5760405162461bcd60e51b815260040161104b90615a89565b61140260006143bd565b6005805461111e90615a39565b60035460ff16156125a95760405162461bcd60e51b815260040161104b90615abe565b6032845111156125e15760405162461bcd60e51b815260206004820152600360248201526232999b60e91b604482015260640161104b565b60105461010090046001600160a01b0316156126245760405162461bcd60e51b81526020600482015260026024820152610ca760f31b604482015260640161104b565b60155442101561265b5760405162461bcd60e51b8152602060048201526002602482015261653960f01b604482015260640161104b565b60006126656139ab565b336000908152602a602052604090205461267f9034615109565b6126899190615b34565b612694906004615aff565b9050601e8110156126cd5760405162461bcd60e51b815260206004820152600360248201526206531360ec1b604482015260640161104b565b60108054610100600160a81b0319163361010090810291909117918290556001600160a01b039104166000908152602a6020526040902054612710903490615109565b60105461010090046001600160a01b03166000908152602a602090815260409091209190915585516127489160119190880190614fef565b50815161275c906012906020850190614fef565b508351612770906013906020870190614fef565b508251612784906014906020860190614fef565b50506010805460ff1916905550505050565b600c805461111e90615a39565b336001600160a01b037f0000000000000000000000000000000000000000000000000000000000000000161461281b5760405162461bcd60e51b815260206004820152601f60248201527f4f6e6c7920565246436f6f7264696e61746f722063616e2066756c66696c6c00604482015260640161104b565b61253b8282614417565b61253b3383836145d9565b60035460ff16156128535760405162461bcd60e51b815260040161104b90615abe565b6000612860888888613dfb565b6000818152602c60205260409020549091506001600160a01b03166128975760405162461bcd60e51b815260040161104b90615b48565b6000818152602c60205260409020546001600160a01b031633146128e35760405162461bcd60e51b815260206004820152600360248201526232989960e91b604482015260640161104b565b60006128f0898989613555565b905060015b60038111612bef5780600314801561291c57506000838152602e602052604090205460ff16155b1561292657612bdd565b83612932600183615ae8565b81518110612942576129426150dd565b6020026020010151600481111561295b5761295b61558c565b600082815260386020908152604080832087845290915290205460ff1660048111156129895761298961558c565b14612bdd57600081815260396020908152604080832060388352818420878552909252822054829060ff1660048111156129c5576129c561558c565b60048111156129d6576129d661558c565b8152602001908152602001600020541115612aa85760008181526039602090815260408083206038835281842087855290925282205484929060ff166004811115612a2357612a2361558c565b6004811115612a3457612a3461558c565b815260200190815260200160002054612a4d9190615ae8565b60008281526039602090815260408083206038835281842088855290925282205490919060ff166004811115612a8557612a8561558c565b6004811115612a9657612a9661558c565b81526020810191909152604001600020555b6000818152603960205260408120839186612ac4600186615ae8565b81518110612ad457612ad46150dd565b60200260200101516004811115612aed57612aed61558c565b6004811115612afe57612afe61558c565b815260200190815260200160002054612b179190615109565b60008281526039602052604081209086612b32600186615ae8565b81518110612b4257612b426150dd565b60200260200101516004811115612b5b57612b5b61558c565b6004811115612b6c57612b6c61558c565b815260208101919091526040016000205583612b89600183615ae8565b81518110612b9957612b996150dd565b602090810291909101810151600083815260388352604080822087835290935291909120805460ff19166001836004811115612bd757612bd761558c565b02179055505b80612be781615a6e565b9150506128f5565b508515801590612bfe57508415155b8015612c0957508315155b15612e72576000612c1b878787613dfb565b6000818152602c6020908152604080832054603490925290912080549293506001600160a01b0390911691612ce79190612c5490615a39565b80601f0160208091040260200160405190810160405280929190818152602001828054612c8090615a39565b8015612ccd5780601f10612ca257610100808354040283529160200191612ccd565b820191906000526020600020905b815481529060010190602001808311612cb057829003601f168201915b5050505050604051806020016040528060008152506146ba565b15612d1a5760405162461bcd60e51b815260206004820152600360248201526265333560e81b604482015260640161104b565b6001600160a01b03811615801590612d4c57506000848152603560205260409020546001600160a01b03828116911614155b15612e6f576000848152603560209081526040808320546001600160a01b03168352603690915290205415612dd1576000848152603560209081526040808320546001600160a01b031683526036909152902054612dab908490615ae8565b6000858152603560209081526040808320546001600160a01b0316835260369091529020555b6001600160a01b038116600090815260366020526040902054612df5908490615109565b6001600160a01b0380831660008181526036602081815260408084209687558a84526035825280842080546001600160a01b0319168617905560375490951683525291822054915290541115612e6f57603780546001600160a01b0319166001600160a01b038316179055612e6b888888613dfb565b6009555b50505b505050505050505050565b6032602052600090815260409020805461111e90615a39565b6033602052600090815260409020805461111e90615a39565b6014805461111e90615a39565b6003546001600160a01b03610100909104163314612eec5760405162461bcd60e51b815260040161104b90615a89565b80612f3557602480546001600160a01b038481166001600160a01b031983168117909355166000818152602a602052604080822080549483529082209390935590815290555050565b602380546001600160a01b038481166001600160a01b031983168117909355166000818152602a602052604080822080549483529082209390935590815290555050565b6007546001600160a01b0316331480612fb3575060035461010090046001600160a01b03166001600160a01b0316336001600160a01b0316145b612fcf5760405162461bcd60e51b815260040161104b90615b65565b612fe181670de0b6b3a7640000615aff565b9050612ff582670de0b6b3a7640000615aff565b915060175482101561302f5760405162461bcd60e51b815260206004820152600360248201526232999960e91b604482015260640161104b565b601691909155600d55565b6007546001600160a01b0316331480613074575060035461010090046001600160a01b03166001600160a01b0316336001600160a01b0316145b6130905760405162461bcd60e51b815260040161104b90615b65565b600e5460ff166130dd57601a546130a9601c5442613fab565b10156130dd5760405162461bcd60e51b815260206004820152600360248201526265323960e81b604482015260640161104b565b6001600160a01b0381166000908152602b6020526040902054156131295760405162461bcd60e51b815260206004820152600360248201526206533360ec1b604482015260640161104b565b42601c556001600160a01b03166000908152602b6020526040902060019055565b6030546020546000911061319957613164601d5442613e52565b602054606490613175906019615aff565b61317f9190615b34565b6131899190615aff565b613194906004615aff565b905090565b6030546131a7906004615aff565b6131b3601d5442613e52565b6020546064906131c4906019615aff565b6131ce9190615b34565b6131d89190615aff565b6131949190615109565b90565b60035460ff16156132085760405162461bcd60e51b815260040161104b90615abe565b601954613217601b5442613fab565b101561324b5760405162461bcd60e51b815260206004820152600360248201526232989b60e91b604482015260640161104b565b6018546001106132835760405162461bcd60e51b815260206004820152600360248201526265313760e81b604482015260640161104b565b42601b556022546021546132979190614713565b600655565b6018546060906000906001600160401b038111156132bc576132bc61533d565b6040519080825280602002602001820160405280156132e5578160200160208202803683370190505b50905060005b6018548110156133625760188181548110613308576133086150dd565b9060005260206000200160009054906101000a90046001600160a01b0316828281518110613338576133386150dd565b6001600160a01b03909216602092830291909101909101528061335a81615a6e565b9150506132eb565b50919050565b6007546001600160a01b03163314806133a2575060035461010090046001600160a01b03166001600160a01b0316336001600160a01b0316145b6133be5760405162461bcd60e51b815260040161104b90615b65565b60006133c86139ab565b60105461010090046001600160a01b03166000908152602a60205260409020546133f29190615b34565b6133fd906004615aff565b9050601e81101561340d57600091505b81156134c6576010805460ff1916600117908190556001600160a01b0361010090910481166000908152602a60205260408082205460285490931682529020546134579190615109565b6028546001600160a01b039081166000908152602a6020526040808220939093556010546101009004909116815290812055613493428261488f565b60155560105460408051602081019091526000815261253b9161010090046001600160a01b031690600290600190613fd2565b601080546001600160a81b0319169055426015556040805160208101918290526000908190526134f891601191614fef565b5060408051602081019182905260009081905261351791601291614fef565b5060408051602081019182905260009081905261353691601391614fef565b5060408051602081019182905260009081905261245291601491614fef565b600080613563858585613dfb565b6000818152602c60205260409020549091506001600160a01b031661359a5760405162461bcd60e51b815260040161104b90615b48565b60006135a68242613e52565b6000838152602e602052604090205490915060ff16156135ce576135cb816004615aff565b90505b600081116135da575060015b95945050505050565b60006135f0848484613dfb565b6000818152602c60205260409020549091506001600160a01b03166136275760405162461bcd60e51b815260040161104b90615b48565b6000818152602d6020526040902054613641906001615109565b6000828152602d60205260408082209290925590518391859187917f4944e1aeb07a8479e05e8fc701c92c6112bd7b4b2cde831c86b39dd0637c4f3991a450505050565b6001600160a01b0385163314806136a157506136a18533610e7a565b6136ff5760405162461bcd60e51b815260206004820152602960248201527f455243313135353a2063616c6c6572206973206e6f74206f776e6572206e6f7260448201526808185c1c1c9bdd995960ba1b606482015260840161104b565b601d548310156137375760405162461bcd60e51b815260206004820152600360248201526232991b60e91b604482015260640161104b565b61374485858585856148b7565b6000838152602c6020908152604080832080546001600160a01b0319166001600160a01b038916179055602e90915290205460ff161561224e576000838152602f60205260409020546030805486929081106137a2576137a26150dd565b9060005260206000200160006101000a8154816001600160a01b0302191690836001600160a01b031602179055505050505050565b6003546001600160a01b036101009091041633146138075760405162461bcd60e51b815260040161104b90615a89565b6001600160a01b03811661386c5760405162461bcd60e51b815260206004820152602660248201527f4f776e61626c653a206e6577206f776e657220697320746865207a65726f206160448201526564647265737360d01b606482015260840161104b565b613875816143bd565b50565b60035460ff161561389b5760405162461bcd60e51b815260040161104b90615abe565b600e5460ff16156138d45760405162461bcd60e51b815260206004820152600360248201526206532360ec1b604482015260640161104b565b600160005b60185481101561393257336001600160a01b031660188281548110613900576139006150dd565b6000918252602090912001546001600160a01b0316141561392057600091505b8061392a81615a6e565b9150506138d9565b50806139665760405162461bcd60e51b815260206004820152600360248201526265323160e81b604482015260640161104b565b50601880546001810182556000919091527fb13d2d76d1f4b7be834882e410b3e3a8afaf69f83600ae24db354391d2378d2e0180546001600160a01b03191633179055565b600080600b60009054906101000a90046001600160a01b03166001600160a01b031663feaf968c6040518163ffffffff1660e01b815260040160a060405180830381865afa158015613a01573d6000803e3d6000fd5b505050506040513d601f19601f82011682018060405250810190613a259190615b9b565b505050915050806402540be400613a3c9190615aff565b601654613a5190670de0b6b3a7640000615aff565b613a5b9190615b34565b91505090565b6000613a6e888888613dfb565b905060ff85511115613aa85760405162461bcd60e51b815260206004820152600360248201526232991960e91b604482015260640161104b565b6000818152602c60205260409020546001600160a01b0316613af25760405162461bcd60e51b815260206004820152600360248201526265323360e81b604482015260640161104b565b6000818152602c60205260409020546001600160a01b03163314613b3e5760405162461bcd60e51b8152602060048201526003602482015262194c8d60ea1b604482015260640161104b565b613b6185604051806040016040528060018152602001600160fd1b8152506146ba565b613b955760008181526031602090815260409091208651613b8492880190614fef565b506000818152602d60205260408120555b613bb883604051806040016040528060018152602001600160fd1b8152506146ba565b613bde573360009081526033602090815260409091208451613bdc92860190614fef565b505b613c0182604051806040016040528060018152602001600160fd1b8152506146ba565b613c265760008181526034602090815260409091208351613c2492850190614fef565b505b613c4984604051806040016040528060018152602001600160fd1b8152506146ba565b613d9a57604080518082018252600080825260209182015281518083019092528551825280860190820152613d3890613d3360058054613c8890615a39565b80601f0160208091040260200160405190810160405280929190818152602001828054613cb490615a39565b8015613d015780601f10613cd657610100808354040283529160200191613d01565b820191906000526020600020905b815481529060010190602001808311613ce457829003601f168201915b505050505060408051808201825260008082526020918201528151808301909252825182529182019181019190915290565b614a12565b613d6a5760405162461bcd60e51b815260206004820152600360248201526265323560e81b604482015260640161104b565b60008181526032602090815260409091208551613d8992870190614fef565b506000818152602d60205260408120555b8587897fe80e787d8312c1f12419513ef663ccbfaa42ea5226b0a7be319138f4a30745e260405160405180910390a45050505050505050565b6000613de26201518083615aff565b613dec9084615ae8565b90508281111561107757600080fd5b600062015180613e0c858585614a56565b6110da9190615aff565b6000613e23600483615beb565b158015613e395750613e36606483615beb565b15155b806110775750613e4b61019083615beb565b1592915050565b600081831115613e6157600080fd5b60008080808080613e7d613e78620151808b615b34565b614b93565b91975095509350613e94613e78620151808a615b34565b91945092509050613ea58684615ae8565b9998505050505050505050565b505050505050565b3b151590565b60035460ff16613f095760405162461bcd60e51b815260206004820152601460248201527314185d5cd8589b194e881b9bdd081c185d5cd95960621b604482015260640161104b565b6003805460ff191690557f5db9ee0a495bf2e6ff9c91a7834c1ba4fdd244a5e8aa4e537bd38aeae4b073aa335b6040516001600160a01b03909116815260200160405180910390a1565b60035460ff1615613f765760405162461bcd60e51b815260040161104b90615abe565b6003805460ff191660011790557f62e78cea01bee320cd4e420270b5ea74000d11b0c9f74754ebdbfc544b05a258613f363390565b600081831115613fba57600080fd5b62015180613fc88484615ae8565b6124799190615b34565b6001600160a01b0384166140325760405162461bcd60e51b815260206004820152602160248201527f455243313135353a206d696e7420746f20746865207a65726f206164647265736044820152607360f81b606482015260840161104b565b336140528160008761404388614d07565b61404c88614d07565b87614d52565b6000848152602081815260408083206001600160a01b038916845290915281208054859290614082908490615109565b909155505060408051858152602081018590526001600160a01b0380881692600092918516917fc3d58168c5ae7397731d063d5bbf3d657854427343f4c083240f7aacaa2d0f62910160405180910390a461224e81600087878787614dba565b6020546000906140f29083615b34565b905060005b6020548110156124525781602a6000602c60006020868154811061411d5761411d6150dd565b600091825260208083209091015483528281019390935260409182018120546001600160a01b0316845291830193909352910190205461415d9190615109565b602a6000602c600060208681548110614178576141786150dd565b600091825260208083209091015483528281019390935260409182018120546001600160a01b03168452918301939093529101902055806141b881615a6e565b9150506140f7565b6030546000906141d09083615b34565b905060005b6030548110156124525781602a6000603084815481106141f7576141f76150dd565b60009182526020808320909101546001600160a01b031683528201929092526040019020546142269190615109565b602a60006030848154811061423d5761423d6150dd565b60009182526020808320909101546001600160a01b031683528201929092526040019020558061426c81615a6e565b9150506141d5565b8451811015614357576000858281518110614291576142916150dd565b6020026020010151905060008583815181106142af576142af6150dd565b602090810291909101810151600084815280835260408082206001600160a01b038e1683529093529190912054909150818110156142ff5760405162461bcd60e51b815260040161104b90615bff565b6000838152602081815260408083206001600160a01b038e8116855292528083208585039055908b1682528120805484929061433c908490615109565b925050819055505050508061435090615a6e565b9050614274565b50846001600160a01b0316866001600160a01b0316826001600160a01b03167f4a39dc06d4c0dbc64b70af90fd698a233a518aa5d07e595d983b8c0526c8f7fb87876040516143a7929190615c49565b60405180910390a4613eb2818787878787614f16565b600380546001600160a01b03838116610100818102610100600160a81b031985161790945560405193909204169182907f8be0079c531659141344cd1fd0a4f28419497f9722a3daafe3b4186f6b6457e090600090a35050565b816006541461444e5760405162461bcd60e51b81526020600482015260036024820152620ca62760eb1b604482015260640161104b565b600081116144845760405162461bcd60e51b815260206004820152600360248201526265313960e81b604482015260640161104b565b6018546000906144949083615beb565b9050602b6000601883815481106144ad576144ad6150dd565b60009182526020808320909101546001600160a01b031683528201929092526040019020546144dd906001615109565b602b6000601884815481106144f4576144f46150dd565b60009182526020808320909101546001600160a01b03168352820192909252604001902055601880548290811061452d5761452d6150dd565b600091825260209091200154600a80546001600160a01b0319166001600160a01b03909216919091179055601880548290811061456c5761456c6150dd565b600091825260209182902001546040518481526001600160a01b03909116917f8dcb1b46b7e05dd96ecd3ae5f7b77b7c6e369f8ced83a2ab24368c4f8e16b8c9910160405180910390a260408051600081526020810191829052516145d391601891615073565b50505050565b816001600160a01b0316836001600160a01b0316141561464d5760405162461bcd60e51b815260206004820152602960248201527f455243313135353a2073657474696e6720617070726f76616c20737461747573604482015268103337b91039b2b63360b91b606482015260840161104b565b6001600160a01b03838116600081815260016020908152604080832094871680845294825291829020805460ff191686151590811790915591519182527f17307eab39ab6107e8899845ad3d59bd9653f200f220920489ca2b5937696c31910160405180910390a3505050565b6000816040516020016146cd9190615c6e565b60405160208183030381529060405280519060200120836040516020016146f49190615c6e565b6040516020818303038152906040528051906020012014905092915050565b60007f00000000000000000000000000000000000000000000000000000000000000006001600160a01b0316634000aea07f000000000000000000000000000000000000000000000000000000000000000084866000604051602001614783929190918252602082015260400190565b6040516020818303038152906040526040518463ffffffff1660e01b81526004016147b093929190615c8a565b6020604051808303816000875af11580156147cf573d6000803e3d6000fd5b505050506040513d601f19601f820116820180604052508101906147f39190615cb1565b50600083815260046020818152604080842054815180840189905280830186905230606082015260808082018390528351808303909101815260a09091019092528151918301919091209387905291905261484f906001615109565b6000858152600460205260409020556110da8482604080516020808201949094528082019290925280518083038201815260609092019052805191012090565b600061489e6201518083615aff565b6148a89084615109565b90508281101561107757600080fd5b6001600160a01b03841661491b5760405162461bcd60e51b815260206004820152602560248201527f455243313135353a207472616e7366657220746f20746865207a65726f206164604482015264647265737360d81b606482015260840161104b565b3361492b81878761404388614d07565b6000848152602081815260408083206001600160a01b038a1684529091529020548381101561496c5760405162461bcd60e51b815260040161104b90615bff565b6000858152602081815260408083206001600160a01b038b81168552925280832087850390559088168252812080548692906149a9908490615109565b909155505060408051868152602081018690526001600160a01b03808916928a821692918616917fc3d58168c5ae7397731d063d5bbf3d657854427343f4c083240f7aacaa2d0f62910160405180910390a4614a09828888888888614dba565b50505050505050565b805182516000911115614a2757506000611077565b816020015183602001511415614a3f57506001611077565b508051602092830151929091015181902091201490565b60006107b2841015614a6757600080fd5b838383600062253d8c60046064600c614a81600e88615cce565b614a8b9190615d0d565b614a9788611324615d3b565b614aa19190615d3b565b614aab9190615d0d565b614ab6906003615d7c565b614ac09190615d0d565b600c80614ace600e88615cce565b614ad89190615d0d565b614ae390600c615d7c565b614aee600288615cce565b614af89190615cce565b614b049061016f615d7c565b614b0e9190615d0d565b6004600c614b1d600e89615cce565b614b279190615d0d565b614b33896112c0615d3b565b614b3d9190615d3b565b614b49906105b5615d7c565b614b539190615d0d565b614b5f617d4b87615cce565b614b699190615d3b565b614b739190615d3b565b614b7d9190615cce565b614b879190615cce565b98975050505050505050565b60008080838162253d8c614baa8362010bd9615d3b565b614bb49190615d3b565b9050600062023ab1614bc7836004615d7c565b614bd19190615d0d565b90506004614be28262023ab1615d7c565b614bed906003615d3b565b614bf79190615d0d565b614c019083615cce565b9150600062164b09614c14846001615d3b565b614c2090610fa0615d7c565b614c2a9190615d0d565b90506004614c3a826105b5615d7c565b614c449190615d0d565b614c4e9084615cce565b614c5990601f615d3b565b9250600061098f614c6b856050615d7c565b614c759190615d0d565b905060006050614c878361098f615d7c565b614c919190615d0d565b614c9b9086615cce565b9050614ca8600b83615d0d565b9450614cb585600c615d7c565b614cc0836002615d3b565b614cca9190615cce565b91508483614cd9603187615cce565b614ce4906064615d7c565b614cee9190615d3b565b614cf89190615d3b565b9a919950975095505050505050565b60408051600180825281830190925260609160009190602080830190803683370190505090508281600081518110614d4157614d416150dd565b602090810291909101015292915050565b60035460ff1615613eb25760405162461bcd60e51b815260206004820152602c60248201527f455243313135355061757361626c653a20746f6b656e207472616e736665722060448201526b1dda1a5b19481c185d5cd95960a21b606482015260840161104b565b6001600160a01b0384163b15613eb25760405163f23a6e6160e01b81526001600160a01b0385169063f23a6e6190614dfe9089908990889088908890600401615e01565b6020604051808303816000875af1925050508015614e39575060408051601f3d908101601f19168201909252614e3691810190615e46565b60015b614ee657614e45615e63565b806308c379a01415614e7f5750614e5a615e7e565b80614e655750614e81565b8060405162461bcd60e51b815260040161104b919061521e565b505b60405162461bcd60e51b815260206004820152603460248201527f455243313135353a207472616e7366657220746f206e6f6e20455243313135356044820152732932b1b2b4bb32b91034b6b83632b6b2b73a32b960611b606482015260840161104b565b6001600160e01b0319811663f23a6e6160e01b14614a095760405162461bcd60e51b815260040161104b90615f07565b6001600160a01b0384163b15613eb25760405163bc197c8160e01b81526001600160a01b0385169063bc197c8190614f5a9089908990889088908890600401615f4f565b6020604051808303816000875af1925050508015614f95575060408051601f3d908101601f19168201909252614f9291810190615e46565b60015b614fa157614e45615e63565b6001600160e01b0319811663bc197c8160e01b14614a095760405162461bcd60e51b815260040161104b90615f07565b6040518060a001604052806005906020820280368337509192915050565b828054614ffb90615a39565b90600052602060002090601f01602090048101928261501d5760008555615063565b82601f1061503657805160ff1916838001178555615063565b82800160010185558215615063579182015b82811115615063578251825591602001919060010190615048565b5061506f9291506150c8565b5090565b828054828255906000526020600020908101928215615063579160200282015b8281111561506357825182546001600160a01b0319166001600160a01b03909116178255602090920191600190910190615093565b5b8082111561506f57600081556001016150c9565b634e487b7160e01b600052603260045260246000fd5b634e487b7160e01b600052601160045260246000fd5b6000821982111561511c5761511c6150f3565b500190565b80356001600160a01b038116811461513857600080fd5b919050565b6000806040838503121561515057600080fd5b61515983615121565b946020939093013593505050565b6001600160e01b03198116811461387557600080fd5b60006020828403121561518f57600080fd5b813561247981615167565b6000806000606084860312156151af57600080fd5b505081359360208301359350604090920135919050565b60005b838110156151e15781810151838201526020016151c9565b838111156145d35750506000910152565b6000815180845261520a8160208601602086016151c6565b601f01601f19169290920160200192915050565b60208152600061247960208301846151f2565b60006020828403121561524357600080fd5b5035919050565b60006020828403121561525c57600080fd5b61247982615121565b600081518084526020808501945080840160005b8381101561529557815187529582019590820190600101615279565b509495945050505050565b600081518084526020808501945080840160005b838110156152955781516001600160a01b0316875295820195908201906001016152b4565b6040815260006152ec6040830185615265565b82810360208401526135da81856152a0565b6000806000806080858703121561531457600080fd5b84359350602085013592506040850135915061533260608601615121565b905092959194509250565b634e487b7160e01b600052604160045260246000fd5b601f8201601f191681016001600160401b03811182821017156153785761537861533d565b6040525050565b60006001600160401b038211156153985761539861533d565b5060051b60200190565b600082601f8301126153b357600080fd5b813560206153c08261537f565b6040516153cd8282615353565b83815260059390931b85018201928281019150868411156153ed57600080fd5b8286015b8481101561540857803583529183019183016153f1565b509695505050505050565b600082601f83011261542457600080fd5b81356001600160401b0381111561543d5761543d61533d565b604051615454601f8301601f191660200182615353565b81815284602083860101111561546957600080fd5b816020850160208301376000918101602001919091529392505050565b600080600080600060a0868803121561549e57600080fd5b6154a786615121565b94506154b560208701615121565b935060408601356001600160401b03808211156154d157600080fd5b6154dd89838a016153a2565b945060608801359150808211156154f357600080fd5b6154ff89838a016153a2565b9350608088013591508082111561551557600080fd5b5061552288828901615413565b9150509295509295909350565b80356005811061513857600080fd5b6000806040838503121561555157600080fd5b823591506155616020840161552f565b90509250929050565b6000806040838503121561557d57600080fd5b50508035926020909101359150565b634e487b7160e01b600052602160045260246000fd5b60208101600583106155c457634e487b7160e01b600052602160045260246000fd5b91905290565b600080604083850312156155dd57600080fd5b82356001600160401b03808211156155f457600080fd5b818501915085601f83011261560857600080fd5b813560206156158261537f565b6040516156228282615353565b83815260059390931b850182019282810191508984111561564257600080fd5b948201945b838610156156675761565886615121565b82529482019490820190615647565b9650508601359250508082111561567d57600080fd5b5061568a858286016153a2565b9150509250929050565b6020815260006124796020830184615265565b600080604083850312156156ba57600080fd5b8235915060208301356001600160401b038111156156d757600080fd5b61568a85828601615413565b600080600080608085870312156156f957600080fd5b84356001600160401b038082111561571057600080fd5b61571c88838901615413565b9550602087013591508082111561573257600080fd5b61573e88838901615413565b9450604087013591508082111561575457600080fd5b61576088838901615413565b9350606087013591508082111561577657600080fd5b5061578387828801615413565b91505092959194509250565b801515811461387557600080fd5b600080604083850312156157b057600080fd5b6157b983615121565b915060208301356157c98161578f565b809150509250929050565b600080600080600080600060e0888a0312156157ef57600080fd5b87359650602080890135965060408901359550606089013594506080890135935060a0890135925060c08901356001600160401b0381111561583057600080fd5b8901601f81018b1361584157600080fd5b803561584c8161537f565b6040516158598282615353565b82815260059290921b830184019184810191508d83111561587957600080fd5b928401925b8284101561589e5761588f8461552f565b8252928401929084019061587e565b809550505050505092959891949750929550565b600080604083850312156158c557600080fd5b6158ce83615121565b915061556160208401615121565b60208152600061247960208301846152a0565b60006020828403121561590157600080fd5b81356124798161578f565b600080600080600060a0868803121561592457600080fd5b61592d86615121565b945061593b60208701615121565b9350604086013592506060860135915060808601356001600160401b0381111561596457600080fd5b61552288828901615413565b600080600080600080600060e0888a03121561598b57600080fd5b87359650602088013595506040880135945060608801356001600160401b03808211156159b757600080fd5b6159c38b838c01615413565b955060808a01359150808211156159d957600080fd5b6159e58b838c01615413565b945060a08a01359150808211156159fb57600080fd5b615a078b838c01615413565b935060c08a0135915080821115615a1d57600080fd5b50615a2a8a828b01615413565b91505092959891949750929550565b600181811c90821680615a4d57607f821691505b6020821081141561336257634e487b7160e01b600052602260045260246000fd5b6000600019821415615a8257615a826150f3565b5060010190565b6020808252818101527f4f776e61626c653a2063616c6c6572206973206e6f7420746865206f776e6572604082015260600190565b60208082526010908201526f14185d5cd8589b194e881c185d5cd95960821b604082015260600190565b600082821015615afa57615afa6150f3565b500390565b6000816000190483118215151615615b1957615b196150f3565b500290565b634e487b7160e01b600052601260045260246000fd5b600082615b4357615b43615b1e565b500490565b60208082526003908201526265313160e81b604082015260600190565b602080825260029082015261653160f01b604082015260600190565b805169ffffffffffffffffffff8116811461513857600080fd5b600080600080600060a08688031215615bb357600080fd5b615bbc86615b81565b9450602086015193506040860151925060608601519150615bdf60808701615b81565b90509295509295909350565b600082615bfa57615bfa615b1e565b500690565b6020808252602a908201527f455243313135353a20696e73756666696369656e742062616c616e636520666f60408201526939103a3930b739b332b960b11b606082015260800190565b604081526000615c5c6040830185615265565b82810360208401526135da8185615265565b60008251615c808184602087016151c6565b9190910192915050565b60018060a01b03841681528260208201526060604082015260006135da60608301846151f2565b600060208284031215615cc357600080fd5b81516124798161578f565b60008083128015600160ff1b850184121615615cec57615cec6150f3565b6001600160ff1b0384018313811615615d0757615d076150f3565b50500390565b600082615d1c57615d1c615b1e565b600160ff1b821460001984141615615d3657615d366150f3565b500590565b600080821280156001600160ff1b0384900385131615615d5d57615d5d6150f3565b600160ff1b8390038412811615615d7657615d766150f3565b50500190565b60006001600160ff1b0381841382841380821686840486111615615da257615da26150f3565b600160ff1b6000871282811687830589121615615dc157615dc16150f3565b60008712925087820587128484161615615ddd57615ddd6150f3565b87850587128184161615615df357615df36150f3565b505050929093029392505050565b6001600160a01b03868116825285166020820152604081018490526060810183905260a060808201819052600090615e3b908301846151f2565b979650505050505050565b600060208284031215615e5857600080fd5b815161247981615167565b600060033d11156131e25760046000803e5060005160e01c90565b600060443d1015615e8c5790565b6040516003193d81016004833e81513d6001600160401b038160248401118184111715615ebb57505050505090565b8285019150815181811115615ed35750505050505090565b843d8701016020828501011115615eed5750505050505090565b615efc60208286010187615353565b509095945050505050565b60208082526028908201527f455243313135353a204552433131353552656365697665722072656a656374656040820152676420746f6b656e7360c01b606082015260800190565b6001600160a01b0386811682528516602082015260a060408201819052600090615f7b90830186615265565b8281036060840152615f8d8186615265565b90508281036080840152614b8781856151f256fea2646970667358221220f7af144af8c0d811e190e312a6ba038a697b5aa952968630e688580d3510d32a64736f6c634300080b003368747470733a2f2f676174657761792e70696e6174612e636c6f75642f697066732f68747470733a2f2f6d656d6f72697a65746869736461792e6769746875622e696f2f4254432f7b69647d2e6a736f6e","bytecodeSha1":"4388c8c5d498981733aa29d83c7ba6a2c9f93da9","type":"contract","abi":[{"inputs":[{"internalType":"address","name":"vrfCoordinator","type":"address"},{"internalType":"address","name":"linkToken","type":"address"},{"internalType":"uint256","name":"chainlinkFee","type":"uint256"},{"internalType":"bytes32","name":"keyHash","type":"bytes32"},{"internalType":"address","name":"priceFeedAddress","type":"address"},{"internalType":"address","name":"developersAddress","type":"address"},{"internalType":"address","name":"founderAddress","type":"address"}],"stateMutability":"nonpayable","type":"constructor","name":"constructor"},{"inputs":[{"internalType":"uint256","name":"","type":"uint256"},{"internalType":"uint256","name":"","type":"uint256"}],"name":"WrongDaySelection","type":"error"},{"anonymous":false,"inputs":[{"indexed":true,"internalType":"address","name":"account","type":"address"},{"indexed":true,"internalType":"address","name":"operator","type":"address"},{"indexed":false,"internalType":"bool","name":"approved","type":"bool"}],"name":"ApprovalForAll","type":"event"},{"anonymous":false,"inputs":[{"indexed":true,"internalType":"address","name":"previous","type":"address"},{"indexed":true,"internalType":"address","name":"current","type":"address"}],"name":"ChangeAmbassadorEvent","type":"event"},{"anonymous":false,"inputs":[{"indexed":true,"internalType":"uint256","name":"year","type":"uint256"},{"indexed":true,"internalType":"uint256","name":"month","type":"uint256"},{"indexed":true,"internalType":"uint256","name":"day","type":"uint256"}],"name":"CustomizeEvent","type":"event"},{"anonymous":false,"inputs":[{"indexed":true,"internalType":"address","name":"executer","type":"address"},{"indexed":true,"internalType":"uint256","name":"epoc","type":"uint256"}],"name":"ElectionEvent","type":"event"},{"anonymous":false,"inputs":[{"indexed":true,"internalType":"uint256","name":"year","type":"uint256"},{"indexed":true,"internalType":"uint256","name":"month","type":"uint256"},{"indexed":true,"internalType":"uint256","name":"day","type":"uint256"}],"name":"LikeEvent","type":"event"},{"anonymous":false,"inputs":[{"indexed":false,"internalType":"uint256","name":"year","type":"uint256"},{"indexed":false,"internalType":"uint256","name":"month","type":"uint256"},{"indexed":false,"internalType":"uint256","name":"day","type":"uint256"},{"indexed":true,"internalType":"address","name":"holder","type":"address"}],"name":"MemorizedEvent","type":"event"},{"anonymous":false,"inputs":[{"indexed":true,"internalType":"address","name":"previousOwner","type":"address"},{"indexed":true,"internalType":"address","name":"newOwner","type":"address"}],"name":"OwnershipTransferred","type":"event"},{"anonymous":false,"inputs":[{"indexed":false,"internalType":"address","name":"account","type":"address"}],"name":"Paused","type":"event"},{"anonymous":false,"inputs":[{"indexed":true,"internalType":"address","name":"_address","type":"address"},{"indexed":false,"internalType":"uint256","name":"randomness","type":"uint256"}],"name":"PeriodicAirdropWinnerSelectedEvent","type":"event"},{"anonymous":false,"inputs":[{"indexed":true,"internalType":"address","name":"operator","type":"address"},{"indexed":true,"internalType":"address","name":"from","type":"address"},{"indexed":true,"internalType":"address","name":"to","type":"address"},{"indexed":false,"internalType":"uint256[]","name":"ids","type":"uint256[]"},{"indexed":false,"internalType":"uint256[]","name":"values","type":"uint256[]"}],"name":"TransferBatch","type":"event"},{"anonymous":false,"inputs":[{"indexed":true,"internalType":"address","name":"operator","type":"address"},{"indexed":true,"internalType":"address","name":"from","type":"address"},{"indexed":true,"internalType":"address","name":"to","type":"address"},{"indexed":false,"internalType":"uint256","name":"id","type":"uint256"},{"indexed":false,"internalType":"uint256","name":"value","type":"uint256"}],"name":"TransferSingle","type":"event"},{"anonymous":false,"inputs":[{"indexed":false,"internalType":"string","name":"value","type":"string"},{"indexed":true,"internalType":"uint256","name":"id","type":"uint256"}],"name":"URI","type":"event"},{"anonymous":false,"inputs":[{"indexed":false,"internalType":"address","name":"account","type":"address"}],"name":"Unpaused","type":"event"},{"anonymous":false,"inputs":[{"indexed":true,"internalType":"uint256","name":"vaultNumber","type":"uint256"},{"indexed":true,"internalType":"enum MemorizeThisDay.VAULT_ACTION","name":"action","type":"uint8"}],"name":"VoteResult","type":"event"},{"anonymous":false,"inputs":[{"indexed":true,"internalType":"address","name":"_address","type":"address"},{"indexed":true,"internalType":"uint256","name":"_amount","type":"uint256"}],"name":"WithdrawalEvent","type":"event"},{"stateMutability":"payable","type":"fallback"},{"inputs":[],"name":"AMBASSADOR_SHARE","outputs":[{"internalType":"uint256","name":"","type":"uint256"}],"stateMutability":"view","type":"function"},{"inputs":[{"internalType":"bool","name":"acceptance","type":"bool"}],"name":"AcceptSponsorship","outputs":[],"stateMutability":"nonpayable","type":"function"},{"inputs":[],"name":"AirdropRegisters","outputs":[{"internalType":"address[]","name":"","type":"address[]"}],"stateMutability":"view","type":"function"},{"inputs":[{"internalType":"uint256","name":"year","type":"uint256"},{"internalType":"uint256","name":"month","type":"uint256"},{"internalType":"uint256","name":"day","type":"uint256"},{"internalType":"string","name":"memo","type":"string"},{"internalType":"string","name":"imageMemo","type":"string"},{"internalType":"string","name":"aliass","type":"string"},{"internalType":"string","name":"twitterAccount","type":"string"}],"name":"Customize","outputs":[],"stateMutability":"nonpayable","type":"function"},{"inputs":[],"name":"DEVELOPMENT_VAULT_SHARE","outputs":[{"internalType":"uint256","name":"","type":"uint256"}],"stateMutability":"view","type":"function"},{"inputs":[],"name":"Election","outputs":[],"stateMutability":"nonpayable","type":"function"},{"inputs":[],"name":"ElectionThreshold","outputs":[{"internalType":"uint256","name":"","type":"uint256"}],"stateMutability":"view","type":"function"},{"inputs":[],"name":"FOUNDER_SHARE","outputs":[{"internalType":"uint256","name":"","type":"uint256"}],"stateMutability":"view","type":"function"},{"inputs":[{"internalType":"uint256","name":"year","type":"uint256"},{"internalType":"uint256","name":"month","type":"uint256"},{"internalType":"uint256","name":"day","type":"uint256"}],"name":"GetHolderOfTheDay","outputs":[{"internalType":"address","name":"","type":"address"}],"stateMutability":"view","type":"function"},{"inputs":[{"internalType":"uint256","name":"year","type":"uint256"},{"internalType":"uint256","name":"month","type":"uint256"},{"internalType":"uint256","name":"day","type":"uint256"}],"name":"GetIdByDate","outputs":[{"internalType":"uint256","name":"","type":"uint256"}],"stateMutability":"pure","type":"function"},{"inputs":[],"name":"GetMemorizeFee","outputs":[{"internalType":"uint256","name":"","type":"uint256"}],"stateMutability":"view","type":"function"},{"inputs":[],"name":"GetMintedDaysLength","outputs":[{"internalType":"uint256","name":"","type":"uint256"}],"stateMutability":"view","type":"function"},{"inputs":[],"name":"GetPeriodicAirdropRegistersLength","outputs":[{"internalType":"uint256","name":"","type":"uint256"}],"stateMutability":"view","type":"function"},{"inputs":[{"internalType":"uint256","name":"year","type":"uint256"},{"internalType":"uint256","name":"month","type":"uint256"},{"internalType":"uint256","name":"day","type":"uint256"}],"name":"Like","outputs":[],"stateMutability":"nonpayable","type":"function"},{"inputs":[],"name":"METADATAFORGER_VAULT_SHARE","outputs":[{"internalType":"uint256","name":"","type":"uint256"}],"stateMutability":"view","type":"function"},{"inputs":[{"internalType":"uint256","name":"year","type":"uint256"},{"internalType":"uint256","name":"month","type":"uint256"},{"internalType":"uint256","name":"day","type":"uint256"},{"internalType":"address","name":"giftTo","type":"address"}],"name":"Memorize","outputs":[],"stateMutability":"payable","type":"function"},{"inputs":[],"name":"MemorizedDays","outputs":[{"internalType":"uint256[]","name":"","type":"uint256[]"},{"internalType":"address[]","name":"","type":"address[]"}],"stateMutability":"view","type":"function"},{"inputs":[],"name":"PauseContract","outputs":[],"stateMutability":"nonpayable","type":"function"},{"inputs":[],"name":"RegisterForPeriodiclyAirdrop","outputs":[],"stateMutability":"nonpayable","type":"function"},{"inputs":[{"internalType":"string","name":"title","type":"string"},{"internalType":"string","name":"url","type":"string"},{"internalType":"string","name":"imageurl","type":"string"},{"internalType":"string","name":"twitter","type":"string"}],"name":"RequestSponsorship","outputs":[],"stateMutability":"payable","type":"function"},{"inputs":[],"name":"SelectPeriodicWinner","outputs":[],"stateMutability":"nonpayable","type":"function"},{"inputs":[{"internalType":"address","name":"targetAirdrop","type":"address"}],"name":"SendAirdrop","outputs":[],"stateMutability":"nonpayable","type":"function"},{"inputs":[{"internalType":"address","name":"addrs","type":"address"},{"internalType":"uint256","name":"wallet","type":"uint256"}],"name":"SetAddress","outputs":[],"stateMutability":"nonpayable","type":"function"},{"inputs":[{"internalType":"uint256","name":"fee","type":"uint256"},{"internalType":"string","name":"url","type":"string"}],"name":"UpdateConfig","outputs":[],"stateMutability":"nonpayable","type":"function"},{"inputs":[{"internalType":"uint256","name":"newPrice","type":"uint256"},{"internalType":"uint256","name":"newPriceStep","type":"uint256"}],"name":"UpdateMintPrice","outputs":[],"stateMutability":"nonpayable","type":"function"},{"inputs":[],"name":"VAULT_1_SHARE","outputs":[{"internalType":"uint256","name":"","type":"uint256"}],"stateMutability":"view","type":"function"},{"inputs":[],"name":"VAULT_2_SHARE","outputs":[{"internalType":"uint256","name":"","type":"uint256"}],"stateMutability":"view","type":"function"},{"inputs":[{"internalType":"uint256","name":"year","type":"uint256"},{"internalType":"uint256","name":"month","type":"uint256"},{"internalType":"uint256","name":"day","type":"uint256"},{"internalType":"uint256","name":"ambassadoryear","type":"uint256"},{"internalType":"uint256","name":"ambassadormonth","type":"uint256"},{"internalType":"uint256","name":"ambassadorday","type":"uint256"},{"internalType":"enum MemorizeThisDay.VAULT_ACTION[]","name":"action","type":"uint8[]"}],"name":"Vote","outputs":[],"stateMutability":"nonpayable","type":"function"},{"inputs":[{"internalType":"uint256","name":"year","type":"uint256"},{"internalType":"uint256","name":"month","type":"uint256"},{"internalType":"uint256","name":"day","type":"uint256"}],"name":"VotePower","outputs":[{"internalType":"uint256","name":"","type":"uint256"}],"stateMutability":"view","type":"function"},{"inputs":[],"name":"Withdrawal","outputs":[],"stateMutability":"nonpayable","type":"function"},{"inputs":[],"name":"_UrlStartWith","outputs":[{"internalType":"string","name":"","type":"string"}],"stateMutability":"view","type":"function"},{"inputs":[{"internalType":"uint256","name":"","type":"uint256"},{"internalType":"uint256","name":"","type":"uint256"}],"name":"_Votes","outputs":[{"internalType":"enum MemorizeThisDay.VAULT_ACTION","name":"","type":"uint8"}],"stateMutability":"view","type":"function"},{"inputs":[{"internalType":"uint256","name":"","type":"uint256"},{"internalType":"enum MemorizeThisDay.VAULT_ACTION","name":"","type":"uint8"}],"name":"_VotesAggregate","outputs":[{"internalType":"uint256","name":"","type":"uint256"}],"stateMutability":"view","type":"function"},{"inputs":[{"internalType":"address","name":"","type":"address"}],"name":"_airdrop","outputs":[{"internalType":"uint256","name":"","type":"uint256"}],"stateMutability":"view","type":"function"},{"inputs":[],"name":"_airdropPeriodInDays","outputs":[{"internalType":"uint256","name":"","type":"uint256"}],"stateMutability":"view","type":"function"},{"inputs":[{"internalType":"address","name":"","type":"address"}],"name":"_alias","outputs":[{"internalType":"string","name":"","type":"string"}],"stateMutability":"view","type":"function"},{"inputs":[{"internalType":"uint256","name":"","type":"uint256"}],"name":"_ambasaddorVotes","outputs":[{"internalType":"address","name":"","type":"address"}],"stateMutability":"view","type":"function"},{"inputs":[],"name":"_ambassador","outputs":[{"internalType":"address","name":"","type":"address"}],"stateMutability":"view","type":"function"},{"inputs":[],"name":"_ambassadorDay","outputs":[{"internalType":"uint256","name":"","type":"uint256"}],"stateMutability":"view","type":"function"},{"inputs":[{"internalType":"address","name":"","type":"address"}],"name":"_ambassadorVotesAggregate","outputs":[{"internalType":"uint256","name":"","type":"uint256"}],"stateMutability":"view","type":"function"},{"inputs":[],"name":"_assetName","outputs":[{"internalType":"string","name":"","type":"string"}],"stateMutability":"view","type":"function"},{"inputs":[],"name":"_chainlinkFee","outputs":[{"internalType":"uint256","name":"","type":"uint256"}],"stateMutability":"view","type":"function"},{"inputs":[{"internalType":"uint256","name":"","type":"uint256"}],"name":"_elders","outputs":[{"internalType":"bool","name":"","type":"bool"}],"stateMutability":"view","type":"function"},{"inputs":[{"internalType":"uint256","name":"","type":"uint256"}],"name":"_eldersAddress","outputs":[{"internalType":"address","name":"","type":"address"}],"stateMutability":"view","type":"function"},{"inputs":[{"internalType":"uint256","name":"","type":"uint256"}],"name":"_eldersIndex","outputs":[{"internalType":"uint256","name":"","type":"uint256"}],"stateMutability":"view","type":"function"},{"inputs":[],"name":"_eldersRemaining","outputs":[{"internalType":"uint256","name":"","type":"uint256"}],"stateMutability":"view","type":"function"},{"inputs":[],"name":"_electoralAirdropPeriodInDays","outputs":[{"internalType":"uint256","name":"","type":"uint256"}],"stateMutability":"view","type":"function"},{"inputs":[],"name":"_founderAddress","outputs":[{"internalType":"address","name":"","type":"address"}],"stateMutability":"view","type":"function"},{"inputs":[{"internalType":"uint256","name":"","type":"uint256"}],"name":"_holders","outputs":[{"internalType":"address","name":"","type":"address"}],"stateMutability":"view","type":"function"},{"inputs":[{"internalType":"uint256","name":"","type":"uint256"}],"name":"_imageMemo","outputs":[{"internalType":"string","name":"","type":"string"}],"stateMutability":"view","type":"function"},{"inputs":[],"name":"_initialPrice","outputs":[{"internalType":"uint256","name":"","type":"uint256"}],"stateMutability":"view","type":"function"},{"inputs":[],"name":"_invitePeriod","outputs":[{"internalType":"bool","name":"","type":"bool"}],"stateMutability":"view","type":"function"},{"inputs":[],"name":"_isSponsorshipAccepted","outputs":[{"internalType":"bool","name":"","type":"bool"}],"stateMutability":"view","type":"function"},{"inputs":[],"name":"_lastAirdropPeriodWinnerSelectDate","outputs":[{"internalType":"uint256","name":"","type":"uint256"}],"stateMutability":"view","type":"function"},{"inputs":[],"name":"_lastElectionDate","outputs":[{"internalType":"uint256","name":"","type":"uint256"}],"stateMutability":"view","type":"function"},{"inputs":[],"name":"_lastElectoralAirdropDate","outputs":[{"internalType":"uint256","name":"","type":"uint256"}],"stateMutability":"view","type":"function"},{"inputs":[],"name":"_lastLotteryWinner","outputs":[{"internalType":"address","name":"","type":"address"}],"stateMutability":"view","type":"function"},{"inputs":[],"name":"_lastMemorizeDate","outputs":[{"internalType":"uint256","name":"","type":"uint256"}],"stateMutability":"view","type":"function"},{"inputs":[{"internalType":"uint256","name":"","type":"uint256"}],"name":"_likes","outputs":[{"internalType":"uint256","name":"","type":"uint256"}],"stateMutability":"view","type":"function"},{"inputs":[{"internalType":"uint256","name":"","type":"uint256"}],"name":"_memo","outputs":[{"internalType":"string","name":"","type":"string"}],"stateMutability":"view","type":"function"},{"inputs":[],"name":"_metadataForgerAddress","outputs":[{"internalType":"address","name":"","type":"address"}],"stateMutability":"view","type":"function"},{"inputs":[],"name":"_mintPrice","outputs":[{"internalType":"uint256","name":"","type":"uint256"}],"stateMutability":"view","type":"function"},{"inputs":[],"name":"_mintPriceStep","outputs":[{"internalType":"uint256","name":"","type":"uint256"}],"stateMutability":"view","type":"function"},{"inputs":[{"internalType":"uint256","name":"","type":"uint256"}],"name":"_mintedDays","outputs":[{"internalType":"uint256","name":"","type":"uint256"}],"stateMutability":"view","type":"function"},{"inputs":[],"name":"_nextAmbassador","outputs":[{"internalType":"address","name":"","type":"address"}],"stateMutability":"view","type":"function"},{"inputs":[],"name":"_nextAmbassadorDay","outputs":[{"internalType":"uint256","name":"","type":"uint256"}],"stateMutability":"view","type":"function"},{"inputs":[{"internalType":"uint256","name":"","type":"uint256"}],"name":"_periodicAirdropRegisters","outputs":[{"internalType":"address","name":"","type":"address"}],"stateMutability":"view","type":"function"},{"inputs":[],"name":"_sponsorAddress","outputs":[{"internalType":"address","name":"","type":"address"}],"stateMutability":"view","type":"function"},{"inputs":[],"name":"_sponsorImage","outputs":[{"internalType":"string","name":"","type":"string"}],"stateMutability":"view","type":"function"},{"inputs":[],"name":"_sponsorShipLockUntil","outputs":[{"internalType":"uint256","name":"","type":"uint256"}],"stateMutability":"view","type":"function"},{"inputs":[],"name":"_sponsorTitle","outputs":[{"internalType":"string","name":"","type":"string"}],"stateMutability":"view","type":"function"},{"inputs":[],"name":"_sponsorTwitter","outputs":[{"internalType":"string","name":"","type":"string"}],"stateMutability":"view","type":"function"},{"inputs":[],"name":"_sponsorURL","outputs":[{"internalType":"string","name":"","type":"string"}],"stateMutability":"view","type":"function"},{"inputs":[],"name":"_startDate","outputs":[{"internalType":"uint256","name":"","type":"uint256"}],"stateMutability":"view","type":"function"},{"inputs":[{"internalType":"uint256","name":"","type":"uint256"}],"name":"_twitterAccount","outputs":[{"internalType":"string","name":"","type":"string"}],"stateMutability":"view","type":"function"},{"inputs":[{"internalType":"uint256","name":"","type":"uint256"}],"name":"_vaultsAddress","outputs":[{"internalType":"address","name":"","type":"address"}],"stateMutability":"view","type":"function"},{"inputs":[{"internalType":"address","name":"","type":"address"}],"name":"_wallet","outputs":[{"internalType":"uint256","name":"","type":"uint256"}],"stateMutability":"view","type":"function"},{"inputs":[{"internalType":"address","name":"account","type":"address"},{"internalType":"uint256","name":"id","type":"uint256"}],"name":"balanceOf","outputs":[{"internalType":"uint256","name":"","type":"uint256"}],"stateMutability":"view","type":"function"},{"inputs":[{"internalType":"address[]","name":"accounts","type":"address[]"},{"internalType":"uint256[]","name":"ids","type":"uint256[]"}],"name":"balanceOfBatch","outputs":[{"internalType":"uint256[]","name":"","type":"uint256[]"}],"stateMutability":"view","type":"function"},{"inputs":[{"internalType":"address","name":"account","type":"address"},{"internalType":"address","name":"operator","type":"address"}],"name":"isApprovedForAll","outputs":[{"internalType":"bool","name":"","type":"bool"}],"stateMutability":"view","type":"function"},{"inputs":[{"internalType":"uint256","name":"a","type":"uint256"},{"internalType":"uint256","name":"b","type":"uint256"}],"name":"max","outputs":[{"internalType":"uint256","name":"","type":"uint256"}],"stateMutability":"pure","type":"function"},{"inputs":[],"name":"owner","outputs":[{"internalType":"address","name":"","type":"address"}],"stateMutability":"view","type":"function"},{"inputs":[],"name":"paused","outputs":[{"internalType":"bool","name":"","type":"bool"}],"stateMutability":"view","type":"function"},{"inputs":[{"internalType":"bytes32","name":"requestId","type":"bytes32"},{"internalType":"uint256","name":"randomness","type":"uint256"}],"name":"rawFulfillRandomness","outputs":[],"stateMutability":"nonpayable","type":"function"},{"inputs":[],"name":"renounceOwnership","outputs":[],"stateMutability":"nonpayable","type":"function"},{"inputs":[{"internalType":"address","name":"from","type":"address"},{"internalType":"address","name":"to","type":"address"},{"internalType":"uint256[]","name":"ids","type":"uint256[]"},{"internalType":"uint256[]","name":"amounts","type":"uint256[]"},{"internalType":"bytes","name":"data","type":"bytes"}],"name":"safeBatchTransferFrom","outputs":[],"stateMutability":"nonpayable","type":"function"},{"inputs":[{"internalType":"address","name":"from","type":"address"},{"internalType":"address","name":"to","type":"address"},{"internalType":"uint256","name":"id","type":"uint256"},{"internalType":"uint256","name":"amount","type":"uint256"},{"internalType":"bytes","name":"data","type":"bytes"}],"name":"safeTransferFrom","outputs":[],"stateMutability":"nonpayable","type":"function"},{"inputs":[{"internalType":"address","name":"operator","type":"address"},{"internalType":"bool","name":"approved","type":"bool"}],"name":"setApprovalForAll","outputs":[],"stateMutability":"nonpayable","type":"function"},{"inputs":[{"internalType":"bytes4","name":"interfaceId","type":"bytes4"}],"name":"supportsInterface","outputs":[{"internalType":"bool","name":"","type":"bool"}],"stateMutability":"view","type":"function"},{"inputs":[{"internalType":"address","name":"newOwner","type":"address"}],"name":"transferOwnership","outputs":[],"stateMutability":"nonpayable","type":"function"},{"inputs":[{"internalType":"uint256","name":"","type":"uint256"}],"name":"uri","outputs":[{"internalType":"string","name":"","type":"string"}],"stateMutability":"view","type":"function"}],"compiler":{"version":"0.8.11+commit.d7f03943","evm_version":"istanbul","optimizer":{"enabled":true,"runs":200}},"contractName":"MemorizeThisDayOnBTC","language":"Solidity","natspec":{"methods":{"balanceOf(address,uint256)":{"details":"See {IERC1155-balanceOf}. Requirements: - `account` cannot be the zero address."},"balanceOfBatch(address[],uint256[])":{"details":"See {IERC1155-balanceOfBatch}. Requirements: - `accounts` and `ids` must have the same length."},"isApprovedForAll(address,address)":{"details":"See {IERC1155-isApprovedForAll}."},"owner()":{"details":"Returns the address of the current owner."},"paused()":{"details":"Returns true if the contract is paused, and false otherwise."},"renounceOwnership()":{"details":"Leaves the contract without owner. It will not be possible to call `onlyOwner` functions anymore. Can only be called by the current owner. NOTE: Renouncing ownership will leave the contract without an owner, thereby removing any functionality that is only available to the owner."},"safeBatchTransferFrom(address,address,uint256[],uint256[],bytes)":{"details":"See {IERC1155-safeBatchTransferFrom}."},"safeTransferFrom(address,address,uint256,uint256,bytes)":{"details":"See {IERC1155-safeTransferFrom}."},"setApprovalForAll(address,bool)":{"details":"See {IERC1155-setApprovalForAll}."},"supportsInterface(bytes4)":{"details":"See {IERC165-supportsInterface}."},"transferOwnership(address)":{"details":"Transfers ownership of the contract to a new account (`newOwner`). Can only be called by the current owner."},"uri(uint256)":{"details":"See {IERC1155MetadataURI-uri}. This implementation returns the same URI for *all* token types. It relies on the token type ID substitution mechanism https://eips.ethereum.org/EIPS/eip-1155#metadata[defined in the EIP]. Clients calling this function must replace the `\\{id\\}` substring with the actual token type ID."}},"kind":"dev","version":1},"opcodes":"PUSH1 0x80 PUSH1 0x40 MSTORE PUSH1 0x4 CALLDATASIZE LT PUSH2 0x4EB JUMPI PUSH1 0x0 CALLDATALOAD PUSH1 0xE0 SHR DUP1 PUSH4 0x6D5433E6 GT PUSH2 0x28C JUMPI DUP1 PUSH4 0xC771285B GT PUSH2 0x15A JUMPI DUP1 PUSH4 0xE985E9C5 GT PUSH2 0xCC JUMPI DUP1 PUSH4 0xF1F0BEFE GT PUSH2 0x85 JUMPI DUP1 PUSH4 0xF1F0BEFE EQ PUSH2 0xF39 JUMPI DUP1 PUSH4 0xF242432A EQ PUSH2 0xF59 JUMPI DUP1 PUSH4 0xF2FDE38B EQ PUSH2 0xF79 JUMPI DUP1 PUSH4 0xF6A33E6D EQ PUSH2 0xF99 JUMPI DUP1 PUSH4 0xF8A433EC EQ PUSH2 0xFAE JUMPI DUP1 PUSH4 0xFA2B16CD EQ PUSH2 0xFC3 JUMPI PUSH2 0x4EB JUMP JUMPDEST DUP1 PUSH4 0xE985E9C5 EQ PUSH2 0xE5F JUMPI DUP1 PUSH4 0xE9CC3B54 EQ PUSH2 0xEA8 JUMPI DUP1 PUSH4 0xEE944BA7 EQ PUSH2 0xEBD JUMPI DUP1 PUSH4 0xEF813363 EQ PUSH2 0xEDF JUMPI DUP1 PUSH4 0xF074E34F EQ PUSH2 0xEF9 JUMPI DUP1 PUSH4 0xF0F206AA EQ PUSH2 0xF19 JUMPI PUSH2 0x4EB JUMP JUMPDEST DUP1 PUSH4 0xD973FC2E GT PUSH2 0x11E JUMPI DUP1 PUSH4 0xD973FC2E EQ PUSH2 0xD8D JUMPI DUP1 PUSH4 0xDBDAD464 EQ PUSH2 0xDAD JUMPI DUP1 PUSH4 0xDD2CEC7F EQ PUSH2 0xDCD JUMPI DUP1 PUSH4 0xE0B9A4AA EQ PUSH2 0xE03 JUMPI DUP1 PUSH4 0xE5A8A42F EQ PUSH2 0xE18 JUMPI DUP1 PUSH4 0xE5B429C0 EQ PUSH2 0xE45 JUMPI PUSH2 0x4EB JUMP JUMPDEST DUP1 PUSH4 0xC771285B EQ PUSH2 0xD17 JUMPI DUP1 PUSH4 0xC78A0B86 EQ PUSH2 0xD2D JUMPI DUP1 PUSH4 0xCB7812FD EQ PUSH2 0xD42 JUMPI DUP1 PUSH4 0xD0791DE9 EQ PUSH2 0xD57 JUMPI DUP1 PUSH4 0xD50AC892 EQ PUSH2 0xD77 JUMPI PUSH2 0x4EB JUMP JUMPDEST DUP1 PUSH4 0x8DA5CB5B GT PUSH2 0x1FE JUMPI DUP1 PUSH4 0xA9665B7A GT PUSH2 0x1B7 JUMPI DUP1 PUSH4 0xA9665B7A EQ PUSH2 0xC76 JUMPI DUP1 PUSH4 0xAB32D594 EQ PUSH2 0xC8C JUMPI DUP1 PUSH4 0xAC0B78F2 EQ PUSH2 0xCA1 JUMPI DUP1 PUSH4 0xAC8DABA0 EQ PUSH2 0xCC1 JUMPI DUP1 PUSH4 0xB689AF84 EQ PUSH2 0xCD7 JUMPI DUP1 PUSH4 0xBD7B9BA5 EQ PUSH2 0xCF7 JUMPI PUSH2 0x4EB JUMP JUMPDEST DUP1 PUSH4 0x8DA5CB5B EQ PUSH2 0xBC8 JUMPI DUP1 PUSH4 0x92B56ABB EQ PUSH2 0xBEB JUMPI DUP1 PUSH4 0x93E51B64 EQ PUSH2 0xC00 JUMPI DUP1 PUSH4 0x94985DDD EQ PUSH2 0xC16 JUMPI DUP1 PUSH4 0xA22CB465 EQ PUSH2 0xC36 JUMPI DUP1 PUSH4 0xA42616E8 EQ PUSH2 0xC56 JUMPI PUSH2 0x4EB JUMP JUMPDEST DUP1 PUSH4 0x717C2F5F GT PUSH2 0x250 JUMPI DUP1 PUSH4 0x717C2F5F EQ PUSH2 0xB3D JUMPI DUP1 PUSH4 0x7AB36B53 EQ PUSH2 0xB52 JUMPI DUP1 PUSH4 0x7EF6D4A0 EQ PUSH2 0xB68 JUMPI DUP1 PUSH4 0x7F44A9BB EQ PUSH2 0x920 JUMPI DUP1 PUSH4 0x865117D7 EQ PUSH2 0xB95 JUMPI DUP1 PUSH4 0x8B3C3EF7 EQ PUSH2 0xBB5 JUMPI PUSH2 0x4EB JUMP JUMPDEST DUP1 PUSH4 0x6D5433E6 EQ PUSH2 0xAA6 JUMPI DUP1 PUSH4 0x6E21FC87 EQ PUSH2 0xAC6 JUMPI DUP1 PUSH4 0x6E9F2B4B EQ PUSH2 0xAF3 JUMPI DUP1 PUSH4 0x70E44C6A EQ PUSH2 0xB13 JUMPI DUP1 PUSH4 0x715018A6 EQ PUSH2 0xB28 JUMPI PUSH2 0x4EB JUMP JUMPDEST DUP1 PUSH4 0x2EB2C2D6 GT PUSH2 0x3C9 JUMPI DUP1 PUSH4 0x4E3412B2 GT PUSH2 0x33B JUMPI DUP1 PUSH4 0x5E3F5422 GT PUSH2 0x2F4 JUMPI DUP1 PUSH4 0x5E3F5422 EQ PUSH2 0xA0B JUMPI DUP1 PUSH4 0x5FD00CA2 EQ PUSH2 0xA20 JUMPI DUP1 PUSH4 0x617D15A5 EQ PUSH2 0xA36 JUMPI DUP1 PUSH4 0x659D8D4E EQ PUSH2 0xA56 JUMPI DUP1 PUSH4 0x65CE6454 EQ PUSH2 0xA86 JUMPI DUP1 PUSH4 0x6A1C3F20 EQ PUSH2 0x920 JUMPI PUSH2 0x4EB JUMP JUMPDEST DUP1 PUSH4 0x4E3412B2 EQ PUSH2 0x978 JUMPI DUP1 PUSH4 0x53177E66 EQ PUSH2 0x98E JUMPI DUP1 PUSH4 0x53C3A995 EQ PUSH2 0x9B3 JUMPI DUP1 PUSH4 0x53C9A482 EQ PUSH2 0x591 JUMPI DUP1 PUSH4 0x56F2520D EQ PUSH2 0x9D3 JUMPI DUP1 PUSH4 0x5C975ABB EQ PUSH2 0x9F3 JUMPI PUSH2 0x4EB JUMP JUMPDEST DUP1 PUSH4 0x38D92617 GT PUSH2 0x38D JUMPI DUP1 PUSH4 0x38D92617 EQ PUSH2 0x8CA JUMPI DUP1 PUSH4 0x3CD21817 EQ PUSH2 0x8EA JUMPI DUP1 PUSH4 0x4140524D EQ PUSH2 0x900 JUMPI DUP1 PUSH4 0x4954D2EC EQ PUSH2 0x920 JUMPI DUP1 PUSH4 0x49B82943 EQ PUSH2 0x935 JUMPI DUP1 PUSH4 0x4E1273F4 EQ PUSH2 0x94B JUMPI PUSH2 0x4EB JUMP JUMPDEST DUP1 PUSH4 0x2EB2C2D6 EQ PUSH2 0x7FE JUMPI DUP1 PUSH4 0x303DD553 EQ PUSH2 0x81E JUMPI DUP1 PUSH4 0x308620E2 EQ PUSH2 0x834 JUMPI DUP1 PUSH4 0x340D899A EQ PUSH2 0x86C JUMPI DUP1 PUSH4 0x36BB86B3 EQ PUSH2 0x882 JUMPI PUSH2 0x4EB JUMP JUMPDEST DUP1 PUSH4 0x1A513C9D GT PUSH2 0x462 JUMPI DUP1 PUSH4 0x234D7B8D GT PUSH2 0x426 JUMPI DUP1 PUSH4 0x234D7B8D EQ PUSH2 0x76A JUMPI DUP1 PUSH4 0x28F50905 EQ PUSH2 0x780 JUMPI DUP1 PUSH4 0x29948B27 EQ PUSH2 0x7A0 JUMPI DUP1 PUSH4 0x2A213DCB EQ PUSH2 0x7B5 JUMPI DUP1 PUSH4 0x2A9337D0 EQ PUSH2 0x7CB JUMPI DUP1 PUSH4 0x2AECA614 EQ PUSH2 0x7EB JUMPI PUSH2 0x4EB JUMP JUMPDEST DUP1 PUSH4 0x1A513C9D EQ PUSH2 0x6B8 JUMPI DUP1 PUSH4 0x1AA98354 EQ PUSH2 0x6E5 JUMPI DUP1 PUSH4 0x1C8108B1 EQ PUSH2 0x708 JUMPI DUP1 PUSH4 0x1D65BD1B EQ PUSH2 0x71F JUMPI DUP1 PUSH4 0x1D6C263C EQ PUSH2 0x755 JUMPI PUSH2 0x4EB JUMP JUMPDEST DUP1 PUSH4 0x6389CA1 GT PUSH2 0x4B4 JUMPI DUP1 PUSH4 0x6389CA1 EQ PUSH2 0x5DC JUMPI DUP1 PUSH4 0x7D6A560 EQ PUSH2 0x614 JUMPI DUP1 PUSH4 0x9FDD5A3 EQ PUSH2 0x636 JUMPI DUP1 PUSH4 0xA6A001C EQ PUSH2 0x64B JUMPI DUP1 PUSH4 0xE89341C EQ PUSH2 0x66B JUMPI DUP1 PUSH4 0x13887D95 EQ PUSH2 0x68B JUMPI PUSH2 0x4EB JUMP JUMPDEST DUP1 PUSH3 0xFDD58E EQ PUSH2 0x52E JUMPI DUP1 PUSH4 0x1FFC9A7 EQ PUSH2 0x561 JUMPI DUP1 PUSH4 0x3029E7D EQ PUSH2 0x591 JUMPI DUP1 PUSH4 0x37A2414 EQ PUSH2 0x5A6 JUMPI DUP1 PUSH4 0x387DA42 EQ PUSH2 0x5C6 JUMPI JUMPDEST PUSH1 0x28 SLOAD PUSH1 0x1 PUSH1 0x1 PUSH1 0xA0 SHL SUB AND PUSH1 0x0 SWAP1 DUP2 MSTORE PUSH1 0x2A PUSH1 0x20 MSTORE PUSH1 0x40 SWAP1 KECCAK256 SLOAD PUSH2 0x511 SWAP1 CALLVALUE SWAP1 PUSH2 0x5109 JUMP JUMPDEST PUSH1 0x28 SLOAD PUSH1 0x1 PUSH1 0x1 PUSH1 0xA0 SHL SUB AND PUSH1 0x0 SWAP1 DUP2 MSTORE PUSH1 0x2A PUSH1 0x20 MSTORE PUSH1 0x40 SWAP1 KECCAK256 SSTORE STOP JUMPDEST CALLVALUE DUP1 ISZERO PUSH2 0x53A JUMPI PUSH1 0x0 DUP1 REVERT JUMPDEST POP PUSH2 0x54E PUSH2 0x549 CALLDATASIZE PUSH1 0x4 PUSH2 0x513D JUMP JUMPDEST PUSH2 0xFE3 JUMP JUMPDEST PUSH1 0x40 MLOAD SWAP1 DUP2 MSTORE PUSH1 0x20 ADD JUMPDEST PUSH1 0x40 MLOAD DUP1 SWAP2 SUB SWAP1 RETURN JUMPDEST CALLVALUE DUP1 ISZERO PUSH2 0x56D JUMPI PUSH1 0x0 DUP1 REVERT JUMPDEST POP PUSH2 0x581 PUSH2 0x57C CALLDATASIZE PUSH1 0x4 PUSH2 0x517D JUMP JUMPDEST PUSH2 0x107D JUMP JUMPDEST PUSH1 0x40 MLOAD SWAP1 ISZERO ISZERO DUP2 MSTORE PUSH1 0x20 ADD PUSH2 0x558 JUMP JUMPDEST CALLVALUE DUP1 ISZERO PUSH2 0x59D JUMPI PUSH1 0x0 DUP1 REVERT JUMPDEST POP PUSH2 0x54E PUSH1 0x1E DUP2 JUMP JUMPDEST CALLVALUE DUP1 ISZERO PUSH2 0x5B2 JUMPI PUSH1 0x0 DUP1 REVERT JUMPDEST POP PUSH2 0x54E PUSH2 0x5C1 CALLDATASIZE PUSH1 0x4 PUSH2 0x519A JUMP JUMPDEST PUSH2 0x10CD JUMP JUMPDEST CALLVALUE DUP1 ISZERO PUSH2 0x5D2 JUMPI PUSH1 0x0 DUP1 REVERT JUMPDEST POP PUSH2 0x54E PUSH1 0x16 SLOAD DUP2 JUMP JUMPDEST CALLVALUE DUP1 ISZERO PUSH2 0x5E8 JUMPI PUSH1 0x0 DUP1 REVERT JUMPDEST POP PUSH2 0x5FC PUSH2 0x5F7 CALLDATASIZE PUSH1 0x4 PUSH2 0x519A JUMP JUMPDEST PUSH2 0x10E2 JUMP JUMPDEST PUSH1 0x40 MLOAD PUSH1 0x1 PUSH1 0x1 PUSH1 0xA0 SHL SUB SWAP1 SWAP2 AND DUP2 MSTORE PUSH1 0x20 ADD PUSH2 0x558 JUMP JUMPDEST CALLVALUE DUP1 ISZERO PUSH2 0x620 JUMPI PUSH1 0x0 DUP1 REVERT JUMPDEST POP PUSH2 0x629 PUSH2 0x1111 JUMP JUMPDEST PUSH1 0x40 MLOAD PUSH2 0x558 SWAP2 SWAP1 PUSH2 0x521E JUMP JUMPDEST CALLVALUE DUP1 ISZERO PUSH2 0x642 JUMPI PUSH1 0x0 DUP1 REVERT JUMPDEST POP PUSH1 0x18 SLOAD PUSH2 0x54E JUMP JUMPDEST CALLVALUE DUP1 ISZERO PUSH2 0x657 JUMPI PUSH1 0x0 DUP1 REVERT JUMPDEST POP PUSH2 0x54E PUSH2 0x666 CALLDATASIZE PUSH1 0x4 PUSH2 0x5231 JUMP JUMPDEST PUSH2 0x119F JUMP JUMPDEST CALLVALUE DUP1 ISZERO PUSH2 0x677 JUMPI PUSH1 0x0 DUP1 REVERT JUMPDEST POP PUSH2 0x629 PUSH2 0x686 CALLDATASIZE PUSH1 0x4 PUSH2 0x5231 JUMP JUMPDEST PUSH2 0x11C0 JUMP JUMPDEST CALLVALUE DUP1 ISZERO PUSH2 0x697 JUMPI PUSH1 0x0 DUP1 REVERT JUMPDEST POP PUSH2 0x54E PUSH2 0x6A6 CALLDATASIZE PUSH1 0x4 PUSH2 0x524A JUMP JUMPDEST PUSH1 0x2A PUSH1 0x20 MSTORE PUSH1 0x0 SWAP1 DUP2 MSTORE PUSH1 0x40 SWAP1 KECCAK256 SLOAD DUP2 JUMP JUMPDEST CALLVALUE DUP1 ISZERO PUSH2 0x6C4 JUMPI PUSH1 0x0 DUP1 REVERT JUMPDEST POP PUSH2 0x54E PUSH2 0x6D3 CALLDATASIZE PUSH1 0x4 PUSH2 0x524A JUMP JUMPDEST PUSH1 0x36 PUSH1 0x20 MSTORE PUSH1 0x0 SWAP1 DUP2 MSTORE PUSH1 0x40 SWAP1 KECCAK256 SLOAD DUP2 JUMP JUMPDEST CALLVALUE DUP1 ISZERO PUSH2 0x6F1 JUMPI PUSH1 0x0 DUP1 REVERT JUMPDEST POP PUSH2 0x6FA PUSH2 0x1254 JUMP JUMPDEST PUSH1 0x40 MLOAD PUSH2 0x558 SWAP3 SWAP2 SWAP1 PUSH2 0x52D9 JUMP JUMPDEST CALLVALUE DUP1 ISZERO PUSH2 0x714 JUMPI PUSH1 0x0 DUP1 REVERT JUMPDEST POP PUSH2 0x71D PUSH2 0x13BF JUMP JUMPDEST STOP JUMPDEST CALLVALUE DUP1 ISZERO PUSH2 0x72B JUMPI PUSH1 0x0 DUP1 REVERT JUMPDEST POP PUSH2 0x5FC PUSH2 0x73A CALLDATASIZE PUSH1 0x4 PUSH2 0x5231 JUMP JUMPDEST PUSH1 0x35 PUSH1 0x20 MSTORE PUSH1 0x0 SWAP1 DUP2 MSTORE PUSH1 0x40 SWAP1 KECCAK256 SLOAD PUSH1 0x1 PUSH1 0x1 PUSH1 0xA0 SHL SUB AND DUP2 JUMP JUMPDEST CALLVALUE DUP1 ISZERO PUSH2 0x761 JUMPI PUSH1 0x0 DUP1 REVERT JUMPDEST POP PUSH2 0x71D PUSH2 0x140C JUMP JUMPDEST CALLVALUE DUP1 ISZERO PUSH2 0x776 JUMPI PUSH1 0x0 DUP1 REVERT JUMPDEST POP PUSH2 0x54E PUSH1 0x1F SLOAD DUP2 JUMP JUMPDEST CALLVALUE DUP1 ISZERO PUSH2 0x78C JUMPI PUSH1 0x0 DUP1 REVERT JUMPDEST POP PUSH2 0x5FC PUSH2 0x79B CALLDATASIZE PUSH1 0x4 PUSH2 0x5231 JUMP JUMPDEST PUSH2 0x19D6 JUMP JUMPDEST CALLVALUE DUP1 ISZERO PUSH2 0x7AC JUMPI PUSH1 0x0 DUP1 REVERT JUMPDEST POP PUSH2 0x629 PUSH2 0x19F6 JUMP JUMPDEST CALLVALUE DUP1 ISZERO PUSH2 0x7C1 JUMPI PUSH1 0x0 DUP1 REVERT JUMPDEST POP PUSH2 0x54E PUSH1 0x15 SLOAD DUP2 JUMP JUMPDEST CALLVALUE DUP1 ISZERO PUSH2 0x7D7 JUMPI PUSH1 0x0 DUP1 REVERT JUMPDEST POP PUSH1 0xA SLOAD PUSH2 0x5FC SWAP1 PUSH1 0x1 PUSH1 0x1 PUSH1 0xA0 SHL SUB AND DUP2 JUMP JUMPDEST PUSH2 0x71D PUSH2 0x7F9 CALLDATASIZE PUSH1 0x4 PUSH2 0x52FE JUMP JUMPDEST PUSH2 0x1A03 JUMP JUMPDEST CALLVALUE DUP1 ISZERO PUSH2 0x80A JUMPI PUSH1 0x0 DUP1 REVERT JUMPDEST POP PUSH2 0x71D PUSH2 0x819 CALLDATASIZE PUSH1 0x4 PUSH2 0x5486 JUMP JUMPDEST PUSH2 0x219D JUMP JUMPDEST CALLVALUE DUP1 ISZERO PUSH2 0x82A JUMPI PUSH1 0x0 DUP1 REVERT JUMPDEST POP PUSH2 0x54E PUSH1 0x1B SLOAD DUP2 JUMP JUMPDEST CALLVALUE DUP1 ISZERO PUSH2 0x840 JUMPI PUSH1 0x0 DUP1 REVERT JUMPDEST POP PUSH2 0x54E PUSH2 0x84F CALLDATASIZE PUSH1 0x4 PUSH2 0x553E JUMP JUMPDEST PUSH1 0x39 PUSH1 0x20 SWAP1 DUP2 MSTORE PUSH1 0x0 SWAP3 DUP4 MSTORE PUSH1 0x40 DUP1 DUP5 KECCAK256 SWAP1 SWAP2 MSTORE SWAP1 DUP3 MSTORE SWAP1 KECCAK256 SLOAD DUP2 JUMP JUMPDEST CALLVALUE DUP1 ISZERO PUSH2 0x878 JUMPI PUSH1 0x0 DUP1 REVERT JUMPDEST POP PUSH2 0x54E PUSH1 0x21 SLOAD DUP2 JUMP JUMPDEST CALLVALUE DUP1 ISZERO PUSH2 0x88E JUMPI PUSH1 0x0 DUP1 REVERT JUMPDEST POP PUSH2 0x8BD PUSH2 0x89D CALLDATASIZE PUSH1 0x4 PUSH2 0x556A JUMP JUMPDEST PUSH1 0x38 PUSH1 0x20 SWAP1 DUP2 MSTORE PUSH1 0x0 SWAP3 DUP4 MSTORE PUSH1 0x40 DUP1 DUP5 KECCAK256 SWAP1 SWAP2 MSTORE SWAP1 DUP3 MSTORE SWAP1 KECCAK256 SLOAD PUSH1 0xFF AND DUP2 JUMP JUMPDEST PUSH1 0x40 MLOAD PUSH2 0x558 SWAP2 SWAP1 PUSH2 0x55A2 JUMP JUMPDEST CALLVALUE DUP1 ISZERO PUSH2 0x8D6 JUMPI PUSH1 0x0 DUP1 REVERT JUMPDEST POP PUSH2 0x629 PUSH2 0x8E5 CALLDATASIZE PUSH1 0x4 PUSH2 0x5231 JUMP JUMPDEST PUSH2 0x2255 JUMP JUMPDEST CALLVALUE DUP1 ISZERO PUSH2 0x8F6 JUMPI PUSH1 0x0 DUP1 REVERT JUMPDEST POP PUSH2 0x54E PUSH1 0x1E SLOAD DUP2 JUMP JUMPDEST CALLVALUE DUP1 ISZERO PUSH2 0x90C JUMPI PUSH1 0x0 DUP1 REVERT JUMPDEST POP PUSH1 0x24 SLOAD PUSH2 0x5FC SWAP1 PUSH1 0x1 PUSH1 0x1 PUSH1 0xA0 SHL SUB AND DUP2 JUMP JUMPDEST CALLVALUE DUP1 ISZERO PUSH2 0x92C JUMPI PUSH1 0x0 DUP1 REVERT JUMPDEST POP PUSH2 0x54E PUSH1 0x5 DUP2 JUMP JUMPDEST CALLVALUE DUP1 ISZERO PUSH2 0x941 JUMPI PUSH1 0x0 DUP1 REVERT JUMPDEST POP PUSH2 0x54E PUSH1 0x8 SLOAD DUP2 JUMP JUMPDEST CALLVALUE DUP1 ISZERO PUSH2 0x957 JUMPI PUSH1 0x0 DUP1 REVERT JUMPDEST POP PUSH2 0x96B PUSH2 0x966 CALLDATASIZE PUSH1 0x4 PUSH2 0x55CA JUMP JUMPDEST PUSH2 0x226E JUMP JUMPDEST PUSH1 0x40 MLOAD PUSH2 0x558 SWAP2 SWAP1 PUSH2 0x5694 JUMP JUMPDEST CALLVALUE DUP1 ISZERO PUSH2 0x984 JUMPI PUSH1 0x0 DUP1 REVERT JUMPDEST POP PUSH2 0x54E PUSH1 0xD SLOAD DUP2 JUMP JUMPDEST CALLVALUE DUP1 ISZERO PUSH2 0x99A JUMPI PUSH1 0x0 DUP1 REVERT JUMPDEST POP PUSH1 0x10 SLOAD PUSH2 0x5FC SWAP1 PUSH2 0x100 SWAP1 DIV PUSH1 0x1 PUSH1 0x1 PUSH1 0xA0 SHL SUB AND DUP2 JUMP JUMPDEST CALLVALUE DUP1 ISZERO PUSH2 0x9BF JUMPI PUSH1 0x0 DUP1 REVERT JUMPDEST POP PUSH2 0x5FC PUSH2 0x9CE CALLDATASIZE PUSH1 0x4 PUSH2 0x5231 JUMP JUMPDEST PUSH2 0x2397 JUMP JUMPDEST CALLVALUE DUP1 ISZERO PUSH2 0x9DF JUMPI PUSH1 0x0 DUP1 REVERT JUMPDEST POP PUSH2 0x629 PUSH2 0x9EE CALLDATASIZE PUSH1 0x4 PUSH2 0x5231 JUMP JUMPDEST PUSH2 0x23C1 JUMP JUMPDEST CALLVALUE DUP1 ISZERO PUSH2 0x9FF JUMPI PUSH1 0x0 DUP1 REVERT JUMPDEST POP PUSH1 0x3 SLOAD PUSH1 0xFF AND PUSH2 0x581 JUMP JUMPDEST CALLVALUE DUP1 ISZERO PUSH2 0xA17 JUMPI PUSH1 0x0 DUP1 REVERT JUMPDEST POP PUSH2 0x629 PUSH2 0x23DA JUMP JUMPDEST CALLVALUE DUP1 ISZERO PUSH2 0xA2C JUMPI PUSH1 0x0 DUP1 REVERT JUMPDEST POP PUSH2 0x54E PUSH1 0x9 SLOAD DUP2 JUMP JUMPDEST CALLVALUE DUP1 ISZERO PUSH2 0xA42 JUMPI PUSH1 0x0 DUP1 REVERT JUMPDEST POP PUSH2 0x71D PUSH2 0xA51 CALLDATASIZE PUSH1 0x4 PUSH2 0x56A7 JUMP JUMPDEST PUSH2 0x23E7 JUMP JUMPDEST CALLVALUE DUP1 ISZERO PUSH2 0xA62 JUMPI PUSH1 0x0 DUP1 REVERT JUMPDEST POP PUSH2 0x581 PUSH2 0xA71 CALLDATASIZE PUSH1 0x4 PUSH2 0x5231 JUMP JUMPDEST PUSH1 0x2E PUSH1 0x20 MSTORE PUSH1 0x0 SWAP1 DUP2 MSTORE PUSH1 0x40 SWAP1 KECCAK256 SLOAD PUSH1 0xFF AND DUP2 JUMP JUMPDEST CALLVALUE DUP1 ISZERO PUSH2 0xA92 JUMPI PUSH1 0x0 DUP1 REVERT JUMPDEST POP PUSH2 0x5FC PUSH2 0xAA1 CALLDATASIZE PUSH1 0x4 PUSH2 0x5231 JUMP JUMPDEST PUSH2 0x2457 JUMP JUMPDEST CALLVALUE DUP1 ISZERO PUSH2 0xAB2 JUMPI PUSH1 0x0 DUP1 REVERT JUMPDEST POP PUSH2 0x54E PUSH2 0xAC1 CALLDATASIZE PUSH1 0x4 PUSH2 0x556A JUMP JUMPDEST PUSH2 0x2467 JUMP JUMPDEST CALLVALUE DUP1 ISZERO PUSH2 0xAD2 JUMPI PUSH1 0x0 DUP1 REVERT JUMPDEST POP PUSH2 0x54E PUSH2 0xAE1 CALLDATASIZE PUSH1 0x4 PUSH2 0x524A JUMP JUMPDEST PUSH1 0x2B PUSH1 0x20 MSTORE PUSH1 0x0 SWAP1 DUP2 MSTORE PUSH1 0x40 SWAP1 KECCAK256 SLOAD DUP2 JUMP JUMPDEST CALLVALUE DUP1 ISZERO PUSH2 0xAFF JUMPI PUSH1 0x0 DUP1 REVERT JUMPDEST POP PUSH1 0x7 SLOAD PUSH2 0x5FC SWAP1 PUSH1 0x1 PUSH1 0x1 PUSH1 0xA0 SHL SUB AND DUP2 JUMP JUMPDEST CALLVALUE DUP1 ISZERO PUSH2 0xB1F JUMPI PUSH1 0x0 DUP1 REVERT JUMPDEST POP PUSH2 0x71D PUSH2 0x2480 JUMP JUMPDEST CALLVALUE DUP1 ISZERO PUSH2 0xB34 JUMPI PUSH1 0x0 DUP1 REVERT JUMPDEST POP PUSH2 0x71D PUSH2 0x253F JUMP JUMPDEST CALLVALUE DUP1 ISZERO PUSH2 0xB49 JUMPI PUSH1 0x0 DUP1 REVERT JUMPDEST POP PUSH2 0x629 PUSH2 0x2579 JUMP JUMPDEST CALLVALUE DUP1 ISZERO PUSH2 0xB5E JUMPI PUSH1 0x0 DUP1 REVERT JUMPDEST POP PUSH2 0x54E PUSH1 0x17 SLOAD DUP2 JUMP JUMPDEST CALLVALUE DUP1 ISZERO PUSH2 0xB74 JUMPI PUSH1 0x0 DUP1 REVERT JUMPDEST POP PUSH2 0x54E PUSH2 0xB83 CALLDATASIZE PUSH1 0x4 PUSH2 0x5231 JUMP JUMPDEST PUSH1 0x2F PUSH1 0x20 MSTORE PUSH1 0x0 SWAP1 DUP2 MSTORE PUSH1 0x40 SWAP1 KECCAK256 SLOAD DUP2 JUMP JUMPDEST CALLVALUE DUP1 ISZERO PUSH2 0xBA1 JUMPI PUSH1 0x0 DUP1 REVERT JUMPDEST POP PUSH1 0x23 SLOAD PUSH2 0x5FC SWAP1 PUSH1 0x1 PUSH1 0x1 PUSH1 0xA0 SHL SUB AND DUP2 JUMP JUMPDEST PUSH2 0x71D PUSH2 0xBC3 CALLDATASIZE PUSH1 0x4 PUSH2 0x56E3 JUMP JUMPDEST PUSH2 0x2586 JUMP JUMPDEST CALLVALUE DUP1 ISZERO PUSH2 0xBD4 JUMPI PUSH1 0x0 DUP1 REVERT JUMPDEST POP PUSH1 0x3 SLOAD PUSH2 0x100 SWAP1 DIV PUSH1 0x1 PUSH1 0x1 PUSH1 0xA0 SHL SUB AND PUSH2 0x5FC JUMP JUMPDEST CALLVALUE DUP1 ISZERO PUSH2 0xBF7 JUMPI PUSH1 0x0 DUP1 REVERT JUMPDEST POP PUSH2 0x629 PUSH2 0x2796 JUMP JUMPDEST CALLVALUE DUP1 ISZERO PUSH2 0xC0C JUMPI PUSH1 0x0 DUP1 REVERT JUMPDEST POP PUSH2 0x54E PUSH1 0x1C SLOAD DUP2 JUMP JUMPDEST CALLVALUE DUP1 ISZERO PUSH2 0xC22 JUMPI PUSH1 0x0 DUP1 REVERT JUMPDEST POP PUSH2 0x71D PUSH2 0xC31 CALLDATASIZE PUSH1 0x4 PUSH2 0x556A JUMP JUMPDEST PUSH2 0x27A3 JUMP JUMPDEST CALLVALUE DUP1 ISZERO PUSH2 0xC42 JUMPI PUSH1 0x0 DUP1 REVERT JUMPDEST POP PUSH2 0x71D PUSH2 0xC51 CALLDATASIZE PUSH1 0x4 PUSH2 0x579D JUMP JUMPDEST PUSH2 0x2825 JUMP JUMPDEST CALLVALUE DUP1 ISZERO PUSH2 0xC62 JUMPI PUSH1 0x0 DUP1 REVERT JUMPDEST POP PUSH2 0x71D PUSH2 0xC71 CALLDATASIZE PUSH1 0x4 PUSH2 0x57D4 JUMP JUMPDEST PUSH2 0x2830 JUMP JUMPDEST CALLVALUE DUP1 ISZERO PUSH2 0xC82 JUMPI PUSH1 0x0 DUP1 REVERT JUMPDEST POP PUSH2 0x54E PUSH1 0x1A SLOAD DUP2 JUMP JUMPDEST CALLVALUE DUP1 ISZERO PUSH2 0xC98 JUMPI PUSH1 0x0 DUP1 REVERT JUMPDEST POP PUSH1 0x20 SLOAD PUSH2 0x54E JUMP JUMPDEST CALLVALUE DUP1 ISZERO PUSH2 0xCAD JUMPI PUSH1 0x0 DUP1 REVERT JUMPDEST POP PUSH2 0x629 PUSH2 0xCBC CALLDATASIZE PUSH1 0x4 PUSH2 0x5231 JUMP JUMPDEST PUSH2 0x2E7D JUMP JUMPDEST CALLVALUE DUP1 ISZERO PUSH2 0xCCD JUMPI PUSH1 0x0 DUP1 REVERT JUMPDEST POP PUSH2 0x54E PUSH1 0x1D SLOAD DUP2 JUMP JUMPDEST CALLVALUE DUP1 ISZERO PUSH2 0xCE3 JUMPI PUSH1 0x0 DUP1 REVERT JUMPDEST POP PUSH2 0x629 PUSH2 0xCF2 CALLDATASIZE PUSH1 0x4 PUSH2 0x524A JUMP JUMPDEST PUSH2 0x2E96 JUMP JUMPDEST CALLVALUE DUP1 ISZERO PUSH2 0xD03 JUMPI PUSH1 0x0 DUP1 REVERT JUMPDEST POP PUSH1 0x37 SLOAD PUSH2 0x5FC SWAP1 PUSH1 0x1 PUSH1 0x1 PUSH1 0xA0 SHL SUB AND DUP2 JUMP JUMPDEST CALLVALUE DUP1 ISZERO PUSH2 0xD23 JUMPI PUSH1 0x0 DUP1 REVERT JUMPDEST POP PUSH2 0x54E PUSH1 0xF SLOAD DUP2 JUMP JUMPDEST CALLVALUE DUP1 ISZERO PUSH2 0xD39 JUMPI PUSH1 0x0 DUP1 REVERT JUMPDEST POP PUSH2 0x54E PUSH1 0x19 DUP2 JUMP JUMPDEST CALLVALUE DUP1 ISZERO PUSH2 0xD4E JUMPI PUSH1 0x0 DUP1 REVERT JUMPDEST POP PUSH2 0x629 PUSH2 0x2EAF JUMP JUMPDEST CALLVALUE DUP1 ISZERO PUSH2 0xD63 JUMPI PUSH1 0x0 DUP1 REVERT JUMPDEST POP PUSH2 0x71D PUSH2 0xD72 CALLDATASIZE PUSH1 0x4 PUSH2 0x513D JUMP JUMPDEST PUSH2 0x2EBC JUMP JUMPDEST CALLVALUE DUP1 ISZERO PUSH2 0xD83 JUMPI PUSH1 0x0 DUP1 REVERT JUMPDEST POP PUSH2 0x54E PUSH1 0x19 SLOAD DUP2 JUMP JUMPDEST CALLVALUE DUP1 ISZERO PUSH2 0xD99 JUMPI PUSH1 0x0 DUP1 REVERT JUMPDEST POP PUSH2 0x71D PUSH2 0xDA8 CALLDATASIZE PUSH1 0x4 PUSH2 0x556A JUMP JUMPDEST PUSH2 0x2F79 JUMP JUMPDEST CALLVALUE DUP1 ISZERO PUSH2 0xDB9 JUMPI PUSH1 0x0 DUP1 REVERT JUMPDEST POP PUSH2 0x71D PUSH2 0xDC8 CALLDATASIZE PUSH1 0x4 PUSH2 0x524A JUMP JUMPDEST PUSH2 0x303A JUMP JUMPDEST CALLVALUE DUP1 ISZERO PUSH2 0xDD9 JUMPI PUSH1 0x0 DUP1 REVERT JUMPDEST POP PUSH2 0x5FC PUSH2 0xDE8 CALLDATASIZE PUSH1 0x4 PUSH2 0x5231 JUMP JUMPDEST PUSH1 0x2C PUSH1 0x20 MSTORE PUSH1 0x0 SWAP1 DUP2 MSTORE PUSH1 0x40 SWAP1 KECCAK256 SLOAD PUSH1 0x1 PUSH1 0x1 PUSH1 0xA0 SHL SUB AND DUP2 JUMP JUMPDEST CALLVALUE DUP1 ISZERO PUSH2 0xE0F JUMPI PUSH1 0x0 DUP1 REVERT JUMPDEST POP PUSH2 0x54E PUSH2 0x314A JUMP JUMPDEST CALLVALUE DUP1 ISZERO PUSH2 0xE24 JUMPI PUSH1 0x0 DUP1 REVERT JUMPDEST POP PUSH2 0x54E PUSH2 0xE33 CALLDATASIZE PUSH1 0x4 PUSH2 0x5231 JUMP JUMPDEST PUSH1 0x2D PUSH1 0x20 MSTORE PUSH1 0x0 SWAP1 DUP2 MSTORE PUSH1 0x40 SWAP1 KECCAK256 SLOAD DUP2 JUMP JUMPDEST CALLVALUE DUP1 ISZERO PUSH2 0xE51 JUMPI PUSH1 0x0 DUP1 REVERT JUMPDEST POP PUSH1 0xE SLOAD PUSH2 0x581 SWAP1 PUSH1 0xFF AND DUP2 JUMP JUMPDEST CALLVALUE DUP1 ISZERO PUSH2 0xE6B JUMPI PUSH1 0x0 DUP1 REVERT JUMPDEST POP PUSH2 0x581 PUSH2 0xE7A CALLDATASIZE PUSH1 0x4 PUSH2 0x58B2 JUMP JUMPDEST PUSH1 0x1 PUSH1 0x1 PUSH1 0xA0 SHL SUB SWAP2 DUP3 AND PUSH1 0x0 SWAP1 DUP2 MSTORE PUSH1 0x1 PUSH1 0x20 SWAP1 DUP2 MSTORE PUSH1 0x40 DUP1 DUP4 KECCAK256 SWAP4 SWAP1 SWAP5 AND DUP3 MSTORE SWAP2 SWAP1 SWAP2 MSTORE KECCAK256 SLOAD PUSH1 0xFF AND SWAP1 JUMP JUMPDEST CALLVALUE DUP1 ISZERO PUSH2 0xEB4 JUMPI PUSH1 0x0 DUP1 REVERT JUMPDEST POP PUSH2 0x71D PUSH2 0x31E5 JUMP JUMPDEST CALLVALUE DUP1 ISZERO PUSH2 0xEC9 JUMPI PUSH1 0x0 DUP1 REVERT JUMPDEST POP PUSH2 0xED2 PUSH2 0x329C JUMP JUMPDEST PUSH1 0x40 MLOAD PUSH2 0x558 SWAP2 SWAP1 PUSH2 0x58DC JUMP JUMPDEST CALLVALUE DUP1 ISZERO PUSH2 0xEEB JUMPI PUSH1 0x0 DUP1 REVERT JUMPDEST POP PUSH1 0x10 SLOAD PUSH2 0x581 SWAP1 PUSH1 0xFF AND DUP2 JUMP JUMPDEST CALLVALUE DUP1 ISZERO PUSH2 0xF05 JUMPI PUSH1 0x0 DUP1 REVERT JUMPDEST POP PUSH2 0x71D PUSH2 0xF14 CALLDATASIZE PUSH1 0x4 PUSH2 0x58EF JUMP JUMPDEST PUSH2 0x3368 JUMP JUMPDEST CALLVALUE DUP1 ISZERO PUSH2 0xF25 JUMPI PUSH1 0x0 DUP1 REVERT JUMPDEST POP PUSH2 0x54E PUSH2 0xF34 CALLDATASIZE PUSH1 0x4 PUSH2 0x519A JUMP JUMPDEST PUSH2 0x3555 JUMP JUMPDEST CALLVALUE DUP1 ISZERO PUSH2 0xF45 JUMPI PUSH1 0x0 DUP1 REVERT JUMPDEST POP PUSH2 0x71D PUSH2 0xF54 CALLDATASIZE PUSH1 0x4 PUSH2 0x519A JUMP JUMPDEST PUSH2 0x35E3 JUMP JUMPDEST CALLVALUE DUP1 ISZERO PUSH2 0xF65 JUMPI PUSH1 0x0 DUP1 REVERT JUMPDEST POP PUSH2 0x71D PUSH2 0xF74 CALLDATASIZE PUSH1 0x4 PUSH2 0x590C JUMP JUMPDEST PUSH2 0x3685 JUMP JUMPDEST CALLVALUE DUP1 ISZERO PUSH2 0xF85 JUMPI PUSH1 0x0 DUP1 REVERT JUMPDEST POP PUSH2 0x71D PUSH2 0xF94 CALLDATASIZE PUSH1 0x4 PUSH2 0x524A JUMP JUMPDEST PUSH2 0x37D7 JUMP JUMPDEST CALLVALUE DUP1 ISZERO PUSH2 0xFA5 JUMPI PUSH1 0x0 DUP1 REVERT JUMPDEST POP PUSH2 0x71D PUSH2 0x3878 JUMP JUMPDEST CALLVALUE DUP1 ISZERO PUSH2 0xFBA JUMPI PUSH1 0x0 DUP1 REVERT JUMPDEST POP PUSH2 0x54E PUSH2 0x39AB JUMP JUMPDEST CALLVALUE DUP1 ISZERO PUSH2 0xFCF JUMPI PUSH1 0x0 DUP1 REVERT JUMPDEST POP PUSH2 0x71D PUSH2 0xFDE CALLDATASIZE PUSH1 0x4 PUSH2 0x5970 JUMP JUMPDEST PUSH2 0x3A61 JUMP JUMPDEST PUSH1 0x0 PUSH1 0x1 PUSH1 0x1 PUSH1 0xA0 SHL SUB DUP4 AND PUSH2 0x1054 JUMPI PUSH1 0x40 MLOAD PUSH3 0x461BCD PUSH1 0xE5 SHL DUP2 MSTORE PUSH1 0x20 PUSH1 0x4 DUP3 ADD MSTORE PUSH1 0x2B PUSH1 0x24 DUP3 ADD MSTORE PUSH32 0x455243313135353A2062616C616E636520717565727920666F7220746865207A PUSH1 0x44 DUP3 ADD MSTORE PUSH11 0x65726F2061646472657373 PUSH1 0xA8 SHL PUSH1 0x64 DUP3 ADD MSTORE PUSH1 0x84 ADD JUMPDEST PUSH1 0x40 MLOAD DUP1 SWAP2 SUB SWAP1 REVERT JUMPDEST POP PUSH1 0x0 DUP2 DUP2 MSTORE PUSH1 0x20 DUP2 DUP2 MSTORE PUSH1 0x40 DUP1 DUP4 KECCAK256 PUSH1 0x1 PUSH1 0x1 PUSH1 0xA0 SHL SUB DUP7 AND DUP5 MSTORE SWAP1 SWAP2 MSTORE SWAP1 KECCAK256 SLOAD JUMPDEST SWAP3 SWAP2 POP POP JUMP JUMPDEST PUSH1 0x0 PUSH1 0x1 PUSH1 0x1 PUSH1 0xE0 SHL SUB NOT DUP3 AND PUSH4 0x6CDB3D13 PUSH1 0xE1 SHL EQ DUP1 PUSH2 0x10AE JUMPI POP PUSH1 0x1 PUSH1 0x1 PUSH1 0xE0 SHL SUB NOT DUP3 AND PUSH4 0x3A24D07 PUSH1 0xE2 SHL EQ JUMPDEST DUP1 PUSH2 0x1077 JUMPI POP PUSH4 0x1FFC9A7 PUSH1 0xE0 SHL PUSH1 0x1 PUSH1 0x1 PUSH1 0xE0 SHL SUB NOT DUP4 AND EQ PUSH2 0x1077 JUMP JUMPDEST PUSH1 0x0 PUSH2 0x10DA DUP5 DUP5 DUP5 PUSH2 0x3DFB JUMP JUMPDEST SWAP5 SWAP4 POP POP POP POP JUMP JUMPDEST PUSH1 0x0 DUP1 PUSH2 0x10F0 DUP6 DUP6 DUP6 PUSH2 0x3DFB JUMP JUMPDEST PUSH1 0x0 SWAP1 DUP2 MSTORE PUSH1 0x2C PUSH1 0x20 MSTORE PUSH1 0x40 SWAP1 KECCAK256 SLOAD PUSH1 0x1 PUSH1 0x1 PUSH1 0xA0 SHL SUB AND SWAP6 SWAP5 POP POP POP POP POP JUMP JUMPDEST PUSH1 0x13 DUP1 SLOAD PUSH2 0x111E SWAP1 PUSH2 0x5A39 JUMP JUMPDEST DUP1 PUSH1 0x1F ADD PUSH1 0x20 DUP1 SWAP2 DIV MUL PUSH1 0x20 ADD PUSH1 0x40 MLOAD SWAP1 DUP2 ADD PUSH1 0x40 MSTORE DUP1 SWAP3 SWAP2 SWAP1 DUP2 DUP2 MSTORE PUSH1 0x20 ADD DUP3 DUP1 SLOAD PUSH2 0x114A SWAP1 PUSH2 0x5A39 JUMP JUMPDEST DUP1 ISZERO PUSH2 0x1197 JUMPI DUP1 PUSH1 0x1F LT PUSH2 0x116C JUMPI PUSH2 0x100 DUP1 DUP4 SLOAD DIV MUL DUP4 MSTORE SWAP2 PUSH1 0x20 ADD SWAP2 PUSH2 0x1197 JUMP JUMPDEST DUP3 ADD SWAP2 SWAP1 PUSH1 0x0 MSTORE PUSH1 0x20 PUSH1 0x0 KECCAK256 SWAP1 JUMPDEST DUP2 SLOAD DUP2 MSTORE SWAP1 PUSH1 0x1 ADD SWAP1 PUSH1 0x20 ADD DUP1 DUP4 GT PUSH2 0x117A JUMPI DUP3 SWAP1 SUB PUSH1 0x1F AND DUP3 ADD SWAP2 JUMPDEST POP POP POP POP POP DUP2 JUMP JUMPDEST PUSH1 0x20 DUP2 DUP2 SLOAD DUP2 LT PUSH2 0x11AF JUMPI PUSH1 0x0 DUP1 REVERT JUMPDEST PUSH1 0x0 SWAP2 DUP3 MSTORE PUSH1 0x20 SWAP1 SWAP2 KECCAK256 ADD SLOAD SWAP1 POP DUP2 JUMP JUMPDEST PUSH1 0x60 PUSH1 0x2 DUP1 SLOAD PUSH2 0x11CF SWAP1 PUSH2 0x5A39 JUMP JUMPDEST DUP1 PUSH1 0x1F ADD PUSH1 0x20 DUP1 SWAP2 DIV MUL PUSH1 0x20 ADD PUSH1 0x40 MLOAD SWAP1 DUP2 ADD PUSH1 0x40 MSTORE DUP1 SWAP3 SWAP2 SWAP1 DUP2 DUP2 MSTORE PUSH1 0x20 ADD DUP3 DUP1 SLOAD PUSH2 0x11FB SWAP1 PUSH2 0x5A39 JUMP JUMPDEST DUP1 ISZERO PUSH2 0x1248 JUMPI DUP1 PUSH1 0x1F LT PUSH2 0x121D JUMPI PUSH2 0x100 DUP1 DUP4 SLOAD DIV MUL DUP4 MSTORE SWAP2 PUSH1 0x20 ADD SWAP2 PUSH2 0x1248 JUMP JUMPDEST DUP3 ADD SWAP2 SWAP1 PUSH1 0x0 MSTORE PUSH1 0x20 PUSH1 0x0 KECCAK256 SWAP1 JUMPDEST DUP2 SLOAD DUP2 MSTORE SWAP1 PUSH1 0x1 ADD SWAP1 PUSH1 0x20 ADD DUP1 DUP4 GT PUSH2 0x122B JUMPI DUP3 SWAP1 SUB PUSH1 0x1F AND DUP3 ADD SWAP2 JUMPDEST POP POP POP POP POP SWAP1 POP SWAP2 SWAP1 POP JUMP JUMPDEST PUSH1 0x60 DUP1 PUSH1 0x0 PUSH1 0x20 DUP1 SLOAD SWAP1 POP PUSH1 0x1 PUSH1 0x1 PUSH1 0x40 SHL SUB DUP2 GT ISZERO PUSH2 0x1276 JUMPI PUSH2 0x1276 PUSH2 0x533D JUMP JUMPDEST PUSH1 0x40 MLOAD SWAP1 DUP1 DUP3 MSTORE DUP1 PUSH1 0x20 MUL PUSH1 0x20 ADD DUP3 ADD PUSH1 0x40 MSTORE DUP1 ISZERO PUSH2 0x129F JUMPI DUP2 PUSH1 0x20 ADD PUSH1 0x20 DUP3 MUL DUP1 CALLDATASIZE DUP4 CALLDATACOPY ADD SWAP1 POP JUMPDEST POP PUSH1 0x20 SLOAD SWAP1 SWAP2 POP PUSH1 0x0 SWAP1 PUSH1 0x1 PUSH1 0x1 PUSH1 0x40 SHL SUB DUP2 GT ISZERO PUSH2 0x12C0 JUMPI PUSH2 0x12C0 PUSH2 0x533D JUMP JUMPDEST PUSH1 0x40 MLOAD SWAP1 DUP1 DUP3 MSTORE DUP1 PUSH1 0x20 MUL PUSH1 0x20 ADD DUP3 ADD PUSH1 0x40 MSTORE DUP1 ISZERO PUSH2 0x12E9 JUMPI DUP2 PUSH1 0x20 ADD PUSH1 0x20 DUP3 MUL DUP1 CALLDATASIZE DUP4 CALLDATACOPY ADD SWAP1 POP JUMPDEST POP SWAP1 POP PUSH1 0x0 JUMPDEST PUSH1 0x20 SLOAD DUP2 LT ISZERO PUSH2 0x13B5 JUMPI PUSH1 0x20 DUP2 DUP2 SLOAD DUP2 LT PUSH2 0x130C JUMPI PUSH2 0x130C PUSH2 0x50DD JUMP JUMPDEST SWAP1 PUSH1 0x0 MSTORE PUSH1 0x20 PUSH1 0x0 KECCAK256 ADD SLOAD DUP4 DUP3 DUP2 MLOAD DUP2 LT PUSH2 0x1329 JUMPI PUSH2 0x1329 PUSH2 0x50DD JUMP JUMPDEST PUSH1 0x20 MUL PUSH1 0x20 ADD ADD DUP2 DUP2 MSTORE POP POP PUSH1 0x2C PUSH1 0x0 PUSH1 0x20 DUP4 DUP2 SLOAD DUP2 LT PUSH2 0x134C JUMPI PUSH2 0x134C PUSH2 0x50DD JUMP JUMPDEST SWAP1 PUSH1 0x0 MSTORE PUSH1 0x20 PUSH1 0x0 KECCAK256 ADD SLOAD DUP2 MSTORE PUSH1 0x20 ADD SWAP1 DUP2 MSTORE PUSH1 0x20 ADD PUSH1 0x0 KECCAK256 PUSH1 0x0 SWAP1 SLOAD SWAP1 PUSH2 0x100 EXP SWAP1 DIV PUSH1 0x1 PUSH1 0x1 PUSH1 0xA0 SHL SUB AND DUP3 DUP3 DUP2 MLOAD DUP2 LT PUSH2 0x138B JUMPI PUSH2 0x138B PUSH2 0x50DD JUMP JUMPDEST PUSH1 0x1 PUSH1 0x1 PUSH1 0xA0 SHL SUB SWAP1 SWAP3 AND PUSH1 0x20 SWAP3 DUP4 MUL SWAP2 SWAP1 SWAP2 ADD SWAP1 SWAP2 ADD MSTORE DUP1 PUSH2 0x13AD DUP2 PUSH2 0x5A6E JUMP JUMPDEST SWAP2 POP POP PUSH2 0x12EF JUMP JUMPDEST POP SWAP1 SWAP4 SWAP1 SWAP3 POP SWAP1 POP JUMP JUMPDEST PUSH1 0x3 SLOAD PUSH1 0x1 PUSH1 0x1 PUSH1 0xA0 SHL SUB PUSH2 0x100 SWAP1 SWAP2 DIV AND CALLER EQ PUSH2 0x13EF JUMPI PUSH1 0x40 MLOAD PUSH3 0x461BCD PUSH1 0xE5 SHL DUP2 MSTORE PUSH1 0x4 ADD PUSH2 0x104B SWAP1 PUSH2 0x5A89 JUMP JUMPDEST PUSH1 0x3 SLOAD PUSH1 0xFF AND ISZERO PUSH2 0x1404 JUMPI PUSH2 0x1402 PUSH2 0x3EC0 JUMP JUMPDEST JUMP JUMPDEST PUSH2 0x1402 PUSH2 0x3F53 JUMP JUMPDEST PUSH1 0x3 SLOAD PUSH1 0xFF AND ISZERO PUSH2 0x142F JUMPI PUSH1 0x40 MLOAD PUSH3 0x461BCD PUSH1 0xE5 SHL DUP2 MSTORE PUSH1 0x4 ADD PUSH2 0x104B SWAP1 PUSH2 0x5ABE JUMP JUMPDEST PUSH1 0x1E PUSH2 0x143D PUSH1 0x1F SLOAD TIMESTAMP PUSH2 0x3FAB JUMP JUMPDEST LT ISZERO PUSH2 0x1471 JUMPI PUSH1 0x40 MLOAD PUSH3 0x461BCD PUSH1 0xE5 SHL DUP2 MSTORE PUSH1 0x20 PUSH1 0x4 DUP3 ADD MSTORE PUSH1 0x3 PUSH1 0x24 DUP3 ADD MSTORE PUSH3 0x653133 PUSH1 0xE8 SHL PUSH1 0x44 DUP3 ADD MSTORE PUSH1 0x64 ADD PUSH2 0x104B JUMP JUMPDEST PUSH1 0x0 PUSH2 0x147B PUSH2 0x314A JUMP JUMPDEST PUSH1 0x37 SLOAD PUSH1 0x1 PUSH1 0x1 PUSH1 0xA0 SHL SUB AND PUSH1 0x0 SWAP1 DUP2 MSTORE PUSH1 0x36 PUSH1 0x20 MSTORE PUSH1 0x40 SWAP1 KECCAK256 SLOAD SWAP1 SWAP2 POP DUP2 GT ISZERO PUSH2 0x14CE JUMPI PUSH1 0x40 MLOAD PUSH3 0x461BCD PUSH1 0xE5 SHL DUP2 MSTORE PUSH1 0x20 PUSH1 0x4 DUP3 ADD MSTORE PUSH1 0x3 PUSH1 0x24 DUP3 ADD MSTORE PUSH3 0x194C4D PUSH1 0xEA SHL PUSH1 0x44 DUP3 ADD MSTORE PUSH1 0x64 ADD PUSH2 0x104B JUMP JUMPDEST PUSH1 0x7 SLOAD PUSH1 0x37 SLOAD PUSH1 0x1 PUSH1 0x1 PUSH1 0xA0 SHL SUB SWAP1 DUP2 AND SWAP2 AND EQ PUSH2 0x156A JUMPI PUSH1 0x37 SLOAD PUSH1 0x7 SLOAD PUSH1 0x40 MLOAD PUSH1 0x1 PUSH1 0x1 PUSH1 0xA0 SHL SUB SWAP3 DUP4 AND SWAP3 SWAP1 SWAP2 AND SWAP1 PUSH32 0xE70739823D1A1030055333E7BB502F88B41F9631ED3C87A09811FDB1A4ED0F83 SWAP1 PUSH1 0x0 SWAP1 LOG3 PUSH1 0x37 SLOAD PUSH1 0x7 DUP1 SLOAD PUSH1 0x1 PUSH1 0x1 PUSH1 0xA0 SHL SUB NOT AND PUSH1 0x1 PUSH1 0x1 PUSH1 0xA0 SHL SUB SWAP1 SWAP3 AND SWAP2 DUP3 OR SWAP1 SSTORE PUSH1 0x9 SLOAD PUSH1 0x8 SSTORE PUSH1 0x40 DUP1 MLOAD PUSH1 0x20 DUP2 ADD SWAP1 SWAP2 MSTORE PUSH1 0x0 DUP2 MSTORE PUSH2 0x156A SWAP2 SWAP1 PUSH1 0x1 SWAP1 DUP2 SWAP1 PUSH2 0x3FD2 JUMP JUMPDEST PUSH1 0x1 JUMPDEST PUSH1 0x3 DUP2 GT PUSH2 0x19A1 JUMPI PUSH2 0x157D PUSH2 0x4FD1 JUMP JUMPDEST PUSH1 0x0 DUP3 DUP2 MSTORE PUSH1 0x39 PUSH1 0x20 SWAP1 DUP2 MSTORE PUSH1 0x40 DUP1 DUP4 KECCAK256 DUP4 DUP1 MSTORE DUP1 DUP4 MSTORE DUP2 DUP5 KECCAK256 SLOAD DUP6 MSTORE PUSH1 0x1 DUP1 DUP6 MSTORE DUP2 DUP5 MSTORE DUP3 DUP6 KECCAK256 SLOAD DUP7 DUP6 ADD MSTORE PUSH1 0x2 DUP6 MSTORE DUP2 DUP5 MSTORE DUP3 DUP6 KECCAK256 SLOAD DUP7 DUP5 ADD MSTORE PUSH1 0x3 DUP6 MSTORE DUP2 DUP5 MSTORE DUP3 DUP6 KECCAK256 SLOAD PUSH1 0x60 DUP8 ADD MSTORE PUSH1 0x4 DUP6 MSTORE SWAP3 MSTORE DUP3 KECCAK256 SLOAD PUSH1 0x80 DUP5 ADD DUP2 SWAP1 MSTORE DUP4 MLOAD PUSH2 0x1605 SWAP3 PUSH2 0xAC1 SWAP2 PUSH2 0x15F4 SWAP2 DUP8 SWAP1 JUMPDEST PUSH1 0x20 MUL ADD MLOAD PUSH2 0x2467 JUMP JUMPDEST PUSH1 0x40 DUP7 ADD MLOAD PUSH2 0xAC1 SWAP1 DUP8 PUSH1 0x3 PUSH2 0x15EA JUMP JUMPDEST DUP3 MLOAD SWAP1 SWAP2 POP DUP2 EQ ISZERO PUSH2 0x1644 JUMPI PUSH1 0x0 JUMPDEST PUSH1 0x40 MLOAD DUP5 SWAP1 PUSH32 0x6F235CA67A520AA7BBE234E1490553D4DD8FC8F277D1E70E2F2E8B847858AE11 SWAP1 PUSH1 0x0 SWAP1 LOG3 PUSH2 0x192C JUMP JUMPDEST PUSH1 0x20 DUP3 ADD MLOAD DUP2 EQ ISZERO PUSH2 0x16F8 JUMPI PUSH1 0x0 PUSH1 0x2A PUSH1 0x0 PUSH1 0x25 DUP7 PUSH1 0x5 DUP2 LT PUSH2 0x1669 JUMPI PUSH2 0x1669 PUSH2 0x50DD JUMP JUMPDEST ADD SLOAD PUSH1 0x1 PUSH1 0x1 PUSH1 0xA0 SHL SUB AND DUP2 MSTORE PUSH1 0x20 DUP2 ADD SWAP2 SWAP1 SWAP2 MSTORE PUSH1 0x40 ADD PUSH1 0x0 SWAP1 DUP2 KECCAK256 SLOAD SWAP2 POP PUSH1 0x2A DUP2 PUSH1 0x25 DUP8 PUSH1 0x5 DUP2 LT PUSH2 0x169F JUMPI PUSH2 0x169F PUSH2 0x50DD JUMP JUMPDEST ADD SLOAD PUSH1 0x1 PUSH1 0x1 PUSH1 0xA0 SHL SUB AND DUP2 MSTORE PUSH1 0x20 DUP2 ADD SWAP2 SWAP1 SWAP2 MSTORE PUSH1 0x40 ADD PUSH1 0x0 KECCAK256 SSTORE PUSH2 0x16C4 DUP2 PUSH2 0x40E2 JUMP JUMPDEST PUSH1 0x1 JUMPDEST PUSH1 0x40 MLOAD DUP6 SWAP1 PUSH32 0x6F235CA67A520AA7BBE234E1490553D4DD8FC8F277D1E70E2F2E8B847858AE11 SWAP1 PUSH1 0x0 SWAP1 LOG3 POP PUSH2 0x192C JUMP JUMPDEST PUSH1 0x40 DUP3 ADD MLOAD DUP2 EQ ISZERO PUSH2 0x177F JUMPI PUSH1 0x0 PUSH1 0x2A PUSH1 0x0 PUSH1 0x25 DUP7 PUSH1 0x5 DUP2 LT PUSH2 0x171D JUMPI PUSH2 0x171D PUSH2 0x50DD JUMP JUMPDEST ADD SLOAD PUSH1 0x1 PUSH1 0x1 PUSH1 0xA0 SHL SUB AND DUP2 MSTORE PUSH1 0x20 DUP2 ADD SWAP2 SWAP1 SWAP2 MSTORE PUSH1 0x40 ADD PUSH1 0x0 SWAP1 DUP2 KECCAK256 SLOAD SWAP2 POP PUSH1 0x2A DUP2 PUSH1 0x25 DUP8 PUSH1 0x5 DUP2 LT PUSH2 0x1753 JUMPI PUSH2 0x1753 PUSH2 0x50DD JUMP JUMPDEST ADD SLOAD PUSH1 0x1 PUSH1 0x1 PUSH1 0xA0 SHL SUB AND DUP2 MSTORE PUSH1 0x20 DUP2 ADD SWAP2 SWAP1 SWAP2 MSTORE PUSH1 0x40 ADD PUSH1 0x0 KECCAK256 SSTORE PUSH2 0x1778 DUP2 PUSH2 0x41C0 JUMP JUMPDEST PUSH1 0x2 PUSH2 0x16C7 JUMP JUMPDEST PUSH1 0x60 DUP3 ADD MLOAD DUP2 EQ ISZERO PUSH2 0x1837 JUMPI PUSH1 0x2A PUSH1 0x0 PUSH1 0x25 DUP6 PUSH1 0x5 DUP2 LT PUSH2 0x17A2 JUMPI PUSH2 0x17A2 PUSH2 0x50DD JUMP JUMPDEST ADD SLOAD PUSH1 0x1 PUSH1 0x1 PUSH1 0xA0 SHL SUB SWAP1 DUP2 AND DUP3 MSTORE PUSH1 0x20 DUP1 DUP4 ADD SWAP4 SWAP1 SWAP4 MSTORE PUSH1 0x40 SWAP2 DUP3 ADD PUSH1 0x0 SWAP1 DUP2 KECCAK256 SLOAD PUSH1 0x29 SLOAD SWAP1 SWAP3 AND DUP2 MSTORE PUSH1 0x2A SWAP1 SWAP4 MSTORE SWAP2 KECCAK256 SLOAD PUSH2 0x17DF SWAP2 SWAP1 PUSH2 0x5109 JUMP JUMPDEST PUSH1 0x29 SLOAD PUSH1 0x1 PUSH1 0x1 PUSH1 0xA0 SHL SUB AND PUSH1 0x0 SWAP1 DUP2 MSTORE PUSH1 0x2A PUSH1 0x20 DUP2 SWAP1 MSTORE PUSH1 0x40 DUP3 KECCAK256 SWAP3 SWAP1 SWAP3 SSTORE SWAP1 DUP2 PUSH1 0x25 DUP7 PUSH1 0x5 DUP2 LT PUSH2 0x1814 JUMPI PUSH2 0x1814 PUSH2 0x50DD JUMP JUMPDEST ADD SLOAD PUSH1 0x1 PUSH1 0x1 PUSH1 0xA0 SHL SUB AND DUP2 MSTORE PUSH1 0x20 DUP2 ADD SWAP2 SWAP1 SWAP2 MSTORE PUSH1 0x40 ADD PUSH1 0x0 KECCAK256 SSTORE PUSH1 0x3 PUSH2 0x1614 JUMP JUMPDEST PUSH1 0x80 DUP3 ADD MLOAD DUP2 EQ ISZERO PUSH2 0x192C JUMPI PUSH1 0x7 SLOAD PUSH1 0x1 PUSH1 0x1 PUSH1 0xA0 SHL SUB AND ISZERO PUSH2 0x192C JUMPI PUSH1 0x0 PUSH1 0x2A PUSH1 0x0 PUSH1 0x25 DUP7 PUSH1 0x5 DUP2 LT PUSH2 0x186D JUMPI PUSH2 0x186D PUSH2 0x50DD JUMP JUMPDEST ADD SLOAD PUSH1 0x1 PUSH1 0x1 PUSH1 0xA0 SHL SUB AND DUP2 MSTORE PUSH1 0x20 DUP2 ADD SWAP2 SWAP1 SWAP2 MSTORE PUSH1 0x40 ADD PUSH1 0x0 SWAP1 DUP2 KECCAK256 SLOAD SWAP2 POP PUSH1 0x2A DUP2 PUSH1 0x25 DUP8 PUSH1 0x5 DUP2 LT PUSH2 0x18A3 JUMPI PUSH2 0x18A3 PUSH2 0x50DD JUMP JUMPDEST ADD SLOAD PUSH1 0x1 PUSH1 0x1 PUSH1 0xA0 SHL SUB SWAP1 DUP2 AND DUP3 MSTORE PUSH1 0x20 DUP1 DUP4 ADD SWAP4 SWAP1 SWAP4 MSTORE PUSH1 0x40 SWAP2 DUP3 ADD PUSH1 0x0 SWAP1 DUP2 KECCAK256 SWAP5 SWAP1 SWAP5 SSTORE PUSH1 0x7 SLOAD AND DUP4 MSTORE PUSH1 0x2A SWAP1 SWAP2 MSTORE SWAP1 KECCAK256 SLOAD PUSH2 0x18E2 SWAP1 DUP3 SWAP1 PUSH2 0x5109 JUMP JUMPDEST PUSH1 0x7 SLOAD PUSH1 0x1 PUSH1 0x1 PUSH1 0xA0 SHL SUB AND PUSH1 0x0 SWAP1 DUP2 MSTORE PUSH1 0x2A PUSH1 0x20 MSTORE PUSH1 0x40 SWAP1 KECCAK256 SSTORE PUSH1 0x4 PUSH1 0x40 MLOAD DUP6 SWAP1 PUSH32 0x6F235CA67A520AA7BBE234E1490553D4DD8FC8F277D1E70E2F2E8B847858AE11 SWAP1 PUSH1 0x0 SWAP1 LOG3 POP JUMPDEST PUSH1 0x29 SLOAD PUSH1 0x1 PUSH1 0x1 PUSH1 0xA0 SHL SUB SWAP1 DUP2 AND PUSH1 0x0 SWAP1 DUP2 MSTORE PUSH1 0x2A PUSH1 0x20 MSTORE PUSH1 0x40 DUP1 DUP3 KECCAK256 SLOAD PUSH1 0x24 SLOAD SWAP1 SWAP4 AND DUP3 MSTORE SWAP1 KECCAK256 SLOAD PUSH2 0x195F SWAP2 SWAP1 PUSH2 0x5109 JUMP JUMPDEST PUSH1 0x24 SLOAD PUSH1 0x1 PUSH1 0x1 PUSH1 0xA0 SHL SUB SWAP1 DUP2 AND PUSH1 0x0 SWAP1 DUP2 MSTORE PUSH1 0x2A PUSH1 0x20 MSTORE PUSH1 0x40 DUP1 DUP3 KECCAK256 SWAP4 SWAP1 SWAP4 SSTORE PUSH1 0x29 SLOAD SWAP1 SWAP2 AND DUP2 MSTORE SWAP1 DUP2 KECCAK256 SSTORE POP DUP2 SWAP1 POP PUSH2 0x1999 DUP2 PUSH2 0x5A6E JUMP JUMPDEST SWAP2 POP POP PUSH2 0x156D JUMP JUMPDEST POP TIMESTAMP PUSH1 0x1F DUP2 SWAP1 SSTORE PUSH1 0x40 MLOAD CALLER SWAP1 PUSH32 0x4D659E18A7AADB416D8601A2418A0F9D1117ECAC88CAAD93FADB7E895912ABCE SWAP1 PUSH1 0x0 SWAP1 LOG3 POP JUMP JUMPDEST PUSH1 0x25 DUP2 PUSH1 0x5 DUP2 LT PUSH2 0x19E6 JUMPI PUSH1 0x0 DUP1 REVERT JUMPDEST ADD SLOAD PUSH1 0x1 PUSH1 0x1 PUSH1 0xA0 SHL SUB AND SWAP1 POP DUP2 JUMP JUMPDEST PUSH1 0x11 DUP1 SLOAD PUSH2 0x111E SWAP1 PUSH2 0x5A39 JUMP JUMPDEST PUSH1 0x3 SLOAD PUSH1 0xFF AND ISZERO PUSH2 0x1A26 JUMPI PUSH1 0x40 MLOAD PUSH3 0x461BCD PUSH1 0xE5 SHL DUP2 MSTORE PUSH1 0x4 ADD PUSH2 0x104B SWAP1 PUSH2 0x5ABE JUMP JUMPDEST PUSH1 0xE SLOAD PUSH1 0xFF AND ISZERO DUP1 PUSH2 0x1A46 JUMPI POP CALLER PUSH1 0x0 SWAP1 DUP2 MSTORE PUSH1 0x2B PUSH1 0x20 MSTORE PUSH1 0x40 SWAP1 KECCAK256 SLOAD ISZERO ISZERO JUMPDEST PUSH2 0x1A77 JUMPI PUSH1 0x40 MLOAD PUSH3 0x461BCD PUSH1 0xE5 SHL DUP2 MSTORE PUSH1 0x20 PUSH1 0x4 DUP3 ADD MSTORE PUSH1 0x2 PUSH1 0x24 DUP3 ADD MSTORE PUSH2 0x3299 PUSH1 0xF1 SHL PUSH1 0x44 DUP3 ADD MSTORE PUSH1 0x64 ADD PUSH2 0x104B JUMP JUMPDEST DUP3 ISZERO DUP1 PUSH2 0x1A84 JUMPI POP PUSH1 0xC DUP4 GT JUMPDEST ISZERO PUSH2 0x1AB6 JUMPI PUSH1 0x40 MLOAD PUSH3 0x461BCD PUSH1 0xE5 SHL DUP2 MSTORE PUSH1 0x20 PUSH1 0x4 DUP3 ADD MSTORE PUSH1 0x2 PUSH1 0x24 DUP3 ADD MSTORE PUSH2 0x6533 PUSH1 0xF0 SHL PUSH1 0x44 DUP3 ADD MSTORE PUSH1 0x64 ADD PUSH2 0x104B JUMP JUMPDEST DUP2 ISZERO DUP1 PUSH2 0x1AC3 JUMPI POP PUSH1 0x1F DUP3 GT JUMPDEST ISZERO PUSH2 0x1AF5 JUMPI PUSH1 0x40 MLOAD PUSH3 0x461BCD PUSH1 0xE5 SHL DUP2 MSTORE PUSH1 0x20 PUSH1 0x4 DUP3 ADD MSTORE PUSH1 0x2 PUSH1 0x24 DUP3 ADD MSTORE PUSH2 0x194D PUSH1 0xF2 SHL PUSH1 0x44 DUP3 ADD MSTORE PUSH1 0x64 ADD PUSH2 0x104B JUMP JUMPDEST DUP3 PUSH1 0x4 EQ DUP1 PUSH2 0x1B04 JUMPI POP DUP3 PUSH1 0x6 EQ JUMPDEST DUP1 PUSH2 0x1B0F JUMPI POP DUP3 PUSH1 0x9 EQ JUMPDEST DUP1 PUSH2 0x1B1A JUMPI POP DUP3 PUSH1 0xB EQ JUMPDEST DUP1 ISZERO PUSH2 0x1B26 JUMPI POP PUSH1 0x1E DUP3 GT JUMPDEST DUP1 PUSH2 0x1B4C JUMPI POP DUP3 PUSH1 0x2 EQ DUP1 ISZERO PUSH2 0x1B40 JUMPI POP PUSH2 0x1B40 DUP5 PUSH2 0x3E16 JUMP JUMPDEST DUP1 ISZERO PUSH2 0x1B4C JUMPI POP PUSH1 0x1D DUP3 GT JUMPDEST DUP1 PUSH2 0x1B74 JUMPI POP DUP3 PUSH1 0x2 EQ DUP1 ISZERO PUSH2 0x1B68 JUMPI POP PUSH2 0x1B66 DUP5 PUSH2 0x3E16 JUMP JUMPDEST ISZERO JUMPDEST DUP1 ISZERO PUSH2 0x1B74 JUMPI POP PUSH1 0x1C DUP3 GT JUMPDEST ISZERO PUSH2 0x1B9C JUMPI PUSH1 0x40 MLOAD PUSH4 0x24E2BA21 PUSH1 0xE1 SHL DUP2 MSTORE PUSH1 0x4 DUP2 ADD DUP5 SWAP1 MSTORE PUSH1 0x24 DUP2 ADD DUP4 SWAP1 MSTORE PUSH1 0x44 ADD PUSH2 0x104B JUMP JUMPDEST PUSH1 0x0 PUSH2 0x1BA9 DUP6 DUP6 DUP6 PUSH2 0x3DFB JUMP JUMPDEST SWAP1 POP TIMESTAMP DUP2 GT ISZERO DUP1 ISZERO PUSH2 0x1BBD JUMPI POP PUSH1 0x1D SLOAD DUP2 LT ISZERO JUMPDEST PUSH2 0x1BEE JUMPI PUSH1 0x40 MLOAD PUSH3 0x461BCD PUSH1 0xE5 SHL DUP2 MSTORE PUSH1 0x20 PUSH1 0x4 DUP3 ADD MSTORE PUSH1 0x2 PUSH1 0x24 DUP3 ADD MSTORE PUSH2 0x6535 PUSH1 0xF0 SHL PUSH1 0x44 DUP3 ADD MSTORE PUSH1 0x64 ADD PUSH2 0x104B JUMP JUMPDEST PUSH1 0x0 DUP2 DUP2 MSTORE PUSH1 0x2C PUSH1 0x20 MSTORE PUSH1 0x40 SWAP1 KECCAK256 SLOAD PUSH1 0x1 PUSH1 0x1 PUSH1 0xA0 SHL SUB AND ISZERO PUSH2 0x1C38 JUMPI PUSH1 0x40 MLOAD PUSH3 0x461BCD PUSH1 0xE5 SHL DUP2 MSTORE PUSH1 0x20 PUSH1 0x4 DUP3 ADD MSTORE PUSH1 0x2 PUSH1 0x24 DUP3 ADD MSTORE PUSH2 0x329B PUSH1 0xF1 SHL PUSH1 0x44 DUP3 ADD MSTORE PUSH1 0x64 ADD PUSH2 0x104B JUMP JUMPDEST PUSH1 0x1 PUSH1 0x1 PUSH1 0xA0 SHL SUB DUP3 AND PUSH2 0x1C4A JUMPI CALLER SWAP2 POP JUMPDEST CALLER PUSH1 0x0 SWAP1 DUP2 MSTORE PUSH1 0x2B PUSH1 0x20 MSTORE PUSH1 0x40 DUP2 KECCAK256 SLOAD ISZERO PUSH2 0x1D32 JUMPI POP CALLER PUSH1 0x0 SWAP1 DUP2 MSTORE PUSH1 0x2B PUSH1 0x20 MSTORE PUSH1 0x40 SWAP1 KECCAK256 SLOAD PUSH1 0x1 SWAP1 PUSH2 0x1C7E SWAP1 DUP3 SWAP1 PUSH2 0x5AE8 JUMP JUMPDEST CALLER PUSH1 0x0 SWAP1 DUP2 MSTORE PUSH1 0x2B PUSH1 0x20 MSTORE PUSH1 0x40 SWAP1 KECCAK256 SSTORE PUSH1 0xF SLOAD ISZERO PUSH2 0x1D32 JUMPI PUSH1 0x1 PUSH1 0xF SLOAD PUSH2 0x1CA5 SWAP2 SWAP1 PUSH2 0x5AE8 JUMP JUMPDEST PUSH1 0xF SSTORE PUSH1 0x0 DUP3 DUP2 MSTORE PUSH1 0x2E PUSH1 0x20 MSTORE PUSH1 0x40 DUP2 KECCAK256 DUP1 SLOAD PUSH1 0xFF NOT AND PUSH1 0x1 SWAP1 DUP2 OR SWAP1 SWAP2 SSTORE PUSH1 0x30 DUP1 SLOAD DUP1 DUP4 ADD DUP3 SSTORE SWAP3 DUP2 SWAP1 MSTORE PUSH32 0x6FF97A59C90D62CC7236BA3A37CD85351BF564556780CF8C1157A220F31F0CBB SWAP1 SWAP3 ADD DUP1 SLOAD PUSH1 0x1 PUSH1 0x1 PUSH1 0xA0 SHL SUB NOT AND CALLER OR SWAP1 SSTORE SWAP1 SLOAD PUSH2 0x1D11 SWAP2 SWAP1 PUSH2 0x5AE8 JUMP JUMPDEST PUSH1 0x0 DUP4 DUP2 MSTORE PUSH1 0x2F PUSH1 0x20 MSTORE PUSH1 0x40 SWAP1 KECCAK256 SSTORE PUSH1 0xF SLOAD PUSH2 0x1D32 JUMPI PUSH1 0xE DUP1 SLOAD PUSH1 0xFF NOT AND SWAP1 SSTORE JUMPDEST DUP1 PUSH2 0x2003 JUMPI PUSH2 0x1D3F PUSH2 0x39AB JUMP JUMPDEST CALLVALUE LT ISZERO PUSH2 0x1D73 JUMPI PUSH1 0x40 MLOAD PUSH3 0x461BCD PUSH1 0xE5 SHL DUP2 MSTORE PUSH1 0x20 PUSH1 0x4 DUP3 ADD MSTORE PUSH1 0x2 PUSH1 0x24 DUP3 ADD MSTORE PUSH2 0x6537 PUSH1 0xF0 SHL PUSH1 0x44 DUP3 ADD MSTORE PUSH1 0x64 ADD PUSH2 0x104B JUMP JUMPDEST PUSH1 0x0 PUSH1 0x64 PUSH2 0x1D82 PUSH1 0x5 CALLVALUE PUSH2 0x5AFF JUMP JUMPDEST PUSH2 0x1D8C SWAP2 SWAP1 PUSH2 0x5B34 JUMP JUMPDEST PUSH1 0x24 SLOAD PUSH1 0x1 PUSH1 0x1 PUSH1 0xA0 SHL SUB AND PUSH1 0x0 SWAP1 DUP2 MSTORE PUSH1 0x2A PUSH1 0x20 MSTORE PUSH1 0x40 SWAP1 KECCAK256 SLOAD SWAP1 SWAP2 POP PUSH2 0x1DB5 SWAP1 DUP3 SWAP1 PUSH2 0x5109 JUMP JUMPDEST PUSH1 0x24 SLOAD PUSH1 0x1 PUSH1 0x1 PUSH1 0xA0 SHL SUB AND PUSH1 0x0 SWAP1 DUP2 MSTORE PUSH1 0x2A PUSH1 0x20 MSTORE PUSH1 0x40 DUP2 KECCAK256 SWAP2 SWAP1 SWAP2 SSTORE PUSH1 0x64 PUSH2 0x1DE0 PUSH1 0x5 CALLVALUE PUSH2 0x5AFF JUMP JUMPDEST PUSH2 0x1DEA SWAP2 SWAP1 PUSH2 0x5B34 JUMP JUMPDEST PUSH1 0x7 SLOAD SWAP1 SWAP2 POP PUSH1 0x1 PUSH1 0x1 PUSH1 0xA0 SHL SUB AND PUSH2 0x1E43 JUMPI PUSH1 0x23 SLOAD PUSH1 0x1 PUSH1 0x1 PUSH1 0xA0 SHL SUB AND PUSH1 0x0 SWAP1 DUP2 MSTORE PUSH1 0x2A PUSH1 0x20 MSTORE PUSH1 0x40 SWAP1 KECCAK256 SLOAD PUSH2 0x1E23 SWAP1 DUP3 SWAP1 PUSH2 0x5109 JUMP JUMPDEST PUSH1 0x23 SLOAD PUSH1 0x1 PUSH1 0x1 PUSH1 0xA0 SHL SUB AND PUSH1 0x0 SWAP1 DUP2 MSTORE PUSH1 0x2A PUSH1 0x20 MSTORE PUSH1 0x40 SWAP1 KECCAK256 SSTORE PUSH2 0x1E85 JUMP JUMPDEST PUSH1 0x7 SLOAD PUSH1 0x1 PUSH1 0x1 PUSH1 0xA0 SHL SUB AND PUSH1 0x0 SWAP1 DUP2 MSTORE PUSH1 0x2A PUSH1 0x20 MSTORE PUSH1 0x40 SWAP1 KECCAK256 SLOAD PUSH2 0x1E69 SWAP1 DUP3 SWAP1 PUSH2 0x5109 JUMP JUMPDEST PUSH1 0x7 SLOAD PUSH1 0x1 PUSH1 0x1 PUSH1 0xA0 SHL SUB AND PUSH1 0x0 SWAP1 DUP2 MSTORE PUSH1 0x2A PUSH1 0x20 MSTORE PUSH1 0x40 SWAP1 KECCAK256 SSTORE JUMPDEST PUSH1 0x0 PUSH1 0x64 PUSH2 0x1E94 PUSH1 0x5 CALLVALUE PUSH2 0x5AFF JUMP JUMPDEST PUSH2 0x1E9E SWAP2 SWAP1 PUSH2 0x5B34 JUMP JUMPDEST PUSH1 0x23 SLOAD PUSH1 0x1 PUSH1 0x1 PUSH1 0xA0 SHL SUB AND PUSH1 0x0 SWAP1 DUP2 MSTORE PUSH1 0x2A PUSH1 0x20 MSTORE PUSH1 0x40 SWAP1 KECCAK256 SLOAD SWAP1 SWAP2 POP PUSH2 0x1EC7 SWAP1 DUP3 SWAP1 PUSH2 0x5109 JUMP JUMPDEST PUSH1 0x23 SLOAD PUSH1 0x1 PUSH1 0x1 PUSH1 0xA0 SHL SUB AND PUSH1 0x0 SWAP1 DUP2 MSTORE PUSH1 0x2A PUSH1 0x20 MSTORE PUSH1 0x40 DUP2 KECCAK256 SWAP2 SWAP1 SWAP2 SSTORE PUSH1 0x64 PUSH2 0x1EF2 PUSH1 0x19 CALLVALUE PUSH2 0x5AFF JUMP JUMPDEST PUSH2 0x1EFC SWAP2 SWAP1 PUSH2 0x5B34 JUMP JUMPDEST PUSH1 0x29 SLOAD PUSH1 0x1 PUSH1 0x1 PUSH1 0xA0 SHL SUB AND PUSH1 0x0 SWAP1 DUP2 MSTORE PUSH1 0x2A PUSH1 0x20 MSTORE PUSH1 0x40 SWAP1 KECCAK256 SLOAD SWAP1 SWAP2 POP PUSH2 0x1F25 SWAP1 DUP3 SWAP1 PUSH2 0x5109 JUMP JUMPDEST PUSH1 0x29 SLOAD PUSH1 0x1 PUSH1 0x1 PUSH1 0xA0 SHL SUB AND PUSH1 0x0 SWAP1 DUP2 MSTORE PUSH1 0x2A PUSH1 0x20 MSTORE PUSH1 0x40 DUP2 KECCAK256 SWAP2 SWAP1 SWAP2 SSTORE PUSH1 0x64 PUSH2 0x1F50 PUSH1 0x1E CALLVALUE PUSH2 0x5AFF JUMP JUMPDEST PUSH2 0x1F5A SWAP2 SWAP1 PUSH2 0x5B34 JUMP JUMPDEST PUSH1 0x26 SLOAD PUSH1 0x1 PUSH1 0x1 PUSH1 0xA0 SHL SUB AND PUSH1 0x0 SWAP1 DUP2 MSTORE PUSH1 0x2A PUSH1 0x20 MSTORE PUSH1 0x40 SWAP1 KECCAK256 SLOAD SWAP1 SWAP2 POP PUSH2 0x1F83 SWAP1 DUP3 SWAP1 PUSH2 0x5109 JUMP JUMPDEST PUSH1 0x26 SLOAD PUSH1 0x1 PUSH1 0x1 PUSH1 0xA0 SHL SUB AND PUSH1 0x0 SWAP1 DUP2 MSTORE PUSH1 0x2A PUSH1 0x20 MSTORE PUSH1 0x40 DUP2 KECCAK256 SWAP2 SWAP1 SWAP2 SSTORE PUSH1 0x64 PUSH2 0x1FAE PUSH1 0x1E CALLVALUE PUSH2 0x5AFF JUMP JUMPDEST PUSH2 0x1FB8 SWAP2 SWAP1 PUSH2 0x5B34 JUMP JUMPDEST PUSH1 0x27 SLOAD PUSH1 0x1 PUSH1 0x1 PUSH1 0xA0 SHL SUB AND PUSH1 0x0 SWAP1 DUP2 MSTORE PUSH1 0x2A PUSH1 0x20 MSTORE PUSH1 0x40 SWAP1 KECCAK256 SLOAD SWAP1 SWAP2 POP PUSH2 0x1FE1 SWAP1 DUP3 SWAP1 PUSH2 0x5109 JUMP JUMPDEST PUSH1 0x27 SLOAD PUSH1 0x1 PUSH1 0x1 PUSH1 0xA0 SHL SUB AND PUSH1 0x0 SWAP1 DUP2 MSTORE PUSH1 0x2A PUSH1 0x20 MSTORE PUSH1 0x40 SWAP1 KECCAK256 SSTORE POP POP POP POP POP POP JUMPDEST PUSH2 0x201F DUP4 DUP4 PUSH1 0x1 PUSH1 0x40 MLOAD DUP1 PUSH1 0x20 ADD PUSH1 0x40 MSTORE DUP1 PUSH1 0x0 DUP2 MSTORE POP PUSH2 0x3FD2 JUMP JUMPDEST PUSH1 0x20 DUP1 SLOAD PUSH1 0x1 DUP1 DUP3 ADD DUP4 SSTORE PUSH32 0xC97BFAF2F8EE708C303A06D134F5ECD8389AE0432AF62DC132A24118292866BB SWAP1 SWAP2 ADD DUP5 SWAP1 SSTORE PUSH1 0x0 DUP5 DUP2 MSTORE PUSH1 0x2C SWAP1 SWAP3 MSTORE PUSH1 0x40 SWAP1 SWAP2 KECCAK256 DUP1 SLOAD PUSH1 0x1 PUSH1 0x1 PUSH1 0xA0 SHL SUB NOT AND PUSH1 0x1 PUSH1 0x1 PUSH1 0xA0 SHL SUB DUP7 AND OR SWAP1 SSTORE TIMESTAMP PUSH1 0x1E SSTORE JUMPDEST PUSH1 0x3 DUP2 GT PUSH2 0x212F JUMPI PUSH1 0x0 DUP4 DUP2 MSTORE PUSH1 0x2E PUSH1 0x20 MSTORE PUSH1 0x40 SWAP1 KECCAK256 SLOAD PUSH1 0xFF AND ISZERO DUP1 ISZERO PUSH2 0x20A5 JUMPI POP DUP1 PUSH1 0x3 EQ JUMPDEST ISZERO PUSH2 0x20AF JUMPI PUSH2 0x211D JUMP JUMPDEST PUSH2 0x20BA DUP8 DUP8 DUP8 PUSH2 0x3555 JUMP JUMPDEST PUSH1 0x0 DUP3 DUP2 MSTORE PUSH1 0x39 PUSH1 0x20 SWAP1 DUP2 MSTORE PUSH1 0x40 DUP1 DUP4 KECCAK256 PUSH1 0x3 DUP5 MSTORE SWAP1 SWAP2 MSTORE SWAP1 KECCAK256 SLOAD PUSH2 0x20DF SWAP2 SWAP1 PUSH2 0x5109 JUMP JUMPDEST PUSH1 0x0 DUP3 DUP2 MSTORE PUSH1 0x39 PUSH1 0x20 SWAP1 DUP2 MSTORE PUSH1 0x40 DUP1 DUP4 KECCAK256 PUSH1 0x3 DUP1 DUP6 MSTORE SWAP1 DUP4 MSTORE DUP2 DUP5 KECCAK256 SWAP5 SWAP1 SWAP5 SSTORE DUP5 DUP4 MSTORE PUSH1 0x38 DUP3 MSTORE DUP1 DUP4 KECCAK256 DUP8 DUP5 MSTORE SWAP1 SWAP2 MSTORE SWAP1 KECCAK256 DUP1 SLOAD PUSH1 0xFF NOT AND SWAP1 SWAP2 OR SWAP1 SSTORE JUMPDEST DUP1 PUSH2 0x2127 DUP2 PUSH2 0x5A6E JUMP JUMPDEST SWAP2 POP POP PUSH2 0x207E JUMP JUMPDEST POP DUP1 PUSH2 0x2149 JUMPI PUSH1 0xD SLOAD PUSH1 0x16 SLOAD PUSH2 0x2145 SWAP2 SWAP1 PUSH2 0x5109 JUMP JUMPDEST PUSH1 0x16 SSTORE JUMPDEST PUSH1 0x40 DUP1 MLOAD DUP8 DUP2 MSTORE PUSH1 0x20 DUP2 ADD DUP8 SWAP1 MSTORE SWAP1 DUP2 ADD DUP6 SWAP1 MSTORE PUSH1 0x1 PUSH1 0x1 PUSH1 0xA0 SHL SUB DUP5 AND SWAP1 PUSH32 0xA51E9B2EF1F037DEE551EB226D6D1581C8FB0E0243820EBD1FBB41A13E6C2364 SWAP1 PUSH1 0x60 ADD PUSH1 0x40 MLOAD DUP1 SWAP2 SUB SWAP1 LOG2 POP POP POP POP POP POP JUMP JUMPDEST PUSH1 0x1 PUSH1 0x1 PUSH1 0xA0 SHL SUB DUP6 AND CALLER EQ DUP1 PUSH2 0x21B9 JUMPI POP PUSH2 0x21B9 DUP6 CALLER PUSH2 0xE7A JUMP JUMPDEST PUSH2 0x2220 JUMPI PUSH1 0x40 MLOAD PUSH3 0x461BCD PUSH1 0xE5 SHL DUP2 MSTORE PUSH1 0x20 PUSH1 0x4 DUP3 ADD MSTORE PUSH1 0x32 PUSH1 0x24 DUP3 ADD MSTORE PUSH32 0x455243313135353A207472616E736665722063616C6C6572206973206E6F7420 PUSH1 0x44 DUP3 ADD MSTORE PUSH18 0x1BDDDB995C881B9BDC88185C1C1C9BDD9959 PUSH1 0x72 SHL PUSH1 0x64 DUP3 ADD MSTORE PUSH1 0x84 ADD PUSH2 0x104B JUMP JUMPDEST PUSH1 0x40 MLOAD PUSH3 0x461BCD PUSH1 0xE5 SHL DUP2 MSTORE PUSH1 0x20 PUSH1 0x4 DUP3 ADD MSTORE PUSH1 0x3 PUSH1 0x24 DUP3 ADD MSTORE PUSH3 0x653237 PUSH1 0xE8 SHL PUSH1 0x44 DUP3 ADD MSTORE PUSH1 0x64 ADD PUSH2 0x104B JUMP JUMPDEST POP POP POP POP POP JUMP JUMPDEST PUSH1 0x34 PUSH1 0x20 MSTORE PUSH1 0x0 SWAP1 DUP2 MSTORE PUSH1 0x40 SWAP1 KECCAK256 DUP1 SLOAD PUSH2 0x111E SWAP1 PUSH2 0x5A39 JUMP JUMPDEST PUSH1 0x60 DUP2 MLOAD DUP4 MLOAD EQ PUSH2 0x22D3 JUMPI PUSH1 0x40 MLOAD PUSH3 0x461BCD PUSH1 0xE5 SHL DUP2 MSTORE PUSH1 0x20 PUSH1 0x4 DUP3 ADD MSTORE PUSH1 0x29 PUSH1 0x24 DUP3 ADD MSTORE PUSH32 0x455243313135353A206163636F756E747320616E6420696473206C656E677468 PUSH1 0x44 DUP3 ADD MSTORE PUSH9 0x40DAD2E6DAC2E8C6D PUSH1 0xBB SHL PUSH1 0x64 DUP3 ADD MSTORE PUSH1 0x84 ADD PUSH2 0x104B JUMP JUMPDEST PUSH1 0x0 DUP4 MLOAD PUSH1 0x1 PUSH1 0x1 PUSH1 0x40 SHL SUB DUP2 GT ISZERO PUSH2 0x22EE JUMPI PUSH2 0x22EE PUSH2 0x533D JUMP JUMPDEST PUSH1 0x40 MLOAD SWAP1 DUP1 DUP3 MSTORE DUP1 PUSH1 0x20 MUL PUSH1 0x20 ADD DUP3 ADD PUSH1 0x40 MSTORE DUP1 ISZERO PUSH2 0x2317 JUMPI DUP2 PUSH1 0x20 ADD PUSH1 0x20 DUP3 MUL DUP1 CALLDATASIZE DUP4 CALLDATACOPY ADD SWAP1 POP JUMPDEST POP SWAP1 POP PUSH1 0x0 JUMPDEST DUP5 MLOAD DUP2 LT ISZERO PUSH2 0x238F JUMPI PUSH2 0x2362 DUP6 DUP3 DUP2 MLOAD DUP2 LT PUSH2 0x233B JUMPI PUSH2 0x233B PUSH2 0x50DD JUMP JUMPDEST PUSH1 0x20 MUL PUSH1 0x20 ADD ADD MLOAD DUP6 DUP4 DUP2 MLOAD DUP2 LT PUSH2 0x2355 JUMPI PUSH2 0x2355 PUSH2 0x50DD JUMP JUMPDEST PUSH1 0x20 MUL PUSH1 0x20 ADD ADD MLOAD PUSH2 0xFE3 JUMP JUMPDEST DUP3 DUP3 DUP2 MLOAD DUP2 LT PUSH2 0x2374 JUMPI PUSH2 0x2374 PUSH2 0x50DD JUMP JUMPDEST PUSH1 0x20 SWAP1 DUP2 MUL SWAP2 SWAP1 SWAP2 ADD ADD MSTORE PUSH2 0x2388 DUP2 PUSH2 0x5A6E JUMP JUMPDEST SWAP1 POP PUSH2 0x231D JUMP JUMPDEST POP SWAP4 SWAP3 POP POP POP JUMP JUMPDEST PUSH1 0x30 DUP2 DUP2 SLOAD DUP2 LT PUSH2 0x23A7 JUMPI PUSH1 0x0 DUP1 REVERT JUMPDEST PUSH1 0x0 SWAP2 DUP3 MSTORE PUSH1 0x20 SWAP1 SWAP2 KECCAK256 ADD SLOAD PUSH1 0x1 PUSH1 0x1 PUSH1 0xA0 SHL SUB AND SWAP1 POP DUP2 JUMP JUMPDEST PUSH1 0x31 PUSH1 0x20 MSTORE PUSH1 0x0 SWAP1 DUP2 MSTORE PUSH1 0x40 SWAP1 KECCAK256 DUP1 SLOAD PUSH2 0x111E SWAP1 PUSH2 0x5A39 JUMP JUMPDEST PUSH1 0x12 DUP1 SLOAD PUSH2 0x111E SWAP1 PUSH2 0x5A39 JUMP JUMPDEST PUSH1 0x3 SLOAD PUSH1 0x1 PUSH1 0x1 PUSH1 0xA0 SHL SUB PUSH2 0x100 SWAP1 SWAP2 DIV AND CALLER EQ PUSH2 0x2417 JUMPI PUSH1 0x40 MLOAD PUSH3 0x461BCD PUSH1 0xE5 SHL DUP2 MSTORE PUSH1 0x4 ADD PUSH2 0x104B SWAP1 PUSH2 0x5A89 JUMP JUMPDEST PUSH1 0x3 SLOAD PUSH1 0xFF AND ISZERO PUSH2 0x243A JUMPI PUSH1 0x40 MLOAD PUSH3 0x461BCD PUSH1 0xE5 SHL DUP2 MSTORE PUSH1 0x4 ADD PUSH2 0x104B SWAP1 PUSH2 0x5ABE JUMP JUMPDEST PUSH1 0x21 DUP3 SWAP1 SSTORE DUP1 MLOAD PUSH2 0x2452 SWAP1 PUSH1 0x5 SWAP1 PUSH1 0x20 DUP5 ADD SWAP1 PUSH2 0x4FEF JUMP JUMPDEST POP POP POP JUMP JUMPDEST PUSH1 0x18 DUP2 DUP2 SLOAD DUP2 LT PUSH2 0x23A7 JUMPI PUSH1 0x0 DUP1 REVERT JUMPDEST PUSH1 0x0 DUP2 DUP4 LT ISZERO PUSH2 0x2477 JUMPI DUP2 PUSH2 0x2479 JUMP JUMPDEST DUP3 JUMPDEST SWAP4 SWAP3 POP POP POP JUMP JUMPDEST CALLER PUSH1 0x0 SWAP1 DUP2 MSTORE PUSH1 0x2A PUSH1 0x20 MSTORE PUSH1 0x40 SWAP1 KECCAK256 SLOAD PUSH7 0x2386F26FC10000 GT ISZERO PUSH2 0x24CC JUMPI PUSH1 0x40 MLOAD PUSH3 0x461BCD PUSH1 0xE5 SHL DUP2 MSTORE PUSH1 0x20 PUSH1 0x4 DUP3 ADD MSTORE PUSH1 0x3 PUSH1 0x24 DUP3 ADD MSTORE PUSH3 0x653135 PUSH1 0xE8 SHL PUSH1 0x44 DUP3 ADD MSTORE PUSH1 0x64 ADD PUSH2 0x104B JUMP JUMPDEST CALLER PUSH1 0x0 DUP2 DUP2 MSTORE PUSH1 0x2A PUSH1 0x20 MSTORE PUSH1 0x40 DUP1 DUP3 KECCAK256 DUP1 SLOAD SWAP1 DUP4 SWAP1 SSTORE SWAP1 MLOAD SWAP1 SWAP3 DUP4 SWAP3 SWAP1 SWAP2 PUSH32 0x2F174CA282119315C59EFAF21147AEF438581DABDEB498198AE28964373DD8BC SWAP2 SWAP1 LOG3 PUSH1 0x40 MLOAD CALLER SWAP1 DUP3 ISZERO PUSH2 0x8FC MUL SWAP1 DUP4 SWAP1 PUSH1 0x0 DUP2 DUP2 DUP2 DUP6 DUP9 DUP9 CALL SWAP4 POP POP POP POP ISZERO DUP1 ISZERO PUSH2 0x253B JUMPI RETURNDATASIZE PUSH1 0x0 DUP1 RETURNDATACOPY RETURNDATASIZE PUSH1 0x0 REVERT JUMPDEST POP POP JUMP JUMPDEST PUSH1 0x3 SLOAD PUSH1 0x1 PUSH1 0x1 PUSH1 0xA0 SHL SUB PUSH2 0x100 SWAP1 SWAP2 DIV AND CALLER EQ PUSH2 0x256F JUMPI PUSH1 0x40 MLOAD PUSH3 0x461BCD PUSH1 0xE5 SHL DUP2 MSTORE PUSH1 0x4 ADD PUSH2 0x104B SWAP1 PUSH2 0x5A89 JUMP JUMPDEST PUSH2 0x1402 PUSH1 0x0 PUSH2 0x43BD JUMP JUMPDEST PUSH1 0x5 DUP1 SLOAD PUSH2 0x111E SWAP1 PUSH2 0x5A39 JUMP JUMPDEST PUSH1 0x3 SLOAD PUSH1 0xFF AND ISZERO PUSH2 0x25A9 JUMPI PUSH1 0x40 MLOAD PUSH3 0x461BCD PUSH1 0xE5 SHL DUP2 MSTORE PUSH1 0x4 ADD PUSH2 0x104B SWAP1 PUSH2 0x5ABE JUMP JUMPDEST PUSH1 0x32 DUP5 MLOAD GT ISZERO PUSH2 0x25E1 JUMPI PUSH1 0x40 MLOAD PUSH3 0x461BCD PUSH1 0xE5 SHL DUP2 MSTORE PUSH1 0x20 PUSH1 0x4 DUP3 ADD MSTORE PUSH1 0x3 PUSH1 0x24 DUP3 ADD MSTORE PUSH3 0x32999B PUSH1 0xE9 SHL PUSH1 0x44 DUP3 ADD MSTORE PUSH1 0x64 ADD PUSH2 0x104B JUMP JUMPDEST PUSH1 0x10 SLOAD PUSH2 0x100 SWAP1 DIV PUSH1 0x1 PUSH1 0x1 PUSH1 0xA0 SHL SUB AND ISZERO PUSH2 0x2624 JUMPI PUSH1 0x40 MLOAD PUSH3 0x461BCD PUSH1 0xE5 SHL DUP2 MSTORE PUSH1 0x20 PUSH1 0x4 DUP3 ADD MSTORE PUSH1 0x2 PUSH1 0x24 DUP3 ADD MSTORE PUSH2 0xCA7 PUSH1 0xF3 SHL PUSH1 0x44 DUP3 ADD MSTORE PUSH1 0x64 ADD PUSH2 0x104B JUMP JUMPDEST PUSH1 0x15 SLOAD TIMESTAMP LT ISZERO PUSH2 0x265B JUMPI PUSH1 0x40 MLOAD PUSH3 0x461BCD PUSH1 0xE5 SHL DUP2 MSTORE PUSH1 0x20 PUSH1 0x4 DUP3 ADD MSTORE PUSH1 0x2 PUSH1 0x24 DUP3 ADD MSTORE PUSH2 0x6539 PUSH1 0xF0 SHL PUSH1 0x44 DUP3 ADD MSTORE PUSH1 0x64 ADD PUSH2 0x104B JUMP JUMPDEST PUSH1 0x0 PUSH2 0x2665 PUSH2 0x39AB JUMP JUMPDEST CALLER PUSH1 0x0 SWAP1 DUP2 MSTORE PUSH1 0x2A PUSH1 0x20 MSTORE PUSH1 0x40 SWAP1 KECCAK256 SLOAD PUSH2 0x267F SWAP1 CALLVALUE PUSH2 0x5109 JUMP JUMPDEST PUSH2 0x2689 SWAP2 SWAP1 PUSH2 0x5B34 JUMP JUMPDEST PUSH2 0x2694 SWAP1 PUSH1 0x4 PUSH2 0x5AFF JUMP JUMPDEST SWAP1 POP PUSH1 0x1E DUP2 LT ISZERO PUSH2 0x26CD JUMPI PUSH1 0x40 MLOAD PUSH3 0x461BCD PUSH1 0xE5 SHL DUP2 MSTORE PUSH1 0x20 PUSH1 0x4 DUP3 ADD MSTORE PUSH1 0x3 PUSH1 0x24 DUP3 ADD MSTORE PUSH3 0x65313 PUSH1 0xEC SHL PUSH1 0x44 DUP3 ADD MSTORE PUSH1 0x64 ADD PUSH2 0x104B JUMP JUMPDEST PUSH1 0x10 DUP1 SLOAD PUSH2 0x100 PUSH1 0x1 PUSH1 0xA8 SHL SUB NOT AND CALLER PUSH2 0x100 SWAP1 DUP2 MUL SWAP2 SWAP1 SWAP2 OR SWAP2 DUP3 SWAP1 SSTORE PUSH1 0x1 PUSH1 0x1 PUSH1 0xA0 SHL SUB SWAP2 DIV AND PUSH1 0x0 SWAP1 DUP2 MSTORE PUSH1 0x2A PUSH1 0x20 MSTORE PUSH1 0x40 SWAP1 KECCAK256 SLOAD PUSH2 0x2710 SWAP1 CALLVALUE SWAP1 PUSH2 0x5109 JUMP JUMPDEST PUSH1 0x10 SLOAD PUSH2 0x100 SWAP1 DIV PUSH1 0x1 PUSH1 0x1 PUSH1 0xA0 SHL SUB AND PUSH1 0x0 SWAP1 DUP2 MSTORE PUSH1 0x2A PUSH1 0x20 SWAP1 DUP2 MSTORE PUSH1 0x40 SWAP1 SWAP2 KECCAK256 SWAP2 SWAP1 SWAP2 SSTORE DUP6 MLOAD PUSH2 0x2748 SWAP2 PUSH1 0x11 SWAP2 SWAP1 DUP9 ADD SWAP1 PUSH2 0x4FEF JUMP JUMPDEST POP DUP2 MLOAD PUSH2 0x275C SWAP1 PUSH1 0x12 SWAP1 PUSH1 0x20 DUP6 ADD SWAP1 PUSH2 0x4FEF JUMP JUMPDEST POP DUP4 MLOAD PUSH2 0x2770 SWAP1 PUSH1 0x13 SWAP1 PUSH1 0x20 DUP8 ADD SWAP1 PUSH2 0x4FEF JUMP JUMPDEST POP DUP3 MLOAD PUSH2 0x2784 SWAP1 PUSH1 0x14 SWAP1 PUSH1 0x20 DUP7 ADD SWAP1 PUSH2 0x4FEF JUMP JUMPDEST POP POP PUSH1 0x10 DUP1 SLOAD PUSH1 0xFF NOT AND SWAP1 SSTORE POP POP POP POP JUMP JUMPDEST PUSH1 0xC DUP1 SLOAD PUSH2 0x111E SWAP1 PUSH2 0x5A39 JUMP JUMPDEST CALLER PUSH1 0x1 PUSH1 0x1 PUSH1 0xA0 SHL SUB PUSH32 0x0 AND EQ PUSH2 0x281B JUMPI PUSH1 0x40 MLOAD PUSH3 0x461BCD PUSH1 0xE5 SHL DUP2 MSTORE PUSH1 0x20 PUSH1 0x4 DUP3 ADD MSTORE PUSH1 0x1F PUSH1 0x24 DUP3 ADD MSTORE PUSH32 0x4F6E6C7920565246436F6F7264696E61746F722063616E2066756C66696C6C00 PUSH1 0x44 DUP3 ADD MSTORE PUSH1 0x64 ADD PUSH2 0x104B JUMP JUMPDEST PUSH2 0x253B DUP3 DUP3 PUSH2 0x4417 JUMP JUMPDEST PUSH2 0x253B CALLER DUP4 DUP4 PUSH2 0x45D9 JUMP JUMPDEST PUSH1 0x3 SLOAD PUSH1 0xFF AND ISZERO PUSH2 0x2853 JUMPI PUSH1 0x40 MLOAD PUSH3 0x461BCD PUSH1 0xE5 SHL DUP2 MSTORE PUSH1 0x4 ADD PUSH2 0x104B SWAP1 PUSH2 0x5ABE JUMP JUMPDEST PUSH1 0x0 PUSH2 0x2860 DUP9 DUP9 DUP9 PUSH2 0x3DFB JUMP JUMPDEST PUSH1 0x0 DUP2 DUP2 MSTORE PUSH1 0x2C PUSH1 0x20 MSTORE PUSH1 0x40 SWAP1 KECCAK256 SLOAD SWAP1 SWAP2 POP PUSH1 0x1 PUSH1 0x1 PUSH1 0xA0 SHL SUB AND PUSH2 0x2897 JUMPI PUSH1 0x40 MLOAD PUSH3 0x461BCD PUSH1 0xE5 SHL DUP2 MSTORE PUSH1 0x4 ADD PUSH2 0x104B SWAP1 PUSH2 0x5B48 JUMP JUMPDEST PUSH1 0x0 DUP2 DUP2 MSTORE PUSH1 0x2C PUSH1 0x20 MSTORE PUSH1 0x40 SWAP1 KECCAK256 SLOAD PUSH1 0x1 PUSH1 0x1 PUSH1 0xA0 SHL SUB AND CALLER EQ PUSH2 0x28E3 JUMPI PUSH1 0x40 MLOAD PUSH3 0x461BCD PUSH1 0xE5 SHL DUP2 MSTORE PUSH1 0x20 PUSH1 0x4 DUP3 ADD MSTORE PUSH1 0x3 PUSH1 0x24 DUP3 ADD MSTORE PUSH3 0x329899 PUSH1 0xE9 SHL PUSH1 0x44 DUP3 ADD MSTORE PUSH1 0x64 ADD PUSH2 0x104B JUMP JUMPDEST PUSH1 0x0 PUSH2 0x28F0 DUP10 DUP10 DUP10 PUSH2 0x3555 JUMP JUMPDEST SWAP1 POP PUSH1 0x1 JUMPDEST PUSH1 0x3 DUP2 GT PUSH2 0x2BEF JUMPI DUP1 PUSH1 0x3 EQ DUP1 ISZERO PUSH2 0x291C JUMPI POP PUSH1 0x0 DUP4 DUP2 MSTORE PUSH1 0x2E PUSH1 0x20 MSTORE PUSH1 0x40 SWAP1 KECCAK256 SLOAD PUSH1 0xFF AND ISZERO JUMPDEST ISZERO PUSH2 0x2926 JUMPI PUSH2 0x2BDD JUMP JUMPDEST DUP4 PUSH2 0x2932 PUSH1 0x1 DUP4 PUSH2 0x5AE8 JUMP JUMPDEST DUP2 MLOAD DUP2 LT PUSH2 0x2942 JUMPI PUSH2 0x2942 PUSH2 0x50DD JUMP JUMPDEST PUSH1 0x20 MUL PUSH1 0x20 ADD ADD MLOAD PUSH1 0x4 DUP2 GT ISZERO PUSH2 0x295B JUMPI PUSH2 0x295B PUSH2 0x558C JUMP JUMPDEST PUSH1 0x0 DUP3 DUP2 MSTORE PUSH1 0x38 PUSH1 0x20 SWAP1 DUP2 MSTORE PUSH1 0x40 DUP1 DUP4 KECCAK256 DUP8 DUP5 MSTORE SWAP1 SWAP2 MSTORE SWAP1 KECCAK256 SLOAD PUSH1 0xFF AND PUSH1 0x4 DUP2 GT ISZERO PUSH2 0x2989 JUMPI PUSH2 0x2989 PUSH2 0x558C JUMP JUMPDEST EQ PUSH2 0x2BDD JUMPI PUSH1 0x0 DUP2 DUP2 MSTORE PUSH1 0x39 PUSH1 0x20 SWAP1 DUP2 MSTORE PUSH1 0x40 DUP1 DUP4 KECCAK256 PUSH1 0x38 DUP4 MSTORE DUP2 DUP5 KECCAK256 DUP8 DUP6 MSTORE SWAP1 SWAP3 MSTORE DUP3 KECCAK256 SLOAD DUP3 SWAP1 PUSH1 0xFF AND PUSH1 0x4 DUP2 GT ISZERO PUSH2 0x29C5 JUMPI PUSH2 0x29C5 PUSH2 0x558C JUMP JUMPDEST PUSH1 0x4 DUP2 GT ISZERO PUSH2 0x29D6 JUMPI PUSH2 0x29D6 PUSH2 0x558C JUMP JUMPDEST DUP2 MSTORE PUSH1 0x20 ADD SWAP1 DUP2 MSTORE PUSH1 0x20 ADD PUSH1 0x0 KECCAK256 SLOAD GT ISZERO PUSH2 0x2AA8 JUMPI PUSH1 0x0 DUP2 DUP2 MSTORE PUSH1 0x39 PUSH1 0x20 SWAP1 DUP2 MSTORE PUSH1 0x40 DUP1 DUP4 KECCAK256 PUSH1 0x38 DUP4 MSTORE DUP2 DUP5 KECCAK256 DUP8 DUP6 MSTORE SWAP1 SWAP3 MSTORE DUP3 KECCAK256 SLOAD DUP5 SWAP3 SWAP1 PUSH1 0xFF AND PUSH1 0x4 DUP2 GT ISZERO PUSH2 0x2A23 JUMPI PUSH2 0x2A23 PUSH2 0x558C JUMP JUMPDEST PUSH1 0x4 DUP2 GT ISZERO PUSH2 0x2A34 JUMPI PUSH2 0x2A34 PUSH2 0x558C JUMP JUMPDEST DUP2 MSTORE PUSH1 0x20 ADD SWAP1 DUP2 MSTORE PUSH1 0x20 ADD PUSH1 0x0 KECCAK256 SLOAD PUSH2 0x2A4D SWAP2 SWAP1 PUSH2 0x5AE8 JUMP JUMPDEST PUSH1 0x0 DUP3 DUP2 MSTORE PUSH1 0x39 PUSH1 0x20 SWAP1 DUP2 MSTORE PUSH1 0x40 DUP1 DUP4 KECCAK256 PUSH1 0x38 DUP4 MSTORE DUP2 DUP5 KECCAK256 DUP9 DUP6 MSTORE SWAP1 SWAP3 MSTORE DUP3 KECCAK256 SLOAD SWAP1 SWAP2 SWAP1 PUSH1 0xFF AND PUSH1 0x4 DUP2 GT ISZERO PUSH2 0x2A85 JUMPI PUSH2 0x2A85 PUSH2 0x558C JUMP JUMPDEST PUSH1 0x4 DUP2 GT ISZERO PUSH2 0x2A96 JUMPI PUSH2 0x2A96 PUSH2 0x558C JUMP JUMPDEST DUP2 MSTORE PUSH1 0x20 DUP2 ADD SWAP2 SWAP1 SWAP2 MSTORE PUSH1 0x40 ADD PUSH1 0x0 KECCAK256 SSTORE JUMPDEST PUSH1 0x0 DUP2 DUP2 MSTORE PUSH1 0x39 PUSH1 0x20 MSTORE PUSH1 0x40 DUP2 KECCAK256 DUP4 SWAP2 DUP7 PUSH2 0x2AC4 PUSH1 0x1 DUP7 PUSH2 0x5AE8 JUMP JUMPDEST DUP2 MLOAD DUP2 LT PUSH2 0x2AD4 JUMPI PUSH2 0x2AD4 PUSH2 0x50DD JUMP JUMPDEST PUSH1 0x20 MUL PUSH1 0x20 ADD ADD MLOAD PUSH1 0x4 DUP2 GT ISZERO PUSH2 0x2AED JUMPI PUSH2 0x2AED PUSH2 0x558C JUMP JUMPDEST PUSH1 0x4 DUP2 GT ISZERO PUSH2 0x2AFE JUMPI PUSH2 0x2AFE PUSH2 0x558C JUMP JUMPDEST DUP2 MSTORE PUSH1 0x20 ADD SWAP1 DUP2 MSTORE PUSH1 0x20 ADD PUSH1 0x0 KECCAK256 SLOAD PUSH2 0x2B17 SWAP2 SWAP1 PUSH2 0x5109 JUMP JUMPDEST PUSH1 0x0 DUP3 DUP2 MSTORE PUSH1 0x39 PUSH1 0x20 MSTORE PUSH1 0x40 DUP2 KECCAK256 SWAP1 DUP7 PUSH2 0x2B32 PUSH1 0x1 DUP7 PUSH2 0x5AE8 JUMP JUMPDEST DUP2 MLOAD DUP2 LT PUSH2 0x2B42 JUMPI PUSH2 0x2B42 PUSH2 0x50DD JUMP JUMPDEST PUSH1 0x20 MUL PUSH1 0x20 ADD ADD MLOAD PUSH1 0x4 DUP2 GT ISZERO PUSH2 0x2B5B JUMPI PUSH2 0x2B5B PUSH2 0x558C JUMP JUMPDEST PUSH1 0x4 DUP2 GT ISZERO PUSH2 0x2B6C JUMPI PUSH2 0x2B6C PUSH2 0x558C JUMP JUMPDEST DUP2 MSTORE PUSH1 0x20 DUP2 ADD SWAP2 SWAP1 SWAP2 MSTORE PUSH1 0x40 ADD PUSH1 0x0 KECCAK256 SSTORE DUP4 PUSH2 0x2B89 PUSH1 0x1 DUP4 PUSH2 0x5AE8 JUMP JUMPDEST DUP2 MLOAD DUP2 LT PUSH2 0x2B99 JUMPI PUSH2 0x2B99 PUSH2 0x50DD JUMP JUMPDEST PUSH1 0x20 SWAP1 DUP2 MUL SWAP2 SWAP1 SWAP2 ADD DUP2 ADD MLOAD PUSH1 0x0 DUP4 DUP2 MSTORE PUSH1 0x38 DUP4 MSTORE PUSH1 0x40 DUP1 DUP3 KECCAK256 DUP8 DUP4 MSTORE SWAP1 SWAP4 MSTORE SWAP2 SWAP1 SWAP2 KECCAK256 DUP1 SLOAD PUSH1 0xFF NOT AND PUSH1 0x1 DUP4 PUSH1 0x4 DUP2 GT ISZERO PUSH2 0x2BD7 JUMPI PUSH2 0x2BD7 PUSH2 0x558C JUMP JUMPDEST MUL OR SWAP1 SSTORE POP JUMPDEST DUP1 PUSH2 0x2BE7 DUP2 PUSH2 0x5A6E JUMP JUMPDEST SWAP2 POP POP PUSH2 0x28F5 JUMP JUMPDEST POP DUP6 ISZERO DUP1 ISZERO SWAP1 PUSH2 0x2BFE JUMPI POP DUP5 ISZERO ISZERO JUMPDEST DUP1 ISZERO PUSH2 0x2C09 JUMPI POP DUP4 ISZERO ISZERO JUMPDEST ISZERO PUSH2 0x2E72 JUMPI PUSH1 0x0 PUSH2 0x2C1B DUP8 DUP8 DUP8 PUSH2 0x3DFB JUMP JUMPDEST PUSH1 0x0 DUP2 DUP2 MSTORE PUSH1 0x2C PUSH1 0x20 SWAP1 DUP2 MSTORE PUSH1 0x40 DUP1 DUP4 KECCAK256 SLOAD PUSH1 0x34 SWAP1 SWAP3 MSTORE SWAP1 SWAP2 KECCAK256 DUP1 SLOAD SWAP3 SWAP4 POP PUSH1 0x1 PUSH1 0x1 PUSH1 0xA0 SHL SUB SWAP1 SWAP2 AND SWAP2 PUSH2 0x2CE7 SWAP2 SWAP1 PUSH2 0x2C54 SWAP1 PUSH2 0x5A39 JUMP JUMPDEST DUP1 PUSH1 0x1F ADD PUSH1 0x20 DUP1 SWAP2 DIV MUL PUSH1 0x20 ADD PUSH1 0x40 MLOAD SWAP1 DUP2 ADD PUSH1 0x40 MSTORE DUP1 SWAP3 SWAP2 SWAP1 DUP2 DUP2 MSTORE PUSH1 0x20 ADD DUP3 DUP1 SLOAD PUSH2 0x2C80 SWAP1 PUSH2 0x5A39 JUMP JUMPDEST DUP1 ISZERO PUSH2 0x2CCD JUMPI DUP1 PUSH1 0x1F LT PUSH2 0x2CA2 JUMPI PUSH2 0x100 DUP1 DUP4 SLOAD DIV MUL DUP4 MSTORE SWAP2 PUSH1 0x20 ADD SWAP2 PUSH2 0x2CCD JUMP JUMPDEST DUP3 ADD SWAP2 SWAP1 PUSH1 0x0 MSTORE PUSH1 0x20 PUSH1 0x0 KECCAK256 SWAP1 JUMPDEST DUP2 SLOAD DUP2 MSTORE SWAP1 PUSH1 0x1 ADD SWAP1 PUSH1 0x20 ADD DUP1 DUP4 GT PUSH2 0x2CB0 JUMPI DUP3 SWAP1 SUB PUSH1 0x1F AND DUP3 ADD SWAP2 JUMPDEST POP POP POP POP POP PUSH1 0x40 MLOAD DUP1 PUSH1 0x20 ADD PUSH1 0x40 MSTORE DUP1 PUSH1 0x0 DUP2 MSTORE POP PUSH2 0x46BA JUMP JUMPDEST ISZERO PUSH2 0x2D1A JUMPI PUSH1 0x40 MLOAD PUSH3 0x461BCD PUSH1 0xE5 SHL DUP2 MSTORE PUSH1 0x20 PUSH1 0x4 DUP3 ADD MSTORE PUSH1 0x3 PUSH1 0x24 DUP3 ADD MSTORE PUSH3 0x653335 PUSH1 0xE8 SHL PUSH1 0x44 DUP3 ADD MSTORE PUSH1 0x64 ADD PUSH2 0x104B JUMP JUMPDEST PUSH1 0x1 PUSH1 0x1 PUSH1 0xA0 SHL SUB DUP2 AND ISZERO DUP1 ISZERO SWAP1 PUSH2 0x2D4C JUMPI POP PUSH1 0x0 DUP5 DUP2 MSTORE PUSH1 0x35 PUSH1 0x20 MSTORE PUSH1 0x40 SWAP1 KECCAK256 SLOAD PUSH1 0x1 PUSH1 0x1 PUSH1 0xA0 SHL SUB DUP3 DUP2 AND SWAP2 AND EQ ISZERO JUMPDEST ISZERO PUSH2 0x2E6F JUMPI PUSH1 0x0 DUP5 DUP2 MSTORE PUSH1 0x35 PUSH1 0x20 SWAP1 DUP2 MSTORE PUSH1 0x40 DUP1 DUP4 KECCAK256 SLOAD PUSH1 0x1 PUSH1 0x1 PUSH1 0xA0 SHL SUB AND DUP4 MSTORE PUSH1 0x36 SWAP1 SWAP2 MSTORE SWAP1 KECCAK256 SLOAD ISZERO PUSH2 0x2DD1 JUMPI PUSH1 0x0 DUP5 DUP2 MSTORE PUSH1 0x35 PUSH1 0x20 SWAP1 DUP2 MSTORE PUSH1 0x40 DUP1 DUP4 KECCAK256 SLOAD PUSH1 0x1 PUSH1 0x1 PUSH1 0xA0 SHL SUB AND DUP4 MSTORE PUSH1 0x36 SWAP1 SWAP2 MSTORE SWAP1 KECCAK256 SLOAD PUSH2 0x2DAB SWAP1 DUP5 SWAP1 PUSH2 0x5AE8 JUMP JUMPDEST PUSH1 0x0 DUP6 DUP2 MSTORE PUSH1 0x35 PUSH1 0x20 SWAP1 DUP2 MSTORE PUSH1 0x40 DUP1 DUP4 KECCAK256 SLOAD PUSH1 0x1 PUSH1 0x1 PUSH1 0xA0 SHL SUB AND DUP4 MSTORE PUSH1 0x36 SWAP1 SWAP2 MSTORE SWAP1 KECCAK256 SSTORE JUMPDEST PUSH1 0x1 PUSH1 0x1 PUSH1 0xA0 SHL SUB DUP2 AND PUSH1 0x0 SWAP1 DUP2 MSTORE PUSH1 0x36 PUSH1 0x20 MSTORE PUSH1 0x40 SWAP1 KECCAK256 SLOAD PUSH2 0x2DF5 SWAP1 DUP5 SWAP1 PUSH2 0x5109 JUMP JUMPDEST PUSH1 0x1 PUSH1 0x1 PUSH1 0xA0 SHL SUB DUP1 DUP4 AND PUSH1 0x0 DUP2 DUP2 MSTORE PUSH1 0x36 PUSH1 0x20 DUP2 DUP2 MSTORE PUSH1 0x40 DUP1 DUP5 KECCAK256 SWAP7 DUP8 SSTORE DUP11 DUP5 MSTORE PUSH1 0x35 DUP3 MSTORE DUP1 DUP5 KECCAK256 DUP1 SLOAD PUSH1 0x1 PUSH1 0x1 PUSH1 0xA0 SHL SUB NOT AND DUP7 OR SWAP1 SSTORE PUSH1 0x37 SLOAD SWAP1 SWAP6 AND DUP4 MSTORE MSTORE SWAP2 DUP3 KECCAK256 SLOAD SWAP2 MSTORE SWAP1 SLOAD GT ISZERO PUSH2 0x2E6F JUMPI PUSH1 0x37 DUP1 SLOAD PUSH1 0x1 PUSH1 0x1 PUSH1 0xA0 SHL SUB NOT AND PUSH1 0x1 PUSH1 0x1 PUSH1 0xA0 SHL SUB DUP4 AND OR SWAP1 SSTORE PUSH2 0x2E6B DUP9 DUP9 DUP9 PUSH2 0x3DFB JUMP JUMPDEST PUSH1 0x9 SSTORE JUMPDEST POP POP JUMPDEST POP POP POP POP POP POP POP POP POP JUMP JUMPDEST PUSH1 0x32 PUSH1 0x20 MSTORE PUSH1 0x0 SWAP1 DUP2 MSTORE PUSH1 0x40 SWAP1 KECCAK256 DUP1 SLOAD PUSH2 0x111E SWAP1 PUSH2 0x5A39 JUMP JUMPDEST PUSH1 0x33 PUSH1 0x20 MSTORE PUSH1 0x0 SWAP1 DUP2 MSTORE PUSH1 0x40 SWAP1 KECCAK256 DUP1 SLOAD PUSH2 0x111E SWAP1 PUSH2 0x5A39 JUMP JUMPDEST PUSH1 0x14 DUP1 SLOAD PUSH2 0x111E SWAP1 PUSH2 0x5A39 JUMP JUMPDEST PUSH1 0x3 SLOAD PUSH1 0x1 PUSH1 0x1 PUSH1 0xA0 SHL SUB PUSH2 0x100 SWAP1 SWAP2 DIV AND CALLER EQ PUSH2 0x2EEC JUMPI PUSH1 0x40 MLOAD PUSH3 0x461BCD PUSH1 0xE5 SHL DUP2 MSTORE PUSH1 0x4 ADD PUSH2 0x104B SWAP1 PUSH2 0x5A89 JUMP JUMPDEST DUP1 PUSH2 0x2F35 JUMPI PUSH1 0x24 DUP1 SLOAD PUSH1 0x1 PUSH1 0x1 PUSH1 0xA0 SHL SUB DUP5 DUP2 AND PUSH1 0x1 PUSH1 0x1 PUSH1 0xA0 SHL SUB NOT DUP4 AND DUP2 OR SWAP1 SWAP4 SSTORE AND PUSH1 0x0 DUP2 DUP2 MSTORE PUSH1 0x2A PUSH1 0x20 MSTORE PUSH1 0x40 DUP1 DUP3 KECCAK256 DUP1 SLOAD SWAP5 DUP4 MSTORE SWAP1 DUP3 KECCAK256 SWAP4 SWAP1 SWAP4 SSTORE SWAP1 DUP2 MSTORE SWAP1 SSTORE POP POP JUMP JUMPDEST PUSH1 0x23 DUP1 SLOAD PUSH1 0x1 PUSH1 0x1 PUSH1 0xA0 SHL SUB DUP5 DUP2 AND PUSH1 0x1 PUSH1 0x1 PUSH1 0xA0 SHL SUB NOT DUP4 AND DUP2 OR SWAP1 SWAP4 SSTORE AND PUSH1 0x0 DUP2 DUP2 MSTORE PUSH1 0x2A PUSH1 0x20 MSTORE PUSH1 0x40 DUP1 DUP3 KECCAK256 DUP1 SLOAD SWAP5 DUP4 MSTORE SWAP1 DUP3 KECCAK256 SWAP4 SWAP1 SWAP4 SSTORE SWAP1 DUP2 MSTORE SWAP1 SSTORE POP POP JUMP JUMPDEST PUSH1 0x7 SLOAD PUSH1 0x1 PUSH1 0x1 PUSH1 0xA0 SHL SUB AND CALLER EQ DUP1 PUSH2 0x2FB3 JUMPI POP PUSH1 0x3 SLOAD PUSH2 0x100 SWAP1 DIV PUSH1 0x1 PUSH1 0x1 PUSH1 0xA0 SHL SUB AND PUSH1 0x1 PUSH1 0x1 PUSH1 0xA0 SHL SUB AND CALLER PUSH1 0x1 PUSH1 0x1 PUSH1 0xA0 SHL SUB AND EQ JUMPDEST PUSH2 0x2FCF JUMPI PUSH1 0x40 MLOAD PUSH3 0x461BCD PUSH1 0xE5 SHL DUP2 MSTORE PUSH1 0x4 ADD PUSH2 0x104B SWAP1 PUSH2 0x5B65 JUMP JUMPDEST PUSH2 0x2FE1 DUP2 PUSH8 0xDE0B6B3A7640000 PUSH2 0x5AFF JUMP JUMPDEST SWAP1 POP PUSH2 0x2FF5 DUP3 PUSH8 0xDE0B6B3A7640000 PUSH2 0x5AFF JUMP JUMPDEST SWAP2 POP PUSH1 0x17 SLOAD DUP3 LT ISZERO PUSH2 0x302F JUMPI PUSH1 0x40 MLOAD PUSH3 0x461BCD PUSH1 0xE5 SHL DUP2 MSTORE PUSH1 0x20 PUSH1 0x4 DUP3 ADD MSTORE PUSH1 0x3 PUSH1 0x24 DUP3 ADD MSTORE PUSH3 0x329999 PUSH1 0xE9 SHL PUSH1 0x44 DUP3 ADD MSTORE PUSH1 0x64 ADD PUSH2 0x104B JUMP JUMPDEST PUSH1 0x16 SWAP2 SWAP1 SWAP2 SSTORE PUSH1 0xD SSTORE JUMP JUMPDEST PUSH1 0x7 SLOAD PUSH1 0x1 PUSH1 0x1 PUSH1 0xA0 SHL SUB AND CALLER EQ DUP1 PUSH2 0x3074 JUMPI POP PUSH1 0x3 SLOAD PUSH2 0x100 SWAP1 DIV PUSH1 0x1 PUSH1 0x1 PUSH1 0xA0 SHL SUB AND PUSH1 0x1 PUSH1 0x1 PUSH1 0xA0 SHL SUB AND CALLER PUSH1 0x1 PUSH1 0x1 PUSH1 0xA0 SHL SUB AND EQ JUMPDEST PUSH2 0x3090 JUMPI PUSH1 0x40 MLOAD PUSH3 0x461BCD PUSH1 0xE5 SHL DUP2 MSTORE PUSH1 0x4 ADD PUSH2 0x104B SWAP1 PUSH2 0x5B65 JUMP JUMPDEST PUSH1 0xE SLOAD PUSH1 0xFF AND PUSH2 0x30DD JUMPI PUSH1 0x1A SLOAD PUSH2 0x30A9 PUSH1 0x1C SLOAD TIMESTAMP PUSH2 0x3FAB JUMP JUMPDEST LT ISZERO PUSH2 0x30DD JUMPI PUSH1 0x40 MLOAD PUSH3 0x461BCD PUSH1 0xE5 SHL DUP2 MSTORE PUSH1 0x20 PUSH1 0x4 DUP3 ADD MSTORE PUSH1 0x3 PUSH1 0x24 DUP3 ADD MSTORE PUSH3 0x653239 PUSH1 0xE8 SHL PUSH1 0x44 DUP3 ADD MSTORE PUSH1 0x64 ADD PUSH2 0x104B JUMP JUMPDEST PUSH1 0x1 PUSH1 0x1 PUSH1 0xA0 SHL SUB DUP2 AND PUSH1 0x0 SWAP1 DUP2 MSTORE PUSH1 0x2B PUSH1 0x20 MSTORE PUSH1 0x40 SWAP1 KECCAK256 SLOAD ISZERO PUSH2 0x3129 JUMPI PUSH1 0x40 MLOAD PUSH3 0x461BCD PUSH1 0xE5 SHL DUP2 MSTORE PUSH1 0x20 PUSH1 0x4 DUP3 ADD MSTORE PUSH1 0x3 PUSH1 0x24 DUP3 ADD MSTORE PUSH3 0x65333 PUSH1 0xEC SHL PUSH1 0x44 DUP3 ADD MSTORE PUSH1 0x64 ADD PUSH2 0x104B JUMP JUMPDEST TIMESTAMP PUSH1 0x1C SSTORE PUSH1 0x1 PUSH1 0x1 PUSH1 0xA0 SHL SUB AND PUSH1 0x0 SWAP1 DUP2 MSTORE PUSH1 0x2B PUSH1 0x20 MSTORE PUSH1 0x40 SWAP1 KECCAK256 PUSH1 0x1 SWAP1 SSTORE JUMP JUMPDEST PUSH1 0x30 SLOAD PUSH1 0x20 SLOAD PUSH1 0x0 SWAP2 LT PUSH2 0x3199 JUMPI PUSH2 0x3164 PUSH1 0x1D SLOAD TIMESTAMP PUSH2 0x3E52 JUMP JUMPDEST PUSH1 0x20 SLOAD PUSH1 0x64 SWAP1 PUSH2 0x3175 SWAP1 PUSH1 0x19 PUSH2 0x5AFF JUMP JUMPDEST PUSH2 0x317F SWAP2 SWAP1 PUSH2 0x5B34 JUMP JUMPDEST PUSH2 0x3189 SWAP2 SWAP1 PUSH2 0x5AFF JUMP JUMPDEST PUSH2 0x3194 SWAP1 PUSH1 0x4 PUSH2 0x5AFF JUMP JUMPDEST SWAP1 POP SWAP1 JUMP JUMPDEST PUSH1 0x30 SLOAD PUSH2 0x31A7 SWAP1 PUSH1 0x4 PUSH2 0x5AFF JUMP JUMPDEST PUSH2 0x31B3 PUSH1 0x1D SLOAD TIMESTAMP PUSH2 0x3E52 JUMP JUMPDEST PUSH1 0x20 SLOAD PUSH1 0x64 SWAP1 PUSH2 0x31C4 SWAP1 PUSH1 0x19 PUSH2 0x5AFF JUMP JUMPDEST PUSH2 0x31CE SWAP2 SWAP1 PUSH2 0x5B34 JUMP JUMPDEST PUSH2 0x31D8 SWAP2 SWAP1 PUSH2 0x5AFF JUMP JUMPDEST PUSH2 0x3194 SWAP2 SWAP1 PUSH2 0x5109 JUMP JUMPDEST SWAP1 JUMP JUMPDEST PUSH1 0x3 SLOAD PUSH1 0xFF AND ISZERO PUSH2 0x3208 JUMPI PUSH1 0x40 MLOAD PUSH3 0x461BCD PUSH1 0xE5 SHL DUP2 MSTORE PUSH1 0x4 ADD PUSH2 0x104B SWAP1 PUSH2 0x5ABE JUMP JUMPDEST PUSH1 0x19 SLOAD PUSH2 0x3217 PUSH1 0x1B SLOAD TIMESTAMP PUSH2 0x3FAB JUMP JUMPDEST LT ISZERO PUSH2 0x324B JUMPI PUSH1 0x40 MLOAD PUSH3 0x461BCD PUSH1 0xE5 SHL DUP2 MSTORE PUSH1 0x20 PUSH1 0x4 DUP3 ADD MSTORE PUSH1 0x3 PUSH1 0x24 DUP3 ADD MSTORE PUSH3 0x32989B PUSH1 0xE9 SHL PUSH1 0x44 DUP3 ADD MSTORE PUSH1 0x64 ADD PUSH2 0x104B JUMP JUMPDEST PUSH1 0x18 SLOAD PUSH1 0x1 LT PUSH2 0x3283 JUMPI PUSH1 0x40 MLOAD PUSH3 0x461BCD PUSH1 0xE5 SHL DUP2 MSTORE PUSH1 0x20 PUSH1 0x4 DUP3 ADD MSTORE PUSH1 0x3 PUSH1 0x24 DUP3 ADD MSTORE PUSH3 0x653137 PUSH1 0xE8 SHL PUSH1 0x44 DUP3 ADD MSTORE PUSH1 0x64 ADD PUSH2 0x104B JUMP JUMPDEST TIMESTAMP PUSH1 0x1B SSTORE PUSH1 0x22 SLOAD PUSH1 0x21 SLOAD PUSH2 0x3297 SWAP2 SWAP1 PUSH2 0x4713 JUMP JUMPDEST PUSH1 0x6 SSTORE JUMP JUMPDEST PUSH1 0x18 SLOAD PUSH1 0x60 SWAP1 PUSH1 0x0 SWAP1 PUSH1 0x1 PUSH1 0x1 PUSH1 0x40 SHL SUB DUP2 GT ISZERO PUSH2 0x32BC JUMPI PUSH2 0x32BC PUSH2 0x533D JUMP JUMPDEST PUSH1 0x40 MLOAD SWAP1 DUP1 DUP3 MSTORE DUP1 PUSH1 0x20 MUL PUSH1 0x20 ADD DUP3 ADD PUSH1 0x40 MSTORE DUP1 ISZERO PUSH2 0x32E5 JUMPI DUP2 PUSH1 0x20 ADD PUSH1 0x20 DUP3 MUL DUP1 CALLDATASIZE DUP4 CALLDATACOPY ADD SWAP1 POP JUMPDEST POP SWAP1 POP PUSH1 0x0 JUMPDEST PUSH1 0x18 SLOAD DUP2 LT ISZERO PUSH2 0x3362 JUMPI PUSH1 0x18 DUP2 DUP2 SLOAD DUP2 LT PUSH2 0x3308 JUMPI PUSH2 0x3308 PUSH2 0x50DD JUMP JUMPDEST SWAP1 PUSH1 0x0 MSTORE PUSH1 0x20 PUSH1 0x0 KECCAK256 ADD PUSH1 0x0 SWAP1 SLOAD SWAP1 PUSH2 0x100 EXP SWAP1 DIV PUSH1 0x1 PUSH1 0x1 PUSH1 0xA0 SHL SUB AND DUP3 DUP3 DUP2 MLOAD DUP2 LT PUSH2 0x3338 JUMPI PUSH2 0x3338 PUSH2 0x50DD JUMP JUMPDEST PUSH1 0x1 PUSH1 0x1 PUSH1 0xA0 SHL SUB SWAP1 SWAP3 AND PUSH1 0x20 SWAP3 DUP4 MUL SWAP2 SWAP1 SWAP2 ADD SWAP1 SWAP2 ADD MSTORE DUP1 PUSH2 0x335A DUP2 PUSH2 0x5A6E JUMP JUMPDEST SWAP2 POP POP PUSH2 0x32EB JUMP JUMPDEST POP SWAP2 SWAP1 POP JUMP JUMPDEST PUSH1 0x7 SLOAD PUSH1 0x1 PUSH1 0x1 PUSH1 0xA0 SHL SUB AND CALLER EQ DUP1 PUSH2 0x33A2 JUMPI POP PUSH1 0x3 SLOAD PUSH2 0x100 SWAP1 DIV PUSH1 0x1 PUSH1 0x1 PUSH1 0xA0 SHL SUB AND PUSH1 0x1 PUSH1 0x1 PUSH1 0xA0 SHL SUB AND CALLER PUSH1 0x1 PUSH1 0x1 PUSH1 0xA0 SHL SUB AND EQ JUMPDEST PUSH2 0x33BE JUMPI PUSH1 0x40 MLOAD PUSH3 0x461BCD PUSH1 0xE5 SHL DUP2 MSTORE PUSH1 0x4 ADD PUSH2 0x104B SWAP1 PUSH2 0x5B65 JUMP JUMPDEST PUSH1 0x0 PUSH2 0x33C8 PUSH2 0x39AB JUMP JUMPDEST PUSH1 0x10 SLOAD PUSH2 0x100 SWAP1 DIV PUSH1 0x1 PUSH1 0x1 PUSH1 0xA0 SHL SUB AND PUSH1 0x0 SWAP1 DUP2 MSTORE PUSH1 0x2A PUSH1 0x20 MSTORE PUSH1 0x40 SWAP1 KECCAK256 SLOAD PUSH2 0x33F2 SWAP2 SWAP1 PUSH2 0x5B34 JUMP JUMPDEST PUSH2 0x33FD SWAP1 PUSH1 0x4 PUSH2 0x5AFF JUMP JUMPDEST SWAP1 POP PUSH1 0x1E DUP2 LT ISZERO PUSH2 0x340D JUMPI PUSH1 0x0 SWAP2 POP JUMPDEST DUP2 ISZERO PUSH2 0x34C6 JUMPI PUSH1 0x10 DUP1 SLOAD PUSH1 0xFF NOT AND PUSH1 0x1 OR SWAP1 DUP2 SWAP1 SSTORE PUSH1 0x1 PUSH1 0x1 PUSH1 0xA0 SHL SUB PUSH2 0x100 SWAP1 SWAP2 DIV DUP2 AND PUSH1 0x0 SWAP1 DUP2 MSTORE PUSH1 0x2A PUSH1 0x20 MSTORE PUSH1 0x40 DUP1 DUP3 KECCAK256 SLOAD PUSH1 0x28 SLOAD SWAP1 SWAP4 AND DUP3 MSTORE SWAP1 KECCAK256 SLOAD PUSH2 0x3457 SWAP2 SWAP1 PUSH2 0x5109 JUMP JUMPDEST PUSH1 0x28 SLOAD PUSH1 0x1 PUSH1 0x1 PUSH1 0xA0 SHL SUB SWAP1 DUP2 AND PUSH1 0x0 SWAP1 DUP2 MSTORE PUSH1 0x2A PUSH1 0x20 MSTORE PUSH1 0x40 DUP1 DUP3 KECCAK256 SWAP4 SWAP1 SWAP4 SSTORE PUSH1 0x10 SLOAD PUSH2 0x100 SWAP1 DIV SWAP1 SWAP2 AND DUP2 MSTORE SWAP1 DUP2 KECCAK256 SSTORE PUSH2 0x3493 TIMESTAMP DUP3 PUSH2 0x488F JUMP JUMPDEST PUSH1 0x15 SSTORE PUSH1 0x10 SLOAD PUSH1 0x40 DUP1 MLOAD PUSH1 0x20 DUP2 ADD SWAP1 SWAP2 MSTORE PUSH1 0x0 DUP2 MSTORE PUSH2 0x253B SWAP2 PUSH2 0x100 SWAP1 DIV PUSH1 0x1 PUSH1 0x1 PUSH1 0xA0 SHL SUB AND SWAP1 PUSH1 0x2 SWAP1 PUSH1 0x1 SWAP1 PUSH2 0x3FD2 JUMP JUMPDEST PUSH1 0x10 DUP1 SLOAD PUSH1 0x1 PUSH1 0x1 PUSH1 0xA8 SHL SUB NOT AND SWAP1 SSTORE TIMESTAMP PUSH1 0x15 SSTORE PUSH1 0x40 DUP1 MLOAD PUSH1 0x20 DUP2 ADD SWAP2 DUP3 SWAP1 MSTORE PUSH1 0x0 SWAP1 DUP2 SWAP1 MSTORE PUSH2 0x34F8 SWAP2 PUSH1 0x11 SWAP2 PUSH2 0x4FEF JUMP JUMPDEST POP PUSH1 0x40 DUP1 MLOAD PUSH1 0x20 DUP2 ADD SWAP2 DUP3 SWAP1 MSTORE PUSH1 0x0 SWAP1 DUP2 SWAP1 MSTORE PUSH2 0x3517 SWAP2 PUSH1 0x12 SWAP2 PUSH2 0x4FEF JUMP JUMPDEST POP PUSH1 0x40 DUP1 MLOAD PUSH1 0x20 DUP2 ADD SWAP2 DUP3 SWAP1 MSTORE PUSH1 0x0 SWAP1 DUP2 SWAP1 MSTORE PUSH2 0x3536 SWAP2 PUSH1 0x13 SWAP2 PUSH2 0x4FEF JUMP JUMPDEST POP PUSH1 0x40 DUP1 MLOAD PUSH1 0x20 DUP2 ADD SWAP2 DUP3 SWAP1 MSTORE PUSH1 0x0 SWAP1 DUP2 SWAP1 MSTORE PUSH2 0x2452 SWAP2 PUSH1 0x14 SWAP2 PUSH2 0x4FEF JUMP JUMPDEST PUSH1 0x0 DUP1 PUSH2 0x3563 DUP6 DUP6 DUP6 PUSH2 0x3DFB JUMP JUMPDEST PUSH1 0x0 DUP2 DUP2 MSTORE PUSH1 0x2C PUSH1 0x20 MSTORE PUSH1 0x40 SWAP1 KECCAK256 SLOAD SWAP1 SWAP2 POP PUSH1 0x1 PUSH1 0x1 PUSH1 0xA0 SHL SUB AND PUSH2 0x359A JUMPI PUSH1 0x40 MLOAD PUSH3 0x461BCD PUSH1 0xE5 SHL DUP2 MSTORE PUSH1 0x4 ADD PUSH2 0x104B SWAP1 PUSH2 0x5B48 JUMP JUMPDEST PUSH1 0x0 PUSH2 0x35A6 DUP3 TIMESTAMP PUSH2 0x3E52 JUMP JUMPDEST PUSH1 0x0 DUP4 DUP2 MSTORE PUSH1 0x2E PUSH1 0x20 MSTORE PUSH1 0x40 SWAP1 KECCAK256 SLOAD SWAP1 SWAP2 POP PUSH1 0xFF AND ISZERO PUSH2 0x35CE JUMPI PUSH2 0x35CB DUP2 PUSH1 0x4 PUSH2 0x5AFF JUMP JUMPDEST SWAP1 POP JUMPDEST PUSH1 0x0 DUP2 GT PUSH2 0x35DA JUMPI POP PUSH1 0x1 JUMPDEST SWAP6 SWAP5 POP POP POP POP POP JUMP JUMPDEST PUSH1 0x0 PUSH2 0x35F0 DUP5 DUP5 DUP5 PUSH2 0x3DFB JUMP JUMPDEST PUSH1 0x0 DUP2 DUP2 MSTORE PUSH1 0x2C PUSH1 0x20 MSTORE PUSH1 0x40 SWAP1 KECCAK256 SLOAD SWAP1 SWAP2 POP PUSH1 0x1 PUSH1 0x1 PUSH1 0xA0 SHL SUB AND PUSH2 0x3627 JUMPI PUSH1 0x40 MLOAD PUSH3 0x461BCD PUSH1 0xE5 SHL DUP2 MSTORE PUSH1 0x4 ADD PUSH2 0x104B SWAP1 PUSH2 0x5B48 JUMP JUMPDEST PUSH1 0x0 DUP2 DUP2 MSTORE PUSH1 0x2D PUSH1 0x20 MSTORE PUSH1 0x40 SWAP1 KECCAK256 SLOAD PUSH2 0x3641 SWAP1 PUSH1 0x1 PUSH2 0x5109 JUMP JUMPDEST PUSH1 0x0 DUP3 DUP2 MSTORE PUSH1 0x2D PUSH1 0x20 MSTORE PUSH1 0x40 DUP1 DUP3 KECCAK256 SWAP3 SWAP1 SWAP3 SSTORE SWAP1 MLOAD DUP4 SWAP2 DUP6 SWAP2 DUP8 SWAP2 PUSH32 0x4944E1AEB07A8479E05E8FC701C92C6112BD7B4B2CDE831C86B39DD0637C4F39 SWAP2 LOG4 POP POP POP POP JUMP JUMPDEST PUSH1 0x1 PUSH1 0x1 PUSH1 0xA0 SHL SUB DUP6 AND CALLER EQ DUP1 PUSH2 0x36A1 JUMPI POP PUSH2 0x36A1 DUP6 CALLER PUSH2 0xE7A JUMP JUMPDEST PUSH2 0x36FF JUMPI PUSH1 0x40 MLOAD PUSH3 0x461BCD PUSH1 0xE5 SHL DUP2 MSTORE PUSH1 0x20 PUSH1 0x4 DUP3 ADD MSTORE PUSH1 0x29 PUSH1 0x24 DUP3 ADD MSTORE PUSH32 0x455243313135353A2063616C6C6572206973206E6F74206F776E6572206E6F72 PUSH1 0x44 DUP3 ADD MSTORE PUSH9 0x8185C1C1C9BDD9959 PUSH1 0xBA SHL PUSH1 0x64 DUP3 ADD MSTORE PUSH1 0x84 ADD PUSH2 0x104B JUMP JUMPDEST PUSH1 0x1D SLOAD DUP4 LT ISZERO PUSH2 0x3737 JUMPI PUSH1 0x40 MLOAD PUSH3 0x461BCD PUSH1 0xE5 SHL DUP2 MSTORE PUSH1 0x20 PUSH1 0x4 DUP3 ADD MSTORE PUSH1 0x3 PUSH1 0x24 DUP3 ADD MSTORE PUSH3 0x32991B PUSH1 0xE9 SHL PUSH1 0x44 DUP3 ADD MSTORE PUSH1 0x64 ADD PUSH2 0x104B JUMP JUMPDEST PUSH2 0x3744 DUP6 DUP6 DUP6 DUP6 DUP6 PUSH2 0x48B7 JUMP JUMPDEST PUSH1 0x0 DUP4 DUP2 MSTORE PUSH1 0x2C PUSH1 0x20 SWAP1 DUP2 MSTORE PUSH1 0x40 DUP1 DUP4 KECCAK256 DUP1 SLOAD PUSH1 0x1 PUSH1 0x1 PUSH1 0xA0 SHL SUB NOT AND PUSH1 0x1 PUSH1 0x1 PUSH1 0xA0 SHL SUB DUP10 AND OR SWAP1 SSTORE PUSH1 0x2E SWAP1 SWAP2 MSTORE SWAP1 KECCAK256 SLOAD PUSH1 0xFF AND ISZERO PUSH2 0x224E JUMPI PUSH1 0x0 DUP4 DUP2 MSTORE PUSH1 0x2F PUSH1 0x20 MSTORE PUSH1 0x40 SWAP1 KECCAK256 SLOAD PUSH1 0x30 DUP1 SLOAD DUP7 SWAP3 SWAP1 DUP2 LT PUSH2 0x37A2 JUMPI PUSH2 0x37A2 PUSH2 0x50DD JUMP JUMPDEST SWAP1 PUSH1 0x0 MSTORE PUSH1 0x20 PUSH1 0x0 KECCAK256 ADD PUSH1 0x0 PUSH2 0x100 EXP DUP2 SLOAD DUP2 PUSH1 0x1 PUSH1 0x1 PUSH1 0xA0 SHL SUB MUL NOT AND SWAP1 DUP4 PUSH1 0x1 PUSH1 0x1 PUSH1 0xA0 SHL SUB AND MUL OR SWAP1 SSTORE POP POP POP POP POP POP JUMP JUMPDEST PUSH1 0x3 SLOAD PUSH1 0x1 PUSH1 0x1 PUSH1 0xA0 SHL SUB PUSH2 0x100 SWAP1 SWAP2 DIV AND CALLER EQ PUSH2 0x3807 JUMPI PUSH1 0x40 MLOAD PUSH3 0x461BCD PUSH1 0xE5 SHL DUP2 MSTORE PUSH1 0x4 ADD PUSH2 0x104B SWAP1 PUSH2 0x5A89 JUMP JUMPDEST PUSH1 0x1 PUSH1 0x1 PUSH1 0xA0 SHL SUB DUP2 AND PUSH2 0x386C JUMPI PUSH1 0x40 MLOAD PUSH3 0x461BCD PUSH1 0xE5 SHL DUP2 MSTORE PUSH1 0x20 PUSH1 0x4 DUP3 ADD MSTORE PUSH1 0x26 PUSH1 0x24 DUP3 ADD MSTORE PUSH32 0x4F776E61626C653A206E6577206F776E657220697320746865207A65726F2061 PUSH1 0x44 DUP3 ADD MSTORE PUSH6 0x646472657373 PUSH1 0xD0 SHL PUSH1 0x64 DUP3 ADD MSTORE PUSH1 0x84 ADD PUSH2 0x104B JUMP JUMPDEST PUSH2 0x3875 DUP2 PUSH2 0x43BD JUMP JUMPDEST POP JUMP JUMPDEST PUSH1 0x3 SLOAD PUSH1 0xFF AND ISZERO PUSH2 0x389B JUMPI PUSH1 0x40 MLOAD PUSH3 0x461BCD PUSH1 0xE5 SHL DUP2 MSTORE PUSH1 0x4 ADD PUSH2 0x104B SWAP1 PUSH2 0x5ABE JUMP JUMPDEST PUSH1 0xE SLOAD PUSH1 0xFF AND ISZERO PUSH2 0x38D4 JUMPI PUSH1 0x40 MLOAD PUSH3 0x461BCD PUSH1 0xE5 SHL DUP2 MSTORE PUSH1 0x20 PUSH1 0x4 DUP3 ADD MSTORE PUSH1 0x3 PUSH1 0x24 DUP3 ADD MSTORE PUSH3 0x65323 PUSH1 0xEC SHL PUSH1 0x44 DUP3 ADD MSTORE PUSH1 0x64 ADD PUSH2 0x104B JUMP JUMPDEST PUSH1 0x1 PUSH1 0x0 JUMPDEST PUSH1 0x18 SLOAD DUP2 LT ISZERO PUSH2 0x3932 JUMPI CALLER PUSH1 0x1 PUSH1 0x1 PUSH1 0xA0 SHL SUB AND PUSH1 0x18 DUP3 DUP2 SLOAD DUP2 LT PUSH2 0x3900 JUMPI PUSH2 0x3900 PUSH2 0x50DD JUMP JUMPDEST PUSH1 0x0 SWAP2 DUP3 MSTORE PUSH1 0x20 SWAP1 SWAP2 KECCAK256 ADD SLOAD PUSH1 0x1 PUSH1 0x1 PUSH1 0xA0 SHL SUB AND EQ ISZERO PUSH2 0x3920 JUMPI PUSH1 0x0 SWAP2 POP JUMPDEST DUP1 PUSH2 0x392A DUP2 PUSH2 0x5A6E JUMP JUMPDEST SWAP2 POP POP PUSH2 0x38D9 JUMP JUMPDEST POP DUP1 PUSH2 0x3966 JUMPI PUSH1 0x40 MLOAD PUSH3 0x461BCD PUSH1 0xE5 SHL DUP2 MSTORE PUSH1 0x20 PUSH1 0x4 DUP3 ADD MSTORE PUSH1 0x3 PUSH1 0x24 DUP3 ADD MSTORE PUSH3 0x653231 PUSH1 0xE8 SHL PUSH1 0x44 DUP3 ADD MSTORE PUSH1 0x64 ADD PUSH2 0x104B JUMP JUMPDEST POP PUSH1 0x18 DUP1 SLOAD PUSH1 0x1 DUP2 ADD DUP3 SSTORE PUSH1 0x0 SWAP2 SWAP1 SWAP2 MSTORE PUSH32 0xB13D2D76D1F4B7BE834882E410B3E3A8AFAF69F83600AE24DB354391D2378D2E ADD DUP1 SLOAD PUSH1 0x1 PUSH1 0x1 PUSH1 0xA0 SHL SUB NOT AND CALLER OR SWAP1 SSTORE JUMP JUMPDEST PUSH1 0x0 DUP1 PUSH1 0xB PUSH1 0x0 SWAP1 SLOAD SWAP1 PUSH2 0x100 EXP SWAP1 DIV PUSH1 0x1 PUSH1 0x1 PUSH1 0xA0 SHL SUB AND PUSH1 0x1 PUSH1 0x1 PUSH1 0xA0 SHL SUB AND PUSH4 0xFEAF968C PUSH1 0x40 MLOAD DUP2 PUSH4 0xFFFFFFFF AND PUSH1 0xE0 SHL DUP2 MSTORE PUSH1 0x4 ADD PUSH1 0xA0 PUSH1 0x40 MLOAD DUP1 DUP4 SUB DUP2 DUP7 GAS STATICCALL ISZERO DUP1 ISZERO PUSH2 0x3A01 JUMPI RETURNDATASIZE PUSH1 0x0 DUP1 RETURNDATACOPY RETURNDATASIZE PUSH1 0x0 REVERT JUMPDEST POP POP POP POP PUSH1 0x40 MLOAD RETURNDATASIZE PUSH1 0x1F NOT PUSH1 0x1F DUP3 ADD AND DUP3 ADD DUP1 PUSH1 0x40 MSTORE POP DUP2 ADD SWAP1 PUSH2 0x3A25 SWAP2 SWAP1 PUSH2 0x5B9B JUMP JUMPDEST POP POP POP SWAP2 POP POP DUP1 PUSH5 0x2540BE400 PUSH2 0x3A3C SWAP2 SWAP1 PUSH2 0x5AFF JUMP JUMPDEST PUSH1 0x16 SLOAD PUSH2 0x3A51 SWAP1 PUSH8 0xDE0B6B3A7640000 PUSH2 0x5AFF JUMP JUMPDEST PUSH2 0x3A5B SWAP2 SWAP1 PUSH2 0x5B34 JUMP JUMPDEST SWAP2 POP POP SWAP1 JUMP JUMPDEST PUSH1 0x0 PUSH2 0x3A6E DUP9 DUP9 DUP9 PUSH2 0x3DFB JUMP JUMPDEST SWAP1 POP PUSH1 0xFF DUP6 MLOAD GT ISZERO PUSH2 0x3AA8 JUMPI PUSH1 0x40 MLOAD PUSH3 0x461BCD PUSH1 0xE5 SHL DUP2 MSTORE PUSH1 0x20 PUSH1 0x4 DUP3 ADD MSTORE PUSH1 0x3 PUSH1 0x24 DUP3 ADD MSTORE PUSH3 0x329919 PUSH1 0xE9 SHL PUSH1 0x44 DUP3 ADD MSTORE PUSH1 0x64 ADD PUSH2 0x104B JUMP JUMPDEST PUSH1 0x0 DUP2 DUP2 MSTORE PUSH1 0x2C PUSH1 0x20 MSTORE PUSH1 0x40 SWAP1 KECCAK256 SLOAD PUSH1 0x1 PUSH1 0x1 PUSH1 0xA0 SHL SUB AND PUSH2 0x3AF2 JUMPI PUSH1 0x40 MLOAD PUSH3 0x461BCD PUSH1 0xE5 SHL DUP2 MSTORE PUSH1 0x20 PUSH1 0x4 DUP3 ADD MSTORE PUSH1 0x3 PUSH1 0x24 DUP3 ADD MSTORE PUSH3 0x653233 PUSH1 0xE8 SHL PUSH1 0x44 DUP3 ADD MSTORE PUSH1 0x64 ADD PUSH2 0x104B JUMP JUMPDEST PUSH1 0x0 DUP2 DUP2 MSTORE PUSH1 0x2C PUSH1 0x20 MSTORE PUSH1 0x40 SWAP1 KECCAK256 SLOAD PUSH1 0x1 PUSH1 0x1 PUSH1 0xA0 SHL SUB AND CALLER EQ PUSH2 0x3B3E JUMPI PUSH1 0x40 MLOAD PUSH3 0x461BCD PUSH1 0xE5 SHL DUP2 MSTORE PUSH1 0x20 PUSH1 0x4 DUP3 ADD MSTORE PUSH1 0x3 PUSH1 0x24 DUP3 ADD MSTORE PUSH3 0x194C8D PUSH1 0xEA SHL PUSH1 0x44 DUP3 ADD MSTORE PUSH1 0x64 ADD PUSH2 0x104B JUMP JUMPDEST PUSH2 0x3B61 DUP6 PUSH1 0x40 MLOAD DUP1 PUSH1 0x40 ADD PUSH1 0x40 MSTORE DUP1 PUSH1 0x1 DUP2 MSTORE PUSH1 0x20 ADD PUSH1 0x1 PUSH1 0xFD SHL DUP2 MSTORE POP PUSH2 0x46BA JUMP JUMPDEST PUSH2 0x3B95 JUMPI PUSH1 0x0 DUP2 DUP2 MSTORE PUSH1 0x31 PUSH1 0x20 SWAP1 DUP2 MSTORE PUSH1 0x40 SWAP1 SWAP2 KECCAK256 DUP7 MLOAD PUSH2 0x3B84 SWAP3 DUP9 ADD SWAP1 PUSH2 0x4FEF JUMP JUMPDEST POP PUSH1 0x0 DUP2 DUP2 MSTORE PUSH1 0x2D PUSH1 0x20 MSTORE PUSH1 0x40 DUP2 KECCAK256 SSTORE JUMPDEST PUSH2 0x3BB8 DUP4 PUSH1 0x40 MLOAD DUP1 PUSH1 0x40 ADD PUSH1 0x40 MSTORE DUP1 PUSH1 0x1 DUP2 MSTORE PUSH1 0x20 ADD PUSH1 0x1 PUSH1 0xFD SHL DUP2 MSTORE POP PUSH2 0x46BA JUMP JUMPDEST PUSH2 0x3BDE JUMPI CALLER PUSH1 0x0 SWAP1 DUP2 MSTORE PUSH1 0x33 PUSH1 0x20 SWAP1 DUP2 MSTORE PUSH1 0x40 SWAP1 SWAP2 KECCAK256 DUP5 MLOAD PUSH2 0x3BDC SWAP3 DUP7 ADD SWAP1 PUSH2 0x4FEF JUMP JUMPDEST POP JUMPDEST PUSH2 0x3C01 DUP3 PUSH1 0x40 MLOAD DUP1 PUSH1 0x40 ADD PUSH1 0x40 MSTORE DUP1 PUSH1 0x1 DUP2 MSTORE PUSH1 0x20 ADD PUSH1 0x1 PUSH1 0xFD SHL DUP2 MSTORE POP PUSH2 0x46BA JUMP JUMPDEST PUSH2 0x3C26 JUMPI PUSH1 0x0 DUP2 DUP2 MSTORE PUSH1 0x34 PUSH1 0x20 SWAP1 DUP2 MSTORE PUSH1 0x40 SWAP1 SWAP2 KECCAK256 DUP4 MLOAD PUSH2 0x3C24 SWAP3 DUP6 ADD SWAP1 PUSH2 0x4FEF JUMP JUMPDEST POP JUMPDEST PUSH2 0x3C49 DUP5 PUSH1 0x40 MLOAD DUP1 PUSH1 0x40 ADD PUSH1 0x40 MSTORE DUP1 PUSH1 0x1 DUP2 MSTORE PUSH1 0x20 ADD PUSH1 0x1 PUSH1 0xFD SHL DUP2 MSTORE POP PUSH2 0x46BA JUMP JUMPDEST PUSH2 0x3D9A JUMPI PUSH1 0x40 DUP1 MLOAD DUP1 DUP3 ADD DUP3 MSTORE PUSH1 0x0 DUP1 DUP3 MSTORE PUSH1 0x20 SWAP2 DUP3 ADD MSTORE DUP2 MLOAD DUP1 DUP4 ADD SWAP1 SWAP3 MSTORE DUP6 MLOAD DUP3 MSTORE DUP1 DUP7 ADD SWAP1 DUP3 ADD MSTORE PUSH2 0x3D38 SWAP1 PUSH2 0x3D33 PUSH1 0x5 DUP1 SLOAD PUSH2 0x3C88 SWAP1 PUSH2 0x5A39 JUMP JUMPDEST DUP1 PUSH1 0x1F ADD PUSH1 0x20 DUP1 SWAP2 DIV MUL PUSH1 0x20 ADD PUSH1 0x40 MLOAD SWAP1 DUP2 ADD PUSH1 0x40 MSTORE DUP1 SWAP3 SWAP2 SWAP1 DUP2 DUP2 MSTORE PUSH1 0x20 ADD DUP3 DUP1 SLOAD PUSH2 0x3CB4 SWAP1 PUSH2 0x5A39 JUMP JUMPDEST DUP1 ISZERO PUSH2 0x3D01 JUMPI DUP1 PUSH1 0x1F LT PUSH2 0x3CD6 JUMPI PUSH2 0x100 DUP1 DUP4 SLOAD DIV MUL DUP4 MSTORE SWAP2 PUSH1 0x20 ADD SWAP2 PUSH2 0x3D01 JUMP JUMPDEST DUP3 ADD SWAP2 SWAP1 PUSH1 0x0 MSTORE PUSH1 0x20 PUSH1 0x0 KECCAK256 SWAP1 JUMPDEST DUP2 SLOAD DUP2 MSTORE SWAP1 PUSH1 0x1 ADD SWAP1 PUSH1 0x20 ADD DUP1 DUP4 GT PUSH2 0x3CE4 JUMPI DUP3 SWAP1 SUB PUSH1 0x1F AND DUP3 ADD SWAP2 JUMPDEST POP POP POP POP POP PUSH1 0x40 DUP1 MLOAD DUP1 DUP3 ADD DUP3 MSTORE PUSH1 0x0 DUP1 DUP3 MSTORE PUSH1 0x20 SWAP2 DUP3 ADD MSTORE DUP2 MLOAD DUP1 DUP4 ADD SWAP1 SWAP3 MSTORE DUP3 MLOAD DUP3 MSTORE SWAP2 DUP3 ADD SWAP2 DUP2 ADD SWAP2 SWAP1 SWAP2 MSTORE SWAP1 JUMP JUMPDEST PUSH2 0x4A12 JUMP JUMPDEST PUSH2 0x3D6A JUMPI PUSH1 0x40 MLOAD PUSH3 0x461BCD PUSH1 0xE5 SHL DUP2 MSTORE PUSH1 0x20 PUSH1 0x4 DUP3 ADD MSTORE PUSH1 0x3 PUSH1 0x24 DUP3 ADD MSTORE PUSH3 0x653235 PUSH1 0xE8 SHL PUSH1 0x44 DUP3 ADD MSTORE PUSH1 0x64 ADD PUSH2 0x104B JUMP JUMPDEST PUSH1 0x0 DUP2 DUP2 MSTORE PUSH1 0x32 PUSH1 0x20 SWAP1 DUP2 MSTORE PUSH1 0x40 SWAP1 SWAP2 KECCAK256 DUP6 MLOAD PUSH2 0x3D89 SWAP3 DUP8 ADD SWAP1 PUSH2 0x4FEF JUMP JUMPDEST POP PUSH1 0x0 DUP2 DUP2 MSTORE PUSH1 0x2D PUSH1 0x20 MSTORE PUSH1 0x40 DUP2 KECCAK256 SSTORE JUMPDEST DUP6 DUP8 DUP10 PUSH32 0xE80E787D8312C1F12419513EF663CCBFAA42EA5226B0A7BE319138F4A30745E2 PUSH1 0x40 MLOAD PUSH1 0x40 MLOAD DUP1 SWAP2 SUB SWAP1 LOG4 POP POP POP POP POP POP POP POP JUMP JUMPDEST PUSH1 0x0 PUSH2 0x3DE2 PUSH3 0x15180 DUP4 PUSH2 0x5AFF JUMP JUMPDEST PUSH2 0x3DEC SWAP1 DUP5 PUSH2 0x5AE8 JUMP JUMPDEST SWAP1 POP DUP3 DUP2 GT ISZERO PUSH2 0x1077 JUMPI PUSH1 0x0 DUP1 REVERT JUMPDEST PUSH1 0x0 PUSH3 0x15180 PUSH2 0x3E0C DUP6 DUP6 DUP6 PUSH2 0x4A56 JUMP JUMPDEST PUSH2 0x10DA SWAP2 SWAP1 PUSH2 0x5AFF JUMP JUMPDEST PUSH1 0x0 PUSH2 0x3E23 PUSH1 0x4 DUP4 PUSH2 0x5BEB JUMP JUMPDEST ISZERO DUP1 ISZERO PUSH2 0x3E39 JUMPI POP PUSH2 0x3E36 PUSH1 0x64 DUP4 PUSH2 0x5BEB JUMP JUMPDEST ISZERO ISZERO JUMPDEST DUP1 PUSH2 0x1077 JUMPI POP PUSH2 0x3E4B PUSH2 0x190 DUP4 PUSH2 0x5BEB JUMP JUMPDEST ISZERO SWAP3 SWAP2 POP POP JUMP JUMPDEST PUSH1 0x0 DUP2 DUP4 GT ISZERO PUSH2 0x3E61 JUMPI PUSH1 0x0 DUP1 REVERT JUMPDEST PUSH1 0x0 DUP1 DUP1 DUP1 DUP1 DUP1 PUSH2 0x3E7D PUSH2 0x3E78 PUSH3 0x15180 DUP12 PUSH2 0x5B34 JUMP JUMPDEST PUSH2 0x4B93 JUMP JUMPDEST SWAP2 SWAP8 POP SWAP6 POP SWAP4 POP PUSH2 0x3E94 PUSH2 0x3E78 PUSH3 0x15180 DUP11 PUSH2 0x5B34 JUMP JUMPDEST SWAP2 SWAP5 POP SWAP3 POP SWAP1 POP PUSH2 0x3EA5 DUP7 DUP5 PUSH2 0x5AE8 JUMP JUMPDEST SWAP10 SWAP9 POP POP POP POP POP POP POP POP POP JUMP JUMPDEST POP POP POP POP POP POP JUMP JUMPDEST EXTCODESIZE ISZERO ISZERO SWAP1 JUMP JUMPDEST PUSH1 0x3 SLOAD PUSH1 0xFF AND PUSH2 0x3F09 JUMPI PUSH1 0x40 MLOAD PUSH3 0x461BCD PUSH1 0xE5 SHL DUP2 MSTORE PUSH1 0x20 PUSH1 0x4 DUP3 ADD MSTORE PUSH1 0x14 PUSH1 0x24 DUP3 ADD MSTORE PUSH20 0x14185D5CD8589B194E881B9BDD081C185D5CD959 PUSH1 0x62 SHL PUSH1 0x44 DUP3 ADD MSTORE PUSH1 0x64 ADD PUSH2 0x104B JUMP JUMPDEST PUSH1 0x3 DUP1 SLOAD PUSH1 0xFF NOT AND SWAP1 SSTORE PUSH32 0x5DB9EE0A495BF2E6FF9C91A7834C1BA4FDD244A5E8AA4E537BD38AEAE4B073AA CALLER JUMPDEST PUSH1 0x40 MLOAD PUSH1 0x1 PUSH1 0x1 PUSH1 0xA0 SHL SUB SWAP1 SWAP2 AND DUP2 MSTORE PUSH1 0x20 ADD PUSH1 0x40 MLOAD DUP1 SWAP2 SUB SWAP1 LOG1 JUMP JUMPDEST PUSH1 0x3 SLOAD PUSH1 0xFF AND ISZERO PUSH2 0x3F76 JUMPI PUSH1 0x40 MLOAD PUSH3 0x461BCD PUSH1 0xE5 SHL DUP2 MSTORE PUSH1 0x4 ADD PUSH2 0x104B SWAP1 PUSH2 0x5ABE JUMP JUMPDEST PUSH1 0x3 DUP1 SLOAD PUSH1 0xFF NOT AND PUSH1 0x1 OR SWAP1 SSTORE PUSH32 0x62E78CEA01BEE320CD4E420270B5EA74000D11B0C9F74754EBDBFC544B05A258 PUSH2 0x3F36 CALLER SWAP1 JUMP JUMPDEST PUSH1 0x0 DUP2 DUP4 GT ISZERO PUSH2 0x3FBA JUMPI PUSH1 0x0 DUP1 REVERT JUMPDEST PUSH3 0x15180 PUSH2 0x3FC8 DUP5 DUP5 PUSH2 0x5AE8 JUMP JUMPDEST PUSH2 0x2479 SWAP2 SWAP1 PUSH2 0x5B34 JUMP JUMPDEST PUSH1 0x1 PUSH1 0x1 PUSH1 0xA0 SHL SUB DUP5 AND PUSH2 0x4032 JUMPI PUSH1 0x40 MLOAD PUSH3 0x461BCD PUSH1 0xE5 SHL DUP2 MSTORE PUSH1 0x20 PUSH1 0x4 DUP3 ADD MSTORE PUSH1 0x21 PUSH1 0x24 DUP3 ADD MSTORE PUSH32 0x455243313135353A206D696E7420746F20746865207A65726F20616464726573 PUSH1 0x44 DUP3 ADD MSTORE PUSH1 0x73 PUSH1 0xF8 SHL PUSH1 0x64 DUP3 ADD MSTORE PUSH1 0x84 ADD PUSH2 0x104B JUMP JUMPDEST CALLER PUSH2 0x4052 DUP2 PUSH1 0x0 DUP8 PUSH2 0x4043 DUP9 PUSH2 0x4D07 JUMP JUMPDEST PUSH2 0x404C DUP9 PUSH2 0x4D07 JUMP JUMPDEST DUP8 PUSH2 0x4D52 JUMP JUMPDEST PUSH1 0x0 DUP5 DUP2 MSTORE PUSH1 0x20 DUP2 DUP2 MSTORE PUSH1 0x40 DUP1 DUP4 KECCAK256 PUSH1 0x1 PUSH1 0x1 PUSH1 0xA0 SHL SUB DUP10 AND DUP5 MSTORE SWAP1 SWAP2 MSTORE DUP2 KECCAK256 DUP1 SLOAD DUP6 SWAP3 SWAP1 PUSH2 0x4082 SWAP1 DUP5 SWAP1 PUSH2 0x5109 JUMP JUMPDEST SWAP1 SWAP2 SSTORE POP POP PUSH1 0x40 DUP1 MLOAD DUP6 DUP2 MSTORE PUSH1 0x20 DUP2 ADD DUP6 SWAP1 MSTORE PUSH1 0x1 PUSH1 0x1 PUSH1 0xA0 SHL SUB DUP1 DUP9 AND SWAP3 PUSH1 0x0 SWAP3 SWAP2 DUP6 AND SWAP2 PUSH32 0xC3D58168C5AE7397731D063D5BBF3D657854427343F4C083240F7AACAA2D0F62 SWAP2 ADD PUSH1 0x40 MLOAD DUP1 SWAP2 SUB SWAP1 LOG4 PUSH2 0x224E DUP2 PUSH1 0x0 DUP8 DUP8 DUP8 DUP8 PUSH2 0x4DBA JUMP JUMPDEST PUSH1 0x20 SLOAD PUSH1 0x0 SWAP1 PUSH2 0x40F2 SWAP1 DUP4 PUSH2 0x5B34 JUMP JUMPDEST SWAP1 POP PUSH1 0x0 JUMPDEST PUSH1 0x20 SLOAD DUP2 LT ISZERO PUSH2 0x2452 JUMPI DUP2 PUSH1 0x2A PUSH1 0x0 PUSH1 0x2C PUSH1 0x0 PUSH1 0x20 DUP7 DUP2 SLOAD DUP2 LT PUSH2 0x411D JUMPI PUSH2 0x411D PUSH2 0x50DD JUMP JUMPDEST PUSH1 0x0 SWAP2 DUP3 MSTORE PUSH1 0x20 DUP1 DUP4 KECCAK256 SWAP1 SWAP2 ADD SLOAD DUP4 MSTORE DUP3 DUP2 ADD SWAP4 SWAP1 SWAP4 MSTORE PUSH1 0x40 SWAP2 DUP3 ADD DUP2 KECCAK256 SLOAD PUSH1 0x1 PUSH1 0x1 PUSH1 0xA0 SHL SUB AND DUP5 MSTORE SWAP2 DUP4 ADD SWAP4 SWAP1 SWAP4 MSTORE SWAP2 ADD SWAP1 KECCAK256 SLOAD PUSH2 0x415D SWAP2 SWAP1 PUSH2 0x5109 JUMP JUMPDEST PUSH1 0x2A PUSH1 0x0 PUSH1 0x2C PUSH1 0x0 PUSH1 0x20 DUP7 DUP2 SLOAD DUP2 LT PUSH2 0x4178 JUMPI PUSH2 0x4178 PUSH2 0x50DD JUMP JUMPDEST PUSH1 0x0 SWAP2 DUP3 MSTORE PUSH1 0x20 DUP1 DUP4 KECCAK256 SWAP1 SWAP2 ADD SLOAD DUP4 MSTORE DUP3 DUP2 ADD SWAP4 SWAP1 SWAP4 MSTORE PUSH1 0x40 SWAP2 DUP3 ADD DUP2 KECCAK256 SLOAD PUSH1 0x1 PUSH1 0x1 PUSH1 0xA0 SHL SUB AND DUP5 MSTORE SWAP2 DUP4 ADD SWAP4 SWAP1 SWAP4 MSTORE SWAP2 ADD SWAP1 KECCAK256 SSTORE DUP1 PUSH2 0x41B8 DUP2 PUSH2 0x5A6E JUMP JUMPDEST SWAP2 POP POP PUSH2 0x40F7 JUMP JUMPDEST PUSH1 0x30 SLOAD PUSH1 0x0 SWAP1 PUSH2 0x41D0 SWAP1 DUP4 PUSH2 0x5B34 JUMP JUMPDEST SWAP1 POP PUSH1 0x0 JUMPDEST PUSH1 0x30 SLOAD DUP2 LT ISZERO PUSH2 0x2452 JUMPI DUP2 PUSH1 0x2A PUSH1 0x0 PUSH1 0x30 DUP5 DUP2 SLOAD DUP2 LT PUSH2 0x41F7 JUMPI PUSH2 0x41F7 PUSH2 0x50DD JUMP JUMPDEST PUSH1 0x0 SWAP2 DUP3 MSTORE PUSH1 0x20 DUP1 DUP4 KECCAK256 SWAP1 SWAP2 ADD SLOAD PUSH1 0x1 PUSH1 0x1 PUSH1 0xA0 SHL SUB AND DUP4 MSTORE DUP3 ADD SWAP3 SWAP1 SWAP3 MSTORE PUSH1 0x40 ADD SWAP1 KECCAK256 SLOAD PUSH2 0x4226 SWAP2 SWAP1 PUSH2 0x5109 JUMP JUMPDEST PUSH1 0x2A PUSH1 0x0 PUSH1 0x30 DUP5 DUP2 SLOAD DUP2 LT PUSH2 0x423D JUMPI PUSH2 0x423D PUSH2 0x50DD JUMP JUMPDEST PUSH1 0x0 SWAP2 DUP3 MSTORE PUSH1 0x20 DUP1 DUP4 KECCAK256 SWAP1 SWAP2 ADD SLOAD PUSH1 0x1 PUSH1 0x1 PUSH1 0xA0 SHL SUB AND DUP4 MSTORE DUP3 ADD SWAP3 SWAP1 SWAP3 MSTORE PUSH1 0x40 ADD SWAP1 KECCAK256 SSTORE DUP1 PUSH2 0x426C DUP2 PUSH2 0x5A6E JUMP JUMPDEST SWAP2 POP POP PUSH2 0x41D5 JUMP JUMPDEST DUP5 MLOAD DUP2 LT ISZERO PUSH2 0x4357 JUMPI PUSH1 0x0 DUP6 DUP3 DUP2 MLOAD DUP2 LT PUSH2 0x4291 JUMPI PUSH2 0x4291 PUSH2 0x50DD JUMP JUMPDEST PUSH1 0x20 MUL PUSH1 0x20 ADD ADD MLOAD SWAP1 POP PUSH1 0x0 DUP6 DUP4 DUP2 MLOAD DUP2 LT PUSH2 0x42AF JUMPI PUSH2 0x42AF PUSH2 0x50DD JUMP JUMPDEST PUSH1 0x20 SWAP1 DUP2 MUL SWAP2 SWAP1 SWAP2 ADD DUP2 ADD MLOAD PUSH1 0x0 DUP5 DUP2 MSTORE DUP1 DUP4 MSTORE PUSH1 0x40 DUP1 DUP3 KECCAK256 PUSH1 0x1 PUSH1 0x1 PUSH1 0xA0 SHL SUB DUP15 AND DUP4 MSTORE SWAP1 SWAP4 MSTORE SWAP2 SWAP1 SWAP2 KECCAK256 SLOAD SWAP1 SWAP2 POP DUP2 DUP2 LT ISZERO PUSH2 0x42FF JUMPI PUSH1 0x40 MLOAD PUSH3 0x461BCD PUSH1 0xE5 SHL DUP2 MSTORE PUSH1 0x4 ADD PUSH2 0x104B SWAP1 PUSH2 0x5BFF JUMP JUMPDEST PUSH1 0x0 DUP4 DUP2 MSTORE PUSH1 0x20 DUP2 DUP2 MSTORE PUSH1 0x40 DUP1 DUP4 KECCAK256 PUSH1 0x1 PUSH1 0x1 PUSH1 0xA0 SHL SUB DUP15 DUP2 AND DUP6 MSTORE SWAP3 MSTORE DUP1 DUP4 KECCAK256 DUP6 DUP6 SUB SWAP1 SSTORE SWAP1 DUP12 AND DUP3 MSTORE DUP2 KECCAK256 DUP1 SLOAD DUP5 SWAP3 SWAP1 PUSH2 0x433C SWAP1 DUP5 SWAP1 PUSH2 0x5109 JUMP JUMPDEST SWAP3 POP POP DUP2 SWAP1 SSTORE POP POP POP POP DUP1 PUSH2 0x4350 SWAP1 PUSH2 0x5A6E JUMP JUMPDEST SWAP1 POP PUSH2 0x4274 JUMP JUMPDEST POP DUP5 PUSH1 0x1 PUSH1 0x1 PUSH1 0xA0 SHL SUB AND DUP7 PUSH1 0x1 PUSH1 0x1 PUSH1 0xA0 SHL SUB AND DUP3 PUSH1 0x1 PUSH1 0x1 PUSH1 0xA0 SHL SUB AND PUSH32 0x4A39DC06D4C0DBC64B70AF90FD698A233A518AA5D07E595D983B8C0526C8F7FB DUP8 DUP8 PUSH1 0x40 MLOAD PUSH2 0x43A7 SWAP3 SWAP2 SWAP1 PUSH2 0x5C49 JUMP JUMPDEST PUSH1 0x40 MLOAD DUP1 SWAP2 SUB SWAP1 LOG4 PUSH2 0x3EB2 DUP2 DUP8 DUP8 DUP8 DUP8 DUP8 PUSH2 0x4F16 JUMP JUMPDEST PUSH1 0x3 DUP1 SLOAD PUSH1 0x1 PUSH1 0x1 PUSH1 0xA0 SHL SUB DUP4 DUP2 AND PUSH2 0x100 DUP2 DUP2 MUL PUSH2 0x100 PUSH1 0x1 PUSH1 0xA8 SHL SUB NOT DUP6 AND OR SWAP1 SWAP5 SSTORE PUSH1 0x40 MLOAD SWAP4 SWAP1 SWAP3 DIV AND SWAP2 DUP3 SWAP1 PUSH32 0x8BE0079C531659141344CD1FD0A4F28419497F9722A3DAAFE3B4186F6B6457E0 SWAP1 PUSH1 0x0 SWAP1 LOG3 POP POP JUMP JUMPDEST DUP2 PUSH1 0x6 SLOAD EQ PUSH2 0x444E JUMPI PUSH1 0x40 MLOAD PUSH3 0x461BCD PUSH1 0xE5 SHL DUP2 MSTORE PUSH1 0x20 PUSH1 0x4 DUP3 ADD MSTORE PUSH1 0x3 PUSH1 0x24 DUP3 ADD MSTORE PUSH3 0xCA627 PUSH1 0xEB SHL PUSH1 0x44 DUP3 ADD MSTORE PUSH1 0x64 ADD PUSH2 0x104B JUMP JUMPDEST PUSH1 0x0 DUP2 GT PUSH2 0x4484 JUMPI PUSH1 0x40 MLOAD PUSH3 0x461BCD PUSH1 0xE5 SHL DUP2 MSTORE PUSH1 0x20 PUSH1 0x4 DUP3 ADD MSTORE PUSH1 0x3 PUSH1 0x24 DUP3 ADD MSTORE PUSH3 0x653139 PUSH1 0xE8 SHL PUSH1 0x44 DUP3 ADD MSTORE PUSH1 0x64 ADD PUSH2 0x104B JUMP JUMPDEST PUSH1 0x18 SLOAD PUSH1 0x0 SWAP1 PUSH2 0x4494 SWAP1 DUP4 PUSH2 0x5BEB JUMP JUMPDEST SWAP1 POP PUSH1 0x2B PUSH1 0x0 PUSH1 0x18 DUP4 DUP2 SLOAD DUP2 LT PUSH2 0x44AD JUMPI PUSH2 0x44AD PUSH2 0x50DD JUMP JUMPDEST PUSH1 0x0 SWAP2 DUP3 MSTORE PUSH1 0x20 DUP1 DUP4 KECCAK256 SWAP1 SWAP2 ADD SLOAD PUSH1 0x1 PUSH1 0x1 PUSH1 0xA0 SHL SUB AND DUP4 MSTORE DUP3 ADD SWAP3 SWAP1 SWAP3 MSTORE PUSH1 0x40 ADD SWAP1 KECCAK256 SLOAD PUSH2 0x44DD SWAP1 PUSH1 0x1 PUSH2 0x5109 JUMP JUMPDEST PUSH1 0x2B PUSH1 0x0 PUSH1 0x18 DUP5 DUP2 SLOAD DUP2 LT PUSH2 0x44F4 JUMPI PUSH2 0x44F4 PUSH2 0x50DD JUMP JUMPDEST PUSH1 0x0 SWAP2 DUP3 MSTORE PUSH1 0x20 DUP1 DUP4 KECCAK256 SWAP1 SWAP2 ADD SLOAD PUSH1 0x1 PUSH1 0x1 PUSH1 0xA0 SHL SUB AND DUP4 MSTORE DUP3 ADD SWAP3 SWAP1 SWAP3 MSTORE PUSH1 0x40 ADD SWAP1 KECCAK256 SSTORE PUSH1 0x18 DUP1 SLOAD DUP3 SWAP1 DUP2 LT PUSH2 0x452D JUMPI PUSH2 0x452D PUSH2 0x50DD JUMP JUMPDEST PUSH1 0x0 SWAP2 DUP3 MSTORE PUSH1 0x20 SWAP1 SWAP2 KECCAK256 ADD SLOAD PUSH1 0xA DUP1 SLOAD PUSH1 0x1 PUSH1 0x1 PUSH1 0xA0 SHL SUB NOT AND PUSH1 0x1 PUSH1 0x1 PUSH1 0xA0 SHL SUB SWAP1 SWAP3 AND SWAP2 SWAP1 SWAP2 OR SWAP1 SSTORE PUSH1 0x18 DUP1 SLOAD DUP3 SWAP1 DUP2 LT PUSH2 0x456C JUMPI PUSH2 0x456C PUSH2 0x50DD JUMP JUMPDEST PUSH1 0x0 SWAP2 DUP3 MSTORE PUSH1 0x20 SWAP2 DUP3 SWAP1 KECCAK256 ADD SLOAD PUSH1 0x40 MLOAD DUP5 DUP2 MSTORE PUSH1 0x1 PUSH1 0x1 PUSH1 0xA0 SHL SUB SWAP1 SWAP2 AND SWAP2 PUSH32 0x8DCB1B46B7E05DD96ECD3AE5F7B77B7C6E369F8CED83A2AB24368C4F8E16B8C9 SWAP2 ADD PUSH1 0x40 MLOAD DUP1 SWAP2 SUB SWAP1 LOG2 PUSH1 0x40 DUP1 MLOAD PUSH1 0x0 DUP2 MSTORE PUSH1 0x20 DUP2 ADD SWAP2 DUP3 SWAP1 MSTORE MLOAD PUSH2 0x45D3 SWAP2 PUSH1 0x18 SWAP2 PUSH2 0x5073 JUMP JUMPDEST POP POP POP POP JUMP JUMPDEST DUP2 PUSH1 0x1 PUSH1 0x1 PUSH1 0xA0 SHL SUB AND DUP4 PUSH1 0x1 PUSH1 0x1 PUSH1 0xA0 SHL SUB AND EQ ISZERO PUSH2 0x464D JUMPI PUSH1 0x40 MLOAD PUSH3 0x461BCD PUSH1 0xE5 SHL DUP2 MSTORE PUSH1 0x20 PUSH1 0x4 DUP3 ADD MSTORE PUSH1 0x29 PUSH1 0x24 DUP3 ADD MSTORE PUSH32 0x455243313135353A2073657474696E6720617070726F76616C20737461747573 PUSH1 0x44 DUP3 ADD MSTORE PUSH9 0x103337B91039B2B633 PUSH1 0xB9 SHL PUSH1 0x64 DUP3 ADD MSTORE PUSH1 0x84 ADD PUSH2 0x104B JUMP JUMPDEST PUSH1 0x1 PUSH1 0x1 PUSH1 0xA0 SHL SUB DUP4 DUP2 AND PUSH1 0x0 DUP2 DUP2 MSTORE PUSH1 0x1 PUSH1 0x20 SWAP1 DUP2 MSTORE PUSH1 0x40 DUP1 DUP4 KECCAK256 SWAP5 DUP8 AND DUP1 DUP5 MSTORE SWAP5 DUP3 MSTORE SWAP2 DUP3 SWAP1 KECCAK256 DUP1 SLOAD PUSH1 0xFF NOT AND DUP7 ISZERO ISZERO SWAP1 DUP2 OR SWAP1 SWAP2 SSTORE SWAP2 MLOAD SWAP2 DUP3 MSTORE PUSH32 0x17307EAB39AB6107E8899845AD3D59BD9653F200F220920489CA2B5937696C31 SWAP2 ADD PUSH1 0x40 MLOAD DUP1 SWAP2 SUB SWAP1 LOG3 POP POP POP JUMP JUMPDEST PUSH1 0x0 DUP2 PUSH1 0x40 MLOAD PUSH1 0x20 ADD PUSH2 0x46CD SWAP2 SWAP1 PUSH2 0x5C6E JUMP JUMPDEST PUSH1 0x40 MLOAD PUSH1 0x20 DUP2 DUP4 SUB SUB DUP2 MSTORE SWAP1 PUSH1 0x40 MSTORE DUP1 MLOAD SWAP1 PUSH1 0x20 ADD KECCAK256 DUP4 PUSH1 0x40 MLOAD PUSH1 0x20 ADD PUSH2 0x46F4 SWAP2 SWAP1 PUSH2 0x5C6E JUMP JUMPDEST PUSH1 0x40 MLOAD PUSH1 0x20 DUP2 DUP4 SUB SUB DUP2 MSTORE SWAP1 PUSH1 0x40 MSTORE DUP1 MLOAD SWAP1 PUSH1 0x20 ADD KECCAK256 EQ SWAP1 POP SWAP3 SWAP2 POP POP JUMP JUMPDEST PUSH1 0x0 PUSH32 0x0 PUSH1 0x1 PUSH1 0x1 PUSH1 0xA0 SHL SUB AND PUSH4 0x4000AEA0 PUSH32 0x0 DUP5 DUP7 PUSH1 0x0 PUSH1 0x40 MLOAD PUSH1 0x20 ADD PUSH2 0x4783 SWAP3 SWAP2 SWAP1 SWAP2 DUP3 MSTORE PUSH1 0x20 DUP3 ADD MSTORE PUSH1 0x40 ADD SWAP1 JUMP JUMPDEST PUSH1 0x40 MLOAD PUSH1 0x20 DUP2 DUP4 SUB SUB DUP2 MSTORE SWAP1 PUSH1 0x40 MSTORE PUSH1 0x40 MLOAD DUP5 PUSH4 0xFFFFFFFF AND PUSH1 0xE0 SHL DUP2 MSTORE PUSH1 0x4 ADD PUSH2 0x47B0 SWAP4 SWAP3 SWAP2 SWAP1 PUSH2 0x5C8A JUMP JUMPDEST PUSH1 0x20 PUSH1 0x40 MLOAD DUP1 DUP4 SUB DUP2 PUSH1 0x0 DUP8 GAS CALL ISZERO DUP1 ISZERO PUSH2 0x47CF JUMPI RETURNDATASIZE PUSH1 0x0 DUP1 RETURNDATACOPY RETURNDATASIZE PUSH1 0x0 REVERT JUMPDEST POP POP POP POP PUSH1 0x40 MLOAD RETURNDATASIZE PUSH1 0x1F NOT PUSH1 0x1F DUP3 ADD AND DUP3 ADD DUP1 PUSH1 0x40 MSTORE POP DUP2 ADD SWAP1 PUSH2 0x47F3 SWAP2 SWAP1 PUSH2 0x5CB1 JUMP JUMPDEST POP PUSH1 0x0 DUP4 DUP2 MSTORE PUSH1 0x4 PUSH1 0x20 DUP2 DUP2 MSTORE PUSH1 0x40 DUP1 DUP5 KECCAK256 SLOAD DUP2 MLOAD DUP1 DUP5 ADD DUP10 SWAP1 MSTORE DUP1 DUP4 ADD DUP7 SWAP1 MSTORE ADDRESS PUSH1 0x60 DUP3 ADD MSTORE PUSH1 0x80 DUP1 DUP3 ADD DUP4 SWAP1 MSTORE DUP4 MLOAD DUP1 DUP4 SUB SWAP1 SWAP2 ADD DUP2 MSTORE PUSH1 0xA0 SWAP1 SWAP2 ADD SWAP1 SWAP3 MSTORE DUP2 MLOAD SWAP2 DUP4 ADD SWAP2 SWAP1 SWAP2 KECCAK256 SWAP4 DUP8 SWAP1 MSTORE SWAP2 SWAP1 MSTORE PUSH2 0x484F SWAP1 PUSH1 0x1 PUSH2 0x5109 JUMP JUMPDEST PUSH1 0x0 DUP6 DUP2 MSTORE PUSH1 0x4 PUSH1 0x20 MSTORE PUSH1 0x40 SWAP1 KECCAK256 SSTORE PUSH2 0x10DA DUP5 DUP3 PUSH1 0x40 DUP1 MLOAD PUSH1 0x20 DUP1 DUP3 ADD SWAP5 SWAP1 SWAP5 MSTORE DUP1 DUP3 ADD SWAP3 SWAP1 SWAP3 MSTORE DUP1 MLOAD DUP1 DUP4 SUB DUP3 ADD DUP2 MSTORE PUSH1 0x60 SWAP1 SWAP3 ADD SWAP1 MSTORE DUP1 MLOAD SWAP2 ADD KECCAK256 SWAP1 JUMP JUMPDEST PUSH1 0x0 PUSH2 0x489E PUSH3 0x15180 DUP4 PUSH2 0x5AFF JUMP JUMPDEST PUSH2 0x48A8 SWAP1 DUP5 PUSH2 0x5109 JUMP JUMPDEST SWAP1 POP DUP3 DUP2 LT ISZERO PUSH2 0x1077 JUMPI PUSH1 0x0 DUP1 REVERT JUMPDEST PUSH1 0x1 PUSH1 0x1 PUSH1 0xA0 SHL SUB DUP5 AND PUSH2 0x491B JUMPI PUSH1 0x40 MLOAD PUSH3 0x461BCD PUSH1 0xE5 SHL DUP2 MSTORE PUSH1 0x20 PUSH1 0x4 DUP3 ADD MSTORE PUSH1 0x25 PUSH1 0x24 DUP3 ADD MSTORE PUSH32 0x455243313135353A207472616E7366657220746F20746865207A65726F206164 PUSH1 0x44 DUP3 ADD MSTORE PUSH5 0x6472657373 PUSH1 0xD8 SHL PUSH1 0x64 DUP3 ADD MSTORE PUSH1 0x84 ADD PUSH2 0x104B JUMP JUMPDEST CALLER PUSH2 0x492B DUP2 DUP8 DUP8 PUSH2 0x4043 DUP9 PUSH2 0x4D07 JUMP JUMPDEST PUSH1 0x0 DUP5 DUP2 MSTORE PUSH1 0x20 DUP2 DUP2 MSTORE PUSH1 0x40 DUP1 DUP4 KECCAK256 PUSH1 0x1 PUSH1 0x1 PUSH1 0xA0 SHL SUB DUP11 AND DUP5 MSTORE SWAP1 SWAP2 MSTORE SWAP1 KECCAK256 SLOAD DUP4 DUP2 LT ISZERO PUSH2 0x496C JUMPI PUSH1 0x40 MLOAD PUSH3 0x461BCD PUSH1 0xE5 SHL DUP2 MSTORE PUSH1 0x4 ADD PUSH2 0x104B SWAP1 PUSH2 0x5BFF JUMP JUMPDEST PUSH1 0x0 DUP6 DUP2 MSTORE PUSH1 0x20 DUP2 DUP2 MSTORE PUSH1 0x40 DUP1 DUP4 KECCAK256 PUSH1 0x1 PUSH1 0x1 PUSH1 0xA0 SHL SUB DUP12 DUP2 AND DUP6 MSTORE SWAP3 MSTORE DUP1 DUP4 KECCAK256 DUP8 DUP6 SUB SWAP1 SSTORE SWAP1 DUP9 AND DUP3 MSTORE DUP2 KECCAK256 DUP1 SLOAD DUP7 SWAP3 SWAP1 PUSH2 0x49A9 SWAP1 DUP5 SWAP1 PUSH2 0x5109 JUMP JUMPDEST SWAP1 SWAP2 SSTORE POP POP PUSH1 0x40 DUP1 MLOAD DUP7 DUP2 MSTORE PUSH1 0x20 DUP2 ADD DUP7 SWAP1 MSTORE PUSH1 0x1 PUSH1 0x1 PUSH1 0xA0 SHL SUB DUP1 DUP10 AND SWAP3 DUP11 DUP3 AND SWAP3 SWAP2 DUP7 AND SWAP2 PUSH32 0xC3D58168C5AE7397731D063D5BBF3D657854427343F4C083240F7AACAA2D0F62 SWAP2 ADD PUSH1 0x40 MLOAD DUP1 SWAP2 SUB SWAP1 LOG4 PUSH2 0x4A09 DUP3 DUP9 DUP9 DUP9 DUP9 DUP9 PUSH2 0x4DBA JUMP JUMPDEST POP POP POP POP POP POP POP JUMP JUMPDEST DUP1 MLOAD DUP3 MLOAD PUSH1 0x0 SWAP2 GT ISZERO PUSH2 0x4A27 JUMPI POP PUSH1 0x0 PUSH2 0x1077 JUMP JUMPDEST DUP2 PUSH1 0x20 ADD MLOAD DUP4 PUSH1 0x20 ADD MLOAD EQ ISZERO PUSH2 0x4A3F JUMPI POP PUSH1 0x1 PUSH2 0x1077 JUMP JUMPDEST POP DUP1 MLOAD PUSH1 0x20 SWAP3 DUP4 ADD MLOAD SWAP3 SWAP1 SWAP2 ADD MLOAD DUP2 SWAP1 KECCAK256 SWAP2 KECCAK256 EQ SWAP1 JUMP JUMPDEST PUSH1 0x0 PUSH2 0x7B2 DUP5 LT ISZERO PUSH2 0x4A67 JUMPI PUSH1 0x0 DUP1 REVERT JUMPDEST DUP4 DUP4 DUP4 PUSH1 0x0 PUSH3 0x253D8C PUSH1 0x4 PUSH1 0x64 PUSH1 0xC PUSH2 0x4A81 PUSH1 0xE DUP9 PUSH2 0x5CCE JUMP JUMPDEST PUSH2 0x4A8B SWAP2 SWAP1 PUSH2 0x5D0D JUMP JUMPDEST PUSH2 0x4A97 DUP9 PUSH2 0x1324 PUSH2 0x5D3B JUMP JUMPDEST PUSH2 0x4AA1 SWAP2 SWAP1 PUSH2 0x5D3B JUMP JUMPDEST PUSH2 0x4AAB SWAP2 SWAP1 PUSH2 0x5D0D JUMP JUMPDEST PUSH2 0x4AB6 SWAP1 PUSH1 0x3 PUSH2 0x5D7C JUMP JUMPDEST PUSH2 0x4AC0 SWAP2 SWAP1 PUSH2 0x5D0D JUMP JUMPDEST PUSH1 0xC DUP1 PUSH2 0x4ACE PUSH1 0xE DUP9 PUSH2 0x5CCE JUMP JUMPDEST PUSH2 0x4AD8 SWAP2 SWAP1 PUSH2 0x5D0D JUMP JUMPDEST PUSH2 0x4AE3 SWAP1 PUSH1 0xC PUSH2 0x5D7C JUMP JUMPDEST PUSH2 0x4AEE PUSH1 0x2 DUP9 PUSH2 0x5CCE JUMP JUMPDEST PUSH2 0x4AF8 SWAP2 SWAP1 PUSH2 0x5CCE JUMP JUMPDEST PUSH2 0x4B04 SWAP1 PUSH2 0x16F PUSH2 0x5D7C JUMP JUMPDEST PUSH2 0x4B0E SWAP2 SWAP1 PUSH2 0x5D0D JUMP JUMPDEST PUSH1 0x4 PUSH1 0xC PUSH2 0x4B1D PUSH1 0xE DUP10 PUSH2 0x5CCE JUMP JUMPDEST PUSH2 0x4B27 SWAP2 SWAP1 PUSH2 0x5D0D JUMP JUMPDEST PUSH2 0x4B33 DUP10 PUSH2 0x12C0 PUSH2 0x5D3B JUMP JUMPDEST PUSH2 0x4B3D SWAP2 SWAP1 PUSH2 0x5D3B JUMP JUMPDEST PUSH2 0x4B49 SWAP1 PUSH2 0x5B5 PUSH2 0x5D7C JUMP JUMPDEST PUSH2 0x4B53 SWAP2 SWAP1 PUSH2 0x5D0D JUMP JUMPDEST PUSH2 0x4B5F PUSH2 0x7D4B DUP8 PUSH2 0x5CCE JUMP JUMPDEST PUSH2 0x4B69 SWAP2 SWAP1 PUSH2 0x5D3B JUMP JUMPDEST PUSH2 0x4B73 SWAP2 SWAP1 PUSH2 0x5D3B JUMP JUMPDEST PUSH2 0x4B7D SWAP2 SWAP1 PUSH2 0x5CCE JUMP JUMPDEST PUSH2 0x4B87 SWAP2 SWAP1 PUSH2 0x5CCE JUMP JUMPDEST SWAP9 SWAP8 POP POP POP POP POP POP POP POP JUMP JUMPDEST PUSH1 0x0 DUP1 DUP1 DUP4 DUP2 PUSH3 0x253D8C PUSH2 0x4BAA DUP4 PUSH3 0x10BD9 PUSH2 0x5D3B JUMP JUMPDEST PUSH2 0x4BB4 SWAP2 SWAP1 PUSH2 0x5D3B JUMP JUMPDEST SWAP1 POP PUSH1 0x0 PUSH3 0x23AB1 PUSH2 0x4BC7 DUP4 PUSH1 0x4 PUSH2 0x5D7C JUMP JUMPDEST PUSH2 0x4BD1 SWAP2 SWAP1 PUSH2 0x5D0D JUMP JUMPDEST SWAP1 POP PUSH1 0x4 PUSH2 0x4BE2 DUP3 PUSH3 0x23AB1 PUSH2 0x5D7C JUMP JUMPDEST PUSH2 0x4BED SWAP1 PUSH1 0x3 PUSH2 0x5D3B JUMP JUMPDEST PUSH2 0x4BF7 SWAP2 SWAP1 PUSH2 0x5D0D JUMP JUMPDEST PUSH2 0x4C01 SWAP1 DUP4 PUSH2 0x5CCE JUMP JUMPDEST SWAP2 POP PUSH1 0x0 PUSH3 0x164B09 PUSH2 0x4C14 DUP5 PUSH1 0x1 PUSH2 0x5D3B JUMP JUMPDEST PUSH2 0x4C20 SWAP1 PUSH2 0xFA0 PUSH2 0x5D7C JUMP JUMPDEST PUSH2 0x4C2A SWAP2 SWAP1 PUSH2 0x5D0D JUMP JUMPDEST SWAP1 POP PUSH1 0x4 PUSH2 0x4C3A DUP3 PUSH2 0x5B5 PUSH2 0x5D7C JUMP JUMPDEST PUSH2 0x4C44 SWAP2 SWAP1 PUSH2 0x5D0D JUMP JUMPDEST PUSH2 0x4C4E SWAP1 DUP5 PUSH2 0x5CCE JUMP JUMPDEST PUSH2 0x4C59 SWAP1 PUSH1 0x1F PUSH2 0x5D3B JUMP JUMPDEST SWAP3 POP PUSH1 0x0 PUSH2 0x98F PUSH2 0x4C6B DUP6 PUSH1 0x50 PUSH2 0x5D7C JUMP JUMPDEST PUSH2 0x4C75 SWAP2 SWAP1 PUSH2 0x5D0D JUMP JUMPDEST SWAP1 POP PUSH1 0x0 PUSH1 0x50 PUSH2 0x4C87 DUP4 PUSH2 0x98F PUSH2 0x5D7C JUMP JUMPDEST PUSH2 0x4C91 SWAP2 SWAP1 PUSH2 0x5D0D JUMP JUMPDEST PUSH2 0x4C9B SWAP1 DUP7 PUSH2 0x5CCE JUMP JUMPDEST SWAP1 POP PUSH2 0x4CA8 PUSH1 0xB DUP4 PUSH2 0x5D0D JUMP JUMPDEST SWAP5 POP PUSH2 0x4CB5 DUP6 PUSH1 0xC PUSH2 0x5D7C JUMP JUMPDEST PUSH2 0x4CC0 DUP4 PUSH1 0x2 PUSH2 0x5D3B JUMP JUMPDEST PUSH2 0x4CCA SWAP2 SWAP1 PUSH2 0x5CCE JUMP JUMPDEST SWAP2 POP DUP5 DUP4 PUSH2 0x4CD9 PUSH1 0x31 DUP8 PUSH2 0x5CCE JUMP JUMPDEST PUSH2 0x4CE4 SWAP1 PUSH1 0x64 PUSH2 0x5D7C JUMP JUMPDEST PUSH2 0x4CEE SWAP2 SWAP1 PUSH2 0x5D3B JUMP JUMPDEST PUSH2 0x4CF8 SWAP2 SWAP1 PUSH2 0x5D3B JUMP JUMPDEST SWAP11 SWAP2 SWAP10 POP SWAP8 POP SWAP6 POP POP POP POP POP POP JUMP JUMPDEST PUSH1 0x40 DUP1 MLOAD PUSH1 0x1 DUP1 DUP3 MSTORE DUP2 DUP4 ADD SWAP1 SWAP3 MSTORE PUSH1 0x60 SWAP2 PUSH1 0x0 SWAP2 SWAP1 PUSH1 0x20 DUP1 DUP4 ADD SWAP1 DUP1 CALLDATASIZE DUP4 CALLDATACOPY ADD SWAP1 POP POP SWAP1 POP DUP3 DUP2 PUSH1 0x0 DUP2 MLOAD DUP2 LT PUSH2 0x4D41 JUMPI PUSH2 0x4D41 PUSH2 0x50DD JUMP JUMPDEST PUSH1 0x20 SWAP1 DUP2 MUL SWAP2 SWAP1 SWAP2 ADD ADD MSTORE SWAP3 SWAP2 POP POP JUMP JUMPDEST PUSH1 0x3 SLOAD PUSH1 0xFF AND ISZERO PUSH2 0x3EB2 JUMPI PUSH1 0x40 MLOAD PUSH3 0x461BCD PUSH1 0xE5 SHL DUP2 MSTORE PUSH1 0x20 PUSH1 0x4 DUP3 ADD MSTORE PUSH1 0x2C PUSH1 0x24 DUP3 ADD MSTORE PUSH32 0x455243313135355061757361626C653A20746F6B656E207472616E7366657220 PUSH1 0x44 DUP3 ADD MSTORE PUSH12 0x1DDA1A5B19481C185D5CD959 PUSH1 0xA2 SHL PUSH1 0x64 DUP3 ADD MSTORE PUSH1 0x84 ADD PUSH2 0x104B JUMP JUMPDEST PUSH1 0x1 PUSH1 0x1 PUSH1 0xA0 SHL SUB DUP5 AND EXTCODESIZE ISZERO PUSH2 0x3EB2 JUMPI PUSH1 0x40 MLOAD PUSH4 0xF23A6E61 PUSH1 0xE0 SHL DUP2 MSTORE PUSH1 0x1 PUSH1 0x1 PUSH1 0xA0 SHL SUB DUP6 AND SWAP1 PUSH4 0xF23A6E61 SWAP1 PUSH2 0x4DFE SWAP1 DUP10 SWAP1 DUP10 SWAP1 DUP9 SWAP1 DUP9 SWAP1 DUP9 SWAP1 PUSH1 0x4 ADD PUSH2 0x5E01 JUMP JUMPDEST PUSH1 0x20 PUSH1 0x40 MLOAD DUP1 DUP4 SUB DUP2 PUSH1 0x0 DUP8 GAS CALL SWAP3 POP POP POP DUP1 ISZERO PUSH2 0x4E39 JUMPI POP PUSH1 0x40 DUP1 MLOAD PUSH1 0x1F RETURNDATASIZE SWAP1 DUP2 ADD PUSH1 0x1F NOT AND DUP3 ADD SWAP1 SWAP3 MSTORE PUSH2 0x4E36 SWAP2 DUP2 ADD SWAP1 PUSH2 0x5E46 JUMP JUMPDEST PUSH1 0x1 JUMPDEST PUSH2 0x4EE6 JUMPI PUSH2 0x4E45 PUSH2 0x5E63 JUMP JUMPDEST DUP1 PUSH4 0x8C379A0 EQ ISZERO PUSH2 0x4E7F JUMPI POP PUSH2 0x4E5A PUSH2 0x5E7E JUMP JUMPDEST DUP1 PUSH2 0x4E65 JUMPI POP PUSH2 0x4E81 JUMP JUMPDEST DUP1 PUSH1 0x40 MLOAD PUSH3 0x461BCD PUSH1 0xE5 SHL DUP2 MSTORE PUSH1 0x4 ADD PUSH2 0x104B SWAP2 SWAP1 PUSH2 0x521E JUMP JUMPDEST POP JUMPDEST PUSH1 0x40 MLOAD PUSH3 0x461BCD PUSH1 0xE5 SHL DUP2 MSTORE PUSH1 0x20 PUSH1 0x4 DUP3 ADD MSTORE PUSH1 0x34 PUSH1 0x24 DUP3 ADD MSTORE PUSH32 0x455243313135353A207472616E7366657220746F206E6F6E2045524331313535 PUSH1 0x44 DUP3 ADD MSTORE PUSH20 0x2932B1B2B4BB32B91034B6B83632B6B2B73A32B9 PUSH1 0x61 SHL PUSH1 0x64 DUP3 ADD MSTORE PUSH1 0x84 ADD PUSH2 0x104B JUMP JUMPDEST PUSH1 0x1 PUSH1 0x1 PUSH1 0xE0 SHL SUB NOT DUP2 AND PUSH4 0xF23A6E61 PUSH1 0xE0 SHL EQ PUSH2 0x4A09 JUMPI PUSH1 0x40 MLOAD PUSH3 0x461BCD PUSH1 0xE5 SHL DUP2 MSTORE PUSH1 0x4 ADD PUSH2 0x104B SWAP1 PUSH2 0x5F07 JUMP JUMPDEST PUSH1 0x1 PUSH1 0x1 PUSH1 0xA0 SHL SUB DUP5 AND EXTCODESIZE ISZERO PUSH2 0x3EB2 JUMPI PUSH1 0x40 MLOAD PUSH4 0xBC197C81 PUSH1 0xE0 SHL DUP2 MSTORE PUSH1 0x1 PUSH1 0x1 PUSH1 0xA0 SHL SUB DUP6 AND SWAP1 PUSH4 0xBC197C81 SWAP1 PUSH2 0x4F5A SWAP1 DUP10 SWAP1 DUP10 SWAP1 DUP9 SWAP1 DUP9 SWAP1 DUP9 SWAP1 PUSH1 0x4 ADD PUSH2 0x5F4F JUMP JUMPDEST PUSH1 0x20 PUSH1 0x40 MLOAD DUP1 DUP4 SUB DUP2 PUSH1 0x0 DUP8 GAS CALL SWAP3 POP POP POP DUP1 ISZERO PUSH2 0x4F95 JUMPI POP PUSH1 0x40 DUP1 MLOAD PUSH1 0x1F RETURNDATASIZE SWAP1 DUP2 ADD PUSH1 0x1F NOT AND DUP3 ADD SWAP1 SWAP3 MSTORE PUSH2 0x4F92 SWAP2 DUP2 ADD SWAP1 PUSH2 0x5E46 JUMP JUMPDEST PUSH1 0x1 JUMPDEST PUSH2 0x4FA1 JUMPI PUSH2 0x4E45 PUSH2 0x5E63 JUMP JUMPDEST PUSH1 0x1 PUSH1 0x1 PUSH1 0xE0 SHL SUB NOT DUP2 AND PUSH4 0xBC197C81 PUSH1 0xE0 SHL EQ PUSH2 0x4A09 JUMPI PUSH1 0x40 MLOAD PUSH3 0x461BCD PUSH1 0xE5 SHL DUP2 MSTORE PUSH1 0x4 ADD PUSH2 0x104B SWAP1 PUSH2 0x5F07 JUMP JUMPDEST PUSH1 0x40 MLOAD DUP1 PUSH1 0xA0 ADD PUSH1 0x40 MSTORE DUP1 PUSH1 0x5 SWAP1 PUSH1 0x20 DUP3 MUL DUP1 CALLDATASIZE DUP4 CALLDATACOPY POP SWAP2 SWAP3 SWAP2 POP POP JUMP JUMPDEST DUP3 DUP1 SLOAD PUSH2 0x4FFB SWAP1 PUSH2 0x5A39 JUMP JUMPDEST SWAP1 PUSH1 0x0 MSTORE PUSH1 0x20 PUSH1 0x0 KECCAK256 SWAP1 PUSH1 0x1F ADD PUSH1 0x20 SWAP1 DIV DUP2 ADD SWAP3 DUP3 PUSH2 0x501D JUMPI PUSH1 0x0 DUP6 SSTORE PUSH2 0x5063 JUMP JUMPDEST DUP3 PUSH1 0x1F LT PUSH2 0x5036 JUMPI DUP1 MLOAD PUSH1 0xFF NOT AND DUP4 DUP1 ADD OR DUP6 SSTORE PUSH2 0x5063 JUMP JUMPDEST DUP3 DUP1 ADD PUSH1 0x1 ADD DUP6 SSTORE DUP3 ISZERO PUSH2 0x5063 JUMPI SWAP2 DUP3 ADD JUMPDEST DUP3 DUP2 GT ISZERO PUSH2 0x5063 JUMPI DUP3 MLOAD DUP3 SSTORE SWAP2 PUSH1 0x20 ADD SWAP2 SWAP1 PUSH1 0x1 ADD SWAP1 PUSH2 0x5048 JUMP JUMPDEST POP PUSH2 0x506F SWAP3 SWAP2 POP PUSH2 0x50C8 JUMP JUMPDEST POP SWAP1 JUMP JUMPDEST DUP3 DUP1 SLOAD DUP3 DUP3 SSTORE SWAP1 PUSH1 0x0 MSTORE PUSH1 0x20 PUSH1 0x0 KECCAK256 SWAP1 DUP2 ADD SWAP3 DUP3 ISZERO PUSH2 0x5063 JUMPI SWAP2 PUSH1 0x20 MUL DUP3 ADD JUMPDEST DUP3 DUP2 GT ISZERO PUSH2 0x5063 JUMPI DUP3 MLOAD DUP3 SLOAD PUSH1 0x1 PUSH1 0x1 PUSH1 0xA0 SHL SUB NOT AND PUSH1 0x1 PUSH1 0x1 PUSH1 0xA0 SHL SUB SWAP1 SWAP2 AND OR DUP3 SSTORE PUSH1 0x20 SWAP1 SWAP3 ADD SWAP2 PUSH1 0x1 SWAP1 SWAP2 ADD SWAP1 PUSH2 0x5093 JUMP JUMPDEST JUMPDEST DUP1 DUP3 GT ISZERO PUSH2 0x506F JUMPI PUSH1 0x0 DUP2 SSTORE PUSH1 0x1 ADD PUSH2 0x50C9 JUMP JUMPDEST PUSH4 0x4E487B71 PUSH1 0xE0 SHL PUSH1 0x0 MSTORE PUSH1 0x32 PUSH1 0x4 MSTORE PUSH1 0x24 PUSH1 0x0 REVERT JUMPDEST PUSH4 0x4E487B71 PUSH1 0xE0 SHL PUSH1 0x0 MSTORE PUSH1 0x11 PUSH1 0x4 MSTORE PUSH1 0x24 PUSH1 0x0 REVERT JUMPDEST PUSH1 0x0 DUP3 NOT DUP3 GT ISZERO PUSH2 0x511C JUMPI PUSH2 0x511C PUSH2 0x50F3 JUMP JUMPDEST POP ADD SWAP1 JUMP JUMPDEST DUP1 CALLDATALOAD PUSH1 0x1 PUSH1 0x1 PUSH1 0xA0 SHL SUB DUP2 AND DUP2 EQ PUSH2 0x5138 JUMPI PUSH1 0x0 DUP1 REVERT JUMPDEST SWAP2 SWAP1 POP JUMP JUMPDEST PUSH1 0x0 DUP1 PUSH1 0x40 DUP4 DUP6 SUB SLT ISZERO PUSH2 0x5150 JUMPI PUSH1 0x0 DUP1 REVERT JUMPDEST PUSH2 0x5159 DUP4 PUSH2 0x5121 JUMP JUMPDEST SWAP5 PUSH1 0x20 SWAP4 SWAP1 SWAP4 ADD CALLDATALOAD SWAP4 POP POP POP JUMP JUMPDEST PUSH1 0x1 PUSH1 0x1 PUSH1 0xE0 SHL SUB NOT DUP2 AND DUP2 EQ PUSH2 0x3875 JUMPI PUSH1 0x0 DUP1 REVERT JUMPDEST PUSH1 0x0 PUSH1 0x20 DUP3 DUP5 SUB SLT ISZERO PUSH2 0x518F JUMPI PUSH1 0x0 DUP1 REVERT JUMPDEST DUP2 CALLDATALOAD PUSH2 0x2479 DUP2 PUSH2 0x5167 JUMP JUMPDEST PUSH1 0x0 DUP1 PUSH1 0x0 PUSH1 0x60 DUP5 DUP7 SUB SLT ISZERO PUSH2 0x51AF JUMPI PUSH1 0x0 DUP1 REVERT JUMPDEST POP POP DUP2 CALLDATALOAD SWAP4 PUSH1 0x20 DUP4 ADD CALLDATALOAD SWAP4 POP PUSH1 0x40 SWAP1 SWAP3 ADD CALLDATALOAD SWAP2 SWAP1 POP JUMP JUMPDEST PUSH1 0x0 JUMPDEST DUP4 DUP2 LT ISZERO PUSH2 0x51E1 JUMPI DUP2 DUP2 ADD MLOAD DUP4 DUP3 ADD MSTORE PUSH1 0x20 ADD PUSH2 0x51C9 JUMP JUMPDEST DUP4 DUP2 GT ISZERO PUSH2 0x45D3 JUMPI POP POP PUSH1 0x0 SWAP2 ADD MSTORE JUMP JUMPDEST PUSH1 0x0 DUP2 MLOAD DUP1 DUP5 MSTORE PUSH2 0x520A DUP2 PUSH1 0x20 DUP7 ADD PUSH1 0x20 DUP7 ADD PUSH2 0x51C6 JUMP JUMPDEST PUSH1 0x1F ADD PUSH1 0x1F NOT AND SWAP3 SWAP1 SWAP3 ADD PUSH1 0x20 ADD SWAP3 SWAP2 POP POP JUMP JUMPDEST PUSH1 0x20 DUP2 MSTORE PUSH1 0x0 PUSH2 0x2479 PUSH1 0x20 DUP4 ADD DUP5 PUSH2 0x51F2 JUMP JUMPDEST PUSH1 0x0 PUSH1 0x20 DUP3 DUP5 SUB SLT ISZERO PUSH2 0x5243 JUMPI PUSH1 0x0 DUP1 REVERT JUMPDEST POP CALLDATALOAD SWAP2 SWAP1 POP JUMP JUMPDEST PUSH1 0x0 PUSH1 0x20 DUP3 DUP5 SUB SLT ISZERO PUSH2 0x525C JUMPI PUSH1 0x0 DUP1 REVERT JUMPDEST PUSH2 0x2479 DUP3 PUSH2 0x5121 JUMP JUMPDEST PUSH1 0x0 DUP2 MLOAD DUP1 DUP5 MSTORE PUSH1 0x20 DUP1 DUP6 ADD SWAP5 POP DUP1 DUP5 ADD PUSH1 0x0 JUMPDEST DUP4 DUP2 LT ISZERO PUSH2 0x5295 JUMPI DUP2 MLOAD DUP8 MSTORE SWAP6 DUP3 ADD SWAP6 SWAP1 DUP3 ADD SWAP1 PUSH1 0x1 ADD PUSH2 0x5279 JUMP JUMPDEST POP SWAP5 SWAP6 SWAP5 POP POP POP POP POP JUMP JUMPDEST PUSH1 0x0 DUP2 MLOAD DUP1 DUP5 MSTORE PUSH1 0x20 DUP1 DUP6 ADD SWAP5 POP DUP1 DUP5 ADD PUSH1 0x0 JUMPDEST DUP4 DUP2 LT ISZERO PUSH2 0x5295 JUMPI DUP2 MLOAD PUSH1 0x1 PUSH1 0x1 PUSH1 0xA0 SHL SUB AND DUP8 MSTORE SWAP6 DUP3 ADD SWAP6 SWAP1 DUP3 ADD SWAP1 PUSH1 0x1 ADD PUSH2 0x52B4 JUMP JUMPDEST PUSH1 0x40 DUP2 MSTORE PUSH1 0x0 PUSH2 0x52EC PUSH1 0x40 DUP4 ADD DUP6 PUSH2 0x5265 JUMP JUMPDEST DUP3 DUP2 SUB PUSH1 0x20 DUP5 ADD MSTORE PUSH2 0x35DA DUP2 DUP6 PUSH2 0x52A0 JUMP JUMPDEST PUSH1 0x0 DUP1 PUSH1 0x0 DUP1 PUSH1 0x80 DUP6 DUP8 SUB SLT ISZERO PUSH2 0x5314 JUMPI PUSH1 0x0 DUP1 REVERT JUMPDEST DUP5 CALLDATALOAD SWAP4 POP PUSH1 0x20 DUP6 ADD CALLDATALOAD SWAP3 POP PUSH1 0x40 DUP6 ADD CALLDATALOAD SWAP2 POP PUSH2 0x5332 PUSH1 0x60 DUP7 ADD PUSH2 0x5121 JUMP JUMPDEST SWAP1 POP SWAP3 SWAP6 SWAP2 SWAP5 POP SWAP3 POP JUMP JUMPDEST PUSH4 0x4E487B71 PUSH1 0xE0 SHL PUSH1 0x0 MSTORE PUSH1 0x41 PUSH1 0x4 MSTORE PUSH1 0x24 PUSH1 0x0 REVERT JUMPDEST PUSH1 0x1F DUP3 ADD PUSH1 0x1F NOT AND DUP2 ADD PUSH1 0x1 PUSH1 0x1 PUSH1 0x40 SHL SUB DUP2 GT DUP3 DUP3 LT OR ISZERO PUSH2 0x5378 JUMPI PUSH2 0x5378 PUSH2 0x533D JUMP JUMPDEST PUSH1 0x40 MSTORE POP POP JUMP JUMPDEST PUSH1 0x0 PUSH1 0x1 PUSH1 0x1 PUSH1 0x40 SHL SUB DUP3 GT ISZERO PUSH2 0x5398 JUMPI PUSH2 0x5398 PUSH2 0x533D JUMP JUMPDEST POP PUSH1 0x5 SHL PUSH1 0x20 ADD SWAP1 JUMP JUMPDEST PUSH1 0x0 DUP3 PUSH1 0x1F DUP4 ADD SLT PUSH2 0x53B3 JUMPI PUSH1 0x0 DUP1 REVERT JUMPDEST DUP2 CALLDATALOAD PUSH1 0x20 PUSH2 0x53C0 DUP3 PUSH2 0x537F JUMP JUMPDEST PUSH1 0x40 MLOAD PUSH2 0x53CD DUP3 DUP3 PUSH2 0x5353 JUMP JUMPDEST DUP4 DUP2 MSTORE PUSH1 0x5 SWAP4 SWAP1 SWAP4 SHL DUP6 ADD DUP3 ADD SWAP3 DUP3 DUP2 ADD SWAP2 POP DUP7 DUP5 GT ISZERO PUSH2 0x53ED JUMPI PUSH1 0x0 DUP1 REVERT JUMPDEST DUP3 DUP7 ADD JUMPDEST DUP5 DUP2 LT ISZERO PUSH2 0x5408 JUMPI DUP1 CALLDATALOAD DUP4 MSTORE SWAP2 DUP4 ADD SWAP2 DUP4 ADD PUSH2 0x53F1 JUMP JUMPDEST POP SWAP7 SWAP6 POP POP POP POP POP POP JUMP JUMPDEST PUSH1 0x0 DUP3 PUSH1 0x1F DUP4 ADD SLT PUSH2 0x5424 JUMPI PUSH1 0x0 DUP1 REVERT JUMPDEST DUP2 CALLDATALOAD PUSH1 0x1 PUSH1 0x1 PUSH1 0x40 SHL SUB DUP2 GT ISZERO PUSH2 0x543D JUMPI PUSH2 0x543D PUSH2 0x533D JUMP JUMPDEST PUSH1 0x40 MLOAD PUSH2 0x5454 PUSH1 0x1F DUP4 ADD PUSH1 0x1F NOT AND PUSH1 0x20 ADD DUP3 PUSH2 0x5353 JUMP JUMPDEST DUP2 DUP2 MSTORE DUP5 PUSH1 0x20 DUP4 DUP7 ADD ADD GT ISZERO PUSH2 0x5469 JUMPI PUSH1 0x0 DUP1 REVERT JUMPDEST DUP2 PUSH1 0x20 DUP6 ADD PUSH1 0x20 DUP4 ADD CALLDATACOPY PUSH1 0x0 SWAP2 DUP2 ADD PUSH1 0x20 ADD SWAP2 SWAP1 SWAP2 MSTORE SWAP4 SWAP3 POP POP POP JUMP JUMPDEST PUSH1 0x0 DUP1 PUSH1 0x0 DUP1 PUSH1 0x0 PUSH1 0xA0 DUP7 DUP9 SUB SLT ISZERO PUSH2 0x549E JUMPI PUSH1 0x0 DUP1 REVERT JUMPDEST PUSH2 0x54A7 DUP7 PUSH2 0x5121 JUMP JUMPDEST SWAP5 POP PUSH2 0x54B5 PUSH1 0x20 DUP8 ADD PUSH2 0x5121 JUMP JUMPDEST SWAP4 POP PUSH1 0x40 DUP7 ADD CALLDATALOAD PUSH1 0x1 PUSH1 0x1 PUSH1 0x40 SHL SUB DUP1 DUP3 GT ISZERO PUSH2 0x54D1 JUMPI PUSH1 0x0 DUP1 REVERT JUMPDEST PUSH2 0x54DD DUP10 DUP4 DUP11 ADD PUSH2 0x53A2 JUMP JUMPDEST SWAP5 POP PUSH1 0x60 DUP9 ADD CALLDATALOAD SWAP2 POP DUP1 DUP3 GT ISZERO PUSH2 0x54F3 JUMPI PUSH1 0x0 DUP1 REVERT JUMPDEST PUSH2 0x54FF DUP10 DUP4 DUP11 ADD PUSH2 0x53A2 JUMP JUMPDEST SWAP4 POP PUSH1 0x80 DUP9 ADD CALLDATALOAD SWAP2 POP DUP1 DUP3 GT ISZERO PUSH2 0x5515 JUMPI PUSH1 0x0 DUP1 REVERT JUMPDEST POP PUSH2 0x5522 DUP9 DUP3 DUP10 ADD PUSH2 0x5413 JUMP JUMPDEST SWAP2 POP POP SWAP3 SWAP6 POP SWAP3 SWAP6 SWAP1 SWAP4 POP JUMP JUMPDEST DUP1 CALLDATALOAD PUSH1 0x5 DUP2 LT PUSH2 0x5138 JUMPI PUSH1 0x0 DUP1 REVERT JUMPDEST PUSH1 0x0 DUP1 PUSH1 0x40 DUP4 DUP6 SUB SLT ISZERO PUSH2 0x5551 JUMPI PUSH1 0x0 DUP1 REVERT JUMPDEST DUP3 CALLDATALOAD SWAP2 POP PUSH2 0x5561 PUSH1 0x20 DUP5 ADD PUSH2 0x552F JUMP JUMPDEST SWAP1 POP SWAP3 POP SWAP3 SWAP1 POP JUMP JUMPDEST PUSH1 0x0 DUP1 PUSH1 0x40 DUP4 DUP6 SUB SLT ISZERO PUSH2 0x557D JUMPI PUSH1 0x0 DUP1 REVERT JUMPDEST POP POP DUP1 CALLDATALOAD SWAP3 PUSH1 0x20 SWAP1 SWAP2 ADD CALLDATALOAD SWAP2 POP JUMP JUMPDEST PUSH4 0x4E487B71 PUSH1 0xE0 SHL PUSH1 0x0 MSTORE PUSH1 0x21 PUSH1 0x4 MSTORE PUSH1 0x24 PUSH1 0x0 REVERT JUMPDEST PUSH1 0x20 DUP2 ADD PUSH1 0x5 DUP4 LT PUSH2 0x55C4 JUMPI PUSH4 0x4E487B71 PUSH1 0xE0 SHL PUSH1 0x0 MSTORE PUSH1 0x21 PUSH1 0x4 MSTORE PUSH1 0x24 PUSH1 0x0 REVERT JUMPDEST SWAP2 SWAP1 MSTORE SWAP1 JUMP JUMPDEST PUSH1 0x0 DUP1 PUSH1 0x40 DUP4 DUP6 SUB SLT ISZERO PUSH2 0x55DD JUMPI PUSH1 0x0 DUP1 REVERT JUMPDEST DUP3 CALLDATALOAD PUSH1 0x1 PUSH1 0x1 PUSH1 0x40 SHL SUB DUP1 DUP3 GT ISZERO PUSH2 0x55F4 JUMPI PUSH1 0x0 DUP1 REVERT JUMPDEST DUP2 DUP6 ADD SWAP2 POP DUP6 PUSH1 0x1F DUP4 ADD SLT PUSH2 0x5608 JUMPI PUSH1 0x0 DUP1 REVERT JUMPDEST DUP2 CALLDATALOAD PUSH1 0x20 PUSH2 0x5615 DUP3 PUSH2 0x537F JUMP JUMPDEST PUSH1 0x40 MLOAD PUSH2 0x5622 DUP3 DUP3 PUSH2 0x5353 JUMP JUMPDEST DUP4 DUP2 MSTORE PUSH1 0x5 SWAP4 SWAP1 SWAP4 SHL DUP6 ADD DUP3 ADD SWAP3 DUP3 DUP2 ADD SWAP2 POP DUP10 DUP5 GT ISZERO PUSH2 0x5642 JUMPI PUSH1 0x0 DUP1 REVERT JUMPDEST SWAP5 DUP3 ADD SWAP5 JUMPDEST DUP4 DUP7 LT ISZERO PUSH2 0x5667 JUMPI PUSH2 0x5658 DUP7 PUSH2 0x5121 JUMP JUMPDEST DUP3 MSTORE SWAP5 DUP3 ADD SWAP5 SWAP1 DUP3 ADD SWAP1 PUSH2 0x5647 JUMP JUMPDEST SWAP7 POP POP DUP7 ADD CALLDATALOAD SWAP3 POP POP DUP1 DUP3 GT ISZERO PUSH2 0x567D JUMPI PUSH1 0x0 DUP1 REVERT JUMPDEST POP PUSH2 0x568A DUP6 DUP3 DUP7 ADD PUSH2 0x53A2 JUMP JUMPDEST SWAP2 POP POP SWAP3 POP SWAP3 SWAP1 POP JUMP JUMPDEST PUSH1 0x20 DUP2 MSTORE PUSH1 0x0 PUSH2 0x2479 PUSH1 0x20 DUP4 ADD DUP5 PUSH2 0x5265 JUMP JUMPDEST PUSH1 0x0 DUP1 PUSH1 0x40 DUP4 DUP6 SUB SLT ISZERO PUSH2 0x56BA JUMPI PUSH1 0x0 DUP1 REVERT JUMPDEST DUP3 CALLDATALOAD SWAP2 POP PUSH1 0x20 DUP4 ADD CALLDATALOAD PUSH1 0x1 PUSH1 0x1 PUSH1 0x40 SHL SUB DUP2 GT ISZERO PUSH2 0x56D7 JUMPI PUSH1 0x0 DUP1 REVERT JUMPDEST PUSH2 0x568A DUP6 DUP3 DUP7 ADD PUSH2 0x5413 JUMP JUMPDEST PUSH1 0x0 DUP1 PUSH1 0x0 DUP1 PUSH1 0x80 DUP6 DUP8 SUB SLT ISZERO PUSH2 0x56F9 JUMPI PUSH1 0x0 DUP1 REVERT JUMPDEST DUP5 CALLDATALOAD PUSH1 0x1 PUSH1 0x1 PUSH1 0x40 SHL SUB DUP1 DUP3 GT ISZERO PUSH2 0x5710 JUMPI PUSH1 0x0 DUP1 REVERT JUMPDEST PUSH2 0x571C DUP9 DUP4 DUP10 ADD PUSH2 0x5413 JUMP JUMPDEST SWAP6 POP PUSH1 0x20 DUP8 ADD CALLDATALOAD SWAP2 POP DUP1 DUP3 GT ISZERO PUSH2 0x5732 JUMPI PUSH1 0x0 DUP1 REVERT JUMPDEST PUSH2 0x573E DUP9 DUP4 DUP10 ADD PUSH2 0x5413 JUMP JUMPDEST SWAP5 POP PUSH1 0x40 DUP8 ADD CALLDATALOAD SWAP2 POP DUP1 DUP3 GT ISZERO PUSH2 0x5754 JUMPI PUSH1 0x0 DUP1 REVERT JUMPDEST PUSH2 0x5760 DUP9 DUP4 DUP10 ADD PUSH2 0x5413 JUMP JUMPDEST SWAP4 POP PUSH1 0x60 DUP8 ADD CALLDATALOAD SWAP2 POP DUP1 DUP3 GT ISZERO PUSH2 0x5776 JUMPI PUSH1 0x0 DUP1 REVERT JUMPDEST POP PUSH2 0x5783 DUP8 DUP3 DUP9 ADD PUSH2 0x5413 JUMP JUMPDEST SWAP2 POP POP SWAP3 SWAP6 SWAP2 SWAP5 POP SWAP3 POP JUMP JUMPDEST DUP1 ISZERO ISZERO DUP2 EQ PUSH2 0x3875 JUMPI PUSH1 0x0 DUP1 REVERT JUMPDEST PUSH1 0x0 DUP1 PUSH1 0x40 DUP4 DUP6 SUB SLT ISZERO PUSH2 0x57B0 JUMPI PUSH1 0x0 DUP1 REVERT JUMPDEST PUSH2 0x57B9 DUP4 PUSH2 0x5121 JUMP JUMPDEST SWAP2 POP PUSH1 0x20 DUP4 ADD CALLDATALOAD PUSH2 0x57C9 DUP2 PUSH2 0x578F JUMP JUMPDEST DUP1 SWAP2 POP POP SWAP3 POP SWAP3 SWAP1 POP JUMP JUMPDEST PUSH1 0x0 DUP1 PUSH1 0x0 DUP1 PUSH1 0x0 DUP1 PUSH1 0x0 PUSH1 0xE0 DUP9 DUP11 SUB SLT ISZERO PUSH2 0x57EF JUMPI PUSH1 0x0 DUP1 REVERT JUMPDEST DUP8 CALLDATALOAD SWAP7 POP PUSH1 0x20 DUP1 DUP10 ADD CALLDATALOAD SWAP7 POP PUSH1 0x40 DUP10 ADD CALLDATALOAD SWAP6 POP PUSH1 0x60 DUP10 ADD CALLDATALOAD SWAP5 POP PUSH1 0x80 DUP10 ADD CALLDATALOAD SWAP4 POP PUSH1 0xA0 DUP10 ADD CALLDATALOAD SWAP3 POP PUSH1 0xC0 DUP10 ADD CALLDATALOAD PUSH1 0x1 PUSH1 0x1 PUSH1 0x40 SHL SUB DUP2 GT ISZERO PUSH2 0x5830 JUMPI PUSH1 0x0 DUP1 REVERT JUMPDEST DUP10 ADD PUSH1 0x1F DUP2 ADD DUP12 SGT PUSH2 0x5841 JUMPI PUSH1 0x0 DUP1 REVERT JUMPDEST DUP1 CALLDATALOAD PUSH2 0x584C DUP2 PUSH2 0x537F JUMP JUMPDEST PUSH1 0x40 MLOAD PUSH2 0x5859 DUP3 DUP3 PUSH2 0x5353 JUMP JUMPDEST DUP3 DUP2 MSTORE PUSH1 0x5 SWAP3 SWAP1 SWAP3 SHL DUP4 ADD DUP5 ADD SWAP2 DUP5 DUP2 ADD SWAP2 POP DUP14 DUP4 GT ISZERO PUSH2 0x5879 JUMPI PUSH1 0x0 DUP1 REVERT JUMPDEST SWAP3 DUP5 ADD SWAP3 JUMPDEST DUP3 DUP5 LT ISZERO PUSH2 0x589E JUMPI PUSH2 0x588F DUP5 PUSH2 0x552F JUMP JUMPDEST DUP3 MSTORE SWAP3 DUP5 ADD SWAP3 SWAP1 DUP5 ADD SWAP1 PUSH2 0x587E JUMP JUMPDEST DUP1 SWAP6 POP POP POP POP POP POP SWAP3 SWAP6 SWAP9 SWAP2 SWAP5 SWAP8 POP SWAP3 SWAP6 POP JUMP JUMPDEST PUSH1 0x0 DUP1 PUSH1 0x40 DUP4 DUP6 SUB SLT ISZERO PUSH2 0x58C5 JUMPI PUSH1 0x0 DUP1 REVERT JUMPDEST PUSH2 0x58CE DUP4 PUSH2 0x5121 JUMP JUMPDEST SWAP2 POP PUSH2 0x5561 PUSH1 0x20 DUP5 ADD PUSH2 0x5121 JUMP JUMPDEST PUSH1 0x20 DUP2 MSTORE PUSH1 0x0 PUSH2 0x2479 PUSH1 0x20 DUP4 ADD DUP5 PUSH2 0x52A0 JUMP JUMPDEST PUSH1 0x0 PUSH1 0x20 DUP3 DUP5 SUB SLT ISZERO PUSH2 0x5901 JUMPI PUSH1 0x0 DUP1 REVERT JUMPDEST DUP2 CALLDATALOAD PUSH2 0x2479 DUP2 PUSH2 0x578F JUMP JUMPDEST PUSH1 0x0 DUP1 PUSH1 0x0 DUP1 PUSH1 0x0 PUSH1 0xA0 DUP7 DUP9 SUB SLT ISZERO PUSH2 0x5924 JUMPI PUSH1 0x0 DUP1 REVERT JUMPDEST PUSH2 0x592D DUP7 PUSH2 0x5121 JUMP JUMPDEST SWAP5 POP PUSH2 0x593B PUSH1 0x20 DUP8 ADD PUSH2 0x5121 JUMP JUMPDEST SWAP4 POP PUSH1 0x40 DUP7 ADD CALLDATALOAD SWAP3 POP PUSH1 0x60 DUP7 ADD CALLDATALOAD SWAP2 POP PUSH1 0x80 DUP7 ADD CALLDATALOAD PUSH1 0x1 PUSH1 0x1 PUSH1 0x40 SHL SUB DUP2 GT ISZERO PUSH2 0x5964 JUMPI PUSH1 0x0 DUP1 REVERT JUMPDEST PUSH2 0x5522 DUP9 DUP3 DUP10 ADD PUSH2 0x5413 JUMP JUMPDEST PUSH1 0x0 DUP1 PUSH1 0x0 DUP1 PUSH1 0x0 DUP1 PUSH1 0x0 PUSH1 0xE0 DUP9 DUP11 SUB SLT ISZERO PUSH2 0x598B JUMPI PUSH1 0x0 DUP1 REVERT JUMPDEST DUP8 CALLDATALOAD SWAP7 POP PUSH1 0x20 DUP9 ADD CALLDATALOAD SWAP6 POP PUSH1 0x40 DUP9 ADD CALLDATALOAD SWAP5 POP PUSH1 0x60 DUP9 ADD CALLDATALOAD PUSH1 0x1 PUSH1 0x1 PUSH1 0x40 SHL SUB DUP1 DUP3 GT ISZERO PUSH2 0x59B7 JUMPI PUSH1 0x0 DUP1 REVERT JUMPDEST PUSH2 0x59C3 DUP12 DUP4 DUP13 ADD PUSH2 0x5413 JUMP JUMPDEST SWAP6 POP PUSH1 0x80 DUP11 ADD CALLDATALOAD SWAP2 POP DUP1 DUP3 GT ISZERO PUSH2 0x59D9 JUMPI PUSH1 0x0 DUP1 REVERT JUMPDEST PUSH2 0x59E5 DUP12 DUP4 DUP13 ADD PUSH2 0x5413 JUMP JUMPDEST SWAP5 POP PUSH1 0xA0 DUP11 ADD CALLDATALOAD SWAP2 POP DUP1 DUP3 GT ISZERO PUSH2 0x59FB JUMPI PUSH1 0x0 DUP1 REVERT JUMPDEST PUSH2 0x5A07 DUP12 DUP4 DUP13 ADD PUSH2 0x5413 JUMP JUMPDEST SWAP4 POP PUSH1 0xC0 DUP11 ADD CALLDATALOAD SWAP2 POP DUP1 DUP3 GT ISZERO PUSH2 0x5A1D JUMPI PUSH1 0x0 DUP1 REVERT JUMPDEST POP PUSH2 0x5A2A DUP11 DUP3 DUP12 ADD PUSH2 0x5413 JUMP JUMPDEST SWAP2 POP POP SWAP3 SWAP6 SWAP9 SWAP2 SWAP5 SWAP8 POP SWAP3 SWAP6 POP JUMP JUMPDEST PUSH1 0x1 DUP2 DUP2 SHR SWAP1 DUP3 AND DUP1 PUSH2 0x5A4D JUMPI PUSH1 0x7F DUP3 AND SWAP2 POP JUMPDEST PUSH1 0x20 DUP3 LT DUP2 EQ ISZERO PUSH2 0x3362 JUMPI PUSH4 0x4E487B71 PUSH1 0xE0 SHL PUSH1 0x0 MSTORE PUSH1 0x22 PUSH1 0x4 MSTORE PUSH1 0x24 PUSH1 0x0 REVERT JUMPDEST PUSH1 0x0 PUSH1 0x0 NOT DUP3 EQ ISZERO PUSH2 0x5A82 JUMPI PUSH2 0x5A82 PUSH2 0x50F3 JUMP JUMPDEST POP PUSH1 0x1 ADD SWAP1 JUMP JUMPDEST PUSH1 0x20 DUP1 DUP3 MSTORE DUP2 DUP2 ADD MSTORE PUSH32 0x4F776E61626C653A2063616C6C6572206973206E6F7420746865206F776E6572 PUSH1 0x40 DUP3 ADD MSTORE PUSH1 0x60 ADD SWAP1 JUMP JUMPDEST PUSH1 0x20 DUP1 DUP3 MSTORE PUSH1 0x10 SWAP1 DUP3 ADD MSTORE PUSH16 0x14185D5CD8589B194E881C185D5CD959 PUSH1 0x82 SHL PUSH1 0x40 DUP3 ADD MSTORE PUSH1 0x60 ADD SWAP1 JUMP JUMPDEST PUSH1 0x0 DUP3 DUP3 LT ISZERO PUSH2 0x5AFA JUMPI PUSH2 0x5AFA PUSH2 0x50F3 JUMP JUMPDEST POP SUB SWAP1 JUMP JUMPDEST PUSH1 0x0 DUP2 PUSH1 0x0 NOT DIV DUP4 GT DUP3 ISZERO ISZERO AND ISZERO PUSH2 0x5B19 JUMPI PUSH2 0x5B19 PUSH2 0x50F3 JUMP JUMPDEST POP MUL SWAP1 JUMP JUMPDEST PUSH4 0x4E487B71 PUSH1 0xE0 SHL PUSH1 0x0 MSTORE PUSH1 0x12 PUSH1 0x4 MSTORE PUSH1 0x24 PUSH1 0x0 REVERT JUMPDEST PUSH1 0x0 DUP3 PUSH2 0x5B43 JUMPI PUSH2 0x5B43 PUSH2 0x5B1E JUMP JUMPDEST POP DIV SWAP1 JUMP JUMPDEST PUSH1 0x20 DUP1 DUP3 MSTORE PUSH1 0x3 SWAP1 DUP3 ADD MSTORE PUSH3 0x653131 PUSH1 0xE8 SHL PUSH1 0x40 DUP3 ADD MSTORE PUSH1 0x60 ADD SWAP1 JUMP JUMPDEST PUSH1 0x20 DUP1 DUP3 MSTORE PUSH1 0x2 SWAP1 DUP3 ADD MSTORE PUSH2 0x6531 PUSH1 0xF0 SHL PUSH1 0x40 DUP3 ADD MSTORE PUSH1 0x60 ADD SWAP1 JUMP JUMPDEST DUP1 MLOAD PUSH10 0xFFFFFFFFFFFFFFFFFFFF DUP2 AND DUP2 EQ PUSH2 0x5138 JUMPI PUSH1 0x0 DUP1 REVERT JUMPDEST PUSH1 0x0 DUP1 PUSH1 0x0 DUP1 PUSH1 0x0 PUSH1 0xA0 DUP7 DUP9 SUB SLT ISZERO PUSH2 0x5BB3 JUMPI PUSH1 0x0 DUP1 REVERT JUMPDEST PUSH2 0x5BBC DUP7 PUSH2 0x5B81 JUMP JUMPDEST SWAP5 POP PUSH1 0x20 DUP7 ADD MLOAD SWAP4 POP PUSH1 0x40 DUP7 ADD MLOAD SWAP3 POP PUSH1 0x60 DUP7 ADD MLOAD SWAP2 POP PUSH2 0x5BDF PUSH1 0x80 DUP8 ADD PUSH2 0x5B81 JUMP JUMPDEST SWAP1 POP SWAP3 SWAP6 POP SWAP3 SWAP6 SWAP1 SWAP4 POP JUMP JUMPDEST PUSH1 0x0 DUP3 PUSH2 0x5BFA JUMPI PUSH2 0x5BFA PUSH2 0x5B1E JUMP JUMPDEST POP MOD SWAP1 JUMP JUMPDEST PUSH1 0x20 DUP1 DUP3 MSTORE PUSH1 0x2A SWAP1 DUP3 ADD MSTORE PUSH32 0x455243313135353A20696E73756666696369656E742062616C616E636520666F PUSH1 0x40 DUP3 ADD MSTORE PUSH10 0x39103A3930B739B332B9 PUSH1 0xB1 SHL PUSH1 0x60 DUP3 ADD MSTORE PUSH1 0x80 ADD SWAP1 JUMP JUMPDEST PUSH1 0x40 DUP2 MSTORE PUSH1 0x0 PUSH2 0x5C5C PUSH1 0x40 DUP4 ADD DUP6 PUSH2 0x5265 JUMP JUMPDEST DUP3 DUP2 SUB PUSH1 0x20 DUP5 ADD MSTORE PUSH2 0x35DA DUP2 DUP6 PUSH2 0x5265 JUMP JUMPDEST PUSH1 0x0 DUP3 MLOAD PUSH2 0x5C80 DUP2 DUP5 PUSH1 0x20 DUP8 ADD PUSH2 0x51C6 JUMP JUMPDEST SWAP2 SWAP1 SWAP2 ADD SWAP3 SWAP2 POP POP JUMP JUMPDEST PUSH1 0x1 DUP1 PUSH1 0xA0 SHL SUB DUP5 AND DUP2 MSTORE DUP3 PUSH1 0x20 DUP3 ADD MSTORE PUSH1 0x60 PUSH1 0x40 DUP3 ADD MSTORE PUSH1 0x0 PUSH2 0x35DA PUSH1 0x60 DUP4 ADD DUP5 PUSH2 0x51F2 JUMP JUMPDEST PUSH1 0x0 PUSH1 0x20 DUP3 DUP5 SUB SLT ISZERO PUSH2 0x5CC3 JUMPI PUSH1 0x0 DUP1 REVERT JUMPDEST DUP2 MLOAD PUSH2 0x2479 DUP2 PUSH2 0x578F JUMP JUMPDEST PUSH1 0x0 DUP1 DUP4 SLT DUP1 ISZERO PUSH1 0x1 PUSH1 0xFF SHL DUP6 ADD DUP5 SLT AND ISZERO PUSH2 0x5CEC JUMPI PUSH2 0x5CEC PUSH2 0x50F3 JUMP JUMPDEST PUSH1 0x1 PUSH1 0x1 PUSH1 0xFF SHL SUB DUP5 ADD DUP4 SGT DUP2 AND ISZERO PUSH2 0x5D07 JUMPI PUSH2 0x5D07 PUSH2 0x50F3 JUMP JUMPDEST POP POP SUB SWAP1 JUMP JUMPDEST PUSH1 0x0 DUP3 PUSH2 0x5D1C JUMPI PUSH2 0x5D1C PUSH2 0x5B1E JUMP JUMPDEST PUSH1 0x1 PUSH1 0xFF SHL DUP3 EQ PUSH1 0x0 NOT DUP5 EQ AND ISZERO PUSH2 0x5D36 JUMPI PUSH2 0x5D36 PUSH2 0x50F3 JUMP JUMPDEST POP SDIV SWAP1 JUMP JUMPDEST PUSH1 0x0 DUP1 DUP3 SLT DUP1 ISZERO PUSH1 0x1 PUSH1 0x1 PUSH1 0xFF SHL SUB DUP5 SWAP1 SUB DUP6 SGT AND ISZERO PUSH2 0x5D5D JUMPI PUSH2 0x5D5D PUSH2 0x50F3 JUMP JUMPDEST PUSH1 0x1 PUSH1 0xFF SHL DUP4 SWAP1 SUB DUP5 SLT DUP2 AND ISZERO PUSH2 0x5D76 JUMPI PUSH2 0x5D76 PUSH2 0x50F3 JUMP JUMPDEST POP POP ADD SWAP1 JUMP JUMPDEST PUSH1 0x0 PUSH1 0x1 PUSH1 0x1 PUSH1 0xFF SHL SUB DUP2 DUP5 SGT DUP3 DUP5 SGT DUP1 DUP3 AND DUP7 DUP5 DIV DUP7 GT AND ISZERO PUSH2 0x5DA2 JUMPI PUSH2 0x5DA2 PUSH2 0x50F3 JUMP JUMPDEST PUSH1 0x1 PUSH1 0xFF SHL PUSH1 0x0 DUP8 SLT DUP3 DUP2 AND DUP8 DUP4 SDIV DUP10 SLT AND ISZERO PUSH2 0x5DC1 JUMPI PUSH2 0x5DC1 PUSH2 0x50F3 JUMP JUMPDEST PUSH1 0x0 DUP8 SLT SWAP3 POP DUP8 DUP3 SDIV DUP8 SLT DUP5 DUP5 AND AND ISZERO PUSH2 0x5DDD JUMPI PUSH2 0x5DDD PUSH2 0x50F3 JUMP JUMPDEST DUP8 DUP6 SDIV DUP8 SLT DUP2 DUP5 AND AND ISZERO PUSH2 0x5DF3 JUMPI PUSH2 0x5DF3 PUSH2 0x50F3 JUMP JUMPDEST POP POP POP SWAP3 SWAP1 SWAP4 MUL SWAP4 SWAP3 POP POP POP JUMP JUMPDEST PUSH1 0x1 PUSH1 0x1 PUSH1 0xA0 SHL SUB DUP7 DUP2 AND DUP3 MSTORE DUP6 AND PUSH1 0x20 DUP3 ADD MSTORE PUSH1 0x40 DUP2 ADD DUP5 SWAP1 MSTORE PUSH1 0x60 DUP2 ADD DUP4 SWAP1 MSTORE PUSH1 0xA0 PUSH1 0x80 DUP3 ADD DUP2 SWAP1 MSTORE PUSH1 0x0 SWAP1 PUSH2 0x5E3B SWAP1 DUP4 ADD DUP5 PUSH2 0x51F2 JUMP JUMPDEST SWAP8 SWAP7 POP POP POP POP POP POP POP JUMP JUMPDEST PUSH1 0x0 PUSH1 0x20 DUP3 DUP5 SUB SLT ISZERO PUSH2 0x5E58 JUMPI PUSH1 0x0 DUP1 REVERT JUMPDEST DUP2 MLOAD PUSH2 0x2479 DUP2 PUSH2 0x5167 JUMP JUMPDEST PUSH1 0x0 PUSH1 0x3 RETURNDATASIZE GT ISZERO PUSH2 0x31E2 JUMPI PUSH1 0x4 PUSH1 0x0 DUP1 RETURNDATACOPY POP PUSH1 0x0 MLOAD PUSH1 0xE0 SHR SWAP1 JUMP JUMPDEST PUSH1 0x0 PUSH1 0x44 RETURNDATASIZE LT ISZERO PUSH2 0x5E8C JUMPI SWAP1 JUMP JUMPDEST PUSH1 0x40 MLOAD PUSH1 0x3 NOT RETURNDATASIZE DUP2 ADD PUSH1 0x4 DUP4 RETURNDATACOPY DUP2 MLOAD RETURNDATASIZE PUSH1 0x1 PUSH1 0x1 PUSH1 0x40 SHL SUB DUP2 PUSH1 0x24 DUP5 ADD GT DUP2 DUP5 GT OR ISZERO PUSH2 0x5EBB JUMPI POP POP POP POP POP SWAP1 JUMP JUMPDEST DUP3 DUP6 ADD SWAP2 POP DUP2 MLOAD DUP2 DUP2 GT ISZERO PUSH2 0x5ED3 JUMPI POP POP POP POP POP POP SWAP1 JUMP JUMPDEST DUP5 RETURNDATASIZE DUP8 ADD ADD PUSH1 0x20 DUP3 DUP6 ADD ADD GT ISZERO PUSH2 0x5EED JUMPI POP POP POP POP POP POP SWAP1 JUMP JUMPDEST PUSH2 0x5EFC PUSH1 0x20 DUP3 DUP7 ADD ADD DUP8 PUSH2 0x5353 JUMP JUMPDEST POP SWAP1 SWAP6 SWAP5 POP POP POP POP POP JUMP JUMPDEST PUSH1 0x20 DUP1 DUP3 MSTORE PUSH1 0x28 SWAP1 DUP3 ADD MSTORE PUSH32 0x455243313135353A204552433131353552656365697665722072656A65637465 PUSH1 0x40 DUP3 ADD MSTORE PUSH8 0x6420746F6B656E73 PUSH1 0xC0 SHL PUSH1 0x60 DUP3 ADD MSTORE PUSH1 0x80 ADD SWAP1 JUMP JUMPDEST PUSH1 0x1 PUSH1 0x1 PUSH1 0xA0 SHL SUB DUP7 DUP2 AND DUP3 MSTORE DUP6 AND PUSH1 0x20 DUP3 ADD MSTORE PUSH1 0xA0 PUSH1 0x40 DUP3 ADD DUP2 SWAP1 MSTORE PUSH1 0x0 SWAP1 PUSH2 0x5F7B SWAP1 DUP4 ADD DUP7 PUSH2 0x5265 JUMP JUMPDEST DUP3 DUP2 SUB PUSH1 0x60 DUP5 ADD MSTORE PUSH2 0x5F8D DUP2 DUP7 PUSH2 0x5265 JUMP JUMPDEST SWAP1 POP DUP3 DUP2 SUB PUSH1 0x80 DUP5 ADD MSTORE PUSH2 0x4B87 DUP2 DUP6 PUSH2 0x51F2 JUMP INVALID LOG2 PUSH5 0x6970667358 0x22 SLT KECCAK256 0xF7 0xAF EQ 0x4A 0xF8 0xC0 0xD8 GT 0xE1 SWAP1 0xE3 SLT 0xA6 0xBA SUB DUP11 PUSH10 0x7B5AA952968630E68858 0xD CALLDATALOAD LT 0xD3 0x2A PUSH5 0x736F6C6343 STOP ADDMOD SIGNEXTEND STOP CALLER ","sha1":"f15873ecdf25530c0f8264541c765d697fb437a4","source":"// SPDX-License-Identifier: MIT\npragma solidity ^0.8.0;\n\nimport \"./MemorizeThisDay.sol\";\n\ncontract MemorizeThisDayOnBTC is MemorizeThisDay {\n    constructor(\n        address vrfCoordinator,\n        address linkToken,\n        uint256 chainlinkFee,\n        bytes32 keyHash,\n        address priceFeedAddress,\n        address developersAddress,\n        address founderAddress\n    )\n        public\n        MemorizeThisDay(\n            \"Bitcoin\",\n            \"https://memorizethisday.github.io/BTC/{id}.json\",\n            50,\n            vrfCoordinator,\n            linkToken,\n            chainlinkFee,\n            keyHash,\n            priceFeedAddress,\n            2009,\n            1,\n            3\n        )\n    {\n        SetAddress(founderAddress, 0);\n        SetAddress(developersAddress, 1);\n        _airdrop[founderAddress] = 20;\n        _airdrop[developersAddress] = 20;\n        Memorize(2016, 7, 9, founderAddress);\n        Memorize(2013, 1, 1, founderAddress);\n        Memorize(2009, 1, 3, founderAddress);\n        Memorize(2021, 10, 20, founderAddress);\n        Memorize(2015, 1, 15, founderAddress);\n    }\n}\n","sourcePath":"contracts/MemorizeBTC.sol","deployment":{"address":"0xE66b934901D630fE40C1277A662867Fba9E63a87","chainid":"4","blockHeight":10639392}}