{
  "abi": [
    {
      "inputs": [
        {
          "internalType": "address",
          "name": "vrfCoordinator",
          "type": "address"
        },
        {
          "internalType": "address",
          "name": "linkToken",
          "type": "address"
        },
        {
          "internalType": "uint256",
          "name": "chainlinkFee",
          "type": "uint256"
        },
        {
          "internalType": "bytes32",
          "name": "keyHash",
          "type": "bytes32"
        },
        {
          "internalType": "address",
          "name": "priceFeedAddress",
          "type": "address"
        },
        {
          "internalType": "address",
          "name": "developersAddress",
          "type": "address"
        },
        {
          "internalType": "address",
          "name": "founderAddress",
          "type": "address"
        }
      ],
      "stateMutability": "nonpayable",
      "type": "constructor"
    },
    {
      "inputs": [
        {
          "internalType": "uint256",
          "name": "",
          "type": "uint256"
        },
        {
          "internalType": "uint256",
          "name": "",
          "type": "uint256"
        }
      ],
      "name": "WrongDaySelection",
      "type": "error"
    },
    {
      "anonymous": false,
      "inputs": [
        {
          "indexed": true,
          "internalType": "address",
          "name": "account",
          "type": "address"
        },
        {
          "indexed": true,
          "internalType": "address",
          "name": "operator",
          "type": "address"
        },
        {
          "indexed": false,
          "internalType": "bool",
          "name": "approved",
          "type": "bool"
        }
      ],
      "name": "ApprovalForAll",
      "type": "event"
    },
    {
      "anonymous": false,
      "inputs": [
        {
          "indexed": true,
          "internalType": "address",
          "name": "previous",
          "type": "address"
        },
        {
          "indexed": true,
          "internalType": "address",
          "name": "current",
          "type": "address"
        }
      ],
      "name": "ChangeAmbassadorEvent",
      "type": "event"
    },
    {
      "anonymous": false,
      "inputs": [
        {
          "indexed": true,
          "internalType": "uint256",
          "name": "year",
          "type": "uint256"
        },
        {
          "indexed": true,
          "internalType": "uint256",
          "name": "month",
          "type": "uint256"
        },
        {
          "indexed": true,
          "internalType": "uint256",
          "name": "day",
          "type": "uint256"
        }
      ],
      "name": "CustomizeEvent",
      "type": "event"
    },
    {
      "anonymous": false,
      "inputs": [
        {
          "indexed": true,
          "internalType": "uint256",
          "name": "year",
          "type": "uint256"
        },
        {
          "indexed": true,
          "internalType": "uint256",
          "name": "month",
          "type": "uint256"
        },
        {
          "indexed": true,
          "internalType": "uint256",
          "name": "day",
          "type": "uint256"
        }
      ],
      "name": "LikeEvent",
      "type": "event"
    },
    {
      "anonymous": false,
      "inputs": [
        {
          "indexed": false,
          "internalType": "uint256",
          "name": "year",
          "type": "uint256"
        },
        {
          "indexed": false,
          "internalType": "uint256",
          "name": "month",
          "type": "uint256"
        },
        {
          "indexed": false,
          "internalType": "uint256",
          "name": "day",
          "type": "uint256"
        },
        {
          "indexed": true,
          "internalType": "address",
          "name": "holder",
          "type": "address"
        }
      ],
      "name": "MemorizedEvent",
      "type": "event"
    },
    {
      "anonymous": false,
      "inputs": [
        {
          "indexed": true,
          "internalType": "address",
          "name": "previousOwner",
          "type": "address"
        },
        {
          "indexed": true,
          "internalType": "address",
          "name": "newOwner",
          "type": "address"
        }
      ],
      "name": "OwnershipTransferred",
      "type": "event"
    },
    {
      "anonymous": false,
      "inputs": [
        {
          "indexed": false,
          "internalType": "address",
          "name": "account",
          "type": "address"
        }
      ],
      "name": "Paused",
      "type": "event"
    },
    {
      "anonymous": false,
      "inputs": [
        {
          "indexed": true,
          "internalType": "address",
          "name": "_address",
          "type": "address"
        },
        {
          "indexed": false,
          "internalType": "uint256",
          "name": "randomness",
          "type": "uint256"
        }
      ],
      "name": "PeriodicAirdropWinnerSelectedEvent",
      "type": "event"
    },
    {
      "anonymous": false,
      "inputs": [
        {
          "indexed": true,
          "internalType": "address",
          "name": "operator",
          "type": "address"
        },
        {
          "indexed": true,
          "internalType": "address",
          "name": "from",
          "type": "address"
        },
        {
          "indexed": true,
          "internalType": "address",
          "name": "to",
          "type": "address"
        },
        {
          "indexed": false,
          "internalType": "uint256[]",
          "name": "ids",
          "type": "uint256[]"
        },
        {
          "indexed": false,
          "internalType": "uint256[]",
          "name": "values",
          "type": "uint256[]"
        }
      ],
      "name": "TransferBatch",
      "type": "event"
    },
    {
      "anonymous": false,
      "inputs": [
        {
          "indexed": true,
          "internalType": "address",
          "name": "operator",
          "type": "address"
        },
        {
          "indexed": true,
          "internalType": "address",
          "name": "from",
          "type": "address"
        },
        {
          "indexed": true,
          "internalType": "address",
          "name": "to",
          "type": "address"
        },
        {
          "indexed": false,
          "internalType": "uint256",
          "name": "id",
          "type": "uint256"
        },
        {
          "indexed": false,
          "internalType": "uint256",
          "name": "value",
          "type": "uint256"
        }
      ],
      "name": "TransferSingle",
      "type": "event"
    },
    {
      "anonymous": false,
      "inputs": [
        {
          "indexed": false,
          "internalType": "string",
          "name": "value",
          "type": "string"
        },
        {
          "indexed": true,
          "internalType": "uint256",
          "name": "id",
          "type": "uint256"
        }
      ],
      "name": "URI",
      "type": "event"
    },
    {
      "anonymous": false,
      "inputs": [
        {
          "indexed": false,
          "internalType": "address",
          "name": "account",
          "type": "address"
        }
      ],
      "name": "Unpaused",
      "type": "event"
    },
    {
      "anonymous": false,
      "inputs": [
        {
          "indexed": true,
          "internalType": "uint256",
          "name": "vaultNumber",
          "type": "uint256"
        },
        {
          "indexed": true,
          "internalType": "enum MemorizeThisDay.VAULT_ACTION",
          "name": "action",
          "type": "uint8"
        }
      ],
      "name": "VoteResult",
      "type": "event"
    },
    {
      "anonymous": false,
      "inputs": [
        {
          "indexed": true,
          "internalType": "address",
          "name": "_address",
          "type": "address"
        },
        {
          "indexed": true,
          "internalType": "uint256",
          "name": "_amount",
          "type": "uint256"
        }
      ],
      "name": "WithdrawalEvent",
      "type": "event"
    },
    {
      "stateMutability": "payable",
      "type": "fallback"
    },
    {
      "inputs": [],
      "name": "AMBASSADOR_SHARE",
      "outputs": [
        {
          "internalType": "uint256",
          "name": "",
          "type": "uint256"
        }
      ],
      "stateMutability": "view",
      "type": "function"
    },
    {
      "inputs": [
        {
          "internalType": "bool",
          "name": "acceptance",
          "type": "bool"
        }
      ],
      "name": "AcceptSponsorship",
      "outputs": [],
      "stateMutability": "nonpayable",
      "type": "function"
    },
    {
      "inputs": [],
      "name": "AirdropRegisters",
      "outputs": [
        {
          "internalType": "address[]",
          "name": "",
          "type": "address[]"
        }
      ],
      "stateMutability": "view",
      "type": "function"
    },
    {
      "inputs": [
        {
          "internalType": "uint256",
          "name": "year",
          "type": "uint256"
        },
        {
          "internalType": "uint256",
          "name": "month",
          "type": "uint256"
        },
        {
          "internalType": "uint256",
          "name": "day",
          "type": "uint256"
        },
        {
          "internalType": "string",
          "name": "memo",
          "type": "string"
        },
        {
          "internalType": "string",
          "name": "imageMemo",
          "type": "string"
        },
        {
          "internalType": "string",
          "name": "aliass",
          "type": "string"
        },
        {
          "internalType": "string",
          "name": "twitterAccount",
          "type": "string"
        }
      ],
      "name": "Customize",
      "outputs": [],
      "stateMutability": "nonpayable",
      "type": "function"
    },
    {
      "inputs": [],
      "name": "DEVELOPMENT_VAULT_SHARE",
      "outputs": [
        {
          "internalType": "uint256",
          "name": "",
          "type": "uint256"
        }
      ],
      "stateMutability": "view",
      "type": "function"
    },
    {
      "inputs": [],
      "name": "Election",
      "outputs": [],
      "stateMutability": "nonpayable",
      "type": "function"
    },
    {
      "inputs": [],
      "name": "ElectionThreshold",
      "outputs": [
        {
          "internalType": "uint256",
          "name": "",
          "type": "uint256"
        }
      ],
      "stateMutability": "view",
      "type": "function"
    },
    {
      "inputs": [],
      "name": "FOUNDER_SHARE",
      "outputs": [
        {
          "internalType": "uint256",
          "name": "",
          "type": "uint256"
        }
      ],
      "stateMutability": "view",
      "type": "function"
    },
    {
      "inputs": [
        {
          "internalType": "uint256",
          "name": "year",
          "type": "uint256"
        },
        {
          "internalType": "uint256",
          "name": "month",
          "type": "uint256"
        },
        {
          "internalType": "uint256",
          "name": "day",
          "type": "uint256"
        }
      ],
      "name": "GetHolderOfTheDay",
      "outputs": [
        {
          "internalType": "address",
          "name": "",
          "type": "address"
        }
      ],
      "stateMutability": "view",
      "type": "function"
    },
    {
      "inputs": [
        {
          "internalType": "uint256",
          "name": "year",
          "type": "uint256"
        },
        {
          "internalType": "uint256",
          "name": "month",
          "type": "uint256"
        },
        {
          "internalType": "uint256",
          "name": "day",
          "type": "uint256"
        }
      ],
      "name": "GetIdByDate",
      "outputs": [
        {
          "internalType": "uint256",
          "name": "",
          "type": "uint256"
        }
      ],
      "stateMutability": "pure",
      "type": "function"
    },
    {
      "inputs": [],
      "name": "GetMemorizeFee",
      "outputs": [
        {
          "internalType": "uint256",
          "name": "",
          "type": "uint256"
        }
      ],
      "stateMutability": "view",
      "type": "function"
    },
    {
      "inputs": [],
      "name": "GetMintedDaysLength",
      "outputs": [
        {
          "internalType": "uint256",
          "name": "",
          "type": "uint256"
        }
      ],
      "stateMutability": "view",
      "type": "function"
    },
    {
      "inputs": [],
      "name": "GetPeriodicAirdropRegistersLength",
      "outputs": [
        {
          "internalType": "uint256",
          "name": "",
          "type": "uint256"
        }
      ],
      "stateMutability": "view",
      "type": "function"
    },
    {
      "inputs": [
        {
          "internalType": "uint256",
          "name": "year",
          "type": "uint256"
        },
        {
          "internalType": "uint256",
          "name": "month",
          "type": "uint256"
        },
        {
          "internalType": "uint256",
          "name": "day",
          "type": "uint256"
        }
      ],
      "name": "Like",
      "outputs": [],
      "stateMutability": "nonpayable",
      "type": "function"
    },
    {
      "inputs": [],
      "name": "METADATAFORGER_VAULT_SHARE",
      "outputs": [
        {
          "internalType": "uint256",
          "name": "",
          "type": "uint256"
        }
      ],
      "stateMutability": "view",
      "type": "function"
    },
    {
      "inputs": [
        {
          "internalType": "uint256",
          "name": "year",
          "type": "uint256"
        },
        {
          "internalType": "uint256",
          "name": "month",
          "type": "uint256"
        },
        {
          "internalType": "uint256",
          "name": "day",
          "type": "uint256"
        },
        {
          "internalType": "address",
          "name": "giftTo",
          "type": "address"
        }
      ],
      "name": "Memorize",
      "outputs": [],
      "stateMutability": "payable",
      "type": "function"
    },
    {
      "inputs": [],
      "name": "MemorizedDays",
      "outputs": [
        {
          "internalType": "uint256[]",
          "name": "",
          "type": "uint256[]"
        },
        {
          "internalType": "address[]",
          "name": "",
          "type": "address[]"
        }
      ],
      "stateMutability": "view",
      "type": "function"
    },
    {
      "inputs": [],
      "name": "PauseContract",
      "outputs": [],
      "stateMutability": "nonpayable",
      "type": "function"
    },
    {
      "inputs": [],
      "name": "RegisterForPeriodiclyAirdrop",
      "outputs": [],
      "stateMutability": "nonpayable",
      "type": "function"
    },
    {
      "inputs": [
        {
          "internalType": "string",
          "name": "title",
          "type": "string"
        },
        {
          "internalType": "string",
          "name": "url",
          "type": "string"
        },
        {
          "internalType": "string",
          "name": "imageurl",
          "type": "string"
        },
        {
          "internalType": "string",
          "name": "twitter",
          "type": "string"
        }
      ],
      "name": "RequestSponsorship",
      "outputs": [],
      "stateMutability": "payable",
      "type": "function"
    },
    {
      "inputs": [],
      "name": "SelectPeriodicWinner",
      "outputs": [],
      "stateMutability": "nonpayable",
      "type": "function"
    },
    {
      "inputs": [
        {
          "internalType": "address",
          "name": "targetAirdrop",
          "type": "address"
        }
      ],
      "name": "SendAirdrop",
      "outputs": [],
      "stateMutability": "nonpayable",
      "type": "function"
    },
    {
      "inputs": [
        {
          "internalType": "address",
          "name": "addrs",
          "type": "address"
        },
        {
          "internalType": "uint256",
          "name": "wallet",
          "type": "uint256"
        }
      ],
      "name": "SetAddress",
      "outputs": [],
      "stateMutability": "nonpayable",
      "type": "function"
    },
    {
      "inputs": [
        {
          "internalType": "uint256",
          "name": "fee",
          "type": "uint256"
        },
        {
          "internalType": "string",
          "name": "url",
          "type": "string"
        }
      ],
      "name": "UpdateConfig",
      "outputs": [],
      "stateMutability": "nonpayable",
      "type": "function"
    },
    {
      "inputs": [
        {
          "internalType": "uint256",
          "name": "newPrice",
          "type": "uint256"
        },
        {
          "internalType": "uint256",
          "name": "newPriceStep",
          "type": "uint256"
        }
      ],
      "name": "UpdateMintPrice",
      "outputs": [],
      "stateMutability": "nonpayable",
      "type": "function"
    },
    {
      "inputs": [],
      "name": "VAULT_1_SHARE",
      "outputs": [
        {
          "internalType": "uint256",
          "name": "",
          "type": "uint256"
        }
      ],
      "stateMutability": "view",
      "type": "function"
    },
    {
      "inputs": [],
      "name": "VAULT_2_SHARE",
      "outputs": [
        {
          "internalType": "uint256",
          "name": "",
          "type": "uint256"
        }
      ],
      "stateMutability": "view",
      "type": "function"
    },
    {
      "inputs": [
        {
          "internalType": "uint256",
          "name": "year",
          "type": "uint256"
        },
        {
          "internalType": "uint256",
          "name": "month",
          "type": "uint256"
        },
        {
          "internalType": "uint256",
          "name": "day",
          "type": "uint256"
        },
        {
          "internalType": "uint256",
          "name": "ambassadoryear",
          "type": "uint256"
        },
        {
          "internalType": "uint256",
          "name": "ambassadormonth",
          "type": "uint256"
        },
        {
          "internalType": "uint256",
          "name": "ambassadorday",
          "type": "uint256"
        },
        {
          "internalType": "enum MemorizeThisDay.VAULT_ACTION[]",
          "name": "action",
          "type": "uint8[]"
        }
      ],
      "name": "Vote",
      "outputs": [],
      "stateMutability": "nonpayable",
      "type": "function"
    },
    {
      "inputs": [
        {
          "internalType": "uint256",
          "name": "year",
          "type": "uint256"
        },
        {
          "internalType": "uint256",
          "name": "month",
          "type": "uint256"
        },
        {
          "internalType": "uint256",
          "name": "day",
          "type": "uint256"
        }
      ],
      "name": "VotePower",
      "outputs": [
        {
          "internalType": "uint256",
          "name": "",
          "type": "uint256"
        }
      ],
      "stateMutability": "view",
      "type": "function"
    },
    {
      "inputs": [],
      "name": "Withdrawal",
      "outputs": [],
      "stateMutability": "nonpayable",
      "type": "function"
    },
    {
      "inputs": [
        {
          "internalType": "address",
          "name": "",
          "type": "address"
        }
      ],
      "name": "_InitialElders",
      "outputs": [
        {
          "internalType": "bool",
          "name": "",
          "type": "bool"
        }
      ],
      "stateMutability": "view",
      "type": "function"
    },
    {
      "inputs": [],
      "name": "_UrlStartWith",
      "outputs": [
        {
          "internalType": "string",
          "name": "",
          "type": "string"
        }
      ],
      "stateMutability": "view",
      "type": "function"
    },
    {
      "inputs": [
        {
          "internalType": "uint256",
          "name": "",
          "type": "uint256"
        },
        {
          "internalType": "uint256",
          "name": "",
          "type": "uint256"
        }
      ],
      "name": "_Votes",
      "outputs": [
        {
          "internalType": "enum MemorizeThisDay.VAULT_ACTION",
          "name": "",
          "type": "uint8"
        }
      ],
      "stateMutability": "view",
      "type": "function"
    },
    {
      "inputs": [
        {
          "internalType": "uint256",
          "name": "",
          "type": "uint256"
        },
        {
          "internalType": "enum MemorizeThisDay.VAULT_ACTION",
          "name": "",
          "type": "uint8"
        }
      ],
      "name": "_VotesAggregate",
      "outputs": [
        {
          "internalType": "uint256",
          "name": "",
          "type": "uint256"
        }
      ],
      "stateMutability": "view",
      "type": "function"
    },
    {
      "inputs": [
        {
          "internalType": "address",
          "name": "",
          "type": "address"
        }
      ],
      "name": "_airdrop",
      "outputs": [
        {
          "internalType": "uint256",
          "name": "",
          "type": "uint256"
        }
      ],
      "stateMutability": "view",
      "type": "function"
    },
    {
      "inputs": [],
      "name": "_airdropPeriodInDays",
      "outputs": [
        {
          "internalType": "uint256",
          "name": "",
          "type": "uint256"
        }
      ],
      "stateMutability": "view",
      "type": "function"
    },
    {
      "inputs": [
        {
          "internalType": "address",
          "name": "",
          "type": "address"
        }
      ],
      "name": "_alias",
      "outputs": [
        {
          "internalType": "string",
          "name": "",
          "type": "string"
        }
      ],
      "stateMutability": "view",
      "type": "function"
    },
    {
      "inputs": [
        {
          "internalType": "uint256",
          "name": "",
          "type": "uint256"
        }
      ],
      "name": "_ambasaddorVotes",
      "outputs": [
        {
          "internalType": "address",
          "name": "",
          "type": "address"
        }
      ],
      "stateMutability": "view",
      "type": "function"
    },
    {
      "inputs": [],
      "name": "_ambassador",
      "outputs": [
        {
          "internalType": "address",
          "name": "",
          "type": "address"
        }
      ],
      "stateMutability": "view",
      "type": "function"
    },
    {
      "inputs": [],
      "name": "_ambassadorDay",
      "outputs": [
        {
          "internalType": "uint256",
          "name": "",
          "type": "uint256"
        }
      ],
      "stateMutability": "view",
      "type": "function"
    },
    {
      "inputs": [
        {
          "internalType": "address",
          "name": "",
          "type": "address"
        }
      ],
      "name": "_ambassadorVotesAggregate",
      "outputs": [
        {
          "internalType": "uint256",
          "name": "",
          "type": "uint256"
        }
      ],
      "stateMutability": "view",
      "type": "function"
    },
    {
      "inputs": [],
      "name": "_assetName",
      "outputs": [
        {
          "internalType": "string",
          "name": "",
          "type": "string"
        }
      ],
      "stateMutability": "view",
      "type": "function"
    },
    {
      "inputs": [],
      "name": "_chainlinkFee",
      "outputs": [
        {
          "internalType": "uint256",
          "name": "",
          "type": "uint256"
        }
      ],
      "stateMutability": "view",
      "type": "function"
    },
    {
      "inputs": [
        {
          "internalType": "uint256",
          "name": "",
          "type": "uint256"
        }
      ],
      "name": "_elders",
      "outputs": [
        {
          "internalType": "bool",
          "name": "",
          "type": "bool"
        }
      ],
      "stateMutability": "view",
      "type": "function"
    },
    {
      "inputs": [
        {
          "internalType": "uint256",
          "name": "",
          "type": "uint256"
        }
      ],
      "name": "_eldersAddress",
      "outputs": [
        {
          "internalType": "address",
          "name": "",
          "type": "address"
        }
      ],
      "stateMutability": "view",
      "type": "function"
    },
    {
      "inputs": [
        {
          "internalType": "uint256",
          "name": "",
          "type": "uint256"
        }
      ],
      "name": "_eldersIndex",
      "outputs": [
        {
          "internalType": "uint256",
          "name": "",
          "type": "uint256"
        }
      ],
      "stateMutability": "view",
      "type": "function"
    },
    {
      "inputs": [],
      "name": "_eldersRemaining",
      "outputs": [
        {
          "internalType": "uint256",
          "name": "",
          "type": "uint256"
        }
      ],
      "stateMutability": "view",
      "type": "function"
    },
    {
      "inputs": [],
      "name": "_electoralAirdropPeriodInDays",
      "outputs": [
        {
          "internalType": "uint256",
          "name": "",
          "type": "uint256"
        }
      ],
      "stateMutability": "view",
      "type": "function"
    },
    {
      "inputs": [],
      "name": "_founderAddress",
      "outputs": [
        {
          "internalType": "address",
          "name": "",
          "type": "address"
        }
      ],
      "stateMutability": "view",
      "type": "function"
    },
    {
      "inputs": [
        {
          "internalType": "uint256",
          "name": "",
          "type": "uint256"
        }
      ],
      "name": "_holders",
      "outputs": [
        {
          "internalType": "address",
          "name": "",
          "type": "address"
        }
      ],
      "stateMutability": "view",
      "type": "function"
    },
    {
      "inputs": [
        {
          "internalType": "uint256",
          "name": "",
          "type": "uint256"
        }
      ],
      "name": "_imageMemo",
      "outputs": [
        {
          "internalType": "string",
          "name": "",
          "type": "string"
        }
      ],
      "stateMutability": "view",
      "type": "function"
    },
    {
      "inputs": [],
      "name": "_initialPrice",
      "outputs": [
        {
          "internalType": "uint256",
          "name": "",
          "type": "uint256"
        }
      ],
      "stateMutability": "view",
      "type": "function"
    },
    {
      "inputs": [],
      "name": "_invitePeriod",
      "outputs": [
        {
          "internalType": "bool",
          "name": "",
          "type": "bool"
        }
      ],
      "stateMutability": "view",
      "type": "function"
    },
    {
      "inputs": [],
      "name": "_isSponsorshipAccepted",
      "outputs": [
        {
          "internalType": "bool",
          "name": "",
          "type": "bool"
        }
      ],
      "stateMutability": "view",
      "type": "function"
    },
    {
      "inputs": [],
      "name": "_lastAirdropPeriodWinnerSelectDate",
      "outputs": [
        {
          "internalType": "uint256",
          "name": "",
          "type": "uint256"
        }
      ],
      "stateMutability": "view",
      "type": "function"
    },
    {
      "inputs": [],
      "name": "_lastElectionDate",
      "outputs": [
        {
          "internalType": "uint256",
          "name": "",
          "type": "uint256"
        }
      ],
      "stateMutability": "view",
      "type": "function"
    },
    {
      "inputs": [],
      "name": "_lastElectoralAirdropDate",
      "outputs": [
        {
          "internalType": "uint256",
          "name": "",
          "type": "uint256"
        }
      ],
      "stateMutability": "view",
      "type": "function"
    },
    {
      "inputs": [],
      "name": "_lastLotteryWinner",
      "outputs": [
        {
          "internalType": "address",
          "name": "",
          "type": "address"
        }
      ],
      "stateMutability": "view",
      "type": "function"
    },
    {
      "inputs": [],
      "name": "_lastMemorizeDate",
      "outputs": [
        {
          "internalType": "uint256",
          "name": "",
          "type": "uint256"
        }
      ],
      "stateMutability": "view",
      "type": "function"
    },
    {
      "inputs": [
        {
          "internalType": "uint256",
          "name": "",
          "type": "uint256"
        }
      ],
      "name": "_likes",
      "outputs": [
        {
          "internalType": "uint256",
          "name": "",
          "type": "uint256"
        }
      ],
      "stateMutability": "view",
      "type": "function"
    },
    {
      "inputs": [
        {
          "internalType": "uint256",
          "name": "",
          "type": "uint256"
        }
      ],
      "name": "_memo",
      "outputs": [
        {
          "internalType": "string",
          "name": "",
          "type": "string"
        }
      ],
      "stateMutability": "view",
      "type": "function"
    },
    {
      "inputs": [],
      "name": "_metadataForgerAddress",
      "outputs": [
        {
          "internalType": "address",
          "name": "",
          "type": "address"
        }
      ],
      "stateMutability": "view",
      "type": "function"
    },
    {
      "inputs": [],
      "name": "_mintPrice",
      "outputs": [
        {
          "internalType": "uint256",
          "name": "",
          "type": "uint256"
        }
      ],
      "stateMutability": "view",
      "type": "function"
    },
    {
      "inputs": [],
      "name": "_mintPriceStep",
      "outputs": [
        {
          "internalType": "uint256",
          "name": "",
          "type": "uint256"
        }
      ],
      "stateMutability": "view",
      "type": "function"
    },
    {
      "inputs": [
        {
          "internalType": "uint256",
          "name": "",
          "type": "uint256"
        }
      ],
      "name": "_mintedDays",
      "outputs": [
        {
          "internalType": "uint256",
          "name": "",
          "type": "uint256"
        }
      ],
      "stateMutability": "view",
      "type": "function"
    },
    {
      "inputs": [],
      "name": "_nextAmbassador",
      "outputs": [
        {
          "internalType": "address",
          "name": "",
          "type": "address"
        }
      ],
      "stateMutability": "view",
      "type": "function"
    },
    {
      "inputs": [],
      "name": "_nextAmbassadorDay",
      "outputs": [
        {
          "internalType": "uint256",
          "name": "",
          "type": "uint256"
        }
      ],
      "stateMutability": "view",
      "type": "function"
    },
    {
      "inputs": [
        {
          "internalType": "uint256",
          "name": "",
          "type": "uint256"
        }
      ],
      "name": "_periodicAirdropRegisters",
      "outputs": [
        {
          "internalType": "address",
          "name": "",
          "type": "address"
        }
      ],
      "stateMutability": "view",
      "type": "function"
    },
    {
      "inputs": [],
      "name": "_sponsorAddress",
      "outputs": [
        {
          "internalType": "address",
          "name": "",
          "type": "address"
        }
      ],
      "stateMutability": "view",
      "type": "function"
    },
    {
      "inputs": [],
      "name": "_sponsorImage",
      "outputs": [
        {
          "internalType": "string",
          "name": "",
          "type": "string"
        }
      ],
      "stateMutability": "view",
      "type": "function"
    },
    {
      "inputs": [],
      "name": "_sponsorShipLockUntil",
      "outputs": [
        {
          "internalType": "uint256",
          "name": "",
          "type": "uint256"
        }
      ],
      "stateMutability": "view",
      "type": "function"
    },
    {
      "inputs": [],
      "name": "_sponsorTitle",
      "outputs": [
        {
          "internalType": "string",
          "name": "",
          "type": "string"
        }
      ],
      "stateMutability": "view",
      "type": "function"
    },
    {
      "inputs": [],
      "name": "_sponsorTwitter",
      "outputs": [
        {
          "internalType": "string",
          "name": "",
          "type": "string"
        }
      ],
      "stateMutability": "view",
      "type": "function"
    },
    {
      "inputs": [],
      "name": "_sponsorURL",
      "outputs": [
        {
          "internalType": "string",
          "name": "",
          "type": "string"
        }
      ],
      "stateMutability": "view",
      "type": "function"
    },
    {
      "inputs": [],
      "name": "_startDate",
      "outputs": [
        {
          "internalType": "uint256",
          "name": "",
          "type": "uint256"
        }
      ],
      "stateMutability": "view",
      "type": "function"
    },
    {
      "inputs": [
        {
          "internalType": "uint256",
          "name": "",
          "type": "uint256"
        }
      ],
      "name": "_twitterAccount",
      "outputs": [
        {
          "internalType": "string",
          "name": "",
          "type": "string"
        }
      ],
      "stateMutability": "view",
      "type": "function"
    },
    {
      "inputs": [
        {
          "internalType": "uint256",
          "name": "",
          "type": "uint256"
        }
      ],
      "name": "_vaultsAddress",
      "outputs": [
        {
          "internalType": "address",
          "name": "",
          "type": "address"
        }
      ],
      "stateMutability": "view",
      "type": "function"
    },
    {
      "inputs": [
        {
          "internalType": "address",
          "name": "",
          "type": "address"
        }
      ],
      "name": "_wallet",
      "outputs": [
        {
          "internalType": "uint256",
          "name": "",
          "type": "uint256"
        }
      ],
      "stateMutability": "view",
      "type": "function"
    },
    {
      "inputs": [
        {
          "internalType": "address",
          "name": "account",
          "type": "address"
        },
        {
          "internalType": "uint256",
          "name": "id",
          "type": "uint256"
        }
      ],
      "name": "balanceOf",
      "outputs": [
        {
          "internalType": "uint256",
          "name": "",
          "type": "uint256"
        }
      ],
      "stateMutability": "view",
      "type": "function"
    },
    {
      "inputs": [
        {
          "internalType": "address[]",
          "name": "accounts",
          "type": "address[]"
        },
        {
          "internalType": "uint256[]",
          "name": "ids",
          "type": "uint256[]"
        }
      ],
      "name": "balanceOfBatch",
      "outputs": [
        {
          "internalType": "uint256[]",
          "name": "",
          "type": "uint256[]"
        }
      ],
      "stateMutability": "view",
      "type": "function"
    },
    {
      "inputs": [
        {
          "internalType": "address",
          "name": "account",
          "type": "address"
        },
        {
          "internalType": "address",
          "name": "operator",
          "type": "address"
        }
      ],
      "name": "isApprovedForAll",
      "outputs": [
        {
          "internalType": "bool",
          "name": "",
          "type": "bool"
        }
      ],
      "stateMutability": "view",
      "type": "function"
    },
    {
      "inputs": [
        {
          "internalType": "uint256",
          "name": "a",
          "type": "uint256"
        },
        {
          "internalType": "uint256",
          "name": "b",
          "type": "uint256"
        }
      ],
      "name": "max",
      "outputs": [
        {
          "internalType": "uint256",
          "name": "",
          "type": "uint256"
        }
      ],
      "stateMutability": "pure",
      "type": "function"
    },
    {
      "inputs": [],
      "name": "owner",
      "outputs": [
        {
          "internalType": "address",
          "name": "",
          "type": "address"
        }
      ],
      "stateMutability": "view",
      "type": "function"
    },
    {
      "inputs": [],
      "name": "paused",
      "outputs": [
        {
          "internalType": "bool",
          "name": "",
          "type": "bool"
        }
      ],
      "stateMutability": "view",
      "type": "function"
    },
    {
      "inputs": [
        {
          "internalType": "bytes32",
          "name": "requestId",
          "type": "bytes32"
        },
        {
          "internalType": "uint256",
          "name": "randomness",
          "type": "uint256"
        }
      ],
      "name": "rawFulfillRandomness",
      "outputs": [],
      "stateMutability": "nonpayable",
      "type": "function"
    },
    {
      "inputs": [],
      "name": "renounceOwnership",
      "outputs": [],
      "stateMutability": "nonpayable",
      "type": "function"
    },
    {
      "inputs": [
        {
          "internalType": "address",
          "name": "from",
          "type": "address"
        },
        {
          "internalType": "address",
          "name": "to",
          "type": "address"
        },
        {
          "internalType": "uint256[]",
          "name": "ids",
          "type": "uint256[]"
        },
        {
          "internalType": "uint256[]",
          "name": "amounts",
          "type": "uint256[]"
        },
        {
          "internalType": "bytes",
          "name": "data",
          "type": "bytes"
        }
      ],
      "name": "safeBatchTransferFrom",
      "outputs": [],
      "stateMutability": "nonpayable",
      "type": "function"
    },
    {
      "inputs": [
        {
          "internalType": "address",
          "name": "from",
          "type": "address"
        },
        {
          "internalType": "address",
          "name": "to",
          "type": "address"
        },
        {
          "internalType": "uint256",
          "name": "id",
          "type": "uint256"
        },
        {
          "internalType": "uint256",
          "name": "amount",
          "type": "uint256"
        },
        {
          "internalType": "bytes",
          "name": "data",
          "type": "bytes"
        }
      ],
      "name": "safeTransferFrom",
      "outputs": [],
      "stateMutability": "nonpayable",
      "type": "function"
    },
    {
      "inputs": [
        {
          "internalType": "address",
          "name": "operator",
          "type": "address"
        },
        {
          "internalType": "bool",
          "name": "approved",
          "type": "bool"
        }
      ],
      "name": "setApprovalForAll",
      "outputs": [],
      "stateMutability": "nonpayable",
      "type": "function"
    },
    {
      "inputs": [
        {
          "internalType": "bytes4",
          "name": "interfaceId",
          "type": "bytes4"
        }
      ],
      "name": "supportsInterface",
      "outputs": [
        {
          "internalType": "bool",
          "name": "",
          "type": "bool"
        }
      ],
      "stateMutability": "view",
      "type": "function"
    },
    {
      "inputs": [
        {
          "internalType": "address",
          "name": "newOwner",
          "type": "address"
        }
      ],
      "name": "transferOwnership",
      "outputs": [],
      "stateMutability": "nonpayable",
      "type": "function"
    },
    {
      "inputs": [
        {
          "internalType": "uint256",
          "name": "",
          "type": "uint256"
        }
      ],
      "name": "uri",
      "outputs": [
        {
          "internalType": "string",
          "name": "",
          "type": "string"
        }
      ],
      "stateMutability": "view",
      "type": "function"
    }
  ],
  "bytecode": "610120604052602260c0818152906200850c60e03980516200002a9160059160209091019062001ec3565b506000600d819055600e805460ff191660011790556103e8600f55601080546001600160a81b031916905560408051602081019182905282905262000073916011919062001ec3565b50604080516020810191829052600090819052620000949160129162001ec3565b50604080516020810191829052600090819052620000b59160139162001ec3565b50604080516020810191829052600090819052620000d69160149162001ec3565b5060006015556000601655600060175560076019556007601a55348015620000fd57600080fd5b506040516200852e3803806200852e833981016040819052620001209162001f86565b60405180604001604052806004815260200163446f676560e01b815250604051806060016040528060308152602001620084dc60309139604689898989896107e1600b600d87878b620001738162000b72565b506003805460ff19169055620001893362000b8b565b6001600160a01b0391821660a05216608052620001af89670de0b6b3a76400006200201f565b6016819055601755670de0b6b3a7640000600d5560218690556022859055620001e642600862000be5602090811b62003dfc17901c565b601b819055506200020442600862000be560201b62003dfc1760201c565b601c819055506200022242601e62000be560201b62003dfc1760201c565b601f558a516200023a90600c9060208e019062001ec3565b506026805460016001600160a01b0319918216179091556027805460029083161790556028805460039083161790556029805460049083161790556007805482169055600b80549091166001600160a01b038616179055620002aa83838362000c18602090811b62003e2417901c565b601d81905560155550620002ce99508a9850600097505062000c3f95505050505050565b620002db82600162000c3f565b6001600160a01b0381166000908152602b60205260409020602d9055620003096107e1600b600d8562000d33565b6200031b6107e1600b600e8562000d33565b6200032d6107e1600b600f8562000d33565b6200033f6107e1600b60108562000d33565b620003516107e1600b60118562000d33565b620003636107e1600b60128562000d33565b620003756107e1600b60138562000d33565b620003876107e1600b60148562000d33565b620003996107e1600b60158562000d33565b620003ab6107e1600b60168562000d33565b620003bd6107e1600b60178462000d33565b620003cf6107e1600b60188462000d33565b620003e16107e1600b60198462000d33565b620003f36107e1600b601a8462000d33565b620004056107e1600b601b8462000d33565b6200042b6107e1600c60017351eac3daa1c34f5c2874aa62097ac9965a180b6d62000d33565b620004516107e1600c6002738836c14dc2b96123f132cb419b212c46247dde4162000d33565b620004776107e1600c60037313ddf16f41f9a634eaca69be176773fe5c629c1e62000d33565b6200049c6107e1600c600472e7b17287365f3bc59085ff5f3f56eaf1225a0d62000d33565b620004c26107e1600c60057371b9df21780ccec1bc19a4c50564f6741f692cdc62000d33565b620004e86107e1600c6006736ccd607e6e2cc97574acd5ab0f2b4d24c7f2a06162000d33565b6200050e6107e1600c60077351eac3daa1c34f5c2874aa62097ac9965a180b6d62000d33565b620005346107e1600c600873b907e8d3f9ab2a94d476421fb2e6a68fd516a90c62000d33565b6200055a6107e1600c60097367954ac510255b6b3724073022196b67bdf260b662000d33565b620005806107e1600c600a7367954ac510255b6b3724073022196b67bdf260b662000d33565b620005a66107e1600c600b73b7f7f6c52f2e2fdb1963eab30438024864c313f662000d33565b620005cb6107e1600c80736ccd607e6e2cc97574acd5ab0f2b4d24c7f2a06162000d33565b620005f16107e1600c600d736ccd607e6e2cc97574acd5ab0f2b4d24c7f2a06162000d33565b620006176107e1600c600e73484c6dcd50978b9d525cc20a02d5801f492931f862000d33565b6200063d6107e1600c600f73027750420d3f4dd56f558871792b1632a21c620562000d33565b620006636107e1600c601073e6ddcc4bfc2876cc71912a0dd04b4318a2f1017d62000d33565b620006896107e1600c60117308a9ead5bd9af49a1f777a9f15929871abd684c362000d33565b620006af6107e1600c60127308a9ead5bd9af49a1f777a9f15929871abd684c362000d33565b620006d56107e1600c601373e920ba2d30e812fcb02004b0253ebe168c623c6662000d33565b620006fb6107e1600c601473534a0076fb7c2b1f83fa21497429ad7ad3bd758762000d33565b620007216107e1600c601573269616d549d7e8eaa82dfb17028d0b212d11232a62000d33565b620007476107e1600c6016733924b7681c6110fcd3628164388c3307f79d105962000d33565b6200076d6107e1600c601773a9d748a28a713ecc751de04fee994f3bc1f19eb762000d33565b620007936107e1600c60187348d9d0eabc945aa513a52d71e0ea4047b2c33ce462000d33565b620007b96107e1600c601973232968098ec98dabc4a8a8fa9eb39a766651600662000d33565b620007df6107e1600c601a73f3b0f4411c77c60a132003dbc01d58fe137b75ae62000d33565b620008056107e1600c601b736639c089adfba8bb9968da643c6be208a70d6daa62000d33565b6200082b6107e1600c601c73d6f487c29be27daec9b4c44aa37d5e0902266a5b62000d33565b620008516107e1600c601d73484c6dcd50978b9d525cc20a02d5801f492931f862000d33565b620008776107e1600c601e73a9d9df8013b7cf2bce0dd5ed8f34f468cdddf28a62000d33565b5050602b602052505060017f114cf1de3b545c2054aa9a1934d341c203c648ae6259e6e6c7a09ce1cd84533b8190557f37a96303725cc9d797018c02e9e4e432a9b8d9d0f945547ba4947551398387848190557f485261843f5520661a8eb17e106942776713220f1582985f57b227b216f548ed8190557f8934fb16ba929a71780f6ca661e23c82e2d140c1932532f2fe95b59ee917e3fd8190557f53f0df93bf2b3cb9b617245090fb0c774d7696a5f6b415a1159c886d5603511c8190557fec94769d90e00309f3962bcb120ccde8ebb55492fb9ee489651bea204cac04498190557fe83d9524d432823ad8ef1f4b30716ab0d45f568c3ef7750b0dabbc573bb6428c8190557f4b7cf885f6b1ef2fb26b720476947d302957f0a7e2c64298180abd789b1fb6bc8190557fef8a93bdc10dc69adc20f3f9d45ca178417398eb7dc9c4c2aa80c3e8da1d1c6f8190557f8919282618369255cbcd190439c0cdb4696a7745d70955d2f535651f674cc11c8190557fcdad100e52fc7d3969d04fc22e5600da8ae5290d5d8c74aba1bf0ff0e57d12f68190557f85271ed171896a81860a1f771ffd90983e9750faf985e03d4ad9a5abf8a4bffe8190557f1c989731dd3affb403ff1a024d17d4c73260063540d6a022eed682dd6653e4f98190557f024bfa1356e14656de85162315b9a3bc3556d997f2b1ff947fa8c94bab295cc68190557f5663684408ef4143177410401c58a168a6e3d791e937294252167ad49b2510938190557f0feda2d8dc1204914134a524946f89524c5fc5b9ac9a379a51f93e374ce91c648190557f884e20e51321981e3b3645fb67f3f85b7ca77e249b7d05aae51e1424bc47232b8190557fc10761ace710b904842dcab5a9d9fc3ac4c5b98a68b614b6f488173b717491838190557f77bfaa184e8637ff5777ce28186fc35bca0d5ec9e0263d363a17b64f3f05fd7b81905573ea54e8c4db742a7bd8adc8bcf4e78716bacc74846000527fd1f018521b4f1c40e09566492ecc0c12de8320e5375a72acfa3aa094175876b65550620024af915050565b805162000b8790600290602084019062001ec3565b5050565b600380546001600160a01b03838116610100818102610100600160a81b031985161790945560405193909204169182907f8be0079c531659141344cd1fd0a4f28419497f9722a3daafe3b4186f6b6457e090600090a35050565b600062000bf662015180836200201f565b62000c02908462002057565b90508281111562000c1257600080fd5b92915050565b60006201518062000c2b8585856200159c565b62000c3791906200201f565b949350505050565b6003546001600160a01b0361010090910416331462000ca55760405162461bcd60e51b815260206004820181905260248201527f4f776e61626c653a2063616c6c6572206973206e6f7420746865206f776e657260448201526064015b60405180910390fd5b8062000cef57602480546001600160a01b038481166001600160a01b031983168117909355166000818152602a602052604080822080549483529082209390935590815290555050565b602380546001600160a01b038481166001600160a01b031983168117909355166000818152602a602052604080822080549483529082209390935590815290555050565b60035460ff161562000d7b5760405162461bcd60e51b815260206004820152601060248201526f14185d5cd8589b194e881c185d5cd95960821b604482015260640162000c9c565b82158062000d895750600c83115b1562000dbd5760405162461bcd60e51b8152602060048201526002602482015261653360f01b604482015260640162000c9c565b81158062000dcb5750601f82115b1562000dff5760405162461bcd60e51b8152602060048201526002602482015261194d60f21b604482015260640162000c9c565b826004148062000e0f5750826006145b8062000e1b5750826009145b8062000e27575082600b145b801562000e345750601e82115b8062000e6a575082600214801562000e5d575062000e5d846200170c60201b62003e3f1760201c565b801562000e6a5750601d82115b8062000ea2575082600214801562000e95575062000e93846200170c60201b62003e3f1760201c565b155b801562000ea25750601c82115b1562000ecc576040516324e2ba2160e11b8152600481018490526024810183905260440162000c9c565b600062000ee685858562000c1860201b62003e241760201c565b905042811115801562000efb5750601d548110155b62000f2e5760405162461bcd60e51b8152602060048201526002602482015261653560f01b604482015260640162000c9c565b6000818152602c60205260409020546001600160a01b03161562000f7a5760405162461bcd60e51b8152602060048201526002602482015261329b60f11b604482015260640162000c9c565b6001600160a01b03821662000f8d573391505b600e5460009060ff16801562000fb35750336000908152602f602052604090205460ff16155b1562000fe157336000908152602b6020526040812080546001929062000fdb90849062002071565b90915550505b336000908152602b602052604090205415620010ee5750336000908152602b60205260409020546001906200101890829062002057565b336000908152602b6020526040902055600f5415620010ee576001600f5462001042919062002057565b600f556000828152602e602090815260408083208054600160ff19918216811790925533808652602f90945291842080549092168117909155603180548083018255938190527fc54045fa7c6ec765e825df7f9e9bf9dec12c5cef146f93a5eee56772ee647fbc90930180546001600160a01b0319169092179091559054620010cc919062002057565b600083815260306020526040902055600f54620010ee57600e805460ff191690555b80620013ec57620010fe62001750565b341015620011345760405162461bcd60e51b8152602060048201526002602482015261653760f01b604482015260640162000c9c565b60006064620011456005346200201f565b620011519190620020a2565b6024546001600160a01b03166000908152602a60205260409020549091506200117c90829062002071565b6024546001600160a01b03166000908152602a60205260408120919091556064620011a96005346200201f565b620011b59190620020a2565b6007549091506001600160a01b031662001212576023546001600160a01b03166000908152602a6020526040902054620011f190829062002071565b6023546001600160a01b03166000908152602a602052604090205562001256565b6007546001600160a01b03166000908152602a60205260409020546200123a90829062002071565b6007546001600160a01b03166000908152602a60205260409020555b60006064620012676005346200201f565b620012739190620020a2565b6023546001600160a01b03166000908152602a60205260409020549091506200129e90829062002071565b6023546001600160a01b03166000908152602a60205260408120919091556064620012cb6019346200201f565b620012d79190620020a2565b6029546001600160a01b03166000908152602a60205260409020549091506200130290829062002071565b6029546001600160a01b03166000908152602a602052604081209190915560646200132f601e346200201f565b6200133b9190620020a2565b6026546001600160a01b03166000908152602a60205260409020549091506200136690829062002071565b6026546001600160a01b03166000908152602a6020526040812091909155606462001393601e346200201f565b6200139f9190620020a2565b6027546001600160a01b03166000908152602a6020526040902054909150620013ca90829062002071565b6027546001600160a01b03166000908152602a60205260409020555050505050505b6200141083836001604051806020016040528060008152506200180f60201b60201c565b60208054600180820183557fc97bfaf2f8ee708c303a06d134f5ecd8389ae0432af62dc132a24118292866bb9091018490556000848152602c909252604090912080546001600160a01b0319166001600160a01b03861617905542601e555b600381116200152b576000838152602e602052604090205460ff16158015620014985750806003145b15620014a45762001516565b620014b187878762001932565b6000828152603a6020908152604080832060038452909152902054620014d8919062002071565b6000828152603a60209081526040808320600380855290835281842094909455848352603982528083208784529091529020805460ff191690911790555b806200152281620020b9565b9150506200146f565b50806200154857600d5460165462001544919062002071565b6016555b60408051878152602081018790529081018590526001600160a01b038416907fa51e9b2ef1f037dee551eb226d6d1581c8fb0e0243820ebd1fbb41a13e6c23649060600160405180910390a2505050505050565b60006107b2841015620015ae57600080fd5b838383600062253d8c60046064600c620015ca600e88620020d7565b620015d691906200211c565b620015e48861132462002150565b620015f0919062002150565b620015fc91906200211c565b6200160990600362002197565b6200161591906200211c565b600c8062001625600e88620020d7565b6200163191906200211c565b6200163e90600c62002197565b6200164b600288620020d7565b620016579190620020d7565b620016659061016f62002197565b6200167191906200211c565b6004600c62001682600e89620020d7565b6200168e91906200211c565b6200169c896112c062002150565b620016a8919062002150565b620016b6906105b562002197565b620016c291906200211c565b620016d0617d4b87620020d7565b620016dc919062002150565b620016e8919062002150565b620016f49190620020d7565b620017009190620020d7565b98975050505050505050565b60006200171b60048362002228565b1580156200173457506200173160648362002228565b15155b8062000c125750620017496101908362002228565b1592915050565b600080600b60009054906101000a90046001600160a01b03166001600160a01b031663feaf968c6040518163ffffffff1660e01b815260040160a060405180830381865afa158015620017a7573d6000803e3d6000fd5b505050506040513d601f19601f82011682018060405250810190620017cd919062002257565b505050915050806402540be400620017e691906200201f565b601654620017fd90670de0b6b3a76400006200201f565b620018099190620020a2565b91505090565b6001600160a01b038416620018715760405162461bcd60e51b815260206004820152602160248201527f455243313135353a206d696e7420746f20746865207a65726f206164647265736044820152607360f81b606482015260840162000c9c565b3362001897816000876200188588620019f6565b6200189088620019f6565b8762001a44565b6000848152602081815260408083206001600160a01b038916845290915281208054859290620018c990849062002071565b909155505060408051858152602081018590526001600160a01b0380881692600092918516917fc3d58168c5ae7397731d063d5bbf3d657854427343f4c083240f7aacaa2d0f62910160405180910390a46200192b8160008787878762001ad1565b5050505050565b6000806200194d85858562000c1860201b62003e241760201c565b6000818152602c60205260409020549091506001600160a01b03166200199c5760405162461bcd60e51b815260206004820152600360248201526265313160e81b604482015260640162000c9c565b6000620019b5824262001ca760201b62003e7b1760201c565b6000838152602e602052604090205490915060ff1615620019e057620019dd8160046200201f565b90505b60008111620019ed575060015b95945050505050565b6040805160018082528183019092526060916000919060208083019080368337019050509050828160008151811062001a335762001a3362002041565b602090810291909101015292915050565b62001a5f86868686868662001ac960201b62003edb1760201c565b60035460ff161562001ac95760405162461bcd60e51b815260206004820152602c60248201527f455243313135355061757361626c653a20746f6b656e207472616e736665722060448201526b1dda1a5b19481c185d5cd95960a21b606482015260840162000c9c565b505050505050565b62001af0846001600160a01b031662001d1160201b62003ee31760201c565b1562001ac95760405163f23a6e6160e01b81526001600160a01b0385169063f23a6e619062001b2c9089908990889088908890600401620022fc565b6020604051808303816000875af192505050801562001b6a575060408051601f3d908101601f1916820190925262001b679181019062002343565b60015b62001c2b5762001b7962002376565b806308c379a0141562001bba575062001b91620023ce565b8062001b9e575062001bbc565b8060405162461bcd60e51b815260040162000c9c91906200245d565b505b60405162461bcd60e51b815260206004820152603460248201527f455243313135353a207472616e7366657220746f206e6f6e204552433131353560448201527f526563656976657220696d706c656d656e746572000000000000000000000000606482015260840162000c9c565b6001600160e01b0319811663f23a6e6160e01b1462001c9e5760405162461bcd60e51b815260206004820152602860248201527f455243313135353a204552433131353552656365697665722072656a656374656044820152676420746f6b656e7360c01b606482015260840162000c9c565b50505050505050565b60008183111562001cb757600080fd5b6000808080808062001cd762001cd1620151808b620020a2565b62001d17565b9197509550935062001cf162001cd1620151808a620020a2565b9194509250905062001d04868462002057565b9998505050505050505050565b3b151590565b60008080838162253d8c62001d308362010bd962002150565b62001d3c919062002150565b9050600062023ab162001d5183600462002197565b62001d5d91906200211c565b9050600462001d708262023ab162002197565b62001d7d90600362002150565b62001d8991906200211c565b62001d959083620020d7565b9150600062164b0962001daa84600162002150565b62001db890610fa062002197565b62001dc491906200211c565b9050600462001dd6826105b562002197565b62001de291906200211c565b62001dee9084620020d7565b62001dfb90601f62002150565b9250600061098f62001e0f85605062002197565b62001e1b91906200211c565b90506000605062001e2f8361098f62002197565b62001e3b91906200211c565b62001e479086620020d7565b905062001e56600b836200211c565b945062001e6585600c62002197565b62001e7283600262002150565b62001e7e9190620020d7565b9150848362001e8f603187620020d7565b62001e9c90606462002197565b62001ea8919062002150565b62001eb4919062002150565b9a919950975095505050505050565b82805462001ed19062002472565b90600052602060002090601f01602090048101928262001ef5576000855562001f40565b82601f1062001f1057805160ff191683800117855562001f40565b8280016001018555821562001f40579182015b8281111562001f4057825182559160200191906001019062001f23565b5062001f4e92915062001f52565b5090565b5b8082111562001f4e576000815560010162001f53565b80516001600160a01b038116811462001f8157600080fd5b919050565b600080600080600080600060e0888a03121562001fa257600080fd5b62001fad8862001f69565b965062001fbd6020890162001f69565b9550604088015194506060880151935062001fdb6080890162001f69565b925062001feb60a0890162001f69565b915062001ffb60c0890162001f69565b905092959891949750929550565b634e487b7160e01b600052601160045260246000fd5b60008160001904831182151516156200203c576200203c62002009565b500290565b634e487b7160e01b600052603260045260246000fd5b6000828210156200206c576200206c62002009565b500390565b6000821982111562002087576200208762002009565b500190565b634e487b7160e01b600052601260045260246000fd5b600082620020b457620020b46200208c565b500490565b6000600019821415620020d057620020d062002009565b5060010190565b60008083128015600160ff1b850184121615620020f857620020f862002009565b6001600160ff1b038401831381161562002116576200211662002009565b50500390565b6000826200212e576200212e6200208c565b600160ff1b8214600019841416156200214b576200214b62002009565b500590565b600080821280156001600160ff1b038490038513161562002175576200217562002009565b600160ff1b839003841281161562002191576200219162002009565b50500190565b60006001600160ff1b0381841382841380821686840486111615620021c057620021c062002009565b600160ff1b6000871282811687830589121615620021e257620021e262002009565b6000871292508782058712848416161562002201576200220162002009565b878505871281841616156200221a576200221a62002009565b505050929093029392505050565b6000826200223a576200223a6200208c565b500690565b80516001600160501b038116811462001f8157600080fd5b600080600080600060a086880312156200227057600080fd5b6200227b866200223f565b9450602086015193506040860151925060608601519150620022a0608087016200223f565b90509295509295909350565b6000815180845260005b81811015620022d457602081850181015186830182015201620022b6565b81811115620022e7576000602083870101525b50601f01601f19169290920160200192915050565b6001600160a01b03868116825285166020820152604081018490526060810183905260a0608082018190526000906200233890830184620022ac565b979650505050505050565b6000602082840312156200235657600080fd5b81516001600160e01b0319811681146200236f57600080fd5b9392505050565b600060033d1115620023905760046000803e5060005160e01c5b90565b601f8201601f191681016001600160401b0381118282101715620023c757634e487b7160e01b600052604160045260246000fd5b6040525050565b600060443d1015620023dd5790565b6040516003193d81016004833e81513d6001600160401b0380831160248401831017156200240d57505050505090565b8285019150815181811115620024265750505050505090565b843d8701016020828501011115620024415750505050505090565b620024526020828601018762002393565b509095945050505050565b6020815260006200236f6020830184620022ac565b600181811c908216806200248757607f821691505b60208210811415620024a957634e487b7160e01b600052602260045260246000fd5b50919050565b60805160a051616000620024dc600039600081816127d7015261476f0152600061474001526160006000f3fe6080604052600436106104f65760003560e01c80636d5433e61161028c578063c771285b1161015a578063e985e9c5116100cc578063f1f0befe11610085578063f1f0befe14610f74578063f242432a14610f94578063f2fde38b14610fb4578063f6a33e6d14610fd4578063f8a433ec14610fe9578063fa2b16cd14610ffe576104f6565b8063e985e9c514610e9a578063e9cc3b5414610ee3578063ee944ba714610ef8578063ef81336314610f1a578063f074e34f14610f34578063f0f206aa14610f54576104f6565b8063d973fc2e1161011e578063d973fc2e14610dc8578063dbdad46414610de8578063dd2cec7f14610e08578063e0b9a4aa14610e3e578063e5a8a42f14610e53578063e5b429c014610e80576104f6565b8063c771285b14610d52578063c78a0b8614610d68578063cb7812fd14610d7d578063d0791de914610d92578063d50ac89214610db2576104f6565b80638da5cb5b116101fe578063a9665b7a116101b7578063a9665b7a14610cb1578063ab32d59414610cc7578063ac0b78f214610cdc578063ac8daba014610cfc578063b689af8414610d12578063bd7b9ba514610d32576104f6565b80638da5cb5b14610c0357806392b56abb14610c2657806393e51b6414610c3b57806394985ddd14610c51578063a22cb46514610c71578063a42616e814610c91576104f6565b8063717c2f5f11610250578063717c2f5f14610b785780637ab36b5314610b8d5780637ef6d4a014610ba35780637f44a9bb1461095b578063865117d714610bd05780638b3c3ef714610bf0576104f6565b80636d5433e614610ae15780636e21fc8714610b015780636e9f2b4b14610b2e57806370e44c6a14610b4e578063715018a614610b63576104f6565b80632eb2c2d6116103c95780634e3412b21161033b5780635e3f5422116102f45780635e3f542214610a465780635fd00ca214610a5b578063617d15a514610a71578063659d8d4e14610a9157806365ce645414610ac15780636a1c3f201461095b576104f6565b80634e3412b2146109b357806353177e66146109c957806353c3a995146109ee57806353c9a4821461059c57806356f2520d14610a0e5780635c975abb14610a2e576104f6565b806338d926171161038d57806338d92617146109055780633cd21817146109255780634140524d1461093b5780634954d2ec1461095b57806349b82943146109705780634e1273f414610986576104f6565b80632eb2c2d614610839578063303dd55314610859578063308620e21461086f578063340d899a146108a757806336bb86b3146108bd576104f6565b80631a513c9d1161046d578063234d7b8d11610426578063234d7b8d146107a557806328f50905146107bb57806329948b27146107db5780632a213dcb146107f05780632a9337d0146108065780632aeca61414610826576104f6565b80631a513c9d146106c35780631aa98354146106f05780631c8108b1146107135780631ca86e1f1461072a5780631d65bd1b1461075a5780631d6c263c14610790576104f6565b806306389ca1116104bf57806306389ca1146105e757806307d6a5601461061f57806309fdd5a3146106415780630a6a001c146106565780630e89341c1461067657806313887d9514610696576104f6565b8062fdd58e1461053957806301ffc9a71461056c57806303029e7d1461059c578063037a2414146105b15780630387da42146105d1575b6028546001600160a01b03166000908152602a602052604090205461051c903490615132565b6028546001600160a01b03166000908152602a6020526040902055005b34801561054557600080fd5b50610559610554366004615166565b61101e565b6040519081526020015b60405180910390f35b34801561057857600080fd5b5061058c6105873660046151a6565b6110b8565b6040519015158152602001610563565b3480156105a857600080fd5b50610559601e81565b3480156105bd57600080fd5b506105596105cc3660046151c3565b611108565b3480156105dd57600080fd5b5061055960165481565b3480156105f357600080fd5b506106076106023660046151c3565b61111d565b6040516001600160a01b039091168152602001610563565b34801561062b57600080fd5b5061063461114c565b6040516105639190615247565b34801561064d57600080fd5b50601854610559565b34801561066257600080fd5b5061055961067136600461525a565b6111da565b34801561068257600080fd5b5061063461069136600461525a565b6111fb565b3480156106a257600080fd5b506105596106b1366004615273565b602a6020526000908152604090205481565b3480156106cf57600080fd5b506105596106de366004615273565b60376020526000908152604090205481565b3480156106fc57600080fd5b5061070561128f565b604051610563929190615302565b34801561071f57600080fd5b506107286113fa565b005b34801561073657600080fd5b5061058c610745366004615273565b602f6020526000908152604090205460ff1681565b34801561076657600080fd5b5061060761077536600461525a565b6036602052600090815260409020546001600160a01b031681565b34801561079c57600080fd5b50610728611447565b3480156107b157600080fd5b50610559601f5481565b3480156107c757600080fd5b506106076107d636600461525a565b6119e4565b3480156107e757600080fd5b50610634611a04565b3480156107fc57600080fd5b5061055960155481565b34801561081257600080fd5b50600a54610607906001600160a01b031681565b610728610834366004615327565b611a11565b34801561084557600080fd5b506107286108543660046154af565b6121c6565b34801561086557600080fd5b50610559601b5481565b34801561087b57600080fd5b5061055961088a366004615567565b603a60209081526000928352604080842090915290825290205481565b3480156108b357600080fd5b5061055960215481565b3480156108c957600080fd5b506108f86108d8366004615593565b603960209081526000928352604080842090915290825290205460ff1681565b60405161056391906155cb565b34801561091157600080fd5b5061063461092036600461525a565b61227e565b34801561093157600080fd5b50610559601e5481565b34801561094757600080fd5b50602454610607906001600160a01b031681565b34801561096757600080fd5b50610559600581565b34801561097c57600080fd5b5061055960085481565b34801561099257600080fd5b506109a66109a13660046155f3565b612297565b60405161056391906156bd565b3480156109bf57600080fd5b50610559600d5481565b3480156109d557600080fd5b506010546106079061010090046001600160a01b031681565b3480156109fa57600080fd5b50610607610a0936600461525a565b6123c0565b348015610a1a57600080fd5b50610634610a2936600461525a565b6123ea565b348015610a3a57600080fd5b5060035460ff1661058c565b348015610a5257600080fd5b50610634612403565b348015610a6757600080fd5b5061055960095481565b348015610a7d57600080fd5b50610728610a8c3660046156d0565b612410565b348015610a9d57600080fd5b5061058c610aac36600461525a565b602e6020526000908152604090205460ff1681565b348015610acd57600080fd5b50610607610adc36600461525a565b612480565b348015610aed57600080fd5b50610559610afc366004615593565b612490565b348015610b0d57600080fd5b50610559610b1c366004615273565b602b6020526000908152604090205481565b348015610b3a57600080fd5b50600754610607906001600160a01b031681565b348015610b5a57600080fd5b506107286124a9565b348015610b6f57600080fd5b50610728612568565b348015610b8457600080fd5b506106346125a2565b348015610b9957600080fd5b5061055960175481565b348015610baf57600080fd5b50610559610bbe36600461525a565b60306020526000908152604090205481565b348015610bdc57600080fd5b50602354610607906001600160a01b031681565b610728610bfe36600461570c565b6125af565b348015610c0f57600080fd5b5060035461010090046001600160a01b0316610607565b348015610c3257600080fd5b506106346127bf565b348015610c4757600080fd5b50610559601c5481565b348015610c5d57600080fd5b50610728610c6c366004615593565b6127cc565b348015610c7d57600080fd5b50610728610c8c3660046157c6565b61284e565b348015610c9d57600080fd5b50610728610cac3660046157fd565b612859565b348015610cbd57600080fd5b50610559601a5481565b348015610cd357600080fd5b50602054610559565b348015610ce857600080fd5b50610634610cf736600461525a565b612ea6565b348015610d0857600080fd5b50610559601d5481565b348015610d1e57600080fd5b50610634610d2d366004615273565b612ebf565b348015610d3e57600080fd5b50603854610607906001600160a01b031681565b348015610d5e57600080fd5b50610559600f5481565b348015610d7457600080fd5b50610559601981565b348015610d8957600080fd5b50610634612ed8565b348015610d9e57600080fd5b50610728610dad366004615166565b612ee5565b348015610dbe57600080fd5b5061055960195481565b348015610dd457600080fd5b50610728610de3366004615593565b612fa2565b348015610df457600080fd5b50610728610e03366004615273565b613063565b348015610e1457600080fd5b50610607610e2336600461525a565b602c602052600090815260409020546001600160a01b031681565b348015610e4a57600080fd5b50610559613173565b348015610e5f57600080fd5b50610559610e6e36600461525a565b602d6020526000908152604090205481565b348015610e8c57600080fd5b50600e5461058c9060ff1681565b348015610ea657600080fd5b5061058c610eb53660046158db565b6001600160a01b03918216600090815260016020908152604080832093909416825291909152205460ff1690565b348015610eef57600080fd5b5061072861320e565b348015610f0457600080fd5b50610f0d6132c5565b6040516105639190615905565b348015610f2657600080fd5b5060105461058c9060ff1681565b348015610f4057600080fd5b50610728610f4f366004615918565b613391565b348015610f6057600080fd5b50610559610f6f3660046151c3565b61357e565b348015610f8057600080fd5b50610728610f8f3660046151c3565b61360c565b348015610fa057600080fd5b50610728610faf366004615935565b6136ae565b348015610fc057600080fd5b50610728610fcf366004615273565b613800565b348015610fe057600080fd5b506107286138a1565b348015610ff557600080fd5b506105596139d4565b34801561100a57600080fd5b50610728611019366004615999565b613a8a565b60006001600160a01b03831661108f5760405162461bcd60e51b815260206004820152602b60248201527f455243313135353a2062616c616e636520717565727920666f7220746865207a60448201526a65726f206164647265737360a81b60648201526084015b60405180910390fd5b506000818152602081815260408083206001600160a01b03861684529091529020545b92915050565b60006001600160e01b03198216636cdb3d1360e11b14806110e957506001600160e01b031982166303a24d0760e21b145b806110b257506301ffc9a760e01b6001600160e01b03198316146110b2565b6000611115848484613e24565b949350505050565b60008061112b858585613e24565b6000908152602c60205260409020546001600160a01b031695945050505050565b6013805461115990615a62565b80601f016020809104026020016040519081016040528092919081815260200182805461118590615a62565b80156111d25780601f106111a7576101008083540402835291602001916111d2565b820191906000526020600020905b8154815290600101906020018083116111b557829003601f168201915b505050505081565b602081815481106111ea57600080fd5b600091825260209091200154905081565b60606002805461120a90615a62565b80601f016020809104026020016040519081016040528092919081815260200182805461123690615a62565b80156112835780601f1061125857610100808354040283529160200191611283565b820191906000526020600020905b81548152906001019060200180831161126657829003601f168201915b50505050509050919050565b60608060006020805490506001600160401b038111156112b1576112b1615366565b6040519080825280602002602001820160405280156112da578160200160208202803683370190505b506020549091506000906001600160401b038111156112fb576112fb615366565b604051908082528060200260200182016040528015611324578160200160208202803683370190505b50905060005b6020548110156113f0576020818154811061134757611347615106565b906000526020600020015483828151811061136457611364615106565b602002602001018181525050602c60006020838154811061138757611387615106565b9060005260206000200154815260200190815260200160002060009054906101000a90046001600160a01b03168282815181106113c6576113c6615106565b6001600160a01b0390921660209283029190910190910152806113e881615a97565b91505061132a565b5090939092509050565b6003546001600160a01b0361010090910416331461142a5760405162461bcd60e51b815260040161108690615ab2565b60035460ff161561143f5761143d613ee9565b565b61143d613f7c565b60035460ff161561146a5760405162461bcd60e51b815260040161108690615ae7565b601e611478601f5442613fd4565b10156114ac5760405162461bcd60e51b815260206004820152600360248201526265313360e81b6044820152606401611086565b60006114b6613173565b6038546001600160a01b03166000908152603760205260409020549091508111156115095760405162461bcd60e51b8152602060048201526003602482015262194c4d60ea1b6044820152606401611086565b6007546038546001600160a01b039081169116146115a5576038546007546040516001600160a01b0392831692909116907fe70739823d1a1030055333e7bb502f88b41f9631ed3c87a09811fdb1a4ed0f8390600090a3603854600780546001600160a01b0319166001600160a01b0390921691821790556009546008556040805160208101909152600081526115a591906001908190613ffb565b60015b600381116119dc576115b8614ffa565b6000828152603a60209081526040808320838052808352818420548552600180855281845282852054868501526002855281845282852054868401526003855281845282852054606087015260048552925282205460808401819052835161164092610afc9161162f9187905b6020020151612490565b6040860151610afc90876003611625565b825190915081141561167f5760005b60405184907f6f235ca67a520aa7bbe234e1490553d4dd8fc8f277d1e70e2f2e8b847858ae1190600090a3611967565b6020820151811415611733576000602a6000602586600581106116a4576116a4615106565b01546001600160a01b0316815260208101919091526040016000908120549150602a81602587600581106116da576116da615106565b01546001600160a01b031681526020810191909152604001600020556116ff8161410b565b60015b60405185907f6f235ca67a520aa7bbe234e1490553d4dd8fc8f277d1e70e2f2e8b847858ae1190600090a350611967565b60408201518114156117ba576000602a60006025866005811061175857611758615106565b01546001600160a01b0316815260208101919091526040016000908120549150602a816025876005811061178e5761178e615106565b01546001600160a01b031681526020810191909152604001600020556117b3816141e9565b6002611702565b606082015181141561187257602a6000602585600581106117dd576117dd615106565b01546001600160a01b03908116825260208083019390935260409182016000908120546029549092168152602a90935291205461181a9190615132565b6029546001600160a01b03166000908152602a6020819052604082209290925590816025866005811061184f5761184f615106565b01546001600160a01b03168152602081019190915260400160002055600361164f565b6080820151811415611967576007546001600160a01b031615611967576000602a6000602586600581106118a8576118a8615106565b01546001600160a01b0316815260208101919091526040016000908120549150602a81602587600581106118de576118de615106565b01546001600160a01b0390811682526020808301939093526040918201600090812094909455600754168352602a90915290205461191d908290615132565b6007546001600160a01b03166000908152602a6020526040902055600460405185907f6f235ca67a520aa7bbe234e1490553d4dd8fc8f277d1e70e2f2e8b847858ae1190600090a3505b6029546001600160a01b039081166000908152602a602052604080822054602454909316825290205461199a9190615132565b6024546001600160a01b039081166000908152602a602052604080822093909355602954909116815290812055508190506119d481615a97565b9150506115a8565b505042601f55565b602581600581106119f457600080fd5b01546001600160a01b0316905081565b6011805461115990615a62565b60035460ff1615611a345760405162461bcd60e51b815260040161108690615ae7565b821580611a415750600c83115b15611a735760405162461bcd60e51b8152602060048201526002602482015261653360f01b6044820152606401611086565b811580611a805750601f82115b15611ab25760405162461bcd60e51b8152602060048201526002602482015261194d60f21b6044820152606401611086565b8260041480611ac15750826006145b80611acc5750826009145b80611ad7575082600b145b8015611ae35750601e82115b80611b095750826002148015611afd5750611afd84613e3f565b8015611b095750601d82115b80611b315750826002148015611b255750611b2384613e3f565b155b8015611b315750601c82115b15611b59576040516324e2ba2160e11b81526004810184905260248101839052604401611086565b6000611b66858585613e24565b9050428111158015611b7a5750601d548110155b611bab5760405162461bcd60e51b8152602060048201526002602482015261653560f01b6044820152606401611086565b6000818152602c60205260409020546001600160a01b031615611bf55760405162461bcd60e51b8152602060048201526002602482015261329b60f11b6044820152606401611086565b6001600160a01b038216611c07573391505b600e5460009060ff168015611c2c5750336000908152602f602052604090205460ff16155b15611c5757336000908152602b60205260408120805460019290611c51908490615132565b90915550505b336000908152602b602052604090205415611d5b5750336000908152602b6020526040902054600190611c8b908290615b11565b336000908152602b6020526040902055600f5415611d5b576001600f54611cb29190615b11565b600f556000828152602e602090815260408083208054600160ff19918216811790925533808652602f90945291842080549092168117909155603180548083018255938190527fc54045fa7c6ec765e825df7f9e9bf9dec12c5cef146f93a5eee56772ee647fbc90930180546001600160a01b0319169092179091559054611d3a9190615b11565b600083815260306020526040902055600f54611d5b57600e805460ff191690555b8061202c57611d686139d4565b341015611d9c5760405162461bcd60e51b8152602060048201526002602482015261653760f01b6044820152606401611086565b60006064611dab600534615b28565b611db59190615b5d565b6024546001600160a01b03166000908152602a6020526040902054909150611dde908290615132565b6024546001600160a01b03166000908152602a60205260408120919091556064611e09600534615b28565b611e139190615b5d565b6007549091506001600160a01b0316611e6c576023546001600160a01b03166000908152602a6020526040902054611e4c908290615132565b6023546001600160a01b03166000908152602a6020526040902055611eae565b6007546001600160a01b03166000908152602a6020526040902054611e92908290615132565b6007546001600160a01b03166000908152602a60205260409020555b60006064611ebd600534615b28565b611ec79190615b5d565b6023546001600160a01b03166000908152602a6020526040902054909150611ef0908290615132565b6023546001600160a01b03166000908152602a60205260408120919091556064611f1b601934615b28565b611f259190615b5d565b6029546001600160a01b03166000908152602a6020526040902054909150611f4e908290615132565b6029546001600160a01b03166000908152602a60205260408120919091556064611f79601e34615b28565b611f839190615b5d565b6026546001600160a01b03166000908152602a6020526040902054909150611fac908290615132565b6026546001600160a01b03166000908152602a60205260408120919091556064611fd7601e34615b28565b611fe19190615b5d565b6027546001600160a01b03166000908152602a602052604090205490915061200a908290615132565b6027546001600160a01b03166000908152602a60205260409020555050505050505b6120488383600160405180602001604052806000815250613ffb565b60208054600180820183557fc97bfaf2f8ee708c303a06d134f5ecd8389ae0432af62dc132a24118292866bb9091018490556000848152602c909252604090912080546001600160a01b0319166001600160a01b03861617905542601e555b60038111612158576000838152602e602052604090205460ff161580156120ce5750806003145b156120d857612146565b6120e387878761357e565b6000828152603a60209081526040808320600384529091529020546121089190615132565b6000828152603a60209081526040808320600380855290835281842094909455848352603982528083208784529091529020805460ff191690911790555b8061215081615a97565b9150506120a7565b508061217257600d5460165461216e9190615132565b6016555b60408051878152602081018790529081018590526001600160a01b038416907fa51e9b2ef1f037dee551eb226d6d1581c8fb0e0243820ebd1fbb41a13e6c23649060600160405180910390a2505050505050565b6001600160a01b0385163314806121e257506121e28533610eb5565b6122495760405162461bcd60e51b815260206004820152603260248201527f455243313135353a207472616e736665722063616c6c6572206973206e6f74206044820152711bdddb995c881b9bdc88185c1c1c9bdd995960721b6064820152608401611086565b60405162461bcd60e51b815260206004820152600360248201526265323760e81b6044820152606401611086565b5050505050565b6035602052600090815260409020805461115990615a62565b606081518351146122fc5760405162461bcd60e51b815260206004820152602960248201527f455243313135353a206163636f756e747320616e6420696473206c656e677468604482015268040dad2e6dac2e8c6d60bb1b6064820152608401611086565b600083516001600160401b0381111561231757612317615366565b604051908082528060200260200182016040528015612340578160200160208202803683370190505b50905060005b84518110156123b85761238b85828151811061236457612364615106565b602002602001015185838151811061237e5761237e615106565b602002602001015161101e565b82828151811061239d5761239d615106565b60209081029190910101526123b181615a97565b9050612346565b509392505050565b603181815481106123d057600080fd5b6000918252602090912001546001600160a01b0316905081565b6032602052600090815260409020805461115990615a62565b6012805461115990615a62565b6003546001600160a01b036101009091041633146124405760405162461bcd60e51b815260040161108690615ab2565b60035460ff16156124635760405162461bcd60e51b815260040161108690615ae7565b6021829055805161247b906005906020840190615018565b505050565b601881815481106123d057600080fd5b6000818310156124a057816124a2565b825b9392505050565b336000908152602a6020526040902054662386f26fc1000011156124f55760405162461bcd60e51b815260206004820152600360248201526265313560e81b6044820152606401611086565b336000818152602a602052604080822080549083905590519092839290917f2f174ca282119315c59efaf21147aef438581dabdeb498198ae28964373dd8bc9190a3604051339082156108fc029083906000818181858888f19350505050158015612564573d6000803e3d6000fd5b5050565b6003546001600160a01b036101009091041633146125985760405162461bcd60e51b815260040161108690615ab2565b61143d60006143e6565b6005805461115990615a62565b60035460ff16156125d25760405162461bcd60e51b815260040161108690615ae7565b60328451111561260a5760405162461bcd60e51b815260206004820152600360248201526232999b60e91b6044820152606401611086565b60105461010090046001600160a01b03161561264d5760405162461bcd60e51b81526020600482015260026024820152610ca760f31b6044820152606401611086565b6015544210156126845760405162461bcd60e51b8152602060048201526002602482015261653960f01b6044820152606401611086565b600061268e6139d4565b336000908152602a60205260409020546126a89034615132565b6126b29190615b5d565b6126bd906004615b28565b9050601e8110156126f65760405162461bcd60e51b815260206004820152600360248201526206531360ec1b6044820152606401611086565b60108054610100600160a81b0319163361010090810291909117918290556001600160a01b039104166000908152602a6020526040902054612739903490615132565b60105461010090046001600160a01b03166000908152602a602090815260409091209190915585516127719160119190880190615018565b508151612785906012906020850190615018565b508351612799906013906020870190615018565b5082516127ad906014906020860190615018565b50506010805460ff1916905550505050565b600c805461115990615a62565b336001600160a01b037f000000000000000000000000000000000000000000000000000000000000000016146128445760405162461bcd60e51b815260206004820152601f60248201527f4f6e6c7920565246436f6f7264696e61746f722063616e2066756c66696c6c006044820152606401611086565b6125648282614440565b612564338383614602565b60035460ff161561287c5760405162461bcd60e51b815260040161108690615ae7565b6000612889888888613e24565b6000818152602c60205260409020549091506001600160a01b03166128c05760405162461bcd60e51b815260040161108690615b71565b6000818152602c60205260409020546001600160a01b0316331461290c5760405162461bcd60e51b815260206004820152600360248201526232989960e91b6044820152606401611086565b600061291989898961357e565b905060015b60038111612c185780600314801561294557506000838152602e602052604090205460ff16155b1561294f57612c06565b8361295b600183615b11565b8151811061296b5761296b615106565b60200260200101516004811115612984576129846155b5565b600082815260396020908152604080832087845290915290205460ff1660048111156129b2576129b26155b5565b14612c06576000818152603a6020908152604080832060398352818420878552909252822054829060ff1660048111156129ee576129ee6155b5565b60048111156129ff576129ff6155b5565b8152602001908152602001600020541115612ad1576000818152603a602090815260408083206039835281842087855290925282205484929060ff166004811115612a4c57612a4c6155b5565b6004811115612a5d57612a5d6155b5565b815260200190815260200160002054612a769190615b11565b6000828152603a602090815260408083206039835281842088855290925282205490919060ff166004811115612aae57612aae6155b5565b6004811115612abf57612abf6155b5565b81526020810191909152604001600020555b6000818152603a60205260408120839186612aed600186615b11565b81518110612afd57612afd615106565b60200260200101516004811115612b1657612b166155b5565b6004811115612b2757612b276155b5565b815260200190815260200160002054612b409190615132565b6000828152603a602052604081209086612b5b600186615b11565b81518110612b6b57612b6b615106565b60200260200101516004811115612b8457612b846155b5565b6004811115612b9557612b956155b5565b815260208101919091526040016000205583612bb2600183615b11565b81518110612bc257612bc2615106565b602090810291909101810151600083815260398352604080822087835290935291909120805460ff19166001836004811115612c0057612c006155b5565b02179055505b80612c1081615a97565b91505061291e565b508515801590612c2757508415155b8015612c3257508315155b15612e9b576000612c44878787613e24565b6000818152602c6020908152604080832054603590925290912080549293506001600160a01b0390911691612d109190612c7d90615a62565b80601f0160208091040260200160405190810160405280929190818152602001828054612ca990615a62565b8015612cf65780601f10612ccb57610100808354040283529160200191612cf6565b820191906000526020600020905b815481529060010190602001808311612cd957829003601f168201915b5050505050604051806020016040528060008152506146e3565b15612d435760405162461bcd60e51b815260206004820152600360248201526265333560e81b6044820152606401611086565b6001600160a01b03811615801590612d7557506000848152603660205260409020546001600160a01b03828116911614155b15612e98576000848152603660209081526040808320546001600160a01b03168352603790915290205415612dfa576000848152603660209081526040808320546001600160a01b031683526037909152902054612dd4908490615b11565b6000858152603660209081526040808320546001600160a01b0316835260379091529020555b6001600160a01b038116600090815260376020526040902054612e1e908490615132565b6001600160a01b0380831660008181526037602081815260408084209687558a84526036825280842080546001600160a01b0319168617905560385490951683525291822054915290541115612e9857603880546001600160a01b0319166001600160a01b038316179055612e94888888613e24565b6009555b50505b505050505050505050565b6033602052600090815260409020805461115990615a62565b6034602052600090815260409020805461115990615a62565b6014805461115990615a62565b6003546001600160a01b03610100909104163314612f155760405162461bcd60e51b815260040161108690615ab2565b80612f5e57602480546001600160a01b038481166001600160a01b031983168117909355166000818152602a602052604080822080549483529082209390935590815290555050565b602380546001600160a01b038481166001600160a01b031983168117909355166000818152602a602052604080822080549483529082209390935590815290555050565b6007546001600160a01b0316331480612fdc575060035461010090046001600160a01b03166001600160a01b0316336001600160a01b0316145b612ff85760405162461bcd60e51b815260040161108690615b8e565b61300a81670de0b6b3a7640000615b28565b905061301e82670de0b6b3a7640000615b28565b91506017548210156130585760405162461bcd60e51b815260206004820152600360248201526232999960e91b6044820152606401611086565b601691909155600d55565b6007546001600160a01b031633148061309d575060035461010090046001600160a01b03166001600160a01b0316336001600160a01b0316145b6130b95760405162461bcd60e51b815260040161108690615b8e565b600e5460ff1661310657601a546130d2601c5442613fd4565b10156131065760405162461bcd60e51b815260206004820152600360248201526265323960e81b6044820152606401611086565b6001600160a01b0381166000908152602b6020526040902054156131525760405162461bcd60e51b815260206004820152600360248201526206533360ec1b6044820152606401611086565b42601c556001600160a01b03166000908152602b6020526040902060019055565b603154602054600091106131c25761318d601d5442613e7b565b60205460649061319e906019615b28565b6131a89190615b5d565b6131b29190615b28565b6131bd906004615b28565b905090565b6031546131d0906004615b28565b6131dc601d5442613e7b565b6020546064906131ed906019615b28565b6131f79190615b5d565b6132019190615b28565b6131bd9190615132565b90565b60035460ff16156132315760405162461bcd60e51b815260040161108690615ae7565b601954613240601b5442613fd4565b10156132745760405162461bcd60e51b815260206004820152600360248201526232989b60e91b6044820152606401611086565b6018546001106132ac5760405162461bcd60e51b815260206004820152600360248201526265313760e81b6044820152606401611086565b42601b556022546021546132c0919061473c565b600655565b6018546060906000906001600160401b038111156132e5576132e5615366565b60405190808252806020026020018201604052801561330e578160200160208202803683370190505b50905060005b60185481101561338b576018818154811061333157613331615106565b9060005260206000200160009054906101000a90046001600160a01b031682828151811061336157613361615106565b6001600160a01b03909216602092830291909101909101528061338381615a97565b915050613314565b50919050565b6007546001600160a01b03163314806133cb575060035461010090046001600160a01b03166001600160a01b0316336001600160a01b0316145b6133e75760405162461bcd60e51b815260040161108690615b8e565b60006133f16139d4565b60105461010090046001600160a01b03166000908152602a602052604090205461341b9190615b5d565b613426906004615b28565b9050601e81101561343657600091505b81156134ef576010805460ff1916600117908190556001600160a01b0361010090910481166000908152602a60205260408082205460285490931682529020546134809190615132565b6028546001600160a01b039081166000908152602a60205260408082209390935560105461010090049091168152908120556134bc42826148b8565b6015556010546040805160208101909152600081526125649161010090046001600160a01b031690600290600190613ffb565b601080546001600160a81b03191690554260155560408051602081019182905260009081905261352191601191615018565b5060408051602081019182905260009081905261354091601291615018565b5060408051602081019182905260009081905261355f91601391615018565b5060408051602081019182905260009081905261247b91601491615018565b60008061358c858585613e24565b6000818152602c60205260409020549091506001600160a01b03166135c35760405162461bcd60e51b815260040161108690615b71565b60006135cf8242613e7b565b6000838152602e602052604090205490915060ff16156135f7576135f4816004615b28565b90505b60008111613603575060015b95945050505050565b6000613619848484613e24565b6000818152602c60205260409020549091506001600160a01b03166136505760405162461bcd60e51b815260040161108690615b71565b6000818152602d602052604090205461366a906001615132565b6000828152602d60205260408082209290925590518391859187917f4944e1aeb07a8479e05e8fc701c92c6112bd7b4b2cde831c86b39dd0637c4f3991a450505050565b6001600160a01b0385163314806136ca57506136ca8533610eb5565b6137285760405162461bcd60e51b815260206004820152602960248201527f455243313135353a2063616c6c6572206973206e6f74206f776e6572206e6f7260448201526808185c1c1c9bdd995960ba1b6064820152608401611086565b601d548310156137605760405162461bcd60e51b815260206004820152600360248201526232991b60e91b6044820152606401611086565b61376d85858585856148e0565b6000838152602c6020908152604080832080546001600160a01b0319166001600160a01b038916179055602e90915290205460ff1615612277576000838152603060205260409020546031805486929081106137cb576137cb615106565b9060005260206000200160006101000a8154816001600160a01b0302191690836001600160a01b031602179055505050505050565b6003546001600160a01b036101009091041633146138305760405162461bcd60e51b815260040161108690615ab2565b6001600160a01b0381166138955760405162461bcd60e51b815260206004820152602660248201527f4f776e61626c653a206e6577206f776e657220697320746865207a65726f206160448201526564647265737360d01b6064820152608401611086565b61389e816143e6565b50565b60035460ff16156138c45760405162461bcd60e51b815260040161108690615ae7565b600e5460ff16156138fd5760405162461bcd60e51b815260206004820152600360248201526206532360ec1b6044820152606401611086565b600160005b60185481101561395b57336001600160a01b03166018828154811061392957613929615106565b6000918252602090912001546001600160a01b0316141561394957600091505b8061395381615a97565b915050613902565b508061398f5760405162461bcd60e51b815260206004820152600360248201526265323160e81b6044820152606401611086565b50601880546001810182556000919091527fb13d2d76d1f4b7be834882e410b3e3a8afaf69f83600ae24db354391d2378d2e0180546001600160a01b03191633179055565b600080600b60009054906101000a90046001600160a01b03166001600160a01b031663feaf968c6040518163ffffffff1660e01b815260040160a060405180830381865afa158015613a2a573d6000803e3d6000fd5b505050506040513d601f19601f82011682018060405250810190613a4e9190615bc4565b505050915050806402540be400613a659190615b28565b601654613a7a90670de0b6b3a7640000615b28565b613a849190615b5d565b91505090565b6000613a97888888613e24565b905060ff85511115613ad15760405162461bcd60e51b815260206004820152600360248201526232991960e91b6044820152606401611086565b6000818152602c60205260409020546001600160a01b0316613b1b5760405162461bcd60e51b815260206004820152600360248201526265323360e81b6044820152606401611086565b6000818152602c60205260409020546001600160a01b03163314613b675760405162461bcd60e51b8152602060048201526003602482015262194c8d60ea1b6044820152606401611086565b613b8a85604051806040016040528060018152602001600160fd1b8152506146e3565b613bbe5760008181526032602090815260409091208651613bad92880190615018565b506000818152602d60205260408120555b613be183604051806040016040528060018152602001600160fd1b8152506146e3565b613c07573360009081526034602090815260409091208451613c0592860190615018565b505b613c2a82604051806040016040528060018152602001600160fd1b8152506146e3565b613c4f5760008181526035602090815260409091208351613c4d92850190615018565b505b613c7284604051806040016040528060018152602001600160fd1b8152506146e3565b613dc357604080518082018252600080825260209182015281518083019092528551825280860190820152613d6190613d5c60058054613cb190615a62565b80601f0160208091040260200160405190810160405280929190818152602001828054613cdd90615a62565b8015613d2a5780601f10613cff57610100808354040283529160200191613d2a565b820191906000526020600020905b815481529060010190602001808311613d0d57829003601f168201915b505050505060408051808201825260008082526020918201528151808301909252825182529182019181019190915290565b614a3b565b613d935760405162461bcd60e51b815260206004820152600360248201526265323560e81b6044820152606401611086565b60008181526033602090815260409091208551613db292870190615018565b506000818152602d60205260408120555b8587897fe80e787d8312c1f12419513ef663ccbfaa42ea5226b0a7be319138f4a30745e260405160405180910390a45050505050505050565b6000613e0b6201518083615b28565b613e159084615b11565b9050828111156110b257600080fd5b600062015180613e35858585614a7f565b6111159190615b28565b6000613e4c600483615c14565b158015613e625750613e5f606483615c14565b15155b806110b25750613e7461019083615c14565b1592915050565b600081831115613e8a57600080fd5b60008080808080613ea6613ea1620151808b615b5d565b614bbc565b91975095509350613ebd613ea1620151808a615b5d565b91945092509050613ece8684615b11565b9998505050505050505050565b505050505050565b3b151590565b60035460ff16613f325760405162461bcd60e51b815260206004820152601460248201527314185d5cd8589b194e881b9bdd081c185d5cd95960621b6044820152606401611086565b6003805460ff191690557f5db9ee0a495bf2e6ff9c91a7834c1ba4fdd244a5e8aa4e537bd38aeae4b073aa335b6040516001600160a01b03909116815260200160405180910390a1565b60035460ff1615613f9f5760405162461bcd60e51b815260040161108690615ae7565b6003805460ff191660011790557f62e78cea01bee320cd4e420270b5ea74000d11b0c9f74754ebdbfc544b05a258613f5f3390565b600081831115613fe357600080fd5b62015180613ff18484615b11565b6124a29190615b5d565b6001600160a01b03841661405b5760405162461bcd60e51b815260206004820152602160248201527f455243313135353a206d696e7420746f20746865207a65726f206164647265736044820152607360f81b6064820152608401611086565b3361407b8160008761406c88614d30565b61407588614d30565b87614d7b565b6000848152602081815260408083206001600160a01b0389168452909152812080548592906140ab908490615132565b909155505060408051858152602081018590526001600160a01b0380881692600092918516917fc3d58168c5ae7397731d063d5bbf3d657854427343f4c083240f7aacaa2d0f62910160405180910390a461227781600087878787614de3565b60205460009061411b9083615b5d565b905060005b60205481101561247b5781602a6000602c60006020868154811061414657614146615106565b600091825260208083209091015483528281019390935260409182018120546001600160a01b031684529183019390935291019020546141869190615132565b602a6000602c6000602086815481106141a1576141a1615106565b600091825260208083209091015483528281019390935260409182018120546001600160a01b03168452918301939093529101902055806141e181615a97565b915050614120565b6031546000906141f99083615b5d565b905060005b60315481101561247b5781602a60006031848154811061422057614220615106565b60009182526020808320909101546001600160a01b0316835282019290925260400190205461424f9190615132565b602a60006031848154811061426657614266615106565b60009182526020808320909101546001600160a01b031683528201929092526040019020558061429581615a97565b9150506141fe565b84518110156143805760008582815181106142ba576142ba615106565b6020026020010151905060008583815181106142d8576142d8615106565b602090810291909101810151600084815280835260408082206001600160a01b038e1683529093529190912054909150818110156143285760405162461bcd60e51b815260040161108690615c28565b6000838152602081815260408083206001600160a01b038e8116855292528083208585039055908b16825281208054849290614365908490615132565b925050819055505050508061437990615a97565b905061429d565b50846001600160a01b0316866001600160a01b0316826001600160a01b03167f4a39dc06d4c0dbc64b70af90fd698a233a518aa5d07e595d983b8c0526c8f7fb87876040516143d0929190615c72565b60405180910390a4613edb818787878787614f3f565b600380546001600160a01b03838116610100818102610100600160a81b031985161790945560405193909204169182907f8be0079c531659141344cd1fd0a4f28419497f9722a3daafe3b4186f6b6457e090600090a35050565b81600654146144775760405162461bcd60e51b81526020600482015260036024820152620ca62760eb1b6044820152606401611086565b600081116144ad5760405162461bcd60e51b815260206004820152600360248201526265313960e81b6044820152606401611086565b6018546000906144bd9083615c14565b9050602b6000601883815481106144d6576144d6615106565b60009182526020808320909101546001600160a01b03168352820192909252604001902054614506906001615132565b602b60006018848154811061451d5761451d615106565b60009182526020808320909101546001600160a01b03168352820192909252604001902055601880548290811061455657614556615106565b600091825260209091200154600a80546001600160a01b0319166001600160a01b03909216919091179055601880548290811061459557614595615106565b600091825260209182902001546040518481526001600160a01b03909116917f8dcb1b46b7e05dd96ecd3ae5f7b77b7c6e369f8ced83a2ab24368c4f8e16b8c9910160405180910390a260408051600081526020810191829052516145fc9160189161509c565b50505050565b816001600160a01b0316836001600160a01b031614156146765760405162461bcd60e51b815260206004820152602960248201527f455243313135353a2073657474696e6720617070726f76616c20737461747573604482015268103337b91039b2b63360b91b6064820152608401611086565b6001600160a01b03838116600081815260016020908152604080832094871680845294825291829020805460ff191686151590811790915591519182527f17307eab39ab6107e8899845ad3d59bd9653f200f220920489ca2b5937696c31910160405180910390a3505050565b6000816040516020016146f69190615c97565b604051602081830303815290604052805190602001208360405160200161471d9190615c97565b6040516020818303038152906040528051906020012014905092915050565b60007f00000000000000000000000000000000000000000000000000000000000000006001600160a01b0316634000aea07f0000000000000000000000000000000000000000000000000000000000000000848660006040516020016147ac929190918252602082015260400190565b6040516020818303038152906040526040518463ffffffff1660e01b81526004016147d993929190615cb3565b6020604051808303816000875af11580156147f8573d6000803e3d6000fd5b505050506040513d601f19601f8201168201806040525081019061481c9190615cda565b50600083815260046020818152604080842054815180840189905280830186905230606082015260808082018390528351808303909101815260a090910190925281519183019190912093879052919052614878906001615132565b6000858152600460205260409020556111158482604080516020808201949094528082019290925280518083038201815260609092019052805191012090565b60006148c76201518083615b28565b6148d19084615132565b9050828110156110b257600080fd5b6001600160a01b0384166149445760405162461bcd60e51b815260206004820152602560248201527f455243313135353a207472616e7366657220746f20746865207a65726f206164604482015264647265737360d81b6064820152608401611086565b3361495481878761406c88614d30565b6000848152602081815260408083206001600160a01b038a168452909152902054838110156149955760405162461bcd60e51b815260040161108690615c28565b6000858152602081815260408083206001600160a01b038b81168552925280832087850390559088168252812080548692906149d2908490615132565b909155505060408051868152602081018690526001600160a01b03808916928a821692918616917fc3d58168c5ae7397731d063d5bbf3d657854427343f4c083240f7aacaa2d0f62910160405180910390a4614a32828888888888614de3565b50505050505050565b805182516000911115614a50575060006110b2565b816020015183602001511415614a68575060016110b2565b508051602092830151929091015181902091201490565b60006107b2841015614a9057600080fd5b838383600062253d8c60046064600c614aaa600e88615cf7565b614ab49190615d36565b614ac088611324615d64565b614aca9190615d64565b614ad49190615d36565b614adf906003615da5565b614ae99190615d36565b600c80614af7600e88615cf7565b614b019190615d36565b614b0c90600c615da5565b614b17600288615cf7565b614b219190615cf7565b614b2d9061016f615da5565b614b379190615d36565b6004600c614b46600e89615cf7565b614b509190615d36565b614b5c896112c0615d64565b614b669190615d64565b614b72906105b5615da5565b614b7c9190615d36565b614b88617d4b87615cf7565b614b929190615d64565b614b9c9190615d64565b614ba69190615cf7565b614bb09190615cf7565b98975050505050505050565b60008080838162253d8c614bd38362010bd9615d64565b614bdd9190615d64565b9050600062023ab1614bf0836004615da5565b614bfa9190615d36565b90506004614c0b8262023ab1615da5565b614c16906003615d64565b614c209190615d36565b614c2a9083615cf7565b9150600062164b09614c3d846001615d64565b614c4990610fa0615da5565b614c539190615d36565b90506004614c63826105b5615da5565b614c6d9190615d36565b614c779084615cf7565b614c8290601f615d64565b9250600061098f614c94856050615da5565b614c9e9190615d36565b905060006050614cb08361098f615da5565b614cba9190615d36565b614cc49086615cf7565b9050614cd1600b83615d36565b9450614cde85600c615da5565b614ce9836002615d64565b614cf39190615cf7565b91508483614d02603187615cf7565b614d0d906064615da5565b614d179190615d64565b614d219190615d64565b9a919950975095505050505050565b60408051600180825281830190925260609160009190602080830190803683370190505090508281600081518110614d6a57614d6a615106565b602090810291909101015292915050565b60035460ff1615613edb5760405162461bcd60e51b815260206004820152602c60248201527f455243313135355061757361626c653a20746f6b656e207472616e736665722060448201526b1dda1a5b19481c185d5cd95960a21b6064820152608401611086565b6001600160a01b0384163b15613edb5760405163f23a6e6160e01b81526001600160a01b0385169063f23a6e6190614e279089908990889088908890600401615e2a565b6020604051808303816000875af1925050508015614e62575060408051601f3d908101601f19168201909252614e5f91810190615e6f565b60015b614f0f57614e6e615e8c565b806308c379a01415614ea85750614e83615ea7565b80614e8e5750614eaa565b8060405162461bcd60e51b81526004016110869190615247565b505b60405162461bcd60e51b815260206004820152603460248201527f455243313135353a207472616e7366657220746f206e6f6e20455243313135356044820152732932b1b2b4bb32b91034b6b83632b6b2b73a32b960611b6064820152608401611086565b6001600160e01b0319811663f23a6e6160e01b14614a325760405162461bcd60e51b815260040161108690615f30565b6001600160a01b0384163b15613edb5760405163bc197c8160e01b81526001600160a01b0385169063bc197c8190614f839089908990889088908890600401615f78565b6020604051808303816000875af1925050508015614fbe575060408051601f3d908101601f19168201909252614fbb91810190615e6f565b60015b614fca57614e6e615e8c565b6001600160e01b0319811663bc197c8160e01b14614a325760405162461bcd60e51b815260040161108690615f30565b6040518060a001604052806005906020820280368337509192915050565b82805461502490615a62565b90600052602060002090601f016020900481019282615046576000855561508c565b82601f1061505f57805160ff191683800117855561508c565b8280016001018555821561508c579182015b8281111561508c578251825591602001919060010190615071565b506150989291506150f1565b5090565b82805482825590600052602060002090810192821561508c579160200282015b8281111561508c57825182546001600160a01b0319166001600160a01b039091161782556020909201916001909101906150bc565b5b8082111561509857600081556001016150f2565b634e487b7160e01b600052603260045260246000fd5b634e487b7160e01b600052601160045260246000fd5b600082198211156151455761514561511c565b500190565b80356001600160a01b038116811461516157600080fd5b919050565b6000806040838503121561517957600080fd5b6151828361514a565b946020939093013593505050565b6001600160e01b03198116811461389e57600080fd5b6000602082840312156151b857600080fd5b81356124a281615190565b6000806000606084860312156151d857600080fd5b505081359360208301359350604090920135919050565b60005b8381101561520a5781810151838201526020016151f2565b838111156145fc5750506000910152565b600081518084526152338160208601602086016151ef565b601f01601f19169290920160200192915050565b6020815260006124a2602083018461521b565b60006020828403121561526c57600080fd5b5035919050565b60006020828403121561528557600080fd5b6124a28261514a565b600081518084526020808501945080840160005b838110156152be578151875295820195908201906001016152a2565b509495945050505050565b600081518084526020808501945080840160005b838110156152be5781516001600160a01b0316875295820195908201906001016152dd565b604081526000615315604083018561528e565b828103602084015261360381856152c9565b6000806000806080858703121561533d57600080fd5b84359350602085013592506040850135915061535b6060860161514a565b905092959194509250565b634e487b7160e01b600052604160045260246000fd5b601f8201601f191681016001600160401b03811182821017156153a1576153a1615366565b6040525050565b60006001600160401b038211156153c1576153c1615366565b5060051b60200190565b600082601f8301126153dc57600080fd5b813560206153e9826153a8565b6040516153f6828261537c565b83815260059390931b850182019282810191508684111561541657600080fd5b8286015b84811015615431578035835291830191830161541a565b509695505050505050565b600082601f83011261544d57600080fd5b81356001600160401b0381111561546657615466615366565b60405161547d601f8301601f19166020018261537c565b81815284602083860101111561549257600080fd5b816020850160208301376000918101602001919091529392505050565b600080600080600060a086880312156154c757600080fd5b6154d08661514a565b94506154de6020870161514a565b935060408601356001600160401b03808211156154fa57600080fd5b61550689838a016153cb565b9450606088013591508082111561551c57600080fd5b61552889838a016153cb565b9350608088013591508082111561553e57600080fd5b5061554b8882890161543c565b9150509295509295909350565b80356005811061516157600080fd5b6000806040838503121561557a57600080fd5b8235915061558a60208401615558565b90509250929050565b600080604083850312156155a657600080fd5b50508035926020909101359150565b634e487b7160e01b600052602160045260246000fd5b60208101600583106155ed57634e487b7160e01b600052602160045260246000fd5b91905290565b6000806040838503121561560657600080fd5b82356001600160401b038082111561561d57600080fd5b818501915085601f83011261563157600080fd5b8135602061563e826153a8565b60405161564b828261537c565b83815260059390931b850182019282810191508984111561566b57600080fd5b948201945b83861015615690576156818661514a565b82529482019490820190615670565b965050860135925050808211156156a657600080fd5b506156b3858286016153cb565b9150509250929050565b6020815260006124a2602083018461528e565b600080604083850312156156e357600080fd5b8235915060208301356001600160401b0381111561570057600080fd5b6156b38582860161543c565b6000806000806080858703121561572257600080fd5b84356001600160401b038082111561573957600080fd5b6157458883890161543c565b9550602087013591508082111561575b57600080fd5b6157678883890161543c565b9450604087013591508082111561577d57600080fd5b6157898883890161543c565b9350606087013591508082111561579f57600080fd5b506157ac8782880161543c565b91505092959194509250565b801515811461389e57600080fd5b600080604083850312156157d957600080fd5b6157e28361514a565b915060208301356157f2816157b8565b809150509250929050565b600080600080600080600060e0888a03121561581857600080fd5b87359650602080890135965060408901359550606089013594506080890135935060a0890135925060c08901356001600160401b0381111561585957600080fd5b8901601f81018b1361586a57600080fd5b8035615875816153a8565b604051615882828261537c565b82815260059290921b830184019184810191508d8311156158a257600080fd5b928401925b828410156158c7576158b884615558565b825292840192908401906158a7565b809550505050505092959891949750929550565b600080604083850312156158ee57600080fd5b6158f78361514a565b915061558a6020840161514a565b6020815260006124a260208301846152c9565b60006020828403121561592a57600080fd5b81356124a2816157b8565b600080600080600060a0868803121561594d57600080fd5b6159568661514a565b94506159646020870161514a565b9350604086013592506060860135915060808601356001600160401b0381111561598d57600080fd5b61554b8882890161543c565b600080600080600080600060e0888a0312156159b457600080fd5b87359650602088013595506040880135945060608801356001600160401b03808211156159e057600080fd5b6159ec8b838c0161543c565b955060808a0135915080821115615a0257600080fd5b615a0e8b838c0161543c565b945060a08a0135915080821115615a2457600080fd5b615a308b838c0161543c565b935060c08a0135915080821115615a4657600080fd5b50615a538a828b0161543c565b91505092959891949750929550565b600181811c90821680615a7657607f821691505b6020821081141561338b57634e487b7160e01b600052602260045260246000fd5b6000600019821415615aab57615aab61511c565b5060010190565b6020808252818101527f4f776e61626c653a2063616c6c6572206973206e6f7420746865206f776e6572604082015260600190565b60208082526010908201526f14185d5cd8589b194e881c185d5cd95960821b604082015260600190565b600082821015615b2357615b2361511c565b500390565b6000816000190483118215151615615b4257615b4261511c565b500290565b634e487b7160e01b600052601260045260246000fd5b600082615b6c57615b6c615b47565b500490565b60208082526003908201526265313160e81b604082015260600190565b602080825260029082015261653160f01b604082015260600190565b805169ffffffffffffffffffff8116811461516157600080fd5b600080600080600060a08688031215615bdc57600080fd5b615be586615baa565b9450602086015193506040860151925060608601519150615c0860808701615baa565b90509295509295909350565b600082615c2357615c23615b47565b500690565b6020808252602a908201527f455243313135353a20696e73756666696369656e742062616c616e636520666f60408201526939103a3930b739b332b960b11b606082015260800190565b604081526000615c85604083018561528e565b8281036020840152613603818561528e565b60008251615ca98184602087016151ef565b9190910192915050565b60018060a01b0384168152826020820152606060408201526000613603606083018461521b565b600060208284031215615cec57600080fd5b81516124a2816157b8565b60008083128015600160ff1b850184121615615d1557615d1561511c565b6001600160ff1b0384018313811615615d3057615d3061511c565b50500390565b600082615d4557615d45615b47565b600160ff1b821460001984141615615d5f57615d5f61511c565b500590565b600080821280156001600160ff1b0384900385131615615d8657615d8661511c565b600160ff1b8390038412811615615d9f57615d9f61511c565b50500190565b60006001600160ff1b0381841382841380821686840486111615615dcb57615dcb61511c565b600160ff1b6000871282811687830589121615615dea57615dea61511c565b60008712925087820587128484161615615e0657615e0661511c565b87850587128184161615615e1c57615e1c61511c565b505050929093029392505050565b6001600160a01b03868116825285166020820152604081018490526060810183905260a060808201819052600090615e649083018461521b565b979650505050505050565b600060208284031215615e8157600080fd5b81516124a281615190565b600060033d111561320b5760046000803e5060005160e01c90565b600060443d1015615eb55790565b6040516003193d81016004833e81513d6001600160401b038160248401118184111715615ee457505050505090565b8285019150815181811115615efc5750505050505090565b843d8701016020828501011115615f165750505050505090565b615f256020828601018761537c565b509095945050505050565b60208082526028908201527f455243313135353a204552433131353552656365697665722072656a656374656040820152676420746f6b656e7360c01b606082015260800190565b6001600160a01b0386811682528516602082015260a060408201819052600090615fa49083018661528e565b8281036060840152615fb6818661528e565b90508281036080840152614bb0818561521b56fea2646970667358221220ee1cb1a57712373fd7736cb23cbd6c6dda9652b540dfc9b95a79daa62157702964736f6c634300080b003368747470733a2f2f6d656d6f72697a65746869736461792e6769746875622e696f2f444f47452f7b69647d2e6a736f6e68747470733a2f2f676174657761792e70696e6174612e636c6f75642f697066732f",
  "bytecodeSha1": "2a4b86cf28a2b2ace064be62d4da236cb45fbc96",
  "compiler": {
    "evm_version": "istanbul",
    "optimizer": {
      "enabled": true,
      "runs": 200
    },
    "version": "0.8.11+commit.d7f03943"
  },
  "contractName": "MemorizeThisDayOnDOGE",
  "language": "Solidity",
  "natspec": {
    "kind": "dev",
    "methods": {
      "balanceOf(address,uint256)": {
        "details": "See {IERC1155-balanceOf}. Requirements: - `account` cannot be the zero address."
      },
      "balanceOfBatch(address[],uint256[])": {
        "details": "See {IERC1155-balanceOfBatch}. Requirements: - `accounts` and `ids` must have the same length."
      },
      "isApprovedForAll(address,address)": {
        "details": "See {IERC1155-isApprovedForAll}."
      },
      "owner()": {
        "details": "Returns the address of the current owner."
      },
      "paused()": {
        "details": "Returns true if the contract is paused, and false otherwise."
      },
      "renounceOwnership()": {
        "details": "Leaves the contract without owner. It will not be possible to call `onlyOwner` functions anymore. Can only be called by the current owner. NOTE: Renouncing ownership will leave the contract without an owner, thereby removing any functionality that is only available to the owner."
      },
      "safeBatchTransferFrom(address,address,uint256[],uint256[],bytes)": {
        "details": "See {IERC1155-safeBatchTransferFrom}."
      },
      "safeTransferFrom(address,address,uint256,uint256,bytes)": {
        "details": "See {IERC1155-safeTransferFrom}."
      },
      "setApprovalForAll(address,bool)": {
        "details": "See {IERC1155-setApprovalForAll}."
      },
      "supportsInterface(bytes4)": {
        "details": "See {IERC165-supportsInterface}."
      },
      "transferOwnership(address)": {
        "details": "Transfers ownership of the contract to a new account (`newOwner`). Can only be called by the current owner."
      },
      "uri(uint256)": {
        "details": "See {IERC1155MetadataURI-uri}. This implementation returns the same URI for *all* token types. It relies on the token type ID substitution mechanism https://eips.ethereum.org/EIPS/eip-1155#metadata[defined in the EIP]. Clients calling this function must replace the `\\{id\\}` substring with the actual token type ID."
      }
    },
    "version": 1
  },
  "opcodes": "PUSH1 0x80 PUSH1 0x40 MSTORE PUSH1 0x4 CALLDATASIZE LT PUSH2 0x4F6 JUMPI PUSH1 0x0 CALLDATALOAD PUSH1 0xE0 SHR DUP1 PUSH4 0x6D5433E6 GT PUSH2 0x28C JUMPI DUP1 PUSH4 0xC771285B GT PUSH2 0x15A JUMPI DUP1 PUSH4 0xE985E9C5 GT PUSH2 0xCC JUMPI DUP1 PUSH4 0xF1F0BEFE GT PUSH2 0x85 JUMPI DUP1 PUSH4 0xF1F0BEFE EQ PUSH2 0xF74 JUMPI DUP1 PUSH4 0xF242432A EQ PUSH2 0xF94 JUMPI DUP1 PUSH4 0xF2FDE38B EQ PUSH2 0xFB4 JUMPI DUP1 PUSH4 0xF6A33E6D EQ PUSH2 0xFD4 JUMPI DUP1 PUSH4 0xF8A433EC EQ PUSH2 0xFE9 JUMPI DUP1 PUSH4 0xFA2B16CD EQ PUSH2 0xFFE JUMPI PUSH2 0x4F6 JUMP JUMPDEST DUP1 PUSH4 0xE985E9C5 EQ PUSH2 0xE9A JUMPI DUP1 PUSH4 0xE9CC3B54 EQ PUSH2 0xEE3 JUMPI DUP1 PUSH4 0xEE944BA7 EQ PUSH2 0xEF8 JUMPI DUP1 PUSH4 0xEF813363 EQ PUSH2 0xF1A JUMPI DUP1 PUSH4 0xF074E34F EQ PUSH2 0xF34 JUMPI DUP1 PUSH4 0xF0F206AA EQ PUSH2 0xF54 JUMPI PUSH2 0x4F6 JUMP JUMPDEST DUP1 PUSH4 0xD973FC2E GT PUSH2 0x11E JUMPI DUP1 PUSH4 0xD973FC2E EQ PUSH2 0xDC8 JUMPI DUP1 PUSH4 0xDBDAD464 EQ PUSH2 0xDE8 JUMPI DUP1 PUSH4 0xDD2CEC7F EQ PUSH2 0xE08 JUMPI DUP1 PUSH4 0xE0B9A4AA EQ PUSH2 0xE3E JUMPI DUP1 PUSH4 0xE5A8A42F EQ PUSH2 0xE53 JUMPI DUP1 PUSH4 0xE5B429C0 EQ PUSH2 0xE80 JUMPI PUSH2 0x4F6 JUMP JUMPDEST DUP1 PUSH4 0xC771285B EQ PUSH2 0xD52 JUMPI DUP1 PUSH4 0xC78A0B86 EQ PUSH2 0xD68 JUMPI DUP1 PUSH4 0xCB7812FD EQ PUSH2 0xD7D JUMPI DUP1 PUSH4 0xD0791DE9 EQ PUSH2 0xD92 JUMPI DUP1 PUSH4 0xD50AC892 EQ PUSH2 0xDB2 JUMPI PUSH2 0x4F6 JUMP JUMPDEST DUP1 PUSH4 0x8DA5CB5B GT PUSH2 0x1FE JUMPI DUP1 PUSH4 0xA9665B7A GT PUSH2 0x1B7 JUMPI DUP1 PUSH4 0xA9665B7A EQ PUSH2 0xCB1 JUMPI DUP1 PUSH4 0xAB32D594 EQ PUSH2 0xCC7 JUMPI DUP1 PUSH4 0xAC0B78F2 EQ PUSH2 0xCDC JUMPI DUP1 PUSH4 0xAC8DABA0 EQ PUSH2 0xCFC JUMPI DUP1 PUSH4 0xB689AF84 EQ PUSH2 0xD12 JUMPI DUP1 PUSH4 0xBD7B9BA5 EQ PUSH2 0xD32 JUMPI PUSH2 0x4F6 JUMP JUMPDEST DUP1 PUSH4 0x8DA5CB5B EQ PUSH2 0xC03 JUMPI DUP1 PUSH4 0x92B56ABB EQ PUSH2 0xC26 JUMPI DUP1 PUSH4 0x93E51B64 EQ PUSH2 0xC3B JUMPI DUP1 PUSH4 0x94985DDD EQ PUSH2 0xC51 JUMPI DUP1 PUSH4 0xA22CB465 EQ PUSH2 0xC71 JUMPI DUP1 PUSH4 0xA42616E8 EQ PUSH2 0xC91 JUMPI PUSH2 0x4F6 JUMP JUMPDEST DUP1 PUSH4 0x717C2F5F GT PUSH2 0x250 JUMPI DUP1 PUSH4 0x717C2F5F EQ PUSH2 0xB78 JUMPI DUP1 PUSH4 0x7AB36B53 EQ PUSH2 0xB8D JUMPI DUP1 PUSH4 0x7EF6D4A0 EQ PUSH2 0xBA3 JUMPI DUP1 PUSH4 0x7F44A9BB EQ PUSH2 0x95B JUMPI DUP1 PUSH4 0x865117D7 EQ PUSH2 0xBD0 JUMPI DUP1 PUSH4 0x8B3C3EF7 EQ PUSH2 0xBF0 JUMPI PUSH2 0x4F6 JUMP JUMPDEST DUP1 PUSH4 0x6D5433E6 EQ PUSH2 0xAE1 JUMPI DUP1 PUSH4 0x6E21FC87 EQ PUSH2 0xB01 JUMPI DUP1 PUSH4 0x6E9F2B4B EQ PUSH2 0xB2E JUMPI DUP1 PUSH4 0x70E44C6A EQ PUSH2 0xB4E JUMPI DUP1 PUSH4 0x715018A6 EQ PUSH2 0xB63 JUMPI PUSH2 0x4F6 JUMP JUMPDEST DUP1 PUSH4 0x2EB2C2D6 GT PUSH2 0x3C9 JUMPI DUP1 PUSH4 0x4E3412B2 GT PUSH2 0x33B JUMPI DUP1 PUSH4 0x5E3F5422 GT PUSH2 0x2F4 JUMPI DUP1 PUSH4 0x5E3F5422 EQ PUSH2 0xA46 JUMPI DUP1 PUSH4 0x5FD00CA2 EQ PUSH2 0xA5B JUMPI DUP1 PUSH4 0x617D15A5 EQ PUSH2 0xA71 JUMPI DUP1 PUSH4 0x659D8D4E EQ PUSH2 0xA91 JUMPI DUP1 PUSH4 0x65CE6454 EQ PUSH2 0xAC1 JUMPI DUP1 PUSH4 0x6A1C3F20 EQ PUSH2 0x95B JUMPI PUSH2 0x4F6 JUMP JUMPDEST DUP1 PUSH4 0x4E3412B2 EQ PUSH2 0x9B3 JUMPI DUP1 PUSH4 0x53177E66 EQ PUSH2 0x9C9 JUMPI DUP1 PUSH4 0x53C3A995 EQ PUSH2 0x9EE JUMPI DUP1 PUSH4 0x53C9A482 EQ PUSH2 0x59C JUMPI DUP1 PUSH4 0x56F2520D EQ PUSH2 0xA0E JUMPI DUP1 PUSH4 0x5C975ABB EQ PUSH2 0xA2E JUMPI PUSH2 0x4F6 JUMP JUMPDEST DUP1 PUSH4 0x38D92617 GT PUSH2 0x38D JUMPI DUP1 PUSH4 0x38D92617 EQ PUSH2 0x905 JUMPI DUP1 PUSH4 0x3CD21817 EQ PUSH2 0x925 JUMPI DUP1 PUSH4 0x4140524D EQ PUSH2 0x93B JUMPI DUP1 PUSH4 0x4954D2EC EQ PUSH2 0x95B JUMPI DUP1 PUSH4 0x49B82943 EQ PUSH2 0x970 JUMPI DUP1 PUSH4 0x4E1273F4 EQ PUSH2 0x986 JUMPI PUSH2 0x4F6 JUMP JUMPDEST DUP1 PUSH4 0x2EB2C2D6 EQ PUSH2 0x839 JUMPI DUP1 PUSH4 0x303DD553 EQ PUSH2 0x859 JUMPI DUP1 PUSH4 0x308620E2 EQ PUSH2 0x86F JUMPI DUP1 PUSH4 0x340D899A EQ PUSH2 0x8A7 JUMPI DUP1 PUSH4 0x36BB86B3 EQ PUSH2 0x8BD JUMPI PUSH2 0x4F6 JUMP JUMPDEST DUP1 PUSH4 0x1A513C9D GT PUSH2 0x46D JUMPI DUP1 PUSH4 0x234D7B8D GT PUSH2 0x426 JUMPI DUP1 PUSH4 0x234D7B8D EQ PUSH2 0x7A5 JUMPI DUP1 PUSH4 0x28F50905 EQ PUSH2 0x7BB JUMPI DUP1 PUSH4 0x29948B27 EQ PUSH2 0x7DB JUMPI DUP1 PUSH4 0x2A213DCB EQ PUSH2 0x7F0 JUMPI DUP1 PUSH4 0x2A9337D0 EQ PUSH2 0x806 JUMPI DUP1 PUSH4 0x2AECA614 EQ PUSH2 0x826 JUMPI PUSH2 0x4F6 JUMP JUMPDEST DUP1 PUSH4 0x1A513C9D EQ PUSH2 0x6C3 JUMPI DUP1 PUSH4 0x1AA98354 EQ PUSH2 0x6F0 JUMPI DUP1 PUSH4 0x1C8108B1 EQ PUSH2 0x713 JUMPI DUP1 PUSH4 0x1CA86E1F EQ PUSH2 0x72A JUMPI DUP1 PUSH4 0x1D65BD1B EQ PUSH2 0x75A JUMPI DUP1 PUSH4 0x1D6C263C EQ PUSH2 0x790 JUMPI PUSH2 0x4F6 JUMP JUMPDEST DUP1 PUSH4 0x6389CA1 GT PUSH2 0x4BF JUMPI DUP1 PUSH4 0x6389CA1 EQ PUSH2 0x5E7 JUMPI DUP1 PUSH4 0x7D6A560 EQ PUSH2 0x61F JUMPI DUP1 PUSH4 0x9FDD5A3 EQ PUSH2 0x641 JUMPI DUP1 PUSH4 0xA6A001C EQ PUSH2 0x656 JUMPI DUP1 PUSH4 0xE89341C EQ PUSH2 0x676 JUMPI DUP1 PUSH4 0x13887D95 EQ PUSH2 0x696 JUMPI PUSH2 0x4F6 JUMP JUMPDEST DUP1 PUSH3 0xFDD58E EQ PUSH2 0x539 JUMPI DUP1 PUSH4 0x1FFC9A7 EQ PUSH2 0x56C JUMPI DUP1 PUSH4 0x3029E7D EQ PUSH2 0x59C JUMPI DUP1 PUSH4 0x37A2414 EQ PUSH2 0x5B1 JUMPI DUP1 PUSH4 0x387DA42 EQ PUSH2 0x5D1 JUMPI JUMPDEST PUSH1 0x28 SLOAD PUSH1 0x1 PUSH1 0x1 PUSH1 0xA0 SHL SUB AND PUSH1 0x0 SWAP1 DUP2 MSTORE PUSH1 0x2A PUSH1 0x20 MSTORE PUSH1 0x40 SWAP1 KECCAK256 SLOAD PUSH2 0x51C SWAP1 CALLVALUE SWAP1 PUSH2 0x5132 JUMP JUMPDEST PUSH1 0x28 SLOAD PUSH1 0x1 PUSH1 0x1 PUSH1 0xA0 SHL SUB AND PUSH1 0x0 SWAP1 DUP2 MSTORE PUSH1 0x2A PUSH1 0x20 MSTORE PUSH1 0x40 SWAP1 KECCAK256 SSTORE STOP JUMPDEST CALLVALUE DUP1 ISZERO PUSH2 0x545 JUMPI PUSH1 0x0 DUP1 REVERT JUMPDEST POP PUSH2 0x559 PUSH2 0x554 CALLDATASIZE PUSH1 0x4 PUSH2 0x5166 JUMP JUMPDEST PUSH2 0x101E JUMP JUMPDEST PUSH1 0x40 MLOAD SWAP1 DUP2 MSTORE PUSH1 0x20 ADD JUMPDEST PUSH1 0x40 MLOAD DUP1 SWAP2 SUB SWAP1 RETURN JUMPDEST CALLVALUE DUP1 ISZERO PUSH2 0x578 JUMPI PUSH1 0x0 DUP1 REVERT JUMPDEST POP PUSH2 0x58C PUSH2 0x587 CALLDATASIZE PUSH1 0x4 PUSH2 0x51A6 JUMP JUMPDEST PUSH2 0x10B8 JUMP JUMPDEST PUSH1 0x40 MLOAD SWAP1 ISZERO ISZERO DUP2 MSTORE PUSH1 0x20 ADD PUSH2 0x563 JUMP JUMPDEST CALLVALUE DUP1 ISZERO PUSH2 0x5A8 JUMPI PUSH1 0x0 DUP1 REVERT JUMPDEST POP PUSH2 0x559 PUSH1 0x1E DUP2 JUMP JUMPDEST CALLVALUE DUP1 ISZERO PUSH2 0x5BD JUMPI PUSH1 0x0 DUP1 REVERT JUMPDEST POP PUSH2 0x559 PUSH2 0x5CC CALLDATASIZE PUSH1 0x4 PUSH2 0x51C3 JUMP JUMPDEST PUSH2 0x1108 JUMP JUMPDEST CALLVALUE DUP1 ISZERO PUSH2 0x5DD JUMPI PUSH1 0x0 DUP1 REVERT JUMPDEST POP PUSH2 0x559 PUSH1 0x16 SLOAD DUP2 JUMP JUMPDEST CALLVALUE DUP1 ISZERO PUSH2 0x5F3 JUMPI PUSH1 0x0 DUP1 REVERT JUMPDEST POP PUSH2 0x607 PUSH2 0x602 CALLDATASIZE PUSH1 0x4 PUSH2 0x51C3 JUMP JUMPDEST PUSH2 0x111D JUMP JUMPDEST PUSH1 0x40 MLOAD PUSH1 0x1 PUSH1 0x1 PUSH1 0xA0 SHL SUB SWAP1 SWAP2 AND DUP2 MSTORE PUSH1 0x20 ADD PUSH2 0x563 JUMP JUMPDEST CALLVALUE DUP1 ISZERO PUSH2 0x62B JUMPI PUSH1 0x0 DUP1 REVERT JUMPDEST POP PUSH2 0x634 PUSH2 0x114C JUMP JUMPDEST PUSH1 0x40 MLOAD PUSH2 0x563 SWAP2 SWAP1 PUSH2 0x5247 JUMP JUMPDEST CALLVALUE DUP1 ISZERO PUSH2 0x64D JUMPI PUSH1 0x0 DUP1 REVERT JUMPDEST POP PUSH1 0x18 SLOAD PUSH2 0x559 JUMP JUMPDEST CALLVALUE DUP1 ISZERO PUSH2 0x662 JUMPI PUSH1 0x0 DUP1 REVERT JUMPDEST POP PUSH2 0x559 PUSH2 0x671 CALLDATASIZE PUSH1 0x4 PUSH2 0x525A JUMP JUMPDEST PUSH2 0x11DA JUMP JUMPDEST CALLVALUE DUP1 ISZERO PUSH2 0x682 JUMPI PUSH1 0x0 DUP1 REVERT JUMPDEST POP PUSH2 0x634 PUSH2 0x691 CALLDATASIZE PUSH1 0x4 PUSH2 0x525A JUMP JUMPDEST PUSH2 0x11FB JUMP JUMPDEST CALLVALUE DUP1 ISZERO PUSH2 0x6A2 JUMPI PUSH1 0x0 DUP1 REVERT JUMPDEST POP PUSH2 0x559 PUSH2 0x6B1 CALLDATASIZE PUSH1 0x4 PUSH2 0x5273 JUMP JUMPDEST PUSH1 0x2A PUSH1 0x20 MSTORE PUSH1 0x0 SWAP1 DUP2 MSTORE PUSH1 0x40 SWAP1 KECCAK256 SLOAD DUP2 JUMP JUMPDEST CALLVALUE DUP1 ISZERO PUSH2 0x6CF JUMPI PUSH1 0x0 DUP1 REVERT JUMPDEST POP PUSH2 0x559 PUSH2 0x6DE CALLDATASIZE PUSH1 0x4 PUSH2 0x5273 JUMP JUMPDEST PUSH1 0x37 PUSH1 0x20 MSTORE PUSH1 0x0 SWAP1 DUP2 MSTORE PUSH1 0x40 SWAP1 KECCAK256 SLOAD DUP2 JUMP JUMPDEST CALLVALUE DUP1 ISZERO PUSH2 0x6FC JUMPI PUSH1 0x0 DUP1 REVERT JUMPDEST POP PUSH2 0x705 PUSH2 0x128F JUMP JUMPDEST PUSH1 0x40 MLOAD PUSH2 0x563 SWAP3 SWAP2 SWAP1 PUSH2 0x5302 JUMP JUMPDEST CALLVALUE DUP1 ISZERO PUSH2 0x71F JUMPI PUSH1 0x0 DUP1 REVERT JUMPDEST POP PUSH2 0x728 PUSH2 0x13FA JUMP JUMPDEST STOP JUMPDEST CALLVALUE DUP1 ISZERO PUSH2 0x736 JUMPI PUSH1 0x0 DUP1 REVERT JUMPDEST POP PUSH2 0x58C PUSH2 0x745 CALLDATASIZE PUSH1 0x4 PUSH2 0x5273 JUMP JUMPDEST PUSH1 0x2F PUSH1 0x20 MSTORE PUSH1 0x0 SWAP1 DUP2 MSTORE PUSH1 0x40 SWAP1 KECCAK256 SLOAD PUSH1 0xFF AND DUP2 JUMP JUMPDEST CALLVALUE DUP1 ISZERO PUSH2 0x766 JUMPI PUSH1 0x0 DUP1 REVERT JUMPDEST POP PUSH2 0x607 PUSH2 0x775 CALLDATASIZE PUSH1 0x4 PUSH2 0x525A JUMP JUMPDEST PUSH1 0x36 PUSH1 0x20 MSTORE PUSH1 0x0 SWAP1 DUP2 MSTORE PUSH1 0x40 SWAP1 KECCAK256 SLOAD PUSH1 0x1 PUSH1 0x1 PUSH1 0xA0 SHL SUB AND DUP2 JUMP JUMPDEST CALLVALUE DUP1 ISZERO PUSH2 0x79C JUMPI PUSH1 0x0 DUP1 REVERT JUMPDEST POP PUSH2 0x728 PUSH2 0x1447 JUMP JUMPDEST CALLVALUE DUP1 ISZERO PUSH2 0x7B1 JUMPI PUSH1 0x0 DUP1 REVERT JUMPDEST POP PUSH2 0x559 PUSH1 0x1F SLOAD DUP2 JUMP JUMPDEST CALLVALUE DUP1 ISZERO PUSH2 0x7C7 JUMPI PUSH1 0x0 DUP1 REVERT JUMPDEST POP PUSH2 0x607 PUSH2 0x7D6 CALLDATASIZE PUSH1 0x4 PUSH2 0x525A JUMP JUMPDEST PUSH2 0x19E4 JUMP JUMPDEST CALLVALUE DUP1 ISZERO PUSH2 0x7E7 JUMPI PUSH1 0x0 DUP1 REVERT JUMPDEST POP PUSH2 0x634 PUSH2 0x1A04 JUMP JUMPDEST CALLVALUE DUP1 ISZERO PUSH2 0x7FC JUMPI PUSH1 0x0 DUP1 REVERT JUMPDEST POP PUSH2 0x559 PUSH1 0x15 SLOAD DUP2 JUMP JUMPDEST CALLVALUE DUP1 ISZERO PUSH2 0x812 JUMPI PUSH1 0x0 DUP1 REVERT JUMPDEST POP PUSH1 0xA SLOAD PUSH2 0x607 SWAP1 PUSH1 0x1 PUSH1 0x1 PUSH1 0xA0 SHL SUB AND DUP2 JUMP JUMPDEST PUSH2 0x728 PUSH2 0x834 CALLDATASIZE PUSH1 0x4 PUSH2 0x5327 JUMP JUMPDEST PUSH2 0x1A11 JUMP JUMPDEST CALLVALUE DUP1 ISZERO PUSH2 0x845 JUMPI PUSH1 0x0 DUP1 REVERT JUMPDEST POP PUSH2 0x728 PUSH2 0x854 CALLDATASIZE PUSH1 0x4 PUSH2 0x54AF JUMP JUMPDEST PUSH2 0x21C6 JUMP JUMPDEST CALLVALUE DUP1 ISZERO PUSH2 0x865 JUMPI PUSH1 0x0 DUP1 REVERT JUMPDEST POP PUSH2 0x559 PUSH1 0x1B SLOAD DUP2 JUMP JUMPDEST CALLVALUE DUP1 ISZERO PUSH2 0x87B JUMPI PUSH1 0x0 DUP1 REVERT JUMPDEST POP PUSH2 0x559 PUSH2 0x88A CALLDATASIZE PUSH1 0x4 PUSH2 0x5567 JUMP JUMPDEST PUSH1 0x3A PUSH1 0x20 SWAP1 DUP2 MSTORE PUSH1 0x0 SWAP3 DUP4 MSTORE PUSH1 0x40 DUP1 DUP5 KECCAK256 SWAP1 SWAP2 MSTORE SWAP1 DUP3 MSTORE SWAP1 KECCAK256 SLOAD DUP2 JUMP JUMPDEST CALLVALUE DUP1 ISZERO PUSH2 0x8B3 JUMPI PUSH1 0x0 DUP1 REVERT JUMPDEST POP PUSH2 0x559 PUSH1 0x21 SLOAD DUP2 JUMP JUMPDEST CALLVALUE DUP1 ISZERO PUSH2 0x8C9 JUMPI PUSH1 0x0 DUP1 REVERT JUMPDEST POP PUSH2 0x8F8 PUSH2 0x8D8 CALLDATASIZE PUSH1 0x4 PUSH2 0x5593 JUMP JUMPDEST PUSH1 0x39 PUSH1 0x20 SWAP1 DUP2 MSTORE PUSH1 0x0 SWAP3 DUP4 MSTORE PUSH1 0x40 DUP1 DUP5 KECCAK256 SWAP1 SWAP2 MSTORE SWAP1 DUP3 MSTORE SWAP1 KECCAK256 SLOAD PUSH1 0xFF AND DUP2 JUMP JUMPDEST PUSH1 0x40 MLOAD PUSH2 0x563 SWAP2 SWAP1 PUSH2 0x55CB JUMP JUMPDEST CALLVALUE DUP1 ISZERO PUSH2 0x911 JUMPI PUSH1 0x0 DUP1 REVERT JUMPDEST POP PUSH2 0x634 PUSH2 0x920 CALLDATASIZE PUSH1 0x4 PUSH2 0x525A JUMP JUMPDEST PUSH2 0x227E JUMP JUMPDEST CALLVALUE DUP1 ISZERO PUSH2 0x931 JUMPI PUSH1 0x0 DUP1 REVERT JUMPDEST POP PUSH2 0x559 PUSH1 0x1E SLOAD DUP2 JUMP JUMPDEST CALLVALUE DUP1 ISZERO PUSH2 0x947 JUMPI PUSH1 0x0 DUP1 REVERT JUMPDEST POP PUSH1 0x24 SLOAD PUSH2 0x607 SWAP1 PUSH1 0x1 PUSH1 0x1 PUSH1 0xA0 SHL SUB AND DUP2 JUMP JUMPDEST CALLVALUE DUP1 ISZERO PUSH2 0x967 JUMPI PUSH1 0x0 DUP1 REVERT JUMPDEST POP PUSH2 0x559 PUSH1 0x5 DUP2 JUMP JUMPDEST CALLVALUE DUP1 ISZERO PUSH2 0x97C JUMPI PUSH1 0x0 DUP1 REVERT JUMPDEST POP PUSH2 0x559 PUSH1 0x8 SLOAD DUP2 JUMP JUMPDEST CALLVALUE DUP1 ISZERO PUSH2 0x992 JUMPI PUSH1 0x0 DUP1 REVERT JUMPDEST POP PUSH2 0x9A6 PUSH2 0x9A1 CALLDATASIZE PUSH1 0x4 PUSH2 0x55F3 JUMP JUMPDEST PUSH2 0x2297 JUMP JUMPDEST PUSH1 0x40 MLOAD PUSH2 0x563 SWAP2 SWAP1 PUSH2 0x56BD JUMP JUMPDEST CALLVALUE DUP1 ISZERO PUSH2 0x9BF JUMPI PUSH1 0x0 DUP1 REVERT JUMPDEST POP PUSH2 0x559 PUSH1 0xD SLOAD DUP2 JUMP JUMPDEST CALLVALUE DUP1 ISZERO PUSH2 0x9D5 JUMPI PUSH1 0x0 DUP1 REVERT JUMPDEST POP PUSH1 0x10 SLOAD PUSH2 0x607 SWAP1 PUSH2 0x100 SWAP1 DIV PUSH1 0x1 PUSH1 0x1 PUSH1 0xA0 SHL SUB AND DUP2 JUMP JUMPDEST CALLVALUE DUP1 ISZERO PUSH2 0x9FA JUMPI PUSH1 0x0 DUP1 REVERT JUMPDEST POP PUSH2 0x607 PUSH2 0xA09 CALLDATASIZE PUSH1 0x4 PUSH2 0x525A JUMP JUMPDEST PUSH2 0x23C0 JUMP JUMPDEST CALLVALUE DUP1 ISZERO PUSH2 0xA1A JUMPI PUSH1 0x0 DUP1 REVERT JUMPDEST POP PUSH2 0x634 PUSH2 0xA29 CALLDATASIZE PUSH1 0x4 PUSH2 0x525A JUMP JUMPDEST PUSH2 0x23EA JUMP JUMPDEST CALLVALUE DUP1 ISZERO PUSH2 0xA3A JUMPI PUSH1 0x0 DUP1 REVERT JUMPDEST POP PUSH1 0x3 SLOAD PUSH1 0xFF AND PUSH2 0x58C JUMP JUMPDEST CALLVALUE DUP1 ISZERO PUSH2 0xA52 JUMPI PUSH1 0x0 DUP1 REVERT JUMPDEST POP PUSH2 0x634 PUSH2 0x2403 JUMP JUMPDEST CALLVALUE DUP1 ISZERO PUSH2 0xA67 JUMPI PUSH1 0x0 DUP1 REVERT JUMPDEST POP PUSH2 0x559 PUSH1 0x9 SLOAD DUP2 JUMP JUMPDEST CALLVALUE DUP1 ISZERO PUSH2 0xA7D JUMPI PUSH1 0x0 DUP1 REVERT JUMPDEST POP PUSH2 0x728 PUSH2 0xA8C CALLDATASIZE PUSH1 0x4 PUSH2 0x56D0 JUMP JUMPDEST PUSH2 0x2410 JUMP JUMPDEST CALLVALUE DUP1 ISZERO PUSH2 0xA9D JUMPI PUSH1 0x0 DUP1 REVERT JUMPDEST POP PUSH2 0x58C PUSH2 0xAAC CALLDATASIZE PUSH1 0x4 PUSH2 0x525A JUMP JUMPDEST PUSH1 0x2E PUSH1 0x20 MSTORE PUSH1 0x0 SWAP1 DUP2 MSTORE PUSH1 0x40 SWAP1 KECCAK256 SLOAD PUSH1 0xFF AND DUP2 JUMP JUMPDEST CALLVALUE DUP1 ISZERO PUSH2 0xACD JUMPI PUSH1 0x0 DUP1 REVERT JUMPDEST POP PUSH2 0x607 PUSH2 0xADC CALLDATASIZE PUSH1 0x4 PUSH2 0x525A JUMP JUMPDEST PUSH2 0x2480 JUMP JUMPDEST CALLVALUE DUP1 ISZERO PUSH2 0xAED JUMPI PUSH1 0x0 DUP1 REVERT JUMPDEST POP PUSH2 0x559 PUSH2 0xAFC CALLDATASIZE PUSH1 0x4 PUSH2 0x5593 JUMP JUMPDEST PUSH2 0x2490 JUMP JUMPDEST CALLVALUE DUP1 ISZERO PUSH2 0xB0D JUMPI PUSH1 0x0 DUP1 REVERT JUMPDEST POP PUSH2 0x559 PUSH2 0xB1C CALLDATASIZE PUSH1 0x4 PUSH2 0x5273 JUMP JUMPDEST PUSH1 0x2B PUSH1 0x20 MSTORE PUSH1 0x0 SWAP1 DUP2 MSTORE PUSH1 0x40 SWAP1 KECCAK256 SLOAD DUP2 JUMP JUMPDEST CALLVALUE DUP1 ISZERO PUSH2 0xB3A JUMPI PUSH1 0x0 DUP1 REVERT JUMPDEST POP PUSH1 0x7 SLOAD PUSH2 0x607 SWAP1 PUSH1 0x1 PUSH1 0x1 PUSH1 0xA0 SHL SUB AND DUP2 JUMP JUMPDEST CALLVALUE DUP1 ISZERO PUSH2 0xB5A JUMPI PUSH1 0x0 DUP1 REVERT JUMPDEST POP PUSH2 0x728 PUSH2 0x24A9 JUMP JUMPDEST CALLVALUE DUP1 ISZERO PUSH2 0xB6F JUMPI PUSH1 0x0 DUP1 REVERT JUMPDEST POP PUSH2 0x728 PUSH2 0x2568 JUMP JUMPDEST CALLVALUE DUP1 ISZERO PUSH2 0xB84 JUMPI PUSH1 0x0 DUP1 REVERT JUMPDEST POP PUSH2 0x634 PUSH2 0x25A2 JUMP JUMPDEST CALLVALUE DUP1 ISZERO PUSH2 0xB99 JUMPI PUSH1 0x0 DUP1 REVERT JUMPDEST POP PUSH2 0x559 PUSH1 0x17 SLOAD DUP2 JUMP JUMPDEST CALLVALUE DUP1 ISZERO PUSH2 0xBAF JUMPI PUSH1 0x0 DUP1 REVERT JUMPDEST POP PUSH2 0x559 PUSH2 0xBBE CALLDATASIZE PUSH1 0x4 PUSH2 0x525A JUMP JUMPDEST PUSH1 0x30 PUSH1 0x20 MSTORE PUSH1 0x0 SWAP1 DUP2 MSTORE PUSH1 0x40 SWAP1 KECCAK256 SLOAD DUP2 JUMP JUMPDEST CALLVALUE DUP1 ISZERO PUSH2 0xBDC JUMPI PUSH1 0x0 DUP1 REVERT JUMPDEST POP PUSH1 0x23 SLOAD PUSH2 0x607 SWAP1 PUSH1 0x1 PUSH1 0x1 PUSH1 0xA0 SHL SUB AND DUP2 JUMP JUMPDEST PUSH2 0x728 PUSH2 0xBFE CALLDATASIZE PUSH1 0x4 PUSH2 0x570C JUMP JUMPDEST PUSH2 0x25AF JUMP JUMPDEST CALLVALUE DUP1 ISZERO PUSH2 0xC0F JUMPI PUSH1 0x0 DUP1 REVERT JUMPDEST POP PUSH1 0x3 SLOAD PUSH2 0x100 SWAP1 DIV PUSH1 0x1 PUSH1 0x1 PUSH1 0xA0 SHL SUB AND PUSH2 0x607 JUMP JUMPDEST CALLVALUE DUP1 ISZERO PUSH2 0xC32 JUMPI PUSH1 0x0 DUP1 REVERT JUMPDEST POP PUSH2 0x634 PUSH2 0x27BF JUMP JUMPDEST CALLVALUE DUP1 ISZERO PUSH2 0xC47 JUMPI PUSH1 0x0 DUP1 REVERT JUMPDEST POP PUSH2 0x559 PUSH1 0x1C SLOAD DUP2 JUMP JUMPDEST CALLVALUE DUP1 ISZERO PUSH2 0xC5D JUMPI PUSH1 0x0 DUP1 REVERT JUMPDEST POP PUSH2 0x728 PUSH2 0xC6C CALLDATASIZE PUSH1 0x4 PUSH2 0x5593 JUMP JUMPDEST PUSH2 0x27CC JUMP JUMPDEST CALLVALUE DUP1 ISZERO PUSH2 0xC7D JUMPI PUSH1 0x0 DUP1 REVERT JUMPDEST POP PUSH2 0x728 PUSH2 0xC8C CALLDATASIZE PUSH1 0x4 PUSH2 0x57C6 JUMP JUMPDEST PUSH2 0x284E JUMP JUMPDEST CALLVALUE DUP1 ISZERO PUSH2 0xC9D JUMPI PUSH1 0x0 DUP1 REVERT JUMPDEST POP PUSH2 0x728 PUSH2 0xCAC CALLDATASIZE PUSH1 0x4 PUSH2 0x57FD JUMP JUMPDEST PUSH2 0x2859 JUMP JUMPDEST CALLVALUE DUP1 ISZERO PUSH2 0xCBD JUMPI PUSH1 0x0 DUP1 REVERT JUMPDEST POP PUSH2 0x559 PUSH1 0x1A SLOAD DUP2 JUMP JUMPDEST CALLVALUE DUP1 ISZERO PUSH2 0xCD3 JUMPI PUSH1 0x0 DUP1 REVERT JUMPDEST POP PUSH1 0x20 SLOAD PUSH2 0x559 JUMP JUMPDEST CALLVALUE DUP1 ISZERO PUSH2 0xCE8 JUMPI PUSH1 0x0 DUP1 REVERT JUMPDEST POP PUSH2 0x634 PUSH2 0xCF7 CALLDATASIZE PUSH1 0x4 PUSH2 0x525A JUMP JUMPDEST PUSH2 0x2EA6 JUMP JUMPDEST CALLVALUE DUP1 ISZERO PUSH2 0xD08 JUMPI PUSH1 0x0 DUP1 REVERT JUMPDEST POP PUSH2 0x559 PUSH1 0x1D SLOAD DUP2 JUMP JUMPDEST CALLVALUE DUP1 ISZERO PUSH2 0xD1E JUMPI PUSH1 0x0 DUP1 REVERT JUMPDEST POP PUSH2 0x634 PUSH2 0xD2D CALLDATASIZE PUSH1 0x4 PUSH2 0x5273 JUMP JUMPDEST PUSH2 0x2EBF JUMP JUMPDEST CALLVALUE DUP1 ISZERO PUSH2 0xD3E JUMPI PUSH1 0x0 DUP1 REVERT JUMPDEST POP PUSH1 0x38 SLOAD PUSH2 0x607 SWAP1 PUSH1 0x1 PUSH1 0x1 PUSH1 0xA0 SHL SUB AND DUP2 JUMP JUMPDEST CALLVALUE DUP1 ISZERO PUSH2 0xD5E JUMPI PUSH1 0x0 DUP1 REVERT JUMPDEST POP PUSH2 0x559 PUSH1 0xF SLOAD DUP2 JUMP JUMPDEST CALLVALUE DUP1 ISZERO PUSH2 0xD74 JUMPI PUSH1 0x0 DUP1 REVERT JUMPDEST POP PUSH2 0x559 PUSH1 0x19 DUP2 JUMP JUMPDEST CALLVALUE DUP1 ISZERO PUSH2 0xD89 JUMPI PUSH1 0x0 DUP1 REVERT JUMPDEST POP PUSH2 0x634 PUSH2 0x2ED8 JUMP JUMPDEST CALLVALUE DUP1 ISZERO PUSH2 0xD9E JUMPI PUSH1 0x0 DUP1 REVERT JUMPDEST POP PUSH2 0x728 PUSH2 0xDAD CALLDATASIZE PUSH1 0x4 PUSH2 0x5166 JUMP JUMPDEST PUSH2 0x2EE5 JUMP JUMPDEST CALLVALUE DUP1 ISZERO PUSH2 0xDBE JUMPI PUSH1 0x0 DUP1 REVERT JUMPDEST POP PUSH2 0x559 PUSH1 0x19 SLOAD DUP2 JUMP JUMPDEST CALLVALUE DUP1 ISZERO PUSH2 0xDD4 JUMPI PUSH1 0x0 DUP1 REVERT JUMPDEST POP PUSH2 0x728 PUSH2 0xDE3 CALLDATASIZE PUSH1 0x4 PUSH2 0x5593 JUMP JUMPDEST PUSH2 0x2FA2 JUMP JUMPDEST CALLVALUE DUP1 ISZERO PUSH2 0xDF4 JUMPI PUSH1 0x0 DUP1 REVERT JUMPDEST POP PUSH2 0x728 PUSH2 0xE03 CALLDATASIZE PUSH1 0x4 PUSH2 0x5273 JUMP JUMPDEST PUSH2 0x3063 JUMP JUMPDEST CALLVALUE DUP1 ISZERO PUSH2 0xE14 JUMPI PUSH1 0x0 DUP1 REVERT JUMPDEST POP PUSH2 0x607 PUSH2 0xE23 CALLDATASIZE PUSH1 0x4 PUSH2 0x525A JUMP JUMPDEST PUSH1 0x2C PUSH1 0x20 MSTORE PUSH1 0x0 SWAP1 DUP2 MSTORE PUSH1 0x40 SWAP1 KECCAK256 SLOAD PUSH1 0x1 PUSH1 0x1 PUSH1 0xA0 SHL SUB AND DUP2 JUMP JUMPDEST CALLVALUE DUP1 ISZERO PUSH2 0xE4A JUMPI PUSH1 0x0 DUP1 REVERT JUMPDEST POP PUSH2 0x559 PUSH2 0x3173 JUMP JUMPDEST CALLVALUE DUP1 ISZERO PUSH2 0xE5F JUMPI PUSH1 0x0 DUP1 REVERT JUMPDEST POP PUSH2 0x559 PUSH2 0xE6E CALLDATASIZE PUSH1 0x4 PUSH2 0x525A JUMP JUMPDEST PUSH1 0x2D PUSH1 0x20 MSTORE PUSH1 0x0 SWAP1 DUP2 MSTORE PUSH1 0x40 SWAP1 KECCAK256 SLOAD DUP2 JUMP JUMPDEST CALLVALUE DUP1 ISZERO PUSH2 0xE8C JUMPI PUSH1 0x0 DUP1 REVERT JUMPDEST POP PUSH1 0xE SLOAD PUSH2 0x58C SWAP1 PUSH1 0xFF AND DUP2 JUMP JUMPDEST CALLVALUE DUP1 ISZERO PUSH2 0xEA6 JUMPI PUSH1 0x0 DUP1 REVERT JUMPDEST POP PUSH2 0x58C PUSH2 0xEB5 CALLDATASIZE PUSH1 0x4 PUSH2 0x58DB JUMP JUMPDEST PUSH1 0x1 PUSH1 0x1 PUSH1 0xA0 SHL SUB SWAP2 DUP3 AND PUSH1 0x0 SWAP1 DUP2 MSTORE PUSH1 0x1 PUSH1 0x20 SWAP1 DUP2 MSTORE PUSH1 0x40 DUP1 DUP4 KECCAK256 SWAP4 SWAP1 SWAP5 AND DUP3 MSTORE SWAP2 SWAP1 SWAP2 MSTORE KECCAK256 SLOAD PUSH1 0xFF AND SWAP1 JUMP JUMPDEST CALLVALUE DUP1 ISZERO PUSH2 0xEEF JUMPI PUSH1 0x0 DUP1 REVERT JUMPDEST POP PUSH2 0x728 PUSH2 0x320E JUMP JUMPDEST CALLVALUE DUP1 ISZERO PUSH2 0xF04 JUMPI PUSH1 0x0 DUP1 REVERT JUMPDEST POP PUSH2 0xF0D PUSH2 0x32C5 JUMP JUMPDEST PUSH1 0x40 MLOAD PUSH2 0x563 SWAP2 SWAP1 PUSH2 0x5905 JUMP JUMPDEST CALLVALUE DUP1 ISZERO PUSH2 0xF26 JUMPI PUSH1 0x0 DUP1 REVERT JUMPDEST POP PUSH1 0x10 SLOAD PUSH2 0x58C SWAP1 PUSH1 0xFF AND DUP2 JUMP JUMPDEST CALLVALUE DUP1 ISZERO PUSH2 0xF40 JUMPI PUSH1 0x0 DUP1 REVERT JUMPDEST POP PUSH2 0x728 PUSH2 0xF4F CALLDATASIZE PUSH1 0x4 PUSH2 0x5918 JUMP JUMPDEST PUSH2 0x3391 JUMP JUMPDEST CALLVALUE DUP1 ISZERO PUSH2 0xF60 JUMPI PUSH1 0x0 DUP1 REVERT JUMPDEST POP PUSH2 0x559 PUSH2 0xF6F CALLDATASIZE PUSH1 0x4 PUSH2 0x51C3 JUMP JUMPDEST PUSH2 0x357E JUMP JUMPDEST CALLVALUE DUP1 ISZERO PUSH2 0xF80 JUMPI PUSH1 0x0 DUP1 REVERT JUMPDEST POP PUSH2 0x728 PUSH2 0xF8F CALLDATASIZE PUSH1 0x4 PUSH2 0x51C3 JUMP JUMPDEST PUSH2 0x360C JUMP JUMPDEST CALLVALUE DUP1 ISZERO PUSH2 0xFA0 JUMPI PUSH1 0x0 DUP1 REVERT JUMPDEST POP PUSH2 0x728 PUSH2 0xFAF CALLDATASIZE PUSH1 0x4 PUSH2 0x5935 JUMP JUMPDEST PUSH2 0x36AE JUMP JUMPDEST CALLVALUE DUP1 ISZERO PUSH2 0xFC0 JUMPI PUSH1 0x0 DUP1 REVERT JUMPDEST POP PUSH2 0x728 PUSH2 0xFCF CALLDATASIZE PUSH1 0x4 PUSH2 0x5273 JUMP JUMPDEST PUSH2 0x3800 JUMP JUMPDEST CALLVALUE DUP1 ISZERO PUSH2 0xFE0 JUMPI PUSH1 0x0 DUP1 REVERT JUMPDEST POP PUSH2 0x728 PUSH2 0x38A1 JUMP JUMPDEST CALLVALUE DUP1 ISZERO PUSH2 0xFF5 JUMPI PUSH1 0x0 DUP1 REVERT JUMPDEST POP PUSH2 0x559 PUSH2 0x39D4 JUMP JUMPDEST CALLVALUE DUP1 ISZERO PUSH2 0x100A JUMPI PUSH1 0x0 DUP1 REVERT JUMPDEST POP PUSH2 0x728 PUSH2 0x1019 CALLDATASIZE PUSH1 0x4 PUSH2 0x5999 JUMP JUMPDEST PUSH2 0x3A8A JUMP JUMPDEST PUSH1 0x0 PUSH1 0x1 PUSH1 0x1 PUSH1 0xA0 SHL SUB DUP4 AND PUSH2 0x108F JUMPI PUSH1 0x40 MLOAD PUSH3 0x461BCD PUSH1 0xE5 SHL DUP2 MSTORE PUSH1 0x20 PUSH1 0x4 DUP3 ADD MSTORE PUSH1 0x2B PUSH1 0x24 DUP3 ADD MSTORE PUSH32 0x455243313135353A2062616C616E636520717565727920666F7220746865207A PUSH1 0x44 DUP3 ADD MSTORE PUSH11 0x65726F2061646472657373 PUSH1 0xA8 SHL PUSH1 0x64 DUP3 ADD MSTORE PUSH1 0x84 ADD JUMPDEST PUSH1 0x40 MLOAD DUP1 SWAP2 SUB SWAP1 REVERT JUMPDEST POP PUSH1 0x0 DUP2 DUP2 MSTORE PUSH1 0x20 DUP2 DUP2 MSTORE PUSH1 0x40 DUP1 DUP4 KECCAK256 PUSH1 0x1 PUSH1 0x1 PUSH1 0xA0 SHL SUB DUP7 AND DUP5 MSTORE SWAP1 SWAP2 MSTORE SWAP1 KECCAK256 SLOAD JUMPDEST SWAP3 SWAP2 POP POP JUMP JUMPDEST PUSH1 0x0 PUSH1 0x1 PUSH1 0x1 PUSH1 0xE0 SHL SUB NOT DUP3 AND PUSH4 0x6CDB3D13 PUSH1 0xE1 SHL EQ DUP1 PUSH2 0x10E9 JUMPI POP PUSH1 0x1 PUSH1 0x1 PUSH1 0xE0 SHL SUB NOT DUP3 AND PUSH4 0x3A24D07 PUSH1 0xE2 SHL EQ JUMPDEST DUP1 PUSH2 0x10B2 JUMPI POP PUSH4 0x1FFC9A7 PUSH1 0xE0 SHL PUSH1 0x1 PUSH1 0x1 PUSH1 0xE0 SHL SUB NOT DUP4 AND EQ PUSH2 0x10B2 JUMP JUMPDEST PUSH1 0x0 PUSH2 0x1115 DUP5 DUP5 DUP5 PUSH2 0x3E24 JUMP JUMPDEST SWAP5 SWAP4 POP POP POP POP JUMP JUMPDEST PUSH1 0x0 DUP1 PUSH2 0x112B DUP6 DUP6 DUP6 PUSH2 0x3E24 JUMP JUMPDEST PUSH1 0x0 SWAP1 DUP2 MSTORE PUSH1 0x2C PUSH1 0x20 MSTORE PUSH1 0x40 SWAP1 KECCAK256 SLOAD PUSH1 0x1 PUSH1 0x1 PUSH1 0xA0 SHL SUB AND SWAP6 SWAP5 POP POP POP POP POP JUMP JUMPDEST PUSH1 0x13 DUP1 SLOAD PUSH2 0x1159 SWAP1 PUSH2 0x5A62 JUMP JUMPDEST DUP1 PUSH1 0x1F ADD PUSH1 0x20 DUP1 SWAP2 DIV MUL PUSH1 0x20 ADD PUSH1 0x40 MLOAD SWAP1 DUP2 ADD PUSH1 0x40 MSTORE DUP1 SWAP3 SWAP2 SWAP1 DUP2 DUP2 MSTORE PUSH1 0x20 ADD DUP3 DUP1 SLOAD PUSH2 0x1185 SWAP1 PUSH2 0x5A62 JUMP JUMPDEST DUP1 ISZERO PUSH2 0x11D2 JUMPI DUP1 PUSH1 0x1F LT PUSH2 0x11A7 JUMPI PUSH2 0x100 DUP1 DUP4 SLOAD DIV MUL DUP4 MSTORE SWAP2 PUSH1 0x20 ADD SWAP2 PUSH2 0x11D2 JUMP JUMPDEST DUP3 ADD SWAP2 SWAP1 PUSH1 0x0 MSTORE PUSH1 0x20 PUSH1 0x0 KECCAK256 SWAP1 JUMPDEST DUP2 SLOAD DUP2 MSTORE SWAP1 PUSH1 0x1 ADD SWAP1 PUSH1 0x20 ADD DUP1 DUP4 GT PUSH2 0x11B5 JUMPI DUP3 SWAP1 SUB PUSH1 0x1F AND DUP3 ADD SWAP2 JUMPDEST POP POP POP POP POP DUP2 JUMP JUMPDEST PUSH1 0x20 DUP2 DUP2 SLOAD DUP2 LT PUSH2 0x11EA JUMPI PUSH1 0x0 DUP1 REVERT JUMPDEST PUSH1 0x0 SWAP2 DUP3 MSTORE PUSH1 0x20 SWAP1 SWAP2 KECCAK256 ADD SLOAD SWAP1 POP DUP2 JUMP JUMPDEST PUSH1 0x60 PUSH1 0x2 DUP1 SLOAD PUSH2 0x120A SWAP1 PUSH2 0x5A62 JUMP JUMPDEST DUP1 PUSH1 0x1F ADD PUSH1 0x20 DUP1 SWAP2 DIV MUL PUSH1 0x20 ADD PUSH1 0x40 MLOAD SWAP1 DUP2 ADD PUSH1 0x40 MSTORE DUP1 SWAP3 SWAP2 SWAP1 DUP2 DUP2 MSTORE PUSH1 0x20 ADD DUP3 DUP1 SLOAD PUSH2 0x1236 SWAP1 PUSH2 0x5A62 JUMP JUMPDEST DUP1 ISZERO PUSH2 0x1283 JUMPI DUP1 PUSH1 0x1F LT PUSH2 0x1258 JUMPI PUSH2 0x100 DUP1 DUP4 SLOAD DIV MUL DUP4 MSTORE SWAP2 PUSH1 0x20 ADD SWAP2 PUSH2 0x1283 JUMP JUMPDEST DUP3 ADD SWAP2 SWAP1 PUSH1 0x0 MSTORE PUSH1 0x20 PUSH1 0x0 KECCAK256 SWAP1 JUMPDEST DUP2 SLOAD DUP2 MSTORE SWAP1 PUSH1 0x1 ADD SWAP1 PUSH1 0x20 ADD DUP1 DUP4 GT PUSH2 0x1266 JUMPI DUP3 SWAP1 SUB PUSH1 0x1F AND DUP3 ADD SWAP2 JUMPDEST POP POP POP POP POP SWAP1 POP SWAP2 SWAP1 POP JUMP JUMPDEST PUSH1 0x60 DUP1 PUSH1 0x0 PUSH1 0x20 DUP1 SLOAD SWAP1 POP PUSH1 0x1 PUSH1 0x1 PUSH1 0x40 SHL SUB DUP2 GT ISZERO PUSH2 0x12B1 JUMPI PUSH2 0x12B1 PUSH2 0x5366 JUMP JUMPDEST PUSH1 0x40 MLOAD SWAP1 DUP1 DUP3 MSTORE DUP1 PUSH1 0x20 MUL PUSH1 0x20 ADD DUP3 ADD PUSH1 0x40 MSTORE DUP1 ISZERO PUSH2 0x12DA JUMPI DUP2 PUSH1 0x20 ADD PUSH1 0x20 DUP3 MUL DUP1 CALLDATASIZE DUP4 CALLDATACOPY ADD SWAP1 POP JUMPDEST POP PUSH1 0x20 SLOAD SWAP1 SWAP2 POP PUSH1 0x0 SWAP1 PUSH1 0x1 PUSH1 0x1 PUSH1 0x40 SHL SUB DUP2 GT ISZERO PUSH2 0x12FB JUMPI PUSH2 0x12FB PUSH2 0x5366 JUMP JUMPDEST PUSH1 0x40 MLOAD SWAP1 DUP1 DUP3 MSTORE DUP1 PUSH1 0x20 MUL PUSH1 0x20 ADD DUP3 ADD PUSH1 0x40 MSTORE DUP1 ISZERO PUSH2 0x1324 JUMPI DUP2 PUSH1 0x20 ADD PUSH1 0x20 DUP3 MUL DUP1 CALLDATASIZE DUP4 CALLDATACOPY ADD SWAP1 POP JUMPDEST POP SWAP1 POP PUSH1 0x0 JUMPDEST PUSH1 0x20 SLOAD DUP2 LT ISZERO PUSH2 0x13F0 JUMPI PUSH1 0x20 DUP2 DUP2 SLOAD DUP2 LT PUSH2 0x1347 JUMPI PUSH2 0x1347 PUSH2 0x5106 JUMP JUMPDEST SWAP1 PUSH1 0x0 MSTORE PUSH1 0x20 PUSH1 0x0 KECCAK256 ADD SLOAD DUP4 DUP3 DUP2 MLOAD DUP2 LT PUSH2 0x1364 JUMPI PUSH2 0x1364 PUSH2 0x5106 JUMP JUMPDEST PUSH1 0x20 MUL PUSH1 0x20 ADD ADD DUP2 DUP2 MSTORE POP POP PUSH1 0x2C PUSH1 0x0 PUSH1 0x20 DUP4 DUP2 SLOAD DUP2 LT PUSH2 0x1387 JUMPI PUSH2 0x1387 PUSH2 0x5106 JUMP JUMPDEST SWAP1 PUSH1 0x0 MSTORE PUSH1 0x20 PUSH1 0x0 KECCAK256 ADD SLOAD DUP2 MSTORE PUSH1 0x20 ADD SWAP1 DUP2 MSTORE PUSH1 0x20 ADD PUSH1 0x0 KECCAK256 PUSH1 0x0 SWAP1 SLOAD SWAP1 PUSH2 0x100 EXP SWAP1 DIV PUSH1 0x1 PUSH1 0x1 PUSH1 0xA0 SHL SUB AND DUP3 DUP3 DUP2 MLOAD DUP2 LT PUSH2 0x13C6 JUMPI PUSH2 0x13C6 PUSH2 0x5106 JUMP JUMPDEST PUSH1 0x1 PUSH1 0x1 PUSH1 0xA0 SHL SUB SWAP1 SWAP3 AND PUSH1 0x20 SWAP3 DUP4 MUL SWAP2 SWAP1 SWAP2 ADD SWAP1 SWAP2 ADD MSTORE DUP1 PUSH2 0x13E8 DUP2 PUSH2 0x5A97 JUMP JUMPDEST SWAP2 POP POP PUSH2 0x132A JUMP JUMPDEST POP SWAP1 SWAP4 SWAP1 SWAP3 POP SWAP1 POP JUMP JUMPDEST PUSH1 0x3 SLOAD PUSH1 0x1 PUSH1 0x1 PUSH1 0xA0 SHL SUB PUSH2 0x100 SWAP1 SWAP2 DIV AND CALLER EQ PUSH2 0x142A JUMPI PUSH1 0x40 MLOAD PUSH3 0x461BCD PUSH1 0xE5 SHL DUP2 MSTORE PUSH1 0x4 ADD PUSH2 0x1086 SWAP1 PUSH2 0x5AB2 JUMP JUMPDEST PUSH1 0x3 SLOAD PUSH1 0xFF AND ISZERO PUSH2 0x143F JUMPI PUSH2 0x143D PUSH2 0x3EE9 JUMP JUMPDEST JUMP JUMPDEST PUSH2 0x143D PUSH2 0x3F7C JUMP JUMPDEST PUSH1 0x3 SLOAD PUSH1 0xFF AND ISZERO PUSH2 0x146A JUMPI PUSH1 0x40 MLOAD PUSH3 0x461BCD PUSH1 0xE5 SHL DUP2 MSTORE PUSH1 0x4 ADD PUSH2 0x1086 SWAP1 PUSH2 0x5AE7 JUMP JUMPDEST PUSH1 0x1E PUSH2 0x1478 PUSH1 0x1F SLOAD TIMESTAMP PUSH2 0x3FD4 JUMP JUMPDEST LT ISZERO PUSH2 0x14AC JUMPI PUSH1 0x40 MLOAD PUSH3 0x461BCD PUSH1 0xE5 SHL DUP2 MSTORE PUSH1 0x20 PUSH1 0x4 DUP3 ADD MSTORE PUSH1 0x3 PUSH1 0x24 DUP3 ADD MSTORE PUSH3 0x653133 PUSH1 0xE8 SHL PUSH1 0x44 DUP3 ADD MSTORE PUSH1 0x64 ADD PUSH2 0x1086 JUMP JUMPDEST PUSH1 0x0 PUSH2 0x14B6 PUSH2 0x3173 JUMP JUMPDEST PUSH1 0x38 SLOAD PUSH1 0x1 PUSH1 0x1 PUSH1 0xA0 SHL SUB AND PUSH1 0x0 SWAP1 DUP2 MSTORE PUSH1 0x37 PUSH1 0x20 MSTORE PUSH1 0x40 SWAP1 KECCAK256 SLOAD SWAP1 SWAP2 POP DUP2 GT ISZERO PUSH2 0x1509 JUMPI PUSH1 0x40 MLOAD PUSH3 0x461BCD PUSH1 0xE5 SHL DUP2 MSTORE PUSH1 0x20 PUSH1 0x4 DUP3 ADD MSTORE PUSH1 0x3 PUSH1 0x24 DUP3 ADD MSTORE PUSH3 0x194C4D PUSH1 0xEA SHL PUSH1 0x44 DUP3 ADD MSTORE PUSH1 0x64 ADD PUSH2 0x1086 JUMP JUMPDEST PUSH1 0x7 SLOAD PUSH1 0x38 SLOAD PUSH1 0x1 PUSH1 0x1 PUSH1 0xA0 SHL SUB SWAP1 DUP2 AND SWAP2 AND EQ PUSH2 0x15A5 JUMPI PUSH1 0x38 SLOAD PUSH1 0x7 SLOAD PUSH1 0x40 MLOAD PUSH1 0x1 PUSH1 0x1 PUSH1 0xA0 SHL SUB SWAP3 DUP4 AND SWAP3 SWAP1 SWAP2 AND SWAP1 PUSH32 0xE70739823D1A1030055333E7BB502F88B41F9631ED3C87A09811FDB1A4ED0F83 SWAP1 PUSH1 0x0 SWAP1 LOG3 PUSH1 0x38 SLOAD PUSH1 0x7 DUP1 SLOAD PUSH1 0x1 PUSH1 0x1 PUSH1 0xA0 SHL SUB NOT AND PUSH1 0x1 PUSH1 0x1 PUSH1 0xA0 SHL SUB SWAP1 SWAP3 AND SWAP2 DUP3 OR SWAP1 SSTORE PUSH1 0x9 SLOAD PUSH1 0x8 SSTORE PUSH1 0x40 DUP1 MLOAD PUSH1 0x20 DUP2 ADD SWAP1 SWAP2 MSTORE PUSH1 0x0 DUP2 MSTORE PUSH2 0x15A5 SWAP2 SWAP1 PUSH1 0x1 SWAP1 DUP2 SWAP1 PUSH2 0x3FFB JUMP JUMPDEST PUSH1 0x1 JUMPDEST PUSH1 0x3 DUP2 GT PUSH2 0x19DC JUMPI PUSH2 0x15B8 PUSH2 0x4FFA JUMP JUMPDEST PUSH1 0x0 DUP3 DUP2 MSTORE PUSH1 0x3A PUSH1 0x20 SWAP1 DUP2 MSTORE PUSH1 0x40 DUP1 DUP4 KECCAK256 DUP4 DUP1 MSTORE DUP1 DUP4 MSTORE DUP2 DUP5 KECCAK256 SLOAD DUP6 MSTORE PUSH1 0x1 DUP1 DUP6 MSTORE DUP2 DUP5 MSTORE DUP3 DUP6 KECCAK256 SLOAD DUP7 DUP6 ADD MSTORE PUSH1 0x2 DUP6 MSTORE DUP2 DUP5 MSTORE DUP3 DUP6 KECCAK256 SLOAD DUP7 DUP5 ADD MSTORE PUSH1 0x3 DUP6 MSTORE DUP2 DUP5 MSTORE DUP3 DUP6 KECCAK256 SLOAD PUSH1 0x60 DUP8 ADD MSTORE PUSH1 0x4 DUP6 MSTORE SWAP3 MSTORE DUP3 KECCAK256 SLOAD PUSH1 0x80 DUP5 ADD DUP2 SWAP1 MSTORE DUP4 MLOAD PUSH2 0x1640 SWAP3 PUSH2 0xAFC SWAP2 PUSH2 0x162F SWAP2 DUP8 SWAP1 JUMPDEST PUSH1 0x20 MUL ADD MLOAD PUSH2 0x2490 JUMP JUMPDEST PUSH1 0x40 DUP7 ADD MLOAD PUSH2 0xAFC SWAP1 DUP8 PUSH1 0x3 PUSH2 0x1625 JUMP JUMPDEST DUP3 MLOAD SWAP1 SWAP2 POP DUP2 EQ ISZERO PUSH2 0x167F JUMPI PUSH1 0x0 JUMPDEST PUSH1 0x40 MLOAD DUP5 SWAP1 PUSH32 0x6F235CA67A520AA7BBE234E1490553D4DD8FC8F277D1E70E2F2E8B847858AE11 SWAP1 PUSH1 0x0 SWAP1 LOG3 PUSH2 0x1967 JUMP JUMPDEST PUSH1 0x20 DUP3 ADD MLOAD DUP2 EQ ISZERO PUSH2 0x1733 JUMPI PUSH1 0x0 PUSH1 0x2A PUSH1 0x0 PUSH1 0x25 DUP7 PUSH1 0x5 DUP2 LT PUSH2 0x16A4 JUMPI PUSH2 0x16A4 PUSH2 0x5106 JUMP JUMPDEST ADD SLOAD PUSH1 0x1 PUSH1 0x1 PUSH1 0xA0 SHL SUB AND DUP2 MSTORE PUSH1 0x20 DUP2 ADD SWAP2 SWAP1 SWAP2 MSTORE PUSH1 0x40 ADD PUSH1 0x0 SWAP1 DUP2 KECCAK256 SLOAD SWAP2 POP PUSH1 0x2A DUP2 PUSH1 0x25 DUP8 PUSH1 0x5 DUP2 LT PUSH2 0x16DA JUMPI PUSH2 0x16DA PUSH2 0x5106 JUMP JUMPDEST ADD SLOAD PUSH1 0x1 PUSH1 0x1 PUSH1 0xA0 SHL SUB AND DUP2 MSTORE PUSH1 0x20 DUP2 ADD SWAP2 SWAP1 SWAP2 MSTORE PUSH1 0x40 ADD PUSH1 0x0 KECCAK256 SSTORE PUSH2 0x16FF DUP2 PUSH2 0x410B JUMP JUMPDEST PUSH1 0x1 JUMPDEST PUSH1 0x40 MLOAD DUP6 SWAP1 PUSH32 0x6F235CA67A520AA7BBE234E1490553D4DD8FC8F277D1E70E2F2E8B847858AE11 SWAP1 PUSH1 0x0 SWAP1 LOG3 POP PUSH2 0x1967 JUMP JUMPDEST PUSH1 0x40 DUP3 ADD MLOAD DUP2 EQ ISZERO PUSH2 0x17BA JUMPI PUSH1 0x0 PUSH1 0x2A PUSH1 0x0 PUSH1 0x25 DUP7 PUSH1 0x5 DUP2 LT PUSH2 0x1758 JUMPI PUSH2 0x1758 PUSH2 0x5106 JUMP JUMPDEST ADD SLOAD PUSH1 0x1 PUSH1 0x1 PUSH1 0xA0 SHL SUB AND DUP2 MSTORE PUSH1 0x20 DUP2 ADD SWAP2 SWAP1 SWAP2 MSTORE PUSH1 0x40 ADD PUSH1 0x0 SWAP1 DUP2 KECCAK256 SLOAD SWAP2 POP PUSH1 0x2A DUP2 PUSH1 0x25 DUP8 PUSH1 0x5 DUP2 LT PUSH2 0x178E JUMPI PUSH2 0x178E PUSH2 0x5106 JUMP JUMPDEST ADD SLOAD PUSH1 0x1 PUSH1 0x1 PUSH1 0xA0 SHL SUB AND DUP2 MSTORE PUSH1 0x20 DUP2 ADD SWAP2 SWAP1 SWAP2 MSTORE PUSH1 0x40 ADD PUSH1 0x0 KECCAK256 SSTORE PUSH2 0x17B3 DUP2 PUSH2 0x41E9 JUMP JUMPDEST PUSH1 0x2 PUSH2 0x1702 JUMP JUMPDEST PUSH1 0x60 DUP3 ADD MLOAD DUP2 EQ ISZERO PUSH2 0x1872 JUMPI PUSH1 0x2A PUSH1 0x0 PUSH1 0x25 DUP6 PUSH1 0x5 DUP2 LT PUSH2 0x17DD JUMPI PUSH2 0x17DD PUSH2 0x5106 JUMP JUMPDEST ADD SLOAD PUSH1 0x1 PUSH1 0x1 PUSH1 0xA0 SHL SUB SWAP1 DUP2 AND DUP3 MSTORE PUSH1 0x20 DUP1 DUP4 ADD SWAP4 SWAP1 SWAP4 MSTORE PUSH1 0x40 SWAP2 DUP3 ADD PUSH1 0x0 SWAP1 DUP2 KECCAK256 SLOAD PUSH1 0x29 SLOAD SWAP1 SWAP3 AND DUP2 MSTORE PUSH1 0x2A SWAP1 SWAP4 MSTORE SWAP2 KECCAK256 SLOAD PUSH2 0x181A SWAP2 SWAP1 PUSH2 0x5132 JUMP JUMPDEST PUSH1 0x29 SLOAD PUSH1 0x1 PUSH1 0x1 PUSH1 0xA0 SHL SUB AND PUSH1 0x0 SWAP1 DUP2 MSTORE PUSH1 0x2A PUSH1 0x20 DUP2 SWAP1 MSTORE PUSH1 0x40 DUP3 KECCAK256 SWAP3 SWAP1 SWAP3 SSTORE SWAP1 DUP2 PUSH1 0x25 DUP7 PUSH1 0x5 DUP2 LT PUSH2 0x184F JUMPI PUSH2 0x184F PUSH2 0x5106 JUMP JUMPDEST ADD SLOAD PUSH1 0x1 PUSH1 0x1 PUSH1 0xA0 SHL SUB AND DUP2 MSTORE PUSH1 0x20 DUP2 ADD SWAP2 SWAP1 SWAP2 MSTORE PUSH1 0x40 ADD PUSH1 0x0 KECCAK256 SSTORE PUSH1 0x3 PUSH2 0x164F JUMP JUMPDEST PUSH1 0x80 DUP3 ADD MLOAD DUP2 EQ ISZERO PUSH2 0x1967 JUMPI PUSH1 0x7 SLOAD PUSH1 0x1 PUSH1 0x1 PUSH1 0xA0 SHL SUB AND ISZERO PUSH2 0x1967 JUMPI PUSH1 0x0 PUSH1 0x2A PUSH1 0x0 PUSH1 0x25 DUP7 PUSH1 0x5 DUP2 LT PUSH2 0x18A8 JUMPI PUSH2 0x18A8 PUSH2 0x5106 JUMP JUMPDEST ADD SLOAD PUSH1 0x1 PUSH1 0x1 PUSH1 0xA0 SHL SUB AND DUP2 MSTORE PUSH1 0x20 DUP2 ADD SWAP2 SWAP1 SWAP2 MSTORE PUSH1 0x40 ADD PUSH1 0x0 SWAP1 DUP2 KECCAK256 SLOAD SWAP2 POP PUSH1 0x2A DUP2 PUSH1 0x25 DUP8 PUSH1 0x5 DUP2 LT PUSH2 0x18DE JUMPI PUSH2 0x18DE PUSH2 0x5106 JUMP JUMPDEST ADD SLOAD PUSH1 0x1 PUSH1 0x1 PUSH1 0xA0 SHL SUB SWAP1 DUP2 AND DUP3 MSTORE PUSH1 0x20 DUP1 DUP4 ADD SWAP4 SWAP1 SWAP4 MSTORE PUSH1 0x40 SWAP2 DUP3 ADD PUSH1 0x0 SWAP1 DUP2 KECCAK256 SWAP5 SWAP1 SWAP5 SSTORE PUSH1 0x7 SLOAD AND DUP4 MSTORE PUSH1 0x2A SWAP1 SWAP2 MSTORE SWAP1 KECCAK256 SLOAD PUSH2 0x191D SWAP1 DUP3 SWAP1 PUSH2 0x5132 JUMP JUMPDEST PUSH1 0x7 SLOAD PUSH1 0x1 PUSH1 0x1 PUSH1 0xA0 SHL SUB AND PUSH1 0x0 SWAP1 DUP2 MSTORE PUSH1 0x2A PUSH1 0x20 MSTORE PUSH1 0x40 SWAP1 KECCAK256 SSTORE PUSH1 0x4 PUSH1 0x40 MLOAD DUP6 SWAP1 PUSH32 0x6F235CA67A520AA7BBE234E1490553D4DD8FC8F277D1E70E2F2E8B847858AE11 SWAP1 PUSH1 0x0 SWAP1 LOG3 POP JUMPDEST PUSH1 0x29 SLOAD PUSH1 0x1 PUSH1 0x1 PUSH1 0xA0 SHL SUB SWAP1 DUP2 AND PUSH1 0x0 SWAP1 DUP2 MSTORE PUSH1 0x2A PUSH1 0x20 MSTORE PUSH1 0x40 DUP1 DUP3 KECCAK256 SLOAD PUSH1 0x24 SLOAD SWAP1 SWAP4 AND DUP3 MSTORE SWAP1 KECCAK256 SLOAD PUSH2 0x199A SWAP2 SWAP1 PUSH2 0x5132 JUMP JUMPDEST PUSH1 0x24 SLOAD PUSH1 0x1 PUSH1 0x1 PUSH1 0xA0 SHL SUB SWAP1 DUP2 AND PUSH1 0x0 SWAP1 DUP2 MSTORE PUSH1 0x2A PUSH1 0x20 MSTORE PUSH1 0x40 DUP1 DUP3 KECCAK256 SWAP4 SWAP1 SWAP4 SSTORE PUSH1 0x29 SLOAD SWAP1 SWAP2 AND DUP2 MSTORE SWAP1 DUP2 KECCAK256 SSTORE POP DUP2 SWAP1 POP PUSH2 0x19D4 DUP2 PUSH2 0x5A97 JUMP JUMPDEST SWAP2 POP POP PUSH2 0x15A8 JUMP JUMPDEST POP POP TIMESTAMP PUSH1 0x1F SSTORE JUMP JUMPDEST PUSH1 0x25 DUP2 PUSH1 0x5 DUP2 LT PUSH2 0x19F4 JUMPI PUSH1 0x0 DUP1 REVERT JUMPDEST ADD SLOAD PUSH1 0x1 PUSH1 0x1 PUSH1 0xA0 SHL SUB AND SWAP1 POP DUP2 JUMP JUMPDEST PUSH1 0x11 DUP1 SLOAD PUSH2 0x1159 SWAP1 PUSH2 0x5A62 JUMP JUMPDEST PUSH1 0x3 SLOAD PUSH1 0xFF AND ISZERO PUSH2 0x1A34 JUMPI PUSH1 0x40 MLOAD PUSH3 0x461BCD PUSH1 0xE5 SHL DUP2 MSTORE PUSH1 0x4 ADD PUSH2 0x1086 SWAP1 PUSH2 0x5AE7 JUMP JUMPDEST DUP3 ISZERO DUP1 PUSH2 0x1A41 JUMPI POP PUSH1 0xC DUP4 GT JUMPDEST ISZERO PUSH2 0x1A73 JUMPI PUSH1 0x40 MLOAD PUSH3 0x461BCD PUSH1 0xE5 SHL DUP2 MSTORE PUSH1 0x20 PUSH1 0x4 DUP3 ADD MSTORE PUSH1 0x2 PUSH1 0x24 DUP3 ADD MSTORE PUSH2 0x6533 PUSH1 0xF0 SHL PUSH1 0x44 DUP3 ADD MSTORE PUSH1 0x64 ADD PUSH2 0x1086 JUMP JUMPDEST DUP2 ISZERO DUP1 PUSH2 0x1A80 JUMPI POP PUSH1 0x1F DUP3 GT JUMPDEST ISZERO PUSH2 0x1AB2 JUMPI PUSH1 0x40 MLOAD PUSH3 0x461BCD PUSH1 0xE5 SHL DUP2 MSTORE PUSH1 0x20 PUSH1 0x4 DUP3 ADD MSTORE PUSH1 0x2 PUSH1 0x24 DUP3 ADD MSTORE PUSH2 0x194D PUSH1 0xF2 SHL PUSH1 0x44 DUP3 ADD MSTORE PUSH1 0x64 ADD PUSH2 0x1086 JUMP JUMPDEST DUP3 PUSH1 0x4 EQ DUP1 PUSH2 0x1AC1 JUMPI POP DUP3 PUSH1 0x6 EQ JUMPDEST DUP1 PUSH2 0x1ACC JUMPI POP DUP3 PUSH1 0x9 EQ JUMPDEST DUP1 PUSH2 0x1AD7 JUMPI POP DUP3 PUSH1 0xB EQ JUMPDEST DUP1 ISZERO PUSH2 0x1AE3 JUMPI POP PUSH1 0x1E DUP3 GT JUMPDEST DUP1 PUSH2 0x1B09 JUMPI POP DUP3 PUSH1 0x2 EQ DUP1 ISZERO PUSH2 0x1AFD JUMPI POP PUSH2 0x1AFD DUP5 PUSH2 0x3E3F JUMP JUMPDEST DUP1 ISZERO PUSH2 0x1B09 JUMPI POP PUSH1 0x1D DUP3 GT JUMPDEST DUP1 PUSH2 0x1B31 JUMPI POP DUP3 PUSH1 0x2 EQ DUP1 ISZERO PUSH2 0x1B25 JUMPI POP PUSH2 0x1B23 DUP5 PUSH2 0x3E3F JUMP JUMPDEST ISZERO JUMPDEST DUP1 ISZERO PUSH2 0x1B31 JUMPI POP PUSH1 0x1C DUP3 GT JUMPDEST ISZERO PUSH2 0x1B59 JUMPI PUSH1 0x40 MLOAD PUSH4 0x24E2BA21 PUSH1 0xE1 SHL DUP2 MSTORE PUSH1 0x4 DUP2 ADD DUP5 SWAP1 MSTORE PUSH1 0x24 DUP2 ADD DUP4 SWAP1 MSTORE PUSH1 0x44 ADD PUSH2 0x1086 JUMP JUMPDEST PUSH1 0x0 PUSH2 0x1B66 DUP6 DUP6 DUP6 PUSH2 0x3E24 JUMP JUMPDEST SWAP1 POP TIMESTAMP DUP2 GT ISZERO DUP1 ISZERO PUSH2 0x1B7A JUMPI POP PUSH1 0x1D SLOAD DUP2 LT ISZERO JUMPDEST PUSH2 0x1BAB JUMPI PUSH1 0x40 MLOAD PUSH3 0x461BCD PUSH1 0xE5 SHL DUP2 MSTORE PUSH1 0x20 PUSH1 0x4 DUP3 ADD MSTORE PUSH1 0x2 PUSH1 0x24 DUP3 ADD MSTORE PUSH2 0x6535 PUSH1 0xF0 SHL PUSH1 0x44 DUP3 ADD MSTORE PUSH1 0x64 ADD PUSH2 0x1086 JUMP JUMPDEST PUSH1 0x0 DUP2 DUP2 MSTORE PUSH1 0x2C PUSH1 0x20 MSTORE PUSH1 0x40 SWAP1 KECCAK256 SLOAD PUSH1 0x1 PUSH1 0x1 PUSH1 0xA0 SHL SUB AND ISZERO PUSH2 0x1BF5 JUMPI PUSH1 0x40 MLOAD PUSH3 0x461BCD PUSH1 0xE5 SHL DUP2 MSTORE PUSH1 0x20 PUSH1 0x4 DUP3 ADD MSTORE PUSH1 0x2 PUSH1 0x24 DUP3 ADD MSTORE PUSH2 0x329B PUSH1 0xF1 SHL PUSH1 0x44 DUP3 ADD MSTORE PUSH1 0x64 ADD PUSH2 0x1086 JUMP JUMPDEST PUSH1 0x1 PUSH1 0x1 PUSH1 0xA0 SHL SUB DUP3 AND PUSH2 0x1C07 JUMPI CALLER SWAP2 POP JUMPDEST PUSH1 0xE SLOAD PUSH1 0x0 SWAP1 PUSH1 0xFF AND DUP1 ISZERO PUSH2 0x1C2C JUMPI POP CALLER PUSH1 0x0 SWAP1 DUP2 MSTORE PUSH1 0x2F PUSH1 0x20 MSTORE PUSH1 0x40 SWAP1 KECCAK256 SLOAD PUSH1 0xFF AND ISZERO JUMPDEST ISZERO PUSH2 0x1C57 JUMPI CALLER PUSH1 0x0 SWAP1 DUP2 MSTORE PUSH1 0x2B PUSH1 0x20 MSTORE PUSH1 0x40 DUP2 KECCAK256 DUP1 SLOAD PUSH1 0x1 SWAP3 SWAP1 PUSH2 0x1C51 SWAP1 DUP5 SWAP1 PUSH2 0x5132 JUMP JUMPDEST SWAP1 SWAP2 SSTORE POP POP JUMPDEST CALLER PUSH1 0x0 SWAP1 DUP2 MSTORE PUSH1 0x2B PUSH1 0x20 MSTORE PUSH1 0x40 SWAP1 KECCAK256 SLOAD ISZERO PUSH2 0x1D5B JUMPI POP CALLER PUSH1 0x0 SWAP1 DUP2 MSTORE PUSH1 0x2B PUSH1 0x20 MSTORE PUSH1 0x40 SWAP1 KECCAK256 SLOAD PUSH1 0x1 SWAP1 PUSH2 0x1C8B SWAP1 DUP3 SWAP1 PUSH2 0x5B11 JUMP JUMPDEST CALLER PUSH1 0x0 SWAP1 DUP2 MSTORE PUSH1 0x2B PUSH1 0x20 MSTORE PUSH1 0x40 SWAP1 KECCAK256 SSTORE PUSH1 0xF SLOAD ISZERO PUSH2 0x1D5B JUMPI PUSH1 0x1 PUSH1 0xF SLOAD PUSH2 0x1CB2 SWAP2 SWAP1 PUSH2 0x5B11 JUMP JUMPDEST PUSH1 0xF SSTORE PUSH1 0x0 DUP3 DUP2 MSTORE PUSH1 0x2E PUSH1 0x20 SWAP1 DUP2 MSTORE PUSH1 0x40 DUP1 DUP4 KECCAK256 DUP1 SLOAD PUSH1 0x1 PUSH1 0xFF NOT SWAP2 DUP3 AND DUP2 OR SWAP1 SWAP3 SSTORE CALLER DUP1 DUP7 MSTORE PUSH1 0x2F SWAP1 SWAP5 MSTORE SWAP2 DUP5 KECCAK256 DUP1 SLOAD SWAP1 SWAP3 AND DUP2 OR SWAP1 SWAP2 SSTORE PUSH1 0x31 DUP1 SLOAD DUP1 DUP4 ADD DUP3 SSTORE SWAP4 DUP2 SWAP1 MSTORE PUSH32 0xC54045FA7C6EC765E825DF7F9E9BF9DEC12C5CEF146F93A5EEE56772EE647FBC SWAP1 SWAP4 ADD DUP1 SLOAD PUSH1 0x1 PUSH1 0x1 PUSH1 0xA0 SHL SUB NOT AND SWAP1 SWAP3 OR SWAP1 SWAP2 SSTORE SWAP1 SLOAD PUSH2 0x1D3A SWAP2 SWAP1 PUSH2 0x5B11 JUMP JUMPDEST PUSH1 0x0 DUP4 DUP2 MSTORE PUSH1 0x30 PUSH1 0x20 MSTORE PUSH1 0x40 SWAP1 KECCAK256 SSTORE PUSH1 0xF SLOAD PUSH2 0x1D5B JUMPI PUSH1 0xE DUP1 SLOAD PUSH1 0xFF NOT AND SWAP1 SSTORE JUMPDEST DUP1 PUSH2 0x202C JUMPI PUSH2 0x1D68 PUSH2 0x39D4 JUMP JUMPDEST CALLVALUE LT ISZERO PUSH2 0x1D9C JUMPI PUSH1 0x40 MLOAD PUSH3 0x461BCD PUSH1 0xE5 SHL DUP2 MSTORE PUSH1 0x20 PUSH1 0x4 DUP3 ADD MSTORE PUSH1 0x2 PUSH1 0x24 DUP3 ADD MSTORE PUSH2 0x6537 PUSH1 0xF0 SHL PUSH1 0x44 DUP3 ADD MSTORE PUSH1 0x64 ADD PUSH2 0x1086 JUMP JUMPDEST PUSH1 0x0 PUSH1 0x64 PUSH2 0x1DAB PUSH1 0x5 CALLVALUE PUSH2 0x5B28 JUMP JUMPDEST PUSH2 0x1DB5 SWAP2 SWAP1 PUSH2 0x5B5D JUMP JUMPDEST PUSH1 0x24 SLOAD PUSH1 0x1 PUSH1 0x1 PUSH1 0xA0 SHL SUB AND PUSH1 0x0 SWAP1 DUP2 MSTORE PUSH1 0x2A PUSH1 0x20 MSTORE PUSH1 0x40 SWAP1 KECCAK256 SLOAD SWAP1 SWAP2 POP PUSH2 0x1DDE SWAP1 DUP3 SWAP1 PUSH2 0x5132 JUMP JUMPDEST PUSH1 0x24 SLOAD PUSH1 0x1 PUSH1 0x1 PUSH1 0xA0 SHL SUB AND PUSH1 0x0 SWAP1 DUP2 MSTORE PUSH1 0x2A PUSH1 0x20 MSTORE PUSH1 0x40 DUP2 KECCAK256 SWAP2 SWAP1 SWAP2 SSTORE PUSH1 0x64 PUSH2 0x1E09 PUSH1 0x5 CALLVALUE PUSH2 0x5B28 JUMP JUMPDEST PUSH2 0x1E13 SWAP2 SWAP1 PUSH2 0x5B5D JUMP JUMPDEST PUSH1 0x7 SLOAD SWAP1 SWAP2 POP PUSH1 0x1 PUSH1 0x1 PUSH1 0xA0 SHL SUB AND PUSH2 0x1E6C JUMPI PUSH1 0x23 SLOAD PUSH1 0x1 PUSH1 0x1 PUSH1 0xA0 SHL SUB AND PUSH1 0x0 SWAP1 DUP2 MSTORE PUSH1 0x2A PUSH1 0x20 MSTORE PUSH1 0x40 SWAP1 KECCAK256 SLOAD PUSH2 0x1E4C SWAP1 DUP3 SWAP1 PUSH2 0x5132 JUMP JUMPDEST PUSH1 0x23 SLOAD PUSH1 0x1 PUSH1 0x1 PUSH1 0xA0 SHL SUB AND PUSH1 0x0 SWAP1 DUP2 MSTORE PUSH1 0x2A PUSH1 0x20 MSTORE PUSH1 0x40 SWAP1 KECCAK256 SSTORE PUSH2 0x1EAE JUMP JUMPDEST PUSH1 0x7 SLOAD PUSH1 0x1 PUSH1 0x1 PUSH1 0xA0 SHL SUB AND PUSH1 0x0 SWAP1 DUP2 MSTORE PUSH1 0x2A PUSH1 0x20 MSTORE PUSH1 0x40 SWAP1 KECCAK256 SLOAD PUSH2 0x1E92 SWAP1 DUP3 SWAP1 PUSH2 0x5132 JUMP JUMPDEST PUSH1 0x7 SLOAD PUSH1 0x1 PUSH1 0x1 PUSH1 0xA0 SHL SUB AND PUSH1 0x0 SWAP1 DUP2 MSTORE PUSH1 0x2A PUSH1 0x20 MSTORE PUSH1 0x40 SWAP1 KECCAK256 SSTORE JUMPDEST PUSH1 0x0 PUSH1 0x64 PUSH2 0x1EBD PUSH1 0x5 CALLVALUE PUSH2 0x5B28 JUMP JUMPDEST PUSH2 0x1EC7 SWAP2 SWAP1 PUSH2 0x5B5D JUMP JUMPDEST PUSH1 0x23 SLOAD PUSH1 0x1 PUSH1 0x1 PUSH1 0xA0 SHL SUB AND PUSH1 0x0 SWAP1 DUP2 MSTORE PUSH1 0x2A PUSH1 0x20 MSTORE PUSH1 0x40 SWAP1 KECCAK256 SLOAD SWAP1 SWAP2 POP PUSH2 0x1EF0 SWAP1 DUP3 SWAP1 PUSH2 0x5132 JUMP JUMPDEST PUSH1 0x23 SLOAD PUSH1 0x1 PUSH1 0x1 PUSH1 0xA0 SHL SUB AND PUSH1 0x0 SWAP1 DUP2 MSTORE PUSH1 0x2A PUSH1 0x20 MSTORE PUSH1 0x40 DUP2 KECCAK256 SWAP2 SWAP1 SWAP2 SSTORE PUSH1 0x64 PUSH2 0x1F1B PUSH1 0x19 CALLVALUE PUSH2 0x5B28 JUMP JUMPDEST PUSH2 0x1F25 SWAP2 SWAP1 PUSH2 0x5B5D JUMP JUMPDEST PUSH1 0x29 SLOAD PUSH1 0x1 PUSH1 0x1 PUSH1 0xA0 SHL SUB AND PUSH1 0x0 SWAP1 DUP2 MSTORE PUSH1 0x2A PUSH1 0x20 MSTORE PUSH1 0x40 SWAP1 KECCAK256 SLOAD SWAP1 SWAP2 POP PUSH2 0x1F4E SWAP1 DUP3 SWAP1 PUSH2 0x5132 JUMP JUMPDEST PUSH1 0x29 SLOAD PUSH1 0x1 PUSH1 0x1 PUSH1 0xA0 SHL SUB AND PUSH1 0x0 SWAP1 DUP2 MSTORE PUSH1 0x2A PUSH1 0x20 MSTORE PUSH1 0x40 DUP2 KECCAK256 SWAP2 SWAP1 SWAP2 SSTORE PUSH1 0x64 PUSH2 0x1F79 PUSH1 0x1E CALLVALUE PUSH2 0x5B28 JUMP JUMPDEST PUSH2 0x1F83 SWAP2 SWAP1 PUSH2 0x5B5D JUMP JUMPDEST PUSH1 0x26 SLOAD PUSH1 0x1 PUSH1 0x1 PUSH1 0xA0 SHL SUB AND PUSH1 0x0 SWAP1 DUP2 MSTORE PUSH1 0x2A PUSH1 0x20 MSTORE PUSH1 0x40 SWAP1 KECCAK256 SLOAD SWAP1 SWAP2 POP PUSH2 0x1FAC SWAP1 DUP3 SWAP1 PUSH2 0x5132 JUMP JUMPDEST PUSH1 0x26 SLOAD PUSH1 0x1 PUSH1 0x1 PUSH1 0xA0 SHL SUB AND PUSH1 0x0 SWAP1 DUP2 MSTORE PUSH1 0x2A PUSH1 0x20 MSTORE PUSH1 0x40 DUP2 KECCAK256 SWAP2 SWAP1 SWAP2 SSTORE PUSH1 0x64 PUSH2 0x1FD7 PUSH1 0x1E CALLVALUE PUSH2 0x5B28 JUMP JUMPDEST PUSH2 0x1FE1 SWAP2 SWAP1 PUSH2 0x5B5D JUMP JUMPDEST PUSH1 0x27 SLOAD PUSH1 0x1 PUSH1 0x1 PUSH1 0xA0 SHL SUB AND PUSH1 0x0 SWAP1 DUP2 MSTORE PUSH1 0x2A PUSH1 0x20 MSTORE PUSH1 0x40 SWAP1 KECCAK256 SLOAD SWAP1 SWAP2 POP PUSH2 0x200A SWAP1 DUP3 SWAP1 PUSH2 0x5132 JUMP JUMPDEST PUSH1 0x27 SLOAD PUSH1 0x1 PUSH1 0x1 PUSH1 0xA0 SHL SUB AND PUSH1 0x0 SWAP1 DUP2 MSTORE PUSH1 0x2A PUSH1 0x20 MSTORE PUSH1 0x40 SWAP1 KECCAK256 SSTORE POP POP POP POP POP POP JUMPDEST PUSH2 0x2048 DUP4 DUP4 PUSH1 0x1 PUSH1 0x40 MLOAD DUP1 PUSH1 0x20 ADD PUSH1 0x40 MSTORE DUP1 PUSH1 0x0 DUP2 MSTORE POP PUSH2 0x3FFB JUMP JUMPDEST PUSH1 0x20 DUP1 SLOAD PUSH1 0x1 DUP1 DUP3 ADD DUP4 SSTORE PUSH32 0xC97BFAF2F8EE708C303A06D134F5ECD8389AE0432AF62DC132A24118292866BB SWAP1 SWAP2 ADD DUP5 SWAP1 SSTORE PUSH1 0x0 DUP5 DUP2 MSTORE PUSH1 0x2C SWAP1 SWAP3 MSTORE PUSH1 0x40 SWAP1 SWAP2 KECCAK256 DUP1 SLOAD PUSH1 0x1 PUSH1 0x1 PUSH1 0xA0 SHL SUB NOT AND PUSH1 0x1 PUSH1 0x1 PUSH1 0xA0 SHL SUB DUP7 AND OR SWAP1 SSTORE TIMESTAMP PUSH1 0x1E SSTORE JUMPDEST PUSH1 0x3 DUP2 GT PUSH2 0x2158 JUMPI PUSH1 0x0 DUP4 DUP2 MSTORE PUSH1 0x2E PUSH1 0x20 MSTORE PUSH1 0x40 SWAP1 KECCAK256 SLOAD PUSH1 0xFF AND ISZERO DUP1 ISZERO PUSH2 0x20CE JUMPI POP DUP1 PUSH1 0x3 EQ JUMPDEST ISZERO PUSH2 0x20D8 JUMPI PUSH2 0x2146 JUMP JUMPDEST PUSH2 0x20E3 DUP8 DUP8 DUP8 PUSH2 0x357E JUMP JUMPDEST PUSH1 0x0 DUP3 DUP2 MSTORE PUSH1 0x3A PUSH1 0x20 SWAP1 DUP2 MSTORE PUSH1 0x40 DUP1 DUP4 KECCAK256 PUSH1 0x3 DUP5 MSTORE SWAP1 SWAP2 MSTORE SWAP1 KECCAK256 SLOAD PUSH2 0x2108 SWAP2 SWAP1 PUSH2 0x5132 JUMP JUMPDEST PUSH1 0x0 DUP3 DUP2 MSTORE PUSH1 0x3A PUSH1 0x20 SWAP1 DUP2 MSTORE PUSH1 0x40 DUP1 DUP4 KECCAK256 PUSH1 0x3 DUP1 DUP6 MSTORE SWAP1 DUP4 MSTORE DUP2 DUP5 KECCAK256 SWAP5 SWAP1 SWAP5 SSTORE DUP5 DUP4 MSTORE PUSH1 0x39 DUP3 MSTORE DUP1 DUP4 KECCAK256 DUP8 DUP5 MSTORE SWAP1 SWAP2 MSTORE SWAP1 KECCAK256 DUP1 SLOAD PUSH1 0xFF NOT AND SWAP1 SWAP2 OR SWAP1 SSTORE JUMPDEST DUP1 PUSH2 0x2150 DUP2 PUSH2 0x5A97 JUMP JUMPDEST SWAP2 POP POP PUSH2 0x20A7 JUMP JUMPDEST POP DUP1 PUSH2 0x2172 JUMPI PUSH1 0xD SLOAD PUSH1 0x16 SLOAD PUSH2 0x216E SWAP2 SWAP1 PUSH2 0x5132 JUMP JUMPDEST PUSH1 0x16 SSTORE JUMPDEST PUSH1 0x40 DUP1 MLOAD DUP8 DUP2 MSTORE PUSH1 0x20 DUP2 ADD DUP8 SWAP1 MSTORE SWAP1 DUP2 ADD DUP6 SWAP1 MSTORE PUSH1 0x1 PUSH1 0x1 PUSH1 0xA0 SHL SUB DUP5 AND SWAP1 PUSH32 0xA51E9B2EF1F037DEE551EB226D6D1581C8FB0E0243820EBD1FBB41A13E6C2364 SWAP1 PUSH1 0x60 ADD PUSH1 0x40 MLOAD DUP1 SWAP2 SUB SWAP1 LOG2 POP POP POP POP POP POP JUMP JUMPDEST PUSH1 0x1 PUSH1 0x1 PUSH1 0xA0 SHL SUB DUP6 AND CALLER EQ DUP1 PUSH2 0x21E2 JUMPI POP PUSH2 0x21E2 DUP6 CALLER PUSH2 0xEB5 JUMP JUMPDEST PUSH2 0x2249 JUMPI PUSH1 0x40 MLOAD PUSH3 0x461BCD PUSH1 0xE5 SHL DUP2 MSTORE PUSH1 0x20 PUSH1 0x4 DUP3 ADD MSTORE PUSH1 0x32 PUSH1 0x24 DUP3 ADD MSTORE PUSH32 0x455243313135353A207472616E736665722063616C6C6572206973206E6F7420 PUSH1 0x44 DUP3 ADD MSTORE PUSH18 0x1BDDDB995C881B9BDC88185C1C1C9BDD9959 PUSH1 0x72 SHL PUSH1 0x64 DUP3 ADD MSTORE PUSH1 0x84 ADD PUSH2 0x1086 JUMP JUMPDEST PUSH1 0x40 MLOAD PUSH3 0x461BCD PUSH1 0xE5 SHL DUP2 MSTORE PUSH1 0x20 PUSH1 0x4 DUP3 ADD MSTORE PUSH1 0x3 PUSH1 0x24 DUP3 ADD MSTORE PUSH3 0x653237 PUSH1 0xE8 SHL PUSH1 0x44 DUP3 ADD MSTORE PUSH1 0x64 ADD PUSH2 0x1086 JUMP JUMPDEST POP POP POP POP POP JUMP JUMPDEST PUSH1 0x35 PUSH1 0x20 MSTORE PUSH1 0x0 SWAP1 DUP2 MSTORE PUSH1 0x40 SWAP1 KECCAK256 DUP1 SLOAD PUSH2 0x1159 SWAP1 PUSH2 0x5A62 JUMP JUMPDEST PUSH1 0x60 DUP2 MLOAD DUP4 MLOAD EQ PUSH2 0x22FC JUMPI PUSH1 0x40 MLOAD PUSH3 0x461BCD PUSH1 0xE5 SHL DUP2 MSTORE PUSH1 0x20 PUSH1 0x4 DUP3 ADD MSTORE PUSH1 0x29 PUSH1 0x24 DUP3 ADD MSTORE PUSH32 0x455243313135353A206163636F756E747320616E6420696473206C656E677468 PUSH1 0x44 DUP3 ADD MSTORE PUSH9 0x40DAD2E6DAC2E8C6D PUSH1 0xBB SHL PUSH1 0x64 DUP3 ADD MSTORE PUSH1 0x84 ADD PUSH2 0x1086 JUMP JUMPDEST PUSH1 0x0 DUP4 MLOAD PUSH1 0x1 PUSH1 0x1 PUSH1 0x40 SHL SUB DUP2 GT ISZERO PUSH2 0x2317 JUMPI PUSH2 0x2317 PUSH2 0x5366 JUMP JUMPDEST PUSH1 0x40 MLOAD SWAP1 DUP1 DUP3 MSTORE DUP1 PUSH1 0x20 MUL PUSH1 0x20 ADD DUP3 ADD PUSH1 0x40 MSTORE DUP1 ISZERO PUSH2 0x2340 JUMPI DUP2 PUSH1 0x20 ADD PUSH1 0x20 DUP3 MUL DUP1 CALLDATASIZE DUP4 CALLDATACOPY ADD SWAP1 POP JUMPDEST POP SWAP1 POP PUSH1 0x0 JUMPDEST DUP5 MLOAD DUP2 LT ISZERO PUSH2 0x23B8 JUMPI PUSH2 0x238B DUP6 DUP3 DUP2 MLOAD DUP2 LT PUSH2 0x2364 JUMPI PUSH2 0x2364 PUSH2 0x5106 JUMP JUMPDEST PUSH1 0x20 MUL PUSH1 0x20 ADD ADD MLOAD DUP6 DUP4 DUP2 MLOAD DUP2 LT PUSH2 0x237E JUMPI PUSH2 0x237E PUSH2 0x5106 JUMP JUMPDEST PUSH1 0x20 MUL PUSH1 0x20 ADD ADD MLOAD PUSH2 0x101E JUMP JUMPDEST DUP3 DUP3 DUP2 MLOAD DUP2 LT PUSH2 0x239D JUMPI PUSH2 0x239D PUSH2 0x5106 JUMP JUMPDEST PUSH1 0x20 SWAP1 DUP2 MUL SWAP2 SWAP1 SWAP2 ADD ADD MSTORE PUSH2 0x23B1 DUP2 PUSH2 0x5A97 JUMP JUMPDEST SWAP1 POP PUSH2 0x2346 JUMP JUMPDEST POP SWAP4 SWAP3 POP POP POP JUMP JUMPDEST PUSH1 0x31 DUP2 DUP2 SLOAD DUP2 LT PUSH2 0x23D0 JUMPI PUSH1 0x0 DUP1 REVERT JUMPDEST PUSH1 0x0 SWAP2 DUP3 MSTORE PUSH1 0x20 SWAP1 SWAP2 KECCAK256 ADD SLOAD PUSH1 0x1 PUSH1 0x1 PUSH1 0xA0 SHL SUB AND SWAP1 POP DUP2 JUMP JUMPDEST PUSH1 0x32 PUSH1 0x20 MSTORE PUSH1 0x0 SWAP1 DUP2 MSTORE PUSH1 0x40 SWAP1 KECCAK256 DUP1 SLOAD PUSH2 0x1159 SWAP1 PUSH2 0x5A62 JUMP JUMPDEST PUSH1 0x12 DUP1 SLOAD PUSH2 0x1159 SWAP1 PUSH2 0x5A62 JUMP JUMPDEST PUSH1 0x3 SLOAD PUSH1 0x1 PUSH1 0x1 PUSH1 0xA0 SHL SUB PUSH2 0x100 SWAP1 SWAP2 DIV AND CALLER EQ PUSH2 0x2440 JUMPI PUSH1 0x40 MLOAD PUSH3 0x461BCD PUSH1 0xE5 SHL DUP2 MSTORE PUSH1 0x4 ADD PUSH2 0x1086 SWAP1 PUSH2 0x5AB2 JUMP JUMPDEST PUSH1 0x3 SLOAD PUSH1 0xFF AND ISZERO PUSH2 0x2463 JUMPI PUSH1 0x40 MLOAD PUSH3 0x461BCD PUSH1 0xE5 SHL DUP2 MSTORE PUSH1 0x4 ADD PUSH2 0x1086 SWAP1 PUSH2 0x5AE7 JUMP JUMPDEST PUSH1 0x21 DUP3 SWAP1 SSTORE DUP1 MLOAD PUSH2 0x247B SWAP1 PUSH1 0x5 SWAP1 PUSH1 0x20 DUP5 ADD SWAP1 PUSH2 0x5018 JUMP JUMPDEST POP POP POP JUMP JUMPDEST PUSH1 0x18 DUP2 DUP2 SLOAD DUP2 LT PUSH2 0x23D0 JUMPI PUSH1 0x0 DUP1 REVERT JUMPDEST PUSH1 0x0 DUP2 DUP4 LT ISZERO PUSH2 0x24A0 JUMPI DUP2 PUSH2 0x24A2 JUMP JUMPDEST DUP3 JUMPDEST SWAP4 SWAP3 POP POP POP JUMP JUMPDEST CALLER PUSH1 0x0 SWAP1 DUP2 MSTORE PUSH1 0x2A PUSH1 0x20 MSTORE PUSH1 0x40 SWAP1 KECCAK256 SLOAD PUSH7 0x2386F26FC10000 GT ISZERO PUSH2 0x24F5 JUMPI PUSH1 0x40 MLOAD PUSH3 0x461BCD PUSH1 0xE5 SHL DUP2 MSTORE PUSH1 0x20 PUSH1 0x4 DUP3 ADD MSTORE PUSH1 0x3 PUSH1 0x24 DUP3 ADD MSTORE PUSH3 0x653135 PUSH1 0xE8 SHL PUSH1 0x44 DUP3 ADD MSTORE PUSH1 0x64 ADD PUSH2 0x1086 JUMP JUMPDEST CALLER PUSH1 0x0 DUP2 DUP2 MSTORE PUSH1 0x2A PUSH1 0x20 MSTORE PUSH1 0x40 DUP1 DUP3 KECCAK256 DUP1 SLOAD SWAP1 DUP4 SWAP1 SSTORE SWAP1 MLOAD SWAP1 SWAP3 DUP4 SWAP3 SWAP1 SWAP2 PUSH32 0x2F174CA282119315C59EFAF21147AEF438581DABDEB498198AE28964373DD8BC SWAP2 SWAP1 LOG3 PUSH1 0x40 MLOAD CALLER SWAP1 DUP3 ISZERO PUSH2 0x8FC MUL SWAP1 DUP4 SWAP1 PUSH1 0x0 DUP2 DUP2 DUP2 DUP6 DUP9 DUP9 CALL SWAP4 POP POP POP POP ISZERO DUP1 ISZERO PUSH2 0x2564 JUMPI RETURNDATASIZE PUSH1 0x0 DUP1 RETURNDATACOPY RETURNDATASIZE PUSH1 0x0 REVERT JUMPDEST POP POP JUMP JUMPDEST PUSH1 0x3 SLOAD PUSH1 0x1 PUSH1 0x1 PUSH1 0xA0 SHL SUB PUSH2 0x100 SWAP1 SWAP2 DIV AND CALLER EQ PUSH2 0x2598 JUMPI PUSH1 0x40 MLOAD PUSH3 0x461BCD PUSH1 0xE5 SHL DUP2 MSTORE PUSH1 0x4 ADD PUSH2 0x1086 SWAP1 PUSH2 0x5AB2 JUMP JUMPDEST PUSH2 0x143D PUSH1 0x0 PUSH2 0x43E6 JUMP JUMPDEST PUSH1 0x5 DUP1 SLOAD PUSH2 0x1159 SWAP1 PUSH2 0x5A62 JUMP JUMPDEST PUSH1 0x3 SLOAD PUSH1 0xFF AND ISZERO PUSH2 0x25D2 JUMPI PUSH1 0x40 MLOAD PUSH3 0x461BCD PUSH1 0xE5 SHL DUP2 MSTORE PUSH1 0x4 ADD PUSH2 0x1086 SWAP1 PUSH2 0x5AE7 JUMP JUMPDEST PUSH1 0x32 DUP5 MLOAD GT ISZERO PUSH2 0x260A JUMPI PUSH1 0x40 MLOAD PUSH3 0x461BCD PUSH1 0xE5 SHL DUP2 MSTORE PUSH1 0x20 PUSH1 0x4 DUP3 ADD MSTORE PUSH1 0x3 PUSH1 0x24 DUP3 ADD MSTORE PUSH3 0x32999B PUSH1 0xE9 SHL PUSH1 0x44 DUP3 ADD MSTORE PUSH1 0x64 ADD PUSH2 0x1086 JUMP JUMPDEST PUSH1 0x10 SLOAD PUSH2 0x100 SWAP1 DIV PUSH1 0x1 PUSH1 0x1 PUSH1 0xA0 SHL SUB AND ISZERO PUSH2 0x264D JUMPI PUSH1 0x40 MLOAD PUSH3 0x461BCD PUSH1 0xE5 SHL DUP2 MSTORE PUSH1 0x20 PUSH1 0x4 DUP3 ADD MSTORE PUSH1 0x2 PUSH1 0x24 DUP3 ADD MSTORE PUSH2 0xCA7 PUSH1 0xF3 SHL PUSH1 0x44 DUP3 ADD MSTORE PUSH1 0x64 ADD PUSH2 0x1086 JUMP JUMPDEST PUSH1 0x15 SLOAD TIMESTAMP LT ISZERO PUSH2 0x2684 JUMPI PUSH1 0x40 MLOAD PUSH3 0x461BCD PUSH1 0xE5 SHL DUP2 MSTORE PUSH1 0x20 PUSH1 0x4 DUP3 ADD MSTORE PUSH1 0x2 PUSH1 0x24 DUP3 ADD MSTORE PUSH2 0x6539 PUSH1 0xF0 SHL PUSH1 0x44 DUP3 ADD MSTORE PUSH1 0x64 ADD PUSH2 0x1086 JUMP JUMPDEST PUSH1 0x0 PUSH2 0x268E PUSH2 0x39D4 JUMP JUMPDEST CALLER PUSH1 0x0 SWAP1 DUP2 MSTORE PUSH1 0x2A PUSH1 0x20 MSTORE PUSH1 0x40 SWAP1 KECCAK256 SLOAD PUSH2 0x26A8 SWAP1 CALLVALUE PUSH2 0x5132 JUMP JUMPDEST PUSH2 0x26B2 SWAP2 SWAP1 PUSH2 0x5B5D JUMP JUMPDEST PUSH2 0x26BD SWAP1 PUSH1 0x4 PUSH2 0x5B28 JUMP JUMPDEST SWAP1 POP PUSH1 0x1E DUP2 LT ISZERO PUSH2 0x26F6 JUMPI PUSH1 0x40 MLOAD PUSH3 0x461BCD PUSH1 0xE5 SHL DUP2 MSTORE PUSH1 0x20 PUSH1 0x4 DUP3 ADD MSTORE PUSH1 0x3 PUSH1 0x24 DUP3 ADD MSTORE PUSH3 0x65313 PUSH1 0xEC SHL PUSH1 0x44 DUP3 ADD MSTORE PUSH1 0x64 ADD PUSH2 0x1086 JUMP JUMPDEST PUSH1 0x10 DUP1 SLOAD PUSH2 0x100 PUSH1 0x1 PUSH1 0xA8 SHL SUB NOT AND CALLER PUSH2 0x100 SWAP1 DUP2 MUL SWAP2 SWAP1 SWAP2 OR SWAP2 DUP3 SWAP1 SSTORE PUSH1 0x1 PUSH1 0x1 PUSH1 0xA0 SHL SUB SWAP2 DIV AND PUSH1 0x0 SWAP1 DUP2 MSTORE PUSH1 0x2A PUSH1 0x20 MSTORE PUSH1 0x40 SWAP1 KECCAK256 SLOAD PUSH2 0x2739 SWAP1 CALLVALUE SWAP1 PUSH2 0x5132 JUMP JUMPDEST PUSH1 0x10 SLOAD PUSH2 0x100 SWAP1 DIV PUSH1 0x1 PUSH1 0x1 PUSH1 0xA0 SHL SUB AND PUSH1 0x0 SWAP1 DUP2 MSTORE PUSH1 0x2A PUSH1 0x20 SWAP1 DUP2 MSTORE PUSH1 0x40 SWAP1 SWAP2 KECCAK256 SWAP2 SWAP1 SWAP2 SSTORE DUP6 MLOAD PUSH2 0x2771 SWAP2 PUSH1 0x11 SWAP2 SWAP1 DUP9 ADD SWAP1 PUSH2 0x5018 JUMP JUMPDEST POP DUP2 MLOAD PUSH2 0x2785 SWAP1 PUSH1 0x12 SWAP1 PUSH1 0x20 DUP6 ADD SWAP1 PUSH2 0x5018 JUMP JUMPDEST POP DUP4 MLOAD PUSH2 0x2799 SWAP1 PUSH1 0x13 SWAP1 PUSH1 0x20 DUP8 ADD SWAP1 PUSH2 0x5018 JUMP JUMPDEST POP DUP3 MLOAD PUSH2 0x27AD SWAP1 PUSH1 0x14 SWAP1 PUSH1 0x20 DUP7 ADD SWAP1 PUSH2 0x5018 JUMP JUMPDEST POP POP PUSH1 0x10 DUP1 SLOAD PUSH1 0xFF NOT AND SWAP1 SSTORE POP POP POP POP JUMP JUMPDEST PUSH1 0xC DUP1 SLOAD PUSH2 0x1159 SWAP1 PUSH2 0x5A62 JUMP JUMPDEST CALLER PUSH1 0x1 PUSH1 0x1 PUSH1 0xA0 SHL SUB PUSH32 0x0 AND EQ PUSH2 0x2844 JUMPI PUSH1 0x40 MLOAD PUSH3 0x461BCD PUSH1 0xE5 SHL DUP2 MSTORE PUSH1 0x20 PUSH1 0x4 DUP3 ADD MSTORE PUSH1 0x1F PUSH1 0x24 DUP3 ADD MSTORE PUSH32 0x4F6E6C7920565246436F6F7264696E61746F722063616E2066756C66696C6C00 PUSH1 0x44 DUP3 ADD MSTORE PUSH1 0x64 ADD PUSH2 0x1086 JUMP JUMPDEST PUSH2 0x2564 DUP3 DUP3 PUSH2 0x4440 JUMP JUMPDEST PUSH2 0x2564 CALLER DUP4 DUP4 PUSH2 0x4602 JUMP JUMPDEST PUSH1 0x3 SLOAD PUSH1 0xFF AND ISZERO PUSH2 0x287C JUMPI PUSH1 0x40 MLOAD PUSH3 0x461BCD PUSH1 0xE5 SHL DUP2 MSTORE PUSH1 0x4 ADD PUSH2 0x1086 SWAP1 PUSH2 0x5AE7 JUMP JUMPDEST PUSH1 0x0 PUSH2 0x2889 DUP9 DUP9 DUP9 PUSH2 0x3E24 JUMP JUMPDEST PUSH1 0x0 DUP2 DUP2 MSTORE PUSH1 0x2C PUSH1 0x20 MSTORE PUSH1 0x40 SWAP1 KECCAK256 SLOAD SWAP1 SWAP2 POP PUSH1 0x1 PUSH1 0x1 PUSH1 0xA0 SHL SUB AND PUSH2 0x28C0 JUMPI PUSH1 0x40 MLOAD PUSH3 0x461BCD PUSH1 0xE5 SHL DUP2 MSTORE PUSH1 0x4 ADD PUSH2 0x1086 SWAP1 PUSH2 0x5B71 JUMP JUMPDEST PUSH1 0x0 DUP2 DUP2 MSTORE PUSH1 0x2C PUSH1 0x20 MSTORE PUSH1 0x40 SWAP1 KECCAK256 SLOAD PUSH1 0x1 PUSH1 0x1 PUSH1 0xA0 SHL SUB AND CALLER EQ PUSH2 0x290C JUMPI PUSH1 0x40 MLOAD PUSH3 0x461BCD PUSH1 0xE5 SHL DUP2 MSTORE PUSH1 0x20 PUSH1 0x4 DUP3 ADD MSTORE PUSH1 0x3 PUSH1 0x24 DUP3 ADD MSTORE PUSH3 0x329899 PUSH1 0xE9 SHL PUSH1 0x44 DUP3 ADD MSTORE PUSH1 0x64 ADD PUSH2 0x1086 JUMP JUMPDEST PUSH1 0x0 PUSH2 0x2919 DUP10 DUP10 DUP10 PUSH2 0x357E JUMP JUMPDEST SWAP1 POP PUSH1 0x1 JUMPDEST PUSH1 0x3 DUP2 GT PUSH2 0x2C18 JUMPI DUP1 PUSH1 0x3 EQ DUP1 ISZERO PUSH2 0x2945 JUMPI POP PUSH1 0x0 DUP4 DUP2 MSTORE PUSH1 0x2E PUSH1 0x20 MSTORE PUSH1 0x40 SWAP1 KECCAK256 SLOAD PUSH1 0xFF AND ISZERO JUMPDEST ISZERO PUSH2 0x294F JUMPI PUSH2 0x2C06 JUMP JUMPDEST DUP4 PUSH2 0x295B PUSH1 0x1 DUP4 PUSH2 0x5B11 JUMP JUMPDEST DUP2 MLOAD DUP2 LT PUSH2 0x296B JUMPI PUSH2 0x296B PUSH2 0x5106 JUMP JUMPDEST PUSH1 0x20 MUL PUSH1 0x20 ADD ADD MLOAD PUSH1 0x4 DUP2 GT ISZERO PUSH2 0x2984 JUMPI PUSH2 0x2984 PUSH2 0x55B5 JUMP JUMPDEST PUSH1 0x0 DUP3 DUP2 MSTORE PUSH1 0x39 PUSH1 0x20 SWAP1 DUP2 MSTORE PUSH1 0x40 DUP1 DUP4 KECCAK256 DUP8 DUP5 MSTORE SWAP1 SWAP2 MSTORE SWAP1 KECCAK256 SLOAD PUSH1 0xFF AND PUSH1 0x4 DUP2 GT ISZERO PUSH2 0x29B2 JUMPI PUSH2 0x29B2 PUSH2 0x55B5 JUMP JUMPDEST EQ PUSH2 0x2C06 JUMPI PUSH1 0x0 DUP2 DUP2 MSTORE PUSH1 0x3A PUSH1 0x20 SWAP1 DUP2 MSTORE PUSH1 0x40 DUP1 DUP4 KECCAK256 PUSH1 0x39 DUP4 MSTORE DUP2 DUP5 KECCAK256 DUP8 DUP6 MSTORE SWAP1 SWAP3 MSTORE DUP3 KECCAK256 SLOAD DUP3 SWAP1 PUSH1 0xFF AND PUSH1 0x4 DUP2 GT ISZERO PUSH2 0x29EE JUMPI PUSH2 0x29EE PUSH2 0x55B5 JUMP JUMPDEST PUSH1 0x4 DUP2 GT ISZERO PUSH2 0x29FF JUMPI PUSH2 0x29FF PUSH2 0x55B5 JUMP JUMPDEST DUP2 MSTORE PUSH1 0x20 ADD SWAP1 DUP2 MSTORE PUSH1 0x20 ADD PUSH1 0x0 KECCAK256 SLOAD GT ISZERO PUSH2 0x2AD1 JUMPI PUSH1 0x0 DUP2 DUP2 MSTORE PUSH1 0x3A PUSH1 0x20 SWAP1 DUP2 MSTORE PUSH1 0x40 DUP1 DUP4 KECCAK256 PUSH1 0x39 DUP4 MSTORE DUP2 DUP5 KECCAK256 DUP8 DUP6 MSTORE SWAP1 SWAP3 MSTORE DUP3 KECCAK256 SLOAD DUP5 SWAP3 SWAP1 PUSH1 0xFF AND PUSH1 0x4 DUP2 GT ISZERO PUSH2 0x2A4C JUMPI PUSH2 0x2A4C PUSH2 0x55B5 JUMP JUMPDEST PUSH1 0x4 DUP2 GT ISZERO PUSH2 0x2A5D JUMPI PUSH2 0x2A5D PUSH2 0x55B5 JUMP JUMPDEST DUP2 MSTORE PUSH1 0x20 ADD SWAP1 DUP2 MSTORE PUSH1 0x20 ADD PUSH1 0x0 KECCAK256 SLOAD PUSH2 0x2A76 SWAP2 SWAP1 PUSH2 0x5B11 JUMP JUMPDEST PUSH1 0x0 DUP3 DUP2 MSTORE PUSH1 0x3A PUSH1 0x20 SWAP1 DUP2 MSTORE PUSH1 0x40 DUP1 DUP4 KECCAK256 PUSH1 0x39 DUP4 MSTORE DUP2 DUP5 KECCAK256 DUP9 DUP6 MSTORE SWAP1 SWAP3 MSTORE DUP3 KECCAK256 SLOAD SWAP1 SWAP2 SWAP1 PUSH1 0xFF AND PUSH1 0x4 DUP2 GT ISZERO PUSH2 0x2AAE JUMPI PUSH2 0x2AAE PUSH2 0x55B5 JUMP JUMPDEST PUSH1 0x4 DUP2 GT ISZERO PUSH2 0x2ABF JUMPI PUSH2 0x2ABF PUSH2 0x55B5 JUMP JUMPDEST DUP2 MSTORE PUSH1 0x20 DUP2 ADD SWAP2 SWAP1 SWAP2 MSTORE PUSH1 0x40 ADD PUSH1 0x0 KECCAK256 SSTORE JUMPDEST PUSH1 0x0 DUP2 DUP2 MSTORE PUSH1 0x3A PUSH1 0x20 MSTORE PUSH1 0x40 DUP2 KECCAK256 DUP4 SWAP2 DUP7 PUSH2 0x2AED PUSH1 0x1 DUP7 PUSH2 0x5B11 JUMP JUMPDEST DUP2 MLOAD DUP2 LT PUSH2 0x2AFD JUMPI PUSH2 0x2AFD PUSH2 0x5106 JUMP JUMPDEST PUSH1 0x20 MUL PUSH1 0x20 ADD ADD MLOAD PUSH1 0x4 DUP2 GT ISZERO PUSH2 0x2B16 JUMPI PUSH2 0x2B16 PUSH2 0x55B5 JUMP JUMPDEST PUSH1 0x4 DUP2 GT ISZERO PUSH2 0x2B27 JUMPI PUSH2 0x2B27 PUSH2 0x55B5 JUMP JUMPDEST DUP2 MSTORE PUSH1 0x20 ADD SWAP1 DUP2 MSTORE PUSH1 0x20 ADD PUSH1 0x0 KECCAK256 SLOAD PUSH2 0x2B40 SWAP2 SWAP1 PUSH2 0x5132 JUMP JUMPDEST PUSH1 0x0 DUP3 DUP2 MSTORE PUSH1 0x3A PUSH1 0x20 MSTORE PUSH1 0x40 DUP2 KECCAK256 SWAP1 DUP7 PUSH2 0x2B5B PUSH1 0x1 DUP7 PUSH2 0x5B11 JUMP JUMPDEST DUP2 MLOAD DUP2 LT PUSH2 0x2B6B JUMPI PUSH2 0x2B6B PUSH2 0x5106 JUMP JUMPDEST PUSH1 0x20 MUL PUSH1 0x20 ADD ADD MLOAD PUSH1 0x4 DUP2 GT ISZERO PUSH2 0x2B84 JUMPI PUSH2 0x2B84 PUSH2 0x55B5 JUMP JUMPDEST PUSH1 0x4 DUP2 GT ISZERO PUSH2 0x2B95 JUMPI PUSH2 0x2B95 PUSH2 0x55B5 JUMP JUMPDEST DUP2 MSTORE PUSH1 0x20 DUP2 ADD SWAP2 SWAP1 SWAP2 MSTORE PUSH1 0x40 ADD PUSH1 0x0 KECCAK256 SSTORE DUP4 PUSH2 0x2BB2 PUSH1 0x1 DUP4 PUSH2 0x5B11 JUMP JUMPDEST DUP2 MLOAD DUP2 LT PUSH2 0x2BC2 JUMPI PUSH2 0x2BC2 PUSH2 0x5106 JUMP JUMPDEST PUSH1 0x20 SWAP1 DUP2 MUL SWAP2 SWAP1 SWAP2 ADD DUP2 ADD MLOAD PUSH1 0x0 DUP4 DUP2 MSTORE PUSH1 0x39 DUP4 MSTORE PUSH1 0x40 DUP1 DUP3 KECCAK256 DUP8 DUP4 MSTORE SWAP1 SWAP4 MSTORE SWAP2 SWAP1 SWAP2 KECCAK256 DUP1 SLOAD PUSH1 0xFF NOT AND PUSH1 0x1 DUP4 PUSH1 0x4 DUP2 GT ISZERO PUSH2 0x2C00 JUMPI PUSH2 0x2C00 PUSH2 0x55B5 JUMP JUMPDEST MUL OR SWAP1 SSTORE POP JUMPDEST DUP1 PUSH2 0x2C10 DUP2 PUSH2 0x5A97 JUMP JUMPDEST SWAP2 POP POP PUSH2 0x291E JUMP JUMPDEST POP DUP6 ISZERO DUP1 ISZERO SWAP1 PUSH2 0x2C27 JUMPI POP DUP5 ISZERO ISZERO JUMPDEST DUP1 ISZERO PUSH2 0x2C32 JUMPI POP DUP4 ISZERO ISZERO JUMPDEST ISZERO PUSH2 0x2E9B JUMPI PUSH1 0x0 PUSH2 0x2C44 DUP8 DUP8 DUP8 PUSH2 0x3E24 JUMP JUMPDEST PUSH1 0x0 DUP2 DUP2 MSTORE PUSH1 0x2C PUSH1 0x20 SWAP1 DUP2 MSTORE PUSH1 0x40 DUP1 DUP4 KECCAK256 SLOAD PUSH1 0x35 SWAP1 SWAP3 MSTORE SWAP1 SWAP2 KECCAK256 DUP1 SLOAD SWAP3 SWAP4 POP PUSH1 0x1 PUSH1 0x1 PUSH1 0xA0 SHL SUB SWAP1 SWAP2 AND SWAP2 PUSH2 0x2D10 SWAP2 SWAP1 PUSH2 0x2C7D SWAP1 PUSH2 0x5A62 JUMP JUMPDEST DUP1 PUSH1 0x1F ADD PUSH1 0x20 DUP1 SWAP2 DIV MUL PUSH1 0x20 ADD PUSH1 0x40 MLOAD SWAP1 DUP2 ADD PUSH1 0x40 MSTORE DUP1 SWAP3 SWAP2 SWAP1 DUP2 DUP2 MSTORE PUSH1 0x20 ADD DUP3 DUP1 SLOAD PUSH2 0x2CA9 SWAP1 PUSH2 0x5A62 JUMP JUMPDEST DUP1 ISZERO PUSH2 0x2CF6 JUMPI DUP1 PUSH1 0x1F LT PUSH2 0x2CCB JUMPI PUSH2 0x100 DUP1 DUP4 SLOAD DIV MUL DUP4 MSTORE SWAP2 PUSH1 0x20 ADD SWAP2 PUSH2 0x2CF6 JUMP JUMPDEST DUP3 ADD SWAP2 SWAP1 PUSH1 0x0 MSTORE PUSH1 0x20 PUSH1 0x0 KECCAK256 SWAP1 JUMPDEST DUP2 SLOAD DUP2 MSTORE SWAP1 PUSH1 0x1 ADD SWAP1 PUSH1 0x20 ADD DUP1 DUP4 GT PUSH2 0x2CD9 JUMPI DUP3 SWAP1 SUB PUSH1 0x1F AND DUP3 ADD SWAP2 JUMPDEST POP POP POP POP POP PUSH1 0x40 MLOAD DUP1 PUSH1 0x20 ADD PUSH1 0x40 MSTORE DUP1 PUSH1 0x0 DUP2 MSTORE POP PUSH2 0x46E3 JUMP JUMPDEST ISZERO PUSH2 0x2D43 JUMPI PUSH1 0x40 MLOAD PUSH3 0x461BCD PUSH1 0xE5 SHL DUP2 MSTORE PUSH1 0x20 PUSH1 0x4 DUP3 ADD MSTORE PUSH1 0x3 PUSH1 0x24 DUP3 ADD MSTORE PUSH3 0x653335 PUSH1 0xE8 SHL PUSH1 0x44 DUP3 ADD MSTORE PUSH1 0x64 ADD PUSH2 0x1086 JUMP JUMPDEST PUSH1 0x1 PUSH1 0x1 PUSH1 0xA0 SHL SUB DUP2 AND ISZERO DUP1 ISZERO SWAP1 PUSH2 0x2D75 JUMPI POP PUSH1 0x0 DUP5 DUP2 MSTORE PUSH1 0x36 PUSH1 0x20 MSTORE PUSH1 0x40 SWAP1 KECCAK256 SLOAD PUSH1 0x1 PUSH1 0x1 PUSH1 0xA0 SHL SUB DUP3 DUP2 AND SWAP2 AND EQ ISZERO JUMPDEST ISZERO PUSH2 0x2E98 JUMPI PUSH1 0x0 DUP5 DUP2 MSTORE PUSH1 0x36 PUSH1 0x20 SWAP1 DUP2 MSTORE PUSH1 0x40 DUP1 DUP4 KECCAK256 SLOAD PUSH1 0x1 PUSH1 0x1 PUSH1 0xA0 SHL SUB AND DUP4 MSTORE PUSH1 0x37 SWAP1 SWAP2 MSTORE SWAP1 KECCAK256 SLOAD ISZERO PUSH2 0x2DFA JUMPI PUSH1 0x0 DUP5 DUP2 MSTORE PUSH1 0x36 PUSH1 0x20 SWAP1 DUP2 MSTORE PUSH1 0x40 DUP1 DUP4 KECCAK256 SLOAD PUSH1 0x1 PUSH1 0x1 PUSH1 0xA0 SHL SUB AND DUP4 MSTORE PUSH1 0x37 SWAP1 SWAP2 MSTORE SWAP1 KECCAK256 SLOAD PUSH2 0x2DD4 SWAP1 DUP5 SWAP1 PUSH2 0x5B11 JUMP JUMPDEST PUSH1 0x0 DUP6 DUP2 MSTORE PUSH1 0x36 PUSH1 0x20 SWAP1 DUP2 MSTORE PUSH1 0x40 DUP1 DUP4 KECCAK256 SLOAD PUSH1 0x1 PUSH1 0x1 PUSH1 0xA0 SHL SUB AND DUP4 MSTORE PUSH1 0x37 SWAP1 SWAP2 MSTORE SWAP1 KECCAK256 SSTORE JUMPDEST PUSH1 0x1 PUSH1 0x1 PUSH1 0xA0 SHL SUB DUP2 AND PUSH1 0x0 SWAP1 DUP2 MSTORE PUSH1 0x37 PUSH1 0x20 MSTORE PUSH1 0x40 SWAP1 KECCAK256 SLOAD PUSH2 0x2E1E SWAP1 DUP5 SWAP1 PUSH2 0x5132 JUMP JUMPDEST PUSH1 0x1 PUSH1 0x1 PUSH1 0xA0 SHL SUB DUP1 DUP4 AND PUSH1 0x0 DUP2 DUP2 MSTORE PUSH1 0x37 PUSH1 0x20 DUP2 DUP2 MSTORE PUSH1 0x40 DUP1 DUP5 KECCAK256 SWAP7 DUP8 SSTORE DUP11 DUP5 MSTORE PUSH1 0x36 DUP3 MSTORE DUP1 DUP5 KECCAK256 DUP1 SLOAD PUSH1 0x1 PUSH1 0x1 PUSH1 0xA0 SHL SUB NOT AND DUP7 OR SWAP1 SSTORE PUSH1 0x38 SLOAD SWAP1 SWAP6 AND DUP4 MSTORE MSTORE SWAP2 DUP3 KECCAK256 SLOAD SWAP2 MSTORE SWAP1 SLOAD GT ISZERO PUSH2 0x2E98 JUMPI PUSH1 0x38 DUP1 SLOAD PUSH1 0x1 PUSH1 0x1 PUSH1 0xA0 SHL SUB NOT AND PUSH1 0x1 PUSH1 0x1 PUSH1 0xA0 SHL SUB DUP4 AND OR SWAP1 SSTORE PUSH2 0x2E94 DUP9 DUP9 DUP9 PUSH2 0x3E24 JUMP JUMPDEST PUSH1 0x9 SSTORE JUMPDEST POP POP JUMPDEST POP POP POP POP POP POP POP POP POP JUMP JUMPDEST PUSH1 0x33 PUSH1 0x20 MSTORE PUSH1 0x0 SWAP1 DUP2 MSTORE PUSH1 0x40 SWAP1 KECCAK256 DUP1 SLOAD PUSH2 0x1159 SWAP1 PUSH2 0x5A62 JUMP JUMPDEST PUSH1 0x34 PUSH1 0x20 MSTORE PUSH1 0x0 SWAP1 DUP2 MSTORE PUSH1 0x40 SWAP1 KECCAK256 DUP1 SLOAD PUSH2 0x1159 SWAP1 PUSH2 0x5A62 JUMP JUMPDEST PUSH1 0x14 DUP1 SLOAD PUSH2 0x1159 SWAP1 PUSH2 0x5A62 JUMP JUMPDEST PUSH1 0x3 SLOAD PUSH1 0x1 PUSH1 0x1 PUSH1 0xA0 SHL SUB PUSH2 0x100 SWAP1 SWAP2 DIV AND CALLER EQ PUSH2 0x2F15 JUMPI PUSH1 0x40 MLOAD PUSH3 0x461BCD PUSH1 0xE5 SHL DUP2 MSTORE PUSH1 0x4 ADD PUSH2 0x1086 SWAP1 PUSH2 0x5AB2 JUMP JUMPDEST DUP1 PUSH2 0x2F5E JUMPI PUSH1 0x24 DUP1 SLOAD PUSH1 0x1 PUSH1 0x1 PUSH1 0xA0 SHL SUB DUP5 DUP2 AND PUSH1 0x1 PUSH1 0x1 PUSH1 0xA0 SHL SUB NOT DUP4 AND DUP2 OR SWAP1 SWAP4 SSTORE AND PUSH1 0x0 DUP2 DUP2 MSTORE PUSH1 0x2A PUSH1 0x20 MSTORE PUSH1 0x40 DUP1 DUP3 KECCAK256 DUP1 SLOAD SWAP5 DUP4 MSTORE SWAP1 DUP3 KECCAK256 SWAP4 SWAP1 SWAP4 SSTORE SWAP1 DUP2 MSTORE SWAP1 SSTORE POP POP JUMP JUMPDEST PUSH1 0x23 DUP1 SLOAD PUSH1 0x1 PUSH1 0x1 PUSH1 0xA0 SHL SUB DUP5 DUP2 AND PUSH1 0x1 PUSH1 0x1 PUSH1 0xA0 SHL SUB NOT DUP4 AND DUP2 OR SWAP1 SWAP4 SSTORE AND PUSH1 0x0 DUP2 DUP2 MSTORE PUSH1 0x2A PUSH1 0x20 MSTORE PUSH1 0x40 DUP1 DUP3 KECCAK256 DUP1 SLOAD SWAP5 DUP4 MSTORE SWAP1 DUP3 KECCAK256 SWAP4 SWAP1 SWAP4 SSTORE SWAP1 DUP2 MSTORE SWAP1 SSTORE POP POP JUMP JUMPDEST PUSH1 0x7 SLOAD PUSH1 0x1 PUSH1 0x1 PUSH1 0xA0 SHL SUB AND CALLER EQ DUP1 PUSH2 0x2FDC JUMPI POP PUSH1 0x3 SLOAD PUSH2 0x100 SWAP1 DIV PUSH1 0x1 PUSH1 0x1 PUSH1 0xA0 SHL SUB AND PUSH1 0x1 PUSH1 0x1 PUSH1 0xA0 SHL SUB AND CALLER PUSH1 0x1 PUSH1 0x1 PUSH1 0xA0 SHL SUB AND EQ JUMPDEST PUSH2 0x2FF8 JUMPI PUSH1 0x40 MLOAD PUSH3 0x461BCD PUSH1 0xE5 SHL DUP2 MSTORE PUSH1 0x4 ADD PUSH2 0x1086 SWAP1 PUSH2 0x5B8E JUMP JUMPDEST PUSH2 0x300A DUP2 PUSH8 0xDE0B6B3A7640000 PUSH2 0x5B28 JUMP JUMPDEST SWAP1 POP PUSH2 0x301E DUP3 PUSH8 0xDE0B6B3A7640000 PUSH2 0x5B28 JUMP JUMPDEST SWAP2 POP PUSH1 0x17 SLOAD DUP3 LT ISZERO PUSH2 0x3058 JUMPI PUSH1 0x40 MLOAD PUSH3 0x461BCD PUSH1 0xE5 SHL DUP2 MSTORE PUSH1 0x20 PUSH1 0x4 DUP3 ADD MSTORE PUSH1 0x3 PUSH1 0x24 DUP3 ADD MSTORE PUSH3 0x329999 PUSH1 0xE9 SHL PUSH1 0x44 DUP3 ADD MSTORE PUSH1 0x64 ADD PUSH2 0x1086 JUMP JUMPDEST PUSH1 0x16 SWAP2 SWAP1 SWAP2 SSTORE PUSH1 0xD SSTORE JUMP JUMPDEST PUSH1 0x7 SLOAD PUSH1 0x1 PUSH1 0x1 PUSH1 0xA0 SHL SUB AND CALLER EQ DUP1 PUSH2 0x309D JUMPI POP PUSH1 0x3 SLOAD PUSH2 0x100 SWAP1 DIV PUSH1 0x1 PUSH1 0x1 PUSH1 0xA0 SHL SUB AND PUSH1 0x1 PUSH1 0x1 PUSH1 0xA0 SHL SUB AND CALLER PUSH1 0x1 PUSH1 0x1 PUSH1 0xA0 SHL SUB AND EQ JUMPDEST PUSH2 0x30B9 JUMPI PUSH1 0x40 MLOAD PUSH3 0x461BCD PUSH1 0xE5 SHL DUP2 MSTORE PUSH1 0x4 ADD PUSH2 0x1086 SWAP1 PUSH2 0x5B8E JUMP JUMPDEST PUSH1 0xE SLOAD PUSH1 0xFF AND PUSH2 0x3106 JUMPI PUSH1 0x1A SLOAD PUSH2 0x30D2 PUSH1 0x1C SLOAD TIMESTAMP PUSH2 0x3FD4 JUMP JUMPDEST LT ISZERO PUSH2 0x3106 JUMPI PUSH1 0x40 MLOAD PUSH3 0x461BCD PUSH1 0xE5 SHL DUP2 MSTORE PUSH1 0x20 PUSH1 0x4 DUP3 ADD MSTORE PUSH1 0x3 PUSH1 0x24 DUP3 ADD MSTORE PUSH3 0x653239 PUSH1 0xE8 SHL PUSH1 0x44 DUP3 ADD MSTORE PUSH1 0x64 ADD PUSH2 0x1086 JUMP JUMPDEST PUSH1 0x1 PUSH1 0x1 PUSH1 0xA0 SHL SUB DUP2 AND PUSH1 0x0 SWAP1 DUP2 MSTORE PUSH1 0x2B PUSH1 0x20 MSTORE PUSH1 0x40 SWAP1 KECCAK256 SLOAD ISZERO PUSH2 0x3152 JUMPI PUSH1 0x40 MLOAD PUSH3 0x461BCD PUSH1 0xE5 SHL DUP2 MSTORE PUSH1 0x20 PUSH1 0x4 DUP3 ADD MSTORE PUSH1 0x3 PUSH1 0x24 DUP3 ADD MSTORE PUSH3 0x65333 PUSH1 0xEC SHL PUSH1 0x44 DUP3 ADD MSTORE PUSH1 0x64 ADD PUSH2 0x1086 JUMP JUMPDEST TIMESTAMP PUSH1 0x1C SSTORE PUSH1 0x1 PUSH1 0x1 PUSH1 0xA0 SHL SUB AND PUSH1 0x0 SWAP1 DUP2 MSTORE PUSH1 0x2B PUSH1 0x20 MSTORE PUSH1 0x40 SWAP1 KECCAK256 PUSH1 0x1 SWAP1 SSTORE JUMP JUMPDEST PUSH1 0x31 SLOAD PUSH1 0x20 SLOAD PUSH1 0x0 SWAP2 LT PUSH2 0x31C2 JUMPI PUSH2 0x318D PUSH1 0x1D SLOAD TIMESTAMP PUSH2 0x3E7B JUMP JUMPDEST PUSH1 0x20 SLOAD PUSH1 0x64 SWAP1 PUSH2 0x319E SWAP1 PUSH1 0x19 PUSH2 0x5B28 JUMP JUMPDEST PUSH2 0x31A8 SWAP2 SWAP1 PUSH2 0x5B5D JUMP JUMPDEST PUSH2 0x31B2 SWAP2 SWAP1 PUSH2 0x5B28 JUMP JUMPDEST PUSH2 0x31BD SWAP1 PUSH1 0x4 PUSH2 0x5B28 JUMP JUMPDEST SWAP1 POP SWAP1 JUMP JUMPDEST PUSH1 0x31 SLOAD PUSH2 0x31D0 SWAP1 PUSH1 0x4 PUSH2 0x5B28 JUMP JUMPDEST PUSH2 0x31DC PUSH1 0x1D SLOAD TIMESTAMP PUSH2 0x3E7B JUMP JUMPDEST PUSH1 0x20 SLOAD PUSH1 0x64 SWAP1 PUSH2 0x31ED SWAP1 PUSH1 0x19 PUSH2 0x5B28 JUMP JUMPDEST PUSH2 0x31F7 SWAP2 SWAP1 PUSH2 0x5B5D JUMP JUMPDEST PUSH2 0x3201 SWAP2 SWAP1 PUSH2 0x5B28 JUMP JUMPDEST PUSH2 0x31BD SWAP2 SWAP1 PUSH2 0x5132 JUMP JUMPDEST SWAP1 JUMP JUMPDEST PUSH1 0x3 SLOAD PUSH1 0xFF AND ISZERO PUSH2 0x3231 JUMPI PUSH1 0x40 MLOAD PUSH3 0x461BCD PUSH1 0xE5 SHL DUP2 MSTORE PUSH1 0x4 ADD PUSH2 0x1086 SWAP1 PUSH2 0x5AE7 JUMP JUMPDEST PUSH1 0x19 SLOAD PUSH2 0x3240 PUSH1 0x1B SLOAD TIMESTAMP PUSH2 0x3FD4 JUMP JUMPDEST LT ISZERO PUSH2 0x3274 JUMPI PUSH1 0x40 MLOAD PUSH3 0x461BCD PUSH1 0xE5 SHL DUP2 MSTORE PUSH1 0x20 PUSH1 0x4 DUP3 ADD MSTORE PUSH1 0x3 PUSH1 0x24 DUP3 ADD MSTORE PUSH3 0x32989B PUSH1 0xE9 SHL PUSH1 0x44 DUP3 ADD MSTORE PUSH1 0x64 ADD PUSH2 0x1086 JUMP JUMPDEST PUSH1 0x18 SLOAD PUSH1 0x1 LT PUSH2 0x32AC JUMPI PUSH1 0x40 MLOAD PUSH3 0x461BCD PUSH1 0xE5 SHL DUP2 MSTORE PUSH1 0x20 PUSH1 0x4 DUP3 ADD MSTORE PUSH1 0x3 PUSH1 0x24 DUP3 ADD MSTORE PUSH3 0x653137 PUSH1 0xE8 SHL PUSH1 0x44 DUP3 ADD MSTORE PUSH1 0x64 ADD PUSH2 0x1086 JUMP JUMPDEST TIMESTAMP PUSH1 0x1B SSTORE PUSH1 0x22 SLOAD PUSH1 0x21 SLOAD PUSH2 0x32C0 SWAP2 SWAP1 PUSH2 0x473C JUMP JUMPDEST PUSH1 0x6 SSTORE JUMP JUMPDEST PUSH1 0x18 SLOAD PUSH1 0x60 SWAP1 PUSH1 0x0 SWAP1 PUSH1 0x1 PUSH1 0x1 PUSH1 0x40 SHL SUB DUP2 GT ISZERO PUSH2 0x32E5 JUMPI PUSH2 0x32E5 PUSH2 0x5366 JUMP JUMPDEST PUSH1 0x40 MLOAD SWAP1 DUP1 DUP3 MSTORE DUP1 PUSH1 0x20 MUL PUSH1 0x20 ADD DUP3 ADD PUSH1 0x40 MSTORE DUP1 ISZERO PUSH2 0x330E JUMPI DUP2 PUSH1 0x20 ADD PUSH1 0x20 DUP3 MUL DUP1 CALLDATASIZE DUP4 CALLDATACOPY ADD SWAP1 POP JUMPDEST POP SWAP1 POP PUSH1 0x0 JUMPDEST PUSH1 0x18 SLOAD DUP2 LT ISZERO PUSH2 0x338B JUMPI PUSH1 0x18 DUP2 DUP2 SLOAD DUP2 LT PUSH2 0x3331 JUMPI PUSH2 0x3331 PUSH2 0x5106 JUMP JUMPDEST SWAP1 PUSH1 0x0 MSTORE PUSH1 0x20 PUSH1 0x0 KECCAK256 ADD PUSH1 0x0 SWAP1 SLOAD SWAP1 PUSH2 0x100 EXP SWAP1 DIV PUSH1 0x1 PUSH1 0x1 PUSH1 0xA0 SHL SUB AND DUP3 DUP3 DUP2 MLOAD DUP2 LT PUSH2 0x3361 JUMPI PUSH2 0x3361 PUSH2 0x5106 JUMP JUMPDEST PUSH1 0x1 PUSH1 0x1 PUSH1 0xA0 SHL SUB SWAP1 SWAP3 AND PUSH1 0x20 SWAP3 DUP4 MUL SWAP2 SWAP1 SWAP2 ADD SWAP1 SWAP2 ADD MSTORE DUP1 PUSH2 0x3383 DUP2 PUSH2 0x5A97 JUMP JUMPDEST SWAP2 POP POP PUSH2 0x3314 JUMP JUMPDEST POP SWAP2 SWAP1 POP JUMP JUMPDEST PUSH1 0x7 SLOAD PUSH1 0x1 PUSH1 0x1 PUSH1 0xA0 SHL SUB AND CALLER EQ DUP1 PUSH2 0x33CB JUMPI POP PUSH1 0x3 SLOAD PUSH2 0x100 SWAP1 DIV PUSH1 0x1 PUSH1 0x1 PUSH1 0xA0 SHL SUB AND PUSH1 0x1 PUSH1 0x1 PUSH1 0xA0 SHL SUB AND CALLER PUSH1 0x1 PUSH1 0x1 PUSH1 0xA0 SHL SUB AND EQ JUMPDEST PUSH2 0x33E7 JUMPI PUSH1 0x40 MLOAD PUSH3 0x461BCD PUSH1 0xE5 SHL DUP2 MSTORE PUSH1 0x4 ADD PUSH2 0x1086 SWAP1 PUSH2 0x5B8E JUMP JUMPDEST PUSH1 0x0 PUSH2 0x33F1 PUSH2 0x39D4 JUMP JUMPDEST PUSH1 0x10 SLOAD PUSH2 0x100 SWAP1 DIV PUSH1 0x1 PUSH1 0x1 PUSH1 0xA0 SHL SUB AND PUSH1 0x0 SWAP1 DUP2 MSTORE PUSH1 0x2A PUSH1 0x20 MSTORE PUSH1 0x40 SWAP1 KECCAK256 SLOAD PUSH2 0x341B SWAP2 SWAP1 PUSH2 0x5B5D JUMP JUMPDEST PUSH2 0x3426 SWAP1 PUSH1 0x4 PUSH2 0x5B28 JUMP JUMPDEST SWAP1 POP PUSH1 0x1E DUP2 LT ISZERO PUSH2 0x3436 JUMPI PUSH1 0x0 SWAP2 POP JUMPDEST DUP2 ISZERO PUSH2 0x34EF JUMPI PUSH1 0x10 DUP1 SLOAD PUSH1 0xFF NOT AND PUSH1 0x1 OR SWAP1 DUP2 SWAP1 SSTORE PUSH1 0x1 PUSH1 0x1 PUSH1 0xA0 SHL SUB PUSH2 0x100 SWAP1 SWAP2 DIV DUP2 AND PUSH1 0x0 SWAP1 DUP2 MSTORE PUSH1 0x2A PUSH1 0x20 MSTORE PUSH1 0x40 DUP1 DUP3 KECCAK256 SLOAD PUSH1 0x28 SLOAD SWAP1 SWAP4 AND DUP3 MSTORE SWAP1 KECCAK256 SLOAD PUSH2 0x3480 SWAP2 SWAP1 PUSH2 0x5132 JUMP JUMPDEST PUSH1 0x28 SLOAD PUSH1 0x1 PUSH1 0x1 PUSH1 0xA0 SHL SUB SWAP1 DUP2 AND PUSH1 0x0 SWAP1 DUP2 MSTORE PUSH1 0x2A PUSH1 0x20 MSTORE PUSH1 0x40 DUP1 DUP3 KECCAK256 SWAP4 SWAP1 SWAP4 SSTORE PUSH1 0x10 SLOAD PUSH2 0x100 SWAP1 DIV SWAP1 SWAP2 AND DUP2 MSTORE SWAP1 DUP2 KECCAK256 SSTORE PUSH2 0x34BC TIMESTAMP DUP3 PUSH2 0x48B8 JUMP JUMPDEST PUSH1 0x15 SSTORE PUSH1 0x10 SLOAD PUSH1 0x40 DUP1 MLOAD PUSH1 0x20 DUP2 ADD SWAP1 SWAP2 MSTORE PUSH1 0x0 DUP2 MSTORE PUSH2 0x2564 SWAP2 PUSH2 0x100 SWAP1 DIV PUSH1 0x1 PUSH1 0x1 PUSH1 0xA0 SHL SUB AND SWAP1 PUSH1 0x2 SWAP1 PUSH1 0x1 SWAP1 PUSH2 0x3FFB JUMP JUMPDEST PUSH1 0x10 DUP1 SLOAD PUSH1 0x1 PUSH1 0x1 PUSH1 0xA8 SHL SUB NOT AND SWAP1 SSTORE TIMESTAMP PUSH1 0x15 SSTORE PUSH1 0x40 DUP1 MLOAD PUSH1 0x20 DUP2 ADD SWAP2 DUP3 SWAP1 MSTORE PUSH1 0x0 SWAP1 DUP2 SWAP1 MSTORE PUSH2 0x3521 SWAP2 PUSH1 0x11 SWAP2 PUSH2 0x5018 JUMP JUMPDEST POP PUSH1 0x40 DUP1 MLOAD PUSH1 0x20 DUP2 ADD SWAP2 DUP3 SWAP1 MSTORE PUSH1 0x0 SWAP1 DUP2 SWAP1 MSTORE PUSH2 0x3540 SWAP2 PUSH1 0x12 SWAP2 PUSH2 0x5018 JUMP JUMPDEST POP PUSH1 0x40 DUP1 MLOAD PUSH1 0x20 DUP2 ADD SWAP2 DUP3 SWAP1 MSTORE PUSH1 0x0 SWAP1 DUP2 SWAP1 MSTORE PUSH2 0x355F SWAP2 PUSH1 0x13 SWAP2 PUSH2 0x5018 JUMP JUMPDEST POP PUSH1 0x40 DUP1 MLOAD PUSH1 0x20 DUP2 ADD SWAP2 DUP3 SWAP1 MSTORE PUSH1 0x0 SWAP1 DUP2 SWAP1 MSTORE PUSH2 0x247B SWAP2 PUSH1 0x14 SWAP2 PUSH2 0x5018 JUMP JUMPDEST PUSH1 0x0 DUP1 PUSH2 0x358C DUP6 DUP6 DUP6 PUSH2 0x3E24 JUMP JUMPDEST PUSH1 0x0 DUP2 DUP2 MSTORE PUSH1 0x2C PUSH1 0x20 MSTORE PUSH1 0x40 SWAP1 KECCAK256 SLOAD SWAP1 SWAP2 POP PUSH1 0x1 PUSH1 0x1 PUSH1 0xA0 SHL SUB AND PUSH2 0x35C3 JUMPI PUSH1 0x40 MLOAD PUSH3 0x461BCD PUSH1 0xE5 SHL DUP2 MSTORE PUSH1 0x4 ADD PUSH2 0x1086 SWAP1 PUSH2 0x5B71 JUMP JUMPDEST PUSH1 0x0 PUSH2 0x35CF DUP3 TIMESTAMP PUSH2 0x3E7B JUMP JUMPDEST PUSH1 0x0 DUP4 DUP2 MSTORE PUSH1 0x2E PUSH1 0x20 MSTORE PUSH1 0x40 SWAP1 KECCAK256 SLOAD SWAP1 SWAP2 POP PUSH1 0xFF AND ISZERO PUSH2 0x35F7 JUMPI PUSH2 0x35F4 DUP2 PUSH1 0x4 PUSH2 0x5B28 JUMP JUMPDEST SWAP1 POP JUMPDEST PUSH1 0x0 DUP2 GT PUSH2 0x3603 JUMPI POP PUSH1 0x1 JUMPDEST SWAP6 SWAP5 POP POP POP POP POP JUMP JUMPDEST PUSH1 0x0 PUSH2 0x3619 DUP5 DUP5 DUP5 PUSH2 0x3E24 JUMP JUMPDEST PUSH1 0x0 DUP2 DUP2 MSTORE PUSH1 0x2C PUSH1 0x20 MSTORE PUSH1 0x40 SWAP1 KECCAK256 SLOAD SWAP1 SWAP2 POP PUSH1 0x1 PUSH1 0x1 PUSH1 0xA0 SHL SUB AND PUSH2 0x3650 JUMPI PUSH1 0x40 MLOAD PUSH3 0x461BCD PUSH1 0xE5 SHL DUP2 MSTORE PUSH1 0x4 ADD PUSH2 0x1086 SWAP1 PUSH2 0x5B71 JUMP JUMPDEST PUSH1 0x0 DUP2 DUP2 MSTORE PUSH1 0x2D PUSH1 0x20 MSTORE PUSH1 0x40 SWAP1 KECCAK256 SLOAD PUSH2 0x366A SWAP1 PUSH1 0x1 PUSH2 0x5132 JUMP JUMPDEST PUSH1 0x0 DUP3 DUP2 MSTORE PUSH1 0x2D PUSH1 0x20 MSTORE PUSH1 0x40 DUP1 DUP3 KECCAK256 SWAP3 SWAP1 SWAP3 SSTORE SWAP1 MLOAD DUP4 SWAP2 DUP6 SWAP2 DUP8 SWAP2 PUSH32 0x4944E1AEB07A8479E05E8FC701C92C6112BD7B4B2CDE831C86B39DD0637C4F39 SWAP2 LOG4 POP POP POP POP JUMP JUMPDEST PUSH1 0x1 PUSH1 0x1 PUSH1 0xA0 SHL SUB DUP6 AND CALLER EQ DUP1 PUSH2 0x36CA JUMPI POP PUSH2 0x36CA DUP6 CALLER PUSH2 0xEB5 JUMP JUMPDEST PUSH2 0x3728 JUMPI PUSH1 0x40 MLOAD PUSH3 0x461BCD PUSH1 0xE5 SHL DUP2 MSTORE PUSH1 0x20 PUSH1 0x4 DUP3 ADD MSTORE PUSH1 0x29 PUSH1 0x24 DUP3 ADD MSTORE PUSH32 0x455243313135353A2063616C6C6572206973206E6F74206F776E6572206E6F72 PUSH1 0x44 DUP3 ADD MSTORE PUSH9 0x8185C1C1C9BDD9959 PUSH1 0xBA SHL PUSH1 0x64 DUP3 ADD MSTORE PUSH1 0x84 ADD PUSH2 0x1086 JUMP JUMPDEST PUSH1 0x1D SLOAD DUP4 LT ISZERO PUSH2 0x3760 JUMPI PUSH1 0x40 MLOAD PUSH3 0x461BCD PUSH1 0xE5 SHL DUP2 MSTORE PUSH1 0x20 PUSH1 0x4 DUP3 ADD MSTORE PUSH1 0x3 PUSH1 0x24 DUP3 ADD MSTORE PUSH3 0x32991B PUSH1 0xE9 SHL PUSH1 0x44 DUP3 ADD MSTORE PUSH1 0x64 ADD PUSH2 0x1086 JUMP JUMPDEST PUSH2 0x376D DUP6 DUP6 DUP6 DUP6 DUP6 PUSH2 0x48E0 JUMP JUMPDEST PUSH1 0x0 DUP4 DUP2 MSTORE PUSH1 0x2C PUSH1 0x20 SWAP1 DUP2 MSTORE PUSH1 0x40 DUP1 DUP4 KECCAK256 DUP1 SLOAD PUSH1 0x1 PUSH1 0x1 PUSH1 0xA0 SHL SUB NOT AND PUSH1 0x1 PUSH1 0x1 PUSH1 0xA0 SHL SUB DUP10 AND OR SWAP1 SSTORE PUSH1 0x2E SWAP1 SWAP2 MSTORE SWAP1 KECCAK256 SLOAD PUSH1 0xFF AND ISZERO PUSH2 0x2277 JUMPI PUSH1 0x0 DUP4 DUP2 MSTORE PUSH1 0x30 PUSH1 0x20 MSTORE PUSH1 0x40 SWAP1 KECCAK256 SLOAD PUSH1 0x31 DUP1 SLOAD DUP7 SWAP3 SWAP1 DUP2 LT PUSH2 0x37CB JUMPI PUSH2 0x37CB PUSH2 0x5106 JUMP JUMPDEST SWAP1 PUSH1 0x0 MSTORE PUSH1 0x20 PUSH1 0x0 KECCAK256 ADD PUSH1 0x0 PUSH2 0x100 EXP DUP2 SLOAD DUP2 PUSH1 0x1 PUSH1 0x1 PUSH1 0xA0 SHL SUB MUL NOT AND SWAP1 DUP4 PUSH1 0x1 PUSH1 0x1 PUSH1 0xA0 SHL SUB AND MUL OR SWAP1 SSTORE POP POP POP POP POP POP JUMP JUMPDEST PUSH1 0x3 SLOAD PUSH1 0x1 PUSH1 0x1 PUSH1 0xA0 SHL SUB PUSH2 0x100 SWAP1 SWAP2 DIV AND CALLER EQ PUSH2 0x3830 JUMPI PUSH1 0x40 MLOAD PUSH3 0x461BCD PUSH1 0xE5 SHL DUP2 MSTORE PUSH1 0x4 ADD PUSH2 0x1086 SWAP1 PUSH2 0x5AB2 JUMP JUMPDEST PUSH1 0x1 PUSH1 0x1 PUSH1 0xA0 SHL SUB DUP2 AND PUSH2 0x3895 JUMPI PUSH1 0x40 MLOAD PUSH3 0x461BCD PUSH1 0xE5 SHL DUP2 MSTORE PUSH1 0x20 PUSH1 0x4 DUP3 ADD MSTORE PUSH1 0x26 PUSH1 0x24 DUP3 ADD MSTORE PUSH32 0x4F776E61626C653A206E6577206F776E657220697320746865207A65726F2061 PUSH1 0x44 DUP3 ADD MSTORE PUSH6 0x646472657373 PUSH1 0xD0 SHL PUSH1 0x64 DUP3 ADD MSTORE PUSH1 0x84 ADD PUSH2 0x1086 JUMP JUMPDEST PUSH2 0x389E DUP2 PUSH2 0x43E6 JUMP JUMPDEST POP JUMP JUMPDEST PUSH1 0x3 SLOAD PUSH1 0xFF AND ISZERO PUSH2 0x38C4 JUMPI PUSH1 0x40 MLOAD PUSH3 0x461BCD PUSH1 0xE5 SHL DUP2 MSTORE PUSH1 0x4 ADD PUSH2 0x1086 SWAP1 PUSH2 0x5AE7 JUMP JUMPDEST PUSH1 0xE SLOAD PUSH1 0xFF AND ISZERO PUSH2 0x38FD JUMPI PUSH1 0x40 MLOAD PUSH3 0x461BCD PUSH1 0xE5 SHL DUP2 MSTORE PUSH1 0x20 PUSH1 0x4 DUP3 ADD MSTORE PUSH1 0x3 PUSH1 0x24 DUP3 ADD MSTORE PUSH3 0x65323 PUSH1 0xEC SHL PUSH1 0x44 DUP3 ADD MSTORE PUSH1 0x64 ADD PUSH2 0x1086 JUMP JUMPDEST PUSH1 0x1 PUSH1 0x0 JUMPDEST PUSH1 0x18 SLOAD DUP2 LT ISZERO PUSH2 0x395B JUMPI CALLER PUSH1 0x1 PUSH1 0x1 PUSH1 0xA0 SHL SUB AND PUSH1 0x18 DUP3 DUP2 SLOAD DUP2 LT PUSH2 0x3929 JUMPI PUSH2 0x3929 PUSH2 0x5106 JUMP JUMPDEST PUSH1 0x0 SWAP2 DUP3 MSTORE PUSH1 0x20 SWAP1 SWAP2 KECCAK256 ADD SLOAD PUSH1 0x1 PUSH1 0x1 PUSH1 0xA0 SHL SUB AND EQ ISZERO PUSH2 0x3949 JUMPI PUSH1 0x0 SWAP2 POP JUMPDEST DUP1 PUSH2 0x3953 DUP2 PUSH2 0x5A97 JUMP JUMPDEST SWAP2 POP POP PUSH2 0x3902 JUMP JUMPDEST POP DUP1 PUSH2 0x398F JUMPI PUSH1 0x40 MLOAD PUSH3 0x461BCD PUSH1 0xE5 SHL DUP2 MSTORE PUSH1 0x20 PUSH1 0x4 DUP3 ADD MSTORE PUSH1 0x3 PUSH1 0x24 DUP3 ADD MSTORE PUSH3 0x653231 PUSH1 0xE8 SHL PUSH1 0x44 DUP3 ADD MSTORE PUSH1 0x64 ADD PUSH2 0x1086 JUMP JUMPDEST POP PUSH1 0x18 DUP1 SLOAD PUSH1 0x1 DUP2 ADD DUP3 SSTORE PUSH1 0x0 SWAP2 SWAP1 SWAP2 MSTORE PUSH32 0xB13D2D76D1F4B7BE834882E410B3E3A8AFAF69F83600AE24DB354391D2378D2E ADD DUP1 SLOAD PUSH1 0x1 PUSH1 0x1 PUSH1 0xA0 SHL SUB NOT AND CALLER OR SWAP1 SSTORE JUMP JUMPDEST PUSH1 0x0 DUP1 PUSH1 0xB PUSH1 0x0 SWAP1 SLOAD SWAP1 PUSH2 0x100 EXP SWAP1 DIV PUSH1 0x1 PUSH1 0x1 PUSH1 0xA0 SHL SUB AND PUSH1 0x1 PUSH1 0x1 PUSH1 0xA0 SHL SUB AND PUSH4 0xFEAF968C PUSH1 0x40 MLOAD DUP2 PUSH4 0xFFFFFFFF AND PUSH1 0xE0 SHL DUP2 MSTORE PUSH1 0x4 ADD PUSH1 0xA0 PUSH1 0x40 MLOAD DUP1 DUP4 SUB DUP2 DUP7 GAS STATICCALL ISZERO DUP1 ISZERO PUSH2 0x3A2A JUMPI RETURNDATASIZE PUSH1 0x0 DUP1 RETURNDATACOPY RETURNDATASIZE PUSH1 0x0 REVERT JUMPDEST POP POP POP POP PUSH1 0x40 MLOAD RETURNDATASIZE PUSH1 0x1F NOT PUSH1 0x1F DUP3 ADD AND DUP3 ADD DUP1 PUSH1 0x40 MSTORE POP DUP2 ADD SWAP1 PUSH2 0x3A4E SWAP2 SWAP1 PUSH2 0x5BC4 JUMP JUMPDEST POP POP POP SWAP2 POP POP DUP1 PUSH5 0x2540BE400 PUSH2 0x3A65 SWAP2 SWAP1 PUSH2 0x5B28 JUMP JUMPDEST PUSH1 0x16 SLOAD PUSH2 0x3A7A SWAP1 PUSH8 0xDE0B6B3A7640000 PUSH2 0x5B28 JUMP JUMPDEST PUSH2 0x3A84 SWAP2 SWAP1 PUSH2 0x5B5D JUMP JUMPDEST SWAP2 POP POP SWAP1 JUMP JUMPDEST PUSH1 0x0 PUSH2 0x3A97 DUP9 DUP9 DUP9 PUSH2 0x3E24 JUMP JUMPDEST SWAP1 POP PUSH1 0xFF DUP6 MLOAD GT ISZERO PUSH2 0x3AD1 JUMPI PUSH1 0x40 MLOAD PUSH3 0x461BCD PUSH1 0xE5 SHL DUP2 MSTORE PUSH1 0x20 PUSH1 0x4 DUP3 ADD MSTORE PUSH1 0x3 PUSH1 0x24 DUP3 ADD MSTORE PUSH3 0x329919 PUSH1 0xE9 SHL PUSH1 0x44 DUP3 ADD MSTORE PUSH1 0x64 ADD PUSH2 0x1086 JUMP JUMPDEST PUSH1 0x0 DUP2 DUP2 MSTORE PUSH1 0x2C PUSH1 0x20 MSTORE PUSH1 0x40 SWAP1 KECCAK256 SLOAD PUSH1 0x1 PUSH1 0x1 PUSH1 0xA0 SHL SUB AND PUSH2 0x3B1B JUMPI PUSH1 0x40 MLOAD PUSH3 0x461BCD PUSH1 0xE5 SHL DUP2 MSTORE PUSH1 0x20 PUSH1 0x4 DUP3 ADD MSTORE PUSH1 0x3 PUSH1 0x24 DUP3 ADD MSTORE PUSH3 0x653233 PUSH1 0xE8 SHL PUSH1 0x44 DUP3 ADD MSTORE PUSH1 0x64 ADD PUSH2 0x1086 JUMP JUMPDEST PUSH1 0x0 DUP2 DUP2 MSTORE PUSH1 0x2C PUSH1 0x20 MSTORE PUSH1 0x40 SWAP1 KECCAK256 SLOAD PUSH1 0x1 PUSH1 0x1 PUSH1 0xA0 SHL SUB AND CALLER EQ PUSH2 0x3B67 JUMPI PUSH1 0x40 MLOAD PUSH3 0x461BCD PUSH1 0xE5 SHL DUP2 MSTORE PUSH1 0x20 PUSH1 0x4 DUP3 ADD MSTORE PUSH1 0x3 PUSH1 0x24 DUP3 ADD MSTORE PUSH3 0x194C8D PUSH1 0xEA SHL PUSH1 0x44 DUP3 ADD MSTORE PUSH1 0x64 ADD PUSH2 0x1086 JUMP JUMPDEST PUSH2 0x3B8A DUP6 PUSH1 0x40 MLOAD DUP1 PUSH1 0x40 ADD PUSH1 0x40 MSTORE DUP1 PUSH1 0x1 DUP2 MSTORE PUSH1 0x20 ADD PUSH1 0x1 PUSH1 0xFD SHL DUP2 MSTORE POP PUSH2 0x46E3 JUMP JUMPDEST PUSH2 0x3BBE JUMPI PUSH1 0x0 DUP2 DUP2 MSTORE PUSH1 0x32 PUSH1 0x20 SWAP1 DUP2 MSTORE PUSH1 0x40 SWAP1 SWAP2 KECCAK256 DUP7 MLOAD PUSH2 0x3BAD SWAP3 DUP9 ADD SWAP1 PUSH2 0x5018 JUMP JUMPDEST POP PUSH1 0x0 DUP2 DUP2 MSTORE PUSH1 0x2D PUSH1 0x20 MSTORE PUSH1 0x40 DUP2 KECCAK256 SSTORE JUMPDEST PUSH2 0x3BE1 DUP4 PUSH1 0x40 MLOAD DUP1 PUSH1 0x40 ADD PUSH1 0x40 MSTORE DUP1 PUSH1 0x1 DUP2 MSTORE PUSH1 0x20 ADD PUSH1 0x1 PUSH1 0xFD SHL DUP2 MSTORE POP PUSH2 0x46E3 JUMP JUMPDEST PUSH2 0x3C07 JUMPI CALLER PUSH1 0x0 SWAP1 DUP2 MSTORE PUSH1 0x34 PUSH1 0x20 SWAP1 DUP2 MSTORE PUSH1 0x40 SWAP1 SWAP2 KECCAK256 DUP5 MLOAD PUSH2 0x3C05 SWAP3 DUP7 ADD SWAP1 PUSH2 0x5018 JUMP JUMPDEST POP JUMPDEST PUSH2 0x3C2A DUP3 PUSH1 0x40 MLOAD DUP1 PUSH1 0x40 ADD PUSH1 0x40 MSTORE DUP1 PUSH1 0x1 DUP2 MSTORE PUSH1 0x20 ADD PUSH1 0x1 PUSH1 0xFD SHL DUP2 MSTORE POP PUSH2 0x46E3 JUMP JUMPDEST PUSH2 0x3C4F JUMPI PUSH1 0x0 DUP2 DUP2 MSTORE PUSH1 0x35 PUSH1 0x20 SWAP1 DUP2 MSTORE PUSH1 0x40 SWAP1 SWAP2 KECCAK256 DUP4 MLOAD PUSH2 0x3C4D SWAP3 DUP6 ADD SWAP1 PUSH2 0x5018 JUMP JUMPDEST POP JUMPDEST PUSH2 0x3C72 DUP5 PUSH1 0x40 MLOAD DUP1 PUSH1 0x40 ADD PUSH1 0x40 MSTORE DUP1 PUSH1 0x1 DUP2 MSTORE PUSH1 0x20 ADD PUSH1 0x1 PUSH1 0xFD SHL DUP2 MSTORE POP PUSH2 0x46E3 JUMP JUMPDEST PUSH2 0x3DC3 JUMPI PUSH1 0x40 DUP1 MLOAD DUP1 DUP3 ADD DUP3 MSTORE PUSH1 0x0 DUP1 DUP3 MSTORE PUSH1 0x20 SWAP2 DUP3 ADD MSTORE DUP2 MLOAD DUP1 DUP4 ADD SWAP1 SWAP3 MSTORE DUP6 MLOAD DUP3 MSTORE DUP1 DUP7 ADD SWAP1 DUP3 ADD MSTORE PUSH2 0x3D61 SWAP1 PUSH2 0x3D5C PUSH1 0x5 DUP1 SLOAD PUSH2 0x3CB1 SWAP1 PUSH2 0x5A62 JUMP JUMPDEST DUP1 PUSH1 0x1F ADD PUSH1 0x20 DUP1 SWAP2 DIV MUL PUSH1 0x20 ADD PUSH1 0x40 MLOAD SWAP1 DUP2 ADD PUSH1 0x40 MSTORE DUP1 SWAP3 SWAP2 SWAP1 DUP2 DUP2 MSTORE PUSH1 0x20 ADD DUP3 DUP1 SLOAD PUSH2 0x3CDD SWAP1 PUSH2 0x5A62 JUMP JUMPDEST DUP1 ISZERO PUSH2 0x3D2A JUMPI DUP1 PUSH1 0x1F LT PUSH2 0x3CFF JUMPI PUSH2 0x100 DUP1 DUP4 SLOAD DIV MUL DUP4 MSTORE SWAP2 PUSH1 0x20 ADD SWAP2 PUSH2 0x3D2A JUMP JUMPDEST DUP3 ADD SWAP2 SWAP1 PUSH1 0x0 MSTORE PUSH1 0x20 PUSH1 0x0 KECCAK256 SWAP1 JUMPDEST DUP2 SLOAD DUP2 MSTORE SWAP1 PUSH1 0x1 ADD SWAP1 PUSH1 0x20 ADD DUP1 DUP4 GT PUSH2 0x3D0D JUMPI DUP3 SWAP1 SUB PUSH1 0x1F AND DUP3 ADD SWAP2 JUMPDEST POP POP POP POP POP PUSH1 0x40 DUP1 MLOAD DUP1 DUP3 ADD DUP3 MSTORE PUSH1 0x0 DUP1 DUP3 MSTORE PUSH1 0x20 SWAP2 DUP3 ADD MSTORE DUP2 MLOAD DUP1 DUP4 ADD SWAP1 SWAP3 MSTORE DUP3 MLOAD DUP3 MSTORE SWAP2 DUP3 ADD SWAP2 DUP2 ADD SWAP2 SWAP1 SWAP2 MSTORE SWAP1 JUMP JUMPDEST PUSH2 0x4A3B JUMP JUMPDEST PUSH2 0x3D93 JUMPI PUSH1 0x40 MLOAD PUSH3 0x461BCD PUSH1 0xE5 SHL DUP2 MSTORE PUSH1 0x20 PUSH1 0x4 DUP3 ADD MSTORE PUSH1 0x3 PUSH1 0x24 DUP3 ADD MSTORE PUSH3 0x653235 PUSH1 0xE8 SHL PUSH1 0x44 DUP3 ADD MSTORE PUSH1 0x64 ADD PUSH2 0x1086 JUMP JUMPDEST PUSH1 0x0 DUP2 DUP2 MSTORE PUSH1 0x33 PUSH1 0x20 SWAP1 DUP2 MSTORE PUSH1 0x40 SWAP1 SWAP2 KECCAK256 DUP6 MLOAD PUSH2 0x3DB2 SWAP3 DUP8 ADD SWAP1 PUSH2 0x5018 JUMP JUMPDEST POP PUSH1 0x0 DUP2 DUP2 MSTORE PUSH1 0x2D PUSH1 0x20 MSTORE PUSH1 0x40 DUP2 KECCAK256 SSTORE JUMPDEST DUP6 DUP8 DUP10 PUSH32 0xE80E787D8312C1F12419513EF663CCBFAA42EA5226B0A7BE319138F4A30745E2 PUSH1 0x40 MLOAD PUSH1 0x40 MLOAD DUP1 SWAP2 SUB SWAP1 LOG4 POP POP POP POP POP POP POP POP JUMP JUMPDEST PUSH1 0x0 PUSH2 0x3E0B PUSH3 0x15180 DUP4 PUSH2 0x5B28 JUMP JUMPDEST PUSH2 0x3E15 SWAP1 DUP5 PUSH2 0x5B11 JUMP JUMPDEST SWAP1 POP DUP3 DUP2 GT ISZERO PUSH2 0x10B2 JUMPI PUSH1 0x0 DUP1 REVERT JUMPDEST PUSH1 0x0 PUSH3 0x15180 PUSH2 0x3E35 DUP6 DUP6 DUP6 PUSH2 0x4A7F JUMP JUMPDEST PUSH2 0x1115 SWAP2 SWAP1 PUSH2 0x5B28 JUMP JUMPDEST PUSH1 0x0 PUSH2 0x3E4C PUSH1 0x4 DUP4 PUSH2 0x5C14 JUMP JUMPDEST ISZERO DUP1 ISZERO PUSH2 0x3E62 JUMPI POP PUSH2 0x3E5F PUSH1 0x64 DUP4 PUSH2 0x5C14 JUMP JUMPDEST ISZERO ISZERO JUMPDEST DUP1 PUSH2 0x10B2 JUMPI POP PUSH2 0x3E74 PUSH2 0x190 DUP4 PUSH2 0x5C14 JUMP JUMPDEST ISZERO SWAP3 SWAP2 POP POP JUMP JUMPDEST PUSH1 0x0 DUP2 DUP4 GT ISZERO PUSH2 0x3E8A JUMPI PUSH1 0x0 DUP1 REVERT JUMPDEST PUSH1 0x0 DUP1 DUP1 DUP1 DUP1 DUP1 PUSH2 0x3EA6 PUSH2 0x3EA1 PUSH3 0x15180 DUP12 PUSH2 0x5B5D JUMP JUMPDEST PUSH2 0x4BBC JUMP JUMPDEST SWAP2 SWAP8 POP SWAP6 POP SWAP4 POP PUSH2 0x3EBD PUSH2 0x3EA1 PUSH3 0x15180 DUP11 PUSH2 0x5B5D JUMP JUMPDEST SWAP2 SWAP5 POP SWAP3 POP SWAP1 POP PUSH2 0x3ECE DUP7 DUP5 PUSH2 0x5B11 JUMP JUMPDEST SWAP10 SWAP9 POP POP POP POP POP POP POP POP POP JUMP JUMPDEST POP POP POP POP POP POP JUMP JUMPDEST EXTCODESIZE ISZERO ISZERO SWAP1 JUMP JUMPDEST PUSH1 0x3 SLOAD PUSH1 0xFF AND PUSH2 0x3F32 JUMPI PUSH1 0x40 MLOAD PUSH3 0x461BCD PUSH1 0xE5 SHL DUP2 MSTORE PUSH1 0x20 PUSH1 0x4 DUP3 ADD MSTORE PUSH1 0x14 PUSH1 0x24 DUP3 ADD MSTORE PUSH20 0x14185D5CD8589B194E881B9BDD081C185D5CD959 PUSH1 0x62 SHL PUSH1 0x44 DUP3 ADD MSTORE PUSH1 0x64 ADD PUSH2 0x1086 JUMP JUMPDEST PUSH1 0x3 DUP1 SLOAD PUSH1 0xFF NOT AND SWAP1 SSTORE PUSH32 0x5DB9EE0A495BF2E6FF9C91A7834C1BA4FDD244A5E8AA4E537BD38AEAE4B073AA CALLER JUMPDEST PUSH1 0x40 MLOAD PUSH1 0x1 PUSH1 0x1 PUSH1 0xA0 SHL SUB SWAP1 SWAP2 AND DUP2 MSTORE PUSH1 0x20 ADD PUSH1 0x40 MLOAD DUP1 SWAP2 SUB SWAP1 LOG1 JUMP JUMPDEST PUSH1 0x3 SLOAD PUSH1 0xFF AND ISZERO PUSH2 0x3F9F JUMPI PUSH1 0x40 MLOAD PUSH3 0x461BCD PUSH1 0xE5 SHL DUP2 MSTORE PUSH1 0x4 ADD PUSH2 0x1086 SWAP1 PUSH2 0x5AE7 JUMP JUMPDEST PUSH1 0x3 DUP1 SLOAD PUSH1 0xFF NOT AND PUSH1 0x1 OR SWAP1 SSTORE PUSH32 0x62E78CEA01BEE320CD4E420270B5EA74000D11B0C9F74754EBDBFC544B05A258 PUSH2 0x3F5F CALLER SWAP1 JUMP JUMPDEST PUSH1 0x0 DUP2 DUP4 GT ISZERO PUSH2 0x3FE3 JUMPI PUSH1 0x0 DUP1 REVERT JUMPDEST PUSH3 0x15180 PUSH2 0x3FF1 DUP5 DUP5 PUSH2 0x5B11 JUMP JUMPDEST PUSH2 0x24A2 SWAP2 SWAP1 PUSH2 0x5B5D JUMP JUMPDEST PUSH1 0x1 PUSH1 0x1 PUSH1 0xA0 SHL SUB DUP5 AND PUSH2 0x405B JUMPI PUSH1 0x40 MLOAD PUSH3 0x461BCD PUSH1 0xE5 SHL DUP2 MSTORE PUSH1 0x20 PUSH1 0x4 DUP3 ADD MSTORE PUSH1 0x21 PUSH1 0x24 DUP3 ADD MSTORE PUSH32 0x455243313135353A206D696E7420746F20746865207A65726F20616464726573 PUSH1 0x44 DUP3 ADD MSTORE PUSH1 0x73 PUSH1 0xF8 SHL PUSH1 0x64 DUP3 ADD MSTORE PUSH1 0x84 ADD PUSH2 0x1086 JUMP JUMPDEST CALLER PUSH2 0x407B DUP2 PUSH1 0x0 DUP8 PUSH2 0x406C DUP9 PUSH2 0x4D30 JUMP JUMPDEST PUSH2 0x4075 DUP9 PUSH2 0x4D30 JUMP JUMPDEST DUP8 PUSH2 0x4D7B JUMP JUMPDEST PUSH1 0x0 DUP5 DUP2 MSTORE PUSH1 0x20 DUP2 DUP2 MSTORE PUSH1 0x40 DUP1 DUP4 KECCAK256 PUSH1 0x1 PUSH1 0x1 PUSH1 0xA0 SHL SUB DUP10 AND DUP5 MSTORE SWAP1 SWAP2 MSTORE DUP2 KECCAK256 DUP1 SLOAD DUP6 SWAP3 SWAP1 PUSH2 0x40AB SWAP1 DUP5 SWAP1 PUSH2 0x5132 JUMP JUMPDEST SWAP1 SWAP2 SSTORE POP POP PUSH1 0x40 DUP1 MLOAD DUP6 DUP2 MSTORE PUSH1 0x20 DUP2 ADD DUP6 SWAP1 MSTORE PUSH1 0x1 PUSH1 0x1 PUSH1 0xA0 SHL SUB DUP1 DUP9 AND SWAP3 PUSH1 0x0 SWAP3 SWAP2 DUP6 AND SWAP2 PUSH32 0xC3D58168C5AE7397731D063D5BBF3D657854427343F4C083240F7AACAA2D0F62 SWAP2 ADD PUSH1 0x40 MLOAD DUP1 SWAP2 SUB SWAP1 LOG4 PUSH2 0x2277 DUP2 PUSH1 0x0 DUP8 DUP8 DUP8 DUP8 PUSH2 0x4DE3 JUMP JUMPDEST PUSH1 0x20 SLOAD PUSH1 0x0 SWAP1 PUSH2 0x411B SWAP1 DUP4 PUSH2 0x5B5D JUMP JUMPDEST SWAP1 POP PUSH1 0x0 JUMPDEST PUSH1 0x20 SLOAD DUP2 LT ISZERO PUSH2 0x247B JUMPI DUP2 PUSH1 0x2A PUSH1 0x0 PUSH1 0x2C PUSH1 0x0 PUSH1 0x20 DUP7 DUP2 SLOAD DUP2 LT PUSH2 0x4146 JUMPI PUSH2 0x4146 PUSH2 0x5106 JUMP JUMPDEST PUSH1 0x0 SWAP2 DUP3 MSTORE PUSH1 0x20 DUP1 DUP4 KECCAK256 SWAP1 SWAP2 ADD SLOAD DUP4 MSTORE DUP3 DUP2 ADD SWAP4 SWAP1 SWAP4 MSTORE PUSH1 0x40 SWAP2 DUP3 ADD DUP2 KECCAK256 SLOAD PUSH1 0x1 PUSH1 0x1 PUSH1 0xA0 SHL SUB AND DUP5 MSTORE SWAP2 DUP4 ADD SWAP4 SWAP1 SWAP4 MSTORE SWAP2 ADD SWAP1 KECCAK256 SLOAD PUSH2 0x4186 SWAP2 SWAP1 PUSH2 0x5132 JUMP JUMPDEST PUSH1 0x2A PUSH1 0x0 PUSH1 0x2C PUSH1 0x0 PUSH1 0x20 DUP7 DUP2 SLOAD DUP2 LT PUSH2 0x41A1 JUMPI PUSH2 0x41A1 PUSH2 0x5106 JUMP JUMPDEST PUSH1 0x0 SWAP2 DUP3 MSTORE PUSH1 0x20 DUP1 DUP4 KECCAK256 SWAP1 SWAP2 ADD SLOAD DUP4 MSTORE DUP3 DUP2 ADD SWAP4 SWAP1 SWAP4 MSTORE PUSH1 0x40 SWAP2 DUP3 ADD DUP2 KECCAK256 SLOAD PUSH1 0x1 PUSH1 0x1 PUSH1 0xA0 SHL SUB AND DUP5 MSTORE SWAP2 DUP4 ADD SWAP4 SWAP1 SWAP4 MSTORE SWAP2 ADD SWAP1 KECCAK256 SSTORE DUP1 PUSH2 0x41E1 DUP2 PUSH2 0x5A97 JUMP JUMPDEST SWAP2 POP POP PUSH2 0x4120 JUMP JUMPDEST PUSH1 0x31 SLOAD PUSH1 0x0 SWAP1 PUSH2 0x41F9 SWAP1 DUP4 PUSH2 0x5B5D JUMP JUMPDEST SWAP1 POP PUSH1 0x0 JUMPDEST PUSH1 0x31 SLOAD DUP2 LT ISZERO PUSH2 0x247B JUMPI DUP2 PUSH1 0x2A PUSH1 0x0 PUSH1 0x31 DUP5 DUP2 SLOAD DUP2 LT PUSH2 0x4220 JUMPI PUSH2 0x4220 PUSH2 0x5106 JUMP JUMPDEST PUSH1 0x0 SWAP2 DUP3 MSTORE PUSH1 0x20 DUP1 DUP4 KECCAK256 SWAP1 SWAP2 ADD SLOAD PUSH1 0x1 PUSH1 0x1 PUSH1 0xA0 SHL SUB AND DUP4 MSTORE DUP3 ADD SWAP3 SWAP1 SWAP3 MSTORE PUSH1 0x40 ADD SWAP1 KECCAK256 SLOAD PUSH2 0x424F SWAP2 SWAP1 PUSH2 0x5132 JUMP JUMPDEST PUSH1 0x2A PUSH1 0x0 PUSH1 0x31 DUP5 DUP2 SLOAD DUP2 LT PUSH2 0x4266 JUMPI PUSH2 0x4266 PUSH2 0x5106 JUMP JUMPDEST PUSH1 0x0 SWAP2 DUP3 MSTORE PUSH1 0x20 DUP1 DUP4 KECCAK256 SWAP1 SWAP2 ADD SLOAD PUSH1 0x1 PUSH1 0x1 PUSH1 0xA0 SHL SUB AND DUP4 MSTORE DUP3 ADD SWAP3 SWAP1 SWAP3 MSTORE PUSH1 0x40 ADD SWAP1 KECCAK256 SSTORE DUP1 PUSH2 0x4295 DUP2 PUSH2 0x5A97 JUMP JUMPDEST SWAP2 POP POP PUSH2 0x41FE JUMP JUMPDEST DUP5 MLOAD DUP2 LT ISZERO PUSH2 0x4380 JUMPI PUSH1 0x0 DUP6 DUP3 DUP2 MLOAD DUP2 LT PUSH2 0x42BA JUMPI PUSH2 0x42BA PUSH2 0x5106 JUMP JUMPDEST PUSH1 0x20 MUL PUSH1 0x20 ADD ADD MLOAD SWAP1 POP PUSH1 0x0 DUP6 DUP4 DUP2 MLOAD DUP2 LT PUSH2 0x42D8 JUMPI PUSH2 0x42D8 PUSH2 0x5106 JUMP JUMPDEST PUSH1 0x20 SWAP1 DUP2 MUL SWAP2 SWAP1 SWAP2 ADD DUP2 ADD MLOAD PUSH1 0x0 DUP5 DUP2 MSTORE DUP1 DUP4 MSTORE PUSH1 0x40 DUP1 DUP3 KECCAK256 PUSH1 0x1 PUSH1 0x1 PUSH1 0xA0 SHL SUB DUP15 AND DUP4 MSTORE SWAP1 SWAP4 MSTORE SWAP2 SWAP1 SWAP2 KECCAK256 SLOAD SWAP1 SWAP2 POP DUP2 DUP2 LT ISZERO PUSH2 0x4328 JUMPI PUSH1 0x40 MLOAD PUSH3 0x461BCD PUSH1 0xE5 SHL DUP2 MSTORE PUSH1 0x4 ADD PUSH2 0x1086 SWAP1 PUSH2 0x5C28 JUMP JUMPDEST PUSH1 0x0 DUP4 DUP2 MSTORE PUSH1 0x20 DUP2 DUP2 MSTORE PUSH1 0x40 DUP1 DUP4 KECCAK256 PUSH1 0x1 PUSH1 0x1 PUSH1 0xA0 SHL SUB DUP15 DUP2 AND DUP6 MSTORE SWAP3 MSTORE DUP1 DUP4 KECCAK256 DUP6 DUP6 SUB SWAP1 SSTORE SWAP1 DUP12 AND DUP3 MSTORE DUP2 KECCAK256 DUP1 SLOAD DUP5 SWAP3 SWAP1 PUSH2 0x4365 SWAP1 DUP5 SWAP1 PUSH2 0x5132 JUMP JUMPDEST SWAP3 POP POP DUP2 SWAP1 SSTORE POP POP POP POP DUP1 PUSH2 0x4379 SWAP1 PUSH2 0x5A97 JUMP JUMPDEST SWAP1 POP PUSH2 0x429D JUMP JUMPDEST POP DUP5 PUSH1 0x1 PUSH1 0x1 PUSH1 0xA0 SHL SUB AND DUP7 PUSH1 0x1 PUSH1 0x1 PUSH1 0xA0 SHL SUB AND DUP3 PUSH1 0x1 PUSH1 0x1 PUSH1 0xA0 SHL SUB AND PUSH32 0x4A39DC06D4C0DBC64B70AF90FD698A233A518AA5D07E595D983B8C0526C8F7FB DUP8 DUP8 PUSH1 0x40 MLOAD PUSH2 0x43D0 SWAP3 SWAP2 SWAP1 PUSH2 0x5C72 JUMP JUMPDEST PUSH1 0x40 MLOAD DUP1 SWAP2 SUB SWAP1 LOG4 PUSH2 0x3EDB DUP2 DUP8 DUP8 DUP8 DUP8 DUP8 PUSH2 0x4F3F JUMP JUMPDEST PUSH1 0x3 DUP1 SLOAD PUSH1 0x1 PUSH1 0x1 PUSH1 0xA0 SHL SUB DUP4 DUP2 AND PUSH2 0x100 DUP2 DUP2 MUL PUSH2 0x100 PUSH1 0x1 PUSH1 0xA8 SHL SUB NOT DUP6 AND OR SWAP1 SWAP5 SSTORE PUSH1 0x40 MLOAD SWAP4 SWAP1 SWAP3 DIV AND SWAP2 DUP3 SWAP1 PUSH32 0x8BE0079C531659141344CD1FD0A4F28419497F9722A3DAAFE3B4186F6B6457E0 SWAP1 PUSH1 0x0 SWAP1 LOG3 POP POP JUMP JUMPDEST DUP2 PUSH1 0x6 SLOAD EQ PUSH2 0x4477 JUMPI PUSH1 0x40 MLOAD PUSH3 0x461BCD PUSH1 0xE5 SHL DUP2 MSTORE PUSH1 0x20 PUSH1 0x4 DUP3 ADD MSTORE PUSH1 0x3 PUSH1 0x24 DUP3 ADD MSTORE PUSH3 0xCA627 PUSH1 0xEB SHL PUSH1 0x44 DUP3 ADD MSTORE PUSH1 0x64 ADD PUSH2 0x1086 JUMP JUMPDEST PUSH1 0x0 DUP2 GT PUSH2 0x44AD JUMPI PUSH1 0x40 MLOAD PUSH3 0x461BCD PUSH1 0xE5 SHL DUP2 MSTORE PUSH1 0x20 PUSH1 0x4 DUP3 ADD MSTORE PUSH1 0x3 PUSH1 0x24 DUP3 ADD MSTORE PUSH3 0x653139 PUSH1 0xE8 SHL PUSH1 0x44 DUP3 ADD MSTORE PUSH1 0x64 ADD PUSH2 0x1086 JUMP JUMPDEST PUSH1 0x18 SLOAD PUSH1 0x0 SWAP1 PUSH2 0x44BD SWAP1 DUP4 PUSH2 0x5C14 JUMP JUMPDEST SWAP1 POP PUSH1 0x2B PUSH1 0x0 PUSH1 0x18 DUP4 DUP2 SLOAD DUP2 LT PUSH2 0x44D6 JUMPI PUSH2 0x44D6 PUSH2 0x5106 JUMP JUMPDEST PUSH1 0x0 SWAP2 DUP3 MSTORE PUSH1 0x20 DUP1 DUP4 KECCAK256 SWAP1 SWAP2 ADD SLOAD PUSH1 0x1 PUSH1 0x1 PUSH1 0xA0 SHL SUB AND DUP4 MSTORE DUP3 ADD SWAP3 SWAP1 SWAP3 MSTORE PUSH1 0x40 ADD SWAP1 KECCAK256 SLOAD PUSH2 0x4506 SWAP1 PUSH1 0x1 PUSH2 0x5132 JUMP JUMPDEST PUSH1 0x2B PUSH1 0x0 PUSH1 0x18 DUP5 DUP2 SLOAD DUP2 LT PUSH2 0x451D JUMPI PUSH2 0x451D PUSH2 0x5106 JUMP JUMPDEST PUSH1 0x0 SWAP2 DUP3 MSTORE PUSH1 0x20 DUP1 DUP4 KECCAK256 SWAP1 SWAP2 ADD SLOAD PUSH1 0x1 PUSH1 0x1 PUSH1 0xA0 SHL SUB AND DUP4 MSTORE DUP3 ADD SWAP3 SWAP1 SWAP3 MSTORE PUSH1 0x40 ADD SWAP1 KECCAK256 SSTORE PUSH1 0x18 DUP1 SLOAD DUP3 SWAP1 DUP2 LT PUSH2 0x4556 JUMPI PUSH2 0x4556 PUSH2 0x5106 JUMP JUMPDEST PUSH1 0x0 SWAP2 DUP3 MSTORE PUSH1 0x20 SWAP1 SWAP2 KECCAK256 ADD SLOAD PUSH1 0xA DUP1 SLOAD PUSH1 0x1 PUSH1 0x1 PUSH1 0xA0 SHL SUB NOT AND PUSH1 0x1 PUSH1 0x1 PUSH1 0xA0 SHL SUB SWAP1 SWAP3 AND SWAP2 SWAP1 SWAP2 OR SWAP1 SSTORE PUSH1 0x18 DUP1 SLOAD DUP3 SWAP1 DUP2 LT PUSH2 0x4595 JUMPI PUSH2 0x4595 PUSH2 0x5106 JUMP JUMPDEST PUSH1 0x0 SWAP2 DUP3 MSTORE PUSH1 0x20 SWAP2 DUP3 SWAP1 KECCAK256 ADD SLOAD PUSH1 0x40 MLOAD DUP5 DUP2 MSTORE PUSH1 0x1 PUSH1 0x1 PUSH1 0xA0 SHL SUB SWAP1 SWAP2 AND SWAP2 PUSH32 0x8DCB1B46B7E05DD96ECD3AE5F7B77B7C6E369F8CED83A2AB24368C4F8E16B8C9 SWAP2 ADD PUSH1 0x40 MLOAD DUP1 SWAP2 SUB SWAP1 LOG2 PUSH1 0x40 DUP1 MLOAD PUSH1 0x0 DUP2 MSTORE PUSH1 0x20 DUP2 ADD SWAP2 DUP3 SWAP1 MSTORE MLOAD PUSH2 0x45FC SWAP2 PUSH1 0x18 SWAP2 PUSH2 0x509C JUMP JUMPDEST POP POP POP POP JUMP JUMPDEST DUP2 PUSH1 0x1 PUSH1 0x1 PUSH1 0xA0 SHL SUB AND DUP4 PUSH1 0x1 PUSH1 0x1 PUSH1 0xA0 SHL SUB AND EQ ISZERO PUSH2 0x4676 JUMPI PUSH1 0x40 MLOAD PUSH3 0x461BCD PUSH1 0xE5 SHL DUP2 MSTORE PUSH1 0x20 PUSH1 0x4 DUP3 ADD MSTORE PUSH1 0x29 PUSH1 0x24 DUP3 ADD MSTORE PUSH32 0x455243313135353A2073657474696E6720617070726F76616C20737461747573 PUSH1 0x44 DUP3 ADD MSTORE PUSH9 0x103337B91039B2B633 PUSH1 0xB9 SHL PUSH1 0x64 DUP3 ADD MSTORE PUSH1 0x84 ADD PUSH2 0x1086 JUMP JUMPDEST PUSH1 0x1 PUSH1 0x1 PUSH1 0xA0 SHL SUB DUP4 DUP2 AND PUSH1 0x0 DUP2 DUP2 MSTORE PUSH1 0x1 PUSH1 0x20 SWAP1 DUP2 MSTORE PUSH1 0x40 DUP1 DUP4 KECCAK256 SWAP5 DUP8 AND DUP1 DUP5 MSTORE SWAP5 DUP3 MSTORE SWAP2 DUP3 SWAP1 KECCAK256 DUP1 SLOAD PUSH1 0xFF NOT AND DUP7 ISZERO ISZERO SWAP1 DUP2 OR SWAP1 SWAP2 SSTORE SWAP2 MLOAD SWAP2 DUP3 MSTORE PUSH32 0x17307EAB39AB6107E8899845AD3D59BD9653F200F220920489CA2B5937696C31 SWAP2 ADD PUSH1 0x40 MLOAD DUP1 SWAP2 SUB SWAP1 LOG3 POP POP POP JUMP JUMPDEST PUSH1 0x0 DUP2 PUSH1 0x40 MLOAD PUSH1 0x20 ADD PUSH2 0x46F6 SWAP2 SWAP1 PUSH2 0x5C97 JUMP JUMPDEST PUSH1 0x40 MLOAD PUSH1 0x20 DUP2 DUP4 SUB SUB DUP2 MSTORE SWAP1 PUSH1 0x40 MSTORE DUP1 MLOAD SWAP1 PUSH1 0x20 ADD KECCAK256 DUP4 PUSH1 0x40 MLOAD PUSH1 0x20 ADD PUSH2 0x471D SWAP2 SWAP1 PUSH2 0x5C97 JUMP JUMPDEST PUSH1 0x40 MLOAD PUSH1 0x20 DUP2 DUP4 SUB SUB DUP2 MSTORE SWAP1 PUSH1 0x40 MSTORE DUP1 MLOAD SWAP1 PUSH1 0x20 ADD KECCAK256 EQ SWAP1 POP SWAP3 SWAP2 POP POP JUMP JUMPDEST PUSH1 0x0 PUSH32 0x0 PUSH1 0x1 PUSH1 0x1 PUSH1 0xA0 SHL SUB AND PUSH4 0x4000AEA0 PUSH32 0x0 DUP5 DUP7 PUSH1 0x0 PUSH1 0x40 MLOAD PUSH1 0x20 ADD PUSH2 0x47AC SWAP3 SWAP2 SWAP1 SWAP2 DUP3 MSTORE PUSH1 0x20 DUP3 ADD MSTORE PUSH1 0x40 ADD SWAP1 JUMP JUMPDEST PUSH1 0x40 MLOAD PUSH1 0x20 DUP2 DUP4 SUB SUB DUP2 MSTORE SWAP1 PUSH1 0x40 MSTORE PUSH1 0x40 MLOAD DUP5 PUSH4 0xFFFFFFFF AND PUSH1 0xE0 SHL DUP2 MSTORE PUSH1 0x4 ADD PUSH2 0x47D9 SWAP4 SWAP3 SWAP2 SWAP1 PUSH2 0x5CB3 JUMP JUMPDEST PUSH1 0x20 PUSH1 0x40 MLOAD DUP1 DUP4 SUB DUP2 PUSH1 0x0 DUP8 GAS CALL ISZERO DUP1 ISZERO PUSH2 0x47F8 JUMPI RETURNDATASIZE PUSH1 0x0 DUP1 RETURNDATACOPY RETURNDATASIZE PUSH1 0x0 REVERT JUMPDEST POP POP POP POP PUSH1 0x40 MLOAD RETURNDATASIZE PUSH1 0x1F NOT PUSH1 0x1F DUP3 ADD AND DUP3 ADD DUP1 PUSH1 0x40 MSTORE POP DUP2 ADD SWAP1 PUSH2 0x481C SWAP2 SWAP1 PUSH2 0x5CDA JUMP JUMPDEST POP PUSH1 0x0 DUP4 DUP2 MSTORE PUSH1 0x4 PUSH1 0x20 DUP2 DUP2 MSTORE PUSH1 0x40 DUP1 DUP5 KECCAK256 SLOAD DUP2 MLOAD DUP1 DUP5 ADD DUP10 SWAP1 MSTORE DUP1 DUP4 ADD DUP7 SWAP1 MSTORE ADDRESS PUSH1 0x60 DUP3 ADD MSTORE PUSH1 0x80 DUP1 DUP3 ADD DUP4 SWAP1 MSTORE DUP4 MLOAD DUP1 DUP4 SUB SWAP1 SWAP2 ADD DUP2 MSTORE PUSH1 0xA0 SWAP1 SWAP2 ADD SWAP1 SWAP3 MSTORE DUP2 MLOAD SWAP2 DUP4 ADD SWAP2 SWAP1 SWAP2 KECCAK256 SWAP4 DUP8 SWAP1 MSTORE SWAP2 SWAP1 MSTORE PUSH2 0x4878 SWAP1 PUSH1 0x1 PUSH2 0x5132 JUMP JUMPDEST PUSH1 0x0 DUP6 DUP2 MSTORE PUSH1 0x4 PUSH1 0x20 MSTORE PUSH1 0x40 SWAP1 KECCAK256 SSTORE PUSH2 0x1115 DUP5 DUP3 PUSH1 0x40 DUP1 MLOAD PUSH1 0x20 DUP1 DUP3 ADD SWAP5 SWAP1 SWAP5 MSTORE DUP1 DUP3 ADD SWAP3 SWAP1 SWAP3 MSTORE DUP1 MLOAD DUP1 DUP4 SUB DUP3 ADD DUP2 MSTORE PUSH1 0x60 SWAP1 SWAP3 ADD SWAP1 MSTORE DUP1 MLOAD SWAP2 ADD KECCAK256 SWAP1 JUMP JUMPDEST PUSH1 0x0 PUSH2 0x48C7 PUSH3 0x15180 DUP4 PUSH2 0x5B28 JUMP JUMPDEST PUSH2 0x48D1 SWAP1 DUP5 PUSH2 0x5132 JUMP JUMPDEST SWAP1 POP DUP3 DUP2 LT ISZERO PUSH2 0x10B2 JUMPI PUSH1 0x0 DUP1 REVERT JUMPDEST PUSH1 0x1 PUSH1 0x1 PUSH1 0xA0 SHL SUB DUP5 AND PUSH2 0x4944 JUMPI PUSH1 0x40 MLOAD PUSH3 0x461BCD PUSH1 0xE5 SHL DUP2 MSTORE PUSH1 0x20 PUSH1 0x4 DUP3 ADD MSTORE PUSH1 0x25 PUSH1 0x24 DUP3 ADD MSTORE PUSH32 0x455243313135353A207472616E7366657220746F20746865207A65726F206164 PUSH1 0x44 DUP3 ADD MSTORE PUSH5 0x6472657373 PUSH1 0xD8 SHL PUSH1 0x64 DUP3 ADD MSTORE PUSH1 0x84 ADD PUSH2 0x1086 JUMP JUMPDEST CALLER PUSH2 0x4954 DUP2 DUP8 DUP8 PUSH2 0x406C DUP9 PUSH2 0x4D30 JUMP JUMPDEST PUSH1 0x0 DUP5 DUP2 MSTORE PUSH1 0x20 DUP2 DUP2 MSTORE PUSH1 0x40 DUP1 DUP4 KECCAK256 PUSH1 0x1 PUSH1 0x1 PUSH1 0xA0 SHL SUB DUP11 AND DUP5 MSTORE SWAP1 SWAP2 MSTORE SWAP1 KECCAK256 SLOAD DUP4 DUP2 LT ISZERO PUSH2 0x4995 JUMPI PUSH1 0x40 MLOAD PUSH3 0x461BCD PUSH1 0xE5 SHL DUP2 MSTORE PUSH1 0x4 ADD PUSH2 0x1086 SWAP1 PUSH2 0x5C28 JUMP JUMPDEST PUSH1 0x0 DUP6 DUP2 MSTORE PUSH1 0x20 DUP2 DUP2 MSTORE PUSH1 0x40 DUP1 DUP4 KECCAK256 PUSH1 0x1 PUSH1 0x1 PUSH1 0xA0 SHL SUB DUP12 DUP2 AND DUP6 MSTORE SWAP3 MSTORE DUP1 DUP4 KECCAK256 DUP8 DUP6 SUB SWAP1 SSTORE SWAP1 DUP9 AND DUP3 MSTORE DUP2 KECCAK256 DUP1 SLOAD DUP7 SWAP3 SWAP1 PUSH2 0x49D2 SWAP1 DUP5 SWAP1 PUSH2 0x5132 JUMP JUMPDEST SWAP1 SWAP2 SSTORE POP POP PUSH1 0x40 DUP1 MLOAD DUP7 DUP2 MSTORE PUSH1 0x20 DUP2 ADD DUP7 SWAP1 MSTORE PUSH1 0x1 PUSH1 0x1 PUSH1 0xA0 SHL SUB DUP1 DUP10 AND SWAP3 DUP11 DUP3 AND SWAP3 SWAP2 DUP7 AND SWAP2 PUSH32 0xC3D58168C5AE7397731D063D5BBF3D657854427343F4C083240F7AACAA2D0F62 SWAP2 ADD PUSH1 0x40 MLOAD DUP1 SWAP2 SUB SWAP1 LOG4 PUSH2 0x4A32 DUP3 DUP9 DUP9 DUP9 DUP9 DUP9 PUSH2 0x4DE3 JUMP JUMPDEST POP POP POP POP POP POP POP JUMP JUMPDEST DUP1 MLOAD DUP3 MLOAD PUSH1 0x0 SWAP2 GT ISZERO PUSH2 0x4A50 JUMPI POP PUSH1 0x0 PUSH2 0x10B2 JUMP JUMPDEST DUP2 PUSH1 0x20 ADD MLOAD DUP4 PUSH1 0x20 ADD MLOAD EQ ISZERO PUSH2 0x4A68 JUMPI POP PUSH1 0x1 PUSH2 0x10B2 JUMP JUMPDEST POP DUP1 MLOAD PUSH1 0x20 SWAP3 DUP4 ADD MLOAD SWAP3 SWAP1 SWAP2 ADD MLOAD DUP2 SWAP1 KECCAK256 SWAP2 KECCAK256 EQ SWAP1 JUMP JUMPDEST PUSH1 0x0 PUSH2 0x7B2 DUP5 LT ISZERO PUSH2 0x4A90 JUMPI PUSH1 0x0 DUP1 REVERT JUMPDEST DUP4 DUP4 DUP4 PUSH1 0x0 PUSH3 0x253D8C PUSH1 0x4 PUSH1 0x64 PUSH1 0xC PUSH2 0x4AAA PUSH1 0xE DUP9 PUSH2 0x5CF7 JUMP JUMPDEST PUSH2 0x4AB4 SWAP2 SWAP1 PUSH2 0x5D36 JUMP JUMPDEST PUSH2 0x4AC0 DUP9 PUSH2 0x1324 PUSH2 0x5D64 JUMP JUMPDEST PUSH2 0x4ACA SWAP2 SWAP1 PUSH2 0x5D64 JUMP JUMPDEST PUSH2 0x4AD4 SWAP2 SWAP1 PUSH2 0x5D36 JUMP JUMPDEST PUSH2 0x4ADF SWAP1 PUSH1 0x3 PUSH2 0x5DA5 JUMP JUMPDEST PUSH2 0x4AE9 SWAP2 SWAP1 PUSH2 0x5D36 JUMP JUMPDEST PUSH1 0xC DUP1 PUSH2 0x4AF7 PUSH1 0xE DUP9 PUSH2 0x5CF7 JUMP JUMPDEST PUSH2 0x4B01 SWAP2 SWAP1 PUSH2 0x5D36 JUMP JUMPDEST PUSH2 0x4B0C SWAP1 PUSH1 0xC PUSH2 0x5DA5 JUMP JUMPDEST PUSH2 0x4B17 PUSH1 0x2 DUP9 PUSH2 0x5CF7 JUMP JUMPDEST PUSH2 0x4B21 SWAP2 SWAP1 PUSH2 0x5CF7 JUMP JUMPDEST PUSH2 0x4B2D SWAP1 PUSH2 0x16F PUSH2 0x5DA5 JUMP JUMPDEST PUSH2 0x4B37 SWAP2 SWAP1 PUSH2 0x5D36 JUMP JUMPDEST PUSH1 0x4 PUSH1 0xC PUSH2 0x4B46 PUSH1 0xE DUP10 PUSH2 0x5CF7 JUMP JUMPDEST PUSH2 0x4B50 SWAP2 SWAP1 PUSH2 0x5D36 JUMP JUMPDEST PUSH2 0x4B5C DUP10 PUSH2 0x12C0 PUSH2 0x5D64 JUMP JUMPDEST PUSH2 0x4B66 SWAP2 SWAP1 PUSH2 0x5D64 JUMP JUMPDEST PUSH2 0x4B72 SWAP1 PUSH2 0x5B5 PUSH2 0x5DA5 JUMP JUMPDEST PUSH2 0x4B7C SWAP2 SWAP1 PUSH2 0x5D36 JUMP JUMPDEST PUSH2 0x4B88 PUSH2 0x7D4B DUP8 PUSH2 0x5CF7 JUMP JUMPDEST PUSH2 0x4B92 SWAP2 SWAP1 PUSH2 0x5D64 JUMP JUMPDEST PUSH2 0x4B9C SWAP2 SWAP1 PUSH2 0x5D64 JUMP JUMPDEST PUSH2 0x4BA6 SWAP2 SWAP1 PUSH2 0x5CF7 JUMP JUMPDEST PUSH2 0x4BB0 SWAP2 SWAP1 PUSH2 0x5CF7 JUMP JUMPDEST SWAP9 SWAP8 POP POP POP POP POP POP POP POP JUMP JUMPDEST PUSH1 0x0 DUP1 DUP1 DUP4 DUP2 PUSH3 0x253D8C PUSH2 0x4BD3 DUP4 PUSH3 0x10BD9 PUSH2 0x5D64 JUMP JUMPDEST PUSH2 0x4BDD SWAP2 SWAP1 PUSH2 0x5D64 JUMP JUMPDEST SWAP1 POP PUSH1 0x0 PUSH3 0x23AB1 PUSH2 0x4BF0 DUP4 PUSH1 0x4 PUSH2 0x5DA5 JUMP JUMPDEST PUSH2 0x4BFA SWAP2 SWAP1 PUSH2 0x5D36 JUMP JUMPDEST SWAP1 POP PUSH1 0x4 PUSH2 0x4C0B DUP3 PUSH3 0x23AB1 PUSH2 0x5DA5 JUMP JUMPDEST PUSH2 0x4C16 SWAP1 PUSH1 0x3 PUSH2 0x5D64 JUMP JUMPDEST PUSH2 0x4C20 SWAP2 SWAP1 PUSH2 0x5D36 JUMP JUMPDEST PUSH2 0x4C2A SWAP1 DUP4 PUSH2 0x5CF7 JUMP JUMPDEST SWAP2 POP PUSH1 0x0 PUSH3 0x164B09 PUSH2 0x4C3D DUP5 PUSH1 0x1 PUSH2 0x5D64 JUMP JUMPDEST PUSH2 0x4C49 SWAP1 PUSH2 0xFA0 PUSH2 0x5DA5 JUMP JUMPDEST PUSH2 0x4C53 SWAP2 SWAP1 PUSH2 0x5D36 JUMP JUMPDEST SWAP1 POP PUSH1 0x4 PUSH2 0x4C63 DUP3 PUSH2 0x5B5 PUSH2 0x5DA5 JUMP JUMPDEST PUSH2 0x4C6D SWAP2 SWAP1 PUSH2 0x5D36 JUMP JUMPDEST PUSH2 0x4C77 SWAP1 DUP5 PUSH2 0x5CF7 JUMP JUMPDEST PUSH2 0x4C82 SWAP1 PUSH1 0x1F PUSH2 0x5D64 JUMP JUMPDEST SWAP3 POP PUSH1 0x0 PUSH2 0x98F PUSH2 0x4C94 DUP6 PUSH1 0x50 PUSH2 0x5DA5 JUMP JUMPDEST PUSH2 0x4C9E SWAP2 SWAP1 PUSH2 0x5D36 JUMP JUMPDEST SWAP1 POP PUSH1 0x0 PUSH1 0x50 PUSH2 0x4CB0 DUP4 PUSH2 0x98F PUSH2 0x5DA5 JUMP JUMPDEST PUSH2 0x4CBA SWAP2 SWAP1 PUSH2 0x5D36 JUMP JUMPDEST PUSH2 0x4CC4 SWAP1 DUP7 PUSH2 0x5CF7 JUMP JUMPDEST SWAP1 POP PUSH2 0x4CD1 PUSH1 0xB DUP4 PUSH2 0x5D36 JUMP JUMPDEST SWAP5 POP PUSH2 0x4CDE DUP6 PUSH1 0xC PUSH2 0x5DA5 JUMP JUMPDEST PUSH2 0x4CE9 DUP4 PUSH1 0x2 PUSH2 0x5D64 JUMP JUMPDEST PUSH2 0x4CF3 SWAP2 SWAP1 PUSH2 0x5CF7 JUMP JUMPDEST SWAP2 POP DUP5 DUP4 PUSH2 0x4D02 PUSH1 0x31 DUP8 PUSH2 0x5CF7 JUMP JUMPDEST PUSH2 0x4D0D SWAP1 PUSH1 0x64 PUSH2 0x5DA5 JUMP JUMPDEST PUSH2 0x4D17 SWAP2 SWAP1 PUSH2 0x5D64 JUMP JUMPDEST PUSH2 0x4D21 SWAP2 SWAP1 PUSH2 0x5D64 JUMP JUMPDEST SWAP11 SWAP2 SWAP10 POP SWAP8 POP SWAP6 POP POP POP POP POP POP JUMP JUMPDEST PUSH1 0x40 DUP1 MLOAD PUSH1 0x1 DUP1 DUP3 MSTORE DUP2 DUP4 ADD SWAP1 SWAP3 MSTORE PUSH1 0x60 SWAP2 PUSH1 0x0 SWAP2 SWAP1 PUSH1 0x20 DUP1 DUP4 ADD SWAP1 DUP1 CALLDATASIZE DUP4 CALLDATACOPY ADD SWAP1 POP POP SWAP1 POP DUP3 DUP2 PUSH1 0x0 DUP2 MLOAD DUP2 LT PUSH2 0x4D6A JUMPI PUSH2 0x4D6A PUSH2 0x5106 JUMP JUMPDEST PUSH1 0x20 SWAP1 DUP2 MUL SWAP2 SWAP1 SWAP2 ADD ADD MSTORE SWAP3 SWAP2 POP POP JUMP JUMPDEST PUSH1 0x3 SLOAD PUSH1 0xFF AND ISZERO PUSH2 0x3EDB JUMPI PUSH1 0x40 MLOAD PUSH3 0x461BCD PUSH1 0xE5 SHL DUP2 MSTORE PUSH1 0x20 PUSH1 0x4 DUP3 ADD MSTORE PUSH1 0x2C PUSH1 0x24 DUP3 ADD MSTORE PUSH32 0x455243313135355061757361626C653A20746F6B656E207472616E7366657220 PUSH1 0x44 DUP3 ADD MSTORE PUSH12 0x1DDA1A5B19481C185D5CD959 PUSH1 0xA2 SHL PUSH1 0x64 DUP3 ADD MSTORE PUSH1 0x84 ADD PUSH2 0x1086 JUMP JUMPDEST PUSH1 0x1 PUSH1 0x1 PUSH1 0xA0 SHL SUB DUP5 AND EXTCODESIZE ISZERO PUSH2 0x3EDB JUMPI PUSH1 0x40 MLOAD PUSH4 0xF23A6E61 PUSH1 0xE0 SHL DUP2 MSTORE PUSH1 0x1 PUSH1 0x1 PUSH1 0xA0 SHL SUB DUP6 AND SWAP1 PUSH4 0xF23A6E61 SWAP1 PUSH2 0x4E27 SWAP1 DUP10 SWAP1 DUP10 SWAP1 DUP9 SWAP1 DUP9 SWAP1 DUP9 SWAP1 PUSH1 0x4 ADD PUSH2 0x5E2A JUMP JUMPDEST PUSH1 0x20 PUSH1 0x40 MLOAD DUP1 DUP4 SUB DUP2 PUSH1 0x0 DUP8 GAS CALL SWAP3 POP POP POP DUP1 ISZERO PUSH2 0x4E62 JUMPI POP PUSH1 0x40 DUP1 MLOAD PUSH1 0x1F RETURNDATASIZE SWAP1 DUP2 ADD PUSH1 0x1F NOT AND DUP3 ADD SWAP1 SWAP3 MSTORE PUSH2 0x4E5F SWAP2 DUP2 ADD SWAP1 PUSH2 0x5E6F JUMP JUMPDEST PUSH1 0x1 JUMPDEST PUSH2 0x4F0F JUMPI PUSH2 0x4E6E PUSH2 0x5E8C JUMP JUMPDEST DUP1 PUSH4 0x8C379A0 EQ ISZERO PUSH2 0x4EA8 JUMPI POP PUSH2 0x4E83 PUSH2 0x5EA7 JUMP JUMPDEST DUP1 PUSH2 0x4E8E JUMPI POP PUSH2 0x4EAA JUMP JUMPDEST DUP1 PUSH1 0x40 MLOAD PUSH3 0x461BCD PUSH1 0xE5 SHL DUP2 MSTORE PUSH1 0x4 ADD PUSH2 0x1086 SWAP2 SWAP1 PUSH2 0x5247 JUMP JUMPDEST POP JUMPDEST PUSH1 0x40 MLOAD PUSH3 0x461BCD PUSH1 0xE5 SHL DUP2 MSTORE PUSH1 0x20 PUSH1 0x4 DUP3 ADD MSTORE PUSH1 0x34 PUSH1 0x24 DUP3 ADD MSTORE PUSH32 0x455243313135353A207472616E7366657220746F206E6F6E2045524331313535 PUSH1 0x44 DUP3 ADD MSTORE PUSH20 0x2932B1B2B4BB32B91034B6B83632B6B2B73A32B9 PUSH1 0x61 SHL PUSH1 0x64 DUP3 ADD MSTORE PUSH1 0x84 ADD PUSH2 0x1086 JUMP JUMPDEST PUSH1 0x1 PUSH1 0x1 PUSH1 0xE0 SHL SUB NOT DUP2 AND PUSH4 0xF23A6E61 PUSH1 0xE0 SHL EQ PUSH2 0x4A32 JUMPI PUSH1 0x40 MLOAD PUSH3 0x461BCD PUSH1 0xE5 SHL DUP2 MSTORE PUSH1 0x4 ADD PUSH2 0x1086 SWAP1 PUSH2 0x5F30 JUMP JUMPDEST PUSH1 0x1 PUSH1 0x1 PUSH1 0xA0 SHL SUB DUP5 AND EXTCODESIZE ISZERO PUSH2 0x3EDB JUMPI PUSH1 0x40 MLOAD PUSH4 0xBC197C81 PUSH1 0xE0 SHL DUP2 MSTORE PUSH1 0x1 PUSH1 0x1 PUSH1 0xA0 SHL SUB DUP6 AND SWAP1 PUSH4 0xBC197C81 SWAP1 PUSH2 0x4F83 SWAP1 DUP10 SWAP1 DUP10 SWAP1 DUP9 SWAP1 DUP9 SWAP1 DUP9 SWAP1 PUSH1 0x4 ADD PUSH2 0x5F78 JUMP JUMPDEST PUSH1 0x20 PUSH1 0x40 MLOAD DUP1 DUP4 SUB DUP2 PUSH1 0x0 DUP8 GAS CALL SWAP3 POP POP POP DUP1 ISZERO PUSH2 0x4FBE JUMPI POP PUSH1 0x40 DUP1 MLOAD PUSH1 0x1F RETURNDATASIZE SWAP1 DUP2 ADD PUSH1 0x1F NOT AND DUP3 ADD SWAP1 SWAP3 MSTORE PUSH2 0x4FBB SWAP2 DUP2 ADD SWAP1 PUSH2 0x5E6F JUMP JUMPDEST PUSH1 0x1 JUMPDEST PUSH2 0x4FCA JUMPI PUSH2 0x4E6E PUSH2 0x5E8C JUMP JUMPDEST PUSH1 0x1 PUSH1 0x1 PUSH1 0xE0 SHL SUB NOT DUP2 AND PUSH4 0xBC197C81 PUSH1 0xE0 SHL EQ PUSH2 0x4A32 JUMPI PUSH1 0x40 MLOAD PUSH3 0x461BCD PUSH1 0xE5 SHL DUP2 MSTORE PUSH1 0x4 ADD PUSH2 0x1086 SWAP1 PUSH2 0x5F30 JUMP JUMPDEST PUSH1 0x40 MLOAD DUP1 PUSH1 0xA0 ADD PUSH1 0x40 MSTORE DUP1 PUSH1 0x5 SWAP1 PUSH1 0x20 DUP3 MUL DUP1 CALLDATASIZE DUP4 CALLDATACOPY POP SWAP2 SWAP3 SWAP2 POP POP JUMP JUMPDEST DUP3 DUP1 SLOAD PUSH2 0x5024 SWAP1 PUSH2 0x5A62 JUMP JUMPDEST SWAP1 PUSH1 0x0 MSTORE PUSH1 0x20 PUSH1 0x0 KECCAK256 SWAP1 PUSH1 0x1F ADD PUSH1 0x20 SWAP1 DIV DUP2 ADD SWAP3 DUP3 PUSH2 0x5046 JUMPI PUSH1 0x0 DUP6 SSTORE PUSH2 0x508C JUMP JUMPDEST DUP3 PUSH1 0x1F LT PUSH2 0x505F JUMPI DUP1 MLOAD PUSH1 0xFF NOT AND DUP4 DUP1 ADD OR DUP6 SSTORE PUSH2 0x508C JUMP JUMPDEST DUP3 DUP1 ADD PUSH1 0x1 ADD DUP6 SSTORE DUP3 ISZERO PUSH2 0x508C JUMPI SWAP2 DUP3 ADD JUMPDEST DUP3 DUP2 GT ISZERO PUSH2 0x508C JUMPI DUP3 MLOAD DUP3 SSTORE SWAP2 PUSH1 0x20 ADD SWAP2 SWAP1 PUSH1 0x1 ADD SWAP1 PUSH2 0x5071 JUMP JUMPDEST POP PUSH2 0x5098 SWAP3 SWAP2 POP PUSH2 0x50F1 JUMP JUMPDEST POP SWAP1 JUMP JUMPDEST DUP3 DUP1 SLOAD DUP3 DUP3 SSTORE SWAP1 PUSH1 0x0 MSTORE PUSH1 0x20 PUSH1 0x0 KECCAK256 SWAP1 DUP2 ADD SWAP3 DUP3 ISZERO PUSH2 0x508C JUMPI SWAP2 PUSH1 0x20 MUL DUP3 ADD JUMPDEST DUP3 DUP2 GT ISZERO PUSH2 0x508C JUMPI DUP3 MLOAD DUP3 SLOAD PUSH1 0x1 PUSH1 0x1 PUSH1 0xA0 SHL SUB NOT AND PUSH1 0x1 PUSH1 0x1 PUSH1 0xA0 SHL SUB SWAP1 SWAP2 AND OR DUP3 SSTORE PUSH1 0x20 SWAP1 SWAP3 ADD SWAP2 PUSH1 0x1 SWAP1 SWAP2 ADD SWAP1 PUSH2 0x50BC JUMP JUMPDEST JUMPDEST DUP1 DUP3 GT ISZERO PUSH2 0x5098 JUMPI PUSH1 0x0 DUP2 SSTORE PUSH1 0x1 ADD PUSH2 0x50F2 JUMP JUMPDEST PUSH4 0x4E487B71 PUSH1 0xE0 SHL PUSH1 0x0 MSTORE PUSH1 0x32 PUSH1 0x4 MSTORE PUSH1 0x24 PUSH1 0x0 REVERT JUMPDEST PUSH4 0x4E487B71 PUSH1 0xE0 SHL PUSH1 0x0 MSTORE PUSH1 0x11 PUSH1 0x4 MSTORE PUSH1 0x24 PUSH1 0x0 REVERT JUMPDEST PUSH1 0x0 DUP3 NOT DUP3 GT ISZERO PUSH2 0x5145 JUMPI PUSH2 0x5145 PUSH2 0x511C JUMP JUMPDEST POP ADD SWAP1 JUMP JUMPDEST DUP1 CALLDATALOAD PUSH1 0x1 PUSH1 0x1 PUSH1 0xA0 SHL SUB DUP2 AND DUP2 EQ PUSH2 0x5161 JUMPI PUSH1 0x0 DUP1 REVERT JUMPDEST SWAP2 SWAP1 POP JUMP JUMPDEST PUSH1 0x0 DUP1 PUSH1 0x40 DUP4 DUP6 SUB SLT ISZERO PUSH2 0x5179 JUMPI PUSH1 0x0 DUP1 REVERT JUMPDEST PUSH2 0x5182 DUP4 PUSH2 0x514A JUMP JUMPDEST SWAP5 PUSH1 0x20 SWAP4 SWAP1 SWAP4 ADD CALLDATALOAD SWAP4 POP POP POP JUMP JUMPDEST PUSH1 0x1 PUSH1 0x1 PUSH1 0xE0 SHL SUB NOT DUP2 AND DUP2 EQ PUSH2 0x389E JUMPI PUSH1 0x0 DUP1 REVERT JUMPDEST PUSH1 0x0 PUSH1 0x20 DUP3 DUP5 SUB SLT ISZERO PUSH2 0x51B8 JUMPI PUSH1 0x0 DUP1 REVERT JUMPDEST DUP2 CALLDATALOAD PUSH2 0x24A2 DUP2 PUSH2 0x5190 JUMP JUMPDEST PUSH1 0x0 DUP1 PUSH1 0x0 PUSH1 0x60 DUP5 DUP7 SUB SLT ISZERO PUSH2 0x51D8 JUMPI PUSH1 0x0 DUP1 REVERT JUMPDEST POP POP DUP2 CALLDATALOAD SWAP4 PUSH1 0x20 DUP4 ADD CALLDATALOAD SWAP4 POP PUSH1 0x40 SWAP1 SWAP3 ADD CALLDATALOAD SWAP2 SWAP1 POP JUMP JUMPDEST PUSH1 0x0 JUMPDEST DUP4 DUP2 LT ISZERO PUSH2 0x520A JUMPI DUP2 DUP2 ADD MLOAD DUP4 DUP3 ADD MSTORE PUSH1 0x20 ADD PUSH2 0x51F2 JUMP JUMPDEST DUP4 DUP2 GT ISZERO PUSH2 0x45FC JUMPI POP POP PUSH1 0x0 SWAP2 ADD MSTORE JUMP JUMPDEST PUSH1 0x0 DUP2 MLOAD DUP1 DUP5 MSTORE PUSH2 0x5233 DUP2 PUSH1 0x20 DUP7 ADD PUSH1 0x20 DUP7 ADD PUSH2 0x51EF JUMP JUMPDEST PUSH1 0x1F ADD PUSH1 0x1F NOT AND SWAP3 SWAP1 SWAP3 ADD PUSH1 0x20 ADD SWAP3 SWAP2 POP POP JUMP JUMPDEST PUSH1 0x20 DUP2 MSTORE PUSH1 0x0 PUSH2 0x24A2 PUSH1 0x20 DUP4 ADD DUP5 PUSH2 0x521B JUMP JUMPDEST PUSH1 0x0 PUSH1 0x20 DUP3 DUP5 SUB SLT ISZERO PUSH2 0x526C JUMPI PUSH1 0x0 DUP1 REVERT JUMPDEST POP CALLDATALOAD SWAP2 SWAP1 POP JUMP JUMPDEST PUSH1 0x0 PUSH1 0x20 DUP3 DUP5 SUB SLT ISZERO PUSH2 0x5285 JUMPI PUSH1 0x0 DUP1 REVERT JUMPDEST PUSH2 0x24A2 DUP3 PUSH2 0x514A JUMP JUMPDEST PUSH1 0x0 DUP2 MLOAD DUP1 DUP5 MSTORE PUSH1 0x20 DUP1 DUP6 ADD SWAP5 POP DUP1 DUP5 ADD PUSH1 0x0 JUMPDEST DUP4 DUP2 LT ISZERO PUSH2 0x52BE JUMPI DUP2 MLOAD DUP8 MSTORE SWAP6 DUP3 ADD SWAP6 SWAP1 DUP3 ADD SWAP1 PUSH1 0x1 ADD PUSH2 0x52A2 JUMP JUMPDEST POP SWAP5 SWAP6 SWAP5 POP POP POP POP POP JUMP JUMPDEST PUSH1 0x0 DUP2 MLOAD DUP1 DUP5 MSTORE PUSH1 0x20 DUP1 DUP6 ADD SWAP5 POP DUP1 DUP5 ADD PUSH1 0x0 JUMPDEST DUP4 DUP2 LT ISZERO PUSH2 0x52BE JUMPI DUP2 MLOAD PUSH1 0x1 PUSH1 0x1 PUSH1 0xA0 SHL SUB AND DUP8 MSTORE SWAP6 DUP3 ADD SWAP6 SWAP1 DUP3 ADD SWAP1 PUSH1 0x1 ADD PUSH2 0x52DD JUMP JUMPDEST PUSH1 0x40 DUP2 MSTORE PUSH1 0x0 PUSH2 0x5315 PUSH1 0x40 DUP4 ADD DUP6 PUSH2 0x528E JUMP JUMPDEST DUP3 DUP2 SUB PUSH1 0x20 DUP5 ADD MSTORE PUSH2 0x3603 DUP2 DUP6 PUSH2 0x52C9 JUMP JUMPDEST PUSH1 0x0 DUP1 PUSH1 0x0 DUP1 PUSH1 0x80 DUP6 DUP8 SUB SLT ISZERO PUSH2 0x533D JUMPI PUSH1 0x0 DUP1 REVERT JUMPDEST DUP5 CALLDATALOAD SWAP4 POP PUSH1 0x20 DUP6 ADD CALLDATALOAD SWAP3 POP PUSH1 0x40 DUP6 ADD CALLDATALOAD SWAP2 POP PUSH2 0x535B PUSH1 0x60 DUP7 ADD PUSH2 0x514A JUMP JUMPDEST SWAP1 POP SWAP3 SWAP6 SWAP2 SWAP5 POP SWAP3 POP JUMP JUMPDEST PUSH4 0x4E487B71 PUSH1 0xE0 SHL PUSH1 0x0 MSTORE PUSH1 0x41 PUSH1 0x4 MSTORE PUSH1 0x24 PUSH1 0x0 REVERT JUMPDEST PUSH1 0x1F DUP3 ADD PUSH1 0x1F NOT AND DUP2 ADD PUSH1 0x1 PUSH1 0x1 PUSH1 0x40 SHL SUB DUP2 GT DUP3 DUP3 LT OR ISZERO PUSH2 0x53A1 JUMPI PUSH2 0x53A1 PUSH2 0x5366 JUMP JUMPDEST PUSH1 0x40 MSTORE POP POP JUMP JUMPDEST PUSH1 0x0 PUSH1 0x1 PUSH1 0x1 PUSH1 0x40 SHL SUB DUP3 GT ISZERO PUSH2 0x53C1 JUMPI PUSH2 0x53C1 PUSH2 0x5366 JUMP JUMPDEST POP PUSH1 0x5 SHL PUSH1 0x20 ADD SWAP1 JUMP JUMPDEST PUSH1 0x0 DUP3 PUSH1 0x1F DUP4 ADD SLT PUSH2 0x53DC JUMPI PUSH1 0x0 DUP1 REVERT JUMPDEST DUP2 CALLDATALOAD PUSH1 0x20 PUSH2 0x53E9 DUP3 PUSH2 0x53A8 JUMP JUMPDEST PUSH1 0x40 MLOAD PUSH2 0x53F6 DUP3 DUP3 PUSH2 0x537C JUMP JUMPDEST DUP4 DUP2 MSTORE PUSH1 0x5 SWAP4 SWAP1 SWAP4 SHL DUP6 ADD DUP3 ADD SWAP3 DUP3 DUP2 ADD SWAP2 POP DUP7 DUP5 GT ISZERO PUSH2 0x5416 JUMPI PUSH1 0x0 DUP1 REVERT JUMPDEST DUP3 DUP7 ADD JUMPDEST DUP5 DUP2 LT ISZERO PUSH2 0x5431 JUMPI DUP1 CALLDATALOAD DUP4 MSTORE SWAP2 DUP4 ADD SWAP2 DUP4 ADD PUSH2 0x541A JUMP JUMPDEST POP SWAP7 SWAP6 POP POP POP POP POP POP JUMP JUMPDEST PUSH1 0x0 DUP3 PUSH1 0x1F DUP4 ADD SLT PUSH2 0x544D JUMPI PUSH1 0x0 DUP1 REVERT JUMPDEST DUP2 CALLDATALOAD PUSH1 0x1 PUSH1 0x1 PUSH1 0x40 SHL SUB DUP2 GT ISZERO PUSH2 0x5466 JUMPI PUSH2 0x5466 PUSH2 0x5366 JUMP JUMPDEST PUSH1 0x40 MLOAD PUSH2 0x547D PUSH1 0x1F DUP4 ADD PUSH1 0x1F NOT AND PUSH1 0x20 ADD DUP3 PUSH2 0x537C JUMP JUMPDEST DUP2 DUP2 MSTORE DUP5 PUSH1 0x20 DUP4 DUP7 ADD ADD GT ISZERO PUSH2 0x5492 JUMPI PUSH1 0x0 DUP1 REVERT JUMPDEST DUP2 PUSH1 0x20 DUP6 ADD PUSH1 0x20 DUP4 ADD CALLDATACOPY PUSH1 0x0 SWAP2 DUP2 ADD PUSH1 0x20 ADD SWAP2 SWAP1 SWAP2 MSTORE SWAP4 SWAP3 POP POP POP JUMP JUMPDEST PUSH1 0x0 DUP1 PUSH1 0x0 DUP1 PUSH1 0x0 PUSH1 0xA0 DUP7 DUP9 SUB SLT ISZERO PUSH2 0x54C7 JUMPI PUSH1 0x0 DUP1 REVERT JUMPDEST PUSH2 0x54D0 DUP7 PUSH2 0x514A JUMP JUMPDEST SWAP5 POP PUSH2 0x54DE PUSH1 0x20 DUP8 ADD PUSH2 0x514A JUMP JUMPDEST SWAP4 POP PUSH1 0x40 DUP7 ADD CALLDATALOAD PUSH1 0x1 PUSH1 0x1 PUSH1 0x40 SHL SUB DUP1 DUP3 GT ISZERO PUSH2 0x54FA JUMPI PUSH1 0x0 DUP1 REVERT JUMPDEST PUSH2 0x5506 DUP10 DUP4 DUP11 ADD PUSH2 0x53CB JUMP JUMPDEST SWAP5 POP PUSH1 0x60 DUP9 ADD CALLDATALOAD SWAP2 POP DUP1 DUP3 GT ISZERO PUSH2 0x551C JUMPI PUSH1 0x0 DUP1 REVERT JUMPDEST PUSH2 0x5528 DUP10 DUP4 DUP11 ADD PUSH2 0x53CB JUMP JUMPDEST SWAP4 POP PUSH1 0x80 DUP9 ADD CALLDATALOAD SWAP2 POP DUP1 DUP3 GT ISZERO PUSH2 0x553E JUMPI PUSH1 0x0 DUP1 REVERT JUMPDEST POP PUSH2 0x554B DUP9 DUP3 DUP10 ADD PUSH2 0x543C JUMP JUMPDEST SWAP2 POP POP SWAP3 SWAP6 POP SWAP3 SWAP6 SWAP1 SWAP4 POP JUMP JUMPDEST DUP1 CALLDATALOAD PUSH1 0x5 DUP2 LT PUSH2 0x5161 JUMPI PUSH1 0x0 DUP1 REVERT JUMPDEST PUSH1 0x0 DUP1 PUSH1 0x40 DUP4 DUP6 SUB SLT ISZERO PUSH2 0x557A JUMPI PUSH1 0x0 DUP1 REVERT JUMPDEST DUP3 CALLDATALOAD SWAP2 POP PUSH2 0x558A PUSH1 0x20 DUP5 ADD PUSH2 0x5558 JUMP JUMPDEST SWAP1 POP SWAP3 POP SWAP3 SWAP1 POP JUMP JUMPDEST PUSH1 0x0 DUP1 PUSH1 0x40 DUP4 DUP6 SUB SLT ISZERO PUSH2 0x55A6 JUMPI PUSH1 0x0 DUP1 REVERT JUMPDEST POP POP DUP1 CALLDATALOAD SWAP3 PUSH1 0x20 SWAP1 SWAP2 ADD CALLDATALOAD SWAP2 POP JUMP JUMPDEST PUSH4 0x4E487B71 PUSH1 0xE0 SHL PUSH1 0x0 MSTORE PUSH1 0x21 PUSH1 0x4 MSTORE PUSH1 0x24 PUSH1 0x0 REVERT JUMPDEST PUSH1 0x20 DUP2 ADD PUSH1 0x5 DUP4 LT PUSH2 0x55ED JUMPI PUSH4 0x4E487B71 PUSH1 0xE0 SHL PUSH1 0x0 MSTORE PUSH1 0x21 PUSH1 0x4 MSTORE PUSH1 0x24 PUSH1 0x0 REVERT JUMPDEST SWAP2 SWAP1 MSTORE SWAP1 JUMP JUMPDEST PUSH1 0x0 DUP1 PUSH1 0x40 DUP4 DUP6 SUB SLT ISZERO PUSH2 0x5606 JUMPI PUSH1 0x0 DUP1 REVERT JUMPDEST DUP3 CALLDATALOAD PUSH1 0x1 PUSH1 0x1 PUSH1 0x40 SHL SUB DUP1 DUP3 GT ISZERO PUSH2 0x561D JUMPI PUSH1 0x0 DUP1 REVERT JUMPDEST DUP2 DUP6 ADD SWAP2 POP DUP6 PUSH1 0x1F DUP4 ADD SLT PUSH2 0x5631 JUMPI PUSH1 0x0 DUP1 REVERT JUMPDEST DUP2 CALLDATALOAD PUSH1 0x20 PUSH2 0x563E DUP3 PUSH2 0x53A8 JUMP JUMPDEST PUSH1 0x40 MLOAD PUSH2 0x564B DUP3 DUP3 PUSH2 0x537C JUMP JUMPDEST DUP4 DUP2 MSTORE PUSH1 0x5 SWAP4 SWAP1 SWAP4 SHL DUP6 ADD DUP3 ADD SWAP3 DUP3 DUP2 ADD SWAP2 POP DUP10 DUP5 GT ISZERO PUSH2 0x566B JUMPI PUSH1 0x0 DUP1 REVERT JUMPDEST SWAP5 DUP3 ADD SWAP5 JUMPDEST DUP4 DUP7 LT ISZERO PUSH2 0x5690 JUMPI PUSH2 0x5681 DUP7 PUSH2 0x514A JUMP JUMPDEST DUP3 MSTORE SWAP5 DUP3 ADD SWAP5 SWAP1 DUP3 ADD SWAP1 PUSH2 0x5670 JUMP JUMPDEST SWAP7 POP POP DUP7 ADD CALLDATALOAD SWAP3 POP POP DUP1 DUP3 GT ISZERO PUSH2 0x56A6 JUMPI PUSH1 0x0 DUP1 REVERT JUMPDEST POP PUSH2 0x56B3 DUP6 DUP3 DUP7 ADD PUSH2 0x53CB JUMP JUMPDEST SWAP2 POP POP SWAP3 POP SWAP3 SWAP1 POP JUMP JUMPDEST PUSH1 0x20 DUP2 MSTORE PUSH1 0x0 PUSH2 0x24A2 PUSH1 0x20 DUP4 ADD DUP5 PUSH2 0x528E JUMP JUMPDEST PUSH1 0x0 DUP1 PUSH1 0x40 DUP4 DUP6 SUB SLT ISZERO PUSH2 0x56E3 JUMPI PUSH1 0x0 DUP1 REVERT JUMPDEST DUP3 CALLDATALOAD SWAP2 POP PUSH1 0x20 DUP4 ADD CALLDATALOAD PUSH1 0x1 PUSH1 0x1 PUSH1 0x40 SHL SUB DUP2 GT ISZERO PUSH2 0x5700 JUMPI PUSH1 0x0 DUP1 REVERT JUMPDEST PUSH2 0x56B3 DUP6 DUP3 DUP7 ADD PUSH2 0x543C JUMP JUMPDEST PUSH1 0x0 DUP1 PUSH1 0x0 DUP1 PUSH1 0x80 DUP6 DUP8 SUB SLT ISZERO PUSH2 0x5722 JUMPI PUSH1 0x0 DUP1 REVERT JUMPDEST DUP5 CALLDATALOAD PUSH1 0x1 PUSH1 0x1 PUSH1 0x40 SHL SUB DUP1 DUP3 GT ISZERO PUSH2 0x5739 JUMPI PUSH1 0x0 DUP1 REVERT JUMPDEST PUSH2 0x5745 DUP9 DUP4 DUP10 ADD PUSH2 0x543C JUMP JUMPDEST SWAP6 POP PUSH1 0x20 DUP8 ADD CALLDATALOAD SWAP2 POP DUP1 DUP3 GT ISZERO PUSH2 0x575B JUMPI PUSH1 0x0 DUP1 REVERT JUMPDEST PUSH2 0x5767 DUP9 DUP4 DUP10 ADD PUSH2 0x543C JUMP JUMPDEST SWAP5 POP PUSH1 0x40 DUP8 ADD CALLDATALOAD SWAP2 POP DUP1 DUP3 GT ISZERO PUSH2 0x577D JUMPI PUSH1 0x0 DUP1 REVERT JUMPDEST PUSH2 0x5789 DUP9 DUP4 DUP10 ADD PUSH2 0x543C JUMP JUMPDEST SWAP4 POP PUSH1 0x60 DUP8 ADD CALLDATALOAD SWAP2 POP DUP1 DUP3 GT ISZERO PUSH2 0x579F JUMPI PUSH1 0x0 DUP1 REVERT JUMPDEST POP PUSH2 0x57AC DUP8 DUP3 DUP9 ADD PUSH2 0x543C JUMP JUMPDEST SWAP2 POP POP SWAP3 SWAP6 SWAP2 SWAP5 POP SWAP3 POP JUMP JUMPDEST DUP1 ISZERO ISZERO DUP2 EQ PUSH2 0x389E JUMPI PUSH1 0x0 DUP1 REVERT JUMPDEST PUSH1 0x0 DUP1 PUSH1 0x40 DUP4 DUP6 SUB SLT ISZERO PUSH2 0x57D9 JUMPI PUSH1 0x0 DUP1 REVERT JUMPDEST PUSH2 0x57E2 DUP4 PUSH2 0x514A JUMP JUMPDEST SWAP2 POP PUSH1 0x20 DUP4 ADD CALLDATALOAD PUSH2 0x57F2 DUP2 PUSH2 0x57B8 JUMP JUMPDEST DUP1 SWAP2 POP POP SWAP3 POP SWAP3 SWAP1 POP JUMP JUMPDEST PUSH1 0x0 DUP1 PUSH1 0x0 DUP1 PUSH1 0x0 DUP1 PUSH1 0x0 PUSH1 0xE0 DUP9 DUP11 SUB SLT ISZERO PUSH2 0x5818 JUMPI PUSH1 0x0 DUP1 REVERT JUMPDEST DUP8 CALLDATALOAD SWAP7 POP PUSH1 0x20 DUP1 DUP10 ADD CALLDATALOAD SWAP7 POP PUSH1 0x40 DUP10 ADD CALLDATALOAD SWAP6 POP PUSH1 0x60 DUP10 ADD CALLDATALOAD SWAP5 POP PUSH1 0x80 DUP10 ADD CALLDATALOAD SWAP4 POP PUSH1 0xA0 DUP10 ADD CALLDATALOAD SWAP3 POP PUSH1 0xC0 DUP10 ADD CALLDATALOAD PUSH1 0x1 PUSH1 0x1 PUSH1 0x40 SHL SUB DUP2 GT ISZERO PUSH2 0x5859 JUMPI PUSH1 0x0 DUP1 REVERT JUMPDEST DUP10 ADD PUSH1 0x1F DUP2 ADD DUP12 SGT PUSH2 0x586A JUMPI PUSH1 0x0 DUP1 REVERT JUMPDEST DUP1 CALLDATALOAD PUSH2 0x5875 DUP2 PUSH2 0x53A8 JUMP JUMPDEST PUSH1 0x40 MLOAD PUSH2 0x5882 DUP3 DUP3 PUSH2 0x537C JUMP JUMPDEST DUP3 DUP2 MSTORE PUSH1 0x5 SWAP3 SWAP1 SWAP3 SHL DUP4 ADD DUP5 ADD SWAP2 DUP5 DUP2 ADD SWAP2 POP DUP14 DUP4 GT ISZERO PUSH2 0x58A2 JUMPI PUSH1 0x0 DUP1 REVERT JUMPDEST SWAP3 DUP5 ADD SWAP3 JUMPDEST DUP3 DUP5 LT ISZERO PUSH2 0x58C7 JUMPI PUSH2 0x58B8 DUP5 PUSH2 0x5558 JUMP JUMPDEST DUP3 MSTORE SWAP3 DUP5 ADD SWAP3 SWAP1 DUP5 ADD SWAP1 PUSH2 0x58A7 JUMP JUMPDEST DUP1 SWAP6 POP POP POP POP POP POP SWAP3 SWAP6 SWAP9 SWAP2 SWAP5 SWAP8 POP SWAP3 SWAP6 POP JUMP JUMPDEST PUSH1 0x0 DUP1 PUSH1 0x40 DUP4 DUP6 SUB SLT ISZERO PUSH2 0x58EE JUMPI PUSH1 0x0 DUP1 REVERT JUMPDEST PUSH2 0x58F7 DUP4 PUSH2 0x514A JUMP JUMPDEST SWAP2 POP PUSH2 0x558A PUSH1 0x20 DUP5 ADD PUSH2 0x514A JUMP JUMPDEST PUSH1 0x20 DUP2 MSTORE PUSH1 0x0 PUSH2 0x24A2 PUSH1 0x20 DUP4 ADD DUP5 PUSH2 0x52C9 JUMP JUMPDEST PUSH1 0x0 PUSH1 0x20 DUP3 DUP5 SUB SLT ISZERO PUSH2 0x592A JUMPI PUSH1 0x0 DUP1 REVERT JUMPDEST DUP2 CALLDATALOAD PUSH2 0x24A2 DUP2 PUSH2 0x57B8 JUMP JUMPDEST PUSH1 0x0 DUP1 PUSH1 0x0 DUP1 PUSH1 0x0 PUSH1 0xA0 DUP7 DUP9 SUB SLT ISZERO PUSH2 0x594D JUMPI PUSH1 0x0 DUP1 REVERT JUMPDEST PUSH2 0x5956 DUP7 PUSH2 0x514A JUMP JUMPDEST SWAP5 POP PUSH2 0x5964 PUSH1 0x20 DUP8 ADD PUSH2 0x514A JUMP JUMPDEST SWAP4 POP PUSH1 0x40 DUP7 ADD CALLDATALOAD SWAP3 POP PUSH1 0x60 DUP7 ADD CALLDATALOAD SWAP2 POP PUSH1 0x80 DUP7 ADD CALLDATALOAD PUSH1 0x1 PUSH1 0x1 PUSH1 0x40 SHL SUB DUP2 GT ISZERO PUSH2 0x598D JUMPI PUSH1 0x0 DUP1 REVERT JUMPDEST PUSH2 0x554B DUP9 DUP3 DUP10 ADD PUSH2 0x543C JUMP JUMPDEST PUSH1 0x0 DUP1 PUSH1 0x0 DUP1 PUSH1 0x0 DUP1 PUSH1 0x0 PUSH1 0xE0 DUP9 DUP11 SUB SLT ISZERO PUSH2 0x59B4 JUMPI PUSH1 0x0 DUP1 REVERT JUMPDEST DUP8 CALLDATALOAD SWAP7 POP PUSH1 0x20 DUP9 ADD CALLDATALOAD SWAP6 POP PUSH1 0x40 DUP9 ADD CALLDATALOAD SWAP5 POP PUSH1 0x60 DUP9 ADD CALLDATALOAD PUSH1 0x1 PUSH1 0x1 PUSH1 0x40 SHL SUB DUP1 DUP3 GT ISZERO PUSH2 0x59E0 JUMPI PUSH1 0x0 DUP1 REVERT JUMPDEST PUSH2 0x59EC DUP12 DUP4 DUP13 ADD PUSH2 0x543C JUMP JUMPDEST SWAP6 POP PUSH1 0x80 DUP11 ADD CALLDATALOAD SWAP2 POP DUP1 DUP3 GT ISZERO PUSH2 0x5A02 JUMPI PUSH1 0x0 DUP1 REVERT JUMPDEST PUSH2 0x5A0E DUP12 DUP4 DUP13 ADD PUSH2 0x543C JUMP JUMPDEST SWAP5 POP PUSH1 0xA0 DUP11 ADD CALLDATALOAD SWAP2 POP DUP1 DUP3 GT ISZERO PUSH2 0x5A24 JUMPI PUSH1 0x0 DUP1 REVERT JUMPDEST PUSH2 0x5A30 DUP12 DUP4 DUP13 ADD PUSH2 0x543C JUMP JUMPDEST SWAP4 POP PUSH1 0xC0 DUP11 ADD CALLDATALOAD SWAP2 POP DUP1 DUP3 GT ISZERO PUSH2 0x5A46 JUMPI PUSH1 0x0 DUP1 REVERT JUMPDEST POP PUSH2 0x5A53 DUP11 DUP3 DUP12 ADD PUSH2 0x543C JUMP JUMPDEST SWAP2 POP POP SWAP3 SWAP6 SWAP9 SWAP2 SWAP5 SWAP8 POP SWAP3 SWAP6 POP JUMP JUMPDEST PUSH1 0x1 DUP2 DUP2 SHR SWAP1 DUP3 AND DUP1 PUSH2 0x5A76 JUMPI PUSH1 0x7F DUP3 AND SWAP2 POP JUMPDEST PUSH1 0x20 DUP3 LT DUP2 EQ ISZERO PUSH2 0x338B JUMPI PUSH4 0x4E487B71 PUSH1 0xE0 SHL PUSH1 0x0 MSTORE PUSH1 0x22 PUSH1 0x4 MSTORE PUSH1 0x24 PUSH1 0x0 REVERT JUMPDEST PUSH1 0x0 PUSH1 0x0 NOT DUP3 EQ ISZERO PUSH2 0x5AAB JUMPI PUSH2 0x5AAB PUSH2 0x511C JUMP JUMPDEST POP PUSH1 0x1 ADD SWAP1 JUMP JUMPDEST PUSH1 0x20 DUP1 DUP3 MSTORE DUP2 DUP2 ADD MSTORE PUSH32 0x4F776E61626C653A2063616C6C6572206973206E6F7420746865206F776E6572 PUSH1 0x40 DUP3 ADD MSTORE PUSH1 0x60 ADD SWAP1 JUMP JUMPDEST PUSH1 0x20 DUP1 DUP3 MSTORE PUSH1 0x10 SWAP1 DUP3 ADD MSTORE PUSH16 0x14185D5CD8589B194E881C185D5CD959 PUSH1 0x82 SHL PUSH1 0x40 DUP3 ADD MSTORE PUSH1 0x60 ADD SWAP1 JUMP JUMPDEST PUSH1 0x0 DUP3 DUP3 LT ISZERO PUSH2 0x5B23 JUMPI PUSH2 0x5B23 PUSH2 0x511C JUMP JUMPDEST POP SUB SWAP1 JUMP JUMPDEST PUSH1 0x0 DUP2 PUSH1 0x0 NOT DIV DUP4 GT DUP3 ISZERO ISZERO AND ISZERO PUSH2 0x5B42 JUMPI PUSH2 0x5B42 PUSH2 0x511C JUMP JUMPDEST POP MUL SWAP1 JUMP JUMPDEST PUSH4 0x4E487B71 PUSH1 0xE0 SHL PUSH1 0x0 MSTORE PUSH1 0x12 PUSH1 0x4 MSTORE PUSH1 0x24 PUSH1 0x0 REVERT JUMPDEST PUSH1 0x0 DUP3 PUSH2 0x5B6C JUMPI PUSH2 0x5B6C PUSH2 0x5B47 JUMP JUMPDEST POP DIV SWAP1 JUMP JUMPDEST PUSH1 0x20 DUP1 DUP3 MSTORE PUSH1 0x3 SWAP1 DUP3 ADD MSTORE PUSH3 0x653131 PUSH1 0xE8 SHL PUSH1 0x40 DUP3 ADD MSTORE PUSH1 0x60 ADD SWAP1 JUMP JUMPDEST PUSH1 0x20 DUP1 DUP3 MSTORE PUSH1 0x2 SWAP1 DUP3 ADD MSTORE PUSH2 0x6531 PUSH1 0xF0 SHL PUSH1 0x40 DUP3 ADD MSTORE PUSH1 0x60 ADD SWAP1 JUMP JUMPDEST DUP1 MLOAD PUSH10 0xFFFFFFFFFFFFFFFFFFFF DUP2 AND DUP2 EQ PUSH2 0x5161 JUMPI PUSH1 0x0 DUP1 REVERT JUMPDEST PUSH1 0x0 DUP1 PUSH1 0x0 DUP1 PUSH1 0x0 PUSH1 0xA0 DUP7 DUP9 SUB SLT ISZERO PUSH2 0x5BDC JUMPI PUSH1 0x0 DUP1 REVERT JUMPDEST PUSH2 0x5BE5 DUP7 PUSH2 0x5BAA JUMP JUMPDEST SWAP5 POP PUSH1 0x20 DUP7 ADD MLOAD SWAP4 POP PUSH1 0x40 DUP7 ADD MLOAD SWAP3 POP PUSH1 0x60 DUP7 ADD MLOAD SWAP2 POP PUSH2 0x5C08 PUSH1 0x80 DUP8 ADD PUSH2 0x5BAA JUMP JUMPDEST SWAP1 POP SWAP3 SWAP6 POP SWAP3 SWAP6 SWAP1 SWAP4 POP JUMP JUMPDEST PUSH1 0x0 DUP3 PUSH2 0x5C23 JUMPI PUSH2 0x5C23 PUSH2 0x5B47 JUMP JUMPDEST POP MOD SWAP1 JUMP JUMPDEST PUSH1 0x20 DUP1 DUP3 MSTORE PUSH1 0x2A SWAP1 DUP3 ADD MSTORE PUSH32 0x455243313135353A20696E73756666696369656E742062616C616E636520666F PUSH1 0x40 DUP3 ADD MSTORE PUSH10 0x39103A3930B739B332B9 PUSH1 0xB1 SHL PUSH1 0x60 DUP3 ADD MSTORE PUSH1 0x80 ADD SWAP1 JUMP JUMPDEST PUSH1 0x40 DUP2 MSTORE PUSH1 0x0 PUSH2 0x5C85 PUSH1 0x40 DUP4 ADD DUP6 PUSH2 0x528E JUMP JUMPDEST DUP3 DUP2 SUB PUSH1 0x20 DUP5 ADD MSTORE PUSH2 0x3603 DUP2 DUP6 PUSH2 0x528E JUMP JUMPDEST PUSH1 0x0 DUP3 MLOAD PUSH2 0x5CA9 DUP2 DUP5 PUSH1 0x20 DUP8 ADD PUSH2 0x51EF JUMP JUMPDEST SWAP2 SWAP1 SWAP2 ADD SWAP3 SWAP2 POP POP JUMP JUMPDEST PUSH1 0x1 DUP1 PUSH1 0xA0 SHL SUB DUP5 AND DUP2 MSTORE DUP3 PUSH1 0x20 DUP3 ADD MSTORE PUSH1 0x60 PUSH1 0x40 DUP3 ADD MSTORE PUSH1 0x0 PUSH2 0x3603 PUSH1 0x60 DUP4 ADD DUP5 PUSH2 0x521B JUMP JUMPDEST PUSH1 0x0 PUSH1 0x20 DUP3 DUP5 SUB SLT ISZERO PUSH2 0x5CEC JUMPI PUSH1 0x0 DUP1 REVERT JUMPDEST DUP2 MLOAD PUSH2 0x24A2 DUP2 PUSH2 0x57B8 JUMP JUMPDEST PUSH1 0x0 DUP1 DUP4 SLT DUP1 ISZERO PUSH1 0x1 PUSH1 0xFF SHL DUP6 ADD DUP5 SLT AND ISZERO PUSH2 0x5D15 JUMPI PUSH2 0x5D15 PUSH2 0x511C JUMP JUMPDEST PUSH1 0x1 PUSH1 0x1 PUSH1 0xFF SHL SUB DUP5 ADD DUP4 SGT DUP2 AND ISZERO PUSH2 0x5D30 JUMPI PUSH2 0x5D30 PUSH2 0x511C JUMP JUMPDEST POP POP SUB SWAP1 JUMP JUMPDEST PUSH1 0x0 DUP3 PUSH2 0x5D45 JUMPI PUSH2 0x5D45 PUSH2 0x5B47 JUMP JUMPDEST PUSH1 0x1 PUSH1 0xFF SHL DUP3 EQ PUSH1 0x0 NOT DUP5 EQ AND ISZERO PUSH2 0x5D5F JUMPI PUSH2 0x5D5F PUSH2 0x511C JUMP JUMPDEST POP SDIV SWAP1 JUMP JUMPDEST PUSH1 0x0 DUP1 DUP3 SLT DUP1 ISZERO PUSH1 0x1 PUSH1 0x1 PUSH1 0xFF SHL SUB DUP5 SWAP1 SUB DUP6 SGT AND ISZERO PUSH2 0x5D86 JUMPI PUSH2 0x5D86 PUSH2 0x511C JUMP JUMPDEST PUSH1 0x1 PUSH1 0xFF SHL DUP4 SWAP1 SUB DUP5 SLT DUP2 AND ISZERO PUSH2 0x5D9F JUMPI PUSH2 0x5D9F PUSH2 0x511C JUMP JUMPDEST POP POP ADD SWAP1 JUMP JUMPDEST PUSH1 0x0 PUSH1 0x1 PUSH1 0x1 PUSH1 0xFF SHL SUB DUP2 DUP5 SGT DUP3 DUP5 SGT DUP1 DUP3 AND DUP7 DUP5 DIV DUP7 GT AND ISZERO PUSH2 0x5DCB JUMPI PUSH2 0x5DCB PUSH2 0x511C JUMP JUMPDEST PUSH1 0x1 PUSH1 0xFF SHL PUSH1 0x0 DUP8 SLT DUP3 DUP2 AND DUP8 DUP4 SDIV DUP10 SLT AND ISZERO PUSH2 0x5DEA JUMPI PUSH2 0x5DEA PUSH2 0x511C JUMP JUMPDEST PUSH1 0x0 DUP8 SLT SWAP3 POP DUP8 DUP3 SDIV DUP8 SLT DUP5 DUP5 AND AND ISZERO PUSH2 0x5E06 JUMPI PUSH2 0x5E06 PUSH2 0x511C JUMP JUMPDEST DUP8 DUP6 SDIV DUP8 SLT DUP2 DUP5 AND AND ISZERO PUSH2 0x5E1C JUMPI PUSH2 0x5E1C PUSH2 0x511C JUMP JUMPDEST POP POP POP SWAP3 SWAP1 SWAP4 MUL SWAP4 SWAP3 POP POP POP JUMP JUMPDEST PUSH1 0x1 PUSH1 0x1 PUSH1 0xA0 SHL SUB DUP7 DUP2 AND DUP3 MSTORE DUP6 AND PUSH1 0x20 DUP3 ADD MSTORE PUSH1 0x40 DUP2 ADD DUP5 SWAP1 MSTORE PUSH1 0x60 DUP2 ADD DUP4 SWAP1 MSTORE PUSH1 0xA0 PUSH1 0x80 DUP3 ADD DUP2 SWAP1 MSTORE PUSH1 0x0 SWAP1 PUSH2 0x5E64 SWAP1 DUP4 ADD DUP5 PUSH2 0x521B JUMP JUMPDEST SWAP8 SWAP7 POP POP POP POP POP POP POP JUMP JUMPDEST PUSH1 0x0 PUSH1 0x20 DUP3 DUP5 SUB SLT ISZERO PUSH2 0x5E81 JUMPI PUSH1 0x0 DUP1 REVERT JUMPDEST DUP2 MLOAD PUSH2 0x24A2 DUP2 PUSH2 0x5190 JUMP JUMPDEST PUSH1 0x0 PUSH1 0x3 RETURNDATASIZE GT ISZERO PUSH2 0x320B JUMPI PUSH1 0x4 PUSH1 0x0 DUP1 RETURNDATACOPY POP PUSH1 0x0 MLOAD PUSH1 0xE0 SHR SWAP1 JUMP JUMPDEST PUSH1 0x0 PUSH1 0x44 RETURNDATASIZE LT ISZERO PUSH2 0x5EB5 JUMPI SWAP1 JUMP JUMPDEST PUSH1 0x40 MLOAD PUSH1 0x3 NOT RETURNDATASIZE DUP2 ADD PUSH1 0x4 DUP4 RETURNDATACOPY DUP2 MLOAD RETURNDATASIZE PUSH1 0x1 PUSH1 0x1 PUSH1 0x40 SHL SUB DUP2 PUSH1 0x24 DUP5 ADD GT DUP2 DUP5 GT OR ISZERO PUSH2 0x5EE4 JUMPI POP POP POP POP POP SWAP1 JUMP JUMPDEST DUP3 DUP6 ADD SWAP2 POP DUP2 MLOAD DUP2 DUP2 GT ISZERO PUSH2 0x5EFC JUMPI POP POP POP POP POP POP SWAP1 JUMP JUMPDEST DUP5 RETURNDATASIZE DUP8 ADD ADD PUSH1 0x20 DUP3 DUP6 ADD ADD GT ISZERO PUSH2 0x5F16 JUMPI POP POP POP POP POP POP SWAP1 JUMP JUMPDEST PUSH2 0x5F25 PUSH1 0x20 DUP3 DUP7 ADD ADD DUP8 PUSH2 0x537C JUMP JUMPDEST POP SWAP1 SWAP6 SWAP5 POP POP POP POP POP JUMP JUMPDEST PUSH1 0x20 DUP1 DUP3 MSTORE PUSH1 0x28 SWAP1 DUP3 ADD MSTORE PUSH32 0x455243313135353A204552433131353552656365697665722072656A65637465 PUSH1 0x40 DUP3 ADD MSTORE PUSH8 0x6420746F6B656E73 PUSH1 0xC0 SHL PUSH1 0x60 DUP3 ADD MSTORE PUSH1 0x80 ADD SWAP1 JUMP JUMPDEST PUSH1 0x1 PUSH1 0x1 PUSH1 0xA0 SHL SUB DUP7 DUP2 AND DUP3 MSTORE DUP6 AND PUSH1 0x20 DUP3 ADD MSTORE PUSH1 0xA0 PUSH1 0x40 DUP3 ADD DUP2 SWAP1 MSTORE PUSH1 0x0 SWAP1 PUSH2 0x5FA4 SWAP1 DUP4 ADD DUP7 PUSH2 0x528E JUMP JUMPDEST DUP3 DUP2 SUB PUSH1 0x60 DUP5 ADD MSTORE PUSH2 0x5FB6 DUP2 DUP7 PUSH2 0x528E JUMP JUMPDEST SWAP1 POP DUP3 DUP2 SUB PUSH1 0x80 DUP5 ADD MSTORE PUSH2 0x4BB0 DUP2 DUP6 PUSH2 0x521B JUMP INVALID LOG2 PUSH5 0x6970667358 0x22 SLT KECCAK256 0xEE SHR 0xB1 0xA5 PUSH24 0x12373FD7736CB23CBD6C6DDA9652B540DFC9B95A79DAA621 JUMPI PUSH17 0x2964736F6C634300080B00330000000000 ",
  "sha1": "7feb1828173fd12df146e7863156e34cb8d67a80",
  "source": "// SPDX-License-Identifier: MIT\npragma solidity ^0.8.0;\n\nimport \"./MemorizeThisDay.sol\";\n\ncontract MemorizeThisDayOnDOGE is MemorizeThisDay {\n    constructor(\n        address vrfCoordinator,\n        address linkToken,\n        uint256 chainlinkFee,\n        bytes32 keyHash,\n        address priceFeedAddress,\n        address developersAddress,\n        address founderAddress\n    )\n        public\n        MemorizeThisDay(\n            \"Doge\",\n            \"https://memorizethisday.github.io/DOGE/{id}.json\",\n            70,\n            vrfCoordinator,\n            linkToken,\n            chainlinkFee,\n            keyHash,\n            priceFeedAddress,\n            2017,\n            11,\n            13\n        )\n    {\n        SetAddress(founderAddress, 0);\n        SetAddress(developersAddress, 1);\n        _airdrop[founderAddress] = 45;\n        Memorize(2017, 11, 13, developersAddress);\n        Memorize(2017, 11, 14, developersAddress);\n        Memorize(2017, 11, 15, developersAddress);\n        Memorize(2017, 11, 16, developersAddress);\n        Memorize(2017, 11, 17, developersAddress);\n        Memorize(2017, 11, 18, developersAddress);\n        Memorize(2017, 11, 19, developersAddress);\n        Memorize(2017, 11, 20, developersAddress);\n        Memorize(2017, 11, 21, developersAddress);\n        Memorize(2017, 11, 22, developersAddress);\n\n        Memorize(2017, 11, 23, founderAddress);\n        Memorize(2017, 11, 24, founderAddress);\n        Memorize(2017, 11, 25, founderAddress);\n        Memorize(2017, 11, 26, founderAddress);\n        Memorize(2017, 11, 27, founderAddress);\n\n        //Initial invites to our community\n        Memorize(\n            2017,\n            12,\n            1,\n            address(0x51EAC3dAA1C34F5c2874Aa62097ac9965A180B6D)\n        );\n        Memorize(\n            2017,\n            12,\n            2,\n            address(0x8836C14Dc2b96123F132CB419B212C46247DDE41)\n        );\n        Memorize(\n            2017,\n            12,\n            3,\n            address(0x13DDf16f41f9A634EACa69bE176773FE5C629c1E)\n        );\n        Memorize(\n            2017,\n            12,\n            4,\n            address(0x00E7B17287365F3Bc59085ff5F3F56eaf1225A0D)\n        );\n        Memorize(\n            2017,\n            12,\n            5,\n            address(0x71B9DF21780CceC1BC19A4c50564F6741F692cdc)\n        );\n        Memorize(\n            2017,\n            12,\n            6,\n            address(0x6CcD607e6E2cc97574Acd5ab0f2b4D24C7F2A061)\n        );\n        Memorize(\n            2017,\n            12,\n            7,\n            address(0x51EAC3dAA1C34F5c2874Aa62097ac9965A180B6D)\n        );\n        Memorize(\n            2017,\n            12,\n            8,\n            address(0xb907e8D3F9AB2A94D476421FB2E6a68Fd516A90c)\n        );\n        Memorize(\n            2017,\n            12,\n            9,\n            address(0x67954aC510255B6B3724073022196b67bdF260B6)\n        );\n        Memorize(\n            2017,\n            12,\n            10,\n            address(0x67954aC510255B6B3724073022196b67bdF260B6)\n        );\n        Memorize(\n            2017,\n            12,\n            11,\n            address(0xb7F7F6C52F2e2fdb1963Eab30438024864c313F6)\n        );\n        Memorize(\n            2017,\n            12,\n            12,\n            address(0x6CcD607e6E2cc97574Acd5ab0f2b4D24C7F2A061)\n        );\n        Memorize(\n            2017,\n            12,\n            13,\n            address(0x6CcD607e6E2cc97574Acd5ab0f2b4D24C7F2A061)\n        );\n        Memorize(\n            2017,\n            12,\n            14,\n            address(0x484c6DcD50978B9D525cC20a02d5801F492931F8)\n        );\n        Memorize(\n            2017,\n            12,\n            15,\n            address(0x027750420d3F4DD56F558871792b1632A21c6205)\n        );\n        Memorize(\n            2017,\n            12,\n            16,\n            address(0xe6dDCC4BFc2876CC71912A0dd04b4318A2F1017D)\n        );\n        Memorize(\n            2017,\n            12,\n            17,\n            address(0x08A9eAD5bD9Af49A1F777A9f15929871ABD684C3)\n        );\n        Memorize(\n            2017,\n            12,\n            18,\n            address(0x08A9eAD5bD9Af49A1F777A9f15929871ABD684C3)\n        );\n        Memorize(\n            2017,\n            12,\n            19,\n            address(0xE920Ba2D30e812fCb02004B0253ebe168c623C66)\n        );\n        Memorize(\n            2017,\n            12,\n            20,\n            address(0x534A0076fb7c2b1f83FA21497429AD7ad3bD7587)\n        );\n        Memorize(\n            2017,\n            12,\n            21,\n            address(0x269616D549D7e8Eaa82DFb17028d0B212D11232A)\n        );\n        Memorize(\n            2017,\n            12,\n            22,\n            address(0x3924b7681c6110fCd3628164388c3307F79d1059)\n        );\n        Memorize(\n            2017,\n            12,\n            23,\n            address(0xA9d748A28A713Ecc751de04fEe994f3BC1f19Eb7)\n        );\n        Memorize(\n            2017,\n            12,\n            24,\n            address(0x48D9d0Eabc945Aa513a52d71e0Ea4047B2c33Ce4)\n        );\n        Memorize(\n            2017,\n            12,\n            25,\n            address(0x232968098eC98DAbC4A8A8fa9eB39a7666516006)\n        );\n        Memorize(\n            2017,\n            12,\n            26,\n            address(0xf3B0f4411C77c60A132003DbC01D58Fe137B75ae)\n        );\n        Memorize(\n            2017,\n            12,\n            27,\n            address(0x6639C089AdFbA8bb9968dA643C6BE208a70d6daA)\n        );\n        Memorize(\n            2017,\n            12,\n            28,\n            address(0xD6f487c29bE27DAeC9b4C44aA37D5e0902266a5B)\n        );\n        Memorize(\n            2017,\n            12,\n            29,\n            address(0x484c6DcD50978B9D525cC20a02d5801F492931F8)\n        );\n        Memorize(\n            2017,\n            12,\n            30,\n            address(0xa9D9dF8013B7cf2bcE0Dd5Ed8F34f468cDdDF28a)\n        );\n        //Initial airdrop invite\n        _airdrop[address(0x21Ff39cFDBAfdc05591c8185d85D12695398e488)] = 1;\n        _airdrop[address(0xB6CC633518147bBcD4320cAaF9b1400ca87837E1)] = 1;\n        _airdrop[address(0xB98ec5003091eF506C5D79e961Ae79C48b88249B)] = 1;\n        _airdrop[address(0x998054544099C4f22bBC405dC69Faa2e1be0b119)] = 1;\n        _airdrop[address(0xf0E22d00cBa59Ec1CdA9a77B044518A9F1bC407B)] = 1;\n        _airdrop[address(0x9791b25aAC86d0011740538Bce52A3b4cBcfdEC0)] = 1;\n        _airdrop[address(0x33DC5F65C6Cd6A8171af1f10BbbE777E59E77912)] = 1;\n        _airdrop[address(0x0027f9364BDE43D777A7B2c34ca4900E9e331467)] = 1;\n        _airdrop[address(0x1204C63555B854915cDc24DE20c699fE6C59FA3D)] = 1;\n        _airdrop[address(0x7FDF4DCb420297168F6E8CA4E8F1C44D93aD2600)] = 1;\n        _airdrop[address(0xB24E97EACA9484f36A043A42C48517D63a08f63A)] = 1;\n        _airdrop[address(0x00De12d41f7E578035876EF019fe916f2Dbe5a72)] = 1;\n        _airdrop[address(0xAFE71c4CdF6949cAE968A2E9A7C1172412A8bb2f)] = 1;\n        _airdrop[address(0x69296bF0cFBEc2fD2E28566c05fe90879dc9f27C)] = 1;\n        _airdrop[address(0x9b2620b0C0d2A5c38b1f3D1DF88224033263A6aE)] = 1;\n        _airdrop[address(0x3578B6A55f086F615F3b0D8957DD4a39ee5Faf4A)] = 1;\n        _airdrop[address(0xF34cBE3CA35Ed691d47CF37761571f7F292577F2)] = 1;\n        _airdrop[address(0xf1F02EF0570d2849198785D2204f94A64aaccBb5)] = 1;\n        _airdrop[address(0x53062093eFaB210868c0D6Af9697a47a689E0Eba)] = 1;\n        _airdrop[address(0xea54e8c4DB742a7bD8aDc8bCf4E78716baCc7484)] = 1;\n    }\n}\n",
  "sourcePath": "contracts/MemorizeDOGE.sol",
  "type": "contract"
}